{
	"bomtokenerc20_flat.sol": {
		"BOMBToken": {
			"abi": [
				{
					"inputs": [],
					"stateMutability": "nonpayable",
					"type": "constructor"
				},
				{
					"anonymous": false,
					"inputs": [
						{
							"indexed": true,
							"internalType": "address",
							"name": "owner",
							"type": "address"
						},
						{
							"indexed": true,
							"internalType": "address",
							"name": "spender",
							"type": "address"
						},
						{
							"indexed": false,
							"internalType": "uint256",
							"name": "value",
							"type": "uint256"
						}
					],
					"name": "Approval",
					"type": "event"
				},
				{
					"anonymous": false,
					"inputs": [
						{
							"indexed": true,
							"internalType": "address",
							"name": "previousOwner",
							"type": "address"
						},
						{
							"indexed": true,
							"internalType": "address",
							"name": "newOwner",
							"type": "address"
						}
					],
					"name": "OwnershipTransferred",
					"type": "event"
				},
				{
					"anonymous": false,
					"inputs": [
						{
							"indexed": false,
							"internalType": "uint256",
							"name": "id",
							"type": "uint256"
						}
					],
					"name": "Snapshot",
					"type": "event"
				},
				{
					"anonymous": false,
					"inputs": [
						{
							"indexed": true,
							"internalType": "address",
							"name": "from",
							"type": "address"
						},
						{
							"indexed": true,
							"internalType": "address",
							"name": "to",
							"type": "address"
						},
						{
							"indexed": false,
							"internalType": "uint256",
							"name": "value",
							"type": "uint256"
						}
					],
					"name": "Transfer",
					"type": "event"
				},
				{
					"inputs": [
						{
							"internalType": "address",
							"name": "owner",
							"type": "address"
						},
						{
							"internalType": "address",
							"name": "spender",
							"type": "address"
						}
					],
					"name": "allowance",
					"outputs": [
						{
							"internalType": "uint256",
							"name": "",
							"type": "uint256"
						}
					],
					"stateMutability": "view",
					"type": "function"
				},
				{
					"inputs": [
						{
							"internalType": "address",
							"name": "spender",
							"type": "address"
						},
						{
							"internalType": "uint256",
							"name": "amount",
							"type": "uint256"
						}
					],
					"name": "approve",
					"outputs": [
						{
							"internalType": "bool",
							"name": "",
							"type": "bool"
						}
					],
					"stateMutability": "nonpayable",
					"type": "function"
				},
				{
					"inputs": [
						{
							"internalType": "address",
							"name": "account",
							"type": "address"
						}
					],
					"name": "balanceOf",
					"outputs": [
						{
							"internalType": "uint256",
							"name": "",
							"type": "uint256"
						}
					],
					"stateMutability": "view",
					"type": "function"
				},
				{
					"inputs": [
						{
							"internalType": "address",
							"name": "account",
							"type": "address"
						},
						{
							"internalType": "uint256",
							"name": "snapshotId",
							"type": "uint256"
						}
					],
					"name": "balanceOfAt",
					"outputs": [
						{
							"internalType": "uint256",
							"name": "",
							"type": "uint256"
						}
					],
					"stateMutability": "view",
					"type": "function"
				},
				{
					"inputs": [
						{
							"internalType": "uint256",
							"name": "amount",
							"type": "uint256"
						}
					],
					"name": "burn",
					"outputs": [],
					"stateMutability": "nonpayable",
					"type": "function"
				},
				{
					"inputs": [
						{
							"internalType": "address",
							"name": "account",
							"type": "address"
						},
						{
							"internalType": "uint256",
							"name": "amount",
							"type": "uint256"
						}
					],
					"name": "burnFrom",
					"outputs": [],
					"stateMutability": "nonpayable",
					"type": "function"
				},
				{
					"inputs": [],
					"name": "decimals",
					"outputs": [
						{
							"internalType": "uint8",
							"name": "",
							"type": "uint8"
						}
					],
					"stateMutability": "view",
					"type": "function"
				},
				{
					"inputs": [
						{
							"internalType": "address",
							"name": "spender",
							"type": "address"
						},
						{
							"internalType": "uint256",
							"name": "subtractedValue",
							"type": "uint256"
						}
					],
					"name": "decreaseAllowance",
					"outputs": [
						{
							"internalType": "bool",
							"name": "",
							"type": "bool"
						}
					],
					"stateMutability": "nonpayable",
					"type": "function"
				},
				{
					"inputs": [
						{
							"internalType": "address",
							"name": "spender",
							"type": "address"
						},
						{
							"internalType": "uint256",
							"name": "addedValue",
							"type": "uint256"
						}
					],
					"name": "increaseAllowance",
					"outputs": [
						{
							"internalType": "bool",
							"name": "",
							"type": "bool"
						}
					],
					"stateMutability": "nonpayable",
					"type": "function"
				},
				{
					"inputs": [
						{
							"internalType": "address",
							"name": "to",
							"type": "address"
						},
						{
							"internalType": "uint256",
							"name": "amount",
							"type": "uint256"
						}
					],
					"name": "mint",
					"outputs": [],
					"stateMutability": "nonpayable",
					"type": "function"
				},
				{
					"inputs": [],
					"name": "name",
					"outputs": [
						{
							"internalType": "string",
							"name": "",
							"type": "string"
						}
					],
					"stateMutability": "view",
					"type": "function"
				},
				{
					"inputs": [],
					"name": "owner",
					"outputs": [
						{
							"internalType": "address",
							"name": "",
							"type": "address"
						}
					],
					"stateMutability": "view",
					"type": "function"
				},
				{
					"inputs": [],
					"name": "renounceOwnership",
					"outputs": [],
					"stateMutability": "nonpayable",
					"type": "function"
				},
				{
					"inputs": [],
					"name": "snapshot",
					"outputs": [],
					"stateMutability": "nonpayable",
					"type": "function"
				},
				{
					"inputs": [],
					"name": "symbol",
					"outputs": [
						{
							"internalType": "string",
							"name": "",
							"type": "string"
						}
					],
					"stateMutability": "view",
					"type": "function"
				},
				{
					"inputs": [],
					"name": "totalSupply",
					"outputs": [
						{
							"internalType": "uint256",
							"name": "",
							"type": "uint256"
						}
					],
					"stateMutability": "view",
					"type": "function"
				},
				{
					"inputs": [
						{
							"internalType": "uint256",
							"name": "snapshotId",
							"type": "uint256"
						}
					],
					"name": "totalSupplyAt",
					"outputs": [
						{
							"internalType": "uint256",
							"name": "",
							"type": "uint256"
						}
					],
					"stateMutability": "view",
					"type": "function"
				},
				{
					"inputs": [
						{
							"internalType": "address",
							"name": "to",
							"type": "address"
						},
						{
							"internalType": "uint256",
							"name": "amount",
							"type": "uint256"
						}
					],
					"name": "transfer",
					"outputs": [
						{
							"internalType": "bool",
							"name": "",
							"type": "bool"
						}
					],
					"stateMutability": "nonpayable",
					"type": "function"
				},
				{
					"inputs": [
						{
							"internalType": "address",
							"name": "from",
							"type": "address"
						},
						{
							"internalType": "address",
							"name": "to",
							"type": "address"
						},
						{
							"internalType": "uint256",
							"name": "amount",
							"type": "uint256"
						}
					],
					"name": "transferFrom",
					"outputs": [
						{
							"internalType": "bool",
							"name": "",
							"type": "bool"
						}
					],
					"stateMutability": "nonpayable",
					"type": "function"
				},
				{
					"inputs": [
						{
							"internalType": "address",
							"name": "newOwner",
							"type": "address"
						}
					],
					"name": "transferOwnership",
					"outputs": [],
					"stateMutability": "nonpayable",
					"type": "function"
				}
			],
			"devdoc": {
				"custom:security-contact": "skifhies@gmail.com",
				"kind": "dev",
				"methods": {
					"allowance(address,address)": {
						"details": "See {IERC20-allowance}."
					},
					"approve(address,uint256)": {
						"details": "See {IERC20-approve}. NOTE: If `amount` is the maximum `uint256`, the allowance is not updated on `transferFrom`. This is semantically equivalent to an infinite approval. Requirements: - `spender` cannot be the zero address."
					},
					"balanceOf(address)": {
						"details": "See {IERC20-balanceOf}."
					},
					"balanceOfAt(address,uint256)": {
						"details": "Retrieves the balance of `account` at the time `snapshotId` was created."
					},
					"burn(uint256)": {
						"details": "Destroys `amount` tokens from the caller. See {ERC20-_burn}."
					},
					"burnFrom(address,uint256)": {
						"details": "Destroys `amount` tokens from `account`, deducting from the caller's allowance. See {ERC20-_burn} and {ERC20-allowance}. Requirements: - the caller must have allowance for ``accounts``'s tokens of at least `amount`."
					},
					"decimals()": {
						"details": "Returns the number of decimals used to get its user representation. For example, if `decimals` equals `2`, a balance of `505` tokens should be displayed to a user as `5.05` (`505 / 10 ** 2`). Tokens usually opt for a value of 18, imitating the relationship between Ether and Wei. This is the value {ERC20} uses, unless this function is overridden; NOTE: This information is only used for _display_ purposes: it in no way affects any of the arithmetic of the contract, including {IERC20-balanceOf} and {IERC20-transfer}."
					},
					"decreaseAllowance(address,uint256)": {
						"details": "Atomically decreases the allowance granted to `spender` by the caller. This is an alternative to {approve} that can be used as a mitigation for problems described in {IERC20-approve}. Emits an {Approval} event indicating the updated allowance. Requirements: - `spender` cannot be the zero address. - `spender` must have allowance for the caller of at least `subtractedValue`."
					},
					"increaseAllowance(address,uint256)": {
						"details": "Atomically increases the allowance granted to `spender` by the caller. This is an alternative to {approve} that can be used as a mitigation for problems described in {IERC20-approve}. Emits an {Approval} event indicating the updated allowance. Requirements: - `spender` cannot be the zero address."
					},
					"name()": {
						"details": "Returns the name of the token."
					},
					"owner()": {
						"details": "Returns the address of the current owner."
					},
					"renounceOwnership()": {
						"details": "Leaves the contract without owner. It will not be possible to call `onlyOwner` functions anymore. Can only be called by the current owner. NOTE: Renouncing ownership will leave the contract without an owner, thereby removing any functionality that is only available to the owner."
					},
					"symbol()": {
						"details": "Returns the symbol of the token, usually a shorter version of the name."
					},
					"totalSupply()": {
						"details": "See {IERC20-totalSupply}."
					},
					"totalSupplyAt(uint256)": {
						"details": "Retrieves the total supply at the time `snapshotId` was created."
					},
					"transfer(address,uint256)": {
						"details": "See {IERC20-transfer}. Requirements: - `to` cannot be the zero address. - the caller must have a balance of at least `amount`."
					},
					"transferFrom(address,address,uint256)": {
						"details": "See {IERC20-transferFrom}. Emits an {Approval} event indicating the updated allowance. This is not required by the EIP. See the note at the beginning of {ERC20}. NOTE: Does not update the allowance if the current allowance is the maximum `uint256`. Requirements: - `from` and `to` cannot be the zero address. - `from` must have a balance of at least `amount`. - the caller must have allowance for ``from``'s tokens of at least `amount`."
					},
					"transferOwnership(address)": {
						"details": "Transfers ownership of the contract to a new account (`newOwner`). Can only be called by the current owner."
					}
				},
				"version": 1
			},
			"evm": {
				"assembly": "    /* \"bomtokenerc20_flat.sol\":33652:34268  contract BOMBToken is ERC20, ERC20Burnable, ERC20Snapshot, Ownable {... */\n  mstore(0x40, 0x80)\n    /* \"bomtokenerc20_flat.sol\":33725:33829  constructor() ERC20(\"BOMBToken\", \"BT\") {... */\n  callvalue\n  dup1\n  iszero\n  tag_1\n  jumpi\n  0x00\n  dup1\n  revert\ntag_1:\n  pop\n    /* \"bomtokenerc20_flat.sol\":12918:13031  constructor(string memory name_, string memory symbol_) {... */\n  mload(0x40)\n  dup1\n  0x40\n  add\n  0x40\n  mstore\n  dup1\n  0x09\n  dup2\n  mstore\n  0x20\n  add\n  0x424f4d42546f6b656e0000000000000000000000000000000000000000000000\n  dup2\n  mstore\n  pop\n  mload(0x40)\n  dup1\n  0x40\n  add\n  0x40\n  mstore\n  dup1\n  0x02\n  dup2\n  mstore\n  0x20\n  add\n  0x4254000000000000000000000000000000000000000000000000000000000000\n  dup2\n  mstore\n  pop\n    /* \"bomtokenerc20_flat.sol\":12992:12997  name_ */\n  dup2\n    /* \"bomtokenerc20_flat.sol\":12984:12989  _name */\n  0x03\n    /* \"bomtokenerc20_flat.sol\":12984:12997  _name = name_ */\n  swap1\n  dup1\n  mload\n  swap1\n  0x20\n  add\n  swap1\n  tag_6\n  swap3\n  swap2\n  swap1\n  tag_7\n  jump\t// in\ntag_6:\n  pop\n    /* \"bomtokenerc20_flat.sol\":13017:13024  symbol_ */\n  dup1\n    /* \"bomtokenerc20_flat.sol\":13007:13014  _symbol */\n  0x04\n    /* \"bomtokenerc20_flat.sol\":13007:13024  _symbol = symbol_ */\n  swap1\n  dup1\n  mload\n  swap1\n  0x20\n  add\n  swap1\n  tag_8\n  swap3\n  swap2\n  swap1\n  tag_7\n  jump\t// in\ntag_8:\n  pop\n    /* \"bomtokenerc20_flat.sol\":12918:13031  constructor(string memory name_, string memory symbol_) {... */\n  pop\n  pop\n    /* \"bomtokenerc20_flat.sol\":5973:6005  _transferOwnership(_msgSender()) */\n  tag_10\n    /* \"bomtokenerc20_flat.sol\":5992:6004  _msgSender() */\n  tag_11\n    /* \"bomtokenerc20_flat.sol\":5992:6002  _msgSender */\n  shl(0x20, tag_12)\n    /* \"bomtokenerc20_flat.sol\":5992:6004  _msgSender() */\n  0x20\n  shr\n  jump\t// in\ntag_11:\n    /* \"bomtokenerc20_flat.sol\":5973:5991  _transferOwnership */\n  shl(0x20, tag_13)\n    /* \"bomtokenerc20_flat.sol\":5973:6005  _transferOwnership(_msgSender()) */\n  0x20\n  shr\n  jump\t// in\ntag_10:\n    /* \"bomtokenerc20_flat.sol\":33774:33822  _mint(msg.sender, 1000000000 * 10 ** decimals()) */\n  tag_15\n    /* \"bomtokenerc20_flat.sol\":33780:33790  msg.sender */\n  caller\n    /* \"bomtokenerc20_flat.sol\":33811:33821  decimals() */\n  tag_16\n    /* \"bomtokenerc20_flat.sol\":33811:33819  decimals */\n  shl(0x20, tag_17)\n    /* \"bomtokenerc20_flat.sol\":33811:33821  decimals() */\n  0x20\n  shr\n  jump\t// in\ntag_16:\n    /* \"bomtokenerc20_flat.sol\":33805:33807  10 */\n  0x0a\n    /* \"bomtokenerc20_flat.sol\":33805:33821  10 ** decimals() */\n  tag_18\n  swap2\n  swap1\n  tag_19\n  jump\t// in\ntag_18:\n    /* \"bomtokenerc20_flat.sol\":33792:33802  1000000000 */\n  0x3b9aca00\n    /* \"bomtokenerc20_flat.sol\":33792:33821  1000000000 * 10 ** decimals() */\n  tag_20\n  swap2\n  swap1\n  tag_21\n  jump\t// in\ntag_20:\n    /* \"bomtokenerc20_flat.sol\":33774:33779  _mint */\n  shl(0x20, tag_22)\n    /* \"bomtokenerc20_flat.sol\":33774:33822  _mint(msg.sender, 1000000000 * 10 ** decimals()) */\n  0x20\n  shr\n  jump\t// in\ntag_15:\n    /* \"bomtokenerc20_flat.sol\":33652:34268  contract BOMBToken is ERC20, ERC20Burnable, ERC20Snapshot, Ownable {... */\n  jump(tag_23)\n    /* \"bomtokenerc20_flat.sol\":4856:4952  function _msgSender() internal view virtual returns (address) {... */\ntag_12:\n    /* \"bomtokenerc20_flat.sol\":4909:4916  address */\n  0x00\n    /* \"bomtokenerc20_flat.sol\":4935:4945  msg.sender */\n  caller\n    /* \"bomtokenerc20_flat.sol\":4928:4945  return msg.sender */\n  swap1\n  pop\n    /* \"bomtokenerc20_flat.sol\":4856:4952  function _msgSender() internal view virtual returns (address) {... */\n  swap1\n  jump\t// out\n    /* \"bomtokenerc20_flat.sol\":7322:7509  function _transferOwnership(address newOwner) internal virtual {... */\ntag_13:\n    /* \"bomtokenerc20_flat.sol\":7395:7411  address oldOwner */\n  0x00\n    /* \"bomtokenerc20_flat.sol\":7414:7420  _owner */\n  0x09\n  0x00\n  swap1\n  sload\n  swap1\n  0x0100\n  exp\n  swap1\n  div\n  0xffffffffffffffffffffffffffffffffffffffff\n  and\n    /* \"bomtokenerc20_flat.sol\":7395:7420  address oldOwner = _owner */\n  swap1\n  pop\n    /* \"bomtokenerc20_flat.sol\":7439:7447  newOwner */\n  dup2\n    /* \"bomtokenerc20_flat.sol\":7430:7436  _owner */\n  0x09\n  0x00\n    /* \"bomtokenerc20_flat.sol\":7430:7447  _owner = newOwner */\n  0x0100\n  exp\n  dup2\n  sload\n  dup2\n  0xffffffffffffffffffffffffffffffffffffffff\n  mul\n  not\n  and\n  swap1\n  dup4\n  0xffffffffffffffffffffffffffffffffffffffff\n  and\n  mul\n  or\n  swap1\n  sstore\n  pop\n    /* \"bomtokenerc20_flat.sol\":7493:7501  newOwner */\n  dup2\n    /* \"bomtokenerc20_flat.sol\":7462:7502  OwnershipTransferred(oldOwner, newOwner) */\n  0xffffffffffffffffffffffffffffffffffffffff\n  and\n    /* \"bomtokenerc20_flat.sol\":7483:7491  oldOwner */\n  dup2\n    /* \"bomtokenerc20_flat.sol\":7462:7502  OwnershipTransferred(oldOwner, newOwner) */\n  0xffffffffffffffffffffffffffffffffffffffff\n  and\n  0x8be0079c531659141344cd1fd0a4f28419497f9722a3daafe3b4186f6b6457e0\n  mload(0x40)\n  mload(0x40)\n  dup1\n  swap2\n  sub\n  swap1\n  log3\n    /* \"bomtokenerc20_flat.sol\":7385:7509  {... */\n  pop\n    /* \"bomtokenerc20_flat.sol\":7322:7509  function _transferOwnership(address newOwner) internal virtual {... */\n  pop\n  jump\t// out\n    /* \"bomtokenerc20_flat.sol\":14033:14124  function decimals() public view virtual override returns (uint8) {... */\ntag_17:\n    /* \"bomtokenerc20_flat.sol\":14091:14096  uint8 */\n  0x00\n    /* \"bomtokenerc20_flat.sol\":14115:14117  18 */\n  0x12\n    /* \"bomtokenerc20_flat.sol\":14108:14117  return 18 */\n  swap1\n  pop\n    /* \"bomtokenerc20_flat.sol\":14033:14124  function decimals() public view virtual override returns (uint8) {... */\n  swap1\n  jump\t// out\n    /* \"bomtokenerc20_flat.sol\":19351:19740  function _mint(address account, uint256 amount) internal virtual {... */\ntag_22:\n    /* \"bomtokenerc20_flat.sol\":19453:19454  0 */\n  0x00\n    /* \"bomtokenerc20_flat.sol\":19434:19455  account != address(0) */\n  0xffffffffffffffffffffffffffffffffffffffff\n  and\n    /* \"bomtokenerc20_flat.sol\":19434:19441  account */\n  dup3\n    /* \"bomtokenerc20_flat.sol\":19434:19455  account != address(0) */\n  0xffffffffffffffffffffffffffffffffffffffff\n  and\n  eq\n  iszero\n    /* \"bomtokenerc20_flat.sol\":19426:19491  require(account != address(0), \"ERC20: mint to the zero address\") */\n  tag_28\n  jumpi\n  mload(0x40)\n  0x08c379a000000000000000000000000000000000000000000000000000000000\n  dup2\n  mstore\n  0x04\n  add\n  tag_29\n  swap1\n  tag_30\n  jump\t// in\ntag_29:\n  mload(0x40)\n  dup1\n  swap2\n  sub\n  swap1\n  revert\ntag_28:\n    /* \"bomtokenerc20_flat.sol\":19502:19551  _beforeTokenTransfer(address(0), account, amount) */\n  tag_31\n    /* \"bomtokenerc20_flat.sol\":19531:19532  0 */\n  0x00\n    /* \"bomtokenerc20_flat.sol\":19535:19542  account */\n  dup4\n    /* \"bomtokenerc20_flat.sol\":19544:19550  amount */\n  dup4\n    /* \"bomtokenerc20_flat.sol\":19502:19522  _beforeTokenTransfer */\n  shl(0x20, tag_32)\n    /* \"bomtokenerc20_flat.sol\":19502:19551  _beforeTokenTransfer(address(0), account, amount) */\n  0x20\n  shr\n  jump\t// in\ntag_31:\n    /* \"bomtokenerc20_flat.sol\":19578:19584  amount */\n  dup1\n    /* \"bomtokenerc20_flat.sol\":19562:19574  _totalSupply */\n  0x02\n  0x00\n    /* \"bomtokenerc20_flat.sol\":19562:19584  _totalSupply += amount */\n  dup3\n  dup3\n  sload\n  tag_33\n  swap2\n  swap1\n  tag_34\n  jump\t// in\ntag_33:\n  swap3\n  pop\n  pop\n  dup2\n  swap1\n  sstore\n  pop\n    /* \"bomtokenerc20_flat.sol\":19616:19622  amount */\n  dup1\n    /* \"bomtokenerc20_flat.sol\":19594:19603  _balances */\n  0x00\n    /* \"bomtokenerc20_flat.sol\":19594:19612  _balances[account] */\n  dup1\n    /* \"bomtokenerc20_flat.sol\":19604:19611  account */\n  dup5\n    /* \"bomtokenerc20_flat.sol\":19594:19612  _balances[account] */\n  0xffffffffffffffffffffffffffffffffffffffff\n  and\n  0xffffffffffffffffffffffffffffffffffffffff\n  and\n  dup2\n  mstore\n  0x20\n  add\n  swap1\n  dup2\n  mstore\n  0x20\n  add\n  0x00\n  keccak256\n  0x00\n    /* \"bomtokenerc20_flat.sol\":19594:19622  _balances[account] += amount */\n  dup3\n  dup3\n  sload\n  tag_35\n  swap2\n  swap1\n  tag_34\n  jump\t// in\ntag_35:\n  swap3\n  pop\n  pop\n  dup2\n  swap1\n  sstore\n  pop\n    /* \"bomtokenerc20_flat.sol\":19658:19665  account */\n  dup2\n    /* \"bomtokenerc20_flat.sol\":19637:19674  Transfer(address(0), account, amount) */\n  0xffffffffffffffffffffffffffffffffffffffff\n  and\n    /* \"bomtokenerc20_flat.sol\":19654:19655  0 */\n  0x00\n    /* \"bomtokenerc20_flat.sol\":19637:19674  Transfer(address(0), account, amount) */\n  0xffffffffffffffffffffffffffffffffffffffff\n  and\n  0xddf252ad1be2c89b69c2b068fc378daa952ba7f163c4a11628f55a4df523b3ef\n    /* \"bomtokenerc20_flat.sol\":19667:19673  amount */\n  dup4\n    /* \"bomtokenerc20_flat.sol\":19637:19674  Transfer(address(0), account, amount) */\n  mload(0x40)\n  tag_36\n  swap2\n  swap1\n  tag_37\n  jump\t// in\ntag_36:\n  mload(0x40)\n  dup1\n  swap2\n  sub\n  swap1\n  log3\n    /* \"bomtokenerc20_flat.sol\":19685:19733  _afterTokenTransfer(address(0), account, amount) */\n  tag_38\n    /* \"bomtokenerc20_flat.sol\":19713:19714  0 */\n  0x00\n    /* \"bomtokenerc20_flat.sol\":19717:19724  account */\n  dup4\n    /* \"bomtokenerc20_flat.sol\":19726:19732  amount */\n  dup4\n    /* \"bomtokenerc20_flat.sol\":19685:19704  _afterTokenTransfer */\n  shl(0x20, tag_39)\n    /* \"bomtokenerc20_flat.sol\":19685:19733  _afterTokenTransfer(address(0), account, amount) */\n  0x20\n  shr\n  jump\t// in\ntag_38:\n    /* \"bomtokenerc20_flat.sol\":19351:19740  function _mint(address account, uint256 amount) internal virtual {... */\n  pop\n  pop\n  jump\t// out\n    /* \"bomtokenerc20_flat.sol\":34073:34266  function _beforeTokenTransfer(address from, address to, uint256 amount)... */\ntag_32:\n    /* \"bomtokenerc20_flat.sol\":34215:34259  super._beforeTokenTransfer(from, to, amount) */\n  tag_41\n    /* \"bomtokenerc20_flat.sol\":34242:34246  from */\n  dup4\n    /* \"bomtokenerc20_flat.sol\":34248:34250  to */\n  dup4\n    /* \"bomtokenerc20_flat.sol\":34252:34258  amount */\n  dup4\n    /* \"bomtokenerc20_flat.sol\":34215:34241  super._beforeTokenTransfer */\n  or(tag_0_103, shl(0x20, tag_42))\n    /* \"bomtokenerc20_flat.sol\":34215:34259  super._beforeTokenTransfer(from, to, amount) */\n  0x20\n  shr\n  jump\t// in\ntag_41:\n    /* \"bomtokenerc20_flat.sol\":34073:34266  function _beforeTokenTransfer(address from, address to, uint256 amount)... */\n  pop\n  pop\n  pop\n  jump\t// out\n    /* \"bomtokenerc20_flat.sol\":23444:23564  function _afterTokenTransfer(... */\ntag_39:\n  pop\n  pop\n  pop\n  jump\t// out\n    /* \"bomtokenerc20_flat.sol\":29319:29921  function _beforeTokenTransfer(... */\ntag_42:\n    /* \"bomtokenerc20_flat.sol\":29457:29501  super._beforeTokenTransfer(from, to, amount) */\n  tag_45\n    /* \"bomtokenerc20_flat.sol\":29484:29488  from */\n  dup4\n    /* \"bomtokenerc20_flat.sol\":29490:29492  to */\n  dup4\n    /* \"bomtokenerc20_flat.sol\":29494:29500  amount */\n  dup4\n    /* \"bomtokenerc20_flat.sol\":29457:29483  super._beforeTokenTransfer */\n  or(tag_0_104, shl(0x20, tag_46))\n    /* \"bomtokenerc20_flat.sol\":29457:29501  super._beforeTokenTransfer(from, to, amount) */\n  0x20\n  shr\n  jump\t// in\ntag_45:\n    /* \"bomtokenerc20_flat.sol\":29532:29533  0 */\n  0x00\n    /* \"bomtokenerc20_flat.sol\":29516:29534  from == address(0) */\n  0xffffffffffffffffffffffffffffffffffffffff\n  and\n    /* \"bomtokenerc20_flat.sol\":29516:29520  from */\n  dup4\n    /* \"bomtokenerc20_flat.sol\":29516:29534  from == address(0) */\n  0xffffffffffffffffffffffffffffffffffffffff\n  and\n  eq\n    /* \"bomtokenerc20_flat.sol\":29512:29915  if (from == address(0)) {... */\n  iszero\n  tag_47\n  jumpi\n    /* \"bomtokenerc20_flat.sol\":29570:29596  _updateAccountSnapshot(to) */\n  tag_48\n    /* \"bomtokenerc20_flat.sol\":29593:29595  to */\n  dup3\n    /* \"bomtokenerc20_flat.sol\":29570:29592  _updateAccountSnapshot */\n  shl(0x20, tag_49)\n    /* \"bomtokenerc20_flat.sol\":29570:29596  _updateAccountSnapshot(to) */\n  0x20\n  shr\n  jump\t// in\ntag_48:\n    /* \"bomtokenerc20_flat.sol\":29610:29638  _updateTotalSupplySnapshot() */\n  tag_50\n    /* \"bomtokenerc20_flat.sol\":29610:29636  _updateTotalSupplySnapshot */\n  shl(0x20, tag_51)\n    /* \"bomtokenerc20_flat.sol\":29610:29638  _updateTotalSupplySnapshot() */\n  0x20\n  shr\n  jump\t// in\ntag_50:\n    /* \"bomtokenerc20_flat.sol\":29512:29915  if (from == address(0)) {... */\n  jump(tag_52)\ntag_47:\n    /* \"bomtokenerc20_flat.sol\":29673:29674  0 */\n  0x00\n    /* \"bomtokenerc20_flat.sol\":29659:29675  to == address(0) */\n  0xffffffffffffffffffffffffffffffffffffffff\n  and\n    /* \"bomtokenerc20_flat.sol\":29659:29661  to */\n  dup3\n    /* \"bomtokenerc20_flat.sol\":29659:29675  to == address(0) */\n  0xffffffffffffffffffffffffffffffffffffffff\n  and\n  eq\n    /* \"bomtokenerc20_flat.sol\":29655:29915  if (to == address(0)) {... */\n  iszero\n  tag_53\n  jumpi\n    /* \"bomtokenerc20_flat.sol\":29711:29739  _updateAccountSnapshot(from) */\n  tag_54\n    /* \"bomtokenerc20_flat.sol\":29734:29738  from */\n  dup4\n    /* \"bomtokenerc20_flat.sol\":29711:29733  _updateAccountSnapshot */\n  shl(0x20, tag_49)\n    /* \"bomtokenerc20_flat.sol\":29711:29739  _updateAccountSnapshot(from) */\n  0x20\n  shr\n  jump\t// in\ntag_54:\n    /* \"bomtokenerc20_flat.sol\":29753:29781  _updateTotalSupplySnapshot() */\n  tag_55\n    /* \"bomtokenerc20_flat.sol\":29753:29779  _updateTotalSupplySnapshot */\n  shl(0x20, tag_51)\n    /* \"bomtokenerc20_flat.sol\":29753:29781  _updateTotalSupplySnapshot() */\n  0x20\n  shr\n  jump\t// in\ntag_55:\n    /* \"bomtokenerc20_flat.sol\":29655:29915  if (to == address(0)) {... */\n  jump(tag_56)\ntag_53:\n    /* \"bomtokenerc20_flat.sol\":29836:29864  _updateAccountSnapshot(from) */\n  tag_57\n    /* \"bomtokenerc20_flat.sol\":29859:29863  from */\n  dup4\n    /* \"bomtokenerc20_flat.sol\":29836:29858  _updateAccountSnapshot */\n  shl(0x20, tag_49)\n    /* \"bomtokenerc20_flat.sol\":29836:29864  _updateAccountSnapshot(from) */\n  0x20\n  shr\n  jump\t// in\ntag_57:\n    /* \"bomtokenerc20_flat.sol\":29878:29904  _updateAccountSnapshot(to) */\n  tag_58\n    /* \"bomtokenerc20_flat.sol\":29901:29903  to */\n  dup3\n    /* \"bomtokenerc20_flat.sol\":29878:29900  _updateAccountSnapshot */\n  shl(0x20, tag_49)\n    /* \"bomtokenerc20_flat.sol\":29878:29904  _updateAccountSnapshot(to) */\n  0x20\n  shr\n  jump\t// in\ntag_58:\n    /* \"bomtokenerc20_flat.sol\":29655:29915  if (to == address(0)) {... */\ntag_56:\n    /* \"bomtokenerc20_flat.sol\":29512:29915  if (from == address(0)) {... */\ntag_52:\n    /* \"bomtokenerc20_flat.sol\":29319:29921  function _beforeTokenTransfer(... */\n  pop\n  pop\n  pop\n  jump\t// out\n    /* \"bomtokenerc20_flat.sol\":22735:22856  function _beforeTokenTransfer(... */\ntag_46:\n  pop\n  pop\n  pop\n  jump\t// out\n    /* \"bomtokenerc20_flat.sol\":31527:31671  function _updateAccountSnapshot(address account) private {... */\ntag_49:\n    /* \"bomtokenerc20_flat.sol\":31594:31664  _updateSnapshot(_accountBalanceSnapshots[account], balanceOf(account)) */\n  tag_61\n    /* \"bomtokenerc20_flat.sol\":31610:31634  _accountBalanceSnapshots */\n  0x05\n    /* \"bomtokenerc20_flat.sol\":31610:31643  _accountBalanceSnapshots[account] */\n  0x00\n    /* \"bomtokenerc20_flat.sol\":31635:31642  account */\n  dup4\n    /* \"bomtokenerc20_flat.sol\":31610:31643  _accountBalanceSnapshots[account] */\n  0xffffffffffffffffffffffffffffffffffffffff\n  and\n  0xffffffffffffffffffffffffffffffffffffffff\n  and\n  dup2\n  mstore\n  0x20\n  add\n  swap1\n  dup2\n  mstore\n  0x20\n  add\n  0x00\n  keccak256\n    /* \"bomtokenerc20_flat.sol\":31645:31663  balanceOf(account) */\n  tag_62\n    /* \"bomtokenerc20_flat.sol\":31655:31662  account */\n  dup4\n    /* \"bomtokenerc20_flat.sol\":31645:31654  balanceOf */\n  shl(0x20, tag_63)\n    /* \"bomtokenerc20_flat.sol\":31645:31663  balanceOf(account) */\n  0x20\n  shr\n  jump\t// in\ntag_62:\n    /* \"bomtokenerc20_flat.sol\":31594:31609  _updateSnapshot */\n  shl(0x20, tag_64)\n    /* \"bomtokenerc20_flat.sol\":31594:31664  _updateSnapshot(_accountBalanceSnapshots[account], balanceOf(account)) */\n  0x20\n  shr\n  jump\t// in\ntag_61:\n    /* \"bomtokenerc20_flat.sol\":31527:31671  function _updateAccountSnapshot(address account) private {... */\n  pop\n  jump\t// out\n    /* \"bomtokenerc20_flat.sol\":31677:31793  function _updateTotalSupplySnapshot() private {... */\ntag_51:\n    /* \"bomtokenerc20_flat.sol\":31733:31786  _updateSnapshot(_totalSupplySnapshots, totalSupply()) */\n  tag_66\n    /* \"bomtokenerc20_flat.sol\":31749:31770  _totalSupplySnapshots */\n  0x06\n    /* \"bomtokenerc20_flat.sol\":31772:31785  totalSupply() */\n  tag_67\n    /* \"bomtokenerc20_flat.sol\":31772:31783  totalSupply */\n  shl(0x20, tag_68)\n    /* \"bomtokenerc20_flat.sol\":31772:31785  totalSupply() */\n  0x20\n  shr\n  jump\t// in\ntag_67:\n    /* \"bomtokenerc20_flat.sol\":31733:31748  _updateSnapshot */\n  shl(0x20, tag_64)\n    /* \"bomtokenerc20_flat.sol\":31733:31786  _updateSnapshot(_totalSupplySnapshots, totalSupply()) */\n  0x20\n  shr\n  jump\t// in\ntag_66:\n    /* \"bomtokenerc20_flat.sol\":31677:31793  function _updateTotalSupplySnapshot() private {... */\n  jump\t// out\n    /* \"bomtokenerc20_flat.sol\":14348:14473  function balanceOf(address account) public view virtual override returns (uint256) {... */\ntag_63:\n    /* \"bomtokenerc20_flat.sol\":14422:14429  uint256 */\n  0x00\n    /* \"bomtokenerc20_flat.sol\":14448:14457  _balances */\n  dup1\n    /* \"bomtokenerc20_flat.sol\":14448:14466  _balances[account] */\n  0x00\n    /* \"bomtokenerc20_flat.sol\":14458:14465  account */\n  dup4\n    /* \"bomtokenerc20_flat.sol\":14448:14466  _balances[account] */\n  0xffffffffffffffffffffffffffffffffffffffff\n  and\n  0xffffffffffffffffffffffffffffffffffffffff\n  and\n  dup2\n  mstore\n  0x20\n  add\n  swap1\n  dup2\n  mstore\n  0x20\n  add\n  0x00\n  keccak256\n  sload\n    /* \"bomtokenerc20_flat.sol\":14441:14466  return _balances[account] */\n  swap1\n  pop\n    /* \"bomtokenerc20_flat.sol\":14348:14473  function balanceOf(address account) public view virtual override returns (uint256) {... */\n  swap2\n  swap1\n  pop\n  jump\t// out\n    /* \"bomtokenerc20_flat.sol\":31799:32103  function _updateSnapshot(Snapshots storage snapshots, uint256 currentValue) private {... */\ntag_64:\n    /* \"bomtokenerc20_flat.sol\":31893:31910  uint256 currentId */\n  0x00\n    /* \"bomtokenerc20_flat.sol\":31913:31936  _getCurrentSnapshotId() */\n  tag_71\n    /* \"bomtokenerc20_flat.sol\":31913:31934  _getCurrentSnapshotId */\n  shl(0x20, tag_72)\n    /* \"bomtokenerc20_flat.sol\":31913:31936  _getCurrentSnapshotId() */\n  0x20\n  shr\n  jump\t// in\ntag_71:\n    /* \"bomtokenerc20_flat.sol\":31893:31936  uint256 currentId = _getCurrentSnapshotId() */\n  swap1\n  pop\n    /* \"bomtokenerc20_flat.sol\":31983:31992  currentId */\n  dup1\n    /* \"bomtokenerc20_flat.sol\":31950:31980  _lastSnapshotId(snapshots.ids) */\n  tag_73\n    /* \"bomtokenerc20_flat.sol\":31966:31975  snapshots */\n  dup5\n    /* \"bomtokenerc20_flat.sol\":31966:31979  snapshots.ids */\n  0x00\n  add\n    /* \"bomtokenerc20_flat.sol\":31950:31965  _lastSnapshotId */\n  shl(0x20, tag_74)\n    /* \"bomtokenerc20_flat.sol\":31950:31980  _lastSnapshotId(snapshots.ids) */\n  0x20\n  shr\n  jump\t// in\ntag_73:\n    /* \"bomtokenerc20_flat.sol\":31950:31992  _lastSnapshotId(snapshots.ids) < currentId */\n  lt\n    /* \"bomtokenerc20_flat.sol\":31946:32097  if (_lastSnapshotId(snapshots.ids) < currentId) {... */\n  iszero\n  tag_75\n  jumpi\n    /* \"bomtokenerc20_flat.sol\":32008:32017  snapshots */\n  dup3\n    /* \"bomtokenerc20_flat.sol\":32008:32021  snapshots.ids */\n  0x00\n  add\n    /* \"bomtokenerc20_flat.sol\":32027:32036  currentId */\n  dup2\n    /* \"bomtokenerc20_flat.sol\":32008:32037  snapshots.ids.push(currentId) */\n  swap1\n  dup1\n  0x01\n  dup2\n  sload\n  add\n  dup1\n  dup3\n  sstore\n  dup1\n  swap2\n  pop\n  pop\n  0x01\n  swap1\n  sub\n  swap1\n  0x00\n  mstore\n  keccak256(0x00, 0x20)\n  add\n  0x00\n  swap1\n  swap2\n  swap1\n  swap2\n  swap1\n  swap2\n  pop\n  sstore\n    /* \"bomtokenerc20_flat.sol\":32051:32060  snapshots */\n  dup3\n    /* \"bomtokenerc20_flat.sol\":32051:32067  snapshots.values */\n  0x01\n  add\n    /* \"bomtokenerc20_flat.sol\":32073:32085  currentValue */\n  dup3\n    /* \"bomtokenerc20_flat.sol\":32051:32086  snapshots.values.push(currentValue) */\n  swap1\n  dup1\n  0x01\n  dup2\n  sload\n  add\n  dup1\n  dup3\n  sstore\n  dup1\n  swap2\n  pop\n  pop\n  0x01\n  swap1\n  sub\n  swap1\n  0x00\n  mstore\n  keccak256(0x00, 0x20)\n  add\n  0x00\n  swap1\n  swap2\n  swap1\n  swap2\n  swap1\n  swap2\n  pop\n  sstore\n    /* \"bomtokenerc20_flat.sol\":31946:32097  if (_lastSnapshotId(snapshots.ids) < currentId) {... */\ntag_75:\n    /* \"bomtokenerc20_flat.sol\":31883:32103  {... */\n  pop\n    /* \"bomtokenerc20_flat.sol\":31799:32103  function _updateSnapshot(Snapshots storage snapshots, uint256 currentValue) private {... */\n  pop\n  pop\n  jump\t// out\n    /* \"bomtokenerc20_flat.sol\":14184:14290  function totalSupply() public view virtual override returns (uint256) {... */\ntag_68:\n    /* \"bomtokenerc20_flat.sol\":14245:14252  uint256 */\n  0x00\n    /* \"bomtokenerc20_flat.sol\":14271:14283  _totalSupply */\n  sload(0x02)\n    /* \"bomtokenerc20_flat.sol\":14264:14283  return _totalSupply */\n  swap1\n  pop\n    /* \"bomtokenerc20_flat.sol\":14184:14290  function totalSupply() public view virtual override returns (uint256) {... */\n  swap1\n  jump\t// out\n    /* \"bomtokenerc20_flat.sol\":28283:28408  function _getCurrentSnapshotId() internal view virtual returns (uint256) {... */\ntag_72:\n    /* \"bomtokenerc20_flat.sol\":28347:28354  uint256 */\n  0x00\n    /* \"bomtokenerc20_flat.sol\":28373:28401  _currentSnapshotId.current() */\n  tag_80\n    /* \"bomtokenerc20_flat.sol\":28373:28391  _currentSnapshotId */\n  0x08\n    /* \"bomtokenerc20_flat.sol\":28373:28399  _currentSnapshotId.current */\n  or(tag_0_105, shl(0x20, tag_81))\n    /* \"bomtokenerc20_flat.sol\":28373:28401  _currentSnapshotId.current() */\n  0x20\n  shr\n  jump\t// in\ntag_80:\n    /* \"bomtokenerc20_flat.sol\":28366:28401  return _currentSnapshotId.current() */\n  swap1\n  pop\n    /* \"bomtokenerc20_flat.sol\":28283:28408  function _getCurrentSnapshotId() internal view virtual returns (uint256) {... */\n  swap1\n  jump\t// out\n    /* \"bomtokenerc20_flat.sol\":32109:32315  function _lastSnapshotId(uint256[] storage ids) private view returns (uint256) {... */\ntag_74:\n    /* \"bomtokenerc20_flat.sol\":32179:32186  uint256 */\n  0x00\n    /* \"bomtokenerc20_flat.sol\":32216:32217  0 */\n  dup1\n    /* \"bomtokenerc20_flat.sol\":32202:32205  ids */\n  dup3\n    /* \"bomtokenerc20_flat.sol\":32202:32212  ids.length */\n  dup1\n  sload\n  swap1\n  pop\n    /* \"bomtokenerc20_flat.sol\":32202:32217  ids.length == 0 */\n  eq\n    /* \"bomtokenerc20_flat.sol\":32198:32309  if (ids.length == 0) {... */\n  iszero\n  tag_83\n  jumpi\n    /* \"bomtokenerc20_flat.sol\":32240:32241  0 */\n  0x00\n    /* \"bomtokenerc20_flat.sol\":32233:32241  return 0 */\n  swap1\n  pop\n  jump(tag_82)\n    /* \"bomtokenerc20_flat.sol\":32198:32309  if (ids.length == 0) {... */\ntag_83:\n    /* \"bomtokenerc20_flat.sol\":32279:32282  ids */\n  dup2\n    /* \"bomtokenerc20_flat.sol\":32296:32297  1 */\n  0x01\n    /* \"bomtokenerc20_flat.sol\":32283:32286  ids */\n  dup4\n    /* \"bomtokenerc20_flat.sol\":32283:32293  ids.length */\n  dup1\n  sload\n  swap1\n  pop\n    /* \"bomtokenerc20_flat.sol\":32283:32297  ids.length - 1 */\n  tag_85\n  swap2\n  swap1\n  tag_86\n  jump\t// in\ntag_85:\n    /* \"bomtokenerc20_flat.sol\":32279:32298  ids[ids.length - 1] */\n  dup2\n  sload\n  dup2\n  lt\n  tag_87\n  jumpi\n  tag_88\n  tag_89\n  jump\t// in\ntag_88:\ntag_87:\n  swap1\n  0x00\n  mstore\n  keccak256(0x00, 0x20)\n  add\n  sload\n    /* \"bomtokenerc20_flat.sol\":32272:32298  return ids[ids.length - 1] */\n  swap1\n  pop\n    /* \"bomtokenerc20_flat.sol\":32109:32315  function _lastSnapshotId(uint256[] storage ids) private view returns (uint256) {... */\ntag_82:\n  swap2\n  swap1\n  pop\n  jump\t// out\n    /* \"bomtokenerc20_flat.sol\":850:962  function current(Counter storage counter) internal view returns (uint256) {... */\ntag_81:\n    /* \"bomtokenerc20_flat.sol\":915:922  uint256 */\n  0x00\n    /* \"bomtokenerc20_flat.sol\":941:948  counter */\n  dup2\n    /* \"bomtokenerc20_flat.sol\":941:955  counter._value */\n  0x00\n  add\n  sload\n    /* \"bomtokenerc20_flat.sol\":934:955  return counter._value */\n  swap1\n  pop\n    /* \"bomtokenerc20_flat.sol\":850:962  function current(Counter storage counter) internal view returns (uint256) {... */\n  swap2\n  swap1\n  pop\n  jump\t// out\n    /* \"bomtokenerc20_flat.sol\":33652:34268  contract BOMBToken is ERC20, ERC20Burnable, ERC20Snapshot, Ownable {... */\ntag_7:\n  dup3\n  dup1\n  sload\n  tag_92\n  swap1\n  tag_93\n  jump\t// in\ntag_92:\n  swap1\n  0x00\n  mstore\n  keccak256(0x00, 0x20)\n  swap1\n  0x1f\n  add\n  0x20\n  swap1\n  div\n  dup2\n  add\n  swap3\n  dup3\n  tag_95\n  jumpi\n  0x00\n  dup6\n  sstore\n  jump(tag_94)\ntag_95:\n  dup3\n  0x1f\n  lt\n  tag_96\n  jumpi\n  dup1\n  mload\n  not(0xff)\n  and\n  dup4\n  dup1\n  add\n  or\n  dup6\n  sstore\n  jump(tag_94)\ntag_96:\n  dup3\n  dup1\n  add\n  0x01\n  add\n  dup6\n  sstore\n  dup3\n  iszero\n  tag_94\n  jumpi\n  swap2\n  dup3\n  add\ntag_97:\n  dup3\n  dup2\n  gt\n  iszero\n  tag_98\n  jumpi\n  dup3\n  mload\n  dup3\n  sstore\n  swap2\n  0x20\n  add\n  swap2\n  swap1\n  0x01\n  add\n  swap1\n  jump(tag_97)\ntag_98:\ntag_94:\n  pop\n  swap1\n  pop\n  tag_99\n  swap2\n  swap1\n  tag_100\n  jump\t// in\ntag_99:\n  pop\n  swap1\n  jump\t// out\ntag_100:\ntag_101:\n  dup1\n  dup3\n  gt\n  iszero\n  tag_102\n  jumpi\n  0x00\n  dup2\n  0x00\n  swap1\n  sstore\n  pop\n  0x01\n  add\n  jump(tag_101)\ntag_102:\n  pop\n  swap1\n  jump\t// out\n    /* \"#utility.yul\":7:187   */\ntag_103:\n    /* \"#utility.yul\":55:132   */\n  0x4e487b7100000000000000000000000000000000000000000000000000000000\n    /* \"#utility.yul\":52:53   */\n  0x00\n    /* \"#utility.yul\":45:133   */\n  mstore\n    /* \"#utility.yul\":152:156   */\n  0x11\n    /* \"#utility.yul\":149:150   */\n  0x04\n    /* \"#utility.yul\":142:157   */\n  mstore\n    /* \"#utility.yul\":176:180   */\n  0x24\n    /* \"#utility.yul\":173:174   */\n  0x00\n    /* \"#utility.yul\":166:181   */\n  revert\n    /* \"#utility.yul\":193:295   */\ntag_104:\n    /* \"#utility.yul\":235:243   */\n  0x00\n    /* \"#utility.yul\":282:287   */\n  dup2\n    /* \"#utility.yul\":279:280   */\n  0x01\n    /* \"#utility.yul\":275:288   */\n  shr\n    /* \"#utility.yul\":254:288   */\n  swap1\n  pop\n    /* \"#utility.yul\":193:295   */\n  swap2\n  swap1\n  pop\n  jump\t// out\n    /* \"#utility.yul\":301:1149   */\ntag_105:\n    /* \"#utility.yul\":362:367   */\n  0x00\n    /* \"#utility.yul\":369:373   */\n  dup1\n    /* \"#utility.yul\":393:399   */\n  dup3\n    /* \"#utility.yul\":384:399   */\n  swap2\n  pop\n    /* \"#utility.yul\":417:422   */\n  dup4\n    /* \"#utility.yul\":408:422   */\n  swap1\n  pop\n    /* \"#utility.yul\":431:1143   */\ntag_118:\n    /* \"#utility.yul\":452:453   */\n  0x01\n    /* \"#utility.yul\":442:450   */\n  dup6\n    /* \"#utility.yul\":439:454   */\n  gt\n    /* \"#utility.yul\":431:1143   */\n  iszero\n  tag_120\n  jumpi\n    /* \"#utility.yul\":547:551   */\n  dup1\n    /* \"#utility.yul\":542:545   */\n  dup7\n    /* \"#utility.yul\":538:552   */\n  div\n    /* \"#utility.yul\":532:536   */\n  dup2\n    /* \"#utility.yul\":529:553   */\n  gt\n    /* \"#utility.yul\":526:576   */\n  iszero\n  tag_121\n  jumpi\n    /* \"#utility.yul\":556:574   */\n  tag_122\n  tag_103\n  jump\t// in\ntag_122:\n    /* \"#utility.yul\":526:576   */\ntag_121:\n    /* \"#utility.yul\":606:607   */\n  0x01\n    /* \"#utility.yul\":596:604   */\n  dup6\n    /* \"#utility.yul\":592:608   */\n  and\n    /* \"#utility.yul\":589:1040   */\n  iszero\n  tag_123\n  jumpi\n    /* \"#utility.yul\":1021:1025   */\n  dup1\n    /* \"#utility.yul\":1014:1019   */\n  dup3\n    /* \"#utility.yul\":1010:1026   */\n  mul\n    /* \"#utility.yul\":1001:1026   */\n  swap2\n  pop\n    /* \"#utility.yul\":589:1040   */\ntag_123:\n    /* \"#utility.yul\":1071:1075   */\n  dup1\n    /* \"#utility.yul\":1065:1069   */\n  dup2\n    /* \"#utility.yul\":1061:1076   */\n  mul\n    /* \"#utility.yul\":1053:1076   */\n  swap1\n  pop\n    /* \"#utility.yul\":1101:1133   */\n  tag_124\n    /* \"#utility.yul\":1124:1132   */\n  dup6\n    /* \"#utility.yul\":1101:1133   */\n  tag_104\n  jump\t// in\ntag_124:\n    /* \"#utility.yul\":1089:1133   */\n  swap5\n  pop\n    /* \"#utility.yul\":431:1143   */\n  jump(tag_118)\ntag_120:\n    /* \"#utility.yul\":301:1149   */\n  swap5\n  pop\n  swap5\n  swap3\n  pop\n  pop\n  pop\n  jump\t// out\n    /* \"#utility.yul\":1155:2228   */\ntag_106:\n    /* \"#utility.yul\":1209:1214   */\n  0x00\n    /* \"#utility.yul\":1400:1408   */\n  dup3\n    /* \"#utility.yul\":1390:1430   */\n  tag_126\n  jumpi\n    /* \"#utility.yul\":1421:1422   */\n  0x01\n    /* \"#utility.yul\":1412:1422   */\n  swap1\n  pop\n    /* \"#utility.yul\":1423:1428   */\n  jump(tag_125)\n    /* \"#utility.yul\":1390:1430   */\ntag_126:\n    /* \"#utility.yul\":1449:1453   */\n  dup2\n    /* \"#utility.yul\":1439:1475   */\n  tag_127\n  jumpi\n    /* \"#utility.yul\":1466:1467   */\n  0x00\n    /* \"#utility.yul\":1457:1467   */\n  swap1\n  pop\n    /* \"#utility.yul\":1468:1473   */\n  jump(tag_125)\n    /* \"#utility.yul\":1439:1475   */\ntag_127:\n    /* \"#utility.yul\":1535:1539   */\n  dup2\n    /* \"#utility.yul\":1583:1584   */\n  0x01\n    /* \"#utility.yul\":1578:1605   */\n  dup2\n  eq\n  tag_129\n  jumpi\n    /* \"#utility.yul\":1619:1620   */\n  0x02\n    /* \"#utility.yul\":1614:1805   */\n  dup2\n  eq\n  tag_130\n  jumpi\n    /* \"#utility.yul\":1528:1805   */\n  jump(tag_128)\n    /* \"#utility.yul\":1578:1605   */\ntag_129:\n    /* \"#utility.yul\":1596:1597   */\n  0x01\n    /* \"#utility.yul\":1587:1597   */\n  swap2\n  pop\n    /* \"#utility.yul\":1598:1603   */\n  pop\n  jump(tag_125)\n    /* \"#utility.yul\":1614:1805   */\ntag_130:\n    /* \"#utility.yul\":1659:1662   */\n  0xff\n    /* \"#utility.yul\":1649:1657   */\n  dup5\n    /* \"#utility.yul\":1646:1663   */\n  gt\n    /* \"#utility.yul\":1643:1686   */\n  iszero\n  tag_131\n  jumpi\n    /* \"#utility.yul\":1666:1684   */\n  tag_132\n  tag_103\n  jump\t// in\ntag_132:\n    /* \"#utility.yul\":1643:1686   */\ntag_131:\n    /* \"#utility.yul\":1715:1723   */\n  dup4\n    /* \"#utility.yul\":1712:1713   */\n  0x02\n    /* \"#utility.yul\":1708:1724   */\n  exp\n    /* \"#utility.yul\":1699:1724   */\n  swap2\n  pop\n    /* \"#utility.yul\":1750:1753   */\n  dup5\n    /* \"#utility.yul\":1743:1748   */\n  dup3\n    /* \"#utility.yul\":1740:1754   */\n  gt\n    /* \"#utility.yul\":1737:1777   */\n  iszero\n  tag_133\n  jumpi\n    /* \"#utility.yul\":1757:1775   */\n  tag_134\n  tag_103\n  jump\t// in\ntag_134:\n    /* \"#utility.yul\":1737:1777   */\ntag_133:\n    /* \"#utility.yul\":1790:1795   */\n  pop\n  jump(tag_125)\n    /* \"#utility.yul\":1528:1805   */\ntag_128:\n  pop\n    /* \"#utility.yul\":1914:1916   */\n  0x20\n    /* \"#utility.yul\":1904:1912   */\n  dup4\n    /* \"#utility.yul\":1901:1917   */\n  lt\n    /* \"#utility.yul\":1895:1898   */\n  0x0133\n    /* \"#utility.yul\":1889:1893   */\n  dup4\n    /* \"#utility.yul\":1886:1899   */\n  lt\n    /* \"#utility.yul\":1882:1918   */\n  and\n    /* \"#utility.yul\":1864:1866   */\n  0x4e\n    /* \"#utility.yul\":1854:1862   */\n  dup5\n    /* \"#utility.yul\":1851:1867   */\n  lt\n    /* \"#utility.yul\":1846:1848   */\n  0x0b\n    /* \"#utility.yul\":1840:1844   */\n  dup5\n    /* \"#utility.yul\":1837:1849   */\n  lt\n    /* \"#utility.yul\":1833:1868   */\n  and\n    /* \"#utility.yul\":1817:1928   */\n  or\n    /* \"#utility.yul\":1814:2060   */\n  iszero\n  tag_135\n  jumpi\n    /* \"#utility.yul\":1970:1978   */\n  dup3\n    /* \"#utility.yul\":1964:1968   */\n  dup3\n    /* \"#utility.yul\":1960:1979   */\n  exp\n    /* \"#utility.yul\":1951:1979   */\n  swap1\n  pop\n    /* \"#utility.yul\":2005:2008   */\n  dup4\n    /* \"#utility.yul\":1998:2003   */\n  dup2\n    /* \"#utility.yul\":1995:2009   */\n  gt\n    /* \"#utility.yul\":1992:2032   */\n  iszero\n  tag_136\n  jumpi\n    /* \"#utility.yul\":2012:2030   */\n  tag_137\n  tag_103\n  jump\t// in\ntag_137:\n    /* \"#utility.yul\":1992:2032   */\ntag_136:\n    /* \"#utility.yul\":2045:2050   */\n  jump(tag_125)\n    /* \"#utility.yul\":1814:2060   */\ntag_135:\n    /* \"#utility.yul\":2085:2127   */\n  tag_138\n    /* \"#utility.yul\":2123:2126   */\n  dup5\n    /* \"#utility.yul\":2113:2121   */\n  dup5\n    /* \"#utility.yul\":2107:2111   */\n  dup5\n    /* \"#utility.yul\":2104:2105   */\n  0x01\n    /* \"#utility.yul\":2085:2127   */\n  tag_105\n  jump\t// in\ntag_138:\n    /* \"#utility.yul\":2070:2127   */\n  swap3\n  pop\n  swap1\n  pop\n    /* \"#utility.yul\":2159:2163   */\n  dup2\n    /* \"#utility.yul\":2154:2157   */\n  dup5\n    /* \"#utility.yul\":2150:2164   */\n  div\n    /* \"#utility.yul\":2143:2148   */\n  dup2\n    /* \"#utility.yul\":2140:2165   */\n  gt\n    /* \"#utility.yul\":2137:2188   */\n  iszero\n  tag_139\n  jumpi\n    /* \"#utility.yul\":2168:2186   */\n  tag_140\n  tag_103\n  jump\t// in\ntag_140:\n    /* \"#utility.yul\":2137:2188   */\ntag_139:\n    /* \"#utility.yul\":2217:2221   */\n  dup2\n    /* \"#utility.yul\":2210:2215   */\n  dup2\n    /* \"#utility.yul\":2206:2222   */\n  mul\n    /* \"#utility.yul\":2197:2222   */\n  swap1\n  pop\n    /* \"#utility.yul\":1155:2228   */\ntag_125:\n  swap4\n  swap3\n  pop\n  pop\n  pop\n  jump\t// out\n    /* \"#utility.yul\":2234:2311   */\ntag_107:\n    /* \"#utility.yul\":2271:2278   */\n  0x00\n    /* \"#utility.yul\":2300:2305   */\n  dup2\n    /* \"#utility.yul\":2289:2305   */\n  swap1\n  pop\n    /* \"#utility.yul\":2234:2311   */\n  swap2\n  swap1\n  pop\n  jump\t// out\n    /* \"#utility.yul\":2317:2403   */\ntag_108:\n    /* \"#utility.yul\":2352:2359   */\n  0x00\n    /* \"#utility.yul\":2392:2396   */\n  0xff\n    /* \"#utility.yul\":2385:2390   */\n  dup3\n    /* \"#utility.yul\":2381:2397   */\n  and\n    /* \"#utility.yul\":2370:2397   */\n  swap1\n  pop\n    /* \"#utility.yul\":2317:2403   */\n  swap2\n  swap1\n  pop\n  jump\t// out\n    /* \"#utility.yul\":2409:2690   */\ntag_19:\n    /* \"#utility.yul\":2467:2472   */\n  0x00\n    /* \"#utility.yul\":2491:2514   */\n  tag_144\n    /* \"#utility.yul\":2509:2513   */\n  dup3\n    /* \"#utility.yul\":2491:2514   */\n  tag_107\n  jump\t// in\ntag_144:\n    /* \"#utility.yul\":2483:2514   */\n  swap2\n  pop\n    /* \"#utility.yul\":2535:2560   */\n  tag_145\n    /* \"#utility.yul\":2551:2559   */\n  dup4\n    /* \"#utility.yul\":2535:2560   */\n  tag_108\n  jump\t// in\ntag_145:\n    /* \"#utility.yul\":2523:2560   */\n  swap3\n  pop\n    /* \"#utility.yul\":2579:2683   */\n  tag_146\n    /* \"#utility.yul\":2616:2682   */\n  0xffffffffffffffffffffffffffffffffffffffffffffffffffffffffffffffff\n    /* \"#utility.yul\":2606:2614   */\n  dup5\n    /* \"#utility.yul\":2600:2604   */\n  dup5\n    /* \"#utility.yul\":2579:2683   */\n  tag_106\n  jump\t// in\ntag_146:\n    /* \"#utility.yul\":2570:2683   */\n  swap1\n  pop\n    /* \"#utility.yul\":2409:2690   */\n  swap3\n  swap2\n  pop\n  pop\n  jump\t// out\n    /* \"#utility.yul\":2696:3044   */\ntag_21:\n    /* \"#utility.yul\":2736:2743   */\n  0x00\n    /* \"#utility.yul\":2759:2779   */\n  tag_148\n    /* \"#utility.yul\":2777:2778   */\n  dup3\n    /* \"#utility.yul\":2759:2779   */\n  tag_107\n  jump\t// in\ntag_148:\n    /* \"#utility.yul\":2754:2779   */\n  swap2\n  pop\n    /* \"#utility.yul\":2793:2813   */\n  tag_149\n    /* \"#utility.yul\":2811:2812   */\n  dup4\n    /* \"#utility.yul\":2793:2813   */\n  tag_107\n  jump\t// in\ntag_149:\n    /* \"#utility.yul\":2788:2813   */\n  swap3\n  pop\n    /* \"#utility.yul\":2981:2982   */\n  dup2\n    /* \"#utility.yul\":2913:2979   */\n  0xffffffffffffffffffffffffffffffffffffffffffffffffffffffffffffffff\n    /* \"#utility.yul\":2909:2983   */\n  div\n    /* \"#utility.yul\":2906:2907   */\n  dup4\n    /* \"#utility.yul\":2903:2984   */\n  gt\n    /* \"#utility.yul\":2898:2899   */\n  dup3\n    /* \"#utility.yul\":2891:2900   */\n  iszero\n    /* \"#utility.yul\":2884:2901   */\n  iszero\n    /* \"#utility.yul\":2880:2985   */\n  and\n    /* \"#utility.yul\":2877:3008   */\n  iszero\n  tag_150\n  jumpi\n    /* \"#utility.yul\":2988:3006   */\n  tag_151\n  tag_103\n  jump\t// in\ntag_151:\n    /* \"#utility.yul\":2877:3008   */\ntag_150:\n    /* \"#utility.yul\":3036:3037   */\n  dup3\n    /* \"#utility.yul\":3033:3034   */\n  dup3\n    /* \"#utility.yul\":3029:3038   */\n  mul\n    /* \"#utility.yul\":3018:3038   */\n  swap1\n  pop\n    /* \"#utility.yul\":2696:3044   */\n  swap3\n  swap2\n  pop\n  pop\n  jump\t// out\n    /* \"#utility.yul\":3050:3219   */\ntag_109:\n    /* \"#utility.yul\":3134:3145   */\n  0x00\n    /* \"#utility.yul\":3168:3174   */\n  dup3\n    /* \"#utility.yul\":3163:3166   */\n  dup3\n    /* \"#utility.yul\":3156:3175   */\n  mstore\n    /* \"#utility.yul\":3208:3212   */\n  0x20\n    /* \"#utility.yul\":3203:3206   */\n  dup3\n    /* \"#utility.yul\":3199:3213   */\n  add\n    /* \"#utility.yul\":3184:3213   */\n  swap1\n  pop\n    /* \"#utility.yul\":3050:3219   */\n  swap3\n  swap2\n  pop\n  pop\n  jump\t// out\n    /* \"#utility.yul\":3225:3406   */\ntag_110:\n    /* \"#utility.yul\":3365:3398   */\n  0x45524332303a206d696e7420746f20746865207a65726f206164647265737300\n    /* \"#utility.yul\":3361:3362   */\n  0x00\n    /* \"#utility.yul\":3353:3359   */\n  dup3\n    /* \"#utility.yul\":3349:3363   */\n  add\n    /* \"#utility.yul\":3342:3399   */\n  mstore\n    /* \"#utility.yul\":3225:3406   */\n  pop\n  jump\t// out\n    /* \"#utility.yul\":3412:3778   */\ntag_111:\n    /* \"#utility.yul\":3554:3557   */\n  0x00\n    /* \"#utility.yul\":3575:3642   */\n  tag_155\n    /* \"#utility.yul\":3639:3641   */\n  0x1f\n    /* \"#utility.yul\":3634:3637   */\n  dup4\n    /* \"#utility.yul\":3575:3642   */\n  tag_109\n  jump\t// in\ntag_155:\n    /* \"#utility.yul\":3568:3642   */\n  swap2\n  pop\n    /* \"#utility.yul\":3651:3744   */\n  tag_156\n    /* \"#utility.yul\":3740:3743   */\n  dup3\n    /* \"#utility.yul\":3651:3744   */\n  tag_110\n  jump\t// in\ntag_156:\n    /* \"#utility.yul\":3769:3771   */\n  0x20\n    /* \"#utility.yul\":3764:3767   */\n  dup3\n    /* \"#utility.yul\":3760:3772   */\n  add\n    /* \"#utility.yul\":3753:3772   */\n  swap1\n  pop\n    /* \"#utility.yul\":3412:3778   */\n  swap2\n  swap1\n  pop\n  jump\t// out\n    /* \"#utility.yul\":3784:4203   */\ntag_30:\n    /* \"#utility.yul\":3950:3954   */\n  0x00\n    /* \"#utility.yul\":3988:3990   */\n  0x20\n    /* \"#utility.yul\":3977:3986   */\n  dup3\n    /* \"#utility.yul\":3973:3991   */\n  add\n    /* \"#utility.yul\":3965:3991   */\n  swap1\n  pop\n    /* \"#utility.yul\":4037:4046   */\n  dup2\n    /* \"#utility.yul\":4031:4035   */\n  dup2\n    /* \"#utility.yul\":4027:4047   */\n  sub\n    /* \"#utility.yul\":4023:4024   */\n  0x00\n    /* \"#utility.yul\":4012:4021   */\n  dup4\n    /* \"#utility.yul\":4008:4025   */\n  add\n    /* \"#utility.yul\":4001:4048   */\n  mstore\n    /* \"#utility.yul\":4065:4196   */\n  tag_158\n    /* \"#utility.yul\":4191:4195   */\n  dup2\n    /* \"#utility.yul\":4065:4196   */\n  tag_111\n  jump\t// in\ntag_158:\n    /* \"#utility.yul\":4057:4196   */\n  swap1\n  pop\n    /* \"#utility.yul\":3784:4203   */\n  swap2\n  swap1\n  pop\n  jump\t// out\n    /* \"#utility.yul\":4209:4514   */\ntag_34:\n    /* \"#utility.yul\":4249:4252   */\n  0x00\n    /* \"#utility.yul\":4268:4288   */\n  tag_160\n    /* \"#utility.yul\":4286:4287   */\n  dup3\n    /* \"#utility.yul\":4268:4288   */\n  tag_107\n  jump\t// in\ntag_160:\n    /* \"#utility.yul\":4263:4288   */\n  swap2\n  pop\n    /* \"#utility.yul\":4302:4322   */\n  tag_161\n    /* \"#utility.yul\":4320:4321   */\n  dup4\n    /* \"#utility.yul\":4302:4322   */\n  tag_107\n  jump\t// in\ntag_161:\n    /* \"#utility.yul\":4297:4322   */\n  swap3\n  pop\n    /* \"#utility.yul\":4456:4457   */\n  dup3\n    /* \"#utility.yul\":4388:4454   */\n  0xffffffffffffffffffffffffffffffffffffffffffffffffffffffffffffffff\n    /* \"#utility.yul\":4384:4458   */\n  sub\n    /* \"#utility.yul\":4381:4382   */\n  dup3\n    /* \"#utility.yul\":4378:4459   */\n  gt\n    /* \"#utility.yul\":4375:4482   */\n  iszero\n  tag_162\n  jumpi\n    /* \"#utility.yul\":4462:4480   */\n  tag_163\n  tag_103\n  jump\t// in\ntag_163:\n    /* \"#utility.yul\":4375:4482   */\ntag_162:\n    /* \"#utility.yul\":4506:4507   */\n  dup3\n    /* \"#utility.yul\":4503:4504   */\n  dup3\n    /* \"#utility.yul\":4499:4508   */\n  add\n    /* \"#utility.yul\":4492:4508   */\n  swap1\n  pop\n    /* \"#utility.yul\":4209:4514   */\n  swap3\n  swap2\n  pop\n  pop\n  jump\t// out\n    /* \"#utility.yul\":4520:4638   */\ntag_112:\n    /* \"#utility.yul\":4607:4631   */\n  tag_165\n    /* \"#utility.yul\":4625:4630   */\n  dup2\n    /* \"#utility.yul\":4607:4631   */\n  tag_107\n  jump\t// in\ntag_165:\n    /* \"#utility.yul\":4602:4605   */\n  dup3\n    /* \"#utility.yul\":4595:4632   */\n  mstore\n    /* \"#utility.yul\":4520:4638   */\n  pop\n  pop\n  jump\t// out\n    /* \"#utility.yul\":4644:4866   */\ntag_37:\n    /* \"#utility.yul\":4737:4741   */\n  0x00\n    /* \"#utility.yul\":4775:4777   */\n  0x20\n    /* \"#utility.yul\":4764:4773   */\n  dup3\n    /* \"#utility.yul\":4760:4778   */\n  add\n    /* \"#utility.yul\":4752:4778   */\n  swap1\n  pop\n    /* \"#utility.yul\":4788:4859   */\n  tag_167\n    /* \"#utility.yul\":4856:4857   */\n  0x00\n    /* \"#utility.yul\":4845:4854   */\n  dup4\n    /* \"#utility.yul\":4841:4858   */\n  add\n    /* \"#utility.yul\":4832:4838   */\n  dup5\n    /* \"#utility.yul\":4788:4859   */\n  tag_112\n  jump\t// in\ntag_167:\n    /* \"#utility.yul\":4644:4866   */\n  swap3\n  swap2\n  pop\n  pop\n  jump\t// out\n    /* \"#utility.yul\":4872:5063   */\ntag_86:\n    /* \"#utility.yul\":4912:4916   */\n  0x00\n    /* \"#utility.yul\":4932:4952   */\n  tag_169\n    /* \"#utility.yul\":4950:4951   */\n  dup3\n    /* \"#utility.yul\":4932:4952   */\n  tag_107\n  jump\t// in\ntag_169:\n    /* \"#utility.yul\":4927:4952   */\n  swap2\n  pop\n    /* \"#utility.yul\":4966:4986   */\n  tag_170\n    /* \"#utility.yul\":4984:4985   */\n  dup4\n    /* \"#utility.yul\":4966:4986   */\n  tag_107\n  jump\t// in\ntag_170:\n    /* \"#utility.yul\":4961:4986   */\n  swap3\n  pop\n    /* \"#utility.yul\":5005:5006   */\n  dup3\n    /* \"#utility.yul\":5002:5003   */\n  dup3\n    /* \"#utility.yul\":4999:5007   */\n  lt\n    /* \"#utility.yul\":4996:5030   */\n  iszero\n  tag_171\n  jumpi\n    /* \"#utility.yul\":5010:5028   */\n  tag_172\n  tag_103\n  jump\t// in\ntag_172:\n    /* \"#utility.yul\":4996:5030   */\ntag_171:\n    /* \"#utility.yul\":5055:5056   */\n  dup3\n    /* \"#utility.yul\":5052:5053   */\n  dup3\n    /* \"#utility.yul\":5048:5057   */\n  sub\n    /* \"#utility.yul\":5040:5057   */\n  swap1\n  pop\n    /* \"#utility.yul\":4872:5063   */\n  swap3\n  swap2\n  pop\n  pop\n  jump\t// out\n    /* \"#utility.yul\":5069:5249   */\ntag_89:\n    /* \"#utility.yul\":5117:5194   */\n  0x4e487b7100000000000000000000000000000000000000000000000000000000\n    /* \"#utility.yul\":5114:5115   */\n  0x00\n    /* \"#utility.yul\":5107:5195   */\n  mstore\n    /* \"#utility.yul\":5214:5218   */\n  0x32\n    /* \"#utility.yul\":5211:5212   */\n  0x04\n    /* \"#utility.yul\":5204:5219   */\n  mstore\n    /* \"#utility.yul\":5238:5242   */\n  0x24\n    /* \"#utility.yul\":5235:5236   */\n  0x00\n    /* \"#utility.yul\":5228:5243   */\n  revert\n    /* \"#utility.yul\":5255:5435   */\ntag_113:\n    /* \"#utility.yul\":5303:5380   */\n  0x4e487b7100000000000000000000000000000000000000000000000000000000\n    /* \"#utility.yul\":5300:5301   */\n  0x00\n    /* \"#utility.yul\":5293:5381   */\n  mstore\n    /* \"#utility.yul\":5400:5404   */\n  0x22\n    /* \"#utility.yul\":5397:5398   */\n  0x04\n    /* \"#utility.yul\":5390:5405   */\n  mstore\n    /* \"#utility.yul\":5424:5428   */\n  0x24\n    /* \"#utility.yul\":5421:5422   */\n  0x00\n    /* \"#utility.yul\":5414:5429   */\n  revert\n    /* \"#utility.yul\":5441:5761   */\ntag_93:\n    /* \"#utility.yul\":5485:5491   */\n  0x00\n    /* \"#utility.yul\":5522:5523   */\n  0x02\n    /* \"#utility.yul\":5516:5520   */\n  dup3\n    /* \"#utility.yul\":5512:5524   */\n  div\n    /* \"#utility.yul\":5502:5524   */\n  swap1\n  pop\n    /* \"#utility.yul\":5569:5570   */\n  0x01\n    /* \"#utility.yul\":5563:5567   */\n  dup3\n    /* \"#utility.yul\":5559:5571   */\n  and\n    /* \"#utility.yul\":5590:5608   */\n  dup1\n    /* \"#utility.yul\":5580:5661   */\n  tag_176\n  jumpi\n    /* \"#utility.yul\":5646:5650   */\n  0x7f\n    /* \"#utility.yul\":5638:5644   */\n  dup3\n    /* \"#utility.yul\":5634:5651   */\n  and\n    /* \"#utility.yul\":5624:5651   */\n  swap2\n  pop\n    /* \"#utility.yul\":5580:5661   */\ntag_176:\n    /* \"#utility.yul\":5708:5710   */\n  0x20\n    /* \"#utility.yul\":5700:5706   */\n  dup3\n    /* \"#utility.yul\":5697:5711   */\n  lt\n    /* \"#utility.yul\":5677:5695   */\n  dup2\n    /* \"#utility.yul\":5674:5712   */\n  eq\n    /* \"#utility.yul\":5671:5755   */\n  iszero\n  tag_177\n  jumpi\n    /* \"#utility.yul\":5727:5745   */\n  tag_178\n  tag_113\n  jump\t// in\ntag_178:\n    /* \"#utility.yul\":5671:5755   */\ntag_177:\n    /* \"#utility.yul\":5492:5761   */\n  pop\n    /* \"#utility.yul\":5441:5761   */\n  swap2\n  swap1\n  pop\n  jump\t// out\n    /* \"bomtokenerc20_flat.sol\":33652:34268  contract BOMBToken is ERC20, ERC20Burnable, ERC20Snapshot, Ownable {... */\ntag_23:\n  dataSize(sub_0)\n  dup1\n  dataOffset(sub_0)\n  0x00\n  codecopy\n  0x00\n  return\nstop\n\nsub_0: assembly {\n        /* \"bomtokenerc20_flat.sol\":33652:34268  contract BOMBToken is ERC20, ERC20Burnable, ERC20Snapshot, Ownable {... */\n      mstore(0x40, 0x80)\n      callvalue\n      dup1\n      iszero\n      tag_1\n      jumpi\n      0x00\n      dup1\n      revert\n    tag_1:\n      pop\n      jumpi(tag_2, lt(calldatasize, 0x04))\n      shr(0xe0, calldataload(0x00))\n      dup1\n      0x715018a6\n      gt\n      tag_23\n      jumpi\n      dup1\n      0x981b24d0\n      gt\n      tag_24\n      jumpi\n      dup1\n      0x981b24d0\n      eq\n      tag_18\n      jumpi\n      dup1\n      0xa457c2d7\n      eq\n      tag_19\n      jumpi\n      dup1\n      0xa9059cbb\n      eq\n      tag_20\n      jumpi\n      dup1\n      0xdd62ed3e\n      eq\n      tag_21\n      jumpi\n      dup1\n      0xf2fde38b\n      eq\n      tag_22\n      jumpi\n      jump(tag_2)\n    tag_24:\n      dup1\n      0x715018a6\n      eq\n      tag_13\n      jumpi\n      dup1\n      0x79cc6790\n      eq\n      tag_14\n      jumpi\n      dup1\n      0x8da5cb5b\n      eq\n      tag_15\n      jumpi\n      dup1\n      0x95d89b41\n      eq\n      tag_16\n      jumpi\n      dup1\n      0x9711715a\n      eq\n      tag_17\n      jumpi\n      jump(tag_2)\n    tag_23:\n      dup1\n      0x39509351\n      gt\n      tag_25\n      jumpi\n      dup1\n      0x39509351\n      eq\n      tag_8\n      jumpi\n      dup1\n      0x40c10f19\n      eq\n      tag_9\n      jumpi\n      dup1\n      0x42966c68\n      eq\n      tag_10\n      jumpi\n      dup1\n      0x4ee2cd7e\n      eq\n      tag_11\n      jumpi\n      dup1\n      0x70a08231\n      eq\n      tag_12\n      jumpi\n      jump(tag_2)\n    tag_25:\n      dup1\n      0x06fdde03\n      eq\n      tag_3\n      jumpi\n      dup1\n      0x095ea7b3\n      eq\n      tag_4\n      jumpi\n      dup1\n      0x18160ddd\n      eq\n      tag_5\n      jumpi\n      dup1\n      0x23b872dd\n      eq\n      tag_6\n      jumpi\n      dup1\n      0x313ce567\n      eq\n      tag_7\n      jumpi\n    tag_2:\n      0x00\n      dup1\n      revert\n        /* \"bomtokenerc20_flat.sol\":13096:13194  function name() public view virtual override returns (string memory) {... */\n    tag_3:\n      tag_26\n      tag_27\n      jump\t// in\n    tag_26:\n      mload(0x40)\n      tag_28\n      swap2\n      swap1\n      tag_29\n      jump\t// in\n    tag_28:\n      mload(0x40)\n      dup1\n      swap2\n      sub\n      swap1\n      return\n        /* \"bomtokenerc20_flat.sol\":15373:15570  function approve(address spender, uint256 amount) public virtual override returns (bool) {... */\n    tag_4:\n      tag_30\n      0x04\n      dup1\n      calldatasize\n      sub\n      dup2\n      add\n      swap1\n      tag_31\n      swap2\n      swap1\n      tag_32\n      jump\t// in\n    tag_31:\n      tag_33\n      jump\t// in\n    tag_30:\n      mload(0x40)\n      tag_34\n      swap2\n      swap1\n      tag_35\n      jump\t// in\n    tag_34:\n      mload(0x40)\n      dup1\n      swap2\n      sub\n      swap1\n      return\n        /* \"bomtokenerc20_flat.sol\":14184:14290  function totalSupply() public view virtual override returns (uint256) {... */\n    tag_5:\n      tag_36\n      tag_37\n      jump\t// in\n    tag_36:\n      mload(0x40)\n      tag_38\n      swap2\n      swap1\n      tag_39\n      jump\t// in\n    tag_38:\n      mload(0x40)\n      dup1\n      swap2\n      sub\n      swap1\n      return\n        /* \"bomtokenerc20_flat.sol\":16132:16418  function transferFrom(... */\n    tag_6:\n      tag_40\n      0x04\n      dup1\n      calldatasize\n      sub\n      dup2\n      add\n      swap1\n      tag_41\n      swap2\n      swap1\n      tag_42\n      jump\t// in\n    tag_41:\n      tag_43\n      jump\t// in\n    tag_40:\n      mload(0x40)\n      tag_44\n      swap2\n      swap1\n      tag_35\n      jump\t// in\n    tag_44:\n      mload(0x40)\n      dup1\n      swap2\n      sub\n      swap1\n      return\n        /* \"bomtokenerc20_flat.sol\":14033:14124  function decimals() public view virtual override returns (uint8) {... */\n    tag_7:\n      tag_45\n      tag_46\n      jump\t// in\n    tag_45:\n      mload(0x40)\n      tag_47\n      swap2\n      swap1\n      tag_48\n      jump\t// in\n    tag_47:\n      mload(0x40)\n      dup1\n      swap2\n      sub\n      swap1\n      return\n        /* \"bomtokenerc20_flat.sol\":16813:17047  function increaseAllowance(address spender, uint256 addedValue) public virtual returns (bool) {... */\n    tag_8:\n      tag_49\n      0x04\n      dup1\n      calldatasize\n      sub\n      dup2\n      add\n      swap1\n      tag_50\n      swap2\n      swap1\n      tag_32\n      jump\t// in\n    tag_50:\n      tag_51\n      jump\t// in\n    tag_49:\n      mload(0x40)\n      tag_52\n      swap2\n      swap1\n      tag_35\n      jump\t// in\n    tag_52:\n      mload(0x40)\n      dup1\n      swap2\n      sub\n      swap1\n      return\n        /* \"bomtokenerc20_flat.sol\":33906:33999  function mint(address to, uint256 amount) public onlyOwner {... */\n    tag_9:\n      tag_53\n      0x04\n      dup1\n      calldatasize\n      sub\n      dup2\n      add\n      swap1\n      tag_54\n      swap2\n      swap1\n      tag_32\n      jump\t// in\n    tag_54:\n      tag_55\n      jump\t// in\n    tag_53:\n      stop\n        /* \"bomtokenerc20_flat.sol\":32882:32971  function burn(uint256 amount) public virtual {... */\n    tag_10:\n      tag_56\n      0x04\n      dup1\n      calldatasize\n      sub\n      dup2\n      add\n      swap1\n      tag_57\n      swap2\n      swap1\n      tag_58\n      jump\t// in\n    tag_57:\n      tag_59\n      jump\t// in\n    tag_56:\n      stop\n        /* \"bomtokenerc20_flat.sol\":28515:28777  function balanceOfAt(address account, uint256 snapshotId) public view virtual returns (uint256) {... */\n    tag_11:\n      tag_60\n      0x04\n      dup1\n      calldatasize\n      sub\n      dup2\n      add\n      swap1\n      tag_61\n      swap2\n      swap1\n      tag_32\n      jump\t// in\n    tag_61:\n      tag_62\n      jump\t// in\n    tag_60:\n      mload(0x40)\n      tag_63\n      swap2\n      swap1\n      tag_39\n      jump\t// in\n    tag_63:\n      mload(0x40)\n      dup1\n      swap2\n      sub\n      swap1\n      return\n        /* \"bomtokenerc20_flat.sol\":14348:14473  function balanceOf(address account) public view virtual override returns (uint256) {... */\n    tag_12:\n      tag_64\n      0x04\n      dup1\n      calldatasize\n      sub\n      dup2\n      add\n      swap1\n      tag_65\n      swap2\n      swap1\n      tag_66\n      jump\t// in\n    tag_65:\n      tag_67\n      jump\t// in\n    tag_64:\n      mload(0x40)\n      tag_68\n      swap2\n      swap1\n      tag_39\n      jump\t// in\n    tag_68:\n      mload(0x40)\n      dup1\n      swap2\n      sub\n      swap1\n      return\n        /* \"bomtokenerc20_flat.sol\":6720:6821  function renounceOwnership() public virtual onlyOwner {... */\n    tag_13:\n      tag_69\n      tag_70\n      jump\t// in\n    tag_69:\n      stop\n        /* \"bomtokenerc20_flat.sol\":33277:33438  function burnFrom(address account, uint256 amount) public virtual {... */\n    tag_14:\n      tag_71\n      0x04\n      dup1\n      calldatasize\n      sub\n      dup2\n      add\n      swap1\n      tag_72\n      swap2\n      swap1\n      tag_32\n      jump\t// in\n    tag_72:\n      tag_73\n      jump\t// in\n    tag_71:\n      stop\n        /* \"bomtokenerc20_flat.sol\":6088:6173  function owner() public view virtual returns (address) {... */\n    tag_15:\n      tag_74\n      tag_75\n      jump\t// in\n    tag_74:\n      mload(0x40)\n      tag_76\n      swap2\n      swap1\n      tag_77\n      jump\t// in\n    tag_76:\n      mload(0x40)\n      dup1\n      swap2\n      sub\n      swap1\n      return\n        /* \"bomtokenerc20_flat.sol\":13307:13409  function symbol() public view virtual override returns (string memory) {... */\n    tag_16:\n      tag_78\n      tag_79\n      jump\t// in\n    tag_78:\n      mload(0x40)\n      tag_80\n      swap2\n      swap1\n      tag_29\n      jump\t// in\n    tag_80:\n      mload(0x40)\n      dup1\n      swap2\n      sub\n      swap1\n      return\n        /* \"bomtokenerc20_flat.sol\":33835:33900  function snapshot() public onlyOwner {... */\n    tag_17:\n      tag_81\n      tag_82\n      jump\t// in\n    tag_81:\n      stop\n        /* \"bomtokenerc20_flat.sol\":28876:29106  function totalSupplyAt(uint256 snapshotId) public view virtual returns (uint256) {... */\n    tag_18:\n      tag_83\n      0x04\n      dup1\n      calldatasize\n      sub\n      dup2\n      add\n      swap1\n      tag_84\n      swap2\n      swap1\n      tag_58\n      jump\t// in\n    tag_84:\n      tag_85\n      jump\t// in\n    tag_83:\n      mload(0x40)\n      tag_86\n      swap2\n      swap1\n      tag_39\n      jump\t// in\n    tag_86:\n      mload(0x40)\n      dup1\n      swap2\n      sub\n      swap1\n      return\n        /* \"bomtokenerc20_flat.sol\":17534:17961  function decreaseAllowance(address spender, uint256 subtractedValue) public virtual returns (bool) {... */\n    tag_19:\n      tag_87\n      0x04\n      dup1\n      calldatasize\n      sub\n      dup2\n      add\n      swap1\n      tag_88\n      swap2\n      swap1\n      tag_32\n      jump\t// in\n    tag_88:\n      tag_89\n      jump\t// in\n    tag_87:\n      mload(0x40)\n      tag_90\n      swap2\n      swap1\n      tag_35\n      jump\t// in\n    tag_90:\n      mload(0x40)\n      dup1\n      swap2\n      sub\n      swap1\n      return\n        /* \"bomtokenerc20_flat.sol\":14669:14858  function transfer(address to, uint256 amount) public virtual override returns (bool) {... */\n    tag_20:\n      tag_91\n      0x04\n      dup1\n      calldatasize\n      sub\n      dup2\n      add\n      swap1\n      tag_92\n      swap2\n      swap1\n      tag_32\n      jump\t// in\n    tag_92:\n      tag_93\n      jump\t// in\n    tag_91:\n      mload(0x40)\n      tag_94\n      swap2\n      swap1\n      tag_35\n      jump\t// in\n    tag_94:\n      mload(0x40)\n      dup1\n      swap2\n      sub\n      swap1\n      return\n        /* \"bomtokenerc20_flat.sol\":14916:15065  function allowance(address owner, address spender) public view virtual override returns (uint256) {... */\n    tag_21:\n      tag_95\n      0x04\n      dup1\n      calldatasize\n      sub\n      dup2\n      add\n      swap1\n      tag_96\n      swap2\n      swap1\n      tag_97\n      jump\t// in\n    tag_96:\n      tag_98\n      jump\t// in\n    tag_95:\n      mload(0x40)\n      tag_99\n      swap2\n      swap1\n      tag_39\n      jump\t// in\n    tag_99:\n      mload(0x40)\n      dup1\n      swap2\n      sub\n      swap1\n      return\n        /* \"bomtokenerc20_flat.sol\":6970:7168  function transferOwnership(address newOwner) public virtual onlyOwner {... */\n    tag_22:\n      tag_100\n      0x04\n      dup1\n      calldatasize\n      sub\n      dup2\n      add\n      swap1\n      tag_101\n      swap2\n      swap1\n      tag_66\n      jump\t// in\n    tag_101:\n      tag_102\n      jump\t// in\n    tag_100:\n      stop\n        /* \"bomtokenerc20_flat.sol\":13096:13194  function name() public view virtual override returns (string memory) {... */\n    tag_27:\n        /* \"bomtokenerc20_flat.sol\":13150:13163  string memory */\n      0x60\n        /* \"bomtokenerc20_flat.sol\":13182:13187  _name */\n      0x03\n        /* \"bomtokenerc20_flat.sol\":13175:13187  return _name */\n      dup1\n      sload\n      tag_107\n      swap1\n      tag_108\n      jump\t// in\n    tag_107:\n      dup1\n      0x1f\n      add\n      0x20\n      dup1\n      swap2\n      div\n      mul\n      0x20\n      add\n      mload(0x40)\n      swap1\n      dup2\n      add\n      0x40\n      mstore\n      dup1\n      swap3\n      swap2\n      swap1\n      dup2\n      dup2\n      mstore\n      0x20\n      add\n      dup3\n      dup1\n      sload\n      tag_109\n      swap1\n      tag_108\n      jump\t// in\n    tag_109:\n      dup1\n      iszero\n      tag_110\n      jumpi\n      dup1\n      0x1f\n      lt\n      tag_111\n      jumpi\n      0x0100\n      dup1\n      dup4\n      sload\n      div\n      mul\n      dup4\n      mstore\n      swap2\n      0x20\n      add\n      swap2\n      jump(tag_110)\n    tag_111:\n      dup3\n      add\n      swap2\n      swap1\n      0x00\n      mstore\n      keccak256(0x00, 0x20)\n      swap1\n    tag_112:\n      dup2\n      sload\n      dup2\n      mstore\n      swap1\n      0x01\n      add\n      swap1\n      0x20\n      add\n      dup1\n      dup4\n      gt\n      tag_112\n      jumpi\n      dup3\n      swap1\n      sub\n      0x1f\n      and\n      dup3\n      add\n      swap2\n    tag_110:\n      pop\n      pop\n      pop\n      pop\n      pop\n      swap1\n      pop\n        /* \"bomtokenerc20_flat.sol\":13096:13194  function name() public view virtual override returns (string memory) {... */\n      swap1\n      jump\t// out\n        /* \"bomtokenerc20_flat.sol\":15373:15570  function approve(address spender, uint256 amount) public virtual override returns (bool) {... */\n    tag_33:\n        /* \"bomtokenerc20_flat.sol\":15456:15460  bool */\n      0x00\n        /* \"bomtokenerc20_flat.sol\":15472:15485  address owner */\n      dup1\n        /* \"bomtokenerc20_flat.sol\":15488:15500  _msgSender() */\n      tag_114\n        /* \"bomtokenerc20_flat.sol\":15488:15498  _msgSender */\n      tag_115\n        /* \"bomtokenerc20_flat.sol\":15488:15500  _msgSender() */\n      jump\t// in\n    tag_114:\n        /* \"bomtokenerc20_flat.sol\":15472:15500  address owner = _msgSender() */\n      swap1\n      pop\n        /* \"bomtokenerc20_flat.sol\":15510:15542  _approve(owner, spender, amount) */\n      tag_116\n        /* \"bomtokenerc20_flat.sol\":15519:15524  owner */\n      dup2\n        /* \"bomtokenerc20_flat.sol\":15526:15533  spender */\n      dup6\n        /* \"bomtokenerc20_flat.sol\":15535:15541  amount */\n      dup6\n        /* \"bomtokenerc20_flat.sol\":15510:15518  _approve */\n      tag_117\n        /* \"bomtokenerc20_flat.sol\":15510:15542  _approve(owner, spender, amount) */\n      jump\t// in\n    tag_116:\n        /* \"bomtokenerc20_flat.sol\":15559:15563  true */\n      0x01\n        /* \"bomtokenerc20_flat.sol\":15552:15563  return true */\n      swap2\n      pop\n      pop\n        /* \"bomtokenerc20_flat.sol\":15373:15570  function approve(address spender, uint256 amount) public virtual override returns (bool) {... */\n      swap3\n      swap2\n      pop\n      pop\n      jump\t// out\n        /* \"bomtokenerc20_flat.sol\":14184:14290  function totalSupply() public view virtual override returns (uint256) {... */\n    tag_37:\n        /* \"bomtokenerc20_flat.sol\":14245:14252  uint256 */\n      0x00\n        /* \"bomtokenerc20_flat.sol\":14271:14283  _totalSupply */\n      sload(0x02)\n        /* \"bomtokenerc20_flat.sol\":14264:14283  return _totalSupply */\n      swap1\n      pop\n        /* \"bomtokenerc20_flat.sol\":14184:14290  function totalSupply() public view virtual override returns (uint256) {... */\n      swap1\n      jump\t// out\n        /* \"bomtokenerc20_flat.sol\":16132:16418  function transferFrom(... */\n    tag_43:\n        /* \"bomtokenerc20_flat.sol\":16259:16263  bool */\n      0x00\n        /* \"bomtokenerc20_flat.sol\":16275:16290  address spender */\n      dup1\n        /* \"bomtokenerc20_flat.sol\":16293:16305  _msgSender() */\n      tag_120\n        /* \"bomtokenerc20_flat.sol\":16293:16303  _msgSender */\n      tag_115\n        /* \"bomtokenerc20_flat.sol\":16293:16305  _msgSender() */\n      jump\t// in\n    tag_120:\n        /* \"bomtokenerc20_flat.sol\":16275:16305  address spender = _msgSender() */\n      swap1\n      pop\n        /* \"bomtokenerc20_flat.sol\":16315:16353  _spendAllowance(from, spender, amount) */\n      tag_121\n        /* \"bomtokenerc20_flat.sol\":16331:16335  from */\n      dup6\n        /* \"bomtokenerc20_flat.sol\":16337:16344  spender */\n      dup3\n        /* \"bomtokenerc20_flat.sol\":16346:16352  amount */\n      dup6\n        /* \"bomtokenerc20_flat.sol\":16315:16330  _spendAllowance */\n      tag_122\n        /* \"bomtokenerc20_flat.sol\":16315:16353  _spendAllowance(from, spender, amount) */\n      jump\t// in\n    tag_121:\n        /* \"bomtokenerc20_flat.sol\":16363:16390  _transfer(from, to, amount) */\n      tag_123\n        /* \"bomtokenerc20_flat.sol\":16373:16377  from */\n      dup6\n        /* \"bomtokenerc20_flat.sol\":16379:16381  to */\n      dup6\n        /* \"bomtokenerc20_flat.sol\":16383:16389  amount */\n      dup6\n        /* \"bomtokenerc20_flat.sol\":16363:16372  _transfer */\n      tag_124\n        /* \"bomtokenerc20_flat.sol\":16363:16390  _transfer(from, to, amount) */\n      jump\t// in\n    tag_123:\n        /* \"bomtokenerc20_flat.sol\":16407:16411  true */\n      0x01\n        /* \"bomtokenerc20_flat.sol\":16400:16411  return true */\n      swap2\n      pop\n      pop\n        /* \"bomtokenerc20_flat.sol\":16132:16418  function transferFrom(... */\n      swap4\n      swap3\n      pop\n      pop\n      pop\n      jump\t// out\n        /* \"bomtokenerc20_flat.sol\":14033:14124  function decimals() public view virtual override returns (uint8) {... */\n    tag_46:\n        /* \"bomtokenerc20_flat.sol\":14091:14096  uint8 */\n      0x00\n        /* \"bomtokenerc20_flat.sol\":14115:14117  18 */\n      0x12\n        /* \"bomtokenerc20_flat.sol\":14108:14117  return 18 */\n      swap1\n      pop\n        /* \"bomtokenerc20_flat.sol\":14033:14124  function decimals() public view virtual override returns (uint8) {... */\n      swap1\n      jump\t// out\n        /* \"bomtokenerc20_flat.sol\":16813:17047  function increaseAllowance(address spender, uint256 addedValue) public virtual returns (bool) {... */\n    tag_51:\n        /* \"bomtokenerc20_flat.sol\":16901:16905  bool */\n      0x00\n        /* \"bomtokenerc20_flat.sol\":16917:16930  address owner */\n      dup1\n        /* \"bomtokenerc20_flat.sol\":16933:16945  _msgSender() */\n      tag_127\n        /* \"bomtokenerc20_flat.sol\":16933:16943  _msgSender */\n      tag_115\n        /* \"bomtokenerc20_flat.sol\":16933:16945  _msgSender() */\n      jump\t// in\n    tag_127:\n        /* \"bomtokenerc20_flat.sol\":16917:16945  address owner = _msgSender() */\n      swap1\n      pop\n        /* \"bomtokenerc20_flat.sol\":16955:17019  _approve(owner, spender, allowance(owner, spender) + addedValue) */\n      tag_128\n        /* \"bomtokenerc20_flat.sol\":16964:16969  owner */\n      dup2\n        /* \"bomtokenerc20_flat.sol\":16971:16978  spender */\n      dup6\n        /* \"bomtokenerc20_flat.sol\":17008:17018  addedValue */\n      dup6\n        /* \"bomtokenerc20_flat.sol\":16980:17005  allowance(owner, spender) */\n      tag_129\n        /* \"bomtokenerc20_flat.sol\":16990:16995  owner */\n      dup6\n        /* \"bomtokenerc20_flat.sol\":16997:17004  spender */\n      dup10\n        /* \"bomtokenerc20_flat.sol\":16980:16989  allowance */\n      tag_98\n        /* \"bomtokenerc20_flat.sol\":16980:17005  allowance(owner, spender) */\n      jump\t// in\n    tag_129:\n        /* \"bomtokenerc20_flat.sol\":16980:17018  allowance(owner, spender) + addedValue */\n      tag_130\n      swap2\n      swap1\n      tag_131\n      jump\t// in\n    tag_130:\n        /* \"bomtokenerc20_flat.sol\":16955:16963  _approve */\n      tag_117\n        /* \"bomtokenerc20_flat.sol\":16955:17019  _approve(owner, spender, allowance(owner, spender) + addedValue) */\n      jump\t// in\n    tag_128:\n        /* \"bomtokenerc20_flat.sol\":17036:17040  true */\n      0x01\n        /* \"bomtokenerc20_flat.sol\":17029:17040  return true */\n      swap2\n      pop\n      pop\n        /* \"bomtokenerc20_flat.sol\":16813:17047  function increaseAllowance(address spender, uint256 addedValue) public virtual returns (bool) {... */\n      swap3\n      swap2\n      pop\n      pop\n      jump\t// out\n        /* \"bomtokenerc20_flat.sol\":33906:33999  function mint(address to, uint256 amount) public onlyOwner {... */\n    tag_55:\n        /* \"bomtokenerc20_flat.sol\":6311:6323  _msgSender() */\n      tag_133\n        /* \"bomtokenerc20_flat.sol\":6311:6321  _msgSender */\n      tag_115\n        /* \"bomtokenerc20_flat.sol\":6311:6323  _msgSender() */\n      jump\t// in\n    tag_133:\n        /* \"bomtokenerc20_flat.sol\":6300:6323  owner() == _msgSender() */\n      0xffffffffffffffffffffffffffffffffffffffff\n      and\n        /* \"bomtokenerc20_flat.sol\":6300:6307  owner() */\n      tag_134\n        /* \"bomtokenerc20_flat.sol\":6300:6305  owner */\n      tag_75\n        /* \"bomtokenerc20_flat.sol\":6300:6307  owner() */\n      jump\t// in\n    tag_134:\n        /* \"bomtokenerc20_flat.sol\":6300:6323  owner() == _msgSender() */\n      0xffffffffffffffffffffffffffffffffffffffff\n      and\n      eq\n        /* \"bomtokenerc20_flat.sol\":6292:6360  require(owner() == _msgSender(), \"Ownable: caller is not the owner\") */\n      tag_135\n      jumpi\n      mload(0x40)\n      0x08c379a000000000000000000000000000000000000000000000000000000000\n      dup2\n      mstore\n      0x04\n      add\n      tag_136\n      swap1\n      tag_137\n      jump\t// in\n    tag_136:\n      mload(0x40)\n      dup1\n      swap2\n      sub\n      swap1\n      revert\n    tag_135:\n        /* \"bomtokenerc20_flat.sol\":33975:33992  _mint(to, amount) */\n      tag_139\n        /* \"bomtokenerc20_flat.sol\":33981:33983  to */\n      dup3\n        /* \"bomtokenerc20_flat.sol\":33985:33991  amount */\n      dup3\n        /* \"bomtokenerc20_flat.sol\":33975:33980  _mint */\n      tag_140\n        /* \"bomtokenerc20_flat.sol\":33975:33992  _mint(to, amount) */\n      jump\t// in\n    tag_139:\n        /* \"bomtokenerc20_flat.sol\":33906:33999  function mint(address to, uint256 amount) public onlyOwner {... */\n      pop\n      pop\n      jump\t// out\n        /* \"bomtokenerc20_flat.sol\":32882:32971  function burn(uint256 amount) public virtual {... */\n    tag_59:\n        /* \"bomtokenerc20_flat.sol\":32937:32964  _burn(_msgSender(), amount) */\n      tag_142\n        /* \"bomtokenerc20_flat.sol\":32943:32955  _msgSender() */\n      tag_143\n        /* \"bomtokenerc20_flat.sol\":32943:32953  _msgSender */\n      tag_115\n        /* \"bomtokenerc20_flat.sol\":32943:32955  _msgSender() */\n      jump\t// in\n    tag_143:\n        /* \"bomtokenerc20_flat.sol\":32957:32963  amount */\n      dup3\n        /* \"bomtokenerc20_flat.sol\":32937:32942  _burn */\n      tag_144\n        /* \"bomtokenerc20_flat.sol\":32937:32964  _burn(_msgSender(), amount) */\n      jump\t// in\n    tag_142:\n        /* \"bomtokenerc20_flat.sol\":32882:32971  function burn(uint256 amount) public virtual {... */\n      pop\n      jump\t// out\n        /* \"bomtokenerc20_flat.sol\":28515:28777  function balanceOfAt(address account, uint256 snapshotId) public view virtual returns (uint256) {... */\n    tag_62:\n        /* \"bomtokenerc20_flat.sol\":28602:28609  uint256 */\n      0x00\n        /* \"bomtokenerc20_flat.sol\":28622:28638  bool snapshotted */\n      dup1\n        /* \"bomtokenerc20_flat.sol\":28640:28653  uint256 value */\n      0x00\n        /* \"bomtokenerc20_flat.sol\":28657:28712  _valueAt(snapshotId, _accountBalanceSnapshots[account]) */\n      tag_146\n        /* \"bomtokenerc20_flat.sol\":28666:28676  snapshotId */\n      dup5\n        /* \"bomtokenerc20_flat.sol\":28678:28702  _accountBalanceSnapshots */\n      0x05\n        /* \"bomtokenerc20_flat.sol\":28678:28711  _accountBalanceSnapshots[account] */\n      0x00\n        /* \"bomtokenerc20_flat.sol\":28703:28710  account */\n      dup9\n        /* \"bomtokenerc20_flat.sol\":28678:28711  _accountBalanceSnapshots[account] */\n      0xffffffffffffffffffffffffffffffffffffffff\n      and\n      0xffffffffffffffffffffffffffffffffffffffff\n      and\n      dup2\n      mstore\n      0x20\n      add\n      swap1\n      dup2\n      mstore\n      0x20\n      add\n      0x00\n      keccak256\n        /* \"bomtokenerc20_flat.sol\":28657:28665  _valueAt */\n      tag_147\n        /* \"bomtokenerc20_flat.sol\":28657:28712  _valueAt(snapshotId, _accountBalanceSnapshots[account]) */\n      jump\t// in\n    tag_146:\n        /* \"bomtokenerc20_flat.sol\":28621:28712  (bool snapshotted, uint256 value) = _valueAt(snapshotId, _accountBalanceSnapshots[account]) */\n      swap2\n      pop\n      swap2\n      pop\n        /* \"bomtokenerc20_flat.sol\":28730:28741  snapshotted */\n      dup2\n        /* \"bomtokenerc20_flat.sol\":28730:28770  snapshotted ? value : balanceOf(account) */\n      tag_148\n      jumpi\n        /* \"bomtokenerc20_flat.sol\":28752:28770  balanceOf(account) */\n      tag_149\n        /* \"bomtokenerc20_flat.sol\":28762:28769  account */\n      dup6\n        /* \"bomtokenerc20_flat.sol\":28752:28761  balanceOf */\n      tag_67\n        /* \"bomtokenerc20_flat.sol\":28752:28770  balanceOf(account) */\n      jump\t// in\n    tag_149:\n        /* \"bomtokenerc20_flat.sol\":28730:28770  snapshotted ? value : balanceOf(account) */\n      jump(tag_150)\n    tag_148:\n        /* \"bomtokenerc20_flat.sol\":28744:28749  value */\n      dup1\n        /* \"bomtokenerc20_flat.sol\":28730:28770  snapshotted ? value : balanceOf(account) */\n    tag_150:\n        /* \"bomtokenerc20_flat.sol\":28723:28770  return snapshotted ? value : balanceOf(account) */\n      swap3\n      pop\n      pop\n      pop\n        /* \"bomtokenerc20_flat.sol\":28515:28777  function balanceOfAt(address account, uint256 snapshotId) public view virtual returns (uint256) {... */\n      swap3\n      swap2\n      pop\n      pop\n      jump\t// out\n        /* \"bomtokenerc20_flat.sol\":14348:14473  function balanceOf(address account) public view virtual override returns (uint256) {... */\n    tag_67:\n        /* \"bomtokenerc20_flat.sol\":14422:14429  uint256 */\n      0x00\n        /* \"bomtokenerc20_flat.sol\":14448:14457  _balances */\n      dup1\n        /* \"bomtokenerc20_flat.sol\":14448:14466  _balances[account] */\n      0x00\n        /* \"bomtokenerc20_flat.sol\":14458:14465  account */\n      dup4\n        /* \"bomtokenerc20_flat.sol\":14448:14466  _balances[account] */\n      0xffffffffffffffffffffffffffffffffffffffff\n      and\n      0xffffffffffffffffffffffffffffffffffffffff\n      and\n      dup2\n      mstore\n      0x20\n      add\n      swap1\n      dup2\n      mstore\n      0x20\n      add\n      0x00\n      keccak256\n      sload\n        /* \"bomtokenerc20_flat.sol\":14441:14466  return _balances[account] */\n      swap1\n      pop\n        /* \"bomtokenerc20_flat.sol\":14348:14473  function balanceOf(address account) public view virtual override returns (uint256) {... */\n      swap2\n      swap1\n      pop\n      jump\t// out\n        /* \"bomtokenerc20_flat.sol\":6720:6821  function renounceOwnership() public virtual onlyOwner {... */\n    tag_70:\n        /* \"bomtokenerc20_flat.sol\":6311:6323  _msgSender() */\n      tag_153\n        /* \"bomtokenerc20_flat.sol\":6311:6321  _msgSender */\n      tag_115\n        /* \"bomtokenerc20_flat.sol\":6311:6323  _msgSender() */\n      jump\t// in\n    tag_153:\n        /* \"bomtokenerc20_flat.sol\":6300:6323  owner() == _msgSender() */\n      0xffffffffffffffffffffffffffffffffffffffff\n      and\n        /* \"bomtokenerc20_flat.sol\":6300:6307  owner() */\n      tag_154\n        /* \"bomtokenerc20_flat.sol\":6300:6305  owner */\n      tag_75\n        /* \"bomtokenerc20_flat.sol\":6300:6307  owner() */\n      jump\t// in\n    tag_154:\n        /* \"bomtokenerc20_flat.sol\":6300:6323  owner() == _msgSender() */\n      0xffffffffffffffffffffffffffffffffffffffff\n      and\n      eq\n        /* \"bomtokenerc20_flat.sol\":6292:6360  require(owner() == _msgSender(), \"Ownable: caller is not the owner\") */\n      tag_155\n      jumpi\n      mload(0x40)\n      0x08c379a000000000000000000000000000000000000000000000000000000000\n      dup2\n      mstore\n      0x04\n      add\n      tag_156\n      swap1\n      tag_137\n      jump\t// in\n    tag_156:\n      mload(0x40)\n      dup1\n      swap2\n      sub\n      swap1\n      revert\n    tag_155:\n        /* \"bomtokenerc20_flat.sol\":6784:6814  _transferOwnership(address(0)) */\n      tag_158\n        /* \"bomtokenerc20_flat.sol\":6811:6812  0 */\n      0x00\n        /* \"bomtokenerc20_flat.sol\":6784:6802  _transferOwnership */\n      tag_159\n        /* \"bomtokenerc20_flat.sol\":6784:6814  _transferOwnership(address(0)) */\n      jump\t// in\n    tag_158:\n        /* \"bomtokenerc20_flat.sol\":6720:6821  function renounceOwnership() public virtual onlyOwner {... */\n      jump\t// out\n        /* \"bomtokenerc20_flat.sol\":33277:33438  function burnFrom(address account, uint256 amount) public virtual {... */\n    tag_73:\n        /* \"bomtokenerc20_flat.sol\":33353:33399  _spendAllowance(account, _msgSender(), amount) */\n      tag_161\n        /* \"bomtokenerc20_flat.sol\":33369:33376  account */\n      dup3\n        /* \"bomtokenerc20_flat.sol\":33378:33390  _msgSender() */\n      tag_162\n        /* \"bomtokenerc20_flat.sol\":33378:33388  _msgSender */\n      tag_115\n        /* \"bomtokenerc20_flat.sol\":33378:33390  _msgSender() */\n      jump\t// in\n    tag_162:\n        /* \"bomtokenerc20_flat.sol\":33392:33398  amount */\n      dup4\n        /* \"bomtokenerc20_flat.sol\":33353:33368  _spendAllowance */\n      tag_122\n        /* \"bomtokenerc20_flat.sol\":33353:33399  _spendAllowance(account, _msgSender(), amount) */\n      jump\t// in\n    tag_161:\n        /* \"bomtokenerc20_flat.sol\":33409:33431  _burn(account, amount) */\n      tag_163\n        /* \"bomtokenerc20_flat.sol\":33415:33422  account */\n      dup3\n        /* \"bomtokenerc20_flat.sol\":33424:33430  amount */\n      dup3\n        /* \"bomtokenerc20_flat.sol\":33409:33414  _burn */\n      tag_144\n        /* \"bomtokenerc20_flat.sol\":33409:33431  _burn(account, amount) */\n      jump\t// in\n    tag_163:\n        /* \"bomtokenerc20_flat.sol\":33277:33438  function burnFrom(address account, uint256 amount) public virtual {... */\n      pop\n      pop\n      jump\t// out\n        /* \"bomtokenerc20_flat.sol\":6088:6173  function owner() public view virtual returns (address) {... */\n    tag_75:\n        /* \"bomtokenerc20_flat.sol\":6134:6141  address */\n      0x00\n        /* \"bomtokenerc20_flat.sol\":6160:6166  _owner */\n      0x09\n      0x00\n      swap1\n      sload\n      swap1\n      0x0100\n      exp\n      swap1\n      div\n      0xffffffffffffffffffffffffffffffffffffffff\n      and\n        /* \"bomtokenerc20_flat.sol\":6153:6166  return _owner */\n      swap1\n      pop\n        /* \"bomtokenerc20_flat.sol\":6088:6173  function owner() public view virtual returns (address) {... */\n      swap1\n      jump\t// out\n        /* \"bomtokenerc20_flat.sol\":13307:13409  function symbol() public view virtual override returns (string memory) {... */\n    tag_79:\n        /* \"bomtokenerc20_flat.sol\":13363:13376  string memory */\n      0x60\n        /* \"bomtokenerc20_flat.sol\":13395:13402  _symbol */\n      0x04\n        /* \"bomtokenerc20_flat.sol\":13388:13402  return _symbol */\n      dup1\n      sload\n      tag_166\n      swap1\n      tag_108\n      jump\t// in\n    tag_166:\n      dup1\n      0x1f\n      add\n      0x20\n      dup1\n      swap2\n      div\n      mul\n      0x20\n      add\n      mload(0x40)\n      swap1\n      dup2\n      add\n      0x40\n      mstore\n      dup1\n      swap3\n      swap2\n      swap1\n      dup2\n      dup2\n      mstore\n      0x20\n      add\n      dup3\n      dup1\n      sload\n      tag_167\n      swap1\n      tag_108\n      jump\t// in\n    tag_167:\n      dup1\n      iszero\n      tag_168\n      jumpi\n      dup1\n      0x1f\n      lt\n      tag_169\n      jumpi\n      0x0100\n      dup1\n      dup4\n      sload\n      div\n      mul\n      dup4\n      mstore\n      swap2\n      0x20\n      add\n      swap2\n      jump(tag_168)\n    tag_169:\n      dup3\n      add\n      swap2\n      swap1\n      0x00\n      mstore\n      keccak256(0x00, 0x20)\n      swap1\n    tag_170:\n      dup2\n      sload\n      dup2\n      mstore\n      swap1\n      0x01\n      add\n      swap1\n      0x20\n      add\n      dup1\n      dup4\n      gt\n      tag_170\n      jumpi\n      dup3\n      swap1\n      sub\n      0x1f\n      and\n      dup3\n      add\n      swap2\n    tag_168:\n      pop\n      pop\n      pop\n      pop\n      pop\n      swap1\n      pop\n        /* \"bomtokenerc20_flat.sol\":13307:13409  function symbol() public view virtual override returns (string memory) {... */\n      swap1\n      jump\t// out\n        /* \"bomtokenerc20_flat.sol\":33835:33900  function snapshot() public onlyOwner {... */\n    tag_82:\n        /* \"bomtokenerc20_flat.sol\":6311:6323  _msgSender() */\n      tag_172\n        /* \"bomtokenerc20_flat.sol\":6311:6321  _msgSender */\n      tag_115\n        /* \"bomtokenerc20_flat.sol\":6311:6323  _msgSender() */\n      jump\t// in\n    tag_172:\n        /* \"bomtokenerc20_flat.sol\":6300:6323  owner() == _msgSender() */\n      0xffffffffffffffffffffffffffffffffffffffff\n      and\n        /* \"bomtokenerc20_flat.sol\":6300:6307  owner() */\n      tag_173\n        /* \"bomtokenerc20_flat.sol\":6300:6305  owner */\n      tag_75\n        /* \"bomtokenerc20_flat.sol\":6300:6307  owner() */\n      jump\t// in\n    tag_173:\n        /* \"bomtokenerc20_flat.sol\":6300:6323  owner() == _msgSender() */\n      0xffffffffffffffffffffffffffffffffffffffff\n      and\n      eq\n        /* \"bomtokenerc20_flat.sol\":6292:6360  require(owner() == _msgSender(), \"Ownable: caller is not the owner\") */\n      tag_174\n      jumpi\n      mload(0x40)\n      0x08c379a000000000000000000000000000000000000000000000000000000000\n      dup2\n      mstore\n      0x04\n      add\n      tag_175\n      swap1\n      tag_137\n      jump\t// in\n    tag_175:\n      mload(0x40)\n      dup1\n      swap2\n      sub\n      swap1\n      revert\n    tag_174:\n        /* \"bomtokenerc20_flat.sol\":33882:33893  _snapshot() */\n      tag_177\n        /* \"bomtokenerc20_flat.sol\":33882:33891  _snapshot */\n      tag_178\n        /* \"bomtokenerc20_flat.sol\":33882:33893  _snapshot() */\n      jump\t// in\n    tag_177:\n      pop\n        /* \"bomtokenerc20_flat.sol\":33835:33900  function snapshot() public onlyOwner {... */\n      jump\t// out\n        /* \"bomtokenerc20_flat.sol\":28876:29106  function totalSupplyAt(uint256 snapshotId) public view virtual returns (uint256) {... */\n    tag_85:\n        /* \"bomtokenerc20_flat.sol\":28948:28955  uint256 */\n      0x00\n        /* \"bomtokenerc20_flat.sol\":28968:28984  bool snapshotted */\n      dup1\n        /* \"bomtokenerc20_flat.sol\":28986:28999  uint256 value */\n      0x00\n        /* \"bomtokenerc20_flat.sol\":29003:29046  _valueAt(snapshotId, _totalSupplySnapshots) */\n      tag_180\n        /* \"bomtokenerc20_flat.sol\":29012:29022  snapshotId */\n      dup5\n        /* \"bomtokenerc20_flat.sol\":29024:29045  _totalSupplySnapshots */\n      0x06\n        /* \"bomtokenerc20_flat.sol\":29003:29011  _valueAt */\n      tag_147\n        /* \"bomtokenerc20_flat.sol\":29003:29046  _valueAt(snapshotId, _totalSupplySnapshots) */\n      jump\t// in\n    tag_180:\n        /* \"bomtokenerc20_flat.sol\":28967:29046  (bool snapshotted, uint256 value) = _valueAt(snapshotId, _totalSupplySnapshots) */\n      swap2\n      pop\n      swap2\n      pop\n        /* \"bomtokenerc20_flat.sol\":29064:29075  snapshotted */\n      dup2\n        /* \"bomtokenerc20_flat.sol\":29064:29099  snapshotted ? value : totalSupply() */\n      tag_181\n      jumpi\n        /* \"bomtokenerc20_flat.sol\":29086:29099  totalSupply() */\n      tag_182\n        /* \"bomtokenerc20_flat.sol\":29086:29097  totalSupply */\n      tag_37\n        /* \"bomtokenerc20_flat.sol\":29086:29099  totalSupply() */\n      jump\t// in\n    tag_182:\n        /* \"bomtokenerc20_flat.sol\":29064:29099  snapshotted ? value : totalSupply() */\n      jump(tag_183)\n    tag_181:\n        /* \"bomtokenerc20_flat.sol\":29078:29083  value */\n      dup1\n        /* \"bomtokenerc20_flat.sol\":29064:29099  snapshotted ? value : totalSupply() */\n    tag_183:\n        /* \"bomtokenerc20_flat.sol\":29057:29099  return snapshotted ? value : totalSupply() */\n      swap3\n      pop\n      pop\n      pop\n        /* \"bomtokenerc20_flat.sol\":28876:29106  function totalSupplyAt(uint256 snapshotId) public view virtual returns (uint256) {... */\n      swap2\n      swap1\n      pop\n      jump\t// out\n        /* \"bomtokenerc20_flat.sol\":17534:17961  function decreaseAllowance(address spender, uint256 subtractedValue) public virtual returns (bool) {... */\n    tag_89:\n        /* \"bomtokenerc20_flat.sol\":17627:17631  bool */\n      0x00\n        /* \"bomtokenerc20_flat.sol\":17643:17656  address owner */\n      dup1\n        /* \"bomtokenerc20_flat.sol\":17659:17671  _msgSender() */\n      tag_185\n        /* \"bomtokenerc20_flat.sol\":17659:17669  _msgSender */\n      tag_115\n        /* \"bomtokenerc20_flat.sol\":17659:17671  _msgSender() */\n      jump\t// in\n    tag_185:\n        /* \"bomtokenerc20_flat.sol\":17643:17671  address owner = _msgSender() */\n      swap1\n      pop\n        /* \"bomtokenerc20_flat.sol\":17681:17705  uint256 currentAllowance */\n      0x00\n        /* \"bomtokenerc20_flat.sol\":17708:17733  allowance(owner, spender) */\n      tag_186\n        /* \"bomtokenerc20_flat.sol\":17718:17723  owner */\n      dup3\n        /* \"bomtokenerc20_flat.sol\":17725:17732  spender */\n      dup7\n        /* \"bomtokenerc20_flat.sol\":17708:17717  allowance */\n      tag_98\n        /* \"bomtokenerc20_flat.sol\":17708:17733  allowance(owner, spender) */\n      jump\t// in\n    tag_186:\n        /* \"bomtokenerc20_flat.sol\":17681:17733  uint256 currentAllowance = allowance(owner, spender) */\n      swap1\n      pop\n        /* \"bomtokenerc20_flat.sol\":17771:17786  subtractedValue */\n      dup4\n        /* \"bomtokenerc20_flat.sol\":17751:17767  currentAllowance */\n      dup2\n        /* \"bomtokenerc20_flat.sol\":17751:17786  currentAllowance >= subtractedValue */\n      lt\n      iszero\n        /* \"bomtokenerc20_flat.sol\":17743:17828  require(currentAllowance >= subtractedValue, \"ERC20: decreased allowance below zero\") */\n      tag_187\n      jumpi\n      mload(0x40)\n      0x08c379a000000000000000000000000000000000000000000000000000000000\n      dup2\n      mstore\n      0x04\n      add\n      tag_188\n      swap1\n      tag_189\n      jump\t// in\n    tag_188:\n      mload(0x40)\n      dup1\n      swap2\n      sub\n      swap1\n      revert\n    tag_187:\n        /* \"bomtokenerc20_flat.sol\":17862:17922  _approve(owner, spender, currentAllowance - subtractedValue) */\n      tag_190\n        /* \"bomtokenerc20_flat.sol\":17871:17876  owner */\n      dup3\n        /* \"bomtokenerc20_flat.sol\":17878:17885  spender */\n      dup7\n        /* \"bomtokenerc20_flat.sol\":17906:17921  subtractedValue */\n      dup7\n        /* \"bomtokenerc20_flat.sol\":17887:17903  currentAllowance */\n      dup5\n        /* \"bomtokenerc20_flat.sol\":17887:17921  currentAllowance - subtractedValue */\n      sub\n        /* \"bomtokenerc20_flat.sol\":17862:17870  _approve */\n      tag_117\n        /* \"bomtokenerc20_flat.sol\":17862:17922  _approve(owner, spender, currentAllowance - subtractedValue) */\n      jump\t// in\n    tag_190:\n        /* \"bomtokenerc20_flat.sol\":17950:17954  true */\n      0x01\n        /* \"bomtokenerc20_flat.sol\":17943:17954  return true */\n      swap3\n      pop\n      pop\n      pop\n        /* \"bomtokenerc20_flat.sol\":17534:17961  function decreaseAllowance(address spender, uint256 subtractedValue) public virtual returns (bool) {... */\n      swap3\n      swap2\n      pop\n      pop\n      jump\t// out\n        /* \"bomtokenerc20_flat.sol\":14669:14858  function transfer(address to, uint256 amount) public virtual override returns (bool) {... */\n    tag_93:\n        /* \"bomtokenerc20_flat.sol\":14748:14752  bool */\n      0x00\n        /* \"bomtokenerc20_flat.sol\":14764:14777  address owner */\n      dup1\n        /* \"bomtokenerc20_flat.sol\":14780:14792  _msgSender() */\n      tag_192\n        /* \"bomtokenerc20_flat.sol\":14780:14790  _msgSender */\n      tag_115\n        /* \"bomtokenerc20_flat.sol\":14780:14792  _msgSender() */\n      jump\t// in\n    tag_192:\n        /* \"bomtokenerc20_flat.sol\":14764:14792  address owner = _msgSender() */\n      swap1\n      pop\n        /* \"bomtokenerc20_flat.sol\":14802:14830  _transfer(owner, to, amount) */\n      tag_193\n        /* \"bomtokenerc20_flat.sol\":14812:14817  owner */\n      dup2\n        /* \"bomtokenerc20_flat.sol\":14819:14821  to */\n      dup6\n        /* \"bomtokenerc20_flat.sol\":14823:14829  amount */\n      dup6\n        /* \"bomtokenerc20_flat.sol\":14802:14811  _transfer */\n      tag_124\n        /* \"bomtokenerc20_flat.sol\":14802:14830  _transfer(owner, to, amount) */\n      jump\t// in\n    tag_193:\n        /* \"bomtokenerc20_flat.sol\":14847:14851  true */\n      0x01\n        /* \"bomtokenerc20_flat.sol\":14840:14851  return true */\n      swap2\n      pop\n      pop\n        /* \"bomtokenerc20_flat.sol\":14669:14858  function transfer(address to, uint256 amount) public virtual override returns (bool) {... */\n      swap3\n      swap2\n      pop\n      pop\n      jump\t// out\n        /* \"bomtokenerc20_flat.sol\":14916:15065  function allowance(address owner, address spender) public view virtual override returns (uint256) {... */\n    tag_98:\n        /* \"bomtokenerc20_flat.sol\":15005:15012  uint256 */\n      0x00\n        /* \"bomtokenerc20_flat.sol\":15031:15042  _allowances */\n      0x01\n        /* \"bomtokenerc20_flat.sol\":15031:15049  _allowances[owner] */\n      0x00\n        /* \"bomtokenerc20_flat.sol\":15043:15048  owner */\n      dup5\n        /* \"bomtokenerc20_flat.sol\":15031:15049  _allowances[owner] */\n      0xffffffffffffffffffffffffffffffffffffffff\n      and\n      0xffffffffffffffffffffffffffffffffffffffff\n      and\n      dup2\n      mstore\n      0x20\n      add\n      swap1\n      dup2\n      mstore\n      0x20\n      add\n      0x00\n      keccak256\n        /* \"bomtokenerc20_flat.sol\":15031:15058  _allowances[owner][spender] */\n      0x00\n        /* \"bomtokenerc20_flat.sol\":15050:15057  spender */\n      dup4\n        /* \"bomtokenerc20_flat.sol\":15031:15058  _allowances[owner][spender] */\n      0xffffffffffffffffffffffffffffffffffffffff\n      and\n      0xffffffffffffffffffffffffffffffffffffffff\n      and\n      dup2\n      mstore\n      0x20\n      add\n      swap1\n      dup2\n      mstore\n      0x20\n      add\n      0x00\n      keccak256\n      sload\n        /* \"bomtokenerc20_flat.sol\":15024:15058  return _allowances[owner][spender] */\n      swap1\n      pop\n        /* \"bomtokenerc20_flat.sol\":14916:15065  function allowance(address owner, address spender) public view virtual override returns (uint256) {... */\n      swap3\n      swap2\n      pop\n      pop\n      jump\t// out\n        /* \"bomtokenerc20_flat.sol\":6970:7168  function transferOwnership(address newOwner) public virtual onlyOwner {... */\n    tag_102:\n        /* \"bomtokenerc20_flat.sol\":6311:6323  _msgSender() */\n      tag_196\n        /* \"bomtokenerc20_flat.sol\":6311:6321  _msgSender */\n      tag_115\n        /* \"bomtokenerc20_flat.sol\":6311:6323  _msgSender() */\n      jump\t// in\n    tag_196:\n        /* \"bomtokenerc20_flat.sol\":6300:6323  owner() == _msgSender() */\n      0xffffffffffffffffffffffffffffffffffffffff\n      and\n        /* \"bomtokenerc20_flat.sol\":6300:6307  owner() */\n      tag_197\n        /* \"bomtokenerc20_flat.sol\":6300:6305  owner */\n      tag_75\n        /* \"bomtokenerc20_flat.sol\":6300:6307  owner() */\n      jump\t// in\n    tag_197:\n        /* \"bomtokenerc20_flat.sol\":6300:6323  owner() == _msgSender() */\n      0xffffffffffffffffffffffffffffffffffffffff\n      and\n      eq\n        /* \"bomtokenerc20_flat.sol\":6292:6360  require(owner() == _msgSender(), \"Ownable: caller is not the owner\") */\n      tag_198\n      jumpi\n      mload(0x40)\n      0x08c379a000000000000000000000000000000000000000000000000000000000\n      dup2\n      mstore\n      0x04\n      add\n      tag_199\n      swap1\n      tag_137\n      jump\t// in\n    tag_199:\n      mload(0x40)\n      dup1\n      swap2\n      sub\n      swap1\n      revert\n    tag_198:\n        /* \"bomtokenerc20_flat.sol\":7078:7079  0 */\n      0x00\n        /* \"bomtokenerc20_flat.sol\":7058:7080  newOwner != address(0) */\n      0xffffffffffffffffffffffffffffffffffffffff\n      and\n        /* \"bomtokenerc20_flat.sol\":7058:7066  newOwner */\n      dup2\n        /* \"bomtokenerc20_flat.sol\":7058:7080  newOwner != address(0) */\n      0xffffffffffffffffffffffffffffffffffffffff\n      and\n      eq\n      iszero\n        /* \"bomtokenerc20_flat.sol\":7050:7123  require(newOwner != address(0), \"Ownable: new owner is the zero address\") */\n      tag_201\n      jumpi\n      mload(0x40)\n      0x08c379a000000000000000000000000000000000000000000000000000000000\n      dup2\n      mstore\n      0x04\n      add\n      tag_202\n      swap1\n      tag_203\n      jump\t// in\n    tag_202:\n      mload(0x40)\n      dup1\n      swap2\n      sub\n      swap1\n      revert\n    tag_201:\n        /* \"bomtokenerc20_flat.sol\":7133:7161  _transferOwnership(newOwner) */\n      tag_204\n        /* \"bomtokenerc20_flat.sol\":7152:7160  newOwner */\n      dup2\n        /* \"bomtokenerc20_flat.sol\":7133:7151  _transferOwnership */\n      tag_159\n        /* \"bomtokenerc20_flat.sol\":7133:7161  _transferOwnership(newOwner) */\n      jump\t// in\n    tag_204:\n        /* \"bomtokenerc20_flat.sol\":6970:7168  function transferOwnership(address newOwner) public virtual onlyOwner {... */\n      pop\n      jump\t// out\n        /* \"bomtokenerc20_flat.sol\":29319:29921  function _beforeTokenTransfer(... */\n    tag_103:\n        /* \"bomtokenerc20_flat.sol\":29457:29501  super._beforeTokenTransfer(from, to, amount) */\n      tag_206\n        /* \"bomtokenerc20_flat.sol\":29484:29488  from */\n      dup4\n        /* \"bomtokenerc20_flat.sol\":29490:29492  to */\n      dup4\n        /* \"bomtokenerc20_flat.sol\":29494:29500  amount */\n      dup4\n        /* \"bomtokenerc20_flat.sol\":29457:29483  super._beforeTokenTransfer */\n      tag_104\n        /* \"bomtokenerc20_flat.sol\":29457:29501  super._beforeTokenTransfer(from, to, amount) */\n      jump\t// in\n    tag_206:\n        /* \"bomtokenerc20_flat.sol\":29532:29533  0 */\n      0x00\n        /* \"bomtokenerc20_flat.sol\":29516:29534  from == address(0) */\n      0xffffffffffffffffffffffffffffffffffffffff\n      and\n        /* \"bomtokenerc20_flat.sol\":29516:29520  from */\n      dup4\n        /* \"bomtokenerc20_flat.sol\":29516:29534  from == address(0) */\n      0xffffffffffffffffffffffffffffffffffffffff\n      and\n      eq\n        /* \"bomtokenerc20_flat.sol\":29512:29915  if (from == address(0)) {... */\n      iszero\n      tag_207\n      jumpi\n        /* \"bomtokenerc20_flat.sol\":29570:29596  _updateAccountSnapshot(to) */\n      tag_208\n        /* \"bomtokenerc20_flat.sol\":29593:29595  to */\n      dup3\n        /* \"bomtokenerc20_flat.sol\":29570:29592  _updateAccountSnapshot */\n      tag_209\n        /* \"bomtokenerc20_flat.sol\":29570:29596  _updateAccountSnapshot(to) */\n      jump\t// in\n    tag_208:\n        /* \"bomtokenerc20_flat.sol\":29610:29638  _updateTotalSupplySnapshot() */\n      tag_210\n        /* \"bomtokenerc20_flat.sol\":29610:29636  _updateTotalSupplySnapshot */\n      tag_211\n        /* \"bomtokenerc20_flat.sol\":29610:29638  _updateTotalSupplySnapshot() */\n      jump\t// in\n    tag_210:\n        /* \"bomtokenerc20_flat.sol\":29512:29915  if (from == address(0)) {... */\n      jump(tag_212)\n    tag_207:\n        /* \"bomtokenerc20_flat.sol\":29673:29674  0 */\n      0x00\n        /* \"bomtokenerc20_flat.sol\":29659:29675  to == address(0) */\n      0xffffffffffffffffffffffffffffffffffffffff\n      and\n        /* \"bomtokenerc20_flat.sol\":29659:29661  to */\n      dup3\n        /* \"bomtokenerc20_flat.sol\":29659:29675  to == address(0) */\n      0xffffffffffffffffffffffffffffffffffffffff\n      and\n      eq\n        /* \"bomtokenerc20_flat.sol\":29655:29915  if (to == address(0)) {... */\n      iszero\n      tag_213\n      jumpi\n        /* \"bomtokenerc20_flat.sol\":29711:29739  _updateAccountSnapshot(from) */\n      tag_214\n        /* \"bomtokenerc20_flat.sol\":29734:29738  from */\n      dup4\n        /* \"bomtokenerc20_flat.sol\":29711:29733  _updateAccountSnapshot */\n      tag_209\n        /* \"bomtokenerc20_flat.sol\":29711:29739  _updateAccountSnapshot(from) */\n      jump\t// in\n    tag_214:\n        /* \"bomtokenerc20_flat.sol\":29753:29781  _updateTotalSupplySnapshot() */\n      tag_215\n        /* \"bomtokenerc20_flat.sol\":29753:29779  _updateTotalSupplySnapshot */\n      tag_211\n        /* \"bomtokenerc20_flat.sol\":29753:29781  _updateTotalSupplySnapshot() */\n      jump\t// in\n    tag_215:\n        /* \"bomtokenerc20_flat.sol\":29655:29915  if (to == address(0)) {... */\n      jump(tag_216)\n    tag_213:\n        /* \"bomtokenerc20_flat.sol\":29836:29864  _updateAccountSnapshot(from) */\n      tag_217\n        /* \"bomtokenerc20_flat.sol\":29859:29863  from */\n      dup4\n        /* \"bomtokenerc20_flat.sol\":29836:29858  _updateAccountSnapshot */\n      tag_209\n        /* \"bomtokenerc20_flat.sol\":29836:29864  _updateAccountSnapshot(from) */\n      jump\t// in\n    tag_217:\n        /* \"bomtokenerc20_flat.sol\":29878:29904  _updateAccountSnapshot(to) */\n      tag_218\n        /* \"bomtokenerc20_flat.sol\":29901:29903  to */\n      dup3\n        /* \"bomtokenerc20_flat.sol\":29878:29900  _updateAccountSnapshot */\n      tag_209\n        /* \"bomtokenerc20_flat.sol\":29878:29904  _updateAccountSnapshot(to) */\n      jump\t// in\n    tag_218:\n        /* \"bomtokenerc20_flat.sol\":29655:29915  if (to == address(0)) {... */\n    tag_216:\n        /* \"bomtokenerc20_flat.sol\":29512:29915  if (from == address(0)) {... */\n    tag_212:\n        /* \"bomtokenerc20_flat.sol\":29319:29921  function _beforeTokenTransfer(... */\n      pop\n      pop\n      pop\n      jump\t// out\n        /* \"bomtokenerc20_flat.sol\":22735:22856  function _beforeTokenTransfer(... */\n    tag_104:\n      pop\n      pop\n      pop\n      jump\t// out\n        /* \"bomtokenerc20_flat.sol\":850:962  function current(Counter storage counter) internal view returns (uint256) {... */\n    tag_105:\n        /* \"bomtokenerc20_flat.sol\":915:922  uint256 */\n      0x00\n        /* \"bomtokenerc20_flat.sol\":941:948  counter */\n      dup2\n        /* \"bomtokenerc20_flat.sol\":941:955  counter._value */\n      0x00\n      add\n      sload\n        /* \"bomtokenerc20_flat.sol\":934:955  return counter._value */\n      swap1\n      pop\n        /* \"bomtokenerc20_flat.sol\":850:962  function current(Counter storage counter) internal view returns (uint256) {... */\n      swap2\n      swap1\n      pop\n      jump\t// out\n        /* \"bomtokenerc20_flat.sol\":4856:4952  function _msgSender() internal view virtual returns (address) {... */\n    tag_115:\n        /* \"bomtokenerc20_flat.sol\":4909:4916  address */\n      0x00\n        /* \"bomtokenerc20_flat.sol\":4935:4945  msg.sender */\n      caller\n        /* \"bomtokenerc20_flat.sol\":4928:4945  return msg.sender */\n      swap1\n      pop\n        /* \"bomtokenerc20_flat.sol\":4856:4952  function _msgSender() internal view virtual returns (address) {... */\n      swap1\n      jump\t// out\n        /* \"bomtokenerc20_flat.sol\":21059:21429  function _approve(... */\n    tag_117:\n        /* \"bomtokenerc20_flat.sol\":21207:21208  0 */\n      0x00\n        /* \"bomtokenerc20_flat.sol\":21190:21209  owner != address(0) */\n      0xffffffffffffffffffffffffffffffffffffffff\n      and\n        /* \"bomtokenerc20_flat.sol\":21190:21195  owner */\n      dup4\n        /* \"bomtokenerc20_flat.sol\":21190:21209  owner != address(0) */\n      0xffffffffffffffffffffffffffffffffffffffff\n      and\n      eq\n      iszero\n        /* \"bomtokenerc20_flat.sol\":21182:21250  require(owner != address(0), \"ERC20: approve from the zero address\") */\n      tag_223\n      jumpi\n      mload(0x40)\n      0x08c379a000000000000000000000000000000000000000000000000000000000\n      dup2\n      mstore\n      0x04\n      add\n      tag_224\n      swap1\n      tag_225\n      jump\t// in\n    tag_224:\n      mload(0x40)\n      dup1\n      swap2\n      sub\n      swap1\n      revert\n    tag_223:\n        /* \"bomtokenerc20_flat.sol\":21287:21288  0 */\n      0x00\n        /* \"bomtokenerc20_flat.sol\":21268:21289  spender != address(0) */\n      0xffffffffffffffffffffffffffffffffffffffff\n      and\n        /* \"bomtokenerc20_flat.sol\":21268:21275  spender */\n      dup3\n        /* \"bomtokenerc20_flat.sol\":21268:21289  spender != address(0) */\n      0xffffffffffffffffffffffffffffffffffffffff\n      and\n      eq\n      iszero\n        /* \"bomtokenerc20_flat.sol\":21260:21328  require(spender != address(0), \"ERC20: approve to the zero address\") */\n      tag_226\n      jumpi\n      mload(0x40)\n      0x08c379a000000000000000000000000000000000000000000000000000000000\n      dup2\n      mstore\n      0x04\n      add\n      tag_227\n      swap1\n      tag_228\n      jump\t// in\n    tag_227:\n      mload(0x40)\n      dup1\n      swap2\n      sub\n      swap1\n      revert\n    tag_226:\n        /* \"bomtokenerc20_flat.sol\":21369:21375  amount */\n      dup1\n        /* \"bomtokenerc20_flat.sol\":21339:21350  _allowances */\n      0x01\n        /* \"bomtokenerc20_flat.sol\":21339:21357  _allowances[owner] */\n      0x00\n        /* \"bomtokenerc20_flat.sol\":21351:21356  owner */\n      dup6\n        /* \"bomtokenerc20_flat.sol\":21339:21357  _allowances[owner] */\n      0xffffffffffffffffffffffffffffffffffffffff\n      and\n      0xffffffffffffffffffffffffffffffffffffffff\n      and\n      dup2\n      mstore\n      0x20\n      add\n      swap1\n      dup2\n      mstore\n      0x20\n      add\n      0x00\n      keccak256\n        /* \"bomtokenerc20_flat.sol\":21339:21366  _allowances[owner][spender] */\n      0x00\n        /* \"bomtokenerc20_flat.sol\":21358:21365  spender */\n      dup5\n        /* \"bomtokenerc20_flat.sol\":21339:21366  _allowances[owner][spender] */\n      0xffffffffffffffffffffffffffffffffffffffff\n      and\n      0xffffffffffffffffffffffffffffffffffffffff\n      and\n      dup2\n      mstore\n      0x20\n      add\n      swap1\n      dup2\n      mstore\n      0x20\n      add\n      0x00\n      keccak256\n        /* \"bomtokenerc20_flat.sol\":21339:21375  _allowances[owner][spender] = amount */\n      dup2\n      swap1\n      sstore\n      pop\n        /* \"bomtokenerc20_flat.sol\":21406:21413  spender */\n      dup2\n        /* \"bomtokenerc20_flat.sol\":21390:21422  Approval(owner, spender, amount) */\n      0xffffffffffffffffffffffffffffffffffffffff\n      and\n        /* \"bomtokenerc20_flat.sol\":21399:21404  owner */\n      dup4\n        /* \"bomtokenerc20_flat.sol\":21390:21422  Approval(owner, spender, amount) */\n      0xffffffffffffffffffffffffffffffffffffffff\n      and\n      0x8c5be1e5ebec7d5bd14f71427d1e84f3dd0314c0f7b2291e5b200ac8c7c3b925\n        /* \"bomtokenerc20_flat.sol\":21415:21421  amount */\n      dup4\n        /* \"bomtokenerc20_flat.sol\":21390:21422  Approval(owner, spender, amount) */\n      mload(0x40)\n      tag_229\n      swap2\n      swap1\n      tag_39\n      jump\t// in\n    tag_229:\n      mload(0x40)\n      dup1\n      swap2\n      sub\n      swap1\n      log3\n        /* \"bomtokenerc20_flat.sol\":21059:21429  function _approve(... */\n      pop\n      pop\n      pop\n      jump\t// out\n        /* \"bomtokenerc20_flat.sol\":21710:22151  function _spendAllowance(... */\n    tag_122:\n        /* \"bomtokenerc20_flat.sol\":21840:21864  uint256 currentAllowance */\n      0x00\n        /* \"bomtokenerc20_flat.sol\":21867:21892  allowance(owner, spender) */\n      tag_231\n        /* \"bomtokenerc20_flat.sol\":21877:21882  owner */\n      dup5\n        /* \"bomtokenerc20_flat.sol\":21884:21891  spender */\n      dup5\n        /* \"bomtokenerc20_flat.sol\":21867:21876  allowance */\n      tag_98\n        /* \"bomtokenerc20_flat.sol\":21867:21892  allowance(owner, spender) */\n      jump\t// in\n    tag_231:\n        /* \"bomtokenerc20_flat.sol\":21840:21892  uint256 currentAllowance = allowance(owner, spender) */\n      swap1\n      pop\n        /* \"bomtokenerc20_flat.sol\":21926:21943  type(uint256).max */\n      0xffffffffffffffffffffffffffffffffffffffffffffffffffffffffffffffff\n        /* \"bomtokenerc20_flat.sol\":21906:21922  currentAllowance */\n      dup2\n        /* \"bomtokenerc20_flat.sol\":21906:21943  currentAllowance != type(uint256).max */\n      eq\n        /* \"bomtokenerc20_flat.sol\":21902:22145  if (currentAllowance != type(uint256).max) {... */\n      tag_232\n      jumpi\n        /* \"bomtokenerc20_flat.sol\":21987:21993  amount */\n      dup2\n        /* \"bomtokenerc20_flat.sol\":21967:21983  currentAllowance */\n      dup2\n        /* \"bomtokenerc20_flat.sol\":21967:21993  currentAllowance >= amount */\n      lt\n      iszero\n        /* \"bomtokenerc20_flat.sol\":21959:22027  require(currentAllowance >= amount, \"ERC20: insufficient allowance\") */\n      tag_233\n      jumpi\n      mload(0x40)\n      0x08c379a000000000000000000000000000000000000000000000000000000000\n      dup2\n      mstore\n      0x04\n      add\n      tag_234\n      swap1\n      tag_235\n      jump\t// in\n    tag_234:\n      mload(0x40)\n      dup1\n      swap2\n      sub\n      swap1\n      revert\n    tag_233:\n        /* \"bomtokenerc20_flat.sol\":22069:22120  _approve(owner, spender, currentAllowance - amount) */\n      tag_236\n        /* \"bomtokenerc20_flat.sol\":22078:22083  owner */\n      dup5\n        /* \"bomtokenerc20_flat.sol\":22085:22092  spender */\n      dup5\n        /* \"bomtokenerc20_flat.sol\":22113:22119  amount */\n      dup5\n        /* \"bomtokenerc20_flat.sol\":22094:22110  currentAllowance */\n      dup5\n        /* \"bomtokenerc20_flat.sol\":22094:22119  currentAllowance - amount */\n      sub\n        /* \"bomtokenerc20_flat.sol\":22069:22077  _approve */\n      tag_117\n        /* \"bomtokenerc20_flat.sol\":22069:22120  _approve(owner, spender, currentAllowance - amount) */\n      jump\t// in\n    tag_236:\n        /* \"bomtokenerc20_flat.sol\":21902:22145  if (currentAllowance != type(uint256).max) {... */\n    tag_232:\n        /* \"bomtokenerc20_flat.sol\":21830:22151  {... */\n      pop\n        /* \"bomtokenerc20_flat.sol\":21710:22151  function _spendAllowance(... */\n      pop\n      pop\n      pop\n      jump\t// out\n        /* \"bomtokenerc20_flat.sol\":18424:19075  function _transfer(... */\n    tag_124:\n        /* \"bomtokenerc20_flat.sol\":18566:18567  0 */\n      0x00\n        /* \"bomtokenerc20_flat.sol\":18550:18568  from != address(0) */\n      0xffffffffffffffffffffffffffffffffffffffff\n      and\n        /* \"bomtokenerc20_flat.sol\":18550:18554  from */\n      dup4\n        /* \"bomtokenerc20_flat.sol\":18550:18568  from != address(0) */\n      0xffffffffffffffffffffffffffffffffffffffff\n      and\n      eq\n      iszero\n        /* \"bomtokenerc20_flat.sol\":18542:18610  require(from != address(0), \"ERC20: transfer from the zero address\") */\n      tag_238\n      jumpi\n      mload(0x40)\n      0x08c379a000000000000000000000000000000000000000000000000000000000\n      dup2\n      mstore\n      0x04\n      add\n      tag_239\n      swap1\n      tag_240\n      jump\t// in\n    tag_239:\n      mload(0x40)\n      dup1\n      swap2\n      sub\n      swap1\n      revert\n    tag_238:\n        /* \"bomtokenerc20_flat.sol\":18642:18643  0 */\n      0x00\n        /* \"bomtokenerc20_flat.sol\":18628:18644  to != address(0) */\n      0xffffffffffffffffffffffffffffffffffffffff\n      and\n        /* \"bomtokenerc20_flat.sol\":18628:18630  to */\n      dup3\n        /* \"bomtokenerc20_flat.sol\":18628:18644  to != address(0) */\n      0xffffffffffffffffffffffffffffffffffffffff\n      and\n      eq\n      iszero\n        /* \"bomtokenerc20_flat.sol\":18620:18684  require(to != address(0), \"ERC20: transfer to the zero address\") */\n      tag_241\n      jumpi\n      mload(0x40)\n      0x08c379a000000000000000000000000000000000000000000000000000000000\n      dup2\n      mstore\n      0x04\n      add\n      tag_242\n      swap1\n      tag_243\n      jump\t// in\n    tag_242:\n      mload(0x40)\n      dup1\n      swap2\n      sub\n      swap1\n      revert\n    tag_241:\n        /* \"bomtokenerc20_flat.sol\":18695:18733  _beforeTokenTransfer(from, to, amount) */\n      tag_244\n        /* \"bomtokenerc20_flat.sol\":18716:18720  from */\n      dup4\n        /* \"bomtokenerc20_flat.sol\":18722:18724  to */\n      dup4\n        /* \"bomtokenerc20_flat.sol\":18726:18732  amount */\n      dup4\n        /* \"bomtokenerc20_flat.sol\":18695:18715  _beforeTokenTransfer */\n      tag_245\n        /* \"bomtokenerc20_flat.sol\":18695:18733  _beforeTokenTransfer(from, to, amount) */\n      jump\t// in\n    tag_244:\n        /* \"bomtokenerc20_flat.sol\":18744:18763  uint256 fromBalance */\n      0x00\n        /* \"bomtokenerc20_flat.sol\":18766:18775  _balances */\n      dup1\n        /* \"bomtokenerc20_flat.sol\":18766:18781  _balances[from] */\n      0x00\n        /* \"bomtokenerc20_flat.sol\":18776:18780  from */\n      dup6\n        /* \"bomtokenerc20_flat.sol\":18766:18781  _balances[from] */\n      0xffffffffffffffffffffffffffffffffffffffff\n      and\n      0xffffffffffffffffffffffffffffffffffffffff\n      and\n      dup2\n      mstore\n      0x20\n      add\n      swap1\n      dup2\n      mstore\n      0x20\n      add\n      0x00\n      keccak256\n      sload\n        /* \"bomtokenerc20_flat.sol\":18744:18781  uint256 fromBalance = _balances[from] */\n      swap1\n      pop\n        /* \"bomtokenerc20_flat.sol\":18814:18820  amount */\n      dup2\n        /* \"bomtokenerc20_flat.sol\":18799:18810  fromBalance */\n      dup2\n        /* \"bomtokenerc20_flat.sol\":18799:18820  fromBalance >= amount */\n      lt\n      iszero\n        /* \"bomtokenerc20_flat.sol\":18791:18863  require(fromBalance >= amount, \"ERC20: transfer amount exceeds balance\") */\n      tag_246\n      jumpi\n      mload(0x40)\n      0x08c379a000000000000000000000000000000000000000000000000000000000\n      dup2\n      mstore\n      0x04\n      add\n      tag_247\n      swap1\n      tag_248\n      jump\t// in\n    tag_247:\n      mload(0x40)\n      dup1\n      swap2\n      sub\n      swap1\n      revert\n    tag_246:\n        /* \"bomtokenerc20_flat.sol\":18929:18935  amount */\n      dup2\n        /* \"bomtokenerc20_flat.sol\":18915:18926  fromBalance */\n      dup2\n        /* \"bomtokenerc20_flat.sol\":18915:18935  fromBalance - amount */\n      sub\n        /* \"bomtokenerc20_flat.sol\":18897:18906  _balances */\n      0x00\n        /* \"bomtokenerc20_flat.sol\":18897:18912  _balances[from] */\n      dup1\n        /* \"bomtokenerc20_flat.sol\":18907:18911  from */\n      dup7\n        /* \"bomtokenerc20_flat.sol\":18897:18912  _balances[from] */\n      0xffffffffffffffffffffffffffffffffffffffff\n      and\n      0xffffffffffffffffffffffffffffffffffffffff\n      and\n      dup2\n      mstore\n      0x20\n      add\n      swap1\n      dup2\n      mstore\n      0x20\n      add\n      0x00\n      keccak256\n        /* \"bomtokenerc20_flat.sol\":18897:18935  _balances[from] = fromBalance - amount */\n      dup2\n      swap1\n      sstore\n      pop\n        /* \"bomtokenerc20_flat.sol\":18972:18978  amount */\n      dup2\n        /* \"bomtokenerc20_flat.sol\":18955:18964  _balances */\n      0x00\n        /* \"bomtokenerc20_flat.sol\":18955:18968  _balances[to] */\n      dup1\n        /* \"bomtokenerc20_flat.sol\":18965:18967  to */\n      dup6\n        /* \"bomtokenerc20_flat.sol\":18955:18968  _balances[to] */\n      0xffffffffffffffffffffffffffffffffffffffff\n      and\n      0xffffffffffffffffffffffffffffffffffffffff\n      and\n      dup2\n      mstore\n      0x20\n      add\n      swap1\n      dup2\n      mstore\n      0x20\n      add\n      0x00\n      keccak256\n      0x00\n        /* \"bomtokenerc20_flat.sol\":18955:18978  _balances[to] += amount */\n      dup3\n      dup3\n      sload\n      tag_249\n      swap2\n      swap1\n      tag_131\n      jump\t// in\n    tag_249:\n      swap3\n      pop\n      pop\n      dup2\n      swap1\n      sstore\n      pop\n        /* \"bomtokenerc20_flat.sol\":19009:19011  to */\n      dup3\n        /* \"bomtokenerc20_flat.sol\":18994:19020  Transfer(from, to, amount) */\n      0xffffffffffffffffffffffffffffffffffffffff\n      and\n        /* \"bomtokenerc20_flat.sol\":19003:19007  from */\n      dup5\n        /* \"bomtokenerc20_flat.sol\":18994:19020  Transfer(from, to, amount) */\n      0xffffffffffffffffffffffffffffffffffffffff\n      and\n      0xddf252ad1be2c89b69c2b068fc378daa952ba7f163c4a11628f55a4df523b3ef\n        /* \"bomtokenerc20_flat.sol\":19013:19019  amount */\n      dup5\n        /* \"bomtokenerc20_flat.sol\":18994:19020  Transfer(from, to, amount) */\n      mload(0x40)\n      tag_250\n      swap2\n      swap1\n      tag_39\n      jump\t// in\n    tag_250:\n      mload(0x40)\n      dup1\n      swap2\n      sub\n      swap1\n      log3\n        /* \"bomtokenerc20_flat.sol\":19031:19068  _afterTokenTransfer(from, to, amount) */\n      tag_251\n        /* \"bomtokenerc20_flat.sol\":19051:19055  from */\n      dup5\n        /* \"bomtokenerc20_flat.sol\":19057:19059  to */\n      dup5\n        /* \"bomtokenerc20_flat.sol\":19061:19067  amount */\n      dup5\n        /* \"bomtokenerc20_flat.sol\":19031:19050  _afterTokenTransfer */\n      tag_252\n        /* \"bomtokenerc20_flat.sol\":19031:19068  _afterTokenTransfer(from, to, amount) */\n      jump\t// in\n    tag_251:\n        /* \"bomtokenerc20_flat.sol\":18532:19075  {... */\n      pop\n        /* \"bomtokenerc20_flat.sol\":18424:19075  function _transfer(... */\n      pop\n      pop\n      pop\n      jump\t// out\n        /* \"bomtokenerc20_flat.sol\":19351:19740  function _mint(address account, uint256 amount) internal virtual {... */\n    tag_140:\n        /* \"bomtokenerc20_flat.sol\":19453:19454  0 */\n      0x00\n        /* \"bomtokenerc20_flat.sol\":19434:19455  account != address(0) */\n      0xffffffffffffffffffffffffffffffffffffffff\n      and\n        /* \"bomtokenerc20_flat.sol\":19434:19441  account */\n      dup3\n        /* \"bomtokenerc20_flat.sol\":19434:19455  account != address(0) */\n      0xffffffffffffffffffffffffffffffffffffffff\n      and\n      eq\n      iszero\n        /* \"bomtokenerc20_flat.sol\":19426:19491  require(account != address(0), \"ERC20: mint to the zero address\") */\n      tag_254\n      jumpi\n      mload(0x40)\n      0x08c379a000000000000000000000000000000000000000000000000000000000\n      dup2\n      mstore\n      0x04\n      add\n      tag_255\n      swap1\n      tag_256\n      jump\t// in\n    tag_255:\n      mload(0x40)\n      dup1\n      swap2\n      sub\n      swap1\n      revert\n    tag_254:\n        /* \"bomtokenerc20_flat.sol\":19502:19551  _beforeTokenTransfer(address(0), account, amount) */\n      tag_257\n        /* \"bomtokenerc20_flat.sol\":19531:19532  0 */\n      0x00\n        /* \"bomtokenerc20_flat.sol\":19535:19542  account */\n      dup4\n        /* \"bomtokenerc20_flat.sol\":19544:19550  amount */\n      dup4\n        /* \"bomtokenerc20_flat.sol\":19502:19522  _beforeTokenTransfer */\n      tag_245\n        /* \"bomtokenerc20_flat.sol\":19502:19551  _beforeTokenTransfer(address(0), account, amount) */\n      jump\t// in\n    tag_257:\n        /* \"bomtokenerc20_flat.sol\":19578:19584  amount */\n      dup1\n        /* \"bomtokenerc20_flat.sol\":19562:19574  _totalSupply */\n      0x02\n      0x00\n        /* \"bomtokenerc20_flat.sol\":19562:19584  _totalSupply += amount */\n      dup3\n      dup3\n      sload\n      tag_258\n      swap2\n      swap1\n      tag_131\n      jump\t// in\n    tag_258:\n      swap3\n      pop\n      pop\n      dup2\n      swap1\n      sstore\n      pop\n        /* \"bomtokenerc20_flat.sol\":19616:19622  amount */\n      dup1\n        /* \"bomtokenerc20_flat.sol\":19594:19603  _balances */\n      0x00\n        /* \"bomtokenerc20_flat.sol\":19594:19612  _balances[account] */\n      dup1\n        /* \"bomtokenerc20_flat.sol\":19604:19611  account */\n      dup5\n        /* \"bomtokenerc20_flat.sol\":19594:19612  _balances[account] */\n      0xffffffffffffffffffffffffffffffffffffffff\n      and\n      0xffffffffffffffffffffffffffffffffffffffff\n      and\n      dup2\n      mstore\n      0x20\n      add\n      swap1\n      dup2\n      mstore\n      0x20\n      add\n      0x00\n      keccak256\n      0x00\n        /* \"bomtokenerc20_flat.sol\":19594:19622  _balances[account] += amount */\n      dup3\n      dup3\n      sload\n      tag_259\n      swap2\n      swap1\n      tag_131\n      jump\t// in\n    tag_259:\n      swap3\n      pop\n      pop\n      dup2\n      swap1\n      sstore\n      pop\n        /* \"bomtokenerc20_flat.sol\":19658:19665  account */\n      dup2\n        /* \"bomtokenerc20_flat.sol\":19637:19674  Transfer(address(0), account, amount) */\n      0xffffffffffffffffffffffffffffffffffffffff\n      and\n        /* \"bomtokenerc20_flat.sol\":19654:19655  0 */\n      0x00\n        /* \"bomtokenerc20_flat.sol\":19637:19674  Transfer(address(0), account, amount) */\n      0xffffffffffffffffffffffffffffffffffffffff\n      and\n      0xddf252ad1be2c89b69c2b068fc378daa952ba7f163c4a11628f55a4df523b3ef\n        /* \"bomtokenerc20_flat.sol\":19667:19673  amount */\n      dup4\n        /* \"bomtokenerc20_flat.sol\":19637:19674  Transfer(address(0), account, amount) */\n      mload(0x40)\n      tag_260\n      swap2\n      swap1\n      tag_39\n      jump\t// in\n    tag_260:\n      mload(0x40)\n      dup1\n      swap2\n      sub\n      swap1\n      log3\n        /* \"bomtokenerc20_flat.sol\":19685:19733  _afterTokenTransfer(address(0), account, amount) */\n      tag_261\n        /* \"bomtokenerc20_flat.sol\":19713:19714  0 */\n      0x00\n        /* \"bomtokenerc20_flat.sol\":19717:19724  account */\n      dup4\n        /* \"bomtokenerc20_flat.sol\":19726:19732  amount */\n      dup4\n        /* \"bomtokenerc20_flat.sol\":19685:19704  _afterTokenTransfer */\n      tag_252\n        /* \"bomtokenerc20_flat.sol\":19685:19733  _afterTokenTransfer(address(0), account, amount) */\n      jump\t// in\n    tag_261:\n        /* \"bomtokenerc20_flat.sol\":19351:19740  function _mint(address account, uint256 amount) internal virtual {... */\n      pop\n      pop\n      jump\t// out\n        /* \"bomtokenerc20_flat.sol\":20060:20636  function _burn(address account, uint256 amount) internal virtual {... */\n    tag_144:\n        /* \"bomtokenerc20_flat.sol\":20162:20163  0 */\n      0x00\n        /* \"bomtokenerc20_flat.sol\":20143:20164  account != address(0) */\n      0xffffffffffffffffffffffffffffffffffffffff\n      and\n        /* \"bomtokenerc20_flat.sol\":20143:20150  account */\n      dup3\n        /* \"bomtokenerc20_flat.sol\":20143:20164  account != address(0) */\n      0xffffffffffffffffffffffffffffffffffffffff\n      and\n      eq\n      iszero\n        /* \"bomtokenerc20_flat.sol\":20135:20202  require(account != address(0), \"ERC20: burn from the zero address\") */\n      tag_263\n      jumpi\n      mload(0x40)\n      0x08c379a000000000000000000000000000000000000000000000000000000000\n      dup2\n      mstore\n      0x04\n      add\n      tag_264\n      swap1\n      tag_265\n      jump\t// in\n    tag_264:\n      mload(0x40)\n      dup1\n      swap2\n      sub\n      swap1\n      revert\n    tag_263:\n        /* \"bomtokenerc20_flat.sol\":20213:20262  _beforeTokenTransfer(account, address(0), amount) */\n      tag_266\n        /* \"bomtokenerc20_flat.sol\":20234:20241  account */\n      dup3\n        /* \"bomtokenerc20_flat.sol\":20251:20252  0 */\n      0x00\n        /* \"bomtokenerc20_flat.sol\":20255:20261  amount */\n      dup4\n        /* \"bomtokenerc20_flat.sol\":20213:20233  _beforeTokenTransfer */\n      tag_245\n        /* \"bomtokenerc20_flat.sol\":20213:20262  _beforeTokenTransfer(account, address(0), amount) */\n      jump\t// in\n    tag_266:\n        /* \"bomtokenerc20_flat.sol\":20273:20295  uint256 accountBalance */\n      0x00\n        /* \"bomtokenerc20_flat.sol\":20298:20307  _balances */\n      dup1\n        /* \"bomtokenerc20_flat.sol\":20298:20316  _balances[account] */\n      0x00\n        /* \"bomtokenerc20_flat.sol\":20308:20315  account */\n      dup5\n        /* \"bomtokenerc20_flat.sol\":20298:20316  _balances[account] */\n      0xffffffffffffffffffffffffffffffffffffffff\n      and\n      0xffffffffffffffffffffffffffffffffffffffff\n      and\n      dup2\n      mstore\n      0x20\n      add\n      swap1\n      dup2\n      mstore\n      0x20\n      add\n      0x00\n      keccak256\n      sload\n        /* \"bomtokenerc20_flat.sol\":20273:20316  uint256 accountBalance = _balances[account] */\n      swap1\n      pop\n        /* \"bomtokenerc20_flat.sol\":20352:20358  amount */\n      dup2\n        /* \"bomtokenerc20_flat.sol\":20334:20348  accountBalance */\n      dup2\n        /* \"bomtokenerc20_flat.sol\":20334:20358  accountBalance >= amount */\n      lt\n      iszero\n        /* \"bomtokenerc20_flat.sol\":20326:20397  require(accountBalance >= amount, \"ERC20: burn amount exceeds balance\") */\n      tag_267\n      jumpi\n      mload(0x40)\n      0x08c379a000000000000000000000000000000000000000000000000000000000\n      dup2\n      mstore\n      0x04\n      add\n      tag_268\n      swap1\n      tag_269\n      jump\t// in\n    tag_268:\n      mload(0x40)\n      dup1\n      swap2\n      sub\n      swap1\n      revert\n    tag_267:\n        /* \"bomtokenerc20_flat.sol\":20469:20475  amount */\n      dup2\n        /* \"bomtokenerc20_flat.sol\":20452:20466  accountBalance */\n      dup2\n        /* \"bomtokenerc20_flat.sol\":20452:20475  accountBalance - amount */\n      sub\n        /* \"bomtokenerc20_flat.sol\":20431:20440  _balances */\n      0x00\n        /* \"bomtokenerc20_flat.sol\":20431:20449  _balances[account] */\n      dup1\n        /* \"bomtokenerc20_flat.sol\":20441:20448  account */\n      dup6\n        /* \"bomtokenerc20_flat.sol\":20431:20449  _balances[account] */\n      0xffffffffffffffffffffffffffffffffffffffff\n      and\n      0xffffffffffffffffffffffffffffffffffffffff\n      and\n      dup2\n      mstore\n      0x20\n      add\n      swap1\n      dup2\n      mstore\n      0x20\n      add\n      0x00\n      keccak256\n        /* \"bomtokenerc20_flat.sol\":20431:20475  _balances[account] = accountBalance - amount */\n      dup2\n      swap1\n      sstore\n      pop\n        /* \"bomtokenerc20_flat.sol\":20511:20517  amount */\n      dup2\n        /* \"bomtokenerc20_flat.sol\":20495:20507  _totalSupply */\n      0x02\n      0x00\n        /* \"bomtokenerc20_flat.sol\":20495:20517  _totalSupply -= amount */\n      dup3\n      dup3\n      sload\n      tag_270\n      swap2\n      swap1\n      tag_271\n      jump\t// in\n    tag_270:\n      swap3\n      pop\n      pop\n      dup2\n      swap1\n      sstore\n      pop\n        /* \"bomtokenerc20_flat.sol\":20559:20560  0 */\n      0x00\n        /* \"bomtokenerc20_flat.sol\":20533:20570  Transfer(account, address(0), amount) */\n      0xffffffffffffffffffffffffffffffffffffffff\n      and\n        /* \"bomtokenerc20_flat.sol\":20542:20549  account */\n      dup4\n        /* \"bomtokenerc20_flat.sol\":20533:20570  Transfer(account, address(0), amount) */\n      0xffffffffffffffffffffffffffffffffffffffff\n      and\n      0xddf252ad1be2c89b69c2b068fc378daa952ba7f163c4a11628f55a4df523b3ef\n        /* \"bomtokenerc20_flat.sol\":20563:20569  amount */\n      dup5\n        /* \"bomtokenerc20_flat.sol\":20533:20570  Transfer(account, address(0), amount) */\n      mload(0x40)\n      tag_272\n      swap2\n      swap1\n      tag_39\n      jump\t// in\n    tag_272:\n      mload(0x40)\n      dup1\n      swap2\n      sub\n      swap1\n      log3\n        /* \"bomtokenerc20_flat.sol\":20581:20629  _afterTokenTransfer(account, address(0), amount) */\n      tag_273\n        /* \"bomtokenerc20_flat.sol\":20601:20608  account */\n      dup4\n        /* \"bomtokenerc20_flat.sol\":20618:20619  0 */\n      0x00\n        /* \"bomtokenerc20_flat.sol\":20622:20628  amount */\n      dup5\n        /* \"bomtokenerc20_flat.sol\":20581:20600  _afterTokenTransfer */\n      tag_252\n        /* \"bomtokenerc20_flat.sol\":20581:20629  _afterTokenTransfer(account, address(0), amount) */\n      jump\t// in\n    tag_273:\n        /* \"bomtokenerc20_flat.sol\":20125:20636  {... */\n      pop\n        /* \"bomtokenerc20_flat.sol\":20060:20636  function _burn(address account, uint256 amount) internal virtual {... */\n      pop\n      pop\n      jump\t// out\n        /* \"bomtokenerc20_flat.sol\":29927:31521  function _valueAt(uint256 snapshotId, Snapshots storage snapshots) private view returns (bool, uint256) {... */\n    tag_147:\n        /* \"bomtokenerc20_flat.sol\":30016:30020  bool */\n      0x00\n        /* \"bomtokenerc20_flat.sol\":30022:30029  uint256 */\n      dup1\n        /* \"bomtokenerc20_flat.sol\":30062:30063  0 */\n      0x00\n        /* \"bomtokenerc20_flat.sol\":30049:30059  snapshotId */\n      dup5\n        /* \"bomtokenerc20_flat.sol\":30049:30063  snapshotId > 0 */\n      gt\n        /* \"bomtokenerc20_flat.sol\":30041:30090  require(snapshotId > 0, \"ERC20Snapshot: id is 0\") */\n      tag_275\n      jumpi\n      mload(0x40)\n      0x08c379a000000000000000000000000000000000000000000000000000000000\n      dup2\n      mstore\n      0x04\n      add\n      tag_276\n      swap1\n      tag_277\n      jump\t// in\n    tag_276:\n      mload(0x40)\n      dup1\n      swap2\n      sub\n      swap1\n      revert\n    tag_275:\n        /* \"bomtokenerc20_flat.sol\":30122:30145  _getCurrentSnapshotId() */\n      tag_278\n        /* \"bomtokenerc20_flat.sol\":30122:30143  _getCurrentSnapshotId */\n      tag_279\n        /* \"bomtokenerc20_flat.sol\":30122:30145  _getCurrentSnapshotId() */\n      jump\t// in\n    tag_278:\n        /* \"bomtokenerc20_flat.sol\":30108:30118  snapshotId */\n      dup5\n        /* \"bomtokenerc20_flat.sol\":30108:30145  snapshotId <= _getCurrentSnapshotId() */\n      gt\n      iszero\n        /* \"bomtokenerc20_flat.sol\":30100:30179  require(snapshotId <= _getCurrentSnapshotId(), \"ERC20Snapshot: nonexistent id\") */\n      tag_280\n      jumpi\n      mload(0x40)\n      0x08c379a000000000000000000000000000000000000000000000000000000000\n      dup2\n      mstore\n      0x04\n      add\n      tag_281\n      swap1\n      tag_282\n      jump\t// in\n    tag_281:\n      mload(0x40)\n      dup1\n      swap2\n      sub\n      swap1\n      revert\n    tag_280:\n        /* \"bomtokenerc20_flat.sol\":31302:31315  uint256 index */\n      0x00\n        /* \"bomtokenerc20_flat.sol\":31318:31358  snapshots.ids.findUpperBound(snapshotId) */\n      tag_283\n        /* \"bomtokenerc20_flat.sol\":31347:31357  snapshotId */\n      dup6\n        /* \"bomtokenerc20_flat.sol\":31318:31327  snapshots */\n      dup6\n        /* \"bomtokenerc20_flat.sol\":31318:31331  snapshots.ids */\n      0x00\n      add\n        /* \"bomtokenerc20_flat.sol\":31318:31346  snapshots.ids.findUpperBound */\n      tag_284\n      swap1\n        /* \"bomtokenerc20_flat.sol\":31318:31358  snapshots.ids.findUpperBound(snapshotId) */\n      swap2\n      swap1\n      0xffffffff\n      and\n      jump\t// in\n    tag_283:\n        /* \"bomtokenerc20_flat.sol\":31302:31358  uint256 index = snapshots.ids.findUpperBound(snapshotId) */\n      swap1\n      pop\n        /* \"bomtokenerc20_flat.sol\":31382:31391  snapshots */\n      dup4\n        /* \"bomtokenerc20_flat.sol\":31382:31395  snapshots.ids */\n      0x00\n      add\n        /* \"bomtokenerc20_flat.sol\":31382:31402  snapshots.ids.length */\n      dup1\n      sload\n      swap1\n      pop\n        /* \"bomtokenerc20_flat.sol\":31373:31378  index */\n      dup2\n        /* \"bomtokenerc20_flat.sol\":31373:31402  index == snapshots.ids.length */\n      eq\n        /* \"bomtokenerc20_flat.sol\":31369:31515  if (index == snapshots.ids.length) {... */\n      iszero\n      tag_285\n      jumpi\n        /* \"bomtokenerc20_flat.sol\":31426:31431  false */\n      0x00\n        /* \"bomtokenerc20_flat.sol\":31433:31434  0 */\n      dup1\n        /* \"bomtokenerc20_flat.sol\":31418:31435  return (false, 0) */\n      swap3\n      pop\n      swap3\n      pop\n      pop\n      jump(tag_274)\n        /* \"bomtokenerc20_flat.sol\":31369:31515  if (index == snapshots.ids.length) {... */\n    tag_285:\n        /* \"bomtokenerc20_flat.sol\":31474:31478  true */\n      0x01\n        /* \"bomtokenerc20_flat.sol\":31480:31489  snapshots */\n      dup5\n        /* \"bomtokenerc20_flat.sol\":31480:31496  snapshots.values */\n      0x01\n      add\n        /* \"bomtokenerc20_flat.sol\":31497:31502  index */\n      dup3\n        /* \"bomtokenerc20_flat.sol\":31480:31503  snapshots.values[index] */\n      dup2\n      sload\n      dup2\n      lt\n      tag_287\n      jumpi\n      tag_288\n      tag_289\n      jump\t// in\n    tag_288:\n    tag_287:\n      swap1\n      0x00\n      mstore\n      keccak256(0x00, 0x20)\n      add\n      sload\n        /* \"bomtokenerc20_flat.sol\":31466:31504  return (true, snapshots.values[index]) */\n      swap3\n      pop\n      swap3\n      pop\n      pop\n        /* \"bomtokenerc20_flat.sol\":29927:31521  function _valueAt(uint256 snapshotId, Snapshots storage snapshots) private view returns (bool, uint256) {... */\n    tag_274:\n      swap3\n      pop\n      swap3\n      swap1\n      pop\n      jump\t// out\n        /* \"bomtokenerc20_flat.sol\":7322:7509  function _transferOwnership(address newOwner) internal virtual {... */\n    tag_159:\n        /* \"bomtokenerc20_flat.sol\":7395:7411  address oldOwner */\n      0x00\n        /* \"bomtokenerc20_flat.sol\":7414:7420  _owner */\n      0x09\n      0x00\n      swap1\n      sload\n      swap1\n      0x0100\n      exp\n      swap1\n      div\n      0xffffffffffffffffffffffffffffffffffffffff\n      and\n        /* \"bomtokenerc20_flat.sol\":7395:7420  address oldOwner = _owner */\n      swap1\n      pop\n        /* \"bomtokenerc20_flat.sol\":7439:7447  newOwner */\n      dup2\n        /* \"bomtokenerc20_flat.sol\":7430:7436  _owner */\n      0x09\n      0x00\n        /* \"bomtokenerc20_flat.sol\":7430:7447  _owner = newOwner */\n      0x0100\n      exp\n      dup2\n      sload\n      dup2\n      0xffffffffffffffffffffffffffffffffffffffff\n      mul\n      not\n      and\n      swap1\n      dup4\n      0xffffffffffffffffffffffffffffffffffffffff\n      and\n      mul\n      or\n      swap1\n      sstore\n      pop\n        /* \"bomtokenerc20_flat.sol\":7493:7501  newOwner */\n      dup2\n        /* \"bomtokenerc20_flat.sol\":7462:7502  OwnershipTransferred(oldOwner, newOwner) */\n      0xffffffffffffffffffffffffffffffffffffffff\n      and\n        /* \"bomtokenerc20_flat.sol\":7483:7491  oldOwner */\n      dup2\n        /* \"bomtokenerc20_flat.sol\":7462:7502  OwnershipTransferred(oldOwner, newOwner) */\n      0xffffffffffffffffffffffffffffffffffffffff\n      and\n      0x8be0079c531659141344cd1fd0a4f28419497f9722a3daafe3b4186f6b6457e0\n      mload(0x40)\n      mload(0x40)\n      dup1\n      swap2\n      sub\n      swap1\n      log3\n        /* \"bomtokenerc20_flat.sol\":7385:7509  {... */\n      pop\n        /* \"bomtokenerc20_flat.sol\":7322:7509  function _transferOwnership(address newOwner) internal virtual {... */\n      pop\n      jump\t// out\n        /* \"bomtokenerc20_flat.sol\":28005:28222  function _snapshot() internal virtual returns (uint256) {... */\n    tag_178:\n        /* \"bomtokenerc20_flat.sol\":28052:28059  uint256 */\n      0x00\n        /* \"bomtokenerc20_flat.sol\":28071:28101  _currentSnapshotId.increment() */\n      tag_293\n        /* \"bomtokenerc20_flat.sol\":28071:28089  _currentSnapshotId */\n      0x08\n        /* \"bomtokenerc20_flat.sol\":28071:28099  _currentSnapshotId.increment */\n      tag_294\n        /* \"bomtokenerc20_flat.sol\":28071:28101  _currentSnapshotId.increment() */\n      jump\t// in\n    tag_293:\n        /* \"bomtokenerc20_flat.sol\":28112:28129  uint256 currentId */\n      0x00\n        /* \"bomtokenerc20_flat.sol\":28132:28155  _getCurrentSnapshotId() */\n      tag_295\n        /* \"bomtokenerc20_flat.sol\":28132:28153  _getCurrentSnapshotId */\n      tag_279\n        /* \"bomtokenerc20_flat.sol\":28132:28155  _getCurrentSnapshotId() */\n      jump\t// in\n    tag_295:\n        /* \"bomtokenerc20_flat.sol\":28112:28155  uint256 currentId = _getCurrentSnapshotId() */\n      swap1\n      pop\n        /* \"bomtokenerc20_flat.sol\":28170:28189  Snapshot(currentId) */\n      0x8030e83b04d87bef53480e26263266d6ca66863aa8506aca6f2559d18aa1cb67\n        /* \"bomtokenerc20_flat.sol\":28179:28188  currentId */\n      dup2\n        /* \"bomtokenerc20_flat.sol\":28170:28189  Snapshot(currentId) */\n      mload(0x40)\n      tag_296\n      swap2\n      swap1\n      tag_39\n      jump\t// in\n    tag_296:\n      mload(0x40)\n      dup1\n      swap2\n      sub\n      swap1\n      log1\n        /* \"bomtokenerc20_flat.sol\":28206:28215  currentId */\n      dup1\n        /* \"bomtokenerc20_flat.sol\":28199:28215  return currentId */\n      swap2\n      pop\n      pop\n        /* \"bomtokenerc20_flat.sol\":28005:28222  function _snapshot() internal virtual returns (uint256) {... */\n      swap1\n      jump\t// out\n        /* \"bomtokenerc20_flat.sol\":31527:31671  function _updateAccountSnapshot(address account) private {... */\n    tag_209:\n        /* \"bomtokenerc20_flat.sol\":31594:31664  _updateSnapshot(_accountBalanceSnapshots[account], balanceOf(account)) */\n      tag_298\n        /* \"bomtokenerc20_flat.sol\":31610:31634  _accountBalanceSnapshots */\n      0x05\n        /* \"bomtokenerc20_flat.sol\":31610:31643  _accountBalanceSnapshots[account] */\n      0x00\n        /* \"bomtokenerc20_flat.sol\":31635:31642  account */\n      dup4\n        /* \"bomtokenerc20_flat.sol\":31610:31643  _accountBalanceSnapshots[account] */\n      0xffffffffffffffffffffffffffffffffffffffff\n      and\n      0xffffffffffffffffffffffffffffffffffffffff\n      and\n      dup2\n      mstore\n      0x20\n      add\n      swap1\n      dup2\n      mstore\n      0x20\n      add\n      0x00\n      keccak256\n        /* \"bomtokenerc20_flat.sol\":31645:31663  balanceOf(account) */\n      tag_299\n        /* \"bomtokenerc20_flat.sol\":31655:31662  account */\n      dup4\n        /* \"bomtokenerc20_flat.sol\":31645:31654  balanceOf */\n      tag_67\n        /* \"bomtokenerc20_flat.sol\":31645:31663  balanceOf(account) */\n      jump\t// in\n    tag_299:\n        /* \"bomtokenerc20_flat.sol\":31594:31609  _updateSnapshot */\n      tag_300\n        /* \"bomtokenerc20_flat.sol\":31594:31664  _updateSnapshot(_accountBalanceSnapshots[account], balanceOf(account)) */\n      jump\t// in\n    tag_298:\n        /* \"bomtokenerc20_flat.sol\":31527:31671  function _updateAccountSnapshot(address account) private {... */\n      pop\n      jump\t// out\n        /* \"bomtokenerc20_flat.sol\":31677:31793  function _updateTotalSupplySnapshot() private {... */\n    tag_211:\n        /* \"bomtokenerc20_flat.sol\":31733:31786  _updateSnapshot(_totalSupplySnapshots, totalSupply()) */\n      tag_302\n        /* \"bomtokenerc20_flat.sol\":31749:31770  _totalSupplySnapshots */\n      0x06\n        /* \"bomtokenerc20_flat.sol\":31772:31785  totalSupply() */\n      tag_303\n        /* \"bomtokenerc20_flat.sol\":31772:31783  totalSupply */\n      tag_37\n        /* \"bomtokenerc20_flat.sol\":31772:31785  totalSupply() */\n      jump\t// in\n    tag_303:\n        /* \"bomtokenerc20_flat.sol\":31733:31748  _updateSnapshot */\n      tag_300\n        /* \"bomtokenerc20_flat.sol\":31733:31786  _updateSnapshot(_totalSupplySnapshots, totalSupply()) */\n      jump\t// in\n    tag_302:\n        /* \"bomtokenerc20_flat.sol\":31677:31793  function _updateTotalSupplySnapshot() private {... */\n      jump\t// out\n        /* \"bomtokenerc20_flat.sol\":34073:34266  function _beforeTokenTransfer(address from, address to, uint256 amount)... */\n    tag_245:\n        /* \"bomtokenerc20_flat.sol\":34215:34259  super._beforeTokenTransfer(from, to, amount) */\n      tag_305\n        /* \"bomtokenerc20_flat.sol\":34242:34246  from */\n      dup4\n        /* \"bomtokenerc20_flat.sol\":34248:34250  to */\n      dup4\n        /* \"bomtokenerc20_flat.sol\":34252:34258  amount */\n      dup4\n        /* \"bomtokenerc20_flat.sol\":34215:34241  super._beforeTokenTransfer */\n      tag_103\n        /* \"bomtokenerc20_flat.sol\":34215:34259  super._beforeTokenTransfer(from, to, amount) */\n      jump\t// in\n    tag_305:\n        /* \"bomtokenerc20_flat.sol\":34073:34266  function _beforeTokenTransfer(address from, address to, uint256 amount)... */\n      pop\n      pop\n      pop\n      jump\t// out\n        /* \"bomtokenerc20_flat.sol\":23444:23564  function _afterTokenTransfer(... */\n    tag_252:\n      pop\n      pop\n      pop\n      jump\t// out\n        /* \"bomtokenerc20_flat.sol\":28283:28408  function _getCurrentSnapshotId() internal view virtual returns (uint256) {... */\n    tag_279:\n        /* \"bomtokenerc20_flat.sol\":28347:28354  uint256 */\n      0x00\n        /* \"bomtokenerc20_flat.sol\":28373:28401  _currentSnapshotId.current() */\n      tag_308\n        /* \"bomtokenerc20_flat.sol\":28373:28391  _currentSnapshotId */\n      0x08\n        /* \"bomtokenerc20_flat.sol\":28373:28399  _currentSnapshotId.current */\n      tag_105\n        /* \"bomtokenerc20_flat.sol\":28373:28401  _currentSnapshotId.current() */\n      jump\t// in\n    tag_308:\n        /* \"bomtokenerc20_flat.sol\":28366:28401  return _currentSnapshotId.current() */\n      swap1\n      pop\n        /* \"bomtokenerc20_flat.sol\":28283:28408  function _getCurrentSnapshotId() internal view virtual returns (uint256) {... */\n      swap1\n      jump\t// out\n        /* \"bomtokenerc20_flat.sol\":3299:4191  function findUpperBound(uint256[] storage array, uint256 element) internal view returns (uint256) {... */\n    tag_284:\n        /* \"bomtokenerc20_flat.sol\":3388:3395  uint256 */\n      0x00\n        /* \"bomtokenerc20_flat.sol\":3427:3428  0 */\n      dup1\n        /* \"bomtokenerc20_flat.sol\":3411:3416  array */\n      dup4\n        /* \"bomtokenerc20_flat.sol\":3411:3423  array.length */\n      dup1\n      sload\n      swap1\n      pop\n        /* \"bomtokenerc20_flat.sol\":3411:3428  array.length == 0 */\n      eq\n        /* \"bomtokenerc20_flat.sol\":3407:3463  if (array.length == 0) {... */\n      iszero\n      tag_310\n      jumpi\n        /* \"bomtokenerc20_flat.sol\":3451:3452  0 */\n      0x00\n        /* \"bomtokenerc20_flat.sol\":3444:3452  return 0 */\n      swap1\n      pop\n      jump(tag_309)\n        /* \"bomtokenerc20_flat.sol\":3407:3463  if (array.length == 0) {... */\n    tag_310:\n        /* \"bomtokenerc20_flat.sol\":3473:3484  uint256 low */\n      0x00\n        /* \"bomtokenerc20_flat.sol\":3498:3510  uint256 high */\n      dup1\n        /* \"bomtokenerc20_flat.sol\":3513:3518  array */\n      dup5\n        /* \"bomtokenerc20_flat.sol\":3513:3525  array.length */\n      dup1\n      sload\n      swap1\n      pop\n        /* \"bomtokenerc20_flat.sol\":3498:3525  uint256 high = array.length */\n      swap1\n      pop\n        /* \"bomtokenerc20_flat.sol\":3536:3950  while (low < high) {... */\n    tag_311:\n        /* \"bomtokenerc20_flat.sol\":3549:3553  high */\n      dup1\n        /* \"bomtokenerc20_flat.sol\":3543:3546  low */\n      dup3\n        /* \"bomtokenerc20_flat.sol\":3543:3553  low < high */\n      lt\n        /* \"bomtokenerc20_flat.sol\":3536:3950  while (low < high) {... */\n      iszero\n      tag_312\n      jumpi\n        /* \"bomtokenerc20_flat.sol\":3569:3580  uint256 mid */\n      0x00\n        /* \"bomtokenerc20_flat.sol\":3583:3606  Math.average(low, high) */\n      tag_313\n        /* \"bomtokenerc20_flat.sol\":3596:3599  low */\n      dup4\n        /* \"bomtokenerc20_flat.sol\":3601:3605  high */\n      dup4\n        /* \"bomtokenerc20_flat.sol\":3583:3595  Math.average */\n      tag_314\n        /* \"bomtokenerc20_flat.sol\":3583:3606  Math.average(low, high) */\n      jump\t// in\n    tag_313:\n        /* \"bomtokenerc20_flat.sol\":3569:3606  uint256 mid = Math.average(low, high) */\n      swap1\n      pop\n        /* \"bomtokenerc20_flat.sol\":3836:3843  element */\n      dup5\n        /* \"bomtokenerc20_flat.sol\":3823:3828  array */\n      dup7\n        /* \"bomtokenerc20_flat.sol\":3829:3832  mid */\n      dup3\n        /* \"bomtokenerc20_flat.sol\":3823:3833  array[mid] */\n      dup2\n      sload\n      dup2\n      lt\n      tag_315\n      jumpi\n      tag_316\n      tag_289\n      jump\t// in\n    tag_316:\n    tag_315:\n      swap1\n      0x00\n      mstore\n      keccak256(0x00, 0x20)\n      add\n      sload\n        /* \"bomtokenerc20_flat.sol\":3823:3843  array[mid] > element */\n      gt\n        /* \"bomtokenerc20_flat.sol\":3819:3940  if (array[mid] > element) {... */\n      iszero\n      tag_318\n      jumpi\n        /* \"bomtokenerc20_flat.sol\":3870:3873  mid */\n      dup1\n        /* \"bomtokenerc20_flat.sol\":3863:3873  high = mid */\n      swap2\n      pop\n        /* \"bomtokenerc20_flat.sol\":3819:3940  if (array[mid] > element) {... */\n      jump(tag_319)\n    tag_318:\n        /* \"bomtokenerc20_flat.sol\":3924:3925  1 */\n      0x01\n        /* \"bomtokenerc20_flat.sol\":3918:3921  mid */\n      dup2\n        /* \"bomtokenerc20_flat.sol\":3918:3925  mid + 1 */\n      tag_320\n      swap2\n      swap1\n      tag_131\n      jump\t// in\n    tag_320:\n        /* \"bomtokenerc20_flat.sol\":3912:3925  low = mid + 1 */\n      swap3\n      pop\n        /* \"bomtokenerc20_flat.sol\":3819:3940  if (array[mid] > element) {... */\n    tag_319:\n        /* \"bomtokenerc20_flat.sol\":3555:3950  {... */\n      pop\n        /* \"bomtokenerc20_flat.sol\":3536:3950  while (low < high) {... */\n      jump(tag_311)\n    tag_312:\n        /* \"bomtokenerc20_flat.sol\":4073:4074  0 */\n      0x00\n        /* \"bomtokenerc20_flat.sol\":4067:4070  low */\n      dup3\n        /* \"bomtokenerc20_flat.sol\":4067:4074  low > 0 */\n      gt\n        /* \"bomtokenerc20_flat.sol\":4067:4103  low > 0 && array[low - 1] == element */\n      dup1\n      iszero\n      tag_321\n      jumpi\n      pop\n        /* \"bomtokenerc20_flat.sol\":4096:4103  element */\n      dup4\n        /* \"bomtokenerc20_flat.sol\":4078:4083  array */\n      dup6\n        /* \"bomtokenerc20_flat.sol\":4090:4091  1 */\n      0x01\n        /* \"bomtokenerc20_flat.sol\":4084:4087  low */\n      dup5\n        /* \"bomtokenerc20_flat.sol\":4084:4091  low - 1 */\n      tag_322\n      swap2\n      swap1\n      tag_271\n      jump\t// in\n    tag_322:\n        /* \"bomtokenerc20_flat.sol\":4078:4092  array[low - 1] */\n      dup2\n      sload\n      dup2\n      lt\n      tag_323\n      jumpi\n      tag_324\n      tag_289\n      jump\t// in\n    tag_324:\n    tag_323:\n      swap1\n      0x00\n      mstore\n      keccak256(0x00, 0x20)\n      add\n      sload\n        /* \"bomtokenerc20_flat.sol\":4078:4103  array[low - 1] == element */\n      eq\n        /* \"bomtokenerc20_flat.sol\":4067:4103  low > 0 && array[low - 1] == element */\n    tag_321:\n        /* \"bomtokenerc20_flat.sol\":4063:4185  if (low > 0 && array[low - 1] == element) {... */\n      iszero\n      tag_326\n      jumpi\n        /* \"bomtokenerc20_flat.sol\":4132:4133  1 */\n      0x01\n        /* \"bomtokenerc20_flat.sol\":4126:4129  low */\n      dup3\n        /* \"bomtokenerc20_flat.sol\":4126:4133  low - 1 */\n      tag_327\n      swap2\n      swap1\n      tag_271\n      jump\t// in\n    tag_327:\n        /* \"bomtokenerc20_flat.sol\":4119:4133  return low - 1 */\n      swap3\n      pop\n      pop\n      pop\n      jump(tag_309)\n        /* \"bomtokenerc20_flat.sol\":4063:4185  if (low > 0 && array[low - 1] == element) {... */\n    tag_326:\n        /* \"bomtokenerc20_flat.sol\":4171:4174  low */\n      dup2\n        /* \"bomtokenerc20_flat.sol\":4164:4174  return low */\n      swap3\n      pop\n      pop\n      pop\n        /* \"bomtokenerc20_flat.sol\":3299:4191  function findUpperBound(uint256[] storage array, uint256 element) internal view returns (uint256) {... */\n    tag_309:\n      swap3\n      swap2\n      pop\n      pop\n      jump\t// out\n        /* \"bomtokenerc20_flat.sol\":968:1091  function increment(Counter storage counter) internal {... */\n    tag_294:\n        /* \"bomtokenerc20_flat.sol\":1073:1074  1 */\n      0x01\n        /* \"bomtokenerc20_flat.sol\":1055:1062  counter */\n      dup2\n        /* \"bomtokenerc20_flat.sol\":1055:1069  counter._value */\n      0x00\n      add\n      0x00\n        /* \"bomtokenerc20_flat.sol\":1055:1074  counter._value += 1 */\n      dup3\n      dup3\n      sload\n      add\n      swap3\n      pop\n      pop\n      dup2\n      swap1\n      sstore\n      pop\n        /* \"bomtokenerc20_flat.sol\":968:1091  function increment(Counter storage counter) internal {... */\n      pop\n      jump\t// out\n        /* \"bomtokenerc20_flat.sol\":31799:32103  function _updateSnapshot(Snapshots storage snapshots, uint256 currentValue) private {... */\n    tag_300:\n        /* \"bomtokenerc20_flat.sol\":31893:31910  uint256 currentId */\n      0x00\n        /* \"bomtokenerc20_flat.sol\":31913:31936  _getCurrentSnapshotId() */\n      tag_331\n        /* \"bomtokenerc20_flat.sol\":31913:31934  _getCurrentSnapshotId */\n      tag_279\n        /* \"bomtokenerc20_flat.sol\":31913:31936  _getCurrentSnapshotId() */\n      jump\t// in\n    tag_331:\n        /* \"bomtokenerc20_flat.sol\":31893:31936  uint256 currentId = _getCurrentSnapshotId() */\n      swap1\n      pop\n        /* \"bomtokenerc20_flat.sol\":31983:31992  currentId */\n      dup1\n        /* \"bomtokenerc20_flat.sol\":31950:31980  _lastSnapshotId(snapshots.ids) */\n      tag_332\n        /* \"bomtokenerc20_flat.sol\":31966:31975  snapshots */\n      dup5\n        /* \"bomtokenerc20_flat.sol\":31966:31979  snapshots.ids */\n      0x00\n      add\n        /* \"bomtokenerc20_flat.sol\":31950:31965  _lastSnapshotId */\n      tag_333\n        /* \"bomtokenerc20_flat.sol\":31950:31980  _lastSnapshotId(snapshots.ids) */\n      jump\t// in\n    tag_332:\n        /* \"bomtokenerc20_flat.sol\":31950:31992  _lastSnapshotId(snapshots.ids) < currentId */\n      lt\n        /* \"bomtokenerc20_flat.sol\":31946:32097  if (_lastSnapshotId(snapshots.ids) < currentId) {... */\n      iszero\n      tag_334\n      jumpi\n        /* \"bomtokenerc20_flat.sol\":32008:32017  snapshots */\n      dup3\n        /* \"bomtokenerc20_flat.sol\":32008:32021  snapshots.ids */\n      0x00\n      add\n        /* \"bomtokenerc20_flat.sol\":32027:32036  currentId */\n      dup2\n        /* \"bomtokenerc20_flat.sol\":32008:32037  snapshots.ids.push(currentId) */\n      swap1\n      dup1\n      0x01\n      dup2\n      sload\n      add\n      dup1\n      dup3\n      sstore\n      dup1\n      swap2\n      pop\n      pop\n      0x01\n      swap1\n      sub\n      swap1\n      0x00\n      mstore\n      keccak256(0x00, 0x20)\n      add\n      0x00\n      swap1\n      swap2\n      swap1\n      swap2\n      swap1\n      swap2\n      pop\n      sstore\n        /* \"bomtokenerc20_flat.sol\":32051:32060  snapshots */\n      dup3\n        /* \"bomtokenerc20_flat.sol\":32051:32067  snapshots.values */\n      0x01\n      add\n        /* \"bomtokenerc20_flat.sol\":32073:32085  currentValue */\n      dup3\n        /* \"bomtokenerc20_flat.sol\":32051:32086  snapshots.values.push(currentValue) */\n      swap1\n      dup1\n      0x01\n      dup2\n      sload\n      add\n      dup1\n      dup3\n      sstore\n      dup1\n      swap2\n      pop\n      pop\n      0x01\n      swap1\n      sub\n      swap1\n      0x00\n      mstore\n      keccak256(0x00, 0x20)\n      add\n      0x00\n      swap1\n      swap2\n      swap1\n      swap2\n      swap1\n      swap2\n      pop\n      sstore\n        /* \"bomtokenerc20_flat.sol\":31946:32097  if (_lastSnapshotId(snapshots.ids) < currentId) {... */\n    tag_334:\n        /* \"bomtokenerc20_flat.sol\":31883:32103  {... */\n      pop\n        /* \"bomtokenerc20_flat.sol\":31799:32103  function _updateSnapshot(Snapshots storage snapshots, uint256 currentValue) private {... */\n      pop\n      pop\n      jump\t// out\n        /* \"bomtokenerc20_flat.sol\":2121:2274  function average(uint256 a, uint256 b) internal pure returns (uint256) {... */\n    tag_314:\n        /* \"bomtokenerc20_flat.sol\":2183:2190  uint256 */\n      0x00\n        /* \"bomtokenerc20_flat.sol\":2266:2267  2 */\n      0x02\n        /* \"bomtokenerc20_flat.sol\":2261:2262  b */\n      dup3\n        /* \"bomtokenerc20_flat.sol\":2257:2258  a */\n      dup5\n        /* \"bomtokenerc20_flat.sol\":2257:2262  a ^ b */\n      xor\n        /* \"bomtokenerc20_flat.sol\":2256:2267  (a ^ b) / 2 */\n      tag_338\n      swap2\n      swap1\n      tag_339\n      jump\t// in\n    tag_338:\n        /* \"bomtokenerc20_flat.sol\":2251:2252  b */\n      dup3\n        /* \"bomtokenerc20_flat.sol\":2247:2248  a */\n      dup5\n        /* \"bomtokenerc20_flat.sol\":2247:2252  a & b */\n      and\n        /* \"bomtokenerc20_flat.sol\":2246:2267  (a & b) + (a ^ b) / 2 */\n      tag_340\n      swap2\n      swap1\n      tag_131\n      jump\t// in\n    tag_340:\n        /* \"bomtokenerc20_flat.sol\":2239:2267  return (a & b) + (a ^ b) / 2 */\n      swap1\n      pop\n        /* \"bomtokenerc20_flat.sol\":2121:2274  function average(uint256 a, uint256 b) internal pure returns (uint256) {... */\n      swap3\n      swap2\n      pop\n      pop\n      jump\t// out\n        /* \"bomtokenerc20_flat.sol\":32109:32315  function _lastSnapshotId(uint256[] storage ids) private view returns (uint256) {... */\n    tag_333:\n        /* \"bomtokenerc20_flat.sol\":32179:32186  uint256 */\n      0x00\n        /* \"bomtokenerc20_flat.sol\":32216:32217  0 */\n      dup1\n        /* \"bomtokenerc20_flat.sol\":32202:32205  ids */\n      dup3\n        /* \"bomtokenerc20_flat.sol\":32202:32212  ids.length */\n      dup1\n      sload\n      swap1\n      pop\n        /* \"bomtokenerc20_flat.sol\":32202:32217  ids.length == 0 */\n      eq\n        /* \"bomtokenerc20_flat.sol\":32198:32309  if (ids.length == 0) {... */\n      iszero\n      tag_342\n      jumpi\n        /* \"bomtokenerc20_flat.sol\":32240:32241  0 */\n      0x00\n        /* \"bomtokenerc20_flat.sol\":32233:32241  return 0 */\n      swap1\n      pop\n      jump(tag_341)\n        /* \"bomtokenerc20_flat.sol\":32198:32309  if (ids.length == 0) {... */\n    tag_342:\n        /* \"bomtokenerc20_flat.sol\":32279:32282  ids */\n      dup2\n        /* \"bomtokenerc20_flat.sol\":32296:32297  1 */\n      0x01\n        /* \"bomtokenerc20_flat.sol\":32283:32286  ids */\n      dup4\n        /* \"bomtokenerc20_flat.sol\":32283:32293  ids.length */\n      dup1\n      sload\n      swap1\n      pop\n        /* \"bomtokenerc20_flat.sol\":32283:32297  ids.length - 1 */\n      tag_344\n      swap2\n      swap1\n      tag_271\n      jump\t// in\n    tag_344:\n        /* \"bomtokenerc20_flat.sol\":32279:32298  ids[ids.length - 1] */\n      dup2\n      sload\n      dup2\n      lt\n      tag_345\n      jumpi\n      tag_346\n      tag_289\n      jump\t// in\n    tag_346:\n    tag_345:\n      swap1\n      0x00\n      mstore\n      keccak256(0x00, 0x20)\n      add\n      sload\n        /* \"bomtokenerc20_flat.sol\":32272:32298  return ids[ids.length - 1] */\n      swap1\n      pop\n        /* \"bomtokenerc20_flat.sol\":32109:32315  function _lastSnapshotId(uint256[] storage ids) private view returns (uint256) {... */\n    tag_341:\n      swap2\n      swap1\n      pop\n      jump\t// out\n        /* \"#utility.yul\":7:106   */\n    tag_348:\n        /* \"#utility.yul\":59:65   */\n      0x00\n        /* \"#utility.yul\":93:98   */\n      dup2\n        /* \"#utility.yul\":87:99   */\n      mload\n        /* \"#utility.yul\":77:99   */\n      swap1\n      pop\n        /* \"#utility.yul\":7:106   */\n      swap2\n      swap1\n      pop\n      jump\t// out\n        /* \"#utility.yul\":112:281   */\n    tag_349:\n        /* \"#utility.yul\":196:207   */\n      0x00\n        /* \"#utility.yul\":230:236   */\n      dup3\n        /* \"#utility.yul\":225:228   */\n      dup3\n        /* \"#utility.yul\":218:237   */\n      mstore\n        /* \"#utility.yul\":270:274   */\n      0x20\n        /* \"#utility.yul\":265:268   */\n      dup3\n        /* \"#utility.yul\":261:275   */\n      add\n        /* \"#utility.yul\":246:275   */\n      swap1\n      pop\n        /* \"#utility.yul\":112:281   */\n      swap3\n      swap2\n      pop\n      pop\n      jump\t// out\n        /* \"#utility.yul\":287:594   */\n    tag_350:\n        /* \"#utility.yul\":355:356   */\n      0x00\n        /* \"#utility.yul\":365:478   */\n    tag_404:\n        /* \"#utility.yul\":379:385   */\n      dup4\n        /* \"#utility.yul\":376:377   */\n      dup2\n        /* \"#utility.yul\":373:386   */\n      lt\n        /* \"#utility.yul\":365:478   */\n      iszero\n      tag_406\n      jumpi\n        /* \"#utility.yul\":464:465   */\n      dup1\n        /* \"#utility.yul\":459:462   */\n      dup3\n        /* \"#utility.yul\":455:466   */\n      add\n        /* \"#utility.yul\":449:467   */\n      mload\n        /* \"#utility.yul\":445:446   */\n      dup2\n        /* \"#utility.yul\":440:443   */\n      dup5\n        /* \"#utility.yul\":436:447   */\n      add\n        /* \"#utility.yul\":429:468   */\n      mstore\n        /* \"#utility.yul\":401:403   */\n      0x20\n        /* \"#utility.yul\":398:399   */\n      dup2\n        /* \"#utility.yul\":394:404   */\n      add\n        /* \"#utility.yul\":389:404   */\n      swap1\n      pop\n        /* \"#utility.yul\":365:478   */\n      jump(tag_404)\n    tag_406:\n        /* \"#utility.yul\":496:502   */\n      dup4\n        /* \"#utility.yul\":493:494   */\n      dup2\n        /* \"#utility.yul\":490:503   */\n      gt\n        /* \"#utility.yul\":487:588   */\n      iszero\n      tag_407\n      jumpi\n        /* \"#utility.yul\":576:577   */\n      0x00\n        /* \"#utility.yul\":567:573   */\n      dup5\n        /* \"#utility.yul\":562:565   */\n      dup5\n        /* \"#utility.yul\":558:574   */\n      add\n        /* \"#utility.yul\":551:578   */\n      mstore\n        /* \"#utility.yul\":487:588   */\n    tag_407:\n        /* \"#utility.yul\":336:594   */\n      pop\n        /* \"#utility.yul\":287:594   */\n      pop\n      pop\n      pop\n      jump\t// out\n        /* \"#utility.yul\":600:702   */\n    tag_351:\n        /* \"#utility.yul\":641:647   */\n      0x00\n        /* \"#utility.yul\":692:694   */\n      0x1f\n        /* \"#utility.yul\":688:695   */\n      not\n        /* \"#utility.yul\":683:685   */\n      0x1f\n        /* \"#utility.yul\":676:681   */\n      dup4\n        /* \"#utility.yul\":672:686   */\n      add\n        /* \"#utility.yul\":668:696   */\n      and\n        /* \"#utility.yul\":658:696   */\n      swap1\n      pop\n        /* \"#utility.yul\":600:702   */\n      swap2\n      swap1\n      pop\n      jump\t// out\n        /* \"#utility.yul\":708:1072   */\n    tag_352:\n        /* \"#utility.yul\":796:799   */\n      0x00\n        /* \"#utility.yul\":824:863   */\n      tag_410\n        /* \"#utility.yul\":857:862   */\n      dup3\n        /* \"#utility.yul\":824:863   */\n      tag_348\n      jump\t// in\n    tag_410:\n        /* \"#utility.yul\":879:950   */\n      tag_411\n        /* \"#utility.yul\":943:949   */\n      dup2\n        /* \"#utility.yul\":938:941   */\n      dup6\n        /* \"#utility.yul\":879:950   */\n      tag_349\n      jump\t// in\n    tag_411:\n        /* \"#utility.yul\":872:950   */\n      swap4\n      pop\n        /* \"#utility.yul\":959:1011   */\n      tag_412\n        /* \"#utility.yul\":1004:1010   */\n      dup2\n        /* \"#utility.yul\":999:1002   */\n      dup6\n        /* \"#utility.yul\":992:996   */\n      0x20\n        /* \"#utility.yul\":985:990   */\n      dup7\n        /* \"#utility.yul\":981:997   */\n      add\n        /* \"#utility.yul\":959:1011   */\n      tag_350\n      jump\t// in\n    tag_412:\n        /* \"#utility.yul\":1036:1065   */\n      tag_413\n        /* \"#utility.yul\":1058:1064   */\n      dup2\n        /* \"#utility.yul\":1036:1065   */\n      tag_351\n      jump\t// in\n    tag_413:\n        /* \"#utility.yul\":1031:1034   */\n      dup5\n        /* \"#utility.yul\":1027:1066   */\n      add\n        /* \"#utility.yul\":1020:1066   */\n      swap2\n      pop\n        /* \"#utility.yul\":800:1072   */\n      pop\n        /* \"#utility.yul\":708:1072   */\n      swap3\n      swap2\n      pop\n      pop\n      jump\t// out\n        /* \"#utility.yul\":1078:1391   */\n    tag_29:\n        /* \"#utility.yul\":1191:1195   */\n      0x00\n        /* \"#utility.yul\":1229:1231   */\n      0x20\n        /* \"#utility.yul\":1218:1227   */\n      dup3\n        /* \"#utility.yul\":1214:1232   */\n      add\n        /* \"#utility.yul\":1206:1232   */\n      swap1\n      pop\n        /* \"#utility.yul\":1278:1287   */\n      dup2\n        /* \"#utility.yul\":1272:1276   */\n      dup2\n        /* \"#utility.yul\":1268:1288   */\n      sub\n        /* \"#utility.yul\":1264:1265   */\n      0x00\n        /* \"#utility.yul\":1253:1262   */\n      dup4\n        /* \"#utility.yul\":1249:1266   */\n      add\n        /* \"#utility.yul\":1242:1289   */\n      mstore\n        /* \"#utility.yul\":1306:1384   */\n      tag_415\n        /* \"#utility.yul\":1379:1383   */\n      dup2\n        /* \"#utility.yul\":1370:1376   */\n      dup5\n        /* \"#utility.yul\":1306:1384   */\n      tag_352\n      jump\t// in\n    tag_415:\n        /* \"#utility.yul\":1298:1384   */\n      swap1\n      pop\n        /* \"#utility.yul\":1078:1391   */\n      swap3\n      swap2\n      pop\n      pop\n      jump\t// out\n        /* \"#utility.yul\":1478:1595   */\n    tag_354:\n        /* \"#utility.yul\":1587:1588   */\n      0x00\n        /* \"#utility.yul\":1584:1585   */\n      dup1\n        /* \"#utility.yul\":1577:1589   */\n      revert\n        /* \"#utility.yul\":1724:1850   */\n    tag_356:\n        /* \"#utility.yul\":1761:1768   */\n      0x00\n        /* \"#utility.yul\":1801:1843   */\n      0xffffffffffffffffffffffffffffffffffffffff\n        /* \"#utility.yul\":1794:1799   */\n      dup3\n        /* \"#utility.yul\":1790:1844   */\n      and\n        /* \"#utility.yul\":1779:1844   */\n      swap1\n      pop\n        /* \"#utility.yul\":1724:1850   */\n      swap2\n      swap1\n      pop\n      jump\t// out\n        /* \"#utility.yul\":1856:1952   */\n    tag_357:\n        /* \"#utility.yul\":1893:1900   */\n      0x00\n        /* \"#utility.yul\":1922:1946   */\n      tag_421\n        /* \"#utility.yul\":1940:1945   */\n      dup3\n        /* \"#utility.yul\":1922:1946   */\n      tag_356\n      jump\t// in\n    tag_421:\n        /* \"#utility.yul\":1911:1946   */\n      swap1\n      pop\n        /* \"#utility.yul\":1856:1952   */\n      swap2\n      swap1\n      pop\n      jump\t// out\n        /* \"#utility.yul\":1958:2080   */\n    tag_358:\n        /* \"#utility.yul\":2031:2055   */\n      tag_423\n        /* \"#utility.yul\":2049:2054   */\n      dup2\n        /* \"#utility.yul\":2031:2055   */\n      tag_357\n      jump\t// in\n    tag_423:\n        /* \"#utility.yul\":2024:2029   */\n      dup2\n        /* \"#utility.yul\":2021:2056   */\n      eq\n        /* \"#utility.yul\":2011:2074   */\n      tag_424\n      jumpi\n        /* \"#utility.yul\":2070:2071   */\n      0x00\n        /* \"#utility.yul\":2067:2068   */\n      dup1\n        /* \"#utility.yul\":2060:2072   */\n      revert\n        /* \"#utility.yul\":2011:2074   */\n    tag_424:\n        /* \"#utility.yul\":1958:2080   */\n      pop\n      jump\t// out\n        /* \"#utility.yul\":2086:2225   */\n    tag_359:\n        /* \"#utility.yul\":2132:2137   */\n      0x00\n        /* \"#utility.yul\":2170:2176   */\n      dup2\n        /* \"#utility.yul\":2157:2177   */\n      calldataload\n        /* \"#utility.yul\":2148:2177   */\n      swap1\n      pop\n        /* \"#utility.yul\":2186:2219   */\n      tag_426\n        /* \"#utility.yul\":2213:2218   */\n      dup2\n        /* \"#utility.yul\":2186:2219   */\n      tag_358\n      jump\t// in\n    tag_426:\n        /* \"#utility.yul\":2086:2225   */\n      swap3\n      swap2\n      pop\n      pop\n      jump\t// out\n        /* \"#utility.yul\":2231:2308   */\n    tag_360:\n        /* \"#utility.yul\":2268:2275   */\n      0x00\n        /* \"#utility.yul\":2297:2302   */\n      dup2\n        /* \"#utility.yul\":2286:2302   */\n      swap1\n      pop\n        /* \"#utility.yul\":2231:2308   */\n      swap2\n      swap1\n      pop\n      jump\t// out\n        /* \"#utility.yul\":2314:2436   */\n    tag_361:\n        /* \"#utility.yul\":2387:2411   */\n      tag_429\n        /* \"#utility.yul\":2405:2410   */\n      dup2\n        /* \"#utility.yul\":2387:2411   */\n      tag_360\n      jump\t// in\n    tag_429:\n        /* \"#utility.yul\":2380:2385   */\n      dup2\n        /* \"#utility.yul\":2377:2412   */\n      eq\n        /* \"#utility.yul\":2367:2430   */\n      tag_430\n      jumpi\n        /* \"#utility.yul\":2426:2427   */\n      0x00\n        /* \"#utility.yul\":2423:2424   */\n      dup1\n        /* \"#utility.yul\":2416:2428   */\n      revert\n        /* \"#utility.yul\":2367:2430   */\n    tag_430:\n        /* \"#utility.yul\":2314:2436   */\n      pop\n      jump\t// out\n        /* \"#utility.yul\":2442:2581   */\n    tag_362:\n        /* \"#utility.yul\":2488:2493   */\n      0x00\n        /* \"#utility.yul\":2526:2532   */\n      dup2\n        /* \"#utility.yul\":2513:2533   */\n      calldataload\n        /* \"#utility.yul\":2504:2533   */\n      swap1\n      pop\n        /* \"#utility.yul\":2542:2575   */\n      tag_432\n        /* \"#utility.yul\":2569:2574   */\n      dup2\n        /* \"#utility.yul\":2542:2575   */\n      tag_361\n      jump\t// in\n    tag_432:\n        /* \"#utility.yul\":2442:2581   */\n      swap3\n      swap2\n      pop\n      pop\n      jump\t// out\n        /* \"#utility.yul\":2587:3061   */\n    tag_32:\n        /* \"#utility.yul\":2655:2661   */\n      0x00\n        /* \"#utility.yul\":2663:2669   */\n      dup1\n        /* \"#utility.yul\":2712:2714   */\n      0x40\n        /* \"#utility.yul\":2700:2709   */\n      dup4\n        /* \"#utility.yul\":2691:2698   */\n      dup6\n        /* \"#utility.yul\":2687:2710   */\n      sub\n        /* \"#utility.yul\":2683:2715   */\n      slt\n        /* \"#utility.yul\":2680:2799   */\n      iszero\n      tag_434\n      jumpi\n        /* \"#utility.yul\":2718:2797   */\n      tag_435\n      tag_354\n      jump\t// in\n    tag_435:\n        /* \"#utility.yul\":2680:2799   */\n    tag_434:\n        /* \"#utility.yul\":2838:2839   */\n      0x00\n        /* \"#utility.yul\":2863:2916   */\n      tag_436\n        /* \"#utility.yul\":2908:2915   */\n      dup6\n        /* \"#utility.yul\":2899:2905   */\n      dup3\n        /* \"#utility.yul\":2888:2897   */\n      dup7\n        /* \"#utility.yul\":2884:2906   */\n      add\n        /* \"#utility.yul\":2863:2916   */\n      tag_359\n      jump\t// in\n    tag_436:\n        /* \"#utility.yul\":2853:2916   */\n      swap3\n      pop\n        /* \"#utility.yul\":2809:2926   */\n      pop\n        /* \"#utility.yul\":2965:2967   */\n      0x20\n        /* \"#utility.yul\":2991:3044   */\n      tag_437\n        /* \"#utility.yul\":3036:3043   */\n      dup6\n        /* \"#utility.yul\":3027:3033   */\n      dup3\n        /* \"#utility.yul\":3016:3025   */\n      dup7\n        /* \"#utility.yul\":3012:3034   */\n      add\n        /* \"#utility.yul\":2991:3044   */\n      tag_362\n      jump\t// in\n    tag_437:\n        /* \"#utility.yul\":2981:3044   */\n      swap2\n      pop\n        /* \"#utility.yul\":2936:3054   */\n      pop\n        /* \"#utility.yul\":2587:3061   */\n      swap3\n      pop\n      swap3\n      swap1\n      pop\n      jump\t// out\n        /* \"#utility.yul\":3067:3157   */\n    tag_363:\n        /* \"#utility.yul\":3101:3108   */\n      0x00\n        /* \"#utility.yul\":3144:3149   */\n      dup2\n        /* \"#utility.yul\":3137:3150   */\n      iszero\n        /* \"#utility.yul\":3130:3151   */\n      iszero\n        /* \"#utility.yul\":3119:3151   */\n      swap1\n      pop\n        /* \"#utility.yul\":3067:3157   */\n      swap2\n      swap1\n      pop\n      jump\t// out\n        /* \"#utility.yul\":3163:3272   */\n    tag_364:\n        /* \"#utility.yul\":3244:3265   */\n      tag_440\n        /* \"#utility.yul\":3259:3264   */\n      dup2\n        /* \"#utility.yul\":3244:3265   */\n      tag_363\n      jump\t// in\n    tag_440:\n        /* \"#utility.yul\":3239:3242   */\n      dup3\n        /* \"#utility.yul\":3232:3266   */\n      mstore\n        /* \"#utility.yul\":3163:3272   */\n      pop\n      pop\n      jump\t// out\n        /* \"#utility.yul\":3278:3488   */\n    tag_35:\n        /* \"#utility.yul\":3365:3369   */\n      0x00\n        /* \"#utility.yul\":3403:3405   */\n      0x20\n        /* \"#utility.yul\":3392:3401   */\n      dup3\n        /* \"#utility.yul\":3388:3406   */\n      add\n        /* \"#utility.yul\":3380:3406   */\n      swap1\n      pop\n        /* \"#utility.yul\":3416:3481   */\n      tag_442\n        /* \"#utility.yul\":3478:3479   */\n      0x00\n        /* \"#utility.yul\":3467:3476   */\n      dup4\n        /* \"#utility.yul\":3463:3480   */\n      add\n        /* \"#utility.yul\":3454:3460   */\n      dup5\n        /* \"#utility.yul\":3416:3481   */\n      tag_364\n      jump\t// in\n    tag_442:\n        /* \"#utility.yul\":3278:3488   */\n      swap3\n      swap2\n      pop\n      pop\n      jump\t// out\n        /* \"#utility.yul\":3494:3612   */\n    tag_365:\n        /* \"#utility.yul\":3581:3605   */\n      tag_444\n        /* \"#utility.yul\":3599:3604   */\n      dup2\n        /* \"#utility.yul\":3581:3605   */\n      tag_360\n      jump\t// in\n    tag_444:\n        /* \"#utility.yul\":3576:3579   */\n      dup3\n        /* \"#utility.yul\":3569:3606   */\n      mstore\n        /* \"#utility.yul\":3494:3612   */\n      pop\n      pop\n      jump\t// out\n        /* \"#utility.yul\":3618:3840   */\n    tag_39:\n        /* \"#utility.yul\":3711:3715   */\n      0x00\n        /* \"#utility.yul\":3749:3751   */\n      0x20\n        /* \"#utility.yul\":3738:3747   */\n      dup3\n        /* \"#utility.yul\":3734:3752   */\n      add\n        /* \"#utility.yul\":3726:3752   */\n      swap1\n      pop\n        /* \"#utility.yul\":3762:3833   */\n      tag_446\n        /* \"#utility.yul\":3830:3831   */\n      0x00\n        /* \"#utility.yul\":3819:3828   */\n      dup4\n        /* \"#utility.yul\":3815:3832   */\n      add\n        /* \"#utility.yul\":3806:3812   */\n      dup5\n        /* \"#utility.yul\":3762:3833   */\n      tag_365\n      jump\t// in\n    tag_446:\n        /* \"#utility.yul\":3618:3840   */\n      swap3\n      swap2\n      pop\n      pop\n      jump\t// out\n        /* \"#utility.yul\":3846:4465   */\n    tag_42:\n        /* \"#utility.yul\":3923:3929   */\n      0x00\n        /* \"#utility.yul\":3931:3937   */\n      dup1\n        /* \"#utility.yul\":3939:3945   */\n      0x00\n        /* \"#utility.yul\":3988:3990   */\n      0x60\n        /* \"#utility.yul\":3976:3985   */\n      dup5\n        /* \"#utility.yul\":3967:3974   */\n      dup7\n        /* \"#utility.yul\":3963:3986   */\n      sub\n        /* \"#utility.yul\":3959:3991   */\n      slt\n        /* \"#utility.yul\":3956:4075   */\n      iszero\n      tag_448\n      jumpi\n        /* \"#utility.yul\":3994:4073   */\n      tag_449\n      tag_354\n      jump\t// in\n    tag_449:\n        /* \"#utility.yul\":3956:4075   */\n    tag_448:\n        /* \"#utility.yul\":4114:4115   */\n      0x00\n        /* \"#utility.yul\":4139:4192   */\n      tag_450\n        /* \"#utility.yul\":4184:4191   */\n      dup7\n        /* \"#utility.yul\":4175:4181   */\n      dup3\n        /* \"#utility.yul\":4164:4173   */\n      dup8\n        /* \"#utility.yul\":4160:4182   */\n      add\n        /* \"#utility.yul\":4139:4192   */\n      tag_359\n      jump\t// in\n    tag_450:\n        /* \"#utility.yul\":4129:4192   */\n      swap4\n      pop\n        /* \"#utility.yul\":4085:4202   */\n      pop\n        /* \"#utility.yul\":4241:4243   */\n      0x20\n        /* \"#utility.yul\":4267:4320   */\n      tag_451\n        /* \"#utility.yul\":4312:4319   */\n      dup7\n        /* \"#utility.yul\":4303:4309   */\n      dup3\n        /* \"#utility.yul\":4292:4301   */\n      dup8\n        /* \"#utility.yul\":4288:4310   */\n      add\n        /* \"#utility.yul\":4267:4320   */\n      tag_359\n      jump\t// in\n    tag_451:\n        /* \"#utility.yul\":4257:4320   */\n      swap3\n      pop\n        /* \"#utility.yul\":4212:4330   */\n      pop\n        /* \"#utility.yul\":4369:4371   */\n      0x40\n        /* \"#utility.yul\":4395:4448   */\n      tag_452\n        /* \"#utility.yul\":4440:4447   */\n      dup7\n        /* \"#utility.yul\":4431:4437   */\n      dup3\n        /* \"#utility.yul\":4420:4429   */\n      dup8\n        /* \"#utility.yul\":4416:4438   */\n      add\n        /* \"#utility.yul\":4395:4448   */\n      tag_362\n      jump\t// in\n    tag_452:\n        /* \"#utility.yul\":4385:4448   */\n      swap2\n      pop\n        /* \"#utility.yul\":4340:4458   */\n      pop\n        /* \"#utility.yul\":3846:4465   */\n      swap3\n      pop\n      swap3\n      pop\n      swap3\n      jump\t// out\n        /* \"#utility.yul\":4471:4557   */\n    tag_366:\n        /* \"#utility.yul\":4506:4513   */\n      0x00\n        /* \"#utility.yul\":4546:4550   */\n      0xff\n        /* \"#utility.yul\":4539:4544   */\n      dup3\n        /* \"#utility.yul\":4535:4551   */\n      and\n        /* \"#utility.yul\":4524:4551   */\n      swap1\n      pop\n        /* \"#utility.yul\":4471:4557   */\n      swap2\n      swap1\n      pop\n      jump\t// out\n        /* \"#utility.yul\":4563:4675   */\n    tag_367:\n        /* \"#utility.yul\":4646:4668   */\n      tag_455\n        /* \"#utility.yul\":4662:4667   */\n      dup2\n        /* \"#utility.yul\":4646:4668   */\n      tag_366\n      jump\t// in\n    tag_455:\n        /* \"#utility.yul\":4641:4644   */\n      dup3\n        /* \"#utility.yul\":4634:4669   */\n      mstore\n        /* \"#utility.yul\":4563:4675   */\n      pop\n      pop\n      jump\t// out\n        /* \"#utility.yul\":4681:4895   */\n    tag_48:\n        /* \"#utility.yul\":4770:4774   */\n      0x00\n        /* \"#utility.yul\":4808:4810   */\n      0x20\n        /* \"#utility.yul\":4797:4806   */\n      dup3\n        /* \"#utility.yul\":4793:4811   */\n      add\n        /* \"#utility.yul\":4785:4811   */\n      swap1\n      pop\n        /* \"#utility.yul\":4821:4888   */\n      tag_457\n        /* \"#utility.yul\":4885:4886   */\n      0x00\n        /* \"#utility.yul\":4874:4883   */\n      dup4\n        /* \"#utility.yul\":4870:4887   */\n      add\n        /* \"#utility.yul\":4861:4867   */\n      dup5\n        /* \"#utility.yul\":4821:4888   */\n      tag_367\n      jump\t// in\n    tag_457:\n        /* \"#utility.yul\":4681:4895   */\n      swap3\n      swap2\n      pop\n      pop\n      jump\t// out\n        /* \"#utility.yul\":4901:5230   */\n    tag_58:\n        /* \"#utility.yul\":4960:4966   */\n      0x00\n        /* \"#utility.yul\":5009:5011   */\n      0x20\n        /* \"#utility.yul\":4997:5006   */\n      dup3\n        /* \"#utility.yul\":4988:4995   */\n      dup5\n        /* \"#utility.yul\":4984:5007   */\n      sub\n        /* \"#utility.yul\":4980:5012   */\n      slt\n        /* \"#utility.yul\":4977:5096   */\n      iszero\n      tag_459\n      jumpi\n        /* \"#utility.yul\":5015:5094   */\n      tag_460\n      tag_354\n      jump\t// in\n    tag_460:\n        /* \"#utility.yul\":4977:5096   */\n    tag_459:\n        /* \"#utility.yul\":5135:5136   */\n      0x00\n        /* \"#utility.yul\":5160:5213   */\n      tag_461\n        /* \"#utility.yul\":5205:5212   */\n      dup5\n        /* \"#utility.yul\":5196:5202   */\n      dup3\n        /* \"#utility.yul\":5185:5194   */\n      dup6\n        /* \"#utility.yul\":5181:5203   */\n      add\n        /* \"#utility.yul\":5160:5213   */\n      tag_362\n      jump\t// in\n    tag_461:\n        /* \"#utility.yul\":5150:5213   */\n      swap2\n      pop\n        /* \"#utility.yul\":5106:5223   */\n      pop\n        /* \"#utility.yul\":4901:5230   */\n      swap3\n      swap2\n      pop\n      pop\n      jump\t// out\n        /* \"#utility.yul\":5236:5565   */\n    tag_66:\n        /* \"#utility.yul\":5295:5301   */\n      0x00\n        /* \"#utility.yul\":5344:5346   */\n      0x20\n        /* \"#utility.yul\":5332:5341   */\n      dup3\n        /* \"#utility.yul\":5323:5330   */\n      dup5\n        /* \"#utility.yul\":5319:5342   */\n      sub\n        /* \"#utility.yul\":5315:5347   */\n      slt\n        /* \"#utility.yul\":5312:5431   */\n      iszero\n      tag_463\n      jumpi\n        /* \"#utility.yul\":5350:5429   */\n      tag_464\n      tag_354\n      jump\t// in\n    tag_464:\n        /* \"#utility.yul\":5312:5431   */\n    tag_463:\n        /* \"#utility.yul\":5470:5471   */\n      0x00\n        /* \"#utility.yul\":5495:5548   */\n      tag_465\n        /* \"#utility.yul\":5540:5547   */\n      dup5\n        /* \"#utility.yul\":5531:5537   */\n      dup3\n        /* \"#utility.yul\":5520:5529   */\n      dup6\n        /* \"#utility.yul\":5516:5538   */\n      add\n        /* \"#utility.yul\":5495:5548   */\n      tag_359\n      jump\t// in\n    tag_465:\n        /* \"#utility.yul\":5485:5548   */\n      swap2\n      pop\n        /* \"#utility.yul\":5441:5558   */\n      pop\n        /* \"#utility.yul\":5236:5565   */\n      swap3\n      swap2\n      pop\n      pop\n      jump\t// out\n        /* \"#utility.yul\":5571:5689   */\n    tag_368:\n        /* \"#utility.yul\":5658:5682   */\n      tag_467\n        /* \"#utility.yul\":5676:5681   */\n      dup2\n        /* \"#utility.yul\":5658:5682   */\n      tag_357\n      jump\t// in\n    tag_467:\n        /* \"#utility.yul\":5653:5656   */\n      dup3\n        /* \"#utility.yul\":5646:5683   */\n      mstore\n        /* \"#utility.yul\":5571:5689   */\n      pop\n      pop\n      jump\t// out\n        /* \"#utility.yul\":5695:5917   */\n    tag_77:\n        /* \"#utility.yul\":5788:5792   */\n      0x00\n        /* \"#utility.yul\":5826:5828   */\n      0x20\n        /* \"#utility.yul\":5815:5824   */\n      dup3\n        /* \"#utility.yul\":5811:5829   */\n      add\n        /* \"#utility.yul\":5803:5829   */\n      swap1\n      pop\n        /* \"#utility.yul\":5839:5910   */\n      tag_469\n        /* \"#utility.yul\":5907:5908   */\n      0x00\n        /* \"#utility.yul\":5896:5905   */\n      dup4\n        /* \"#utility.yul\":5892:5909   */\n      add\n        /* \"#utility.yul\":5883:5889   */\n      dup5\n        /* \"#utility.yul\":5839:5910   */\n      tag_368\n      jump\t// in\n    tag_469:\n        /* \"#utility.yul\":5695:5917   */\n      swap3\n      swap2\n      pop\n      pop\n      jump\t// out\n        /* \"#utility.yul\":5923:6397   */\n    tag_97:\n        /* \"#utility.yul\":5991:5997   */\n      0x00\n        /* \"#utility.yul\":5999:6005   */\n      dup1\n        /* \"#utility.yul\":6048:6050   */\n      0x40\n        /* \"#utility.yul\":6036:6045   */\n      dup4\n        /* \"#utility.yul\":6027:6034   */\n      dup6\n        /* \"#utility.yul\":6023:6046   */\n      sub\n        /* \"#utility.yul\":6019:6051   */\n      slt\n        /* \"#utility.yul\":6016:6135   */\n      iszero\n      tag_471\n      jumpi\n        /* \"#utility.yul\":6054:6133   */\n      tag_472\n      tag_354\n      jump\t// in\n    tag_472:\n        /* \"#utility.yul\":6016:6135   */\n    tag_471:\n        /* \"#utility.yul\":6174:6175   */\n      0x00\n        /* \"#utility.yul\":6199:6252   */\n      tag_473\n        /* \"#utility.yul\":6244:6251   */\n      dup6\n        /* \"#utility.yul\":6235:6241   */\n      dup3\n        /* \"#utility.yul\":6224:6233   */\n      dup7\n        /* \"#utility.yul\":6220:6242   */\n      add\n        /* \"#utility.yul\":6199:6252   */\n      tag_359\n      jump\t// in\n    tag_473:\n        /* \"#utility.yul\":6189:6252   */\n      swap3\n      pop\n        /* \"#utility.yul\":6145:6262   */\n      pop\n        /* \"#utility.yul\":6301:6303   */\n      0x20\n        /* \"#utility.yul\":6327:6380   */\n      tag_474\n        /* \"#utility.yul\":6372:6379   */\n      dup6\n        /* \"#utility.yul\":6363:6369   */\n      dup3\n        /* \"#utility.yul\":6352:6361   */\n      dup7\n        /* \"#utility.yul\":6348:6370   */\n      add\n        /* \"#utility.yul\":6327:6380   */\n      tag_359\n      jump\t// in\n    tag_474:\n        /* \"#utility.yul\":6317:6380   */\n      swap2\n      pop\n        /* \"#utility.yul\":6272:6390   */\n      pop\n        /* \"#utility.yul\":5923:6397   */\n      swap3\n      pop\n      swap3\n      swap1\n      pop\n      jump\t// out\n        /* \"#utility.yul\":6403:6583   */\n    tag_369:\n        /* \"#utility.yul\":6451:6528   */\n      0x4e487b7100000000000000000000000000000000000000000000000000000000\n        /* \"#utility.yul\":6448:6449   */\n      0x00\n        /* \"#utility.yul\":6441:6529   */\n      mstore\n        /* \"#utility.yul\":6548:6552   */\n      0x22\n        /* \"#utility.yul\":6545:6546   */\n      0x04\n        /* \"#utility.yul\":6538:6553   */\n      mstore\n        /* \"#utility.yul\":6572:6576   */\n      0x24\n        /* \"#utility.yul\":6569:6570   */\n      0x00\n        /* \"#utility.yul\":6562:6577   */\n      revert\n        /* \"#utility.yul\":6589:6909   */\n    tag_108:\n        /* \"#utility.yul\":6633:6639   */\n      0x00\n        /* \"#utility.yul\":6670:6671   */\n      0x02\n        /* \"#utility.yul\":6664:6668   */\n      dup3\n        /* \"#utility.yul\":6660:6672   */\n      div\n        /* \"#utility.yul\":6650:6672   */\n      swap1\n      pop\n        /* \"#utility.yul\":6717:6718   */\n      0x01\n        /* \"#utility.yul\":6711:6715   */\n      dup3\n        /* \"#utility.yul\":6707:6719   */\n      and\n        /* \"#utility.yul\":6738:6756   */\n      dup1\n        /* \"#utility.yul\":6728:6809   */\n      tag_477\n      jumpi\n        /* \"#utility.yul\":6794:6798   */\n      0x7f\n        /* \"#utility.yul\":6786:6792   */\n      dup3\n        /* \"#utility.yul\":6782:6799   */\n      and\n        /* \"#utility.yul\":6772:6799   */\n      swap2\n      pop\n        /* \"#utility.yul\":6728:6809   */\n    tag_477:\n        /* \"#utility.yul\":6856:6858   */\n      0x20\n        /* \"#utility.yul\":6848:6854   */\n      dup3\n        /* \"#utility.yul\":6845:6859   */\n      lt\n        /* \"#utility.yul\":6825:6843   */\n      dup2\n        /* \"#utility.yul\":6822:6860   */\n      eq\n        /* \"#utility.yul\":6819:6903   */\n      iszero\n      tag_478\n      jumpi\n        /* \"#utility.yul\":6875:6893   */\n      tag_479\n      tag_369\n      jump\t// in\n    tag_479:\n        /* \"#utility.yul\":6819:6903   */\n    tag_478:\n        /* \"#utility.yul\":6640:6909   */\n      pop\n        /* \"#utility.yul\":6589:6909   */\n      swap2\n      swap1\n      pop\n      jump\t// out\n        /* \"#utility.yul\":6915:7095   */\n    tag_370:\n        /* \"#utility.yul\":6963:7040   */\n      0x4e487b7100000000000000000000000000000000000000000000000000000000\n        /* \"#utility.yul\":6960:6961   */\n      0x00\n        /* \"#utility.yul\":6953:7041   */\n      mstore\n        /* \"#utility.yul\":7060:7064   */\n      0x11\n        /* \"#utility.yul\":7057:7058   */\n      0x04\n        /* \"#utility.yul\":7050:7065   */\n      mstore\n        /* \"#utility.yul\":7084:7088   */\n      0x24\n        /* \"#utility.yul\":7081:7082   */\n      0x00\n        /* \"#utility.yul\":7074:7089   */\n      revert\n        /* \"#utility.yul\":7101:7406   */\n    tag_131:\n        /* \"#utility.yul\":7141:7144   */\n      0x00\n        /* \"#utility.yul\":7160:7180   */\n      tag_482\n        /* \"#utility.yul\":7178:7179   */\n      dup3\n        /* \"#utility.yul\":7160:7180   */\n      tag_360\n      jump\t// in\n    tag_482:\n        /* \"#utility.yul\":7155:7180   */\n      swap2\n      pop\n        /* \"#utility.yul\":7194:7214   */\n      tag_483\n        /* \"#utility.yul\":7212:7213   */\n      dup4\n        /* \"#utility.yul\":7194:7214   */\n      tag_360\n      jump\t// in\n    tag_483:\n        /* \"#utility.yul\":7189:7214   */\n      swap3\n      pop\n        /* \"#utility.yul\":7348:7349   */\n      dup3\n        /* \"#utility.yul\":7280:7346   */\n      0xffffffffffffffffffffffffffffffffffffffffffffffffffffffffffffffff\n        /* \"#utility.yul\":7276:7350   */\n      sub\n        /* \"#utility.yul\":7273:7274   */\n      dup3\n        /* \"#utility.yul\":7270:7351   */\n      gt\n        /* \"#utility.yul\":7267:7374   */\n      iszero\n      tag_484\n      jumpi\n        /* \"#utility.yul\":7354:7372   */\n      tag_485\n      tag_370\n      jump\t// in\n    tag_485:\n        /* \"#utility.yul\":7267:7374   */\n    tag_484:\n        /* \"#utility.yul\":7398:7399   */\n      dup3\n        /* \"#utility.yul\":7395:7396   */\n      dup3\n        /* \"#utility.yul\":7391:7400   */\n      add\n        /* \"#utility.yul\":7384:7400   */\n      swap1\n      pop\n        /* \"#utility.yul\":7101:7406   */\n      swap3\n      swap2\n      pop\n      pop\n      jump\t// out\n        /* \"#utility.yul\":7412:7594   */\n    tag_371:\n        /* \"#utility.yul\":7552:7586   */\n      0x4f776e61626c653a2063616c6c6572206973206e6f7420746865206f776e6572\n        /* \"#utility.yul\":7548:7549   */\n      0x00\n        /* \"#utility.yul\":7540:7546   */\n      dup3\n        /* \"#utility.yul\":7536:7550   */\n      add\n        /* \"#utility.yul\":7529:7587   */\n      mstore\n        /* \"#utility.yul\":7412:7594   */\n      pop\n      jump\t// out\n        /* \"#utility.yul\":7600:7966   */\n    tag_372:\n        /* \"#utility.yul\":7742:7745   */\n      0x00\n        /* \"#utility.yul\":7763:7830   */\n      tag_488\n        /* \"#utility.yul\":7827:7829   */\n      0x20\n        /* \"#utility.yul\":7822:7825   */\n      dup4\n        /* \"#utility.yul\":7763:7830   */\n      tag_349\n      jump\t// in\n    tag_488:\n        /* \"#utility.yul\":7756:7830   */\n      swap2\n      pop\n        /* \"#utility.yul\":7839:7932   */\n      tag_489\n        /* \"#utility.yul\":7928:7931   */\n      dup3\n        /* \"#utility.yul\":7839:7932   */\n      tag_371\n      jump\t// in\n    tag_489:\n        /* \"#utility.yul\":7957:7959   */\n      0x20\n        /* \"#utility.yul\":7952:7955   */\n      dup3\n        /* \"#utility.yul\":7948:7960   */\n      add\n        /* \"#utility.yul\":7941:7960   */\n      swap1\n      pop\n        /* \"#utility.yul\":7600:7966   */\n      swap2\n      swap1\n      pop\n      jump\t// out\n        /* \"#utility.yul\":7972:8391   */\n    tag_137:\n        /* \"#utility.yul\":8138:8142   */\n      0x00\n        /* \"#utility.yul\":8176:8178   */\n      0x20\n        /* \"#utility.yul\":8165:8174   */\n      dup3\n        /* \"#utility.yul\":8161:8179   */\n      add\n        /* \"#utility.yul\":8153:8179   */\n      swap1\n      pop\n        /* \"#utility.yul\":8225:8234   */\n      dup2\n        /* \"#utility.yul\":8219:8223   */\n      dup2\n        /* \"#utility.yul\":8215:8235   */\n      sub\n        /* \"#utility.yul\":8211:8212   */\n      0x00\n        /* \"#utility.yul\":8200:8209   */\n      dup4\n        /* \"#utility.yul\":8196:8213   */\n      add\n        /* \"#utility.yul\":8189:8236   */\n      mstore\n        /* \"#utility.yul\":8253:8384   */\n      tag_491\n        /* \"#utility.yul\":8379:8383   */\n      dup2\n        /* \"#utility.yul\":8253:8384   */\n      tag_372\n      jump\t// in\n    tag_491:\n        /* \"#utility.yul\":8245:8384   */\n      swap1\n      pop\n        /* \"#utility.yul\":7972:8391   */\n      swap2\n      swap1\n      pop\n      jump\t// out\n        /* \"#utility.yul\":8397:8621   */\n    tag_373:\n        /* \"#utility.yul\":8537:8571   */\n      0x45524332303a2064656372656173656420616c6c6f77616e63652062656c6f77\n        /* \"#utility.yul\":8533:8534   */\n      0x00\n        /* \"#utility.yul\":8525:8531   */\n      dup3\n        /* \"#utility.yul\":8521:8535   */\n      add\n        /* \"#utility.yul\":8514:8572   */\n      mstore\n        /* \"#utility.yul\":8606:8613   */\n      0x207a65726f000000000000000000000000000000000000000000000000000000\n        /* \"#utility.yul\":8601:8603   */\n      0x20\n        /* \"#utility.yul\":8593:8599   */\n      dup3\n        /* \"#utility.yul\":8589:8604   */\n      add\n        /* \"#utility.yul\":8582:8614   */\n      mstore\n        /* \"#utility.yul\":8397:8621   */\n      pop\n      jump\t// out\n        /* \"#utility.yul\":8627:8993   */\n    tag_374:\n        /* \"#utility.yul\":8769:8772   */\n      0x00\n        /* \"#utility.yul\":8790:8857   */\n      tag_494\n        /* \"#utility.yul\":8854:8856   */\n      0x25\n        /* \"#utility.yul\":8849:8852   */\n      dup4\n        /* \"#utility.yul\":8790:8857   */\n      tag_349\n      jump\t// in\n    tag_494:\n        /* \"#utility.yul\":8783:8857   */\n      swap2\n      pop\n        /* \"#utility.yul\":8866:8959   */\n      tag_495\n        /* \"#utility.yul\":8955:8958   */\n      dup3\n        /* \"#utility.yul\":8866:8959   */\n      tag_373\n      jump\t// in\n    tag_495:\n        /* \"#utility.yul\":8984:8986   */\n      0x40\n        /* \"#utility.yul\":8979:8982   */\n      dup3\n        /* \"#utility.yul\":8975:8987   */\n      add\n        /* \"#utility.yul\":8968:8987   */\n      swap1\n      pop\n        /* \"#utility.yul\":8627:8993   */\n      swap2\n      swap1\n      pop\n      jump\t// out\n        /* \"#utility.yul\":8999:9418   */\n    tag_189:\n        /* \"#utility.yul\":9165:9169   */\n      0x00\n        /* \"#utility.yul\":9203:9205   */\n      0x20\n        /* \"#utility.yul\":9192:9201   */\n      dup3\n        /* \"#utility.yul\":9188:9206   */\n      add\n        /* \"#utility.yul\":9180:9206   */\n      swap1\n      pop\n        /* \"#utility.yul\":9252:9261   */\n      dup2\n        /* \"#utility.yul\":9246:9250   */\n      dup2\n        /* \"#utility.yul\":9242:9262   */\n      sub\n        /* \"#utility.yul\":9238:9239   */\n      0x00\n        /* \"#utility.yul\":9227:9236   */\n      dup4\n        /* \"#utility.yul\":9223:9240   */\n      add\n        /* \"#utility.yul\":9216:9263   */\n      mstore\n        /* \"#utility.yul\":9280:9411   */\n      tag_497\n        /* \"#utility.yul\":9406:9410   */\n      dup2\n        /* \"#utility.yul\":9280:9411   */\n      tag_374\n      jump\t// in\n    tag_497:\n        /* \"#utility.yul\":9272:9411   */\n      swap1\n      pop\n        /* \"#utility.yul\":8999:9418   */\n      swap2\n      swap1\n      pop\n      jump\t// out\n        /* \"#utility.yul\":9424:9649   */\n    tag_375:\n        /* \"#utility.yul\":9564:9598   */\n      0x4f776e61626c653a206e6577206f776e657220697320746865207a65726f2061\n        /* \"#utility.yul\":9560:9561   */\n      0x00\n        /* \"#utility.yul\":9552:9558   */\n      dup3\n        /* \"#utility.yul\":9548:9562   */\n      add\n        /* \"#utility.yul\":9541:9599   */\n      mstore\n        /* \"#utility.yul\":9633:9641   */\n      0x6464726573730000000000000000000000000000000000000000000000000000\n        /* \"#utility.yul\":9628:9630   */\n      0x20\n        /* \"#utility.yul\":9620:9626   */\n      dup3\n        /* \"#utility.yul\":9616:9631   */\n      add\n        /* \"#utility.yul\":9609:9642   */\n      mstore\n        /* \"#utility.yul\":9424:9649   */\n      pop\n      jump\t// out\n        /* \"#utility.yul\":9655:10021   */\n    tag_376:\n        /* \"#utility.yul\":9797:9800   */\n      0x00\n        /* \"#utility.yul\":9818:9885   */\n      tag_500\n        /* \"#utility.yul\":9882:9884   */\n      0x26\n        /* \"#utility.yul\":9877:9880   */\n      dup4\n        /* \"#utility.yul\":9818:9885   */\n      tag_349\n      jump\t// in\n    tag_500:\n        /* \"#utility.yul\":9811:9885   */\n      swap2\n      pop\n        /* \"#utility.yul\":9894:9987   */\n      tag_501\n        /* \"#utility.yul\":9983:9986   */\n      dup3\n        /* \"#utility.yul\":9894:9987   */\n      tag_375\n      jump\t// in\n    tag_501:\n        /* \"#utility.yul\":10012:10014   */\n      0x40\n        /* \"#utility.yul\":10007:10010   */\n      dup3\n        /* \"#utility.yul\":10003:10015   */\n      add\n        /* \"#utility.yul\":9996:10015   */\n      swap1\n      pop\n        /* \"#utility.yul\":9655:10021   */\n      swap2\n      swap1\n      pop\n      jump\t// out\n        /* \"#utility.yul\":10027:10446   */\n    tag_203:\n        /* \"#utility.yul\":10193:10197   */\n      0x00\n        /* \"#utility.yul\":10231:10233   */\n      0x20\n        /* \"#utility.yul\":10220:10229   */\n      dup3\n        /* \"#utility.yul\":10216:10234   */\n      add\n        /* \"#utility.yul\":10208:10234   */\n      swap1\n      pop\n        /* \"#utility.yul\":10280:10289   */\n      dup2\n        /* \"#utility.yul\":10274:10278   */\n      dup2\n        /* \"#utility.yul\":10270:10290   */\n      sub\n        /* \"#utility.yul\":10266:10267   */\n      0x00\n        /* \"#utility.yul\":10255:10264   */\n      dup4\n        /* \"#utility.yul\":10251:10268   */\n      add\n        /* \"#utility.yul\":10244:10291   */\n      mstore\n        /* \"#utility.yul\":10308:10439   */\n      tag_503\n        /* \"#utility.yul\":10434:10438   */\n      dup2\n        /* \"#utility.yul\":10308:10439   */\n      tag_376\n      jump\t// in\n    tag_503:\n        /* \"#utility.yul\":10300:10439   */\n      swap1\n      pop\n        /* \"#utility.yul\":10027:10446   */\n      swap2\n      swap1\n      pop\n      jump\t// out\n        /* \"#utility.yul\":10452:10675   */\n    tag_377:\n        /* \"#utility.yul\":10592:10626   */\n      0x45524332303a20617070726f76652066726f6d20746865207a65726f20616464\n        /* \"#utility.yul\":10588:10589   */\n      0x00\n        /* \"#utility.yul\":10580:10586   */\n      dup3\n        /* \"#utility.yul\":10576:10590   */\n      add\n        /* \"#utility.yul\":10569:10627   */\n      mstore\n        /* \"#utility.yul\":10661:10667   */\n      0x7265737300000000000000000000000000000000000000000000000000000000\n        /* \"#utility.yul\":10656:10658   */\n      0x20\n        /* \"#utility.yul\":10648:10654   */\n      dup3\n        /* \"#utility.yul\":10644:10659   */\n      add\n        /* \"#utility.yul\":10637:10668   */\n      mstore\n        /* \"#utility.yul\":10452:10675   */\n      pop\n      jump\t// out\n        /* \"#utility.yul\":10681:11047   */\n    tag_378:\n        /* \"#utility.yul\":10823:10826   */\n      0x00\n        /* \"#utility.yul\":10844:10911   */\n      tag_506\n        /* \"#utility.yul\":10908:10910   */\n      0x24\n        /* \"#utility.yul\":10903:10906   */\n      dup4\n        /* \"#utility.yul\":10844:10911   */\n      tag_349\n      jump\t// in\n    tag_506:\n        /* \"#utility.yul\":10837:10911   */\n      swap2\n      pop\n        /* \"#utility.yul\":10920:11013   */\n      tag_507\n        /* \"#utility.yul\":11009:11012   */\n      dup3\n        /* \"#utility.yul\":10920:11013   */\n      tag_377\n      jump\t// in\n    tag_507:\n        /* \"#utility.yul\":11038:11040   */\n      0x40\n        /* \"#utility.yul\":11033:11036   */\n      dup3\n        /* \"#utility.yul\":11029:11041   */\n      add\n        /* \"#utility.yul\":11022:11041   */\n      swap1\n      pop\n        /* \"#utility.yul\":10681:11047   */\n      swap2\n      swap1\n      pop\n      jump\t// out\n        /* \"#utility.yul\":11053:11472   */\n    tag_225:\n        /* \"#utility.yul\":11219:11223   */\n      0x00\n        /* \"#utility.yul\":11257:11259   */\n      0x20\n        /* \"#utility.yul\":11246:11255   */\n      dup3\n        /* \"#utility.yul\":11242:11260   */\n      add\n        /* \"#utility.yul\":11234:11260   */\n      swap1\n      pop\n        /* \"#utility.yul\":11306:11315   */\n      dup2\n        /* \"#utility.yul\":11300:11304   */\n      dup2\n        /* \"#utility.yul\":11296:11316   */\n      sub\n        /* \"#utility.yul\":11292:11293   */\n      0x00\n        /* \"#utility.yul\":11281:11290   */\n      dup4\n        /* \"#utility.yul\":11277:11294   */\n      add\n        /* \"#utility.yul\":11270:11317   */\n      mstore\n        /* \"#utility.yul\":11334:11465   */\n      tag_509\n        /* \"#utility.yul\":11460:11464   */\n      dup2\n        /* \"#utility.yul\":11334:11465   */\n      tag_378\n      jump\t// in\n    tag_509:\n        /* \"#utility.yul\":11326:11465   */\n      swap1\n      pop\n        /* \"#utility.yul\":11053:11472   */\n      swap2\n      swap1\n      pop\n      jump\t// out\n        /* \"#utility.yul\":11478:11699   */\n    tag_379:\n        /* \"#utility.yul\":11618:11652   */\n      0x45524332303a20617070726f766520746f20746865207a65726f206164647265\n        /* \"#utility.yul\":11614:11615   */\n      0x00\n        /* \"#utility.yul\":11606:11612   */\n      dup3\n        /* \"#utility.yul\":11602:11616   */\n      add\n        /* \"#utility.yul\":11595:11653   */\n      mstore\n        /* \"#utility.yul\":11687:11691   */\n      0x7373000000000000000000000000000000000000000000000000000000000000\n        /* \"#utility.yul\":11682:11684   */\n      0x20\n        /* \"#utility.yul\":11674:11680   */\n      dup3\n        /* \"#utility.yul\":11670:11685   */\n      add\n        /* \"#utility.yul\":11663:11692   */\n      mstore\n        /* \"#utility.yul\":11478:11699   */\n      pop\n      jump\t// out\n        /* \"#utility.yul\":11705:12071   */\n    tag_380:\n        /* \"#utility.yul\":11847:11850   */\n      0x00\n        /* \"#utility.yul\":11868:11935   */\n      tag_512\n        /* \"#utility.yul\":11932:11934   */\n      0x22\n        /* \"#utility.yul\":11927:11930   */\n      dup4\n        /* \"#utility.yul\":11868:11935   */\n      tag_349\n      jump\t// in\n    tag_512:\n        /* \"#utility.yul\":11861:11935   */\n      swap2\n      pop\n        /* \"#utility.yul\":11944:12037   */\n      tag_513\n        /* \"#utility.yul\":12033:12036   */\n      dup3\n        /* \"#utility.yul\":11944:12037   */\n      tag_379\n      jump\t// in\n    tag_513:\n        /* \"#utility.yul\":12062:12064   */\n      0x40\n        /* \"#utility.yul\":12057:12060   */\n      dup3\n        /* \"#utility.yul\":12053:12065   */\n      add\n        /* \"#utility.yul\":12046:12065   */\n      swap1\n      pop\n        /* \"#utility.yul\":11705:12071   */\n      swap2\n      swap1\n      pop\n      jump\t// out\n        /* \"#utility.yul\":12077:12496   */\n    tag_228:\n        /* \"#utility.yul\":12243:12247   */\n      0x00\n        /* \"#utility.yul\":12281:12283   */\n      0x20\n        /* \"#utility.yul\":12270:12279   */\n      dup3\n        /* \"#utility.yul\":12266:12284   */\n      add\n        /* \"#utility.yul\":12258:12284   */\n      swap1\n      pop\n        /* \"#utility.yul\":12330:12339   */\n      dup2\n        /* \"#utility.yul\":12324:12328   */\n      dup2\n        /* \"#utility.yul\":12320:12340   */\n      sub\n        /* \"#utility.yul\":12316:12317   */\n      0x00\n        /* \"#utility.yul\":12305:12314   */\n      dup4\n        /* \"#utility.yul\":12301:12318   */\n      add\n        /* \"#utility.yul\":12294:12341   */\n      mstore\n        /* \"#utility.yul\":12358:12489   */\n      tag_515\n        /* \"#utility.yul\":12484:12488   */\n      dup2\n        /* \"#utility.yul\":12358:12489   */\n      tag_380\n      jump\t// in\n    tag_515:\n        /* \"#utility.yul\":12350:12489   */\n      swap1\n      pop\n        /* \"#utility.yul\":12077:12496   */\n      swap2\n      swap1\n      pop\n      jump\t// out\n        /* \"#utility.yul\":12502:12681   */\n    tag_381:\n        /* \"#utility.yul\":12642:12673   */\n      0x45524332303a20696e73756666696369656e7420616c6c6f77616e6365000000\n        /* \"#utility.yul\":12638:12639   */\n      0x00\n        /* \"#utility.yul\":12630:12636   */\n      dup3\n        /* \"#utility.yul\":12626:12640   */\n      add\n        /* \"#utility.yul\":12619:12674   */\n      mstore\n        /* \"#utility.yul\":12502:12681   */\n      pop\n      jump\t// out\n        /* \"#utility.yul\":12687:13053   */\n    tag_382:\n        /* \"#utility.yul\":12829:12832   */\n      0x00\n        /* \"#utility.yul\":12850:12917   */\n      tag_518\n        /* \"#utility.yul\":12914:12916   */\n      0x1d\n        /* \"#utility.yul\":12909:12912   */\n      dup4\n        /* \"#utility.yul\":12850:12917   */\n      tag_349\n      jump\t// in\n    tag_518:\n        /* \"#utility.yul\":12843:12917   */\n      swap2\n      pop\n        /* \"#utility.yul\":12926:13019   */\n      tag_519\n        /* \"#utility.yul\":13015:13018   */\n      dup3\n        /* \"#utility.yul\":12926:13019   */\n      tag_381\n      jump\t// in\n    tag_519:\n        /* \"#utility.yul\":13044:13046   */\n      0x20\n        /* \"#utility.yul\":13039:13042   */\n      dup3\n        /* \"#utility.yul\":13035:13047   */\n      add\n        /* \"#utility.yul\":13028:13047   */\n      swap1\n      pop\n        /* \"#utility.yul\":12687:13053   */\n      swap2\n      swap1\n      pop\n      jump\t// out\n        /* \"#utility.yul\":13059:13478   */\n    tag_235:\n        /* \"#utility.yul\":13225:13229   */\n      0x00\n        /* \"#utility.yul\":13263:13265   */\n      0x20\n        /* \"#utility.yul\":13252:13261   */\n      dup3\n        /* \"#utility.yul\":13248:13266   */\n      add\n        /* \"#utility.yul\":13240:13266   */\n      swap1\n      pop\n        /* \"#utility.yul\":13312:13321   */\n      dup2\n        /* \"#utility.yul\":13306:13310   */\n      dup2\n        /* \"#utility.yul\":13302:13322   */\n      sub\n        /* \"#utility.yul\":13298:13299   */\n      0x00\n        /* \"#utility.yul\":13287:13296   */\n      dup4\n        /* \"#utility.yul\":13283:13300   */\n      add\n        /* \"#utility.yul\":13276:13323   */\n      mstore\n        /* \"#utility.yul\":13340:13471   */\n      tag_521\n        /* \"#utility.yul\":13466:13470   */\n      dup2\n        /* \"#utility.yul\":13340:13471   */\n      tag_382\n      jump\t// in\n    tag_521:\n        /* \"#utility.yul\":13332:13471   */\n      swap1\n      pop\n        /* \"#utility.yul\":13059:13478   */\n      swap2\n      swap1\n      pop\n      jump\t// out\n        /* \"#utility.yul\":13484:13708   */\n    tag_383:\n        /* \"#utility.yul\":13624:13658   */\n      0x45524332303a207472616e736665722066726f6d20746865207a65726f206164\n        /* \"#utility.yul\":13620:13621   */\n      0x00\n        /* \"#utility.yul\":13612:13618   */\n      dup3\n        /* \"#utility.yul\":13608:13622   */\n      add\n        /* \"#utility.yul\":13601:13659   */\n      mstore\n        /* \"#utility.yul\":13693:13700   */\n      0x6472657373000000000000000000000000000000000000000000000000000000\n        /* \"#utility.yul\":13688:13690   */\n      0x20\n        /* \"#utility.yul\":13680:13686   */\n      dup3\n        /* \"#utility.yul\":13676:13691   */\n      add\n        /* \"#utility.yul\":13669:13701   */\n      mstore\n        /* \"#utility.yul\":13484:13708   */\n      pop\n      jump\t// out\n        /* \"#utility.yul\":13714:14080   */\n    tag_384:\n        /* \"#utility.yul\":13856:13859   */\n      0x00\n        /* \"#utility.yul\":13877:13944   */\n      tag_524\n        /* \"#utility.yul\":13941:13943   */\n      0x25\n        /* \"#utility.yul\":13936:13939   */\n      dup4\n        /* \"#utility.yul\":13877:13944   */\n      tag_349\n      jump\t// in\n    tag_524:\n        /* \"#utility.yul\":13870:13944   */\n      swap2\n      pop\n        /* \"#utility.yul\":13953:14046   */\n      tag_525\n        /* \"#utility.yul\":14042:14045   */\n      dup3\n        /* \"#utility.yul\":13953:14046   */\n      tag_383\n      jump\t// in\n    tag_525:\n        /* \"#utility.yul\":14071:14073   */\n      0x40\n        /* \"#utility.yul\":14066:14069   */\n      dup3\n        /* \"#utility.yul\":14062:14074   */\n      add\n        /* \"#utility.yul\":14055:14074   */\n      swap1\n      pop\n        /* \"#utility.yul\":13714:14080   */\n      swap2\n      swap1\n      pop\n      jump\t// out\n        /* \"#utility.yul\":14086:14505   */\n    tag_240:\n        /* \"#utility.yul\":14252:14256   */\n      0x00\n        /* \"#utility.yul\":14290:14292   */\n      0x20\n        /* \"#utility.yul\":14279:14288   */\n      dup3\n        /* \"#utility.yul\":14275:14293   */\n      add\n        /* \"#utility.yul\":14267:14293   */\n      swap1\n      pop\n        /* \"#utility.yul\":14339:14348   */\n      dup2\n        /* \"#utility.yul\":14333:14337   */\n      dup2\n        /* \"#utility.yul\":14329:14349   */\n      sub\n        /* \"#utility.yul\":14325:14326   */\n      0x00\n        /* \"#utility.yul\":14314:14323   */\n      dup4\n        /* \"#utility.yul\":14310:14327   */\n      add\n        /* \"#utility.yul\":14303:14350   */\n      mstore\n        /* \"#utility.yul\":14367:14498   */\n      tag_527\n        /* \"#utility.yul\":14493:14497   */\n      dup2\n        /* \"#utility.yul\":14367:14498   */\n      tag_384\n      jump\t// in\n    tag_527:\n        /* \"#utility.yul\":14359:14498   */\n      swap1\n      pop\n        /* \"#utility.yul\":14086:14505   */\n      swap2\n      swap1\n      pop\n      jump\t// out\n        /* \"#utility.yul\":14511:14733   */\n    tag_385:\n        /* \"#utility.yul\":14651:14685   */\n      0x45524332303a207472616e7366657220746f20746865207a65726f2061646472\n        /* \"#utility.yul\":14647:14648   */\n      0x00\n        /* \"#utility.yul\":14639:14645   */\n      dup3\n        /* \"#utility.yul\":14635:14649   */\n      add\n        /* \"#utility.yul\":14628:14686   */\n      mstore\n        /* \"#utility.yul\":14720:14725   */\n      0x6573730000000000000000000000000000000000000000000000000000000000\n        /* \"#utility.yul\":14715:14717   */\n      0x20\n        /* \"#utility.yul\":14707:14713   */\n      dup3\n        /* \"#utility.yul\":14703:14718   */\n      add\n        /* \"#utility.yul\":14696:14726   */\n      mstore\n        /* \"#utility.yul\":14511:14733   */\n      pop\n      jump\t// out\n        /* \"#utility.yul\":14739:15105   */\n    tag_386:\n        /* \"#utility.yul\":14881:14884   */\n      0x00\n        /* \"#utility.yul\":14902:14969   */\n      tag_530\n        /* \"#utility.yul\":14966:14968   */\n      0x23\n        /* \"#utility.yul\":14961:14964   */\n      dup4\n        /* \"#utility.yul\":14902:14969   */\n      tag_349\n      jump\t// in\n    tag_530:\n        /* \"#utility.yul\":14895:14969   */\n      swap2\n      pop\n        /* \"#utility.yul\":14978:15071   */\n      tag_531\n        /* \"#utility.yul\":15067:15070   */\n      dup3\n        /* \"#utility.yul\":14978:15071   */\n      tag_385\n      jump\t// in\n    tag_531:\n        /* \"#utility.yul\":15096:15098   */\n      0x40\n        /* \"#utility.yul\":15091:15094   */\n      dup3\n        /* \"#utility.yul\":15087:15099   */\n      add\n        /* \"#utility.yul\":15080:15099   */\n      swap1\n      pop\n        /* \"#utility.yul\":14739:15105   */\n      swap2\n      swap1\n      pop\n      jump\t// out\n        /* \"#utility.yul\":15111:15530   */\n    tag_243:\n        /* \"#utility.yul\":15277:15281   */\n      0x00\n        /* \"#utility.yul\":15315:15317   */\n      0x20\n        /* \"#utility.yul\":15304:15313   */\n      dup3\n        /* \"#utility.yul\":15300:15318   */\n      add\n        /* \"#utility.yul\":15292:15318   */\n      swap1\n      pop\n        /* \"#utility.yul\":15364:15373   */\n      dup2\n        /* \"#utility.yul\":15358:15362   */\n      dup2\n        /* \"#utility.yul\":15354:15374   */\n      sub\n        /* \"#utility.yul\":15350:15351   */\n      0x00\n        /* \"#utility.yul\":15339:15348   */\n      dup4\n        /* \"#utility.yul\":15335:15352   */\n      add\n        /* \"#utility.yul\":15328:15375   */\n      mstore\n        /* \"#utility.yul\":15392:15523   */\n      tag_533\n        /* \"#utility.yul\":15518:15522   */\n      dup2\n        /* \"#utility.yul\":15392:15523   */\n      tag_386\n      jump\t// in\n    tag_533:\n        /* \"#utility.yul\":15384:15523   */\n      swap1\n      pop\n        /* \"#utility.yul\":15111:15530   */\n      swap2\n      swap1\n      pop\n      jump\t// out\n        /* \"#utility.yul\":15536:15761   */\n    tag_387:\n        /* \"#utility.yul\":15676:15710   */\n      0x45524332303a207472616e7366657220616d6f756e7420657863656564732062\n        /* \"#utility.yul\":15672:15673   */\n      0x00\n        /* \"#utility.yul\":15664:15670   */\n      dup3\n        /* \"#utility.yul\":15660:15674   */\n      add\n        /* \"#utility.yul\":15653:15711   */\n      mstore\n        /* \"#utility.yul\":15745:15753   */\n      0x616c616e63650000000000000000000000000000000000000000000000000000\n        /* \"#utility.yul\":15740:15742   */\n      0x20\n        /* \"#utility.yul\":15732:15738   */\n      dup3\n        /* \"#utility.yul\":15728:15743   */\n      add\n        /* \"#utility.yul\":15721:15754   */\n      mstore\n        /* \"#utility.yul\":15536:15761   */\n      pop\n      jump\t// out\n        /* \"#utility.yul\":15767:16133   */\n    tag_388:\n        /* \"#utility.yul\":15909:15912   */\n      0x00\n        /* \"#utility.yul\":15930:15997   */\n      tag_536\n        /* \"#utility.yul\":15994:15996   */\n      0x26\n        /* \"#utility.yul\":15989:15992   */\n      dup4\n        /* \"#utility.yul\":15930:15997   */\n      tag_349\n      jump\t// in\n    tag_536:\n        /* \"#utility.yul\":15923:15997   */\n      swap2\n      pop\n        /* \"#utility.yul\":16006:16099   */\n      tag_537\n        /* \"#utility.yul\":16095:16098   */\n      dup3\n        /* \"#utility.yul\":16006:16099   */\n      tag_387\n      jump\t// in\n    tag_537:\n        /* \"#utility.yul\":16124:16126   */\n      0x40\n        /* \"#utility.yul\":16119:16122   */\n      dup3\n        /* \"#utility.yul\":16115:16127   */\n      add\n        /* \"#utility.yul\":16108:16127   */\n      swap1\n      pop\n        /* \"#utility.yul\":15767:16133   */\n      swap2\n      swap1\n      pop\n      jump\t// out\n        /* \"#utility.yul\":16139:16558   */\n    tag_248:\n        /* \"#utility.yul\":16305:16309   */\n      0x00\n        /* \"#utility.yul\":16343:16345   */\n      0x20\n        /* \"#utility.yul\":16332:16341   */\n      dup3\n        /* \"#utility.yul\":16328:16346   */\n      add\n        /* \"#utility.yul\":16320:16346   */\n      swap1\n      pop\n        /* \"#utility.yul\":16392:16401   */\n      dup2\n        /* \"#utility.yul\":16386:16390   */\n      dup2\n        /* \"#utility.yul\":16382:16402   */\n      sub\n        /* \"#utility.yul\":16378:16379   */\n      0x00\n        /* \"#utility.yul\":16367:16376   */\n      dup4\n        /* \"#utility.yul\":16363:16380   */\n      add\n        /* \"#utility.yul\":16356:16403   */\n      mstore\n        /* \"#utility.yul\":16420:16551   */\n      tag_539\n        /* \"#utility.yul\":16546:16550   */\n      dup2\n        /* \"#utility.yul\":16420:16551   */\n      tag_388\n      jump\t// in\n    tag_539:\n        /* \"#utility.yul\":16412:16551   */\n      swap1\n      pop\n        /* \"#utility.yul\":16139:16558   */\n      swap2\n      swap1\n      pop\n      jump\t// out\n        /* \"#utility.yul\":16564:16745   */\n    tag_389:\n        /* \"#utility.yul\":16704:16737   */\n      0x45524332303a206d696e7420746f20746865207a65726f206164647265737300\n        /* \"#utility.yul\":16700:16701   */\n      0x00\n        /* \"#utility.yul\":16692:16698   */\n      dup3\n        /* \"#utility.yul\":16688:16702   */\n      add\n        /* \"#utility.yul\":16681:16738   */\n      mstore\n        /* \"#utility.yul\":16564:16745   */\n      pop\n      jump\t// out\n        /* \"#utility.yul\":16751:17117   */\n    tag_390:\n        /* \"#utility.yul\":16893:16896   */\n      0x00\n        /* \"#utility.yul\":16914:16981   */\n      tag_542\n        /* \"#utility.yul\":16978:16980   */\n      0x1f\n        /* \"#utility.yul\":16973:16976   */\n      dup4\n        /* \"#utility.yul\":16914:16981   */\n      tag_349\n      jump\t// in\n    tag_542:\n        /* \"#utility.yul\":16907:16981   */\n      swap2\n      pop\n        /* \"#utility.yul\":16990:17083   */\n      tag_543\n        /* \"#utility.yul\":17079:17082   */\n      dup3\n        /* \"#utility.yul\":16990:17083   */\n      tag_389\n      jump\t// in\n    tag_543:\n        /* \"#utility.yul\":17108:17110   */\n      0x20\n        /* \"#utility.yul\":17103:17106   */\n      dup3\n        /* \"#utility.yul\":17099:17111   */\n      add\n        /* \"#utility.yul\":17092:17111   */\n      swap1\n      pop\n        /* \"#utility.yul\":16751:17117   */\n      swap2\n      swap1\n      pop\n      jump\t// out\n        /* \"#utility.yul\":17123:17542   */\n    tag_256:\n        /* \"#utility.yul\":17289:17293   */\n      0x00\n        /* \"#utility.yul\":17327:17329   */\n      0x20\n        /* \"#utility.yul\":17316:17325   */\n      dup3\n        /* \"#utility.yul\":17312:17330   */\n      add\n        /* \"#utility.yul\":17304:17330   */\n      swap1\n      pop\n        /* \"#utility.yul\":17376:17385   */\n      dup2\n        /* \"#utility.yul\":17370:17374   */\n      dup2\n        /* \"#utility.yul\":17366:17386   */\n      sub\n        /* \"#utility.yul\":17362:17363   */\n      0x00\n        /* \"#utility.yul\":17351:17360   */\n      dup4\n        /* \"#utility.yul\":17347:17364   */\n      add\n        /* \"#utility.yul\":17340:17387   */\n      mstore\n        /* \"#utility.yul\":17404:17535   */\n      tag_545\n        /* \"#utility.yul\":17530:17534   */\n      dup2\n        /* \"#utility.yul\":17404:17535   */\n      tag_390\n      jump\t// in\n    tag_545:\n        /* \"#utility.yul\":17396:17535   */\n      swap1\n      pop\n        /* \"#utility.yul\":17123:17542   */\n      swap2\n      swap1\n      pop\n      jump\t// out\n        /* \"#utility.yul\":17548:17768   */\n    tag_391:\n        /* \"#utility.yul\":17688:17722   */\n      0x45524332303a206275726e2066726f6d20746865207a65726f20616464726573\n        /* \"#utility.yul\":17684:17685   */\n      0x00\n        /* \"#utility.yul\":17676:17682   */\n      dup3\n        /* \"#utility.yul\":17672:17686   */\n      add\n        /* \"#utility.yul\":17665:17723   */\n      mstore\n        /* \"#utility.yul\":17757:17760   */\n      0x7300000000000000000000000000000000000000000000000000000000000000\n        /* \"#utility.yul\":17752:17754   */\n      0x20\n        /* \"#utility.yul\":17744:17750   */\n      dup3\n        /* \"#utility.yul\":17740:17755   */\n      add\n        /* \"#utility.yul\":17733:17761   */\n      mstore\n        /* \"#utility.yul\":17548:17768   */\n      pop\n      jump\t// out\n        /* \"#utility.yul\":17774:18140   */\n    tag_392:\n        /* \"#utility.yul\":17916:17919   */\n      0x00\n        /* \"#utility.yul\":17937:18004   */\n      tag_548\n        /* \"#utility.yul\":18001:18003   */\n      0x21\n        /* \"#utility.yul\":17996:17999   */\n      dup4\n        /* \"#utility.yul\":17937:18004   */\n      tag_349\n      jump\t// in\n    tag_548:\n        /* \"#utility.yul\":17930:18004   */\n      swap2\n      pop\n        /* \"#utility.yul\":18013:18106   */\n      tag_549\n        /* \"#utility.yul\":18102:18105   */\n      dup3\n        /* \"#utility.yul\":18013:18106   */\n      tag_391\n      jump\t// in\n    tag_549:\n        /* \"#utility.yul\":18131:18133   */\n      0x40\n        /* \"#utility.yul\":18126:18129   */\n      dup3\n        /* \"#utility.yul\":18122:18134   */\n      add\n        /* \"#utility.yul\":18115:18134   */\n      swap1\n      pop\n        /* \"#utility.yul\":17774:18140   */\n      swap2\n      swap1\n      pop\n      jump\t// out\n        /* \"#utility.yul\":18146:18565   */\n    tag_265:\n        /* \"#utility.yul\":18312:18316   */\n      0x00\n        /* \"#utility.yul\":18350:18352   */\n      0x20\n        /* \"#utility.yul\":18339:18348   */\n      dup3\n        /* \"#utility.yul\":18335:18353   */\n      add\n        /* \"#utility.yul\":18327:18353   */\n      swap1\n      pop\n        /* \"#utility.yul\":18399:18408   */\n      dup2\n        /* \"#utility.yul\":18393:18397   */\n      dup2\n        /* \"#utility.yul\":18389:18409   */\n      sub\n        /* \"#utility.yul\":18385:18386   */\n      0x00\n        /* \"#utility.yul\":18374:18383   */\n      dup4\n        /* \"#utility.yul\":18370:18387   */\n      add\n        /* \"#utility.yul\":18363:18410   */\n      mstore\n        /* \"#utility.yul\":18427:18558   */\n      tag_551\n        /* \"#utility.yul\":18553:18557   */\n      dup2\n        /* \"#utility.yul\":18427:18558   */\n      tag_392\n      jump\t// in\n    tag_551:\n        /* \"#utility.yul\":18419:18558   */\n      swap1\n      pop\n        /* \"#utility.yul\":18146:18565   */\n      swap2\n      swap1\n      pop\n      jump\t// out\n        /* \"#utility.yul\":18571:18792   */\n    tag_393:\n        /* \"#utility.yul\":18711:18745   */\n      0x45524332303a206275726e20616d6f756e7420657863656564732062616c616e\n        /* \"#utility.yul\":18707:18708   */\n      0x00\n        /* \"#utility.yul\":18699:18705   */\n      dup3\n        /* \"#utility.yul\":18695:18709   */\n      add\n        /* \"#utility.yul\":18688:18746   */\n      mstore\n        /* \"#utility.yul\":18780:18784   */\n      0x6365000000000000000000000000000000000000000000000000000000000000\n        /* \"#utility.yul\":18775:18777   */\n      0x20\n        /* \"#utility.yul\":18767:18773   */\n      dup3\n        /* \"#utility.yul\":18763:18778   */\n      add\n        /* \"#utility.yul\":18756:18785   */\n      mstore\n        /* \"#utility.yul\":18571:18792   */\n      pop\n      jump\t// out\n        /* \"#utility.yul\":18798:19164   */\n    tag_394:\n        /* \"#utility.yul\":18940:18943   */\n      0x00\n        /* \"#utility.yul\":18961:19028   */\n      tag_554\n        /* \"#utility.yul\":19025:19027   */\n      0x22\n        /* \"#utility.yul\":19020:19023   */\n      dup4\n        /* \"#utility.yul\":18961:19028   */\n      tag_349\n      jump\t// in\n    tag_554:\n        /* \"#utility.yul\":18954:19028   */\n      swap2\n      pop\n        /* \"#utility.yul\":19037:19130   */\n      tag_555\n        /* \"#utility.yul\":19126:19129   */\n      dup3\n        /* \"#utility.yul\":19037:19130   */\n      tag_393\n      jump\t// in\n    tag_555:\n        /* \"#utility.yul\":19155:19157   */\n      0x40\n        /* \"#utility.yul\":19150:19153   */\n      dup3\n        /* \"#utility.yul\":19146:19158   */\n      add\n        /* \"#utility.yul\":19139:19158   */\n      swap1\n      pop\n        /* \"#utility.yul\":18798:19164   */\n      swap2\n      swap1\n      pop\n      jump\t// out\n        /* \"#utility.yul\":19170:19589   */\n    tag_269:\n        /* \"#utility.yul\":19336:19340   */\n      0x00\n        /* \"#utility.yul\":19374:19376   */\n      0x20\n        /* \"#utility.yul\":19363:19372   */\n      dup3\n        /* \"#utility.yul\":19359:19377   */\n      add\n        /* \"#utility.yul\":19351:19377   */\n      swap1\n      pop\n        /* \"#utility.yul\":19423:19432   */\n      dup2\n        /* \"#utility.yul\":19417:19421   */\n      dup2\n        /* \"#utility.yul\":19413:19433   */\n      sub\n        /* \"#utility.yul\":19409:19410   */\n      0x00\n        /* \"#utility.yul\":19398:19407   */\n      dup4\n        /* \"#utility.yul\":19394:19411   */\n      add\n        /* \"#utility.yul\":19387:19434   */\n      mstore\n        /* \"#utility.yul\":19451:19582   */\n      tag_557\n        /* \"#utility.yul\":19577:19581   */\n      dup2\n        /* \"#utility.yul\":19451:19582   */\n      tag_394\n      jump\t// in\n    tag_557:\n        /* \"#utility.yul\":19443:19582   */\n      swap1\n      pop\n        /* \"#utility.yul\":19170:19589   */\n      swap2\n      swap1\n      pop\n      jump\t// out\n        /* \"#utility.yul\":19595:19786   */\n    tag_271:\n        /* \"#utility.yul\":19635:19639   */\n      0x00\n        /* \"#utility.yul\":19655:19675   */\n      tag_559\n        /* \"#utility.yul\":19673:19674   */\n      dup3\n        /* \"#utility.yul\":19655:19675   */\n      tag_360\n      jump\t// in\n    tag_559:\n        /* \"#utility.yul\":19650:19675   */\n      swap2\n      pop\n        /* \"#utility.yul\":19689:19709   */\n      tag_560\n        /* \"#utility.yul\":19707:19708   */\n      dup4\n        /* \"#utility.yul\":19689:19709   */\n      tag_360\n      jump\t// in\n    tag_560:\n        /* \"#utility.yul\":19684:19709   */\n      swap3\n      pop\n        /* \"#utility.yul\":19728:19729   */\n      dup3\n        /* \"#utility.yul\":19725:19726   */\n      dup3\n        /* \"#utility.yul\":19722:19730   */\n      lt\n        /* \"#utility.yul\":19719:19753   */\n      iszero\n      tag_561\n      jumpi\n        /* \"#utility.yul\":19733:19751   */\n      tag_562\n      tag_370\n      jump\t// in\n    tag_562:\n        /* \"#utility.yul\":19719:19753   */\n    tag_561:\n        /* \"#utility.yul\":19778:19779   */\n      dup3\n        /* \"#utility.yul\":19775:19776   */\n      dup3\n        /* \"#utility.yul\":19771:19780   */\n      sub\n        /* \"#utility.yul\":19763:19780   */\n      swap1\n      pop\n        /* \"#utility.yul\":19595:19786   */\n      swap3\n      swap2\n      pop\n      pop\n      jump\t// out\n        /* \"#utility.yul\":19792:19964   */\n    tag_395:\n        /* \"#utility.yul\":19932:19956   */\n      0x4552433230536e617073686f743a206964206973203000000000000000000000\n        /* \"#utility.yul\":19928:19929   */\n      0x00\n        /* \"#utility.yul\":19920:19926   */\n      dup3\n        /* \"#utility.yul\":19916:19930   */\n      add\n        /* \"#utility.yul\":19909:19957   */\n      mstore\n        /* \"#utility.yul\":19792:19964   */\n      pop\n      jump\t// out\n        /* \"#utility.yul\":19970:20336   */\n    tag_396:\n        /* \"#utility.yul\":20112:20115   */\n      0x00\n        /* \"#utility.yul\":20133:20200   */\n      tag_565\n        /* \"#utility.yul\":20197:20199   */\n      0x16\n        /* \"#utility.yul\":20192:20195   */\n      dup4\n        /* \"#utility.yul\":20133:20200   */\n      tag_349\n      jump\t// in\n    tag_565:\n        /* \"#utility.yul\":20126:20200   */\n      swap2\n      pop\n        /* \"#utility.yul\":20209:20302   */\n      tag_566\n        /* \"#utility.yul\":20298:20301   */\n      dup3\n        /* \"#utility.yul\":20209:20302   */\n      tag_395\n      jump\t// in\n    tag_566:\n        /* \"#utility.yul\":20327:20329   */\n      0x20\n        /* \"#utility.yul\":20322:20325   */\n      dup3\n        /* \"#utility.yul\":20318:20330   */\n      add\n        /* \"#utility.yul\":20311:20330   */\n      swap1\n      pop\n        /* \"#utility.yul\":19970:20336   */\n      swap2\n      swap1\n      pop\n      jump\t// out\n        /* \"#utility.yul\":20342:20761   */\n    tag_277:\n        /* \"#utility.yul\":20508:20512   */\n      0x00\n        /* \"#utility.yul\":20546:20548   */\n      0x20\n        /* \"#utility.yul\":20535:20544   */\n      dup3\n        /* \"#utility.yul\":20531:20549   */\n      add\n        /* \"#utility.yul\":20523:20549   */\n      swap1\n      pop\n        /* \"#utility.yul\":20595:20604   */\n      dup2\n        /* \"#utility.yul\":20589:20593   */\n      dup2\n        /* \"#utility.yul\":20585:20605   */\n      sub\n        /* \"#utility.yul\":20581:20582   */\n      0x00\n        /* \"#utility.yul\":20570:20579   */\n      dup4\n        /* \"#utility.yul\":20566:20583   */\n      add\n        /* \"#utility.yul\":20559:20606   */\n      mstore\n        /* \"#utility.yul\":20623:20754   */\n      tag_568\n        /* \"#utility.yul\":20749:20753   */\n      dup2\n        /* \"#utility.yul\":20623:20754   */\n      tag_396\n      jump\t// in\n    tag_568:\n        /* \"#utility.yul\":20615:20754   */\n      swap1\n      pop\n        /* \"#utility.yul\":20342:20761   */\n      swap2\n      swap1\n      pop\n      jump\t// out\n        /* \"#utility.yul\":20767:20946   */\n    tag_397:\n        /* \"#utility.yul\":20907:20938   */\n      0x4552433230536e617073686f743a206e6f6e6578697374656e74206964000000\n        /* \"#utility.yul\":20903:20904   */\n      0x00\n        /* \"#utility.yul\":20895:20901   */\n      dup3\n        /* \"#utility.yul\":20891:20905   */\n      add\n        /* \"#utility.yul\":20884:20939   */\n      mstore\n        /* \"#utility.yul\":20767:20946   */\n      pop\n      jump\t// out\n        /* \"#utility.yul\":20952:21318   */\n    tag_398:\n        /* \"#utility.yul\":21094:21097   */\n      0x00\n        /* \"#utility.yul\":21115:21182   */\n      tag_571\n        /* \"#utility.yul\":21179:21181   */\n      0x1d\n        /* \"#utility.yul\":21174:21177   */\n      dup4\n        /* \"#utility.yul\":21115:21182   */\n      tag_349\n      jump\t// in\n    tag_571:\n        /* \"#utility.yul\":21108:21182   */\n      swap2\n      pop\n        /* \"#utility.yul\":21191:21284   */\n      tag_572\n        /* \"#utility.yul\":21280:21283   */\n      dup3\n        /* \"#utility.yul\":21191:21284   */\n      tag_397\n      jump\t// in\n    tag_572:\n        /* \"#utility.yul\":21309:21311   */\n      0x20\n        /* \"#utility.yul\":21304:21307   */\n      dup3\n        /* \"#utility.yul\":21300:21312   */\n      add\n        /* \"#utility.yul\":21293:21312   */\n      swap1\n      pop\n        /* \"#utility.yul\":20952:21318   */\n      swap2\n      swap1\n      pop\n      jump\t// out\n        /* \"#utility.yul\":21324:21743   */\n    tag_282:\n        /* \"#utility.yul\":21490:21494   */\n      0x00\n        /* \"#utility.yul\":21528:21530   */\n      0x20\n        /* \"#utility.yul\":21517:21526   */\n      dup3\n        /* \"#utility.yul\":21513:21531   */\n      add\n        /* \"#utility.yul\":21505:21531   */\n      swap1\n      pop\n        /* \"#utility.yul\":21577:21586   */\n      dup2\n        /* \"#utility.yul\":21571:21575   */\n      dup2\n        /* \"#utility.yul\":21567:21587   */\n      sub\n        /* \"#utility.yul\":21563:21564   */\n      0x00\n        /* \"#utility.yul\":21552:21561   */\n      dup4\n        /* \"#utility.yul\":21548:21565   */\n      add\n        /* \"#utility.yul\":21541:21588   */\n      mstore\n        /* \"#utility.yul\":21605:21736   */\n      tag_574\n        /* \"#utility.yul\":21731:21735   */\n      dup2\n        /* \"#utility.yul\":21605:21736   */\n      tag_398\n      jump\t// in\n    tag_574:\n        /* \"#utility.yul\":21597:21736   */\n      swap1\n      pop\n        /* \"#utility.yul\":21324:21743   */\n      swap2\n      swap1\n      pop\n      jump\t// out\n        /* \"#utility.yul\":21749:21929   */\n    tag_289:\n        /* \"#utility.yul\":21797:21874   */\n      0x4e487b7100000000000000000000000000000000000000000000000000000000\n        /* \"#utility.yul\":21794:21795   */\n      0x00\n        /* \"#utility.yul\":21787:21875   */\n      mstore\n        /* \"#utility.yul\":21894:21898   */\n      0x32\n        /* \"#utility.yul\":21891:21892   */\n      0x04\n        /* \"#utility.yul\":21884:21899   */\n      mstore\n        /* \"#utility.yul\":21918:21922   */\n      0x24\n        /* \"#utility.yul\":21915:21916   */\n      0x00\n        /* \"#utility.yul\":21908:21923   */\n      revert\n        /* \"#utility.yul\":21935:22115   */\n    tag_399:\n        /* \"#utility.yul\":21983:22060   */\n      0x4e487b7100000000000000000000000000000000000000000000000000000000\n        /* \"#utility.yul\":21980:21981   */\n      0x00\n        /* \"#utility.yul\":21973:22061   */\n      mstore\n        /* \"#utility.yul\":22080:22084   */\n      0x12\n        /* \"#utility.yul\":22077:22078   */\n      0x04\n        /* \"#utility.yul\":22070:22085   */\n      mstore\n        /* \"#utility.yul\":22104:22108   */\n      0x24\n        /* \"#utility.yul\":22101:22102   */\n      0x00\n        /* \"#utility.yul\":22094:22109   */\n      revert\n        /* \"#utility.yul\":22121:22306   */\n    tag_339:\n        /* \"#utility.yul\":22161:22162   */\n      0x00\n        /* \"#utility.yul\":22178:22198   */\n      tag_578\n        /* \"#utility.yul\":22196:22197   */\n      dup3\n        /* \"#utility.yul\":22178:22198   */\n      tag_360\n      jump\t// in\n    tag_578:\n        /* \"#utility.yul\":22173:22198   */\n      swap2\n      pop\n        /* \"#utility.yul\":22212:22232   */\n      tag_579\n        /* \"#utility.yul\":22230:22231   */\n      dup4\n        /* \"#utility.yul\":22212:22232   */\n      tag_360\n      jump\t// in\n    tag_579:\n        /* \"#utility.yul\":22207:22232   */\n      swap3\n      pop\n        /* \"#utility.yul\":22251:22252   */\n      dup3\n        /* \"#utility.yul\":22241:22276   */\n      tag_580\n      jumpi\n        /* \"#utility.yul\":22256:22274   */\n      tag_581\n      tag_399\n      jump\t// in\n    tag_581:\n        /* \"#utility.yul\":22241:22276   */\n    tag_580:\n        /* \"#utility.yul\":22298:22299   */\n      dup3\n        /* \"#utility.yul\":22295:22296   */\n      dup3\n        /* \"#utility.yul\":22291:22300   */\n      div\n        /* \"#utility.yul\":22286:22300   */\n      swap1\n      pop\n        /* \"#utility.yul\":22121:22306   */\n      swap3\n      swap2\n      pop\n      pop\n      jump\t// out\n\n    auxdata: 0xa2646970667358221220bd4409c12bcd0afc04ae8b043536fd2cd1f2273f9e5b9b18c79f46410ca8414d64736f6c634300080a0033\n}\n",
				"bytecode": {
					"linkReferences": {},
					"object": "60806040523480156200001157600080fd5b506040518060400160405280600981526020017f424f4d42546f6b656e00000000000000000000000000000000000000000000008152506040518060400160405280600281526020017f42540000000000000000000000000000000000000000000000000000000000008152508160039080519060200190620000969291906200066f565b508060049080519060200190620000af9291906200066f565b505050620000d2620000c66200011860201b60201c565b6200012060201b60201c565b6200011233620000e7620001e660201b60201c565b600a620000f59190620008b9565b633b9aca006200010691906200090a565b620001ef60201b60201c565b62000b48565b600033905090565b6000600960009054906101000a900473ffffffffffffffffffffffffffffffffffffffff16905081600960006101000a81548173ffffffffffffffffffffffffffffffffffffffff021916908373ffffffffffffffffffffffffffffffffffffffff1602179055508173ffffffffffffffffffffffffffffffffffffffff168173ffffffffffffffffffffffffffffffffffffffff167f8be0079c531659141344cd1fd0a4f28419497f9722a3daafe3b4186f6b6457e060405160405180910390a35050565b60006012905090565b600073ffffffffffffffffffffffffffffffffffffffff168273ffffffffffffffffffffffffffffffffffffffff16141562000262576040517f08c379a00000000000000000000000000000000000000000000000000000000081526004016200025990620009cc565b60405180910390fd5b62000276600083836200036860201b60201c565b80600260008282546200028a9190620009ee565b92505081905550806000808473ffffffffffffffffffffffffffffffffffffffff1673ffffffffffffffffffffffffffffffffffffffff1681526020019081526020016000206000828254620002e19190620009ee565b925050819055508173ffffffffffffffffffffffffffffffffffffffff16600073ffffffffffffffffffffffffffffffffffffffff167fddf252ad1be2c89b69c2b068fc378daa952ba7f163c4a11628f55a4df523b3ef8360405162000348919062000a5c565b60405180910390a362000364600083836200038560201b60201c565b5050565b620003808383836200038a60201b62000ab41760201c565b505050565b505050565b620003a28383836200048560201b62000b6e1760201c565b600073ffffffffffffffffffffffffffffffffffffffff168373ffffffffffffffffffffffffffffffffffffffff161415620003ff57620003e9826200048a60201b60201c565b620003f9620004ed60201b60201c565b62000480565b600073ffffffffffffffffffffffffffffffffffffffff168273ffffffffffffffffffffffffffffffffffffffff1614156200045c5762000446836200048a60201b60201c565b62000456620004ed60201b60201c565b6200047f565b6200046d836200048a60201b60201c565b6200047e826200048a60201b60201c565b5b5b505050565b505050565b620004ea600560008373ffffffffffffffffffffffffffffffffffffffff1673ffffffffffffffffffffffffffffffffffffffff168152602001908152602001600020620004de836200051160201b60201c565b6200055960201b60201c565b50565b6200050f600662000503620005e560201b60201c565b6200055960201b60201c565b565b60008060008373ffffffffffffffffffffffffffffffffffffffff1673ffffffffffffffffffffffffffffffffffffffff168152602001908152602001600020549050919050565b60006200056b620005ef60201b60201c565b90508062000582846000016200060d60201b60201c565b1015620005e05782600001819080600181540180825580915050600190039060005260206000200160009091909190915055826001018290806001815401808255809150506001900390600052602060002001600090919091909150555b505050565b6000600254905090565b60006200060860086200066160201b62000b731760201c565b905090565b600080828054905014156200062657600090506200065c565b81600183805490506200063a919062000a79565b815481106200064e576200064d62000ab4565b5b906000526020600020015490505b919050565b600081600001549050919050565b8280546200067d9062000b12565b90600052602060002090601f016020900481019282620006a15760008555620006ed565b82601f10620006bc57805160ff1916838001178555620006ed565b82800160010185558215620006ed579182015b82811115620006ec578251825591602001919060010190620006cf565b5b509050620006fc919062000700565b5090565b5b808211156200071b57600081600090555060010162000701565b5090565b7f4e487b7100000000000000000000000000000000000000000000000000000000600052601160045260246000fd5b60008160011c9050919050565b6000808291508390505b6001851115620007ad578086048111156200078557620007846200071f565b5b6001851615620007955780820291505b8081029050620007a5856200074e565b945062000765565b94509492505050565b600082620007c857600190506200089b565b81620007d857600090506200089b565b8160018114620007f15760028114620007fc5762000832565b60019150506200089b565b60ff8411156200081157620008106200071f565b5b8360020a9150848211156200082b576200082a6200071f565b5b506200089b565b5060208310610133831016604e8410600b84101617156200086c5782820a9050838111156200086657620008656200071f565b5b6200089b565b6200087b84848460016200075b565b925090508184048111156200089557620008946200071f565b5b81810290505b9392505050565b6000819050919050565b600060ff82169050919050565b6000620008c682620008a2565b9150620008d383620008ac565b9250620009027fffffffffffffffffffffffffffffffffffffffffffffffffffffffffffffffff8484620007b6565b905092915050565b60006200091782620008a2565b91506200092483620008a2565b9250817fffffffffffffffffffffffffffffffffffffffffffffffffffffffffffffffff048311821515161562000960576200095f6200071f565b5b828202905092915050565b600082825260208201905092915050565b7f45524332303a206d696e7420746f20746865207a65726f206164647265737300600082015250565b6000620009b4601f836200096b565b9150620009c1826200097c565b602082019050919050565b60006020820190508181036000830152620009e781620009a5565b9050919050565b6000620009fb82620008a2565b915062000a0883620008a2565b9250827fffffffffffffffffffffffffffffffffffffffffffffffffffffffffffffffff0382111562000a405762000a3f6200071f565b5b828201905092915050565b62000a5681620008a2565b82525050565b600060208201905062000a73600083018462000a4b565b92915050565b600062000a8682620008a2565b915062000a9383620008a2565b92508282101562000aa95762000aa86200071f565b5b828203905092915050565b7f4e487b7100000000000000000000000000000000000000000000000000000000600052603260045260246000fd5b7f4e487b7100000000000000000000000000000000000000000000000000000000600052602260045260246000fd5b6000600282049050600182168062000b2b57607f821691505b6020821081141562000b425762000b4162000ae3565b5b50919050565b6124748062000b586000396000f3fe608060405234801561001057600080fd5b506004361061012c5760003560e01c8063715018a6116100ad578063981b24d011610071578063981b24d01461031f578063a457c2d71461034f578063a9059cbb1461037f578063dd62ed3e146103af578063f2fde38b146103df5761012c565b8063715018a6146102b357806379cc6790146102bd5780638da5cb5b146102d957806395d89b41146102f75780639711715a146103155761012c565b806339509351116100f457806339509351146101eb57806340c10f191461021b57806342966c68146102375780634ee2cd7e1461025357806370a08231146102835761012c565b806306fdde0314610131578063095ea7b31461014f57806318160ddd1461017f57806323b872dd1461019d578063313ce567146101cd575b600080fd5b6101396103fb565b60405161014691906118ae565b60405180910390f35b61016960048036038101906101649190611969565b61048d565b60405161017691906119c4565b60405180910390f35b6101876104b0565b60405161019491906119ee565b60405180910390f35b6101b760048036038101906101b29190611a09565b6104ba565b6040516101c491906119c4565b60405180910390f35b6101d56104e9565b6040516101e29190611a78565b60405180910390f35b61020560048036038101906102009190611969565b6104f2565b60405161021291906119c4565b60405180910390f35b61023560048036038101906102309190611969565b610529565b005b610251600480360381019061024c9190611a93565b6105b3565b005b61026d60048036038101906102689190611969565b6105c7565b60405161027a91906119ee565b60405180910390f35b61029d60048036038101906102989190611ac0565b610637565b6040516102aa91906119ee565b60405180910390f35b6102bb61067f565b005b6102d760048036038101906102d29190611969565b610707565b005b6102e1610727565b6040516102ee9190611afc565b60405180910390f35b6102ff610751565b60405161030c91906118ae565b60405180910390f35b61031d6107e3565b005b61033960048036038101906103349190611a93565b61086a565b60405161034691906119ee565b60405180910390f35b61036960048036038101906103649190611969565b61089b565b60405161037691906119c4565b60405180910390f35b61039960048036038101906103949190611969565b610912565b6040516103a691906119c4565b60405180910390f35b6103c960048036038101906103c49190611b17565b610935565b6040516103d691906119ee565b60405180910390f35b6103f960048036038101906103f49190611ac0565b6109bc565b005b60606003805461040a90611b86565b80601f016020809104026020016040519081016040528092919081815260200182805461043690611b86565b80156104835780601f1061045857610100808354040283529160200191610483565b820191906000526020600020905b81548152906001019060200180831161046657829003601f168201915b5050505050905090565b600080610498610b81565b90506104a5818585610b89565b600191505092915050565b6000600254905090565b6000806104c5610b81565b90506104d2858285610d54565b6104dd858585610de0565b60019150509392505050565b60006012905090565b6000806104fd610b81565b905061051e81858561050f8589610935565b6105199190611be7565b610b89565b600191505092915050565b610531610b81565b73ffffffffffffffffffffffffffffffffffffffff1661054f610727565b73ffffffffffffffffffffffffffffffffffffffff16146105a5576040517f08c379a000000000000000000000000000000000000000000000000000000000815260040161059c90611c89565b60405180910390fd5b6105af8282611061565b5050565b6105c46105be610b81565b826111c1565b50565b600080600061061484600560008873ffffffffffffffffffffffffffffffffffffffff1673ffffffffffffffffffffffffffffffffffffffff168152602001908152602001600020611398565b915091508161062b5761062685610637565b61062d565b805b9250505092915050565b60008060008373ffffffffffffffffffffffffffffffffffffffff1673ffffffffffffffffffffffffffffffffffffffff168152602001908152602001600020549050919050565b610687610b81565b73ffffffffffffffffffffffffffffffffffffffff166106a5610727565b73ffffffffffffffffffffffffffffffffffffffff16146106fb576040517f08c379a00000000000000000000000000000000000000000000000000000000081526004016106f290611c89565b60405180910390fd5b610705600061148e565b565b61071982610713610b81565b83610d54565b61072382826111c1565b5050565b6000600960009054906101000a900473ffffffffffffffffffffffffffffffffffffffff16905090565b60606004805461076090611b86565b80601f016020809104026020016040519081016040528092919081815260200182805461078c90611b86565b80156107d95780601f106107ae576101008083540402835291602001916107d9565b820191906000526020600020905b8154815290600101906020018083116107bc57829003601f168201915b5050505050905090565b6107eb610b81565b73ffffffffffffffffffffffffffffffffffffffff16610809610727565b73ffffffffffffffffffffffffffffffffffffffff161461085f576040517f08c379a000000000000000000000000000000000000000000000000000000000815260040161085690611c89565b60405180910390fd5b610867611554565b50565b600080600061087a846006611398565b91509150816108905761088b6104b0565b610892565b805b92505050919050565b6000806108a6610b81565b905060006108b48286610935565b9050838110156108f9576040517f08c379a00000000000000000000000000000000000000000000000000000000081526004016108f090611d1b565b60405180910390fd5b6109068286868403610b89565b60019250505092915050565b60008061091d610b81565b905061092a818585610de0565b600191505092915050565b6000600160008473ffffffffffffffffffffffffffffffffffffffff1673ffffffffffffffffffffffffffffffffffffffff16815260200190815260200160002060008373ffffffffffffffffffffffffffffffffffffffff1673ffffffffffffffffffffffffffffffffffffffff16815260200190815260200160002054905092915050565b6109c4610b81565b73ffffffffffffffffffffffffffffffffffffffff166109e2610727565b73ffffffffffffffffffffffffffffffffffffffff1614610a38576040517f08c379a0000000000000000000000000000000000000000000000000000000008152600401610a2f90611c89565b60405180910390fd5b600073ffffffffffffffffffffffffffffffffffffffff168173ffffffffffffffffffffffffffffffffffffffff161415610aa8576040517f08c379a0000000000000000000000000000000000000000000000000000000008152600401610a9f90611dad565b60405180910390fd5b610ab18161148e565b50565b610abf838383610b6e565b600073ffffffffffffffffffffffffffffffffffffffff168373ffffffffffffffffffffffffffffffffffffffff161415610b0a57610afd826115aa565b610b056115fd565b610b69565b600073ffffffffffffffffffffffffffffffffffffffff168273ffffffffffffffffffffffffffffffffffffffff161415610b5557610b48836115aa565b610b506115fd565b610b68565b610b5e836115aa565b610b67826115aa565b5b5b505050565b505050565b600081600001549050919050565b600033905090565b600073ffffffffffffffffffffffffffffffffffffffff168373ffffffffffffffffffffffffffffffffffffffff161415610bf9576040517f08c379a0000000000000000000000000000000000000000000000000000000008152600401610bf090611e3f565b60405180910390fd5b600073ffffffffffffffffffffffffffffffffffffffff168273ffffffffffffffffffffffffffffffffffffffff161415610c69576040517f08c379a0000000000000000000000000000000000000000000000000000000008152600401610c6090611ed1565b60405180910390fd5b80600160008573ffffffffffffffffffffffffffffffffffffffff1673ffffffffffffffffffffffffffffffffffffffff16815260200190815260200160002060008473ffffffffffffffffffffffffffffffffffffffff1673ffffffffffffffffffffffffffffffffffffffff168152602001908152602001600020819055508173ffffffffffffffffffffffffffffffffffffffff168373ffffffffffffffffffffffffffffffffffffffff167f8c5be1e5ebec7d5bd14f71427d1e84f3dd0314c0f7b2291e5b200ac8c7c3b92583604051610d4791906119ee565b60405180910390a3505050565b6000610d608484610935565b90507fffffffffffffffffffffffffffffffffffffffffffffffffffffffffffffffff8114610dda5781811015610dcc576040517f08c379a0000000000000000000000000000000000000000000000000000000008152600401610dc390611f3d565b60405180910390fd5b610dd98484848403610b89565b5b50505050565b600073ffffffffffffffffffffffffffffffffffffffff168373ffffffffffffffffffffffffffffffffffffffff161415610e50576040517f08c379a0000000000000000000000000000000000000000000000000000000008152600401610e4790611fcf565b60405180910390fd5b600073ffffffffffffffffffffffffffffffffffffffff168273ffffffffffffffffffffffffffffffffffffffff161415610ec0576040517f08c379a0000000000000000000000000000000000000000000000000000000008152600401610eb790612061565b60405180910390fd5b610ecb838383611611565b60008060008573ffffffffffffffffffffffffffffffffffffffff1673ffffffffffffffffffffffffffffffffffffffff16815260200190815260200160002054905081811015610f51576040517f08c379a0000000000000000000000000000000000000000000000000000000008152600401610f48906120f3565b60405180910390fd5b8181036000808673ffffffffffffffffffffffffffffffffffffffff1673ffffffffffffffffffffffffffffffffffffffff16815260200190815260200160002081905550816000808573ffffffffffffffffffffffffffffffffffffffff1673ffffffffffffffffffffffffffffffffffffffff1681526020019081526020016000206000828254610fe49190611be7565b925050819055508273ffffffffffffffffffffffffffffffffffffffff168473ffffffffffffffffffffffffffffffffffffffff167fddf252ad1be2c89b69c2b068fc378daa952ba7f163c4a11628f55a4df523b3ef8460405161104891906119ee565b60405180910390a361105b848484611621565b50505050565b600073ffffffffffffffffffffffffffffffffffffffff168273ffffffffffffffffffffffffffffffffffffffff1614156110d1576040517f08c379a00000000000000000000000000000000000000000000000000000000081526004016110c89061215f565b60405180910390fd5b6110dd60008383611611565b80600260008282546110ef9190611be7565b92505081905550806000808473ffffffffffffffffffffffffffffffffffffffff1673ffffffffffffffffffffffffffffffffffffffff16815260200190815260200160002060008282546111449190611be7565b925050819055508173ffffffffffffffffffffffffffffffffffffffff16600073ffffffffffffffffffffffffffffffffffffffff167fddf252ad1be2c89b69c2b068fc378daa952ba7f163c4a11628f55a4df523b3ef836040516111a991906119ee565b60405180910390a36111bd60008383611621565b5050565b600073ffffffffffffffffffffffffffffffffffffffff168273ffffffffffffffffffffffffffffffffffffffff161415611231576040517f08c379a0000000000000000000000000000000000000000000000000000000008152600401611228906121f1565b60405180910390fd5b61123d82600083611611565b60008060008473ffffffffffffffffffffffffffffffffffffffff1673ffffffffffffffffffffffffffffffffffffffff168152602001908152602001600020549050818110156112c3576040517f08c379a00000000000000000000000000000000000000000000000000000000081526004016112ba90612283565b60405180910390fd5b8181036000808573ffffffffffffffffffffffffffffffffffffffff1673ffffffffffffffffffffffffffffffffffffffff16815260200190815260200160002081905550816002600082825461131a91906122a3565b92505081905550600073ffffffffffffffffffffffffffffffffffffffff168373ffffffffffffffffffffffffffffffffffffffff167fddf252ad1be2c89b69c2b068fc378daa952ba7f163c4a11628f55a4df523b3ef8460405161137f91906119ee565b60405180910390a361139383600084611621565b505050565b600080600084116113de576040517f08c379a00000000000000000000000000000000000000000000000000000000081526004016113d590612323565b60405180910390fd5b6113e6611626565b841115611428576040517f08c379a000000000000000000000000000000000000000000000000000000000815260040161141f9061238f565b60405180910390fd5b6000611440858560000161163790919063ffffffff16565b9050836000018054905081141561145e576000809250925050611487565b6001846001018281548110611476576114756123af565b5b906000526020600020015492509250505b9250929050565b6000600960009054906101000a900473ffffffffffffffffffffffffffffffffffffffff16905081600960006101000a81548173ffffffffffffffffffffffffffffffffffffffff021916908373ffffffffffffffffffffffffffffffffffffffff1602179055508173ffffffffffffffffffffffffffffffffffffffff168173ffffffffffffffffffffffffffffffffffffffff167f8be0079c531659141344cd1fd0a4f28419497f9722a3daafe3b4186f6b6457e060405160405180910390a35050565b60006115606008611711565b600061156a611626565b90507f8030e83b04d87bef53480e26263266d6ca66863aa8506aca6f2559d18aa1cb678160405161159b91906119ee565b60405180910390a18091505090565b6115fa600560008373ffffffffffffffffffffffffffffffffffffffff1673ffffffffffffffffffffffffffffffffffffffff1681526020019081526020016000206115f583610637565b611727565b50565b61160f600661160a6104b0565b611727565b565b61161c838383610ab4565b505050565b505050565b60006116326008610b73565b905090565b6000808380549050141561164e576000905061170b565b600080848054905090505b808210156116b257600061166d83836117a2565b905084868281548110611683576116826123af565b5b9060005260206000200154111561169c578091506116ac565b6001816116a99190611be7565b92505b50611659565b6000821180156116ea575083856001846116cc91906122a3565b815481106116dd576116dc6123af565b5b9060005260206000200154145b15611705576001826116fc91906122a3565b9250505061170b565b81925050505b92915050565b6001816000016000828254019250508190555050565b6000611731611626565b905080611740846000016117c8565b101561179d5782600001819080600181540180825580915050600190039060005260206000200160009091909190915055826001018290806001815401808255809150506001900390600052602060002001600090919091909150555b505050565b600060028284186117b3919061240d565b8284166117c09190611be7565b905092915050565b600080828054905014156117df5760009050611810565b81600183805490506117f191906122a3565b81548110611802576118016123af565b5b906000526020600020015490505b919050565b600081519050919050565b600082825260208201905092915050565b60005b8381101561184f578082015181840152602081019050611834565b8381111561185e576000848401525b50505050565b6000601f19601f8301169050919050565b600061188082611815565b61188a8185611820565b935061189a818560208601611831565b6118a381611864565b840191505092915050565b600060208201905081810360008301526118c88184611875565b905092915050565b600080fd5b600073ffffffffffffffffffffffffffffffffffffffff82169050919050565b6000611900826118d5565b9050919050565b611910816118f5565b811461191b57600080fd5b50565b60008135905061192d81611907565b92915050565b6000819050919050565b61194681611933565b811461195157600080fd5b50565b6000813590506119638161193d565b92915050565b600080604083850312156119805761197f6118d0565b5b600061198e8582860161191e565b925050602061199f85828601611954565b9150509250929050565b60008115159050919050565b6119be816119a9565b82525050565b60006020820190506119d960008301846119b5565b92915050565b6119e881611933565b82525050565b6000602082019050611a0360008301846119df565b92915050565b600080600060608486031215611a2257611a216118d0565b5b6000611a308682870161191e565b9350506020611a418682870161191e565b9250506040611a5286828701611954565b9150509250925092565b600060ff82169050919050565b611a7281611a5c565b82525050565b6000602082019050611a8d6000830184611a69565b92915050565b600060208284031215611aa957611aa86118d0565b5b6000611ab784828501611954565b91505092915050565b600060208284031215611ad657611ad56118d0565b5b6000611ae48482850161191e565b91505092915050565b611af6816118f5565b82525050565b6000602082019050611b116000830184611aed565b92915050565b60008060408385031215611b2e57611b2d6118d0565b5b6000611b3c8582860161191e565b9250506020611b4d8582860161191e565b9150509250929050565b7f4e487b7100000000000000000000000000000000000000000000000000000000600052602260045260246000fd5b60006002820490506001821680611b9e57607f821691505b60208210811415611bb257611bb1611b57565b5b50919050565b7f4e487b7100000000000000000000000000000000000000000000000000000000600052601160045260246000fd5b6000611bf282611933565b9150611bfd83611933565b9250827fffffffffffffffffffffffffffffffffffffffffffffffffffffffffffffffff03821115611c3257611c31611bb8565b5b828201905092915050565b7f4f776e61626c653a2063616c6c6572206973206e6f7420746865206f776e6572600082015250565b6000611c73602083611820565b9150611c7e82611c3d565b602082019050919050565b60006020820190508181036000830152611ca281611c66565b9050919050565b7f45524332303a2064656372656173656420616c6c6f77616e63652062656c6f7760008201527f207a65726f000000000000000000000000000000000000000000000000000000602082015250565b6000611d05602583611820565b9150611d1082611ca9565b604082019050919050565b60006020820190508181036000830152611d3481611cf8565b9050919050565b7f4f776e61626c653a206e6577206f776e657220697320746865207a65726f206160008201527f6464726573730000000000000000000000000000000000000000000000000000602082015250565b6000611d97602683611820565b9150611da282611d3b565b604082019050919050565b60006020820190508181036000830152611dc681611d8a565b9050919050565b7f45524332303a20617070726f76652066726f6d20746865207a65726f2061646460008201527f7265737300000000000000000000000000000000000000000000000000000000602082015250565b6000611e29602483611820565b9150611e3482611dcd565b604082019050919050565b60006020820190508181036000830152611e5881611e1c565b9050919050565b7f45524332303a20617070726f766520746f20746865207a65726f20616464726560008201527f7373000000000000000000000000000000000000000000000000000000000000602082015250565b6000611ebb602283611820565b9150611ec682611e5f565b604082019050919050565b60006020820190508181036000830152611eea81611eae565b9050919050565b7f45524332303a20696e73756666696369656e7420616c6c6f77616e6365000000600082015250565b6000611f27601d83611820565b9150611f3282611ef1565b602082019050919050565b60006020820190508181036000830152611f5681611f1a565b9050919050565b7f45524332303a207472616e736665722066726f6d20746865207a65726f20616460008201527f6472657373000000000000000000000000000000000000000000000000000000602082015250565b6000611fb9602583611820565b9150611fc482611f5d565b604082019050919050565b60006020820190508181036000830152611fe881611fac565b9050919050565b7f45524332303a207472616e7366657220746f20746865207a65726f206164647260008201527f6573730000000000000000000000000000000000000000000000000000000000602082015250565b600061204b602383611820565b915061205682611fef565b604082019050919050565b6000602082019050818103600083015261207a8161203e565b9050919050565b7f45524332303a207472616e7366657220616d6f756e742065786365656473206260008201527f616c616e63650000000000000000000000000000000000000000000000000000602082015250565b60006120dd602683611820565b91506120e882612081565b604082019050919050565b6000602082019050818103600083015261210c816120d0565b9050919050565b7f45524332303a206d696e7420746f20746865207a65726f206164647265737300600082015250565b6000612149601f83611820565b915061215482612113565b602082019050919050565b600060208201905081810360008301526121788161213c565b9050919050565b7f45524332303a206275726e2066726f6d20746865207a65726f2061646472657360008201527f7300000000000000000000000000000000000000000000000000000000000000602082015250565b60006121db602183611820565b91506121e68261217f565b604082019050919050565b6000602082019050818103600083015261220a816121ce565b9050919050565b7f45524332303a206275726e20616d6f756e7420657863656564732062616c616e60008201527f6365000000000000000000000000000000000000000000000000000000000000602082015250565b600061226d602283611820565b915061227882612211565b604082019050919050565b6000602082019050818103600083015261229c81612260565b9050919050565b60006122ae82611933565b91506122b983611933565b9250828210156122cc576122cb611bb8565b5b828203905092915050565b7f4552433230536e617073686f743a206964206973203000000000000000000000600082015250565b600061230d601683611820565b9150612318826122d7565b602082019050919050565b6000602082019050818103600083015261233c81612300565b9050919050565b7f4552433230536e617073686f743a206e6f6e6578697374656e74206964000000600082015250565b6000612379601d83611820565b915061238482612343565b602082019050919050565b600060208201905081810360008301526123a88161236c565b9050919050565b7f4e487b7100000000000000000000000000000000000000000000000000000000600052603260045260246000fd5b7f4e487b7100000000000000000000000000000000000000000000000000000000600052601260045260246000fd5b600061241882611933565b915061242383611933565b925082612433576124326123de565b5b82820490509291505056fea2646970667358221220bd4409c12bcd0afc04ae8b043536fd2cd1f2273f9e5b9b18c79f46410ca8414d64736f6c634300080a0033",
					"opcodes": "PUSH1 0x80 PUSH1 0x40 MSTORE CALLVALUE DUP1 ISZERO PUSH3 0x11 JUMPI PUSH1 0x0 DUP1 REVERT JUMPDEST POP PUSH1 0x40 MLOAD DUP1 PUSH1 0x40 ADD PUSH1 0x40 MSTORE DUP1 PUSH1 0x9 DUP2 MSTORE PUSH1 0x20 ADD PUSH32 0x424F4D42546F6B656E0000000000000000000000000000000000000000000000 DUP2 MSTORE POP PUSH1 0x40 MLOAD DUP1 PUSH1 0x40 ADD PUSH1 0x40 MSTORE DUP1 PUSH1 0x2 DUP2 MSTORE PUSH1 0x20 ADD PUSH32 0x4254000000000000000000000000000000000000000000000000000000000000 DUP2 MSTORE POP DUP2 PUSH1 0x3 SWAP1 DUP1 MLOAD SWAP1 PUSH1 0x20 ADD SWAP1 PUSH3 0x96 SWAP3 SWAP2 SWAP1 PUSH3 0x66F JUMP JUMPDEST POP DUP1 PUSH1 0x4 SWAP1 DUP1 MLOAD SWAP1 PUSH1 0x20 ADD SWAP1 PUSH3 0xAF SWAP3 SWAP2 SWAP1 PUSH3 0x66F JUMP JUMPDEST POP POP POP PUSH3 0xD2 PUSH3 0xC6 PUSH3 0x118 PUSH1 0x20 SHL PUSH1 0x20 SHR JUMP JUMPDEST PUSH3 0x120 PUSH1 0x20 SHL PUSH1 0x20 SHR JUMP JUMPDEST PUSH3 0x112 CALLER PUSH3 0xE7 PUSH3 0x1E6 PUSH1 0x20 SHL PUSH1 0x20 SHR JUMP JUMPDEST PUSH1 0xA PUSH3 0xF5 SWAP2 SWAP1 PUSH3 0x8B9 JUMP JUMPDEST PUSH4 0x3B9ACA00 PUSH3 0x106 SWAP2 SWAP1 PUSH3 0x90A JUMP JUMPDEST PUSH3 0x1EF PUSH1 0x20 SHL PUSH1 0x20 SHR JUMP JUMPDEST PUSH3 0xB48 JUMP JUMPDEST PUSH1 0x0 CALLER SWAP1 POP SWAP1 JUMP JUMPDEST PUSH1 0x0 PUSH1 0x9 PUSH1 0x0 SWAP1 SLOAD SWAP1 PUSH2 0x100 EXP SWAP1 DIV PUSH20 0xFFFFFFFFFFFFFFFFFFFFFFFFFFFFFFFFFFFFFFFF AND SWAP1 POP DUP2 PUSH1 0x9 PUSH1 0x0 PUSH2 0x100 EXP DUP2 SLOAD DUP2 PUSH20 0xFFFFFFFFFFFFFFFFFFFFFFFFFFFFFFFFFFFFFFFF MUL NOT AND SWAP1 DUP4 PUSH20 0xFFFFFFFFFFFFFFFFFFFFFFFFFFFFFFFFFFFFFFFF AND MUL OR SWAP1 SSTORE POP DUP2 PUSH20 0xFFFFFFFFFFFFFFFFFFFFFFFFFFFFFFFFFFFFFFFF AND DUP2 PUSH20 0xFFFFFFFFFFFFFFFFFFFFFFFFFFFFFFFFFFFFFFFF AND PUSH32 0x8BE0079C531659141344CD1FD0A4F28419497F9722A3DAAFE3B4186F6B6457E0 PUSH1 0x40 MLOAD PUSH1 0x40 MLOAD DUP1 SWAP2 SUB SWAP1 LOG3 POP POP JUMP JUMPDEST PUSH1 0x0 PUSH1 0x12 SWAP1 POP SWAP1 JUMP JUMPDEST PUSH1 0x0 PUSH20 0xFFFFFFFFFFFFFFFFFFFFFFFFFFFFFFFFFFFFFFFF AND DUP3 PUSH20 0xFFFFFFFFFFFFFFFFFFFFFFFFFFFFFFFFFFFFFFFF AND EQ ISZERO PUSH3 0x262 JUMPI PUSH1 0x40 MLOAD PUSH32 0x8C379A000000000000000000000000000000000000000000000000000000000 DUP2 MSTORE PUSH1 0x4 ADD PUSH3 0x259 SWAP1 PUSH3 0x9CC JUMP JUMPDEST PUSH1 0x40 MLOAD DUP1 SWAP2 SUB SWAP1 REVERT JUMPDEST PUSH3 0x276 PUSH1 0x0 DUP4 DUP4 PUSH3 0x368 PUSH1 0x20 SHL PUSH1 0x20 SHR JUMP JUMPDEST DUP1 PUSH1 0x2 PUSH1 0x0 DUP3 DUP3 SLOAD PUSH3 0x28A SWAP2 SWAP1 PUSH3 0x9EE JUMP JUMPDEST SWAP3 POP POP DUP2 SWAP1 SSTORE POP DUP1 PUSH1 0x0 DUP1 DUP5 PUSH20 0xFFFFFFFFFFFFFFFFFFFFFFFFFFFFFFFFFFFFFFFF AND PUSH20 0xFFFFFFFFFFFFFFFFFFFFFFFFFFFFFFFFFFFFFFFF AND DUP2 MSTORE PUSH1 0x20 ADD SWAP1 DUP2 MSTORE PUSH1 0x20 ADD PUSH1 0x0 KECCAK256 PUSH1 0x0 DUP3 DUP3 SLOAD PUSH3 0x2E1 SWAP2 SWAP1 PUSH3 0x9EE JUMP JUMPDEST SWAP3 POP POP DUP2 SWAP1 SSTORE POP DUP2 PUSH20 0xFFFFFFFFFFFFFFFFFFFFFFFFFFFFFFFFFFFFFFFF AND PUSH1 0x0 PUSH20 0xFFFFFFFFFFFFFFFFFFFFFFFFFFFFFFFFFFFFFFFF AND PUSH32 0xDDF252AD1BE2C89B69C2B068FC378DAA952BA7F163C4A11628F55A4DF523B3EF DUP4 PUSH1 0x40 MLOAD PUSH3 0x348 SWAP2 SWAP1 PUSH3 0xA5C JUMP JUMPDEST PUSH1 0x40 MLOAD DUP1 SWAP2 SUB SWAP1 LOG3 PUSH3 0x364 PUSH1 0x0 DUP4 DUP4 PUSH3 0x385 PUSH1 0x20 SHL PUSH1 0x20 SHR JUMP JUMPDEST POP POP JUMP JUMPDEST PUSH3 0x380 DUP4 DUP4 DUP4 PUSH3 0x38A PUSH1 0x20 SHL PUSH3 0xAB4 OR PUSH1 0x20 SHR JUMP JUMPDEST POP POP POP JUMP JUMPDEST POP POP POP JUMP JUMPDEST PUSH3 0x3A2 DUP4 DUP4 DUP4 PUSH3 0x485 PUSH1 0x20 SHL PUSH3 0xB6E OR PUSH1 0x20 SHR JUMP JUMPDEST PUSH1 0x0 PUSH20 0xFFFFFFFFFFFFFFFFFFFFFFFFFFFFFFFFFFFFFFFF AND DUP4 PUSH20 0xFFFFFFFFFFFFFFFFFFFFFFFFFFFFFFFFFFFFFFFF AND EQ ISZERO PUSH3 0x3FF JUMPI PUSH3 0x3E9 DUP3 PUSH3 0x48A PUSH1 0x20 SHL PUSH1 0x20 SHR JUMP JUMPDEST PUSH3 0x3F9 PUSH3 0x4ED PUSH1 0x20 SHL PUSH1 0x20 SHR JUMP JUMPDEST PUSH3 0x480 JUMP JUMPDEST PUSH1 0x0 PUSH20 0xFFFFFFFFFFFFFFFFFFFFFFFFFFFFFFFFFFFFFFFF AND DUP3 PUSH20 0xFFFFFFFFFFFFFFFFFFFFFFFFFFFFFFFFFFFFFFFF AND EQ ISZERO PUSH3 0x45C JUMPI PUSH3 0x446 DUP4 PUSH3 0x48A PUSH1 0x20 SHL PUSH1 0x20 SHR JUMP JUMPDEST PUSH3 0x456 PUSH3 0x4ED PUSH1 0x20 SHL PUSH1 0x20 SHR JUMP JUMPDEST PUSH3 0x47F JUMP JUMPDEST PUSH3 0x46D DUP4 PUSH3 0x48A PUSH1 0x20 SHL PUSH1 0x20 SHR JUMP JUMPDEST PUSH3 0x47E DUP3 PUSH3 0x48A PUSH1 0x20 SHL PUSH1 0x20 SHR JUMP JUMPDEST JUMPDEST JUMPDEST POP POP POP JUMP JUMPDEST POP POP POP JUMP JUMPDEST PUSH3 0x4EA PUSH1 0x5 PUSH1 0x0 DUP4 PUSH20 0xFFFFFFFFFFFFFFFFFFFFFFFFFFFFFFFFFFFFFFFF AND PUSH20 0xFFFFFFFFFFFFFFFFFFFFFFFFFFFFFFFFFFFFFFFF AND DUP2 MSTORE PUSH1 0x20 ADD SWAP1 DUP2 MSTORE PUSH1 0x20 ADD PUSH1 0x0 KECCAK256 PUSH3 0x4DE DUP4 PUSH3 0x511 PUSH1 0x20 SHL PUSH1 0x20 SHR JUMP JUMPDEST PUSH3 0x559 PUSH1 0x20 SHL PUSH1 0x20 SHR JUMP JUMPDEST POP JUMP JUMPDEST PUSH3 0x50F PUSH1 0x6 PUSH3 0x503 PUSH3 0x5E5 PUSH1 0x20 SHL PUSH1 0x20 SHR JUMP JUMPDEST PUSH3 0x559 PUSH1 0x20 SHL PUSH1 0x20 SHR JUMP JUMPDEST JUMP JUMPDEST PUSH1 0x0 DUP1 PUSH1 0x0 DUP4 PUSH20 0xFFFFFFFFFFFFFFFFFFFFFFFFFFFFFFFFFFFFFFFF AND PUSH20 0xFFFFFFFFFFFFFFFFFFFFFFFFFFFFFFFFFFFFFFFF AND DUP2 MSTORE PUSH1 0x20 ADD SWAP1 DUP2 MSTORE PUSH1 0x20 ADD PUSH1 0x0 KECCAK256 SLOAD SWAP1 POP SWAP2 SWAP1 POP JUMP JUMPDEST PUSH1 0x0 PUSH3 0x56B PUSH3 0x5EF PUSH1 0x20 SHL PUSH1 0x20 SHR JUMP JUMPDEST SWAP1 POP DUP1 PUSH3 0x582 DUP5 PUSH1 0x0 ADD PUSH3 0x60D PUSH1 0x20 SHL PUSH1 0x20 SHR JUMP JUMPDEST LT ISZERO PUSH3 0x5E0 JUMPI DUP3 PUSH1 0x0 ADD DUP2 SWAP1 DUP1 PUSH1 0x1 DUP2 SLOAD ADD DUP1 DUP3 SSTORE DUP1 SWAP2 POP POP PUSH1 0x1 SWAP1 SUB SWAP1 PUSH1 0x0 MSTORE PUSH1 0x20 PUSH1 0x0 KECCAK256 ADD PUSH1 0x0 SWAP1 SWAP2 SWAP1 SWAP2 SWAP1 SWAP2 POP SSTORE DUP3 PUSH1 0x1 ADD DUP3 SWAP1 DUP1 PUSH1 0x1 DUP2 SLOAD ADD DUP1 DUP3 SSTORE DUP1 SWAP2 POP POP PUSH1 0x1 SWAP1 SUB SWAP1 PUSH1 0x0 MSTORE PUSH1 0x20 PUSH1 0x0 KECCAK256 ADD PUSH1 0x0 SWAP1 SWAP2 SWAP1 SWAP2 SWAP1 SWAP2 POP SSTORE JUMPDEST POP POP POP JUMP JUMPDEST PUSH1 0x0 PUSH1 0x2 SLOAD SWAP1 POP SWAP1 JUMP JUMPDEST PUSH1 0x0 PUSH3 0x608 PUSH1 0x8 PUSH3 0x661 PUSH1 0x20 SHL PUSH3 0xB73 OR PUSH1 0x20 SHR JUMP JUMPDEST SWAP1 POP SWAP1 JUMP JUMPDEST PUSH1 0x0 DUP1 DUP3 DUP1 SLOAD SWAP1 POP EQ ISZERO PUSH3 0x626 JUMPI PUSH1 0x0 SWAP1 POP PUSH3 0x65C JUMP JUMPDEST DUP2 PUSH1 0x1 DUP4 DUP1 SLOAD SWAP1 POP PUSH3 0x63A SWAP2 SWAP1 PUSH3 0xA79 JUMP JUMPDEST DUP2 SLOAD DUP2 LT PUSH3 0x64E JUMPI PUSH3 0x64D PUSH3 0xAB4 JUMP JUMPDEST JUMPDEST SWAP1 PUSH1 0x0 MSTORE PUSH1 0x20 PUSH1 0x0 KECCAK256 ADD SLOAD SWAP1 POP JUMPDEST SWAP2 SWAP1 POP JUMP JUMPDEST PUSH1 0x0 DUP2 PUSH1 0x0 ADD SLOAD SWAP1 POP SWAP2 SWAP1 POP JUMP JUMPDEST DUP3 DUP1 SLOAD PUSH3 0x67D SWAP1 PUSH3 0xB12 JUMP JUMPDEST SWAP1 PUSH1 0x0 MSTORE PUSH1 0x20 PUSH1 0x0 KECCAK256 SWAP1 PUSH1 0x1F ADD PUSH1 0x20 SWAP1 DIV DUP2 ADD SWAP3 DUP3 PUSH3 0x6A1 JUMPI PUSH1 0x0 DUP6 SSTORE PUSH3 0x6ED JUMP JUMPDEST DUP3 PUSH1 0x1F LT PUSH3 0x6BC JUMPI DUP1 MLOAD PUSH1 0xFF NOT AND DUP4 DUP1 ADD OR DUP6 SSTORE PUSH3 0x6ED JUMP JUMPDEST DUP3 DUP1 ADD PUSH1 0x1 ADD DUP6 SSTORE DUP3 ISZERO PUSH3 0x6ED JUMPI SWAP2 DUP3 ADD JUMPDEST DUP3 DUP2 GT ISZERO PUSH3 0x6EC JUMPI DUP3 MLOAD DUP3 SSTORE SWAP2 PUSH1 0x20 ADD SWAP2 SWAP1 PUSH1 0x1 ADD SWAP1 PUSH3 0x6CF JUMP JUMPDEST JUMPDEST POP SWAP1 POP PUSH3 0x6FC SWAP2 SWAP1 PUSH3 0x700 JUMP JUMPDEST POP SWAP1 JUMP JUMPDEST JUMPDEST DUP1 DUP3 GT ISZERO PUSH3 0x71B JUMPI PUSH1 0x0 DUP2 PUSH1 0x0 SWAP1 SSTORE POP PUSH1 0x1 ADD PUSH3 0x701 JUMP JUMPDEST POP SWAP1 JUMP JUMPDEST PUSH32 0x4E487B7100000000000000000000000000000000000000000000000000000000 PUSH1 0x0 MSTORE PUSH1 0x11 PUSH1 0x4 MSTORE PUSH1 0x24 PUSH1 0x0 REVERT JUMPDEST PUSH1 0x0 DUP2 PUSH1 0x1 SHR SWAP1 POP SWAP2 SWAP1 POP JUMP JUMPDEST PUSH1 0x0 DUP1 DUP3 SWAP2 POP DUP4 SWAP1 POP JUMPDEST PUSH1 0x1 DUP6 GT ISZERO PUSH3 0x7AD JUMPI DUP1 DUP7 DIV DUP2 GT ISZERO PUSH3 0x785 JUMPI PUSH3 0x784 PUSH3 0x71F JUMP JUMPDEST JUMPDEST PUSH1 0x1 DUP6 AND ISZERO PUSH3 0x795 JUMPI DUP1 DUP3 MUL SWAP2 POP JUMPDEST DUP1 DUP2 MUL SWAP1 POP PUSH3 0x7A5 DUP6 PUSH3 0x74E JUMP JUMPDEST SWAP5 POP PUSH3 0x765 JUMP JUMPDEST SWAP5 POP SWAP5 SWAP3 POP POP POP JUMP JUMPDEST PUSH1 0x0 DUP3 PUSH3 0x7C8 JUMPI PUSH1 0x1 SWAP1 POP PUSH3 0x89B JUMP JUMPDEST DUP2 PUSH3 0x7D8 JUMPI PUSH1 0x0 SWAP1 POP PUSH3 0x89B JUMP JUMPDEST DUP2 PUSH1 0x1 DUP2 EQ PUSH3 0x7F1 JUMPI PUSH1 0x2 DUP2 EQ PUSH3 0x7FC JUMPI PUSH3 0x832 JUMP JUMPDEST PUSH1 0x1 SWAP2 POP POP PUSH3 0x89B JUMP JUMPDEST PUSH1 0xFF DUP5 GT ISZERO PUSH3 0x811 JUMPI PUSH3 0x810 PUSH3 0x71F JUMP JUMPDEST JUMPDEST DUP4 PUSH1 0x2 EXP SWAP2 POP DUP5 DUP3 GT ISZERO PUSH3 0x82B JUMPI PUSH3 0x82A PUSH3 0x71F JUMP JUMPDEST JUMPDEST POP PUSH3 0x89B JUMP JUMPDEST POP PUSH1 0x20 DUP4 LT PUSH2 0x133 DUP4 LT AND PUSH1 0x4E DUP5 LT PUSH1 0xB DUP5 LT AND OR ISZERO PUSH3 0x86C JUMPI DUP3 DUP3 EXP SWAP1 POP DUP4 DUP2 GT ISZERO PUSH3 0x866 JUMPI PUSH3 0x865 PUSH3 0x71F JUMP JUMPDEST JUMPDEST PUSH3 0x89B JUMP JUMPDEST PUSH3 0x87B DUP5 DUP5 DUP5 PUSH1 0x1 PUSH3 0x75B JUMP JUMPDEST SWAP3 POP SWAP1 POP DUP2 DUP5 DIV DUP2 GT ISZERO PUSH3 0x895 JUMPI PUSH3 0x894 PUSH3 0x71F JUMP JUMPDEST JUMPDEST DUP2 DUP2 MUL SWAP1 POP JUMPDEST SWAP4 SWAP3 POP POP POP JUMP JUMPDEST PUSH1 0x0 DUP2 SWAP1 POP SWAP2 SWAP1 POP JUMP JUMPDEST PUSH1 0x0 PUSH1 0xFF DUP3 AND SWAP1 POP SWAP2 SWAP1 POP JUMP JUMPDEST PUSH1 0x0 PUSH3 0x8C6 DUP3 PUSH3 0x8A2 JUMP JUMPDEST SWAP2 POP PUSH3 0x8D3 DUP4 PUSH3 0x8AC JUMP JUMPDEST SWAP3 POP PUSH3 0x902 PUSH32 0xFFFFFFFFFFFFFFFFFFFFFFFFFFFFFFFFFFFFFFFFFFFFFFFFFFFFFFFFFFFFFFFF DUP5 DUP5 PUSH3 0x7B6 JUMP JUMPDEST SWAP1 POP SWAP3 SWAP2 POP POP JUMP JUMPDEST PUSH1 0x0 PUSH3 0x917 DUP3 PUSH3 0x8A2 JUMP JUMPDEST SWAP2 POP PUSH3 0x924 DUP4 PUSH3 0x8A2 JUMP JUMPDEST SWAP3 POP DUP2 PUSH32 0xFFFFFFFFFFFFFFFFFFFFFFFFFFFFFFFFFFFFFFFFFFFFFFFFFFFFFFFFFFFFFFFF DIV DUP4 GT DUP3 ISZERO ISZERO AND ISZERO PUSH3 0x960 JUMPI PUSH3 0x95F PUSH3 0x71F JUMP JUMPDEST JUMPDEST DUP3 DUP3 MUL SWAP1 POP SWAP3 SWAP2 POP POP JUMP JUMPDEST PUSH1 0x0 DUP3 DUP3 MSTORE PUSH1 0x20 DUP3 ADD SWAP1 POP SWAP3 SWAP2 POP POP JUMP JUMPDEST PUSH32 0x45524332303A206D696E7420746F20746865207A65726F206164647265737300 PUSH1 0x0 DUP3 ADD MSTORE POP JUMP JUMPDEST PUSH1 0x0 PUSH3 0x9B4 PUSH1 0x1F DUP4 PUSH3 0x96B JUMP JUMPDEST SWAP2 POP PUSH3 0x9C1 DUP3 PUSH3 0x97C JUMP JUMPDEST PUSH1 0x20 DUP3 ADD SWAP1 POP SWAP2 SWAP1 POP JUMP JUMPDEST PUSH1 0x0 PUSH1 0x20 DUP3 ADD SWAP1 POP DUP2 DUP2 SUB PUSH1 0x0 DUP4 ADD MSTORE PUSH3 0x9E7 DUP2 PUSH3 0x9A5 JUMP JUMPDEST SWAP1 POP SWAP2 SWAP1 POP JUMP JUMPDEST PUSH1 0x0 PUSH3 0x9FB DUP3 PUSH3 0x8A2 JUMP JUMPDEST SWAP2 POP PUSH3 0xA08 DUP4 PUSH3 0x8A2 JUMP JUMPDEST SWAP3 POP DUP3 PUSH32 0xFFFFFFFFFFFFFFFFFFFFFFFFFFFFFFFFFFFFFFFFFFFFFFFFFFFFFFFFFFFFFFFF SUB DUP3 GT ISZERO PUSH3 0xA40 JUMPI PUSH3 0xA3F PUSH3 0x71F JUMP JUMPDEST JUMPDEST DUP3 DUP3 ADD SWAP1 POP SWAP3 SWAP2 POP POP JUMP JUMPDEST PUSH3 0xA56 DUP2 PUSH3 0x8A2 JUMP JUMPDEST DUP3 MSTORE POP POP JUMP JUMPDEST PUSH1 0x0 PUSH1 0x20 DUP3 ADD SWAP1 POP PUSH3 0xA73 PUSH1 0x0 DUP4 ADD DUP5 PUSH3 0xA4B JUMP JUMPDEST SWAP3 SWAP2 POP POP JUMP JUMPDEST PUSH1 0x0 PUSH3 0xA86 DUP3 PUSH3 0x8A2 JUMP JUMPDEST SWAP2 POP PUSH3 0xA93 DUP4 PUSH3 0x8A2 JUMP JUMPDEST SWAP3 POP DUP3 DUP3 LT ISZERO PUSH3 0xAA9 JUMPI PUSH3 0xAA8 PUSH3 0x71F JUMP JUMPDEST JUMPDEST DUP3 DUP3 SUB SWAP1 POP SWAP3 SWAP2 POP POP JUMP JUMPDEST PUSH32 0x4E487B7100000000000000000000000000000000000000000000000000000000 PUSH1 0x0 MSTORE PUSH1 0x32 PUSH1 0x4 MSTORE PUSH1 0x24 PUSH1 0x0 REVERT JUMPDEST PUSH32 0x4E487B7100000000000000000000000000000000000000000000000000000000 PUSH1 0x0 MSTORE PUSH1 0x22 PUSH1 0x4 MSTORE PUSH1 0x24 PUSH1 0x0 REVERT JUMPDEST PUSH1 0x0 PUSH1 0x2 DUP3 DIV SWAP1 POP PUSH1 0x1 DUP3 AND DUP1 PUSH3 0xB2B JUMPI PUSH1 0x7F DUP3 AND SWAP2 POP JUMPDEST PUSH1 0x20 DUP3 LT DUP2 EQ ISZERO PUSH3 0xB42 JUMPI PUSH3 0xB41 PUSH3 0xAE3 JUMP JUMPDEST JUMPDEST POP SWAP2 SWAP1 POP JUMP JUMPDEST PUSH2 0x2474 DUP1 PUSH3 0xB58 PUSH1 0x0 CODECOPY PUSH1 0x0 RETURN INVALID PUSH1 0x80 PUSH1 0x40 MSTORE CALLVALUE DUP1 ISZERO PUSH2 0x10 JUMPI PUSH1 0x0 DUP1 REVERT JUMPDEST POP PUSH1 0x4 CALLDATASIZE LT PUSH2 0x12C JUMPI PUSH1 0x0 CALLDATALOAD PUSH1 0xE0 SHR DUP1 PUSH4 0x715018A6 GT PUSH2 0xAD JUMPI DUP1 PUSH4 0x981B24D0 GT PUSH2 0x71 JUMPI DUP1 PUSH4 0x981B24D0 EQ PUSH2 0x31F JUMPI DUP1 PUSH4 0xA457C2D7 EQ PUSH2 0x34F JUMPI DUP1 PUSH4 0xA9059CBB EQ PUSH2 0x37F JUMPI DUP1 PUSH4 0xDD62ED3E EQ PUSH2 0x3AF JUMPI DUP1 PUSH4 0xF2FDE38B EQ PUSH2 0x3DF JUMPI PUSH2 0x12C JUMP JUMPDEST DUP1 PUSH4 0x715018A6 EQ PUSH2 0x2B3 JUMPI DUP1 PUSH4 0x79CC6790 EQ PUSH2 0x2BD JUMPI DUP1 PUSH4 0x8DA5CB5B EQ PUSH2 0x2D9 JUMPI DUP1 PUSH4 0x95D89B41 EQ PUSH2 0x2F7 JUMPI DUP1 PUSH4 0x9711715A EQ PUSH2 0x315 JUMPI PUSH2 0x12C JUMP JUMPDEST DUP1 PUSH4 0x39509351 GT PUSH2 0xF4 JUMPI DUP1 PUSH4 0x39509351 EQ PUSH2 0x1EB JUMPI DUP1 PUSH4 0x40C10F19 EQ PUSH2 0x21B JUMPI DUP1 PUSH4 0x42966C68 EQ PUSH2 0x237 JUMPI DUP1 PUSH4 0x4EE2CD7E EQ PUSH2 0x253 JUMPI DUP1 PUSH4 0x70A08231 EQ PUSH2 0x283 JUMPI PUSH2 0x12C JUMP JUMPDEST DUP1 PUSH4 0x6FDDE03 EQ PUSH2 0x131 JUMPI DUP1 PUSH4 0x95EA7B3 EQ PUSH2 0x14F JUMPI DUP1 PUSH4 0x18160DDD EQ PUSH2 0x17F JUMPI DUP1 PUSH4 0x23B872DD EQ PUSH2 0x19D JUMPI DUP1 PUSH4 0x313CE567 EQ PUSH2 0x1CD JUMPI JUMPDEST PUSH1 0x0 DUP1 REVERT JUMPDEST PUSH2 0x139 PUSH2 0x3FB JUMP JUMPDEST PUSH1 0x40 MLOAD PUSH2 0x146 SWAP2 SWAP1 PUSH2 0x18AE JUMP JUMPDEST PUSH1 0x40 MLOAD DUP1 SWAP2 SUB SWAP1 RETURN JUMPDEST PUSH2 0x169 PUSH1 0x4 DUP1 CALLDATASIZE SUB DUP2 ADD SWAP1 PUSH2 0x164 SWAP2 SWAP1 PUSH2 0x1969 JUMP JUMPDEST PUSH2 0x48D JUMP JUMPDEST PUSH1 0x40 MLOAD PUSH2 0x176 SWAP2 SWAP1 PUSH2 0x19C4 JUMP JUMPDEST PUSH1 0x40 MLOAD DUP1 SWAP2 SUB SWAP1 RETURN JUMPDEST PUSH2 0x187 PUSH2 0x4B0 JUMP JUMPDEST PUSH1 0x40 MLOAD PUSH2 0x194 SWAP2 SWAP1 PUSH2 0x19EE JUMP JUMPDEST PUSH1 0x40 MLOAD DUP1 SWAP2 SUB SWAP1 RETURN JUMPDEST PUSH2 0x1B7 PUSH1 0x4 DUP1 CALLDATASIZE SUB DUP2 ADD SWAP1 PUSH2 0x1B2 SWAP2 SWAP1 PUSH2 0x1A09 JUMP JUMPDEST PUSH2 0x4BA JUMP JUMPDEST PUSH1 0x40 MLOAD PUSH2 0x1C4 SWAP2 SWAP1 PUSH2 0x19C4 JUMP JUMPDEST PUSH1 0x40 MLOAD DUP1 SWAP2 SUB SWAP1 RETURN JUMPDEST PUSH2 0x1D5 PUSH2 0x4E9 JUMP JUMPDEST PUSH1 0x40 MLOAD PUSH2 0x1E2 SWAP2 SWAP1 PUSH2 0x1A78 JUMP JUMPDEST PUSH1 0x40 MLOAD DUP1 SWAP2 SUB SWAP1 RETURN JUMPDEST PUSH2 0x205 PUSH1 0x4 DUP1 CALLDATASIZE SUB DUP2 ADD SWAP1 PUSH2 0x200 SWAP2 SWAP1 PUSH2 0x1969 JUMP JUMPDEST PUSH2 0x4F2 JUMP JUMPDEST PUSH1 0x40 MLOAD PUSH2 0x212 SWAP2 SWAP1 PUSH2 0x19C4 JUMP JUMPDEST PUSH1 0x40 MLOAD DUP1 SWAP2 SUB SWAP1 RETURN JUMPDEST PUSH2 0x235 PUSH1 0x4 DUP1 CALLDATASIZE SUB DUP2 ADD SWAP1 PUSH2 0x230 SWAP2 SWAP1 PUSH2 0x1969 JUMP JUMPDEST PUSH2 0x529 JUMP JUMPDEST STOP JUMPDEST PUSH2 0x251 PUSH1 0x4 DUP1 CALLDATASIZE SUB DUP2 ADD SWAP1 PUSH2 0x24C SWAP2 SWAP1 PUSH2 0x1A93 JUMP JUMPDEST PUSH2 0x5B3 JUMP JUMPDEST STOP JUMPDEST PUSH2 0x26D PUSH1 0x4 DUP1 CALLDATASIZE SUB DUP2 ADD SWAP1 PUSH2 0x268 SWAP2 SWAP1 PUSH2 0x1969 JUMP JUMPDEST PUSH2 0x5C7 JUMP JUMPDEST PUSH1 0x40 MLOAD PUSH2 0x27A SWAP2 SWAP1 PUSH2 0x19EE JUMP JUMPDEST PUSH1 0x40 MLOAD DUP1 SWAP2 SUB SWAP1 RETURN JUMPDEST PUSH2 0x29D PUSH1 0x4 DUP1 CALLDATASIZE SUB DUP2 ADD SWAP1 PUSH2 0x298 SWAP2 SWAP1 PUSH2 0x1AC0 JUMP JUMPDEST PUSH2 0x637 JUMP JUMPDEST PUSH1 0x40 MLOAD PUSH2 0x2AA SWAP2 SWAP1 PUSH2 0x19EE JUMP JUMPDEST PUSH1 0x40 MLOAD DUP1 SWAP2 SUB SWAP1 RETURN JUMPDEST PUSH2 0x2BB PUSH2 0x67F JUMP JUMPDEST STOP JUMPDEST PUSH2 0x2D7 PUSH1 0x4 DUP1 CALLDATASIZE SUB DUP2 ADD SWAP1 PUSH2 0x2D2 SWAP2 SWAP1 PUSH2 0x1969 JUMP JUMPDEST PUSH2 0x707 JUMP JUMPDEST STOP JUMPDEST PUSH2 0x2E1 PUSH2 0x727 JUMP JUMPDEST PUSH1 0x40 MLOAD PUSH2 0x2EE SWAP2 SWAP1 PUSH2 0x1AFC JUMP JUMPDEST PUSH1 0x40 MLOAD DUP1 SWAP2 SUB SWAP1 RETURN JUMPDEST PUSH2 0x2FF PUSH2 0x751 JUMP JUMPDEST PUSH1 0x40 MLOAD PUSH2 0x30C SWAP2 SWAP1 PUSH2 0x18AE JUMP JUMPDEST PUSH1 0x40 MLOAD DUP1 SWAP2 SUB SWAP1 RETURN JUMPDEST PUSH2 0x31D PUSH2 0x7E3 JUMP JUMPDEST STOP JUMPDEST PUSH2 0x339 PUSH1 0x4 DUP1 CALLDATASIZE SUB DUP2 ADD SWAP1 PUSH2 0x334 SWAP2 SWAP1 PUSH2 0x1A93 JUMP JUMPDEST PUSH2 0x86A JUMP JUMPDEST PUSH1 0x40 MLOAD PUSH2 0x346 SWAP2 SWAP1 PUSH2 0x19EE JUMP JUMPDEST PUSH1 0x40 MLOAD DUP1 SWAP2 SUB SWAP1 RETURN JUMPDEST PUSH2 0x369 PUSH1 0x4 DUP1 CALLDATASIZE SUB DUP2 ADD SWAP1 PUSH2 0x364 SWAP2 SWAP1 PUSH2 0x1969 JUMP JUMPDEST PUSH2 0x89B JUMP JUMPDEST PUSH1 0x40 MLOAD PUSH2 0x376 SWAP2 SWAP1 PUSH2 0x19C4 JUMP JUMPDEST PUSH1 0x40 MLOAD DUP1 SWAP2 SUB SWAP1 RETURN JUMPDEST PUSH2 0x399 PUSH1 0x4 DUP1 CALLDATASIZE SUB DUP2 ADD SWAP1 PUSH2 0x394 SWAP2 SWAP1 PUSH2 0x1969 JUMP JUMPDEST PUSH2 0x912 JUMP JUMPDEST PUSH1 0x40 MLOAD PUSH2 0x3A6 SWAP2 SWAP1 PUSH2 0x19C4 JUMP JUMPDEST PUSH1 0x40 MLOAD DUP1 SWAP2 SUB SWAP1 RETURN JUMPDEST PUSH2 0x3C9 PUSH1 0x4 DUP1 CALLDATASIZE SUB DUP2 ADD SWAP1 PUSH2 0x3C4 SWAP2 SWAP1 PUSH2 0x1B17 JUMP JUMPDEST PUSH2 0x935 JUMP JUMPDEST PUSH1 0x40 MLOAD PUSH2 0x3D6 SWAP2 SWAP1 PUSH2 0x19EE JUMP JUMPDEST PUSH1 0x40 MLOAD DUP1 SWAP2 SUB SWAP1 RETURN JUMPDEST PUSH2 0x3F9 PUSH1 0x4 DUP1 CALLDATASIZE SUB DUP2 ADD SWAP1 PUSH2 0x3F4 SWAP2 SWAP1 PUSH2 0x1AC0 JUMP JUMPDEST PUSH2 0x9BC JUMP JUMPDEST STOP JUMPDEST PUSH1 0x60 PUSH1 0x3 DUP1 SLOAD PUSH2 0x40A SWAP1 PUSH2 0x1B86 JUMP JUMPDEST DUP1 PUSH1 0x1F ADD PUSH1 0x20 DUP1 SWAP2 DIV MUL PUSH1 0x20 ADD PUSH1 0x40 MLOAD SWAP1 DUP2 ADD PUSH1 0x40 MSTORE DUP1 SWAP3 SWAP2 SWAP1 DUP2 DUP2 MSTORE PUSH1 0x20 ADD DUP3 DUP1 SLOAD PUSH2 0x436 SWAP1 PUSH2 0x1B86 JUMP JUMPDEST DUP1 ISZERO PUSH2 0x483 JUMPI DUP1 PUSH1 0x1F LT PUSH2 0x458 JUMPI PUSH2 0x100 DUP1 DUP4 SLOAD DIV MUL DUP4 MSTORE SWAP2 PUSH1 0x20 ADD SWAP2 PUSH2 0x483 JUMP JUMPDEST DUP3 ADD SWAP2 SWAP1 PUSH1 0x0 MSTORE PUSH1 0x20 PUSH1 0x0 KECCAK256 SWAP1 JUMPDEST DUP2 SLOAD DUP2 MSTORE SWAP1 PUSH1 0x1 ADD SWAP1 PUSH1 0x20 ADD DUP1 DUP4 GT PUSH2 0x466 JUMPI DUP3 SWAP1 SUB PUSH1 0x1F AND DUP3 ADD SWAP2 JUMPDEST POP POP POP POP POP SWAP1 POP SWAP1 JUMP JUMPDEST PUSH1 0x0 DUP1 PUSH2 0x498 PUSH2 0xB81 JUMP JUMPDEST SWAP1 POP PUSH2 0x4A5 DUP2 DUP6 DUP6 PUSH2 0xB89 JUMP JUMPDEST PUSH1 0x1 SWAP2 POP POP SWAP3 SWAP2 POP POP JUMP JUMPDEST PUSH1 0x0 PUSH1 0x2 SLOAD SWAP1 POP SWAP1 JUMP JUMPDEST PUSH1 0x0 DUP1 PUSH2 0x4C5 PUSH2 0xB81 JUMP JUMPDEST SWAP1 POP PUSH2 0x4D2 DUP6 DUP3 DUP6 PUSH2 0xD54 JUMP JUMPDEST PUSH2 0x4DD DUP6 DUP6 DUP6 PUSH2 0xDE0 JUMP JUMPDEST PUSH1 0x1 SWAP2 POP POP SWAP4 SWAP3 POP POP POP JUMP JUMPDEST PUSH1 0x0 PUSH1 0x12 SWAP1 POP SWAP1 JUMP JUMPDEST PUSH1 0x0 DUP1 PUSH2 0x4FD PUSH2 0xB81 JUMP JUMPDEST SWAP1 POP PUSH2 0x51E DUP2 DUP6 DUP6 PUSH2 0x50F DUP6 DUP10 PUSH2 0x935 JUMP JUMPDEST PUSH2 0x519 SWAP2 SWAP1 PUSH2 0x1BE7 JUMP JUMPDEST PUSH2 0xB89 JUMP JUMPDEST PUSH1 0x1 SWAP2 POP POP SWAP3 SWAP2 POP POP JUMP JUMPDEST PUSH2 0x531 PUSH2 0xB81 JUMP JUMPDEST PUSH20 0xFFFFFFFFFFFFFFFFFFFFFFFFFFFFFFFFFFFFFFFF AND PUSH2 0x54F PUSH2 0x727 JUMP JUMPDEST PUSH20 0xFFFFFFFFFFFFFFFFFFFFFFFFFFFFFFFFFFFFFFFF AND EQ PUSH2 0x5A5 JUMPI PUSH1 0x40 MLOAD PUSH32 0x8C379A000000000000000000000000000000000000000000000000000000000 DUP2 MSTORE PUSH1 0x4 ADD PUSH2 0x59C SWAP1 PUSH2 0x1C89 JUMP JUMPDEST PUSH1 0x40 MLOAD DUP1 SWAP2 SUB SWAP1 REVERT JUMPDEST PUSH2 0x5AF DUP3 DUP3 PUSH2 0x1061 JUMP JUMPDEST POP POP JUMP JUMPDEST PUSH2 0x5C4 PUSH2 0x5BE PUSH2 0xB81 JUMP JUMPDEST DUP3 PUSH2 0x11C1 JUMP JUMPDEST POP JUMP JUMPDEST PUSH1 0x0 DUP1 PUSH1 0x0 PUSH2 0x614 DUP5 PUSH1 0x5 PUSH1 0x0 DUP9 PUSH20 0xFFFFFFFFFFFFFFFFFFFFFFFFFFFFFFFFFFFFFFFF AND PUSH20 0xFFFFFFFFFFFFFFFFFFFFFFFFFFFFFFFFFFFFFFFF AND DUP2 MSTORE PUSH1 0x20 ADD SWAP1 DUP2 MSTORE PUSH1 0x20 ADD PUSH1 0x0 KECCAK256 PUSH2 0x1398 JUMP JUMPDEST SWAP2 POP SWAP2 POP DUP2 PUSH2 0x62B JUMPI PUSH2 0x626 DUP6 PUSH2 0x637 JUMP JUMPDEST PUSH2 0x62D JUMP JUMPDEST DUP1 JUMPDEST SWAP3 POP POP POP SWAP3 SWAP2 POP POP JUMP JUMPDEST PUSH1 0x0 DUP1 PUSH1 0x0 DUP4 PUSH20 0xFFFFFFFFFFFFFFFFFFFFFFFFFFFFFFFFFFFFFFFF AND PUSH20 0xFFFFFFFFFFFFFFFFFFFFFFFFFFFFFFFFFFFFFFFF AND DUP2 MSTORE PUSH1 0x20 ADD SWAP1 DUP2 MSTORE PUSH1 0x20 ADD PUSH1 0x0 KECCAK256 SLOAD SWAP1 POP SWAP2 SWAP1 POP JUMP JUMPDEST PUSH2 0x687 PUSH2 0xB81 JUMP JUMPDEST PUSH20 0xFFFFFFFFFFFFFFFFFFFFFFFFFFFFFFFFFFFFFFFF AND PUSH2 0x6A5 PUSH2 0x727 JUMP JUMPDEST PUSH20 0xFFFFFFFFFFFFFFFFFFFFFFFFFFFFFFFFFFFFFFFF AND EQ PUSH2 0x6FB JUMPI PUSH1 0x40 MLOAD PUSH32 0x8C379A000000000000000000000000000000000000000000000000000000000 DUP2 MSTORE PUSH1 0x4 ADD PUSH2 0x6F2 SWAP1 PUSH2 0x1C89 JUMP JUMPDEST PUSH1 0x40 MLOAD DUP1 SWAP2 SUB SWAP1 REVERT JUMPDEST PUSH2 0x705 PUSH1 0x0 PUSH2 0x148E JUMP JUMPDEST JUMP JUMPDEST PUSH2 0x719 DUP3 PUSH2 0x713 PUSH2 0xB81 JUMP JUMPDEST DUP4 PUSH2 0xD54 JUMP JUMPDEST PUSH2 0x723 DUP3 DUP3 PUSH2 0x11C1 JUMP JUMPDEST POP POP JUMP JUMPDEST PUSH1 0x0 PUSH1 0x9 PUSH1 0x0 SWAP1 SLOAD SWAP1 PUSH2 0x100 EXP SWAP1 DIV PUSH20 0xFFFFFFFFFFFFFFFFFFFFFFFFFFFFFFFFFFFFFFFF AND SWAP1 POP SWAP1 JUMP JUMPDEST PUSH1 0x60 PUSH1 0x4 DUP1 SLOAD PUSH2 0x760 SWAP1 PUSH2 0x1B86 JUMP JUMPDEST DUP1 PUSH1 0x1F ADD PUSH1 0x20 DUP1 SWAP2 DIV MUL PUSH1 0x20 ADD PUSH1 0x40 MLOAD SWAP1 DUP2 ADD PUSH1 0x40 MSTORE DUP1 SWAP3 SWAP2 SWAP1 DUP2 DUP2 MSTORE PUSH1 0x20 ADD DUP3 DUP1 SLOAD PUSH2 0x78C SWAP1 PUSH2 0x1B86 JUMP JUMPDEST DUP1 ISZERO PUSH2 0x7D9 JUMPI DUP1 PUSH1 0x1F LT PUSH2 0x7AE JUMPI PUSH2 0x100 DUP1 DUP4 SLOAD DIV MUL DUP4 MSTORE SWAP2 PUSH1 0x20 ADD SWAP2 PUSH2 0x7D9 JUMP JUMPDEST DUP3 ADD SWAP2 SWAP1 PUSH1 0x0 MSTORE PUSH1 0x20 PUSH1 0x0 KECCAK256 SWAP1 JUMPDEST DUP2 SLOAD DUP2 MSTORE SWAP1 PUSH1 0x1 ADD SWAP1 PUSH1 0x20 ADD DUP1 DUP4 GT PUSH2 0x7BC JUMPI DUP3 SWAP1 SUB PUSH1 0x1F AND DUP3 ADD SWAP2 JUMPDEST POP POP POP POP POP SWAP1 POP SWAP1 JUMP JUMPDEST PUSH2 0x7EB PUSH2 0xB81 JUMP JUMPDEST PUSH20 0xFFFFFFFFFFFFFFFFFFFFFFFFFFFFFFFFFFFFFFFF AND PUSH2 0x809 PUSH2 0x727 JUMP JUMPDEST PUSH20 0xFFFFFFFFFFFFFFFFFFFFFFFFFFFFFFFFFFFFFFFF AND EQ PUSH2 0x85F JUMPI PUSH1 0x40 MLOAD PUSH32 0x8C379A000000000000000000000000000000000000000000000000000000000 DUP2 MSTORE PUSH1 0x4 ADD PUSH2 0x856 SWAP1 PUSH2 0x1C89 JUMP JUMPDEST PUSH1 0x40 MLOAD DUP1 SWAP2 SUB SWAP1 REVERT JUMPDEST PUSH2 0x867 PUSH2 0x1554 JUMP JUMPDEST POP JUMP JUMPDEST PUSH1 0x0 DUP1 PUSH1 0x0 PUSH2 0x87A DUP5 PUSH1 0x6 PUSH2 0x1398 JUMP JUMPDEST SWAP2 POP SWAP2 POP DUP2 PUSH2 0x890 JUMPI PUSH2 0x88B PUSH2 0x4B0 JUMP JUMPDEST PUSH2 0x892 JUMP JUMPDEST DUP1 JUMPDEST SWAP3 POP POP POP SWAP2 SWAP1 POP JUMP JUMPDEST PUSH1 0x0 DUP1 PUSH2 0x8A6 PUSH2 0xB81 JUMP JUMPDEST SWAP1 POP PUSH1 0x0 PUSH2 0x8B4 DUP3 DUP7 PUSH2 0x935 JUMP JUMPDEST SWAP1 POP DUP4 DUP2 LT ISZERO PUSH2 0x8F9 JUMPI PUSH1 0x40 MLOAD PUSH32 0x8C379A000000000000000000000000000000000000000000000000000000000 DUP2 MSTORE PUSH1 0x4 ADD PUSH2 0x8F0 SWAP1 PUSH2 0x1D1B JUMP JUMPDEST PUSH1 0x40 MLOAD DUP1 SWAP2 SUB SWAP1 REVERT JUMPDEST PUSH2 0x906 DUP3 DUP7 DUP7 DUP5 SUB PUSH2 0xB89 JUMP JUMPDEST PUSH1 0x1 SWAP3 POP POP POP SWAP3 SWAP2 POP POP JUMP JUMPDEST PUSH1 0x0 DUP1 PUSH2 0x91D PUSH2 0xB81 JUMP JUMPDEST SWAP1 POP PUSH2 0x92A DUP2 DUP6 DUP6 PUSH2 0xDE0 JUMP JUMPDEST PUSH1 0x1 SWAP2 POP POP SWAP3 SWAP2 POP POP JUMP JUMPDEST PUSH1 0x0 PUSH1 0x1 PUSH1 0x0 DUP5 PUSH20 0xFFFFFFFFFFFFFFFFFFFFFFFFFFFFFFFFFFFFFFFF AND PUSH20 0xFFFFFFFFFFFFFFFFFFFFFFFFFFFFFFFFFFFFFFFF AND DUP2 MSTORE PUSH1 0x20 ADD SWAP1 DUP2 MSTORE PUSH1 0x20 ADD PUSH1 0x0 KECCAK256 PUSH1 0x0 DUP4 PUSH20 0xFFFFFFFFFFFFFFFFFFFFFFFFFFFFFFFFFFFFFFFF AND PUSH20 0xFFFFFFFFFFFFFFFFFFFFFFFFFFFFFFFFFFFFFFFF AND DUP2 MSTORE PUSH1 0x20 ADD SWAP1 DUP2 MSTORE PUSH1 0x20 ADD PUSH1 0x0 KECCAK256 SLOAD SWAP1 POP SWAP3 SWAP2 POP POP JUMP JUMPDEST PUSH2 0x9C4 PUSH2 0xB81 JUMP JUMPDEST PUSH20 0xFFFFFFFFFFFFFFFFFFFFFFFFFFFFFFFFFFFFFFFF AND PUSH2 0x9E2 PUSH2 0x727 JUMP JUMPDEST PUSH20 0xFFFFFFFFFFFFFFFFFFFFFFFFFFFFFFFFFFFFFFFF AND EQ PUSH2 0xA38 JUMPI PUSH1 0x40 MLOAD PUSH32 0x8C379A000000000000000000000000000000000000000000000000000000000 DUP2 MSTORE PUSH1 0x4 ADD PUSH2 0xA2F SWAP1 PUSH2 0x1C89 JUMP JUMPDEST PUSH1 0x40 MLOAD DUP1 SWAP2 SUB SWAP1 REVERT JUMPDEST PUSH1 0x0 PUSH20 0xFFFFFFFFFFFFFFFFFFFFFFFFFFFFFFFFFFFFFFFF AND DUP2 PUSH20 0xFFFFFFFFFFFFFFFFFFFFFFFFFFFFFFFFFFFFFFFF AND EQ ISZERO PUSH2 0xAA8 JUMPI PUSH1 0x40 MLOAD PUSH32 0x8C379A000000000000000000000000000000000000000000000000000000000 DUP2 MSTORE PUSH1 0x4 ADD PUSH2 0xA9F SWAP1 PUSH2 0x1DAD JUMP JUMPDEST PUSH1 0x40 MLOAD DUP1 SWAP2 SUB SWAP1 REVERT JUMPDEST PUSH2 0xAB1 DUP2 PUSH2 0x148E JUMP JUMPDEST POP JUMP JUMPDEST PUSH2 0xABF DUP4 DUP4 DUP4 PUSH2 0xB6E JUMP JUMPDEST PUSH1 0x0 PUSH20 0xFFFFFFFFFFFFFFFFFFFFFFFFFFFFFFFFFFFFFFFF AND DUP4 PUSH20 0xFFFFFFFFFFFFFFFFFFFFFFFFFFFFFFFFFFFFFFFF AND EQ ISZERO PUSH2 0xB0A JUMPI PUSH2 0xAFD DUP3 PUSH2 0x15AA JUMP JUMPDEST PUSH2 0xB05 PUSH2 0x15FD JUMP JUMPDEST PUSH2 0xB69 JUMP JUMPDEST PUSH1 0x0 PUSH20 0xFFFFFFFFFFFFFFFFFFFFFFFFFFFFFFFFFFFFFFFF AND DUP3 PUSH20 0xFFFFFFFFFFFFFFFFFFFFFFFFFFFFFFFFFFFFFFFF AND EQ ISZERO PUSH2 0xB55 JUMPI PUSH2 0xB48 DUP4 PUSH2 0x15AA JUMP JUMPDEST PUSH2 0xB50 PUSH2 0x15FD JUMP JUMPDEST PUSH2 0xB68 JUMP JUMPDEST PUSH2 0xB5E DUP4 PUSH2 0x15AA JUMP JUMPDEST PUSH2 0xB67 DUP3 PUSH2 0x15AA JUMP JUMPDEST JUMPDEST JUMPDEST POP POP POP JUMP JUMPDEST POP POP POP JUMP JUMPDEST PUSH1 0x0 DUP2 PUSH1 0x0 ADD SLOAD SWAP1 POP SWAP2 SWAP1 POP JUMP JUMPDEST PUSH1 0x0 CALLER SWAP1 POP SWAP1 JUMP JUMPDEST PUSH1 0x0 PUSH20 0xFFFFFFFFFFFFFFFFFFFFFFFFFFFFFFFFFFFFFFFF AND DUP4 PUSH20 0xFFFFFFFFFFFFFFFFFFFFFFFFFFFFFFFFFFFFFFFF AND EQ ISZERO PUSH2 0xBF9 JUMPI PUSH1 0x40 MLOAD PUSH32 0x8C379A000000000000000000000000000000000000000000000000000000000 DUP2 MSTORE PUSH1 0x4 ADD PUSH2 0xBF0 SWAP1 PUSH2 0x1E3F JUMP JUMPDEST PUSH1 0x40 MLOAD DUP1 SWAP2 SUB SWAP1 REVERT JUMPDEST PUSH1 0x0 PUSH20 0xFFFFFFFFFFFFFFFFFFFFFFFFFFFFFFFFFFFFFFFF AND DUP3 PUSH20 0xFFFFFFFFFFFFFFFFFFFFFFFFFFFFFFFFFFFFFFFF AND EQ ISZERO PUSH2 0xC69 JUMPI PUSH1 0x40 MLOAD PUSH32 0x8C379A000000000000000000000000000000000000000000000000000000000 DUP2 MSTORE PUSH1 0x4 ADD PUSH2 0xC60 SWAP1 PUSH2 0x1ED1 JUMP JUMPDEST PUSH1 0x40 MLOAD DUP1 SWAP2 SUB SWAP1 REVERT JUMPDEST DUP1 PUSH1 0x1 PUSH1 0x0 DUP6 PUSH20 0xFFFFFFFFFFFFFFFFFFFFFFFFFFFFFFFFFFFFFFFF AND PUSH20 0xFFFFFFFFFFFFFFFFFFFFFFFFFFFFFFFFFFFFFFFF AND DUP2 MSTORE PUSH1 0x20 ADD SWAP1 DUP2 MSTORE PUSH1 0x20 ADD PUSH1 0x0 KECCAK256 PUSH1 0x0 DUP5 PUSH20 0xFFFFFFFFFFFFFFFFFFFFFFFFFFFFFFFFFFFFFFFF AND PUSH20 0xFFFFFFFFFFFFFFFFFFFFFFFFFFFFFFFFFFFFFFFF AND DUP2 MSTORE PUSH1 0x20 ADD SWAP1 DUP2 MSTORE PUSH1 0x20 ADD PUSH1 0x0 KECCAK256 DUP2 SWAP1 SSTORE POP DUP2 PUSH20 0xFFFFFFFFFFFFFFFFFFFFFFFFFFFFFFFFFFFFFFFF AND DUP4 PUSH20 0xFFFFFFFFFFFFFFFFFFFFFFFFFFFFFFFFFFFFFFFF AND PUSH32 0x8C5BE1E5EBEC7D5BD14F71427D1E84F3DD0314C0F7B2291E5B200AC8C7C3B925 DUP4 PUSH1 0x40 MLOAD PUSH2 0xD47 SWAP2 SWAP1 PUSH2 0x19EE JUMP JUMPDEST PUSH1 0x40 MLOAD DUP1 SWAP2 SUB SWAP1 LOG3 POP POP POP JUMP JUMPDEST PUSH1 0x0 PUSH2 0xD60 DUP5 DUP5 PUSH2 0x935 JUMP JUMPDEST SWAP1 POP PUSH32 0xFFFFFFFFFFFFFFFFFFFFFFFFFFFFFFFFFFFFFFFFFFFFFFFFFFFFFFFFFFFFFFFF DUP2 EQ PUSH2 0xDDA JUMPI DUP2 DUP2 LT ISZERO PUSH2 0xDCC JUMPI PUSH1 0x40 MLOAD PUSH32 0x8C379A000000000000000000000000000000000000000000000000000000000 DUP2 MSTORE PUSH1 0x4 ADD PUSH2 0xDC3 SWAP1 PUSH2 0x1F3D JUMP JUMPDEST PUSH1 0x40 MLOAD DUP1 SWAP2 SUB SWAP1 REVERT JUMPDEST PUSH2 0xDD9 DUP5 DUP5 DUP5 DUP5 SUB PUSH2 0xB89 JUMP JUMPDEST JUMPDEST POP POP POP POP JUMP JUMPDEST PUSH1 0x0 PUSH20 0xFFFFFFFFFFFFFFFFFFFFFFFFFFFFFFFFFFFFFFFF AND DUP4 PUSH20 0xFFFFFFFFFFFFFFFFFFFFFFFFFFFFFFFFFFFFFFFF AND EQ ISZERO PUSH2 0xE50 JUMPI PUSH1 0x40 MLOAD PUSH32 0x8C379A000000000000000000000000000000000000000000000000000000000 DUP2 MSTORE PUSH1 0x4 ADD PUSH2 0xE47 SWAP1 PUSH2 0x1FCF JUMP JUMPDEST PUSH1 0x40 MLOAD DUP1 SWAP2 SUB SWAP1 REVERT JUMPDEST PUSH1 0x0 PUSH20 0xFFFFFFFFFFFFFFFFFFFFFFFFFFFFFFFFFFFFFFFF AND DUP3 PUSH20 0xFFFFFFFFFFFFFFFFFFFFFFFFFFFFFFFFFFFFFFFF AND EQ ISZERO PUSH2 0xEC0 JUMPI PUSH1 0x40 MLOAD PUSH32 0x8C379A000000000000000000000000000000000000000000000000000000000 DUP2 MSTORE PUSH1 0x4 ADD PUSH2 0xEB7 SWAP1 PUSH2 0x2061 JUMP JUMPDEST PUSH1 0x40 MLOAD DUP1 SWAP2 SUB SWAP1 REVERT JUMPDEST PUSH2 0xECB DUP4 DUP4 DUP4 PUSH2 0x1611 JUMP JUMPDEST PUSH1 0x0 DUP1 PUSH1 0x0 DUP6 PUSH20 0xFFFFFFFFFFFFFFFFFFFFFFFFFFFFFFFFFFFFFFFF AND PUSH20 0xFFFFFFFFFFFFFFFFFFFFFFFFFFFFFFFFFFFFFFFF AND DUP2 MSTORE PUSH1 0x20 ADD SWAP1 DUP2 MSTORE PUSH1 0x20 ADD PUSH1 0x0 KECCAK256 SLOAD SWAP1 POP DUP2 DUP2 LT ISZERO PUSH2 0xF51 JUMPI PUSH1 0x40 MLOAD PUSH32 0x8C379A000000000000000000000000000000000000000000000000000000000 DUP2 MSTORE PUSH1 0x4 ADD PUSH2 0xF48 SWAP1 PUSH2 0x20F3 JUMP JUMPDEST PUSH1 0x40 MLOAD DUP1 SWAP2 SUB SWAP1 REVERT JUMPDEST DUP2 DUP2 SUB PUSH1 0x0 DUP1 DUP7 PUSH20 0xFFFFFFFFFFFFFFFFFFFFFFFFFFFFFFFFFFFFFFFF AND PUSH20 0xFFFFFFFFFFFFFFFFFFFFFFFFFFFFFFFFFFFFFFFF AND DUP2 MSTORE PUSH1 0x20 ADD SWAP1 DUP2 MSTORE PUSH1 0x20 ADD PUSH1 0x0 KECCAK256 DUP2 SWAP1 SSTORE POP DUP2 PUSH1 0x0 DUP1 DUP6 PUSH20 0xFFFFFFFFFFFFFFFFFFFFFFFFFFFFFFFFFFFFFFFF AND PUSH20 0xFFFFFFFFFFFFFFFFFFFFFFFFFFFFFFFFFFFFFFFF AND DUP2 MSTORE PUSH1 0x20 ADD SWAP1 DUP2 MSTORE PUSH1 0x20 ADD PUSH1 0x0 KECCAK256 PUSH1 0x0 DUP3 DUP3 SLOAD PUSH2 0xFE4 SWAP2 SWAP1 PUSH2 0x1BE7 JUMP JUMPDEST SWAP3 POP POP DUP2 SWAP1 SSTORE POP DUP3 PUSH20 0xFFFFFFFFFFFFFFFFFFFFFFFFFFFFFFFFFFFFFFFF AND DUP5 PUSH20 0xFFFFFFFFFFFFFFFFFFFFFFFFFFFFFFFFFFFFFFFF AND PUSH32 0xDDF252AD1BE2C89B69C2B068FC378DAA952BA7F163C4A11628F55A4DF523B3EF DUP5 PUSH1 0x40 MLOAD PUSH2 0x1048 SWAP2 SWAP1 PUSH2 0x19EE JUMP JUMPDEST PUSH1 0x40 MLOAD DUP1 SWAP2 SUB SWAP1 LOG3 PUSH2 0x105B DUP5 DUP5 DUP5 PUSH2 0x1621 JUMP JUMPDEST POP POP POP POP JUMP JUMPDEST PUSH1 0x0 PUSH20 0xFFFFFFFFFFFFFFFFFFFFFFFFFFFFFFFFFFFFFFFF AND DUP3 PUSH20 0xFFFFFFFFFFFFFFFFFFFFFFFFFFFFFFFFFFFFFFFF AND EQ ISZERO PUSH2 0x10D1 JUMPI PUSH1 0x40 MLOAD PUSH32 0x8C379A000000000000000000000000000000000000000000000000000000000 DUP2 MSTORE PUSH1 0x4 ADD PUSH2 0x10C8 SWAP1 PUSH2 0x215F JUMP JUMPDEST PUSH1 0x40 MLOAD DUP1 SWAP2 SUB SWAP1 REVERT JUMPDEST PUSH2 0x10DD PUSH1 0x0 DUP4 DUP4 PUSH2 0x1611 JUMP JUMPDEST DUP1 PUSH1 0x2 PUSH1 0x0 DUP3 DUP3 SLOAD PUSH2 0x10EF SWAP2 SWAP1 PUSH2 0x1BE7 JUMP JUMPDEST SWAP3 POP POP DUP2 SWAP1 SSTORE POP DUP1 PUSH1 0x0 DUP1 DUP5 PUSH20 0xFFFFFFFFFFFFFFFFFFFFFFFFFFFFFFFFFFFFFFFF AND PUSH20 0xFFFFFFFFFFFFFFFFFFFFFFFFFFFFFFFFFFFFFFFF AND DUP2 MSTORE PUSH1 0x20 ADD SWAP1 DUP2 MSTORE PUSH1 0x20 ADD PUSH1 0x0 KECCAK256 PUSH1 0x0 DUP3 DUP3 SLOAD PUSH2 0x1144 SWAP2 SWAP1 PUSH2 0x1BE7 JUMP JUMPDEST SWAP3 POP POP DUP2 SWAP1 SSTORE POP DUP2 PUSH20 0xFFFFFFFFFFFFFFFFFFFFFFFFFFFFFFFFFFFFFFFF AND PUSH1 0x0 PUSH20 0xFFFFFFFFFFFFFFFFFFFFFFFFFFFFFFFFFFFFFFFF AND PUSH32 0xDDF252AD1BE2C89B69C2B068FC378DAA952BA7F163C4A11628F55A4DF523B3EF DUP4 PUSH1 0x40 MLOAD PUSH2 0x11A9 SWAP2 SWAP1 PUSH2 0x19EE JUMP JUMPDEST PUSH1 0x40 MLOAD DUP1 SWAP2 SUB SWAP1 LOG3 PUSH2 0x11BD PUSH1 0x0 DUP4 DUP4 PUSH2 0x1621 JUMP JUMPDEST POP POP JUMP JUMPDEST PUSH1 0x0 PUSH20 0xFFFFFFFFFFFFFFFFFFFFFFFFFFFFFFFFFFFFFFFF AND DUP3 PUSH20 0xFFFFFFFFFFFFFFFFFFFFFFFFFFFFFFFFFFFFFFFF AND EQ ISZERO PUSH2 0x1231 JUMPI PUSH1 0x40 MLOAD PUSH32 0x8C379A000000000000000000000000000000000000000000000000000000000 DUP2 MSTORE PUSH1 0x4 ADD PUSH2 0x1228 SWAP1 PUSH2 0x21F1 JUMP JUMPDEST PUSH1 0x40 MLOAD DUP1 SWAP2 SUB SWAP1 REVERT JUMPDEST PUSH2 0x123D DUP3 PUSH1 0x0 DUP4 PUSH2 0x1611 JUMP JUMPDEST PUSH1 0x0 DUP1 PUSH1 0x0 DUP5 PUSH20 0xFFFFFFFFFFFFFFFFFFFFFFFFFFFFFFFFFFFFFFFF AND PUSH20 0xFFFFFFFFFFFFFFFFFFFFFFFFFFFFFFFFFFFFFFFF AND DUP2 MSTORE PUSH1 0x20 ADD SWAP1 DUP2 MSTORE PUSH1 0x20 ADD PUSH1 0x0 KECCAK256 SLOAD SWAP1 POP DUP2 DUP2 LT ISZERO PUSH2 0x12C3 JUMPI PUSH1 0x40 MLOAD PUSH32 0x8C379A000000000000000000000000000000000000000000000000000000000 DUP2 MSTORE PUSH1 0x4 ADD PUSH2 0x12BA SWAP1 PUSH2 0x2283 JUMP JUMPDEST PUSH1 0x40 MLOAD DUP1 SWAP2 SUB SWAP1 REVERT JUMPDEST DUP2 DUP2 SUB PUSH1 0x0 DUP1 DUP6 PUSH20 0xFFFFFFFFFFFFFFFFFFFFFFFFFFFFFFFFFFFFFFFF AND PUSH20 0xFFFFFFFFFFFFFFFFFFFFFFFFFFFFFFFFFFFFFFFF AND DUP2 MSTORE PUSH1 0x20 ADD SWAP1 DUP2 MSTORE PUSH1 0x20 ADD PUSH1 0x0 KECCAK256 DUP2 SWAP1 SSTORE POP DUP2 PUSH1 0x2 PUSH1 0x0 DUP3 DUP3 SLOAD PUSH2 0x131A SWAP2 SWAP1 PUSH2 0x22A3 JUMP JUMPDEST SWAP3 POP POP DUP2 SWAP1 SSTORE POP PUSH1 0x0 PUSH20 0xFFFFFFFFFFFFFFFFFFFFFFFFFFFFFFFFFFFFFFFF AND DUP4 PUSH20 0xFFFFFFFFFFFFFFFFFFFFFFFFFFFFFFFFFFFFFFFF AND PUSH32 0xDDF252AD1BE2C89B69C2B068FC378DAA952BA7F163C4A11628F55A4DF523B3EF DUP5 PUSH1 0x40 MLOAD PUSH2 0x137F SWAP2 SWAP1 PUSH2 0x19EE JUMP JUMPDEST PUSH1 0x40 MLOAD DUP1 SWAP2 SUB SWAP1 LOG3 PUSH2 0x1393 DUP4 PUSH1 0x0 DUP5 PUSH2 0x1621 JUMP JUMPDEST POP POP POP JUMP JUMPDEST PUSH1 0x0 DUP1 PUSH1 0x0 DUP5 GT PUSH2 0x13DE JUMPI PUSH1 0x40 MLOAD PUSH32 0x8C379A000000000000000000000000000000000000000000000000000000000 DUP2 MSTORE PUSH1 0x4 ADD PUSH2 0x13D5 SWAP1 PUSH2 0x2323 JUMP JUMPDEST PUSH1 0x40 MLOAD DUP1 SWAP2 SUB SWAP1 REVERT JUMPDEST PUSH2 0x13E6 PUSH2 0x1626 JUMP JUMPDEST DUP5 GT ISZERO PUSH2 0x1428 JUMPI PUSH1 0x40 MLOAD PUSH32 0x8C379A000000000000000000000000000000000000000000000000000000000 DUP2 MSTORE PUSH1 0x4 ADD PUSH2 0x141F SWAP1 PUSH2 0x238F JUMP JUMPDEST PUSH1 0x40 MLOAD DUP1 SWAP2 SUB SWAP1 REVERT JUMPDEST PUSH1 0x0 PUSH2 0x1440 DUP6 DUP6 PUSH1 0x0 ADD PUSH2 0x1637 SWAP1 SWAP2 SWAP1 PUSH4 0xFFFFFFFF AND JUMP JUMPDEST SWAP1 POP DUP4 PUSH1 0x0 ADD DUP1 SLOAD SWAP1 POP DUP2 EQ ISZERO PUSH2 0x145E JUMPI PUSH1 0x0 DUP1 SWAP3 POP SWAP3 POP POP PUSH2 0x1487 JUMP JUMPDEST PUSH1 0x1 DUP5 PUSH1 0x1 ADD DUP3 DUP2 SLOAD DUP2 LT PUSH2 0x1476 JUMPI PUSH2 0x1475 PUSH2 0x23AF JUMP JUMPDEST JUMPDEST SWAP1 PUSH1 0x0 MSTORE PUSH1 0x20 PUSH1 0x0 KECCAK256 ADD SLOAD SWAP3 POP SWAP3 POP POP JUMPDEST SWAP3 POP SWAP3 SWAP1 POP JUMP JUMPDEST PUSH1 0x0 PUSH1 0x9 PUSH1 0x0 SWAP1 SLOAD SWAP1 PUSH2 0x100 EXP SWAP1 DIV PUSH20 0xFFFFFFFFFFFFFFFFFFFFFFFFFFFFFFFFFFFFFFFF AND SWAP1 POP DUP2 PUSH1 0x9 PUSH1 0x0 PUSH2 0x100 EXP DUP2 SLOAD DUP2 PUSH20 0xFFFFFFFFFFFFFFFFFFFFFFFFFFFFFFFFFFFFFFFF MUL NOT AND SWAP1 DUP4 PUSH20 0xFFFFFFFFFFFFFFFFFFFFFFFFFFFFFFFFFFFFFFFF AND MUL OR SWAP1 SSTORE POP DUP2 PUSH20 0xFFFFFFFFFFFFFFFFFFFFFFFFFFFFFFFFFFFFFFFF AND DUP2 PUSH20 0xFFFFFFFFFFFFFFFFFFFFFFFFFFFFFFFFFFFFFFFF AND PUSH32 0x8BE0079C531659141344CD1FD0A4F28419497F9722A3DAAFE3B4186F6B6457E0 PUSH1 0x40 MLOAD PUSH1 0x40 MLOAD DUP1 SWAP2 SUB SWAP1 LOG3 POP POP JUMP JUMPDEST PUSH1 0x0 PUSH2 0x1560 PUSH1 0x8 PUSH2 0x1711 JUMP JUMPDEST PUSH1 0x0 PUSH2 0x156A PUSH2 0x1626 JUMP JUMPDEST SWAP1 POP PUSH32 0x8030E83B04D87BEF53480E26263266D6CA66863AA8506ACA6F2559D18AA1CB67 DUP2 PUSH1 0x40 MLOAD PUSH2 0x159B SWAP2 SWAP1 PUSH2 0x19EE JUMP JUMPDEST PUSH1 0x40 MLOAD DUP1 SWAP2 SUB SWAP1 LOG1 DUP1 SWAP2 POP POP SWAP1 JUMP JUMPDEST PUSH2 0x15FA PUSH1 0x5 PUSH1 0x0 DUP4 PUSH20 0xFFFFFFFFFFFFFFFFFFFFFFFFFFFFFFFFFFFFFFFF AND PUSH20 0xFFFFFFFFFFFFFFFFFFFFFFFFFFFFFFFFFFFFFFFF AND DUP2 MSTORE PUSH1 0x20 ADD SWAP1 DUP2 MSTORE PUSH1 0x20 ADD PUSH1 0x0 KECCAK256 PUSH2 0x15F5 DUP4 PUSH2 0x637 JUMP JUMPDEST PUSH2 0x1727 JUMP JUMPDEST POP JUMP JUMPDEST PUSH2 0x160F PUSH1 0x6 PUSH2 0x160A PUSH2 0x4B0 JUMP JUMPDEST PUSH2 0x1727 JUMP JUMPDEST JUMP JUMPDEST PUSH2 0x161C DUP4 DUP4 DUP4 PUSH2 0xAB4 JUMP JUMPDEST POP POP POP JUMP JUMPDEST POP POP POP JUMP JUMPDEST PUSH1 0x0 PUSH2 0x1632 PUSH1 0x8 PUSH2 0xB73 JUMP JUMPDEST SWAP1 POP SWAP1 JUMP JUMPDEST PUSH1 0x0 DUP1 DUP4 DUP1 SLOAD SWAP1 POP EQ ISZERO PUSH2 0x164E JUMPI PUSH1 0x0 SWAP1 POP PUSH2 0x170B JUMP JUMPDEST PUSH1 0x0 DUP1 DUP5 DUP1 SLOAD SWAP1 POP SWAP1 POP JUMPDEST DUP1 DUP3 LT ISZERO PUSH2 0x16B2 JUMPI PUSH1 0x0 PUSH2 0x166D DUP4 DUP4 PUSH2 0x17A2 JUMP JUMPDEST SWAP1 POP DUP5 DUP7 DUP3 DUP2 SLOAD DUP2 LT PUSH2 0x1683 JUMPI PUSH2 0x1682 PUSH2 0x23AF JUMP JUMPDEST JUMPDEST SWAP1 PUSH1 0x0 MSTORE PUSH1 0x20 PUSH1 0x0 KECCAK256 ADD SLOAD GT ISZERO PUSH2 0x169C JUMPI DUP1 SWAP2 POP PUSH2 0x16AC JUMP JUMPDEST PUSH1 0x1 DUP2 PUSH2 0x16A9 SWAP2 SWAP1 PUSH2 0x1BE7 JUMP JUMPDEST SWAP3 POP JUMPDEST POP PUSH2 0x1659 JUMP JUMPDEST PUSH1 0x0 DUP3 GT DUP1 ISZERO PUSH2 0x16EA JUMPI POP DUP4 DUP6 PUSH1 0x1 DUP5 PUSH2 0x16CC SWAP2 SWAP1 PUSH2 0x22A3 JUMP JUMPDEST DUP2 SLOAD DUP2 LT PUSH2 0x16DD JUMPI PUSH2 0x16DC PUSH2 0x23AF JUMP JUMPDEST JUMPDEST SWAP1 PUSH1 0x0 MSTORE PUSH1 0x20 PUSH1 0x0 KECCAK256 ADD SLOAD EQ JUMPDEST ISZERO PUSH2 0x1705 JUMPI PUSH1 0x1 DUP3 PUSH2 0x16FC SWAP2 SWAP1 PUSH2 0x22A3 JUMP JUMPDEST SWAP3 POP POP POP PUSH2 0x170B JUMP JUMPDEST DUP2 SWAP3 POP POP POP JUMPDEST SWAP3 SWAP2 POP POP JUMP JUMPDEST PUSH1 0x1 DUP2 PUSH1 0x0 ADD PUSH1 0x0 DUP3 DUP3 SLOAD ADD SWAP3 POP POP DUP2 SWAP1 SSTORE POP POP JUMP JUMPDEST PUSH1 0x0 PUSH2 0x1731 PUSH2 0x1626 JUMP JUMPDEST SWAP1 POP DUP1 PUSH2 0x1740 DUP5 PUSH1 0x0 ADD PUSH2 0x17C8 JUMP JUMPDEST LT ISZERO PUSH2 0x179D JUMPI DUP3 PUSH1 0x0 ADD DUP2 SWAP1 DUP1 PUSH1 0x1 DUP2 SLOAD ADD DUP1 DUP3 SSTORE DUP1 SWAP2 POP POP PUSH1 0x1 SWAP1 SUB SWAP1 PUSH1 0x0 MSTORE PUSH1 0x20 PUSH1 0x0 KECCAK256 ADD PUSH1 0x0 SWAP1 SWAP2 SWAP1 SWAP2 SWAP1 SWAP2 POP SSTORE DUP3 PUSH1 0x1 ADD DUP3 SWAP1 DUP1 PUSH1 0x1 DUP2 SLOAD ADD DUP1 DUP3 SSTORE DUP1 SWAP2 POP POP PUSH1 0x1 SWAP1 SUB SWAP1 PUSH1 0x0 MSTORE PUSH1 0x20 PUSH1 0x0 KECCAK256 ADD PUSH1 0x0 SWAP1 SWAP2 SWAP1 SWAP2 SWAP1 SWAP2 POP SSTORE JUMPDEST POP POP POP JUMP JUMPDEST PUSH1 0x0 PUSH1 0x2 DUP3 DUP5 XOR PUSH2 0x17B3 SWAP2 SWAP1 PUSH2 0x240D JUMP JUMPDEST DUP3 DUP5 AND PUSH2 0x17C0 SWAP2 SWAP1 PUSH2 0x1BE7 JUMP JUMPDEST SWAP1 POP SWAP3 SWAP2 POP POP JUMP JUMPDEST PUSH1 0x0 DUP1 DUP3 DUP1 SLOAD SWAP1 POP EQ ISZERO PUSH2 0x17DF JUMPI PUSH1 0x0 SWAP1 POP PUSH2 0x1810 JUMP JUMPDEST DUP2 PUSH1 0x1 DUP4 DUP1 SLOAD SWAP1 POP PUSH2 0x17F1 SWAP2 SWAP1 PUSH2 0x22A3 JUMP JUMPDEST DUP2 SLOAD DUP2 LT PUSH2 0x1802 JUMPI PUSH2 0x1801 PUSH2 0x23AF JUMP JUMPDEST JUMPDEST SWAP1 PUSH1 0x0 MSTORE PUSH1 0x20 PUSH1 0x0 KECCAK256 ADD SLOAD SWAP1 POP JUMPDEST SWAP2 SWAP1 POP JUMP JUMPDEST PUSH1 0x0 DUP2 MLOAD SWAP1 POP SWAP2 SWAP1 POP JUMP JUMPDEST PUSH1 0x0 DUP3 DUP3 MSTORE PUSH1 0x20 DUP3 ADD SWAP1 POP SWAP3 SWAP2 POP POP JUMP JUMPDEST PUSH1 0x0 JUMPDEST DUP4 DUP2 LT ISZERO PUSH2 0x184F JUMPI DUP1 DUP3 ADD MLOAD DUP2 DUP5 ADD MSTORE PUSH1 0x20 DUP2 ADD SWAP1 POP PUSH2 0x1834 JUMP JUMPDEST DUP4 DUP2 GT ISZERO PUSH2 0x185E JUMPI PUSH1 0x0 DUP5 DUP5 ADD MSTORE JUMPDEST POP POP POP POP JUMP JUMPDEST PUSH1 0x0 PUSH1 0x1F NOT PUSH1 0x1F DUP4 ADD AND SWAP1 POP SWAP2 SWAP1 POP JUMP JUMPDEST PUSH1 0x0 PUSH2 0x1880 DUP3 PUSH2 0x1815 JUMP JUMPDEST PUSH2 0x188A DUP2 DUP6 PUSH2 0x1820 JUMP JUMPDEST SWAP4 POP PUSH2 0x189A DUP2 DUP6 PUSH1 0x20 DUP7 ADD PUSH2 0x1831 JUMP JUMPDEST PUSH2 0x18A3 DUP2 PUSH2 0x1864 JUMP JUMPDEST DUP5 ADD SWAP2 POP POP SWAP3 SWAP2 POP POP JUMP JUMPDEST PUSH1 0x0 PUSH1 0x20 DUP3 ADD SWAP1 POP DUP2 DUP2 SUB PUSH1 0x0 DUP4 ADD MSTORE PUSH2 0x18C8 DUP2 DUP5 PUSH2 0x1875 JUMP JUMPDEST SWAP1 POP SWAP3 SWAP2 POP POP JUMP JUMPDEST PUSH1 0x0 DUP1 REVERT JUMPDEST PUSH1 0x0 PUSH20 0xFFFFFFFFFFFFFFFFFFFFFFFFFFFFFFFFFFFFFFFF DUP3 AND SWAP1 POP SWAP2 SWAP1 POP JUMP JUMPDEST PUSH1 0x0 PUSH2 0x1900 DUP3 PUSH2 0x18D5 JUMP JUMPDEST SWAP1 POP SWAP2 SWAP1 POP JUMP JUMPDEST PUSH2 0x1910 DUP2 PUSH2 0x18F5 JUMP JUMPDEST DUP2 EQ PUSH2 0x191B JUMPI PUSH1 0x0 DUP1 REVERT JUMPDEST POP JUMP JUMPDEST PUSH1 0x0 DUP2 CALLDATALOAD SWAP1 POP PUSH2 0x192D DUP2 PUSH2 0x1907 JUMP JUMPDEST SWAP3 SWAP2 POP POP JUMP JUMPDEST PUSH1 0x0 DUP2 SWAP1 POP SWAP2 SWAP1 POP JUMP JUMPDEST PUSH2 0x1946 DUP2 PUSH2 0x1933 JUMP JUMPDEST DUP2 EQ PUSH2 0x1951 JUMPI PUSH1 0x0 DUP1 REVERT JUMPDEST POP JUMP JUMPDEST PUSH1 0x0 DUP2 CALLDATALOAD SWAP1 POP PUSH2 0x1963 DUP2 PUSH2 0x193D JUMP JUMPDEST SWAP3 SWAP2 POP POP JUMP JUMPDEST PUSH1 0x0 DUP1 PUSH1 0x40 DUP4 DUP6 SUB SLT ISZERO PUSH2 0x1980 JUMPI PUSH2 0x197F PUSH2 0x18D0 JUMP JUMPDEST JUMPDEST PUSH1 0x0 PUSH2 0x198E DUP6 DUP3 DUP7 ADD PUSH2 0x191E JUMP JUMPDEST SWAP3 POP POP PUSH1 0x20 PUSH2 0x199F DUP6 DUP3 DUP7 ADD PUSH2 0x1954 JUMP JUMPDEST SWAP2 POP POP SWAP3 POP SWAP3 SWAP1 POP JUMP JUMPDEST PUSH1 0x0 DUP2 ISZERO ISZERO SWAP1 POP SWAP2 SWAP1 POP JUMP JUMPDEST PUSH2 0x19BE DUP2 PUSH2 0x19A9 JUMP JUMPDEST DUP3 MSTORE POP POP JUMP JUMPDEST PUSH1 0x0 PUSH1 0x20 DUP3 ADD SWAP1 POP PUSH2 0x19D9 PUSH1 0x0 DUP4 ADD DUP5 PUSH2 0x19B5 JUMP JUMPDEST SWAP3 SWAP2 POP POP JUMP JUMPDEST PUSH2 0x19E8 DUP2 PUSH2 0x1933 JUMP JUMPDEST DUP3 MSTORE POP POP JUMP JUMPDEST PUSH1 0x0 PUSH1 0x20 DUP3 ADD SWAP1 POP PUSH2 0x1A03 PUSH1 0x0 DUP4 ADD DUP5 PUSH2 0x19DF JUMP JUMPDEST SWAP3 SWAP2 POP POP JUMP JUMPDEST PUSH1 0x0 DUP1 PUSH1 0x0 PUSH1 0x60 DUP5 DUP7 SUB SLT ISZERO PUSH2 0x1A22 JUMPI PUSH2 0x1A21 PUSH2 0x18D0 JUMP JUMPDEST JUMPDEST PUSH1 0x0 PUSH2 0x1A30 DUP7 DUP3 DUP8 ADD PUSH2 0x191E JUMP JUMPDEST SWAP4 POP POP PUSH1 0x20 PUSH2 0x1A41 DUP7 DUP3 DUP8 ADD PUSH2 0x191E JUMP JUMPDEST SWAP3 POP POP PUSH1 0x40 PUSH2 0x1A52 DUP7 DUP3 DUP8 ADD PUSH2 0x1954 JUMP JUMPDEST SWAP2 POP POP SWAP3 POP SWAP3 POP SWAP3 JUMP JUMPDEST PUSH1 0x0 PUSH1 0xFF DUP3 AND SWAP1 POP SWAP2 SWAP1 POP JUMP JUMPDEST PUSH2 0x1A72 DUP2 PUSH2 0x1A5C JUMP JUMPDEST DUP3 MSTORE POP POP JUMP JUMPDEST PUSH1 0x0 PUSH1 0x20 DUP3 ADD SWAP1 POP PUSH2 0x1A8D PUSH1 0x0 DUP4 ADD DUP5 PUSH2 0x1A69 JUMP JUMPDEST SWAP3 SWAP2 POP POP JUMP JUMPDEST PUSH1 0x0 PUSH1 0x20 DUP3 DUP5 SUB SLT ISZERO PUSH2 0x1AA9 JUMPI PUSH2 0x1AA8 PUSH2 0x18D0 JUMP JUMPDEST JUMPDEST PUSH1 0x0 PUSH2 0x1AB7 DUP5 DUP3 DUP6 ADD PUSH2 0x1954 JUMP JUMPDEST SWAP2 POP POP SWAP3 SWAP2 POP POP JUMP JUMPDEST PUSH1 0x0 PUSH1 0x20 DUP3 DUP5 SUB SLT ISZERO PUSH2 0x1AD6 JUMPI PUSH2 0x1AD5 PUSH2 0x18D0 JUMP JUMPDEST JUMPDEST PUSH1 0x0 PUSH2 0x1AE4 DUP5 DUP3 DUP6 ADD PUSH2 0x191E JUMP JUMPDEST SWAP2 POP POP SWAP3 SWAP2 POP POP JUMP JUMPDEST PUSH2 0x1AF6 DUP2 PUSH2 0x18F5 JUMP JUMPDEST DUP3 MSTORE POP POP JUMP JUMPDEST PUSH1 0x0 PUSH1 0x20 DUP3 ADD SWAP1 POP PUSH2 0x1B11 PUSH1 0x0 DUP4 ADD DUP5 PUSH2 0x1AED JUMP JUMPDEST SWAP3 SWAP2 POP POP JUMP JUMPDEST PUSH1 0x0 DUP1 PUSH1 0x40 DUP4 DUP6 SUB SLT ISZERO PUSH2 0x1B2E JUMPI PUSH2 0x1B2D PUSH2 0x18D0 JUMP JUMPDEST JUMPDEST PUSH1 0x0 PUSH2 0x1B3C DUP6 DUP3 DUP7 ADD PUSH2 0x191E JUMP JUMPDEST SWAP3 POP POP PUSH1 0x20 PUSH2 0x1B4D DUP6 DUP3 DUP7 ADD PUSH2 0x191E JUMP JUMPDEST SWAP2 POP POP SWAP3 POP SWAP3 SWAP1 POP JUMP JUMPDEST PUSH32 0x4E487B7100000000000000000000000000000000000000000000000000000000 PUSH1 0x0 MSTORE PUSH1 0x22 PUSH1 0x4 MSTORE PUSH1 0x24 PUSH1 0x0 REVERT JUMPDEST PUSH1 0x0 PUSH1 0x2 DUP3 DIV SWAP1 POP PUSH1 0x1 DUP3 AND DUP1 PUSH2 0x1B9E JUMPI PUSH1 0x7F DUP3 AND SWAP2 POP JUMPDEST PUSH1 0x20 DUP3 LT DUP2 EQ ISZERO PUSH2 0x1BB2 JUMPI PUSH2 0x1BB1 PUSH2 0x1B57 JUMP JUMPDEST JUMPDEST POP SWAP2 SWAP1 POP JUMP JUMPDEST PUSH32 0x4E487B7100000000000000000000000000000000000000000000000000000000 PUSH1 0x0 MSTORE PUSH1 0x11 PUSH1 0x4 MSTORE PUSH1 0x24 PUSH1 0x0 REVERT JUMPDEST PUSH1 0x0 PUSH2 0x1BF2 DUP3 PUSH2 0x1933 JUMP JUMPDEST SWAP2 POP PUSH2 0x1BFD DUP4 PUSH2 0x1933 JUMP JUMPDEST SWAP3 POP DUP3 PUSH32 0xFFFFFFFFFFFFFFFFFFFFFFFFFFFFFFFFFFFFFFFFFFFFFFFFFFFFFFFFFFFFFFFF SUB DUP3 GT ISZERO PUSH2 0x1C32 JUMPI PUSH2 0x1C31 PUSH2 0x1BB8 JUMP JUMPDEST JUMPDEST DUP3 DUP3 ADD SWAP1 POP SWAP3 SWAP2 POP POP JUMP JUMPDEST PUSH32 0x4F776E61626C653A2063616C6C6572206973206E6F7420746865206F776E6572 PUSH1 0x0 DUP3 ADD MSTORE POP JUMP JUMPDEST PUSH1 0x0 PUSH2 0x1C73 PUSH1 0x20 DUP4 PUSH2 0x1820 JUMP JUMPDEST SWAP2 POP PUSH2 0x1C7E DUP3 PUSH2 0x1C3D JUMP JUMPDEST PUSH1 0x20 DUP3 ADD SWAP1 POP SWAP2 SWAP1 POP JUMP JUMPDEST PUSH1 0x0 PUSH1 0x20 DUP3 ADD SWAP1 POP DUP2 DUP2 SUB PUSH1 0x0 DUP4 ADD MSTORE PUSH2 0x1CA2 DUP2 PUSH2 0x1C66 JUMP JUMPDEST SWAP1 POP SWAP2 SWAP1 POP JUMP JUMPDEST PUSH32 0x45524332303A2064656372656173656420616C6C6F77616E63652062656C6F77 PUSH1 0x0 DUP3 ADD MSTORE PUSH32 0x207A65726F000000000000000000000000000000000000000000000000000000 PUSH1 0x20 DUP3 ADD MSTORE POP JUMP JUMPDEST PUSH1 0x0 PUSH2 0x1D05 PUSH1 0x25 DUP4 PUSH2 0x1820 JUMP JUMPDEST SWAP2 POP PUSH2 0x1D10 DUP3 PUSH2 0x1CA9 JUMP JUMPDEST PUSH1 0x40 DUP3 ADD SWAP1 POP SWAP2 SWAP1 POP JUMP JUMPDEST PUSH1 0x0 PUSH1 0x20 DUP3 ADD SWAP1 POP DUP2 DUP2 SUB PUSH1 0x0 DUP4 ADD MSTORE PUSH2 0x1D34 DUP2 PUSH2 0x1CF8 JUMP JUMPDEST SWAP1 POP SWAP2 SWAP1 POP JUMP JUMPDEST PUSH32 0x4F776E61626C653A206E6577206F776E657220697320746865207A65726F2061 PUSH1 0x0 DUP3 ADD MSTORE PUSH32 0x6464726573730000000000000000000000000000000000000000000000000000 PUSH1 0x20 DUP3 ADD MSTORE POP JUMP JUMPDEST PUSH1 0x0 PUSH2 0x1D97 PUSH1 0x26 DUP4 PUSH2 0x1820 JUMP JUMPDEST SWAP2 POP PUSH2 0x1DA2 DUP3 PUSH2 0x1D3B JUMP JUMPDEST PUSH1 0x40 DUP3 ADD SWAP1 POP SWAP2 SWAP1 POP JUMP JUMPDEST PUSH1 0x0 PUSH1 0x20 DUP3 ADD SWAP1 POP DUP2 DUP2 SUB PUSH1 0x0 DUP4 ADD MSTORE PUSH2 0x1DC6 DUP2 PUSH2 0x1D8A JUMP JUMPDEST SWAP1 POP SWAP2 SWAP1 POP JUMP JUMPDEST PUSH32 0x45524332303A20617070726F76652066726F6D20746865207A65726F20616464 PUSH1 0x0 DUP3 ADD MSTORE PUSH32 0x7265737300000000000000000000000000000000000000000000000000000000 PUSH1 0x20 DUP3 ADD MSTORE POP JUMP JUMPDEST PUSH1 0x0 PUSH2 0x1E29 PUSH1 0x24 DUP4 PUSH2 0x1820 JUMP JUMPDEST SWAP2 POP PUSH2 0x1E34 DUP3 PUSH2 0x1DCD JUMP JUMPDEST PUSH1 0x40 DUP3 ADD SWAP1 POP SWAP2 SWAP1 POP JUMP JUMPDEST PUSH1 0x0 PUSH1 0x20 DUP3 ADD SWAP1 POP DUP2 DUP2 SUB PUSH1 0x0 DUP4 ADD MSTORE PUSH2 0x1E58 DUP2 PUSH2 0x1E1C JUMP JUMPDEST SWAP1 POP SWAP2 SWAP1 POP JUMP JUMPDEST PUSH32 0x45524332303A20617070726F766520746F20746865207A65726F206164647265 PUSH1 0x0 DUP3 ADD MSTORE PUSH32 0x7373000000000000000000000000000000000000000000000000000000000000 PUSH1 0x20 DUP3 ADD MSTORE POP JUMP JUMPDEST PUSH1 0x0 PUSH2 0x1EBB PUSH1 0x22 DUP4 PUSH2 0x1820 JUMP JUMPDEST SWAP2 POP PUSH2 0x1EC6 DUP3 PUSH2 0x1E5F JUMP JUMPDEST PUSH1 0x40 DUP3 ADD SWAP1 POP SWAP2 SWAP1 POP JUMP JUMPDEST PUSH1 0x0 PUSH1 0x20 DUP3 ADD SWAP1 POP DUP2 DUP2 SUB PUSH1 0x0 DUP4 ADD MSTORE PUSH2 0x1EEA DUP2 PUSH2 0x1EAE JUMP JUMPDEST SWAP1 POP SWAP2 SWAP1 POP JUMP JUMPDEST PUSH32 0x45524332303A20696E73756666696369656E7420616C6C6F77616E6365000000 PUSH1 0x0 DUP3 ADD MSTORE POP JUMP JUMPDEST PUSH1 0x0 PUSH2 0x1F27 PUSH1 0x1D DUP4 PUSH2 0x1820 JUMP JUMPDEST SWAP2 POP PUSH2 0x1F32 DUP3 PUSH2 0x1EF1 JUMP JUMPDEST PUSH1 0x20 DUP3 ADD SWAP1 POP SWAP2 SWAP1 POP JUMP JUMPDEST PUSH1 0x0 PUSH1 0x20 DUP3 ADD SWAP1 POP DUP2 DUP2 SUB PUSH1 0x0 DUP4 ADD MSTORE PUSH2 0x1F56 DUP2 PUSH2 0x1F1A JUMP JUMPDEST SWAP1 POP SWAP2 SWAP1 POP JUMP JUMPDEST PUSH32 0x45524332303A207472616E736665722066726F6D20746865207A65726F206164 PUSH1 0x0 DUP3 ADD MSTORE PUSH32 0x6472657373000000000000000000000000000000000000000000000000000000 PUSH1 0x20 DUP3 ADD MSTORE POP JUMP JUMPDEST PUSH1 0x0 PUSH2 0x1FB9 PUSH1 0x25 DUP4 PUSH2 0x1820 JUMP JUMPDEST SWAP2 POP PUSH2 0x1FC4 DUP3 PUSH2 0x1F5D JUMP JUMPDEST PUSH1 0x40 DUP3 ADD SWAP1 POP SWAP2 SWAP1 POP JUMP JUMPDEST PUSH1 0x0 PUSH1 0x20 DUP3 ADD SWAP1 POP DUP2 DUP2 SUB PUSH1 0x0 DUP4 ADD MSTORE PUSH2 0x1FE8 DUP2 PUSH2 0x1FAC JUMP JUMPDEST SWAP1 POP SWAP2 SWAP1 POP JUMP JUMPDEST PUSH32 0x45524332303A207472616E7366657220746F20746865207A65726F2061646472 PUSH1 0x0 DUP3 ADD MSTORE PUSH32 0x6573730000000000000000000000000000000000000000000000000000000000 PUSH1 0x20 DUP3 ADD MSTORE POP JUMP JUMPDEST PUSH1 0x0 PUSH2 0x204B PUSH1 0x23 DUP4 PUSH2 0x1820 JUMP JUMPDEST SWAP2 POP PUSH2 0x2056 DUP3 PUSH2 0x1FEF JUMP JUMPDEST PUSH1 0x40 DUP3 ADD SWAP1 POP SWAP2 SWAP1 POP JUMP JUMPDEST PUSH1 0x0 PUSH1 0x20 DUP3 ADD SWAP1 POP DUP2 DUP2 SUB PUSH1 0x0 DUP4 ADD MSTORE PUSH2 0x207A DUP2 PUSH2 0x203E JUMP JUMPDEST SWAP1 POP SWAP2 SWAP1 POP JUMP JUMPDEST PUSH32 0x45524332303A207472616E7366657220616D6F756E7420657863656564732062 PUSH1 0x0 DUP3 ADD MSTORE PUSH32 0x616C616E63650000000000000000000000000000000000000000000000000000 PUSH1 0x20 DUP3 ADD MSTORE POP JUMP JUMPDEST PUSH1 0x0 PUSH2 0x20DD PUSH1 0x26 DUP4 PUSH2 0x1820 JUMP JUMPDEST SWAP2 POP PUSH2 0x20E8 DUP3 PUSH2 0x2081 JUMP JUMPDEST PUSH1 0x40 DUP3 ADD SWAP1 POP SWAP2 SWAP1 POP JUMP JUMPDEST PUSH1 0x0 PUSH1 0x20 DUP3 ADD SWAP1 POP DUP2 DUP2 SUB PUSH1 0x0 DUP4 ADD MSTORE PUSH2 0x210C DUP2 PUSH2 0x20D0 JUMP JUMPDEST SWAP1 POP SWAP2 SWAP1 POP JUMP JUMPDEST PUSH32 0x45524332303A206D696E7420746F20746865207A65726F206164647265737300 PUSH1 0x0 DUP3 ADD MSTORE POP JUMP JUMPDEST PUSH1 0x0 PUSH2 0x2149 PUSH1 0x1F DUP4 PUSH2 0x1820 JUMP JUMPDEST SWAP2 POP PUSH2 0x2154 DUP3 PUSH2 0x2113 JUMP JUMPDEST PUSH1 0x20 DUP3 ADD SWAP1 POP SWAP2 SWAP1 POP JUMP JUMPDEST PUSH1 0x0 PUSH1 0x20 DUP3 ADD SWAP1 POP DUP2 DUP2 SUB PUSH1 0x0 DUP4 ADD MSTORE PUSH2 0x2178 DUP2 PUSH2 0x213C JUMP JUMPDEST SWAP1 POP SWAP2 SWAP1 POP JUMP JUMPDEST PUSH32 0x45524332303A206275726E2066726F6D20746865207A65726F20616464726573 PUSH1 0x0 DUP3 ADD MSTORE PUSH32 0x7300000000000000000000000000000000000000000000000000000000000000 PUSH1 0x20 DUP3 ADD MSTORE POP JUMP JUMPDEST PUSH1 0x0 PUSH2 0x21DB PUSH1 0x21 DUP4 PUSH2 0x1820 JUMP JUMPDEST SWAP2 POP PUSH2 0x21E6 DUP3 PUSH2 0x217F JUMP JUMPDEST PUSH1 0x40 DUP3 ADD SWAP1 POP SWAP2 SWAP1 POP JUMP JUMPDEST PUSH1 0x0 PUSH1 0x20 DUP3 ADD SWAP1 POP DUP2 DUP2 SUB PUSH1 0x0 DUP4 ADD MSTORE PUSH2 0x220A DUP2 PUSH2 0x21CE JUMP JUMPDEST SWAP1 POP SWAP2 SWAP1 POP JUMP JUMPDEST PUSH32 0x45524332303A206275726E20616D6F756E7420657863656564732062616C616E PUSH1 0x0 DUP3 ADD MSTORE PUSH32 0x6365000000000000000000000000000000000000000000000000000000000000 PUSH1 0x20 DUP3 ADD MSTORE POP JUMP JUMPDEST PUSH1 0x0 PUSH2 0x226D PUSH1 0x22 DUP4 PUSH2 0x1820 JUMP JUMPDEST SWAP2 POP PUSH2 0x2278 DUP3 PUSH2 0x2211 JUMP JUMPDEST PUSH1 0x40 DUP3 ADD SWAP1 POP SWAP2 SWAP1 POP JUMP JUMPDEST PUSH1 0x0 PUSH1 0x20 DUP3 ADD SWAP1 POP DUP2 DUP2 SUB PUSH1 0x0 DUP4 ADD MSTORE PUSH2 0x229C DUP2 PUSH2 0x2260 JUMP JUMPDEST SWAP1 POP SWAP2 SWAP1 POP JUMP JUMPDEST PUSH1 0x0 PUSH2 0x22AE DUP3 PUSH2 0x1933 JUMP JUMPDEST SWAP2 POP PUSH2 0x22B9 DUP4 PUSH2 0x1933 JUMP JUMPDEST SWAP3 POP DUP3 DUP3 LT ISZERO PUSH2 0x22CC JUMPI PUSH2 0x22CB PUSH2 0x1BB8 JUMP JUMPDEST JUMPDEST DUP3 DUP3 SUB SWAP1 POP SWAP3 SWAP2 POP POP JUMP JUMPDEST PUSH32 0x4552433230536E617073686F743A206964206973203000000000000000000000 PUSH1 0x0 DUP3 ADD MSTORE POP JUMP JUMPDEST PUSH1 0x0 PUSH2 0x230D PUSH1 0x16 DUP4 PUSH2 0x1820 JUMP JUMPDEST SWAP2 POP PUSH2 0x2318 DUP3 PUSH2 0x22D7 JUMP JUMPDEST PUSH1 0x20 DUP3 ADD SWAP1 POP SWAP2 SWAP1 POP JUMP JUMPDEST PUSH1 0x0 PUSH1 0x20 DUP3 ADD SWAP1 POP DUP2 DUP2 SUB PUSH1 0x0 DUP4 ADD MSTORE PUSH2 0x233C DUP2 PUSH2 0x2300 JUMP JUMPDEST SWAP1 POP SWAP2 SWAP1 POP JUMP JUMPDEST PUSH32 0x4552433230536E617073686F743A206E6F6E6578697374656E74206964000000 PUSH1 0x0 DUP3 ADD MSTORE POP JUMP JUMPDEST PUSH1 0x0 PUSH2 0x2379 PUSH1 0x1D DUP4 PUSH2 0x1820 JUMP JUMPDEST SWAP2 POP PUSH2 0x2384 DUP3 PUSH2 0x2343 JUMP JUMPDEST PUSH1 0x20 DUP3 ADD SWAP1 POP SWAP2 SWAP1 POP JUMP JUMPDEST PUSH1 0x0 PUSH1 0x20 DUP3 ADD SWAP1 POP DUP2 DUP2 SUB PUSH1 0x0 DUP4 ADD MSTORE PUSH2 0x23A8 DUP2 PUSH2 0x236C JUMP JUMPDEST SWAP1 POP SWAP2 SWAP1 POP JUMP JUMPDEST PUSH32 0x4E487B7100000000000000000000000000000000000000000000000000000000 PUSH1 0x0 MSTORE PUSH1 0x32 PUSH1 0x4 MSTORE PUSH1 0x24 PUSH1 0x0 REVERT JUMPDEST PUSH32 0x4E487B7100000000000000000000000000000000000000000000000000000000 PUSH1 0x0 MSTORE PUSH1 0x12 PUSH1 0x4 MSTORE PUSH1 0x24 PUSH1 0x0 REVERT JUMPDEST PUSH1 0x0 PUSH2 0x2418 DUP3 PUSH2 0x1933 JUMP JUMPDEST SWAP2 POP PUSH2 0x2423 DUP4 PUSH2 0x1933 JUMP JUMPDEST SWAP3 POP DUP3 PUSH2 0x2433 JUMPI PUSH2 0x2432 PUSH2 0x23DE JUMP JUMPDEST JUMPDEST DUP3 DUP3 DIV SWAP1 POP SWAP3 SWAP2 POP POP JUMP INVALID LOG2 PUSH5 0x6970667358 0x22 SLT KECCAK256 0xBD DIFFICULTY MULMOD 0xC1 0x2B 0xCD EXP 0xFC DIV 0xAE DUP12 DIV CALLDATALOAD CALLDATASIZE REVERT 0x2C 0xD1 CALLCODE 0x27 EXTCODEHASH SWAP15 JUMPDEST SWAP12 XOR 0xC7 SWAP16 CHAINID COINBASE 0xC 0xA8 COINBASE 0x4D PUSH5 0x736F6C6343 STOP ADDMOD EXP STOP CALLER "
				},
				"gasEstimates": {
					"creation": {
						"codeDepositCost": "1866400",
						"executionCost": "infinite",
						"totalCost": "infinite"
					},
					"external": {
						"allowance(address,address)": "infinite",
						"approve(address,uint256)": "infinite",
						"balanceOf(address)": "2952",
						"balanceOfAt(address,uint256)": "infinite",
						"burn(uint256)": "infinite",
						"burnFrom(address,uint256)": "infinite",
						"decimals()": "455",
						"decreaseAllowance(address,uint256)": "infinite",
						"increaseAllowance(address,uint256)": "infinite",
						"mint(address,uint256)": "infinite",
						"name()": "infinite",
						"owner()": "2589",
						"renounceOwnership()": "30397",
						"snapshot()": "30191",
						"symbol()": "infinite",
						"totalSupply()": "2505",
						"totalSupplyAt(uint256)": "infinite",
						"transfer(address,uint256)": "infinite",
						"transferFrom(address,address,uint256)": "infinite",
						"transferOwnership(address)": "30833"
					},
					"internal": {
						"_beforeTokenTransfer(address,address,uint256)": "infinite"
					}
				},
				"methodIdentifiers": {
					"allowance(address,address)": "dd62ed3e",
					"approve(address,uint256)": "095ea7b3",
					"balanceOf(address)": "70a08231",
					"balanceOfAt(address,uint256)": "4ee2cd7e",
					"burn(uint256)": "42966c68",
					"burnFrom(address,uint256)": "79cc6790",
					"decimals()": "313ce567",
					"decreaseAllowance(address,uint256)": "a457c2d7",
					"increaseAllowance(address,uint256)": "39509351",
					"mint(address,uint256)": "40c10f19",
					"name()": "06fdde03",
					"owner()": "8da5cb5b",
					"renounceOwnership()": "715018a6",
					"snapshot()": "9711715a",
					"symbol()": "95d89b41",
					"totalSupply()": "18160ddd",
					"totalSupplyAt(uint256)": "981b24d0",
					"transfer(address,uint256)": "a9059cbb",
					"transferFrom(address,address,uint256)": "23b872dd",
					"transferOwnership(address)": "f2fde38b"
				}
			},
			"storageLayout": {
				"storage": [
					{
						"astId": 479,
						"contract": "bomtokenerc20_flat.sol:BOMBToken",
						"label": "_balances",
						"offset": 0,
						"slot": "0",
						"type": "t_mapping(t_address,t_uint256)"
					},
					{
						"astId": 485,
						"contract": "bomtokenerc20_flat.sol:BOMBToken",
						"label": "_allowances",
						"offset": 0,
						"slot": "1",
						"type": "t_mapping(t_address,t_mapping(t_address,t_uint256))"
					},
					{
						"astId": 487,
						"contract": "bomtokenerc20_flat.sol:BOMBToken",
						"label": "_totalSupply",
						"offset": 0,
						"slot": "2",
						"type": "t_uint256"
					},
					{
						"astId": 489,
						"contract": "bomtokenerc20_flat.sol:BOMBToken",
						"label": "_name",
						"offset": 0,
						"slot": "3",
						"type": "t_string_storage"
					},
					{
						"astId": 491,
						"contract": "bomtokenerc20_flat.sol:BOMBToken",
						"label": "_symbol",
						"offset": 0,
						"slot": "4",
						"type": "t_string_storage"
					},
					{
						"astId": 1073,
						"contract": "bomtokenerc20_flat.sol:BOMBToken",
						"label": "_accountBalanceSnapshots",
						"offset": 0,
						"slot": "5",
						"type": "t_mapping(t_address,t_struct(Snapshots)1068_storage)"
					},
					{
						"astId": 1076,
						"contract": "bomtokenerc20_flat.sol:BOMBToken",
						"label": "_totalSupplySnapshots",
						"offset": 0,
						"slot": "6",
						"type": "t_struct(Snapshots)1068_storage"
					},
					{
						"astId": 1079,
						"contract": "bomtokenerc20_flat.sol:BOMBToken",
						"label": "_currentSnapshotId",
						"offset": 0,
						"slot": "8",
						"type": "t_struct(Counter)5_storage"
					},
					{
						"astId": 270,
						"contract": "bomtokenerc20_flat.sol:BOMBToken",
						"label": "_owner",
						"offset": 0,
						"slot": "9",
						"type": "t_address"
					}
				],
				"types": {
					"t_address": {
						"encoding": "inplace",
						"label": "address",
						"numberOfBytes": "20"
					},
					"t_array(t_uint256)dyn_storage": {
						"base": "t_uint256",
						"encoding": "dynamic_array",
						"label": "uint256[]",
						"numberOfBytes": "32"
					},
					"t_mapping(t_address,t_mapping(t_address,t_uint256))": {
						"encoding": "mapping",
						"key": "t_address",
						"label": "mapping(address => mapping(address => uint256))",
						"numberOfBytes": "32",
						"value": "t_mapping(t_address,t_uint256)"
					},
					"t_mapping(t_address,t_struct(Snapshots)1068_storage)": {
						"encoding": "mapping",
						"key": "t_address",
						"label": "mapping(address => struct ERC20Snapshot.Snapshots)",
						"numberOfBytes": "32",
						"value": "t_struct(Snapshots)1068_storage"
					},
					"t_mapping(t_address,t_uint256)": {
						"encoding": "mapping",
						"key": "t_address",
						"label": "mapping(address => uint256)",
						"numberOfBytes": "32",
						"value": "t_uint256"
					},
					"t_string_storage": {
						"encoding": "bytes",
						"label": "string",
						"numberOfBytes": "32"
					},
					"t_struct(Counter)5_storage": {
						"encoding": "inplace",
						"label": "struct Counters.Counter",
						"members": [
							{
								"astId": 4,
								"contract": "bomtokenerc20_flat.sol:BOMBToken",
								"label": "_value",
								"offset": 0,
								"slot": "0",
								"type": "t_uint256"
							}
						],
						"numberOfBytes": "32"
					},
					"t_struct(Snapshots)1068_storage": {
						"encoding": "inplace",
						"label": "struct ERC20Snapshot.Snapshots",
						"members": [
							{
								"astId": 1064,
								"contract": "bomtokenerc20_flat.sol:BOMBToken",
								"label": "ids",
								"offset": 0,
								"slot": "0",
								"type": "t_array(t_uint256)dyn_storage"
							},
							{
								"astId": 1067,
								"contract": "bomtokenerc20_flat.sol:BOMBToken",
								"label": "values",
								"offset": 0,
								"slot": "1",
								"type": "t_array(t_uint256)dyn_storage"
							}
						],
						"numberOfBytes": "64"
					},
					"t_uint256": {
						"encoding": "inplace",
						"label": "uint256",
						"numberOfBytes": "32"
					}
				}
			},
			"userdoc": {
				"kind": "user",
				"methods": {},
				"version": 1
			}
		}
	}
}