{
	"contracts/basic_solidity.sol": {
		"BasicSolidity": {
			"abi": [
				{
					"inputs": [
						{
							"internalType": "uint256",
							"name": "_balance",
							"type": "uint256"
						},
						{
							"internalType": "address",
							"name": "_wallet",
							"type": "address"
						}
					],
					"stateMutability": "nonpayable",
					"type": "constructor"
				},
				{
					"inputs": [],
					"name": "age",
					"outputs": [
						{
							"internalType": "uint256",
							"name": "",
							"type": "uint256"
						}
					],
					"stateMutability": "view",
					"type": "function"
				},
				{
					"inputs": [],
					"name": "balance",
					"outputs": [
						{
							"internalType": "uint256",
							"name": "",
							"type": "uint256"
						}
					],
					"stateMutability": "view",
					"type": "function"
				},
				{
					"inputs": [
						{
							"internalType": "uint256",
							"name": "",
							"type": "uint256"
						}
					],
					"name": "carreer",
					"outputs": [
						{
							"internalType": "string",
							"name": "",
							"type": "string"
						}
					],
					"stateMutability": "view",
					"type": "function"
				},
				{
					"inputs": [],
					"name": "getWallet",
					"outputs": [],
					"stateMutability": "nonpayable",
					"type": "function"
				},
				{
					"inputs": [
						{
							"internalType": "uint256",
							"name": "",
							"type": "uint256"
						}
					],
					"name": "girl",
					"outputs": [
						{
							"internalType": "string",
							"name": "",
							"type": "string"
						}
					],
					"stateMutability": "view",
					"type": "function"
				},
				{
					"inputs": [],
					"name": "isMale",
					"outputs": [
						{
							"internalType": "bool",
							"name": "",
							"type": "bool"
						}
					],
					"stateMutability": "view",
					"type": "function"
				},
				{
					"inputs": [
						{
							"internalType": "string",
							"name": "",
							"type": "string"
						}
					],
					"name": "mileOfCar",
					"outputs": [
						{
							"internalType": "uint256",
							"name": "",
							"type": "uint256"
						}
					],
					"stateMutability": "view",
					"type": "function"
				},
				{
					"inputs": [],
					"name": "name",
					"outputs": [
						{
							"internalType": "string",
							"name": "",
							"type": "string"
						}
					],
					"stateMutability": "view",
					"type": "function"
				},
				{
					"inputs": [
						{
							"internalType": "string",
							"name": "_girl",
							"type": "string"
						}
					],
					"name": "tinder",
					"outputs": [],
					"stateMutability": "nonpayable",
					"type": "function"
				}
			],
			"devdoc": {
				"kind": "dev",
				"methods": {},
				"version": 1
			},
			"evm": {
				"assembly": "    /* \"contracts/basic_solidity.sol\":60:686  contract BasicSolidity {\r... */\n  mstore(0x40, 0x80)\n    /* \"contracts/basic_solidity.sol\":114:149  string public name  = \"Tony Strark\" */\n  mload(0x40)\n  dup1\n  0x40\n  add\n  0x40\n  mstore\n  dup1\n  0x0b\n  dup2\n  mstore\n  0x20\n  add\n  0x546f6e792053747261726b000000000000000000000000000000000000000000\n  dup2\n  mstore\n  pop\n  0x00\n  swap1\n  dup1\n  mload\n  swap1\n  0x20\n  add\n  swap1\n  tag_1\n  swap3\n  swap2\n  swap1\n  tag_2\n  jump\t// in\ntag_1:\n  pop\n    /* \"contracts/basic_solidity.sol\":182:184  48 */\n  0x30\n    /* \"contracts/basic_solidity.sol\":158:184  uint256 public age   =  48 */\n  0x01\n  sstore\n    /* \"contracts/basic_solidity.sol\":217:221  true */\n  0x01\n    /* \"contracts/basic_solidity.sol\":191:221  bool   public  isMale  =  true */\n  0x02\n  exp(0x0100, 0x00)\n  dup2\n  sload\n  dup2\n  0xff\n  mul\n  not\n  and\n  swap1\n  dup4\n  iszero\n  iszero\n  mul\n  or\n  swap1\n  sstore\n  pop\n    /* \"contracts/basic_solidity.sol\":259:316  string[]  public carreer  = [\"playboy\",\"engineer\",\"hero\"] */\n  mload(0x40)\n  dup1\n  0x60\n  add\n  0x40\n  mstore\n  dup1\n  mload(0x40)\n  dup1\n  0x40\n  add\n  0x40\n  mstore\n  dup1\n  0x07\n  dup2\n  mstore\n  0x20\n  add\n  0x706c6179626f7900000000000000000000000000000000000000000000000000\n  dup2\n  mstore\n  pop\n  dup2\n  mstore\n  0x20\n  add\n  mload(0x40)\n  dup1\n  0x40\n  add\n  0x40\n  mstore\n  dup1\n  0x08\n  dup2\n  mstore\n  0x20\n  add\n  0x656e67696e656572000000000000000000000000000000000000000000000000\n  dup2\n  mstore\n  pop\n  dup2\n  mstore\n  0x20\n  add\n  mload(0x40)\n  dup1\n  0x40\n  add\n  0x40\n  mstore\n  dup1\n  0x04\n  dup2\n  mstore\n  0x20\n  add\n  0x6865726f00000000000000000000000000000000000000000000000000000000\n  dup2\n  mstore\n  pop\n  dup2\n  mstore\n  pop\n  0x04\n  swap1\n  0x03\n  tag_3\n  swap3\n  swap2\n  swap1\n  tag_4\n  jump\t// in\ntag_3:\n  pop\n    /* \"contracts/basic_solidity.sol\":440:551  constructor(uint256 _balance, address _wallet){\r... */\n  callvalue\n  dup1\n  iszero\n  tag_5\n  jumpi\n  0x00\n  dup1\n  revert\ntag_5:\n  pop\n  mload(0x40)\n  sub(codesize, bytecodeSize)\n  dup1\n  bytecodeSize\n  dup4\n  codecopy\n  dup2\n  dup2\n  add\n  0x40\n  mstore\n  dup2\n  add\n  swap1\n  tag_6\n  swap2\n  swap1\n  tag_7\n  jump\t// in\ntag_6:\n    /* \"contracts/basic_solidity.sol\":507:515  _balance */\n  dup2\n    /* \"contracts/basic_solidity.sol\":497:504  balance */\n  0x03\n    /* \"contracts/basic_solidity.sol\":497:515  balance = _balance */\n  dup2\n  swap1\n  sstore\n  pop\n    /* \"contracts/basic_solidity.sol\":536:543  _wallet */\n  dup1\n    /* \"contracts/basic_solidity.sol\":526:532  wallet */\n  0x05\n  0x00\n    /* \"contracts/basic_solidity.sol\":526:543  wallet  = _wallet */\n  0x0100\n  exp\n  dup2\n  sload\n  dup2\n  0xffffffffffffffffffffffffffffffffffffffff\n  mul\n  not\n  and\n  swap1\n  dup4\n  0xffffffffffffffffffffffffffffffffffffffff\n  and\n  mul\n  or\n  swap1\n  sstore\n  pop\n    /* \"contracts/basic_solidity.sol\":440:551  constructor(uint256 _balance, address _wallet){\r... */\n  pop\n  pop\n    /* \"contracts/basic_solidity.sol\":60:686  contract BasicSolidity {\r... */\n  jump(tag_10)\ntag_2:\n  dup3\n  dup1\n  sload\n  tag_11\n  swap1\n  tag_12\n  jump\t// in\ntag_11:\n  swap1\n  0x00\n  mstore\n  keccak256(0x00, 0x20)\n  swap1\n  0x1f\n  add\n  0x20\n  swap1\n  div\n  dup2\n  add\n  swap3\n  dup3\n  tag_14\n  jumpi\n  0x00\n  dup6\n  sstore\n  jump(tag_13)\ntag_14:\n  dup3\n  0x1f\n  lt\n  tag_15\n  jumpi\n  dup1\n  mload\n  not(0xff)\n  and\n  dup4\n  dup1\n  add\n  or\n  dup6\n  sstore\n  jump(tag_13)\ntag_15:\n  dup3\n  dup1\n  add\n  0x01\n  add\n  dup6\n  sstore\n  dup3\n  iszero\n  tag_13\n  jumpi\n  swap2\n  dup3\n  add\ntag_16:\n  dup3\n  dup2\n  gt\n  iszero\n  tag_17\n  jumpi\n  dup3\n  mload\n  dup3\n  sstore\n  swap2\n  0x20\n  add\n  swap2\n  swap1\n  0x01\n  add\n  swap1\n  jump(tag_16)\ntag_17:\ntag_13:\n  pop\n  swap1\n  pop\n  tag_18\n  swap2\n  swap1\n  tag_19\n  jump\t// in\ntag_18:\n  pop\n  swap1\n  jump\t// out\ntag_4:\n  dup3\n  dup1\n  sload\n  dup3\n  dup3\n  sstore\n  swap1\n  0x00\n  mstore\n  keccak256(0x00, 0x20)\n  swap1\n  dup2\n  add\n  swap3\n  dup3\n  iszero\n  tag_20\n  jumpi\n  swap2\n  0x20\n  mul\n  dup3\n  add\ntag_21:\n  dup3\n  dup2\n  gt\n  iszero\n  tag_22\n  jumpi\n  dup3\n  mload\n  dup3\n  swap1\n  dup1\n  mload\n  swap1\n  0x20\n  add\n  swap1\n  tag_23\n  swap3\n  swap2\n  swap1\n  tag_2\n  jump\t// in\ntag_23:\n  pop\n  swap2\n  0x20\n  add\n  swap2\n  swap1\n  0x01\n  add\n  swap1\n  jump(tag_21)\ntag_22:\ntag_20:\n  pop\n  swap1\n  pop\n  tag_24\n  swap2\n  swap1\n  tag_25\n  jump\t// in\ntag_24:\n  pop\n  swap1\n  jump\t// out\ntag_19:\ntag_26:\n  dup1\n  dup3\n  gt\n  iszero\n  tag_27\n  jumpi\n  0x00\n  dup2\n  0x00\n  swap1\n  sstore\n  pop\n  0x01\n  add\n  jump(tag_26)\ntag_27:\n  pop\n  swap1\n  jump\t// out\ntag_25:\ntag_28:\n  dup1\n  dup3\n  gt\n  iszero\n  tag_29\n  jumpi\n  0x00\n  dup2\n  dup2\n  tag_30\n  swap2\n  swap1\n  tag_31\n  jump\t// in\ntag_30:\n  pop\n  0x01\n  add\n  jump(tag_28)\ntag_29:\n  pop\n  swap1\n  jump\t// out\ntag_31:\n  pop\n  dup1\n  sload\n  tag_32\n  swap1\n  tag_12\n  jump\t// in\ntag_32:\n  0x00\n  dup3\n  sstore\n  dup1\n  0x1f\n  lt\n  tag_34\n  jumpi\n  pop\n  jump(tag_33)\ntag_34:\n  0x1f\n  add\n  0x20\n  swap1\n  div\n  swap1\n  0x00\n  mstore\n  keccak256(0x00, 0x20)\n  swap1\n  dup2\n  add\n  swap1\n  tag_35\n  swap2\n  swap1\n  tag_19\n  jump\t// in\ntag_35:\ntag_33:\n  pop\n  jump\t// out\n    /* \"#utility.yul\":7:150   */\ntag_37:\n    /* \"#utility.yul\":64:69   */\n  0x00\n    /* \"#utility.yul\":95:101   */\n  dup2\n    /* \"#utility.yul\":89:102   */\n  mload\n    /* \"#utility.yul\":80:102   */\n  swap1\n  pop\n    /* \"#utility.yul\":111:144   */\n  tag_39\n    /* \"#utility.yul\":138:143   */\n  dup2\n    /* \"#utility.yul\":111:144   */\n  tag_40\n  jump\t// in\ntag_39:\n    /* \"#utility.yul\":7:150   */\n  swap3\n  swap2\n  pop\n  pop\n  jump\t// out\n    /* \"#utility.yul\":156:299   */\ntag_41:\n    /* \"#utility.yul\":213:218   */\n  0x00\n    /* \"#utility.yul\":244:250   */\n  dup2\n    /* \"#utility.yul\":238:251   */\n  mload\n    /* \"#utility.yul\":229:251   */\n  swap1\n  pop\n    /* \"#utility.yul\":260:293   */\n  tag_43\n    /* \"#utility.yul\":287:292   */\n  dup2\n    /* \"#utility.yul\":260:293   */\n  tag_44\n  jump\t// in\ntag_43:\n    /* \"#utility.yul\":156:299   */\n  swap3\n  swap2\n  pop\n  pop\n  jump\t// out\n    /* \"#utility.yul\":305:812   */\ntag_7:\n    /* \"#utility.yul\":384:390   */\n  0x00\n    /* \"#utility.yul\":392:398   */\n  dup1\n    /* \"#utility.yul\":441:443   */\n  0x40\n    /* \"#utility.yul\":429:438   */\n  dup4\n    /* \"#utility.yul\":420:427   */\n  dup6\n    /* \"#utility.yul\":416:439   */\n  sub\n    /* \"#utility.yul\":412:444   */\n  slt\n    /* \"#utility.yul\":409:528   */\n  iszero\n  tag_46\n  jumpi\n    /* \"#utility.yul\":447:526   */\n  tag_47\n  tag_48\n  jump\t// in\ntag_47:\n    /* \"#utility.yul\":409:528   */\ntag_46:\n    /* \"#utility.yul\":567:568   */\n  0x00\n    /* \"#utility.yul\":592:656   */\n  tag_49\n    /* \"#utility.yul\":648:655   */\n  dup6\n    /* \"#utility.yul\":639:645   */\n  dup3\n    /* \"#utility.yul\":628:637   */\n  dup7\n    /* \"#utility.yul\":624:646   */\n  add\n    /* \"#utility.yul\":592:656   */\n  tag_41\n  jump\t// in\ntag_49:\n    /* \"#utility.yul\":582:656   */\n  swap3\n  pop\n    /* \"#utility.yul\":538:666   */\n  pop\n    /* \"#utility.yul\":705:707   */\n  0x20\n    /* \"#utility.yul\":731:795   */\n  tag_50\n    /* \"#utility.yul\":787:794   */\n  dup6\n    /* \"#utility.yul\":778:784   */\n  dup3\n    /* \"#utility.yul\":767:776   */\n  dup7\n    /* \"#utility.yul\":763:785   */\n  add\n    /* \"#utility.yul\":731:795   */\n  tag_37\n  jump\t// in\ntag_50:\n    /* \"#utility.yul\":721:795   */\n  swap2\n  pop\n    /* \"#utility.yul\":676:805   */\n  pop\n    /* \"#utility.yul\":305:812   */\n  swap3\n  pop\n  swap3\n  swap1\n  pop\n  jump\t// out\n    /* \"#utility.yul\":899:995   */\ntag_53:\n    /* \"#utility.yul\":936:943   */\n  0x00\n    /* \"#utility.yul\":965:989   */\n  tag_55\n    /* \"#utility.yul\":983:988   */\n  dup3\n    /* \"#utility.yul\":965:989   */\n  tag_56\n  jump\t// in\ntag_55:\n    /* \"#utility.yul\":954:989   */\n  swap1\n  pop\n    /* \"#utility.yul\":899:995   */\n  swap2\n  swap1\n  pop\n  jump\t// out\n    /* \"#utility.yul\":1001:1127   */\ntag_56:\n    /* \"#utility.yul\":1038:1045   */\n  0x00\n    /* \"#utility.yul\":1078:1120   */\n  0xffffffffffffffffffffffffffffffffffffffff\n    /* \"#utility.yul\":1071:1076   */\n  dup3\n    /* \"#utility.yul\":1067:1121   */\n  and\n    /* \"#utility.yul\":1056:1121   */\n  swap1\n  pop\n    /* \"#utility.yul\":1001:1127   */\n  swap2\n  swap1\n  pop\n  jump\t// out\n    /* \"#utility.yul\":1133:1210   */\ntag_58:\n    /* \"#utility.yul\":1170:1177   */\n  0x00\n    /* \"#utility.yul\":1199:1204   */\n  dup2\n    /* \"#utility.yul\":1188:1204   */\n  swap1\n  pop\n    /* \"#utility.yul\":1133:1210   */\n  swap2\n  swap1\n  pop\n  jump\t// out\n    /* \"#utility.yul\":1216:1536   */\ntag_12:\n    /* \"#utility.yul\":1260:1266   */\n  0x00\n    /* \"#utility.yul\":1297:1298   */\n  0x02\n    /* \"#utility.yul\":1291:1295   */\n  dup3\n    /* \"#utility.yul\":1287:1299   */\n  div\n    /* \"#utility.yul\":1277:1299   */\n  swap1\n  pop\n    /* \"#utility.yul\":1344:1345   */\n  0x01\n    /* \"#utility.yul\":1338:1342   */\n  dup3\n    /* \"#utility.yul\":1334:1346   */\n  and\n    /* \"#utility.yul\":1365:1383   */\n  dup1\n    /* \"#utility.yul\":1355:1436   */\n  tag_61\n  jumpi\n    /* \"#utility.yul\":1421:1425   */\n  0x7f\n    /* \"#utility.yul\":1413:1419   */\n  dup3\n    /* \"#utility.yul\":1409:1426   */\n  and\n    /* \"#utility.yul\":1399:1426   */\n  swap2\n  pop\n    /* \"#utility.yul\":1355:1436   */\ntag_61:\n    /* \"#utility.yul\":1483:1485   */\n  0x20\n    /* \"#utility.yul\":1475:1481   */\n  dup3\n    /* \"#utility.yul\":1472:1486   */\n  lt\n    /* \"#utility.yul\":1452:1470   */\n  dup2\n    /* \"#utility.yul\":1449:1487   */\n  eq\n    /* \"#utility.yul\":1446:1530   */\n  iszero\n  tag_62\n  jumpi\n    /* \"#utility.yul\":1502:1520   */\n  tag_63\n  tag_64\n  jump\t// in\ntag_63:\n    /* \"#utility.yul\":1446:1530   */\ntag_62:\n    /* \"#utility.yul\":1267:1536   */\n  pop\n    /* \"#utility.yul\":1216:1536   */\n  swap2\n  swap1\n  pop\n  jump\t// out\n    /* \"#utility.yul\":1542:1722   */\ntag_64:\n    /* \"#utility.yul\":1590:1667   */\n  0x4e487b7100000000000000000000000000000000000000000000000000000000\n    /* \"#utility.yul\":1587:1588   */\n  0x00\n    /* \"#utility.yul\":1580:1668   */\n  mstore\n    /* \"#utility.yul\":1687:1691   */\n  0x22\n    /* \"#utility.yul\":1684:1685   */\n  0x04\n    /* \"#utility.yul\":1677:1692   */\n  mstore\n    /* \"#utility.yul\":1711:1715   */\n  0x24\n    /* \"#utility.yul\":1708:1709   */\n  0x00\n    /* \"#utility.yul\":1701:1716   */\n  revert\n    /* \"#utility.yul\":1851:1968   */\ntag_48:\n    /* \"#utility.yul\":1960:1961   */\n  0x00\n    /* \"#utility.yul\":1957:1958   */\n  dup1\n    /* \"#utility.yul\":1950:1962   */\n  revert\n    /* \"#utility.yul\":1974:2096   */\ntag_40:\n    /* \"#utility.yul\":2047:2071   */\n  tag_70\n    /* \"#utility.yul\":2065:2070   */\n  dup2\n    /* \"#utility.yul\":2047:2071   */\n  tag_53\n  jump\t// in\ntag_70:\n    /* \"#utility.yul\":2040:2045   */\n  dup2\n    /* \"#utility.yul\":2037:2072   */\n  eq\n    /* \"#utility.yul\":2027:2090   */\n  tag_71\n  jumpi\n    /* \"#utility.yul\":2086:2087   */\n  0x00\n    /* \"#utility.yul\":2083:2084   */\n  dup1\n    /* \"#utility.yul\":2076:2088   */\n  revert\n    /* \"#utility.yul\":2027:2090   */\ntag_71:\n    /* \"#utility.yul\":1974:2096   */\n  pop\n  jump\t// out\n    /* \"#utility.yul\":2102:2224   */\ntag_44:\n    /* \"#utility.yul\":2175:2199   */\n  tag_73\n    /* \"#utility.yul\":2193:2198   */\n  dup2\n    /* \"#utility.yul\":2175:2199   */\n  tag_58\n  jump\t// in\ntag_73:\n    /* \"#utility.yul\":2168:2173   */\n  dup2\n    /* \"#utility.yul\":2165:2200   */\n  eq\n    /* \"#utility.yul\":2155:2218   */\n  tag_74\n  jumpi\n    /* \"#utility.yul\":2214:2215   */\n  0x00\n    /* \"#utility.yul\":2211:2212   */\n  dup1\n    /* \"#utility.yul\":2204:2216   */\n  revert\n    /* \"#utility.yul\":2155:2218   */\ntag_74:\n    /* \"#utility.yul\":2102:2224   */\n  pop\n  jump\t// out\n    /* \"contracts/basic_solidity.sol\":60:686  contract BasicSolidity {\r... */\ntag_10:\n  dataSize(sub_0)\n  dup1\n  dataOffset(sub_0)\n  0x00\n  codecopy\n  0x00\n  return\nstop\n\nsub_0: assembly {\n        /* \"contracts/basic_solidity.sol\":60:686  contract BasicSolidity {\r... */\n      mstore(0x40, 0x80)\n      callvalue\n      dup1\n      iszero\n      tag_1\n      jumpi\n      0x00\n      dup1\n      revert\n    tag_1:\n      pop\n      jumpi(tag_2, lt(calldatasize, 0x04))\n      shr(0xe0, calldataload(0x00))\n      dup1\n      0x5cd836a3\n      gt\n      tag_12\n      jumpi\n      dup1\n      0x5cd836a3\n      eq\n      tag_7\n      jumpi\n      dup1\n      0x654a573c\n      eq\n      tag_8\n      jumpi\n      dup1\n      0x853320e3\n      eq\n      tag_9\n      jumpi\n      dup1\n      0xb69ef8a8\n      eq\n      tag_10\n      jumpi\n      dup1\n      0xcfb5843c\n      eq\n      tag_11\n      jumpi\n      jump(tag_2)\n    tag_12:\n      dup1\n      0x06fdde03\n      eq\n      tag_3\n      jumpi\n      dup1\n      0x13299604\n      eq\n      tag_4\n      jumpi\n      dup1\n      0x262a9dff\n      eq\n      tag_5\n      jumpi\n      dup1\n      0x449549d5\n      eq\n      tag_6\n      jumpi\n    tag_2:\n      0x00\n      dup1\n      revert\n        /* \"contracts/basic_solidity.sol\":114:149  string public name  = \"Tony Strark\" */\n    tag_3:\n      tag_13\n      tag_14\n      jump\t// in\n    tag_13:\n      mload(0x40)\n      tag_15\n      swap2\n      swap1\n      tag_16\n      jump\t// in\n    tag_15:\n      mload(0x40)\n      dup1\n      swap2\n      sub\n      swap1\n      return\n        /* \"contracts/basic_solidity.sol\":646:683  function getWallet() public{\r... */\n    tag_4:\n      tag_17\n      tag_18\n      jump\t// in\n    tag_17:\n      stop\n        /* \"contracts/basic_solidity.sol\":158:184  uint256 public age   =  48 */\n    tag_5:\n      tag_19\n      tag_20\n      jump\t// in\n    tag_19:\n      mload(0x40)\n      tag_21\n      swap2\n      swap1\n      tag_22\n      jump\t// in\n    tag_21:\n      mload(0x40)\n      dup1\n      swap2\n      sub\n      swap1\n      return\n        /* \"contracts/basic_solidity.sol\":358:379  string[]  public girl */\n    tag_6:\n      tag_23\n      0x04\n      dup1\n      calldatasize\n      sub\n      dup2\n      add\n      swap1\n      tag_24\n      swap2\n      swap1\n      tag_25\n      jump\t// in\n    tag_24:\n      tag_26\n      jump\t// in\n    tag_23:\n      mload(0x40)\n      tag_27\n      swap2\n      swap1\n      tag_16\n      jump\t// in\n    tag_27:\n      mload(0x40)\n      dup1\n      swap2\n      sub\n      swap1\n      return\n        /* \"contracts/basic_solidity.sol\":259:316  string[]  public carreer  = [\"playboy\",\"engineer\",\"hero\"] */\n    tag_7:\n      tag_28\n      0x04\n      dup1\n      calldatasize\n      sub\n      dup2\n      add\n      swap1\n      tag_29\n      swap2\n      swap1\n      tag_25\n      jump\t// in\n    tag_29:\n      tag_30\n      jump\t// in\n    tag_28:\n      mload(0x40)\n      tag_31\n      swap2\n      swap1\n      tag_16\n      jump\t// in\n    tag_31:\n      mload(0x40)\n      dup1\n      swap2\n      sub\n      swap1\n      return\n        /* \"contracts/basic_solidity.sol\":191:221  bool   public  isMale  =  true */\n    tag_8:\n      tag_32\n      tag_33\n      jump\t// in\n    tag_32:\n      mload(0x40)\n      tag_34\n      swap2\n      swap1\n      tag_35\n      jump\t// in\n    tag_34:\n      mload(0x40)\n      dup1\n      swap2\n      sub\n      swap1\n      return\n        /* \"contracts/basic_solidity.sol\":388:431  mapping(string => uint256) public mileOfCar */\n    tag_9:\n      tag_36\n      0x04\n      dup1\n      calldatasize\n      sub\n      dup2\n      add\n      swap1\n      tag_37\n      swap2\n      swap1\n      tag_38\n      jump\t// in\n    tag_37:\n      tag_39\n      jump\t// in\n    tag_36:\n      mload(0x40)\n      tag_40\n      swap2\n      swap1\n      tag_22\n      jump\t// in\n    tag_40:\n      mload(0x40)\n      dup1\n      swap2\n      sub\n      swap1\n      return\n        /* \"contracts/basic_solidity.sol\":230:252  uint256 public balance */\n    tag_10:\n      tag_41\n      tag_42\n      jump\t// in\n    tag_41:\n      mload(0x40)\n      tag_43\n      swap2\n      swap1\n      tag_22\n      jump\t// in\n    tag_43:\n      mload(0x40)\n      dup1\n      swap2\n      sub\n      swap1\n      return\n        /* \"contracts/basic_solidity.sol\":559:638  function tinder(string memory _girl) public {\r... */\n    tag_11:\n      tag_44\n      0x04\n      dup1\n      calldatasize\n      sub\n      dup2\n      add\n      swap1\n      tag_45\n      swap2\n      swap1\n      tag_38\n      jump\t// in\n    tag_45:\n      tag_46\n      jump\t// in\n    tag_44:\n      stop\n        /* \"contracts/basic_solidity.sol\":114:149  string public name  = \"Tony Strark\" */\n    tag_14:\n      0x00\n      dup1\n      sload\n      tag_47\n      swap1\n      tag_48\n      jump\t// in\n    tag_47:\n      dup1\n      0x1f\n      add\n      0x20\n      dup1\n      swap2\n      div\n      mul\n      0x20\n      add\n      mload(0x40)\n      swap1\n      dup2\n      add\n      0x40\n      mstore\n      dup1\n      swap3\n      swap2\n      swap1\n      dup2\n      dup2\n      mstore\n      0x20\n      add\n      dup3\n      dup1\n      sload\n      tag_49\n      swap1\n      tag_48\n      jump\t// in\n    tag_49:\n      dup1\n      iszero\n      tag_50\n      jumpi\n      dup1\n      0x1f\n      lt\n      tag_51\n      jumpi\n      0x0100\n      dup1\n      dup4\n      sload\n      div\n      mul\n      dup4\n      mstore\n      swap2\n      0x20\n      add\n      swap2\n      jump(tag_50)\n    tag_51:\n      dup3\n      add\n      swap2\n      swap1\n      0x00\n      mstore\n      keccak256(0x00, 0x20)\n      swap1\n    tag_52:\n      dup2\n      sload\n      dup2\n      mstore\n      swap1\n      0x01\n      add\n      swap1\n      0x20\n      add\n      dup1\n      dup4\n      gt\n      tag_52\n      jumpi\n      dup3\n      swap1\n      sub\n      0x1f\n      and\n      dup3\n      add\n      swap2\n    tag_50:\n      pop\n      pop\n      pop\n      pop\n      pop\n      dup2\n      jump\t// out\n        /* \"contracts/basic_solidity.sol\":646:683  function getWallet() public{\r... */\n    tag_18:\n      jump\t// out\n        /* \"contracts/basic_solidity.sol\":158:184  uint256 public age   =  48 */\n    tag_20:\n      sload(0x01)\n      dup2\n      jump\t// out\n        /* \"contracts/basic_solidity.sol\":358:379  string[]  public girl */\n    tag_26:\n      0x06\n      dup2\n      dup2\n      sload\n      dup2\n      lt\n      tag_54\n      jumpi\n      0x00\n      dup1\n      revert\n    tag_54:\n      swap1\n      0x00\n      mstore\n      keccak256(0x00, 0x20)\n      add\n      0x00\n      swap2\n      pop\n      swap1\n      pop\n      dup1\n      sload\n      tag_56\n      swap1\n      tag_48\n      jump\t// in\n    tag_56:\n      dup1\n      0x1f\n      add\n      0x20\n      dup1\n      swap2\n      div\n      mul\n      0x20\n      add\n      mload(0x40)\n      swap1\n      dup2\n      add\n      0x40\n      mstore\n      dup1\n      swap3\n      swap2\n      swap1\n      dup2\n      dup2\n      mstore\n      0x20\n      add\n      dup3\n      dup1\n      sload\n      tag_57\n      swap1\n      tag_48\n      jump\t// in\n    tag_57:\n      dup1\n      iszero\n      tag_58\n      jumpi\n      dup1\n      0x1f\n      lt\n      tag_59\n      jumpi\n      0x0100\n      dup1\n      dup4\n      sload\n      div\n      mul\n      dup4\n      mstore\n      swap2\n      0x20\n      add\n      swap2\n      jump(tag_58)\n    tag_59:\n      dup3\n      add\n      swap2\n      swap1\n      0x00\n      mstore\n      keccak256(0x00, 0x20)\n      swap1\n    tag_60:\n      dup2\n      sload\n      dup2\n      mstore\n      swap1\n      0x01\n      add\n      swap1\n      0x20\n      add\n      dup1\n      dup4\n      gt\n      tag_60\n      jumpi\n      dup3\n      swap1\n      sub\n      0x1f\n      and\n      dup3\n      add\n      swap2\n    tag_58:\n      pop\n      pop\n      pop\n      pop\n      pop\n      dup2\n      jump\t// out\n        /* \"contracts/basic_solidity.sol\":259:316  string[]  public carreer  = [\"playboy\",\"engineer\",\"hero\"] */\n    tag_30:\n      0x04\n      dup2\n      dup2\n      sload\n      dup2\n      lt\n      tag_61\n      jumpi\n      0x00\n      dup1\n      revert\n    tag_61:\n      swap1\n      0x00\n      mstore\n      keccak256(0x00, 0x20)\n      add\n      0x00\n      swap2\n      pop\n      swap1\n      pop\n      dup1\n      sload\n      tag_63\n      swap1\n      tag_48\n      jump\t// in\n    tag_63:\n      dup1\n      0x1f\n      add\n      0x20\n      dup1\n      swap2\n      div\n      mul\n      0x20\n      add\n      mload(0x40)\n      swap1\n      dup2\n      add\n      0x40\n      mstore\n      dup1\n      swap3\n      swap2\n      swap1\n      dup2\n      dup2\n      mstore\n      0x20\n      add\n      dup3\n      dup1\n      sload\n      tag_64\n      swap1\n      tag_48\n      jump\t// in\n    tag_64:\n      dup1\n      iszero\n      tag_65\n      jumpi\n      dup1\n      0x1f\n      lt\n      tag_66\n      jumpi\n      0x0100\n      dup1\n      dup4\n      sload\n      div\n      mul\n      dup4\n      mstore\n      swap2\n      0x20\n      add\n      swap2\n      jump(tag_65)\n    tag_66:\n      dup3\n      add\n      swap2\n      swap1\n      0x00\n      mstore\n      keccak256(0x00, 0x20)\n      swap1\n    tag_67:\n      dup2\n      sload\n      dup2\n      mstore\n      swap1\n      0x01\n      add\n      swap1\n      0x20\n      add\n      dup1\n      dup4\n      gt\n      tag_67\n      jumpi\n      dup3\n      swap1\n      sub\n      0x1f\n      and\n      dup3\n      add\n      swap2\n    tag_65:\n      pop\n      pop\n      pop\n      pop\n      pop\n      dup2\n      jump\t// out\n        /* \"contracts/basic_solidity.sol\":191:221  bool   public  isMale  =  true */\n    tag_33:\n      0x02\n      0x00\n      swap1\n      sload\n      swap1\n      0x0100\n      exp\n      swap1\n      div\n      0xff\n      and\n      dup2\n      jump\t// out\n        /* \"contracts/basic_solidity.sol\":388:431  mapping(string => uint256) public mileOfCar */\n    tag_39:\n      0x07\n      dup2\n      dup1\n      mload\n      0x20\n      dup2\n      add\n      dup3\n      add\n      dup1\n      mload\n      dup5\n      dup3\n      mstore\n      0x20\n      dup4\n      add\n      0x20\n      dup6\n      add\n      keccak256\n      dup2\n      dup4\n      mstore\n      dup1\n      swap6\n      pop\n      pop\n      pop\n      pop\n      pop\n      pop\n      0x00\n      swap2\n      pop\n      swap1\n      pop\n      sload\n      dup2\n      jump\t// out\n        /* \"contracts/basic_solidity.sol\":230:252  uint256 public balance */\n    tag_42:\n      sload(0x03)\n      dup2\n      jump\t// out\n        /* \"contracts/basic_solidity.sol\":559:638  function tinder(string memory _girl) public {\r... */\n    tag_46:\n        /* \"contracts/basic_solidity.sol\":614:618  girl */\n      0x06\n        /* \"contracts/basic_solidity.sol\":624:629  _girl */\n      dup2\n        /* \"contracts/basic_solidity.sol\":614:630  girl.push(_girl) */\n      swap1\n      dup1\n      0x01\n      dup2\n      sload\n      add\n      dup1\n      dup3\n      sstore\n      dup1\n      swap2\n      pop\n      pop\n      0x01\n      swap1\n      sub\n      swap1\n      0x00\n      mstore\n      keccak256(0x00, 0x20)\n      add\n      0x00\n      swap1\n      swap2\n      swap1\n      swap2\n      swap1\n      swap2\n      pop\n      swap1\n      dup1\n      mload\n      swap1\n      0x20\n      add\n      swap1\n      tag_70\n      swap3\n      swap2\n      swap1\n      tag_71\n      jump\t// in\n    tag_70:\n      pop\n        /* \"contracts/basic_solidity.sol\":559:638  function tinder(string memory _girl) public {\r... */\n      pop\n      jump\t// out\n    tag_71:\n      dup3\n      dup1\n      sload\n      tag_72\n      swap1\n      tag_48\n      jump\t// in\n    tag_72:\n      swap1\n      0x00\n      mstore\n      keccak256(0x00, 0x20)\n      swap1\n      0x1f\n      add\n      0x20\n      swap1\n      div\n      dup2\n      add\n      swap3\n      dup3\n      tag_74\n      jumpi\n      0x00\n      dup6\n      sstore\n      jump(tag_73)\n    tag_74:\n      dup3\n      0x1f\n      lt\n      tag_75\n      jumpi\n      dup1\n      mload\n      not(0xff)\n      and\n      dup4\n      dup1\n      add\n      or\n      dup6\n      sstore\n      jump(tag_73)\n    tag_75:\n      dup3\n      dup1\n      add\n      0x01\n      add\n      dup6\n      sstore\n      dup3\n      iszero\n      tag_73\n      jumpi\n      swap2\n      dup3\n      add\n    tag_76:\n      dup3\n      dup2\n      gt\n      iszero\n      tag_77\n      jumpi\n      dup3\n      mload\n      dup3\n      sstore\n      swap2\n      0x20\n      add\n      swap2\n      swap1\n      0x01\n      add\n      swap1\n      jump(tag_76)\n    tag_77:\n    tag_73:\n      pop\n      swap1\n      pop\n      tag_78\n      swap2\n      swap1\n      tag_79\n      jump\t// in\n    tag_78:\n      pop\n      swap1\n      jump\t// out\n    tag_79:\n    tag_80:\n      dup1\n      dup3\n      gt\n      iszero\n      tag_81\n      jumpi\n      0x00\n      dup2\n      0x00\n      swap1\n      sstore\n      pop\n      0x01\n      add\n      jump(tag_80)\n    tag_81:\n      pop\n      swap1\n      jump\t// out\n        /* \"#utility.yul\":7:419   */\n    tag_83:\n        /* \"#utility.yul\":85:90   */\n      0x00\n        /* \"#utility.yul\":110:176   */\n      tag_85\n        /* \"#utility.yul\":126:175   */\n      tag_86\n        /* \"#utility.yul\":168:174   */\n      dup5\n        /* \"#utility.yul\":126:175   */\n      tag_87\n      jump\t// in\n    tag_86:\n        /* \"#utility.yul\":110:176   */\n      tag_88\n      jump\t// in\n    tag_85:\n        /* \"#utility.yul\":101:176   */\n      swap1\n      pop\n        /* \"#utility.yul\":199:205   */\n      dup3\n        /* \"#utility.yul\":192:197   */\n      dup2\n        /* \"#utility.yul\":185:206   */\n      mstore\n        /* \"#utility.yul\":237:241   */\n      0x20\n        /* \"#utility.yul\":230:235   */\n      dup2\n        /* \"#utility.yul\":226:242   */\n      add\n        /* \"#utility.yul\":275:278   */\n      dup5\n        /* \"#utility.yul\":266:272   */\n      dup5\n        /* \"#utility.yul\":261:264   */\n      dup5\n        /* \"#utility.yul\":257:273   */\n      add\n        /* \"#utility.yul\":254:279   */\n      gt\n        /* \"#utility.yul\":251:363   */\n      iszero\n      tag_89\n      jumpi\n        /* \"#utility.yul\":282:361   */\n      tag_90\n      tag_91\n      jump\t// in\n    tag_90:\n        /* \"#utility.yul\":251:363   */\n    tag_89:\n        /* \"#utility.yul\":372:413   */\n      tag_92\n        /* \"#utility.yul\":406:412   */\n      dup5\n        /* \"#utility.yul\":401:404   */\n      dup3\n        /* \"#utility.yul\":396:399   */\n      dup6\n        /* \"#utility.yul\":372:413   */\n      tag_93\n      jump\t// in\n    tag_92:\n        /* \"#utility.yul\":91:419   */\n      pop\n        /* \"#utility.yul\":7:419   */\n      swap4\n      swap3\n      pop\n      pop\n      pop\n      jump\t// out\n        /* \"#utility.yul\":439:779   */\n    tag_94:\n        /* \"#utility.yul\":495:500   */\n      0x00\n        /* \"#utility.yul\":544:547   */\n      dup3\n        /* \"#utility.yul\":537:541   */\n      0x1f\n        /* \"#utility.yul\":529:535   */\n      dup4\n        /* \"#utility.yul\":525:542   */\n      add\n        /* \"#utility.yul\":521:548   */\n      slt\n        /* \"#utility.yul\":511:633   */\n      tag_96\n      jumpi\n        /* \"#utility.yul\":552:631   */\n      tag_97\n      tag_98\n      jump\t// in\n    tag_97:\n        /* \"#utility.yul\":511:633   */\n    tag_96:\n        /* \"#utility.yul\":669:675   */\n      dup2\n        /* \"#utility.yul\":656:676   */\n      calldataload\n        /* \"#utility.yul\":694:773   */\n      tag_99\n        /* \"#utility.yul\":769:772   */\n      dup5\n        /* \"#utility.yul\":761:767   */\n      dup3\n        /* \"#utility.yul\":754:758   */\n      0x20\n        /* \"#utility.yul\":746:752   */\n      dup7\n        /* \"#utility.yul\":742:759   */\n      add\n        /* \"#utility.yul\":694:773   */\n      tag_83\n      jump\t// in\n    tag_99:\n        /* \"#utility.yul\":685:773   */\n      swap2\n      pop\n        /* \"#utility.yul\":501:779   */\n      pop\n        /* \"#utility.yul\":439:779   */\n      swap3\n      swap2\n      pop\n      pop\n      jump\t// out\n        /* \"#utility.yul\":785:924   */\n    tag_100:\n        /* \"#utility.yul\":831:836   */\n      0x00\n        /* \"#utility.yul\":869:875   */\n      dup2\n        /* \"#utility.yul\":856:876   */\n      calldataload\n        /* \"#utility.yul\":847:876   */\n      swap1\n      pop\n        /* \"#utility.yul\":885:918   */\n      tag_102\n        /* \"#utility.yul\":912:917   */\n      dup2\n        /* \"#utility.yul\":885:918   */\n      tag_103\n      jump\t// in\n    tag_102:\n        /* \"#utility.yul\":785:924   */\n      swap3\n      swap2\n      pop\n      pop\n      jump\t// out\n        /* \"#utility.yul\":930:1439   */\n    tag_38:\n        /* \"#utility.yul\":999:1005   */\n      0x00\n        /* \"#utility.yul\":1048:1050   */\n      0x20\n        /* \"#utility.yul\":1036:1045   */\n      dup3\n        /* \"#utility.yul\":1027:1034   */\n      dup5\n        /* \"#utility.yul\":1023:1046   */\n      sub\n        /* \"#utility.yul\":1019:1051   */\n      slt\n        /* \"#utility.yul\":1016:1135   */\n      iszero\n      tag_105\n      jumpi\n        /* \"#utility.yul\":1054:1133   */\n      tag_106\n      tag_107\n      jump\t// in\n    tag_106:\n        /* \"#utility.yul\":1016:1135   */\n    tag_105:\n        /* \"#utility.yul\":1202:1203   */\n      0x00\n        /* \"#utility.yul\":1191:1200   */\n      dup3\n        /* \"#utility.yul\":1187:1204   */\n      add\n        /* \"#utility.yul\":1174:1205   */\n      calldataload\n        /* \"#utility.yul\":1232:1250   */\n      0xffffffffffffffff\n        /* \"#utility.yul\":1224:1230   */\n      dup2\n        /* \"#utility.yul\":1221:1251   */\n      gt\n        /* \"#utility.yul\":1218:1335   */\n      iszero\n      tag_108\n      jumpi\n        /* \"#utility.yul\":1254:1333   */\n      tag_109\n      tag_110\n      jump\t// in\n    tag_109:\n        /* \"#utility.yul\":1218:1335   */\n    tag_108:\n        /* \"#utility.yul\":1359:1422   */\n      tag_111\n        /* \"#utility.yul\":1414:1421   */\n      dup5\n        /* \"#utility.yul\":1405:1411   */\n      dup3\n        /* \"#utility.yul\":1394:1403   */\n      dup6\n        /* \"#utility.yul\":1390:1412   */\n      add\n        /* \"#utility.yul\":1359:1422   */\n      tag_94\n      jump\t// in\n    tag_111:\n        /* \"#utility.yul\":1349:1422   */\n      swap2\n      pop\n        /* \"#utility.yul\":1145:1432   */\n      pop\n        /* \"#utility.yul\":930:1439   */\n      swap3\n      swap2\n      pop\n      pop\n      jump\t// out\n        /* \"#utility.yul\":1445:1774   */\n    tag_25:\n        /* \"#utility.yul\":1504:1510   */\n      0x00\n        /* \"#utility.yul\":1553:1555   */\n      0x20\n        /* \"#utility.yul\":1541:1550   */\n      dup3\n        /* \"#utility.yul\":1532:1539   */\n      dup5\n        /* \"#utility.yul\":1528:1551   */\n      sub\n        /* \"#utility.yul\":1524:1556   */\n      slt\n        /* \"#utility.yul\":1521:1640   */\n      iszero\n      tag_113\n      jumpi\n        /* \"#utility.yul\":1559:1638   */\n      tag_114\n      tag_107\n      jump\t// in\n    tag_114:\n        /* \"#utility.yul\":1521:1640   */\n    tag_113:\n        /* \"#utility.yul\":1679:1680   */\n      0x00\n        /* \"#utility.yul\":1704:1757   */\n      tag_115\n        /* \"#utility.yul\":1749:1756   */\n      dup5\n        /* \"#utility.yul\":1740:1746   */\n      dup3\n        /* \"#utility.yul\":1729:1738   */\n      dup6\n        /* \"#utility.yul\":1725:1747   */\n      add\n        /* \"#utility.yul\":1704:1757   */\n      tag_100\n      jump\t// in\n    tag_115:\n        /* \"#utility.yul\":1694:1757   */\n      swap2\n      pop\n        /* \"#utility.yul\":1650:1767   */\n      pop\n        /* \"#utility.yul\":1445:1774   */\n      swap3\n      swap2\n      pop\n      pop\n      jump\t// out\n        /* \"#utility.yul\":1780:1889   */\n    tag_116:\n        /* \"#utility.yul\":1861:1882   */\n      tag_118\n        /* \"#utility.yul\":1876:1881   */\n      dup2\n        /* \"#utility.yul\":1861:1882   */\n      tag_119\n      jump\t// in\n    tag_118:\n        /* \"#utility.yul\":1856:1859   */\n      dup3\n        /* \"#utility.yul\":1849:1883   */\n      mstore\n        /* \"#utility.yul\":1780:1889   */\n      pop\n      pop\n      jump\t// out\n        /* \"#utility.yul\":1895:2259   */\n    tag_120:\n        /* \"#utility.yul\":1983:1986   */\n      0x00\n        /* \"#utility.yul\":2011:2050   */\n      tag_122\n        /* \"#utility.yul\":2044:2049   */\n      dup3\n        /* \"#utility.yul\":2011:2050   */\n      tag_123\n      jump\t// in\n    tag_122:\n        /* \"#utility.yul\":2066:2137   */\n      tag_124\n        /* \"#utility.yul\":2130:2136   */\n      dup2\n        /* \"#utility.yul\":2125:2128   */\n      dup6\n        /* \"#utility.yul\":2066:2137   */\n      tag_125\n      jump\t// in\n    tag_124:\n        /* \"#utility.yul\":2059:2137   */\n      swap4\n      pop\n        /* \"#utility.yul\":2146:2198   */\n      tag_126\n        /* \"#utility.yul\":2191:2197   */\n      dup2\n        /* \"#utility.yul\":2186:2189   */\n      dup6\n        /* \"#utility.yul\":2179:2183   */\n      0x20\n        /* \"#utility.yul\":2172:2177   */\n      dup7\n        /* \"#utility.yul\":2168:2184   */\n      add\n        /* \"#utility.yul\":2146:2198   */\n      tag_127\n      jump\t// in\n    tag_126:\n        /* \"#utility.yul\":2223:2252   */\n      tag_128\n        /* \"#utility.yul\":2245:2251   */\n      dup2\n        /* \"#utility.yul\":2223:2252   */\n      tag_129\n      jump\t// in\n    tag_128:\n        /* \"#utility.yul\":2218:2221   */\n      dup5\n        /* \"#utility.yul\":2214:2253   */\n      add\n        /* \"#utility.yul\":2207:2253   */\n      swap2\n      pop\n        /* \"#utility.yul\":1987:2259   */\n      pop\n        /* \"#utility.yul\":1895:2259   */\n      swap3\n      swap2\n      pop\n      pop\n      jump\t// out\n        /* \"#utility.yul\":2265:2383   */\n    tag_130:\n        /* \"#utility.yul\":2352:2376   */\n      tag_132\n        /* \"#utility.yul\":2370:2375   */\n      dup2\n        /* \"#utility.yul\":2352:2376   */\n      tag_133\n      jump\t// in\n    tag_132:\n        /* \"#utility.yul\":2347:2350   */\n      dup3\n        /* \"#utility.yul\":2340:2377   */\n      mstore\n        /* \"#utility.yul\":2265:2383   */\n      pop\n      pop\n      jump\t// out\n        /* \"#utility.yul\":2389:2599   */\n    tag_35:\n        /* \"#utility.yul\":2476:2480   */\n      0x00\n        /* \"#utility.yul\":2514:2516   */\n      0x20\n        /* \"#utility.yul\":2503:2512   */\n      dup3\n        /* \"#utility.yul\":2499:2517   */\n      add\n        /* \"#utility.yul\":2491:2517   */\n      swap1\n      pop\n        /* \"#utility.yul\":2527:2592   */\n      tag_135\n        /* \"#utility.yul\":2589:2590   */\n      0x00\n        /* \"#utility.yul\":2578:2587   */\n      dup4\n        /* \"#utility.yul\":2574:2591   */\n      add\n        /* \"#utility.yul\":2565:2571   */\n      dup5\n        /* \"#utility.yul\":2527:2592   */\n      tag_116\n      jump\t// in\n    tag_135:\n        /* \"#utility.yul\":2389:2599   */\n      swap3\n      swap2\n      pop\n      pop\n      jump\t// out\n        /* \"#utility.yul\":2605:2918   */\n    tag_16:\n        /* \"#utility.yul\":2718:2722   */\n      0x00\n        /* \"#utility.yul\":2756:2758   */\n      0x20\n        /* \"#utility.yul\":2745:2754   */\n      dup3\n        /* \"#utility.yul\":2741:2759   */\n      add\n        /* \"#utility.yul\":2733:2759   */\n      swap1\n      pop\n        /* \"#utility.yul\":2805:2814   */\n      dup2\n        /* \"#utility.yul\":2799:2803   */\n      dup2\n        /* \"#utility.yul\":2795:2815   */\n      sub\n        /* \"#utility.yul\":2791:2792   */\n      0x00\n        /* \"#utility.yul\":2780:2789   */\n      dup4\n        /* \"#utility.yul\":2776:2793   */\n      add\n        /* \"#utility.yul\":2769:2816   */\n      mstore\n        /* \"#utility.yul\":2833:2911   */\n      tag_137\n        /* \"#utility.yul\":2906:2910   */\n      dup2\n        /* \"#utility.yul\":2897:2903   */\n      dup5\n        /* \"#utility.yul\":2833:2911   */\n      tag_120\n      jump\t// in\n    tag_137:\n        /* \"#utility.yul\":2825:2911   */\n      swap1\n      pop\n        /* \"#utility.yul\":2605:2918   */\n      swap3\n      swap2\n      pop\n      pop\n      jump\t// out\n        /* \"#utility.yul\":2924:3146   */\n    tag_22:\n        /* \"#utility.yul\":3017:3021   */\n      0x00\n        /* \"#utility.yul\":3055:3057   */\n      0x20\n        /* \"#utility.yul\":3044:3053   */\n      dup3\n        /* \"#utility.yul\":3040:3058   */\n      add\n        /* \"#utility.yul\":3032:3058   */\n      swap1\n      pop\n        /* \"#utility.yul\":3068:3139   */\n      tag_139\n        /* \"#utility.yul\":3136:3137   */\n      0x00\n        /* \"#utility.yul\":3125:3134   */\n      dup4\n        /* \"#utility.yul\":3121:3138   */\n      add\n        /* \"#utility.yul\":3112:3118   */\n      dup5\n        /* \"#utility.yul\":3068:3139   */\n      tag_130\n      jump\t// in\n    tag_139:\n        /* \"#utility.yul\":2924:3146   */\n      swap3\n      swap2\n      pop\n      pop\n      jump\t// out\n        /* \"#utility.yul\":3152:3281   */\n    tag_88:\n        /* \"#utility.yul\":3186:3192   */\n      0x00\n        /* \"#utility.yul\":3213:3233   */\n      tag_141\n      tag_142\n      jump\t// in\n    tag_141:\n        /* \"#utility.yul\":3203:3233   */\n      swap1\n      pop\n        /* \"#utility.yul\":3242:3275   */\n      tag_143\n        /* \"#utility.yul\":3270:3274   */\n      dup3\n        /* \"#utility.yul\":3262:3268   */\n      dup3\n        /* \"#utility.yul\":3242:3275   */\n      tag_144\n      jump\t// in\n    tag_143:\n        /* \"#utility.yul\":3152:3281   */\n      swap2\n      swap1\n      pop\n      jump\t// out\n        /* \"#utility.yul\":3287:3362   */\n    tag_142:\n        /* \"#utility.yul\":3320:3326   */\n      0x00\n        /* \"#utility.yul\":3353:3355   */\n      0x40\n        /* \"#utility.yul\":3347:3356   */\n      mload\n        /* \"#utility.yul\":3337:3356   */\n      swap1\n      pop\n        /* \"#utility.yul\":3287:3362   */\n      swap1\n      jump\t// out\n        /* \"#utility.yul\":3368:3676   */\n    tag_87:\n        /* \"#utility.yul\":3430:3434   */\n      0x00\n        /* \"#utility.yul\":3520:3538   */\n      0xffffffffffffffff\n        /* \"#utility.yul\":3512:3518   */\n      dup3\n        /* \"#utility.yul\":3509:3539   */\n      gt\n        /* \"#utility.yul\":3506:3562   */\n      iszero\n      tag_147\n      jumpi\n        /* \"#utility.yul\":3542:3560   */\n      tag_148\n      tag_149\n      jump\t// in\n    tag_148:\n        /* \"#utility.yul\":3506:3562   */\n    tag_147:\n        /* \"#utility.yul\":3580:3609   */\n      tag_150\n        /* \"#utility.yul\":3602:3608   */\n      dup3\n        /* \"#utility.yul\":3580:3609   */\n      tag_129\n      jump\t// in\n    tag_150:\n        /* \"#utility.yul\":3572:3609   */\n      swap1\n      pop\n        /* \"#utility.yul\":3664:3668   */\n      0x20\n        /* \"#utility.yul\":3658:3662   */\n      dup2\n        /* \"#utility.yul\":3654:3669   */\n      add\n        /* \"#utility.yul\":3646:3669   */\n      swap1\n      pop\n        /* \"#utility.yul\":3368:3676   */\n      swap2\n      swap1\n      pop\n      jump\t// out\n        /* \"#utility.yul\":3682:3781   */\n    tag_123:\n        /* \"#utility.yul\":3734:3740   */\n      0x00\n        /* \"#utility.yul\":3768:3773   */\n      dup2\n        /* \"#utility.yul\":3762:3774   */\n      mload\n        /* \"#utility.yul\":3752:3774   */\n      swap1\n      pop\n        /* \"#utility.yul\":3682:3781   */\n      swap2\n      swap1\n      pop\n      jump\t// out\n        /* \"#utility.yul\":3787:3956   */\n    tag_125:\n        /* \"#utility.yul\":3871:3882   */\n      0x00\n        /* \"#utility.yul\":3905:3911   */\n      dup3\n        /* \"#utility.yul\":3900:3903   */\n      dup3\n        /* \"#utility.yul\":3893:3912   */\n      mstore\n        /* \"#utility.yul\":3945:3949   */\n      0x20\n        /* \"#utility.yul\":3940:3943   */\n      dup3\n        /* \"#utility.yul\":3936:3950   */\n      add\n        /* \"#utility.yul\":3921:3950   */\n      swap1\n      pop\n        /* \"#utility.yul\":3787:3956   */\n      swap3\n      swap2\n      pop\n      pop\n      jump\t// out\n        /* \"#utility.yul\":3962:4052   */\n    tag_119:\n        /* \"#utility.yul\":3996:4003   */\n      0x00\n        /* \"#utility.yul\":4039:4044   */\n      dup2\n        /* \"#utility.yul\":4032:4045   */\n      iszero\n        /* \"#utility.yul\":4025:4046   */\n      iszero\n        /* \"#utility.yul\":4014:4046   */\n      swap1\n      pop\n        /* \"#utility.yul\":3962:4052   */\n      swap2\n      swap1\n      pop\n      jump\t// out\n        /* \"#utility.yul\":4058:4135   */\n    tag_133:\n        /* \"#utility.yul\":4095:4102   */\n      0x00\n        /* \"#utility.yul\":4124:4129   */\n      dup2\n        /* \"#utility.yul\":4113:4129   */\n      swap1\n      pop\n        /* \"#utility.yul\":4058:4135   */\n      swap2\n      swap1\n      pop\n      jump\t// out\n        /* \"#utility.yul\":4141:4295   */\n    tag_93:\n        /* \"#utility.yul\":4225:4231   */\n      dup3\n        /* \"#utility.yul\":4220:4223   */\n      dup2\n        /* \"#utility.yul\":4215:4218   */\n      dup4\n        /* \"#utility.yul\":4202:4232   */\n      calldatacopy\n        /* \"#utility.yul\":4287:4288   */\n      0x00\n        /* \"#utility.yul\":4278:4284   */\n      dup4\n        /* \"#utility.yul\":4273:4276   */\n      dup4\n        /* \"#utility.yul\":4269:4285   */\n      add\n        /* \"#utility.yul\":4262:4289   */\n      mstore\n        /* \"#utility.yul\":4141:4295   */\n      pop\n      pop\n      pop\n      jump\t// out\n        /* \"#utility.yul\":4301:4608   */\n    tag_127:\n        /* \"#utility.yul\":4369:4370   */\n      0x00\n        /* \"#utility.yul\":4379:4492   */\n    tag_157:\n        /* \"#utility.yul\":4393:4399   */\n      dup4\n        /* \"#utility.yul\":4390:4391   */\n      dup2\n        /* \"#utility.yul\":4387:4400   */\n      lt\n        /* \"#utility.yul\":4379:4492   */\n      iszero\n      tag_159\n      jumpi\n        /* \"#utility.yul\":4478:4479   */\n      dup1\n        /* \"#utility.yul\":4473:4476   */\n      dup3\n        /* \"#utility.yul\":4469:4480   */\n      add\n        /* \"#utility.yul\":4463:4481   */\n      mload\n        /* \"#utility.yul\":4459:4460   */\n      dup2\n        /* \"#utility.yul\":4454:4457   */\n      dup5\n        /* \"#utility.yul\":4450:4461   */\n      add\n        /* \"#utility.yul\":4443:4482   */\n      mstore\n        /* \"#utility.yul\":4415:4417   */\n      0x20\n        /* \"#utility.yul\":4412:4413   */\n      dup2\n        /* \"#utility.yul\":4408:4418   */\n      add\n        /* \"#utility.yul\":4403:4418   */\n      swap1\n      pop\n        /* \"#utility.yul\":4379:4492   */\n      jump(tag_157)\n    tag_159:\n        /* \"#utility.yul\":4510:4516   */\n      dup4\n        /* \"#utility.yul\":4507:4508   */\n      dup2\n        /* \"#utility.yul\":4504:4517   */\n      gt\n        /* \"#utility.yul\":4501:4602   */\n      iszero\n      tag_160\n      jumpi\n        /* \"#utility.yul\":4590:4591   */\n      0x00\n        /* \"#utility.yul\":4581:4587   */\n      dup5\n        /* \"#utility.yul\":4576:4579   */\n      dup5\n        /* \"#utility.yul\":4572:4588   */\n      add\n        /* \"#utility.yul\":4565:4592   */\n      mstore\n        /* \"#utility.yul\":4501:4602   */\n    tag_160:\n        /* \"#utility.yul\":4350:4608   */\n      pop\n        /* \"#utility.yul\":4301:4608   */\n      pop\n      pop\n      pop\n      jump\t// out\n        /* \"#utility.yul\":4614:4934   */\n    tag_48:\n        /* \"#utility.yul\":4658:4664   */\n      0x00\n        /* \"#utility.yul\":4695:4696   */\n      0x02\n        /* \"#utility.yul\":4689:4693   */\n      dup3\n        /* \"#utility.yul\":4685:4697   */\n      div\n        /* \"#utility.yul\":4675:4697   */\n      swap1\n      pop\n        /* \"#utility.yul\":4742:4743   */\n      0x01\n        /* \"#utility.yul\":4736:4740   */\n      dup3\n        /* \"#utility.yul\":4732:4744   */\n      and\n        /* \"#utility.yul\":4763:4781   */\n      dup1\n        /* \"#utility.yul\":4753:4834   */\n      tag_162\n      jumpi\n        /* \"#utility.yul\":4819:4823   */\n      0x7f\n        /* \"#utility.yul\":4811:4817   */\n      dup3\n        /* \"#utility.yul\":4807:4824   */\n      and\n        /* \"#utility.yul\":4797:4824   */\n      swap2\n      pop\n        /* \"#utility.yul\":4753:4834   */\n    tag_162:\n        /* \"#utility.yul\":4881:4883   */\n      0x20\n        /* \"#utility.yul\":4873:4879   */\n      dup3\n        /* \"#utility.yul\":4870:4884   */\n      lt\n        /* \"#utility.yul\":4850:4868   */\n      dup2\n        /* \"#utility.yul\":4847:4885   */\n      eq\n        /* \"#utility.yul\":4844:4928   */\n      iszero\n      tag_163\n      jumpi\n        /* \"#utility.yul\":4900:4918   */\n      tag_164\n      tag_165\n      jump\t// in\n    tag_164:\n        /* \"#utility.yul\":4844:4928   */\n    tag_163:\n        /* \"#utility.yul\":4665:4934   */\n      pop\n        /* \"#utility.yul\":4614:4934   */\n      swap2\n      swap1\n      pop\n      jump\t// out\n        /* \"#utility.yul\":4940:5221   */\n    tag_144:\n        /* \"#utility.yul\":5023:5050   */\n      tag_167\n        /* \"#utility.yul\":5045:5049   */\n      dup3\n        /* \"#utility.yul\":5023:5050   */\n      tag_129\n      jump\t// in\n    tag_167:\n        /* \"#utility.yul\":5015:5021   */\n      dup2\n        /* \"#utility.yul\":5011:5051   */\n      add\n        /* \"#utility.yul\":5153:5159   */\n      dup2\n        /* \"#utility.yul\":5141:5151   */\n      dup2\n        /* \"#utility.yul\":5138:5160   */\n      lt\n        /* \"#utility.yul\":5117:5135   */\n      0xffffffffffffffff\n        /* \"#utility.yul\":5105:5115   */\n      dup3\n        /* \"#utility.yul\":5102:5136   */\n      gt\n        /* \"#utility.yul\":5099:5161   */\n      or\n        /* \"#utility.yul\":5096:5184   */\n      iszero\n      tag_168\n      jumpi\n        /* \"#utility.yul\":5164:5182   */\n      tag_169\n      tag_149\n      jump\t// in\n    tag_169:\n        /* \"#utility.yul\":5096:5184   */\n    tag_168:\n        /* \"#utility.yul\":5204:5214   */\n      dup1\n        /* \"#utility.yul\":5200:5202   */\n      0x40\n        /* \"#utility.yul\":5193:5215   */\n      mstore\n        /* \"#utility.yul\":4983:5221   */\n      pop\n        /* \"#utility.yul\":4940:5221   */\n      pop\n      pop\n      jump\t// out\n        /* \"#utility.yul\":5227:5407   */\n    tag_165:\n        /* \"#utility.yul\":5275:5352   */\n      0x4e487b7100000000000000000000000000000000000000000000000000000000\n        /* \"#utility.yul\":5272:5273   */\n      0x00\n        /* \"#utility.yul\":5265:5353   */\n      mstore\n        /* \"#utility.yul\":5372:5376   */\n      0x22\n        /* \"#utility.yul\":5369:5370   */\n      0x04\n        /* \"#utility.yul\":5362:5377   */\n      mstore\n        /* \"#utility.yul\":5396:5400   */\n      0x24\n        /* \"#utility.yul\":5393:5394   */\n      0x00\n        /* \"#utility.yul\":5386:5401   */\n      revert\n        /* \"#utility.yul\":5413:5593   */\n    tag_149:\n        /* \"#utility.yul\":5461:5538   */\n      0x4e487b7100000000000000000000000000000000000000000000000000000000\n        /* \"#utility.yul\":5458:5459   */\n      0x00\n        /* \"#utility.yul\":5451:5539   */\n      mstore\n        /* \"#utility.yul\":5558:5562   */\n      0x41\n        /* \"#utility.yul\":5555:5556   */\n      0x04\n        /* \"#utility.yul\":5548:5563   */\n      mstore\n        /* \"#utility.yul\":5582:5586   */\n      0x24\n        /* \"#utility.yul\":5579:5580   */\n      0x00\n        /* \"#utility.yul\":5572:5587   */\n      revert\n        /* \"#utility.yul\":5599:5716   */\n    tag_98:\n        /* \"#utility.yul\":5708:5709   */\n      0x00\n        /* \"#utility.yul\":5705:5706   */\n      dup1\n        /* \"#utility.yul\":5698:5710   */\n      revert\n        /* \"#utility.yul\":5722:5839   */\n    tag_91:\n        /* \"#utility.yul\":5831:5832   */\n      0x00\n        /* \"#utility.yul\":5828:5829   */\n      dup1\n        /* \"#utility.yul\":5821:5833   */\n      revert\n        /* \"#utility.yul\":5845:5962   */\n    tag_110:\n        /* \"#utility.yul\":5954:5955   */\n      0x00\n        /* \"#utility.yul\":5951:5952   */\n      dup1\n        /* \"#utility.yul\":5944:5956   */\n      revert\n        /* \"#utility.yul\":5968:6085   */\n    tag_107:\n        /* \"#utility.yul\":6077:6078   */\n      0x00\n        /* \"#utility.yul\":6074:6075   */\n      dup1\n        /* \"#utility.yul\":6067:6079   */\n      revert\n        /* \"#utility.yul\":6091:6193   */\n    tag_129:\n        /* \"#utility.yul\":6132:6138   */\n      0x00\n        /* \"#utility.yul\":6183:6185   */\n      0x1f\n        /* \"#utility.yul\":6179:6186   */\n      not\n        /* \"#utility.yul\":6174:6176   */\n      0x1f\n        /* \"#utility.yul\":6167:6172   */\n      dup4\n        /* \"#utility.yul\":6163:6177   */\n      add\n        /* \"#utility.yul\":6159:6187   */\n      and\n        /* \"#utility.yul\":6149:6187   */\n      swap1\n      pop\n        /* \"#utility.yul\":6091:6193   */\n      swap2\n      swap1\n      pop\n      jump\t// out\n        /* \"#utility.yul\":6199:6321   */\n    tag_103:\n        /* \"#utility.yul\":6272:6296   */\n      tag_178\n        /* \"#utility.yul\":6290:6295   */\n      dup2\n        /* \"#utility.yul\":6272:6296   */\n      tag_133\n      jump\t// in\n    tag_178:\n        /* \"#utility.yul\":6265:6270   */\n      dup2\n        /* \"#utility.yul\":6262:6297   */\n      eq\n        /* \"#utility.yul\":6252:6315   */\n      tag_179\n      jumpi\n        /* \"#utility.yul\":6311:6312   */\n      0x00\n        /* \"#utility.yul\":6308:6309   */\n      dup1\n        /* \"#utility.yul\":6301:6313   */\n      revert\n        /* \"#utility.yul\":6252:6315   */\n    tag_179:\n        /* \"#utility.yul\":6199:6321   */\n      pop\n      jump\t// out\n\n    auxdata: 0xa26469706673582212204ce280865f67416b1488ba2816178f7de18657fcaae6eb56815d2a5fd4ff7e4c64736f6c63430008070033\n}\n",
				"bytecode": {
					"linkReferences": {},
					"object": "60806040526040518060400160405280600b81526020017f546f6e792053747261726b0000000000000000000000000000000000000000008152506000908051906020019062000051929190620001c2565b5060306001556001600260006101000a81548160ff02191690831515021790555060405180606001604052806040518060400160405280600781526020017f706c6179626f790000000000000000000000000000000000000000000000000081525081526020016040518060400160405280600881526020017f656e67696e65657200000000000000000000000000000000000000000000000081525081526020016040518060400160405280600481526020017f6865726f0000000000000000000000000000000000000000000000000000000081525081525060049060036200013e92919062000253565b503480156200014c57600080fd5b5060405162000d2c38038062000d2c833981810160405281019062000172919062000375565b8160038190555080600560006101000a81548173ffffffffffffffffffffffffffffffffffffffff021916908373ffffffffffffffffffffffffffffffffffffffff160217905550505062000498565b828054620001d090620003fa565b90600052602060002090601f016020900481019282620001f4576000855562000240565b82601f106200020f57805160ff191683800117855562000240565b8280016001018555821562000240579182015b828111156200023f57825182559160200191906001019062000222565b5b5090506200024f9190620002ba565b5090565b828054828255906000526020600020908101928215620002a7579160200282015b82811115620002a657825182908051906020019062000295929190620001c2565b509160200191906001019062000274565b5b509050620002b69190620002d9565b5090565b5b80821115620002d5576000816000905550600101620002bb565b5090565b5b80821115620002fd5760008181620002f3919062000301565b50600101620002da565b5090565b5080546200030f90620003fa565b6000825580601f1062000323575062000344565b601f016020900490600052602060002090810190620003439190620002ba565b5b50565b600081519050620003588162000464565b92915050565b6000815190506200036f816200047e565b92915050565b600080604083850312156200038f576200038e6200045f565b5b60006200039f858286016200035e565b9250506020620003b28582860162000347565b9150509250929050565b6000620003c982620003d0565b9050919050565b600073ffffffffffffffffffffffffffffffffffffffff82169050919050565b6000819050919050565b600060028204905060018216806200041357607f821691505b602082108114156200042a576200042962000430565b5b50919050565b7f4e487b7100000000000000000000000000000000000000000000000000000000600052602260045260246000fd5b600080fd5b6200046f81620003bc565b81146200047b57600080fd5b50565b6200048981620003f0565b81146200049557600080fd5b50565b61088480620004a86000396000f3fe608060405234801561001057600080fd5b50600436106100935760003560e01c80635cd836a3116100665780635cd836a31461010e578063654a573c1461013e578063853320e31461015c578063b69ef8a81461018c578063cfb5843c146101aa57610093565b806306fdde031461009857806313299604146100b6578063262a9dff146100c0578063449549d5146100de575b600080fd5b6100a06101c6565b6040516100ad919061064a565b60405180910390f35b6100be610254565b005b6100c8610256565b6040516100d5919061066c565b60405180910390f35b6100f860048036038101906100f391906105ab565b61025c565b604051610105919061064a565b60405180910390f35b610128600480360381019061012391906105ab565b610308565b604051610135919061064a565b60405180910390f35b6101466103b4565b604051610153919061062f565b60405180910390f35b61017660048036038101906101719190610562565b6103c7565b604051610183919061066c565b60405180910390f35b6101946103f5565b6040516101a1919061066c565b60405180910390f35b6101c460048036038101906101bf9190610562565b6103fb565b005b600080546101d390610751565b80601f01602080910402602001604051908101604052809291908181526020018280546101ff90610751565b801561024c5780601f106102215761010080835404028352916020019161024c565b820191906000526020600020905b81548152906001019060200180831161022f57829003601f168201915b505050505081565b565b60015481565b6006818154811061026c57600080fd5b90600052602060002001600091509050805461028790610751565b80601f01602080910402602001604051908101604052809291908181526020018280546102b390610751565b80156103005780601f106102d557610100808354040283529160200191610300565b820191906000526020600020905b8154815290600101906020018083116102e357829003601f168201915b505050505081565b6004818154811061031857600080fd5b90600052602060002001600091509050805461033390610751565b80601f016020809104026020016040519081016040528092919081815260200182805461035f90610751565b80156103ac5780601f10610381576101008083540402835291602001916103ac565b820191906000526020600020905b81548152906001019060200180831161038f57829003601f168201915b505050505081565b600260009054906101000a900460ff1681565b6007818051602081018201805184825260208301602085012081835280955050505050506000915090505481565b60035481565b60068190806001815401808255809150506001900390600052602060002001600090919091909150908051906020019061043692919061043a565b5050565b82805461044690610751565b90600052602060002090601f01602090048101928261046857600085556104af565b82601f1061048157805160ff19168380011785556104af565b828001600101855582156104af579182015b828111156104ae578251825591602001919060010190610493565b5b5090506104bc91906104c0565b5090565b5b808211156104d95760008160009055506001016104c1565b5090565b60006104f06104eb846106ac565b610687565b90508281526020810184848401111561050c5761050b610817565b5b61051784828561070f565b509392505050565b600082601f83011261053457610533610812565b5b81356105448482602086016104dd565b91505092915050565b60008135905061055c81610837565b92915050565b60006020828403121561057857610577610821565b5b600082013567ffffffffffffffff8111156105965761059561081c565b5b6105a28482850161051f565b91505092915050565b6000602082840312156105c1576105c0610821565b5b60006105cf8482850161054d565b91505092915050565b6105e1816106f9565b82525050565b60006105f2826106dd565b6105fc81856106e8565b935061060c81856020860161071e565b61061581610826565b840191505092915050565b61062981610705565b82525050565b600060208201905061064460008301846105d8565b92915050565b6000602082019050818103600083015261066481846105e7565b905092915050565b60006020820190506106816000830184610620565b92915050565b60006106916106a2565b905061069d8282610783565b919050565b6000604051905090565b600067ffffffffffffffff8211156106c7576106c66107e3565b5b6106d082610826565b9050602081019050919050565b600081519050919050565b600082825260208201905092915050565b60008115159050919050565b6000819050919050565b82818337600083830152505050565b60005b8381101561073c578082015181840152602081019050610721565b8381111561074b576000848401525b50505050565b6000600282049050600182168061076957607f821691505b6020821081141561077d5761077c6107b4565b5b50919050565b61078c82610826565b810181811067ffffffffffffffff821117156107ab576107aa6107e3565b5b80604052505050565b7f4e487b7100000000000000000000000000000000000000000000000000000000600052602260045260246000fd5b7f4e487b7100000000000000000000000000000000000000000000000000000000600052604160045260246000fd5b600080fd5b600080fd5b600080fd5b600080fd5b6000601f19601f8301169050919050565b61084081610705565b811461084b57600080fd5b5056fea26469706673582212204ce280865f67416b1488ba2816178f7de18657fcaae6eb56815d2a5fd4ff7e4c64736f6c63430008070033",
					"opcodes": "PUSH1 0x80 PUSH1 0x40 MSTORE PUSH1 0x40 MLOAD DUP1 PUSH1 0x40 ADD PUSH1 0x40 MSTORE DUP1 PUSH1 0xB DUP2 MSTORE PUSH1 0x20 ADD PUSH32 0x546F6E792053747261726B000000000000000000000000000000000000000000 DUP2 MSTORE POP PUSH1 0x0 SWAP1 DUP1 MLOAD SWAP1 PUSH1 0x20 ADD SWAP1 PUSH3 0x51 SWAP3 SWAP2 SWAP1 PUSH3 0x1C2 JUMP JUMPDEST POP PUSH1 0x30 PUSH1 0x1 SSTORE PUSH1 0x1 PUSH1 0x2 PUSH1 0x0 PUSH2 0x100 EXP DUP2 SLOAD DUP2 PUSH1 0xFF MUL NOT AND SWAP1 DUP4 ISZERO ISZERO MUL OR SWAP1 SSTORE POP PUSH1 0x40 MLOAD DUP1 PUSH1 0x60 ADD PUSH1 0x40 MSTORE DUP1 PUSH1 0x40 MLOAD DUP1 PUSH1 0x40 ADD PUSH1 0x40 MSTORE DUP1 PUSH1 0x7 DUP2 MSTORE PUSH1 0x20 ADD PUSH32 0x706C6179626F7900000000000000000000000000000000000000000000000000 DUP2 MSTORE POP DUP2 MSTORE PUSH1 0x20 ADD PUSH1 0x40 MLOAD DUP1 PUSH1 0x40 ADD PUSH1 0x40 MSTORE DUP1 PUSH1 0x8 DUP2 MSTORE PUSH1 0x20 ADD PUSH32 0x656E67696E656572000000000000000000000000000000000000000000000000 DUP2 MSTORE POP DUP2 MSTORE PUSH1 0x20 ADD PUSH1 0x40 MLOAD DUP1 PUSH1 0x40 ADD PUSH1 0x40 MSTORE DUP1 PUSH1 0x4 DUP2 MSTORE PUSH1 0x20 ADD PUSH32 0x6865726F00000000000000000000000000000000000000000000000000000000 DUP2 MSTORE POP DUP2 MSTORE POP PUSH1 0x4 SWAP1 PUSH1 0x3 PUSH3 0x13E SWAP3 SWAP2 SWAP1 PUSH3 0x253 JUMP JUMPDEST POP CALLVALUE DUP1 ISZERO PUSH3 0x14C JUMPI PUSH1 0x0 DUP1 REVERT JUMPDEST POP PUSH1 0x40 MLOAD PUSH3 0xD2C CODESIZE SUB DUP1 PUSH3 0xD2C DUP4 CODECOPY DUP2 DUP2 ADD PUSH1 0x40 MSTORE DUP2 ADD SWAP1 PUSH3 0x172 SWAP2 SWAP1 PUSH3 0x375 JUMP JUMPDEST DUP2 PUSH1 0x3 DUP2 SWAP1 SSTORE POP DUP1 PUSH1 0x5 PUSH1 0x0 PUSH2 0x100 EXP DUP2 SLOAD DUP2 PUSH20 0xFFFFFFFFFFFFFFFFFFFFFFFFFFFFFFFFFFFFFFFF MUL NOT AND SWAP1 DUP4 PUSH20 0xFFFFFFFFFFFFFFFFFFFFFFFFFFFFFFFFFFFFFFFF AND MUL OR SWAP1 SSTORE POP POP POP PUSH3 0x498 JUMP JUMPDEST DUP3 DUP1 SLOAD PUSH3 0x1D0 SWAP1 PUSH3 0x3FA JUMP JUMPDEST SWAP1 PUSH1 0x0 MSTORE PUSH1 0x20 PUSH1 0x0 KECCAK256 SWAP1 PUSH1 0x1F ADD PUSH1 0x20 SWAP1 DIV DUP2 ADD SWAP3 DUP3 PUSH3 0x1F4 JUMPI PUSH1 0x0 DUP6 SSTORE PUSH3 0x240 JUMP JUMPDEST DUP3 PUSH1 0x1F LT PUSH3 0x20F JUMPI DUP1 MLOAD PUSH1 0xFF NOT AND DUP4 DUP1 ADD OR DUP6 SSTORE PUSH3 0x240 JUMP JUMPDEST DUP3 DUP1 ADD PUSH1 0x1 ADD DUP6 SSTORE DUP3 ISZERO PUSH3 0x240 JUMPI SWAP2 DUP3 ADD JUMPDEST DUP3 DUP2 GT ISZERO PUSH3 0x23F JUMPI DUP3 MLOAD DUP3 SSTORE SWAP2 PUSH1 0x20 ADD SWAP2 SWAP1 PUSH1 0x1 ADD SWAP1 PUSH3 0x222 JUMP JUMPDEST JUMPDEST POP SWAP1 POP PUSH3 0x24F SWAP2 SWAP1 PUSH3 0x2BA JUMP JUMPDEST POP SWAP1 JUMP JUMPDEST DUP3 DUP1 SLOAD DUP3 DUP3 SSTORE SWAP1 PUSH1 0x0 MSTORE PUSH1 0x20 PUSH1 0x0 KECCAK256 SWAP1 DUP2 ADD SWAP3 DUP3 ISZERO PUSH3 0x2A7 JUMPI SWAP2 PUSH1 0x20 MUL DUP3 ADD JUMPDEST DUP3 DUP2 GT ISZERO PUSH3 0x2A6 JUMPI DUP3 MLOAD DUP3 SWAP1 DUP1 MLOAD SWAP1 PUSH1 0x20 ADD SWAP1 PUSH3 0x295 SWAP3 SWAP2 SWAP1 PUSH3 0x1C2 JUMP JUMPDEST POP SWAP2 PUSH1 0x20 ADD SWAP2 SWAP1 PUSH1 0x1 ADD SWAP1 PUSH3 0x274 JUMP JUMPDEST JUMPDEST POP SWAP1 POP PUSH3 0x2B6 SWAP2 SWAP1 PUSH3 0x2D9 JUMP JUMPDEST POP SWAP1 JUMP JUMPDEST JUMPDEST DUP1 DUP3 GT ISZERO PUSH3 0x2D5 JUMPI PUSH1 0x0 DUP2 PUSH1 0x0 SWAP1 SSTORE POP PUSH1 0x1 ADD PUSH3 0x2BB JUMP JUMPDEST POP SWAP1 JUMP JUMPDEST JUMPDEST DUP1 DUP3 GT ISZERO PUSH3 0x2FD JUMPI PUSH1 0x0 DUP2 DUP2 PUSH3 0x2F3 SWAP2 SWAP1 PUSH3 0x301 JUMP JUMPDEST POP PUSH1 0x1 ADD PUSH3 0x2DA JUMP JUMPDEST POP SWAP1 JUMP JUMPDEST POP DUP1 SLOAD PUSH3 0x30F SWAP1 PUSH3 0x3FA JUMP JUMPDEST PUSH1 0x0 DUP3 SSTORE DUP1 PUSH1 0x1F LT PUSH3 0x323 JUMPI POP PUSH3 0x344 JUMP JUMPDEST PUSH1 0x1F ADD PUSH1 0x20 SWAP1 DIV SWAP1 PUSH1 0x0 MSTORE PUSH1 0x20 PUSH1 0x0 KECCAK256 SWAP1 DUP2 ADD SWAP1 PUSH3 0x343 SWAP2 SWAP1 PUSH3 0x2BA JUMP JUMPDEST JUMPDEST POP JUMP JUMPDEST PUSH1 0x0 DUP2 MLOAD SWAP1 POP PUSH3 0x358 DUP2 PUSH3 0x464 JUMP JUMPDEST SWAP3 SWAP2 POP POP JUMP JUMPDEST PUSH1 0x0 DUP2 MLOAD SWAP1 POP PUSH3 0x36F DUP2 PUSH3 0x47E JUMP JUMPDEST SWAP3 SWAP2 POP POP JUMP JUMPDEST PUSH1 0x0 DUP1 PUSH1 0x40 DUP4 DUP6 SUB SLT ISZERO PUSH3 0x38F JUMPI PUSH3 0x38E PUSH3 0x45F JUMP JUMPDEST JUMPDEST PUSH1 0x0 PUSH3 0x39F DUP6 DUP3 DUP7 ADD PUSH3 0x35E JUMP JUMPDEST SWAP3 POP POP PUSH1 0x20 PUSH3 0x3B2 DUP6 DUP3 DUP7 ADD PUSH3 0x347 JUMP JUMPDEST SWAP2 POP POP SWAP3 POP SWAP3 SWAP1 POP JUMP JUMPDEST PUSH1 0x0 PUSH3 0x3C9 DUP3 PUSH3 0x3D0 JUMP JUMPDEST SWAP1 POP SWAP2 SWAP1 POP JUMP JUMPDEST PUSH1 0x0 PUSH20 0xFFFFFFFFFFFFFFFFFFFFFFFFFFFFFFFFFFFFFFFF DUP3 AND SWAP1 POP SWAP2 SWAP1 POP JUMP JUMPDEST PUSH1 0x0 DUP2 SWAP1 POP SWAP2 SWAP1 POP JUMP JUMPDEST PUSH1 0x0 PUSH1 0x2 DUP3 DIV SWAP1 POP PUSH1 0x1 DUP3 AND DUP1 PUSH3 0x413 JUMPI PUSH1 0x7F DUP3 AND SWAP2 POP JUMPDEST PUSH1 0x20 DUP3 LT DUP2 EQ ISZERO PUSH3 0x42A JUMPI PUSH3 0x429 PUSH3 0x430 JUMP JUMPDEST JUMPDEST POP SWAP2 SWAP1 POP JUMP JUMPDEST PUSH32 0x4E487B7100000000000000000000000000000000000000000000000000000000 PUSH1 0x0 MSTORE PUSH1 0x22 PUSH1 0x4 MSTORE PUSH1 0x24 PUSH1 0x0 REVERT JUMPDEST PUSH1 0x0 DUP1 REVERT JUMPDEST PUSH3 0x46F DUP2 PUSH3 0x3BC JUMP JUMPDEST DUP2 EQ PUSH3 0x47B JUMPI PUSH1 0x0 DUP1 REVERT JUMPDEST POP JUMP JUMPDEST PUSH3 0x489 DUP2 PUSH3 0x3F0 JUMP JUMPDEST DUP2 EQ PUSH3 0x495 JUMPI PUSH1 0x0 DUP1 REVERT JUMPDEST POP JUMP JUMPDEST PUSH2 0x884 DUP1 PUSH3 0x4A8 PUSH1 0x0 CODECOPY PUSH1 0x0 RETURN INVALID PUSH1 0x80 PUSH1 0x40 MSTORE CALLVALUE DUP1 ISZERO PUSH2 0x10 JUMPI PUSH1 0x0 DUP1 REVERT JUMPDEST POP PUSH1 0x4 CALLDATASIZE LT PUSH2 0x93 JUMPI PUSH1 0x0 CALLDATALOAD PUSH1 0xE0 SHR DUP1 PUSH4 0x5CD836A3 GT PUSH2 0x66 JUMPI DUP1 PUSH4 0x5CD836A3 EQ PUSH2 0x10E JUMPI DUP1 PUSH4 0x654A573C EQ PUSH2 0x13E JUMPI DUP1 PUSH4 0x853320E3 EQ PUSH2 0x15C JUMPI DUP1 PUSH4 0xB69EF8A8 EQ PUSH2 0x18C JUMPI DUP1 PUSH4 0xCFB5843C EQ PUSH2 0x1AA JUMPI PUSH2 0x93 JUMP JUMPDEST DUP1 PUSH4 0x6FDDE03 EQ PUSH2 0x98 JUMPI DUP1 PUSH4 0x13299604 EQ PUSH2 0xB6 JUMPI DUP1 PUSH4 0x262A9DFF EQ PUSH2 0xC0 JUMPI DUP1 PUSH4 0x449549D5 EQ PUSH2 0xDE JUMPI JUMPDEST PUSH1 0x0 DUP1 REVERT JUMPDEST PUSH2 0xA0 PUSH2 0x1C6 JUMP JUMPDEST PUSH1 0x40 MLOAD PUSH2 0xAD SWAP2 SWAP1 PUSH2 0x64A JUMP JUMPDEST PUSH1 0x40 MLOAD DUP1 SWAP2 SUB SWAP1 RETURN JUMPDEST PUSH2 0xBE PUSH2 0x254 JUMP JUMPDEST STOP JUMPDEST PUSH2 0xC8 PUSH2 0x256 JUMP JUMPDEST PUSH1 0x40 MLOAD PUSH2 0xD5 SWAP2 SWAP1 PUSH2 0x66C JUMP JUMPDEST PUSH1 0x40 MLOAD DUP1 SWAP2 SUB SWAP1 RETURN JUMPDEST PUSH2 0xF8 PUSH1 0x4 DUP1 CALLDATASIZE SUB DUP2 ADD SWAP1 PUSH2 0xF3 SWAP2 SWAP1 PUSH2 0x5AB JUMP JUMPDEST PUSH2 0x25C JUMP JUMPDEST PUSH1 0x40 MLOAD PUSH2 0x105 SWAP2 SWAP1 PUSH2 0x64A JUMP JUMPDEST PUSH1 0x40 MLOAD DUP1 SWAP2 SUB SWAP1 RETURN JUMPDEST PUSH2 0x128 PUSH1 0x4 DUP1 CALLDATASIZE SUB DUP2 ADD SWAP1 PUSH2 0x123 SWAP2 SWAP1 PUSH2 0x5AB JUMP JUMPDEST PUSH2 0x308 JUMP JUMPDEST PUSH1 0x40 MLOAD PUSH2 0x135 SWAP2 SWAP1 PUSH2 0x64A JUMP JUMPDEST PUSH1 0x40 MLOAD DUP1 SWAP2 SUB SWAP1 RETURN JUMPDEST PUSH2 0x146 PUSH2 0x3B4 JUMP JUMPDEST PUSH1 0x40 MLOAD PUSH2 0x153 SWAP2 SWAP1 PUSH2 0x62F JUMP JUMPDEST PUSH1 0x40 MLOAD DUP1 SWAP2 SUB SWAP1 RETURN JUMPDEST PUSH2 0x176 PUSH1 0x4 DUP1 CALLDATASIZE SUB DUP2 ADD SWAP1 PUSH2 0x171 SWAP2 SWAP1 PUSH2 0x562 JUMP JUMPDEST PUSH2 0x3C7 JUMP JUMPDEST PUSH1 0x40 MLOAD PUSH2 0x183 SWAP2 SWAP1 PUSH2 0x66C JUMP JUMPDEST PUSH1 0x40 MLOAD DUP1 SWAP2 SUB SWAP1 RETURN JUMPDEST PUSH2 0x194 PUSH2 0x3F5 JUMP JUMPDEST PUSH1 0x40 MLOAD PUSH2 0x1A1 SWAP2 SWAP1 PUSH2 0x66C JUMP JUMPDEST PUSH1 0x40 MLOAD DUP1 SWAP2 SUB SWAP1 RETURN JUMPDEST PUSH2 0x1C4 PUSH1 0x4 DUP1 CALLDATASIZE SUB DUP2 ADD SWAP1 PUSH2 0x1BF SWAP2 SWAP1 PUSH2 0x562 JUMP JUMPDEST PUSH2 0x3FB JUMP JUMPDEST STOP JUMPDEST PUSH1 0x0 DUP1 SLOAD PUSH2 0x1D3 SWAP1 PUSH2 0x751 JUMP JUMPDEST DUP1 PUSH1 0x1F ADD PUSH1 0x20 DUP1 SWAP2 DIV MUL PUSH1 0x20 ADD PUSH1 0x40 MLOAD SWAP1 DUP2 ADD PUSH1 0x40 MSTORE DUP1 SWAP3 SWAP2 SWAP1 DUP2 DUP2 MSTORE PUSH1 0x20 ADD DUP3 DUP1 SLOAD PUSH2 0x1FF SWAP1 PUSH2 0x751 JUMP JUMPDEST DUP1 ISZERO PUSH2 0x24C JUMPI DUP1 PUSH1 0x1F LT PUSH2 0x221 JUMPI PUSH2 0x100 DUP1 DUP4 SLOAD DIV MUL DUP4 MSTORE SWAP2 PUSH1 0x20 ADD SWAP2 PUSH2 0x24C JUMP JUMPDEST DUP3 ADD SWAP2 SWAP1 PUSH1 0x0 MSTORE PUSH1 0x20 PUSH1 0x0 KECCAK256 SWAP1 JUMPDEST DUP2 SLOAD DUP2 MSTORE SWAP1 PUSH1 0x1 ADD SWAP1 PUSH1 0x20 ADD DUP1 DUP4 GT PUSH2 0x22F JUMPI DUP3 SWAP1 SUB PUSH1 0x1F AND DUP3 ADD SWAP2 JUMPDEST POP POP POP POP POP DUP2 JUMP JUMPDEST JUMP JUMPDEST PUSH1 0x1 SLOAD DUP2 JUMP JUMPDEST PUSH1 0x6 DUP2 DUP2 SLOAD DUP2 LT PUSH2 0x26C JUMPI PUSH1 0x0 DUP1 REVERT JUMPDEST SWAP1 PUSH1 0x0 MSTORE PUSH1 0x20 PUSH1 0x0 KECCAK256 ADD PUSH1 0x0 SWAP2 POP SWAP1 POP DUP1 SLOAD PUSH2 0x287 SWAP1 PUSH2 0x751 JUMP JUMPDEST DUP1 PUSH1 0x1F ADD PUSH1 0x20 DUP1 SWAP2 DIV MUL PUSH1 0x20 ADD PUSH1 0x40 MLOAD SWAP1 DUP2 ADD PUSH1 0x40 MSTORE DUP1 SWAP3 SWAP2 SWAP1 DUP2 DUP2 MSTORE PUSH1 0x20 ADD DUP3 DUP1 SLOAD PUSH2 0x2B3 SWAP1 PUSH2 0x751 JUMP JUMPDEST DUP1 ISZERO PUSH2 0x300 JUMPI DUP1 PUSH1 0x1F LT PUSH2 0x2D5 JUMPI PUSH2 0x100 DUP1 DUP4 SLOAD DIV MUL DUP4 MSTORE SWAP2 PUSH1 0x20 ADD SWAP2 PUSH2 0x300 JUMP JUMPDEST DUP3 ADD SWAP2 SWAP1 PUSH1 0x0 MSTORE PUSH1 0x20 PUSH1 0x0 KECCAK256 SWAP1 JUMPDEST DUP2 SLOAD DUP2 MSTORE SWAP1 PUSH1 0x1 ADD SWAP1 PUSH1 0x20 ADD DUP1 DUP4 GT PUSH2 0x2E3 JUMPI DUP3 SWAP1 SUB PUSH1 0x1F AND DUP3 ADD SWAP2 JUMPDEST POP POP POP POP POP DUP2 JUMP JUMPDEST PUSH1 0x4 DUP2 DUP2 SLOAD DUP2 LT PUSH2 0x318 JUMPI PUSH1 0x0 DUP1 REVERT JUMPDEST SWAP1 PUSH1 0x0 MSTORE PUSH1 0x20 PUSH1 0x0 KECCAK256 ADD PUSH1 0x0 SWAP2 POP SWAP1 POP DUP1 SLOAD PUSH2 0x333 SWAP1 PUSH2 0x751 JUMP JUMPDEST DUP1 PUSH1 0x1F ADD PUSH1 0x20 DUP1 SWAP2 DIV MUL PUSH1 0x20 ADD PUSH1 0x40 MLOAD SWAP1 DUP2 ADD PUSH1 0x40 MSTORE DUP1 SWAP3 SWAP2 SWAP1 DUP2 DUP2 MSTORE PUSH1 0x20 ADD DUP3 DUP1 SLOAD PUSH2 0x35F SWAP1 PUSH2 0x751 JUMP JUMPDEST DUP1 ISZERO PUSH2 0x3AC JUMPI DUP1 PUSH1 0x1F LT PUSH2 0x381 JUMPI PUSH2 0x100 DUP1 DUP4 SLOAD DIV MUL DUP4 MSTORE SWAP2 PUSH1 0x20 ADD SWAP2 PUSH2 0x3AC JUMP JUMPDEST DUP3 ADD SWAP2 SWAP1 PUSH1 0x0 MSTORE PUSH1 0x20 PUSH1 0x0 KECCAK256 SWAP1 JUMPDEST DUP2 SLOAD DUP2 MSTORE SWAP1 PUSH1 0x1 ADD SWAP1 PUSH1 0x20 ADD DUP1 DUP4 GT PUSH2 0x38F JUMPI DUP3 SWAP1 SUB PUSH1 0x1F AND DUP3 ADD SWAP2 JUMPDEST POP POP POP POP POP DUP2 JUMP JUMPDEST PUSH1 0x2 PUSH1 0x0 SWAP1 SLOAD SWAP1 PUSH2 0x100 EXP SWAP1 DIV PUSH1 0xFF AND DUP2 JUMP JUMPDEST PUSH1 0x7 DUP2 DUP1 MLOAD PUSH1 0x20 DUP2 ADD DUP3 ADD DUP1 MLOAD DUP5 DUP3 MSTORE PUSH1 0x20 DUP4 ADD PUSH1 0x20 DUP6 ADD KECCAK256 DUP2 DUP4 MSTORE DUP1 SWAP6 POP POP POP POP POP POP PUSH1 0x0 SWAP2 POP SWAP1 POP SLOAD DUP2 JUMP JUMPDEST PUSH1 0x3 SLOAD DUP2 JUMP JUMPDEST PUSH1 0x6 DUP2 SWAP1 DUP1 PUSH1 0x1 DUP2 SLOAD ADD DUP1 DUP3 SSTORE DUP1 SWAP2 POP POP PUSH1 0x1 SWAP1 SUB SWAP1 PUSH1 0x0 MSTORE PUSH1 0x20 PUSH1 0x0 KECCAK256 ADD PUSH1 0x0 SWAP1 SWAP2 SWAP1 SWAP2 SWAP1 SWAP2 POP SWAP1 DUP1 MLOAD SWAP1 PUSH1 0x20 ADD SWAP1 PUSH2 0x436 SWAP3 SWAP2 SWAP1 PUSH2 0x43A JUMP JUMPDEST POP POP JUMP JUMPDEST DUP3 DUP1 SLOAD PUSH2 0x446 SWAP1 PUSH2 0x751 JUMP JUMPDEST SWAP1 PUSH1 0x0 MSTORE PUSH1 0x20 PUSH1 0x0 KECCAK256 SWAP1 PUSH1 0x1F ADD PUSH1 0x20 SWAP1 DIV DUP2 ADD SWAP3 DUP3 PUSH2 0x468 JUMPI PUSH1 0x0 DUP6 SSTORE PUSH2 0x4AF JUMP JUMPDEST DUP3 PUSH1 0x1F LT PUSH2 0x481 JUMPI DUP1 MLOAD PUSH1 0xFF NOT AND DUP4 DUP1 ADD OR DUP6 SSTORE PUSH2 0x4AF JUMP JUMPDEST DUP3 DUP1 ADD PUSH1 0x1 ADD DUP6 SSTORE DUP3 ISZERO PUSH2 0x4AF JUMPI SWAP2 DUP3 ADD JUMPDEST DUP3 DUP2 GT ISZERO PUSH2 0x4AE JUMPI DUP3 MLOAD DUP3 SSTORE SWAP2 PUSH1 0x20 ADD SWAP2 SWAP1 PUSH1 0x1 ADD SWAP1 PUSH2 0x493 JUMP JUMPDEST JUMPDEST POP SWAP1 POP PUSH2 0x4BC SWAP2 SWAP1 PUSH2 0x4C0 JUMP JUMPDEST POP SWAP1 JUMP JUMPDEST JUMPDEST DUP1 DUP3 GT ISZERO PUSH2 0x4D9 JUMPI PUSH1 0x0 DUP2 PUSH1 0x0 SWAP1 SSTORE POP PUSH1 0x1 ADD PUSH2 0x4C1 JUMP JUMPDEST POP SWAP1 JUMP JUMPDEST PUSH1 0x0 PUSH2 0x4F0 PUSH2 0x4EB DUP5 PUSH2 0x6AC JUMP JUMPDEST PUSH2 0x687 JUMP JUMPDEST SWAP1 POP DUP3 DUP2 MSTORE PUSH1 0x20 DUP2 ADD DUP5 DUP5 DUP5 ADD GT ISZERO PUSH2 0x50C JUMPI PUSH2 0x50B PUSH2 0x817 JUMP JUMPDEST JUMPDEST PUSH2 0x517 DUP5 DUP3 DUP6 PUSH2 0x70F JUMP JUMPDEST POP SWAP4 SWAP3 POP POP POP JUMP JUMPDEST PUSH1 0x0 DUP3 PUSH1 0x1F DUP4 ADD SLT PUSH2 0x534 JUMPI PUSH2 0x533 PUSH2 0x812 JUMP JUMPDEST JUMPDEST DUP2 CALLDATALOAD PUSH2 0x544 DUP5 DUP3 PUSH1 0x20 DUP7 ADD PUSH2 0x4DD JUMP JUMPDEST SWAP2 POP POP SWAP3 SWAP2 POP POP JUMP JUMPDEST PUSH1 0x0 DUP2 CALLDATALOAD SWAP1 POP PUSH2 0x55C DUP2 PUSH2 0x837 JUMP JUMPDEST SWAP3 SWAP2 POP POP JUMP JUMPDEST PUSH1 0x0 PUSH1 0x20 DUP3 DUP5 SUB SLT ISZERO PUSH2 0x578 JUMPI PUSH2 0x577 PUSH2 0x821 JUMP JUMPDEST JUMPDEST PUSH1 0x0 DUP3 ADD CALLDATALOAD PUSH8 0xFFFFFFFFFFFFFFFF DUP2 GT ISZERO PUSH2 0x596 JUMPI PUSH2 0x595 PUSH2 0x81C JUMP JUMPDEST JUMPDEST PUSH2 0x5A2 DUP5 DUP3 DUP6 ADD PUSH2 0x51F JUMP JUMPDEST SWAP2 POP POP SWAP3 SWAP2 POP POP JUMP JUMPDEST PUSH1 0x0 PUSH1 0x20 DUP3 DUP5 SUB SLT ISZERO PUSH2 0x5C1 JUMPI PUSH2 0x5C0 PUSH2 0x821 JUMP JUMPDEST JUMPDEST PUSH1 0x0 PUSH2 0x5CF DUP5 DUP3 DUP6 ADD PUSH2 0x54D JUMP JUMPDEST SWAP2 POP POP SWAP3 SWAP2 POP POP JUMP JUMPDEST PUSH2 0x5E1 DUP2 PUSH2 0x6F9 JUMP JUMPDEST DUP3 MSTORE POP POP JUMP JUMPDEST PUSH1 0x0 PUSH2 0x5F2 DUP3 PUSH2 0x6DD JUMP JUMPDEST PUSH2 0x5FC DUP2 DUP6 PUSH2 0x6E8 JUMP JUMPDEST SWAP4 POP PUSH2 0x60C DUP2 DUP6 PUSH1 0x20 DUP7 ADD PUSH2 0x71E JUMP JUMPDEST PUSH2 0x615 DUP2 PUSH2 0x826 JUMP JUMPDEST DUP5 ADD SWAP2 POP POP SWAP3 SWAP2 POP POP JUMP JUMPDEST PUSH2 0x629 DUP2 PUSH2 0x705 JUMP JUMPDEST DUP3 MSTORE POP POP JUMP JUMPDEST PUSH1 0x0 PUSH1 0x20 DUP3 ADD SWAP1 POP PUSH2 0x644 PUSH1 0x0 DUP4 ADD DUP5 PUSH2 0x5D8 JUMP JUMPDEST SWAP3 SWAP2 POP POP JUMP JUMPDEST PUSH1 0x0 PUSH1 0x20 DUP3 ADD SWAP1 POP DUP2 DUP2 SUB PUSH1 0x0 DUP4 ADD MSTORE PUSH2 0x664 DUP2 DUP5 PUSH2 0x5E7 JUMP JUMPDEST SWAP1 POP SWAP3 SWAP2 POP POP JUMP JUMPDEST PUSH1 0x0 PUSH1 0x20 DUP3 ADD SWAP1 POP PUSH2 0x681 PUSH1 0x0 DUP4 ADD DUP5 PUSH2 0x620 JUMP JUMPDEST SWAP3 SWAP2 POP POP JUMP JUMPDEST PUSH1 0x0 PUSH2 0x691 PUSH2 0x6A2 JUMP JUMPDEST SWAP1 POP PUSH2 0x69D DUP3 DUP3 PUSH2 0x783 JUMP JUMPDEST SWAP2 SWAP1 POP JUMP JUMPDEST PUSH1 0x0 PUSH1 0x40 MLOAD SWAP1 POP SWAP1 JUMP JUMPDEST PUSH1 0x0 PUSH8 0xFFFFFFFFFFFFFFFF DUP3 GT ISZERO PUSH2 0x6C7 JUMPI PUSH2 0x6C6 PUSH2 0x7E3 JUMP JUMPDEST JUMPDEST PUSH2 0x6D0 DUP3 PUSH2 0x826 JUMP JUMPDEST SWAP1 POP PUSH1 0x20 DUP2 ADD SWAP1 POP SWAP2 SWAP1 POP JUMP JUMPDEST PUSH1 0x0 DUP2 MLOAD SWAP1 POP SWAP2 SWAP1 POP JUMP JUMPDEST PUSH1 0x0 DUP3 DUP3 MSTORE PUSH1 0x20 DUP3 ADD SWAP1 POP SWAP3 SWAP2 POP POP JUMP JUMPDEST PUSH1 0x0 DUP2 ISZERO ISZERO SWAP1 POP SWAP2 SWAP1 POP JUMP JUMPDEST PUSH1 0x0 DUP2 SWAP1 POP SWAP2 SWAP1 POP JUMP JUMPDEST DUP3 DUP2 DUP4 CALLDATACOPY PUSH1 0x0 DUP4 DUP4 ADD MSTORE POP POP POP JUMP JUMPDEST PUSH1 0x0 JUMPDEST DUP4 DUP2 LT ISZERO PUSH2 0x73C JUMPI DUP1 DUP3 ADD MLOAD DUP2 DUP5 ADD MSTORE PUSH1 0x20 DUP2 ADD SWAP1 POP PUSH2 0x721 JUMP JUMPDEST DUP4 DUP2 GT ISZERO PUSH2 0x74B JUMPI PUSH1 0x0 DUP5 DUP5 ADD MSTORE JUMPDEST POP POP POP POP JUMP JUMPDEST PUSH1 0x0 PUSH1 0x2 DUP3 DIV SWAP1 POP PUSH1 0x1 DUP3 AND DUP1 PUSH2 0x769 JUMPI PUSH1 0x7F DUP3 AND SWAP2 POP JUMPDEST PUSH1 0x20 DUP3 LT DUP2 EQ ISZERO PUSH2 0x77D JUMPI PUSH2 0x77C PUSH2 0x7B4 JUMP JUMPDEST JUMPDEST POP SWAP2 SWAP1 POP JUMP JUMPDEST PUSH2 0x78C DUP3 PUSH2 0x826 JUMP JUMPDEST DUP2 ADD DUP2 DUP2 LT PUSH8 0xFFFFFFFFFFFFFFFF DUP3 GT OR ISZERO PUSH2 0x7AB JUMPI PUSH2 0x7AA PUSH2 0x7E3 JUMP JUMPDEST JUMPDEST DUP1 PUSH1 0x40 MSTORE POP POP POP JUMP JUMPDEST PUSH32 0x4E487B7100000000000000000000000000000000000000000000000000000000 PUSH1 0x0 MSTORE PUSH1 0x22 PUSH1 0x4 MSTORE PUSH1 0x24 PUSH1 0x0 REVERT JUMPDEST PUSH32 0x4E487B7100000000000000000000000000000000000000000000000000000000 PUSH1 0x0 MSTORE PUSH1 0x41 PUSH1 0x4 MSTORE PUSH1 0x24 PUSH1 0x0 REVERT JUMPDEST PUSH1 0x0 DUP1 REVERT JUMPDEST PUSH1 0x0 DUP1 REVERT JUMPDEST PUSH1 0x0 DUP1 REVERT JUMPDEST PUSH1 0x0 DUP1 REVERT JUMPDEST PUSH1 0x0 PUSH1 0x1F NOT PUSH1 0x1F DUP4 ADD AND SWAP1 POP SWAP2 SWAP1 POP JUMP JUMPDEST PUSH2 0x840 DUP2 PUSH2 0x705 JUMP JUMPDEST DUP2 EQ PUSH2 0x84B JUMPI PUSH1 0x0 DUP1 REVERT JUMPDEST POP JUMP INVALID LOG2 PUSH5 0x6970667358 0x22 SLT KECCAK256 0x4C 0xE2 DUP1 DUP7 0x5F PUSH8 0x416B1488BA281617 DUP16 PUSH30 0xE18657FCAAE6EB56815D2A5FD4FF7E4C64736F6C63430008070033000000 "
				},
				"gasEstimates": {
					"creation": {
						"codeDepositCost": "436000",
						"executionCost": "infinite",
						"totalCost": "infinite"
					},
					"external": {
						"age()": "2474",
						"balance()": "2495",
						"carreer(uint256)": "infinite",
						"getWallet()": "167",
						"girl(uint256)": "infinite",
						"isMale()": "2493",
						"mileOfCar(string)": "infinite",
						"name()": "infinite",
						"tinder(string)": "infinite"
					}
				},
				"methodIdentifiers": {
					"age()": "262a9dff",
					"balance()": "b69ef8a8",
					"carreer(uint256)": "5cd836a3",
					"getWallet()": "13299604",
					"girl(uint256)": "449549d5",
					"isMale()": "654a573c",
					"mileOfCar(string)": "853320e3",
					"name()": "06fdde03",
					"tinder(string)": "cfb5843c"
				}
			},
			"storageLayout": {
				"storage": [
					{
						"astId": 4,
						"contract": "contracts/basic_solidity.sol:BasicSolidity",
						"label": "name",
						"offset": 0,
						"slot": "0",
						"type": "t_string_storage"
					},
					{
						"astId": 7,
						"contract": "contracts/basic_solidity.sol:BasicSolidity",
						"label": "age",
						"offset": 0,
						"slot": "1",
						"type": "t_uint256"
					},
					{
						"astId": 10,
						"contract": "contracts/basic_solidity.sol:BasicSolidity",
						"label": "isMale",
						"offset": 0,
						"slot": "2",
						"type": "t_bool"
					},
					{
						"astId": 12,
						"contract": "contracts/basic_solidity.sol:BasicSolidity",
						"label": "balance",
						"offset": 0,
						"slot": "3",
						"type": "t_uint256"
					},
					{
						"astId": 19,
						"contract": "contracts/basic_solidity.sol:BasicSolidity",
						"label": "carreer",
						"offset": 0,
						"slot": "4",
						"type": "t_array(t_string_storage)dyn_storage"
					},
					{
						"astId": 21,
						"contract": "contracts/basic_solidity.sol:BasicSolidity",
						"label": "wallet",
						"offset": 0,
						"slot": "5",
						"type": "t_address"
					},
					{
						"astId": 24,
						"contract": "contracts/basic_solidity.sol:BasicSolidity",
						"label": "girl",
						"offset": 0,
						"slot": "6",
						"type": "t_array(t_string_storage)dyn_storage"
					},
					{
						"astId": 28,
						"contract": "contracts/basic_solidity.sol:BasicSolidity",
						"label": "mileOfCar",
						"offset": 0,
						"slot": "7",
						"type": "t_mapping(t_string_memory_ptr,t_uint256)"
					}
				],
				"types": {
					"t_address": {
						"encoding": "inplace",
						"label": "address",
						"numberOfBytes": "20"
					},
					"t_array(t_string_storage)dyn_storage": {
						"base": "t_string_storage",
						"encoding": "dynamic_array",
						"label": "string[]",
						"numberOfBytes": "32"
					},
					"t_bool": {
						"encoding": "inplace",
						"label": "bool",
						"numberOfBytes": "1"
					},
					"t_mapping(t_string_memory_ptr,t_uint256)": {
						"encoding": "mapping",
						"key": "t_string_memory_ptr",
						"label": "mapping(string => uint256)",
						"numberOfBytes": "32",
						"value": "t_uint256"
					},
					"t_string_memory_ptr": {
						"encoding": "bytes",
						"label": "string",
						"numberOfBytes": "32"
					},
					"t_string_storage": {
						"encoding": "bytes",
						"label": "string",
						"numberOfBytes": "32"
					},
					"t_uint256": {
						"encoding": "inplace",
						"label": "uint256",
						"numberOfBytes": "32"
					}
				}
			},
			"userdoc": {
				"kind": "user",
				"methods": {},
				"version": 1
			}
		}
	}
}