{
	"contracts/basic_solidity.sol": {
		"BasicSolidity": {
			"abi": [
				{
					"inputs": [
						{
							"internalType": "uint256",
							"name": "_balance",
							"type": "uint256"
						},
						{
							"internalType": "address",
							"name": "_wallet",
							"type": "address"
						}
					],
					"stateMutability": "nonpayable",
					"type": "constructor"
				},
				{
					"inputs": [
						{
							"internalType": "string",
							"name": "_car",
							"type": "string"
						},
						{
							"internalType": "uint256",
							"name": "miles",
							"type": "uint256"
						},
						{
							"internalType": "uint256",
							"name": "speed",
							"type": "uint256"
						}
					],
					"name": "addCar",
					"outputs": [],
					"stateMutability": "nonpayable",
					"type": "function"
				},
				{
					"inputs": [],
					"name": "age",
					"outputs": [
						{
							"internalType": "uint256",
							"name": "",
							"type": "uint256"
						}
					],
					"stateMutability": "view",
					"type": "function"
				},
				{
					"inputs": [],
					"name": "balance",
					"outputs": [
						{
							"internalType": "uint256",
							"name": "",
							"type": "uint256"
						}
					],
					"stateMutability": "view",
					"type": "function"
				},
				{
					"inputs": [
						{
							"internalType": "string",
							"name": "",
							"type": "string"
						}
					],
					"name": "carSpeed",
					"outputs": [
						{
							"internalType": "uint256",
							"name": "",
							"type": "uint256"
						}
					],
					"stateMutability": "view",
					"type": "function"
				},
				{
					"inputs": [
						{
							"internalType": "uint256",
							"name": "",
							"type": "uint256"
						}
					],
					"name": "carreer",
					"outputs": [
						{
							"internalType": "string",
							"name": "",
							"type": "string"
						}
					],
					"stateMutability": "view",
					"type": "function"
				},
				{
					"inputs": [
						{
							"internalType": "string",
							"name": "_car1",
							"type": "string"
						},
						{
							"internalType": "string",
							"name": "_car2",
							"type": "string"
						}
					],
					"name": "fasterCar",
					"outputs": [
						{
							"internalType": "string",
							"name": "",
							"type": "string"
						}
					],
					"stateMutability": "view",
					"type": "function"
				},
				{
					"inputs": [
						{
							"internalType": "uint256",
							"name": "_i",
							"type": "uint256"
						}
					],
					"name": "getNumber",
					"outputs": [
						{
							"internalType": "uint256",
							"name": "",
							"type": "uint256"
						}
					],
					"stateMutability": "view",
					"type": "function"
				},
				{
					"inputs": [],
					"name": "getWallet",
					"outputs": [
						{
							"internalType": "address",
							"name": "",
							"type": "address"
						}
					],
					"stateMutability": "view",
					"type": "function"
				},
				{
					"inputs": [
						{
							"internalType": "uint256",
							"name": "",
							"type": "uint256"
						}
					],
					"name": "girl",
					"outputs": [
						{
							"internalType": "string",
							"name": "",
							"type": "string"
						}
					],
					"stateMutability": "view",
					"type": "function"
				},
				{
					"inputs": [
						{
							"internalType": "string",
							"name": "",
							"type": "string"
						}
					],
					"name": "isCar",
					"outputs": [
						{
							"internalType": "bool",
							"name": "",
							"type": "bool"
						}
					],
					"stateMutability": "view",
					"type": "function"
				},
				{
					"inputs": [],
					"name": "isMale",
					"outputs": [
						{
							"internalType": "bool",
							"name": "",
							"type": "bool"
						}
					],
					"stateMutability": "view",
					"type": "function"
				},
				{
					"inputs": [],
					"name": "isVIP",
					"outputs": [],
					"stateMutability": "nonpayable",
					"type": "function"
				},
				{
					"inputs": [
						{
							"internalType": "string",
							"name": "",
							"type": "string"
						}
					],
					"name": "mileOfCar",
					"outputs": [
						{
							"internalType": "uint256",
							"name": "",
							"type": "uint256"
						}
					],
					"stateMutability": "view",
					"type": "function"
				},
				{
					"inputs": [],
					"name": "name",
					"outputs": [
						{
							"internalType": "string",
							"name": "",
							"type": "string"
						}
					],
					"stateMutability": "view",
					"type": "function"
				},
				{
					"inputs": [],
					"name": "owner",
					"outputs": [
						{
							"internalType": "address",
							"name": "",
							"type": "address"
						}
					],
					"stateMutability": "view",
					"type": "function"
				},
				{
					"inputs": [],
					"name": "plusResult",
					"outputs": [
						{
							"internalType": "uint256",
							"name": "",
							"type": "uint256"
						}
					],
					"stateMutability": "view",
					"type": "function"
				},
				{
					"inputs": [
						{
							"internalType": "bool",
							"name": "_i",
							"type": "bool"
						}
					],
					"name": "showName",
					"outputs": [
						{
							"internalType": "string",
							"name": "",
							"type": "string"
						}
					],
					"stateMutability": "view",
					"type": "function"
				},
				{
					"inputs": [
						{
							"internalType": "string",
							"name": "_girl",
							"type": "string"
						}
					],
					"name": "tinder",
					"outputs": [],
					"stateMutability": "nonpayable",
					"type": "function"
				},
				{
					"inputs": [
						{
							"internalType": "uint256",
							"name": "_withdrow",
							"type": "uint256"
						},
						{
							"internalType": "address",
							"name": "_otheraddress",
							"type": "address"
						}
					],
					"name": "tranfer",
					"outputs": [
						{
							"internalType": "uint256",
							"name": "",
							"type": "uint256"
						}
					],
					"stateMutability": "nonpayable",
					"type": "function"
				},
				{
					"inputs": [
						{
							"internalType": "address",
							"name": "",
							"type": "address"
						}
					],
					"name": "txWithdrow",
					"outputs": [
						{
							"internalType": "uint256",
							"name": "",
							"type": "uint256"
						}
					],
					"stateMutability": "view",
					"type": "function"
				}
			],
			"devdoc": {
				"kind": "dev",
				"methods": {},
				"version": 1
			},
			"evm": {
				"assembly": "    /* \"contracts/basic_solidity.sol\":60:3020  contract BasicSolidity {\r... */\n  mstore(0x40, 0x80)\n    /* \"contracts/basic_solidity.sol\":132:133  0 */\n  0x00\n    /* \"contracts/basic_solidity.sol\":115:133  uint256 global = 0 */\n  dup1\n  sstore\n    /* \"contracts/basic_solidity.sol\":182:217  string public name  = \"Tony Strark\" */\n  mload(0x40)\n  dup1\n  0x40\n  add\n  0x40\n  mstore\n  dup1\n  0x0b\n  dup2\n  mstore\n  0x20\n  add\n  0x546f6e792053747261726b000000000000000000000000000000000000000000\n  dup2\n  mstore\n  pop\n  0x01\n  swap1\n  dup1\n  mload\n  swap1\n  0x20\n  add\n  swap1\n  tag_1\n  swap3\n  swap2\n  swap1\n  tag_2\n  jump\t// in\ntag_1:\n  pop\n    /* \"contracts/basic_solidity.sol\":250:252  48 */\n  0x30\n    /* \"contracts/basic_solidity.sol\":226:252  uint256 public age   =  48 */\n  0x02\n  sstore\n    /* \"contracts/basic_solidity.sol\":285:289  true */\n  0x01\n    /* \"contracts/basic_solidity.sol\":259:289  bool   public  isMale  =  true */\n  0x03\n  exp(0x0100, 0x00)\n  dup2\n  sload\n  dup2\n  0xff\n  mul\n  not\n  and\n  swap1\n  dup4\n  iszero\n  iszero\n  mul\n  or\n  swap1\n  sstore\n  pop\n    /* \"contracts/basic_solidity.sol\":327:384  string[]  public carreer  = [\"playboy\",\"engineer\",\"hero\"] */\n  mload(0x40)\n  dup1\n  0x60\n  add\n  0x40\n  mstore\n  dup1\n  mload(0x40)\n  dup1\n  0x40\n  add\n  0x40\n  mstore\n  dup1\n  0x07\n  dup2\n  mstore\n  0x20\n  add\n  0x706c6179626f7900000000000000000000000000000000000000000000000000\n  dup2\n  mstore\n  pop\n  dup2\n  mstore\n  0x20\n  add\n  mload(0x40)\n  dup1\n  0x40\n  add\n  0x40\n  mstore\n  dup1\n  0x08\n  dup2\n  mstore\n  0x20\n  add\n  0x656e67696e656572000000000000000000000000000000000000000000000000\n  dup2\n  mstore\n  pop\n  dup2\n  mstore\n  0x20\n  add\n  mload(0x40)\n  dup1\n  0x40\n  add\n  0x40\n  mstore\n  dup1\n  0x04\n  dup2\n  mstore\n  0x20\n  add\n  0x6865726f00000000000000000000000000000000000000000000000000000000\n  dup2\n  mstore\n  pop\n  dup2\n  mstore\n  pop\n  0x05\n  swap1\n  0x03\n  tag_3\n  swap3\n  swap2\n  swap1\n  tag_4\n  jump\t// in\ntag_3:\n  pop\n    /* \"contracts/basic_solidity.sol\":761:902  constructor( uint256 _balance, address _wallet){\r... */\n  callvalue\n  dup1\n  iszero\n  tag_5\n  jumpi\n  0x00\n  dup1\n  revert\ntag_5:\n  pop\n  mload(0x40)\n  sub(codesize, bytecodeSize)\n  dup1\n  bytecodeSize\n  dup4\n  codecopy\n  dup2\n  dup2\n  add\n  0x40\n  mstore\n  dup2\n  add\n  swap1\n  tag_6\n  swap2\n  swap1\n  tag_7\n  jump\t// in\ntag_6:\n    /* \"contracts/basic_solidity.sol\":827:837  msg.sender */\n  caller\n    /* \"contracts/basic_solidity.sol\":819:824  owner */\n  0x08\n  0x00\n    /* \"contracts/basic_solidity.sol\":819:837  owner = msg.sender */\n  0x0100\n  exp\n  dup2\n  sload\n  dup2\n  0xffffffffffffffffffffffffffffffffffffffff\n  mul\n  not\n  and\n  swap1\n  dup4\n  0xffffffffffffffffffffffffffffffffffffffff\n  and\n  mul\n  or\n  swap1\n  sstore\n  pop\n    /* \"contracts/basic_solidity.sol\":858:866  _balance */\n  dup2\n    /* \"contracts/basic_solidity.sol\":848:855  balance */\n  0x04\n    /* \"contracts/basic_solidity.sol\":848:866  balance = _balance */\n  dup2\n  swap1\n  sstore\n  pop\n    /* \"contracts/basic_solidity.sol\":887:894  _wallet */\n  dup1\n    /* \"contracts/basic_solidity.sol\":877:883  wallet */\n  0x06\n  0x00\n    /* \"contracts/basic_solidity.sol\":877:894  wallet  = _wallet */\n  0x0100\n  exp\n  dup2\n  sload\n  dup2\n  0xffffffffffffffffffffffffffffffffffffffff\n  mul\n  not\n  and\n  swap1\n  dup4\n  0xffffffffffffffffffffffffffffffffffffffff\n  and\n  mul\n  or\n  swap1\n  sstore\n  pop\n    /* \"contracts/basic_solidity.sol\":761:902  constructor( uint256 _balance, address _wallet){\r... */\n  pop\n  pop\n    /* \"contracts/basic_solidity.sol\":60:3020  contract BasicSolidity {\r... */\n  jump(tag_10)\ntag_2:\n  dup3\n  dup1\n  sload\n  tag_11\n  swap1\n  tag_12\n  jump\t// in\ntag_11:\n  swap1\n  0x00\n  mstore\n  keccak256(0x00, 0x20)\n  swap1\n  0x1f\n  add\n  0x20\n  swap1\n  div\n  dup2\n  add\n  swap3\n  dup3\n  tag_14\n  jumpi\n  0x00\n  dup6\n  sstore\n  jump(tag_13)\ntag_14:\n  dup3\n  0x1f\n  lt\n  tag_15\n  jumpi\n  dup1\n  mload\n  not(0xff)\n  and\n  dup4\n  dup1\n  add\n  or\n  dup6\n  sstore\n  jump(tag_13)\ntag_15:\n  dup3\n  dup1\n  add\n  0x01\n  add\n  dup6\n  sstore\n  dup3\n  iszero\n  tag_13\n  jumpi\n  swap2\n  dup3\n  add\ntag_16:\n  dup3\n  dup2\n  gt\n  iszero\n  tag_17\n  jumpi\n  dup3\n  mload\n  dup3\n  sstore\n  swap2\n  0x20\n  add\n  swap2\n  swap1\n  0x01\n  add\n  swap1\n  jump(tag_16)\ntag_17:\ntag_13:\n  pop\n  swap1\n  pop\n  tag_18\n  swap2\n  swap1\n  tag_19\n  jump\t// in\ntag_18:\n  pop\n  swap1\n  jump\t// out\ntag_4:\n  dup3\n  dup1\n  sload\n  dup3\n  dup3\n  sstore\n  swap1\n  0x00\n  mstore\n  keccak256(0x00, 0x20)\n  swap1\n  dup2\n  add\n  swap3\n  dup3\n  iszero\n  tag_20\n  jumpi\n  swap2\n  0x20\n  mul\n  dup3\n  add\ntag_21:\n  dup3\n  dup2\n  gt\n  iszero\n  tag_22\n  jumpi\n  dup3\n  mload\n  dup3\n  swap1\n  dup1\n  mload\n  swap1\n  0x20\n  add\n  swap1\n  tag_23\n  swap3\n  swap2\n  swap1\n  tag_2\n  jump\t// in\ntag_23:\n  pop\n  swap2\n  0x20\n  add\n  swap2\n  swap1\n  0x01\n  add\n  swap1\n  jump(tag_21)\ntag_22:\ntag_20:\n  pop\n  swap1\n  pop\n  tag_24\n  swap2\n  swap1\n  tag_25\n  jump\t// in\ntag_24:\n  pop\n  swap1\n  jump\t// out\ntag_19:\ntag_26:\n  dup1\n  dup3\n  gt\n  iszero\n  tag_27\n  jumpi\n  0x00\n  dup2\n  0x00\n  swap1\n  sstore\n  pop\n  0x01\n  add\n  jump(tag_26)\ntag_27:\n  pop\n  swap1\n  jump\t// out\ntag_25:\ntag_28:\n  dup1\n  dup3\n  gt\n  iszero\n  tag_29\n  jumpi\n  0x00\n  dup2\n  dup2\n  tag_30\n  swap2\n  swap1\n  tag_31\n  jump\t// in\ntag_30:\n  pop\n  0x01\n  add\n  jump(tag_28)\ntag_29:\n  pop\n  swap1\n  jump\t// out\ntag_31:\n  pop\n  dup1\n  sload\n  tag_32\n  swap1\n  tag_12\n  jump\t// in\ntag_32:\n  0x00\n  dup3\n  sstore\n  dup1\n  0x1f\n  lt\n  tag_34\n  jumpi\n  pop\n  jump(tag_33)\ntag_34:\n  0x1f\n  add\n  0x20\n  swap1\n  div\n  swap1\n  0x00\n  mstore\n  keccak256(0x00, 0x20)\n  swap1\n  dup2\n  add\n  swap1\n  tag_35\n  swap2\n  swap1\n  tag_19\n  jump\t// in\ntag_35:\ntag_33:\n  pop\n  jump\t// out\n    /* \"#utility.yul\":7:150   */\ntag_37:\n    /* \"#utility.yul\":64:69   */\n  0x00\n    /* \"#utility.yul\":95:101   */\n  dup2\n    /* \"#utility.yul\":89:102   */\n  mload\n    /* \"#utility.yul\":80:102   */\n  swap1\n  pop\n    /* \"#utility.yul\":111:144   */\n  tag_39\n    /* \"#utility.yul\":138:143   */\n  dup2\n    /* \"#utility.yul\":111:144   */\n  tag_40\n  jump\t// in\ntag_39:\n    /* \"#utility.yul\":7:150   */\n  swap3\n  swap2\n  pop\n  pop\n  jump\t// out\n    /* \"#utility.yul\":156:299   */\ntag_41:\n    /* \"#utility.yul\":213:218   */\n  0x00\n    /* \"#utility.yul\":244:250   */\n  dup2\n    /* \"#utility.yul\":238:251   */\n  mload\n    /* \"#utility.yul\":229:251   */\n  swap1\n  pop\n    /* \"#utility.yul\":260:293   */\n  tag_43\n    /* \"#utility.yul\":287:292   */\n  dup2\n    /* \"#utility.yul\":260:293   */\n  tag_44\n  jump\t// in\ntag_43:\n    /* \"#utility.yul\":156:299   */\n  swap3\n  swap2\n  pop\n  pop\n  jump\t// out\n    /* \"#utility.yul\":305:812   */\ntag_7:\n    /* \"#utility.yul\":384:390   */\n  0x00\n    /* \"#utility.yul\":392:398   */\n  dup1\n    /* \"#utility.yul\":441:443   */\n  0x40\n    /* \"#utility.yul\":429:438   */\n  dup4\n    /* \"#utility.yul\":420:427   */\n  dup6\n    /* \"#utility.yul\":416:439   */\n  sub\n    /* \"#utility.yul\":412:444   */\n  slt\n    /* \"#utility.yul\":409:528   */\n  iszero\n  tag_46\n  jumpi\n    /* \"#utility.yul\":447:526   */\n  tag_47\n  tag_48\n  jump\t// in\ntag_47:\n    /* \"#utility.yul\":409:528   */\ntag_46:\n    /* \"#utility.yul\":567:568   */\n  0x00\n    /* \"#utility.yul\":592:656   */\n  tag_49\n    /* \"#utility.yul\":648:655   */\n  dup6\n    /* \"#utility.yul\":639:645   */\n  dup3\n    /* \"#utility.yul\":628:637   */\n  dup7\n    /* \"#utility.yul\":624:646   */\n  add\n    /* \"#utility.yul\":592:656   */\n  tag_41\n  jump\t// in\ntag_49:\n    /* \"#utility.yul\":582:656   */\n  swap3\n  pop\n    /* \"#utility.yul\":538:666   */\n  pop\n    /* \"#utility.yul\":705:707   */\n  0x20\n    /* \"#utility.yul\":731:795   */\n  tag_50\n    /* \"#utility.yul\":787:794   */\n  dup6\n    /* \"#utility.yul\":778:784   */\n  dup3\n    /* \"#utility.yul\":767:776   */\n  dup7\n    /* \"#utility.yul\":763:785   */\n  add\n    /* \"#utility.yul\":731:795   */\n  tag_37\n  jump\t// in\ntag_50:\n    /* \"#utility.yul\":721:795   */\n  swap2\n  pop\n    /* \"#utility.yul\":676:805   */\n  pop\n    /* \"#utility.yul\":305:812   */\n  swap3\n  pop\n  swap3\n  swap1\n  pop\n  jump\t// out\n    /* \"#utility.yul\":899:995   */\ntag_53:\n    /* \"#utility.yul\":936:943   */\n  0x00\n    /* \"#utility.yul\":965:989   */\n  tag_55\n    /* \"#utility.yul\":983:988   */\n  dup3\n    /* \"#utility.yul\":965:989   */\n  tag_56\n  jump\t// in\ntag_55:\n    /* \"#utility.yul\":954:989   */\n  swap1\n  pop\n    /* \"#utility.yul\":899:995   */\n  swap2\n  swap1\n  pop\n  jump\t// out\n    /* \"#utility.yul\":1001:1127   */\ntag_56:\n    /* \"#utility.yul\":1038:1045   */\n  0x00\n    /* \"#utility.yul\":1078:1120   */\n  0xffffffffffffffffffffffffffffffffffffffff\n    /* \"#utility.yul\":1071:1076   */\n  dup3\n    /* \"#utility.yul\":1067:1121   */\n  and\n    /* \"#utility.yul\":1056:1121   */\n  swap1\n  pop\n    /* \"#utility.yul\":1001:1127   */\n  swap2\n  swap1\n  pop\n  jump\t// out\n    /* \"#utility.yul\":1133:1210   */\ntag_58:\n    /* \"#utility.yul\":1170:1177   */\n  0x00\n    /* \"#utility.yul\":1199:1204   */\n  dup2\n    /* \"#utility.yul\":1188:1204   */\n  swap1\n  pop\n    /* \"#utility.yul\":1133:1210   */\n  swap2\n  swap1\n  pop\n  jump\t// out\n    /* \"#utility.yul\":1216:1536   */\ntag_12:\n    /* \"#utility.yul\":1260:1266   */\n  0x00\n    /* \"#utility.yul\":1297:1298   */\n  0x02\n    /* \"#utility.yul\":1291:1295   */\n  dup3\n    /* \"#utility.yul\":1287:1299   */\n  div\n    /* \"#utility.yul\":1277:1299   */\n  swap1\n  pop\n    /* \"#utility.yul\":1344:1345   */\n  0x01\n    /* \"#utility.yul\":1338:1342   */\n  dup3\n    /* \"#utility.yul\":1334:1346   */\n  and\n    /* \"#utility.yul\":1365:1383   */\n  dup1\n    /* \"#utility.yul\":1355:1436   */\n  tag_61\n  jumpi\n    /* \"#utility.yul\":1421:1425   */\n  0x7f\n    /* \"#utility.yul\":1413:1419   */\n  dup3\n    /* \"#utility.yul\":1409:1426   */\n  and\n    /* \"#utility.yul\":1399:1426   */\n  swap2\n  pop\n    /* \"#utility.yul\":1355:1436   */\ntag_61:\n    /* \"#utility.yul\":1483:1485   */\n  0x20\n    /* \"#utility.yul\":1475:1481   */\n  dup3\n    /* \"#utility.yul\":1472:1486   */\n  lt\n    /* \"#utility.yul\":1452:1470   */\n  dup2\n    /* \"#utility.yul\":1449:1487   */\n  eq\n    /* \"#utility.yul\":1446:1530   */\n  iszero\n  tag_62\n  jumpi\n    /* \"#utility.yul\":1502:1520   */\n  tag_63\n  tag_64\n  jump\t// in\ntag_63:\n    /* \"#utility.yul\":1446:1530   */\ntag_62:\n    /* \"#utility.yul\":1267:1536   */\n  pop\n    /* \"#utility.yul\":1216:1536   */\n  swap2\n  swap1\n  pop\n  jump\t// out\n    /* \"#utility.yul\":1542:1722   */\ntag_64:\n    /* \"#utility.yul\":1590:1667   */\n  0x4e487b7100000000000000000000000000000000000000000000000000000000\n    /* \"#utility.yul\":1587:1588   */\n  0x00\n    /* \"#utility.yul\":1580:1668   */\n  mstore\n    /* \"#utility.yul\":1687:1691   */\n  0x22\n    /* \"#utility.yul\":1684:1685   */\n  0x04\n    /* \"#utility.yul\":1677:1692   */\n  mstore\n    /* \"#utility.yul\":1711:1715   */\n  0x24\n    /* \"#utility.yul\":1708:1709   */\n  0x00\n    /* \"#utility.yul\":1701:1716   */\n  revert\n    /* \"#utility.yul\":1851:1968   */\ntag_48:\n    /* \"#utility.yul\":1960:1961   */\n  0x00\n    /* \"#utility.yul\":1957:1958   */\n  dup1\n    /* \"#utility.yul\":1950:1962   */\n  revert\n    /* \"#utility.yul\":1974:2096   */\ntag_40:\n    /* \"#utility.yul\":2047:2071   */\n  tag_70\n    /* \"#utility.yul\":2065:2070   */\n  dup2\n    /* \"#utility.yul\":2047:2071   */\n  tag_53\n  jump\t// in\ntag_70:\n    /* \"#utility.yul\":2040:2045   */\n  dup2\n    /* \"#utility.yul\":2037:2072   */\n  eq\n    /* \"#utility.yul\":2027:2090   */\n  tag_71\n  jumpi\n    /* \"#utility.yul\":2086:2087   */\n  0x00\n    /* \"#utility.yul\":2083:2084   */\n  dup1\n    /* \"#utility.yul\":2076:2088   */\n  revert\n    /* \"#utility.yul\":2027:2090   */\ntag_71:\n    /* \"#utility.yul\":1974:2096   */\n  pop\n  jump\t// out\n    /* \"#utility.yul\":2102:2224   */\ntag_44:\n    /* \"#utility.yul\":2175:2199   */\n  tag_73\n    /* \"#utility.yul\":2193:2198   */\n  dup2\n    /* \"#utility.yul\":2175:2199   */\n  tag_58\n  jump\t// in\ntag_73:\n    /* \"#utility.yul\":2168:2173   */\n  dup2\n    /* \"#utility.yul\":2165:2200   */\n  eq\n    /* \"#utility.yul\":2155:2218   */\n  tag_74\n  jumpi\n    /* \"#utility.yul\":2214:2215   */\n  0x00\n    /* \"#utility.yul\":2211:2212   */\n  dup1\n    /* \"#utility.yul\":2204:2216   */\n  revert\n    /* \"#utility.yul\":2155:2218   */\ntag_74:\n    /* \"#utility.yul\":2102:2224   */\n  pop\n  jump\t// out\n    /* \"contracts/basic_solidity.sol\":60:3020  contract BasicSolidity {\r... */\ntag_10:\n  dataSize(sub_0)\n  dup1\n  dataOffset(sub_0)\n  0x00\n  codecopy\n  0x00\n  return\nstop\n\nsub_0: assembly {\n        /* \"contracts/basic_solidity.sol\":60:3020  contract BasicSolidity {\r... */\n      mstore(0x40, 0x80)\n      callvalue\n      dup1\n      iszero\n      tag_1\n      jumpi\n      0x00\n      dup1\n      revert\n    tag_1:\n      pop\n      jumpi(tag_2, lt(calldatasize, 0x04))\n      shr(0xe0, calldataload(0x00))\n      dup1\n      0x87e8599f\n      gt\n      tag_23\n      jumpi\n      dup1\n      0xc8351be0\n      gt\n      tag_24\n      jumpi\n      dup1\n      0xc8351be0\n      eq\n      tag_18\n      jumpi\n      dup1\n      0xcfb5843c\n      eq\n      tag_19\n      jumpi\n      dup1\n      0xf9052ce2\n      eq\n      tag_20\n      jumpi\n      dup1\n      0xfc563658\n      eq\n      tag_21\n      jumpi\n      dup1\n      0xfcc9e5c5\n      eq\n      tag_22\n      jumpi\n      jump(tag_2)\n    tag_24:\n      dup1\n      0x87e8599f\n      eq\n      tag_13\n      jumpi\n      dup1\n      0x8b8930d3\n      eq\n      tag_14\n      jumpi\n      dup1\n      0x8da5cb5b\n      eq\n      tag_15\n      jumpi\n      dup1\n      0xaed43682\n      eq\n      tag_16\n      jumpi\n      dup1\n      0xb69ef8a8\n      eq\n      tag_17\n      jumpi\n      jump(tag_2)\n    tag_23:\n      dup1\n      0x449549d5\n      gt\n      tag_25\n      jumpi\n      dup1\n      0x449549d5\n      eq\n      tag_8\n      jumpi\n      dup1\n      0x5cd836a3\n      eq\n      tag_9\n      jumpi\n      dup1\n      0x61a475c8\n      eq\n      tag_10\n      jumpi\n      dup1\n      0x654a573c\n      eq\n      tag_11\n      jumpi\n      dup1\n      0x853320e3\n      eq\n      tag_12\n      jumpi\n      jump(tag_2)\n    tag_25:\n      dup1\n      0x06fdde03\n      eq\n      tag_3\n      jumpi\n      dup1\n      0x13299604\n      eq\n      tag_4\n      jumpi\n      dup1\n      0x262a9dff\n      eq\n      tag_5\n      jumpi\n      dup1\n      0x2d47689c\n      eq\n      tag_6\n      jumpi\n      dup1\n      0x3171a39a\n      eq\n      tag_7\n      jumpi\n    tag_2:\n      0x00\n      dup1\n      revert\n        /* \"contracts/basic_solidity.sol\":182:217  string public name  = \"Tony Strark\" */\n    tag_3:\n      tag_26\n      tag_27\n      jump\t// in\n    tag_26:\n      mload(0x40)\n      tag_28\n      swap2\n      swap1\n      tag_29\n      jump\t// in\n    tag_28:\n      mload(0x40)\n      dup1\n      swap2\n      sub\n      swap1\n      return\n        /* \"contracts/basic_solidity.sol\":1014:1113  function getWallet() public view OnlyOwner returns(address){\r... */\n    tag_4:\n      tag_30\n      tag_31\n      jump\t// in\n    tag_30:\n      mload(0x40)\n      tag_32\n      swap2\n      swap1\n      tag_33\n      jump\t// in\n    tag_32:\n      mload(0x40)\n      dup1\n      swap2\n      sub\n      swap1\n      return\n        /* \"contracts/basic_solidity.sol\":226:252  uint256 public age   =  48 */\n    tag_5:\n      tag_34\n      tag_35\n      jump\t// in\n    tag_34:\n      mload(0x40)\n      tag_36\n      swap2\n      swap1\n      tag_37\n      jump\t// in\n    tag_36:\n      mload(0x40)\n      dup1\n      swap2\n      sub\n      swap1\n      return\n        /* \"contracts/basic_solidity.sol\":704:750  mapping(address => uint256 ) public txWithdrow */\n    tag_6:\n      tag_38\n      0x04\n      dup1\n      calldatasize\n      sub\n      dup2\n      add\n      swap1\n      tag_39\n      swap2\n      swap1\n      tag_40\n      jump\t// in\n    tag_39:\n      tag_41\n      jump\t// in\n    tag_38:\n      mload(0x40)\n      tag_42\n      swap2\n      swap1\n      tag_37\n      jump\t// in\n    tag_42:\n      mload(0x40)\n      dup1\n      swap2\n      sub\n      swap1\n      return\n        /* \"contracts/basic_solidity.sol\":2828:3011  function showName(bool _i) public view returns(string memory){\r... */\n    tag_7:\n      tag_43\n      0x04\n      dup1\n      calldatasize\n      sub\n      dup2\n      add\n      swap1\n      tag_44\n      swap2\n      swap1\n      tag_45\n      jump\t// in\n    tag_44:\n      tag_46\n      jump\t// in\n    tag_43:\n      mload(0x40)\n      tag_47\n      swap2\n      swap1\n      tag_29\n      jump\t// in\n    tag_47:\n      mload(0x40)\n      dup1\n      swap2\n      sub\n      swap1\n      return\n        /* \"contracts/basic_solidity.sol\":426:447  string[]  public girl */\n    tag_8:\n      tag_48\n      0x04\n      dup1\n      calldatasize\n      sub\n      dup2\n      add\n      swap1\n      tag_49\n      swap2\n      swap1\n      tag_50\n      jump\t// in\n    tag_49:\n      tag_51\n      jump\t// in\n    tag_48:\n      mload(0x40)\n      tag_52\n      swap2\n      swap1\n      tag_29\n      jump\t// in\n    tag_52:\n      mload(0x40)\n      dup1\n      swap2\n      sub\n      swap1\n      return\n        /* \"contracts/basic_solidity.sol\":327:384  string[]  public carreer  = [\"playboy\",\"engineer\",\"hero\"] */\n    tag_9:\n      tag_53\n      0x04\n      dup1\n      calldatasize\n      sub\n      dup2\n      add\n      swap1\n      tag_54\n      swap2\n      swap1\n      tag_50\n      jump\t// in\n    tag_54:\n      tag_55\n      jump\t// in\n    tag_53:\n      mload(0x40)\n      tag_56\n      swap2\n      swap1\n      tag_29\n      jump\t// in\n    tag_56:\n      mload(0x40)\n      dup1\n      swap2\n      sub\n      swap1\n      return\n        /* \"contracts/basic_solidity.sol\":2677:2820  function isVIP() public{\r... */\n    tag_10:\n      tag_57\n      tag_58\n      jump\t// in\n    tag_57:\n      stop\n        /* \"contracts/basic_solidity.sol\":259:289  bool   public  isMale  =  true */\n    tag_11:\n      tag_59\n      tag_60\n      jump\t// in\n    tag_59:\n      mload(0x40)\n      tag_61\n      swap2\n      swap1\n      tag_62\n      jump\t// in\n    tag_61:\n      mload(0x40)\n      dup1\n      swap2\n      sub\n      swap1\n      return\n        /* \"contracts/basic_solidity.sol\":485:528  mapping(string => uint256) public mileOfCar */\n    tag_12:\n      tag_63\n      0x04\n      dup1\n      calldatasize\n      sub\n      dup2\n      add\n      swap1\n      tag_64\n      swap2\n      swap1\n      tag_65\n      jump\t// in\n    tag_64:\n      tag_66\n      jump\t// in\n    tag_63:\n      mload(0x40)\n      tag_67\n      swap2\n      swap1\n      tag_37\n      jump\t// in\n    tag_67:\n      mload(0x40)\n      dup1\n      swap2\n      sub\n      swap1\n      return\n        /* \"contracts/basic_solidity.sol\":1548:1633  function plusResult() public view returns(uint256){\r... */\n    tag_13:\n      tag_68\n      tag_69\n      jump\t// in\n    tag_68:\n      mload(0x40)\n      tag_70\n      swap2\n      swap1\n      tag_37\n      jump\t// in\n    tag_70:\n      mload(0x40)\n      dup1\n      swap2\n      sub\n      swap1\n      return\n        /* \"contracts/basic_solidity.sol\":1641:2182  function tranfer(uint256 _withdrow ,address _otheraddress) public  returns(uint256) {\r... */\n    tag_14:\n      tag_71\n      0x04\n      dup1\n      calldatasize\n      sub\n      dup2\n      add\n      swap1\n      tag_72\n      swap2\n      swap1\n      tag_73\n      jump\t// in\n    tag_72:\n      tag_74\n      jump\t// in\n    tag_71:\n      mload(0x40)\n      tag_75\n      swap2\n      swap1\n      tag_37\n      jump\t// in\n    tag_75:\n      mload(0x40)\n      dup1\n      swap2\n      sub\n      swap1\n      return\n        /* \"contracts/basic_solidity.sol\":456:476  address public owner */\n    tag_15:\n      tag_76\n      tag_77\n      jump\t// in\n    tag_76:\n      mload(0x40)\n      tag_78\n      swap2\n      swap1\n      tag_33\n      jump\t// in\n    tag_78:\n      mload(0x40)\n      dup1\n      swap2\n      sub\n      swap1\n      return\n        /* \"contracts/basic_solidity.sol\":578:620  mapping(string => uint256) public carSpeed */\n    tag_16:\n      tag_79\n      0x04\n      dup1\n      calldatasize\n      sub\n      dup2\n      add\n      swap1\n      tag_80\n      swap2\n      swap1\n      tag_65\n      jump\t// in\n    tag_80:\n      tag_81\n      jump\t// in\n    tag_79:\n      mload(0x40)\n      tag_82\n      swap2\n      swap1\n      tag_37\n      jump\t// in\n    tag_82:\n      mload(0x40)\n      dup1\n      swap2\n      sub\n      swap1\n      return\n        /* \"contracts/basic_solidity.sol\":298:320  uint256 public balance */\n    tag_17:\n      tag_83\n      tag_84\n      jump\t// in\n    tag_83:\n      mload(0x40)\n      tag_85\n      swap2\n      swap1\n      tag_37\n      jump\t// in\n    tag_85:\n      mload(0x40)\n      dup1\n      swap2\n      sub\n      swap1\n      return\n        /* \"contracts/basic_solidity.sol\":1121:1367  function addCar(string memory _car , uint256 miles ,uint256 speed) public {\r... */\n    tag_18:\n      tag_86\n      0x04\n      dup1\n      calldatasize\n      sub\n      dup2\n      add\n      swap1\n      tag_87\n      swap2\n      swap1\n      tag_88\n      jump\t// in\n    tag_87:\n      tag_89\n      jump\t// in\n    tag_86:\n      stop\n        /* \"contracts/basic_solidity.sol\":910:989  function tinder(string memory _girl) public {\r... */\n    tag_19:\n      tag_90\n      0x04\n      dup1\n      calldatasize\n      sub\n      dup2\n      add\n      swap1\n      tag_91\n      swap2\n      swap1\n      tag_65\n      jump\t// in\n    tag_91:\n      tag_92\n      jump\t// in\n    tag_90:\n      stop\n        /* \"contracts/basic_solidity.sol\":2190:2663  function fasterCar(string memory _car1 , string memory _car2) public view returns(string memory){\r... */\n    tag_20:\n      tag_93\n      0x04\n      dup1\n      calldatasize\n      sub\n      dup2\n      add\n      swap1\n      tag_94\n      swap2\n      swap1\n      tag_95\n      jump\t// in\n    tag_94:\n      tag_96\n      jump\t// in\n    tag_93:\n      mload(0x40)\n      tag_97\n      swap2\n      swap1\n      tag_29\n      jump\t// in\n    tag_97:\n      mload(0x40)\n      dup1\n      swap2\n      sub\n      swap1\n      return\n        /* \"contracts/basic_solidity.sol\":1375:1540  function getNumber(uint256 _i) public view returns(uint256){\r... */\n    tag_21:\n      tag_98\n      0x04\n      dup1\n      calldatasize\n      sub\n      dup2\n      add\n      swap1\n      tag_99\n      swap2\n      swap1\n      tag_50\n      jump\t// in\n    tag_99:\n      tag_100\n      jump\t// in\n    tag_98:\n      mload(0x40)\n      tag_101\n      swap2\n      swap1\n      tag_37\n      jump\t// in\n    tag_101:\n      mload(0x40)\n      dup1\n      swap2\n      sub\n      swap1\n      return\n        /* \"contracts/basic_solidity.sol\":535:571  mapping(string => bool) public isCar */\n    tag_22:\n      tag_102\n      0x04\n      dup1\n      calldatasize\n      sub\n      dup2\n      add\n      swap1\n      tag_103\n      swap2\n      swap1\n      tag_65\n      jump\t// in\n    tag_103:\n      tag_104\n      jump\t// in\n    tag_102:\n      mload(0x40)\n      tag_105\n      swap2\n      swap1\n      tag_62\n      jump\t// in\n    tag_105:\n      mload(0x40)\n      dup1\n      swap2\n      sub\n      swap1\n      return\n        /* \"contracts/basic_solidity.sol\":182:217  string public name  = \"Tony Strark\" */\n    tag_27:\n      0x01\n      dup1\n      sload\n      tag_106\n      swap1\n      tag_107\n      jump\t// in\n    tag_106:\n      dup1\n      0x1f\n      add\n      0x20\n      dup1\n      swap2\n      div\n      mul\n      0x20\n      add\n      mload(0x40)\n      swap1\n      dup2\n      add\n      0x40\n      mstore\n      dup1\n      swap3\n      swap2\n      swap1\n      dup2\n      dup2\n      mstore\n      0x20\n      add\n      dup3\n      dup1\n      sload\n      tag_108\n      swap1\n      tag_107\n      jump\t// in\n    tag_108:\n      dup1\n      iszero\n      tag_109\n      jumpi\n      dup1\n      0x1f\n      lt\n      tag_110\n      jumpi\n      0x0100\n      dup1\n      dup4\n      sload\n      div\n      mul\n      dup4\n      mstore\n      swap2\n      0x20\n      add\n      swap2\n      jump(tag_109)\n    tag_110:\n      dup3\n      add\n      swap2\n      swap1\n      0x00\n      mstore\n      keccak256(0x00, 0x20)\n      swap1\n    tag_111:\n      dup2\n      sload\n      dup2\n      mstore\n      swap1\n      0x01\n      add\n      swap1\n      0x20\n      add\n      dup1\n      dup4\n      gt\n      tag_111\n      jumpi\n      dup3\n      swap1\n      sub\n      0x1f\n      and\n      dup3\n      add\n      swap2\n    tag_109:\n      pop\n      pop\n      pop\n      pop\n      pop\n      dup2\n      jump\t// out\n        /* \"contracts/basic_solidity.sol\":1014:1113  function getWallet() public view OnlyOwner returns(address){\r... */\n    tag_31:\n        /* \"contracts/basic_solidity.sol\":1065:1072  address */\n      0x00\n        /* \"contracts/basic_solidity.sol\":680:685  owner */\n      0x08\n      0x00\n      swap1\n      sload\n      swap1\n      0x0100\n      exp\n      swap1\n      div\n      0xffffffffffffffffffffffffffffffffffffffff\n      and\n        /* \"contracts/basic_solidity.sol\":666:685  msg.sender == owner */\n      0xffffffffffffffffffffffffffffffffffffffff\n      and\n        /* \"contracts/basic_solidity.sol\":666:676  msg.sender */\n      caller\n        /* \"contracts/basic_solidity.sol\":666:685  msg.sender == owner */\n      0xffffffffffffffffffffffffffffffffffffffff\n      and\n      eq\n        /* \"contracts/basic_solidity.sol\":658:686  require(msg.sender == owner) */\n      tag_113\n      jumpi\n      0x00\n      dup1\n      revert\n    tag_113:\n        /* \"contracts/basic_solidity.sol\":1099:1105  wallet */\n      0x06\n      0x00\n      swap1\n      sload\n      swap1\n      0x0100\n      exp\n      swap1\n      div\n      0xffffffffffffffffffffffffffffffffffffffff\n      and\n        /* \"contracts/basic_solidity.sol\":1092:1105  return wallet */\n      swap1\n      pop\n        /* \"contracts/basic_solidity.sol\":1014:1113  function getWallet() public view OnlyOwner returns(address){\r... */\n      swap1\n      jump\t// out\n        /* \"contracts/basic_solidity.sol\":226:252  uint256 public age   =  48 */\n    tag_35:\n      sload(0x02)\n      dup2\n      jump\t// out\n        /* \"contracts/basic_solidity.sol\":704:750  mapping(address => uint256 ) public txWithdrow */\n    tag_41:\n      mstore(0x20, 0x0c)\n      dup1\n      0x00\n      mstore\n      keccak256(0x00, 0x40)\n      0x00\n      swap2\n      pop\n      swap1\n      pop\n      sload\n      dup2\n      jump\t// out\n        /* \"contracts/basic_solidity.sol\":2828:3011  function showName(bool _i) public view returns(string memory){\r... */\n    tag_46:\n        /* \"contracts/basic_solidity.sol\":2875:2888  string memory */\n      0x60\n        /* \"contracts/basic_solidity.sol\":2909:2913  true */\n      0x01\n        /* \"contracts/basic_solidity.sol\":2903:2913  _i == true */\n      iszero\n      iszero\n        /* \"contracts/basic_solidity.sol\":2903:2905  _i */\n      dup3\n        /* \"contracts/basic_solidity.sol\":2903:2913  _i == true */\n      iszero\n      iszero\n      eq\n        /* \"contracts/basic_solidity.sol\":2900:3004  if(_i == true){\r... */\n      iszero\n      tag_116\n      jumpi\n        /* \"contracts/basic_solidity.sol\":2929:2945  return \"welcome\" */\n      mload(0x40)\n      dup1\n      0x40\n      add\n      0x40\n      mstore\n      dup1\n      0x07\n      dup2\n      mstore\n      0x20\n      add\n      0x77656c636f6d6500000000000000000000000000000000000000000000000000\n      dup2\n      mstore\n      pop\n      swap1\n      pop\n      jump(tag_115)\n        /* \"contracts/basic_solidity.sol\":2900:3004  if(_i == true){\r... */\n    tag_116:\n        /* \"contracts/basic_solidity.sol\":2976:2992  return \"Get out\" */\n      mload(0x40)\n      dup1\n      0x40\n      add\n      0x40\n      mstore\n      dup1\n      0x07\n      dup2\n      mstore\n      0x20\n      add\n      0x476574206f757400000000000000000000000000000000000000000000000000\n      dup2\n      mstore\n      pop\n      swap1\n      pop\n        /* \"contracts/basic_solidity.sol\":2828:3011  function showName(bool _i) public view returns(string memory){\r... */\n    tag_115:\n      swap2\n      swap1\n      pop\n      jump\t// out\n        /* \"contracts/basic_solidity.sol\":426:447  string[]  public girl */\n    tag_51:\n      0x07\n      dup2\n      dup2\n      sload\n      dup2\n      lt\n      tag_118\n      jumpi\n      0x00\n      dup1\n      revert\n    tag_118:\n      swap1\n      0x00\n      mstore\n      keccak256(0x00, 0x20)\n      add\n      0x00\n      swap2\n      pop\n      swap1\n      pop\n      dup1\n      sload\n      tag_120\n      swap1\n      tag_107\n      jump\t// in\n    tag_120:\n      dup1\n      0x1f\n      add\n      0x20\n      dup1\n      swap2\n      div\n      mul\n      0x20\n      add\n      mload(0x40)\n      swap1\n      dup2\n      add\n      0x40\n      mstore\n      dup1\n      swap3\n      swap2\n      swap1\n      dup2\n      dup2\n      mstore\n      0x20\n      add\n      dup3\n      dup1\n      sload\n      tag_121\n      swap1\n      tag_107\n      jump\t// in\n    tag_121:\n      dup1\n      iszero\n      tag_122\n      jumpi\n      dup1\n      0x1f\n      lt\n      tag_123\n      jumpi\n      0x0100\n      dup1\n      dup4\n      sload\n      div\n      mul\n      dup4\n      mstore\n      swap2\n      0x20\n      add\n      swap2\n      jump(tag_122)\n    tag_123:\n      dup3\n      add\n      swap2\n      swap1\n      0x00\n      mstore\n      keccak256(0x00, 0x20)\n      swap1\n    tag_124:\n      dup2\n      sload\n      dup2\n      mstore\n      swap1\n      0x01\n      add\n      swap1\n      0x20\n      add\n      dup1\n      dup4\n      gt\n      tag_124\n      jumpi\n      dup3\n      swap1\n      sub\n      0x1f\n      and\n      dup3\n      add\n      swap2\n    tag_122:\n      pop\n      pop\n      pop\n      pop\n      pop\n      dup2\n      jump\t// out\n        /* \"contracts/basic_solidity.sol\":327:384  string[]  public carreer  = [\"playboy\",\"engineer\",\"hero\"] */\n    tag_55:\n      0x05\n      dup2\n      dup2\n      sload\n      dup2\n      lt\n      tag_125\n      jumpi\n      0x00\n      dup1\n      revert\n    tag_125:\n      swap1\n      0x00\n      mstore\n      keccak256(0x00, 0x20)\n      add\n      0x00\n      swap2\n      pop\n      swap1\n      pop\n      dup1\n      sload\n      tag_127\n      swap1\n      tag_107\n      jump\t// in\n    tag_127:\n      dup1\n      0x1f\n      add\n      0x20\n      dup1\n      swap2\n      div\n      mul\n      0x20\n      add\n      mload(0x40)\n      swap1\n      dup2\n      add\n      0x40\n      mstore\n      dup1\n      swap3\n      swap2\n      swap1\n      dup2\n      dup2\n      mstore\n      0x20\n      add\n      dup3\n      dup1\n      sload\n      tag_128\n      swap1\n      tag_107\n      jump\t// in\n    tag_128:\n      dup1\n      iszero\n      tag_129\n      jumpi\n      dup1\n      0x1f\n      lt\n      tag_130\n      jumpi\n      0x0100\n      dup1\n      dup4\n      sload\n      div\n      mul\n      dup4\n      mstore\n      swap2\n      0x20\n      add\n      swap2\n      jump(tag_129)\n    tag_130:\n      dup3\n      add\n      swap2\n      swap1\n      0x00\n      mstore\n      keccak256(0x00, 0x20)\n      swap1\n    tag_131:\n      dup2\n      sload\n      dup2\n      mstore\n      swap1\n      0x01\n      add\n      swap1\n      0x20\n      add\n      dup1\n      dup4\n      gt\n      tag_131\n      jumpi\n      dup3\n      swap1\n      sub\n      0x1f\n      and\n      dup3\n      add\n      swap2\n    tag_129:\n      pop\n      pop\n      pop\n      pop\n      pop\n      dup2\n      jump\t// out\n        /* \"contracts/basic_solidity.sol\":2677:2820  function isVIP() public{\r... */\n    tag_58:\n      jump\t// out\n        /* \"contracts/basic_solidity.sol\":259:289  bool   public  isMale  =  true */\n    tag_60:\n      0x03\n      0x00\n      swap1\n      sload\n      swap1\n      0x0100\n      exp\n      swap1\n      div\n      0xff\n      and\n      dup2\n      jump\t// out\n        /* \"contracts/basic_solidity.sol\":485:528  mapping(string => uint256) public mileOfCar */\n    tag_66:\n      0x09\n      dup2\n      dup1\n      mload\n      0x20\n      dup2\n      add\n      dup3\n      add\n      dup1\n      mload\n      dup5\n      dup3\n      mstore\n      0x20\n      dup4\n      add\n      0x20\n      dup6\n      add\n      keccak256\n      dup2\n      dup4\n      mstore\n      dup1\n      swap6\n      pop\n      pop\n      pop\n      pop\n      pop\n      pop\n      0x00\n      swap2\n      pop\n      swap1\n      pop\n      sload\n      dup2\n      jump\t// out\n        /* \"contracts/basic_solidity.sol\":1548:1633  function plusResult() public view returns(uint256){\r... */\n    tag_69:\n        /* \"contracts/basic_solidity.sol\":1590:1597  uint256 */\n      0x00\n        /* \"contracts/basic_solidity.sol\":1624:1625  1 */\n      0x01\n        /* \"contracts/basic_solidity.sol\":1616:1622  global */\n      sload(0x00)\n        /* \"contracts/basic_solidity.sol\":1616:1625  global +1 */\n      tag_134\n      swap2\n      swap1\n      tag_135\n      jump\t// in\n    tag_134:\n        /* \"contracts/basic_solidity.sol\":1609:1625  return global +1 */\n      swap1\n      pop\n        /* \"contracts/basic_solidity.sol\":1548:1633  function plusResult() public view returns(uint256){\r... */\n      swap1\n      jump\t// out\n        /* \"contracts/basic_solidity.sol\":1641:2182  function tranfer(uint256 _withdrow ,address _otheraddress) public  returns(uint256) {\r... */\n    tag_74:\n        /* \"contracts/basic_solidity.sol\":1716:1723  uint256 */\n      0x00\n        /* \"contracts/basic_solidity.sol\":2021:2030  _withdrow */\n      dup3\n        /* \"contracts/basic_solidity.sol\":2011:2018  balance */\n      sload(0x04)\n        /* \"contracts/basic_solidity.sol\":2011:2030  balance > _withdrow */\n      gt\n        /* \"contracts/basic_solidity.sol\":2002:2053  require (balance > _withdrow , \"not enough monney\") */\n      tag_137\n      jumpi\n      mload(0x40)\n      0x08c379a000000000000000000000000000000000000000000000000000000000\n      dup2\n      mstore\n      0x04\n      add\n      tag_138\n      swap1\n      tag_139\n      jump\t// in\n    tag_138:\n      mload(0x40)\n      dup1\n      swap2\n      sub\n      swap1\n      revert\n    tag_137:\n        /* \"contracts/basic_solidity.sol\":2077:2086  _withdrow */\n      dup3\n        /* \"contracts/basic_solidity.sol\":2064:2071  balance */\n      0x04\n      0x00\n        /* \"contracts/basic_solidity.sol\":2064:2086  balance  -=  _withdrow */\n      dup3\n      dup3\n      sload\n      tag_140\n      swap2\n      swap1\n      tag_141\n      jump\t// in\n    tag_140:\n      swap3\n      pop\n      pop\n      dup2\n      swap1\n      sstore\n      pop\n        /* \"contracts/basic_solidity.sol\":2126:2135  _withdrow */\n      dup3\n        /* \"contracts/basic_solidity.sol\":2097:2107  txWithdrow */\n      0x0c\n        /* \"contracts/basic_solidity.sol\":2097:2122  txWithdrow[_otheraddress] */\n      0x00\n        /* \"contracts/basic_solidity.sol\":2108:2121  _otheraddress */\n      dup5\n        /* \"contracts/basic_solidity.sol\":2097:2122  txWithdrow[_otheraddress] */\n      0xffffffffffffffffffffffffffffffffffffffff\n      and\n      0xffffffffffffffffffffffffffffffffffffffff\n      and\n      dup2\n      mstore\n      0x20\n      add\n      swap1\n      dup2\n      mstore\n      0x20\n      add\n      0x00\n      keccak256\n        /* \"contracts/basic_solidity.sol\":2097:2135  txWithdrow[_otheraddress]  = _withdrow */\n      dup2\n      swap1\n      sstore\n      pop\n        /* \"contracts/basic_solidity.sol\":2165:2172  balance */\n      sload(0x04)\n        /* \"contracts/basic_solidity.sol\":2158:2172  return balance */\n      swap1\n      pop\n        /* \"contracts/basic_solidity.sol\":1641:2182  function tranfer(uint256 _withdrow ,address _otheraddress) public  returns(uint256) {\r... */\n      swap3\n      swap2\n      pop\n      pop\n      jump\t// out\n        /* \"contracts/basic_solidity.sol\":456:476  address public owner */\n    tag_77:\n      0x08\n      0x00\n      swap1\n      sload\n      swap1\n      0x0100\n      exp\n      swap1\n      div\n      0xffffffffffffffffffffffffffffffffffffffff\n      and\n      dup2\n      jump\t// out\n        /* \"contracts/basic_solidity.sol\":578:620  mapping(string => uint256) public carSpeed */\n    tag_81:\n      0x0b\n      dup2\n      dup1\n      mload\n      0x20\n      dup2\n      add\n      dup3\n      add\n      dup1\n      mload\n      dup5\n      dup3\n      mstore\n      0x20\n      dup4\n      add\n      0x20\n      dup6\n      add\n      keccak256\n      dup2\n      dup4\n      mstore\n      dup1\n      swap6\n      pop\n      pop\n      pop\n      pop\n      pop\n      pop\n      0x00\n      swap2\n      pop\n      swap1\n      pop\n      sload\n      dup2\n      jump\t// out\n        /* \"contracts/basic_solidity.sol\":298:320  uint256 public balance */\n    tag_84:\n      sload(0x04)\n      dup2\n      jump\t// out\n        /* \"contracts/basic_solidity.sol\":1121:1367  function addCar(string memory _car , uint256 miles ,uint256 speed) public {\r... */\n    tag_89:\n        /* \"contracts/basic_solidity.sol\":1229:1234  false */\n      0x00\n        /* \"contracts/basic_solidity.sol\":1214:1234  isCar[_car] == false */\n      iszero\n      iszero\n        /* \"contracts/basic_solidity.sol\":1214:1219  isCar */\n      0x0a\n        /* \"contracts/basic_solidity.sol\":1220:1224  _car */\n      dup5\n        /* \"contracts/basic_solidity.sol\":1214:1225  isCar[_car] */\n      mload(0x40)\n      tag_143\n      swap2\n      swap1\n      tag_144\n      jump\t// in\n    tag_143:\n      swap1\n      dup2\n      mstore\n      0x20\n      add\n      mload(0x40)\n      dup1\n      swap2\n      sub\n      swap1\n      keccak256\n      0x00\n      swap1\n      sload\n      swap1\n      0x0100\n      exp\n      swap1\n      div\n      0xff\n      and\n        /* \"contracts/basic_solidity.sol\":1214:1234  isCar[_car] == false */\n      iszero\n      iszero\n      eq\n        /* \"contracts/basic_solidity.sol\":1206:1263  require(isCar[_car] == false,\"Tony already has this car\") */\n      tag_145\n      jumpi\n      mload(0x40)\n      0x08c379a000000000000000000000000000000000000000000000000000000000\n      dup2\n      mstore\n      0x04\n      add\n      tag_146\n      swap1\n      tag_147\n      jump\t// in\n    tag_146:\n      mload(0x40)\n      dup1\n      swap2\n      sub\n      swap1\n      revert\n    tag_145:\n        /* \"contracts/basic_solidity.sol\":1292:1297  miles */\n      dup2\n        /* \"contracts/basic_solidity.sol\":1274:1283  mileOfCar */\n      0x09\n        /* \"contracts/basic_solidity.sol\":1284:1288  _car */\n      dup5\n        /* \"contracts/basic_solidity.sol\":1274:1289  mileOfCar[_car] */\n      mload(0x40)\n      tag_148\n      swap2\n      swap1\n      tag_144\n      jump\t// in\n    tag_148:\n      swap1\n      dup2\n      mstore\n      0x20\n      add\n      mload(0x40)\n      dup1\n      swap2\n      sub\n      swap1\n      keccak256\n        /* \"contracts/basic_solidity.sol\":1274:1297  mileOfCar[_car] = miles */\n      dup2\n      swap1\n      sstore\n      pop\n        /* \"contracts/basic_solidity.sol\":1325:1330  speed */\n      dup1\n        /* \"contracts/basic_solidity.sol\":1308:1316  carSpeed */\n      0x0b\n        /* \"contracts/basic_solidity.sol\":1317:1321  _car */\n      dup5\n        /* \"contracts/basic_solidity.sol\":1308:1322  carSpeed[_car] */\n      mload(0x40)\n      tag_149\n      swap2\n      swap1\n      tag_144\n      jump\t// in\n    tag_149:\n      swap1\n      dup2\n      mstore\n      0x20\n      add\n      mload(0x40)\n      dup1\n      swap2\n      sub\n      swap1\n      keccak256\n        /* \"contracts/basic_solidity.sol\":1308:1330  carSpeed[_car]  =speed */\n      dup2\n      swap1\n      sstore\n      pop\n        /* \"contracts/basic_solidity.sol\":1355:1359  true */\n      0x01\n        /* \"contracts/basic_solidity.sol\":1341:1346  isCar */\n      0x0a\n        /* \"contracts/basic_solidity.sol\":1347:1351  _car */\n      dup5\n        /* \"contracts/basic_solidity.sol\":1341:1352  isCar[_car] */\n      mload(0x40)\n      tag_150\n      swap2\n      swap1\n      tag_144\n      jump\t// in\n    tag_150:\n      swap1\n      dup2\n      mstore\n      0x20\n      add\n      mload(0x40)\n      dup1\n      swap2\n      sub\n      swap1\n      keccak256\n      0x00\n        /* \"contracts/basic_solidity.sol\":1341:1359  isCar[_car] = true */\n      0x0100\n      exp\n      dup2\n      sload\n      dup2\n      0xff\n      mul\n      not\n      and\n      swap1\n      dup4\n      iszero\n      iszero\n      mul\n      or\n      swap1\n      sstore\n      pop\n        /* \"contracts/basic_solidity.sol\":1121:1367  function addCar(string memory _car , uint256 miles ,uint256 speed) public {\r... */\n      pop\n      pop\n      pop\n      jump\t// out\n        /* \"contracts/basic_solidity.sol\":910:989  function tinder(string memory _girl) public {\r... */\n    tag_92:\n        /* \"contracts/basic_solidity.sol\":965:969  girl */\n      0x07\n        /* \"contracts/basic_solidity.sol\":975:980  _girl */\n      dup2\n        /* \"contracts/basic_solidity.sol\":965:981  girl.push(_girl) */\n      swap1\n      dup1\n      0x01\n      dup2\n      sload\n      add\n      dup1\n      dup3\n      sstore\n      dup1\n      swap2\n      pop\n      pop\n      0x01\n      swap1\n      sub\n      swap1\n      0x00\n      mstore\n      keccak256(0x00, 0x20)\n      add\n      0x00\n      swap1\n      swap2\n      swap1\n      swap2\n      swap1\n      swap2\n      pop\n      swap1\n      dup1\n      mload\n      swap1\n      0x20\n      add\n      swap1\n      tag_153\n      swap3\n      swap2\n      swap1\n      tag_154\n      jump\t// in\n    tag_153:\n      pop\n        /* \"contracts/basic_solidity.sol\":910:989  function tinder(string memory _girl) public {\r... */\n      pop\n      jump\t// out\n        /* \"contracts/basic_solidity.sol\":2190:2663  function fasterCar(string memory _car1 , string memory _car2) public view returns(string memory){\r... */\n    tag_96:\n        /* \"contracts/basic_solidity.sol\":2272:2285  string memory */\n      0x60\n        /* \"contracts/basic_solidity.sol\":2472:2480  carSpeed */\n      0x0b\n        /* \"contracts/basic_solidity.sol\":2481:2486  _car2 */\n      dup3\n        /* \"contracts/basic_solidity.sol\":2472:2487  carSpeed[_car2] */\n      mload(0x40)\n      tag_156\n      swap2\n      swap1\n      tag_144\n      jump\t// in\n    tag_156:\n      swap1\n      dup2\n      mstore\n      0x20\n      add\n      mload(0x40)\n      dup1\n      swap2\n      sub\n      swap1\n      keccak256\n      sload\n        /* \"contracts/basic_solidity.sol\":2454:2462  carSpeed */\n      0x0b\n        /* \"contracts/basic_solidity.sol\":2463:2468  _car1 */\n      dup5\n        /* \"contracts/basic_solidity.sol\":2454:2469  carSpeed[_car1] */\n      mload(0x40)\n      tag_157\n      swap2\n      swap1\n      tag_144\n      jump\t// in\n    tag_157:\n      swap1\n      dup2\n      mstore\n      0x20\n      add\n      mload(0x40)\n      dup1\n      swap2\n      sub\n      swap1\n      keccak256\n      sload\n        /* \"contracts/basic_solidity.sol\":2454:2487  carSpeed[_car1] < carSpeed[_car2] */\n      lt\n        /* \"contracts/basic_solidity.sol\":2451:2652  if(carSpeed[_car1] < carSpeed[_car2]){\r... */\n      iszero\n      tag_158\n      jumpi\n        /* \"contracts/basic_solidity.sol\":2510:2515  _car2 */\n      dup2\n        /* \"contracts/basic_solidity.sol\":2503:2515  return _car2 */\n      swap1\n      pop\n      jump(tag_155)\n        /* \"contracts/basic_solidity.sol\":2451:2652  if(carSpeed[_car1] < carSpeed[_car2]){\r... */\n    tag_158:\n        /* \"contracts/basic_solidity.sol\":2554:2562  carSpeed */\n      0x0b\n        /* \"contracts/basic_solidity.sol\":2563:2568  _car2 */\n      dup3\n        /* \"contracts/basic_solidity.sol\":2554:2569  carSpeed[_car2] */\n      mload(0x40)\n      tag_160\n      swap2\n      swap1\n      tag_144\n      jump\t// in\n    tag_160:\n      swap1\n      dup2\n      mstore\n      0x20\n      add\n      mload(0x40)\n      dup1\n      swap2\n      sub\n      swap1\n      keccak256\n      sload\n        /* \"contracts/basic_solidity.sol\":2536:2544  carSpeed */\n      0x0b\n        /* \"contracts/basic_solidity.sol\":2545:2550  _car1 */\n      dup5\n        /* \"contracts/basic_solidity.sol\":2536:2551  carSpeed[_car1] */\n      mload(0x40)\n      tag_161\n      swap2\n      swap1\n      tag_144\n      jump\t// in\n    tag_161:\n      swap1\n      dup2\n      mstore\n      0x20\n      add\n      mload(0x40)\n      dup1\n      swap2\n      sub\n      swap1\n      keccak256\n      sload\n        /* \"contracts/basic_solidity.sol\":2536:2569  carSpeed[_car1] > carSpeed[_car2] */\n      gt\n        /* \"contracts/basic_solidity.sol\":2532:2652  if (carSpeed[_car1] > carSpeed[_car2]){\r... */\n      iszero\n      tag_162\n      jumpi\n        /* \"contracts/basic_solidity.sol\":2592:2597  _car1 */\n      dup3\n        /* \"contracts/basic_solidity.sol\":2585:2597  return _car1 */\n      swap1\n      pop\n      jump(tag_155)\n        /* \"contracts/basic_solidity.sol\":2532:2652  if (carSpeed[_car1] > carSpeed[_car2]){\r... */\n    tag_162:\n        /* \"contracts/basic_solidity.sol\":2628:2639  return \"no\" */\n      mload(0x40)\n      dup1\n      0x40\n      add\n      0x40\n      mstore\n      dup1\n      0x02\n      dup2\n      mstore\n      0x20\n      add\n      0x6e6f000000000000000000000000000000000000000000000000000000000000\n      dup2\n      mstore\n      pop\n      swap1\n      pop\n        /* \"contracts/basic_solidity.sol\":2190:2663  function fasterCar(string memory _car1 , string memory _car2) public view returns(string memory){\r... */\n    tag_155:\n      swap3\n      swap2\n      pop\n      pop\n      jump\t// out\n        /* \"contracts/basic_solidity.sol\":1375:1540  function getNumber(uint256 _i) public view returns(uint256){\r... */\n    tag_100:\n        /* \"contracts/basic_solidity.sol\":1426:1433  uint256 */\n      0x00\n        /* \"contracts/basic_solidity.sol\":1445:1458  uint256 local */\n      dup1\n        /* \"contracts/basic_solidity.sol\":1462:1464  _i */\n      dup3\n        /* \"contracts/basic_solidity.sol\":1445:1464  uint256 local  = _i */\n      swap1\n      pop\n        /* \"contracts/basic_solidity.sol\":1475:1489  uint256 result */\n      0x00\n        /* \"contracts/basic_solidity.sol\":1501:1506  local */\n      dup2\n        /* \"contracts/basic_solidity.sol\":1492:1498  global */\n      sload(0x00)\n        /* \"contracts/basic_solidity.sol\":1492:1506  global + local */\n      tag_165\n      swap2\n      swap1\n      tag_135\n      jump\t// in\n    tag_165:\n        /* \"contracts/basic_solidity.sol\":1475:1506  uint256 result = global + local */\n      swap1\n      pop\n        /* \"contracts/basic_solidity.sol\":1524:1530  result */\n      dup1\n        /* \"contracts/basic_solidity.sol\":1517:1530  return result */\n      swap3\n      pop\n      pop\n      pop\n        /* \"contracts/basic_solidity.sol\":1375:1540  function getNumber(uint256 _i) public view returns(uint256){\r... */\n      swap2\n      swap1\n      pop\n      jump\t// out\n        /* \"contracts/basic_solidity.sol\":535:571  mapping(string => bool) public isCar */\n    tag_104:\n      0x0a\n      dup2\n      dup1\n      mload\n      0x20\n      dup2\n      add\n      dup3\n      add\n      dup1\n      mload\n      dup5\n      dup3\n      mstore\n      0x20\n      dup4\n      add\n      0x20\n      dup6\n      add\n      keccak256\n      dup2\n      dup4\n      mstore\n      dup1\n      swap6\n      pop\n      pop\n      pop\n      pop\n      pop\n      pop\n      0x00\n      swap2\n      pop\n      sload\n      swap1\n      0x0100\n      exp\n      swap1\n      div\n      0xff\n      and\n      dup2\n      jump\t// out\n    tag_154:\n      dup3\n      dup1\n      sload\n      tag_166\n      swap1\n      tag_107\n      jump\t// in\n    tag_166:\n      swap1\n      0x00\n      mstore\n      keccak256(0x00, 0x20)\n      swap1\n      0x1f\n      add\n      0x20\n      swap1\n      div\n      dup2\n      add\n      swap3\n      dup3\n      tag_168\n      jumpi\n      0x00\n      dup6\n      sstore\n      jump(tag_167)\n    tag_168:\n      dup3\n      0x1f\n      lt\n      tag_169\n      jumpi\n      dup1\n      mload\n      not(0xff)\n      and\n      dup4\n      dup1\n      add\n      or\n      dup6\n      sstore\n      jump(tag_167)\n    tag_169:\n      dup3\n      dup1\n      add\n      0x01\n      add\n      dup6\n      sstore\n      dup3\n      iszero\n      tag_167\n      jumpi\n      swap2\n      dup3\n      add\n    tag_170:\n      dup3\n      dup2\n      gt\n      iszero\n      tag_171\n      jumpi\n      dup3\n      mload\n      dup3\n      sstore\n      swap2\n      0x20\n      add\n      swap2\n      swap1\n      0x01\n      add\n      swap1\n      jump(tag_170)\n    tag_171:\n    tag_167:\n      pop\n      swap1\n      pop\n      tag_172\n      swap2\n      swap1\n      tag_173\n      jump\t// in\n    tag_172:\n      pop\n      swap1\n      jump\t// out\n    tag_173:\n    tag_174:\n      dup1\n      dup3\n      gt\n      iszero\n      tag_175\n      jumpi\n      0x00\n      dup2\n      0x00\n      swap1\n      sstore\n      pop\n      0x01\n      add\n      jump(tag_174)\n    tag_175:\n      pop\n      swap1\n      jump\t// out\n        /* \"#utility.yul\":7:419   */\n    tag_177:\n        /* \"#utility.yul\":85:90   */\n      0x00\n        /* \"#utility.yul\":110:176   */\n      tag_179\n        /* \"#utility.yul\":126:175   */\n      tag_180\n        /* \"#utility.yul\":168:174   */\n      dup5\n        /* \"#utility.yul\":126:175   */\n      tag_181\n      jump\t// in\n    tag_180:\n        /* \"#utility.yul\":110:176   */\n      tag_182\n      jump\t// in\n    tag_179:\n        /* \"#utility.yul\":101:176   */\n      swap1\n      pop\n        /* \"#utility.yul\":199:205   */\n      dup3\n        /* \"#utility.yul\":192:197   */\n      dup2\n        /* \"#utility.yul\":185:206   */\n      mstore\n        /* \"#utility.yul\":237:241   */\n      0x20\n        /* \"#utility.yul\":230:235   */\n      dup2\n        /* \"#utility.yul\":226:242   */\n      add\n        /* \"#utility.yul\":275:278   */\n      dup5\n        /* \"#utility.yul\":266:272   */\n      dup5\n        /* \"#utility.yul\":261:264   */\n      dup5\n        /* \"#utility.yul\":257:273   */\n      add\n        /* \"#utility.yul\":254:279   */\n      gt\n        /* \"#utility.yul\":251:363   */\n      iszero\n      tag_183\n      jumpi\n        /* \"#utility.yul\":282:361   */\n      tag_184\n      tag_185\n      jump\t// in\n    tag_184:\n        /* \"#utility.yul\":251:363   */\n    tag_183:\n        /* \"#utility.yul\":372:413   */\n      tag_186\n        /* \"#utility.yul\":406:412   */\n      dup5\n        /* \"#utility.yul\":401:404   */\n      dup3\n        /* \"#utility.yul\":396:399   */\n      dup6\n        /* \"#utility.yul\":372:413   */\n      tag_187\n      jump\t// in\n    tag_186:\n        /* \"#utility.yul\":91:419   */\n      pop\n        /* \"#utility.yul\":7:419   */\n      swap4\n      swap3\n      pop\n      pop\n      pop\n      jump\t// out\n        /* \"#utility.yul\":425:564   */\n    tag_188:\n        /* \"#utility.yul\":471:476   */\n      0x00\n        /* \"#utility.yul\":509:515   */\n      dup2\n        /* \"#utility.yul\":496:516   */\n      calldataload\n        /* \"#utility.yul\":487:516   */\n      swap1\n      pop\n        /* \"#utility.yul\":525:558   */\n      tag_190\n        /* \"#utility.yul\":552:557   */\n      dup2\n        /* \"#utility.yul\":525:558   */\n      tag_191\n      jump\t// in\n    tag_190:\n        /* \"#utility.yul\":425:564   */\n      swap3\n      swap2\n      pop\n      pop\n      jump\t// out\n        /* \"#utility.yul\":570:703   */\n    tag_192:\n        /* \"#utility.yul\":613:618   */\n      0x00\n        /* \"#utility.yul\":651:657   */\n      dup2\n        /* \"#utility.yul\":638:658   */\n      calldataload\n        /* \"#utility.yul\":629:658   */\n      swap1\n      pop\n        /* \"#utility.yul\":667:697   */\n      tag_194\n        /* \"#utility.yul\":691:696   */\n      dup2\n        /* \"#utility.yul\":667:697   */\n      tag_195\n      jump\t// in\n    tag_194:\n        /* \"#utility.yul\":570:703   */\n      swap3\n      swap2\n      pop\n      pop\n      jump\t// out\n        /* \"#utility.yul\":723:1063   */\n    tag_196:\n        /* \"#utility.yul\":779:784   */\n      0x00\n        /* \"#utility.yul\":828:831   */\n      dup3\n        /* \"#utility.yul\":821:825   */\n      0x1f\n        /* \"#utility.yul\":813:819   */\n      dup4\n        /* \"#utility.yul\":809:826   */\n      add\n        /* \"#utility.yul\":805:832   */\n      slt\n        /* \"#utility.yul\":795:917   */\n      tag_198\n      jumpi\n        /* \"#utility.yul\":836:915   */\n      tag_199\n      tag_200\n      jump\t// in\n    tag_199:\n        /* \"#utility.yul\":795:917   */\n    tag_198:\n        /* \"#utility.yul\":953:959   */\n      dup2\n        /* \"#utility.yul\":940:960   */\n      calldataload\n        /* \"#utility.yul\":978:1057   */\n      tag_201\n        /* \"#utility.yul\":1053:1056   */\n      dup5\n        /* \"#utility.yul\":1045:1051   */\n      dup3\n        /* \"#utility.yul\":1038:1042   */\n      0x20\n        /* \"#utility.yul\":1030:1036   */\n      dup7\n        /* \"#utility.yul\":1026:1043   */\n      add\n        /* \"#utility.yul\":978:1057   */\n      tag_177\n      jump\t// in\n    tag_201:\n        /* \"#utility.yul\":969:1057   */\n      swap2\n      pop\n        /* \"#utility.yul\":785:1063   */\n      pop\n        /* \"#utility.yul\":723:1063   */\n      swap3\n      swap2\n      pop\n      pop\n      jump\t// out\n        /* \"#utility.yul\":1069:1208   */\n    tag_202:\n        /* \"#utility.yul\":1115:1120   */\n      0x00\n        /* \"#utility.yul\":1153:1159   */\n      dup2\n        /* \"#utility.yul\":1140:1160   */\n      calldataload\n        /* \"#utility.yul\":1131:1160   */\n      swap1\n      pop\n        /* \"#utility.yul\":1169:1202   */\n      tag_204\n        /* \"#utility.yul\":1196:1201   */\n      dup2\n        /* \"#utility.yul\":1169:1202   */\n      tag_205\n      jump\t// in\n    tag_204:\n        /* \"#utility.yul\":1069:1208   */\n      swap3\n      swap2\n      pop\n      pop\n      jump\t// out\n        /* \"#utility.yul\":1214:1543   */\n    tag_40:\n        /* \"#utility.yul\":1273:1279   */\n      0x00\n        /* \"#utility.yul\":1322:1324   */\n      0x20\n        /* \"#utility.yul\":1310:1319   */\n      dup3\n        /* \"#utility.yul\":1301:1308   */\n      dup5\n        /* \"#utility.yul\":1297:1320   */\n      sub\n        /* \"#utility.yul\":1293:1325   */\n      slt\n        /* \"#utility.yul\":1290:1409   */\n      iszero\n      tag_207\n      jumpi\n        /* \"#utility.yul\":1328:1407   */\n      tag_208\n      tag_209\n      jump\t// in\n    tag_208:\n        /* \"#utility.yul\":1290:1409   */\n    tag_207:\n        /* \"#utility.yul\":1448:1449   */\n      0x00\n        /* \"#utility.yul\":1473:1526   */\n      tag_210\n        /* \"#utility.yul\":1518:1525   */\n      dup5\n        /* \"#utility.yul\":1509:1515   */\n      dup3\n        /* \"#utility.yul\":1498:1507   */\n      dup6\n        /* \"#utility.yul\":1494:1516   */\n      add\n        /* \"#utility.yul\":1473:1526   */\n      tag_188\n      jump\t// in\n    tag_210:\n        /* \"#utility.yul\":1463:1526   */\n      swap2\n      pop\n        /* \"#utility.yul\":1419:1536   */\n      pop\n        /* \"#utility.yul\":1214:1543   */\n      swap3\n      swap2\n      pop\n      pop\n      jump\t// out\n        /* \"#utility.yul\":1549:1872   */\n    tag_45:\n        /* \"#utility.yul\":1605:1611   */\n      0x00\n        /* \"#utility.yul\":1654:1656   */\n      0x20\n        /* \"#utility.yul\":1642:1651   */\n      dup3\n        /* \"#utility.yul\":1633:1640   */\n      dup5\n        /* \"#utility.yul\":1629:1652   */\n      sub\n        /* \"#utility.yul\":1625:1657   */\n      slt\n        /* \"#utility.yul\":1622:1741   */\n      iszero\n      tag_212\n      jumpi\n        /* \"#utility.yul\":1660:1739   */\n      tag_213\n      tag_209\n      jump\t// in\n    tag_213:\n        /* \"#utility.yul\":1622:1741   */\n    tag_212:\n        /* \"#utility.yul\":1780:1781   */\n      0x00\n        /* \"#utility.yul\":1805:1855   */\n      tag_214\n        /* \"#utility.yul\":1847:1854   */\n      dup5\n        /* \"#utility.yul\":1838:1844   */\n      dup3\n        /* \"#utility.yul\":1827:1836   */\n      dup6\n        /* \"#utility.yul\":1823:1845   */\n      add\n        /* \"#utility.yul\":1805:1855   */\n      tag_192\n      jump\t// in\n    tag_214:\n        /* \"#utility.yul\":1795:1855   */\n      swap2\n      pop\n        /* \"#utility.yul\":1751:1865   */\n      pop\n        /* \"#utility.yul\":1549:1872   */\n      swap3\n      swap2\n      pop\n      pop\n      jump\t// out\n        /* \"#utility.yul\":1878:2387   */\n    tag_65:\n        /* \"#utility.yul\":1947:1953   */\n      0x00\n        /* \"#utility.yul\":1996:1998   */\n      0x20\n        /* \"#utility.yul\":1984:1993   */\n      dup3\n        /* \"#utility.yul\":1975:1982   */\n      dup5\n        /* \"#utility.yul\":1971:1994   */\n      sub\n        /* \"#utility.yul\":1967:1999   */\n      slt\n        /* \"#utility.yul\":1964:2083   */\n      iszero\n      tag_216\n      jumpi\n        /* \"#utility.yul\":2002:2081   */\n      tag_217\n      tag_209\n      jump\t// in\n    tag_217:\n        /* \"#utility.yul\":1964:2083   */\n    tag_216:\n        /* \"#utility.yul\":2150:2151   */\n      0x00\n        /* \"#utility.yul\":2139:2148   */\n      dup3\n        /* \"#utility.yul\":2135:2152   */\n      add\n        /* \"#utility.yul\":2122:2153   */\n      calldataload\n        /* \"#utility.yul\":2180:2198   */\n      0xffffffffffffffff\n        /* \"#utility.yul\":2172:2178   */\n      dup2\n        /* \"#utility.yul\":2169:2199   */\n      gt\n        /* \"#utility.yul\":2166:2283   */\n      iszero\n      tag_218\n      jumpi\n        /* \"#utility.yul\":2202:2281   */\n      tag_219\n      tag_220\n      jump\t// in\n    tag_219:\n        /* \"#utility.yul\":2166:2283   */\n    tag_218:\n        /* \"#utility.yul\":2307:2370   */\n      tag_221\n        /* \"#utility.yul\":2362:2369   */\n      dup5\n        /* \"#utility.yul\":2353:2359   */\n      dup3\n        /* \"#utility.yul\":2342:2351   */\n      dup6\n        /* \"#utility.yul\":2338:2360   */\n      add\n        /* \"#utility.yul\":2307:2370   */\n      tag_196\n      jump\t// in\n    tag_221:\n        /* \"#utility.yul\":2297:2370   */\n      swap2\n      pop\n        /* \"#utility.yul\":2093:2380   */\n      pop\n        /* \"#utility.yul\":1878:2387   */\n      swap3\n      swap2\n      pop\n      pop\n      jump\t// out\n        /* \"#utility.yul\":2393:3227   */\n    tag_95:\n        /* \"#utility.yul\":2481:2487   */\n      0x00\n        /* \"#utility.yul\":2489:2495   */\n      dup1\n        /* \"#utility.yul\":2538:2540   */\n      0x40\n        /* \"#utility.yul\":2526:2535   */\n      dup4\n        /* \"#utility.yul\":2517:2524   */\n      dup6\n        /* \"#utility.yul\":2513:2536   */\n      sub\n        /* \"#utility.yul\":2509:2541   */\n      slt\n        /* \"#utility.yul\":2506:2625   */\n      iszero\n      tag_223\n      jumpi\n        /* \"#utility.yul\":2544:2623   */\n      tag_224\n      tag_209\n      jump\t// in\n    tag_224:\n        /* \"#utility.yul\":2506:2625   */\n    tag_223:\n        /* \"#utility.yul\":2692:2693   */\n      0x00\n        /* \"#utility.yul\":2681:2690   */\n      dup4\n        /* \"#utility.yul\":2677:2694   */\n      add\n        /* \"#utility.yul\":2664:2695   */\n      calldataload\n        /* \"#utility.yul\":2722:2740   */\n      0xffffffffffffffff\n        /* \"#utility.yul\":2714:2720   */\n      dup2\n        /* \"#utility.yul\":2711:2741   */\n      gt\n        /* \"#utility.yul\":2708:2825   */\n      iszero\n      tag_225\n      jumpi\n        /* \"#utility.yul\":2744:2823   */\n      tag_226\n      tag_220\n      jump\t// in\n    tag_226:\n        /* \"#utility.yul\":2708:2825   */\n    tag_225:\n        /* \"#utility.yul\":2849:2912   */\n      tag_227\n        /* \"#utility.yul\":2904:2911   */\n      dup6\n        /* \"#utility.yul\":2895:2901   */\n      dup3\n        /* \"#utility.yul\":2884:2893   */\n      dup7\n        /* \"#utility.yul\":2880:2902   */\n      add\n        /* \"#utility.yul\":2849:2912   */\n      tag_196\n      jump\t// in\n    tag_227:\n        /* \"#utility.yul\":2839:2912   */\n      swap3\n      pop\n        /* \"#utility.yul\":2635:2922   */\n      pop\n        /* \"#utility.yul\":2989:2991   */\n      0x20\n        /* \"#utility.yul\":2978:2987   */\n      dup4\n        /* \"#utility.yul\":2974:2992   */\n      add\n        /* \"#utility.yul\":2961:2993   */\n      calldataload\n        /* \"#utility.yul\":3020:3038   */\n      0xffffffffffffffff\n        /* \"#utility.yul\":3012:3018   */\n      dup2\n        /* \"#utility.yul\":3009:3039   */\n      gt\n        /* \"#utility.yul\":3006:3123   */\n      iszero\n      tag_228\n      jumpi\n        /* \"#utility.yul\":3042:3121   */\n      tag_229\n      tag_220\n      jump\t// in\n    tag_229:\n        /* \"#utility.yul\":3006:3123   */\n    tag_228:\n        /* \"#utility.yul\":3147:3210   */\n      tag_230\n        /* \"#utility.yul\":3202:3209   */\n      dup6\n        /* \"#utility.yul\":3193:3199   */\n      dup3\n        /* \"#utility.yul\":3182:3191   */\n      dup7\n        /* \"#utility.yul\":3178:3200   */\n      add\n        /* \"#utility.yul\":3147:3210   */\n      tag_196\n      jump\t// in\n    tag_230:\n        /* \"#utility.yul\":3137:3210   */\n      swap2\n      pop\n        /* \"#utility.yul\":2932:3220   */\n      pop\n        /* \"#utility.yul\":2393:3227   */\n      swap3\n      pop\n      swap3\n      swap1\n      pop\n      jump\t// out\n        /* \"#utility.yul\":3233:4032   */\n    tag_88:\n        /* \"#utility.yul\":3320:3326   */\n      0x00\n        /* \"#utility.yul\":3328:3334   */\n      dup1\n        /* \"#utility.yul\":3336:3342   */\n      0x00\n        /* \"#utility.yul\":3385:3387   */\n      0x60\n        /* \"#utility.yul\":3373:3382   */\n      dup5\n        /* \"#utility.yul\":3364:3371   */\n      dup7\n        /* \"#utility.yul\":3360:3383   */\n      sub\n        /* \"#utility.yul\":3356:3388   */\n      slt\n        /* \"#utility.yul\":3353:3472   */\n      iszero\n      tag_232\n      jumpi\n        /* \"#utility.yul\":3391:3470   */\n      tag_233\n      tag_209\n      jump\t// in\n    tag_233:\n        /* \"#utility.yul\":3353:3472   */\n    tag_232:\n        /* \"#utility.yul\":3539:3540   */\n      0x00\n        /* \"#utility.yul\":3528:3537   */\n      dup5\n        /* \"#utility.yul\":3524:3541   */\n      add\n        /* \"#utility.yul\":3511:3542   */\n      calldataload\n        /* \"#utility.yul\":3569:3587   */\n      0xffffffffffffffff\n        /* \"#utility.yul\":3561:3567   */\n      dup2\n        /* \"#utility.yul\":3558:3588   */\n      gt\n        /* \"#utility.yul\":3555:3672   */\n      iszero\n      tag_234\n      jumpi\n        /* \"#utility.yul\":3591:3670   */\n      tag_235\n      tag_220\n      jump\t// in\n    tag_235:\n        /* \"#utility.yul\":3555:3672   */\n    tag_234:\n        /* \"#utility.yul\":3696:3759   */\n      tag_236\n        /* \"#utility.yul\":3751:3758   */\n      dup7\n        /* \"#utility.yul\":3742:3748   */\n      dup3\n        /* \"#utility.yul\":3731:3740   */\n      dup8\n        /* \"#utility.yul\":3727:3749   */\n      add\n        /* \"#utility.yul\":3696:3759   */\n      tag_196\n      jump\t// in\n    tag_236:\n        /* \"#utility.yul\":3686:3759   */\n      swap4\n      pop\n        /* \"#utility.yul\":3482:3769   */\n      pop\n        /* \"#utility.yul\":3808:3810   */\n      0x20\n        /* \"#utility.yul\":3834:3887   */\n      tag_237\n        /* \"#utility.yul\":3879:3886   */\n      dup7\n        /* \"#utility.yul\":3870:3876   */\n      dup3\n        /* \"#utility.yul\":3859:3868   */\n      dup8\n        /* \"#utility.yul\":3855:3877   */\n      add\n        /* \"#utility.yul\":3834:3887   */\n      tag_202\n      jump\t// in\n    tag_237:\n        /* \"#utility.yul\":3824:3887   */\n      swap3\n      pop\n        /* \"#utility.yul\":3779:3897   */\n      pop\n        /* \"#utility.yul\":3936:3938   */\n      0x40\n        /* \"#utility.yul\":3962:4015   */\n      tag_238\n        /* \"#utility.yul\":4007:4014   */\n      dup7\n        /* \"#utility.yul\":3998:4004   */\n      dup3\n        /* \"#utility.yul\":3987:3996   */\n      dup8\n        /* \"#utility.yul\":3983:4005   */\n      add\n        /* \"#utility.yul\":3962:4015   */\n      tag_202\n      jump\t// in\n    tag_238:\n        /* \"#utility.yul\":3952:4015   */\n      swap2\n      pop\n        /* \"#utility.yul\":3907:4025   */\n      pop\n        /* \"#utility.yul\":3233:4032   */\n      swap3\n      pop\n      swap3\n      pop\n      swap3\n      jump\t// out\n        /* \"#utility.yul\":4038:4367   */\n    tag_50:\n        /* \"#utility.yul\":4097:4103   */\n      0x00\n        /* \"#utility.yul\":4146:4148   */\n      0x20\n        /* \"#utility.yul\":4134:4143   */\n      dup3\n        /* \"#utility.yul\":4125:4132   */\n      dup5\n        /* \"#utility.yul\":4121:4144   */\n      sub\n        /* \"#utility.yul\":4117:4149   */\n      slt\n        /* \"#utility.yul\":4114:4233   */\n      iszero\n      tag_240\n      jumpi\n        /* \"#utility.yul\":4152:4231   */\n      tag_241\n      tag_209\n      jump\t// in\n    tag_241:\n        /* \"#utility.yul\":4114:4233   */\n    tag_240:\n        /* \"#utility.yul\":4272:4273   */\n      0x00\n        /* \"#utility.yul\":4297:4350   */\n      tag_242\n        /* \"#utility.yul\":4342:4349   */\n      dup5\n        /* \"#utility.yul\":4333:4339   */\n      dup3\n        /* \"#utility.yul\":4322:4331   */\n      dup6\n        /* \"#utility.yul\":4318:4340   */\n      add\n        /* \"#utility.yul\":4297:4350   */\n      tag_202\n      jump\t// in\n    tag_242:\n        /* \"#utility.yul\":4287:4350   */\n      swap2\n      pop\n        /* \"#utility.yul\":4243:4360   */\n      pop\n        /* \"#utility.yul\":4038:4367   */\n      swap3\n      swap2\n      pop\n      pop\n      jump\t// out\n        /* \"#utility.yul\":4373:4847   */\n    tag_73:\n        /* \"#utility.yul\":4441:4447   */\n      0x00\n        /* \"#utility.yul\":4449:4455   */\n      dup1\n        /* \"#utility.yul\":4498:4500   */\n      0x40\n        /* \"#utility.yul\":4486:4495   */\n      dup4\n        /* \"#utility.yul\":4477:4484   */\n      dup6\n        /* \"#utility.yul\":4473:4496   */\n      sub\n        /* \"#utility.yul\":4469:4501   */\n      slt\n        /* \"#utility.yul\":4466:4585   */\n      iszero\n      tag_244\n      jumpi\n        /* \"#utility.yul\":4504:4583   */\n      tag_245\n      tag_209\n      jump\t// in\n    tag_245:\n        /* \"#utility.yul\":4466:4585   */\n    tag_244:\n        /* \"#utility.yul\":4624:4625   */\n      0x00\n        /* \"#utility.yul\":4649:4702   */\n      tag_246\n        /* \"#utility.yul\":4694:4701   */\n      dup6\n        /* \"#utility.yul\":4685:4691   */\n      dup3\n        /* \"#utility.yul\":4674:4683   */\n      dup7\n        /* \"#utility.yul\":4670:4692   */\n      add\n        /* \"#utility.yul\":4649:4702   */\n      tag_202\n      jump\t// in\n    tag_246:\n        /* \"#utility.yul\":4639:4702   */\n      swap3\n      pop\n        /* \"#utility.yul\":4595:4712   */\n      pop\n        /* \"#utility.yul\":4751:4753   */\n      0x20\n        /* \"#utility.yul\":4777:4830   */\n      tag_247\n        /* \"#utility.yul\":4822:4829   */\n      dup6\n        /* \"#utility.yul\":4813:4819   */\n      dup3\n        /* \"#utility.yul\":4802:4811   */\n      dup7\n        /* \"#utility.yul\":4798:4820   */\n      add\n        /* \"#utility.yul\":4777:4830   */\n      tag_188\n      jump\t// in\n    tag_247:\n        /* \"#utility.yul\":4767:4830   */\n      swap2\n      pop\n        /* \"#utility.yul\":4722:4840   */\n      pop\n        /* \"#utility.yul\":4373:4847   */\n      swap3\n      pop\n      swap3\n      swap1\n      pop\n      jump\t// out\n        /* \"#utility.yul\":4853:4971   */\n    tag_248:\n        /* \"#utility.yul\":4940:4964   */\n      tag_250\n        /* \"#utility.yul\":4958:4963   */\n      dup2\n        /* \"#utility.yul\":4940:4964   */\n      tag_251\n      jump\t// in\n    tag_250:\n        /* \"#utility.yul\":4935:4938   */\n      dup3\n        /* \"#utility.yul\":4928:4965   */\n      mstore\n        /* \"#utility.yul\":4853:4971   */\n      pop\n      pop\n      jump\t// out\n        /* \"#utility.yul\":4977:5086   */\n    tag_252:\n        /* \"#utility.yul\":5058:5079   */\n      tag_254\n        /* \"#utility.yul\":5073:5078   */\n      dup2\n        /* \"#utility.yul\":5058:5079   */\n      tag_255\n      jump\t// in\n    tag_254:\n        /* \"#utility.yul\":5053:5056   */\n      dup3\n        /* \"#utility.yul\":5046:5080   */\n      mstore\n        /* \"#utility.yul\":4977:5086   */\n      pop\n      pop\n      jump\t// out\n        /* \"#utility.yul\":5092:5456   */\n    tag_256:\n        /* \"#utility.yul\":5180:5183   */\n      0x00\n        /* \"#utility.yul\":5208:5247   */\n      tag_258\n        /* \"#utility.yul\":5241:5246   */\n      dup3\n        /* \"#utility.yul\":5208:5247   */\n      tag_259\n      jump\t// in\n    tag_258:\n        /* \"#utility.yul\":5263:5334   */\n      tag_260\n        /* \"#utility.yul\":5327:5333   */\n      dup2\n        /* \"#utility.yul\":5322:5325   */\n      dup6\n        /* \"#utility.yul\":5263:5334   */\n      tag_261\n      jump\t// in\n    tag_260:\n        /* \"#utility.yul\":5256:5334   */\n      swap4\n      pop\n        /* \"#utility.yul\":5343:5395   */\n      tag_262\n        /* \"#utility.yul\":5388:5394   */\n      dup2\n        /* \"#utility.yul\":5383:5386   */\n      dup6\n        /* \"#utility.yul\":5376:5380   */\n      0x20\n        /* \"#utility.yul\":5369:5374   */\n      dup7\n        /* \"#utility.yul\":5365:5381   */\n      add\n        /* \"#utility.yul\":5343:5395   */\n      tag_263\n      jump\t// in\n    tag_262:\n        /* \"#utility.yul\":5420:5449   */\n      tag_264\n        /* \"#utility.yul\":5442:5448   */\n      dup2\n        /* \"#utility.yul\":5420:5449   */\n      tag_265\n      jump\t// in\n    tag_264:\n        /* \"#utility.yul\":5415:5418   */\n      dup5\n        /* \"#utility.yul\":5411:5450   */\n      add\n        /* \"#utility.yul\":5404:5450   */\n      swap2\n      pop\n        /* \"#utility.yul\":5184:5456   */\n      pop\n        /* \"#utility.yul\":5092:5456   */\n      swap3\n      swap2\n      pop\n      pop\n      jump\t// out\n        /* \"#utility.yul\":5462:5839   */\n    tag_266:\n        /* \"#utility.yul\":5568:5571   */\n      0x00\n        /* \"#utility.yul\":5596:5635   */\n      tag_268\n        /* \"#utility.yul\":5629:5634   */\n      dup3\n        /* \"#utility.yul\":5596:5635   */\n      tag_259\n      jump\t// in\n    tag_268:\n        /* \"#utility.yul\":5651:5740   */\n      tag_269\n        /* \"#utility.yul\":5733:5739   */\n      dup2\n        /* \"#utility.yul\":5728:5731   */\n      dup6\n        /* \"#utility.yul\":5651:5740   */\n      tag_270\n      jump\t// in\n    tag_269:\n        /* \"#utility.yul\":5644:5740   */\n      swap4\n      pop\n        /* \"#utility.yul\":5749:5801   */\n      tag_271\n        /* \"#utility.yul\":5794:5800   */\n      dup2\n        /* \"#utility.yul\":5789:5792   */\n      dup6\n        /* \"#utility.yul\":5782:5786   */\n      0x20\n        /* \"#utility.yul\":5775:5780   */\n      dup7\n        /* \"#utility.yul\":5771:5787   */\n      add\n        /* \"#utility.yul\":5749:5801   */\n      tag_263\n      jump\t// in\n    tag_271:\n        /* \"#utility.yul\":5826:5832   */\n      dup1\n        /* \"#utility.yul\":5821:5824   */\n      dup5\n        /* \"#utility.yul\":5817:5833   */\n      add\n        /* \"#utility.yul\":5810:5833   */\n      swap2\n      pop\n        /* \"#utility.yul\":5572:5839   */\n      pop\n        /* \"#utility.yul\":5462:5839   */\n      swap3\n      swap2\n      pop\n      pop\n      jump\t// out\n        /* \"#utility.yul\":5845:6211   */\n    tag_272:\n        /* \"#utility.yul\":5987:5990   */\n      0x00\n        /* \"#utility.yul\":6008:6075   */\n      tag_274\n        /* \"#utility.yul\":6072:6074   */\n      0x19\n        /* \"#utility.yul\":6067:6070   */\n      dup4\n        /* \"#utility.yul\":6008:6075   */\n      tag_261\n      jump\t// in\n    tag_274:\n        /* \"#utility.yul\":6001:6075   */\n      swap2\n      pop\n        /* \"#utility.yul\":6084:6177   */\n      tag_275\n        /* \"#utility.yul\":6173:6176   */\n      dup3\n        /* \"#utility.yul\":6084:6177   */\n      tag_276\n      jump\t// in\n    tag_275:\n        /* \"#utility.yul\":6202:6204   */\n      0x20\n        /* \"#utility.yul\":6197:6200   */\n      dup3\n        /* \"#utility.yul\":6193:6205   */\n      add\n        /* \"#utility.yul\":6186:6205   */\n      swap1\n      pop\n        /* \"#utility.yul\":5845:6211   */\n      swap2\n      swap1\n      pop\n      jump\t// out\n        /* \"#utility.yul\":6217:6583   */\n    tag_277:\n        /* \"#utility.yul\":6359:6362   */\n      0x00\n        /* \"#utility.yul\":6380:6447   */\n      tag_279\n        /* \"#utility.yul\":6444:6446   */\n      0x11\n        /* \"#utility.yul\":6439:6442   */\n      dup4\n        /* \"#utility.yul\":6380:6447   */\n      tag_261\n      jump\t// in\n    tag_279:\n        /* \"#utility.yul\":6373:6447   */\n      swap2\n      pop\n        /* \"#utility.yul\":6456:6549   */\n      tag_280\n        /* \"#utility.yul\":6545:6548   */\n      dup3\n        /* \"#utility.yul\":6456:6549   */\n      tag_281\n      jump\t// in\n    tag_280:\n        /* \"#utility.yul\":6574:6576   */\n      0x20\n        /* \"#utility.yul\":6569:6572   */\n      dup3\n        /* \"#utility.yul\":6565:6577   */\n      add\n        /* \"#utility.yul\":6558:6577   */\n      swap1\n      pop\n        /* \"#utility.yul\":6217:6583   */\n      swap2\n      swap1\n      pop\n      jump\t// out\n        /* \"#utility.yul\":6589:6707   */\n    tag_282:\n        /* \"#utility.yul\":6676:6700   */\n      tag_284\n        /* \"#utility.yul\":6694:6699   */\n      dup2\n        /* \"#utility.yul\":6676:6700   */\n      tag_285\n      jump\t// in\n    tag_284:\n        /* \"#utility.yul\":6671:6674   */\n      dup3\n        /* \"#utility.yul\":6664:6701   */\n      mstore\n        /* \"#utility.yul\":6589:6707   */\n      pop\n      pop\n      jump\t// out\n        /* \"#utility.yul\":6713:6988   */\n    tag_144:\n        /* \"#utility.yul\":6845:6848   */\n      0x00\n        /* \"#utility.yul\":6867:6962   */\n      tag_287\n        /* \"#utility.yul\":6958:6961   */\n      dup3\n        /* \"#utility.yul\":6949:6955   */\n      dup5\n        /* \"#utility.yul\":6867:6962   */\n      tag_266\n      jump\t// in\n    tag_287:\n        /* \"#utility.yul\":6860:6962   */\n      swap2\n      pop\n        /* \"#utility.yul\":6979:6982   */\n      dup2\n        /* \"#utility.yul\":6972:6982   */\n      swap1\n      pop\n        /* \"#utility.yul\":6713:6988   */\n      swap3\n      swap2\n      pop\n      pop\n      jump\t// out\n        /* \"#utility.yul\":6994:7216   */\n    tag_33:\n        /* \"#utility.yul\":7087:7091   */\n      0x00\n        /* \"#utility.yul\":7125:7127   */\n      0x20\n        /* \"#utility.yul\":7114:7123   */\n      dup3\n        /* \"#utility.yul\":7110:7128   */\n      add\n        /* \"#utility.yul\":7102:7128   */\n      swap1\n      pop\n        /* \"#utility.yul\":7138:7209   */\n      tag_289\n        /* \"#utility.yul\":7206:7207   */\n      0x00\n        /* \"#utility.yul\":7195:7204   */\n      dup4\n        /* \"#utility.yul\":7191:7208   */\n      add\n        /* \"#utility.yul\":7182:7188   */\n      dup5\n        /* \"#utility.yul\":7138:7209   */\n      tag_248\n      jump\t// in\n    tag_289:\n        /* \"#utility.yul\":6994:7216   */\n      swap3\n      swap2\n      pop\n      pop\n      jump\t// out\n        /* \"#utility.yul\":7222:7432   */\n    tag_62:\n        /* \"#utility.yul\":7309:7313   */\n      0x00\n        /* \"#utility.yul\":7347:7349   */\n      0x20\n        /* \"#utility.yul\":7336:7345   */\n      dup3\n        /* \"#utility.yul\":7332:7350   */\n      add\n        /* \"#utility.yul\":7324:7350   */\n      swap1\n      pop\n        /* \"#utility.yul\":7360:7425   */\n      tag_291\n        /* \"#utility.yul\":7422:7423   */\n      0x00\n        /* \"#utility.yul\":7411:7420   */\n      dup4\n        /* \"#utility.yul\":7407:7424   */\n      add\n        /* \"#utility.yul\":7398:7404   */\n      dup5\n        /* \"#utility.yul\":7360:7425   */\n      tag_252\n      jump\t// in\n    tag_291:\n        /* \"#utility.yul\":7222:7432   */\n      swap3\n      swap2\n      pop\n      pop\n      jump\t// out\n        /* \"#utility.yul\":7438:7751   */\n    tag_29:\n        /* \"#utility.yul\":7551:7555   */\n      0x00\n        /* \"#utility.yul\":7589:7591   */\n      0x20\n        /* \"#utility.yul\":7578:7587   */\n      dup3\n        /* \"#utility.yul\":7574:7592   */\n      add\n        /* \"#utility.yul\":7566:7592   */\n      swap1\n      pop\n        /* \"#utility.yul\":7638:7647   */\n      dup2\n        /* \"#utility.yul\":7632:7636   */\n      dup2\n        /* \"#utility.yul\":7628:7648   */\n      sub\n        /* \"#utility.yul\":7624:7625   */\n      0x00\n        /* \"#utility.yul\":7613:7622   */\n      dup4\n        /* \"#utility.yul\":7609:7626   */\n      add\n        /* \"#utility.yul\":7602:7649   */\n      mstore\n        /* \"#utility.yul\":7666:7744   */\n      tag_293\n        /* \"#utility.yul\":7739:7743   */\n      dup2\n        /* \"#utility.yul\":7730:7736   */\n      dup5\n        /* \"#utility.yul\":7666:7744   */\n      tag_256\n      jump\t// in\n    tag_293:\n        /* \"#utility.yul\":7658:7744   */\n      swap1\n      pop\n        /* \"#utility.yul\":7438:7751   */\n      swap3\n      swap2\n      pop\n      pop\n      jump\t// out\n        /* \"#utility.yul\":7757:8176   */\n    tag_147:\n        /* \"#utility.yul\":7923:7927   */\n      0x00\n        /* \"#utility.yul\":7961:7963   */\n      0x20\n        /* \"#utility.yul\":7950:7959   */\n      dup3\n        /* \"#utility.yul\":7946:7964   */\n      add\n        /* \"#utility.yul\":7938:7964   */\n      swap1\n      pop\n        /* \"#utility.yul\":8010:8019   */\n      dup2\n        /* \"#utility.yul\":8004:8008   */\n      dup2\n        /* \"#utility.yul\":8000:8020   */\n      sub\n        /* \"#utility.yul\":7996:7997   */\n      0x00\n        /* \"#utility.yul\":7985:7994   */\n      dup4\n        /* \"#utility.yul\":7981:7998   */\n      add\n        /* \"#utility.yul\":7974:8021   */\n      mstore\n        /* \"#utility.yul\":8038:8169   */\n      tag_295\n        /* \"#utility.yul\":8164:8168   */\n      dup2\n        /* \"#utility.yul\":8038:8169   */\n      tag_272\n      jump\t// in\n    tag_295:\n        /* \"#utility.yul\":8030:8169   */\n      swap1\n      pop\n        /* \"#utility.yul\":7757:8176   */\n      swap2\n      swap1\n      pop\n      jump\t// out\n        /* \"#utility.yul\":8182:8601   */\n    tag_139:\n        /* \"#utility.yul\":8348:8352   */\n      0x00\n        /* \"#utility.yul\":8386:8388   */\n      0x20\n        /* \"#utility.yul\":8375:8384   */\n      dup3\n        /* \"#utility.yul\":8371:8389   */\n      add\n        /* \"#utility.yul\":8363:8389   */\n      swap1\n      pop\n        /* \"#utility.yul\":8435:8444   */\n      dup2\n        /* \"#utility.yul\":8429:8433   */\n      dup2\n        /* \"#utility.yul\":8425:8445   */\n      sub\n        /* \"#utility.yul\":8421:8422   */\n      0x00\n        /* \"#utility.yul\":8410:8419   */\n      dup4\n        /* \"#utility.yul\":8406:8423   */\n      add\n        /* \"#utility.yul\":8399:8446   */\n      mstore\n        /* \"#utility.yul\":8463:8594   */\n      tag_297\n        /* \"#utility.yul\":8589:8593   */\n      dup2\n        /* \"#utility.yul\":8463:8594   */\n      tag_277\n      jump\t// in\n    tag_297:\n        /* \"#utility.yul\":8455:8594   */\n      swap1\n      pop\n        /* \"#utility.yul\":8182:8601   */\n      swap2\n      swap1\n      pop\n      jump\t// out\n        /* \"#utility.yul\":8607:8829   */\n    tag_37:\n        /* \"#utility.yul\":8700:8704   */\n      0x00\n        /* \"#utility.yul\":8738:8740   */\n      0x20\n        /* \"#utility.yul\":8727:8736   */\n      dup3\n        /* \"#utility.yul\":8723:8741   */\n      add\n        /* \"#utility.yul\":8715:8741   */\n      swap1\n      pop\n        /* \"#utility.yul\":8751:8822   */\n      tag_299\n        /* \"#utility.yul\":8819:8820   */\n      0x00\n        /* \"#utility.yul\":8808:8817   */\n      dup4\n        /* \"#utility.yul\":8804:8821   */\n      add\n        /* \"#utility.yul\":8795:8801   */\n      dup5\n        /* \"#utility.yul\":8751:8822   */\n      tag_282\n      jump\t// in\n    tag_299:\n        /* \"#utility.yul\":8607:8829   */\n      swap3\n      swap2\n      pop\n      pop\n      jump\t// out\n        /* \"#utility.yul\":8835:8964   */\n    tag_182:\n        /* \"#utility.yul\":8869:8875   */\n      0x00\n        /* \"#utility.yul\":8896:8916   */\n      tag_301\n      tag_302\n      jump\t// in\n    tag_301:\n        /* \"#utility.yul\":8886:8916   */\n      swap1\n      pop\n        /* \"#utility.yul\":8925:8958   */\n      tag_303\n        /* \"#utility.yul\":8953:8957   */\n      dup3\n        /* \"#utility.yul\":8945:8951   */\n      dup3\n        /* \"#utility.yul\":8925:8958   */\n      tag_304\n      jump\t// in\n    tag_303:\n        /* \"#utility.yul\":8835:8964   */\n      swap2\n      swap1\n      pop\n      jump\t// out\n        /* \"#utility.yul\":8970:9045   */\n    tag_302:\n        /* \"#utility.yul\":9003:9009   */\n      0x00\n        /* \"#utility.yul\":9036:9038   */\n      0x40\n        /* \"#utility.yul\":9030:9039   */\n      mload\n        /* \"#utility.yul\":9020:9039   */\n      swap1\n      pop\n        /* \"#utility.yul\":8970:9045   */\n      swap1\n      jump\t// out\n        /* \"#utility.yul\":9051:9359   */\n    tag_181:\n        /* \"#utility.yul\":9113:9117   */\n      0x00\n        /* \"#utility.yul\":9203:9221   */\n      0xffffffffffffffff\n        /* \"#utility.yul\":9195:9201   */\n      dup3\n        /* \"#utility.yul\":9192:9222   */\n      gt\n        /* \"#utility.yul\":9189:9245   */\n      iszero\n      tag_307\n      jumpi\n        /* \"#utility.yul\":9225:9243   */\n      tag_308\n      tag_309\n      jump\t// in\n    tag_308:\n        /* \"#utility.yul\":9189:9245   */\n    tag_307:\n        /* \"#utility.yul\":9263:9292   */\n      tag_310\n        /* \"#utility.yul\":9285:9291   */\n      dup3\n        /* \"#utility.yul\":9263:9292   */\n      tag_265\n      jump\t// in\n    tag_310:\n        /* \"#utility.yul\":9255:9292   */\n      swap1\n      pop\n        /* \"#utility.yul\":9347:9351   */\n      0x20\n        /* \"#utility.yul\":9341:9345   */\n      dup2\n        /* \"#utility.yul\":9337:9352   */\n      add\n        /* \"#utility.yul\":9329:9352   */\n      swap1\n      pop\n        /* \"#utility.yul\":9051:9359   */\n      swap2\n      swap1\n      pop\n      jump\t// out\n        /* \"#utility.yul\":9365:9464   */\n    tag_259:\n        /* \"#utility.yul\":9417:9423   */\n      0x00\n        /* \"#utility.yul\":9451:9456   */\n      dup2\n        /* \"#utility.yul\":9445:9457   */\n      mload\n        /* \"#utility.yul\":9435:9457   */\n      swap1\n      pop\n        /* \"#utility.yul\":9365:9464   */\n      swap2\n      swap1\n      pop\n      jump\t// out\n        /* \"#utility.yul\":9470:9639   */\n    tag_261:\n        /* \"#utility.yul\":9554:9565   */\n      0x00\n        /* \"#utility.yul\":9588:9594   */\n      dup3\n        /* \"#utility.yul\":9583:9586   */\n      dup3\n        /* \"#utility.yul\":9576:9595   */\n      mstore\n        /* \"#utility.yul\":9628:9632   */\n      0x20\n        /* \"#utility.yul\":9623:9626   */\n      dup3\n        /* \"#utility.yul\":9619:9633   */\n      add\n        /* \"#utility.yul\":9604:9633   */\n      swap1\n      pop\n        /* \"#utility.yul\":9470:9639   */\n      swap3\n      swap2\n      pop\n      pop\n      jump\t// out\n        /* \"#utility.yul\":9645:9793   */\n    tag_270:\n        /* \"#utility.yul\":9747:9758   */\n      0x00\n        /* \"#utility.yul\":9784:9787   */\n      dup2\n        /* \"#utility.yul\":9769:9787   */\n      swap1\n      pop\n        /* \"#utility.yul\":9645:9793   */\n      swap3\n      swap2\n      pop\n      pop\n      jump\t// out\n        /* \"#utility.yul\":9799:10104   */\n    tag_135:\n        /* \"#utility.yul\":9839:9842   */\n      0x00\n        /* \"#utility.yul\":9858:9878   */\n      tag_315\n        /* \"#utility.yul\":9876:9877   */\n      dup3\n        /* \"#utility.yul\":9858:9878   */\n      tag_285\n      jump\t// in\n    tag_315:\n        /* \"#utility.yul\":9853:9878   */\n      swap2\n      pop\n        /* \"#utility.yul\":9892:9912   */\n      tag_316\n        /* \"#utility.yul\":9910:9911   */\n      dup4\n        /* \"#utility.yul\":9892:9912   */\n      tag_285\n      jump\t// in\n    tag_316:\n        /* \"#utility.yul\":9887:9912   */\n      swap3\n      pop\n        /* \"#utility.yul\":10046:10047   */\n      dup3\n        /* \"#utility.yul\":9978:10044   */\n      0xffffffffffffffffffffffffffffffffffffffffffffffffffffffffffffffff\n        /* \"#utility.yul\":9974:10048   */\n      sub\n        /* \"#utility.yul\":9971:9972   */\n      dup3\n        /* \"#utility.yul\":9968:10049   */\n      gt\n        /* \"#utility.yul\":9965:10072   */\n      iszero\n      tag_317\n      jumpi\n        /* \"#utility.yul\":10052:10070   */\n      tag_318\n      tag_319\n      jump\t// in\n    tag_318:\n        /* \"#utility.yul\":9965:10072   */\n    tag_317:\n        /* \"#utility.yul\":10096:10097   */\n      dup3\n        /* \"#utility.yul\":10093:10094   */\n      dup3\n        /* \"#utility.yul\":10089:10098   */\n      add\n        /* \"#utility.yul\":10082:10098   */\n      swap1\n      pop\n        /* \"#utility.yul\":9799:10104   */\n      swap3\n      swap2\n      pop\n      pop\n      jump\t// out\n        /* \"#utility.yul\":10110:10301   */\n    tag_141:\n        /* \"#utility.yul\":10150:10154   */\n      0x00\n        /* \"#utility.yul\":10170:10190   */\n      tag_321\n        /* \"#utility.yul\":10188:10189   */\n      dup3\n        /* \"#utility.yul\":10170:10190   */\n      tag_285\n      jump\t// in\n    tag_321:\n        /* \"#utility.yul\":10165:10190   */\n      swap2\n      pop\n        /* \"#utility.yul\":10204:10224   */\n      tag_322\n        /* \"#utility.yul\":10222:10223   */\n      dup4\n        /* \"#utility.yul\":10204:10224   */\n      tag_285\n      jump\t// in\n    tag_322:\n        /* \"#utility.yul\":10199:10224   */\n      swap3\n      pop\n        /* \"#utility.yul\":10243:10244   */\n      dup3\n        /* \"#utility.yul\":10240:10241   */\n      dup3\n        /* \"#utility.yul\":10237:10245   */\n      lt\n        /* \"#utility.yul\":10234:10268   */\n      iszero\n      tag_323\n      jumpi\n        /* \"#utility.yul\":10248:10266   */\n      tag_324\n      tag_319\n      jump\t// in\n    tag_324:\n        /* \"#utility.yul\":10234:10268   */\n    tag_323:\n        /* \"#utility.yul\":10293:10294   */\n      dup3\n        /* \"#utility.yul\":10290:10291   */\n      dup3\n        /* \"#utility.yul\":10286:10295   */\n      sub\n        /* \"#utility.yul\":10278:10295   */\n      swap1\n      pop\n        /* \"#utility.yul\":10110:10301   */\n      swap3\n      swap2\n      pop\n      pop\n      jump\t// out\n        /* \"#utility.yul\":10307:10403   */\n    tag_251:\n        /* \"#utility.yul\":10344:10351   */\n      0x00\n        /* \"#utility.yul\":10373:10397   */\n      tag_326\n        /* \"#utility.yul\":10391:10396   */\n      dup3\n        /* \"#utility.yul\":10373:10397   */\n      tag_327\n      jump\t// in\n    tag_326:\n        /* \"#utility.yul\":10362:10397   */\n      swap1\n      pop\n        /* \"#utility.yul\":10307:10403   */\n      swap2\n      swap1\n      pop\n      jump\t// out\n        /* \"#utility.yul\":10409:10499   */\n    tag_255:\n        /* \"#utility.yul\":10443:10450   */\n      0x00\n        /* \"#utility.yul\":10486:10491   */\n      dup2\n        /* \"#utility.yul\":10479:10492   */\n      iszero\n        /* \"#utility.yul\":10472:10493   */\n      iszero\n        /* \"#utility.yul\":10461:10493   */\n      swap1\n      pop\n        /* \"#utility.yul\":10409:10499   */\n      swap2\n      swap1\n      pop\n      jump\t// out\n        /* \"#utility.yul\":10505:10631   */\n    tag_327:\n        /* \"#utility.yul\":10542:10549   */\n      0x00\n        /* \"#utility.yul\":10582:10624   */\n      0xffffffffffffffffffffffffffffffffffffffff\n        /* \"#utility.yul\":10575:10580   */\n      dup3\n        /* \"#utility.yul\":10571:10625   */\n      and\n        /* \"#utility.yul\":10560:10625   */\n      swap1\n      pop\n        /* \"#utility.yul\":10505:10631   */\n      swap2\n      swap1\n      pop\n      jump\t// out\n        /* \"#utility.yul\":10637:10714   */\n    tag_285:\n        /* \"#utility.yul\":10674:10681   */\n      0x00\n        /* \"#utility.yul\":10703:10708   */\n      dup2\n        /* \"#utility.yul\":10692:10708   */\n      swap1\n      pop\n        /* \"#utility.yul\":10637:10714   */\n      swap2\n      swap1\n      pop\n      jump\t// out\n        /* \"#utility.yul\":10720:10874   */\n    tag_187:\n        /* \"#utility.yul\":10804:10810   */\n      dup3\n        /* \"#utility.yul\":10799:10802   */\n      dup2\n        /* \"#utility.yul\":10794:10797   */\n      dup4\n        /* \"#utility.yul\":10781:10811   */\n      calldatacopy\n        /* \"#utility.yul\":10866:10867   */\n      0x00\n        /* \"#utility.yul\":10857:10863   */\n      dup4\n        /* \"#utility.yul\":10852:10855   */\n      dup4\n        /* \"#utility.yul\":10848:10864   */\n      add\n        /* \"#utility.yul\":10841:10868   */\n      mstore\n        /* \"#utility.yul\":10720:10874   */\n      pop\n      pop\n      pop\n      jump\t// out\n        /* \"#utility.yul\":10880:11187   */\n    tag_263:\n        /* \"#utility.yul\":10948:10949   */\n      0x00\n        /* \"#utility.yul\":10958:11071   */\n    tag_333:\n        /* \"#utility.yul\":10972:10978   */\n      dup4\n        /* \"#utility.yul\":10969:10970   */\n      dup2\n        /* \"#utility.yul\":10966:10979   */\n      lt\n        /* \"#utility.yul\":10958:11071   */\n      iszero\n      tag_335\n      jumpi\n        /* \"#utility.yul\":11057:11058   */\n      dup1\n        /* \"#utility.yul\":11052:11055   */\n      dup3\n        /* \"#utility.yul\":11048:11059   */\n      add\n        /* \"#utility.yul\":11042:11060   */\n      mload\n        /* \"#utility.yul\":11038:11039   */\n      dup2\n        /* \"#utility.yul\":11033:11036   */\n      dup5\n        /* \"#utility.yul\":11029:11040   */\n      add\n        /* \"#utility.yul\":11022:11061   */\n      mstore\n        /* \"#utility.yul\":10994:10996   */\n      0x20\n        /* \"#utility.yul\":10991:10992   */\n      dup2\n        /* \"#utility.yul\":10987:10997   */\n      add\n        /* \"#utility.yul\":10982:10997   */\n      swap1\n      pop\n        /* \"#utility.yul\":10958:11071   */\n      jump(tag_333)\n    tag_335:\n        /* \"#utility.yul\":11089:11095   */\n      dup4\n        /* \"#utility.yul\":11086:11087   */\n      dup2\n        /* \"#utility.yul\":11083:11096   */\n      gt\n        /* \"#utility.yul\":11080:11181   */\n      iszero\n      tag_336\n      jumpi\n        /* \"#utility.yul\":11169:11170   */\n      0x00\n        /* \"#utility.yul\":11160:11166   */\n      dup5\n        /* \"#utility.yul\":11155:11158   */\n      dup5\n        /* \"#utility.yul\":11151:11167   */\n      add\n        /* \"#utility.yul\":11144:11171   */\n      mstore\n        /* \"#utility.yul\":11080:11181   */\n    tag_336:\n        /* \"#utility.yul\":10929:11187   */\n      pop\n        /* \"#utility.yul\":10880:11187   */\n      pop\n      pop\n      pop\n      jump\t// out\n        /* \"#utility.yul\":11193:11513   */\n    tag_107:\n        /* \"#utility.yul\":11237:11243   */\n      0x00\n        /* \"#utility.yul\":11274:11275   */\n      0x02\n        /* \"#utility.yul\":11268:11272   */\n      dup3\n        /* \"#utility.yul\":11264:11276   */\n      div\n        /* \"#utility.yul\":11254:11276   */\n      swap1\n      pop\n        /* \"#utility.yul\":11321:11322   */\n      0x01\n        /* \"#utility.yul\":11315:11319   */\n      dup3\n        /* \"#utility.yul\":11311:11323   */\n      and\n        /* \"#utility.yul\":11342:11360   */\n      dup1\n        /* \"#utility.yul\":11332:11413   */\n      tag_338\n      jumpi\n        /* \"#utility.yul\":11398:11402   */\n      0x7f\n        /* \"#utility.yul\":11390:11396   */\n      dup3\n        /* \"#utility.yul\":11386:11403   */\n      and\n        /* \"#utility.yul\":11376:11403   */\n      swap2\n      pop\n        /* \"#utility.yul\":11332:11413   */\n    tag_338:\n        /* \"#utility.yul\":11460:11462   */\n      0x20\n        /* \"#utility.yul\":11452:11458   */\n      dup3\n        /* \"#utility.yul\":11449:11463   */\n      lt\n        /* \"#utility.yul\":11429:11447   */\n      dup2\n        /* \"#utility.yul\":11426:11464   */\n      eq\n        /* \"#utility.yul\":11423:11507   */\n      iszero\n      tag_339\n      jumpi\n        /* \"#utility.yul\":11479:11497   */\n      tag_340\n      tag_341\n      jump\t// in\n    tag_340:\n        /* \"#utility.yul\":11423:11507   */\n    tag_339:\n        /* \"#utility.yul\":11244:11513   */\n      pop\n        /* \"#utility.yul\":11193:11513   */\n      swap2\n      swap1\n      pop\n      jump\t// out\n        /* \"#utility.yul\":11519:11800   */\n    tag_304:\n        /* \"#utility.yul\":11602:11629   */\n      tag_343\n        /* \"#utility.yul\":11624:11628   */\n      dup3\n        /* \"#utility.yul\":11602:11629   */\n      tag_265\n      jump\t// in\n    tag_343:\n        /* \"#utility.yul\":11594:11600   */\n      dup2\n        /* \"#utility.yul\":11590:11630   */\n      add\n        /* \"#utility.yul\":11732:11738   */\n      dup2\n        /* \"#utility.yul\":11720:11730   */\n      dup2\n        /* \"#utility.yul\":11717:11739   */\n      lt\n        /* \"#utility.yul\":11696:11714   */\n      0xffffffffffffffff\n        /* \"#utility.yul\":11684:11694   */\n      dup3\n        /* \"#utility.yul\":11681:11715   */\n      gt\n        /* \"#utility.yul\":11678:11740   */\n      or\n        /* \"#utility.yul\":11675:11763   */\n      iszero\n      tag_344\n      jumpi\n        /* \"#utility.yul\":11743:11761   */\n      tag_345\n      tag_309\n      jump\t// in\n    tag_345:\n        /* \"#utility.yul\":11675:11763   */\n    tag_344:\n        /* \"#utility.yul\":11783:11793   */\n      dup1\n        /* \"#utility.yul\":11779:11781   */\n      0x40\n        /* \"#utility.yul\":11772:11794   */\n      mstore\n        /* \"#utility.yul\":11562:11800   */\n      pop\n        /* \"#utility.yul\":11519:11800   */\n      pop\n      pop\n      jump\t// out\n        /* \"#utility.yul\":11806:11986   */\n    tag_319:\n        /* \"#utility.yul\":11854:11931   */\n      0x4e487b7100000000000000000000000000000000000000000000000000000000\n        /* \"#utility.yul\":11851:11852   */\n      0x00\n        /* \"#utility.yul\":11844:11932   */\n      mstore\n        /* \"#utility.yul\":11951:11955   */\n      0x11\n        /* \"#utility.yul\":11948:11949   */\n      0x04\n        /* \"#utility.yul\":11941:11956   */\n      mstore\n        /* \"#utility.yul\":11975:11979   */\n      0x24\n        /* \"#utility.yul\":11972:11973   */\n      0x00\n        /* \"#utility.yul\":11965:11980   */\n      revert\n        /* \"#utility.yul\":11992:12172   */\n    tag_341:\n        /* \"#utility.yul\":12040:12117   */\n      0x4e487b7100000000000000000000000000000000000000000000000000000000\n        /* \"#utility.yul\":12037:12038   */\n      0x00\n        /* \"#utility.yul\":12030:12118   */\n      mstore\n        /* \"#utility.yul\":12137:12141   */\n      0x22\n        /* \"#utility.yul\":12134:12135   */\n      0x04\n        /* \"#utility.yul\":12127:12142   */\n      mstore\n        /* \"#utility.yul\":12161:12165   */\n      0x24\n        /* \"#utility.yul\":12158:12159   */\n      0x00\n        /* \"#utility.yul\":12151:12166   */\n      revert\n        /* \"#utility.yul\":12178:12358   */\n    tag_309:\n        /* \"#utility.yul\":12226:12303   */\n      0x4e487b7100000000000000000000000000000000000000000000000000000000\n        /* \"#utility.yul\":12223:12224   */\n      0x00\n        /* \"#utility.yul\":12216:12304   */\n      mstore\n        /* \"#utility.yul\":12323:12327   */\n      0x41\n        /* \"#utility.yul\":12320:12321   */\n      0x04\n        /* \"#utility.yul\":12313:12328   */\n      mstore\n        /* \"#utility.yul\":12347:12351   */\n      0x24\n        /* \"#utility.yul\":12344:12345   */\n      0x00\n        /* \"#utility.yul\":12337:12352   */\n      revert\n        /* \"#utility.yul\":12364:12481   */\n    tag_200:\n        /* \"#utility.yul\":12473:12474   */\n      0x00\n        /* \"#utility.yul\":12470:12471   */\n      dup1\n        /* \"#utility.yul\":12463:12475   */\n      revert\n        /* \"#utility.yul\":12487:12604   */\n    tag_185:\n        /* \"#utility.yul\":12596:12597   */\n      0x00\n        /* \"#utility.yul\":12593:12594   */\n      dup1\n        /* \"#utility.yul\":12586:12598   */\n      revert\n        /* \"#utility.yul\":12610:12727   */\n    tag_220:\n        /* \"#utility.yul\":12719:12720   */\n      0x00\n        /* \"#utility.yul\":12716:12717   */\n      dup1\n        /* \"#utility.yul\":12709:12721   */\n      revert\n        /* \"#utility.yul\":12733:12850   */\n    tag_209:\n        /* \"#utility.yul\":12842:12843   */\n      0x00\n        /* \"#utility.yul\":12839:12840   */\n      dup1\n        /* \"#utility.yul\":12832:12844   */\n      revert\n        /* \"#utility.yul\":12856:12958   */\n    tag_265:\n        /* \"#utility.yul\":12897:12903   */\n      0x00\n        /* \"#utility.yul\":12948:12950   */\n      0x1f\n        /* \"#utility.yul\":12944:12951   */\n      not\n        /* \"#utility.yul\":12939:12941   */\n      0x1f\n        /* \"#utility.yul\":12932:12937   */\n      dup4\n        /* \"#utility.yul\":12928:12942   */\n      add\n        /* \"#utility.yul\":12924:12952   */\n      and\n        /* \"#utility.yul\":12914:12952   */\n      swap1\n      pop\n        /* \"#utility.yul\":12856:12958   */\n      swap2\n      swap1\n      pop\n      jump\t// out\n        /* \"#utility.yul\":12964:13139   */\n    tag_276:\n        /* \"#utility.yul\":13104:13131   */\n      0x546f6e7920616c72656164792068617320746869732063617200000000000000\n        /* \"#utility.yul\":13100:13101   */\n      0x00\n        /* \"#utility.yul\":13092:13098   */\n      dup3\n        /* \"#utility.yul\":13088:13102   */\n      add\n        /* \"#utility.yul\":13081:13132   */\n      mstore\n        /* \"#utility.yul\":12964:13139   */\n      pop\n      jump\t// out\n        /* \"#utility.yul\":13145:13312   */\n    tag_281:\n        /* \"#utility.yul\":13285:13304   */\n      0x6e6f7420656e6f756768206d6f6e6e6579000000000000000000000000000000\n        /* \"#utility.yul\":13281:13282   */\n      0x00\n        /* \"#utility.yul\":13273:13279   */\n      dup3\n        /* \"#utility.yul\":13269:13283   */\n      add\n        /* \"#utility.yul\":13262:13305   */\n      mstore\n        /* \"#utility.yul\":13145:13312   */\n      pop\n      jump\t// out\n        /* \"#utility.yul\":13318:13440   */\n    tag_191:\n        /* \"#utility.yul\":13391:13415   */\n      tag_357\n        /* \"#utility.yul\":13409:13414   */\n      dup2\n        /* \"#utility.yul\":13391:13415   */\n      tag_251\n      jump\t// in\n    tag_357:\n        /* \"#utility.yul\":13384:13389   */\n      dup2\n        /* \"#utility.yul\":13381:13416   */\n      eq\n        /* \"#utility.yul\":13371:13434   */\n      tag_358\n      jumpi\n        /* \"#utility.yul\":13430:13431   */\n      0x00\n        /* \"#utility.yul\":13427:13428   */\n      dup1\n        /* \"#utility.yul\":13420:13432   */\n      revert\n        /* \"#utility.yul\":13371:13434   */\n    tag_358:\n        /* \"#utility.yul\":13318:13440   */\n      pop\n      jump\t// out\n        /* \"#utility.yul\":13446:13562   */\n    tag_195:\n        /* \"#utility.yul\":13516:13537   */\n      tag_360\n        /* \"#utility.yul\":13531:13536   */\n      dup2\n        /* \"#utility.yul\":13516:13537   */\n      tag_255\n      jump\t// in\n    tag_360:\n        /* \"#utility.yul\":13509:13514   */\n      dup2\n        /* \"#utility.yul\":13506:13538   */\n      eq\n        /* \"#utility.yul\":13496:13556   */\n      tag_361\n      jumpi\n        /* \"#utility.yul\":13552:13553   */\n      0x00\n        /* \"#utility.yul\":13549:13550   */\n      dup1\n        /* \"#utility.yul\":13542:13554   */\n      revert\n        /* \"#utility.yul\":13496:13556   */\n    tag_361:\n        /* \"#utility.yul\":13446:13562   */\n      pop\n      jump\t// out\n        /* \"#utility.yul\":13568:13690   */\n    tag_205:\n        /* \"#utility.yul\":13641:13665   */\n      tag_363\n        /* \"#utility.yul\":13659:13664   */\n      dup2\n        /* \"#utility.yul\":13641:13665   */\n      tag_285\n      jump\t// in\n    tag_363:\n        /* \"#utility.yul\":13634:13639   */\n      dup2\n        /* \"#utility.yul\":13631:13666   */\n      eq\n        /* \"#utility.yul\":13621:13684   */\n      tag_364\n      jumpi\n        /* \"#utility.yul\":13680:13681   */\n      0x00\n        /* \"#utility.yul\":13677:13678   */\n      dup1\n        /* \"#utility.yul\":13670:13682   */\n      revert\n        /* \"#utility.yul\":13621:13684   */\n    tag_364:\n        /* \"#utility.yul\":13568:13690   */\n      pop\n      jump\t// out\n\n    auxdata: 0xa2646970667358221220af796e56b61cb08e22845311260ff78bd55356fe5e95ce7ba4d0b8e73e005b0964736f6c63430008070033\n}\n",
				"bytecode": {
					"linkReferences": {},
					"object": "6080604052600080556040518060400160405280600b81526020017f546f6e792053747261726b000000000000000000000000000000000000000000815250600190805190602001906200005592919062000207565b5060306002556001600360006101000a81548160ff02191690831515021790555060405180606001604052806040518060400160405280600781526020017f706c6179626f790000000000000000000000000000000000000000000000000081525081526020016040518060400160405280600881526020017f656e67696e65657200000000000000000000000000000000000000000000000081525081526020016040518060400160405280600481526020017f6865726f0000000000000000000000000000000000000000000000000000000081525081525060059060036200014292919062000298565b503480156200015057600080fd5b506040516200184c3803806200184c8339818101604052810190620001769190620003ba565b33600860006101000a81548173ffffffffffffffffffffffffffffffffffffffff021916908373ffffffffffffffffffffffffffffffffffffffff1602179055508160048190555080600660006101000a81548173ffffffffffffffffffffffffffffffffffffffff021916908373ffffffffffffffffffffffffffffffffffffffff1602179055505050620004dd565b82805462000215906200043f565b90600052602060002090601f01602090048101928262000239576000855562000285565b82601f106200025457805160ff191683800117855562000285565b8280016001018555821562000285579182015b828111156200028457825182559160200191906001019062000267565b5b509050620002949190620002ff565b5090565b828054828255906000526020600020908101928215620002ec579160200282015b82811115620002eb578251829080519060200190620002da92919062000207565b5091602001919060010190620002b9565b5b509050620002fb91906200031e565b5090565b5b808211156200031a57600081600090555060010162000300565b5090565b5b8082111562000342576000818162000338919062000346565b506001016200031f565b5090565b50805462000354906200043f565b6000825580601f1062000368575062000389565b601f016020900490600052602060002090810190620003889190620002ff565b5b50565b6000815190506200039d81620004a9565b92915050565b600081519050620003b481620004c3565b92915050565b60008060408385031215620003d457620003d3620004a4565b5b6000620003e485828601620003a3565b9250506020620003f7858286016200038c565b9150509250929050565b60006200040e8262000415565b9050919050565b600073ffffffffffffffffffffffffffffffffffffffff82169050919050565b6000819050919050565b600060028204905060018216806200045857607f821691505b602082108114156200046f576200046e62000475565b5b50919050565b7f4e487b7100000000000000000000000000000000000000000000000000000000600052602260045260246000fd5b600080fd5b620004b48162000401565b8114620004c057600080fd5b50565b620004ce8162000435565b8114620004da57600080fd5b50565b61135f80620004ed6000396000f3fe608060405234801561001057600080fd5b506004361061012c5760003560e01c806387e8599f116100ad578063c8351be011610071578063c8351be01461035d578063cfb5843c14610379578063f9052ce214610395578063fc563658146103c5578063fcc9e5c5146103f55761012c565b806387e8599f146102a35780638b8930d3146102c15780638da5cb5b146102f1578063aed436821461030f578063b69ef8a81461033f5761012c565b8063449549d5116100f4578063449549d5146101eb5780635cd836a31461021b57806361a475c81461024b578063654a573c14610255578063853320e3146102735761012c565b806306fdde0314610131578063132996041461014f578063262a9dff1461016d5780632d47689c1461018b5780633171a39a146101bb575b600080fd5b610139610425565b6040516101469190610f6f565b60405180910390f35b6101576104b3565b6040516101649190610f39565b60405180910390f35b610175610537565b6040516101829190610fd1565b60405180910390f35b6101a560048036038101906101a09190610c4e565b61053d565b6040516101b29190610fd1565b60405180910390f35b6101d560048036038101906101d09190610c7b565b610555565b6040516101e29190610f6f565b60405180910390f35b61020560048036038101906102009190610dd8565b6105df565b6040516102129190610f6f565b60405180910390f35b61023560048036038101906102309190610dd8565b61068b565b6040516102429190610f6f565b60405180910390f35b610253610737565b005b61025d610739565b60405161026a9190610f54565b60405180910390f35b61028d60048036038101906102889190610ca8565b61074c565b60405161029a9190610fd1565b60405180910390f35b6102ab61077a565b6040516102b89190610fd1565b60405180910390f35b6102db60048036038101906102d69190610e05565b610790565b6040516102e89190610fd1565b60405180910390f35b6102f961083e565b6040516103069190610f39565b60405180910390f35b61032960048036038101906103249190610ca8565b610864565b6040516103369190610fd1565b60405180910390f35b610347610892565b6040516103549190610fd1565b60405180910390f35b61037760048036038101906103729190610d69565b610898565b005b610393600480360381019061038e9190610ca8565b61098c565b005b6103af60048036038101906103aa9190610cf1565b6109cb565b6040516103bc9190610f6f565b60405180910390f35b6103df60048036038101906103da9190610dd8565b610aa4565b6040516103ec9190610fd1565b60405180910390f35b61040f600480360381019061040a9190610ca8565b610ac6565b60405161041c9190610f54565b60405180910390f35b600180546104329061117d565b80601f016020809104026020016040519081016040528092919081815260200182805461045e9061117d565b80156104ab5780601f10610480576101008083540402835291602001916104ab565b820191906000526020600020905b81548152906001019060200180831161048e57829003601f168201915b505050505081565b6000600860009054906101000a900473ffffffffffffffffffffffffffffffffffffffff1673ffffffffffffffffffffffffffffffffffffffff163373ffffffffffffffffffffffffffffffffffffffff161461050f57600080fd5b600660009054906101000a900473ffffffffffffffffffffffffffffffffffffffff16905090565b60025481565b600c6020528060005260406000206000915090505481565b60606001151582151514156105a1576040518060400160405280600781526020017f77656c636f6d650000000000000000000000000000000000000000000000000081525090506105da565b6040518060400160405280600781526020017f476574206f75740000000000000000000000000000000000000000000000000081525090505b919050565b600781815481106105ef57600080fd5b90600052602060002001600091509050805461060a9061117d565b80601f01602080910402602001604051908101604052809291908181526020018280546106369061117d565b80156106835780601f1061065857610100808354040283529160200191610683565b820191906000526020600020905b81548152906001019060200180831161066657829003601f168201915b505050505081565b6005818154811061069b57600080fd5b9060005260206000200160009150905080546106b69061117d565b80601f01602080910402602001604051908101604052809291908181526020018280546106e29061117d565b801561072f5780601f106107045761010080835404028352916020019161072f565b820191906000526020600020905b81548152906001019060200180831161071257829003601f168201915b505050505081565b565b600360009054906101000a900460ff1681565b6009818051602081018201805184825260208301602085012081835280955050505050506000915090505481565b6000600160005461078b9190611069565b905090565b600082600454116107d6576040517f08c379a00000000000000000000000000000000000000000000000000000000081526004016107cd90610fb1565b60405180910390fd5b82600460008282546107e891906110bf565b9250508190555082600c60008473ffffffffffffffffffffffffffffffffffffffff1673ffffffffffffffffffffffffffffffffffffffff16815260200190815260200160002081905550600454905092915050565b600860009054906101000a900473ffffffffffffffffffffffffffffffffffffffff1681565b600b818051602081018201805184825260208301602085012081835280955050505050506000915090505481565b60045481565b60001515600a846040516108ac9190610f22565b908152602001604051809103902060009054906101000a900460ff1615151461090a576040517f08c379a000000000000000000000000000000000000000000000000000000000815260040161090190610f91565b60405180910390fd5b8160098460405161091b9190610f22565b90815260200160405180910390208190555080600b8460405161093e9190610f22565b9081526020016040518091039020819055506001600a846040516109629190610f22565b908152602001604051809103902060006101000a81548160ff021916908315150217905550505050565b6007819080600181540180825580915050600190039060005260206000200160009091909190915090805190602001906109c7929190610afc565b5050565b6060600b826040516109dd9190610f22565b908152602001604051809103902054600b846040516109fc9190610f22565b9081526020016040518091039020541015610a1957819050610a9e565b600b82604051610a299190610f22565b908152602001604051809103902054600b84604051610a489190610f22565b9081526020016040518091039020541115610a6557829050610a9e565b6040518060400160405280600281526020017f6e6f00000000000000000000000000000000000000000000000000000000000081525090505b92915050565b600080829050600081600054610aba9190611069565b90508092505050919050565b600a818051602081018201805184825260208301602085012081835280955050505050506000915054906101000a900460ff1681565b828054610b089061117d565b90600052602060002090601f016020900481019282610b2a5760008555610b71565b82601f10610b4357805160ff1916838001178555610b71565b82800160010185558215610b71579182015b82811115610b70578251825591602001919060010190610b55565b5b509050610b7e9190610b82565b5090565b5b80821115610b9b576000816000905550600101610b83565b5090565b6000610bb2610bad84611011565b610fec565b905082815260208101848484011115610bce57610bcd611272565b5b610bd984828561113b565b509392505050565b600081359050610bf0816112e4565b92915050565b600081359050610c05816112fb565b92915050565b600082601f830112610c2057610c1f61126d565b5b8135610c30848260208601610b9f565b91505092915050565b600081359050610c4881611312565b92915050565b600060208284031215610c6457610c6361127c565b5b6000610c7284828501610be1565b91505092915050565b600060208284031215610c9157610c9061127c565b5b6000610c9f84828501610bf6565b91505092915050565b600060208284031215610cbe57610cbd61127c565b5b600082013567ffffffffffffffff811115610cdc57610cdb611277565b5b610ce884828501610c0b565b91505092915050565b60008060408385031215610d0857610d0761127c565b5b600083013567ffffffffffffffff811115610d2657610d25611277565b5b610d3285828601610c0b565b925050602083013567ffffffffffffffff811115610d5357610d52611277565b5b610d5f85828601610c0b565b9150509250929050565b600080600060608486031215610d8257610d8161127c565b5b600084013567ffffffffffffffff811115610da057610d9f611277565b5b610dac86828701610c0b565b9350506020610dbd86828701610c39565b9250506040610dce86828701610c39565b9150509250925092565b600060208284031215610dee57610ded61127c565b5b6000610dfc84828501610c39565b91505092915050565b60008060408385031215610e1c57610e1b61127c565b5b6000610e2a85828601610c39565b9250506020610e3b85828601610be1565b9150509250929050565b610e4e816110f3565b82525050565b610e5d81611105565b82525050565b6000610e6e82611042565b610e78818561104d565b9350610e8881856020860161114a565b610e9181611281565b840191505092915050565b6000610ea782611042565b610eb1818561105e565b9350610ec181856020860161114a565b80840191505092915050565b6000610eda60198361104d565b9150610ee582611292565b602082019050919050565b6000610efd60118361104d565b9150610f08826112bb565b602082019050919050565b610f1c81611131565b82525050565b6000610f2e8284610e9c565b915081905092915050565b6000602082019050610f4e6000830184610e45565b92915050565b6000602082019050610f696000830184610e54565b92915050565b60006020820190508181036000830152610f898184610e63565b905092915050565b60006020820190508181036000830152610faa81610ecd565b9050919050565b60006020820190508181036000830152610fca81610ef0565b9050919050565b6000602082019050610fe66000830184610f13565b92915050565b6000610ff6611007565b905061100282826111af565b919050565b6000604051905090565b600067ffffffffffffffff82111561102c5761102b61123e565b5b61103582611281565b9050602081019050919050565b600081519050919050565b600082825260208201905092915050565b600081905092915050565b600061107482611131565b915061107f83611131565b9250827fffffffffffffffffffffffffffffffffffffffffffffffffffffffffffffffff038211156110b4576110b36111e0565b5b828201905092915050565b60006110ca82611131565b91506110d583611131565b9250828210156110e8576110e76111e0565b5b828203905092915050565b60006110fe82611111565b9050919050565b60008115159050919050565b600073ffffffffffffffffffffffffffffffffffffffff82169050919050565b6000819050919050565b82818337600083830152505050565b60005b8381101561116857808201518184015260208101905061114d565b83811115611177576000848401525b50505050565b6000600282049050600182168061119557607f821691505b602082108114156111a9576111a861120f565b5b50919050565b6111b882611281565b810181811067ffffffffffffffff821117156111d7576111d661123e565b5b80604052505050565b7f4e487b7100000000000000000000000000000000000000000000000000000000600052601160045260246000fd5b7f4e487b7100000000000000000000000000000000000000000000000000000000600052602260045260246000fd5b7f4e487b7100000000000000000000000000000000000000000000000000000000600052604160045260246000fd5b600080fd5b600080fd5b600080fd5b600080fd5b6000601f19601f8301169050919050565b7f546f6e7920616c72656164792068617320746869732063617200000000000000600082015250565b7f6e6f7420656e6f756768206d6f6e6e6579000000000000000000000000000000600082015250565b6112ed816110f3565b81146112f857600080fd5b50565b61130481611105565b811461130f57600080fd5b50565b61131b81611131565b811461132657600080fd5b5056fea2646970667358221220af796e56b61cb08e22845311260ff78bd55356fe5e95ce7ba4d0b8e73e005b0964736f6c63430008070033",
					"opcodes": "PUSH1 0x80 PUSH1 0x40 MSTORE PUSH1 0x0 DUP1 SSTORE PUSH1 0x40 MLOAD DUP1 PUSH1 0x40 ADD PUSH1 0x40 MSTORE DUP1 PUSH1 0xB DUP2 MSTORE PUSH1 0x20 ADD PUSH32 0x546F6E792053747261726B000000000000000000000000000000000000000000 DUP2 MSTORE POP PUSH1 0x1 SWAP1 DUP1 MLOAD SWAP1 PUSH1 0x20 ADD SWAP1 PUSH3 0x55 SWAP3 SWAP2 SWAP1 PUSH3 0x207 JUMP JUMPDEST POP PUSH1 0x30 PUSH1 0x2 SSTORE PUSH1 0x1 PUSH1 0x3 PUSH1 0x0 PUSH2 0x100 EXP DUP2 SLOAD DUP2 PUSH1 0xFF MUL NOT AND SWAP1 DUP4 ISZERO ISZERO MUL OR SWAP1 SSTORE POP PUSH1 0x40 MLOAD DUP1 PUSH1 0x60 ADD PUSH1 0x40 MSTORE DUP1 PUSH1 0x40 MLOAD DUP1 PUSH1 0x40 ADD PUSH1 0x40 MSTORE DUP1 PUSH1 0x7 DUP2 MSTORE PUSH1 0x20 ADD PUSH32 0x706C6179626F7900000000000000000000000000000000000000000000000000 DUP2 MSTORE POP DUP2 MSTORE PUSH1 0x20 ADD PUSH1 0x40 MLOAD DUP1 PUSH1 0x40 ADD PUSH1 0x40 MSTORE DUP1 PUSH1 0x8 DUP2 MSTORE PUSH1 0x20 ADD PUSH32 0x656E67696E656572000000000000000000000000000000000000000000000000 DUP2 MSTORE POP DUP2 MSTORE PUSH1 0x20 ADD PUSH1 0x40 MLOAD DUP1 PUSH1 0x40 ADD PUSH1 0x40 MSTORE DUP1 PUSH1 0x4 DUP2 MSTORE PUSH1 0x20 ADD PUSH32 0x6865726F00000000000000000000000000000000000000000000000000000000 DUP2 MSTORE POP DUP2 MSTORE POP PUSH1 0x5 SWAP1 PUSH1 0x3 PUSH3 0x142 SWAP3 SWAP2 SWAP1 PUSH3 0x298 JUMP JUMPDEST POP CALLVALUE DUP1 ISZERO PUSH3 0x150 JUMPI PUSH1 0x0 DUP1 REVERT JUMPDEST POP PUSH1 0x40 MLOAD PUSH3 0x184C CODESIZE SUB DUP1 PUSH3 0x184C DUP4 CODECOPY DUP2 DUP2 ADD PUSH1 0x40 MSTORE DUP2 ADD SWAP1 PUSH3 0x176 SWAP2 SWAP1 PUSH3 0x3BA JUMP JUMPDEST CALLER PUSH1 0x8 PUSH1 0x0 PUSH2 0x100 EXP DUP2 SLOAD DUP2 PUSH20 0xFFFFFFFFFFFFFFFFFFFFFFFFFFFFFFFFFFFFFFFF MUL NOT AND SWAP1 DUP4 PUSH20 0xFFFFFFFFFFFFFFFFFFFFFFFFFFFFFFFFFFFFFFFF AND MUL OR SWAP1 SSTORE POP DUP2 PUSH1 0x4 DUP2 SWAP1 SSTORE POP DUP1 PUSH1 0x6 PUSH1 0x0 PUSH2 0x100 EXP DUP2 SLOAD DUP2 PUSH20 0xFFFFFFFFFFFFFFFFFFFFFFFFFFFFFFFFFFFFFFFF MUL NOT AND SWAP1 DUP4 PUSH20 0xFFFFFFFFFFFFFFFFFFFFFFFFFFFFFFFFFFFFFFFF AND MUL OR SWAP1 SSTORE POP POP POP PUSH3 0x4DD JUMP JUMPDEST DUP3 DUP1 SLOAD PUSH3 0x215 SWAP1 PUSH3 0x43F JUMP JUMPDEST SWAP1 PUSH1 0x0 MSTORE PUSH1 0x20 PUSH1 0x0 KECCAK256 SWAP1 PUSH1 0x1F ADD PUSH1 0x20 SWAP1 DIV DUP2 ADD SWAP3 DUP3 PUSH3 0x239 JUMPI PUSH1 0x0 DUP6 SSTORE PUSH3 0x285 JUMP JUMPDEST DUP3 PUSH1 0x1F LT PUSH3 0x254 JUMPI DUP1 MLOAD PUSH1 0xFF NOT AND DUP4 DUP1 ADD OR DUP6 SSTORE PUSH3 0x285 JUMP JUMPDEST DUP3 DUP1 ADD PUSH1 0x1 ADD DUP6 SSTORE DUP3 ISZERO PUSH3 0x285 JUMPI SWAP2 DUP3 ADD JUMPDEST DUP3 DUP2 GT ISZERO PUSH3 0x284 JUMPI DUP3 MLOAD DUP3 SSTORE SWAP2 PUSH1 0x20 ADD SWAP2 SWAP1 PUSH1 0x1 ADD SWAP1 PUSH3 0x267 JUMP JUMPDEST JUMPDEST POP SWAP1 POP PUSH3 0x294 SWAP2 SWAP1 PUSH3 0x2FF JUMP JUMPDEST POP SWAP1 JUMP JUMPDEST DUP3 DUP1 SLOAD DUP3 DUP3 SSTORE SWAP1 PUSH1 0x0 MSTORE PUSH1 0x20 PUSH1 0x0 KECCAK256 SWAP1 DUP2 ADD SWAP3 DUP3 ISZERO PUSH3 0x2EC JUMPI SWAP2 PUSH1 0x20 MUL DUP3 ADD JUMPDEST DUP3 DUP2 GT ISZERO PUSH3 0x2EB JUMPI DUP3 MLOAD DUP3 SWAP1 DUP1 MLOAD SWAP1 PUSH1 0x20 ADD SWAP1 PUSH3 0x2DA SWAP3 SWAP2 SWAP1 PUSH3 0x207 JUMP JUMPDEST POP SWAP2 PUSH1 0x20 ADD SWAP2 SWAP1 PUSH1 0x1 ADD SWAP1 PUSH3 0x2B9 JUMP JUMPDEST JUMPDEST POP SWAP1 POP PUSH3 0x2FB SWAP2 SWAP1 PUSH3 0x31E JUMP JUMPDEST POP SWAP1 JUMP JUMPDEST JUMPDEST DUP1 DUP3 GT ISZERO PUSH3 0x31A JUMPI PUSH1 0x0 DUP2 PUSH1 0x0 SWAP1 SSTORE POP PUSH1 0x1 ADD PUSH3 0x300 JUMP JUMPDEST POP SWAP1 JUMP JUMPDEST JUMPDEST DUP1 DUP3 GT ISZERO PUSH3 0x342 JUMPI PUSH1 0x0 DUP2 DUP2 PUSH3 0x338 SWAP2 SWAP1 PUSH3 0x346 JUMP JUMPDEST POP PUSH1 0x1 ADD PUSH3 0x31F JUMP JUMPDEST POP SWAP1 JUMP JUMPDEST POP DUP1 SLOAD PUSH3 0x354 SWAP1 PUSH3 0x43F JUMP JUMPDEST PUSH1 0x0 DUP3 SSTORE DUP1 PUSH1 0x1F LT PUSH3 0x368 JUMPI POP PUSH3 0x389 JUMP JUMPDEST PUSH1 0x1F ADD PUSH1 0x20 SWAP1 DIV SWAP1 PUSH1 0x0 MSTORE PUSH1 0x20 PUSH1 0x0 KECCAK256 SWAP1 DUP2 ADD SWAP1 PUSH3 0x388 SWAP2 SWAP1 PUSH3 0x2FF JUMP JUMPDEST JUMPDEST POP JUMP JUMPDEST PUSH1 0x0 DUP2 MLOAD SWAP1 POP PUSH3 0x39D DUP2 PUSH3 0x4A9 JUMP JUMPDEST SWAP3 SWAP2 POP POP JUMP JUMPDEST PUSH1 0x0 DUP2 MLOAD SWAP1 POP PUSH3 0x3B4 DUP2 PUSH3 0x4C3 JUMP JUMPDEST SWAP3 SWAP2 POP POP JUMP JUMPDEST PUSH1 0x0 DUP1 PUSH1 0x40 DUP4 DUP6 SUB SLT ISZERO PUSH3 0x3D4 JUMPI PUSH3 0x3D3 PUSH3 0x4A4 JUMP JUMPDEST JUMPDEST PUSH1 0x0 PUSH3 0x3E4 DUP6 DUP3 DUP7 ADD PUSH3 0x3A3 JUMP JUMPDEST SWAP3 POP POP PUSH1 0x20 PUSH3 0x3F7 DUP6 DUP3 DUP7 ADD PUSH3 0x38C JUMP JUMPDEST SWAP2 POP POP SWAP3 POP SWAP3 SWAP1 POP JUMP JUMPDEST PUSH1 0x0 PUSH3 0x40E DUP3 PUSH3 0x415 JUMP JUMPDEST SWAP1 POP SWAP2 SWAP1 POP JUMP JUMPDEST PUSH1 0x0 PUSH20 0xFFFFFFFFFFFFFFFFFFFFFFFFFFFFFFFFFFFFFFFF DUP3 AND SWAP1 POP SWAP2 SWAP1 POP JUMP JUMPDEST PUSH1 0x0 DUP2 SWAP1 POP SWAP2 SWAP1 POP JUMP JUMPDEST PUSH1 0x0 PUSH1 0x2 DUP3 DIV SWAP1 POP PUSH1 0x1 DUP3 AND DUP1 PUSH3 0x458 JUMPI PUSH1 0x7F DUP3 AND SWAP2 POP JUMPDEST PUSH1 0x20 DUP3 LT DUP2 EQ ISZERO PUSH3 0x46F JUMPI PUSH3 0x46E PUSH3 0x475 JUMP JUMPDEST JUMPDEST POP SWAP2 SWAP1 POP JUMP JUMPDEST PUSH32 0x4E487B7100000000000000000000000000000000000000000000000000000000 PUSH1 0x0 MSTORE PUSH1 0x22 PUSH1 0x4 MSTORE PUSH1 0x24 PUSH1 0x0 REVERT JUMPDEST PUSH1 0x0 DUP1 REVERT JUMPDEST PUSH3 0x4B4 DUP2 PUSH3 0x401 JUMP JUMPDEST DUP2 EQ PUSH3 0x4C0 JUMPI PUSH1 0x0 DUP1 REVERT JUMPDEST POP JUMP JUMPDEST PUSH3 0x4CE DUP2 PUSH3 0x435 JUMP JUMPDEST DUP2 EQ PUSH3 0x4DA JUMPI PUSH1 0x0 DUP1 REVERT JUMPDEST POP JUMP JUMPDEST PUSH2 0x135F DUP1 PUSH3 0x4ED PUSH1 0x0 CODECOPY PUSH1 0x0 RETURN INVALID PUSH1 0x80 PUSH1 0x40 MSTORE CALLVALUE DUP1 ISZERO PUSH2 0x10 JUMPI PUSH1 0x0 DUP1 REVERT JUMPDEST POP PUSH1 0x4 CALLDATASIZE LT PUSH2 0x12C JUMPI PUSH1 0x0 CALLDATALOAD PUSH1 0xE0 SHR DUP1 PUSH4 0x87E8599F GT PUSH2 0xAD JUMPI DUP1 PUSH4 0xC8351BE0 GT PUSH2 0x71 JUMPI DUP1 PUSH4 0xC8351BE0 EQ PUSH2 0x35D JUMPI DUP1 PUSH4 0xCFB5843C EQ PUSH2 0x379 JUMPI DUP1 PUSH4 0xF9052CE2 EQ PUSH2 0x395 JUMPI DUP1 PUSH4 0xFC563658 EQ PUSH2 0x3C5 JUMPI DUP1 PUSH4 0xFCC9E5C5 EQ PUSH2 0x3F5 JUMPI PUSH2 0x12C JUMP JUMPDEST DUP1 PUSH4 0x87E8599F EQ PUSH2 0x2A3 JUMPI DUP1 PUSH4 0x8B8930D3 EQ PUSH2 0x2C1 JUMPI DUP1 PUSH4 0x8DA5CB5B EQ PUSH2 0x2F1 JUMPI DUP1 PUSH4 0xAED43682 EQ PUSH2 0x30F JUMPI DUP1 PUSH4 0xB69EF8A8 EQ PUSH2 0x33F JUMPI PUSH2 0x12C JUMP JUMPDEST DUP1 PUSH4 0x449549D5 GT PUSH2 0xF4 JUMPI DUP1 PUSH4 0x449549D5 EQ PUSH2 0x1EB JUMPI DUP1 PUSH4 0x5CD836A3 EQ PUSH2 0x21B JUMPI DUP1 PUSH4 0x61A475C8 EQ PUSH2 0x24B JUMPI DUP1 PUSH4 0x654A573C EQ PUSH2 0x255 JUMPI DUP1 PUSH4 0x853320E3 EQ PUSH2 0x273 JUMPI PUSH2 0x12C JUMP JUMPDEST DUP1 PUSH4 0x6FDDE03 EQ PUSH2 0x131 JUMPI DUP1 PUSH4 0x13299604 EQ PUSH2 0x14F JUMPI DUP1 PUSH4 0x262A9DFF EQ PUSH2 0x16D JUMPI DUP1 PUSH4 0x2D47689C EQ PUSH2 0x18B JUMPI DUP1 PUSH4 0x3171A39A EQ PUSH2 0x1BB JUMPI JUMPDEST PUSH1 0x0 DUP1 REVERT JUMPDEST PUSH2 0x139 PUSH2 0x425 JUMP JUMPDEST PUSH1 0x40 MLOAD PUSH2 0x146 SWAP2 SWAP1 PUSH2 0xF6F JUMP JUMPDEST PUSH1 0x40 MLOAD DUP1 SWAP2 SUB SWAP1 RETURN JUMPDEST PUSH2 0x157 PUSH2 0x4B3 JUMP JUMPDEST PUSH1 0x40 MLOAD PUSH2 0x164 SWAP2 SWAP1 PUSH2 0xF39 JUMP JUMPDEST PUSH1 0x40 MLOAD DUP1 SWAP2 SUB SWAP1 RETURN JUMPDEST PUSH2 0x175 PUSH2 0x537 JUMP JUMPDEST PUSH1 0x40 MLOAD PUSH2 0x182 SWAP2 SWAP1 PUSH2 0xFD1 JUMP JUMPDEST PUSH1 0x40 MLOAD DUP1 SWAP2 SUB SWAP1 RETURN JUMPDEST PUSH2 0x1A5 PUSH1 0x4 DUP1 CALLDATASIZE SUB DUP2 ADD SWAP1 PUSH2 0x1A0 SWAP2 SWAP1 PUSH2 0xC4E JUMP JUMPDEST PUSH2 0x53D JUMP JUMPDEST PUSH1 0x40 MLOAD PUSH2 0x1B2 SWAP2 SWAP1 PUSH2 0xFD1 JUMP JUMPDEST PUSH1 0x40 MLOAD DUP1 SWAP2 SUB SWAP1 RETURN JUMPDEST PUSH2 0x1D5 PUSH1 0x4 DUP1 CALLDATASIZE SUB DUP2 ADD SWAP1 PUSH2 0x1D0 SWAP2 SWAP1 PUSH2 0xC7B JUMP JUMPDEST PUSH2 0x555 JUMP JUMPDEST PUSH1 0x40 MLOAD PUSH2 0x1E2 SWAP2 SWAP1 PUSH2 0xF6F JUMP JUMPDEST PUSH1 0x40 MLOAD DUP1 SWAP2 SUB SWAP1 RETURN JUMPDEST PUSH2 0x205 PUSH1 0x4 DUP1 CALLDATASIZE SUB DUP2 ADD SWAP1 PUSH2 0x200 SWAP2 SWAP1 PUSH2 0xDD8 JUMP JUMPDEST PUSH2 0x5DF JUMP JUMPDEST PUSH1 0x40 MLOAD PUSH2 0x212 SWAP2 SWAP1 PUSH2 0xF6F JUMP JUMPDEST PUSH1 0x40 MLOAD DUP1 SWAP2 SUB SWAP1 RETURN JUMPDEST PUSH2 0x235 PUSH1 0x4 DUP1 CALLDATASIZE SUB DUP2 ADD SWAP1 PUSH2 0x230 SWAP2 SWAP1 PUSH2 0xDD8 JUMP JUMPDEST PUSH2 0x68B JUMP JUMPDEST PUSH1 0x40 MLOAD PUSH2 0x242 SWAP2 SWAP1 PUSH2 0xF6F JUMP JUMPDEST PUSH1 0x40 MLOAD DUP1 SWAP2 SUB SWAP1 RETURN JUMPDEST PUSH2 0x253 PUSH2 0x737 JUMP JUMPDEST STOP JUMPDEST PUSH2 0x25D PUSH2 0x739 JUMP JUMPDEST PUSH1 0x40 MLOAD PUSH2 0x26A SWAP2 SWAP1 PUSH2 0xF54 JUMP JUMPDEST PUSH1 0x40 MLOAD DUP1 SWAP2 SUB SWAP1 RETURN JUMPDEST PUSH2 0x28D PUSH1 0x4 DUP1 CALLDATASIZE SUB DUP2 ADD SWAP1 PUSH2 0x288 SWAP2 SWAP1 PUSH2 0xCA8 JUMP JUMPDEST PUSH2 0x74C JUMP JUMPDEST PUSH1 0x40 MLOAD PUSH2 0x29A SWAP2 SWAP1 PUSH2 0xFD1 JUMP JUMPDEST PUSH1 0x40 MLOAD DUP1 SWAP2 SUB SWAP1 RETURN JUMPDEST PUSH2 0x2AB PUSH2 0x77A JUMP JUMPDEST PUSH1 0x40 MLOAD PUSH2 0x2B8 SWAP2 SWAP1 PUSH2 0xFD1 JUMP JUMPDEST PUSH1 0x40 MLOAD DUP1 SWAP2 SUB SWAP1 RETURN JUMPDEST PUSH2 0x2DB PUSH1 0x4 DUP1 CALLDATASIZE SUB DUP2 ADD SWAP1 PUSH2 0x2D6 SWAP2 SWAP1 PUSH2 0xE05 JUMP JUMPDEST PUSH2 0x790 JUMP JUMPDEST PUSH1 0x40 MLOAD PUSH2 0x2E8 SWAP2 SWAP1 PUSH2 0xFD1 JUMP JUMPDEST PUSH1 0x40 MLOAD DUP1 SWAP2 SUB SWAP1 RETURN JUMPDEST PUSH2 0x2F9 PUSH2 0x83E JUMP JUMPDEST PUSH1 0x40 MLOAD PUSH2 0x306 SWAP2 SWAP1 PUSH2 0xF39 JUMP JUMPDEST PUSH1 0x40 MLOAD DUP1 SWAP2 SUB SWAP1 RETURN JUMPDEST PUSH2 0x329 PUSH1 0x4 DUP1 CALLDATASIZE SUB DUP2 ADD SWAP1 PUSH2 0x324 SWAP2 SWAP1 PUSH2 0xCA8 JUMP JUMPDEST PUSH2 0x864 JUMP JUMPDEST PUSH1 0x40 MLOAD PUSH2 0x336 SWAP2 SWAP1 PUSH2 0xFD1 JUMP JUMPDEST PUSH1 0x40 MLOAD DUP1 SWAP2 SUB SWAP1 RETURN JUMPDEST PUSH2 0x347 PUSH2 0x892 JUMP JUMPDEST PUSH1 0x40 MLOAD PUSH2 0x354 SWAP2 SWAP1 PUSH2 0xFD1 JUMP JUMPDEST PUSH1 0x40 MLOAD DUP1 SWAP2 SUB SWAP1 RETURN JUMPDEST PUSH2 0x377 PUSH1 0x4 DUP1 CALLDATASIZE SUB DUP2 ADD SWAP1 PUSH2 0x372 SWAP2 SWAP1 PUSH2 0xD69 JUMP JUMPDEST PUSH2 0x898 JUMP JUMPDEST STOP JUMPDEST PUSH2 0x393 PUSH1 0x4 DUP1 CALLDATASIZE SUB DUP2 ADD SWAP1 PUSH2 0x38E SWAP2 SWAP1 PUSH2 0xCA8 JUMP JUMPDEST PUSH2 0x98C JUMP JUMPDEST STOP JUMPDEST PUSH2 0x3AF PUSH1 0x4 DUP1 CALLDATASIZE SUB DUP2 ADD SWAP1 PUSH2 0x3AA SWAP2 SWAP1 PUSH2 0xCF1 JUMP JUMPDEST PUSH2 0x9CB JUMP JUMPDEST PUSH1 0x40 MLOAD PUSH2 0x3BC SWAP2 SWAP1 PUSH2 0xF6F JUMP JUMPDEST PUSH1 0x40 MLOAD DUP1 SWAP2 SUB SWAP1 RETURN JUMPDEST PUSH2 0x3DF PUSH1 0x4 DUP1 CALLDATASIZE SUB DUP2 ADD SWAP1 PUSH2 0x3DA SWAP2 SWAP1 PUSH2 0xDD8 JUMP JUMPDEST PUSH2 0xAA4 JUMP JUMPDEST PUSH1 0x40 MLOAD PUSH2 0x3EC SWAP2 SWAP1 PUSH2 0xFD1 JUMP JUMPDEST PUSH1 0x40 MLOAD DUP1 SWAP2 SUB SWAP1 RETURN JUMPDEST PUSH2 0x40F PUSH1 0x4 DUP1 CALLDATASIZE SUB DUP2 ADD SWAP1 PUSH2 0x40A SWAP2 SWAP1 PUSH2 0xCA8 JUMP JUMPDEST PUSH2 0xAC6 JUMP JUMPDEST PUSH1 0x40 MLOAD PUSH2 0x41C SWAP2 SWAP1 PUSH2 0xF54 JUMP JUMPDEST PUSH1 0x40 MLOAD DUP1 SWAP2 SUB SWAP1 RETURN JUMPDEST PUSH1 0x1 DUP1 SLOAD PUSH2 0x432 SWAP1 PUSH2 0x117D JUMP JUMPDEST DUP1 PUSH1 0x1F ADD PUSH1 0x20 DUP1 SWAP2 DIV MUL PUSH1 0x20 ADD PUSH1 0x40 MLOAD SWAP1 DUP2 ADD PUSH1 0x40 MSTORE DUP1 SWAP3 SWAP2 SWAP1 DUP2 DUP2 MSTORE PUSH1 0x20 ADD DUP3 DUP1 SLOAD PUSH2 0x45E SWAP1 PUSH2 0x117D JUMP JUMPDEST DUP1 ISZERO PUSH2 0x4AB JUMPI DUP1 PUSH1 0x1F LT PUSH2 0x480 JUMPI PUSH2 0x100 DUP1 DUP4 SLOAD DIV MUL DUP4 MSTORE SWAP2 PUSH1 0x20 ADD SWAP2 PUSH2 0x4AB JUMP JUMPDEST DUP3 ADD SWAP2 SWAP1 PUSH1 0x0 MSTORE PUSH1 0x20 PUSH1 0x0 KECCAK256 SWAP1 JUMPDEST DUP2 SLOAD DUP2 MSTORE SWAP1 PUSH1 0x1 ADD SWAP1 PUSH1 0x20 ADD DUP1 DUP4 GT PUSH2 0x48E JUMPI DUP3 SWAP1 SUB PUSH1 0x1F AND DUP3 ADD SWAP2 JUMPDEST POP POP POP POP POP DUP2 JUMP JUMPDEST PUSH1 0x0 PUSH1 0x8 PUSH1 0x0 SWAP1 SLOAD SWAP1 PUSH2 0x100 EXP SWAP1 DIV PUSH20 0xFFFFFFFFFFFFFFFFFFFFFFFFFFFFFFFFFFFFFFFF AND PUSH20 0xFFFFFFFFFFFFFFFFFFFFFFFFFFFFFFFFFFFFFFFF AND CALLER PUSH20 0xFFFFFFFFFFFFFFFFFFFFFFFFFFFFFFFFFFFFFFFF AND EQ PUSH2 0x50F JUMPI PUSH1 0x0 DUP1 REVERT JUMPDEST PUSH1 0x6 PUSH1 0x0 SWAP1 SLOAD SWAP1 PUSH2 0x100 EXP SWAP1 DIV PUSH20 0xFFFFFFFFFFFFFFFFFFFFFFFFFFFFFFFFFFFFFFFF AND SWAP1 POP SWAP1 JUMP JUMPDEST PUSH1 0x2 SLOAD DUP2 JUMP JUMPDEST PUSH1 0xC PUSH1 0x20 MSTORE DUP1 PUSH1 0x0 MSTORE PUSH1 0x40 PUSH1 0x0 KECCAK256 PUSH1 0x0 SWAP2 POP SWAP1 POP SLOAD DUP2 JUMP JUMPDEST PUSH1 0x60 PUSH1 0x1 ISZERO ISZERO DUP3 ISZERO ISZERO EQ ISZERO PUSH2 0x5A1 JUMPI PUSH1 0x40 MLOAD DUP1 PUSH1 0x40 ADD PUSH1 0x40 MSTORE DUP1 PUSH1 0x7 DUP2 MSTORE PUSH1 0x20 ADD PUSH32 0x77656C636F6D6500000000000000000000000000000000000000000000000000 DUP2 MSTORE POP SWAP1 POP PUSH2 0x5DA JUMP JUMPDEST PUSH1 0x40 MLOAD DUP1 PUSH1 0x40 ADD PUSH1 0x40 MSTORE DUP1 PUSH1 0x7 DUP2 MSTORE PUSH1 0x20 ADD PUSH32 0x476574206F757400000000000000000000000000000000000000000000000000 DUP2 MSTORE POP SWAP1 POP JUMPDEST SWAP2 SWAP1 POP JUMP JUMPDEST PUSH1 0x7 DUP2 DUP2 SLOAD DUP2 LT PUSH2 0x5EF JUMPI PUSH1 0x0 DUP1 REVERT JUMPDEST SWAP1 PUSH1 0x0 MSTORE PUSH1 0x20 PUSH1 0x0 KECCAK256 ADD PUSH1 0x0 SWAP2 POP SWAP1 POP DUP1 SLOAD PUSH2 0x60A SWAP1 PUSH2 0x117D JUMP JUMPDEST DUP1 PUSH1 0x1F ADD PUSH1 0x20 DUP1 SWAP2 DIV MUL PUSH1 0x20 ADD PUSH1 0x40 MLOAD SWAP1 DUP2 ADD PUSH1 0x40 MSTORE DUP1 SWAP3 SWAP2 SWAP1 DUP2 DUP2 MSTORE PUSH1 0x20 ADD DUP3 DUP1 SLOAD PUSH2 0x636 SWAP1 PUSH2 0x117D JUMP JUMPDEST DUP1 ISZERO PUSH2 0x683 JUMPI DUP1 PUSH1 0x1F LT PUSH2 0x658 JUMPI PUSH2 0x100 DUP1 DUP4 SLOAD DIV MUL DUP4 MSTORE SWAP2 PUSH1 0x20 ADD SWAP2 PUSH2 0x683 JUMP JUMPDEST DUP3 ADD SWAP2 SWAP1 PUSH1 0x0 MSTORE PUSH1 0x20 PUSH1 0x0 KECCAK256 SWAP1 JUMPDEST DUP2 SLOAD DUP2 MSTORE SWAP1 PUSH1 0x1 ADD SWAP1 PUSH1 0x20 ADD DUP1 DUP4 GT PUSH2 0x666 JUMPI DUP3 SWAP1 SUB PUSH1 0x1F AND DUP3 ADD SWAP2 JUMPDEST POP POP POP POP POP DUP2 JUMP JUMPDEST PUSH1 0x5 DUP2 DUP2 SLOAD DUP2 LT PUSH2 0x69B JUMPI PUSH1 0x0 DUP1 REVERT JUMPDEST SWAP1 PUSH1 0x0 MSTORE PUSH1 0x20 PUSH1 0x0 KECCAK256 ADD PUSH1 0x0 SWAP2 POP SWAP1 POP DUP1 SLOAD PUSH2 0x6B6 SWAP1 PUSH2 0x117D JUMP JUMPDEST DUP1 PUSH1 0x1F ADD PUSH1 0x20 DUP1 SWAP2 DIV MUL PUSH1 0x20 ADD PUSH1 0x40 MLOAD SWAP1 DUP2 ADD PUSH1 0x40 MSTORE DUP1 SWAP3 SWAP2 SWAP1 DUP2 DUP2 MSTORE PUSH1 0x20 ADD DUP3 DUP1 SLOAD PUSH2 0x6E2 SWAP1 PUSH2 0x117D JUMP JUMPDEST DUP1 ISZERO PUSH2 0x72F JUMPI DUP1 PUSH1 0x1F LT PUSH2 0x704 JUMPI PUSH2 0x100 DUP1 DUP4 SLOAD DIV MUL DUP4 MSTORE SWAP2 PUSH1 0x20 ADD SWAP2 PUSH2 0x72F JUMP JUMPDEST DUP3 ADD SWAP2 SWAP1 PUSH1 0x0 MSTORE PUSH1 0x20 PUSH1 0x0 KECCAK256 SWAP1 JUMPDEST DUP2 SLOAD DUP2 MSTORE SWAP1 PUSH1 0x1 ADD SWAP1 PUSH1 0x20 ADD DUP1 DUP4 GT PUSH2 0x712 JUMPI DUP3 SWAP1 SUB PUSH1 0x1F AND DUP3 ADD SWAP2 JUMPDEST POP POP POP POP POP DUP2 JUMP JUMPDEST JUMP JUMPDEST PUSH1 0x3 PUSH1 0x0 SWAP1 SLOAD SWAP1 PUSH2 0x100 EXP SWAP1 DIV PUSH1 0xFF AND DUP2 JUMP JUMPDEST PUSH1 0x9 DUP2 DUP1 MLOAD PUSH1 0x20 DUP2 ADD DUP3 ADD DUP1 MLOAD DUP5 DUP3 MSTORE PUSH1 0x20 DUP4 ADD PUSH1 0x20 DUP6 ADD KECCAK256 DUP2 DUP4 MSTORE DUP1 SWAP6 POP POP POP POP POP POP PUSH1 0x0 SWAP2 POP SWAP1 POP SLOAD DUP2 JUMP JUMPDEST PUSH1 0x0 PUSH1 0x1 PUSH1 0x0 SLOAD PUSH2 0x78B SWAP2 SWAP1 PUSH2 0x1069 JUMP JUMPDEST SWAP1 POP SWAP1 JUMP JUMPDEST PUSH1 0x0 DUP3 PUSH1 0x4 SLOAD GT PUSH2 0x7D6 JUMPI PUSH1 0x40 MLOAD PUSH32 0x8C379A000000000000000000000000000000000000000000000000000000000 DUP2 MSTORE PUSH1 0x4 ADD PUSH2 0x7CD SWAP1 PUSH2 0xFB1 JUMP JUMPDEST PUSH1 0x40 MLOAD DUP1 SWAP2 SUB SWAP1 REVERT JUMPDEST DUP3 PUSH1 0x4 PUSH1 0x0 DUP3 DUP3 SLOAD PUSH2 0x7E8 SWAP2 SWAP1 PUSH2 0x10BF JUMP JUMPDEST SWAP3 POP POP DUP2 SWAP1 SSTORE POP DUP3 PUSH1 0xC PUSH1 0x0 DUP5 PUSH20 0xFFFFFFFFFFFFFFFFFFFFFFFFFFFFFFFFFFFFFFFF AND PUSH20 0xFFFFFFFFFFFFFFFFFFFFFFFFFFFFFFFFFFFFFFFF AND DUP2 MSTORE PUSH1 0x20 ADD SWAP1 DUP2 MSTORE PUSH1 0x20 ADD PUSH1 0x0 KECCAK256 DUP2 SWAP1 SSTORE POP PUSH1 0x4 SLOAD SWAP1 POP SWAP3 SWAP2 POP POP JUMP JUMPDEST PUSH1 0x8 PUSH1 0x0 SWAP1 SLOAD SWAP1 PUSH2 0x100 EXP SWAP1 DIV PUSH20 0xFFFFFFFFFFFFFFFFFFFFFFFFFFFFFFFFFFFFFFFF AND DUP2 JUMP JUMPDEST PUSH1 0xB DUP2 DUP1 MLOAD PUSH1 0x20 DUP2 ADD DUP3 ADD DUP1 MLOAD DUP5 DUP3 MSTORE PUSH1 0x20 DUP4 ADD PUSH1 0x20 DUP6 ADD KECCAK256 DUP2 DUP4 MSTORE DUP1 SWAP6 POP POP POP POP POP POP PUSH1 0x0 SWAP2 POP SWAP1 POP SLOAD DUP2 JUMP JUMPDEST PUSH1 0x4 SLOAD DUP2 JUMP JUMPDEST PUSH1 0x0 ISZERO ISZERO PUSH1 0xA DUP5 PUSH1 0x40 MLOAD PUSH2 0x8AC SWAP2 SWAP1 PUSH2 0xF22 JUMP JUMPDEST SWAP1 DUP2 MSTORE PUSH1 0x20 ADD PUSH1 0x40 MLOAD DUP1 SWAP2 SUB SWAP1 KECCAK256 PUSH1 0x0 SWAP1 SLOAD SWAP1 PUSH2 0x100 EXP SWAP1 DIV PUSH1 0xFF AND ISZERO ISZERO EQ PUSH2 0x90A JUMPI PUSH1 0x40 MLOAD PUSH32 0x8C379A000000000000000000000000000000000000000000000000000000000 DUP2 MSTORE PUSH1 0x4 ADD PUSH2 0x901 SWAP1 PUSH2 0xF91 JUMP JUMPDEST PUSH1 0x40 MLOAD DUP1 SWAP2 SUB SWAP1 REVERT JUMPDEST DUP2 PUSH1 0x9 DUP5 PUSH1 0x40 MLOAD PUSH2 0x91B SWAP2 SWAP1 PUSH2 0xF22 JUMP JUMPDEST SWAP1 DUP2 MSTORE PUSH1 0x20 ADD PUSH1 0x40 MLOAD DUP1 SWAP2 SUB SWAP1 KECCAK256 DUP2 SWAP1 SSTORE POP DUP1 PUSH1 0xB DUP5 PUSH1 0x40 MLOAD PUSH2 0x93E SWAP2 SWAP1 PUSH2 0xF22 JUMP JUMPDEST SWAP1 DUP2 MSTORE PUSH1 0x20 ADD PUSH1 0x40 MLOAD DUP1 SWAP2 SUB SWAP1 KECCAK256 DUP2 SWAP1 SSTORE POP PUSH1 0x1 PUSH1 0xA DUP5 PUSH1 0x40 MLOAD PUSH2 0x962 SWAP2 SWAP1 PUSH2 0xF22 JUMP JUMPDEST SWAP1 DUP2 MSTORE PUSH1 0x20 ADD PUSH1 0x40 MLOAD DUP1 SWAP2 SUB SWAP1 KECCAK256 PUSH1 0x0 PUSH2 0x100 EXP DUP2 SLOAD DUP2 PUSH1 0xFF MUL NOT AND SWAP1 DUP4 ISZERO ISZERO MUL OR SWAP1 SSTORE POP POP POP POP JUMP JUMPDEST PUSH1 0x7 DUP2 SWAP1 DUP1 PUSH1 0x1 DUP2 SLOAD ADD DUP1 DUP3 SSTORE DUP1 SWAP2 POP POP PUSH1 0x1 SWAP1 SUB SWAP1 PUSH1 0x0 MSTORE PUSH1 0x20 PUSH1 0x0 KECCAK256 ADD PUSH1 0x0 SWAP1 SWAP2 SWAP1 SWAP2 SWAP1 SWAP2 POP SWAP1 DUP1 MLOAD SWAP1 PUSH1 0x20 ADD SWAP1 PUSH2 0x9C7 SWAP3 SWAP2 SWAP1 PUSH2 0xAFC JUMP JUMPDEST POP POP JUMP JUMPDEST PUSH1 0x60 PUSH1 0xB DUP3 PUSH1 0x40 MLOAD PUSH2 0x9DD SWAP2 SWAP1 PUSH2 0xF22 JUMP JUMPDEST SWAP1 DUP2 MSTORE PUSH1 0x20 ADD PUSH1 0x40 MLOAD DUP1 SWAP2 SUB SWAP1 KECCAK256 SLOAD PUSH1 0xB DUP5 PUSH1 0x40 MLOAD PUSH2 0x9FC SWAP2 SWAP1 PUSH2 0xF22 JUMP JUMPDEST SWAP1 DUP2 MSTORE PUSH1 0x20 ADD PUSH1 0x40 MLOAD DUP1 SWAP2 SUB SWAP1 KECCAK256 SLOAD LT ISZERO PUSH2 0xA19 JUMPI DUP2 SWAP1 POP PUSH2 0xA9E JUMP JUMPDEST PUSH1 0xB DUP3 PUSH1 0x40 MLOAD PUSH2 0xA29 SWAP2 SWAP1 PUSH2 0xF22 JUMP JUMPDEST SWAP1 DUP2 MSTORE PUSH1 0x20 ADD PUSH1 0x40 MLOAD DUP1 SWAP2 SUB SWAP1 KECCAK256 SLOAD PUSH1 0xB DUP5 PUSH1 0x40 MLOAD PUSH2 0xA48 SWAP2 SWAP1 PUSH2 0xF22 JUMP JUMPDEST SWAP1 DUP2 MSTORE PUSH1 0x20 ADD PUSH1 0x40 MLOAD DUP1 SWAP2 SUB SWAP1 KECCAK256 SLOAD GT ISZERO PUSH2 0xA65 JUMPI DUP3 SWAP1 POP PUSH2 0xA9E JUMP JUMPDEST PUSH1 0x40 MLOAD DUP1 PUSH1 0x40 ADD PUSH1 0x40 MSTORE DUP1 PUSH1 0x2 DUP2 MSTORE PUSH1 0x20 ADD PUSH32 0x6E6F000000000000000000000000000000000000000000000000000000000000 DUP2 MSTORE POP SWAP1 POP JUMPDEST SWAP3 SWAP2 POP POP JUMP JUMPDEST PUSH1 0x0 DUP1 DUP3 SWAP1 POP PUSH1 0x0 DUP2 PUSH1 0x0 SLOAD PUSH2 0xABA SWAP2 SWAP1 PUSH2 0x1069 JUMP JUMPDEST SWAP1 POP DUP1 SWAP3 POP POP POP SWAP2 SWAP1 POP JUMP JUMPDEST PUSH1 0xA DUP2 DUP1 MLOAD PUSH1 0x20 DUP2 ADD DUP3 ADD DUP1 MLOAD DUP5 DUP3 MSTORE PUSH1 0x20 DUP4 ADD PUSH1 0x20 DUP6 ADD KECCAK256 DUP2 DUP4 MSTORE DUP1 SWAP6 POP POP POP POP POP POP PUSH1 0x0 SWAP2 POP SLOAD SWAP1 PUSH2 0x100 EXP SWAP1 DIV PUSH1 0xFF AND DUP2 JUMP JUMPDEST DUP3 DUP1 SLOAD PUSH2 0xB08 SWAP1 PUSH2 0x117D JUMP JUMPDEST SWAP1 PUSH1 0x0 MSTORE PUSH1 0x20 PUSH1 0x0 KECCAK256 SWAP1 PUSH1 0x1F ADD PUSH1 0x20 SWAP1 DIV DUP2 ADD SWAP3 DUP3 PUSH2 0xB2A JUMPI PUSH1 0x0 DUP6 SSTORE PUSH2 0xB71 JUMP JUMPDEST DUP3 PUSH1 0x1F LT PUSH2 0xB43 JUMPI DUP1 MLOAD PUSH1 0xFF NOT AND DUP4 DUP1 ADD OR DUP6 SSTORE PUSH2 0xB71 JUMP JUMPDEST DUP3 DUP1 ADD PUSH1 0x1 ADD DUP6 SSTORE DUP3 ISZERO PUSH2 0xB71 JUMPI SWAP2 DUP3 ADD JUMPDEST DUP3 DUP2 GT ISZERO PUSH2 0xB70 JUMPI DUP3 MLOAD DUP3 SSTORE SWAP2 PUSH1 0x20 ADD SWAP2 SWAP1 PUSH1 0x1 ADD SWAP1 PUSH2 0xB55 JUMP JUMPDEST JUMPDEST POP SWAP1 POP PUSH2 0xB7E SWAP2 SWAP1 PUSH2 0xB82 JUMP JUMPDEST POP SWAP1 JUMP JUMPDEST JUMPDEST DUP1 DUP3 GT ISZERO PUSH2 0xB9B JUMPI PUSH1 0x0 DUP2 PUSH1 0x0 SWAP1 SSTORE POP PUSH1 0x1 ADD PUSH2 0xB83 JUMP JUMPDEST POP SWAP1 JUMP JUMPDEST PUSH1 0x0 PUSH2 0xBB2 PUSH2 0xBAD DUP5 PUSH2 0x1011 JUMP JUMPDEST PUSH2 0xFEC JUMP JUMPDEST SWAP1 POP DUP3 DUP2 MSTORE PUSH1 0x20 DUP2 ADD DUP5 DUP5 DUP5 ADD GT ISZERO PUSH2 0xBCE JUMPI PUSH2 0xBCD PUSH2 0x1272 JUMP JUMPDEST JUMPDEST PUSH2 0xBD9 DUP5 DUP3 DUP6 PUSH2 0x113B JUMP JUMPDEST POP SWAP4 SWAP3 POP POP POP JUMP JUMPDEST PUSH1 0x0 DUP2 CALLDATALOAD SWAP1 POP PUSH2 0xBF0 DUP2 PUSH2 0x12E4 JUMP JUMPDEST SWAP3 SWAP2 POP POP JUMP JUMPDEST PUSH1 0x0 DUP2 CALLDATALOAD SWAP1 POP PUSH2 0xC05 DUP2 PUSH2 0x12FB JUMP JUMPDEST SWAP3 SWAP2 POP POP JUMP JUMPDEST PUSH1 0x0 DUP3 PUSH1 0x1F DUP4 ADD SLT PUSH2 0xC20 JUMPI PUSH2 0xC1F PUSH2 0x126D JUMP JUMPDEST JUMPDEST DUP2 CALLDATALOAD PUSH2 0xC30 DUP5 DUP3 PUSH1 0x20 DUP7 ADD PUSH2 0xB9F JUMP JUMPDEST SWAP2 POP POP SWAP3 SWAP2 POP POP JUMP JUMPDEST PUSH1 0x0 DUP2 CALLDATALOAD SWAP1 POP PUSH2 0xC48 DUP2 PUSH2 0x1312 JUMP JUMPDEST SWAP3 SWAP2 POP POP JUMP JUMPDEST PUSH1 0x0 PUSH1 0x20 DUP3 DUP5 SUB SLT ISZERO PUSH2 0xC64 JUMPI PUSH2 0xC63 PUSH2 0x127C JUMP JUMPDEST JUMPDEST PUSH1 0x0 PUSH2 0xC72 DUP5 DUP3 DUP6 ADD PUSH2 0xBE1 JUMP JUMPDEST SWAP2 POP POP SWAP3 SWAP2 POP POP JUMP JUMPDEST PUSH1 0x0 PUSH1 0x20 DUP3 DUP5 SUB SLT ISZERO PUSH2 0xC91 JUMPI PUSH2 0xC90 PUSH2 0x127C JUMP JUMPDEST JUMPDEST PUSH1 0x0 PUSH2 0xC9F DUP5 DUP3 DUP6 ADD PUSH2 0xBF6 JUMP JUMPDEST SWAP2 POP POP SWAP3 SWAP2 POP POP JUMP JUMPDEST PUSH1 0x0 PUSH1 0x20 DUP3 DUP5 SUB SLT ISZERO PUSH2 0xCBE JUMPI PUSH2 0xCBD PUSH2 0x127C JUMP JUMPDEST JUMPDEST PUSH1 0x0 DUP3 ADD CALLDATALOAD PUSH8 0xFFFFFFFFFFFFFFFF DUP2 GT ISZERO PUSH2 0xCDC JUMPI PUSH2 0xCDB PUSH2 0x1277 JUMP JUMPDEST JUMPDEST PUSH2 0xCE8 DUP5 DUP3 DUP6 ADD PUSH2 0xC0B JUMP JUMPDEST SWAP2 POP POP SWAP3 SWAP2 POP POP JUMP JUMPDEST PUSH1 0x0 DUP1 PUSH1 0x40 DUP4 DUP6 SUB SLT ISZERO PUSH2 0xD08 JUMPI PUSH2 0xD07 PUSH2 0x127C JUMP JUMPDEST JUMPDEST PUSH1 0x0 DUP4 ADD CALLDATALOAD PUSH8 0xFFFFFFFFFFFFFFFF DUP2 GT ISZERO PUSH2 0xD26 JUMPI PUSH2 0xD25 PUSH2 0x1277 JUMP JUMPDEST JUMPDEST PUSH2 0xD32 DUP6 DUP3 DUP7 ADD PUSH2 0xC0B JUMP JUMPDEST SWAP3 POP POP PUSH1 0x20 DUP4 ADD CALLDATALOAD PUSH8 0xFFFFFFFFFFFFFFFF DUP2 GT ISZERO PUSH2 0xD53 JUMPI PUSH2 0xD52 PUSH2 0x1277 JUMP JUMPDEST JUMPDEST PUSH2 0xD5F DUP6 DUP3 DUP7 ADD PUSH2 0xC0B JUMP JUMPDEST SWAP2 POP POP SWAP3 POP SWAP3 SWAP1 POP JUMP JUMPDEST PUSH1 0x0 DUP1 PUSH1 0x0 PUSH1 0x60 DUP5 DUP7 SUB SLT ISZERO PUSH2 0xD82 JUMPI PUSH2 0xD81 PUSH2 0x127C JUMP JUMPDEST JUMPDEST PUSH1 0x0 DUP5 ADD CALLDATALOAD PUSH8 0xFFFFFFFFFFFFFFFF DUP2 GT ISZERO PUSH2 0xDA0 JUMPI PUSH2 0xD9F PUSH2 0x1277 JUMP JUMPDEST JUMPDEST PUSH2 0xDAC DUP7 DUP3 DUP8 ADD PUSH2 0xC0B JUMP JUMPDEST SWAP4 POP POP PUSH1 0x20 PUSH2 0xDBD DUP7 DUP3 DUP8 ADD PUSH2 0xC39 JUMP JUMPDEST SWAP3 POP POP PUSH1 0x40 PUSH2 0xDCE DUP7 DUP3 DUP8 ADD PUSH2 0xC39 JUMP JUMPDEST SWAP2 POP POP SWAP3 POP SWAP3 POP SWAP3 JUMP JUMPDEST PUSH1 0x0 PUSH1 0x20 DUP3 DUP5 SUB SLT ISZERO PUSH2 0xDEE JUMPI PUSH2 0xDED PUSH2 0x127C JUMP JUMPDEST JUMPDEST PUSH1 0x0 PUSH2 0xDFC DUP5 DUP3 DUP6 ADD PUSH2 0xC39 JUMP JUMPDEST SWAP2 POP POP SWAP3 SWAP2 POP POP JUMP JUMPDEST PUSH1 0x0 DUP1 PUSH1 0x40 DUP4 DUP6 SUB SLT ISZERO PUSH2 0xE1C JUMPI PUSH2 0xE1B PUSH2 0x127C JUMP JUMPDEST JUMPDEST PUSH1 0x0 PUSH2 0xE2A DUP6 DUP3 DUP7 ADD PUSH2 0xC39 JUMP JUMPDEST SWAP3 POP POP PUSH1 0x20 PUSH2 0xE3B DUP6 DUP3 DUP7 ADD PUSH2 0xBE1 JUMP JUMPDEST SWAP2 POP POP SWAP3 POP SWAP3 SWAP1 POP JUMP JUMPDEST PUSH2 0xE4E DUP2 PUSH2 0x10F3 JUMP JUMPDEST DUP3 MSTORE POP POP JUMP JUMPDEST PUSH2 0xE5D DUP2 PUSH2 0x1105 JUMP JUMPDEST DUP3 MSTORE POP POP JUMP JUMPDEST PUSH1 0x0 PUSH2 0xE6E DUP3 PUSH2 0x1042 JUMP JUMPDEST PUSH2 0xE78 DUP2 DUP6 PUSH2 0x104D JUMP JUMPDEST SWAP4 POP PUSH2 0xE88 DUP2 DUP6 PUSH1 0x20 DUP7 ADD PUSH2 0x114A JUMP JUMPDEST PUSH2 0xE91 DUP2 PUSH2 0x1281 JUMP JUMPDEST DUP5 ADD SWAP2 POP POP SWAP3 SWAP2 POP POP JUMP JUMPDEST PUSH1 0x0 PUSH2 0xEA7 DUP3 PUSH2 0x1042 JUMP JUMPDEST PUSH2 0xEB1 DUP2 DUP6 PUSH2 0x105E JUMP JUMPDEST SWAP4 POP PUSH2 0xEC1 DUP2 DUP6 PUSH1 0x20 DUP7 ADD PUSH2 0x114A JUMP JUMPDEST DUP1 DUP5 ADD SWAP2 POP POP SWAP3 SWAP2 POP POP JUMP JUMPDEST PUSH1 0x0 PUSH2 0xEDA PUSH1 0x19 DUP4 PUSH2 0x104D JUMP JUMPDEST SWAP2 POP PUSH2 0xEE5 DUP3 PUSH2 0x1292 JUMP JUMPDEST PUSH1 0x20 DUP3 ADD SWAP1 POP SWAP2 SWAP1 POP JUMP JUMPDEST PUSH1 0x0 PUSH2 0xEFD PUSH1 0x11 DUP4 PUSH2 0x104D JUMP JUMPDEST SWAP2 POP PUSH2 0xF08 DUP3 PUSH2 0x12BB JUMP JUMPDEST PUSH1 0x20 DUP3 ADD SWAP1 POP SWAP2 SWAP1 POP JUMP JUMPDEST PUSH2 0xF1C DUP2 PUSH2 0x1131 JUMP JUMPDEST DUP3 MSTORE POP POP JUMP JUMPDEST PUSH1 0x0 PUSH2 0xF2E DUP3 DUP5 PUSH2 0xE9C JUMP JUMPDEST SWAP2 POP DUP2 SWAP1 POP SWAP3 SWAP2 POP POP JUMP JUMPDEST PUSH1 0x0 PUSH1 0x20 DUP3 ADD SWAP1 POP PUSH2 0xF4E PUSH1 0x0 DUP4 ADD DUP5 PUSH2 0xE45 JUMP JUMPDEST SWAP3 SWAP2 POP POP JUMP JUMPDEST PUSH1 0x0 PUSH1 0x20 DUP3 ADD SWAP1 POP PUSH2 0xF69 PUSH1 0x0 DUP4 ADD DUP5 PUSH2 0xE54 JUMP JUMPDEST SWAP3 SWAP2 POP POP JUMP JUMPDEST PUSH1 0x0 PUSH1 0x20 DUP3 ADD SWAP1 POP DUP2 DUP2 SUB PUSH1 0x0 DUP4 ADD MSTORE PUSH2 0xF89 DUP2 DUP5 PUSH2 0xE63 JUMP JUMPDEST SWAP1 POP SWAP3 SWAP2 POP POP JUMP JUMPDEST PUSH1 0x0 PUSH1 0x20 DUP3 ADD SWAP1 POP DUP2 DUP2 SUB PUSH1 0x0 DUP4 ADD MSTORE PUSH2 0xFAA DUP2 PUSH2 0xECD JUMP JUMPDEST SWAP1 POP SWAP2 SWAP1 POP JUMP JUMPDEST PUSH1 0x0 PUSH1 0x20 DUP3 ADD SWAP1 POP DUP2 DUP2 SUB PUSH1 0x0 DUP4 ADD MSTORE PUSH2 0xFCA DUP2 PUSH2 0xEF0 JUMP JUMPDEST SWAP1 POP SWAP2 SWAP1 POP JUMP JUMPDEST PUSH1 0x0 PUSH1 0x20 DUP3 ADD SWAP1 POP PUSH2 0xFE6 PUSH1 0x0 DUP4 ADD DUP5 PUSH2 0xF13 JUMP JUMPDEST SWAP3 SWAP2 POP POP JUMP JUMPDEST PUSH1 0x0 PUSH2 0xFF6 PUSH2 0x1007 JUMP JUMPDEST SWAP1 POP PUSH2 0x1002 DUP3 DUP3 PUSH2 0x11AF JUMP JUMPDEST SWAP2 SWAP1 POP JUMP JUMPDEST PUSH1 0x0 PUSH1 0x40 MLOAD SWAP1 POP SWAP1 JUMP JUMPDEST PUSH1 0x0 PUSH8 0xFFFFFFFFFFFFFFFF DUP3 GT ISZERO PUSH2 0x102C JUMPI PUSH2 0x102B PUSH2 0x123E JUMP JUMPDEST JUMPDEST PUSH2 0x1035 DUP3 PUSH2 0x1281 JUMP JUMPDEST SWAP1 POP PUSH1 0x20 DUP2 ADD SWAP1 POP SWAP2 SWAP1 POP JUMP JUMPDEST PUSH1 0x0 DUP2 MLOAD SWAP1 POP SWAP2 SWAP1 POP JUMP JUMPDEST PUSH1 0x0 DUP3 DUP3 MSTORE PUSH1 0x20 DUP3 ADD SWAP1 POP SWAP3 SWAP2 POP POP JUMP JUMPDEST PUSH1 0x0 DUP2 SWAP1 POP SWAP3 SWAP2 POP POP JUMP JUMPDEST PUSH1 0x0 PUSH2 0x1074 DUP3 PUSH2 0x1131 JUMP JUMPDEST SWAP2 POP PUSH2 0x107F DUP4 PUSH2 0x1131 JUMP JUMPDEST SWAP3 POP DUP3 PUSH32 0xFFFFFFFFFFFFFFFFFFFFFFFFFFFFFFFFFFFFFFFFFFFFFFFFFFFFFFFFFFFFFFFF SUB DUP3 GT ISZERO PUSH2 0x10B4 JUMPI PUSH2 0x10B3 PUSH2 0x11E0 JUMP JUMPDEST JUMPDEST DUP3 DUP3 ADD SWAP1 POP SWAP3 SWAP2 POP POP JUMP JUMPDEST PUSH1 0x0 PUSH2 0x10CA DUP3 PUSH2 0x1131 JUMP JUMPDEST SWAP2 POP PUSH2 0x10D5 DUP4 PUSH2 0x1131 JUMP JUMPDEST SWAP3 POP DUP3 DUP3 LT ISZERO PUSH2 0x10E8 JUMPI PUSH2 0x10E7 PUSH2 0x11E0 JUMP JUMPDEST JUMPDEST DUP3 DUP3 SUB SWAP1 POP SWAP3 SWAP2 POP POP JUMP JUMPDEST PUSH1 0x0 PUSH2 0x10FE DUP3 PUSH2 0x1111 JUMP JUMPDEST SWAP1 POP SWAP2 SWAP1 POP JUMP JUMPDEST PUSH1 0x0 DUP2 ISZERO ISZERO SWAP1 POP SWAP2 SWAP1 POP JUMP JUMPDEST PUSH1 0x0 PUSH20 0xFFFFFFFFFFFFFFFFFFFFFFFFFFFFFFFFFFFFFFFF DUP3 AND SWAP1 POP SWAP2 SWAP1 POP JUMP JUMPDEST PUSH1 0x0 DUP2 SWAP1 POP SWAP2 SWAP1 POP JUMP JUMPDEST DUP3 DUP2 DUP4 CALLDATACOPY PUSH1 0x0 DUP4 DUP4 ADD MSTORE POP POP POP JUMP JUMPDEST PUSH1 0x0 JUMPDEST DUP4 DUP2 LT ISZERO PUSH2 0x1168 JUMPI DUP1 DUP3 ADD MLOAD DUP2 DUP5 ADD MSTORE PUSH1 0x20 DUP2 ADD SWAP1 POP PUSH2 0x114D JUMP JUMPDEST DUP4 DUP2 GT ISZERO PUSH2 0x1177 JUMPI PUSH1 0x0 DUP5 DUP5 ADD MSTORE JUMPDEST POP POP POP POP JUMP JUMPDEST PUSH1 0x0 PUSH1 0x2 DUP3 DIV SWAP1 POP PUSH1 0x1 DUP3 AND DUP1 PUSH2 0x1195 JUMPI PUSH1 0x7F DUP3 AND SWAP2 POP JUMPDEST PUSH1 0x20 DUP3 LT DUP2 EQ ISZERO PUSH2 0x11A9 JUMPI PUSH2 0x11A8 PUSH2 0x120F JUMP JUMPDEST JUMPDEST POP SWAP2 SWAP1 POP JUMP JUMPDEST PUSH2 0x11B8 DUP3 PUSH2 0x1281 JUMP JUMPDEST DUP2 ADD DUP2 DUP2 LT PUSH8 0xFFFFFFFFFFFFFFFF DUP3 GT OR ISZERO PUSH2 0x11D7 JUMPI PUSH2 0x11D6 PUSH2 0x123E JUMP JUMPDEST JUMPDEST DUP1 PUSH1 0x40 MSTORE POP POP POP JUMP JUMPDEST PUSH32 0x4E487B7100000000000000000000000000000000000000000000000000000000 PUSH1 0x0 MSTORE PUSH1 0x11 PUSH1 0x4 MSTORE PUSH1 0x24 PUSH1 0x0 REVERT JUMPDEST PUSH32 0x4E487B7100000000000000000000000000000000000000000000000000000000 PUSH1 0x0 MSTORE PUSH1 0x22 PUSH1 0x4 MSTORE PUSH1 0x24 PUSH1 0x0 REVERT JUMPDEST PUSH32 0x4E487B7100000000000000000000000000000000000000000000000000000000 PUSH1 0x0 MSTORE PUSH1 0x41 PUSH1 0x4 MSTORE PUSH1 0x24 PUSH1 0x0 REVERT JUMPDEST PUSH1 0x0 DUP1 REVERT JUMPDEST PUSH1 0x0 DUP1 REVERT JUMPDEST PUSH1 0x0 DUP1 REVERT JUMPDEST PUSH1 0x0 DUP1 REVERT JUMPDEST PUSH1 0x0 PUSH1 0x1F NOT PUSH1 0x1F DUP4 ADD AND SWAP1 POP SWAP2 SWAP1 POP JUMP JUMPDEST PUSH32 0x546F6E7920616C72656164792068617320746869732063617200000000000000 PUSH1 0x0 DUP3 ADD MSTORE POP JUMP JUMPDEST PUSH32 0x6E6F7420656E6F756768206D6F6E6E6579000000000000000000000000000000 PUSH1 0x0 DUP3 ADD MSTORE POP JUMP JUMPDEST PUSH2 0x12ED DUP2 PUSH2 0x10F3 JUMP JUMPDEST DUP2 EQ PUSH2 0x12F8 JUMPI PUSH1 0x0 DUP1 REVERT JUMPDEST POP JUMP JUMPDEST PUSH2 0x1304 DUP2 PUSH2 0x1105 JUMP JUMPDEST DUP2 EQ PUSH2 0x130F JUMPI PUSH1 0x0 DUP1 REVERT JUMPDEST POP JUMP JUMPDEST PUSH2 0x131B DUP2 PUSH2 0x1131 JUMP JUMPDEST DUP2 EQ PUSH2 0x1326 JUMPI PUSH1 0x0 DUP1 REVERT JUMPDEST POP JUMP INVALID LOG2 PUSH5 0x6970667358 0x22 SLT KECCAK256 0xAF PUSH26 0x6E56B61CB08E22845311260FF78BD55356FE5E95CE7BA4D0B8E7 RETURNDATACOPY STOP JUMPDEST MULMOD PUSH5 0x736F6C6343 STOP ADDMOD SMOD STOP CALLER "
				},
				"gasEstimates": {
					"creation": {
						"codeDepositCost": "991800",
						"executionCost": "infinite",
						"totalCost": "infinite"
					},
					"external": {
						"addCar(string,uint256,uint256)": "infinite",
						"age()": "2497",
						"balance()": "2540",
						"carSpeed(string)": "infinite",
						"carreer(uint256)": "infinite",
						"fasterCar(string,string)": "infinite",
						"getNumber(uint256)": "infinite",
						"getWallet()": "4738",
						"girl(uint256)": "infinite",
						"isCar(string)": "infinite",
						"isMale()": "2560",
						"isVIP()": "211",
						"mileOfCar(string)": "infinite",
						"name()": "infinite",
						"owner()": "2581",
						"plusResult()": "infinite",
						"showName(bool)": "infinite",
						"tinder(string)": "infinite",
						"tranfer(uint256,address)": "infinite",
						"txWithdrow(address)": "2904"
					}
				},
				"methodIdentifiers": {
					"addCar(string,uint256,uint256)": "c8351be0",
					"age()": "262a9dff",
					"balance()": "b69ef8a8",
					"carSpeed(string)": "aed43682",
					"carreer(uint256)": "5cd836a3",
					"fasterCar(string,string)": "f9052ce2",
					"getNumber(uint256)": "fc563658",
					"getWallet()": "13299604",
					"girl(uint256)": "449549d5",
					"isCar(string)": "fcc9e5c5",
					"isMale()": "654a573c",
					"isVIP()": "61a475c8",
					"mileOfCar(string)": "853320e3",
					"name()": "06fdde03",
					"owner()": "8da5cb5b",
					"plusResult()": "87e8599f",
					"showName(bool)": "3171a39a",
					"tinder(string)": "cfb5843c",
					"tranfer(uint256,address)": "8b8930d3",
					"txWithdrow(address)": "2d47689c"
				}
			},
			"storageLayout": {
				"storage": [
					{
						"astId": 4,
						"contract": "contracts/basic_solidity.sol:BasicSolidity",
						"label": "global",
						"offset": 0,
						"slot": "0",
						"type": "t_uint256"
					},
					{
						"astId": 7,
						"contract": "contracts/basic_solidity.sol:BasicSolidity",
						"label": "name",
						"offset": 0,
						"slot": "1",
						"type": "t_string_storage"
					},
					{
						"astId": 10,
						"contract": "contracts/basic_solidity.sol:BasicSolidity",
						"label": "age",
						"offset": 0,
						"slot": "2",
						"type": "t_uint256"
					},
					{
						"astId": 13,
						"contract": "contracts/basic_solidity.sol:BasicSolidity",
						"label": "isMale",
						"offset": 0,
						"slot": "3",
						"type": "t_bool"
					},
					{
						"astId": 15,
						"contract": "contracts/basic_solidity.sol:BasicSolidity",
						"label": "balance",
						"offset": 0,
						"slot": "4",
						"type": "t_uint256"
					},
					{
						"astId": 22,
						"contract": "contracts/basic_solidity.sol:BasicSolidity",
						"label": "carreer",
						"offset": 0,
						"slot": "5",
						"type": "t_array(t_string_storage)dyn_storage"
					},
					{
						"astId": 24,
						"contract": "contracts/basic_solidity.sol:BasicSolidity",
						"label": "wallet",
						"offset": 0,
						"slot": "6",
						"type": "t_address"
					},
					{
						"astId": 27,
						"contract": "contracts/basic_solidity.sol:BasicSolidity",
						"label": "girl",
						"offset": 0,
						"slot": "7",
						"type": "t_array(t_string_storage)dyn_storage"
					},
					{
						"astId": 29,
						"contract": "contracts/basic_solidity.sol:BasicSolidity",
						"label": "owner",
						"offset": 0,
						"slot": "8",
						"type": "t_address"
					},
					{
						"astId": 33,
						"contract": "contracts/basic_solidity.sol:BasicSolidity",
						"label": "mileOfCar",
						"offset": 0,
						"slot": "9",
						"type": "t_mapping(t_string_memory_ptr,t_uint256)"
					},
					{
						"astId": 37,
						"contract": "contracts/basic_solidity.sol:BasicSolidity",
						"label": "isCar",
						"offset": 0,
						"slot": "10",
						"type": "t_mapping(t_string_memory_ptr,t_bool)"
					},
					{
						"astId": 41,
						"contract": "contracts/basic_solidity.sol:BasicSolidity",
						"label": "carSpeed",
						"offset": 0,
						"slot": "11",
						"type": "t_mapping(t_string_memory_ptr,t_uint256)"
					},
					{
						"astId": 56,
						"contract": "contracts/basic_solidity.sol:BasicSolidity",
						"label": "txWithdrow",
						"offset": 0,
						"slot": "12",
						"type": "t_mapping(t_address,t_uint256)"
					}
				],
				"types": {
					"t_address": {
						"encoding": "inplace",
						"label": "address",
						"numberOfBytes": "20"
					},
					"t_array(t_string_storage)dyn_storage": {
						"base": "t_string_storage",
						"encoding": "dynamic_array",
						"label": "string[]",
						"numberOfBytes": "32"
					},
					"t_bool": {
						"encoding": "inplace",
						"label": "bool",
						"numberOfBytes": "1"
					},
					"t_mapping(t_address,t_uint256)": {
						"encoding": "mapping",
						"key": "t_address",
						"label": "mapping(address => uint256)",
						"numberOfBytes": "32",
						"value": "t_uint256"
					},
					"t_mapping(t_string_memory_ptr,t_bool)": {
						"encoding": "mapping",
						"key": "t_string_memory_ptr",
						"label": "mapping(string => bool)",
						"numberOfBytes": "32",
						"value": "t_bool"
					},
					"t_mapping(t_string_memory_ptr,t_uint256)": {
						"encoding": "mapping",
						"key": "t_string_memory_ptr",
						"label": "mapping(string => uint256)",
						"numberOfBytes": "32",
						"value": "t_uint256"
					},
					"t_string_memory_ptr": {
						"encoding": "bytes",
						"label": "string",
						"numberOfBytes": "32"
					},
					"t_string_storage": {
						"encoding": "bytes",
						"label": "string",
						"numberOfBytes": "32"
					},
					"t_uint256": {
						"encoding": "inplace",
						"label": "uint256",
						"numberOfBytes": "32"
					}
				}
			},
			"userdoc": {
				"kind": "user",
				"methods": {},
				"version": 1
			}
		}
	}
}