{
	"contracts/bomToken.sol": {
		"BomToken": {
			"abi": [
				{
					"inputs": [],
					"stateMutability": "nonpayable",
					"type": "constructor"
				},
				{
					"inputs": [
						{
							"internalType": "address",
							"name": "_trusty",
							"type": "address"
						}
					],
					"name": "approve",
					"outputs": [],
					"stateMutability": "nonpayable",
					"type": "function"
				},
				{
					"inputs": [
						{
							"internalType": "uint256",
							"name": "_amount",
							"type": "uint256"
						}
					],
					"name": "burn",
					"outputs": [],
					"stateMutability": "nonpayable",
					"type": "function"
				},
				{
					"inputs": [
						{
							"internalType": "address",
							"name": "targetwallet",
							"type": "address"
						}
					],
					"name": "getBalance",
					"outputs": [
						{
							"internalType": "uint256",
							"name": "",
							"type": "uint256"
						}
					],
					"stateMutability": "view",
					"type": "function"
				},
				{
					"inputs": [
						{
							"internalType": "uint256",
							"name": "_amount",
							"type": "uint256"
						},
						{
							"internalType": "address",
							"name": "targetAdress",
							"type": "address"
						}
					],
					"name": "mint",
					"outputs": [],
					"stateMutability": "nonpayable",
					"type": "function"
				},
				{
					"inputs": [
						{
							"internalType": "address",
							"name": "_target",
							"type": "address"
						},
						{
							"internalType": "uint256",
							"name": "_amount",
							"type": "uint256"
						}
					],
					"name": "tranfer",
					"outputs": [],
					"stateMutability": "nonpayable",
					"type": "function"
				},
				{
					"inputs": [
						{
							"internalType": "address",
							"name": "",
							"type": "address"
						}
					],
					"name": "transaction",
					"outputs": [
						{
							"internalType": "address",
							"name": "",
							"type": "address"
						}
					],
					"stateMutability": "view",
					"type": "function"
				},
				{
					"inputs": [
						{
							"internalType": "address",
							"name": "",
							"type": "address"
						}
					],
					"name": "trust",
					"outputs": [
						{
							"internalType": "address",
							"name": "",
							"type": "address"
						}
					],
					"stateMutability": "view",
					"type": "function"
				}
			],
			"devdoc": {
				"kind": "dev",
				"methods": {},
				"version": 1
			},
			"evm": {
				"assembly": "    /* \"contracts/bomToken.sol\":62:1405  contract BomToken {\r... */\n  mstore(0x40, 0x80)\n    /* \"contracts/bomToken.sol\":86:117  string name       = \"BombToken\" */\n  mload(0x40)\n  dup1\n  0x40\n  add\n  0x40\n  mstore\n  dup1\n  0x09\n  dup2\n  mstore\n  0x20\n  add\n  0x426f6d62546f6b656e0000000000000000000000000000000000000000000000\n  dup2\n  mstore\n  pop\n  0x00\n  swap1\n  dup1\n  mload\n  swap1\n  0x20\n  add\n  swap1\n  tag_1\n  swap3\n  swap2\n  swap1\n  tag_2\n  jump\t// in\ntag_1:\n  pop\n    /* \"contracts/bomToken.sol\":124:148  string symbole    = \"BT\" */\n  mload(0x40)\n  dup1\n  0x40\n  add\n  0x40\n  mstore\n  dup1\n  0x02\n  dup2\n  mstore\n  0x20\n  add\n  0x4254000000000000000000000000000000000000000000000000000000000000\n  dup2\n  mstore\n  pop\n  0x01\n  swap1\n  dup1\n  mload\n  swap1\n  0x20\n  add\n  swap1\n  tag_3\n  swap3\n  swap2\n  swap1\n  tag_2\n  jump\t// in\ntag_3:\n  pop\n    /* \"contracts/bomToken.sol\":177:184  9000000 */\n  0x895440\n    /* \"contracts/bomToken.sol\":154:184  uint256 csupply    =   9000000 */\n  0x02\n  sstore\n    /* \"contracts/bomToken.sol\":212:221  100000000 */\n  0x05f5e100\n    /* \"contracts/bomToken.sol\":190:221  uint256 maxSupply   = 100000000 */\n  0x03\n  sstore\n    /* \"contracts/bomToken.sol\":246:248  10 */\n  0x0a\n    /* \"contracts/bomToken.sol\":227:248  uint256 decimal  = 10 */\n  0x04\n  sstore\n    /* \"contracts/bomToken.sol\":426:481  constructor() {\r... */\n  callvalue\n  dup1\n  iszero\n  tag_4\n  jumpi\n  0x00\n  dup1\n  revert\ntag_4:\n  pop\n    /* \"contracts/bomToken.sol\":462:472  msg.sender */\n  caller\n    /* \"contracts/bomToken.sol\":452:457  owner */\n  0x05\n  0x00\n    /* \"contracts/bomToken.sol\":452:472  owner   = msg.sender */\n  0x0100\n  exp\n  dup2\n  sload\n  dup2\n  0xffffffffffffffffffffffffffffffffffffffff\n  mul\n  not\n  and\n  swap1\n  dup4\n  0xffffffffffffffffffffffffffffffffffffffff\n  and\n  mul\n  or\n  swap1\n  sstore\n  pop\n    /* \"contracts/bomToken.sol\":62:1405  contract BomToken {\r... */\n  jump(tag_7)\ntag_2:\n  dup3\n  dup1\n  sload\n  tag_8\n  swap1\n  tag_9\n  jump\t// in\ntag_8:\n  swap1\n  0x00\n  mstore\n  keccak256(0x00, 0x20)\n  swap1\n  0x1f\n  add\n  0x20\n  swap1\n  div\n  dup2\n  add\n  swap3\n  dup3\n  tag_11\n  jumpi\n  0x00\n  dup6\n  sstore\n  jump(tag_10)\ntag_11:\n  dup3\n  0x1f\n  lt\n  tag_12\n  jumpi\n  dup1\n  mload\n  not(0xff)\n  and\n  dup4\n  dup1\n  add\n  or\n  dup6\n  sstore\n  jump(tag_10)\ntag_12:\n  dup3\n  dup1\n  add\n  0x01\n  add\n  dup6\n  sstore\n  dup3\n  iszero\n  tag_10\n  jumpi\n  swap2\n  dup3\n  add\ntag_13:\n  dup3\n  dup2\n  gt\n  iszero\n  tag_14\n  jumpi\n  dup3\n  mload\n  dup3\n  sstore\n  swap2\n  0x20\n  add\n  swap2\n  swap1\n  0x01\n  add\n  swap1\n  jump(tag_13)\ntag_14:\ntag_10:\n  pop\n  swap1\n  pop\n  tag_15\n  swap2\n  swap1\n  tag_16\n  jump\t// in\ntag_15:\n  pop\n  swap1\n  jump\t// out\ntag_16:\ntag_17:\n  dup1\n  dup3\n  gt\n  iszero\n  tag_18\n  jumpi\n  0x00\n  dup2\n  0x00\n  swap1\n  sstore\n  pop\n  0x01\n  add\n  jump(tag_17)\ntag_18:\n  pop\n  swap1\n  jump\t// out\n    /* \"#utility.yul\":7:327   */\ntag_9:\n    /* \"#utility.yul\":51:57   */\n  0x00\n    /* \"#utility.yul\":88:89   */\n  0x02\n    /* \"#utility.yul\":82:86   */\n  dup3\n    /* \"#utility.yul\":78:90   */\n  div\n    /* \"#utility.yul\":68:90   */\n  swap1\n  pop\n    /* \"#utility.yul\":135:136   */\n  0x01\n    /* \"#utility.yul\":129:133   */\n  dup3\n    /* \"#utility.yul\":125:137   */\n  and\n    /* \"#utility.yul\":156:174   */\n  dup1\n    /* \"#utility.yul\":146:227   */\n  tag_21\n  jumpi\n    /* \"#utility.yul\":212:216   */\n  0x7f\n    /* \"#utility.yul\":204:210   */\n  dup3\n    /* \"#utility.yul\":200:217   */\n  and\n    /* \"#utility.yul\":190:217   */\n  swap2\n  pop\n    /* \"#utility.yul\":146:227   */\ntag_21:\n    /* \"#utility.yul\":274:276   */\n  0x20\n    /* \"#utility.yul\":266:272   */\n  dup3\n    /* \"#utility.yul\":263:277   */\n  lt\n    /* \"#utility.yul\":243:261   */\n  dup2\n    /* \"#utility.yul\":240:278   */\n  eq\n    /* \"#utility.yul\":237:321   */\n  iszero\n  tag_22\n  jumpi\n    /* \"#utility.yul\":293:311   */\n  tag_23\n  tag_24\n  jump\t// in\ntag_23:\n    /* \"#utility.yul\":237:321   */\ntag_22:\n    /* \"#utility.yul\":58:327   */\n  pop\n    /* \"#utility.yul\":7:327   */\n  swap2\n  swap1\n  pop\n  jump\t// out\n    /* \"#utility.yul\":333:513   */\ntag_24:\n    /* \"#utility.yul\":381:458   */\n  0x4e487b7100000000000000000000000000000000000000000000000000000000\n    /* \"#utility.yul\":378:379   */\n  0x00\n    /* \"#utility.yul\":371:459   */\n  mstore\n    /* \"#utility.yul\":478:482   */\n  0x22\n    /* \"#utility.yul\":475:476   */\n  0x04\n    /* \"#utility.yul\":468:483   */\n  mstore\n    /* \"#utility.yul\":502:506   */\n  0x24\n    /* \"#utility.yul\":499:500   */\n  0x00\n    /* \"#utility.yul\":492:507   */\n  revert\n    /* \"contracts/bomToken.sol\":62:1405  contract BomToken {\r... */\ntag_7:\n  dataSize(sub_0)\n  dup1\n  dataOffset(sub_0)\n  0x00\n  codecopy\n  0x00\n  return\nstop\n\nsub_0: assembly {\n        /* \"contracts/bomToken.sol\":62:1405  contract BomToken {\r... */\n      mstore(0x40, 0x80)\n      callvalue\n      dup1\n      iszero\n      tag_1\n      jumpi\n      0x00\n      dup1\n      revert\n    tag_1:\n      pop\n      jumpi(tag_2, lt(calldatasize, 0x04))\n      shr(0xe0, calldataload(0x00))\n      dup1\n      0x94bf804d\n      gt\n      tag_10\n      jumpi\n      dup1\n      0x94bf804d\n      eq\n      tag_6\n      jumpi\n      dup1\n      0xc610bb07\n      eq\n      tag_7\n      jumpi\n      dup1\n      0xdaea85c5\n      eq\n      tag_8\n      jumpi\n      dup1\n      0xf8b2cb4f\n      eq\n      tag_9\n      jumpi\n      jump(tag_2)\n    tag_10:\n      dup1\n      0x42966c68\n      eq\n      tag_3\n      jumpi\n      dup1\n      0x4637d827\n      eq\n      tag_4\n      jumpi\n      dup1\n      0x566690ec\n      eq\n      tag_5\n      jumpi\n    tag_2:\n      0x00\n      dup1\n      revert\n        /* \"contracts/bomToken.sol\":947:1067  function burn(uint256 _amount) public {\r... */\n    tag_3:\n      tag_11\n      0x04\n      dup1\n      calldatasize\n      sub\n      dup2\n      add\n      swap1\n      tag_12\n      swap2\n      swap1\n      tag_13\n      jump\t// in\n    tag_12:\n      tag_14\n      jump\t// in\n    tag_11:\n      stop\n        /* \"contracts/bomToken.sol\":377:418  mapping(address => address ) public trust */\n    tag_4:\n      tag_15\n      0x04\n      dup1\n      calldatasize\n      sub\n      dup2\n      add\n      swap1\n      tag_16\n      swap2\n      swap1\n      tag_17\n      jump\t// in\n    tag_16:\n      tag_18\n      jump\t// in\n    tag_15:\n      mload(0x40)\n      tag_19\n      swap2\n      swap1\n      tag_20\n      jump\t// in\n    tag_19:\n      mload(0x40)\n      dup1\n      swap2\n      sub\n      swap1\n      return\n        /* \"contracts/bomToken.sol\":279:326  mapping(address => address ) public transaction */\n    tag_5:\n      tag_21\n      0x04\n      dup1\n      calldatasize\n      sub\n      dup2\n      add\n      swap1\n      tag_22\n      swap2\n      swap1\n      tag_17\n      jump\t// in\n    tag_22:\n      tag_23\n      jump\t// in\n    tag_21:\n      mload(0x40)\n      tag_24\n      swap2\n      swap1\n      tag_20\n      jump\t// in\n    tag_24:\n      mload(0x40)\n      dup1\n      swap2\n      sub\n      swap1\n      return\n        /* \"contracts/bomToken.sol\":708:939  function mint(uint256 _amount ,address targetAdress) public {\r... */\n    tag_6:\n      tag_25\n      0x04\n      dup1\n      calldatasize\n      sub\n      dup2\n      add\n      swap1\n      tag_26\n      swap2\n      swap1\n      tag_27\n      jump\t// in\n    tag_26:\n      tag_28\n      jump\t// in\n    tag_25:\n      stop\n        /* \"contracts/bomToken.sol\":1179:1381  function tranfer (address _target, uint256 _amount ) public {\r... */\n    tag_7:\n      tag_29\n      0x04\n      dup1\n      calldatasize\n      sub\n      dup2\n      add\n      swap1\n      tag_30\n      swap2\n      swap1\n      tag_31\n      jump\t// in\n    tag_30:\n      tag_32\n      jump\t// in\n    tag_29:\n      stop\n        /* \"contracts/bomToken.sol\":1075:1163  function approve (address _trusty) public {\r... */\n    tag_8:\n      tag_33\n      0x04\n      dup1\n      calldatasize\n      sub\n      dup2\n      add\n      swap1\n      tag_34\n      swap2\n      swap1\n      tag_17\n      jump\t// in\n    tag_34:\n      tag_35\n      jump\t// in\n    tag_33:\n      stop\n        /* \"contracts/bomToken.sol\":574:698  function getBalance(address targetwallet) public view returns(uint256)\r... */\n    tag_9:\n      tag_36\n      0x04\n      dup1\n      calldatasize\n      sub\n      dup2\n      add\n      swap1\n      tag_37\n      swap2\n      swap1\n      tag_17\n      jump\t// in\n    tag_37:\n      tag_38\n      jump\t// in\n    tag_36:\n      mload(0x40)\n      tag_39\n      swap2\n      swap1\n      tag_40\n      jump\t// in\n    tag_39:\n      mload(0x40)\n      dup1\n      swap2\n      sub\n      swap1\n      return\n        /* \"contracts/bomToken.sol\":947:1067  function burn(uint256 _amount) public {\r... */\n    tag_14:\n        /* \"contracts/bomToken.sol\":1018:1025  _amount */\n      dup1\n        /* \"contracts/bomToken.sol\":996:1002  ledger */\n      0x07\n        /* \"contracts/bomToken.sol\":996:1014  ledger[msg.sender] */\n      0x00\n        /* \"contracts/bomToken.sol\":1003:1013  msg.sender */\n      caller\n        /* \"contracts/bomToken.sol\":996:1014  ledger[msg.sender] */\n      0xffffffffffffffffffffffffffffffffffffffff\n      and\n      0xffffffffffffffffffffffffffffffffffffffff\n      and\n      dup2\n      mstore\n      0x20\n      add\n      swap1\n      dup2\n      mstore\n      0x20\n      add\n      0x00\n      keccak256\n      0x00\n        /* \"contracts/bomToken.sol\":996:1025  ledger[msg.sender] -= _amount */\n      dup3\n      dup3\n      sload\n      tag_42\n      swap2\n      swap1\n      tag_43\n      jump\t// in\n    tag_42:\n      swap3\n      pop\n      pop\n      dup2\n      swap1\n      sstore\n      pop\n        /* \"contracts/bomToken.sol\":1052:1059  _amount */\n      dup1\n        /* \"contracts/bomToken.sol\":1041:1048  csupply */\n      0x02\n      0x00\n        /* \"contracts/bomToken.sol\":1041:1059  csupply -= _amount */\n      dup3\n      dup3\n      sload\n      tag_44\n      swap2\n      swap1\n      tag_43\n      jump\t// in\n    tag_44:\n      swap3\n      pop\n      pop\n      dup2\n      swap1\n      sstore\n      pop\n        /* \"contracts/bomToken.sol\":947:1067  function burn(uint256 _amount) public {\r... */\n      pop\n      jump\t// out\n        /* \"contracts/bomToken.sol\":377:418  mapping(address => address ) public trust */\n    tag_18:\n      mstore(0x20, 0x08)\n      dup1\n      0x00\n      mstore\n      keccak256(0x00, 0x40)\n      0x00\n      swap2\n      pop\n      sload\n      swap1\n      0x0100\n      exp\n      swap1\n      div\n      0xffffffffffffffffffffffffffffffffffffffff\n      and\n      dup2\n      jump\t// out\n        /* \"contracts/bomToken.sol\":279:326  mapping(address => address ) public transaction */\n    tag_23:\n      mstore(0x20, 0x06)\n      dup1\n      0x00\n      mstore\n      keccak256(0x00, 0x40)\n      0x00\n      swap2\n      pop\n      sload\n      swap1\n      0x0100\n      exp\n      swap1\n      div\n      0xffffffffffffffffffffffffffffffffffffffff\n      and\n      dup2\n      jump\t// out\n        /* \"contracts/bomToken.sol\":708:939  function mint(uint256 _amount ,address targetAdress) public {\r... */\n    tag_28:\n        /* \"contracts/bomToken.sol\":812:821  maxSupply */\n      sload(0x03)\n        /* \"contracts/bomToken.sol\":801:808  csupply */\n      sload(0x02)\n        /* \"contracts/bomToken.sol\":793:800  _amount */\n      dup4\n        /* \"contracts/bomToken.sol\":793:808  _amount+csupply */\n      tag_46\n      swap2\n      swap1\n      tag_47\n      jump\t// in\n    tag_46:\n        /* \"contracts/bomToken.sol\":793:821  _amount+csupply <= maxSupply */\n      gt\n      iszero\n        /* \"contracts/bomToken.sol\":784:850  require( _amount+csupply <= maxSupply , \"error not enough supply\") */\n      tag_48\n      jumpi\n      mload(0x40)\n      0x08c379a000000000000000000000000000000000000000000000000000000000\n      dup2\n      mstore\n      0x04\n      add\n      tag_49\n      swap1\n      tag_50\n      jump\t// in\n    tag_49:\n      mload(0x40)\n      dup1\n      swap2\n      sub\n      swap1\n      revert\n    tag_48:\n        /* \"contracts/bomToken.sol\":890:897  _amount */\n      dup2\n        /* \"contracts/bomToken.sol\":866:872  ledger */\n      0x07\n        /* \"contracts/bomToken.sol\":866:886  ledger[targetAdress] */\n      0x00\n        /* \"contracts/bomToken.sol\":873:885  targetAdress */\n      dup4\n        /* \"contracts/bomToken.sol\":866:886  ledger[targetAdress] */\n      0xffffffffffffffffffffffffffffffffffffffff\n      and\n      0xffffffffffffffffffffffffffffffffffffffff\n      and\n      dup2\n      mstore\n      0x20\n      add\n      swap1\n      dup2\n      mstore\n      0x20\n      add\n      0x00\n      keccak256\n      0x00\n        /* \"contracts/bomToken.sol\":866:897  ledger[targetAdress] += _amount */\n      dup3\n      dup3\n      sload\n      tag_51\n      swap2\n      swap1\n      tag_47\n      jump\t// in\n    tag_51:\n      swap3\n      pop\n      pop\n      dup2\n      swap1\n      sstore\n      pop\n        /* \"contracts/bomToken.sol\":924:931  _amount */\n      dup2\n        /* \"contracts/bomToken.sol\":913:920  csupply */\n      0x02\n      0x00\n        /* \"contracts/bomToken.sol\":913:931  csupply += _amount */\n      dup3\n      dup3\n      sload\n      tag_52\n      swap2\n      swap1\n      tag_47\n      jump\t// in\n    tag_52:\n      swap3\n      pop\n      pop\n      dup2\n      swap1\n      sstore\n      pop\n        /* \"contracts/bomToken.sol\":708:939  function mint(uint256 _amount ,address targetAdress) public {\r... */\n      pop\n      pop\n      jump\t// out\n        /* \"contracts/bomToken.sol\":1179:1381  function tranfer (address _target, uint256 _amount ) public {\r... */\n    tag_32:\n        /* \"contracts/bomToken.sol\":1280:1287  _amount */\n      dup1\n        /* \"contracts/bomToken.sol\":1259:1265  ledger */\n      0x07\n        /* \"contracts/bomToken.sol\":1259:1277  ledger[msg.sender] */\n      0x00\n        /* \"contracts/bomToken.sol\":1266:1276  msg.sender */\n      caller\n        /* \"contracts/bomToken.sol\":1259:1277  ledger[msg.sender] */\n      0xffffffffffffffffffffffffffffffffffffffff\n      and\n      0xffffffffffffffffffffffffffffffffffffffff\n      and\n      dup2\n      mstore\n      0x20\n      add\n      swap1\n      dup2\n      mstore\n      0x20\n      add\n      0x00\n      keccak256\n      sload\n        /* \"contracts/bomToken.sol\":1259:1287  ledger[msg.sender] > _amount */\n      gt\n        /* \"contracts/bomToken.sol\":1251:1288  require(ledger[msg.sender] > _amount) */\n      tag_54\n      jumpi\n      0x00\n      dup1\n      revert\n    tag_54:\n        /* \"contracts/bomToken.sol\":1319:1326  _amount */\n      dup1\n        /* \"contracts/bomToken.sol\":1300:1306  ledger */\n      0x07\n        /* \"contracts/bomToken.sol\":1300:1315  ledger[_target] */\n      0x00\n        /* \"contracts/bomToken.sol\":1307:1314  _target */\n      dup5\n        /* \"contracts/bomToken.sol\":1300:1315  ledger[_target] */\n      0xffffffffffffffffffffffffffffffffffffffff\n      and\n      0xffffffffffffffffffffffffffffffffffffffff\n      and\n      dup2\n      mstore\n      0x20\n      add\n      swap1\n      dup2\n      mstore\n      0x20\n      add\n      0x00\n      keccak256\n      0x00\n        /* \"contracts/bomToken.sol\":1300:1326  ledger[_target] += _amount */\n      dup3\n      dup3\n      sload\n      tag_55\n      swap2\n      swap1\n      tag_47\n      jump\t// in\n    tag_55:\n      swap3\n      pop\n      pop\n      dup2\n      swap1\n      sstore\n      pop\n        /* \"contracts/bomToken.sol\":1360:1367  _amount */\n      dup1\n        /* \"contracts/bomToken.sol\":1338:1344  ledger */\n      0x07\n        /* \"contracts/bomToken.sol\":1338:1356  ledger[msg.sender] */\n      0x00\n        /* \"contracts/bomToken.sol\":1345:1355  msg.sender */\n      caller\n        /* \"contracts/bomToken.sol\":1338:1356  ledger[msg.sender] */\n      0xffffffffffffffffffffffffffffffffffffffff\n      and\n      0xffffffffffffffffffffffffffffffffffffffff\n      and\n      dup2\n      mstore\n      0x20\n      add\n      swap1\n      dup2\n      mstore\n      0x20\n      add\n      0x00\n      keccak256\n      0x00\n        /* \"contracts/bomToken.sol\":1338:1367  ledger[msg.sender] += _amount */\n      dup3\n      dup3\n      sload\n      tag_56\n      swap2\n      swap1\n      tag_47\n      jump\t// in\n    tag_56:\n      swap3\n      pop\n      pop\n      dup2\n      swap1\n      sstore\n      pop\n        /* \"contracts/bomToken.sol\":1179:1381  function tranfer (address _target, uint256 _amount ) public {\r... */\n      pop\n      pop\n      jump\t// out\n        /* \"contracts/bomToken.sol\":1075:1163  function approve (address _trusty) public {\r... */\n    tag_35:\n        /* \"contracts/bomToken.sol\":1148:1155  _trusty */\n      dup1\n        /* \"contracts/bomToken.sol\":1128:1133  trust */\n      0x08\n        /* \"contracts/bomToken.sol\":1128:1145  trust[msg.sender] */\n      0x00\n        /* \"contracts/bomToken.sol\":1134:1144  msg.sender */\n      caller\n        /* \"contracts/bomToken.sol\":1128:1145  trust[msg.sender] */\n      0xffffffffffffffffffffffffffffffffffffffff\n      and\n      0xffffffffffffffffffffffffffffffffffffffff\n      and\n      dup2\n      mstore\n      0x20\n      add\n      swap1\n      dup2\n      mstore\n      0x20\n      add\n      0x00\n      keccak256\n      0x00\n        /* \"contracts/bomToken.sol\":1128:1155  trust[msg.sender] = _trusty */\n      0x0100\n      exp\n      dup2\n      sload\n      dup2\n      0xffffffffffffffffffffffffffffffffffffffff\n      mul\n      not\n      and\n      swap1\n      dup4\n      0xffffffffffffffffffffffffffffffffffffffff\n      and\n      mul\n      or\n      swap1\n      sstore\n      pop\n        /* \"contracts/bomToken.sol\":1075:1163  function approve (address _trusty) public {\r... */\n      pop\n      jump\t// out\n        /* \"contracts/bomToken.sol\":574:698  function getBalance(address targetwallet) public view returns(uint256)\r... */\n    tag_38:\n        /* \"contracts/bomToken.sol\":636:643  uint256 */\n      0x00\n        /* \"contracts/bomToken.sol\":668:674  ledger */\n      0x07\n        /* \"contracts/bomToken.sol\":668:688  ledger[targetwallet] */\n      0x00\n        /* \"contracts/bomToken.sol\":675:687  targetwallet */\n      dup4\n        /* \"contracts/bomToken.sol\":668:688  ledger[targetwallet] */\n      0xffffffffffffffffffffffffffffffffffffffff\n      and\n      0xffffffffffffffffffffffffffffffffffffffff\n      and\n      dup2\n      mstore\n      0x20\n      add\n      swap1\n      dup2\n      mstore\n      0x20\n      add\n      0x00\n      keccak256\n      sload\n        /* \"contracts/bomToken.sol\":661:688  return ledger[targetwallet] */\n      swap1\n      pop\n        /* \"contracts/bomToken.sol\":574:698  function getBalance(address targetwallet) public view returns(uint256)\r... */\n      swap2\n      swap1\n      pop\n      jump\t// out\n        /* \"#utility.yul\":7:146   */\n    tag_60:\n        /* \"#utility.yul\":53:58   */\n      0x00\n        /* \"#utility.yul\":91:97   */\n      dup2\n        /* \"#utility.yul\":78:98   */\n      calldataload\n        /* \"#utility.yul\":69:98   */\n      swap1\n      pop\n        /* \"#utility.yul\":107:140   */\n      tag_62\n        /* \"#utility.yul\":134:139   */\n      dup2\n        /* \"#utility.yul\":107:140   */\n      tag_63\n      jump\t// in\n    tag_62:\n        /* \"#utility.yul\":7:146   */\n      swap3\n      swap2\n      pop\n      pop\n      jump\t// out\n        /* \"#utility.yul\":152:291   */\n    tag_64:\n        /* \"#utility.yul\":198:203   */\n      0x00\n        /* \"#utility.yul\":236:242   */\n      dup2\n        /* \"#utility.yul\":223:243   */\n      calldataload\n        /* \"#utility.yul\":214:243   */\n      swap1\n      pop\n        /* \"#utility.yul\":252:285   */\n      tag_66\n        /* \"#utility.yul\":279:284   */\n      dup2\n        /* \"#utility.yul\":252:285   */\n      tag_67\n      jump\t// in\n    tag_66:\n        /* \"#utility.yul\":152:291   */\n      swap3\n      swap2\n      pop\n      pop\n      jump\t// out\n        /* \"#utility.yul\":297:626   */\n    tag_17:\n        /* \"#utility.yul\":356:362   */\n      0x00\n        /* \"#utility.yul\":405:407   */\n      0x20\n        /* \"#utility.yul\":393:402   */\n      dup3\n        /* \"#utility.yul\":384:391   */\n      dup5\n        /* \"#utility.yul\":380:403   */\n      sub\n        /* \"#utility.yul\":376:408   */\n      slt\n        /* \"#utility.yul\":373:492   */\n      iszero\n      tag_69\n      jumpi\n        /* \"#utility.yul\":411:490   */\n      tag_70\n      tag_71\n      jump\t// in\n    tag_70:\n        /* \"#utility.yul\":373:492   */\n    tag_69:\n        /* \"#utility.yul\":531:532   */\n      0x00\n        /* \"#utility.yul\":556:609   */\n      tag_72\n        /* \"#utility.yul\":601:608   */\n      dup5\n        /* \"#utility.yul\":592:598   */\n      dup3\n        /* \"#utility.yul\":581:590   */\n      dup6\n        /* \"#utility.yul\":577:599   */\n      add\n        /* \"#utility.yul\":556:609   */\n      tag_60\n      jump\t// in\n    tag_72:\n        /* \"#utility.yul\":546:609   */\n      swap2\n      pop\n        /* \"#utility.yul\":502:619   */\n      pop\n        /* \"#utility.yul\":297:626   */\n      swap3\n      swap2\n      pop\n      pop\n      jump\t// out\n        /* \"#utility.yul\":632:1106   */\n    tag_31:\n        /* \"#utility.yul\":700:706   */\n      0x00\n        /* \"#utility.yul\":708:714   */\n      dup1\n        /* \"#utility.yul\":757:759   */\n      0x40\n        /* \"#utility.yul\":745:754   */\n      dup4\n        /* \"#utility.yul\":736:743   */\n      dup6\n        /* \"#utility.yul\":732:755   */\n      sub\n        /* \"#utility.yul\":728:760   */\n      slt\n        /* \"#utility.yul\":725:844   */\n      iszero\n      tag_74\n      jumpi\n        /* \"#utility.yul\":763:842   */\n      tag_75\n      tag_71\n      jump\t// in\n    tag_75:\n        /* \"#utility.yul\":725:844   */\n    tag_74:\n        /* \"#utility.yul\":883:884   */\n      0x00\n        /* \"#utility.yul\":908:961   */\n      tag_76\n        /* \"#utility.yul\":953:960   */\n      dup6\n        /* \"#utility.yul\":944:950   */\n      dup3\n        /* \"#utility.yul\":933:942   */\n      dup7\n        /* \"#utility.yul\":929:951   */\n      add\n        /* \"#utility.yul\":908:961   */\n      tag_60\n      jump\t// in\n    tag_76:\n        /* \"#utility.yul\":898:961   */\n      swap3\n      pop\n        /* \"#utility.yul\":854:971   */\n      pop\n        /* \"#utility.yul\":1010:1012   */\n      0x20\n        /* \"#utility.yul\":1036:1089   */\n      tag_77\n        /* \"#utility.yul\":1081:1088   */\n      dup6\n        /* \"#utility.yul\":1072:1078   */\n      dup3\n        /* \"#utility.yul\":1061:1070   */\n      dup7\n        /* \"#utility.yul\":1057:1079   */\n      add\n        /* \"#utility.yul\":1036:1089   */\n      tag_64\n      jump\t// in\n    tag_77:\n        /* \"#utility.yul\":1026:1089   */\n      swap2\n      pop\n        /* \"#utility.yul\":981:1099   */\n      pop\n        /* \"#utility.yul\":632:1106   */\n      swap3\n      pop\n      swap3\n      swap1\n      pop\n      jump\t// out\n        /* \"#utility.yul\":1112:1441   */\n    tag_13:\n        /* \"#utility.yul\":1171:1177   */\n      0x00\n        /* \"#utility.yul\":1220:1222   */\n      0x20\n        /* \"#utility.yul\":1208:1217   */\n      dup3\n        /* \"#utility.yul\":1199:1206   */\n      dup5\n        /* \"#utility.yul\":1195:1218   */\n      sub\n        /* \"#utility.yul\":1191:1223   */\n      slt\n        /* \"#utility.yul\":1188:1307   */\n      iszero\n      tag_79\n      jumpi\n        /* \"#utility.yul\":1226:1305   */\n      tag_80\n      tag_71\n      jump\t// in\n    tag_80:\n        /* \"#utility.yul\":1188:1307   */\n    tag_79:\n        /* \"#utility.yul\":1346:1347   */\n      0x00\n        /* \"#utility.yul\":1371:1424   */\n      tag_81\n        /* \"#utility.yul\":1416:1423   */\n      dup5\n        /* \"#utility.yul\":1407:1413   */\n      dup3\n        /* \"#utility.yul\":1396:1405   */\n      dup6\n        /* \"#utility.yul\":1392:1414   */\n      add\n        /* \"#utility.yul\":1371:1424   */\n      tag_64\n      jump\t// in\n    tag_81:\n        /* \"#utility.yul\":1361:1424   */\n      swap2\n      pop\n        /* \"#utility.yul\":1317:1434   */\n      pop\n        /* \"#utility.yul\":1112:1441   */\n      swap3\n      swap2\n      pop\n      pop\n      jump\t// out\n        /* \"#utility.yul\":1447:1921   */\n    tag_27:\n        /* \"#utility.yul\":1515:1521   */\n      0x00\n        /* \"#utility.yul\":1523:1529   */\n      dup1\n        /* \"#utility.yul\":1572:1574   */\n      0x40\n        /* \"#utility.yul\":1560:1569   */\n      dup4\n        /* \"#utility.yul\":1551:1558   */\n      dup6\n        /* \"#utility.yul\":1547:1570   */\n      sub\n        /* \"#utility.yul\":1543:1575   */\n      slt\n        /* \"#utility.yul\":1540:1659   */\n      iszero\n      tag_83\n      jumpi\n        /* \"#utility.yul\":1578:1657   */\n      tag_84\n      tag_71\n      jump\t// in\n    tag_84:\n        /* \"#utility.yul\":1540:1659   */\n    tag_83:\n        /* \"#utility.yul\":1698:1699   */\n      0x00\n        /* \"#utility.yul\":1723:1776   */\n      tag_85\n        /* \"#utility.yul\":1768:1775   */\n      dup6\n        /* \"#utility.yul\":1759:1765   */\n      dup3\n        /* \"#utility.yul\":1748:1757   */\n      dup7\n        /* \"#utility.yul\":1744:1766   */\n      add\n        /* \"#utility.yul\":1723:1776   */\n      tag_64\n      jump\t// in\n    tag_85:\n        /* \"#utility.yul\":1713:1776   */\n      swap3\n      pop\n        /* \"#utility.yul\":1669:1786   */\n      pop\n        /* \"#utility.yul\":1825:1827   */\n      0x20\n        /* \"#utility.yul\":1851:1904   */\n      tag_86\n        /* \"#utility.yul\":1896:1903   */\n      dup6\n        /* \"#utility.yul\":1887:1893   */\n      dup3\n        /* \"#utility.yul\":1876:1885   */\n      dup7\n        /* \"#utility.yul\":1872:1894   */\n      add\n        /* \"#utility.yul\":1851:1904   */\n      tag_60\n      jump\t// in\n    tag_86:\n        /* \"#utility.yul\":1841:1904   */\n      swap2\n      pop\n        /* \"#utility.yul\":1796:1914   */\n      pop\n        /* \"#utility.yul\":1447:1921   */\n      swap3\n      pop\n      swap3\n      swap1\n      pop\n      jump\t// out\n        /* \"#utility.yul\":1927:2045   */\n    tag_87:\n        /* \"#utility.yul\":2014:2038   */\n      tag_89\n        /* \"#utility.yul\":2032:2037   */\n      dup2\n        /* \"#utility.yul\":2014:2038   */\n      tag_90\n      jump\t// in\n    tag_89:\n        /* \"#utility.yul\":2009:2012   */\n      dup3\n        /* \"#utility.yul\":2002:2039   */\n      mstore\n        /* \"#utility.yul\":1927:2045   */\n      pop\n      pop\n      jump\t// out\n        /* \"#utility.yul\":2051:2417   */\n    tag_91:\n        /* \"#utility.yul\":2193:2196   */\n      0x00\n        /* \"#utility.yul\":2214:2281   */\n      tag_93\n        /* \"#utility.yul\":2278:2280   */\n      0x17\n        /* \"#utility.yul\":2273:2276   */\n      dup4\n        /* \"#utility.yul\":2214:2281   */\n      tag_94\n      jump\t// in\n    tag_93:\n        /* \"#utility.yul\":2207:2281   */\n      swap2\n      pop\n        /* \"#utility.yul\":2290:2383   */\n      tag_95\n        /* \"#utility.yul\":2379:2382   */\n      dup3\n        /* \"#utility.yul\":2290:2383   */\n      tag_96\n      jump\t// in\n    tag_95:\n        /* \"#utility.yul\":2408:2410   */\n      0x20\n        /* \"#utility.yul\":2403:2406   */\n      dup3\n        /* \"#utility.yul\":2399:2411   */\n      add\n        /* \"#utility.yul\":2392:2411   */\n      swap1\n      pop\n        /* \"#utility.yul\":2051:2417   */\n      swap2\n      swap1\n      pop\n      jump\t// out\n        /* \"#utility.yul\":2423:2541   */\n    tag_97:\n        /* \"#utility.yul\":2510:2534   */\n      tag_99\n        /* \"#utility.yul\":2528:2533   */\n      dup2\n        /* \"#utility.yul\":2510:2534   */\n      tag_100\n      jump\t// in\n    tag_99:\n        /* \"#utility.yul\":2505:2508   */\n      dup3\n        /* \"#utility.yul\":2498:2535   */\n      mstore\n        /* \"#utility.yul\":2423:2541   */\n      pop\n      pop\n      jump\t// out\n        /* \"#utility.yul\":2547:2769   */\n    tag_20:\n        /* \"#utility.yul\":2640:2644   */\n      0x00\n        /* \"#utility.yul\":2678:2680   */\n      0x20\n        /* \"#utility.yul\":2667:2676   */\n      dup3\n        /* \"#utility.yul\":2663:2681   */\n      add\n        /* \"#utility.yul\":2655:2681   */\n      swap1\n      pop\n        /* \"#utility.yul\":2691:2762   */\n      tag_102\n        /* \"#utility.yul\":2759:2760   */\n      0x00\n        /* \"#utility.yul\":2748:2757   */\n      dup4\n        /* \"#utility.yul\":2744:2761   */\n      add\n        /* \"#utility.yul\":2735:2741   */\n      dup5\n        /* \"#utility.yul\":2691:2762   */\n      tag_87\n      jump\t// in\n    tag_102:\n        /* \"#utility.yul\":2547:2769   */\n      swap3\n      swap2\n      pop\n      pop\n      jump\t// out\n        /* \"#utility.yul\":2775:3194   */\n    tag_50:\n        /* \"#utility.yul\":2941:2945   */\n      0x00\n        /* \"#utility.yul\":2979:2981   */\n      0x20\n        /* \"#utility.yul\":2968:2977   */\n      dup3\n        /* \"#utility.yul\":2964:2982   */\n      add\n        /* \"#utility.yul\":2956:2982   */\n      swap1\n      pop\n        /* \"#utility.yul\":3028:3037   */\n      dup2\n        /* \"#utility.yul\":3022:3026   */\n      dup2\n        /* \"#utility.yul\":3018:3038   */\n      sub\n        /* \"#utility.yul\":3014:3015   */\n      0x00\n        /* \"#utility.yul\":3003:3012   */\n      dup4\n        /* \"#utility.yul\":2999:3016   */\n      add\n        /* \"#utility.yul\":2992:3039   */\n      mstore\n        /* \"#utility.yul\":3056:3187   */\n      tag_104\n        /* \"#utility.yul\":3182:3186   */\n      dup2\n        /* \"#utility.yul\":3056:3187   */\n      tag_91\n      jump\t// in\n    tag_104:\n        /* \"#utility.yul\":3048:3187   */\n      swap1\n      pop\n        /* \"#utility.yul\":2775:3194   */\n      swap2\n      swap1\n      pop\n      jump\t// out\n        /* \"#utility.yul\":3200:3422   */\n    tag_40:\n        /* \"#utility.yul\":3293:3297   */\n      0x00\n        /* \"#utility.yul\":3331:3333   */\n      0x20\n        /* \"#utility.yul\":3320:3329   */\n      dup3\n        /* \"#utility.yul\":3316:3334   */\n      add\n        /* \"#utility.yul\":3308:3334   */\n      swap1\n      pop\n        /* \"#utility.yul\":3344:3415   */\n      tag_106\n        /* \"#utility.yul\":3412:3413   */\n      0x00\n        /* \"#utility.yul\":3401:3410   */\n      dup4\n        /* \"#utility.yul\":3397:3414   */\n      add\n        /* \"#utility.yul\":3388:3394   */\n      dup5\n        /* \"#utility.yul\":3344:3415   */\n      tag_97\n      jump\t// in\n    tag_106:\n        /* \"#utility.yul\":3200:3422   */\n      swap3\n      swap2\n      pop\n      pop\n      jump\t// out\n        /* \"#utility.yul\":3509:3678   */\n    tag_94:\n        /* \"#utility.yul\":3593:3604   */\n      0x00\n        /* \"#utility.yul\":3627:3633   */\n      dup3\n        /* \"#utility.yul\":3622:3625   */\n      dup3\n        /* \"#utility.yul\":3615:3634   */\n      mstore\n        /* \"#utility.yul\":3667:3671   */\n      0x20\n        /* \"#utility.yul\":3662:3665   */\n      dup3\n        /* \"#utility.yul\":3658:3672   */\n      add\n        /* \"#utility.yul\":3643:3672   */\n      swap1\n      pop\n        /* \"#utility.yul\":3509:3678   */\n      swap3\n      swap2\n      pop\n      pop\n      jump\t// out\n        /* \"#utility.yul\":3684:3989   */\n    tag_47:\n        /* \"#utility.yul\":3724:3727   */\n      0x00\n        /* \"#utility.yul\":3743:3763   */\n      tag_111\n        /* \"#utility.yul\":3761:3762   */\n      dup3\n        /* \"#utility.yul\":3743:3763   */\n      tag_100\n      jump\t// in\n    tag_111:\n        /* \"#utility.yul\":3738:3763   */\n      swap2\n      pop\n        /* \"#utility.yul\":3777:3797   */\n      tag_112\n        /* \"#utility.yul\":3795:3796   */\n      dup4\n        /* \"#utility.yul\":3777:3797   */\n      tag_100\n      jump\t// in\n    tag_112:\n        /* \"#utility.yul\":3772:3797   */\n      swap3\n      pop\n        /* \"#utility.yul\":3931:3932   */\n      dup3\n        /* \"#utility.yul\":3863:3929   */\n      0xffffffffffffffffffffffffffffffffffffffffffffffffffffffffffffffff\n        /* \"#utility.yul\":3859:3933   */\n      sub\n        /* \"#utility.yul\":3856:3857   */\n      dup3\n        /* \"#utility.yul\":3853:3934   */\n      gt\n        /* \"#utility.yul\":3850:3957   */\n      iszero\n      tag_113\n      jumpi\n        /* \"#utility.yul\":3937:3955   */\n      tag_114\n      tag_115\n      jump\t// in\n    tag_114:\n        /* \"#utility.yul\":3850:3957   */\n    tag_113:\n        /* \"#utility.yul\":3981:3982   */\n      dup3\n        /* \"#utility.yul\":3978:3979   */\n      dup3\n        /* \"#utility.yul\":3974:3983   */\n      add\n        /* \"#utility.yul\":3967:3983   */\n      swap1\n      pop\n        /* \"#utility.yul\":3684:3989   */\n      swap3\n      swap2\n      pop\n      pop\n      jump\t// out\n        /* \"#utility.yul\":3995:4186   */\n    tag_43:\n        /* \"#utility.yul\":4035:4039   */\n      0x00\n        /* \"#utility.yul\":4055:4075   */\n      tag_117\n        /* \"#utility.yul\":4073:4074   */\n      dup3\n        /* \"#utility.yul\":4055:4075   */\n      tag_100\n      jump\t// in\n    tag_117:\n        /* \"#utility.yul\":4050:4075   */\n      swap2\n      pop\n        /* \"#utility.yul\":4089:4109   */\n      tag_118\n        /* \"#utility.yul\":4107:4108   */\n      dup4\n        /* \"#utility.yul\":4089:4109   */\n      tag_100\n      jump\t// in\n    tag_118:\n        /* \"#utility.yul\":4084:4109   */\n      swap3\n      pop\n        /* \"#utility.yul\":4128:4129   */\n      dup3\n        /* \"#utility.yul\":4125:4126   */\n      dup3\n        /* \"#utility.yul\":4122:4130   */\n      lt\n        /* \"#utility.yul\":4119:4153   */\n      iszero\n      tag_119\n      jumpi\n        /* \"#utility.yul\":4133:4151   */\n      tag_120\n      tag_115\n      jump\t// in\n    tag_120:\n        /* \"#utility.yul\":4119:4153   */\n    tag_119:\n        /* \"#utility.yul\":4178:4179   */\n      dup3\n        /* \"#utility.yul\":4175:4176   */\n      dup3\n        /* \"#utility.yul\":4171:4180   */\n      sub\n        /* \"#utility.yul\":4163:4180   */\n      swap1\n      pop\n        /* \"#utility.yul\":3995:4186   */\n      swap3\n      swap2\n      pop\n      pop\n      jump\t// out\n        /* \"#utility.yul\":4192:4288   */\n    tag_90:\n        /* \"#utility.yul\":4229:4236   */\n      0x00\n        /* \"#utility.yul\":4258:4282   */\n      tag_122\n        /* \"#utility.yul\":4276:4281   */\n      dup3\n        /* \"#utility.yul\":4258:4282   */\n      tag_123\n      jump\t// in\n    tag_122:\n        /* \"#utility.yul\":4247:4282   */\n      swap1\n      pop\n        /* \"#utility.yul\":4192:4288   */\n      swap2\n      swap1\n      pop\n      jump\t// out\n        /* \"#utility.yul\":4294:4420   */\n    tag_123:\n        /* \"#utility.yul\":4331:4338   */\n      0x00\n        /* \"#utility.yul\":4371:4413   */\n      0xffffffffffffffffffffffffffffffffffffffff\n        /* \"#utility.yul\":4364:4369   */\n      dup3\n        /* \"#utility.yul\":4360:4414   */\n      and\n        /* \"#utility.yul\":4349:4414   */\n      swap1\n      pop\n        /* \"#utility.yul\":4294:4420   */\n      swap2\n      swap1\n      pop\n      jump\t// out\n        /* \"#utility.yul\":4426:4503   */\n    tag_100:\n        /* \"#utility.yul\":4463:4470   */\n      0x00\n        /* \"#utility.yul\":4492:4497   */\n      dup2\n        /* \"#utility.yul\":4481:4497   */\n      swap1\n      pop\n        /* \"#utility.yul\":4426:4503   */\n      swap2\n      swap1\n      pop\n      jump\t// out\n        /* \"#utility.yul\":4509:4689   */\n    tag_115:\n        /* \"#utility.yul\":4557:4634   */\n      0x4e487b7100000000000000000000000000000000000000000000000000000000\n        /* \"#utility.yul\":4554:4555   */\n      0x00\n        /* \"#utility.yul\":4547:4635   */\n      mstore\n        /* \"#utility.yul\":4654:4658   */\n      0x11\n        /* \"#utility.yul\":4651:4652   */\n      0x04\n        /* \"#utility.yul\":4644:4659   */\n      mstore\n        /* \"#utility.yul\":4678:4682   */\n      0x24\n        /* \"#utility.yul\":4675:4676   */\n      0x00\n        /* \"#utility.yul\":4668:4683   */\n      revert\n        /* \"#utility.yul\":4818:4935   */\n    tag_71:\n        /* \"#utility.yul\":4927:4928   */\n      0x00\n        /* \"#utility.yul\":4924:4925   */\n      dup1\n        /* \"#utility.yul\":4917:4929   */\n      revert\n        /* \"#utility.yul\":4941:5114   */\n    tag_96:\n        /* \"#utility.yul\":5081:5106   */\n      0x6572726f72206e6f7420656e6f75676820737570706c79000000000000000000\n        /* \"#utility.yul\":5077:5078   */\n      0x00\n        /* \"#utility.yul\":5069:5075   */\n      dup3\n        /* \"#utility.yul\":5065:5079   */\n      add\n        /* \"#utility.yul\":5058:5107   */\n      mstore\n        /* \"#utility.yul\":4941:5114   */\n      pop\n      jump\t// out\n        /* \"#utility.yul\":5120:5242   */\n    tag_63:\n        /* \"#utility.yul\":5193:5217   */\n      tag_132\n        /* \"#utility.yul\":5211:5216   */\n      dup2\n        /* \"#utility.yul\":5193:5217   */\n      tag_90\n      jump\t// in\n    tag_132:\n        /* \"#utility.yul\":5186:5191   */\n      dup2\n        /* \"#utility.yul\":5183:5218   */\n      eq\n        /* \"#utility.yul\":5173:5236   */\n      tag_133\n      jumpi\n        /* \"#utility.yul\":5232:5233   */\n      0x00\n        /* \"#utility.yul\":5229:5230   */\n      dup1\n        /* \"#utility.yul\":5222:5234   */\n      revert\n        /* \"#utility.yul\":5173:5236   */\n    tag_133:\n        /* \"#utility.yul\":5120:5242   */\n      pop\n      jump\t// out\n        /* \"#utility.yul\":5248:5370   */\n    tag_67:\n        /* \"#utility.yul\":5321:5345   */\n      tag_135\n        /* \"#utility.yul\":5339:5344   */\n      dup2\n        /* \"#utility.yul\":5321:5345   */\n      tag_100\n      jump\t// in\n    tag_135:\n        /* \"#utility.yul\":5314:5319   */\n      dup2\n        /* \"#utility.yul\":5311:5346   */\n      eq\n        /* \"#utility.yul\":5301:5364   */\n      tag_136\n      jumpi\n        /* \"#utility.yul\":5360:5361   */\n      0x00\n        /* \"#utility.yul\":5357:5358   */\n      dup1\n        /* \"#utility.yul\":5350:5362   */\n      revert\n        /* \"#utility.yul\":5301:5364   */\n    tag_136:\n        /* \"#utility.yul\":5248:5370   */\n      pop\n      jump\t// out\n\n    auxdata: 0xa2646970667358221220a0eec0ba5aad33420179b1270eddb341e376f6d0bcadd5388712c2c2fb313bbf64736f6c63430008070033\n}\n",
				"bytecode": {
					"linkReferences": {},
					"object": "60806040526040518060400160405280600981526020017f426f6d62546f6b656e00000000000000000000000000000000000000000000008152506000908051906020019061004f929190610103565b506040518060400160405280600281526020017f42540000000000000000000000000000000000000000000000000000000000008152506001908051906020019061009b929190610103565b50628954406002556305f5e100600355600a6004553480156100bc57600080fd5b5033600560006101000a81548173ffffffffffffffffffffffffffffffffffffffff021916908373ffffffffffffffffffffffffffffffffffffffff160217905550610207565b82805461010f906101a6565b90600052602060002090601f0160209004810192826101315760008555610178565b82601f1061014a57805160ff1916838001178555610178565b82800160010185558215610178579182015b8281111561017757825182559160200191906001019061015c565b5b5090506101859190610189565b5090565b5b808211156101a257600081600090555060010161018a565b5090565b600060028204905060018216806101be57607f821691505b602082108114156101d2576101d16101d8565b5b50919050565b7f4e487b7100000000000000000000000000000000000000000000000000000000600052602260045260246000fd5b610817806102166000396000f3fe608060405234801561001057600080fd5b506004361061007d5760003560e01c806394bf804d1161005b57806394bf804d146100fe578063c610bb071461011a578063daea85c514610136578063f8b2cb4f146101525761007d565b806342966c68146100825780634637d8271461009e578063566690ec146100ce575b600080fd5b61009c6004803603810190610097919061057b565b610182565b005b6100b860048036038101906100b3919061050e565b6101f4565b6040516100c59190610629565b60405180910390f35b6100e860048036038101906100e3919061050e565b610227565b6040516100f59190610629565b60405180910390f35b610118600480360381019061011391906105a8565b61025a565b005b610134600480360381019061012f919061053b565b61031f565b005b610150600480360381019061014b919061050e565b61041a565b005b61016c6004803603810190610167919061050e565b61049b565b6040516101799190610664565b60405180910390f35b80600760003373ffffffffffffffffffffffffffffffffffffffff1673ffffffffffffffffffffffffffffffffffffffff16815260200190815260200160002060008282546101d191906106e6565b9250508190555080600260008282546101ea91906106e6565b9250508190555050565b60086020528060005260406000206000915054906101000a900473ffffffffffffffffffffffffffffffffffffffff1681565b60066020528060005260406000206000915054906101000a900473ffffffffffffffffffffffffffffffffffffffff1681565b6003546002548361026b9190610690565b11156102ac576040517f08c379a00000000000000000000000000000000000000000000000000000000081526004016102a390610644565b60405180910390fd5b81600760008373ffffffffffffffffffffffffffffffffffffffff1673ffffffffffffffffffffffffffffffffffffffff16815260200190815260200160002060008282546102fb9190610690565b9250508190555081600260008282546103149190610690565b925050819055505050565b80600760003373ffffffffffffffffffffffffffffffffffffffff1673ffffffffffffffffffffffffffffffffffffffff168152602001908152602001600020541161036a57600080fd5b80600760008473ffffffffffffffffffffffffffffffffffffffff1673ffffffffffffffffffffffffffffffffffffffff16815260200190815260200160002060008282546103b99190610690565b9250508190555080600760003373ffffffffffffffffffffffffffffffffffffffff1673ffffffffffffffffffffffffffffffffffffffff168152602001908152602001600020600082825461040f9190610690565b925050819055505050565b80600860003373ffffffffffffffffffffffffffffffffffffffff1673ffffffffffffffffffffffffffffffffffffffff16815260200190815260200160002060006101000a81548173ffffffffffffffffffffffffffffffffffffffff021916908373ffffffffffffffffffffffffffffffffffffffff16021790555050565b6000600760008373ffffffffffffffffffffffffffffffffffffffff1673ffffffffffffffffffffffffffffffffffffffff168152602001908152602001600020549050919050565b6000813590506104f3816107b3565b92915050565b600081359050610508816107ca565b92915050565b60006020828403121561052457610523610785565b5b6000610532848285016104e4565b91505092915050565b6000806040838503121561055257610551610785565b5b6000610560858286016104e4565b9250506020610571858286016104f9565b9150509250929050565b60006020828403121561059157610590610785565b5b600061059f848285016104f9565b91505092915050565b600080604083850312156105bf576105be610785565b5b60006105cd858286016104f9565b92505060206105de858286016104e4565b9150509250929050565b6105f18161071a565b82525050565b600061060460178361067f565b915061060f8261078a565b602082019050919050565b6106238161074c565b82525050565b600060208201905061063e60008301846105e8565b92915050565b6000602082019050818103600083015261065d816105f7565b9050919050565b6000602082019050610679600083018461061a565b92915050565b600082825260208201905092915050565b600061069b8261074c565b91506106a68361074c565b9250827fffffffffffffffffffffffffffffffffffffffffffffffffffffffffffffffff038211156106db576106da610756565b5b828201905092915050565b60006106f18261074c565b91506106fc8361074c565b92508282101561070f5761070e610756565b5b828203905092915050565b60006107258261072c565b9050919050565b600073ffffffffffffffffffffffffffffffffffffffff82169050919050565b6000819050919050565b7f4e487b7100000000000000000000000000000000000000000000000000000000600052601160045260246000fd5b600080fd5b7f6572726f72206e6f7420656e6f75676820737570706c79000000000000000000600082015250565b6107bc8161071a565b81146107c757600080fd5b50565b6107d38161074c565b81146107de57600080fd5b5056fea2646970667358221220a0eec0ba5aad33420179b1270eddb341e376f6d0bcadd5388712c2c2fb313bbf64736f6c63430008070033",
					"opcodes": "PUSH1 0x80 PUSH1 0x40 MSTORE PUSH1 0x40 MLOAD DUP1 PUSH1 0x40 ADD PUSH1 0x40 MSTORE DUP1 PUSH1 0x9 DUP2 MSTORE PUSH1 0x20 ADD PUSH32 0x426F6D62546F6B656E0000000000000000000000000000000000000000000000 DUP2 MSTORE POP PUSH1 0x0 SWAP1 DUP1 MLOAD SWAP1 PUSH1 0x20 ADD SWAP1 PUSH2 0x4F SWAP3 SWAP2 SWAP1 PUSH2 0x103 JUMP JUMPDEST POP PUSH1 0x40 MLOAD DUP1 PUSH1 0x40 ADD PUSH1 0x40 MSTORE DUP1 PUSH1 0x2 DUP2 MSTORE PUSH1 0x20 ADD PUSH32 0x4254000000000000000000000000000000000000000000000000000000000000 DUP2 MSTORE POP PUSH1 0x1 SWAP1 DUP1 MLOAD SWAP1 PUSH1 0x20 ADD SWAP1 PUSH2 0x9B SWAP3 SWAP2 SWAP1 PUSH2 0x103 JUMP JUMPDEST POP PUSH3 0x895440 PUSH1 0x2 SSTORE PUSH4 0x5F5E100 PUSH1 0x3 SSTORE PUSH1 0xA PUSH1 0x4 SSTORE CALLVALUE DUP1 ISZERO PUSH2 0xBC JUMPI PUSH1 0x0 DUP1 REVERT JUMPDEST POP CALLER PUSH1 0x5 PUSH1 0x0 PUSH2 0x100 EXP DUP2 SLOAD DUP2 PUSH20 0xFFFFFFFFFFFFFFFFFFFFFFFFFFFFFFFFFFFFFFFF MUL NOT AND SWAP1 DUP4 PUSH20 0xFFFFFFFFFFFFFFFFFFFFFFFFFFFFFFFFFFFFFFFF AND MUL OR SWAP1 SSTORE POP PUSH2 0x207 JUMP JUMPDEST DUP3 DUP1 SLOAD PUSH2 0x10F SWAP1 PUSH2 0x1A6 JUMP JUMPDEST SWAP1 PUSH1 0x0 MSTORE PUSH1 0x20 PUSH1 0x0 KECCAK256 SWAP1 PUSH1 0x1F ADD PUSH1 0x20 SWAP1 DIV DUP2 ADD SWAP3 DUP3 PUSH2 0x131 JUMPI PUSH1 0x0 DUP6 SSTORE PUSH2 0x178 JUMP JUMPDEST DUP3 PUSH1 0x1F LT PUSH2 0x14A JUMPI DUP1 MLOAD PUSH1 0xFF NOT AND DUP4 DUP1 ADD OR DUP6 SSTORE PUSH2 0x178 JUMP JUMPDEST DUP3 DUP1 ADD PUSH1 0x1 ADD DUP6 SSTORE DUP3 ISZERO PUSH2 0x178 JUMPI SWAP2 DUP3 ADD JUMPDEST DUP3 DUP2 GT ISZERO PUSH2 0x177 JUMPI DUP3 MLOAD DUP3 SSTORE SWAP2 PUSH1 0x20 ADD SWAP2 SWAP1 PUSH1 0x1 ADD SWAP1 PUSH2 0x15C JUMP JUMPDEST JUMPDEST POP SWAP1 POP PUSH2 0x185 SWAP2 SWAP1 PUSH2 0x189 JUMP JUMPDEST POP SWAP1 JUMP JUMPDEST JUMPDEST DUP1 DUP3 GT ISZERO PUSH2 0x1A2 JUMPI PUSH1 0x0 DUP2 PUSH1 0x0 SWAP1 SSTORE POP PUSH1 0x1 ADD PUSH2 0x18A JUMP JUMPDEST POP SWAP1 JUMP JUMPDEST PUSH1 0x0 PUSH1 0x2 DUP3 DIV SWAP1 POP PUSH1 0x1 DUP3 AND DUP1 PUSH2 0x1BE JUMPI PUSH1 0x7F DUP3 AND SWAP2 POP JUMPDEST PUSH1 0x20 DUP3 LT DUP2 EQ ISZERO PUSH2 0x1D2 JUMPI PUSH2 0x1D1 PUSH2 0x1D8 JUMP JUMPDEST JUMPDEST POP SWAP2 SWAP1 POP JUMP JUMPDEST PUSH32 0x4E487B7100000000000000000000000000000000000000000000000000000000 PUSH1 0x0 MSTORE PUSH1 0x22 PUSH1 0x4 MSTORE PUSH1 0x24 PUSH1 0x0 REVERT JUMPDEST PUSH2 0x817 DUP1 PUSH2 0x216 PUSH1 0x0 CODECOPY PUSH1 0x0 RETURN INVALID PUSH1 0x80 PUSH1 0x40 MSTORE CALLVALUE DUP1 ISZERO PUSH2 0x10 JUMPI PUSH1 0x0 DUP1 REVERT JUMPDEST POP PUSH1 0x4 CALLDATASIZE LT PUSH2 0x7D JUMPI PUSH1 0x0 CALLDATALOAD PUSH1 0xE0 SHR DUP1 PUSH4 0x94BF804D GT PUSH2 0x5B JUMPI DUP1 PUSH4 0x94BF804D EQ PUSH2 0xFE JUMPI DUP1 PUSH4 0xC610BB07 EQ PUSH2 0x11A JUMPI DUP1 PUSH4 0xDAEA85C5 EQ PUSH2 0x136 JUMPI DUP1 PUSH4 0xF8B2CB4F EQ PUSH2 0x152 JUMPI PUSH2 0x7D JUMP JUMPDEST DUP1 PUSH4 0x42966C68 EQ PUSH2 0x82 JUMPI DUP1 PUSH4 0x4637D827 EQ PUSH2 0x9E JUMPI DUP1 PUSH4 0x566690EC EQ PUSH2 0xCE JUMPI JUMPDEST PUSH1 0x0 DUP1 REVERT JUMPDEST PUSH2 0x9C PUSH1 0x4 DUP1 CALLDATASIZE SUB DUP2 ADD SWAP1 PUSH2 0x97 SWAP2 SWAP1 PUSH2 0x57B JUMP JUMPDEST PUSH2 0x182 JUMP JUMPDEST STOP JUMPDEST PUSH2 0xB8 PUSH1 0x4 DUP1 CALLDATASIZE SUB DUP2 ADD SWAP1 PUSH2 0xB3 SWAP2 SWAP1 PUSH2 0x50E JUMP JUMPDEST PUSH2 0x1F4 JUMP JUMPDEST PUSH1 0x40 MLOAD PUSH2 0xC5 SWAP2 SWAP1 PUSH2 0x629 JUMP JUMPDEST PUSH1 0x40 MLOAD DUP1 SWAP2 SUB SWAP1 RETURN JUMPDEST PUSH2 0xE8 PUSH1 0x4 DUP1 CALLDATASIZE SUB DUP2 ADD SWAP1 PUSH2 0xE3 SWAP2 SWAP1 PUSH2 0x50E JUMP JUMPDEST PUSH2 0x227 JUMP JUMPDEST PUSH1 0x40 MLOAD PUSH2 0xF5 SWAP2 SWAP1 PUSH2 0x629 JUMP JUMPDEST PUSH1 0x40 MLOAD DUP1 SWAP2 SUB SWAP1 RETURN JUMPDEST PUSH2 0x118 PUSH1 0x4 DUP1 CALLDATASIZE SUB DUP2 ADD SWAP1 PUSH2 0x113 SWAP2 SWAP1 PUSH2 0x5A8 JUMP JUMPDEST PUSH2 0x25A JUMP JUMPDEST STOP JUMPDEST PUSH2 0x134 PUSH1 0x4 DUP1 CALLDATASIZE SUB DUP2 ADD SWAP1 PUSH2 0x12F SWAP2 SWAP1 PUSH2 0x53B JUMP JUMPDEST PUSH2 0x31F JUMP JUMPDEST STOP JUMPDEST PUSH2 0x150 PUSH1 0x4 DUP1 CALLDATASIZE SUB DUP2 ADD SWAP1 PUSH2 0x14B SWAP2 SWAP1 PUSH2 0x50E JUMP JUMPDEST PUSH2 0x41A JUMP JUMPDEST STOP JUMPDEST PUSH2 0x16C PUSH1 0x4 DUP1 CALLDATASIZE SUB DUP2 ADD SWAP1 PUSH2 0x167 SWAP2 SWAP1 PUSH2 0x50E JUMP JUMPDEST PUSH2 0x49B JUMP JUMPDEST PUSH1 0x40 MLOAD PUSH2 0x179 SWAP2 SWAP1 PUSH2 0x664 JUMP JUMPDEST PUSH1 0x40 MLOAD DUP1 SWAP2 SUB SWAP1 RETURN JUMPDEST DUP1 PUSH1 0x7 PUSH1 0x0 CALLER PUSH20 0xFFFFFFFFFFFFFFFFFFFFFFFFFFFFFFFFFFFFFFFF AND PUSH20 0xFFFFFFFFFFFFFFFFFFFFFFFFFFFFFFFFFFFFFFFF AND DUP2 MSTORE PUSH1 0x20 ADD SWAP1 DUP2 MSTORE PUSH1 0x20 ADD PUSH1 0x0 KECCAK256 PUSH1 0x0 DUP3 DUP3 SLOAD PUSH2 0x1D1 SWAP2 SWAP1 PUSH2 0x6E6 JUMP JUMPDEST SWAP3 POP POP DUP2 SWAP1 SSTORE POP DUP1 PUSH1 0x2 PUSH1 0x0 DUP3 DUP3 SLOAD PUSH2 0x1EA SWAP2 SWAP1 PUSH2 0x6E6 JUMP JUMPDEST SWAP3 POP POP DUP2 SWAP1 SSTORE POP POP JUMP JUMPDEST PUSH1 0x8 PUSH1 0x20 MSTORE DUP1 PUSH1 0x0 MSTORE PUSH1 0x40 PUSH1 0x0 KECCAK256 PUSH1 0x0 SWAP2 POP SLOAD SWAP1 PUSH2 0x100 EXP SWAP1 DIV PUSH20 0xFFFFFFFFFFFFFFFFFFFFFFFFFFFFFFFFFFFFFFFF AND DUP2 JUMP JUMPDEST PUSH1 0x6 PUSH1 0x20 MSTORE DUP1 PUSH1 0x0 MSTORE PUSH1 0x40 PUSH1 0x0 KECCAK256 PUSH1 0x0 SWAP2 POP SLOAD SWAP1 PUSH2 0x100 EXP SWAP1 DIV PUSH20 0xFFFFFFFFFFFFFFFFFFFFFFFFFFFFFFFFFFFFFFFF AND DUP2 JUMP JUMPDEST PUSH1 0x3 SLOAD PUSH1 0x2 SLOAD DUP4 PUSH2 0x26B SWAP2 SWAP1 PUSH2 0x690 JUMP JUMPDEST GT ISZERO PUSH2 0x2AC JUMPI PUSH1 0x40 MLOAD PUSH32 0x8C379A000000000000000000000000000000000000000000000000000000000 DUP2 MSTORE PUSH1 0x4 ADD PUSH2 0x2A3 SWAP1 PUSH2 0x644 JUMP JUMPDEST PUSH1 0x40 MLOAD DUP1 SWAP2 SUB SWAP1 REVERT JUMPDEST DUP2 PUSH1 0x7 PUSH1 0x0 DUP4 PUSH20 0xFFFFFFFFFFFFFFFFFFFFFFFFFFFFFFFFFFFFFFFF AND PUSH20 0xFFFFFFFFFFFFFFFFFFFFFFFFFFFFFFFFFFFFFFFF AND DUP2 MSTORE PUSH1 0x20 ADD SWAP1 DUP2 MSTORE PUSH1 0x20 ADD PUSH1 0x0 KECCAK256 PUSH1 0x0 DUP3 DUP3 SLOAD PUSH2 0x2FB SWAP2 SWAP1 PUSH2 0x690 JUMP JUMPDEST SWAP3 POP POP DUP2 SWAP1 SSTORE POP DUP2 PUSH1 0x2 PUSH1 0x0 DUP3 DUP3 SLOAD PUSH2 0x314 SWAP2 SWAP1 PUSH2 0x690 JUMP JUMPDEST SWAP3 POP POP DUP2 SWAP1 SSTORE POP POP POP JUMP JUMPDEST DUP1 PUSH1 0x7 PUSH1 0x0 CALLER PUSH20 0xFFFFFFFFFFFFFFFFFFFFFFFFFFFFFFFFFFFFFFFF AND PUSH20 0xFFFFFFFFFFFFFFFFFFFFFFFFFFFFFFFFFFFFFFFF AND DUP2 MSTORE PUSH1 0x20 ADD SWAP1 DUP2 MSTORE PUSH1 0x20 ADD PUSH1 0x0 KECCAK256 SLOAD GT PUSH2 0x36A JUMPI PUSH1 0x0 DUP1 REVERT JUMPDEST DUP1 PUSH1 0x7 PUSH1 0x0 DUP5 PUSH20 0xFFFFFFFFFFFFFFFFFFFFFFFFFFFFFFFFFFFFFFFF AND PUSH20 0xFFFFFFFFFFFFFFFFFFFFFFFFFFFFFFFFFFFFFFFF AND DUP2 MSTORE PUSH1 0x20 ADD SWAP1 DUP2 MSTORE PUSH1 0x20 ADD PUSH1 0x0 KECCAK256 PUSH1 0x0 DUP3 DUP3 SLOAD PUSH2 0x3B9 SWAP2 SWAP1 PUSH2 0x690 JUMP JUMPDEST SWAP3 POP POP DUP2 SWAP1 SSTORE POP DUP1 PUSH1 0x7 PUSH1 0x0 CALLER PUSH20 0xFFFFFFFFFFFFFFFFFFFFFFFFFFFFFFFFFFFFFFFF AND PUSH20 0xFFFFFFFFFFFFFFFFFFFFFFFFFFFFFFFFFFFFFFFF AND DUP2 MSTORE PUSH1 0x20 ADD SWAP1 DUP2 MSTORE PUSH1 0x20 ADD PUSH1 0x0 KECCAK256 PUSH1 0x0 DUP3 DUP3 SLOAD PUSH2 0x40F SWAP2 SWAP1 PUSH2 0x690 JUMP JUMPDEST SWAP3 POP POP DUP2 SWAP1 SSTORE POP POP POP JUMP JUMPDEST DUP1 PUSH1 0x8 PUSH1 0x0 CALLER PUSH20 0xFFFFFFFFFFFFFFFFFFFFFFFFFFFFFFFFFFFFFFFF AND PUSH20 0xFFFFFFFFFFFFFFFFFFFFFFFFFFFFFFFFFFFFFFFF AND DUP2 MSTORE PUSH1 0x20 ADD SWAP1 DUP2 MSTORE PUSH1 0x20 ADD PUSH1 0x0 KECCAK256 PUSH1 0x0 PUSH2 0x100 EXP DUP2 SLOAD DUP2 PUSH20 0xFFFFFFFFFFFFFFFFFFFFFFFFFFFFFFFFFFFFFFFF MUL NOT AND SWAP1 DUP4 PUSH20 0xFFFFFFFFFFFFFFFFFFFFFFFFFFFFFFFFFFFFFFFF AND MUL OR SWAP1 SSTORE POP POP JUMP JUMPDEST PUSH1 0x0 PUSH1 0x7 PUSH1 0x0 DUP4 PUSH20 0xFFFFFFFFFFFFFFFFFFFFFFFFFFFFFFFFFFFFFFFF AND PUSH20 0xFFFFFFFFFFFFFFFFFFFFFFFFFFFFFFFFFFFFFFFF AND DUP2 MSTORE PUSH1 0x20 ADD SWAP1 DUP2 MSTORE PUSH1 0x20 ADD PUSH1 0x0 KECCAK256 SLOAD SWAP1 POP SWAP2 SWAP1 POP JUMP JUMPDEST PUSH1 0x0 DUP2 CALLDATALOAD SWAP1 POP PUSH2 0x4F3 DUP2 PUSH2 0x7B3 JUMP JUMPDEST SWAP3 SWAP2 POP POP JUMP JUMPDEST PUSH1 0x0 DUP2 CALLDATALOAD SWAP1 POP PUSH2 0x508 DUP2 PUSH2 0x7CA JUMP JUMPDEST SWAP3 SWAP2 POP POP JUMP JUMPDEST PUSH1 0x0 PUSH1 0x20 DUP3 DUP5 SUB SLT ISZERO PUSH2 0x524 JUMPI PUSH2 0x523 PUSH2 0x785 JUMP JUMPDEST JUMPDEST PUSH1 0x0 PUSH2 0x532 DUP5 DUP3 DUP6 ADD PUSH2 0x4E4 JUMP JUMPDEST SWAP2 POP POP SWAP3 SWAP2 POP POP JUMP JUMPDEST PUSH1 0x0 DUP1 PUSH1 0x40 DUP4 DUP6 SUB SLT ISZERO PUSH2 0x552 JUMPI PUSH2 0x551 PUSH2 0x785 JUMP JUMPDEST JUMPDEST PUSH1 0x0 PUSH2 0x560 DUP6 DUP3 DUP7 ADD PUSH2 0x4E4 JUMP JUMPDEST SWAP3 POP POP PUSH1 0x20 PUSH2 0x571 DUP6 DUP3 DUP7 ADD PUSH2 0x4F9 JUMP JUMPDEST SWAP2 POP POP SWAP3 POP SWAP3 SWAP1 POP JUMP JUMPDEST PUSH1 0x0 PUSH1 0x20 DUP3 DUP5 SUB SLT ISZERO PUSH2 0x591 JUMPI PUSH2 0x590 PUSH2 0x785 JUMP JUMPDEST JUMPDEST PUSH1 0x0 PUSH2 0x59F DUP5 DUP3 DUP6 ADD PUSH2 0x4F9 JUMP JUMPDEST SWAP2 POP POP SWAP3 SWAP2 POP POP JUMP JUMPDEST PUSH1 0x0 DUP1 PUSH1 0x40 DUP4 DUP6 SUB SLT ISZERO PUSH2 0x5BF JUMPI PUSH2 0x5BE PUSH2 0x785 JUMP JUMPDEST JUMPDEST PUSH1 0x0 PUSH2 0x5CD DUP6 DUP3 DUP7 ADD PUSH2 0x4F9 JUMP JUMPDEST SWAP3 POP POP PUSH1 0x20 PUSH2 0x5DE DUP6 DUP3 DUP7 ADD PUSH2 0x4E4 JUMP JUMPDEST SWAP2 POP POP SWAP3 POP SWAP3 SWAP1 POP JUMP JUMPDEST PUSH2 0x5F1 DUP2 PUSH2 0x71A JUMP JUMPDEST DUP3 MSTORE POP POP JUMP JUMPDEST PUSH1 0x0 PUSH2 0x604 PUSH1 0x17 DUP4 PUSH2 0x67F JUMP JUMPDEST SWAP2 POP PUSH2 0x60F DUP3 PUSH2 0x78A JUMP JUMPDEST PUSH1 0x20 DUP3 ADD SWAP1 POP SWAP2 SWAP1 POP JUMP JUMPDEST PUSH2 0x623 DUP2 PUSH2 0x74C JUMP JUMPDEST DUP3 MSTORE POP POP JUMP JUMPDEST PUSH1 0x0 PUSH1 0x20 DUP3 ADD SWAP1 POP PUSH2 0x63E PUSH1 0x0 DUP4 ADD DUP5 PUSH2 0x5E8 JUMP JUMPDEST SWAP3 SWAP2 POP POP JUMP JUMPDEST PUSH1 0x0 PUSH1 0x20 DUP3 ADD SWAP1 POP DUP2 DUP2 SUB PUSH1 0x0 DUP4 ADD MSTORE PUSH2 0x65D DUP2 PUSH2 0x5F7 JUMP JUMPDEST SWAP1 POP SWAP2 SWAP1 POP JUMP JUMPDEST PUSH1 0x0 PUSH1 0x20 DUP3 ADD SWAP1 POP PUSH2 0x679 PUSH1 0x0 DUP4 ADD DUP5 PUSH2 0x61A JUMP JUMPDEST SWAP3 SWAP2 POP POP JUMP JUMPDEST PUSH1 0x0 DUP3 DUP3 MSTORE PUSH1 0x20 DUP3 ADD SWAP1 POP SWAP3 SWAP2 POP POP JUMP JUMPDEST PUSH1 0x0 PUSH2 0x69B DUP3 PUSH2 0x74C JUMP JUMPDEST SWAP2 POP PUSH2 0x6A6 DUP4 PUSH2 0x74C JUMP JUMPDEST SWAP3 POP DUP3 PUSH32 0xFFFFFFFFFFFFFFFFFFFFFFFFFFFFFFFFFFFFFFFFFFFFFFFFFFFFFFFFFFFFFFFF SUB DUP3 GT ISZERO PUSH2 0x6DB JUMPI PUSH2 0x6DA PUSH2 0x756 JUMP JUMPDEST JUMPDEST DUP3 DUP3 ADD SWAP1 POP SWAP3 SWAP2 POP POP JUMP JUMPDEST PUSH1 0x0 PUSH2 0x6F1 DUP3 PUSH2 0x74C JUMP JUMPDEST SWAP2 POP PUSH2 0x6FC DUP4 PUSH2 0x74C JUMP JUMPDEST SWAP3 POP DUP3 DUP3 LT ISZERO PUSH2 0x70F JUMPI PUSH2 0x70E PUSH2 0x756 JUMP JUMPDEST JUMPDEST DUP3 DUP3 SUB SWAP1 POP SWAP3 SWAP2 POP POP JUMP JUMPDEST PUSH1 0x0 PUSH2 0x725 DUP3 PUSH2 0x72C JUMP JUMPDEST SWAP1 POP SWAP2 SWAP1 POP JUMP JUMPDEST PUSH1 0x0 PUSH20 0xFFFFFFFFFFFFFFFFFFFFFFFFFFFFFFFFFFFFFFFF DUP3 AND SWAP1 POP SWAP2 SWAP1 POP JUMP JUMPDEST PUSH1 0x0 DUP2 SWAP1 POP SWAP2 SWAP1 POP JUMP JUMPDEST PUSH32 0x4E487B7100000000000000000000000000000000000000000000000000000000 PUSH1 0x0 MSTORE PUSH1 0x11 PUSH1 0x4 MSTORE PUSH1 0x24 PUSH1 0x0 REVERT JUMPDEST PUSH1 0x0 DUP1 REVERT JUMPDEST PUSH32 0x6572726F72206E6F7420656E6F75676820737570706C79000000000000000000 PUSH1 0x0 DUP3 ADD MSTORE POP JUMP JUMPDEST PUSH2 0x7BC DUP2 PUSH2 0x71A JUMP JUMPDEST DUP2 EQ PUSH2 0x7C7 JUMPI PUSH1 0x0 DUP1 REVERT JUMPDEST POP JUMP JUMPDEST PUSH2 0x7D3 DUP2 PUSH2 0x74C JUMP JUMPDEST DUP2 EQ PUSH2 0x7DE JUMPI PUSH1 0x0 DUP1 REVERT JUMPDEST POP JUMP INVALID LOG2 PUSH5 0x6970667358 0x22 SLT KECCAK256 LOG0 0xEE 0xC0 0xBA GAS 0xAD CALLER TIMESTAMP ADD PUSH26 0xB1270EDDB341E376F6D0BCADD5388712C2C2FB313BBF64736F6C PUSH4 0x43000807 STOP CALLER "
				},
				"gasEstimates": {
					"creation": {
						"codeDepositCost": "414200",
						"executionCost": "infinite",
						"totalCost": "infinite"
					},
					"external": {
						"approve(address)": "24855",
						"burn(uint256)": "infinite",
						"getBalance(address)": "2907",
						"mint(uint256,address)": "infinite",
						"tranfer(address,uint256)": "infinite",
						"transaction(address)": "infinite",
						"trust(address)": "infinite"
					}
				},
				"methodIdentifiers": {
					"approve(address)": "daea85c5",
					"burn(uint256)": "42966c68",
					"getBalance(address)": "f8b2cb4f",
					"mint(uint256,address)": "94bf804d",
					"tranfer(address,uint256)": "c610bb07",
					"transaction(address)": "566690ec",
					"trust(address)": "4637d827"
				}
			},
			"storageLayout": {
				"storage": [
					{
						"astId": 4,
						"contract": "contracts/bomToken.sol:BomToken",
						"label": "name",
						"offset": 0,
						"slot": "0",
						"type": "t_string_storage"
					},
					{
						"astId": 7,
						"contract": "contracts/bomToken.sol:BomToken",
						"label": "symbole",
						"offset": 0,
						"slot": "1",
						"type": "t_string_storage"
					},
					{
						"astId": 10,
						"contract": "contracts/bomToken.sol:BomToken",
						"label": "csupply",
						"offset": 0,
						"slot": "2",
						"type": "t_uint256"
					},
					{
						"astId": 13,
						"contract": "contracts/bomToken.sol:BomToken",
						"label": "maxSupply",
						"offset": 0,
						"slot": "3",
						"type": "t_uint256"
					},
					{
						"astId": 16,
						"contract": "contracts/bomToken.sol:BomToken",
						"label": "decimal",
						"offset": 0,
						"slot": "4",
						"type": "t_uint256"
					},
					{
						"astId": 18,
						"contract": "contracts/bomToken.sol:BomToken",
						"label": "owner",
						"offset": 0,
						"slot": "5",
						"type": "t_address"
					},
					{
						"astId": 22,
						"contract": "contracts/bomToken.sol:BomToken",
						"label": "transaction",
						"offset": 0,
						"slot": "6",
						"type": "t_mapping(t_address,t_address)"
					},
					{
						"astId": 26,
						"contract": "contracts/bomToken.sol:BomToken",
						"label": "ledger",
						"offset": 0,
						"slot": "7",
						"type": "t_mapping(t_address,t_uint256)"
					},
					{
						"astId": 30,
						"contract": "contracts/bomToken.sol:BomToken",
						"label": "trust",
						"offset": 0,
						"slot": "8",
						"type": "t_mapping(t_address,t_address)"
					}
				],
				"types": {
					"t_address": {
						"encoding": "inplace",
						"label": "address",
						"numberOfBytes": "20"
					},
					"t_mapping(t_address,t_address)": {
						"encoding": "mapping",
						"key": "t_address",
						"label": "mapping(address => address)",
						"numberOfBytes": "32",
						"value": "t_address"
					},
					"t_mapping(t_address,t_uint256)": {
						"encoding": "mapping",
						"key": "t_address",
						"label": "mapping(address => uint256)",
						"numberOfBytes": "32",
						"value": "t_uint256"
					},
					"t_string_storage": {
						"encoding": "bytes",
						"label": "string",
						"numberOfBytes": "32"
					},
					"t_uint256": {
						"encoding": "inplace",
						"label": "uint256",
						"numberOfBytes": "32"
					}
				}
			},
			"userdoc": {
				"kind": "user",
				"methods": {},
				"version": 1
			}
		}
	}
}