{
	"contracts/exampleToken.sol": {
		"MyToken": {
			"abi": [
				{
					"inputs": [
						{
							"internalType": "string",
							"name": "_name",
							"type": "string"
						},
						{
							"internalType": "string",
							"name": "_symbol",
							"type": "string"
						},
						{
							"internalType": "uint256",
							"name": "_maxSupply",
							"type": "uint256"
						},
						{
							"internalType": "uint256",
							"name": "_decimal",
							"type": "uint256"
						}
					],
					"stateMutability": "nonpayable",
					"type": "constructor"
				},
				{
					"inputs": [],
					"name": "circulatingSupply",
					"outputs": [
						{
							"internalType": "uint256",
							"name": "",
							"type": "uint256"
						}
					],
					"stateMutability": "view",
					"type": "function"
				},
				{
					"inputs": [],
					"name": "decimal",
					"outputs": [
						{
							"internalType": "uint256",
							"name": "",
							"type": "uint256"
						}
					],
					"stateMutability": "view",
					"type": "function"
				},
				{
					"inputs": [],
					"name": "maxSupply",
					"outputs": [
						{
							"internalType": "uint256",
							"name": "",
							"type": "uint256"
						}
					],
					"stateMutability": "view",
					"type": "function"
				},
				{
					"inputs": [],
					"name": "name",
					"outputs": [
						{
							"internalType": "string",
							"name": "",
							"type": "string"
						}
					],
					"stateMutability": "view",
					"type": "function"
				},
				{
					"inputs": [],
					"name": "symbol",
					"outputs": [
						{
							"internalType": "string",
							"name": "",
							"type": "string"
						}
					],
					"stateMutability": "view",
					"type": "function"
				}
			],
			"devdoc": {
				"kind": "dev",
				"methods": {},
				"version": 1
			},
			"evm": {
				"assembly": "    /* \"contracts/exampleToken.sol\":59:509  contract MyToken {\r... */\n  mstore(0x40, 0x80)\n    /* \"contracts/exampleToken.sol\":236:505  constructor(\r... */\n  callvalue\n  dup1\n  iszero\n  tag_1\n  jumpi\n  0x00\n  dup1\n  revert\ntag_1:\n  pop\n  mload(0x40)\n  sub(codesize, bytecodeSize)\n  dup1\n  bytecodeSize\n  dup4\n  codecopy\n  dup2\n  dup2\n  add\n  0x40\n  mstore\n  dup2\n  add\n  swap1\n  tag_2\n  swap2\n  swap1\n  tag_3\n  jump\t// in\ntag_2:\n    /* \"contracts/exampleToken.sol\":391:396  _name */\n  dup4\n    /* \"contracts/exampleToken.sol\":384:388  name */\n  0x00\n    /* \"contracts/exampleToken.sol\":384:396  name = _name */\n  swap1\n  dup1\n  mload\n  swap1\n  0x20\n  add\n  swap1\n  tag_6\n  swap3\n  swap2\n  swap1\n  tag_7\n  jump\t// in\ntag_6:\n  pop\n    /* \"contracts/exampleToken.sol\":420:427  _symbol */\n  dup3\n    /* \"contracts/exampleToken.sol\":411:417  symbol */\n  0x01\n    /* \"contracts/exampleToken.sol\":411:427  symbol = _symbol */\n  swap1\n  dup1\n  mload\n  swap1\n  0x20\n  add\n  swap1\n  tag_8\n  swap3\n  swap2\n  swap1\n  tag_7\n  jump\t// in\ntag_8:\n  pop\n    /* \"contracts/exampleToken.sol\":454:464  _maxSupply */\n  dup2\n    /* \"contracts/exampleToken.sol\":442:451  maxSupply */\n  0x02\n    /* \"contracts/exampleToken.sol\":442:464  maxSupply = _maxSupply */\n  dup2\n  swap1\n  sstore\n  pop\n    /* \"contracts/exampleToken.sol\":489:497  _decimal */\n  dup1\n    /* \"contracts/exampleToken.sol\":479:486  decimal */\n  0x04\n    /* \"contracts/exampleToken.sol\":479:497  decimal = _decimal */\n  dup2\n  swap1\n  sstore\n  pop\n    /* \"contracts/exampleToken.sol\":236:505  constructor(\r... */\n  pop\n  pop\n  pop\n  pop\n    /* \"contracts/exampleToken.sol\":59:509  contract MyToken {\r... */\n  jump(tag_9)\ntag_7:\n  dup3\n  dup1\n  sload\n  tag_10\n  swap1\n  tag_11\n  jump\t// in\ntag_10:\n  swap1\n  0x00\n  mstore\n  keccak256(0x00, 0x20)\n  swap1\n  0x1f\n  add\n  0x20\n  swap1\n  div\n  dup2\n  add\n  swap3\n  dup3\n  tag_13\n  jumpi\n  0x00\n  dup6\n  sstore\n  jump(tag_12)\ntag_13:\n  dup3\n  0x1f\n  lt\n  tag_14\n  jumpi\n  dup1\n  mload\n  not(0xff)\n  and\n  dup4\n  dup1\n  add\n  or\n  dup6\n  sstore\n  jump(tag_12)\ntag_14:\n  dup3\n  dup1\n  add\n  0x01\n  add\n  dup6\n  sstore\n  dup3\n  iszero\n  tag_12\n  jumpi\n  swap2\n  dup3\n  add\ntag_15:\n  dup3\n  dup2\n  gt\n  iszero\n  tag_16\n  jumpi\n  dup3\n  mload\n  dup3\n  sstore\n  swap2\n  0x20\n  add\n  swap2\n  swap1\n  0x01\n  add\n  swap1\n  jump(tag_15)\ntag_16:\ntag_12:\n  pop\n  swap1\n  pop\n  tag_17\n  swap2\n  swap1\n  tag_18\n  jump\t// in\ntag_17:\n  pop\n  swap1\n  jump\t// out\ntag_18:\ntag_19:\n  dup1\n  dup3\n  gt\n  iszero\n  tag_20\n  jumpi\n  0x00\n  dup2\n  0x00\n  swap1\n  sstore\n  pop\n  0x01\n  add\n  jump(tag_19)\ntag_20:\n  pop\n  swap1\n  jump\t// out\n    /* \"#utility.yul\":7:428   */\ntag_22:\n    /* \"#utility.yul\":96:101   */\n  0x00\n    /* \"#utility.yul\":121:187   */\n  tag_24\n    /* \"#utility.yul\":137:186   */\n  tag_25\n    /* \"#utility.yul\":179:185   */\n  dup5\n    /* \"#utility.yul\":137:186   */\n  tag_26\n  jump\t// in\ntag_25:\n    /* \"#utility.yul\":121:187   */\n  tag_27\n  jump\t// in\ntag_24:\n    /* \"#utility.yul\":112:187   */\n  swap1\n  pop\n    /* \"#utility.yul\":210:216   */\n  dup3\n    /* \"#utility.yul\":203:208   */\n  dup2\n    /* \"#utility.yul\":196:217   */\n  mstore\n    /* \"#utility.yul\":248:252   */\n  0x20\n    /* \"#utility.yul\":241:246   */\n  dup2\n    /* \"#utility.yul\":237:253   */\n  add\n    /* \"#utility.yul\":286:289   */\n  dup5\n    /* \"#utility.yul\":277:283   */\n  dup5\n    /* \"#utility.yul\":272:275   */\n  dup5\n    /* \"#utility.yul\":268:284   */\n  add\n    /* \"#utility.yul\":265:290   */\n  gt\n    /* \"#utility.yul\":262:374   */\n  iszero\n  tag_28\n  jumpi\n    /* \"#utility.yul\":293:372   */\n  tag_29\n  tag_30\n  jump\t// in\ntag_29:\n    /* \"#utility.yul\":262:374   */\ntag_28:\n    /* \"#utility.yul\":383:422   */\n  tag_31\n    /* \"#utility.yul\":415:421   */\n  dup5\n    /* \"#utility.yul\":410:413   */\n  dup3\n    /* \"#utility.yul\":405:408   */\n  dup6\n    /* \"#utility.yul\":383:422   */\n  tag_32\n  jump\t// in\ntag_31:\n    /* \"#utility.yul\":102:428   */\n  pop\n    /* \"#utility.yul\":7:428   */\n  swap4\n  swap3\n  pop\n  pop\n  pop\n  jump\t// out\n    /* \"#utility.yul\":448:803   */\ntag_33:\n    /* \"#utility.yul\":515:520   */\n  0x00\n    /* \"#utility.yul\":564:567   */\n  dup3\n    /* \"#utility.yul\":557:561   */\n  0x1f\n    /* \"#utility.yul\":549:555   */\n  dup4\n    /* \"#utility.yul\":545:562   */\n  add\n    /* \"#utility.yul\":541:568   */\n  slt\n    /* \"#utility.yul\":531:653   */\n  tag_35\n  jumpi\n    /* \"#utility.yul\":572:651   */\n  tag_36\n  tag_37\n  jump\t// in\ntag_36:\n    /* \"#utility.yul\":531:653   */\ntag_35:\n    /* \"#utility.yul\":682:688   */\n  dup2\n    /* \"#utility.yul\":676:689   */\n  mload\n    /* \"#utility.yul\":707:797   */\n  tag_38\n    /* \"#utility.yul\":793:796   */\n  dup5\n    /* \"#utility.yul\":785:791   */\n  dup3\n    /* \"#utility.yul\":778:782   */\n  0x20\n    /* \"#utility.yul\":770:776   */\n  dup7\n    /* \"#utility.yul\":766:783   */\n  add\n    /* \"#utility.yul\":707:797   */\n  tag_22\n  jump\t// in\ntag_38:\n    /* \"#utility.yul\":698:797   */\n  swap2\n  pop\n    /* \"#utility.yul\":521:803   */\n  pop\n    /* \"#utility.yul\":448:803   */\n  swap3\n  swap2\n  pop\n  pop\n  jump\t// out\n    /* \"#utility.yul\":809:952   */\ntag_39:\n    /* \"#utility.yul\":866:871   */\n  0x00\n    /* \"#utility.yul\":897:903   */\n  dup2\n    /* \"#utility.yul\":891:904   */\n  mload\n    /* \"#utility.yul\":882:904   */\n  swap1\n  pop\n    /* \"#utility.yul\":913:946   */\n  tag_41\n    /* \"#utility.yul\":940:945   */\n  dup2\n    /* \"#utility.yul\":913:946   */\n  tag_42\n  jump\t// in\ntag_41:\n    /* \"#utility.yul\":809:952   */\n  swap3\n  swap2\n  pop\n  pop\n  jump\t// out\n    /* \"#utility.yul\":958:2124   */\ntag_3:\n    /* \"#utility.yul\":1075:1081   */\n  0x00\n    /* \"#utility.yul\":1083:1089   */\n  dup1\n    /* \"#utility.yul\":1091:1097   */\n  0x00\n    /* \"#utility.yul\":1099:1105   */\n  dup1\n    /* \"#utility.yul\":1148:1151   */\n  0x80\n    /* \"#utility.yul\":1136:1145   */\n  dup6\n    /* \"#utility.yul\":1127:1134   */\n  dup8\n    /* \"#utility.yul\":1123:1146   */\n  sub\n    /* \"#utility.yul\":1119:1152   */\n  slt\n    /* \"#utility.yul\":1116:1236   */\n  iszero\n  tag_44\n  jumpi\n    /* \"#utility.yul\":1155:1234   */\n  tag_45\n  tag_46\n  jump\t// in\ntag_45:\n    /* \"#utility.yul\":1116:1236   */\ntag_44:\n    /* \"#utility.yul\":1296:1297   */\n  0x00\n    /* \"#utility.yul\":1285:1294   */\n  dup6\n    /* \"#utility.yul\":1281:1298   */\n  add\n    /* \"#utility.yul\":1275:1299   */\n  mload\n    /* \"#utility.yul\":1326:1344   */\n  0xffffffffffffffff\n    /* \"#utility.yul\":1318:1324   */\n  dup2\n    /* \"#utility.yul\":1315:1345   */\n  gt\n    /* \"#utility.yul\":1312:1429   */\n  iszero\n  tag_47\n  jumpi\n    /* \"#utility.yul\":1348:1427   */\n  tag_48\n  tag_49\n  jump\t// in\ntag_48:\n    /* \"#utility.yul\":1312:1429   */\ntag_47:\n    /* \"#utility.yul\":1453:1527   */\n  tag_50\n    /* \"#utility.yul\":1519:1526   */\n  dup8\n    /* \"#utility.yul\":1510:1516   */\n  dup3\n    /* \"#utility.yul\":1499:1508   */\n  dup9\n    /* \"#utility.yul\":1495:1517   */\n  add\n    /* \"#utility.yul\":1453:1527   */\n  tag_33\n  jump\t// in\ntag_50:\n    /* \"#utility.yul\":1443:1527   */\n  swap5\n  pop\n    /* \"#utility.yul\":1246:1537   */\n  pop\n    /* \"#utility.yul\":1597:1599   */\n  0x20\n    /* \"#utility.yul\":1586:1595   */\n  dup6\n    /* \"#utility.yul\":1582:1600   */\n  add\n    /* \"#utility.yul\":1576:1601   */\n  mload\n    /* \"#utility.yul\":1628:1646   */\n  0xffffffffffffffff\n    /* \"#utility.yul\":1620:1626   */\n  dup2\n    /* \"#utility.yul\":1617:1647   */\n  gt\n    /* \"#utility.yul\":1614:1731   */\n  iszero\n  tag_51\n  jumpi\n    /* \"#utility.yul\":1650:1729   */\n  tag_52\n  tag_49\n  jump\t// in\ntag_52:\n    /* \"#utility.yul\":1614:1731   */\ntag_51:\n    /* \"#utility.yul\":1755:1829   */\n  tag_53\n    /* \"#utility.yul\":1821:1828   */\n  dup8\n    /* \"#utility.yul\":1812:1818   */\n  dup3\n    /* \"#utility.yul\":1801:1810   */\n  dup9\n    /* \"#utility.yul\":1797:1819   */\n  add\n    /* \"#utility.yul\":1755:1829   */\n  tag_33\n  jump\t// in\ntag_53:\n    /* \"#utility.yul\":1745:1829   */\n  swap4\n  pop\n    /* \"#utility.yul\":1547:1839   */\n  pop\n    /* \"#utility.yul\":1878:1880   */\n  0x40\n    /* \"#utility.yul\":1904:1968   */\n  tag_54\n    /* \"#utility.yul\":1960:1967   */\n  dup8\n    /* \"#utility.yul\":1951:1957   */\n  dup3\n    /* \"#utility.yul\":1940:1949   */\n  dup9\n    /* \"#utility.yul\":1936:1958   */\n  add\n    /* \"#utility.yul\":1904:1968   */\n  tag_39\n  jump\t// in\ntag_54:\n    /* \"#utility.yul\":1894:1968   */\n  swap3\n  pop\n    /* \"#utility.yul\":1849:1978   */\n  pop\n    /* \"#utility.yul\":2017:2019   */\n  0x60\n    /* \"#utility.yul\":2043:2107   */\n  tag_55\n    /* \"#utility.yul\":2099:2106   */\n  dup8\n    /* \"#utility.yul\":2090:2096   */\n  dup3\n    /* \"#utility.yul\":2079:2088   */\n  dup9\n    /* \"#utility.yul\":2075:2097   */\n  add\n    /* \"#utility.yul\":2043:2107   */\n  tag_39\n  jump\t// in\ntag_55:\n    /* \"#utility.yul\":2033:2107   */\n  swap2\n  pop\n    /* \"#utility.yul\":1988:2117   */\n  pop\n    /* \"#utility.yul\":958:2124   */\n  swap3\n  swap6\n  swap2\n  swap5\n  pop\n  swap3\n  pop\n  jump\t// out\n    /* \"#utility.yul\":2130:2259   */\ntag_27:\n    /* \"#utility.yul\":2164:2170   */\n  0x00\n    /* \"#utility.yul\":2191:2211   */\n  tag_57\n  tag_58\n  jump\t// in\ntag_57:\n    /* \"#utility.yul\":2181:2211   */\n  swap1\n  pop\n    /* \"#utility.yul\":2220:2253   */\n  tag_59\n    /* \"#utility.yul\":2248:2252   */\n  dup3\n    /* \"#utility.yul\":2240:2246   */\n  dup3\n    /* \"#utility.yul\":2220:2253   */\n  tag_60\n  jump\t// in\ntag_59:\n    /* \"#utility.yul\":2130:2259   */\n  swap2\n  swap1\n  pop\n  jump\t// out\n    /* \"#utility.yul\":2265:2340   */\ntag_58:\n    /* \"#utility.yul\":2298:2304   */\n  0x00\n    /* \"#utility.yul\":2331:2333   */\n  0x40\n    /* \"#utility.yul\":2325:2334   */\n  mload\n    /* \"#utility.yul\":2315:2334   */\n  swap1\n  pop\n    /* \"#utility.yul\":2265:2340   */\n  swap1\n  jump\t// out\n    /* \"#utility.yul\":2346:2654   */\ntag_26:\n    /* \"#utility.yul\":2408:2412   */\n  0x00\n    /* \"#utility.yul\":2498:2516   */\n  0xffffffffffffffff\n    /* \"#utility.yul\":2490:2496   */\n  dup3\n    /* \"#utility.yul\":2487:2517   */\n  gt\n    /* \"#utility.yul\":2484:2540   */\n  iszero\n  tag_63\n  jumpi\n    /* \"#utility.yul\":2520:2538   */\n  tag_64\n  tag_65\n  jump\t// in\ntag_64:\n    /* \"#utility.yul\":2484:2540   */\ntag_63:\n    /* \"#utility.yul\":2558:2587   */\n  tag_66\n    /* \"#utility.yul\":2580:2586   */\n  dup3\n    /* \"#utility.yul\":2558:2587   */\n  tag_67\n  jump\t// in\ntag_66:\n    /* \"#utility.yul\":2550:2587   */\n  swap1\n  pop\n    /* \"#utility.yul\":2642:2646   */\n  0x20\n    /* \"#utility.yul\":2636:2640   */\n  dup2\n    /* \"#utility.yul\":2632:2647   */\n  add\n    /* \"#utility.yul\":2624:2647   */\n  swap1\n  pop\n    /* \"#utility.yul\":2346:2654   */\n  swap2\n  swap1\n  pop\n  jump\t// out\n    /* \"#utility.yul\":2660:2737   */\ntag_68:\n    /* \"#utility.yul\":2697:2704   */\n  0x00\n    /* \"#utility.yul\":2726:2731   */\n  dup2\n    /* \"#utility.yul\":2715:2731   */\n  swap1\n  pop\n    /* \"#utility.yul\":2660:2737   */\n  swap2\n  swap1\n  pop\n  jump\t// out\n    /* \"#utility.yul\":2743:3050   */\ntag_32:\n    /* \"#utility.yul\":2811:2812   */\n  0x00\n    /* \"#utility.yul\":2821:2934   */\ntag_71:\n    /* \"#utility.yul\":2835:2841   */\n  dup4\n    /* \"#utility.yul\":2832:2833   */\n  dup2\n    /* \"#utility.yul\":2829:2842   */\n  lt\n    /* \"#utility.yul\":2821:2934   */\n  iszero\n  tag_73\n  jumpi\n    /* \"#utility.yul\":2920:2921   */\n  dup1\n    /* \"#utility.yul\":2915:2918   */\n  dup3\n    /* \"#utility.yul\":2911:2922   */\n  add\n    /* \"#utility.yul\":2905:2923   */\n  mload\n    /* \"#utility.yul\":2901:2902   */\n  dup2\n    /* \"#utility.yul\":2896:2899   */\n  dup5\n    /* \"#utility.yul\":2892:2903   */\n  add\n    /* \"#utility.yul\":2885:2924   */\n  mstore\n    /* \"#utility.yul\":2857:2859   */\n  0x20\n    /* \"#utility.yul\":2854:2855   */\n  dup2\n    /* \"#utility.yul\":2850:2860   */\n  add\n    /* \"#utility.yul\":2845:2860   */\n  swap1\n  pop\n    /* \"#utility.yul\":2821:2934   */\n  jump(tag_71)\ntag_73:\n    /* \"#utility.yul\":2952:2958   */\n  dup4\n    /* \"#utility.yul\":2949:2950   */\n  dup2\n    /* \"#utility.yul\":2946:2959   */\n  gt\n    /* \"#utility.yul\":2943:3044   */\n  iszero\n  tag_74\n  jumpi\n    /* \"#utility.yul\":3032:3033   */\n  0x00\n    /* \"#utility.yul\":3023:3029   */\n  dup5\n    /* \"#utility.yul\":3018:3021   */\n  dup5\n    /* \"#utility.yul\":3014:3030   */\n  add\n    /* \"#utility.yul\":3007:3034   */\n  mstore\n    /* \"#utility.yul\":2943:3044   */\ntag_74:\n    /* \"#utility.yul\":2792:3050   */\n  pop\n    /* \"#utility.yul\":2743:3050   */\n  pop\n  pop\n  pop\n  jump\t// out\n    /* \"#utility.yul\":3056:3376   */\ntag_11:\n    /* \"#utility.yul\":3100:3106   */\n  0x00\n    /* \"#utility.yul\":3137:3138   */\n  0x02\n    /* \"#utility.yul\":3131:3135   */\n  dup3\n    /* \"#utility.yul\":3127:3139   */\n  div\n    /* \"#utility.yul\":3117:3139   */\n  swap1\n  pop\n    /* \"#utility.yul\":3184:3185   */\n  0x01\n    /* \"#utility.yul\":3178:3182   */\n  dup3\n    /* \"#utility.yul\":3174:3186   */\n  and\n    /* \"#utility.yul\":3205:3223   */\n  dup1\n    /* \"#utility.yul\":3195:3276   */\n  tag_76\n  jumpi\n    /* \"#utility.yul\":3261:3265   */\n  0x7f\n    /* \"#utility.yul\":3253:3259   */\n  dup3\n    /* \"#utility.yul\":3249:3266   */\n  and\n    /* \"#utility.yul\":3239:3266   */\n  swap2\n  pop\n    /* \"#utility.yul\":3195:3276   */\ntag_76:\n    /* \"#utility.yul\":3323:3325   */\n  0x20\n    /* \"#utility.yul\":3315:3321   */\n  dup3\n    /* \"#utility.yul\":3312:3326   */\n  lt\n    /* \"#utility.yul\":3292:3310   */\n  dup2\n    /* \"#utility.yul\":3289:3327   */\n  eq\n    /* \"#utility.yul\":3286:3370   */\n  iszero\n  tag_77\n  jumpi\n    /* \"#utility.yul\":3342:3360   */\n  tag_78\n  tag_79\n  jump\t// in\ntag_78:\n    /* \"#utility.yul\":3286:3370   */\ntag_77:\n    /* \"#utility.yul\":3107:3376   */\n  pop\n    /* \"#utility.yul\":3056:3376   */\n  swap2\n  swap1\n  pop\n  jump\t// out\n    /* \"#utility.yul\":3382:3663   */\ntag_60:\n    /* \"#utility.yul\":3465:3492   */\n  tag_81\n    /* \"#utility.yul\":3487:3491   */\n  dup3\n    /* \"#utility.yul\":3465:3492   */\n  tag_67\n  jump\t// in\ntag_81:\n    /* \"#utility.yul\":3457:3463   */\n  dup2\n    /* \"#utility.yul\":3453:3493   */\n  add\n    /* \"#utility.yul\":3595:3601   */\n  dup2\n    /* \"#utility.yul\":3583:3593   */\n  dup2\n    /* \"#utility.yul\":3580:3602   */\n  lt\n    /* \"#utility.yul\":3559:3577   */\n  0xffffffffffffffff\n    /* \"#utility.yul\":3547:3557   */\n  dup3\n    /* \"#utility.yul\":3544:3578   */\n  gt\n    /* \"#utility.yul\":3541:3603   */\n  or\n    /* \"#utility.yul\":3538:3626   */\n  iszero\n  tag_82\n  jumpi\n    /* \"#utility.yul\":3606:3624   */\n  tag_83\n  tag_65\n  jump\t// in\ntag_83:\n    /* \"#utility.yul\":3538:3626   */\ntag_82:\n    /* \"#utility.yul\":3646:3656   */\n  dup1\n    /* \"#utility.yul\":3642:3644   */\n  0x40\n    /* \"#utility.yul\":3635:3657   */\n  mstore\n    /* \"#utility.yul\":3425:3663   */\n  pop\n    /* \"#utility.yul\":3382:3663   */\n  pop\n  pop\n  jump\t// out\n    /* \"#utility.yul\":3669:3849   */\ntag_79:\n    /* \"#utility.yul\":3717:3794   */\n  0x4e487b7100000000000000000000000000000000000000000000000000000000\n    /* \"#utility.yul\":3714:3715   */\n  0x00\n    /* \"#utility.yul\":3707:3795   */\n  mstore\n    /* \"#utility.yul\":3814:3818   */\n  0x22\n    /* \"#utility.yul\":3811:3812   */\n  0x04\n    /* \"#utility.yul\":3804:3819   */\n  mstore\n    /* \"#utility.yul\":3838:3842   */\n  0x24\n    /* \"#utility.yul\":3835:3836   */\n  0x00\n    /* \"#utility.yul\":3828:3843   */\n  revert\n    /* \"#utility.yul\":3855:4035   */\ntag_65:\n    /* \"#utility.yul\":3903:3980   */\n  0x4e487b7100000000000000000000000000000000000000000000000000000000\n    /* \"#utility.yul\":3900:3901   */\n  0x00\n    /* \"#utility.yul\":3893:3981   */\n  mstore\n    /* \"#utility.yul\":4000:4004   */\n  0x41\n    /* \"#utility.yul\":3997:3998   */\n  0x04\n    /* \"#utility.yul\":3990:4005   */\n  mstore\n    /* \"#utility.yul\":4024:4028   */\n  0x24\n    /* \"#utility.yul\":4021:4022   */\n  0x00\n    /* \"#utility.yul\":4014:4029   */\n  revert\n    /* \"#utility.yul\":4041:4158   */\ntag_37:\n    /* \"#utility.yul\":4150:4151   */\n  0x00\n    /* \"#utility.yul\":4147:4148   */\n  dup1\n    /* \"#utility.yul\":4140:4152   */\n  revert\n    /* \"#utility.yul\":4164:4281   */\ntag_30:\n    /* \"#utility.yul\":4273:4274   */\n  0x00\n    /* \"#utility.yul\":4270:4271   */\n  dup1\n    /* \"#utility.yul\":4263:4275   */\n  revert\n    /* \"#utility.yul\":4287:4404   */\ntag_49:\n    /* \"#utility.yul\":4396:4397   */\n  0x00\n    /* \"#utility.yul\":4393:4394   */\n  dup1\n    /* \"#utility.yul\":4386:4398   */\n  revert\n    /* \"#utility.yul\":4410:4527   */\ntag_46:\n    /* \"#utility.yul\":4519:4520   */\n  0x00\n    /* \"#utility.yul\":4516:4517   */\n  dup1\n    /* \"#utility.yul\":4509:4521   */\n  revert\n    /* \"#utility.yul\":4533:4635   */\ntag_67:\n    /* \"#utility.yul\":4574:4580   */\n  0x00\n    /* \"#utility.yul\":4625:4627   */\n  0x1f\n    /* \"#utility.yul\":4621:4628   */\n  not\n    /* \"#utility.yul\":4616:4618   */\n  0x1f\n    /* \"#utility.yul\":4609:4614   */\n  dup4\n    /* \"#utility.yul\":4605:4619   */\n  add\n    /* \"#utility.yul\":4601:4629   */\n  and\n    /* \"#utility.yul\":4591:4629   */\n  swap1\n  pop\n    /* \"#utility.yul\":4533:4635   */\n  swap2\n  swap1\n  pop\n  jump\t// out\n    /* \"#utility.yul\":4641:4763   */\ntag_42:\n    /* \"#utility.yul\":4714:4738   */\n  tag_92\n    /* \"#utility.yul\":4732:4737   */\n  dup2\n    /* \"#utility.yul\":4714:4738   */\n  tag_68\n  jump\t// in\ntag_92:\n    /* \"#utility.yul\":4707:4712   */\n  dup2\n    /* \"#utility.yul\":4704:4739   */\n  eq\n    /* \"#utility.yul\":4694:4757   */\n  tag_93\n  jumpi\n    /* \"#utility.yul\":4753:4754   */\n  0x00\n    /* \"#utility.yul\":4750:4751   */\n  dup1\n    /* \"#utility.yul\":4743:4755   */\n  revert\n    /* \"#utility.yul\":4694:4757   */\ntag_93:\n    /* \"#utility.yul\":4641:4763   */\n  pop\n  jump\t// out\n    /* \"contracts/exampleToken.sol\":59:509  contract MyToken {\r... */\ntag_9:\n  dataSize(sub_0)\n  dup1\n  dataOffset(sub_0)\n  0x00\n  codecopy\n  0x00\n  return\nstop\n\nsub_0: assembly {\n        /* \"contracts/exampleToken.sol\":59:509  contract MyToken {\r... */\n      mstore(0x40, 0x80)\n      callvalue\n      dup1\n      iszero\n      tag_1\n      jumpi\n      0x00\n      dup1\n      revert\n    tag_1:\n      pop\n      jumpi(tag_2, lt(calldatasize, 0x04))\n      shr(0xe0, calldataload(0x00))\n      dup1\n      0x06fdde03\n      eq\n      tag_3\n      jumpi\n      dup1\n      0x76809ce3\n      eq\n      tag_4\n      jumpi\n      dup1\n      0x9358928b\n      eq\n      tag_5\n      jumpi\n      dup1\n      0x95d89b41\n      eq\n      tag_6\n      jumpi\n      dup1\n      0xd5abeb01\n      eq\n      tag_7\n      jumpi\n    tag_2:\n      0x00\n      dup1\n      revert\n        /* \"contracts/exampleToken.sol\":83:101  string public name */\n    tag_3:\n      tag_8\n      tag_9\n      jump\t// in\n    tag_8:\n      mload(0x40)\n      tag_10\n      swap2\n      swap1\n      tag_11\n      jump\t// in\n    tag_10:\n      mload(0x40)\n      dup1\n      swap2\n      sub\n      swap1\n      return\n        /* \"contracts/exampleToken.sol\":205:227  uint256 public decimal */\n    tag_4:\n      tag_12\n      tag_13\n      jump\t// in\n    tag_12:\n      mload(0x40)\n      tag_14\n      swap2\n      swap1\n      tag_15\n      jump\t// in\n    tag_14:\n      mload(0x40)\n      dup1\n      swap2\n      sub\n      swap1\n      return\n        /* \"contracts/exampleToken.sol\":166:198  uint256 public circulatingSupply */\n    tag_5:\n      tag_16\n      tag_17\n      jump\t// in\n    tag_16:\n      mload(0x40)\n      tag_18\n      swap2\n      swap1\n      tag_15\n      jump\t// in\n    tag_18:\n      mload(0x40)\n      dup1\n      swap2\n      sub\n      swap1\n      return\n        /* \"contracts/exampleToken.sol\":108:128  string public symbol */\n    tag_6:\n      tag_19\n      tag_20\n      jump\t// in\n    tag_19:\n      mload(0x40)\n      tag_21\n      swap2\n      swap1\n      tag_11\n      jump\t// in\n    tag_21:\n      mload(0x40)\n      dup1\n      swap2\n      sub\n      swap1\n      return\n        /* \"contracts/exampleToken.sol\":135:159  uint256 public maxSupply */\n    tag_7:\n      tag_22\n      tag_23\n      jump\t// in\n    tag_22:\n      mload(0x40)\n      tag_24\n      swap2\n      swap1\n      tag_15\n      jump\t// in\n    tag_24:\n      mload(0x40)\n      dup1\n      swap2\n      sub\n      swap1\n      return\n        /* \"contracts/exampleToken.sol\":83:101  string public name */\n    tag_9:\n      0x00\n      dup1\n      sload\n      tag_25\n      swap1\n      tag_26\n      jump\t// in\n    tag_25:\n      dup1\n      0x1f\n      add\n      0x20\n      dup1\n      swap2\n      div\n      mul\n      0x20\n      add\n      mload(0x40)\n      swap1\n      dup2\n      add\n      0x40\n      mstore\n      dup1\n      swap3\n      swap2\n      swap1\n      dup2\n      dup2\n      mstore\n      0x20\n      add\n      dup3\n      dup1\n      sload\n      tag_27\n      swap1\n      tag_26\n      jump\t// in\n    tag_27:\n      dup1\n      iszero\n      tag_28\n      jumpi\n      dup1\n      0x1f\n      lt\n      tag_29\n      jumpi\n      0x0100\n      dup1\n      dup4\n      sload\n      div\n      mul\n      dup4\n      mstore\n      swap2\n      0x20\n      add\n      swap2\n      jump(tag_28)\n    tag_29:\n      dup3\n      add\n      swap2\n      swap1\n      0x00\n      mstore\n      keccak256(0x00, 0x20)\n      swap1\n    tag_30:\n      dup2\n      sload\n      dup2\n      mstore\n      swap1\n      0x01\n      add\n      swap1\n      0x20\n      add\n      dup1\n      dup4\n      gt\n      tag_30\n      jumpi\n      dup3\n      swap1\n      sub\n      0x1f\n      and\n      dup3\n      add\n      swap2\n    tag_28:\n      pop\n      pop\n      pop\n      pop\n      pop\n      dup2\n      jump\t// out\n        /* \"contracts/exampleToken.sol\":205:227  uint256 public decimal */\n    tag_13:\n      sload(0x04)\n      dup2\n      jump\t// out\n        /* \"contracts/exampleToken.sol\":166:198  uint256 public circulatingSupply */\n    tag_17:\n      sload(0x03)\n      dup2\n      jump\t// out\n        /* \"contracts/exampleToken.sol\":108:128  string public symbol */\n    tag_20:\n      0x01\n      dup1\n      sload\n      tag_31\n      swap1\n      tag_26\n      jump\t// in\n    tag_31:\n      dup1\n      0x1f\n      add\n      0x20\n      dup1\n      swap2\n      div\n      mul\n      0x20\n      add\n      mload(0x40)\n      swap1\n      dup2\n      add\n      0x40\n      mstore\n      dup1\n      swap3\n      swap2\n      swap1\n      dup2\n      dup2\n      mstore\n      0x20\n      add\n      dup3\n      dup1\n      sload\n      tag_32\n      swap1\n      tag_26\n      jump\t// in\n    tag_32:\n      dup1\n      iszero\n      tag_33\n      jumpi\n      dup1\n      0x1f\n      lt\n      tag_34\n      jumpi\n      0x0100\n      dup1\n      dup4\n      sload\n      div\n      mul\n      dup4\n      mstore\n      swap2\n      0x20\n      add\n      swap2\n      jump(tag_33)\n    tag_34:\n      dup3\n      add\n      swap2\n      swap1\n      0x00\n      mstore\n      keccak256(0x00, 0x20)\n      swap1\n    tag_35:\n      dup2\n      sload\n      dup2\n      mstore\n      swap1\n      0x01\n      add\n      swap1\n      0x20\n      add\n      dup1\n      dup4\n      gt\n      tag_35\n      jumpi\n      dup3\n      swap1\n      sub\n      0x1f\n      and\n      dup3\n      add\n      swap2\n    tag_33:\n      pop\n      pop\n      pop\n      pop\n      pop\n      dup2\n      jump\t// out\n        /* \"contracts/exampleToken.sol\":135:159  uint256 public maxSupply */\n    tag_23:\n      sload(0x02)\n      dup2\n      jump\t// out\n        /* \"#utility.yul\":7:371   */\n    tag_37:\n        /* \"#utility.yul\":95:98   */\n      0x00\n        /* \"#utility.yul\":123:162   */\n      tag_39\n        /* \"#utility.yul\":156:161   */\n      dup3\n        /* \"#utility.yul\":123:162   */\n      tag_40\n      jump\t// in\n    tag_39:\n        /* \"#utility.yul\":178:249   */\n      tag_41\n        /* \"#utility.yul\":242:248   */\n      dup2\n        /* \"#utility.yul\":237:240   */\n      dup6\n        /* \"#utility.yul\":178:249   */\n      tag_42\n      jump\t// in\n    tag_41:\n        /* \"#utility.yul\":171:249   */\n      swap4\n      pop\n        /* \"#utility.yul\":258:310   */\n      tag_43\n        /* \"#utility.yul\":303:309   */\n      dup2\n        /* \"#utility.yul\":298:301   */\n      dup6\n        /* \"#utility.yul\":291:295   */\n      0x20\n        /* \"#utility.yul\":284:289   */\n      dup7\n        /* \"#utility.yul\":280:296   */\n      add\n        /* \"#utility.yul\":258:310   */\n      tag_44\n      jump\t// in\n    tag_43:\n        /* \"#utility.yul\":335:364   */\n      tag_45\n        /* \"#utility.yul\":357:363   */\n      dup2\n        /* \"#utility.yul\":335:364   */\n      tag_46\n      jump\t// in\n    tag_45:\n        /* \"#utility.yul\":330:333   */\n      dup5\n        /* \"#utility.yul\":326:365   */\n      add\n        /* \"#utility.yul\":319:365   */\n      swap2\n      pop\n        /* \"#utility.yul\":99:371   */\n      pop\n        /* \"#utility.yul\":7:371   */\n      swap3\n      swap2\n      pop\n      pop\n      jump\t// out\n        /* \"#utility.yul\":377:495   */\n    tag_47:\n        /* \"#utility.yul\":464:488   */\n      tag_49\n        /* \"#utility.yul\":482:487   */\n      dup2\n        /* \"#utility.yul\":464:488   */\n      tag_50\n      jump\t// in\n    tag_49:\n        /* \"#utility.yul\":459:462   */\n      dup3\n        /* \"#utility.yul\":452:489   */\n      mstore\n        /* \"#utility.yul\":377:495   */\n      pop\n      pop\n      jump\t// out\n        /* \"#utility.yul\":501:814   */\n    tag_11:\n        /* \"#utility.yul\":614:618   */\n      0x00\n        /* \"#utility.yul\":652:654   */\n      0x20\n        /* \"#utility.yul\":641:650   */\n      dup3\n        /* \"#utility.yul\":637:655   */\n      add\n        /* \"#utility.yul\":629:655   */\n      swap1\n      pop\n        /* \"#utility.yul\":701:710   */\n      dup2\n        /* \"#utility.yul\":695:699   */\n      dup2\n        /* \"#utility.yul\":691:711   */\n      sub\n        /* \"#utility.yul\":687:688   */\n      0x00\n        /* \"#utility.yul\":676:685   */\n      dup4\n        /* \"#utility.yul\":672:689   */\n      add\n        /* \"#utility.yul\":665:712   */\n      mstore\n        /* \"#utility.yul\":729:807   */\n      tag_52\n        /* \"#utility.yul\":802:806   */\n      dup2\n        /* \"#utility.yul\":793:799   */\n      dup5\n        /* \"#utility.yul\":729:807   */\n      tag_37\n      jump\t// in\n    tag_52:\n        /* \"#utility.yul\":721:807   */\n      swap1\n      pop\n        /* \"#utility.yul\":501:814   */\n      swap3\n      swap2\n      pop\n      pop\n      jump\t// out\n        /* \"#utility.yul\":820:1042   */\n    tag_15:\n        /* \"#utility.yul\":913:917   */\n      0x00\n        /* \"#utility.yul\":951:953   */\n      0x20\n        /* \"#utility.yul\":940:949   */\n      dup3\n        /* \"#utility.yul\":936:954   */\n      add\n        /* \"#utility.yul\":928:954   */\n      swap1\n      pop\n        /* \"#utility.yul\":964:1035   */\n      tag_54\n        /* \"#utility.yul\":1032:1033   */\n      0x00\n        /* \"#utility.yul\":1021:1030   */\n      dup4\n        /* \"#utility.yul\":1017:1034   */\n      add\n        /* \"#utility.yul\":1008:1014   */\n      dup5\n        /* \"#utility.yul\":964:1035   */\n      tag_47\n      jump\t// in\n    tag_54:\n        /* \"#utility.yul\":820:1042   */\n      swap3\n      swap2\n      pop\n      pop\n      jump\t// out\n        /* \"#utility.yul\":1048:1147   */\n    tag_40:\n        /* \"#utility.yul\":1100:1106   */\n      0x00\n        /* \"#utility.yul\":1134:1139   */\n      dup2\n        /* \"#utility.yul\":1128:1140   */\n      mload\n        /* \"#utility.yul\":1118:1140   */\n      swap1\n      pop\n        /* \"#utility.yul\":1048:1147   */\n      swap2\n      swap1\n      pop\n      jump\t// out\n        /* \"#utility.yul\":1153:1322   */\n    tag_42:\n        /* \"#utility.yul\":1237:1248   */\n      0x00\n        /* \"#utility.yul\":1271:1277   */\n      dup3\n        /* \"#utility.yul\":1266:1269   */\n      dup3\n        /* \"#utility.yul\":1259:1278   */\n      mstore\n        /* \"#utility.yul\":1311:1315   */\n      0x20\n        /* \"#utility.yul\":1306:1309   */\n      dup3\n        /* \"#utility.yul\":1302:1316   */\n      add\n        /* \"#utility.yul\":1287:1316   */\n      swap1\n      pop\n        /* \"#utility.yul\":1153:1322   */\n      swap3\n      swap2\n      pop\n      pop\n      jump\t// out\n        /* \"#utility.yul\":1328:1405   */\n    tag_50:\n        /* \"#utility.yul\":1365:1372   */\n      0x00\n        /* \"#utility.yul\":1394:1399   */\n      dup2\n        /* \"#utility.yul\":1383:1399   */\n      swap1\n      pop\n        /* \"#utility.yul\":1328:1405   */\n      swap2\n      swap1\n      pop\n      jump\t// out\n        /* \"#utility.yul\":1411:1718   */\n    tag_44:\n        /* \"#utility.yul\":1479:1480   */\n      0x00\n        /* \"#utility.yul\":1489:1602   */\n    tag_59:\n        /* \"#utility.yul\":1503:1509   */\n      dup4\n        /* \"#utility.yul\":1500:1501   */\n      dup2\n        /* \"#utility.yul\":1497:1510   */\n      lt\n        /* \"#utility.yul\":1489:1602   */\n      iszero\n      tag_61\n      jumpi\n        /* \"#utility.yul\":1588:1589   */\n      dup1\n        /* \"#utility.yul\":1583:1586   */\n      dup3\n        /* \"#utility.yul\":1579:1590   */\n      add\n        /* \"#utility.yul\":1573:1591   */\n      mload\n        /* \"#utility.yul\":1569:1570   */\n      dup2\n        /* \"#utility.yul\":1564:1567   */\n      dup5\n        /* \"#utility.yul\":1560:1571   */\n      add\n        /* \"#utility.yul\":1553:1592   */\n      mstore\n        /* \"#utility.yul\":1525:1527   */\n      0x20\n        /* \"#utility.yul\":1522:1523   */\n      dup2\n        /* \"#utility.yul\":1518:1528   */\n      add\n        /* \"#utility.yul\":1513:1528   */\n      swap1\n      pop\n        /* \"#utility.yul\":1489:1602   */\n      jump(tag_59)\n    tag_61:\n        /* \"#utility.yul\":1620:1626   */\n      dup4\n        /* \"#utility.yul\":1617:1618   */\n      dup2\n        /* \"#utility.yul\":1614:1627   */\n      gt\n        /* \"#utility.yul\":1611:1712   */\n      iszero\n      tag_62\n      jumpi\n        /* \"#utility.yul\":1700:1701   */\n      0x00\n        /* \"#utility.yul\":1691:1697   */\n      dup5\n        /* \"#utility.yul\":1686:1689   */\n      dup5\n        /* \"#utility.yul\":1682:1698   */\n      add\n        /* \"#utility.yul\":1675:1702   */\n      mstore\n        /* \"#utility.yul\":1611:1712   */\n    tag_62:\n        /* \"#utility.yul\":1460:1718   */\n      pop\n        /* \"#utility.yul\":1411:1718   */\n      pop\n      pop\n      pop\n      jump\t// out\n        /* \"#utility.yul\":1724:2044   */\n    tag_26:\n        /* \"#utility.yul\":1768:1774   */\n      0x00\n        /* \"#utility.yul\":1805:1806   */\n      0x02\n        /* \"#utility.yul\":1799:1803   */\n      dup3\n        /* \"#utility.yul\":1795:1807   */\n      div\n        /* \"#utility.yul\":1785:1807   */\n      swap1\n      pop\n        /* \"#utility.yul\":1852:1853   */\n      0x01\n        /* \"#utility.yul\":1846:1850   */\n      dup3\n        /* \"#utility.yul\":1842:1854   */\n      and\n        /* \"#utility.yul\":1873:1891   */\n      dup1\n        /* \"#utility.yul\":1863:1944   */\n      tag_64\n      jumpi\n        /* \"#utility.yul\":1929:1933   */\n      0x7f\n        /* \"#utility.yul\":1921:1927   */\n      dup3\n        /* \"#utility.yul\":1917:1934   */\n      and\n        /* \"#utility.yul\":1907:1934   */\n      swap2\n      pop\n        /* \"#utility.yul\":1863:1944   */\n    tag_64:\n        /* \"#utility.yul\":1991:1993   */\n      0x20\n        /* \"#utility.yul\":1983:1989   */\n      dup3\n        /* \"#utility.yul\":1980:1994   */\n      lt\n        /* \"#utility.yul\":1960:1978   */\n      dup2\n        /* \"#utility.yul\":1957:1995   */\n      eq\n        /* \"#utility.yul\":1954:2038   */\n      iszero\n      tag_65\n      jumpi\n        /* \"#utility.yul\":2010:2028   */\n      tag_66\n      tag_67\n      jump\t// in\n    tag_66:\n        /* \"#utility.yul\":1954:2038   */\n    tag_65:\n        /* \"#utility.yul\":1775:2044   */\n      pop\n        /* \"#utility.yul\":1724:2044   */\n      swap2\n      swap1\n      pop\n      jump\t// out\n        /* \"#utility.yul\":2050:2230   */\n    tag_67:\n        /* \"#utility.yul\":2098:2175   */\n      0x4e487b7100000000000000000000000000000000000000000000000000000000\n        /* \"#utility.yul\":2095:2096   */\n      0x00\n        /* \"#utility.yul\":2088:2176   */\n      mstore\n        /* \"#utility.yul\":2195:2199   */\n      0x22\n        /* \"#utility.yul\":2192:2193   */\n      0x04\n        /* \"#utility.yul\":2185:2200   */\n      mstore\n        /* \"#utility.yul\":2219:2223   */\n      0x24\n        /* \"#utility.yul\":2216:2217   */\n      0x00\n        /* \"#utility.yul\":2209:2224   */\n      revert\n        /* \"#utility.yul\":2236:2338   */\n    tag_46:\n        /* \"#utility.yul\":2277:2283   */\n      0x00\n        /* \"#utility.yul\":2328:2330   */\n      0x1f\n        /* \"#utility.yul\":2324:2331   */\n      not\n        /* \"#utility.yul\":2319:2321   */\n      0x1f\n        /* \"#utility.yul\":2312:2317   */\n      dup4\n        /* \"#utility.yul\":2308:2322   */\n      add\n        /* \"#utility.yul\":2304:2332   */\n      and\n        /* \"#utility.yul\":2294:2332   */\n      swap1\n      pop\n        /* \"#utility.yul\":2236:2338   */\n      swap2\n      swap1\n      pop\n      jump\t// out\n\n    auxdata: 0xa26469706673582212205fce7cff7f8bea923ff5492cc8557bf6d5e01a55f37dae5c439893bea970cdf064736f6c63430008070033\n}\n",
				"bytecode": {
					"linkReferences": {},
					"object": "60806040523480156200001157600080fd5b50604051620007d4380380620007d48339818101604052810190620000379190620001c6565b83600090805190602001906200004f92919062000081565b5082600190805190602001906200006892919062000081565b508160028190555080600481905550505050506200041e565b8280546200008f9062000315565b90600052602060002090601f016020900481019282620000b35760008555620000ff565b82601f10620000ce57805160ff1916838001178555620000ff565b82800160010185558215620000ff579182015b82811115620000fe578251825591602001919060010190620000e1565b5b5090506200010e919062000112565b5090565b5b808211156200012d57600081600090555060010162000113565b5090565b60006200014862000142846200029f565b62000276565b905082815260208101848484011115620001675762000166620003e4565b5b62000174848285620002df565b509392505050565b600082601f830112620001945762000193620003df565b5b8151620001a684826020860162000131565b91505092915050565b600081519050620001c08162000404565b92915050565b60008060008060808587031215620001e357620001e2620003ee565b5b600085015167ffffffffffffffff811115620002045762000203620003e9565b5b62000212878288016200017c565b945050602085015167ffffffffffffffff811115620002365762000235620003e9565b5b62000244878288016200017c565b93505060406200025787828801620001af565b92505060606200026a87828801620001af565b91505092959194509250565b60006200028262000295565b90506200029082826200034b565b919050565b6000604051905090565b600067ffffffffffffffff821115620002bd57620002bc620003b0565b5b620002c882620003f3565b9050602081019050919050565b6000819050919050565b60005b83811015620002ff578082015181840152602081019050620002e2565b838111156200030f576000848401525b50505050565b600060028204905060018216806200032e57607f821691505b6020821081141562000345576200034462000381565b5b50919050565b6200035682620003f3565b810181811067ffffffffffffffff82111715620003785762000377620003b0565b5b80604052505050565b7f4e487b7100000000000000000000000000000000000000000000000000000000600052602260045260246000fd5b7f4e487b7100000000000000000000000000000000000000000000000000000000600052604160045260246000fd5b600080fd5b600080fd5b600080fd5b600080fd5b6000601f19601f8301169050919050565b6200040f81620002d5565b81146200041b57600080fd5b50565b6103a6806200042e6000396000f3fe608060405234801561001057600080fd5b50600436106100575760003560e01c806306fdde031461005c57806376809ce31461007a5780639358928b1461009857806395d89b41146100b6578063d5abeb01146100d4575b600080fd5b6100646100f2565b6040516100719190610268565b60405180910390f35b610082610180565b60405161008f919061028a565b60405180910390f35b6100a0610186565b6040516100ad919061028a565b60405180910390f35b6100be61018c565b6040516100cb9190610268565b60405180910390f35b6100dc61021a565b6040516100e9919061028a565b60405180910390f35b600080546100ff906102fe565b80601f016020809104026020016040519081016040528092919081815260200182805461012b906102fe565b80156101785780601f1061014d57610100808354040283529160200191610178565b820191906000526020600020905b81548152906001019060200180831161015b57829003601f168201915b505050505081565b60045481565b60035481565b60018054610199906102fe565b80601f01602080910402602001604051908101604052809291908181526020018280546101c5906102fe565b80156102125780601f106101e757610100808354040283529160200191610212565b820191906000526020600020905b8154815290600101906020018083116101f557829003601f168201915b505050505081565b60025481565b600061022b826102a5565b61023581856102b0565b93506102458185602086016102cb565b61024e8161035f565b840191505092915050565b610262816102c1565b82525050565b600060208201905081810360008301526102828184610220565b905092915050565b600060208201905061029f6000830184610259565b92915050565b600081519050919050565b600082825260208201905092915050565b6000819050919050565b60005b838110156102e95780820151818401526020810190506102ce565b838111156102f8576000848401525b50505050565b6000600282049050600182168061031657607f821691505b6020821081141561032a57610329610330565b5b50919050565b7f4e487b7100000000000000000000000000000000000000000000000000000000600052602260045260246000fd5b6000601f19601f830116905091905056fea26469706673582212205fce7cff7f8bea923ff5492cc8557bf6d5e01a55f37dae5c439893bea970cdf064736f6c63430008070033",
					"opcodes": "PUSH1 0x80 PUSH1 0x40 MSTORE CALLVALUE DUP1 ISZERO PUSH3 0x11 JUMPI PUSH1 0x0 DUP1 REVERT JUMPDEST POP PUSH1 0x40 MLOAD PUSH3 0x7D4 CODESIZE SUB DUP1 PUSH3 0x7D4 DUP4 CODECOPY DUP2 DUP2 ADD PUSH1 0x40 MSTORE DUP2 ADD SWAP1 PUSH3 0x37 SWAP2 SWAP1 PUSH3 0x1C6 JUMP JUMPDEST DUP4 PUSH1 0x0 SWAP1 DUP1 MLOAD SWAP1 PUSH1 0x20 ADD SWAP1 PUSH3 0x4F SWAP3 SWAP2 SWAP1 PUSH3 0x81 JUMP JUMPDEST POP DUP3 PUSH1 0x1 SWAP1 DUP1 MLOAD SWAP1 PUSH1 0x20 ADD SWAP1 PUSH3 0x68 SWAP3 SWAP2 SWAP1 PUSH3 0x81 JUMP JUMPDEST POP DUP2 PUSH1 0x2 DUP2 SWAP1 SSTORE POP DUP1 PUSH1 0x4 DUP2 SWAP1 SSTORE POP POP POP POP POP PUSH3 0x41E JUMP JUMPDEST DUP3 DUP1 SLOAD PUSH3 0x8F SWAP1 PUSH3 0x315 JUMP JUMPDEST SWAP1 PUSH1 0x0 MSTORE PUSH1 0x20 PUSH1 0x0 KECCAK256 SWAP1 PUSH1 0x1F ADD PUSH1 0x20 SWAP1 DIV DUP2 ADD SWAP3 DUP3 PUSH3 0xB3 JUMPI PUSH1 0x0 DUP6 SSTORE PUSH3 0xFF JUMP JUMPDEST DUP3 PUSH1 0x1F LT PUSH3 0xCE JUMPI DUP1 MLOAD PUSH1 0xFF NOT AND DUP4 DUP1 ADD OR DUP6 SSTORE PUSH3 0xFF JUMP JUMPDEST DUP3 DUP1 ADD PUSH1 0x1 ADD DUP6 SSTORE DUP3 ISZERO PUSH3 0xFF JUMPI SWAP2 DUP3 ADD JUMPDEST DUP3 DUP2 GT ISZERO PUSH3 0xFE JUMPI DUP3 MLOAD DUP3 SSTORE SWAP2 PUSH1 0x20 ADD SWAP2 SWAP1 PUSH1 0x1 ADD SWAP1 PUSH3 0xE1 JUMP JUMPDEST JUMPDEST POP SWAP1 POP PUSH3 0x10E SWAP2 SWAP1 PUSH3 0x112 JUMP JUMPDEST POP SWAP1 JUMP JUMPDEST JUMPDEST DUP1 DUP3 GT ISZERO PUSH3 0x12D JUMPI PUSH1 0x0 DUP2 PUSH1 0x0 SWAP1 SSTORE POP PUSH1 0x1 ADD PUSH3 0x113 JUMP JUMPDEST POP SWAP1 JUMP JUMPDEST PUSH1 0x0 PUSH3 0x148 PUSH3 0x142 DUP5 PUSH3 0x29F JUMP JUMPDEST PUSH3 0x276 JUMP JUMPDEST SWAP1 POP DUP3 DUP2 MSTORE PUSH1 0x20 DUP2 ADD DUP5 DUP5 DUP5 ADD GT ISZERO PUSH3 0x167 JUMPI PUSH3 0x166 PUSH3 0x3E4 JUMP JUMPDEST JUMPDEST PUSH3 0x174 DUP5 DUP3 DUP6 PUSH3 0x2DF JUMP JUMPDEST POP SWAP4 SWAP3 POP POP POP JUMP JUMPDEST PUSH1 0x0 DUP3 PUSH1 0x1F DUP4 ADD SLT PUSH3 0x194 JUMPI PUSH3 0x193 PUSH3 0x3DF JUMP JUMPDEST JUMPDEST DUP2 MLOAD PUSH3 0x1A6 DUP5 DUP3 PUSH1 0x20 DUP7 ADD PUSH3 0x131 JUMP JUMPDEST SWAP2 POP POP SWAP3 SWAP2 POP POP JUMP JUMPDEST PUSH1 0x0 DUP2 MLOAD SWAP1 POP PUSH3 0x1C0 DUP2 PUSH3 0x404 JUMP JUMPDEST SWAP3 SWAP2 POP POP JUMP JUMPDEST PUSH1 0x0 DUP1 PUSH1 0x0 DUP1 PUSH1 0x80 DUP6 DUP8 SUB SLT ISZERO PUSH3 0x1E3 JUMPI PUSH3 0x1E2 PUSH3 0x3EE JUMP JUMPDEST JUMPDEST PUSH1 0x0 DUP6 ADD MLOAD PUSH8 0xFFFFFFFFFFFFFFFF DUP2 GT ISZERO PUSH3 0x204 JUMPI PUSH3 0x203 PUSH3 0x3E9 JUMP JUMPDEST JUMPDEST PUSH3 0x212 DUP8 DUP3 DUP9 ADD PUSH3 0x17C JUMP JUMPDEST SWAP5 POP POP PUSH1 0x20 DUP6 ADD MLOAD PUSH8 0xFFFFFFFFFFFFFFFF DUP2 GT ISZERO PUSH3 0x236 JUMPI PUSH3 0x235 PUSH3 0x3E9 JUMP JUMPDEST JUMPDEST PUSH3 0x244 DUP8 DUP3 DUP9 ADD PUSH3 0x17C JUMP JUMPDEST SWAP4 POP POP PUSH1 0x40 PUSH3 0x257 DUP8 DUP3 DUP9 ADD PUSH3 0x1AF JUMP JUMPDEST SWAP3 POP POP PUSH1 0x60 PUSH3 0x26A DUP8 DUP3 DUP9 ADD PUSH3 0x1AF JUMP JUMPDEST SWAP2 POP POP SWAP3 SWAP6 SWAP2 SWAP5 POP SWAP3 POP JUMP JUMPDEST PUSH1 0x0 PUSH3 0x282 PUSH3 0x295 JUMP JUMPDEST SWAP1 POP PUSH3 0x290 DUP3 DUP3 PUSH3 0x34B JUMP JUMPDEST SWAP2 SWAP1 POP JUMP JUMPDEST PUSH1 0x0 PUSH1 0x40 MLOAD SWAP1 POP SWAP1 JUMP JUMPDEST PUSH1 0x0 PUSH8 0xFFFFFFFFFFFFFFFF DUP3 GT ISZERO PUSH3 0x2BD JUMPI PUSH3 0x2BC PUSH3 0x3B0 JUMP JUMPDEST JUMPDEST PUSH3 0x2C8 DUP3 PUSH3 0x3F3 JUMP JUMPDEST SWAP1 POP PUSH1 0x20 DUP2 ADD SWAP1 POP SWAP2 SWAP1 POP JUMP JUMPDEST PUSH1 0x0 DUP2 SWAP1 POP SWAP2 SWAP1 POP JUMP JUMPDEST PUSH1 0x0 JUMPDEST DUP4 DUP2 LT ISZERO PUSH3 0x2FF JUMPI DUP1 DUP3 ADD MLOAD DUP2 DUP5 ADD MSTORE PUSH1 0x20 DUP2 ADD SWAP1 POP PUSH3 0x2E2 JUMP JUMPDEST DUP4 DUP2 GT ISZERO PUSH3 0x30F JUMPI PUSH1 0x0 DUP5 DUP5 ADD MSTORE JUMPDEST POP POP POP POP JUMP JUMPDEST PUSH1 0x0 PUSH1 0x2 DUP3 DIV SWAP1 POP PUSH1 0x1 DUP3 AND DUP1 PUSH3 0x32E JUMPI PUSH1 0x7F DUP3 AND SWAP2 POP JUMPDEST PUSH1 0x20 DUP3 LT DUP2 EQ ISZERO PUSH3 0x345 JUMPI PUSH3 0x344 PUSH3 0x381 JUMP JUMPDEST JUMPDEST POP SWAP2 SWAP1 POP JUMP JUMPDEST PUSH3 0x356 DUP3 PUSH3 0x3F3 JUMP JUMPDEST DUP2 ADD DUP2 DUP2 LT PUSH8 0xFFFFFFFFFFFFFFFF DUP3 GT OR ISZERO PUSH3 0x378 JUMPI PUSH3 0x377 PUSH3 0x3B0 JUMP JUMPDEST JUMPDEST DUP1 PUSH1 0x40 MSTORE POP POP POP JUMP JUMPDEST PUSH32 0x4E487B7100000000000000000000000000000000000000000000000000000000 PUSH1 0x0 MSTORE PUSH1 0x22 PUSH1 0x4 MSTORE PUSH1 0x24 PUSH1 0x0 REVERT JUMPDEST PUSH32 0x4E487B7100000000000000000000000000000000000000000000000000000000 PUSH1 0x0 MSTORE PUSH1 0x41 PUSH1 0x4 MSTORE PUSH1 0x24 PUSH1 0x0 REVERT JUMPDEST PUSH1 0x0 DUP1 REVERT JUMPDEST PUSH1 0x0 DUP1 REVERT JUMPDEST PUSH1 0x0 DUP1 REVERT JUMPDEST PUSH1 0x0 DUP1 REVERT JUMPDEST PUSH1 0x0 PUSH1 0x1F NOT PUSH1 0x1F DUP4 ADD AND SWAP1 POP SWAP2 SWAP1 POP JUMP JUMPDEST PUSH3 0x40F DUP2 PUSH3 0x2D5 JUMP JUMPDEST DUP2 EQ PUSH3 0x41B JUMPI PUSH1 0x0 DUP1 REVERT JUMPDEST POP JUMP JUMPDEST PUSH2 0x3A6 DUP1 PUSH3 0x42E PUSH1 0x0 CODECOPY PUSH1 0x0 RETURN INVALID PUSH1 0x80 PUSH1 0x40 MSTORE CALLVALUE DUP1 ISZERO PUSH2 0x10 JUMPI PUSH1 0x0 DUP1 REVERT JUMPDEST POP PUSH1 0x4 CALLDATASIZE LT PUSH2 0x57 JUMPI PUSH1 0x0 CALLDATALOAD PUSH1 0xE0 SHR DUP1 PUSH4 0x6FDDE03 EQ PUSH2 0x5C JUMPI DUP1 PUSH4 0x76809CE3 EQ PUSH2 0x7A JUMPI DUP1 PUSH4 0x9358928B EQ PUSH2 0x98 JUMPI DUP1 PUSH4 0x95D89B41 EQ PUSH2 0xB6 JUMPI DUP1 PUSH4 0xD5ABEB01 EQ PUSH2 0xD4 JUMPI JUMPDEST PUSH1 0x0 DUP1 REVERT JUMPDEST PUSH2 0x64 PUSH2 0xF2 JUMP JUMPDEST PUSH1 0x40 MLOAD PUSH2 0x71 SWAP2 SWAP1 PUSH2 0x268 JUMP JUMPDEST PUSH1 0x40 MLOAD DUP1 SWAP2 SUB SWAP1 RETURN JUMPDEST PUSH2 0x82 PUSH2 0x180 JUMP JUMPDEST PUSH1 0x40 MLOAD PUSH2 0x8F SWAP2 SWAP1 PUSH2 0x28A JUMP JUMPDEST PUSH1 0x40 MLOAD DUP1 SWAP2 SUB SWAP1 RETURN JUMPDEST PUSH2 0xA0 PUSH2 0x186 JUMP JUMPDEST PUSH1 0x40 MLOAD PUSH2 0xAD SWAP2 SWAP1 PUSH2 0x28A JUMP JUMPDEST PUSH1 0x40 MLOAD DUP1 SWAP2 SUB SWAP1 RETURN JUMPDEST PUSH2 0xBE PUSH2 0x18C JUMP JUMPDEST PUSH1 0x40 MLOAD PUSH2 0xCB SWAP2 SWAP1 PUSH2 0x268 JUMP JUMPDEST PUSH1 0x40 MLOAD DUP1 SWAP2 SUB SWAP1 RETURN JUMPDEST PUSH2 0xDC PUSH2 0x21A JUMP JUMPDEST PUSH1 0x40 MLOAD PUSH2 0xE9 SWAP2 SWAP1 PUSH2 0x28A JUMP JUMPDEST PUSH1 0x40 MLOAD DUP1 SWAP2 SUB SWAP1 RETURN JUMPDEST PUSH1 0x0 DUP1 SLOAD PUSH2 0xFF SWAP1 PUSH2 0x2FE JUMP JUMPDEST DUP1 PUSH1 0x1F ADD PUSH1 0x20 DUP1 SWAP2 DIV MUL PUSH1 0x20 ADD PUSH1 0x40 MLOAD SWAP1 DUP2 ADD PUSH1 0x40 MSTORE DUP1 SWAP3 SWAP2 SWAP1 DUP2 DUP2 MSTORE PUSH1 0x20 ADD DUP3 DUP1 SLOAD PUSH2 0x12B SWAP1 PUSH2 0x2FE JUMP JUMPDEST DUP1 ISZERO PUSH2 0x178 JUMPI DUP1 PUSH1 0x1F LT PUSH2 0x14D JUMPI PUSH2 0x100 DUP1 DUP4 SLOAD DIV MUL DUP4 MSTORE SWAP2 PUSH1 0x20 ADD SWAP2 PUSH2 0x178 JUMP JUMPDEST DUP3 ADD SWAP2 SWAP1 PUSH1 0x0 MSTORE PUSH1 0x20 PUSH1 0x0 KECCAK256 SWAP1 JUMPDEST DUP2 SLOAD DUP2 MSTORE SWAP1 PUSH1 0x1 ADD SWAP1 PUSH1 0x20 ADD DUP1 DUP4 GT PUSH2 0x15B JUMPI DUP3 SWAP1 SUB PUSH1 0x1F AND DUP3 ADD SWAP2 JUMPDEST POP POP POP POP POP DUP2 JUMP JUMPDEST PUSH1 0x4 SLOAD DUP2 JUMP JUMPDEST PUSH1 0x3 SLOAD DUP2 JUMP JUMPDEST PUSH1 0x1 DUP1 SLOAD PUSH2 0x199 SWAP1 PUSH2 0x2FE JUMP JUMPDEST DUP1 PUSH1 0x1F ADD PUSH1 0x20 DUP1 SWAP2 DIV MUL PUSH1 0x20 ADD PUSH1 0x40 MLOAD SWAP1 DUP2 ADD PUSH1 0x40 MSTORE DUP1 SWAP3 SWAP2 SWAP1 DUP2 DUP2 MSTORE PUSH1 0x20 ADD DUP3 DUP1 SLOAD PUSH2 0x1C5 SWAP1 PUSH2 0x2FE JUMP JUMPDEST DUP1 ISZERO PUSH2 0x212 JUMPI DUP1 PUSH1 0x1F LT PUSH2 0x1E7 JUMPI PUSH2 0x100 DUP1 DUP4 SLOAD DIV MUL DUP4 MSTORE SWAP2 PUSH1 0x20 ADD SWAP2 PUSH2 0x212 JUMP JUMPDEST DUP3 ADD SWAP2 SWAP1 PUSH1 0x0 MSTORE PUSH1 0x20 PUSH1 0x0 KECCAK256 SWAP1 JUMPDEST DUP2 SLOAD DUP2 MSTORE SWAP1 PUSH1 0x1 ADD SWAP1 PUSH1 0x20 ADD DUP1 DUP4 GT PUSH2 0x1F5 JUMPI DUP3 SWAP1 SUB PUSH1 0x1F AND DUP3 ADD SWAP2 JUMPDEST POP POP POP POP POP DUP2 JUMP JUMPDEST PUSH1 0x2 SLOAD DUP2 JUMP JUMPDEST PUSH1 0x0 PUSH2 0x22B DUP3 PUSH2 0x2A5 JUMP JUMPDEST PUSH2 0x235 DUP2 DUP6 PUSH2 0x2B0 JUMP JUMPDEST SWAP4 POP PUSH2 0x245 DUP2 DUP6 PUSH1 0x20 DUP7 ADD PUSH2 0x2CB JUMP JUMPDEST PUSH2 0x24E DUP2 PUSH2 0x35F JUMP JUMPDEST DUP5 ADD SWAP2 POP POP SWAP3 SWAP2 POP POP JUMP JUMPDEST PUSH2 0x262 DUP2 PUSH2 0x2C1 JUMP JUMPDEST DUP3 MSTORE POP POP JUMP JUMPDEST PUSH1 0x0 PUSH1 0x20 DUP3 ADD SWAP1 POP DUP2 DUP2 SUB PUSH1 0x0 DUP4 ADD MSTORE PUSH2 0x282 DUP2 DUP5 PUSH2 0x220 JUMP JUMPDEST SWAP1 POP SWAP3 SWAP2 POP POP JUMP JUMPDEST PUSH1 0x0 PUSH1 0x20 DUP3 ADD SWAP1 POP PUSH2 0x29F PUSH1 0x0 DUP4 ADD DUP5 PUSH2 0x259 JUMP JUMPDEST SWAP3 SWAP2 POP POP JUMP JUMPDEST PUSH1 0x0 DUP2 MLOAD SWAP1 POP SWAP2 SWAP1 POP JUMP JUMPDEST PUSH1 0x0 DUP3 DUP3 MSTORE PUSH1 0x20 DUP3 ADD SWAP1 POP SWAP3 SWAP2 POP POP JUMP JUMPDEST PUSH1 0x0 DUP2 SWAP1 POP SWAP2 SWAP1 POP JUMP JUMPDEST PUSH1 0x0 JUMPDEST DUP4 DUP2 LT ISZERO PUSH2 0x2E9 JUMPI DUP1 DUP3 ADD MLOAD DUP2 DUP5 ADD MSTORE PUSH1 0x20 DUP2 ADD SWAP1 POP PUSH2 0x2CE JUMP JUMPDEST DUP4 DUP2 GT ISZERO PUSH2 0x2F8 JUMPI PUSH1 0x0 DUP5 DUP5 ADD MSTORE JUMPDEST POP POP POP POP JUMP JUMPDEST PUSH1 0x0 PUSH1 0x2 DUP3 DIV SWAP1 POP PUSH1 0x1 DUP3 AND DUP1 PUSH2 0x316 JUMPI PUSH1 0x7F DUP3 AND SWAP2 POP JUMPDEST PUSH1 0x20 DUP3 LT DUP2 EQ ISZERO PUSH2 0x32A JUMPI PUSH2 0x329 PUSH2 0x330 JUMP JUMPDEST JUMPDEST POP SWAP2 SWAP1 POP JUMP JUMPDEST PUSH32 0x4E487B7100000000000000000000000000000000000000000000000000000000 PUSH1 0x0 MSTORE PUSH1 0x22 PUSH1 0x4 MSTORE PUSH1 0x24 PUSH1 0x0 REVERT JUMPDEST PUSH1 0x0 PUSH1 0x1F NOT PUSH1 0x1F DUP4 ADD AND SWAP1 POP SWAP2 SWAP1 POP JUMP INVALID LOG2 PUSH5 0x6970667358 0x22 SLT KECCAK256 0x5F 0xCE PUSH29 0xFF7F8BEA923FF5492CC8557BF6D5E01A55F37DAE5C439893BEA970CDF0 PUSH5 0x736F6C6343 STOP ADDMOD SMOD STOP CALLER "
				},
				"gasEstimates": {
					"creation": {
						"codeDepositCost": "186800",
						"executionCost": "infinite",
						"totalCost": "infinite"
					},
					"external": {
						"circulatingSupply()": "2451",
						"decimal()": "2429",
						"maxSupply()": "2495",
						"name()": "infinite",
						"symbol()": "infinite"
					}
				},
				"methodIdentifiers": {
					"circulatingSupply()": "9358928b",
					"decimal()": "76809ce3",
					"maxSupply()": "d5abeb01",
					"name()": "06fdde03",
					"symbol()": "95d89b41"
				}
			},
			"storageLayout": {
				"storage": [
					{
						"astId": 3,
						"contract": "contracts/exampleToken.sol:MyToken",
						"label": "name",
						"offset": 0,
						"slot": "0",
						"type": "t_string_storage"
					},
					{
						"astId": 5,
						"contract": "contracts/exampleToken.sol:MyToken",
						"label": "symbol",
						"offset": 0,
						"slot": "1",
						"type": "t_string_storage"
					},
					{
						"astId": 7,
						"contract": "contracts/exampleToken.sol:MyToken",
						"label": "maxSupply",
						"offset": 0,
						"slot": "2",
						"type": "t_uint256"
					},
					{
						"astId": 9,
						"contract": "contracts/exampleToken.sol:MyToken",
						"label": "circulatingSupply",
						"offset": 0,
						"slot": "3",
						"type": "t_uint256"
					},
					{
						"astId": 11,
						"contract": "contracts/exampleToken.sol:MyToken",
						"label": "decimal",
						"offset": 0,
						"slot": "4",
						"type": "t_uint256"
					}
				],
				"types": {
					"t_string_storage": {
						"encoding": "bytes",
						"label": "string",
						"numberOfBytes": "32"
					},
					"t_uint256": {
						"encoding": "inplace",
						"label": "uint256",
						"numberOfBytes": "32"
					}
				}
			},
			"userdoc": {
				"kind": "user",
				"methods": {},
				"version": 1
			}
		}
	}
}