{
	"contracts/bomToken.sol": {
		"BomToken": {
			"abi": [
				{
					"inputs": [
						{
							"internalType": "address",
							"name": "add",
							"type": "address"
						}
					],
					"name": "getBalance",
					"outputs": [
						{
							"internalType": "uint256",
							"name": "",
							"type": "uint256"
						}
					],
					"stateMutability": "view",
					"type": "function"
				},
				{
					"inputs": [
						{
							"internalType": "uint256",
							"name": "amount",
							"type": "uint256"
						},
						{
							"internalType": "address",
							"name": "targetAdress",
							"type": "address"
						}
					],
					"name": "mint",
					"outputs": [],
					"stateMutability": "nonpayable",
					"type": "function"
				},
				{
					"inputs": [
						{
							"internalType": "address",
							"name": "",
							"type": "address"
						}
					],
					"name": "transaction",
					"outputs": [
						{
							"internalType": "address",
							"name": "",
							"type": "address"
						}
					],
					"stateMutability": "view",
					"type": "function"
				}
			],
			"devdoc": {
				"kind": "dev",
				"methods": {},
				"version": 1
			},
			"evm": {
				"assembly": "    /* \"contracts/bomToken.sol\":62:862  contract BomToken {\r... */\n  mstore(0x40, 0x80)\n    /* \"contracts/bomToken.sol\":86:117  string name       = \"BombToken\" */\n  mload(0x40)\n  dup1\n  0x40\n  add\n  0x40\n  mstore\n  dup1\n  0x09\n  dup2\n  mstore\n  0x20\n  add\n  0x426f6d62546f6b656e0000000000000000000000000000000000000000000000\n  dup2\n  mstore\n  pop\n  0x00\n  swap1\n  dup1\n  mload\n  swap1\n  0x20\n  add\n  swap1\n  tag_1\n  swap3\n  swap2\n  swap1\n  tag_2\n  jump\t// in\ntag_1:\n  pop\n    /* \"contracts/bomToken.sol\":124:148  string symbole    = \"BT\" */\n  mload(0x40)\n  dup1\n  0x40\n  add\n  0x40\n  mstore\n  dup1\n  0x02\n  dup2\n  mstore\n  0x20\n  add\n  0x4254000000000000000000000000000000000000000000000000000000000000\n  dup2\n  mstore\n  pop\n  0x01\n  swap1\n  dup1\n  mload\n  swap1\n  0x20\n  add\n  swap1\n  tag_3\n  swap3\n  swap2\n  swap1\n  tag_2\n  jump\t// in\ntag_3:\n  pop\n    /* \"contracts/bomToken.sol\":177:184  9000000 */\n  0x895440\n    /* \"contracts/bomToken.sol\":154:184  uint256 csupply    =   9000000 */\n  0x02\n  sstore\n    /* \"contracts/bomToken.sol\":212:221  100000000 */\n  0x05f5e100\n    /* \"contracts/bomToken.sol\":190:221  uint256 maxSupply   = 100000000 */\n  0x03\n  sstore\n    /* \"contracts/bomToken.sol\":246:248  10 */\n  0x0a\n    /* \"contracts/bomToken.sol\":227:248  uint256 decimal  = 10 */\n  0x04\n  sstore\n    /* \"contracts/bomToken.sol\":62:862  contract BomToken {\r... */\n  callvalue\n  dup1\n  iszero\n  tag_4\n  jumpi\n  0x00\n  dup1\n  revert\ntag_4:\n  pop\n  jump(tag_5)\ntag_2:\n  dup3\n  dup1\n  sload\n  tag_6\n  swap1\n  tag_7\n  jump\t// in\ntag_6:\n  swap1\n  0x00\n  mstore\n  keccak256(0x00, 0x20)\n  swap1\n  0x1f\n  add\n  0x20\n  swap1\n  div\n  dup2\n  add\n  swap3\n  dup3\n  tag_9\n  jumpi\n  0x00\n  dup6\n  sstore\n  jump(tag_8)\ntag_9:\n  dup3\n  0x1f\n  lt\n  tag_10\n  jumpi\n  dup1\n  mload\n  not(0xff)\n  and\n  dup4\n  dup1\n  add\n  or\n  dup6\n  sstore\n  jump(tag_8)\ntag_10:\n  dup3\n  dup1\n  add\n  0x01\n  add\n  dup6\n  sstore\n  dup3\n  iszero\n  tag_8\n  jumpi\n  swap2\n  dup3\n  add\ntag_11:\n  dup3\n  dup2\n  gt\n  iszero\n  tag_12\n  jumpi\n  dup3\n  mload\n  dup3\n  sstore\n  swap2\n  0x20\n  add\n  swap2\n  swap1\n  0x01\n  add\n  swap1\n  jump(tag_11)\ntag_12:\ntag_8:\n  pop\n  swap1\n  pop\n  tag_13\n  swap2\n  swap1\n  tag_14\n  jump\t// in\ntag_13:\n  pop\n  swap1\n  jump\t// out\ntag_14:\ntag_15:\n  dup1\n  dup3\n  gt\n  iszero\n  tag_16\n  jumpi\n  0x00\n  dup2\n  0x00\n  swap1\n  sstore\n  pop\n  0x01\n  add\n  jump(tag_15)\ntag_16:\n  pop\n  swap1\n  jump\t// out\n    /* \"#utility.yul\":7:327   */\ntag_7:\n    /* \"#utility.yul\":51:57   */\n  0x00\n    /* \"#utility.yul\":88:89   */\n  0x02\n    /* \"#utility.yul\":82:86   */\n  dup3\n    /* \"#utility.yul\":78:90   */\n  div\n    /* \"#utility.yul\":68:90   */\n  swap1\n  pop\n    /* \"#utility.yul\":135:136   */\n  0x01\n    /* \"#utility.yul\":129:133   */\n  dup3\n    /* \"#utility.yul\":125:137   */\n  and\n    /* \"#utility.yul\":156:174   */\n  dup1\n    /* \"#utility.yul\":146:227   */\n  tag_19\n  jumpi\n    /* \"#utility.yul\":212:216   */\n  0x7f\n    /* \"#utility.yul\":204:210   */\n  dup3\n    /* \"#utility.yul\":200:217   */\n  and\n    /* \"#utility.yul\":190:217   */\n  swap2\n  pop\n    /* \"#utility.yul\":146:227   */\ntag_19:\n    /* \"#utility.yul\":274:276   */\n  0x20\n    /* \"#utility.yul\":266:272   */\n  dup3\n    /* \"#utility.yul\":263:277   */\n  lt\n    /* \"#utility.yul\":243:261   */\n  dup2\n    /* \"#utility.yul\":240:278   */\n  eq\n    /* \"#utility.yul\":237:321   */\n  iszero\n  tag_20\n  jumpi\n    /* \"#utility.yul\":293:311   */\n  tag_21\n  tag_22\n  jump\t// in\ntag_21:\n    /* \"#utility.yul\":237:321   */\ntag_20:\n    /* \"#utility.yul\":58:327   */\n  pop\n    /* \"#utility.yul\":7:327   */\n  swap2\n  swap1\n  pop\n  jump\t// out\n    /* \"#utility.yul\":333:513   */\ntag_22:\n    /* \"#utility.yul\":381:458   */\n  0x4e487b7100000000000000000000000000000000000000000000000000000000\n    /* \"#utility.yul\":378:379   */\n  0x00\n    /* \"#utility.yul\":371:459   */\n  mstore\n    /* \"#utility.yul\":478:482   */\n  0x22\n    /* \"#utility.yul\":475:476   */\n  0x04\n    /* \"#utility.yul\":468:483   */\n  mstore\n    /* \"#utility.yul\":502:506   */\n  0x24\n    /* \"#utility.yul\":499:500   */\n  0x00\n    /* \"#utility.yul\":492:507   */\n  revert\n    /* \"contracts/bomToken.sol\":62:862  contract BomToken {\r... */\ntag_5:\n  dataSize(sub_0)\n  dup1\n  dataOffset(sub_0)\n  0x00\n  codecopy\n  0x00\n  return\nstop\n\nsub_0: assembly {\n        /* \"contracts/bomToken.sol\":62:862  contract BomToken {\r... */\n      mstore(0x40, 0x80)\n      callvalue\n      dup1\n      iszero\n      tag_1\n      jumpi\n      0x00\n      dup1\n      revert\n    tag_1:\n      pop\n      jumpi(tag_2, lt(calldatasize, 0x04))\n      shr(0xe0, calldataload(0x00))\n      dup1\n      0x566690ec\n      eq\n      tag_3\n      jumpi\n      dup1\n      0x94bf804d\n      eq\n      tag_4\n      jumpi\n      dup1\n      0xf8b2cb4f\n      eq\n      tag_5\n      jumpi\n    tag_2:\n      0x00\n      dup1\n      revert\n        /* \"contracts/bomToken.sol\":258:305  mapping(address => address ) public transaction */\n    tag_3:\n      tag_6\n      0x04\n      dup1\n      calldatasize\n      sub\n      dup2\n      add\n      swap1\n      tag_7\n      swap2\n      swap1\n      tag_8\n      jump\t// in\n    tag_7:\n      tag_9\n      jump\t// in\n    tag_6:\n      mload(0x40)\n      tag_10\n      swap2\n      swap1\n      tag_11\n      jump\t// in\n    tag_10:\n      mload(0x40)\n      dup1\n      swap2\n      sub\n      swap1\n      return\n        /* \"contracts/bomToken.sol\":480:631  function mint(uint256 amount ,address targetAdress) public {\r... */\n    tag_4:\n      tag_12\n      0x04\n      dup1\n      calldatasize\n      sub\n      dup2\n      add\n      swap1\n      tag_13\n      swap2\n      swap1\n      tag_14\n      jump\t// in\n    tag_13:\n      tag_15\n      jump\t// in\n    tag_12:\n      stop\n        /* \"contracts/bomToken.sol\":368:470  function getBalance(address add) public view returns(uint256)\r... */\n    tag_5:\n      tag_16\n      0x04\n      dup1\n      calldatasize\n      sub\n      dup2\n      add\n      swap1\n      tag_17\n      swap2\n      swap1\n      tag_8\n      jump\t// in\n    tag_17:\n      tag_18\n      jump\t// in\n    tag_16:\n      mload(0x40)\n      tag_19\n      swap2\n      swap1\n      tag_20\n      jump\t// in\n    tag_19:\n      mload(0x40)\n      dup1\n      swap2\n      sub\n      swap1\n      return\n        /* \"contracts/bomToken.sol\":258:305  mapping(address => address ) public transaction */\n    tag_9:\n      mstore(0x20, 0x05)\n      dup1\n      0x00\n      mstore\n      keccak256(0x00, 0x40)\n      0x00\n      swap2\n      pop\n      sload\n      swap1\n      0x0100\n      exp\n      swap1\n      div\n      0xffffffffffffffffffffffffffffffffffffffff\n      and\n      dup2\n      jump\t// out\n        /* \"contracts/bomToken.sol\":480:631  function mint(uint256 amount ,address targetAdress) public {\r... */\n    tag_15:\n        /* \"contracts/bomToken.sol\":617:623  amount */\n      dup2\n        /* \"contracts/bomToken.sol\":594:600  ledger */\n      0x06\n        /* \"contracts/bomToken.sol\":594:614  ledger[targetAdress] */\n      0x00\n        /* \"contracts/bomToken.sol\":601:613  targetAdress */\n      dup4\n        /* \"contracts/bomToken.sol\":594:614  ledger[targetAdress] */\n      0xffffffffffffffffffffffffffffffffffffffff\n      and\n      0xffffffffffffffffffffffffffffffffffffffff\n      and\n      dup2\n      mstore\n      0x20\n      add\n      swap1\n      dup2\n      mstore\n      0x20\n      add\n      0x00\n      keccak256\n      sload\n        /* \"contracts/bomToken.sol\":594:623  ledger[targetAdress] + amount */\n      tag_22\n      swap2\n      swap1\n      tag_23\n      jump\t// in\n    tag_22:\n        /* \"contracts/bomToken.sol\":570:576  ledger */\n      0x06\n        /* \"contracts/bomToken.sol\":570:590  ledger[targetAdress] */\n      0x00\n        /* \"contracts/bomToken.sol\":577:589  targetAdress */\n      dup4\n        /* \"contracts/bomToken.sol\":570:590  ledger[targetAdress] */\n      0xffffffffffffffffffffffffffffffffffffffff\n      and\n      0xffffffffffffffffffffffffffffffffffffffff\n      and\n      dup2\n      mstore\n      0x20\n      add\n      swap1\n      dup2\n      mstore\n      0x20\n      add\n      0x00\n      keccak256\n        /* \"contracts/bomToken.sol\":570:623  ledger[targetAdress] =  ledger[targetAdress] + amount */\n      dup2\n      swap1\n      sstore\n      pop\n        /* \"contracts/bomToken.sol\":480:631  function mint(uint256 amount ,address targetAdress) public {\r... */\n      pop\n      pop\n      jump\t// out\n        /* \"contracts/bomToken.sol\":368:470  function getBalance(address add) public view returns(uint256)\r... */\n    tag_18:\n        /* \"contracts/bomToken.sol\":421:428  uint256 */\n      0x00\n        /* \"contracts/bomToken.sol\":453:460  csupply */\n      sload(0x02)\n        /* \"contracts/bomToken.sol\":446:460  return csupply */\n      swap1\n      pop\n        /* \"contracts/bomToken.sol\":368:470  function getBalance(address add) public view returns(uint256)\r... */\n      swap2\n      swap1\n      pop\n      jump\t// out\n        /* \"#utility.yul\":7:146   */\n    tag_26:\n        /* \"#utility.yul\":53:58   */\n      0x00\n        /* \"#utility.yul\":91:97   */\n      dup2\n        /* \"#utility.yul\":78:98   */\n      calldataload\n        /* \"#utility.yul\":69:98   */\n      swap1\n      pop\n        /* \"#utility.yul\":107:140   */\n      tag_28\n        /* \"#utility.yul\":134:139   */\n      dup2\n        /* \"#utility.yul\":107:140   */\n      tag_29\n      jump\t// in\n    tag_28:\n        /* \"#utility.yul\":7:146   */\n      swap3\n      swap2\n      pop\n      pop\n      jump\t// out\n        /* \"#utility.yul\":152:291   */\n    tag_30:\n        /* \"#utility.yul\":198:203   */\n      0x00\n        /* \"#utility.yul\":236:242   */\n      dup2\n        /* \"#utility.yul\":223:243   */\n      calldataload\n        /* \"#utility.yul\":214:243   */\n      swap1\n      pop\n        /* \"#utility.yul\":252:285   */\n      tag_32\n        /* \"#utility.yul\":279:284   */\n      dup2\n        /* \"#utility.yul\":252:285   */\n      tag_33\n      jump\t// in\n    tag_32:\n        /* \"#utility.yul\":152:291   */\n      swap3\n      swap2\n      pop\n      pop\n      jump\t// out\n        /* \"#utility.yul\":297:626   */\n    tag_8:\n        /* \"#utility.yul\":356:362   */\n      0x00\n        /* \"#utility.yul\":405:407   */\n      0x20\n        /* \"#utility.yul\":393:402   */\n      dup3\n        /* \"#utility.yul\":384:391   */\n      dup5\n        /* \"#utility.yul\":380:403   */\n      sub\n        /* \"#utility.yul\":376:408   */\n      slt\n        /* \"#utility.yul\":373:492   */\n      iszero\n      tag_35\n      jumpi\n        /* \"#utility.yul\":411:490   */\n      tag_36\n      tag_37\n      jump\t// in\n    tag_36:\n        /* \"#utility.yul\":373:492   */\n    tag_35:\n        /* \"#utility.yul\":531:532   */\n      0x00\n        /* \"#utility.yul\":556:609   */\n      tag_38\n        /* \"#utility.yul\":601:608   */\n      dup5\n        /* \"#utility.yul\":592:598   */\n      dup3\n        /* \"#utility.yul\":581:590   */\n      dup6\n        /* \"#utility.yul\":577:599   */\n      add\n        /* \"#utility.yul\":556:609   */\n      tag_26\n      jump\t// in\n    tag_38:\n        /* \"#utility.yul\":546:609   */\n      swap2\n      pop\n        /* \"#utility.yul\":502:619   */\n      pop\n        /* \"#utility.yul\":297:626   */\n      swap3\n      swap2\n      pop\n      pop\n      jump\t// out\n        /* \"#utility.yul\":632:1106   */\n    tag_14:\n        /* \"#utility.yul\":700:706   */\n      0x00\n        /* \"#utility.yul\":708:714   */\n      dup1\n        /* \"#utility.yul\":757:759   */\n      0x40\n        /* \"#utility.yul\":745:754   */\n      dup4\n        /* \"#utility.yul\":736:743   */\n      dup6\n        /* \"#utility.yul\":732:755   */\n      sub\n        /* \"#utility.yul\":728:760   */\n      slt\n        /* \"#utility.yul\":725:844   */\n      iszero\n      tag_40\n      jumpi\n        /* \"#utility.yul\":763:842   */\n      tag_41\n      tag_37\n      jump\t// in\n    tag_41:\n        /* \"#utility.yul\":725:844   */\n    tag_40:\n        /* \"#utility.yul\":883:884   */\n      0x00\n        /* \"#utility.yul\":908:961   */\n      tag_42\n        /* \"#utility.yul\":953:960   */\n      dup6\n        /* \"#utility.yul\":944:950   */\n      dup3\n        /* \"#utility.yul\":933:942   */\n      dup7\n        /* \"#utility.yul\":929:951   */\n      add\n        /* \"#utility.yul\":908:961   */\n      tag_30\n      jump\t// in\n    tag_42:\n        /* \"#utility.yul\":898:961   */\n      swap3\n      pop\n        /* \"#utility.yul\":854:971   */\n      pop\n        /* \"#utility.yul\":1010:1012   */\n      0x20\n        /* \"#utility.yul\":1036:1089   */\n      tag_43\n        /* \"#utility.yul\":1081:1088   */\n      dup6\n        /* \"#utility.yul\":1072:1078   */\n      dup3\n        /* \"#utility.yul\":1061:1070   */\n      dup7\n        /* \"#utility.yul\":1057:1079   */\n      add\n        /* \"#utility.yul\":1036:1089   */\n      tag_26\n      jump\t// in\n    tag_43:\n        /* \"#utility.yul\":1026:1089   */\n      swap2\n      pop\n        /* \"#utility.yul\":981:1099   */\n      pop\n        /* \"#utility.yul\":632:1106   */\n      swap3\n      pop\n      swap3\n      swap1\n      pop\n      jump\t// out\n        /* \"#utility.yul\":1112:1230   */\n    tag_44:\n        /* \"#utility.yul\":1199:1223   */\n      tag_46\n        /* \"#utility.yul\":1217:1222   */\n      dup2\n        /* \"#utility.yul\":1199:1223   */\n      tag_47\n      jump\t// in\n    tag_46:\n        /* \"#utility.yul\":1194:1197   */\n      dup3\n        /* \"#utility.yul\":1187:1224   */\n      mstore\n        /* \"#utility.yul\":1112:1230   */\n      pop\n      pop\n      jump\t// out\n        /* \"#utility.yul\":1236:1354   */\n    tag_48:\n        /* \"#utility.yul\":1323:1347   */\n      tag_50\n        /* \"#utility.yul\":1341:1346   */\n      dup2\n        /* \"#utility.yul\":1323:1347   */\n      tag_51\n      jump\t// in\n    tag_50:\n        /* \"#utility.yul\":1318:1321   */\n      dup3\n        /* \"#utility.yul\":1311:1348   */\n      mstore\n        /* \"#utility.yul\":1236:1354   */\n      pop\n      pop\n      jump\t// out\n        /* \"#utility.yul\":1360:1582   */\n    tag_11:\n        /* \"#utility.yul\":1453:1457   */\n      0x00\n        /* \"#utility.yul\":1491:1493   */\n      0x20\n        /* \"#utility.yul\":1480:1489   */\n      dup3\n        /* \"#utility.yul\":1476:1494   */\n      add\n        /* \"#utility.yul\":1468:1494   */\n      swap1\n      pop\n        /* \"#utility.yul\":1504:1575   */\n      tag_53\n        /* \"#utility.yul\":1572:1573   */\n      0x00\n        /* \"#utility.yul\":1561:1570   */\n      dup4\n        /* \"#utility.yul\":1557:1574   */\n      add\n        /* \"#utility.yul\":1548:1554   */\n      dup5\n        /* \"#utility.yul\":1504:1575   */\n      tag_44\n      jump\t// in\n    tag_53:\n        /* \"#utility.yul\":1360:1582   */\n      swap3\n      swap2\n      pop\n      pop\n      jump\t// out\n        /* \"#utility.yul\":1588:1810   */\n    tag_20:\n        /* \"#utility.yul\":1681:1685   */\n      0x00\n        /* \"#utility.yul\":1719:1721   */\n      0x20\n        /* \"#utility.yul\":1708:1717   */\n      dup3\n        /* \"#utility.yul\":1704:1722   */\n      add\n        /* \"#utility.yul\":1696:1722   */\n      swap1\n      pop\n        /* \"#utility.yul\":1732:1803   */\n      tag_55\n        /* \"#utility.yul\":1800:1801   */\n      0x00\n        /* \"#utility.yul\":1789:1798   */\n      dup4\n        /* \"#utility.yul\":1785:1802   */\n      add\n        /* \"#utility.yul\":1776:1782   */\n      dup5\n        /* \"#utility.yul\":1732:1803   */\n      tag_48\n      jump\t// in\n    tag_55:\n        /* \"#utility.yul\":1588:1810   */\n      swap3\n      swap2\n      pop\n      pop\n      jump\t// out\n        /* \"#utility.yul\":1897:2202   */\n    tag_23:\n        /* \"#utility.yul\":1937:1940   */\n      0x00\n        /* \"#utility.yul\":1956:1976   */\n      tag_59\n        /* \"#utility.yul\":1974:1975   */\n      dup3\n        /* \"#utility.yul\":1956:1976   */\n      tag_51\n      jump\t// in\n    tag_59:\n        /* \"#utility.yul\":1951:1976   */\n      swap2\n      pop\n        /* \"#utility.yul\":1990:2010   */\n      tag_60\n        /* \"#utility.yul\":2008:2009   */\n      dup4\n        /* \"#utility.yul\":1990:2010   */\n      tag_51\n      jump\t// in\n    tag_60:\n        /* \"#utility.yul\":1985:2010   */\n      swap3\n      pop\n        /* \"#utility.yul\":2144:2145   */\n      dup3\n        /* \"#utility.yul\":2076:2142   */\n      0xffffffffffffffffffffffffffffffffffffffffffffffffffffffffffffffff\n        /* \"#utility.yul\":2072:2146   */\n      sub\n        /* \"#utility.yul\":2069:2070   */\n      dup3\n        /* \"#utility.yul\":2066:2147   */\n      gt\n        /* \"#utility.yul\":2063:2170   */\n      iszero\n      tag_61\n      jumpi\n        /* \"#utility.yul\":2150:2168   */\n      tag_62\n      tag_63\n      jump\t// in\n    tag_62:\n        /* \"#utility.yul\":2063:2170   */\n    tag_61:\n        /* \"#utility.yul\":2194:2195   */\n      dup3\n        /* \"#utility.yul\":2191:2192   */\n      dup3\n        /* \"#utility.yul\":2187:2196   */\n      add\n        /* \"#utility.yul\":2180:2196   */\n      swap1\n      pop\n        /* \"#utility.yul\":1897:2202   */\n      swap3\n      swap2\n      pop\n      pop\n      jump\t// out\n        /* \"#utility.yul\":2208:2304   */\n    tag_47:\n        /* \"#utility.yul\":2245:2252   */\n      0x00\n        /* \"#utility.yul\":2274:2298   */\n      tag_65\n        /* \"#utility.yul\":2292:2297   */\n      dup3\n        /* \"#utility.yul\":2274:2298   */\n      tag_66\n      jump\t// in\n    tag_65:\n        /* \"#utility.yul\":2263:2298   */\n      swap1\n      pop\n        /* \"#utility.yul\":2208:2304   */\n      swap2\n      swap1\n      pop\n      jump\t// out\n        /* \"#utility.yul\":2310:2436   */\n    tag_66:\n        /* \"#utility.yul\":2347:2354   */\n      0x00\n        /* \"#utility.yul\":2387:2429   */\n      0xffffffffffffffffffffffffffffffffffffffff\n        /* \"#utility.yul\":2380:2385   */\n      dup3\n        /* \"#utility.yul\":2376:2430   */\n      and\n        /* \"#utility.yul\":2365:2430   */\n      swap1\n      pop\n        /* \"#utility.yul\":2310:2436   */\n      swap2\n      swap1\n      pop\n      jump\t// out\n        /* \"#utility.yul\":2442:2519   */\n    tag_51:\n        /* \"#utility.yul\":2479:2486   */\n      0x00\n        /* \"#utility.yul\":2508:2513   */\n      dup2\n        /* \"#utility.yul\":2497:2513   */\n      swap1\n      pop\n        /* \"#utility.yul\":2442:2519   */\n      swap2\n      swap1\n      pop\n      jump\t// out\n        /* \"#utility.yul\":2525:2705   */\n    tag_63:\n        /* \"#utility.yul\":2573:2650   */\n      0x4e487b7100000000000000000000000000000000000000000000000000000000\n        /* \"#utility.yul\":2570:2571   */\n      0x00\n        /* \"#utility.yul\":2563:2651   */\n      mstore\n        /* \"#utility.yul\":2670:2674   */\n      0x11\n        /* \"#utility.yul\":2667:2668   */\n      0x04\n        /* \"#utility.yul\":2660:2675   */\n      mstore\n        /* \"#utility.yul\":2694:2698   */\n      0x24\n        /* \"#utility.yul\":2691:2692   */\n      0x00\n        /* \"#utility.yul\":2684:2699   */\n      revert\n        /* \"#utility.yul\":2834:2951   */\n    tag_37:\n        /* \"#utility.yul\":2943:2944   */\n      0x00\n        /* \"#utility.yul\":2940:2941   */\n      dup1\n        /* \"#utility.yul\":2933:2945   */\n      revert\n        /* \"#utility.yul\":2957:3079   */\n    tag_29:\n        /* \"#utility.yul\":3030:3054   */\n      tag_74\n        /* \"#utility.yul\":3048:3053   */\n      dup2\n        /* \"#utility.yul\":3030:3054   */\n      tag_47\n      jump\t// in\n    tag_74:\n        /* \"#utility.yul\":3023:3028   */\n      dup2\n        /* \"#utility.yul\":3020:3055   */\n      eq\n        /* \"#utility.yul\":3010:3073   */\n      tag_75\n      jumpi\n        /* \"#utility.yul\":3069:3070   */\n      0x00\n        /* \"#utility.yul\":3066:3067   */\n      dup1\n        /* \"#utility.yul\":3059:3071   */\n      revert\n        /* \"#utility.yul\":3010:3073   */\n    tag_75:\n        /* \"#utility.yul\":2957:3079   */\n      pop\n      jump\t// out\n        /* \"#utility.yul\":3085:3207   */\n    tag_33:\n        /* \"#utility.yul\":3158:3182   */\n      tag_77\n        /* \"#utility.yul\":3176:3181   */\n      dup2\n        /* \"#utility.yul\":3158:3182   */\n      tag_51\n      jump\t// in\n    tag_77:\n        /* \"#utility.yul\":3151:3156   */\n      dup2\n        /* \"#utility.yul\":3148:3183   */\n      eq\n        /* \"#utility.yul\":3138:3201   */\n      tag_78\n      jumpi\n        /* \"#utility.yul\":3197:3198   */\n      0x00\n        /* \"#utility.yul\":3194:3195   */\n      dup1\n        /* \"#utility.yul\":3187:3199   */\n      revert\n        /* \"#utility.yul\":3138:3201   */\n    tag_78:\n        /* \"#utility.yul\":3085:3207   */\n      pop\n      jump\t// out\n\n    auxdata: 0xa2646970667358221220b38c930287dd5b2f71b95d232fcbade790e49c4f59b02d9fb743ed0d554e741364736f6c63430008070033\n}\n",
				"bytecode": {
					"linkReferences": {},
					"object": "60806040526040518060400160405280600981526020017f426f6d62546f6b656e00000000000000000000000000000000000000000000008152506000908051906020019061004f9291906100c2565b506040518060400160405280600281526020017f42540000000000000000000000000000000000000000000000000000000000008152506001908051906020019061009b9291906100c2565b50628954406002556305f5e100600355600a6004553480156100bc57600080fd5b506101c6565b8280546100ce90610165565b90600052602060002090601f0160209004810192826100f05760008555610137565b82601f1061010957805160ff1916838001178555610137565b82800160010185558215610137579182015b8281111561013657825182559160200191906001019061011b565b5b5090506101449190610148565b5090565b5b80821115610161576000816000905550600101610149565b5090565b6000600282049050600182168061017d57607f821691505b6020821081141561019157610190610197565b5b50919050565b7f4e487b7100000000000000000000000000000000000000000000000000000000600052602260045260246000fd5b6103a8806101d56000396000f3fe608060405234801561001057600080fd5b50600436106100415760003560e01c8063566690ec1461004657806394bf804d14610076578063f8b2cb4f14610092575b600080fd5b610060600480360381019061005b91906101bd565b6100c2565b60405161006d9190610248565b60405180910390f35b610090600480360381019061008b91906101ea565b6100f5565b005b6100ac60048036038101906100a791906101bd565b610187565b6040516100b99190610263565b60405180910390f35b60056020528060005260406000206000915054906101000a900473ffffffffffffffffffffffffffffffffffffffff1681565b81600660008373ffffffffffffffffffffffffffffffffffffffff1673ffffffffffffffffffffffffffffffffffffffff16815260200190815260200160002054610140919061027e565b600660008373ffffffffffffffffffffffffffffffffffffffff1673ffffffffffffffffffffffffffffffffffffffff168152602001908152602001600020819055505050565b60006002549050919050565b6000813590506101a281610344565b92915050565b6000813590506101b78161035b565b92915050565b6000602082840312156101d3576101d261033f565b5b60006101e184828501610193565b91505092915050565b600080604083850312156102015761020061033f565b5b600061020f858286016101a8565b925050602061022085828601610193565b9150509250929050565b610233816102d4565b82525050565b61024281610306565b82525050565b600060208201905061025d600083018461022a565b92915050565b60006020820190506102786000830184610239565b92915050565b600061028982610306565b915061029483610306565b9250827fffffffffffffffffffffffffffffffffffffffffffffffffffffffffffffffff038211156102c9576102c8610310565b5b828201905092915050565b60006102df826102e6565b9050919050565b600073ffffffffffffffffffffffffffffffffffffffff82169050919050565b6000819050919050565b7f4e487b7100000000000000000000000000000000000000000000000000000000600052601160045260246000fd5b600080fd5b61034d816102d4565b811461035857600080fd5b50565b61036481610306565b811461036f57600080fd5b5056fea2646970667358221220b38c930287dd5b2f71b95d232fcbade790e49c4f59b02d9fb743ed0d554e741364736f6c63430008070033",
					"opcodes": "PUSH1 0x80 PUSH1 0x40 MSTORE PUSH1 0x40 MLOAD DUP1 PUSH1 0x40 ADD PUSH1 0x40 MSTORE DUP1 PUSH1 0x9 DUP2 MSTORE PUSH1 0x20 ADD PUSH32 0x426F6D62546F6B656E0000000000000000000000000000000000000000000000 DUP2 MSTORE POP PUSH1 0x0 SWAP1 DUP1 MLOAD SWAP1 PUSH1 0x20 ADD SWAP1 PUSH2 0x4F SWAP3 SWAP2 SWAP1 PUSH2 0xC2 JUMP JUMPDEST POP PUSH1 0x40 MLOAD DUP1 PUSH1 0x40 ADD PUSH1 0x40 MSTORE DUP1 PUSH1 0x2 DUP2 MSTORE PUSH1 0x20 ADD PUSH32 0x4254000000000000000000000000000000000000000000000000000000000000 DUP2 MSTORE POP PUSH1 0x1 SWAP1 DUP1 MLOAD SWAP1 PUSH1 0x20 ADD SWAP1 PUSH2 0x9B SWAP3 SWAP2 SWAP1 PUSH2 0xC2 JUMP JUMPDEST POP PUSH3 0x895440 PUSH1 0x2 SSTORE PUSH4 0x5F5E100 PUSH1 0x3 SSTORE PUSH1 0xA PUSH1 0x4 SSTORE CALLVALUE DUP1 ISZERO PUSH2 0xBC JUMPI PUSH1 0x0 DUP1 REVERT JUMPDEST POP PUSH2 0x1C6 JUMP JUMPDEST DUP3 DUP1 SLOAD PUSH2 0xCE SWAP1 PUSH2 0x165 JUMP JUMPDEST SWAP1 PUSH1 0x0 MSTORE PUSH1 0x20 PUSH1 0x0 KECCAK256 SWAP1 PUSH1 0x1F ADD PUSH1 0x20 SWAP1 DIV DUP2 ADD SWAP3 DUP3 PUSH2 0xF0 JUMPI PUSH1 0x0 DUP6 SSTORE PUSH2 0x137 JUMP JUMPDEST DUP3 PUSH1 0x1F LT PUSH2 0x109 JUMPI DUP1 MLOAD PUSH1 0xFF NOT AND DUP4 DUP1 ADD OR DUP6 SSTORE PUSH2 0x137 JUMP JUMPDEST DUP3 DUP1 ADD PUSH1 0x1 ADD DUP6 SSTORE DUP3 ISZERO PUSH2 0x137 JUMPI SWAP2 DUP3 ADD JUMPDEST DUP3 DUP2 GT ISZERO PUSH2 0x136 JUMPI DUP3 MLOAD DUP3 SSTORE SWAP2 PUSH1 0x20 ADD SWAP2 SWAP1 PUSH1 0x1 ADD SWAP1 PUSH2 0x11B JUMP JUMPDEST JUMPDEST POP SWAP1 POP PUSH2 0x144 SWAP2 SWAP1 PUSH2 0x148 JUMP JUMPDEST POP SWAP1 JUMP JUMPDEST JUMPDEST DUP1 DUP3 GT ISZERO PUSH2 0x161 JUMPI PUSH1 0x0 DUP2 PUSH1 0x0 SWAP1 SSTORE POP PUSH1 0x1 ADD PUSH2 0x149 JUMP JUMPDEST POP SWAP1 JUMP JUMPDEST PUSH1 0x0 PUSH1 0x2 DUP3 DIV SWAP1 POP PUSH1 0x1 DUP3 AND DUP1 PUSH2 0x17D JUMPI PUSH1 0x7F DUP3 AND SWAP2 POP JUMPDEST PUSH1 0x20 DUP3 LT DUP2 EQ ISZERO PUSH2 0x191 JUMPI PUSH2 0x190 PUSH2 0x197 JUMP JUMPDEST JUMPDEST POP SWAP2 SWAP1 POP JUMP JUMPDEST PUSH32 0x4E487B7100000000000000000000000000000000000000000000000000000000 PUSH1 0x0 MSTORE PUSH1 0x22 PUSH1 0x4 MSTORE PUSH1 0x24 PUSH1 0x0 REVERT JUMPDEST PUSH2 0x3A8 DUP1 PUSH2 0x1D5 PUSH1 0x0 CODECOPY PUSH1 0x0 RETURN INVALID PUSH1 0x80 PUSH1 0x40 MSTORE CALLVALUE DUP1 ISZERO PUSH2 0x10 JUMPI PUSH1 0x0 DUP1 REVERT JUMPDEST POP PUSH1 0x4 CALLDATASIZE LT PUSH2 0x41 JUMPI PUSH1 0x0 CALLDATALOAD PUSH1 0xE0 SHR DUP1 PUSH4 0x566690EC EQ PUSH2 0x46 JUMPI DUP1 PUSH4 0x94BF804D EQ PUSH2 0x76 JUMPI DUP1 PUSH4 0xF8B2CB4F EQ PUSH2 0x92 JUMPI JUMPDEST PUSH1 0x0 DUP1 REVERT JUMPDEST PUSH2 0x60 PUSH1 0x4 DUP1 CALLDATASIZE SUB DUP2 ADD SWAP1 PUSH2 0x5B SWAP2 SWAP1 PUSH2 0x1BD JUMP JUMPDEST PUSH2 0xC2 JUMP JUMPDEST PUSH1 0x40 MLOAD PUSH2 0x6D SWAP2 SWAP1 PUSH2 0x248 JUMP JUMPDEST PUSH1 0x40 MLOAD DUP1 SWAP2 SUB SWAP1 RETURN JUMPDEST PUSH2 0x90 PUSH1 0x4 DUP1 CALLDATASIZE SUB DUP2 ADD SWAP1 PUSH2 0x8B SWAP2 SWAP1 PUSH2 0x1EA JUMP JUMPDEST PUSH2 0xF5 JUMP JUMPDEST STOP JUMPDEST PUSH2 0xAC PUSH1 0x4 DUP1 CALLDATASIZE SUB DUP2 ADD SWAP1 PUSH2 0xA7 SWAP2 SWAP1 PUSH2 0x1BD JUMP JUMPDEST PUSH2 0x187 JUMP JUMPDEST PUSH1 0x40 MLOAD PUSH2 0xB9 SWAP2 SWAP1 PUSH2 0x263 JUMP JUMPDEST PUSH1 0x40 MLOAD DUP1 SWAP2 SUB SWAP1 RETURN JUMPDEST PUSH1 0x5 PUSH1 0x20 MSTORE DUP1 PUSH1 0x0 MSTORE PUSH1 0x40 PUSH1 0x0 KECCAK256 PUSH1 0x0 SWAP2 POP SLOAD SWAP1 PUSH2 0x100 EXP SWAP1 DIV PUSH20 0xFFFFFFFFFFFFFFFFFFFFFFFFFFFFFFFFFFFFFFFF AND DUP2 JUMP JUMPDEST DUP2 PUSH1 0x6 PUSH1 0x0 DUP4 PUSH20 0xFFFFFFFFFFFFFFFFFFFFFFFFFFFFFFFFFFFFFFFF AND PUSH20 0xFFFFFFFFFFFFFFFFFFFFFFFFFFFFFFFFFFFFFFFF AND DUP2 MSTORE PUSH1 0x20 ADD SWAP1 DUP2 MSTORE PUSH1 0x20 ADD PUSH1 0x0 KECCAK256 SLOAD PUSH2 0x140 SWAP2 SWAP1 PUSH2 0x27E JUMP JUMPDEST PUSH1 0x6 PUSH1 0x0 DUP4 PUSH20 0xFFFFFFFFFFFFFFFFFFFFFFFFFFFFFFFFFFFFFFFF AND PUSH20 0xFFFFFFFFFFFFFFFFFFFFFFFFFFFFFFFFFFFFFFFF AND DUP2 MSTORE PUSH1 0x20 ADD SWAP1 DUP2 MSTORE PUSH1 0x20 ADD PUSH1 0x0 KECCAK256 DUP2 SWAP1 SSTORE POP POP POP JUMP JUMPDEST PUSH1 0x0 PUSH1 0x2 SLOAD SWAP1 POP SWAP2 SWAP1 POP JUMP JUMPDEST PUSH1 0x0 DUP2 CALLDATALOAD SWAP1 POP PUSH2 0x1A2 DUP2 PUSH2 0x344 JUMP JUMPDEST SWAP3 SWAP2 POP POP JUMP JUMPDEST PUSH1 0x0 DUP2 CALLDATALOAD SWAP1 POP PUSH2 0x1B7 DUP2 PUSH2 0x35B JUMP JUMPDEST SWAP3 SWAP2 POP POP JUMP JUMPDEST PUSH1 0x0 PUSH1 0x20 DUP3 DUP5 SUB SLT ISZERO PUSH2 0x1D3 JUMPI PUSH2 0x1D2 PUSH2 0x33F JUMP JUMPDEST JUMPDEST PUSH1 0x0 PUSH2 0x1E1 DUP5 DUP3 DUP6 ADD PUSH2 0x193 JUMP JUMPDEST SWAP2 POP POP SWAP3 SWAP2 POP POP JUMP JUMPDEST PUSH1 0x0 DUP1 PUSH1 0x40 DUP4 DUP6 SUB SLT ISZERO PUSH2 0x201 JUMPI PUSH2 0x200 PUSH2 0x33F JUMP JUMPDEST JUMPDEST PUSH1 0x0 PUSH2 0x20F DUP6 DUP3 DUP7 ADD PUSH2 0x1A8 JUMP JUMPDEST SWAP3 POP POP PUSH1 0x20 PUSH2 0x220 DUP6 DUP3 DUP7 ADD PUSH2 0x193 JUMP JUMPDEST SWAP2 POP POP SWAP3 POP SWAP3 SWAP1 POP JUMP JUMPDEST PUSH2 0x233 DUP2 PUSH2 0x2D4 JUMP JUMPDEST DUP3 MSTORE POP POP JUMP JUMPDEST PUSH2 0x242 DUP2 PUSH2 0x306 JUMP JUMPDEST DUP3 MSTORE POP POP JUMP JUMPDEST PUSH1 0x0 PUSH1 0x20 DUP3 ADD SWAP1 POP PUSH2 0x25D PUSH1 0x0 DUP4 ADD DUP5 PUSH2 0x22A JUMP JUMPDEST SWAP3 SWAP2 POP POP JUMP JUMPDEST PUSH1 0x0 PUSH1 0x20 DUP3 ADD SWAP1 POP PUSH2 0x278 PUSH1 0x0 DUP4 ADD DUP5 PUSH2 0x239 JUMP JUMPDEST SWAP3 SWAP2 POP POP JUMP JUMPDEST PUSH1 0x0 PUSH2 0x289 DUP3 PUSH2 0x306 JUMP JUMPDEST SWAP2 POP PUSH2 0x294 DUP4 PUSH2 0x306 JUMP JUMPDEST SWAP3 POP DUP3 PUSH32 0xFFFFFFFFFFFFFFFFFFFFFFFFFFFFFFFFFFFFFFFFFFFFFFFFFFFFFFFFFFFFFFFF SUB DUP3 GT ISZERO PUSH2 0x2C9 JUMPI PUSH2 0x2C8 PUSH2 0x310 JUMP JUMPDEST JUMPDEST DUP3 DUP3 ADD SWAP1 POP SWAP3 SWAP2 POP POP JUMP JUMPDEST PUSH1 0x0 PUSH2 0x2DF DUP3 PUSH2 0x2E6 JUMP JUMPDEST SWAP1 POP SWAP2 SWAP1 POP JUMP JUMPDEST PUSH1 0x0 PUSH20 0xFFFFFFFFFFFFFFFFFFFFFFFFFFFFFFFFFFFFFFFF DUP3 AND SWAP1 POP SWAP2 SWAP1 POP JUMP JUMPDEST PUSH1 0x0 DUP2 SWAP1 POP SWAP2 SWAP1 POP JUMP JUMPDEST PUSH32 0x4E487B7100000000000000000000000000000000000000000000000000000000 PUSH1 0x0 MSTORE PUSH1 0x11 PUSH1 0x4 MSTORE PUSH1 0x24 PUSH1 0x0 REVERT JUMPDEST PUSH1 0x0 DUP1 REVERT JUMPDEST PUSH2 0x34D DUP2 PUSH2 0x2D4 JUMP JUMPDEST DUP2 EQ PUSH2 0x358 JUMPI PUSH1 0x0 DUP1 REVERT JUMPDEST POP JUMP JUMPDEST PUSH2 0x364 DUP2 PUSH2 0x306 JUMP JUMPDEST DUP2 EQ PUSH2 0x36F JUMPI PUSH1 0x0 DUP1 REVERT JUMPDEST POP JUMP INVALID LOG2 PUSH5 0x6970667358 0x22 SLT KECCAK256 0xB3 DUP13 SWAP4 MUL DUP8 0xDD JUMPDEST 0x2F PUSH18 0xB95D232FCBADE790E49C4F59B02D9FB743ED 0xD SSTORE 0x4E PUSH21 0x1364736F6C63430008070033000000000000000000 "
				},
				"gasEstimates": {
					"creation": {
						"codeDepositCost": "187200",
						"executionCost": "infinite",
						"totalCost": "infinite"
					},
					"external": {
						"getBalance(address)": "2773",
						"mint(uint256,address)": "infinite",
						"transaction(address)": "infinite"
					}
				},
				"methodIdentifiers": {
					"getBalance(address)": "f8b2cb4f",
					"mint(uint256,address)": "94bf804d",
					"transaction(address)": "566690ec"
				}
			},
			"storageLayout": {
				"storage": [
					{
						"astId": 4,
						"contract": "contracts/bomToken.sol:BomToken",
						"label": "name",
						"offset": 0,
						"slot": "0",
						"type": "t_string_storage"
					},
					{
						"astId": 7,
						"contract": "contracts/bomToken.sol:BomToken",
						"label": "symbole",
						"offset": 0,
						"slot": "1",
						"type": "t_string_storage"
					},
					{
						"astId": 10,
						"contract": "contracts/bomToken.sol:BomToken",
						"label": "csupply",
						"offset": 0,
						"slot": "2",
						"type": "t_uint256"
					},
					{
						"astId": 13,
						"contract": "contracts/bomToken.sol:BomToken",
						"label": "maxSupply",
						"offset": 0,
						"slot": "3",
						"type": "t_uint256"
					},
					{
						"astId": 16,
						"contract": "contracts/bomToken.sol:BomToken",
						"label": "decimal",
						"offset": 0,
						"slot": "4",
						"type": "t_uint256"
					},
					{
						"astId": 20,
						"contract": "contracts/bomToken.sol:BomToken",
						"label": "transaction",
						"offset": 0,
						"slot": "5",
						"type": "t_mapping(t_address,t_address)"
					},
					{
						"astId": 24,
						"contract": "contracts/bomToken.sol:BomToken",
						"label": "ledger",
						"offset": 0,
						"slot": "6",
						"type": "t_mapping(t_address,t_uint256)"
					}
				],
				"types": {
					"t_address": {
						"encoding": "inplace",
						"label": "address",
						"numberOfBytes": "20"
					},
					"t_mapping(t_address,t_address)": {
						"encoding": "mapping",
						"key": "t_address",
						"label": "mapping(address => address)",
						"numberOfBytes": "32",
						"value": "t_address"
					},
					"t_mapping(t_address,t_uint256)": {
						"encoding": "mapping",
						"key": "t_address",
						"label": "mapping(address => uint256)",
						"numberOfBytes": "32",
						"value": "t_uint256"
					},
					"t_string_storage": {
						"encoding": "bytes",
						"label": "string",
						"numberOfBytes": "32"
					},
					"t_uint256": {
						"encoding": "inplace",
						"label": "uint256",
						"numberOfBytes": "32"
					}
				}
			},
			"userdoc": {
				"kind": "user",
				"methods": {},
				"version": 1
			}
		}
	}
}