{
	"contracts/basic_solidity.sol": {
		"BasicSolidity": {
			"abi": [
				{
					"inputs": [
						{
							"internalType": "uint256",
							"name": "_balan",
							"type": "uint256"
						}
					],
					"stateMutability": "nonpayable",
					"type": "constructor"
				},
				{
					"inputs": [],
					"name": "age",
					"outputs": [
						{
							"internalType": "uint256",
							"name": "",
							"type": "uint256"
						}
					],
					"stateMutability": "view",
					"type": "function"
				},
				{
					"inputs": [],
					"name": "balance",
					"outputs": [
						{
							"internalType": "uint256",
							"name": "",
							"type": "uint256"
						}
					],
					"stateMutability": "view",
					"type": "function"
				},
				{
					"inputs": [
						{
							"internalType": "uint256",
							"name": "",
							"type": "uint256"
						}
					],
					"name": "carreer",
					"outputs": [
						{
							"internalType": "string",
							"name": "",
							"type": "string"
						}
					],
					"stateMutability": "view",
					"type": "function"
				},
				{
					"inputs": [
						{
							"internalType": "uint256",
							"name": "",
							"type": "uint256"
						}
					],
					"name": "girl",
					"outputs": [
						{
							"internalType": "string",
							"name": "",
							"type": "string"
						}
					],
					"stateMutability": "view",
					"type": "function"
				},
				{
					"inputs": [],
					"name": "isMale",
					"outputs": [
						{
							"internalType": "bool",
							"name": "",
							"type": "bool"
						}
					],
					"stateMutability": "view",
					"type": "function"
				},
				{
					"inputs": [
						{
							"internalType": "string",
							"name": "",
							"type": "string"
						}
					],
					"name": "mileOfCar",
					"outputs": [
						{
							"internalType": "uint256",
							"name": "",
							"type": "uint256"
						}
					],
					"stateMutability": "view",
					"type": "function"
				},
				{
					"inputs": [],
					"name": "name",
					"outputs": [
						{
							"internalType": "string",
							"name": "",
							"type": "string"
						}
					],
					"stateMutability": "view",
					"type": "function"
				},
				{
					"inputs": [],
					"name": "wallet",
					"outputs": [
						{
							"internalType": "address",
							"name": "",
							"type": "address"
						}
					],
					"stateMutability": "view",
					"type": "function"
				}
			],
			"devdoc": {
				"kind": "dev",
				"methods": {},
				"version": 1
			},
			"evm": {
				"assembly": "    /* \"contracts/basic_solidity.sol\":60:487  contract BasicSolidity {\r... */\n  mstore(0x40, 0x80)\n    /* \"contracts/basic_solidity.sol\":114:149  string public name  = \"Tony Strark\" */\n  mload(0x40)\n  dup1\n  0x40\n  add\n  0x40\n  mstore\n  dup1\n  0x0b\n  dup2\n  mstore\n  0x20\n  add\n  0x546f6e792053747261726b000000000000000000000000000000000000000000\n  dup2\n  mstore\n  pop\n  0x00\n  swap1\n  dup1\n  mload\n  swap1\n  0x20\n  add\n  swap1\n  tag_1\n  swap3\n  swap2\n  swap1\n  tag_2\n  jump\t// in\ntag_1:\n  pop\n    /* \"contracts/basic_solidity.sol\":182:184  48 */\n  0x30\n    /* \"contracts/basic_solidity.sol\":158:184  uint256 public age   =  48 */\n  0x01\n  sstore\n    /* \"contracts/basic_solidity.sol\":217:221  true */\n  0x01\n    /* \"contracts/basic_solidity.sol\":191:221  bool   public  isMale  =  true */\n  0x02\n  exp(0x0100, 0x00)\n  dup2\n  sload\n  dup2\n  0xff\n  mul\n  not\n  and\n  swap1\n  dup4\n  iszero\n  iszero\n  mul\n  or\n  swap1\n  sstore\n  pop\n    /* \"contracts/basic_solidity.sol\":259:316  string[]  public carreer  = [\"playboy\",\"engineer\",\"hero\"] */\n  mload(0x40)\n  dup1\n  0x60\n  add\n  0x40\n  mstore\n  dup1\n  mload(0x40)\n  dup1\n  0x40\n  add\n  0x40\n  mstore\n  dup1\n  0x07\n  dup2\n  mstore\n  0x20\n  add\n  0x706c6179626f7900000000000000000000000000000000000000000000000000\n  dup2\n  mstore\n  pop\n  dup2\n  mstore\n  0x20\n  add\n  mload(0x40)\n  dup1\n  0x40\n  add\n  0x40\n  mstore\n  dup1\n  0x08\n  dup2\n  mstore\n  0x20\n  add\n  0x656e67696e656572000000000000000000000000000000000000000000000000\n  dup2\n  mstore\n  pop\n  dup2\n  mstore\n  0x20\n  add\n  mload(0x40)\n  dup1\n  0x40\n  add\n  0x40\n  mstore\n  dup1\n  0x04\n  dup2\n  mstore\n  0x20\n  add\n  0x6865726f00000000000000000000000000000000000000000000000000000000\n  dup2\n  mstore\n  pop\n  dup2\n  mstore\n  pop\n  0x04\n  swap1\n  0x03\n  tag_3\n  swap3\n  swap2\n  swap1\n  tag_4\n  jump\t// in\ntag_3:\n  pop\n    /* \"contracts/basic_solidity.sol\":439:484  constructor(uint256 _balan){\r... */\n  callvalue\n  dup1\n  iszero\n  tag_5\n  jumpi\n  0x00\n  dup1\n  revert\ntag_5:\n  pop\n  mload(0x40)\n  sub(codesize, bytecodeSize)\n  dup1\n  bytecodeSize\n  dup4\n  codecopy\n  dup2\n  dup2\n  add\n  0x40\n  mstore\n  dup2\n  add\n  swap1\n  tag_6\n  swap2\n  swap1\n  tag_7\n  jump\t// in\ntag_6:\n  pop\n    /* \"contracts/basic_solidity.sol\":60:487  contract BasicSolidity {\r... */\n  jump(tag_10)\ntag_2:\n  dup3\n  dup1\n  sload\n  tag_11\n  swap1\n  tag_12\n  jump\t// in\ntag_11:\n  swap1\n  0x00\n  mstore\n  keccak256(0x00, 0x20)\n  swap1\n  0x1f\n  add\n  0x20\n  swap1\n  div\n  dup2\n  add\n  swap3\n  dup3\n  tag_14\n  jumpi\n  0x00\n  dup6\n  sstore\n  jump(tag_13)\ntag_14:\n  dup3\n  0x1f\n  lt\n  tag_15\n  jumpi\n  dup1\n  mload\n  not(0xff)\n  and\n  dup4\n  dup1\n  add\n  or\n  dup6\n  sstore\n  jump(tag_13)\ntag_15:\n  dup3\n  dup1\n  add\n  0x01\n  add\n  dup6\n  sstore\n  dup3\n  iszero\n  tag_13\n  jumpi\n  swap2\n  dup3\n  add\ntag_16:\n  dup3\n  dup2\n  gt\n  iszero\n  tag_17\n  jumpi\n  dup3\n  mload\n  dup3\n  sstore\n  swap2\n  0x20\n  add\n  swap2\n  swap1\n  0x01\n  add\n  swap1\n  jump(tag_16)\ntag_17:\ntag_13:\n  pop\n  swap1\n  pop\n  tag_18\n  swap2\n  swap1\n  tag_19\n  jump\t// in\ntag_18:\n  pop\n  swap1\n  jump\t// out\ntag_4:\n  dup3\n  dup1\n  sload\n  dup3\n  dup3\n  sstore\n  swap1\n  0x00\n  mstore\n  keccak256(0x00, 0x20)\n  swap1\n  dup2\n  add\n  swap3\n  dup3\n  iszero\n  tag_20\n  jumpi\n  swap2\n  0x20\n  mul\n  dup3\n  add\ntag_21:\n  dup3\n  dup2\n  gt\n  iszero\n  tag_22\n  jumpi\n  dup3\n  mload\n  dup3\n  swap1\n  dup1\n  mload\n  swap1\n  0x20\n  add\n  swap1\n  tag_23\n  swap3\n  swap2\n  swap1\n  tag_2\n  jump\t// in\ntag_23:\n  pop\n  swap2\n  0x20\n  add\n  swap2\n  swap1\n  0x01\n  add\n  swap1\n  jump(tag_21)\ntag_22:\ntag_20:\n  pop\n  swap1\n  pop\n  tag_24\n  swap2\n  swap1\n  tag_25\n  jump\t// in\ntag_24:\n  pop\n  swap1\n  jump\t// out\ntag_19:\ntag_26:\n  dup1\n  dup3\n  gt\n  iszero\n  tag_27\n  jumpi\n  0x00\n  dup2\n  0x00\n  swap1\n  sstore\n  pop\n  0x01\n  add\n  jump(tag_26)\ntag_27:\n  pop\n  swap1\n  jump\t// out\ntag_25:\ntag_28:\n  dup1\n  dup3\n  gt\n  iszero\n  tag_29\n  jumpi\n  0x00\n  dup2\n  dup2\n  tag_30\n  swap2\n  swap1\n  tag_31\n  jump\t// in\ntag_30:\n  pop\n  0x01\n  add\n  jump(tag_28)\ntag_29:\n  pop\n  swap1\n  jump\t// out\ntag_31:\n  pop\n  dup1\n  sload\n  tag_32\n  swap1\n  tag_12\n  jump\t// in\ntag_32:\n  0x00\n  dup3\n  sstore\n  dup1\n  0x1f\n  lt\n  tag_34\n  jumpi\n  pop\n  jump(tag_33)\ntag_34:\n  0x1f\n  add\n  0x20\n  swap1\n  div\n  swap1\n  0x00\n  mstore\n  keccak256(0x00, 0x20)\n  swap1\n  dup2\n  add\n  swap1\n  tag_35\n  swap2\n  swap1\n  tag_19\n  jump\t// in\ntag_35:\ntag_33:\n  pop\n  jump\t// out\n    /* \"#utility.yul\":7:150   */\ntag_37:\n    /* \"#utility.yul\":64:69   */\n  0x00\n    /* \"#utility.yul\":95:101   */\n  dup2\n    /* \"#utility.yul\":89:102   */\n  mload\n    /* \"#utility.yul\":80:102   */\n  swap1\n  pop\n    /* \"#utility.yul\":111:144   */\n  tag_39\n    /* \"#utility.yul\":138:143   */\n  dup2\n    /* \"#utility.yul\":111:144   */\n  tag_40\n  jump\t// in\ntag_39:\n    /* \"#utility.yul\":7:150   */\n  swap3\n  swap2\n  pop\n  pop\n  jump\t// out\n    /* \"#utility.yul\":156:507   */\ntag_7:\n    /* \"#utility.yul\":226:232   */\n  0x00\n    /* \"#utility.yul\":275:277   */\n  0x20\n    /* \"#utility.yul\":263:272   */\n  dup3\n    /* \"#utility.yul\":254:261   */\n  dup5\n    /* \"#utility.yul\":250:273   */\n  sub\n    /* \"#utility.yul\":246:278   */\n  slt\n    /* \"#utility.yul\":243:362   */\n  iszero\n  tag_42\n  jumpi\n    /* \"#utility.yul\":281:360   */\n  tag_43\n  tag_44\n  jump\t// in\ntag_43:\n    /* \"#utility.yul\":243:362   */\ntag_42:\n    /* \"#utility.yul\":401:402   */\n  0x00\n    /* \"#utility.yul\":426:490   */\n  tag_45\n    /* \"#utility.yul\":482:489   */\n  dup5\n    /* \"#utility.yul\":473:479   */\n  dup3\n    /* \"#utility.yul\":462:471   */\n  dup6\n    /* \"#utility.yul\":458:480   */\n  add\n    /* \"#utility.yul\":426:490   */\n  tag_37\n  jump\t// in\ntag_45:\n    /* \"#utility.yul\":416:490   */\n  swap2\n  pop\n    /* \"#utility.yul\":372:500   */\n  pop\n    /* \"#utility.yul\":156:507   */\n  swap3\n  swap2\n  pop\n  pop\n  jump\t// out\n    /* \"#utility.yul\":594:671   */\ntag_48:\n    /* \"#utility.yul\":631:638   */\n  0x00\n    /* \"#utility.yul\":660:665   */\n  dup2\n    /* \"#utility.yul\":649:665   */\n  swap1\n  pop\n    /* \"#utility.yul\":594:671   */\n  swap2\n  swap1\n  pop\n  jump\t// out\n    /* \"#utility.yul\":677:997   */\ntag_12:\n    /* \"#utility.yul\":721:727   */\n  0x00\n    /* \"#utility.yul\":758:759   */\n  0x02\n    /* \"#utility.yul\":752:756   */\n  dup3\n    /* \"#utility.yul\":748:760   */\n  div\n    /* \"#utility.yul\":738:760   */\n  swap1\n  pop\n    /* \"#utility.yul\":805:806   */\n  0x01\n    /* \"#utility.yul\":799:803   */\n  dup3\n    /* \"#utility.yul\":795:807   */\n  and\n    /* \"#utility.yul\":826:844   */\n  dup1\n    /* \"#utility.yul\":816:897   */\n  tag_51\n  jumpi\n    /* \"#utility.yul\":882:886   */\n  0x7f\n    /* \"#utility.yul\":874:880   */\n  dup3\n    /* \"#utility.yul\":870:887   */\n  and\n    /* \"#utility.yul\":860:887   */\n  swap2\n  pop\n    /* \"#utility.yul\":816:897   */\ntag_51:\n    /* \"#utility.yul\":944:946   */\n  0x20\n    /* \"#utility.yul\":936:942   */\n  dup3\n    /* \"#utility.yul\":933:947   */\n  lt\n    /* \"#utility.yul\":913:931   */\n  dup2\n    /* \"#utility.yul\":910:948   */\n  eq\n    /* \"#utility.yul\":907:991   */\n  iszero\n  tag_52\n  jumpi\n    /* \"#utility.yul\":963:981   */\n  tag_53\n  tag_54\n  jump\t// in\ntag_53:\n    /* \"#utility.yul\":907:991   */\ntag_52:\n    /* \"#utility.yul\":728:997   */\n  pop\n    /* \"#utility.yul\":677:997   */\n  swap2\n  swap1\n  pop\n  jump\t// out\n    /* \"#utility.yul\":1003:1183   */\ntag_54:\n    /* \"#utility.yul\":1051:1128   */\n  0x4e487b7100000000000000000000000000000000000000000000000000000000\n    /* \"#utility.yul\":1048:1049   */\n  0x00\n    /* \"#utility.yul\":1041:1129   */\n  mstore\n    /* \"#utility.yul\":1148:1152   */\n  0x22\n    /* \"#utility.yul\":1145:1146   */\n  0x04\n    /* \"#utility.yul\":1138:1153   */\n  mstore\n    /* \"#utility.yul\":1172:1176   */\n  0x24\n    /* \"#utility.yul\":1169:1170   */\n  0x00\n    /* \"#utility.yul\":1162:1177   */\n  revert\n    /* \"#utility.yul\":1312:1429   */\ntag_44:\n    /* \"#utility.yul\":1421:1422   */\n  0x00\n    /* \"#utility.yul\":1418:1419   */\n  dup1\n    /* \"#utility.yul\":1411:1423   */\n  revert\n    /* \"#utility.yul\":1435:1557   */\ntag_40:\n    /* \"#utility.yul\":1508:1532   */\n  tag_60\n    /* \"#utility.yul\":1526:1531   */\n  dup2\n    /* \"#utility.yul\":1508:1532   */\n  tag_48\n  jump\t// in\ntag_60:\n    /* \"#utility.yul\":1501:1506   */\n  dup2\n    /* \"#utility.yul\":1498:1533   */\n  eq\n    /* \"#utility.yul\":1488:1551   */\n  tag_61\n  jumpi\n    /* \"#utility.yul\":1547:1548   */\n  0x00\n    /* \"#utility.yul\":1544:1545   */\n  dup1\n    /* \"#utility.yul\":1537:1549   */\n  revert\n    /* \"#utility.yul\":1488:1551   */\ntag_61:\n    /* \"#utility.yul\":1435:1557   */\n  pop\n  jump\t// out\n    /* \"contracts/basic_solidity.sol\":60:487  contract BasicSolidity {\r... */\ntag_10:\n  dataSize(sub_0)\n  dup1\n  dataOffset(sub_0)\n  0x00\n  codecopy\n  0x00\n  return\nstop\n\nsub_0: assembly {\n        /* \"contracts/basic_solidity.sol\":60:487  contract BasicSolidity {\r... */\n      mstore(0x40, 0x80)\n      callvalue\n      dup1\n      iszero\n      tag_1\n      jumpi\n      0x00\n      dup1\n      revert\n    tag_1:\n      pop\n      jumpi(tag_2, lt(calldatasize, 0x04))\n      shr(0xe0, calldataload(0x00))\n      dup1\n      0x5cd836a3\n      gt\n      tag_11\n      jumpi\n      dup1\n      0x5cd836a3\n      eq\n      tag_7\n      jumpi\n      dup1\n      0x654a573c\n      eq\n      tag_8\n      jumpi\n      dup1\n      0x853320e3\n      eq\n      tag_9\n      jumpi\n      dup1\n      0xb69ef8a8\n      eq\n      tag_10\n      jumpi\n      jump(tag_2)\n    tag_11:\n      dup1\n      0x06fdde03\n      eq\n      tag_3\n      jumpi\n      dup1\n      0x262a9dff\n      eq\n      tag_4\n      jumpi\n      dup1\n      0x449549d5\n      eq\n      tag_5\n      jumpi\n      dup1\n      0x521eb273\n      eq\n      tag_6\n      jumpi\n    tag_2:\n      0x00\n      dup1\n      revert\n        /* \"contracts/basic_solidity.sol\":114:149  string public name  = \"Tony Strark\" */\n    tag_3:\n      tag_12\n      tag_13\n      jump\t// in\n    tag_12:\n      mload(0x40)\n      tag_14\n      swap2\n      swap1\n      tag_15\n      jump\t// in\n    tag_14:\n      mload(0x40)\n      dup1\n      swap2\n      sub\n      swap1\n      return\n        /* \"contracts/basic_solidity.sol\":158:184  uint256 public age   =  48 */\n    tag_4:\n      tag_16\n      tag_17\n      jump\t// in\n    tag_16:\n      mload(0x40)\n      tag_18\n      swap2\n      swap1\n      tag_19\n      jump\t// in\n    tag_18:\n      mload(0x40)\n      dup1\n      swap2\n      sub\n      swap1\n      return\n        /* \"contracts/basic_solidity.sol\":357:378  string[]  public girl */\n    tag_5:\n      tag_20\n      0x04\n      dup1\n      calldatasize\n      sub\n      dup2\n      add\n      swap1\n      tag_21\n      swap2\n      swap1\n      tag_22\n      jump\t// in\n    tag_21:\n      tag_23\n      jump\t// in\n    tag_20:\n      mload(0x40)\n      tag_24\n      swap2\n      swap1\n      tag_15\n      jump\t// in\n    tag_24:\n      mload(0x40)\n      dup1\n      swap2\n      sub\n      swap1\n      return\n        /* \"contracts/basic_solidity.sol\":326:348  address  public wallet */\n    tag_6:\n      tag_25\n      tag_26\n      jump\t// in\n    tag_25:\n      mload(0x40)\n      tag_27\n      swap2\n      swap1\n      tag_28\n      jump\t// in\n    tag_27:\n      mload(0x40)\n      dup1\n      swap2\n      sub\n      swap1\n      return\n        /* \"contracts/basic_solidity.sol\":259:316  string[]  public carreer  = [\"playboy\",\"engineer\",\"hero\"] */\n    tag_7:\n      tag_29\n      0x04\n      dup1\n      calldatasize\n      sub\n      dup2\n      add\n      swap1\n      tag_30\n      swap2\n      swap1\n      tag_22\n      jump\t// in\n    tag_30:\n      tag_31\n      jump\t// in\n    tag_29:\n      mload(0x40)\n      tag_32\n      swap2\n      swap1\n      tag_15\n      jump\t// in\n    tag_32:\n      mload(0x40)\n      dup1\n      swap2\n      sub\n      swap1\n      return\n        /* \"contracts/basic_solidity.sol\":191:221  bool   public  isMale  =  true */\n    tag_8:\n      tag_33\n      tag_34\n      jump\t// in\n    tag_33:\n      mload(0x40)\n      tag_35\n      swap2\n      swap1\n      tag_36\n      jump\t// in\n    tag_35:\n      mload(0x40)\n      dup1\n      swap2\n      sub\n      swap1\n      return\n        /* \"contracts/basic_solidity.sol\":387:430  mapping(string => uint256) public mileOfCar */\n    tag_9:\n      tag_37\n      0x04\n      dup1\n      calldatasize\n      sub\n      dup2\n      add\n      swap1\n      tag_38\n      swap2\n      swap1\n      tag_39\n      jump\t// in\n    tag_38:\n      tag_40\n      jump\t// in\n    tag_37:\n      mload(0x40)\n      tag_41\n      swap2\n      swap1\n      tag_19\n      jump\t// in\n    tag_41:\n      mload(0x40)\n      dup1\n      swap2\n      sub\n      swap1\n      return\n        /* \"contracts/basic_solidity.sol\":230:252  uint256 public balance */\n    tag_10:\n      tag_42\n      tag_43\n      jump\t// in\n    tag_42:\n      mload(0x40)\n      tag_44\n      swap2\n      swap1\n      tag_19\n      jump\t// in\n    tag_44:\n      mload(0x40)\n      dup1\n      swap2\n      sub\n      swap1\n      return\n        /* \"contracts/basic_solidity.sol\":114:149  string public name  = \"Tony Strark\" */\n    tag_13:\n      0x00\n      dup1\n      sload\n      tag_45\n      swap1\n      tag_46\n      jump\t// in\n    tag_45:\n      dup1\n      0x1f\n      add\n      0x20\n      dup1\n      swap2\n      div\n      mul\n      0x20\n      add\n      mload(0x40)\n      swap1\n      dup2\n      add\n      0x40\n      mstore\n      dup1\n      swap3\n      swap2\n      swap1\n      dup2\n      dup2\n      mstore\n      0x20\n      add\n      dup3\n      dup1\n      sload\n      tag_47\n      swap1\n      tag_46\n      jump\t// in\n    tag_47:\n      dup1\n      iszero\n      tag_48\n      jumpi\n      dup1\n      0x1f\n      lt\n      tag_49\n      jumpi\n      0x0100\n      dup1\n      dup4\n      sload\n      div\n      mul\n      dup4\n      mstore\n      swap2\n      0x20\n      add\n      swap2\n      jump(tag_48)\n    tag_49:\n      dup3\n      add\n      swap2\n      swap1\n      0x00\n      mstore\n      keccak256(0x00, 0x20)\n      swap1\n    tag_50:\n      dup2\n      sload\n      dup2\n      mstore\n      swap1\n      0x01\n      add\n      swap1\n      0x20\n      add\n      dup1\n      dup4\n      gt\n      tag_50\n      jumpi\n      dup3\n      swap1\n      sub\n      0x1f\n      and\n      dup3\n      add\n      swap2\n    tag_48:\n      pop\n      pop\n      pop\n      pop\n      pop\n      dup2\n      jump\t// out\n        /* \"contracts/basic_solidity.sol\":158:184  uint256 public age   =  48 */\n    tag_17:\n      sload(0x01)\n      dup2\n      jump\t// out\n        /* \"contracts/basic_solidity.sol\":357:378  string[]  public girl */\n    tag_23:\n      0x06\n      dup2\n      dup2\n      sload\n      dup2\n      lt\n      tag_51\n      jumpi\n      0x00\n      dup1\n      revert\n    tag_51:\n      swap1\n      0x00\n      mstore\n      keccak256(0x00, 0x20)\n      add\n      0x00\n      swap2\n      pop\n      swap1\n      pop\n      dup1\n      sload\n      tag_53\n      swap1\n      tag_46\n      jump\t// in\n    tag_53:\n      dup1\n      0x1f\n      add\n      0x20\n      dup1\n      swap2\n      div\n      mul\n      0x20\n      add\n      mload(0x40)\n      swap1\n      dup2\n      add\n      0x40\n      mstore\n      dup1\n      swap3\n      swap2\n      swap1\n      dup2\n      dup2\n      mstore\n      0x20\n      add\n      dup3\n      dup1\n      sload\n      tag_54\n      swap1\n      tag_46\n      jump\t// in\n    tag_54:\n      dup1\n      iszero\n      tag_55\n      jumpi\n      dup1\n      0x1f\n      lt\n      tag_56\n      jumpi\n      0x0100\n      dup1\n      dup4\n      sload\n      div\n      mul\n      dup4\n      mstore\n      swap2\n      0x20\n      add\n      swap2\n      jump(tag_55)\n    tag_56:\n      dup3\n      add\n      swap2\n      swap1\n      0x00\n      mstore\n      keccak256(0x00, 0x20)\n      swap1\n    tag_57:\n      dup2\n      sload\n      dup2\n      mstore\n      swap1\n      0x01\n      add\n      swap1\n      0x20\n      add\n      dup1\n      dup4\n      gt\n      tag_57\n      jumpi\n      dup3\n      swap1\n      sub\n      0x1f\n      and\n      dup3\n      add\n      swap2\n    tag_55:\n      pop\n      pop\n      pop\n      pop\n      pop\n      dup2\n      jump\t// out\n        /* \"contracts/basic_solidity.sol\":326:348  address  public wallet */\n    tag_26:\n      0x05\n      0x00\n      swap1\n      sload\n      swap1\n      0x0100\n      exp\n      swap1\n      div\n      0xffffffffffffffffffffffffffffffffffffffff\n      and\n      dup2\n      jump\t// out\n        /* \"contracts/basic_solidity.sol\":259:316  string[]  public carreer  = [\"playboy\",\"engineer\",\"hero\"] */\n    tag_31:\n      0x04\n      dup2\n      dup2\n      sload\n      dup2\n      lt\n      tag_58\n      jumpi\n      0x00\n      dup1\n      revert\n    tag_58:\n      swap1\n      0x00\n      mstore\n      keccak256(0x00, 0x20)\n      add\n      0x00\n      swap2\n      pop\n      swap1\n      pop\n      dup1\n      sload\n      tag_60\n      swap1\n      tag_46\n      jump\t// in\n    tag_60:\n      dup1\n      0x1f\n      add\n      0x20\n      dup1\n      swap2\n      div\n      mul\n      0x20\n      add\n      mload(0x40)\n      swap1\n      dup2\n      add\n      0x40\n      mstore\n      dup1\n      swap3\n      swap2\n      swap1\n      dup2\n      dup2\n      mstore\n      0x20\n      add\n      dup3\n      dup1\n      sload\n      tag_61\n      swap1\n      tag_46\n      jump\t// in\n    tag_61:\n      dup1\n      iszero\n      tag_62\n      jumpi\n      dup1\n      0x1f\n      lt\n      tag_63\n      jumpi\n      0x0100\n      dup1\n      dup4\n      sload\n      div\n      mul\n      dup4\n      mstore\n      swap2\n      0x20\n      add\n      swap2\n      jump(tag_62)\n    tag_63:\n      dup3\n      add\n      swap2\n      swap1\n      0x00\n      mstore\n      keccak256(0x00, 0x20)\n      swap1\n    tag_64:\n      dup2\n      sload\n      dup2\n      mstore\n      swap1\n      0x01\n      add\n      swap1\n      0x20\n      add\n      dup1\n      dup4\n      gt\n      tag_64\n      jumpi\n      dup3\n      swap1\n      sub\n      0x1f\n      and\n      dup3\n      add\n      swap2\n    tag_62:\n      pop\n      pop\n      pop\n      pop\n      pop\n      dup2\n      jump\t// out\n        /* \"contracts/basic_solidity.sol\":191:221  bool   public  isMale  =  true */\n    tag_34:\n      0x02\n      0x00\n      swap1\n      sload\n      swap1\n      0x0100\n      exp\n      swap1\n      div\n      0xff\n      and\n      dup2\n      jump\t// out\n        /* \"contracts/basic_solidity.sol\":387:430  mapping(string => uint256) public mileOfCar */\n    tag_40:\n      0x07\n      dup2\n      dup1\n      mload\n      0x20\n      dup2\n      add\n      dup3\n      add\n      dup1\n      mload\n      dup5\n      dup3\n      mstore\n      0x20\n      dup4\n      add\n      0x20\n      dup6\n      add\n      keccak256\n      dup2\n      dup4\n      mstore\n      dup1\n      swap6\n      pop\n      pop\n      pop\n      pop\n      pop\n      pop\n      0x00\n      swap2\n      pop\n      swap1\n      pop\n      sload\n      dup2\n      jump\t// out\n        /* \"contracts/basic_solidity.sol\":230:252  uint256 public balance */\n    tag_43:\n      sload(0x03)\n      dup2\n      jump\t// out\n        /* \"#utility.yul\":7:419   */\n    tag_66:\n        /* \"#utility.yul\":85:90   */\n      0x00\n        /* \"#utility.yul\":110:176   */\n      tag_68\n        /* \"#utility.yul\":126:175   */\n      tag_69\n        /* \"#utility.yul\":168:174   */\n      dup5\n        /* \"#utility.yul\":126:175   */\n      tag_70\n      jump\t// in\n    tag_69:\n        /* \"#utility.yul\":110:176   */\n      tag_71\n      jump\t// in\n    tag_68:\n        /* \"#utility.yul\":101:176   */\n      swap1\n      pop\n        /* \"#utility.yul\":199:205   */\n      dup3\n        /* \"#utility.yul\":192:197   */\n      dup2\n        /* \"#utility.yul\":185:206   */\n      mstore\n        /* \"#utility.yul\":237:241   */\n      0x20\n        /* \"#utility.yul\":230:235   */\n      dup2\n        /* \"#utility.yul\":226:242   */\n      add\n        /* \"#utility.yul\":275:278   */\n      dup5\n        /* \"#utility.yul\":266:272   */\n      dup5\n        /* \"#utility.yul\":261:264   */\n      dup5\n        /* \"#utility.yul\":257:273   */\n      add\n        /* \"#utility.yul\":254:279   */\n      gt\n        /* \"#utility.yul\":251:363   */\n      iszero\n      tag_72\n      jumpi\n        /* \"#utility.yul\":282:361   */\n      tag_73\n      tag_74\n      jump\t// in\n    tag_73:\n        /* \"#utility.yul\":251:363   */\n    tag_72:\n        /* \"#utility.yul\":372:413   */\n      tag_75\n        /* \"#utility.yul\":406:412   */\n      dup5\n        /* \"#utility.yul\":401:404   */\n      dup3\n        /* \"#utility.yul\":396:399   */\n      dup6\n        /* \"#utility.yul\":372:413   */\n      tag_76\n      jump\t// in\n    tag_75:\n        /* \"#utility.yul\":91:419   */\n      pop\n        /* \"#utility.yul\":7:419   */\n      swap4\n      swap3\n      pop\n      pop\n      pop\n      jump\t// out\n        /* \"#utility.yul\":439:779   */\n    tag_77:\n        /* \"#utility.yul\":495:500   */\n      0x00\n        /* \"#utility.yul\":544:547   */\n      dup3\n        /* \"#utility.yul\":537:541   */\n      0x1f\n        /* \"#utility.yul\":529:535   */\n      dup4\n        /* \"#utility.yul\":525:542   */\n      add\n        /* \"#utility.yul\":521:548   */\n      slt\n        /* \"#utility.yul\":511:633   */\n      tag_79\n      jumpi\n        /* \"#utility.yul\":552:631   */\n      tag_80\n      tag_81\n      jump\t// in\n    tag_80:\n        /* \"#utility.yul\":511:633   */\n    tag_79:\n        /* \"#utility.yul\":669:675   */\n      dup2\n        /* \"#utility.yul\":656:676   */\n      calldataload\n        /* \"#utility.yul\":694:773   */\n      tag_82\n        /* \"#utility.yul\":769:772   */\n      dup5\n        /* \"#utility.yul\":761:767   */\n      dup3\n        /* \"#utility.yul\":754:758   */\n      0x20\n        /* \"#utility.yul\":746:752   */\n      dup7\n        /* \"#utility.yul\":742:759   */\n      add\n        /* \"#utility.yul\":694:773   */\n      tag_66\n      jump\t// in\n    tag_82:\n        /* \"#utility.yul\":685:773   */\n      swap2\n      pop\n        /* \"#utility.yul\":501:779   */\n      pop\n        /* \"#utility.yul\":439:779   */\n      swap3\n      swap2\n      pop\n      pop\n      jump\t// out\n        /* \"#utility.yul\":785:924   */\n    tag_83:\n        /* \"#utility.yul\":831:836   */\n      0x00\n        /* \"#utility.yul\":869:875   */\n      dup2\n        /* \"#utility.yul\":856:876   */\n      calldataload\n        /* \"#utility.yul\":847:876   */\n      swap1\n      pop\n        /* \"#utility.yul\":885:918   */\n      tag_85\n        /* \"#utility.yul\":912:917   */\n      dup2\n        /* \"#utility.yul\":885:918   */\n      tag_86\n      jump\t// in\n    tag_85:\n        /* \"#utility.yul\":785:924   */\n      swap3\n      swap2\n      pop\n      pop\n      jump\t// out\n        /* \"#utility.yul\":930:1439   */\n    tag_39:\n        /* \"#utility.yul\":999:1005   */\n      0x00\n        /* \"#utility.yul\":1048:1050   */\n      0x20\n        /* \"#utility.yul\":1036:1045   */\n      dup3\n        /* \"#utility.yul\":1027:1034   */\n      dup5\n        /* \"#utility.yul\":1023:1046   */\n      sub\n        /* \"#utility.yul\":1019:1051   */\n      slt\n        /* \"#utility.yul\":1016:1135   */\n      iszero\n      tag_88\n      jumpi\n        /* \"#utility.yul\":1054:1133   */\n      tag_89\n      tag_90\n      jump\t// in\n    tag_89:\n        /* \"#utility.yul\":1016:1135   */\n    tag_88:\n        /* \"#utility.yul\":1202:1203   */\n      0x00\n        /* \"#utility.yul\":1191:1200   */\n      dup3\n        /* \"#utility.yul\":1187:1204   */\n      add\n        /* \"#utility.yul\":1174:1205   */\n      calldataload\n        /* \"#utility.yul\":1232:1250   */\n      0xffffffffffffffff\n        /* \"#utility.yul\":1224:1230   */\n      dup2\n        /* \"#utility.yul\":1221:1251   */\n      gt\n        /* \"#utility.yul\":1218:1335   */\n      iszero\n      tag_91\n      jumpi\n        /* \"#utility.yul\":1254:1333   */\n      tag_92\n      tag_93\n      jump\t// in\n    tag_92:\n        /* \"#utility.yul\":1218:1335   */\n    tag_91:\n        /* \"#utility.yul\":1359:1422   */\n      tag_94\n        /* \"#utility.yul\":1414:1421   */\n      dup5\n        /* \"#utility.yul\":1405:1411   */\n      dup3\n        /* \"#utility.yul\":1394:1403   */\n      dup6\n        /* \"#utility.yul\":1390:1412   */\n      add\n        /* \"#utility.yul\":1359:1422   */\n      tag_77\n      jump\t// in\n    tag_94:\n        /* \"#utility.yul\":1349:1422   */\n      swap2\n      pop\n        /* \"#utility.yul\":1145:1432   */\n      pop\n        /* \"#utility.yul\":930:1439   */\n      swap3\n      swap2\n      pop\n      pop\n      jump\t// out\n        /* \"#utility.yul\":1445:1774   */\n    tag_22:\n        /* \"#utility.yul\":1504:1510   */\n      0x00\n        /* \"#utility.yul\":1553:1555   */\n      0x20\n        /* \"#utility.yul\":1541:1550   */\n      dup3\n        /* \"#utility.yul\":1532:1539   */\n      dup5\n        /* \"#utility.yul\":1528:1551   */\n      sub\n        /* \"#utility.yul\":1524:1556   */\n      slt\n        /* \"#utility.yul\":1521:1640   */\n      iszero\n      tag_96\n      jumpi\n        /* \"#utility.yul\":1559:1638   */\n      tag_97\n      tag_90\n      jump\t// in\n    tag_97:\n        /* \"#utility.yul\":1521:1640   */\n    tag_96:\n        /* \"#utility.yul\":1679:1680   */\n      0x00\n        /* \"#utility.yul\":1704:1757   */\n      tag_98\n        /* \"#utility.yul\":1749:1756   */\n      dup5\n        /* \"#utility.yul\":1740:1746   */\n      dup3\n        /* \"#utility.yul\":1729:1738   */\n      dup6\n        /* \"#utility.yul\":1725:1747   */\n      add\n        /* \"#utility.yul\":1704:1757   */\n      tag_83\n      jump\t// in\n    tag_98:\n        /* \"#utility.yul\":1694:1757   */\n      swap2\n      pop\n        /* \"#utility.yul\":1650:1767   */\n      pop\n        /* \"#utility.yul\":1445:1774   */\n      swap3\n      swap2\n      pop\n      pop\n      jump\t// out\n        /* \"#utility.yul\":1780:1898   */\n    tag_99:\n        /* \"#utility.yul\":1867:1891   */\n      tag_101\n        /* \"#utility.yul\":1885:1890   */\n      dup2\n        /* \"#utility.yul\":1867:1891   */\n      tag_102\n      jump\t// in\n    tag_101:\n        /* \"#utility.yul\":1862:1865   */\n      dup3\n        /* \"#utility.yul\":1855:1892   */\n      mstore\n        /* \"#utility.yul\":1780:1898   */\n      pop\n      pop\n      jump\t// out\n        /* \"#utility.yul\":1904:2013   */\n    tag_103:\n        /* \"#utility.yul\":1985:2006   */\n      tag_105\n        /* \"#utility.yul\":2000:2005   */\n      dup2\n        /* \"#utility.yul\":1985:2006   */\n      tag_106\n      jump\t// in\n    tag_105:\n        /* \"#utility.yul\":1980:1983   */\n      dup3\n        /* \"#utility.yul\":1973:2007   */\n      mstore\n        /* \"#utility.yul\":1904:2013   */\n      pop\n      pop\n      jump\t// out\n        /* \"#utility.yul\":2019:2383   */\n    tag_107:\n        /* \"#utility.yul\":2107:2110   */\n      0x00\n        /* \"#utility.yul\":2135:2174   */\n      tag_109\n        /* \"#utility.yul\":2168:2173   */\n      dup3\n        /* \"#utility.yul\":2135:2174   */\n      tag_110\n      jump\t// in\n    tag_109:\n        /* \"#utility.yul\":2190:2261   */\n      tag_111\n        /* \"#utility.yul\":2254:2260   */\n      dup2\n        /* \"#utility.yul\":2249:2252   */\n      dup6\n        /* \"#utility.yul\":2190:2261   */\n      tag_112\n      jump\t// in\n    tag_111:\n        /* \"#utility.yul\":2183:2261   */\n      swap4\n      pop\n        /* \"#utility.yul\":2270:2322   */\n      tag_113\n        /* \"#utility.yul\":2315:2321   */\n      dup2\n        /* \"#utility.yul\":2310:2313   */\n      dup6\n        /* \"#utility.yul\":2303:2307   */\n      0x20\n        /* \"#utility.yul\":2296:2301   */\n      dup7\n        /* \"#utility.yul\":2292:2308   */\n      add\n        /* \"#utility.yul\":2270:2322   */\n      tag_114\n      jump\t// in\n    tag_113:\n        /* \"#utility.yul\":2347:2376   */\n      tag_115\n        /* \"#utility.yul\":2369:2375   */\n      dup2\n        /* \"#utility.yul\":2347:2376   */\n      tag_116\n      jump\t// in\n    tag_115:\n        /* \"#utility.yul\":2342:2345   */\n      dup5\n        /* \"#utility.yul\":2338:2377   */\n      add\n        /* \"#utility.yul\":2331:2377   */\n      swap2\n      pop\n        /* \"#utility.yul\":2111:2383   */\n      pop\n        /* \"#utility.yul\":2019:2383   */\n      swap3\n      swap2\n      pop\n      pop\n      jump\t// out\n        /* \"#utility.yul\":2389:2507   */\n    tag_117:\n        /* \"#utility.yul\":2476:2500   */\n      tag_119\n        /* \"#utility.yul\":2494:2499   */\n      dup2\n        /* \"#utility.yul\":2476:2500   */\n      tag_120\n      jump\t// in\n    tag_119:\n        /* \"#utility.yul\":2471:2474   */\n      dup3\n        /* \"#utility.yul\":2464:2501   */\n      mstore\n        /* \"#utility.yul\":2389:2507   */\n      pop\n      pop\n      jump\t// out\n        /* \"#utility.yul\":2513:2735   */\n    tag_28:\n        /* \"#utility.yul\":2606:2610   */\n      0x00\n        /* \"#utility.yul\":2644:2646   */\n      0x20\n        /* \"#utility.yul\":2633:2642   */\n      dup3\n        /* \"#utility.yul\":2629:2647   */\n      add\n        /* \"#utility.yul\":2621:2647   */\n      swap1\n      pop\n        /* \"#utility.yul\":2657:2728   */\n      tag_122\n        /* \"#utility.yul\":2725:2726   */\n      0x00\n        /* \"#utility.yul\":2714:2723   */\n      dup4\n        /* \"#utility.yul\":2710:2727   */\n      add\n        /* \"#utility.yul\":2701:2707   */\n      dup5\n        /* \"#utility.yul\":2657:2728   */\n      tag_99\n      jump\t// in\n    tag_122:\n        /* \"#utility.yul\":2513:2735   */\n      swap3\n      swap2\n      pop\n      pop\n      jump\t// out\n        /* \"#utility.yul\":2741:2951   */\n    tag_36:\n        /* \"#utility.yul\":2828:2832   */\n      0x00\n        /* \"#utility.yul\":2866:2868   */\n      0x20\n        /* \"#utility.yul\":2855:2864   */\n      dup3\n        /* \"#utility.yul\":2851:2869   */\n      add\n        /* \"#utility.yul\":2843:2869   */\n      swap1\n      pop\n        /* \"#utility.yul\":2879:2944   */\n      tag_124\n        /* \"#utility.yul\":2941:2942   */\n      0x00\n        /* \"#utility.yul\":2930:2939   */\n      dup4\n        /* \"#utility.yul\":2926:2943   */\n      add\n        /* \"#utility.yul\":2917:2923   */\n      dup5\n        /* \"#utility.yul\":2879:2944   */\n      tag_103\n      jump\t// in\n    tag_124:\n        /* \"#utility.yul\":2741:2951   */\n      swap3\n      swap2\n      pop\n      pop\n      jump\t// out\n        /* \"#utility.yul\":2957:3270   */\n    tag_15:\n        /* \"#utility.yul\":3070:3074   */\n      0x00\n        /* \"#utility.yul\":3108:3110   */\n      0x20\n        /* \"#utility.yul\":3097:3106   */\n      dup3\n        /* \"#utility.yul\":3093:3111   */\n      add\n        /* \"#utility.yul\":3085:3111   */\n      swap1\n      pop\n        /* \"#utility.yul\":3157:3166   */\n      dup2\n        /* \"#utility.yul\":3151:3155   */\n      dup2\n        /* \"#utility.yul\":3147:3167   */\n      sub\n        /* \"#utility.yul\":3143:3144   */\n      0x00\n        /* \"#utility.yul\":3132:3141   */\n      dup4\n        /* \"#utility.yul\":3128:3145   */\n      add\n        /* \"#utility.yul\":3121:3168   */\n      mstore\n        /* \"#utility.yul\":3185:3263   */\n      tag_126\n        /* \"#utility.yul\":3258:3262   */\n      dup2\n        /* \"#utility.yul\":3249:3255   */\n      dup5\n        /* \"#utility.yul\":3185:3263   */\n      tag_107\n      jump\t// in\n    tag_126:\n        /* \"#utility.yul\":3177:3263   */\n      swap1\n      pop\n        /* \"#utility.yul\":2957:3270   */\n      swap3\n      swap2\n      pop\n      pop\n      jump\t// out\n        /* \"#utility.yul\":3276:3498   */\n    tag_19:\n        /* \"#utility.yul\":3369:3373   */\n      0x00\n        /* \"#utility.yul\":3407:3409   */\n      0x20\n        /* \"#utility.yul\":3396:3405   */\n      dup3\n        /* \"#utility.yul\":3392:3410   */\n      add\n        /* \"#utility.yul\":3384:3410   */\n      swap1\n      pop\n        /* \"#utility.yul\":3420:3491   */\n      tag_128\n        /* \"#utility.yul\":3488:3489   */\n      0x00\n        /* \"#utility.yul\":3477:3486   */\n      dup4\n        /* \"#utility.yul\":3473:3490   */\n      add\n        /* \"#utility.yul\":3464:3470   */\n      dup5\n        /* \"#utility.yul\":3420:3491   */\n      tag_117\n      jump\t// in\n    tag_128:\n        /* \"#utility.yul\":3276:3498   */\n      swap3\n      swap2\n      pop\n      pop\n      jump\t// out\n        /* \"#utility.yul\":3504:3633   */\n    tag_71:\n        /* \"#utility.yul\":3538:3544   */\n      0x00\n        /* \"#utility.yul\":3565:3585   */\n      tag_130\n      tag_131\n      jump\t// in\n    tag_130:\n        /* \"#utility.yul\":3555:3585   */\n      swap1\n      pop\n        /* \"#utility.yul\":3594:3627   */\n      tag_132\n        /* \"#utility.yul\":3622:3626   */\n      dup3\n        /* \"#utility.yul\":3614:3620   */\n      dup3\n        /* \"#utility.yul\":3594:3627   */\n      tag_133\n      jump\t// in\n    tag_132:\n        /* \"#utility.yul\":3504:3633   */\n      swap2\n      swap1\n      pop\n      jump\t// out\n        /* \"#utility.yul\":3639:3714   */\n    tag_131:\n        /* \"#utility.yul\":3672:3678   */\n      0x00\n        /* \"#utility.yul\":3705:3707   */\n      0x40\n        /* \"#utility.yul\":3699:3708   */\n      mload\n        /* \"#utility.yul\":3689:3708   */\n      swap1\n      pop\n        /* \"#utility.yul\":3639:3714   */\n      swap1\n      jump\t// out\n        /* \"#utility.yul\":3720:4028   */\n    tag_70:\n        /* \"#utility.yul\":3782:3786   */\n      0x00\n        /* \"#utility.yul\":3872:3890   */\n      0xffffffffffffffff\n        /* \"#utility.yul\":3864:3870   */\n      dup3\n        /* \"#utility.yul\":3861:3891   */\n      gt\n        /* \"#utility.yul\":3858:3914   */\n      iszero\n      tag_136\n      jumpi\n        /* \"#utility.yul\":3894:3912   */\n      tag_137\n      tag_138\n      jump\t// in\n    tag_137:\n        /* \"#utility.yul\":3858:3914   */\n    tag_136:\n        /* \"#utility.yul\":3932:3961   */\n      tag_139\n        /* \"#utility.yul\":3954:3960   */\n      dup3\n        /* \"#utility.yul\":3932:3961   */\n      tag_116\n      jump\t// in\n    tag_139:\n        /* \"#utility.yul\":3924:3961   */\n      swap1\n      pop\n        /* \"#utility.yul\":4016:4020   */\n      0x20\n        /* \"#utility.yul\":4010:4014   */\n      dup2\n        /* \"#utility.yul\":4006:4021   */\n      add\n        /* \"#utility.yul\":3998:4021   */\n      swap1\n      pop\n        /* \"#utility.yul\":3720:4028   */\n      swap2\n      swap1\n      pop\n      jump\t// out\n        /* \"#utility.yul\":4034:4133   */\n    tag_110:\n        /* \"#utility.yul\":4086:4092   */\n      0x00\n        /* \"#utility.yul\":4120:4125   */\n      dup2\n        /* \"#utility.yul\":4114:4126   */\n      mload\n        /* \"#utility.yul\":4104:4126   */\n      swap1\n      pop\n        /* \"#utility.yul\":4034:4133   */\n      swap2\n      swap1\n      pop\n      jump\t// out\n        /* \"#utility.yul\":4139:4308   */\n    tag_112:\n        /* \"#utility.yul\":4223:4234   */\n      0x00\n        /* \"#utility.yul\":4257:4263   */\n      dup3\n        /* \"#utility.yul\":4252:4255   */\n      dup3\n        /* \"#utility.yul\":4245:4264   */\n      mstore\n        /* \"#utility.yul\":4297:4301   */\n      0x20\n        /* \"#utility.yul\":4292:4295   */\n      dup3\n        /* \"#utility.yul\":4288:4302   */\n      add\n        /* \"#utility.yul\":4273:4302   */\n      swap1\n      pop\n        /* \"#utility.yul\":4139:4308   */\n      swap3\n      swap2\n      pop\n      pop\n      jump\t// out\n        /* \"#utility.yul\":4314:4410   */\n    tag_102:\n        /* \"#utility.yul\":4351:4358   */\n      0x00\n        /* \"#utility.yul\":4380:4404   */\n      tag_143\n        /* \"#utility.yul\":4398:4403   */\n      dup3\n        /* \"#utility.yul\":4380:4404   */\n      tag_144\n      jump\t// in\n    tag_143:\n        /* \"#utility.yul\":4369:4404   */\n      swap1\n      pop\n        /* \"#utility.yul\":4314:4410   */\n      swap2\n      swap1\n      pop\n      jump\t// out\n        /* \"#utility.yul\":4416:4506   */\n    tag_106:\n        /* \"#utility.yul\":4450:4457   */\n      0x00\n        /* \"#utility.yul\":4493:4498   */\n      dup2\n        /* \"#utility.yul\":4486:4499   */\n      iszero\n        /* \"#utility.yul\":4479:4500   */\n      iszero\n        /* \"#utility.yul\":4468:4500   */\n      swap1\n      pop\n        /* \"#utility.yul\":4416:4506   */\n      swap2\n      swap1\n      pop\n      jump\t// out\n        /* \"#utility.yul\":4512:4638   */\n    tag_144:\n        /* \"#utility.yul\":4549:4556   */\n      0x00\n        /* \"#utility.yul\":4589:4631   */\n      0xffffffffffffffffffffffffffffffffffffffff\n        /* \"#utility.yul\":4582:4587   */\n      dup3\n        /* \"#utility.yul\":4578:4632   */\n      and\n        /* \"#utility.yul\":4567:4632   */\n      swap1\n      pop\n        /* \"#utility.yul\":4512:4638   */\n      swap2\n      swap1\n      pop\n      jump\t// out\n        /* \"#utility.yul\":4644:4721   */\n    tag_120:\n        /* \"#utility.yul\":4681:4688   */\n      0x00\n        /* \"#utility.yul\":4710:4715   */\n      dup2\n        /* \"#utility.yul\":4699:4715   */\n      swap1\n      pop\n        /* \"#utility.yul\":4644:4721   */\n      swap2\n      swap1\n      pop\n      jump\t// out\n        /* \"#utility.yul\":4727:4881   */\n    tag_76:\n        /* \"#utility.yul\":4811:4817   */\n      dup3\n        /* \"#utility.yul\":4806:4809   */\n      dup2\n        /* \"#utility.yul\":4801:4804   */\n      dup4\n        /* \"#utility.yul\":4788:4818   */\n      calldatacopy\n        /* \"#utility.yul\":4873:4874   */\n      0x00\n        /* \"#utility.yul\":4864:4870   */\n      dup4\n        /* \"#utility.yul\":4859:4862   */\n      dup4\n        /* \"#utility.yul\":4855:4871   */\n      add\n        /* \"#utility.yul\":4848:4875   */\n      mstore\n        /* \"#utility.yul\":4727:4881   */\n      pop\n      pop\n      pop\n      jump\t// out\n        /* \"#utility.yul\":4887:5194   */\n    tag_114:\n        /* \"#utility.yul\":4955:4956   */\n      0x00\n        /* \"#utility.yul\":4965:5078   */\n    tag_150:\n        /* \"#utility.yul\":4979:4985   */\n      dup4\n        /* \"#utility.yul\":4976:4977   */\n      dup2\n        /* \"#utility.yul\":4973:4986   */\n      lt\n        /* \"#utility.yul\":4965:5078   */\n      iszero\n      tag_152\n      jumpi\n        /* \"#utility.yul\":5064:5065   */\n      dup1\n        /* \"#utility.yul\":5059:5062   */\n      dup3\n        /* \"#utility.yul\":5055:5066   */\n      add\n        /* \"#utility.yul\":5049:5067   */\n      mload\n        /* \"#utility.yul\":5045:5046   */\n      dup2\n        /* \"#utility.yul\":5040:5043   */\n      dup5\n        /* \"#utility.yul\":5036:5047   */\n      add\n        /* \"#utility.yul\":5029:5068   */\n      mstore\n        /* \"#utility.yul\":5001:5003   */\n      0x20\n        /* \"#utility.yul\":4998:4999   */\n      dup2\n        /* \"#utility.yul\":4994:5004   */\n      add\n        /* \"#utility.yul\":4989:5004   */\n      swap1\n      pop\n        /* \"#utility.yul\":4965:5078   */\n      jump(tag_150)\n    tag_152:\n        /* \"#utility.yul\":5096:5102   */\n      dup4\n        /* \"#utility.yul\":5093:5094   */\n      dup2\n        /* \"#utility.yul\":5090:5103   */\n      gt\n        /* \"#utility.yul\":5087:5188   */\n      iszero\n      tag_153\n      jumpi\n        /* \"#utility.yul\":5176:5177   */\n      0x00\n        /* \"#utility.yul\":5167:5173   */\n      dup5\n        /* \"#utility.yul\":5162:5165   */\n      dup5\n        /* \"#utility.yul\":5158:5174   */\n      add\n        /* \"#utility.yul\":5151:5178   */\n      mstore\n        /* \"#utility.yul\":5087:5188   */\n    tag_153:\n        /* \"#utility.yul\":4936:5194   */\n      pop\n        /* \"#utility.yul\":4887:5194   */\n      pop\n      pop\n      pop\n      jump\t// out\n        /* \"#utility.yul\":5200:5520   */\n    tag_46:\n        /* \"#utility.yul\":5244:5250   */\n      0x00\n        /* \"#utility.yul\":5281:5282   */\n      0x02\n        /* \"#utility.yul\":5275:5279   */\n      dup3\n        /* \"#utility.yul\":5271:5283   */\n      div\n        /* \"#utility.yul\":5261:5283   */\n      swap1\n      pop\n        /* \"#utility.yul\":5328:5329   */\n      0x01\n        /* \"#utility.yul\":5322:5326   */\n      dup3\n        /* \"#utility.yul\":5318:5330   */\n      and\n        /* \"#utility.yul\":5349:5367   */\n      dup1\n        /* \"#utility.yul\":5339:5420   */\n      tag_155\n      jumpi\n        /* \"#utility.yul\":5405:5409   */\n      0x7f\n        /* \"#utility.yul\":5397:5403   */\n      dup3\n        /* \"#utility.yul\":5393:5410   */\n      and\n        /* \"#utility.yul\":5383:5410   */\n      swap2\n      pop\n        /* \"#utility.yul\":5339:5420   */\n    tag_155:\n        /* \"#utility.yul\":5467:5469   */\n      0x20\n        /* \"#utility.yul\":5459:5465   */\n      dup3\n        /* \"#utility.yul\":5456:5470   */\n      lt\n        /* \"#utility.yul\":5436:5454   */\n      dup2\n        /* \"#utility.yul\":5433:5471   */\n      eq\n        /* \"#utility.yul\":5430:5514   */\n      iszero\n      tag_156\n      jumpi\n        /* \"#utility.yul\":5486:5504   */\n      tag_157\n      tag_158\n      jump\t// in\n    tag_157:\n        /* \"#utility.yul\":5430:5514   */\n    tag_156:\n        /* \"#utility.yul\":5251:5520   */\n      pop\n        /* \"#utility.yul\":5200:5520   */\n      swap2\n      swap1\n      pop\n      jump\t// out\n        /* \"#utility.yul\":5526:5807   */\n    tag_133:\n        /* \"#utility.yul\":5609:5636   */\n      tag_160\n        /* \"#utility.yul\":5631:5635   */\n      dup3\n        /* \"#utility.yul\":5609:5636   */\n      tag_116\n      jump\t// in\n    tag_160:\n        /* \"#utility.yul\":5601:5607   */\n      dup2\n        /* \"#utility.yul\":5597:5637   */\n      add\n        /* \"#utility.yul\":5739:5745   */\n      dup2\n        /* \"#utility.yul\":5727:5737   */\n      dup2\n        /* \"#utility.yul\":5724:5746   */\n      lt\n        /* \"#utility.yul\":5703:5721   */\n      0xffffffffffffffff\n        /* \"#utility.yul\":5691:5701   */\n      dup3\n        /* \"#utility.yul\":5688:5722   */\n      gt\n        /* \"#utility.yul\":5685:5747   */\n      or\n        /* \"#utility.yul\":5682:5770   */\n      iszero\n      tag_161\n      jumpi\n        /* \"#utility.yul\":5750:5768   */\n      tag_162\n      tag_138\n      jump\t// in\n    tag_162:\n        /* \"#utility.yul\":5682:5770   */\n    tag_161:\n        /* \"#utility.yul\":5790:5800   */\n      dup1\n        /* \"#utility.yul\":5786:5788   */\n      0x40\n        /* \"#utility.yul\":5779:5801   */\n      mstore\n        /* \"#utility.yul\":5569:5807   */\n      pop\n        /* \"#utility.yul\":5526:5807   */\n      pop\n      pop\n      jump\t// out\n        /* \"#utility.yul\":5813:5993   */\n    tag_158:\n        /* \"#utility.yul\":5861:5938   */\n      0x4e487b7100000000000000000000000000000000000000000000000000000000\n        /* \"#utility.yul\":5858:5859   */\n      0x00\n        /* \"#utility.yul\":5851:5939   */\n      mstore\n        /* \"#utility.yul\":5958:5962   */\n      0x22\n        /* \"#utility.yul\":5955:5956   */\n      0x04\n        /* \"#utility.yul\":5948:5963   */\n      mstore\n        /* \"#utility.yul\":5982:5986   */\n      0x24\n        /* \"#utility.yul\":5979:5980   */\n      0x00\n        /* \"#utility.yul\":5972:5987   */\n      revert\n        /* \"#utility.yul\":5999:6179   */\n    tag_138:\n        /* \"#utility.yul\":6047:6124   */\n      0x4e487b7100000000000000000000000000000000000000000000000000000000\n        /* \"#utility.yul\":6044:6045   */\n      0x00\n        /* \"#utility.yul\":6037:6125   */\n      mstore\n        /* \"#utility.yul\":6144:6148   */\n      0x41\n        /* \"#utility.yul\":6141:6142   */\n      0x04\n        /* \"#utility.yul\":6134:6149   */\n      mstore\n        /* \"#utility.yul\":6168:6172   */\n      0x24\n        /* \"#utility.yul\":6165:6166   */\n      0x00\n        /* \"#utility.yul\":6158:6173   */\n      revert\n        /* \"#utility.yul\":6185:6302   */\n    tag_81:\n        /* \"#utility.yul\":6294:6295   */\n      0x00\n        /* \"#utility.yul\":6291:6292   */\n      dup1\n        /* \"#utility.yul\":6284:6296   */\n      revert\n        /* \"#utility.yul\":6308:6425   */\n    tag_74:\n        /* \"#utility.yul\":6417:6418   */\n      0x00\n        /* \"#utility.yul\":6414:6415   */\n      dup1\n        /* \"#utility.yul\":6407:6419   */\n      revert\n        /* \"#utility.yul\":6431:6548   */\n    tag_93:\n        /* \"#utility.yul\":6540:6541   */\n      0x00\n        /* \"#utility.yul\":6537:6538   */\n      dup1\n        /* \"#utility.yul\":6530:6542   */\n      revert\n        /* \"#utility.yul\":6554:6671   */\n    tag_90:\n        /* \"#utility.yul\":6663:6664   */\n      0x00\n        /* \"#utility.yul\":6660:6661   */\n      dup1\n        /* \"#utility.yul\":6653:6665   */\n      revert\n        /* \"#utility.yul\":6677:6779   */\n    tag_116:\n        /* \"#utility.yul\":6718:6724   */\n      0x00\n        /* \"#utility.yul\":6769:6771   */\n      0x1f\n        /* \"#utility.yul\":6765:6772   */\n      not\n        /* \"#utility.yul\":6760:6762   */\n      0x1f\n        /* \"#utility.yul\":6753:6758   */\n      dup4\n        /* \"#utility.yul\":6749:6763   */\n      add\n        /* \"#utility.yul\":6745:6773   */\n      and\n        /* \"#utility.yul\":6735:6773   */\n      swap1\n      pop\n        /* \"#utility.yul\":6677:6779   */\n      swap2\n      swap1\n      pop\n      jump\t// out\n        /* \"#utility.yul\":6785:6907   */\n    tag_86:\n        /* \"#utility.yul\":6858:6882   */\n      tag_171\n        /* \"#utility.yul\":6876:6881   */\n      dup2\n        /* \"#utility.yul\":6858:6882   */\n      tag_120\n      jump\t// in\n    tag_171:\n        /* \"#utility.yul\":6851:6856   */\n      dup2\n        /* \"#utility.yul\":6848:6883   */\n      eq\n        /* \"#utility.yul\":6838:6901   */\n      tag_172\n      jumpi\n        /* \"#utility.yul\":6897:6898   */\n      0x00\n        /* \"#utility.yul\":6894:6895   */\n      dup1\n        /* \"#utility.yul\":6887:6899   */\n      revert\n        /* \"#utility.yul\":6838:6901   */\n    tag_172:\n        /* \"#utility.yul\":6785:6907   */\n      pop\n      jump\t// out\n\n    auxdata: 0xa2646970667358221220bb3c2534715a68793e85e8eaf28a06f4eea80addcde9872062ac3af5b92f18c564736f6c63430008070033\n}\n",
				"bytecode": {
					"linkReferences": {},
					"object": "60806040526040518060400160405280600b81526020017f546f6e792053747261726b000000000000000000000000000000000000000000815250600090805190602001906200005192919062000179565b5060306001556001600260006101000a81548160ff02191690831515021790555060405180606001604052806040518060400160405280600781526020017f706c6179626f790000000000000000000000000000000000000000000000000081525081526020016040518060400160405280600881526020017f656e67696e65657200000000000000000000000000000000000000000000000081525081526020016040518060400160405280600481526020017f6865726f0000000000000000000000000000000000000000000000000000000081525081525060049060036200013e9291906200020a565b503480156200014c57600080fd5b5060405162000bf438038062000bf4833981810160405281019062000172919062000315565b50620003d5565b828054620001879062000351565b90600052602060002090601f016020900481019282620001ab5760008555620001f7565b82601f10620001c657805160ff1916838001178555620001f7565b82800160010185558215620001f7579182015b82811115620001f6578251825591602001919060010190620001d9565b5b50905062000206919062000271565b5090565b8280548282559060005260206000209081019282156200025e579160200282015b828111156200025d5782518290805190602001906200024c92919062000179565b50916020019190600101906200022b565b5b5090506200026d919062000290565b5090565b5b808211156200028c57600081600090555060010162000272565b5090565b5b80821115620002b45760008181620002aa9190620002b8565b5060010162000291565b5090565b508054620002c69062000351565b6000825580601f10620002da5750620002fb565b601f016020900490600052602060002090810190620002fa919062000271565b5b50565b6000815190506200030f81620003bb565b92915050565b6000602082840312156200032e576200032d620003b6565b5b60006200033e84828501620002fe565b91505092915050565b6000819050919050565b600060028204905060018216806200036a57607f821691505b6020821081141562000381576200038062000387565b5b50919050565b7f4e487b7100000000000000000000000000000000000000000000000000000000600052602260045260246000fd5b600080fd5b620003c68162000347565b8114620003d257600080fd5b50565b61080f80620003e56000396000f3fe608060405234801561001057600080fd5b50600436106100885760003560e01c80635cd836a31161005b5780635cd836a314610117578063654a573c14610147578063853320e314610165578063b69ef8a81461019557610088565b806306fdde031461008d578063262a9dff146100ab578063449549d5146100c9578063521eb273146100f9575b600080fd5b6100956101b3565b6040516100a291906105a3565b60405180910390f35b6100b3610241565b6040516100c091906105c5565b60405180910390f35b6100e360048036038101906100de91906104da565b610247565b6040516100f091906105a3565b60405180910390f35b6101016102f3565b60405161010e919061056d565b60405180910390f35b610131600480360381019061012c91906104da565b610319565b60405161013e91906105a3565b60405180910390f35b61014f6103c5565b60405161015c9190610588565b60405180910390f35b61017f600480360381019061017a9190610491565b6103d8565b60405161018c91906105c5565b60405180910390f35b61019d610406565b6040516101aa91906105c5565b60405180910390f35b600080546101c0906106dc565b80601f01602080910402602001604051908101604052809291908181526020018280546101ec906106dc565b80156102395780601f1061020e57610100808354040283529160200191610239565b820191906000526020600020905b81548152906001019060200180831161021c57829003601f168201915b505050505081565b60015481565b6006818154811061025757600080fd5b906000526020600020016000915090508054610272906106dc565b80601f016020809104026020016040519081016040528092919081815260200182805461029e906106dc565b80156102eb5780601f106102c0576101008083540402835291602001916102eb565b820191906000526020600020905b8154815290600101906020018083116102ce57829003601f168201915b505050505081565b600560009054906101000a900473ffffffffffffffffffffffffffffffffffffffff1681565b6004818154811061032957600080fd5b906000526020600020016000915090508054610344906106dc565b80601f0160208091040260200160405190810160405280929190818152602001828054610370906106dc565b80156103bd5780601f10610392576101008083540402835291602001916103bd565b820191906000526020600020905b8154815290600101906020018083116103a057829003601f168201915b505050505081565b600260009054906101000a900460ff1681565b6007818051602081018201805184825260208301602085012081835280955050505050506000915090505481565b60035481565b600061041f61041a84610605565b6105e0565b90508281526020810184848401111561043b5761043a6107a2565b5b61044684828561069a565b509392505050565b600082601f8301126104635761046261079d565b5b813561047384826020860161040c565b91505092915050565b60008135905061048b816107c2565b92915050565b6000602082840312156104a7576104a66107ac565b5b600082013567ffffffffffffffff8111156104c5576104c46107a7565b5b6104d18482850161044e565b91505092915050565b6000602082840312156104f0576104ef6107ac565b5b60006104fe8482850161047c565b91505092915050565b61051081610652565b82525050565b61051f81610664565b82525050565b600061053082610636565b61053a8185610641565b935061054a8185602086016106a9565b610553816107b1565b840191505092915050565b61056781610690565b82525050565b60006020820190506105826000830184610507565b92915050565b600060208201905061059d6000830184610516565b92915050565b600060208201905081810360008301526105bd8184610525565b905092915050565b60006020820190506105da600083018461055e565b92915050565b60006105ea6105fb565b90506105f6828261070e565b919050565b6000604051905090565b600067ffffffffffffffff8211156106205761061f61076e565b5b610629826107b1565b9050602081019050919050565b600081519050919050565b600082825260208201905092915050565b600061065d82610670565b9050919050565b60008115159050919050565b600073ffffffffffffffffffffffffffffffffffffffff82169050919050565b6000819050919050565b82818337600083830152505050565b60005b838110156106c75780820151818401526020810190506106ac565b838111156106d6576000848401525b50505050565b600060028204905060018216806106f457607f821691505b602082108114156107085761070761073f565b5b50919050565b610717826107b1565b810181811067ffffffffffffffff821117156107365761073561076e565b5b80604052505050565b7f4e487b7100000000000000000000000000000000000000000000000000000000600052602260045260246000fd5b7f4e487b7100000000000000000000000000000000000000000000000000000000600052604160045260246000fd5b600080fd5b600080fd5b600080fd5b600080fd5b6000601f19601f8301169050919050565b6107cb81610690565b81146107d657600080fd5b5056fea2646970667358221220bb3c2534715a68793e85e8eaf28a06f4eea80addcde9872062ac3af5b92f18c564736f6c63430008070033",
					"opcodes": "PUSH1 0x80 PUSH1 0x40 MSTORE PUSH1 0x40 MLOAD DUP1 PUSH1 0x40 ADD PUSH1 0x40 MSTORE DUP1 PUSH1 0xB DUP2 MSTORE PUSH1 0x20 ADD PUSH32 0x546F6E792053747261726B000000000000000000000000000000000000000000 DUP2 MSTORE POP PUSH1 0x0 SWAP1 DUP1 MLOAD SWAP1 PUSH1 0x20 ADD SWAP1 PUSH3 0x51 SWAP3 SWAP2 SWAP1 PUSH3 0x179 JUMP JUMPDEST POP PUSH1 0x30 PUSH1 0x1 SSTORE PUSH1 0x1 PUSH1 0x2 PUSH1 0x0 PUSH2 0x100 EXP DUP2 SLOAD DUP2 PUSH1 0xFF MUL NOT AND SWAP1 DUP4 ISZERO ISZERO MUL OR SWAP1 SSTORE POP PUSH1 0x40 MLOAD DUP1 PUSH1 0x60 ADD PUSH1 0x40 MSTORE DUP1 PUSH1 0x40 MLOAD DUP1 PUSH1 0x40 ADD PUSH1 0x40 MSTORE DUP1 PUSH1 0x7 DUP2 MSTORE PUSH1 0x20 ADD PUSH32 0x706C6179626F7900000000000000000000000000000000000000000000000000 DUP2 MSTORE POP DUP2 MSTORE PUSH1 0x20 ADD PUSH1 0x40 MLOAD DUP1 PUSH1 0x40 ADD PUSH1 0x40 MSTORE DUP1 PUSH1 0x8 DUP2 MSTORE PUSH1 0x20 ADD PUSH32 0x656E67696E656572000000000000000000000000000000000000000000000000 DUP2 MSTORE POP DUP2 MSTORE PUSH1 0x20 ADD PUSH1 0x40 MLOAD DUP1 PUSH1 0x40 ADD PUSH1 0x40 MSTORE DUP1 PUSH1 0x4 DUP2 MSTORE PUSH1 0x20 ADD PUSH32 0x6865726F00000000000000000000000000000000000000000000000000000000 DUP2 MSTORE POP DUP2 MSTORE POP PUSH1 0x4 SWAP1 PUSH1 0x3 PUSH3 0x13E SWAP3 SWAP2 SWAP1 PUSH3 0x20A JUMP JUMPDEST POP CALLVALUE DUP1 ISZERO PUSH3 0x14C JUMPI PUSH1 0x0 DUP1 REVERT JUMPDEST POP PUSH1 0x40 MLOAD PUSH3 0xBF4 CODESIZE SUB DUP1 PUSH3 0xBF4 DUP4 CODECOPY DUP2 DUP2 ADD PUSH1 0x40 MSTORE DUP2 ADD SWAP1 PUSH3 0x172 SWAP2 SWAP1 PUSH3 0x315 JUMP JUMPDEST POP PUSH3 0x3D5 JUMP JUMPDEST DUP3 DUP1 SLOAD PUSH3 0x187 SWAP1 PUSH3 0x351 JUMP JUMPDEST SWAP1 PUSH1 0x0 MSTORE PUSH1 0x20 PUSH1 0x0 KECCAK256 SWAP1 PUSH1 0x1F ADD PUSH1 0x20 SWAP1 DIV DUP2 ADD SWAP3 DUP3 PUSH3 0x1AB JUMPI PUSH1 0x0 DUP6 SSTORE PUSH3 0x1F7 JUMP JUMPDEST DUP3 PUSH1 0x1F LT PUSH3 0x1C6 JUMPI DUP1 MLOAD PUSH1 0xFF NOT AND DUP4 DUP1 ADD OR DUP6 SSTORE PUSH3 0x1F7 JUMP JUMPDEST DUP3 DUP1 ADD PUSH1 0x1 ADD DUP6 SSTORE DUP3 ISZERO PUSH3 0x1F7 JUMPI SWAP2 DUP3 ADD JUMPDEST DUP3 DUP2 GT ISZERO PUSH3 0x1F6 JUMPI DUP3 MLOAD DUP3 SSTORE SWAP2 PUSH1 0x20 ADD SWAP2 SWAP1 PUSH1 0x1 ADD SWAP1 PUSH3 0x1D9 JUMP JUMPDEST JUMPDEST POP SWAP1 POP PUSH3 0x206 SWAP2 SWAP1 PUSH3 0x271 JUMP JUMPDEST POP SWAP1 JUMP JUMPDEST DUP3 DUP1 SLOAD DUP3 DUP3 SSTORE SWAP1 PUSH1 0x0 MSTORE PUSH1 0x20 PUSH1 0x0 KECCAK256 SWAP1 DUP2 ADD SWAP3 DUP3 ISZERO PUSH3 0x25E JUMPI SWAP2 PUSH1 0x20 MUL DUP3 ADD JUMPDEST DUP3 DUP2 GT ISZERO PUSH3 0x25D JUMPI DUP3 MLOAD DUP3 SWAP1 DUP1 MLOAD SWAP1 PUSH1 0x20 ADD SWAP1 PUSH3 0x24C SWAP3 SWAP2 SWAP1 PUSH3 0x179 JUMP JUMPDEST POP SWAP2 PUSH1 0x20 ADD SWAP2 SWAP1 PUSH1 0x1 ADD SWAP1 PUSH3 0x22B JUMP JUMPDEST JUMPDEST POP SWAP1 POP PUSH3 0x26D SWAP2 SWAP1 PUSH3 0x290 JUMP JUMPDEST POP SWAP1 JUMP JUMPDEST JUMPDEST DUP1 DUP3 GT ISZERO PUSH3 0x28C JUMPI PUSH1 0x0 DUP2 PUSH1 0x0 SWAP1 SSTORE POP PUSH1 0x1 ADD PUSH3 0x272 JUMP JUMPDEST POP SWAP1 JUMP JUMPDEST JUMPDEST DUP1 DUP3 GT ISZERO PUSH3 0x2B4 JUMPI PUSH1 0x0 DUP2 DUP2 PUSH3 0x2AA SWAP2 SWAP1 PUSH3 0x2B8 JUMP JUMPDEST POP PUSH1 0x1 ADD PUSH3 0x291 JUMP JUMPDEST POP SWAP1 JUMP JUMPDEST POP DUP1 SLOAD PUSH3 0x2C6 SWAP1 PUSH3 0x351 JUMP JUMPDEST PUSH1 0x0 DUP3 SSTORE DUP1 PUSH1 0x1F LT PUSH3 0x2DA JUMPI POP PUSH3 0x2FB JUMP JUMPDEST PUSH1 0x1F ADD PUSH1 0x20 SWAP1 DIV SWAP1 PUSH1 0x0 MSTORE PUSH1 0x20 PUSH1 0x0 KECCAK256 SWAP1 DUP2 ADD SWAP1 PUSH3 0x2FA SWAP2 SWAP1 PUSH3 0x271 JUMP JUMPDEST JUMPDEST POP JUMP JUMPDEST PUSH1 0x0 DUP2 MLOAD SWAP1 POP PUSH3 0x30F DUP2 PUSH3 0x3BB JUMP JUMPDEST SWAP3 SWAP2 POP POP JUMP JUMPDEST PUSH1 0x0 PUSH1 0x20 DUP3 DUP5 SUB SLT ISZERO PUSH3 0x32E JUMPI PUSH3 0x32D PUSH3 0x3B6 JUMP JUMPDEST JUMPDEST PUSH1 0x0 PUSH3 0x33E DUP5 DUP3 DUP6 ADD PUSH3 0x2FE JUMP JUMPDEST SWAP2 POP POP SWAP3 SWAP2 POP POP JUMP JUMPDEST PUSH1 0x0 DUP2 SWAP1 POP SWAP2 SWAP1 POP JUMP JUMPDEST PUSH1 0x0 PUSH1 0x2 DUP3 DIV SWAP1 POP PUSH1 0x1 DUP3 AND DUP1 PUSH3 0x36A JUMPI PUSH1 0x7F DUP3 AND SWAP2 POP JUMPDEST PUSH1 0x20 DUP3 LT DUP2 EQ ISZERO PUSH3 0x381 JUMPI PUSH3 0x380 PUSH3 0x387 JUMP JUMPDEST JUMPDEST POP SWAP2 SWAP1 POP JUMP JUMPDEST PUSH32 0x4E487B7100000000000000000000000000000000000000000000000000000000 PUSH1 0x0 MSTORE PUSH1 0x22 PUSH1 0x4 MSTORE PUSH1 0x24 PUSH1 0x0 REVERT JUMPDEST PUSH1 0x0 DUP1 REVERT JUMPDEST PUSH3 0x3C6 DUP2 PUSH3 0x347 JUMP JUMPDEST DUP2 EQ PUSH3 0x3D2 JUMPI PUSH1 0x0 DUP1 REVERT JUMPDEST POP JUMP JUMPDEST PUSH2 0x80F DUP1 PUSH3 0x3E5 PUSH1 0x0 CODECOPY PUSH1 0x0 RETURN INVALID PUSH1 0x80 PUSH1 0x40 MSTORE CALLVALUE DUP1 ISZERO PUSH2 0x10 JUMPI PUSH1 0x0 DUP1 REVERT JUMPDEST POP PUSH1 0x4 CALLDATASIZE LT PUSH2 0x88 JUMPI PUSH1 0x0 CALLDATALOAD PUSH1 0xE0 SHR DUP1 PUSH4 0x5CD836A3 GT PUSH2 0x5B JUMPI DUP1 PUSH4 0x5CD836A3 EQ PUSH2 0x117 JUMPI DUP1 PUSH4 0x654A573C EQ PUSH2 0x147 JUMPI DUP1 PUSH4 0x853320E3 EQ PUSH2 0x165 JUMPI DUP1 PUSH4 0xB69EF8A8 EQ PUSH2 0x195 JUMPI PUSH2 0x88 JUMP JUMPDEST DUP1 PUSH4 0x6FDDE03 EQ PUSH2 0x8D JUMPI DUP1 PUSH4 0x262A9DFF EQ PUSH2 0xAB JUMPI DUP1 PUSH4 0x449549D5 EQ PUSH2 0xC9 JUMPI DUP1 PUSH4 0x521EB273 EQ PUSH2 0xF9 JUMPI JUMPDEST PUSH1 0x0 DUP1 REVERT JUMPDEST PUSH2 0x95 PUSH2 0x1B3 JUMP JUMPDEST PUSH1 0x40 MLOAD PUSH2 0xA2 SWAP2 SWAP1 PUSH2 0x5A3 JUMP JUMPDEST PUSH1 0x40 MLOAD DUP1 SWAP2 SUB SWAP1 RETURN JUMPDEST PUSH2 0xB3 PUSH2 0x241 JUMP JUMPDEST PUSH1 0x40 MLOAD PUSH2 0xC0 SWAP2 SWAP1 PUSH2 0x5C5 JUMP JUMPDEST PUSH1 0x40 MLOAD DUP1 SWAP2 SUB SWAP1 RETURN JUMPDEST PUSH2 0xE3 PUSH1 0x4 DUP1 CALLDATASIZE SUB DUP2 ADD SWAP1 PUSH2 0xDE SWAP2 SWAP1 PUSH2 0x4DA JUMP JUMPDEST PUSH2 0x247 JUMP JUMPDEST PUSH1 0x40 MLOAD PUSH2 0xF0 SWAP2 SWAP1 PUSH2 0x5A3 JUMP JUMPDEST PUSH1 0x40 MLOAD DUP1 SWAP2 SUB SWAP1 RETURN JUMPDEST PUSH2 0x101 PUSH2 0x2F3 JUMP JUMPDEST PUSH1 0x40 MLOAD PUSH2 0x10E SWAP2 SWAP1 PUSH2 0x56D JUMP JUMPDEST PUSH1 0x40 MLOAD DUP1 SWAP2 SUB SWAP1 RETURN JUMPDEST PUSH2 0x131 PUSH1 0x4 DUP1 CALLDATASIZE SUB DUP2 ADD SWAP1 PUSH2 0x12C SWAP2 SWAP1 PUSH2 0x4DA JUMP JUMPDEST PUSH2 0x319 JUMP JUMPDEST PUSH1 0x40 MLOAD PUSH2 0x13E SWAP2 SWAP1 PUSH2 0x5A3 JUMP JUMPDEST PUSH1 0x40 MLOAD DUP1 SWAP2 SUB SWAP1 RETURN JUMPDEST PUSH2 0x14F PUSH2 0x3C5 JUMP JUMPDEST PUSH1 0x40 MLOAD PUSH2 0x15C SWAP2 SWAP1 PUSH2 0x588 JUMP JUMPDEST PUSH1 0x40 MLOAD DUP1 SWAP2 SUB SWAP1 RETURN JUMPDEST PUSH2 0x17F PUSH1 0x4 DUP1 CALLDATASIZE SUB DUP2 ADD SWAP1 PUSH2 0x17A SWAP2 SWAP1 PUSH2 0x491 JUMP JUMPDEST PUSH2 0x3D8 JUMP JUMPDEST PUSH1 0x40 MLOAD PUSH2 0x18C SWAP2 SWAP1 PUSH2 0x5C5 JUMP JUMPDEST PUSH1 0x40 MLOAD DUP1 SWAP2 SUB SWAP1 RETURN JUMPDEST PUSH2 0x19D PUSH2 0x406 JUMP JUMPDEST PUSH1 0x40 MLOAD PUSH2 0x1AA SWAP2 SWAP1 PUSH2 0x5C5 JUMP JUMPDEST PUSH1 0x40 MLOAD DUP1 SWAP2 SUB SWAP1 RETURN JUMPDEST PUSH1 0x0 DUP1 SLOAD PUSH2 0x1C0 SWAP1 PUSH2 0x6DC JUMP JUMPDEST DUP1 PUSH1 0x1F ADD PUSH1 0x20 DUP1 SWAP2 DIV MUL PUSH1 0x20 ADD PUSH1 0x40 MLOAD SWAP1 DUP2 ADD PUSH1 0x40 MSTORE DUP1 SWAP3 SWAP2 SWAP1 DUP2 DUP2 MSTORE PUSH1 0x20 ADD DUP3 DUP1 SLOAD PUSH2 0x1EC SWAP1 PUSH2 0x6DC JUMP JUMPDEST DUP1 ISZERO PUSH2 0x239 JUMPI DUP1 PUSH1 0x1F LT PUSH2 0x20E JUMPI PUSH2 0x100 DUP1 DUP4 SLOAD DIV MUL DUP4 MSTORE SWAP2 PUSH1 0x20 ADD SWAP2 PUSH2 0x239 JUMP JUMPDEST DUP3 ADD SWAP2 SWAP1 PUSH1 0x0 MSTORE PUSH1 0x20 PUSH1 0x0 KECCAK256 SWAP1 JUMPDEST DUP2 SLOAD DUP2 MSTORE SWAP1 PUSH1 0x1 ADD SWAP1 PUSH1 0x20 ADD DUP1 DUP4 GT PUSH2 0x21C JUMPI DUP3 SWAP1 SUB PUSH1 0x1F AND DUP3 ADD SWAP2 JUMPDEST POP POP POP POP POP DUP2 JUMP JUMPDEST PUSH1 0x1 SLOAD DUP2 JUMP JUMPDEST PUSH1 0x6 DUP2 DUP2 SLOAD DUP2 LT PUSH2 0x257 JUMPI PUSH1 0x0 DUP1 REVERT JUMPDEST SWAP1 PUSH1 0x0 MSTORE PUSH1 0x20 PUSH1 0x0 KECCAK256 ADD PUSH1 0x0 SWAP2 POP SWAP1 POP DUP1 SLOAD PUSH2 0x272 SWAP1 PUSH2 0x6DC JUMP JUMPDEST DUP1 PUSH1 0x1F ADD PUSH1 0x20 DUP1 SWAP2 DIV MUL PUSH1 0x20 ADD PUSH1 0x40 MLOAD SWAP1 DUP2 ADD PUSH1 0x40 MSTORE DUP1 SWAP3 SWAP2 SWAP1 DUP2 DUP2 MSTORE PUSH1 0x20 ADD DUP3 DUP1 SLOAD PUSH2 0x29E SWAP1 PUSH2 0x6DC JUMP JUMPDEST DUP1 ISZERO PUSH2 0x2EB JUMPI DUP1 PUSH1 0x1F LT PUSH2 0x2C0 JUMPI PUSH2 0x100 DUP1 DUP4 SLOAD DIV MUL DUP4 MSTORE SWAP2 PUSH1 0x20 ADD SWAP2 PUSH2 0x2EB JUMP JUMPDEST DUP3 ADD SWAP2 SWAP1 PUSH1 0x0 MSTORE PUSH1 0x20 PUSH1 0x0 KECCAK256 SWAP1 JUMPDEST DUP2 SLOAD DUP2 MSTORE SWAP1 PUSH1 0x1 ADD SWAP1 PUSH1 0x20 ADD DUP1 DUP4 GT PUSH2 0x2CE JUMPI DUP3 SWAP1 SUB PUSH1 0x1F AND DUP3 ADD SWAP2 JUMPDEST POP POP POP POP POP DUP2 JUMP JUMPDEST PUSH1 0x5 PUSH1 0x0 SWAP1 SLOAD SWAP1 PUSH2 0x100 EXP SWAP1 DIV PUSH20 0xFFFFFFFFFFFFFFFFFFFFFFFFFFFFFFFFFFFFFFFF AND DUP2 JUMP JUMPDEST PUSH1 0x4 DUP2 DUP2 SLOAD DUP2 LT PUSH2 0x329 JUMPI PUSH1 0x0 DUP1 REVERT JUMPDEST SWAP1 PUSH1 0x0 MSTORE PUSH1 0x20 PUSH1 0x0 KECCAK256 ADD PUSH1 0x0 SWAP2 POP SWAP1 POP DUP1 SLOAD PUSH2 0x344 SWAP1 PUSH2 0x6DC JUMP JUMPDEST DUP1 PUSH1 0x1F ADD PUSH1 0x20 DUP1 SWAP2 DIV MUL PUSH1 0x20 ADD PUSH1 0x40 MLOAD SWAP1 DUP2 ADD PUSH1 0x40 MSTORE DUP1 SWAP3 SWAP2 SWAP1 DUP2 DUP2 MSTORE PUSH1 0x20 ADD DUP3 DUP1 SLOAD PUSH2 0x370 SWAP1 PUSH2 0x6DC JUMP JUMPDEST DUP1 ISZERO PUSH2 0x3BD JUMPI DUP1 PUSH1 0x1F LT PUSH2 0x392 JUMPI PUSH2 0x100 DUP1 DUP4 SLOAD DIV MUL DUP4 MSTORE SWAP2 PUSH1 0x20 ADD SWAP2 PUSH2 0x3BD JUMP JUMPDEST DUP3 ADD SWAP2 SWAP1 PUSH1 0x0 MSTORE PUSH1 0x20 PUSH1 0x0 KECCAK256 SWAP1 JUMPDEST DUP2 SLOAD DUP2 MSTORE SWAP1 PUSH1 0x1 ADD SWAP1 PUSH1 0x20 ADD DUP1 DUP4 GT PUSH2 0x3A0 JUMPI DUP3 SWAP1 SUB PUSH1 0x1F AND DUP3 ADD SWAP2 JUMPDEST POP POP POP POP POP DUP2 JUMP JUMPDEST PUSH1 0x2 PUSH1 0x0 SWAP1 SLOAD SWAP1 PUSH2 0x100 EXP SWAP1 DIV PUSH1 0xFF AND DUP2 JUMP JUMPDEST PUSH1 0x7 DUP2 DUP1 MLOAD PUSH1 0x20 DUP2 ADD DUP3 ADD DUP1 MLOAD DUP5 DUP3 MSTORE PUSH1 0x20 DUP4 ADD PUSH1 0x20 DUP6 ADD KECCAK256 DUP2 DUP4 MSTORE DUP1 SWAP6 POP POP POP POP POP POP PUSH1 0x0 SWAP2 POP SWAP1 POP SLOAD DUP2 JUMP JUMPDEST PUSH1 0x3 SLOAD DUP2 JUMP JUMPDEST PUSH1 0x0 PUSH2 0x41F PUSH2 0x41A DUP5 PUSH2 0x605 JUMP JUMPDEST PUSH2 0x5E0 JUMP JUMPDEST SWAP1 POP DUP3 DUP2 MSTORE PUSH1 0x20 DUP2 ADD DUP5 DUP5 DUP5 ADD GT ISZERO PUSH2 0x43B JUMPI PUSH2 0x43A PUSH2 0x7A2 JUMP JUMPDEST JUMPDEST PUSH2 0x446 DUP5 DUP3 DUP6 PUSH2 0x69A JUMP JUMPDEST POP SWAP4 SWAP3 POP POP POP JUMP JUMPDEST PUSH1 0x0 DUP3 PUSH1 0x1F DUP4 ADD SLT PUSH2 0x463 JUMPI PUSH2 0x462 PUSH2 0x79D JUMP JUMPDEST JUMPDEST DUP2 CALLDATALOAD PUSH2 0x473 DUP5 DUP3 PUSH1 0x20 DUP7 ADD PUSH2 0x40C JUMP JUMPDEST SWAP2 POP POP SWAP3 SWAP2 POP POP JUMP JUMPDEST PUSH1 0x0 DUP2 CALLDATALOAD SWAP1 POP PUSH2 0x48B DUP2 PUSH2 0x7C2 JUMP JUMPDEST SWAP3 SWAP2 POP POP JUMP JUMPDEST PUSH1 0x0 PUSH1 0x20 DUP3 DUP5 SUB SLT ISZERO PUSH2 0x4A7 JUMPI PUSH2 0x4A6 PUSH2 0x7AC JUMP JUMPDEST JUMPDEST PUSH1 0x0 DUP3 ADD CALLDATALOAD PUSH8 0xFFFFFFFFFFFFFFFF DUP2 GT ISZERO PUSH2 0x4C5 JUMPI PUSH2 0x4C4 PUSH2 0x7A7 JUMP JUMPDEST JUMPDEST PUSH2 0x4D1 DUP5 DUP3 DUP6 ADD PUSH2 0x44E JUMP JUMPDEST SWAP2 POP POP SWAP3 SWAP2 POP POP JUMP JUMPDEST PUSH1 0x0 PUSH1 0x20 DUP3 DUP5 SUB SLT ISZERO PUSH2 0x4F0 JUMPI PUSH2 0x4EF PUSH2 0x7AC JUMP JUMPDEST JUMPDEST PUSH1 0x0 PUSH2 0x4FE DUP5 DUP3 DUP6 ADD PUSH2 0x47C JUMP JUMPDEST SWAP2 POP POP SWAP3 SWAP2 POP POP JUMP JUMPDEST PUSH2 0x510 DUP2 PUSH2 0x652 JUMP JUMPDEST DUP3 MSTORE POP POP JUMP JUMPDEST PUSH2 0x51F DUP2 PUSH2 0x664 JUMP JUMPDEST DUP3 MSTORE POP POP JUMP JUMPDEST PUSH1 0x0 PUSH2 0x530 DUP3 PUSH2 0x636 JUMP JUMPDEST PUSH2 0x53A DUP2 DUP6 PUSH2 0x641 JUMP JUMPDEST SWAP4 POP PUSH2 0x54A DUP2 DUP6 PUSH1 0x20 DUP7 ADD PUSH2 0x6A9 JUMP JUMPDEST PUSH2 0x553 DUP2 PUSH2 0x7B1 JUMP JUMPDEST DUP5 ADD SWAP2 POP POP SWAP3 SWAP2 POP POP JUMP JUMPDEST PUSH2 0x567 DUP2 PUSH2 0x690 JUMP JUMPDEST DUP3 MSTORE POP POP JUMP JUMPDEST PUSH1 0x0 PUSH1 0x20 DUP3 ADD SWAP1 POP PUSH2 0x582 PUSH1 0x0 DUP4 ADD DUP5 PUSH2 0x507 JUMP JUMPDEST SWAP3 SWAP2 POP POP JUMP JUMPDEST PUSH1 0x0 PUSH1 0x20 DUP3 ADD SWAP1 POP PUSH2 0x59D PUSH1 0x0 DUP4 ADD DUP5 PUSH2 0x516 JUMP JUMPDEST SWAP3 SWAP2 POP POP JUMP JUMPDEST PUSH1 0x0 PUSH1 0x20 DUP3 ADD SWAP1 POP DUP2 DUP2 SUB PUSH1 0x0 DUP4 ADD MSTORE PUSH2 0x5BD DUP2 DUP5 PUSH2 0x525 JUMP JUMPDEST SWAP1 POP SWAP3 SWAP2 POP POP JUMP JUMPDEST PUSH1 0x0 PUSH1 0x20 DUP3 ADD SWAP1 POP PUSH2 0x5DA PUSH1 0x0 DUP4 ADD DUP5 PUSH2 0x55E JUMP JUMPDEST SWAP3 SWAP2 POP POP JUMP JUMPDEST PUSH1 0x0 PUSH2 0x5EA PUSH2 0x5FB JUMP JUMPDEST SWAP1 POP PUSH2 0x5F6 DUP3 DUP3 PUSH2 0x70E JUMP JUMPDEST SWAP2 SWAP1 POP JUMP JUMPDEST PUSH1 0x0 PUSH1 0x40 MLOAD SWAP1 POP SWAP1 JUMP JUMPDEST PUSH1 0x0 PUSH8 0xFFFFFFFFFFFFFFFF DUP3 GT ISZERO PUSH2 0x620 JUMPI PUSH2 0x61F PUSH2 0x76E JUMP JUMPDEST JUMPDEST PUSH2 0x629 DUP3 PUSH2 0x7B1 JUMP JUMPDEST SWAP1 POP PUSH1 0x20 DUP2 ADD SWAP1 POP SWAP2 SWAP1 POP JUMP JUMPDEST PUSH1 0x0 DUP2 MLOAD SWAP1 POP SWAP2 SWAP1 POP JUMP JUMPDEST PUSH1 0x0 DUP3 DUP3 MSTORE PUSH1 0x20 DUP3 ADD SWAP1 POP SWAP3 SWAP2 POP POP JUMP JUMPDEST PUSH1 0x0 PUSH2 0x65D DUP3 PUSH2 0x670 JUMP JUMPDEST SWAP1 POP SWAP2 SWAP1 POP JUMP JUMPDEST PUSH1 0x0 DUP2 ISZERO ISZERO SWAP1 POP SWAP2 SWAP1 POP JUMP JUMPDEST PUSH1 0x0 PUSH20 0xFFFFFFFFFFFFFFFFFFFFFFFFFFFFFFFFFFFFFFFF DUP3 AND SWAP1 POP SWAP2 SWAP1 POP JUMP JUMPDEST PUSH1 0x0 DUP2 SWAP1 POP SWAP2 SWAP1 POP JUMP JUMPDEST DUP3 DUP2 DUP4 CALLDATACOPY PUSH1 0x0 DUP4 DUP4 ADD MSTORE POP POP POP JUMP JUMPDEST PUSH1 0x0 JUMPDEST DUP4 DUP2 LT ISZERO PUSH2 0x6C7 JUMPI DUP1 DUP3 ADD MLOAD DUP2 DUP5 ADD MSTORE PUSH1 0x20 DUP2 ADD SWAP1 POP PUSH2 0x6AC JUMP JUMPDEST DUP4 DUP2 GT ISZERO PUSH2 0x6D6 JUMPI PUSH1 0x0 DUP5 DUP5 ADD MSTORE JUMPDEST POP POP POP POP JUMP JUMPDEST PUSH1 0x0 PUSH1 0x2 DUP3 DIV SWAP1 POP PUSH1 0x1 DUP3 AND DUP1 PUSH2 0x6F4 JUMPI PUSH1 0x7F DUP3 AND SWAP2 POP JUMPDEST PUSH1 0x20 DUP3 LT DUP2 EQ ISZERO PUSH2 0x708 JUMPI PUSH2 0x707 PUSH2 0x73F JUMP JUMPDEST JUMPDEST POP SWAP2 SWAP1 POP JUMP JUMPDEST PUSH2 0x717 DUP3 PUSH2 0x7B1 JUMP JUMPDEST DUP2 ADD DUP2 DUP2 LT PUSH8 0xFFFFFFFFFFFFFFFF DUP3 GT OR ISZERO PUSH2 0x736 JUMPI PUSH2 0x735 PUSH2 0x76E JUMP JUMPDEST JUMPDEST DUP1 PUSH1 0x40 MSTORE POP POP POP JUMP JUMPDEST PUSH32 0x4E487B7100000000000000000000000000000000000000000000000000000000 PUSH1 0x0 MSTORE PUSH1 0x22 PUSH1 0x4 MSTORE PUSH1 0x24 PUSH1 0x0 REVERT JUMPDEST PUSH32 0x4E487B7100000000000000000000000000000000000000000000000000000000 PUSH1 0x0 MSTORE PUSH1 0x41 PUSH1 0x4 MSTORE PUSH1 0x24 PUSH1 0x0 REVERT JUMPDEST PUSH1 0x0 DUP1 REVERT JUMPDEST PUSH1 0x0 DUP1 REVERT JUMPDEST PUSH1 0x0 DUP1 REVERT JUMPDEST PUSH1 0x0 DUP1 REVERT JUMPDEST PUSH1 0x0 PUSH1 0x1F NOT PUSH1 0x1F DUP4 ADD AND SWAP1 POP SWAP2 SWAP1 POP JUMP JUMPDEST PUSH2 0x7CB DUP2 PUSH2 0x690 JUMP JUMPDEST DUP2 EQ PUSH2 0x7D6 JUMPI PUSH1 0x0 DUP1 REVERT JUMPDEST POP JUMP INVALID LOG2 PUSH5 0x6970667358 0x22 SLT KECCAK256 0xBB EXTCODECOPY 0x25 CALLVALUE PUSH18 0x5A68793E85E8EAF28A06F4EEA80ADDCDE987 KECCAK256 PUSH3 0xAC3AF5 0xB9 0x2F XOR 0xC5 PUSH5 0x736F6C6343 STOP ADDMOD SMOD STOP CALLER "
				},
				"gasEstimates": {
					"creation": {
						"codeDepositCost": "412600",
						"executionCost": "infinite",
						"totalCost": "infinite"
					},
					"external": {
						"age()": "2452",
						"balance()": "2495",
						"carreer(uint256)": "infinite",
						"girl(uint256)": "infinite",
						"isMale()": "2493",
						"mileOfCar(string)": "infinite",
						"name()": "infinite",
						"wallet()": "2581"
					}
				},
				"methodIdentifiers": {
					"age()": "262a9dff",
					"balance()": "b69ef8a8",
					"carreer(uint256)": "5cd836a3",
					"girl(uint256)": "449549d5",
					"isMale()": "654a573c",
					"mileOfCar(string)": "853320e3",
					"name()": "06fdde03",
					"wallet()": "521eb273"
				}
			},
			"storageLayout": {
				"storage": [
					{
						"astId": 4,
						"contract": "contracts/basic_solidity.sol:BasicSolidity",
						"label": "name",
						"offset": 0,
						"slot": "0",
						"type": "t_string_storage"
					},
					{
						"astId": 7,
						"contract": "contracts/basic_solidity.sol:BasicSolidity",
						"label": "age",
						"offset": 0,
						"slot": "1",
						"type": "t_uint256"
					},
					{
						"astId": 10,
						"contract": "contracts/basic_solidity.sol:BasicSolidity",
						"label": "isMale",
						"offset": 0,
						"slot": "2",
						"type": "t_bool"
					},
					{
						"astId": 12,
						"contract": "contracts/basic_solidity.sol:BasicSolidity",
						"label": "balance",
						"offset": 0,
						"slot": "3",
						"type": "t_uint256"
					},
					{
						"astId": 19,
						"contract": "contracts/basic_solidity.sol:BasicSolidity",
						"label": "carreer",
						"offset": 0,
						"slot": "4",
						"type": "t_array(t_string_storage)dyn_storage"
					},
					{
						"astId": 21,
						"contract": "contracts/basic_solidity.sol:BasicSolidity",
						"label": "wallet",
						"offset": 0,
						"slot": "5",
						"type": "t_address"
					},
					{
						"astId": 24,
						"contract": "contracts/basic_solidity.sol:BasicSolidity",
						"label": "girl",
						"offset": 0,
						"slot": "6",
						"type": "t_array(t_string_storage)dyn_storage"
					},
					{
						"astId": 28,
						"contract": "contracts/basic_solidity.sol:BasicSolidity",
						"label": "mileOfCar",
						"offset": 0,
						"slot": "7",
						"type": "t_mapping(t_string_memory_ptr,t_uint256)"
					}
				],
				"types": {
					"t_address": {
						"encoding": "inplace",
						"label": "address",
						"numberOfBytes": "20"
					},
					"t_array(t_string_storage)dyn_storage": {
						"base": "t_string_storage",
						"encoding": "dynamic_array",
						"label": "string[]",
						"numberOfBytes": "32"
					},
					"t_bool": {
						"encoding": "inplace",
						"label": "bool",
						"numberOfBytes": "1"
					},
					"t_mapping(t_string_memory_ptr,t_uint256)": {
						"encoding": "mapping",
						"key": "t_string_memory_ptr",
						"label": "mapping(string => uint256)",
						"numberOfBytes": "32",
						"value": "t_uint256"
					},
					"t_string_memory_ptr": {
						"encoding": "bytes",
						"label": "string",
						"numberOfBytes": "32"
					},
					"t_string_storage": {
						"encoding": "bytes",
						"label": "string",
						"numberOfBytes": "32"
					},
					"t_uint256": {
						"encoding": "inplace",
						"label": "uint256",
						"numberOfBytes": "32"
					}
				}
			},
			"userdoc": {
				"kind": "user",
				"methods": {},
				"version": 1
			}
		}
	}
}