{
	"contracts/basic_solidity.sol": {
		"BasicSolidity": {
			"abi": [
				{
					"inputs": [
						{
							"internalType": "uint256",
							"name": "_balance",
							"type": "uint256"
						},
						{
							"internalType": "address",
							"name": "_wallet",
							"type": "address"
						}
					],
					"stateMutability": "nonpayable",
					"type": "constructor"
				},
				{
					"inputs": [
						{
							"internalType": "string",
							"name": "_car",
							"type": "string"
						},
						{
							"internalType": "uint256",
							"name": "miles",
							"type": "uint256"
						}
					],
					"name": "addCar",
					"outputs": [],
					"stateMutability": "nonpayable",
					"type": "function"
				},
				{
					"inputs": [],
					"name": "age",
					"outputs": [
						{
							"internalType": "uint256",
							"name": "",
							"type": "uint256"
						}
					],
					"stateMutability": "view",
					"type": "function"
				},
				{
					"inputs": [],
					"name": "balance",
					"outputs": [
						{
							"internalType": "uint256",
							"name": "",
							"type": "uint256"
						}
					],
					"stateMutability": "view",
					"type": "function"
				},
				{
					"inputs": [
						{
							"internalType": "uint256",
							"name": "",
							"type": "uint256"
						}
					],
					"name": "carreer",
					"outputs": [
						{
							"internalType": "string",
							"name": "",
							"type": "string"
						}
					],
					"stateMutability": "view",
					"type": "function"
				},
				{
					"inputs": [
						{
							"internalType": "uint256",
							"name": "_i",
							"type": "uint256"
						}
					],
					"name": "getNumber",
					"outputs": [
						{
							"internalType": "uint256",
							"name": "",
							"type": "uint256"
						}
					],
					"stateMutability": "view",
					"type": "function"
				},
				{
					"inputs": [],
					"name": "getWallet",
					"outputs": [
						{
							"internalType": "address",
							"name": "",
							"type": "address"
						}
					],
					"stateMutability": "view",
					"type": "function"
				},
				{
					"inputs": [
						{
							"internalType": "uint256",
							"name": "",
							"type": "uint256"
						}
					],
					"name": "girl",
					"outputs": [
						{
							"internalType": "string",
							"name": "",
							"type": "string"
						}
					],
					"stateMutability": "view",
					"type": "function"
				},
				{
					"inputs": [
						{
							"internalType": "string",
							"name": "",
							"type": "string"
						}
					],
					"name": "isCar",
					"outputs": [
						{
							"internalType": "bool",
							"name": "",
							"type": "bool"
						}
					],
					"stateMutability": "view",
					"type": "function"
				},
				{
					"inputs": [],
					"name": "isMale",
					"outputs": [
						{
							"internalType": "bool",
							"name": "",
							"type": "bool"
						}
					],
					"stateMutability": "view",
					"type": "function"
				},
				{
					"inputs": [
						{
							"internalType": "string",
							"name": "",
							"type": "string"
						}
					],
					"name": "mileOfCar",
					"outputs": [
						{
							"internalType": "uint256",
							"name": "",
							"type": "uint256"
						}
					],
					"stateMutability": "view",
					"type": "function"
				},
				{
					"inputs": [],
					"name": "name",
					"outputs": [
						{
							"internalType": "string",
							"name": "",
							"type": "string"
						}
					],
					"stateMutability": "view",
					"type": "function"
				},
				{
					"inputs": [],
					"name": "owner",
					"outputs": [
						{
							"internalType": "address",
							"name": "",
							"type": "address"
						}
					],
					"stateMutability": "view",
					"type": "function"
				},
				{
					"inputs": [],
					"name": "plusResult",
					"outputs": [
						{
							"internalType": "uint256",
							"name": "",
							"type": "uint256"
						}
					],
					"stateMutability": "view",
					"type": "function"
				},
				{
					"inputs": [
						{
							"internalType": "string",
							"name": "_girl",
							"type": "string"
						}
					],
					"name": "tinder",
					"outputs": [],
					"stateMutability": "nonpayable",
					"type": "function"
				},
				{
					"inputs": [],
					"name": "tranfer",
					"outputs": [],
					"stateMutability": "nonpayable",
					"type": "function"
				}
			],
			"devdoc": {
				"kind": "dev",
				"methods": {},
				"version": 1
			},
			"evm": {
				"assembly": "    /* \"contracts/basic_solidity.sol\":60:1542  contract BasicSolidity {\r... */\n  mstore(0x40, 0x80)\n    /* \"contracts/basic_solidity.sol\":132:133  0 */\n  0x00\n    /* \"contracts/basic_solidity.sol\":115:133  uint256 global = 0 */\n  dup1\n  sstore\n    /* \"contracts/basic_solidity.sol\":182:217  string public name  = \"Tony Strark\" */\n  mload(0x40)\n  dup1\n  0x40\n  add\n  0x40\n  mstore\n  dup1\n  0x0b\n  dup2\n  mstore\n  0x20\n  add\n  0x546f6e792053747261726b000000000000000000000000000000000000000000\n  dup2\n  mstore\n  pop\n  0x01\n  swap1\n  dup1\n  mload\n  swap1\n  0x20\n  add\n  swap1\n  tag_1\n  swap3\n  swap2\n  swap1\n  tag_2\n  jump\t// in\ntag_1:\n  pop\n    /* \"contracts/basic_solidity.sol\":250:252  48 */\n  0x30\n    /* \"contracts/basic_solidity.sol\":226:252  uint256 public age   =  48 */\n  0x02\n  sstore\n    /* \"contracts/basic_solidity.sol\":285:289  true */\n  0x01\n    /* \"contracts/basic_solidity.sol\":259:289  bool   public  isMale  =  true */\n  0x03\n  exp(0x0100, 0x00)\n  dup2\n  sload\n  dup2\n  0xff\n  mul\n  not\n  and\n  swap1\n  dup4\n  iszero\n  iszero\n  mul\n  or\n  swap1\n  sstore\n  pop\n    /* \"contracts/basic_solidity.sol\":327:384  string[]  public carreer  = [\"playboy\",\"engineer\",\"hero\"] */\n  mload(0x40)\n  dup1\n  0x60\n  add\n  0x40\n  mstore\n  dup1\n  mload(0x40)\n  dup1\n  0x40\n  add\n  0x40\n  mstore\n  dup1\n  0x07\n  dup2\n  mstore\n  0x20\n  add\n  0x706c6179626f7900000000000000000000000000000000000000000000000000\n  dup2\n  mstore\n  pop\n  dup2\n  mstore\n  0x20\n  add\n  mload(0x40)\n  dup1\n  0x40\n  add\n  0x40\n  mstore\n  dup1\n  0x08\n  dup2\n  mstore\n  0x20\n  add\n  0x656e67696e656572000000000000000000000000000000000000000000000000\n  dup2\n  mstore\n  pop\n  dup2\n  mstore\n  0x20\n  add\n  mload(0x40)\n  dup1\n  0x40\n  add\n  0x40\n  mstore\n  dup1\n  0x04\n  dup2\n  mstore\n  0x20\n  add\n  0x6865726f00000000000000000000000000000000000000000000000000000000\n  dup2\n  mstore\n  pop\n  dup2\n  mstore\n  pop\n  0x05\n  swap1\n  0x03\n  tag_3\n  swap3\n  swap2\n  swap1\n  tag_4\n  jump\t// in\ntag_3:\n  pop\n    /* \"contracts/basic_solidity.sol\":657:798  constructor( uint256 _balance, address _wallet){\r... */\n  callvalue\n  dup1\n  iszero\n  tag_5\n  jumpi\n  0x00\n  dup1\n  revert\ntag_5:\n  pop\n  mload(0x40)\n  sub(codesize, bytecodeSize)\n  dup1\n  bytecodeSize\n  dup4\n  codecopy\n  dup2\n  dup2\n  add\n  0x40\n  mstore\n  dup2\n  add\n  swap1\n  tag_6\n  swap2\n  swap1\n  tag_7\n  jump\t// in\ntag_6:\n    /* \"contracts/basic_solidity.sol\":723:733  msg.sender */\n  caller\n    /* \"contracts/basic_solidity.sol\":715:720  owner */\n  0x08\n  0x00\n    /* \"contracts/basic_solidity.sol\":715:733  owner = msg.sender */\n  0x0100\n  exp\n  dup2\n  sload\n  dup2\n  0xffffffffffffffffffffffffffffffffffffffff\n  mul\n  not\n  and\n  swap1\n  dup4\n  0xffffffffffffffffffffffffffffffffffffffff\n  and\n  mul\n  or\n  swap1\n  sstore\n  pop\n    /* \"contracts/basic_solidity.sol\":754:762  _balance */\n  dup2\n    /* \"contracts/basic_solidity.sol\":744:751  balance */\n  0x04\n    /* \"contracts/basic_solidity.sol\":744:762  balance = _balance */\n  dup2\n  swap1\n  sstore\n  pop\n    /* \"contracts/basic_solidity.sol\":783:790  _wallet */\n  dup1\n    /* \"contracts/basic_solidity.sol\":773:779  wallet */\n  0x06\n  0x00\n    /* \"contracts/basic_solidity.sol\":773:790  wallet  = _wallet */\n  0x0100\n  exp\n  dup2\n  sload\n  dup2\n  0xffffffffffffffffffffffffffffffffffffffff\n  mul\n  not\n  and\n  swap1\n  dup4\n  0xffffffffffffffffffffffffffffffffffffffff\n  and\n  mul\n  or\n  swap1\n  sstore\n  pop\n    /* \"contracts/basic_solidity.sol\":657:798  constructor( uint256 _balance, address _wallet){\r... */\n  pop\n  pop\n    /* \"contracts/basic_solidity.sol\":60:1542  contract BasicSolidity {\r... */\n  jump(tag_10)\ntag_2:\n  dup3\n  dup1\n  sload\n  tag_11\n  swap1\n  tag_12\n  jump\t// in\ntag_11:\n  swap1\n  0x00\n  mstore\n  keccak256(0x00, 0x20)\n  swap1\n  0x1f\n  add\n  0x20\n  swap1\n  div\n  dup2\n  add\n  swap3\n  dup3\n  tag_14\n  jumpi\n  0x00\n  dup6\n  sstore\n  jump(tag_13)\ntag_14:\n  dup3\n  0x1f\n  lt\n  tag_15\n  jumpi\n  dup1\n  mload\n  not(0xff)\n  and\n  dup4\n  dup1\n  add\n  or\n  dup6\n  sstore\n  jump(tag_13)\ntag_15:\n  dup3\n  dup1\n  add\n  0x01\n  add\n  dup6\n  sstore\n  dup3\n  iszero\n  tag_13\n  jumpi\n  swap2\n  dup3\n  add\ntag_16:\n  dup3\n  dup2\n  gt\n  iszero\n  tag_17\n  jumpi\n  dup3\n  mload\n  dup3\n  sstore\n  swap2\n  0x20\n  add\n  swap2\n  swap1\n  0x01\n  add\n  swap1\n  jump(tag_16)\ntag_17:\ntag_13:\n  pop\n  swap1\n  pop\n  tag_18\n  swap2\n  swap1\n  tag_19\n  jump\t// in\ntag_18:\n  pop\n  swap1\n  jump\t// out\ntag_4:\n  dup3\n  dup1\n  sload\n  dup3\n  dup3\n  sstore\n  swap1\n  0x00\n  mstore\n  keccak256(0x00, 0x20)\n  swap1\n  dup2\n  add\n  swap3\n  dup3\n  iszero\n  tag_20\n  jumpi\n  swap2\n  0x20\n  mul\n  dup3\n  add\ntag_21:\n  dup3\n  dup2\n  gt\n  iszero\n  tag_22\n  jumpi\n  dup3\n  mload\n  dup3\n  swap1\n  dup1\n  mload\n  swap1\n  0x20\n  add\n  swap1\n  tag_23\n  swap3\n  swap2\n  swap1\n  tag_2\n  jump\t// in\ntag_23:\n  pop\n  swap2\n  0x20\n  add\n  swap2\n  swap1\n  0x01\n  add\n  swap1\n  jump(tag_21)\ntag_22:\ntag_20:\n  pop\n  swap1\n  pop\n  tag_24\n  swap2\n  swap1\n  tag_25\n  jump\t// in\ntag_24:\n  pop\n  swap1\n  jump\t// out\ntag_19:\ntag_26:\n  dup1\n  dup3\n  gt\n  iszero\n  tag_27\n  jumpi\n  0x00\n  dup2\n  0x00\n  swap1\n  sstore\n  pop\n  0x01\n  add\n  jump(tag_26)\ntag_27:\n  pop\n  swap1\n  jump\t// out\ntag_25:\ntag_28:\n  dup1\n  dup3\n  gt\n  iszero\n  tag_29\n  jumpi\n  0x00\n  dup2\n  dup2\n  tag_30\n  swap2\n  swap1\n  tag_31\n  jump\t// in\ntag_30:\n  pop\n  0x01\n  add\n  jump(tag_28)\ntag_29:\n  pop\n  swap1\n  jump\t// out\ntag_31:\n  pop\n  dup1\n  sload\n  tag_32\n  swap1\n  tag_12\n  jump\t// in\ntag_32:\n  0x00\n  dup3\n  sstore\n  dup1\n  0x1f\n  lt\n  tag_34\n  jumpi\n  pop\n  jump(tag_33)\ntag_34:\n  0x1f\n  add\n  0x20\n  swap1\n  div\n  swap1\n  0x00\n  mstore\n  keccak256(0x00, 0x20)\n  swap1\n  dup2\n  add\n  swap1\n  tag_35\n  swap2\n  swap1\n  tag_19\n  jump\t// in\ntag_35:\ntag_33:\n  pop\n  jump\t// out\n    /* \"#utility.yul\":7:150   */\ntag_37:\n    /* \"#utility.yul\":64:69   */\n  0x00\n    /* \"#utility.yul\":95:101   */\n  dup2\n    /* \"#utility.yul\":89:102   */\n  mload\n    /* \"#utility.yul\":80:102   */\n  swap1\n  pop\n    /* \"#utility.yul\":111:144   */\n  tag_39\n    /* \"#utility.yul\":138:143   */\n  dup2\n    /* \"#utility.yul\":111:144   */\n  tag_40\n  jump\t// in\ntag_39:\n    /* \"#utility.yul\":7:150   */\n  swap3\n  swap2\n  pop\n  pop\n  jump\t// out\n    /* \"#utility.yul\":156:299   */\ntag_41:\n    /* \"#utility.yul\":213:218   */\n  0x00\n    /* \"#utility.yul\":244:250   */\n  dup2\n    /* \"#utility.yul\":238:251   */\n  mload\n    /* \"#utility.yul\":229:251   */\n  swap1\n  pop\n    /* \"#utility.yul\":260:293   */\n  tag_43\n    /* \"#utility.yul\":287:292   */\n  dup2\n    /* \"#utility.yul\":260:293   */\n  tag_44\n  jump\t// in\ntag_43:\n    /* \"#utility.yul\":156:299   */\n  swap3\n  swap2\n  pop\n  pop\n  jump\t// out\n    /* \"#utility.yul\":305:812   */\ntag_7:\n    /* \"#utility.yul\":384:390   */\n  0x00\n    /* \"#utility.yul\":392:398   */\n  dup1\n    /* \"#utility.yul\":441:443   */\n  0x40\n    /* \"#utility.yul\":429:438   */\n  dup4\n    /* \"#utility.yul\":420:427   */\n  dup6\n    /* \"#utility.yul\":416:439   */\n  sub\n    /* \"#utility.yul\":412:444   */\n  slt\n    /* \"#utility.yul\":409:528   */\n  iszero\n  tag_46\n  jumpi\n    /* \"#utility.yul\":447:526   */\n  tag_47\n  tag_48\n  jump\t// in\ntag_47:\n    /* \"#utility.yul\":409:528   */\ntag_46:\n    /* \"#utility.yul\":567:568   */\n  0x00\n    /* \"#utility.yul\":592:656   */\n  tag_49\n    /* \"#utility.yul\":648:655   */\n  dup6\n    /* \"#utility.yul\":639:645   */\n  dup3\n    /* \"#utility.yul\":628:637   */\n  dup7\n    /* \"#utility.yul\":624:646   */\n  add\n    /* \"#utility.yul\":592:656   */\n  tag_41\n  jump\t// in\ntag_49:\n    /* \"#utility.yul\":582:656   */\n  swap3\n  pop\n    /* \"#utility.yul\":538:666   */\n  pop\n    /* \"#utility.yul\":705:707   */\n  0x20\n    /* \"#utility.yul\":731:795   */\n  tag_50\n    /* \"#utility.yul\":787:794   */\n  dup6\n    /* \"#utility.yul\":778:784   */\n  dup3\n    /* \"#utility.yul\":767:776   */\n  dup7\n    /* \"#utility.yul\":763:785   */\n  add\n    /* \"#utility.yul\":731:795   */\n  tag_37\n  jump\t// in\ntag_50:\n    /* \"#utility.yul\":721:795   */\n  swap2\n  pop\n    /* \"#utility.yul\":676:805   */\n  pop\n    /* \"#utility.yul\":305:812   */\n  swap3\n  pop\n  swap3\n  swap1\n  pop\n  jump\t// out\n    /* \"#utility.yul\":899:995   */\ntag_53:\n    /* \"#utility.yul\":936:943   */\n  0x00\n    /* \"#utility.yul\":965:989   */\n  tag_55\n    /* \"#utility.yul\":983:988   */\n  dup3\n    /* \"#utility.yul\":965:989   */\n  tag_56\n  jump\t// in\ntag_55:\n    /* \"#utility.yul\":954:989   */\n  swap1\n  pop\n    /* \"#utility.yul\":899:995   */\n  swap2\n  swap1\n  pop\n  jump\t// out\n    /* \"#utility.yul\":1001:1127   */\ntag_56:\n    /* \"#utility.yul\":1038:1045   */\n  0x00\n    /* \"#utility.yul\":1078:1120   */\n  0xffffffffffffffffffffffffffffffffffffffff\n    /* \"#utility.yul\":1071:1076   */\n  dup3\n    /* \"#utility.yul\":1067:1121   */\n  and\n    /* \"#utility.yul\":1056:1121   */\n  swap1\n  pop\n    /* \"#utility.yul\":1001:1127   */\n  swap2\n  swap1\n  pop\n  jump\t// out\n    /* \"#utility.yul\":1133:1210   */\ntag_58:\n    /* \"#utility.yul\":1170:1177   */\n  0x00\n    /* \"#utility.yul\":1199:1204   */\n  dup2\n    /* \"#utility.yul\":1188:1204   */\n  swap1\n  pop\n    /* \"#utility.yul\":1133:1210   */\n  swap2\n  swap1\n  pop\n  jump\t// out\n    /* \"#utility.yul\":1216:1536   */\ntag_12:\n    /* \"#utility.yul\":1260:1266   */\n  0x00\n    /* \"#utility.yul\":1297:1298   */\n  0x02\n    /* \"#utility.yul\":1291:1295   */\n  dup3\n    /* \"#utility.yul\":1287:1299   */\n  div\n    /* \"#utility.yul\":1277:1299   */\n  swap1\n  pop\n    /* \"#utility.yul\":1344:1345   */\n  0x01\n    /* \"#utility.yul\":1338:1342   */\n  dup3\n    /* \"#utility.yul\":1334:1346   */\n  and\n    /* \"#utility.yul\":1365:1383   */\n  dup1\n    /* \"#utility.yul\":1355:1436   */\n  tag_61\n  jumpi\n    /* \"#utility.yul\":1421:1425   */\n  0x7f\n    /* \"#utility.yul\":1413:1419   */\n  dup3\n    /* \"#utility.yul\":1409:1426   */\n  and\n    /* \"#utility.yul\":1399:1426   */\n  swap2\n  pop\n    /* \"#utility.yul\":1355:1436   */\ntag_61:\n    /* \"#utility.yul\":1483:1485   */\n  0x20\n    /* \"#utility.yul\":1475:1481   */\n  dup3\n    /* \"#utility.yul\":1472:1486   */\n  lt\n    /* \"#utility.yul\":1452:1470   */\n  dup2\n    /* \"#utility.yul\":1449:1487   */\n  eq\n    /* \"#utility.yul\":1446:1530   */\n  iszero\n  tag_62\n  jumpi\n    /* \"#utility.yul\":1502:1520   */\n  tag_63\n  tag_64\n  jump\t// in\ntag_63:\n    /* \"#utility.yul\":1446:1530   */\ntag_62:\n    /* \"#utility.yul\":1267:1536   */\n  pop\n    /* \"#utility.yul\":1216:1536   */\n  swap2\n  swap1\n  pop\n  jump\t// out\n    /* \"#utility.yul\":1542:1722   */\ntag_64:\n    /* \"#utility.yul\":1590:1667   */\n  0x4e487b7100000000000000000000000000000000000000000000000000000000\n    /* \"#utility.yul\":1587:1588   */\n  0x00\n    /* \"#utility.yul\":1580:1668   */\n  mstore\n    /* \"#utility.yul\":1687:1691   */\n  0x22\n    /* \"#utility.yul\":1684:1685   */\n  0x04\n    /* \"#utility.yul\":1677:1692   */\n  mstore\n    /* \"#utility.yul\":1711:1715   */\n  0x24\n    /* \"#utility.yul\":1708:1709   */\n  0x00\n    /* \"#utility.yul\":1701:1716   */\n  revert\n    /* \"#utility.yul\":1851:1968   */\ntag_48:\n    /* \"#utility.yul\":1960:1961   */\n  0x00\n    /* \"#utility.yul\":1957:1958   */\n  dup1\n    /* \"#utility.yul\":1950:1962   */\n  revert\n    /* \"#utility.yul\":1974:2096   */\ntag_40:\n    /* \"#utility.yul\":2047:2071   */\n  tag_70\n    /* \"#utility.yul\":2065:2070   */\n  dup2\n    /* \"#utility.yul\":2047:2071   */\n  tag_53\n  jump\t// in\ntag_70:\n    /* \"#utility.yul\":2040:2045   */\n  dup2\n    /* \"#utility.yul\":2037:2072   */\n  eq\n    /* \"#utility.yul\":2027:2090   */\n  tag_71\n  jumpi\n    /* \"#utility.yul\":2086:2087   */\n  0x00\n    /* \"#utility.yul\":2083:2084   */\n  dup1\n    /* \"#utility.yul\":2076:2088   */\n  revert\n    /* \"#utility.yul\":2027:2090   */\ntag_71:\n    /* \"#utility.yul\":1974:2096   */\n  pop\n  jump\t// out\n    /* \"#utility.yul\":2102:2224   */\ntag_44:\n    /* \"#utility.yul\":2175:2199   */\n  tag_73\n    /* \"#utility.yul\":2193:2198   */\n  dup2\n    /* \"#utility.yul\":2175:2199   */\n  tag_58\n  jump\t// in\ntag_73:\n    /* \"#utility.yul\":2168:2173   */\n  dup2\n    /* \"#utility.yul\":2165:2200   */\n  eq\n    /* \"#utility.yul\":2155:2218   */\n  tag_74\n  jumpi\n    /* \"#utility.yul\":2214:2215   */\n  0x00\n    /* \"#utility.yul\":2211:2212   */\n  dup1\n    /* \"#utility.yul\":2204:2216   */\n  revert\n    /* \"#utility.yul\":2155:2218   */\ntag_74:\n    /* \"#utility.yul\":2102:2224   */\n  pop\n  jump\t// out\n    /* \"contracts/basic_solidity.sol\":60:1542  contract BasicSolidity {\r... */\ntag_10:\n  dataSize(sub_0)\n  dup1\n  dataOffset(sub_0)\n  0x00\n  codecopy\n  0x00\n  return\nstop\n\nsub_0: assembly {\n        /* \"contracts/basic_solidity.sol\":60:1542  contract BasicSolidity {\r... */\n      mstore(0x40, 0x80)\n      callvalue\n      dup1\n      iszero\n      tag_1\n      jumpi\n      0x00\n      dup1\n      revert\n    tag_1:\n      pop\n      jumpi(tag_2, lt(calldatasize, 0x04))\n      shr(0xe0, calldataload(0x00))\n      dup1\n      0x87e8599f\n      gt\n      tag_18\n      jumpi\n      dup1\n      0xcfb5843c\n      gt\n      tag_19\n      jumpi\n      dup1\n      0xcfb5843c\n      eq\n      tag_14\n      jumpi\n      dup1\n      0xef483e82\n      eq\n      tag_15\n      jumpi\n      dup1\n      0xfc563658\n      eq\n      tag_16\n      jumpi\n      dup1\n      0xfcc9e5c5\n      eq\n      tag_17\n      jumpi\n      jump(tag_2)\n    tag_19:\n      dup1\n      0x87e8599f\n      eq\n      tag_10\n      jumpi\n      dup1\n      0x8da5cb5b\n      eq\n      tag_11\n      jumpi\n      dup1\n      0x965ac0c5\n      eq\n      tag_12\n      jumpi\n      dup1\n      0xb69ef8a8\n      eq\n      tag_13\n      jumpi\n      jump(tag_2)\n    tag_18:\n      dup1\n      0x449549d5\n      gt\n      tag_20\n      jumpi\n      dup1\n      0x449549d5\n      eq\n      tag_6\n      jumpi\n      dup1\n      0x5cd836a3\n      eq\n      tag_7\n      jumpi\n      dup1\n      0x654a573c\n      eq\n      tag_8\n      jumpi\n      dup1\n      0x853320e3\n      eq\n      tag_9\n      jumpi\n      jump(tag_2)\n    tag_20:\n      dup1\n      0x06fdde03\n      eq\n      tag_3\n      jumpi\n      dup1\n      0x13299604\n      eq\n      tag_4\n      jumpi\n      dup1\n      0x262a9dff\n      eq\n      tag_5\n      jumpi\n    tag_2:\n      0x00\n      dup1\n      revert\n        /* \"contracts/basic_solidity.sol\":182:217  string public name  = \"Tony Strark\" */\n    tag_3:\n      tag_21\n      tag_22\n      jump\t// in\n    tag_21:\n      mload(0x40)\n      tag_23\n      swap2\n      swap1\n      tag_24\n      jump\t// in\n    tag_23:\n      mload(0x40)\n      dup1\n      swap2\n      sub\n      swap1\n      return\n        /* \"contracts/basic_solidity.sol\":910:1009  function getWallet() public view OnlyOwner returns(address){\r... */\n    tag_4:\n      tag_25\n      tag_26\n      jump\t// in\n    tag_25:\n      mload(0x40)\n      tag_27\n      swap2\n      swap1\n      tag_28\n      jump\t// in\n    tag_27:\n      mload(0x40)\n      dup1\n      swap2\n      sub\n      swap1\n      return\n        /* \"contracts/basic_solidity.sol\":226:252  uint256 public age   =  48 */\n    tag_5:\n      tag_29\n      tag_30\n      jump\t// in\n    tag_29:\n      mload(0x40)\n      tag_31\n      swap2\n      swap1\n      tag_32\n      jump\t// in\n    tag_31:\n      mload(0x40)\n      dup1\n      swap2\n      sub\n      swap1\n      return\n        /* \"contracts/basic_solidity.sol\":426:447  string[]  public girl */\n    tag_6:\n      tag_33\n      0x04\n      dup1\n      calldatasize\n      sub\n      dup2\n      add\n      swap1\n      tag_34\n      swap2\n      swap1\n      tag_35\n      jump\t// in\n    tag_34:\n      tag_36\n      jump\t// in\n    tag_33:\n      mload(0x40)\n      tag_37\n      swap2\n      swap1\n      tag_24\n      jump\t// in\n    tag_37:\n      mload(0x40)\n      dup1\n      swap2\n      sub\n      swap1\n      return\n        /* \"contracts/basic_solidity.sol\":327:384  string[]  public carreer  = [\"playboy\",\"engineer\",\"hero\"] */\n    tag_7:\n      tag_38\n      0x04\n      dup1\n      calldatasize\n      sub\n      dup2\n      add\n      swap1\n      tag_39\n      swap2\n      swap1\n      tag_35\n      jump\t// in\n    tag_39:\n      tag_40\n      jump\t// in\n    tag_38:\n      mload(0x40)\n      tag_41\n      swap2\n      swap1\n      tag_24\n      jump\t// in\n    tag_41:\n      mload(0x40)\n      dup1\n      swap2\n      sub\n      swap1\n      return\n        /* \"contracts/basic_solidity.sol\":259:289  bool   public  isMale  =  true */\n    tag_8:\n      tag_42\n      tag_43\n      jump\t// in\n    tag_42:\n      mload(0x40)\n      tag_44\n      swap2\n      swap1\n      tag_45\n      jump\t// in\n    tag_44:\n      mload(0x40)\n      dup1\n      swap2\n      sub\n      swap1\n      return\n        /* \"contracts/basic_solidity.sol\":485:528  mapping(string => uint256) public mileOfCar */\n    tag_9:\n      tag_46\n      0x04\n      dup1\n      calldatasize\n      sub\n      dup2\n      add\n      swap1\n      tag_47\n      swap2\n      swap1\n      tag_48\n      jump\t// in\n    tag_47:\n      tag_49\n      jump\t// in\n    tag_46:\n      mload(0x40)\n      tag_50\n      swap2\n      swap1\n      tag_32\n      jump\t// in\n    tag_50:\n      mload(0x40)\n      dup1\n      swap2\n      sub\n      swap1\n      return\n        /* \"contracts/basic_solidity.sol\":1396:1481  function plusResult() public view returns(uint256){\r... */\n    tag_10:\n      tag_51\n      tag_52\n      jump\t// in\n    tag_51:\n      mload(0x40)\n      tag_53\n      swap2\n      swap1\n      tag_32\n      jump\t// in\n    tag_53:\n      mload(0x40)\n      dup1\n      swap2\n      sub\n      swap1\n      return\n        /* \"contracts/basic_solidity.sol\":456:476  address public owner */\n    tag_11:\n      tag_54\n      tag_55\n      jump\t// in\n    tag_54:\n      mload(0x40)\n      tag_56\n      swap2\n      swap1\n      tag_28\n      jump\t// in\n    tag_56:\n      mload(0x40)\n      dup1\n      swap2\n      sub\n      swap1\n      return\n        /* \"contracts/basic_solidity.sol\":1017:1215  function addCar(string memory _car , uint256 miles) public {\r... */\n    tag_12:\n      tag_57\n      0x04\n      dup1\n      calldatasize\n      sub\n      dup2\n      add\n      swap1\n      tag_58\n      swap2\n      swap1\n      tag_59\n      jump\t// in\n    tag_58:\n      tag_60\n      jump\t// in\n    tag_57:\n      stop\n        /* \"contracts/basic_solidity.sol\":298:320  uint256 public balance */\n    tag_13:\n      tag_61\n      tag_62\n      jump\t// in\n    tag_61:\n      mload(0x40)\n      tag_63\n      swap2\n      swap1\n      tag_32\n      jump\t// in\n    tag_63:\n      mload(0x40)\n      dup1\n      swap2\n      sub\n      swap1\n      return\n        /* \"contracts/basic_solidity.sol\":806:885  function tinder(string memory _girl) public {\r... */\n    tag_14:\n      tag_64\n      0x04\n      dup1\n      calldatasize\n      sub\n      dup2\n      add\n      swap1\n      tag_65\n      swap2\n      swap1\n      tag_48\n      jump\t// in\n    tag_65:\n      tag_66\n      jump\t// in\n    tag_64:\n      stop\n        /* \"contracts/basic_solidity.sol\":1489:1533  function tranfer() public {\r... */\n    tag_15:\n      tag_67\n      tag_68\n      jump\t// in\n    tag_67:\n      stop\n        /* \"contracts/basic_solidity.sol\":1223:1388  function getNumber(uint256 _i) public view returns(uint256){\r... */\n    tag_16:\n      tag_69\n      0x04\n      dup1\n      calldatasize\n      sub\n      dup2\n      add\n      swap1\n      tag_70\n      swap2\n      swap1\n      tag_35\n      jump\t// in\n    tag_70:\n      tag_71\n      jump\t// in\n    tag_69:\n      mload(0x40)\n      tag_72\n      swap2\n      swap1\n      tag_32\n      jump\t// in\n    tag_72:\n      mload(0x40)\n      dup1\n      swap2\n      sub\n      swap1\n      return\n        /* \"contracts/basic_solidity.sol\":535:571  mapping(string => bool) public isCar */\n    tag_17:\n      tag_73\n      0x04\n      dup1\n      calldatasize\n      sub\n      dup2\n      add\n      swap1\n      tag_74\n      swap2\n      swap1\n      tag_48\n      jump\t// in\n    tag_74:\n      tag_75\n      jump\t// in\n    tag_73:\n      mload(0x40)\n      tag_76\n      swap2\n      swap1\n      tag_45\n      jump\t// in\n    tag_76:\n      mload(0x40)\n      dup1\n      swap2\n      sub\n      swap1\n      return\n        /* \"contracts/basic_solidity.sol\":182:217  string public name  = \"Tony Strark\" */\n    tag_22:\n      0x01\n      dup1\n      sload\n      tag_77\n      swap1\n      tag_78\n      jump\t// in\n    tag_77:\n      dup1\n      0x1f\n      add\n      0x20\n      dup1\n      swap2\n      div\n      mul\n      0x20\n      add\n      mload(0x40)\n      swap1\n      dup2\n      add\n      0x40\n      mstore\n      dup1\n      swap3\n      swap2\n      swap1\n      dup2\n      dup2\n      mstore\n      0x20\n      add\n      dup3\n      dup1\n      sload\n      tag_79\n      swap1\n      tag_78\n      jump\t// in\n    tag_79:\n      dup1\n      iszero\n      tag_80\n      jumpi\n      dup1\n      0x1f\n      lt\n      tag_81\n      jumpi\n      0x0100\n      dup1\n      dup4\n      sload\n      div\n      mul\n      dup4\n      mstore\n      swap2\n      0x20\n      add\n      swap2\n      jump(tag_80)\n    tag_81:\n      dup3\n      add\n      swap2\n      swap1\n      0x00\n      mstore\n      keccak256(0x00, 0x20)\n      swap1\n    tag_82:\n      dup2\n      sload\n      dup2\n      mstore\n      swap1\n      0x01\n      add\n      swap1\n      0x20\n      add\n      dup1\n      dup4\n      gt\n      tag_82\n      jumpi\n      dup3\n      swap1\n      sub\n      0x1f\n      and\n      dup3\n      add\n      swap2\n    tag_80:\n      pop\n      pop\n      pop\n      pop\n      pop\n      dup2\n      jump\t// out\n        /* \"contracts/basic_solidity.sol\":910:1009  function getWallet() public view OnlyOwner returns(address){\r... */\n    tag_26:\n        /* \"contracts/basic_solidity.sol\":961:968  address */\n      0x00\n        /* \"contracts/basic_solidity.sol\":631:636  owner */\n      0x08\n      0x00\n      swap1\n      sload\n      swap1\n      0x0100\n      exp\n      swap1\n      div\n      0xffffffffffffffffffffffffffffffffffffffff\n      and\n        /* \"contracts/basic_solidity.sol\":617:636  msg.sender == owner */\n      0xffffffffffffffffffffffffffffffffffffffff\n      and\n        /* \"contracts/basic_solidity.sol\":617:627  msg.sender */\n      caller\n        /* \"contracts/basic_solidity.sol\":617:636  msg.sender == owner */\n      0xffffffffffffffffffffffffffffffffffffffff\n      and\n      eq\n        /* \"contracts/basic_solidity.sol\":609:637  require(msg.sender == owner) */\n      tag_84\n      jumpi\n      0x00\n      dup1\n      revert\n    tag_84:\n        /* \"contracts/basic_solidity.sol\":995:1001  wallet */\n      0x06\n      0x00\n      swap1\n      sload\n      swap1\n      0x0100\n      exp\n      swap1\n      div\n      0xffffffffffffffffffffffffffffffffffffffff\n      and\n        /* \"contracts/basic_solidity.sol\":988:1001  return wallet */\n      swap1\n      pop\n        /* \"contracts/basic_solidity.sol\":910:1009  function getWallet() public view OnlyOwner returns(address){\r... */\n      swap1\n      jump\t// out\n        /* \"contracts/basic_solidity.sol\":226:252  uint256 public age   =  48 */\n    tag_30:\n      sload(0x02)\n      dup2\n      jump\t// out\n        /* \"contracts/basic_solidity.sol\":426:447  string[]  public girl */\n    tag_36:\n      0x07\n      dup2\n      dup2\n      sload\n      dup2\n      lt\n      tag_86\n      jumpi\n      0x00\n      dup1\n      revert\n    tag_86:\n      swap1\n      0x00\n      mstore\n      keccak256(0x00, 0x20)\n      add\n      0x00\n      swap2\n      pop\n      swap1\n      pop\n      dup1\n      sload\n      tag_88\n      swap1\n      tag_78\n      jump\t// in\n    tag_88:\n      dup1\n      0x1f\n      add\n      0x20\n      dup1\n      swap2\n      div\n      mul\n      0x20\n      add\n      mload(0x40)\n      swap1\n      dup2\n      add\n      0x40\n      mstore\n      dup1\n      swap3\n      swap2\n      swap1\n      dup2\n      dup2\n      mstore\n      0x20\n      add\n      dup3\n      dup1\n      sload\n      tag_89\n      swap1\n      tag_78\n      jump\t// in\n    tag_89:\n      dup1\n      iszero\n      tag_90\n      jumpi\n      dup1\n      0x1f\n      lt\n      tag_91\n      jumpi\n      0x0100\n      dup1\n      dup4\n      sload\n      div\n      mul\n      dup4\n      mstore\n      swap2\n      0x20\n      add\n      swap2\n      jump(tag_90)\n    tag_91:\n      dup3\n      add\n      swap2\n      swap1\n      0x00\n      mstore\n      keccak256(0x00, 0x20)\n      swap1\n    tag_92:\n      dup2\n      sload\n      dup2\n      mstore\n      swap1\n      0x01\n      add\n      swap1\n      0x20\n      add\n      dup1\n      dup4\n      gt\n      tag_92\n      jumpi\n      dup3\n      swap1\n      sub\n      0x1f\n      and\n      dup3\n      add\n      swap2\n    tag_90:\n      pop\n      pop\n      pop\n      pop\n      pop\n      dup2\n      jump\t// out\n        /* \"contracts/basic_solidity.sol\":327:384  string[]  public carreer  = [\"playboy\",\"engineer\",\"hero\"] */\n    tag_40:\n      0x05\n      dup2\n      dup2\n      sload\n      dup2\n      lt\n      tag_93\n      jumpi\n      0x00\n      dup1\n      revert\n    tag_93:\n      swap1\n      0x00\n      mstore\n      keccak256(0x00, 0x20)\n      add\n      0x00\n      swap2\n      pop\n      swap1\n      pop\n      dup1\n      sload\n      tag_95\n      swap1\n      tag_78\n      jump\t// in\n    tag_95:\n      dup1\n      0x1f\n      add\n      0x20\n      dup1\n      swap2\n      div\n      mul\n      0x20\n      add\n      mload(0x40)\n      swap1\n      dup2\n      add\n      0x40\n      mstore\n      dup1\n      swap3\n      swap2\n      swap1\n      dup2\n      dup2\n      mstore\n      0x20\n      add\n      dup3\n      dup1\n      sload\n      tag_96\n      swap1\n      tag_78\n      jump\t// in\n    tag_96:\n      dup1\n      iszero\n      tag_97\n      jumpi\n      dup1\n      0x1f\n      lt\n      tag_98\n      jumpi\n      0x0100\n      dup1\n      dup4\n      sload\n      div\n      mul\n      dup4\n      mstore\n      swap2\n      0x20\n      add\n      swap2\n      jump(tag_97)\n    tag_98:\n      dup3\n      add\n      swap2\n      swap1\n      0x00\n      mstore\n      keccak256(0x00, 0x20)\n      swap1\n    tag_99:\n      dup2\n      sload\n      dup2\n      mstore\n      swap1\n      0x01\n      add\n      swap1\n      0x20\n      add\n      dup1\n      dup4\n      gt\n      tag_99\n      jumpi\n      dup3\n      swap1\n      sub\n      0x1f\n      and\n      dup3\n      add\n      swap2\n    tag_97:\n      pop\n      pop\n      pop\n      pop\n      pop\n      dup2\n      jump\t// out\n        /* \"contracts/basic_solidity.sol\":259:289  bool   public  isMale  =  true */\n    tag_43:\n      0x03\n      0x00\n      swap1\n      sload\n      swap1\n      0x0100\n      exp\n      swap1\n      div\n      0xff\n      and\n      dup2\n      jump\t// out\n        /* \"contracts/basic_solidity.sol\":485:528  mapping(string => uint256) public mileOfCar */\n    tag_49:\n      0x09\n      dup2\n      dup1\n      mload\n      0x20\n      dup2\n      add\n      dup3\n      add\n      dup1\n      mload\n      dup5\n      dup3\n      mstore\n      0x20\n      dup4\n      add\n      0x20\n      dup6\n      add\n      keccak256\n      dup2\n      dup4\n      mstore\n      dup1\n      swap6\n      pop\n      pop\n      pop\n      pop\n      pop\n      pop\n      0x00\n      swap2\n      pop\n      swap1\n      pop\n      sload\n      dup2\n      jump\t// out\n        /* \"contracts/basic_solidity.sol\":1396:1481  function plusResult() public view returns(uint256){\r... */\n    tag_52:\n        /* \"contracts/basic_solidity.sol\":1438:1445  uint256 */\n      0x00\n        /* \"contracts/basic_solidity.sol\":1472:1473  1 */\n      0x01\n        /* \"contracts/basic_solidity.sol\":1464:1470  global */\n      sload(0x00)\n        /* \"contracts/basic_solidity.sol\":1464:1473  global +1 */\n      tag_101\n      swap2\n      swap1\n      tag_102\n      jump\t// in\n    tag_101:\n        /* \"contracts/basic_solidity.sol\":1457:1473  return global +1 */\n      swap1\n      pop\n        /* \"contracts/basic_solidity.sol\":1396:1481  function plusResult() public view returns(uint256){\r... */\n      swap1\n      jump\t// out\n        /* \"contracts/basic_solidity.sol\":456:476  address public owner */\n    tag_55:\n      0x08\n      0x00\n      swap1\n      sload\n      swap1\n      0x0100\n      exp\n      swap1\n      div\n      0xffffffffffffffffffffffffffffffffffffffff\n      and\n      dup2\n      jump\t// out\n        /* \"contracts/basic_solidity.sol\":1017:1215  function addCar(string memory _car , uint256 miles) public {\r... */\n    tag_60:\n        /* \"contracts/basic_solidity.sol\":1110:1115  false */\n      0x00\n        /* \"contracts/basic_solidity.sol\":1095:1115  isCar[_car] == false */\n      iszero\n      iszero\n        /* \"contracts/basic_solidity.sol\":1095:1100  isCar */\n      0x0a\n        /* \"contracts/basic_solidity.sol\":1101:1105  _car */\n      dup4\n        /* \"contracts/basic_solidity.sol\":1095:1106  isCar[_car] */\n      mload(0x40)\n      tag_104\n      swap2\n      swap1\n      tag_105\n      jump\t// in\n    tag_104:\n      swap1\n      dup2\n      mstore\n      0x20\n      add\n      mload(0x40)\n      dup1\n      swap2\n      sub\n      swap1\n      keccak256\n      0x00\n      swap1\n      sload\n      swap1\n      0x0100\n      exp\n      swap1\n      div\n      0xff\n      and\n        /* \"contracts/basic_solidity.sol\":1095:1115  isCar[_car] == false */\n      iszero\n      iszero\n      eq\n        /* \"contracts/basic_solidity.sol\":1087:1144  require(isCar[_car] == false,\"Tony already has this car\") */\n      tag_106\n      jumpi\n      mload(0x40)\n      0x08c379a000000000000000000000000000000000000000000000000000000000\n      dup2\n      mstore\n      0x04\n      add\n      tag_107\n      swap1\n      tag_108\n      jump\t// in\n    tag_107:\n      mload(0x40)\n      dup1\n      swap2\n      sub\n      swap1\n      revert\n    tag_106:\n        /* \"contracts/basic_solidity.sol\":1173:1178  miles */\n      dup1\n        /* \"contracts/basic_solidity.sol\":1155:1164  mileOfCar */\n      0x09\n        /* \"contracts/basic_solidity.sol\":1165:1169  _car */\n      dup4\n        /* \"contracts/basic_solidity.sol\":1155:1170  mileOfCar[_car] */\n      mload(0x40)\n      tag_109\n      swap2\n      swap1\n      tag_105\n      jump\t// in\n    tag_109:\n      swap1\n      dup2\n      mstore\n      0x20\n      add\n      mload(0x40)\n      dup1\n      swap2\n      sub\n      swap1\n      keccak256\n        /* \"contracts/basic_solidity.sol\":1155:1178  mileOfCar[_car] = miles */\n      dup2\n      swap1\n      sstore\n      pop\n        /* \"contracts/basic_solidity.sol\":1203:1207  true */\n      0x01\n        /* \"contracts/basic_solidity.sol\":1189:1194  isCar */\n      0x0a\n        /* \"contracts/basic_solidity.sol\":1195:1199  _car */\n      dup4\n        /* \"contracts/basic_solidity.sol\":1189:1200  isCar[_car] */\n      mload(0x40)\n      tag_110\n      swap2\n      swap1\n      tag_105\n      jump\t// in\n    tag_110:\n      swap1\n      dup2\n      mstore\n      0x20\n      add\n      mload(0x40)\n      dup1\n      swap2\n      sub\n      swap1\n      keccak256\n      0x00\n        /* \"contracts/basic_solidity.sol\":1189:1207  isCar[_car] = true */\n      0x0100\n      exp\n      dup2\n      sload\n      dup2\n      0xff\n      mul\n      not\n      and\n      swap1\n      dup4\n      iszero\n      iszero\n      mul\n      or\n      swap1\n      sstore\n      pop\n        /* \"contracts/basic_solidity.sol\":1017:1215  function addCar(string memory _car , uint256 miles) public {\r... */\n      pop\n      pop\n      jump\t// out\n        /* \"contracts/basic_solidity.sol\":298:320  uint256 public balance */\n    tag_62:\n      sload(0x04)\n      dup2\n      jump\t// out\n        /* \"contracts/basic_solidity.sol\":806:885  function tinder(string memory _girl) public {\r... */\n    tag_66:\n        /* \"contracts/basic_solidity.sol\":861:865  girl */\n      0x07\n        /* \"contracts/basic_solidity.sol\":871:876  _girl */\n      dup2\n        /* \"contracts/basic_solidity.sol\":861:877  girl.push(_girl) */\n      swap1\n      dup1\n      0x01\n      dup2\n      sload\n      add\n      dup1\n      dup3\n      sstore\n      dup1\n      swap2\n      pop\n      pop\n      0x01\n      swap1\n      sub\n      swap1\n      0x00\n      mstore\n      keccak256(0x00, 0x20)\n      add\n      0x00\n      swap1\n      swap2\n      swap1\n      swap2\n      swap1\n      swap2\n      pop\n      swap1\n      dup1\n      mload\n      swap1\n      0x20\n      add\n      swap1\n      tag_113\n      swap3\n      swap2\n      swap1\n      tag_114\n      jump\t// in\n    tag_113:\n      pop\n        /* \"contracts/basic_solidity.sol\":806:885  function tinder(string memory _girl) public {\r... */\n      pop\n      jump\t// out\n        /* \"contracts/basic_solidity.sol\":1489:1533  function tranfer() public {\r... */\n    tag_68:\n      jump\t// out\n        /* \"contracts/basic_solidity.sol\":1223:1388  function getNumber(uint256 _i) public view returns(uint256){\r... */\n    tag_71:\n        /* \"contracts/basic_solidity.sol\":1274:1281  uint256 */\n      0x00\n        /* \"contracts/basic_solidity.sol\":1293:1306  uint256 local */\n      dup1\n        /* \"contracts/basic_solidity.sol\":1310:1312  _i */\n      dup3\n        /* \"contracts/basic_solidity.sol\":1293:1312  uint256 local  = _i */\n      swap1\n      pop\n        /* \"contracts/basic_solidity.sol\":1323:1337  uint256 result */\n      0x00\n        /* \"contracts/basic_solidity.sol\":1349:1354  local */\n      dup2\n        /* \"contracts/basic_solidity.sol\":1340:1346  global */\n      sload(0x00)\n        /* \"contracts/basic_solidity.sol\":1340:1354  global + local */\n      tag_117\n      swap2\n      swap1\n      tag_102\n      jump\t// in\n    tag_117:\n        /* \"contracts/basic_solidity.sol\":1323:1354  uint256 result = global + local */\n      swap1\n      pop\n        /* \"contracts/basic_solidity.sol\":1372:1378  result */\n      dup1\n        /* \"contracts/basic_solidity.sol\":1365:1378  return result */\n      swap3\n      pop\n      pop\n      pop\n        /* \"contracts/basic_solidity.sol\":1223:1388  function getNumber(uint256 _i) public view returns(uint256){\r... */\n      swap2\n      swap1\n      pop\n      jump\t// out\n        /* \"contracts/basic_solidity.sol\":535:571  mapping(string => bool) public isCar */\n    tag_75:\n      0x0a\n      dup2\n      dup1\n      mload\n      0x20\n      dup2\n      add\n      dup3\n      add\n      dup1\n      mload\n      dup5\n      dup3\n      mstore\n      0x20\n      dup4\n      add\n      0x20\n      dup6\n      add\n      keccak256\n      dup2\n      dup4\n      mstore\n      dup1\n      swap6\n      pop\n      pop\n      pop\n      pop\n      pop\n      pop\n      0x00\n      swap2\n      pop\n      sload\n      swap1\n      0x0100\n      exp\n      swap1\n      div\n      0xff\n      and\n      dup2\n      jump\t// out\n    tag_114:\n      dup3\n      dup1\n      sload\n      tag_118\n      swap1\n      tag_78\n      jump\t// in\n    tag_118:\n      swap1\n      0x00\n      mstore\n      keccak256(0x00, 0x20)\n      swap1\n      0x1f\n      add\n      0x20\n      swap1\n      div\n      dup2\n      add\n      swap3\n      dup3\n      tag_120\n      jumpi\n      0x00\n      dup6\n      sstore\n      jump(tag_119)\n    tag_120:\n      dup3\n      0x1f\n      lt\n      tag_121\n      jumpi\n      dup1\n      mload\n      not(0xff)\n      and\n      dup4\n      dup1\n      add\n      or\n      dup6\n      sstore\n      jump(tag_119)\n    tag_121:\n      dup3\n      dup1\n      add\n      0x01\n      add\n      dup6\n      sstore\n      dup3\n      iszero\n      tag_119\n      jumpi\n      swap2\n      dup3\n      add\n    tag_122:\n      dup3\n      dup2\n      gt\n      iszero\n      tag_123\n      jumpi\n      dup3\n      mload\n      dup3\n      sstore\n      swap2\n      0x20\n      add\n      swap2\n      swap1\n      0x01\n      add\n      swap1\n      jump(tag_122)\n    tag_123:\n    tag_119:\n      pop\n      swap1\n      pop\n      tag_124\n      swap2\n      swap1\n      tag_125\n      jump\t// in\n    tag_124:\n      pop\n      swap1\n      jump\t// out\n    tag_125:\n    tag_126:\n      dup1\n      dup3\n      gt\n      iszero\n      tag_127\n      jumpi\n      0x00\n      dup2\n      0x00\n      swap1\n      sstore\n      pop\n      0x01\n      add\n      jump(tag_126)\n    tag_127:\n      pop\n      swap1\n      jump\t// out\n        /* \"#utility.yul\":7:419   */\n    tag_129:\n        /* \"#utility.yul\":85:90   */\n      0x00\n        /* \"#utility.yul\":110:176   */\n      tag_131\n        /* \"#utility.yul\":126:175   */\n      tag_132\n        /* \"#utility.yul\":168:174   */\n      dup5\n        /* \"#utility.yul\":126:175   */\n      tag_133\n      jump\t// in\n    tag_132:\n        /* \"#utility.yul\":110:176   */\n      tag_134\n      jump\t// in\n    tag_131:\n        /* \"#utility.yul\":101:176   */\n      swap1\n      pop\n        /* \"#utility.yul\":199:205   */\n      dup3\n        /* \"#utility.yul\":192:197   */\n      dup2\n        /* \"#utility.yul\":185:206   */\n      mstore\n        /* \"#utility.yul\":237:241   */\n      0x20\n        /* \"#utility.yul\":230:235   */\n      dup2\n        /* \"#utility.yul\":226:242   */\n      add\n        /* \"#utility.yul\":275:278   */\n      dup5\n        /* \"#utility.yul\":266:272   */\n      dup5\n        /* \"#utility.yul\":261:264   */\n      dup5\n        /* \"#utility.yul\":257:273   */\n      add\n        /* \"#utility.yul\":254:279   */\n      gt\n        /* \"#utility.yul\":251:363   */\n      iszero\n      tag_135\n      jumpi\n        /* \"#utility.yul\":282:361   */\n      tag_136\n      tag_137\n      jump\t// in\n    tag_136:\n        /* \"#utility.yul\":251:363   */\n    tag_135:\n        /* \"#utility.yul\":372:413   */\n      tag_138\n        /* \"#utility.yul\":406:412   */\n      dup5\n        /* \"#utility.yul\":401:404   */\n      dup3\n        /* \"#utility.yul\":396:399   */\n      dup6\n        /* \"#utility.yul\":372:413   */\n      tag_139\n      jump\t// in\n    tag_138:\n        /* \"#utility.yul\":91:419   */\n      pop\n        /* \"#utility.yul\":7:419   */\n      swap4\n      swap3\n      pop\n      pop\n      pop\n      jump\t// out\n        /* \"#utility.yul\":439:779   */\n    tag_140:\n        /* \"#utility.yul\":495:500   */\n      0x00\n        /* \"#utility.yul\":544:547   */\n      dup3\n        /* \"#utility.yul\":537:541   */\n      0x1f\n        /* \"#utility.yul\":529:535   */\n      dup4\n        /* \"#utility.yul\":525:542   */\n      add\n        /* \"#utility.yul\":521:548   */\n      slt\n        /* \"#utility.yul\":511:633   */\n      tag_142\n      jumpi\n        /* \"#utility.yul\":552:631   */\n      tag_143\n      tag_144\n      jump\t// in\n    tag_143:\n        /* \"#utility.yul\":511:633   */\n    tag_142:\n        /* \"#utility.yul\":669:675   */\n      dup2\n        /* \"#utility.yul\":656:676   */\n      calldataload\n        /* \"#utility.yul\":694:773   */\n      tag_145\n        /* \"#utility.yul\":769:772   */\n      dup5\n        /* \"#utility.yul\":761:767   */\n      dup3\n        /* \"#utility.yul\":754:758   */\n      0x20\n        /* \"#utility.yul\":746:752   */\n      dup7\n        /* \"#utility.yul\":742:759   */\n      add\n        /* \"#utility.yul\":694:773   */\n      tag_129\n      jump\t// in\n    tag_145:\n        /* \"#utility.yul\":685:773   */\n      swap2\n      pop\n        /* \"#utility.yul\":501:779   */\n      pop\n        /* \"#utility.yul\":439:779   */\n      swap3\n      swap2\n      pop\n      pop\n      jump\t// out\n        /* \"#utility.yul\":785:924   */\n    tag_146:\n        /* \"#utility.yul\":831:836   */\n      0x00\n        /* \"#utility.yul\":869:875   */\n      dup2\n        /* \"#utility.yul\":856:876   */\n      calldataload\n        /* \"#utility.yul\":847:876   */\n      swap1\n      pop\n        /* \"#utility.yul\":885:918   */\n      tag_148\n        /* \"#utility.yul\":912:917   */\n      dup2\n        /* \"#utility.yul\":885:918   */\n      tag_149\n      jump\t// in\n    tag_148:\n        /* \"#utility.yul\":785:924   */\n      swap3\n      swap2\n      pop\n      pop\n      jump\t// out\n        /* \"#utility.yul\":930:1439   */\n    tag_48:\n        /* \"#utility.yul\":999:1005   */\n      0x00\n        /* \"#utility.yul\":1048:1050   */\n      0x20\n        /* \"#utility.yul\":1036:1045   */\n      dup3\n        /* \"#utility.yul\":1027:1034   */\n      dup5\n        /* \"#utility.yul\":1023:1046   */\n      sub\n        /* \"#utility.yul\":1019:1051   */\n      slt\n        /* \"#utility.yul\":1016:1135   */\n      iszero\n      tag_151\n      jumpi\n        /* \"#utility.yul\":1054:1133   */\n      tag_152\n      tag_153\n      jump\t// in\n    tag_152:\n        /* \"#utility.yul\":1016:1135   */\n    tag_151:\n        /* \"#utility.yul\":1202:1203   */\n      0x00\n        /* \"#utility.yul\":1191:1200   */\n      dup3\n        /* \"#utility.yul\":1187:1204   */\n      add\n        /* \"#utility.yul\":1174:1205   */\n      calldataload\n        /* \"#utility.yul\":1232:1250   */\n      0xffffffffffffffff\n        /* \"#utility.yul\":1224:1230   */\n      dup2\n        /* \"#utility.yul\":1221:1251   */\n      gt\n        /* \"#utility.yul\":1218:1335   */\n      iszero\n      tag_154\n      jumpi\n        /* \"#utility.yul\":1254:1333   */\n      tag_155\n      tag_156\n      jump\t// in\n    tag_155:\n        /* \"#utility.yul\":1218:1335   */\n    tag_154:\n        /* \"#utility.yul\":1359:1422   */\n      tag_157\n        /* \"#utility.yul\":1414:1421   */\n      dup5\n        /* \"#utility.yul\":1405:1411   */\n      dup3\n        /* \"#utility.yul\":1394:1403   */\n      dup6\n        /* \"#utility.yul\":1390:1412   */\n      add\n        /* \"#utility.yul\":1359:1422   */\n      tag_140\n      jump\t// in\n    tag_157:\n        /* \"#utility.yul\":1349:1422   */\n      swap2\n      pop\n        /* \"#utility.yul\":1145:1432   */\n      pop\n        /* \"#utility.yul\":930:1439   */\n      swap3\n      swap2\n      pop\n      pop\n      jump\t// out\n        /* \"#utility.yul\":1445:2099   */\n    tag_59:\n        /* \"#utility.yul\":1523:1529   */\n      0x00\n        /* \"#utility.yul\":1531:1537   */\n      dup1\n        /* \"#utility.yul\":1580:1582   */\n      0x40\n        /* \"#utility.yul\":1568:1577   */\n      dup4\n        /* \"#utility.yul\":1559:1566   */\n      dup6\n        /* \"#utility.yul\":1555:1578   */\n      sub\n        /* \"#utility.yul\":1551:1583   */\n      slt\n        /* \"#utility.yul\":1548:1667   */\n      iszero\n      tag_159\n      jumpi\n        /* \"#utility.yul\":1586:1665   */\n      tag_160\n      tag_153\n      jump\t// in\n    tag_160:\n        /* \"#utility.yul\":1548:1667   */\n    tag_159:\n        /* \"#utility.yul\":1734:1735   */\n      0x00\n        /* \"#utility.yul\":1723:1732   */\n      dup4\n        /* \"#utility.yul\":1719:1736   */\n      add\n        /* \"#utility.yul\":1706:1737   */\n      calldataload\n        /* \"#utility.yul\":1764:1782   */\n      0xffffffffffffffff\n        /* \"#utility.yul\":1756:1762   */\n      dup2\n        /* \"#utility.yul\":1753:1783   */\n      gt\n        /* \"#utility.yul\":1750:1867   */\n      iszero\n      tag_161\n      jumpi\n        /* \"#utility.yul\":1786:1865   */\n      tag_162\n      tag_156\n      jump\t// in\n    tag_162:\n        /* \"#utility.yul\":1750:1867   */\n    tag_161:\n        /* \"#utility.yul\":1891:1954   */\n      tag_163\n        /* \"#utility.yul\":1946:1953   */\n      dup6\n        /* \"#utility.yul\":1937:1943   */\n      dup3\n        /* \"#utility.yul\":1926:1935   */\n      dup7\n        /* \"#utility.yul\":1922:1944   */\n      add\n        /* \"#utility.yul\":1891:1954   */\n      tag_140\n      jump\t// in\n    tag_163:\n        /* \"#utility.yul\":1881:1954   */\n      swap3\n      pop\n        /* \"#utility.yul\":1677:1964   */\n      pop\n        /* \"#utility.yul\":2003:2005   */\n      0x20\n        /* \"#utility.yul\":2029:2082   */\n      tag_164\n        /* \"#utility.yul\":2074:2081   */\n      dup6\n        /* \"#utility.yul\":2065:2071   */\n      dup3\n        /* \"#utility.yul\":2054:2063   */\n      dup7\n        /* \"#utility.yul\":2050:2072   */\n      add\n        /* \"#utility.yul\":2029:2082   */\n      tag_146\n      jump\t// in\n    tag_164:\n        /* \"#utility.yul\":2019:2082   */\n      swap2\n      pop\n        /* \"#utility.yul\":1974:2092   */\n      pop\n        /* \"#utility.yul\":1445:2099   */\n      swap3\n      pop\n      swap3\n      swap1\n      pop\n      jump\t// out\n        /* \"#utility.yul\":2105:2434   */\n    tag_35:\n        /* \"#utility.yul\":2164:2170   */\n      0x00\n        /* \"#utility.yul\":2213:2215   */\n      0x20\n        /* \"#utility.yul\":2201:2210   */\n      dup3\n        /* \"#utility.yul\":2192:2199   */\n      dup5\n        /* \"#utility.yul\":2188:2211   */\n      sub\n        /* \"#utility.yul\":2184:2216   */\n      slt\n        /* \"#utility.yul\":2181:2300   */\n      iszero\n      tag_166\n      jumpi\n        /* \"#utility.yul\":2219:2298   */\n      tag_167\n      tag_153\n      jump\t// in\n    tag_167:\n        /* \"#utility.yul\":2181:2300   */\n    tag_166:\n        /* \"#utility.yul\":2339:2340   */\n      0x00\n        /* \"#utility.yul\":2364:2417   */\n      tag_168\n        /* \"#utility.yul\":2409:2416   */\n      dup5\n        /* \"#utility.yul\":2400:2406   */\n      dup3\n        /* \"#utility.yul\":2389:2398   */\n      dup6\n        /* \"#utility.yul\":2385:2407   */\n      add\n        /* \"#utility.yul\":2364:2417   */\n      tag_146\n      jump\t// in\n    tag_168:\n        /* \"#utility.yul\":2354:2417   */\n      swap2\n      pop\n        /* \"#utility.yul\":2310:2427   */\n      pop\n        /* \"#utility.yul\":2105:2434   */\n      swap3\n      swap2\n      pop\n      pop\n      jump\t// out\n        /* \"#utility.yul\":2440:2558   */\n    tag_169:\n        /* \"#utility.yul\":2527:2551   */\n      tag_171\n        /* \"#utility.yul\":2545:2550   */\n      dup2\n        /* \"#utility.yul\":2527:2551   */\n      tag_172\n      jump\t// in\n    tag_171:\n        /* \"#utility.yul\":2522:2525   */\n      dup3\n        /* \"#utility.yul\":2515:2552   */\n      mstore\n        /* \"#utility.yul\":2440:2558   */\n      pop\n      pop\n      jump\t// out\n        /* \"#utility.yul\":2564:2673   */\n    tag_173:\n        /* \"#utility.yul\":2645:2666   */\n      tag_175\n        /* \"#utility.yul\":2660:2665   */\n      dup2\n        /* \"#utility.yul\":2645:2666   */\n      tag_176\n      jump\t// in\n    tag_175:\n        /* \"#utility.yul\":2640:2643   */\n      dup3\n        /* \"#utility.yul\":2633:2667   */\n      mstore\n        /* \"#utility.yul\":2564:2673   */\n      pop\n      pop\n      jump\t// out\n        /* \"#utility.yul\":2679:3043   */\n    tag_177:\n        /* \"#utility.yul\":2767:2770   */\n      0x00\n        /* \"#utility.yul\":2795:2834   */\n      tag_179\n        /* \"#utility.yul\":2828:2833   */\n      dup3\n        /* \"#utility.yul\":2795:2834   */\n      tag_180\n      jump\t// in\n    tag_179:\n        /* \"#utility.yul\":2850:2921   */\n      tag_181\n        /* \"#utility.yul\":2914:2920   */\n      dup2\n        /* \"#utility.yul\":2909:2912   */\n      dup6\n        /* \"#utility.yul\":2850:2921   */\n      tag_182\n      jump\t// in\n    tag_181:\n        /* \"#utility.yul\":2843:2921   */\n      swap4\n      pop\n        /* \"#utility.yul\":2930:2982   */\n      tag_183\n        /* \"#utility.yul\":2975:2981   */\n      dup2\n        /* \"#utility.yul\":2970:2973   */\n      dup6\n        /* \"#utility.yul\":2963:2967   */\n      0x20\n        /* \"#utility.yul\":2956:2961   */\n      dup7\n        /* \"#utility.yul\":2952:2968   */\n      add\n        /* \"#utility.yul\":2930:2982   */\n      tag_184\n      jump\t// in\n    tag_183:\n        /* \"#utility.yul\":3007:3036   */\n      tag_185\n        /* \"#utility.yul\":3029:3035   */\n      dup2\n        /* \"#utility.yul\":3007:3036   */\n      tag_186\n      jump\t// in\n    tag_185:\n        /* \"#utility.yul\":3002:3005   */\n      dup5\n        /* \"#utility.yul\":2998:3037   */\n      add\n        /* \"#utility.yul\":2991:3037   */\n      swap2\n      pop\n        /* \"#utility.yul\":2771:3043   */\n      pop\n        /* \"#utility.yul\":2679:3043   */\n      swap3\n      swap2\n      pop\n      pop\n      jump\t// out\n        /* \"#utility.yul\":3049:3426   */\n    tag_187:\n        /* \"#utility.yul\":3155:3158   */\n      0x00\n        /* \"#utility.yul\":3183:3222   */\n      tag_189\n        /* \"#utility.yul\":3216:3221   */\n      dup3\n        /* \"#utility.yul\":3183:3222   */\n      tag_180\n      jump\t// in\n    tag_189:\n        /* \"#utility.yul\":3238:3327   */\n      tag_190\n        /* \"#utility.yul\":3320:3326   */\n      dup2\n        /* \"#utility.yul\":3315:3318   */\n      dup6\n        /* \"#utility.yul\":3238:3327   */\n      tag_191\n      jump\t// in\n    tag_190:\n        /* \"#utility.yul\":3231:3327   */\n      swap4\n      pop\n        /* \"#utility.yul\":3336:3388   */\n      tag_192\n        /* \"#utility.yul\":3381:3387   */\n      dup2\n        /* \"#utility.yul\":3376:3379   */\n      dup6\n        /* \"#utility.yul\":3369:3373   */\n      0x20\n        /* \"#utility.yul\":3362:3367   */\n      dup7\n        /* \"#utility.yul\":3358:3374   */\n      add\n        /* \"#utility.yul\":3336:3388   */\n      tag_184\n      jump\t// in\n    tag_192:\n        /* \"#utility.yul\":3413:3419   */\n      dup1\n        /* \"#utility.yul\":3408:3411   */\n      dup5\n        /* \"#utility.yul\":3404:3420   */\n      add\n        /* \"#utility.yul\":3397:3420   */\n      swap2\n      pop\n        /* \"#utility.yul\":3159:3426   */\n      pop\n        /* \"#utility.yul\":3049:3426   */\n      swap3\n      swap2\n      pop\n      pop\n      jump\t// out\n        /* \"#utility.yul\":3432:3798   */\n    tag_193:\n        /* \"#utility.yul\":3574:3577   */\n      0x00\n        /* \"#utility.yul\":3595:3662   */\n      tag_195\n        /* \"#utility.yul\":3659:3661   */\n      0x19\n        /* \"#utility.yul\":3654:3657   */\n      dup4\n        /* \"#utility.yul\":3595:3662   */\n      tag_182\n      jump\t// in\n    tag_195:\n        /* \"#utility.yul\":3588:3662   */\n      swap2\n      pop\n        /* \"#utility.yul\":3671:3764   */\n      tag_196\n        /* \"#utility.yul\":3760:3763   */\n      dup3\n        /* \"#utility.yul\":3671:3764   */\n      tag_197\n      jump\t// in\n    tag_196:\n        /* \"#utility.yul\":3789:3791   */\n      0x20\n        /* \"#utility.yul\":3784:3787   */\n      dup3\n        /* \"#utility.yul\":3780:3792   */\n      add\n        /* \"#utility.yul\":3773:3792   */\n      swap1\n      pop\n        /* \"#utility.yul\":3432:3798   */\n      swap2\n      swap1\n      pop\n      jump\t// out\n        /* \"#utility.yul\":3804:3922   */\n    tag_198:\n        /* \"#utility.yul\":3891:3915   */\n      tag_200\n        /* \"#utility.yul\":3909:3914   */\n      dup2\n        /* \"#utility.yul\":3891:3915   */\n      tag_201\n      jump\t// in\n    tag_200:\n        /* \"#utility.yul\":3886:3889   */\n      dup3\n        /* \"#utility.yul\":3879:3916   */\n      mstore\n        /* \"#utility.yul\":3804:3922   */\n      pop\n      pop\n      jump\t// out\n        /* \"#utility.yul\":3928:4203   */\n    tag_105:\n        /* \"#utility.yul\":4060:4063   */\n      0x00\n        /* \"#utility.yul\":4082:4177   */\n      tag_203\n        /* \"#utility.yul\":4173:4176   */\n      dup3\n        /* \"#utility.yul\":4164:4170   */\n      dup5\n        /* \"#utility.yul\":4082:4177   */\n      tag_187\n      jump\t// in\n    tag_203:\n        /* \"#utility.yul\":4075:4177   */\n      swap2\n      pop\n        /* \"#utility.yul\":4194:4197   */\n      dup2\n        /* \"#utility.yul\":4187:4197   */\n      swap1\n      pop\n        /* \"#utility.yul\":3928:4203   */\n      swap3\n      swap2\n      pop\n      pop\n      jump\t// out\n        /* \"#utility.yul\":4209:4431   */\n    tag_28:\n        /* \"#utility.yul\":4302:4306   */\n      0x00\n        /* \"#utility.yul\":4340:4342   */\n      0x20\n        /* \"#utility.yul\":4329:4338   */\n      dup3\n        /* \"#utility.yul\":4325:4343   */\n      add\n        /* \"#utility.yul\":4317:4343   */\n      swap1\n      pop\n        /* \"#utility.yul\":4353:4424   */\n      tag_205\n        /* \"#utility.yul\":4421:4422   */\n      0x00\n        /* \"#utility.yul\":4410:4419   */\n      dup4\n        /* \"#utility.yul\":4406:4423   */\n      add\n        /* \"#utility.yul\":4397:4403   */\n      dup5\n        /* \"#utility.yul\":4353:4424   */\n      tag_169\n      jump\t// in\n    tag_205:\n        /* \"#utility.yul\":4209:4431   */\n      swap3\n      swap2\n      pop\n      pop\n      jump\t// out\n        /* \"#utility.yul\":4437:4647   */\n    tag_45:\n        /* \"#utility.yul\":4524:4528   */\n      0x00\n        /* \"#utility.yul\":4562:4564   */\n      0x20\n        /* \"#utility.yul\":4551:4560   */\n      dup3\n        /* \"#utility.yul\":4547:4565   */\n      add\n        /* \"#utility.yul\":4539:4565   */\n      swap1\n      pop\n        /* \"#utility.yul\":4575:4640   */\n      tag_207\n        /* \"#utility.yul\":4637:4638   */\n      0x00\n        /* \"#utility.yul\":4626:4635   */\n      dup4\n        /* \"#utility.yul\":4622:4639   */\n      add\n        /* \"#utility.yul\":4613:4619   */\n      dup5\n        /* \"#utility.yul\":4575:4640   */\n      tag_173\n      jump\t// in\n    tag_207:\n        /* \"#utility.yul\":4437:4647   */\n      swap3\n      swap2\n      pop\n      pop\n      jump\t// out\n        /* \"#utility.yul\":4653:4966   */\n    tag_24:\n        /* \"#utility.yul\":4766:4770   */\n      0x00\n        /* \"#utility.yul\":4804:4806   */\n      0x20\n        /* \"#utility.yul\":4793:4802   */\n      dup3\n        /* \"#utility.yul\":4789:4807   */\n      add\n        /* \"#utility.yul\":4781:4807   */\n      swap1\n      pop\n        /* \"#utility.yul\":4853:4862   */\n      dup2\n        /* \"#utility.yul\":4847:4851   */\n      dup2\n        /* \"#utility.yul\":4843:4863   */\n      sub\n        /* \"#utility.yul\":4839:4840   */\n      0x00\n        /* \"#utility.yul\":4828:4837   */\n      dup4\n        /* \"#utility.yul\":4824:4841   */\n      add\n        /* \"#utility.yul\":4817:4864   */\n      mstore\n        /* \"#utility.yul\":4881:4959   */\n      tag_209\n        /* \"#utility.yul\":4954:4958   */\n      dup2\n        /* \"#utility.yul\":4945:4951   */\n      dup5\n        /* \"#utility.yul\":4881:4959   */\n      tag_177\n      jump\t// in\n    tag_209:\n        /* \"#utility.yul\":4873:4959   */\n      swap1\n      pop\n        /* \"#utility.yul\":4653:4966   */\n      swap3\n      swap2\n      pop\n      pop\n      jump\t// out\n        /* \"#utility.yul\":4972:5391   */\n    tag_108:\n        /* \"#utility.yul\":5138:5142   */\n      0x00\n        /* \"#utility.yul\":5176:5178   */\n      0x20\n        /* \"#utility.yul\":5165:5174   */\n      dup3\n        /* \"#utility.yul\":5161:5179   */\n      add\n        /* \"#utility.yul\":5153:5179   */\n      swap1\n      pop\n        /* \"#utility.yul\":5225:5234   */\n      dup2\n        /* \"#utility.yul\":5219:5223   */\n      dup2\n        /* \"#utility.yul\":5215:5235   */\n      sub\n        /* \"#utility.yul\":5211:5212   */\n      0x00\n        /* \"#utility.yul\":5200:5209   */\n      dup4\n        /* \"#utility.yul\":5196:5213   */\n      add\n        /* \"#utility.yul\":5189:5236   */\n      mstore\n        /* \"#utility.yul\":5253:5384   */\n      tag_211\n        /* \"#utility.yul\":5379:5383   */\n      dup2\n        /* \"#utility.yul\":5253:5384   */\n      tag_193\n      jump\t// in\n    tag_211:\n        /* \"#utility.yul\":5245:5384   */\n      swap1\n      pop\n        /* \"#utility.yul\":4972:5391   */\n      swap2\n      swap1\n      pop\n      jump\t// out\n        /* \"#utility.yul\":5397:5619   */\n    tag_32:\n        /* \"#utility.yul\":5490:5494   */\n      0x00\n        /* \"#utility.yul\":5528:5530   */\n      0x20\n        /* \"#utility.yul\":5517:5526   */\n      dup3\n        /* \"#utility.yul\":5513:5531   */\n      add\n        /* \"#utility.yul\":5505:5531   */\n      swap1\n      pop\n        /* \"#utility.yul\":5541:5612   */\n      tag_213\n        /* \"#utility.yul\":5609:5610   */\n      0x00\n        /* \"#utility.yul\":5598:5607   */\n      dup4\n        /* \"#utility.yul\":5594:5611   */\n      add\n        /* \"#utility.yul\":5585:5591   */\n      dup5\n        /* \"#utility.yul\":5541:5612   */\n      tag_198\n      jump\t// in\n    tag_213:\n        /* \"#utility.yul\":5397:5619   */\n      swap3\n      swap2\n      pop\n      pop\n      jump\t// out\n        /* \"#utility.yul\":5625:5754   */\n    tag_134:\n        /* \"#utility.yul\":5659:5665   */\n      0x00\n        /* \"#utility.yul\":5686:5706   */\n      tag_215\n      tag_216\n      jump\t// in\n    tag_215:\n        /* \"#utility.yul\":5676:5706   */\n      swap1\n      pop\n        /* \"#utility.yul\":5715:5748   */\n      tag_217\n        /* \"#utility.yul\":5743:5747   */\n      dup3\n        /* \"#utility.yul\":5735:5741   */\n      dup3\n        /* \"#utility.yul\":5715:5748   */\n      tag_218\n      jump\t// in\n    tag_217:\n        /* \"#utility.yul\":5625:5754   */\n      swap2\n      swap1\n      pop\n      jump\t// out\n        /* \"#utility.yul\":5760:5835   */\n    tag_216:\n        /* \"#utility.yul\":5793:5799   */\n      0x00\n        /* \"#utility.yul\":5826:5828   */\n      0x40\n        /* \"#utility.yul\":5820:5829   */\n      mload\n        /* \"#utility.yul\":5810:5829   */\n      swap1\n      pop\n        /* \"#utility.yul\":5760:5835   */\n      swap1\n      jump\t// out\n        /* \"#utility.yul\":5841:6149   */\n    tag_133:\n        /* \"#utility.yul\":5903:5907   */\n      0x00\n        /* \"#utility.yul\":5993:6011   */\n      0xffffffffffffffff\n        /* \"#utility.yul\":5985:5991   */\n      dup3\n        /* \"#utility.yul\":5982:6012   */\n      gt\n        /* \"#utility.yul\":5979:6035   */\n      iszero\n      tag_221\n      jumpi\n        /* \"#utility.yul\":6015:6033   */\n      tag_222\n      tag_223\n      jump\t// in\n    tag_222:\n        /* \"#utility.yul\":5979:6035   */\n    tag_221:\n        /* \"#utility.yul\":6053:6082   */\n      tag_224\n        /* \"#utility.yul\":6075:6081   */\n      dup3\n        /* \"#utility.yul\":6053:6082   */\n      tag_186\n      jump\t// in\n    tag_224:\n        /* \"#utility.yul\":6045:6082   */\n      swap1\n      pop\n        /* \"#utility.yul\":6137:6141   */\n      0x20\n        /* \"#utility.yul\":6131:6135   */\n      dup2\n        /* \"#utility.yul\":6127:6142   */\n      add\n        /* \"#utility.yul\":6119:6142   */\n      swap1\n      pop\n        /* \"#utility.yul\":5841:6149   */\n      swap2\n      swap1\n      pop\n      jump\t// out\n        /* \"#utility.yul\":6155:6254   */\n    tag_180:\n        /* \"#utility.yul\":6207:6213   */\n      0x00\n        /* \"#utility.yul\":6241:6246   */\n      dup2\n        /* \"#utility.yul\":6235:6247   */\n      mload\n        /* \"#utility.yul\":6225:6247   */\n      swap1\n      pop\n        /* \"#utility.yul\":6155:6254   */\n      swap2\n      swap1\n      pop\n      jump\t// out\n        /* \"#utility.yul\":6260:6429   */\n    tag_182:\n        /* \"#utility.yul\":6344:6355   */\n      0x00\n        /* \"#utility.yul\":6378:6384   */\n      dup3\n        /* \"#utility.yul\":6373:6376   */\n      dup3\n        /* \"#utility.yul\":6366:6385   */\n      mstore\n        /* \"#utility.yul\":6418:6422   */\n      0x20\n        /* \"#utility.yul\":6413:6416   */\n      dup3\n        /* \"#utility.yul\":6409:6423   */\n      add\n        /* \"#utility.yul\":6394:6423   */\n      swap1\n      pop\n        /* \"#utility.yul\":6260:6429   */\n      swap3\n      swap2\n      pop\n      pop\n      jump\t// out\n        /* \"#utility.yul\":6435:6583   */\n    tag_191:\n        /* \"#utility.yul\":6537:6548   */\n      0x00\n        /* \"#utility.yul\":6574:6577   */\n      dup2\n        /* \"#utility.yul\":6559:6577   */\n      swap1\n      pop\n        /* \"#utility.yul\":6435:6583   */\n      swap3\n      swap2\n      pop\n      pop\n      jump\t// out\n        /* \"#utility.yul\":6589:6894   */\n    tag_102:\n        /* \"#utility.yul\":6629:6632   */\n      0x00\n        /* \"#utility.yul\":6648:6668   */\n      tag_229\n        /* \"#utility.yul\":6666:6667   */\n      dup3\n        /* \"#utility.yul\":6648:6668   */\n      tag_201\n      jump\t// in\n    tag_229:\n        /* \"#utility.yul\":6643:6668   */\n      swap2\n      pop\n        /* \"#utility.yul\":6682:6702   */\n      tag_230\n        /* \"#utility.yul\":6700:6701   */\n      dup4\n        /* \"#utility.yul\":6682:6702   */\n      tag_201\n      jump\t// in\n    tag_230:\n        /* \"#utility.yul\":6677:6702   */\n      swap3\n      pop\n        /* \"#utility.yul\":6836:6837   */\n      dup3\n        /* \"#utility.yul\":6768:6834   */\n      0xffffffffffffffffffffffffffffffffffffffffffffffffffffffffffffffff\n        /* \"#utility.yul\":6764:6838   */\n      sub\n        /* \"#utility.yul\":6761:6762   */\n      dup3\n        /* \"#utility.yul\":6758:6839   */\n      gt\n        /* \"#utility.yul\":6755:6862   */\n      iszero\n      tag_231\n      jumpi\n        /* \"#utility.yul\":6842:6860   */\n      tag_232\n      tag_233\n      jump\t// in\n    tag_232:\n        /* \"#utility.yul\":6755:6862   */\n    tag_231:\n        /* \"#utility.yul\":6886:6887   */\n      dup3\n        /* \"#utility.yul\":6883:6884   */\n      dup3\n        /* \"#utility.yul\":6879:6888   */\n      add\n        /* \"#utility.yul\":6872:6888   */\n      swap1\n      pop\n        /* \"#utility.yul\":6589:6894   */\n      swap3\n      swap2\n      pop\n      pop\n      jump\t// out\n        /* \"#utility.yul\":6900:6996   */\n    tag_172:\n        /* \"#utility.yul\":6937:6944   */\n      0x00\n        /* \"#utility.yul\":6966:6990   */\n      tag_235\n        /* \"#utility.yul\":6984:6989   */\n      dup3\n        /* \"#utility.yul\":6966:6990   */\n      tag_236\n      jump\t// in\n    tag_235:\n        /* \"#utility.yul\":6955:6990   */\n      swap1\n      pop\n        /* \"#utility.yul\":6900:6996   */\n      swap2\n      swap1\n      pop\n      jump\t// out\n        /* \"#utility.yul\":7002:7092   */\n    tag_176:\n        /* \"#utility.yul\":7036:7043   */\n      0x00\n        /* \"#utility.yul\":7079:7084   */\n      dup2\n        /* \"#utility.yul\":7072:7085   */\n      iszero\n        /* \"#utility.yul\":7065:7086   */\n      iszero\n        /* \"#utility.yul\":7054:7086   */\n      swap1\n      pop\n        /* \"#utility.yul\":7002:7092   */\n      swap2\n      swap1\n      pop\n      jump\t// out\n        /* \"#utility.yul\":7098:7224   */\n    tag_236:\n        /* \"#utility.yul\":7135:7142   */\n      0x00\n        /* \"#utility.yul\":7175:7217   */\n      0xffffffffffffffffffffffffffffffffffffffff\n        /* \"#utility.yul\":7168:7173   */\n      dup3\n        /* \"#utility.yul\":7164:7218   */\n      and\n        /* \"#utility.yul\":7153:7218   */\n      swap1\n      pop\n        /* \"#utility.yul\":7098:7224   */\n      swap2\n      swap1\n      pop\n      jump\t// out\n        /* \"#utility.yul\":7230:7307   */\n    tag_201:\n        /* \"#utility.yul\":7267:7274   */\n      0x00\n        /* \"#utility.yul\":7296:7301   */\n      dup2\n        /* \"#utility.yul\":7285:7301   */\n      swap1\n      pop\n        /* \"#utility.yul\":7230:7307   */\n      swap2\n      swap1\n      pop\n      jump\t// out\n        /* \"#utility.yul\":7313:7467   */\n    tag_139:\n        /* \"#utility.yul\":7397:7403   */\n      dup3\n        /* \"#utility.yul\":7392:7395   */\n      dup2\n        /* \"#utility.yul\":7387:7390   */\n      dup4\n        /* \"#utility.yul\":7374:7404   */\n      calldatacopy\n        /* \"#utility.yul\":7459:7460   */\n      0x00\n        /* \"#utility.yul\":7450:7456   */\n      dup4\n        /* \"#utility.yul\":7445:7448   */\n      dup4\n        /* \"#utility.yul\":7441:7457   */\n      add\n        /* \"#utility.yul\":7434:7461   */\n      mstore\n        /* \"#utility.yul\":7313:7467   */\n      pop\n      pop\n      pop\n      jump\t// out\n        /* \"#utility.yul\":7473:7780   */\n    tag_184:\n        /* \"#utility.yul\":7541:7542   */\n      0x00\n        /* \"#utility.yul\":7551:7664   */\n    tag_242:\n        /* \"#utility.yul\":7565:7571   */\n      dup4\n        /* \"#utility.yul\":7562:7563   */\n      dup2\n        /* \"#utility.yul\":7559:7572   */\n      lt\n        /* \"#utility.yul\":7551:7664   */\n      iszero\n      tag_244\n      jumpi\n        /* \"#utility.yul\":7650:7651   */\n      dup1\n        /* \"#utility.yul\":7645:7648   */\n      dup3\n        /* \"#utility.yul\":7641:7652   */\n      add\n        /* \"#utility.yul\":7635:7653   */\n      mload\n        /* \"#utility.yul\":7631:7632   */\n      dup2\n        /* \"#utility.yul\":7626:7629   */\n      dup5\n        /* \"#utility.yul\":7622:7633   */\n      add\n        /* \"#utility.yul\":7615:7654   */\n      mstore\n        /* \"#utility.yul\":7587:7589   */\n      0x20\n        /* \"#utility.yul\":7584:7585   */\n      dup2\n        /* \"#utility.yul\":7580:7590   */\n      add\n        /* \"#utility.yul\":7575:7590   */\n      swap1\n      pop\n        /* \"#utility.yul\":7551:7664   */\n      jump(tag_242)\n    tag_244:\n        /* \"#utility.yul\":7682:7688   */\n      dup4\n        /* \"#utility.yul\":7679:7680   */\n      dup2\n        /* \"#utility.yul\":7676:7689   */\n      gt\n        /* \"#utility.yul\":7673:7774   */\n      iszero\n      tag_245\n      jumpi\n        /* \"#utility.yul\":7762:7763   */\n      0x00\n        /* \"#utility.yul\":7753:7759   */\n      dup5\n        /* \"#utility.yul\":7748:7751   */\n      dup5\n        /* \"#utility.yul\":7744:7760   */\n      add\n        /* \"#utility.yul\":7737:7764   */\n      mstore\n        /* \"#utility.yul\":7673:7774   */\n    tag_245:\n        /* \"#utility.yul\":7522:7780   */\n      pop\n        /* \"#utility.yul\":7473:7780   */\n      pop\n      pop\n      pop\n      jump\t// out\n        /* \"#utility.yul\":7786:8106   */\n    tag_78:\n        /* \"#utility.yul\":7830:7836   */\n      0x00\n        /* \"#utility.yul\":7867:7868   */\n      0x02\n        /* \"#utility.yul\":7861:7865   */\n      dup3\n        /* \"#utility.yul\":7857:7869   */\n      div\n        /* \"#utility.yul\":7847:7869   */\n      swap1\n      pop\n        /* \"#utility.yul\":7914:7915   */\n      0x01\n        /* \"#utility.yul\":7908:7912   */\n      dup3\n        /* \"#utility.yul\":7904:7916   */\n      and\n        /* \"#utility.yul\":7935:7953   */\n      dup1\n        /* \"#utility.yul\":7925:8006   */\n      tag_247\n      jumpi\n        /* \"#utility.yul\":7991:7995   */\n      0x7f\n        /* \"#utility.yul\":7983:7989   */\n      dup3\n        /* \"#utility.yul\":7979:7996   */\n      and\n        /* \"#utility.yul\":7969:7996   */\n      swap2\n      pop\n        /* \"#utility.yul\":7925:8006   */\n    tag_247:\n        /* \"#utility.yul\":8053:8055   */\n      0x20\n        /* \"#utility.yul\":8045:8051   */\n      dup3\n        /* \"#utility.yul\":8042:8056   */\n      lt\n        /* \"#utility.yul\":8022:8040   */\n      dup2\n        /* \"#utility.yul\":8019:8057   */\n      eq\n        /* \"#utility.yul\":8016:8100   */\n      iszero\n      tag_248\n      jumpi\n        /* \"#utility.yul\":8072:8090   */\n      tag_249\n      tag_250\n      jump\t// in\n    tag_249:\n        /* \"#utility.yul\":8016:8100   */\n    tag_248:\n        /* \"#utility.yul\":7837:8106   */\n      pop\n        /* \"#utility.yul\":7786:8106   */\n      swap2\n      swap1\n      pop\n      jump\t// out\n        /* \"#utility.yul\":8112:8393   */\n    tag_218:\n        /* \"#utility.yul\":8195:8222   */\n      tag_252\n        /* \"#utility.yul\":8217:8221   */\n      dup3\n        /* \"#utility.yul\":8195:8222   */\n      tag_186\n      jump\t// in\n    tag_252:\n        /* \"#utility.yul\":8187:8193   */\n      dup2\n        /* \"#utility.yul\":8183:8223   */\n      add\n        /* \"#utility.yul\":8325:8331   */\n      dup2\n        /* \"#utility.yul\":8313:8323   */\n      dup2\n        /* \"#utility.yul\":8310:8332   */\n      lt\n        /* \"#utility.yul\":8289:8307   */\n      0xffffffffffffffff\n        /* \"#utility.yul\":8277:8287   */\n      dup3\n        /* \"#utility.yul\":8274:8308   */\n      gt\n        /* \"#utility.yul\":8271:8333   */\n      or\n        /* \"#utility.yul\":8268:8356   */\n      iszero\n      tag_253\n      jumpi\n        /* \"#utility.yul\":8336:8354   */\n      tag_254\n      tag_223\n      jump\t// in\n    tag_254:\n        /* \"#utility.yul\":8268:8356   */\n    tag_253:\n        /* \"#utility.yul\":8376:8386   */\n      dup1\n        /* \"#utility.yul\":8372:8374   */\n      0x40\n        /* \"#utility.yul\":8365:8387   */\n      mstore\n        /* \"#utility.yul\":8155:8393   */\n      pop\n        /* \"#utility.yul\":8112:8393   */\n      pop\n      pop\n      jump\t// out\n        /* \"#utility.yul\":8399:8579   */\n    tag_233:\n        /* \"#utility.yul\":8447:8524   */\n      0x4e487b7100000000000000000000000000000000000000000000000000000000\n        /* \"#utility.yul\":8444:8445   */\n      0x00\n        /* \"#utility.yul\":8437:8525   */\n      mstore\n        /* \"#utility.yul\":8544:8548   */\n      0x11\n        /* \"#utility.yul\":8541:8542   */\n      0x04\n        /* \"#utility.yul\":8534:8549   */\n      mstore\n        /* \"#utility.yul\":8568:8572   */\n      0x24\n        /* \"#utility.yul\":8565:8566   */\n      0x00\n        /* \"#utility.yul\":8558:8573   */\n      revert\n        /* \"#utility.yul\":8585:8765   */\n    tag_250:\n        /* \"#utility.yul\":8633:8710   */\n      0x4e487b7100000000000000000000000000000000000000000000000000000000\n        /* \"#utility.yul\":8630:8631   */\n      0x00\n        /* \"#utility.yul\":8623:8711   */\n      mstore\n        /* \"#utility.yul\":8730:8734   */\n      0x22\n        /* \"#utility.yul\":8727:8728   */\n      0x04\n        /* \"#utility.yul\":8720:8735   */\n      mstore\n        /* \"#utility.yul\":8754:8758   */\n      0x24\n        /* \"#utility.yul\":8751:8752   */\n      0x00\n        /* \"#utility.yul\":8744:8759   */\n      revert\n        /* \"#utility.yul\":8771:8951   */\n    tag_223:\n        /* \"#utility.yul\":8819:8896   */\n      0x4e487b7100000000000000000000000000000000000000000000000000000000\n        /* \"#utility.yul\":8816:8817   */\n      0x00\n        /* \"#utility.yul\":8809:8897   */\n      mstore\n        /* \"#utility.yul\":8916:8920   */\n      0x41\n        /* \"#utility.yul\":8913:8914   */\n      0x04\n        /* \"#utility.yul\":8906:8921   */\n      mstore\n        /* \"#utility.yul\":8940:8944   */\n      0x24\n        /* \"#utility.yul\":8937:8938   */\n      0x00\n        /* \"#utility.yul\":8930:8945   */\n      revert\n        /* \"#utility.yul\":8957:9074   */\n    tag_144:\n        /* \"#utility.yul\":9066:9067   */\n      0x00\n        /* \"#utility.yul\":9063:9064   */\n      dup1\n        /* \"#utility.yul\":9056:9068   */\n      revert\n        /* \"#utility.yul\":9080:9197   */\n    tag_137:\n        /* \"#utility.yul\":9189:9190   */\n      0x00\n        /* \"#utility.yul\":9186:9187   */\n      dup1\n        /* \"#utility.yul\":9179:9191   */\n      revert\n        /* \"#utility.yul\":9203:9320   */\n    tag_156:\n        /* \"#utility.yul\":9312:9313   */\n      0x00\n        /* \"#utility.yul\":9309:9310   */\n      dup1\n        /* \"#utility.yul\":9302:9314   */\n      revert\n        /* \"#utility.yul\":9326:9443   */\n    tag_153:\n        /* \"#utility.yul\":9435:9436   */\n      0x00\n        /* \"#utility.yul\":9432:9433   */\n      dup1\n        /* \"#utility.yul\":9425:9437   */\n      revert\n        /* \"#utility.yul\":9449:9551   */\n    tag_186:\n        /* \"#utility.yul\":9490:9496   */\n      0x00\n        /* \"#utility.yul\":9541:9543   */\n      0x1f\n        /* \"#utility.yul\":9537:9544   */\n      not\n        /* \"#utility.yul\":9532:9534   */\n      0x1f\n        /* \"#utility.yul\":9525:9530   */\n      dup4\n        /* \"#utility.yul\":9521:9535   */\n      add\n        /* \"#utility.yul\":9517:9545   */\n      and\n        /* \"#utility.yul\":9507:9545   */\n      swap1\n      pop\n        /* \"#utility.yul\":9449:9551   */\n      swap2\n      swap1\n      pop\n      jump\t// out\n        /* \"#utility.yul\":9557:9732   */\n    tag_197:\n        /* \"#utility.yul\":9697:9724   */\n      0x546f6e7920616c72656164792068617320746869732063617200000000000000\n        /* \"#utility.yul\":9693:9694   */\n      0x00\n        /* \"#utility.yul\":9685:9691   */\n      dup3\n        /* \"#utility.yul\":9681:9695   */\n      add\n        /* \"#utility.yul\":9674:9725   */\n      mstore\n        /* \"#utility.yul\":9557:9732   */\n      pop\n      jump\t// out\n        /* \"#utility.yul\":9738:9860   */\n    tag_149:\n        /* \"#utility.yul\":9811:9835   */\n      tag_265\n        /* \"#utility.yul\":9829:9834   */\n      dup2\n        /* \"#utility.yul\":9811:9835   */\n      tag_201\n      jump\t// in\n    tag_265:\n        /* \"#utility.yul\":9804:9809   */\n      dup2\n        /* \"#utility.yul\":9801:9836   */\n      eq\n        /* \"#utility.yul\":9791:9854   */\n      tag_266\n      jumpi\n        /* \"#utility.yul\":9850:9851   */\n      0x00\n        /* \"#utility.yul\":9847:9848   */\n      dup1\n        /* \"#utility.yul\":9840:9852   */\n      revert\n        /* \"#utility.yul\":9791:9854   */\n    tag_266:\n        /* \"#utility.yul\":9738:9860   */\n      pop\n      jump\t// out\n\n    auxdata: 0xa26469706673582212205b4a43ddaf46169bc5ba93077e1c1f571afcde9f2e2048f00b40f5f2de7cc3d864736f6c63430008070033\n}\n",
				"bytecode": {
					"linkReferences": {},
					"object": "6080604052600080556040518060400160405280600b81526020017f546f6e792053747261726b000000000000000000000000000000000000000000815250600190805190602001906200005592919062000207565b5060306002556001600360006101000a81548160ff02191690831515021790555060405180606001604052806040518060400160405280600781526020017f706c6179626f790000000000000000000000000000000000000000000000000081525081526020016040518060400160405280600881526020017f656e67696e65657200000000000000000000000000000000000000000000000081525081526020016040518060400160405280600481526020017f6865726f0000000000000000000000000000000000000000000000000000000081525081525060059060036200014292919062000298565b503480156200015057600080fd5b506040516200128d3803806200128d8339818101604052810190620001769190620003ba565b33600860006101000a81548173ffffffffffffffffffffffffffffffffffffffff021916908373ffffffffffffffffffffffffffffffffffffffff1602179055508160048190555080600660006101000a81548173ffffffffffffffffffffffffffffffffffffffff021916908373ffffffffffffffffffffffffffffffffffffffff1602179055505050620004dd565b82805462000215906200043f565b90600052602060002090601f01602090048101928262000239576000855562000285565b82601f106200025457805160ff191683800117855562000285565b8280016001018555821562000285579182015b828111156200028457825182559160200191906001019062000267565b5b509050620002949190620002ff565b5090565b828054828255906000526020600020908101928215620002ec579160200282015b82811115620002eb578251829080519060200190620002da92919062000207565b5091602001919060010190620002b9565b5b509050620002fb91906200031e565b5090565b5b808211156200031a57600081600090555060010162000300565b5090565b5b8082111562000342576000818162000338919062000346565b506001016200031f565b5090565b50805462000354906200043f565b6000825580601f1062000368575062000389565b601f016020900490600052602060002090810190620003889190620002ff565b5b50565b6000815190506200039d81620004a9565b92915050565b600081519050620003b481620004c3565b92915050565b60008060408385031215620003d457620003d3620004a4565b5b6000620003e485828601620003a3565b9250506020620003f7858286016200038c565b9150509250929050565b60006200040e8262000415565b9050919050565b600073ffffffffffffffffffffffffffffffffffffffff82169050919050565b6000819050919050565b600060028204905060018216806200045857607f821691505b602082108114156200046f576200046e62000475565b5b50919050565b7f4e487b7100000000000000000000000000000000000000000000000000000000600052602260045260246000fd5b600080fd5b620004b48162000401565b8114620004c057600080fd5b50565b620004ce8162000435565b8114620004da57600080fd5b50565b610da080620004ed6000396000f3fe608060405234801561001057600080fd5b50600436106100f55760003560e01c806387e8599f11610097578063cfb5843c11610066578063cfb5843c14610278578063ef483e8214610294578063fc5636581461029e578063fcc9e5c5146102ce576100f5565b806387e8599f146102025780638da5cb5b14610220578063965ac0c51461023e578063b69ef8a81461025a576100f5565b8063449549d5116100d3578063449549d5146101545780635cd836a314610184578063654a573c146101b4578063853320e3146101d2576100f5565b806306fdde03146100fa5780631329960414610118578063262a9dff14610136575b600080fd5b6101026102fe565b60405161010f9190610a5b565b60405180910390f35b61012061038c565b60405161012d9190610a25565b60405180910390f35b61013e610410565b60405161014b9190610a9d565b60405180910390f35b61016e60048036038101906101699190610927565b610416565b60405161017b9190610a5b565b60405180910390f35b61019e60048036038101906101999190610927565b6104c2565b6040516101ab9190610a5b565b60405180910390f35b6101bc61056e565b6040516101c99190610a40565b60405180910390f35b6101ec60048036038101906101e79190610882565b610581565b6040516101f99190610a9d565b60405180910390f35b61020a6105af565b6040516102179190610a9d565b60405180910390f35b6102286105c5565b6040516102359190610a25565b60405180910390f35b610258600480360381019061025391906108cb565b6105eb565b005b6102626106bb565b60405161026f9190610a9d565b60405180910390f35b610292600480360381019061028d9190610882565b6106c1565b005b61029c610700565b005b6102b860048036038101906102b39190610927565b610702565b6040516102c59190610a9d565b60405180910390f35b6102e860048036038101906102e39190610882565b610724565b6040516102f59190610a40565b60405180910390f35b6001805461030b90610c15565b80601f016020809104026020016040519081016040528092919081815260200182805461033790610c15565b80156103845780601f1061035957610100808354040283529160200191610384565b820191906000526020600020905b81548152906001019060200180831161036757829003601f168201915b505050505081565b6000600860009054906101000a900473ffffffffffffffffffffffffffffffffffffffff1673ffffffffffffffffffffffffffffffffffffffff163373ffffffffffffffffffffffffffffffffffffffff16146103e857600080fd5b600660009054906101000a900473ffffffffffffffffffffffffffffffffffffffff16905090565b60025481565b6007818154811061042657600080fd5b90600052602060002001600091509050805461044190610c15565b80601f016020809104026020016040519081016040528092919081815260200182805461046d90610c15565b80156104ba5780601f1061048f576101008083540402835291602001916104ba565b820191906000526020600020905b81548152906001019060200180831161049d57829003601f168201915b505050505081565b600581815481106104d257600080fd5b9060005260206000200160009150905080546104ed90610c15565b80601f016020809104026020016040519081016040528092919081815260200182805461051990610c15565b80156105665780601f1061053b57610100808354040283529160200191610566565b820191906000526020600020905b81548152906001019060200180831161054957829003601f168201915b505050505081565b600360009054906101000a900460ff1681565b6009818051602081018201805184825260208301602085012081835280955050505050506000915090505481565b600060016000546105c09190610b35565b905090565b600860009054906101000a900473ffffffffffffffffffffffffffffffffffffffff1681565b60001515600a836040516105ff9190610a0e565b908152602001604051809103902060009054906101000a900460ff1615151461065d576040517f08c379a000000000000000000000000000000000000000000000000000000000815260040161065490610a7d565b60405180910390fd5b8060098360405161066e9190610a0e565b9081526020016040518091039020819055506001600a836040516106929190610a0e565b908152602001604051809103902060006101000a81548160ff0219169083151502179055505050565b60045481565b6007819080600181540180825580915050600190039060005260206000200160009091909190915090805190602001906106fc92919061075a565b5050565b565b6000808290506000816000546107189190610b35565b90508092505050919050565b600a818051602081018201805184825260208301602085012081835280955050505050506000915054906101000a900460ff1681565b82805461076690610c15565b90600052602060002090601f01602090048101928261078857600085556107cf565b82601f106107a157805160ff19168380011785556107cf565b828001600101855582156107cf579182015b828111156107ce5782518255916020019190600101906107b3565b5b5090506107dc91906107e0565b5090565b5b808211156107f95760008160009055506001016107e1565b5090565b600061081061080b84610add565b610ab8565b90508281526020810184848401111561082c5761082b610d0a565b5b610837848285610bd3565b509392505050565b600082601f83011261085457610853610d05565b5b81356108648482602086016107fd565b91505092915050565b60008135905061087c81610d53565b92915050565b60006020828403121561089857610897610d14565b5b600082013567ffffffffffffffff8111156108b6576108b5610d0f565b5b6108c28482850161083f565b91505092915050565b600080604083850312156108e2576108e1610d14565b5b600083013567ffffffffffffffff811115610900576108ff610d0f565b5b61090c8582860161083f565b925050602061091d8582860161086d565b9150509250929050565b60006020828403121561093d5761093c610d14565b5b600061094b8482850161086d565b91505092915050565b61095d81610b8b565b82525050565b61096c81610b9d565b82525050565b600061097d82610b0e565b6109878185610b19565b9350610997818560208601610be2565b6109a081610d19565b840191505092915050565b60006109b682610b0e565b6109c08185610b2a565b93506109d0818560208601610be2565b80840191505092915050565b60006109e9601983610b19565b91506109f482610d2a565b602082019050919050565b610a0881610bc9565b82525050565b6000610a1a82846109ab565b915081905092915050565b6000602082019050610a3a6000830184610954565b92915050565b6000602082019050610a556000830184610963565b92915050565b60006020820190508181036000830152610a758184610972565b905092915050565b60006020820190508181036000830152610a96816109dc565b9050919050565b6000602082019050610ab260008301846109ff565b92915050565b6000610ac2610ad3565b9050610ace8282610c47565b919050565b6000604051905090565b600067ffffffffffffffff821115610af857610af7610cd6565b5b610b0182610d19565b9050602081019050919050565b600081519050919050565b600082825260208201905092915050565b600081905092915050565b6000610b4082610bc9565b9150610b4b83610bc9565b9250827fffffffffffffffffffffffffffffffffffffffffffffffffffffffffffffffff03821115610b8057610b7f610c78565b5b828201905092915050565b6000610b9682610ba9565b9050919050565b60008115159050919050565b600073ffffffffffffffffffffffffffffffffffffffff82169050919050565b6000819050919050565b82818337600083830152505050565b60005b83811015610c00578082015181840152602081019050610be5565b83811115610c0f576000848401525b50505050565b60006002820490506001821680610c2d57607f821691505b60208210811415610c4157610c40610ca7565b5b50919050565b610c5082610d19565b810181811067ffffffffffffffff82111715610c6f57610c6e610cd6565b5b80604052505050565b7f4e487b7100000000000000000000000000000000000000000000000000000000600052601160045260246000fd5b7f4e487b7100000000000000000000000000000000000000000000000000000000600052602260045260246000fd5b7f4e487b7100000000000000000000000000000000000000000000000000000000600052604160045260246000fd5b600080fd5b600080fd5b600080fd5b600080fd5b6000601f19601f8301169050919050565b7f546f6e7920616c72656164792068617320746869732063617200000000000000600082015250565b610d5c81610bc9565b8114610d6757600080fd5b5056fea26469706673582212205b4a43ddaf46169bc5ba93077e1c1f571afcde9f2e2048f00b40f5f2de7cc3d864736f6c63430008070033",
					"opcodes": "PUSH1 0x80 PUSH1 0x40 MSTORE PUSH1 0x0 DUP1 SSTORE PUSH1 0x40 MLOAD DUP1 PUSH1 0x40 ADD PUSH1 0x40 MSTORE DUP1 PUSH1 0xB DUP2 MSTORE PUSH1 0x20 ADD PUSH32 0x546F6E792053747261726B000000000000000000000000000000000000000000 DUP2 MSTORE POP PUSH1 0x1 SWAP1 DUP1 MLOAD SWAP1 PUSH1 0x20 ADD SWAP1 PUSH3 0x55 SWAP3 SWAP2 SWAP1 PUSH3 0x207 JUMP JUMPDEST POP PUSH1 0x30 PUSH1 0x2 SSTORE PUSH1 0x1 PUSH1 0x3 PUSH1 0x0 PUSH2 0x100 EXP DUP2 SLOAD DUP2 PUSH1 0xFF MUL NOT AND SWAP1 DUP4 ISZERO ISZERO MUL OR SWAP1 SSTORE POP PUSH1 0x40 MLOAD DUP1 PUSH1 0x60 ADD PUSH1 0x40 MSTORE DUP1 PUSH1 0x40 MLOAD DUP1 PUSH1 0x40 ADD PUSH1 0x40 MSTORE DUP1 PUSH1 0x7 DUP2 MSTORE PUSH1 0x20 ADD PUSH32 0x706C6179626F7900000000000000000000000000000000000000000000000000 DUP2 MSTORE POP DUP2 MSTORE PUSH1 0x20 ADD PUSH1 0x40 MLOAD DUP1 PUSH1 0x40 ADD PUSH1 0x40 MSTORE DUP1 PUSH1 0x8 DUP2 MSTORE PUSH1 0x20 ADD PUSH32 0x656E67696E656572000000000000000000000000000000000000000000000000 DUP2 MSTORE POP DUP2 MSTORE PUSH1 0x20 ADD PUSH1 0x40 MLOAD DUP1 PUSH1 0x40 ADD PUSH1 0x40 MSTORE DUP1 PUSH1 0x4 DUP2 MSTORE PUSH1 0x20 ADD PUSH32 0x6865726F00000000000000000000000000000000000000000000000000000000 DUP2 MSTORE POP DUP2 MSTORE POP PUSH1 0x5 SWAP1 PUSH1 0x3 PUSH3 0x142 SWAP3 SWAP2 SWAP1 PUSH3 0x298 JUMP JUMPDEST POP CALLVALUE DUP1 ISZERO PUSH3 0x150 JUMPI PUSH1 0x0 DUP1 REVERT JUMPDEST POP PUSH1 0x40 MLOAD PUSH3 0x128D CODESIZE SUB DUP1 PUSH3 0x128D DUP4 CODECOPY DUP2 DUP2 ADD PUSH1 0x40 MSTORE DUP2 ADD SWAP1 PUSH3 0x176 SWAP2 SWAP1 PUSH3 0x3BA JUMP JUMPDEST CALLER PUSH1 0x8 PUSH1 0x0 PUSH2 0x100 EXP DUP2 SLOAD DUP2 PUSH20 0xFFFFFFFFFFFFFFFFFFFFFFFFFFFFFFFFFFFFFFFF MUL NOT AND SWAP1 DUP4 PUSH20 0xFFFFFFFFFFFFFFFFFFFFFFFFFFFFFFFFFFFFFFFF AND MUL OR SWAP1 SSTORE POP DUP2 PUSH1 0x4 DUP2 SWAP1 SSTORE POP DUP1 PUSH1 0x6 PUSH1 0x0 PUSH2 0x100 EXP DUP2 SLOAD DUP2 PUSH20 0xFFFFFFFFFFFFFFFFFFFFFFFFFFFFFFFFFFFFFFFF MUL NOT AND SWAP1 DUP4 PUSH20 0xFFFFFFFFFFFFFFFFFFFFFFFFFFFFFFFFFFFFFFFF AND MUL OR SWAP1 SSTORE POP POP POP PUSH3 0x4DD JUMP JUMPDEST DUP3 DUP1 SLOAD PUSH3 0x215 SWAP1 PUSH3 0x43F JUMP JUMPDEST SWAP1 PUSH1 0x0 MSTORE PUSH1 0x20 PUSH1 0x0 KECCAK256 SWAP1 PUSH1 0x1F ADD PUSH1 0x20 SWAP1 DIV DUP2 ADD SWAP3 DUP3 PUSH3 0x239 JUMPI PUSH1 0x0 DUP6 SSTORE PUSH3 0x285 JUMP JUMPDEST DUP3 PUSH1 0x1F LT PUSH3 0x254 JUMPI DUP1 MLOAD PUSH1 0xFF NOT AND DUP4 DUP1 ADD OR DUP6 SSTORE PUSH3 0x285 JUMP JUMPDEST DUP3 DUP1 ADD PUSH1 0x1 ADD DUP6 SSTORE DUP3 ISZERO PUSH3 0x285 JUMPI SWAP2 DUP3 ADD JUMPDEST DUP3 DUP2 GT ISZERO PUSH3 0x284 JUMPI DUP3 MLOAD DUP3 SSTORE SWAP2 PUSH1 0x20 ADD SWAP2 SWAP1 PUSH1 0x1 ADD SWAP1 PUSH3 0x267 JUMP JUMPDEST JUMPDEST POP SWAP1 POP PUSH3 0x294 SWAP2 SWAP1 PUSH3 0x2FF JUMP JUMPDEST POP SWAP1 JUMP JUMPDEST DUP3 DUP1 SLOAD DUP3 DUP3 SSTORE SWAP1 PUSH1 0x0 MSTORE PUSH1 0x20 PUSH1 0x0 KECCAK256 SWAP1 DUP2 ADD SWAP3 DUP3 ISZERO PUSH3 0x2EC JUMPI SWAP2 PUSH1 0x20 MUL DUP3 ADD JUMPDEST DUP3 DUP2 GT ISZERO PUSH3 0x2EB JUMPI DUP3 MLOAD DUP3 SWAP1 DUP1 MLOAD SWAP1 PUSH1 0x20 ADD SWAP1 PUSH3 0x2DA SWAP3 SWAP2 SWAP1 PUSH3 0x207 JUMP JUMPDEST POP SWAP2 PUSH1 0x20 ADD SWAP2 SWAP1 PUSH1 0x1 ADD SWAP1 PUSH3 0x2B9 JUMP JUMPDEST JUMPDEST POP SWAP1 POP PUSH3 0x2FB SWAP2 SWAP1 PUSH3 0x31E JUMP JUMPDEST POP SWAP1 JUMP JUMPDEST JUMPDEST DUP1 DUP3 GT ISZERO PUSH3 0x31A JUMPI PUSH1 0x0 DUP2 PUSH1 0x0 SWAP1 SSTORE POP PUSH1 0x1 ADD PUSH3 0x300 JUMP JUMPDEST POP SWAP1 JUMP JUMPDEST JUMPDEST DUP1 DUP3 GT ISZERO PUSH3 0x342 JUMPI PUSH1 0x0 DUP2 DUP2 PUSH3 0x338 SWAP2 SWAP1 PUSH3 0x346 JUMP JUMPDEST POP PUSH1 0x1 ADD PUSH3 0x31F JUMP JUMPDEST POP SWAP1 JUMP JUMPDEST POP DUP1 SLOAD PUSH3 0x354 SWAP1 PUSH3 0x43F JUMP JUMPDEST PUSH1 0x0 DUP3 SSTORE DUP1 PUSH1 0x1F LT PUSH3 0x368 JUMPI POP PUSH3 0x389 JUMP JUMPDEST PUSH1 0x1F ADD PUSH1 0x20 SWAP1 DIV SWAP1 PUSH1 0x0 MSTORE PUSH1 0x20 PUSH1 0x0 KECCAK256 SWAP1 DUP2 ADD SWAP1 PUSH3 0x388 SWAP2 SWAP1 PUSH3 0x2FF JUMP JUMPDEST JUMPDEST POP JUMP JUMPDEST PUSH1 0x0 DUP2 MLOAD SWAP1 POP PUSH3 0x39D DUP2 PUSH3 0x4A9 JUMP JUMPDEST SWAP3 SWAP2 POP POP JUMP JUMPDEST PUSH1 0x0 DUP2 MLOAD SWAP1 POP PUSH3 0x3B4 DUP2 PUSH3 0x4C3 JUMP JUMPDEST SWAP3 SWAP2 POP POP JUMP JUMPDEST PUSH1 0x0 DUP1 PUSH1 0x40 DUP4 DUP6 SUB SLT ISZERO PUSH3 0x3D4 JUMPI PUSH3 0x3D3 PUSH3 0x4A4 JUMP JUMPDEST JUMPDEST PUSH1 0x0 PUSH3 0x3E4 DUP6 DUP3 DUP7 ADD PUSH3 0x3A3 JUMP JUMPDEST SWAP3 POP POP PUSH1 0x20 PUSH3 0x3F7 DUP6 DUP3 DUP7 ADD PUSH3 0x38C JUMP JUMPDEST SWAP2 POP POP SWAP3 POP SWAP3 SWAP1 POP JUMP JUMPDEST PUSH1 0x0 PUSH3 0x40E DUP3 PUSH3 0x415 JUMP JUMPDEST SWAP1 POP SWAP2 SWAP1 POP JUMP JUMPDEST PUSH1 0x0 PUSH20 0xFFFFFFFFFFFFFFFFFFFFFFFFFFFFFFFFFFFFFFFF DUP3 AND SWAP1 POP SWAP2 SWAP1 POP JUMP JUMPDEST PUSH1 0x0 DUP2 SWAP1 POP SWAP2 SWAP1 POP JUMP JUMPDEST PUSH1 0x0 PUSH1 0x2 DUP3 DIV SWAP1 POP PUSH1 0x1 DUP3 AND DUP1 PUSH3 0x458 JUMPI PUSH1 0x7F DUP3 AND SWAP2 POP JUMPDEST PUSH1 0x20 DUP3 LT DUP2 EQ ISZERO PUSH3 0x46F JUMPI PUSH3 0x46E PUSH3 0x475 JUMP JUMPDEST JUMPDEST POP SWAP2 SWAP1 POP JUMP JUMPDEST PUSH32 0x4E487B7100000000000000000000000000000000000000000000000000000000 PUSH1 0x0 MSTORE PUSH1 0x22 PUSH1 0x4 MSTORE PUSH1 0x24 PUSH1 0x0 REVERT JUMPDEST PUSH1 0x0 DUP1 REVERT JUMPDEST PUSH3 0x4B4 DUP2 PUSH3 0x401 JUMP JUMPDEST DUP2 EQ PUSH3 0x4C0 JUMPI PUSH1 0x0 DUP1 REVERT JUMPDEST POP JUMP JUMPDEST PUSH3 0x4CE DUP2 PUSH3 0x435 JUMP JUMPDEST DUP2 EQ PUSH3 0x4DA JUMPI PUSH1 0x0 DUP1 REVERT JUMPDEST POP JUMP JUMPDEST PUSH2 0xDA0 DUP1 PUSH3 0x4ED PUSH1 0x0 CODECOPY PUSH1 0x0 RETURN INVALID PUSH1 0x80 PUSH1 0x40 MSTORE CALLVALUE DUP1 ISZERO PUSH2 0x10 JUMPI PUSH1 0x0 DUP1 REVERT JUMPDEST POP PUSH1 0x4 CALLDATASIZE LT PUSH2 0xF5 JUMPI PUSH1 0x0 CALLDATALOAD PUSH1 0xE0 SHR DUP1 PUSH4 0x87E8599F GT PUSH2 0x97 JUMPI DUP1 PUSH4 0xCFB5843C GT PUSH2 0x66 JUMPI DUP1 PUSH4 0xCFB5843C EQ PUSH2 0x278 JUMPI DUP1 PUSH4 0xEF483E82 EQ PUSH2 0x294 JUMPI DUP1 PUSH4 0xFC563658 EQ PUSH2 0x29E JUMPI DUP1 PUSH4 0xFCC9E5C5 EQ PUSH2 0x2CE JUMPI PUSH2 0xF5 JUMP JUMPDEST DUP1 PUSH4 0x87E8599F EQ PUSH2 0x202 JUMPI DUP1 PUSH4 0x8DA5CB5B EQ PUSH2 0x220 JUMPI DUP1 PUSH4 0x965AC0C5 EQ PUSH2 0x23E JUMPI DUP1 PUSH4 0xB69EF8A8 EQ PUSH2 0x25A JUMPI PUSH2 0xF5 JUMP JUMPDEST DUP1 PUSH4 0x449549D5 GT PUSH2 0xD3 JUMPI DUP1 PUSH4 0x449549D5 EQ PUSH2 0x154 JUMPI DUP1 PUSH4 0x5CD836A3 EQ PUSH2 0x184 JUMPI DUP1 PUSH4 0x654A573C EQ PUSH2 0x1B4 JUMPI DUP1 PUSH4 0x853320E3 EQ PUSH2 0x1D2 JUMPI PUSH2 0xF5 JUMP JUMPDEST DUP1 PUSH4 0x6FDDE03 EQ PUSH2 0xFA JUMPI DUP1 PUSH4 0x13299604 EQ PUSH2 0x118 JUMPI DUP1 PUSH4 0x262A9DFF EQ PUSH2 0x136 JUMPI JUMPDEST PUSH1 0x0 DUP1 REVERT JUMPDEST PUSH2 0x102 PUSH2 0x2FE JUMP JUMPDEST PUSH1 0x40 MLOAD PUSH2 0x10F SWAP2 SWAP1 PUSH2 0xA5B JUMP JUMPDEST PUSH1 0x40 MLOAD DUP1 SWAP2 SUB SWAP1 RETURN JUMPDEST PUSH2 0x120 PUSH2 0x38C JUMP JUMPDEST PUSH1 0x40 MLOAD PUSH2 0x12D SWAP2 SWAP1 PUSH2 0xA25 JUMP JUMPDEST PUSH1 0x40 MLOAD DUP1 SWAP2 SUB SWAP1 RETURN JUMPDEST PUSH2 0x13E PUSH2 0x410 JUMP JUMPDEST PUSH1 0x40 MLOAD PUSH2 0x14B SWAP2 SWAP1 PUSH2 0xA9D JUMP JUMPDEST PUSH1 0x40 MLOAD DUP1 SWAP2 SUB SWAP1 RETURN JUMPDEST PUSH2 0x16E PUSH1 0x4 DUP1 CALLDATASIZE SUB DUP2 ADD SWAP1 PUSH2 0x169 SWAP2 SWAP1 PUSH2 0x927 JUMP JUMPDEST PUSH2 0x416 JUMP JUMPDEST PUSH1 0x40 MLOAD PUSH2 0x17B SWAP2 SWAP1 PUSH2 0xA5B JUMP JUMPDEST PUSH1 0x40 MLOAD DUP1 SWAP2 SUB SWAP1 RETURN JUMPDEST PUSH2 0x19E PUSH1 0x4 DUP1 CALLDATASIZE SUB DUP2 ADD SWAP1 PUSH2 0x199 SWAP2 SWAP1 PUSH2 0x927 JUMP JUMPDEST PUSH2 0x4C2 JUMP JUMPDEST PUSH1 0x40 MLOAD PUSH2 0x1AB SWAP2 SWAP1 PUSH2 0xA5B JUMP JUMPDEST PUSH1 0x40 MLOAD DUP1 SWAP2 SUB SWAP1 RETURN JUMPDEST PUSH2 0x1BC PUSH2 0x56E JUMP JUMPDEST PUSH1 0x40 MLOAD PUSH2 0x1C9 SWAP2 SWAP1 PUSH2 0xA40 JUMP JUMPDEST PUSH1 0x40 MLOAD DUP1 SWAP2 SUB SWAP1 RETURN JUMPDEST PUSH2 0x1EC PUSH1 0x4 DUP1 CALLDATASIZE SUB DUP2 ADD SWAP1 PUSH2 0x1E7 SWAP2 SWAP1 PUSH2 0x882 JUMP JUMPDEST PUSH2 0x581 JUMP JUMPDEST PUSH1 0x40 MLOAD PUSH2 0x1F9 SWAP2 SWAP1 PUSH2 0xA9D JUMP JUMPDEST PUSH1 0x40 MLOAD DUP1 SWAP2 SUB SWAP1 RETURN JUMPDEST PUSH2 0x20A PUSH2 0x5AF JUMP JUMPDEST PUSH1 0x40 MLOAD PUSH2 0x217 SWAP2 SWAP1 PUSH2 0xA9D JUMP JUMPDEST PUSH1 0x40 MLOAD DUP1 SWAP2 SUB SWAP1 RETURN JUMPDEST PUSH2 0x228 PUSH2 0x5C5 JUMP JUMPDEST PUSH1 0x40 MLOAD PUSH2 0x235 SWAP2 SWAP1 PUSH2 0xA25 JUMP JUMPDEST PUSH1 0x40 MLOAD DUP1 SWAP2 SUB SWAP1 RETURN JUMPDEST PUSH2 0x258 PUSH1 0x4 DUP1 CALLDATASIZE SUB DUP2 ADD SWAP1 PUSH2 0x253 SWAP2 SWAP1 PUSH2 0x8CB JUMP JUMPDEST PUSH2 0x5EB JUMP JUMPDEST STOP JUMPDEST PUSH2 0x262 PUSH2 0x6BB JUMP JUMPDEST PUSH1 0x40 MLOAD PUSH2 0x26F SWAP2 SWAP1 PUSH2 0xA9D JUMP JUMPDEST PUSH1 0x40 MLOAD DUP1 SWAP2 SUB SWAP1 RETURN JUMPDEST PUSH2 0x292 PUSH1 0x4 DUP1 CALLDATASIZE SUB DUP2 ADD SWAP1 PUSH2 0x28D SWAP2 SWAP1 PUSH2 0x882 JUMP JUMPDEST PUSH2 0x6C1 JUMP JUMPDEST STOP JUMPDEST PUSH2 0x29C PUSH2 0x700 JUMP JUMPDEST STOP JUMPDEST PUSH2 0x2B8 PUSH1 0x4 DUP1 CALLDATASIZE SUB DUP2 ADD SWAP1 PUSH2 0x2B3 SWAP2 SWAP1 PUSH2 0x927 JUMP JUMPDEST PUSH2 0x702 JUMP JUMPDEST PUSH1 0x40 MLOAD PUSH2 0x2C5 SWAP2 SWAP1 PUSH2 0xA9D JUMP JUMPDEST PUSH1 0x40 MLOAD DUP1 SWAP2 SUB SWAP1 RETURN JUMPDEST PUSH2 0x2E8 PUSH1 0x4 DUP1 CALLDATASIZE SUB DUP2 ADD SWAP1 PUSH2 0x2E3 SWAP2 SWAP1 PUSH2 0x882 JUMP JUMPDEST PUSH2 0x724 JUMP JUMPDEST PUSH1 0x40 MLOAD PUSH2 0x2F5 SWAP2 SWAP1 PUSH2 0xA40 JUMP JUMPDEST PUSH1 0x40 MLOAD DUP1 SWAP2 SUB SWAP1 RETURN JUMPDEST PUSH1 0x1 DUP1 SLOAD PUSH2 0x30B SWAP1 PUSH2 0xC15 JUMP JUMPDEST DUP1 PUSH1 0x1F ADD PUSH1 0x20 DUP1 SWAP2 DIV MUL PUSH1 0x20 ADD PUSH1 0x40 MLOAD SWAP1 DUP2 ADD PUSH1 0x40 MSTORE DUP1 SWAP3 SWAP2 SWAP1 DUP2 DUP2 MSTORE PUSH1 0x20 ADD DUP3 DUP1 SLOAD PUSH2 0x337 SWAP1 PUSH2 0xC15 JUMP JUMPDEST DUP1 ISZERO PUSH2 0x384 JUMPI DUP1 PUSH1 0x1F LT PUSH2 0x359 JUMPI PUSH2 0x100 DUP1 DUP4 SLOAD DIV MUL DUP4 MSTORE SWAP2 PUSH1 0x20 ADD SWAP2 PUSH2 0x384 JUMP JUMPDEST DUP3 ADD SWAP2 SWAP1 PUSH1 0x0 MSTORE PUSH1 0x20 PUSH1 0x0 KECCAK256 SWAP1 JUMPDEST DUP2 SLOAD DUP2 MSTORE SWAP1 PUSH1 0x1 ADD SWAP1 PUSH1 0x20 ADD DUP1 DUP4 GT PUSH2 0x367 JUMPI DUP3 SWAP1 SUB PUSH1 0x1F AND DUP3 ADD SWAP2 JUMPDEST POP POP POP POP POP DUP2 JUMP JUMPDEST PUSH1 0x0 PUSH1 0x8 PUSH1 0x0 SWAP1 SLOAD SWAP1 PUSH2 0x100 EXP SWAP1 DIV PUSH20 0xFFFFFFFFFFFFFFFFFFFFFFFFFFFFFFFFFFFFFFFF AND PUSH20 0xFFFFFFFFFFFFFFFFFFFFFFFFFFFFFFFFFFFFFFFF AND CALLER PUSH20 0xFFFFFFFFFFFFFFFFFFFFFFFFFFFFFFFFFFFFFFFF AND EQ PUSH2 0x3E8 JUMPI PUSH1 0x0 DUP1 REVERT JUMPDEST PUSH1 0x6 PUSH1 0x0 SWAP1 SLOAD SWAP1 PUSH2 0x100 EXP SWAP1 DIV PUSH20 0xFFFFFFFFFFFFFFFFFFFFFFFFFFFFFFFFFFFFFFFF AND SWAP1 POP SWAP1 JUMP JUMPDEST PUSH1 0x2 SLOAD DUP2 JUMP JUMPDEST PUSH1 0x7 DUP2 DUP2 SLOAD DUP2 LT PUSH2 0x426 JUMPI PUSH1 0x0 DUP1 REVERT JUMPDEST SWAP1 PUSH1 0x0 MSTORE PUSH1 0x20 PUSH1 0x0 KECCAK256 ADD PUSH1 0x0 SWAP2 POP SWAP1 POP DUP1 SLOAD PUSH2 0x441 SWAP1 PUSH2 0xC15 JUMP JUMPDEST DUP1 PUSH1 0x1F ADD PUSH1 0x20 DUP1 SWAP2 DIV MUL PUSH1 0x20 ADD PUSH1 0x40 MLOAD SWAP1 DUP2 ADD PUSH1 0x40 MSTORE DUP1 SWAP3 SWAP2 SWAP1 DUP2 DUP2 MSTORE PUSH1 0x20 ADD DUP3 DUP1 SLOAD PUSH2 0x46D SWAP1 PUSH2 0xC15 JUMP JUMPDEST DUP1 ISZERO PUSH2 0x4BA JUMPI DUP1 PUSH1 0x1F LT PUSH2 0x48F JUMPI PUSH2 0x100 DUP1 DUP4 SLOAD DIV MUL DUP4 MSTORE SWAP2 PUSH1 0x20 ADD SWAP2 PUSH2 0x4BA JUMP JUMPDEST DUP3 ADD SWAP2 SWAP1 PUSH1 0x0 MSTORE PUSH1 0x20 PUSH1 0x0 KECCAK256 SWAP1 JUMPDEST DUP2 SLOAD DUP2 MSTORE SWAP1 PUSH1 0x1 ADD SWAP1 PUSH1 0x20 ADD DUP1 DUP4 GT PUSH2 0x49D JUMPI DUP3 SWAP1 SUB PUSH1 0x1F AND DUP3 ADD SWAP2 JUMPDEST POP POP POP POP POP DUP2 JUMP JUMPDEST PUSH1 0x5 DUP2 DUP2 SLOAD DUP2 LT PUSH2 0x4D2 JUMPI PUSH1 0x0 DUP1 REVERT JUMPDEST SWAP1 PUSH1 0x0 MSTORE PUSH1 0x20 PUSH1 0x0 KECCAK256 ADD PUSH1 0x0 SWAP2 POP SWAP1 POP DUP1 SLOAD PUSH2 0x4ED SWAP1 PUSH2 0xC15 JUMP JUMPDEST DUP1 PUSH1 0x1F ADD PUSH1 0x20 DUP1 SWAP2 DIV MUL PUSH1 0x20 ADD PUSH1 0x40 MLOAD SWAP1 DUP2 ADD PUSH1 0x40 MSTORE DUP1 SWAP3 SWAP2 SWAP1 DUP2 DUP2 MSTORE PUSH1 0x20 ADD DUP3 DUP1 SLOAD PUSH2 0x519 SWAP1 PUSH2 0xC15 JUMP JUMPDEST DUP1 ISZERO PUSH2 0x566 JUMPI DUP1 PUSH1 0x1F LT PUSH2 0x53B JUMPI PUSH2 0x100 DUP1 DUP4 SLOAD DIV MUL DUP4 MSTORE SWAP2 PUSH1 0x20 ADD SWAP2 PUSH2 0x566 JUMP JUMPDEST DUP3 ADD SWAP2 SWAP1 PUSH1 0x0 MSTORE PUSH1 0x20 PUSH1 0x0 KECCAK256 SWAP1 JUMPDEST DUP2 SLOAD DUP2 MSTORE SWAP1 PUSH1 0x1 ADD SWAP1 PUSH1 0x20 ADD DUP1 DUP4 GT PUSH2 0x549 JUMPI DUP3 SWAP1 SUB PUSH1 0x1F AND DUP3 ADD SWAP2 JUMPDEST POP POP POP POP POP DUP2 JUMP JUMPDEST PUSH1 0x3 PUSH1 0x0 SWAP1 SLOAD SWAP1 PUSH2 0x100 EXP SWAP1 DIV PUSH1 0xFF AND DUP2 JUMP JUMPDEST PUSH1 0x9 DUP2 DUP1 MLOAD PUSH1 0x20 DUP2 ADD DUP3 ADD DUP1 MLOAD DUP5 DUP3 MSTORE PUSH1 0x20 DUP4 ADD PUSH1 0x20 DUP6 ADD KECCAK256 DUP2 DUP4 MSTORE DUP1 SWAP6 POP POP POP POP POP POP PUSH1 0x0 SWAP2 POP SWAP1 POP SLOAD DUP2 JUMP JUMPDEST PUSH1 0x0 PUSH1 0x1 PUSH1 0x0 SLOAD PUSH2 0x5C0 SWAP2 SWAP1 PUSH2 0xB35 JUMP JUMPDEST SWAP1 POP SWAP1 JUMP JUMPDEST PUSH1 0x8 PUSH1 0x0 SWAP1 SLOAD SWAP1 PUSH2 0x100 EXP SWAP1 DIV PUSH20 0xFFFFFFFFFFFFFFFFFFFFFFFFFFFFFFFFFFFFFFFF AND DUP2 JUMP JUMPDEST PUSH1 0x0 ISZERO ISZERO PUSH1 0xA DUP4 PUSH1 0x40 MLOAD PUSH2 0x5FF SWAP2 SWAP1 PUSH2 0xA0E JUMP JUMPDEST SWAP1 DUP2 MSTORE PUSH1 0x20 ADD PUSH1 0x40 MLOAD DUP1 SWAP2 SUB SWAP1 KECCAK256 PUSH1 0x0 SWAP1 SLOAD SWAP1 PUSH2 0x100 EXP SWAP1 DIV PUSH1 0xFF AND ISZERO ISZERO EQ PUSH2 0x65D JUMPI PUSH1 0x40 MLOAD PUSH32 0x8C379A000000000000000000000000000000000000000000000000000000000 DUP2 MSTORE PUSH1 0x4 ADD PUSH2 0x654 SWAP1 PUSH2 0xA7D JUMP JUMPDEST PUSH1 0x40 MLOAD DUP1 SWAP2 SUB SWAP1 REVERT JUMPDEST DUP1 PUSH1 0x9 DUP4 PUSH1 0x40 MLOAD PUSH2 0x66E SWAP2 SWAP1 PUSH2 0xA0E JUMP JUMPDEST SWAP1 DUP2 MSTORE PUSH1 0x20 ADD PUSH1 0x40 MLOAD DUP1 SWAP2 SUB SWAP1 KECCAK256 DUP2 SWAP1 SSTORE POP PUSH1 0x1 PUSH1 0xA DUP4 PUSH1 0x40 MLOAD PUSH2 0x692 SWAP2 SWAP1 PUSH2 0xA0E JUMP JUMPDEST SWAP1 DUP2 MSTORE PUSH1 0x20 ADD PUSH1 0x40 MLOAD DUP1 SWAP2 SUB SWAP1 KECCAK256 PUSH1 0x0 PUSH2 0x100 EXP DUP2 SLOAD DUP2 PUSH1 0xFF MUL NOT AND SWAP1 DUP4 ISZERO ISZERO MUL OR SWAP1 SSTORE POP POP POP JUMP JUMPDEST PUSH1 0x4 SLOAD DUP2 JUMP JUMPDEST PUSH1 0x7 DUP2 SWAP1 DUP1 PUSH1 0x1 DUP2 SLOAD ADD DUP1 DUP3 SSTORE DUP1 SWAP2 POP POP PUSH1 0x1 SWAP1 SUB SWAP1 PUSH1 0x0 MSTORE PUSH1 0x20 PUSH1 0x0 KECCAK256 ADD PUSH1 0x0 SWAP1 SWAP2 SWAP1 SWAP2 SWAP1 SWAP2 POP SWAP1 DUP1 MLOAD SWAP1 PUSH1 0x20 ADD SWAP1 PUSH2 0x6FC SWAP3 SWAP2 SWAP1 PUSH2 0x75A JUMP JUMPDEST POP POP JUMP JUMPDEST JUMP JUMPDEST PUSH1 0x0 DUP1 DUP3 SWAP1 POP PUSH1 0x0 DUP2 PUSH1 0x0 SLOAD PUSH2 0x718 SWAP2 SWAP1 PUSH2 0xB35 JUMP JUMPDEST SWAP1 POP DUP1 SWAP3 POP POP POP SWAP2 SWAP1 POP JUMP JUMPDEST PUSH1 0xA DUP2 DUP1 MLOAD PUSH1 0x20 DUP2 ADD DUP3 ADD DUP1 MLOAD DUP5 DUP3 MSTORE PUSH1 0x20 DUP4 ADD PUSH1 0x20 DUP6 ADD KECCAK256 DUP2 DUP4 MSTORE DUP1 SWAP6 POP POP POP POP POP POP PUSH1 0x0 SWAP2 POP SLOAD SWAP1 PUSH2 0x100 EXP SWAP1 DIV PUSH1 0xFF AND DUP2 JUMP JUMPDEST DUP3 DUP1 SLOAD PUSH2 0x766 SWAP1 PUSH2 0xC15 JUMP JUMPDEST SWAP1 PUSH1 0x0 MSTORE PUSH1 0x20 PUSH1 0x0 KECCAK256 SWAP1 PUSH1 0x1F ADD PUSH1 0x20 SWAP1 DIV DUP2 ADD SWAP3 DUP3 PUSH2 0x788 JUMPI PUSH1 0x0 DUP6 SSTORE PUSH2 0x7CF JUMP JUMPDEST DUP3 PUSH1 0x1F LT PUSH2 0x7A1 JUMPI DUP1 MLOAD PUSH1 0xFF NOT AND DUP4 DUP1 ADD OR DUP6 SSTORE PUSH2 0x7CF JUMP JUMPDEST DUP3 DUP1 ADD PUSH1 0x1 ADD DUP6 SSTORE DUP3 ISZERO PUSH2 0x7CF JUMPI SWAP2 DUP3 ADD JUMPDEST DUP3 DUP2 GT ISZERO PUSH2 0x7CE JUMPI DUP3 MLOAD DUP3 SSTORE SWAP2 PUSH1 0x20 ADD SWAP2 SWAP1 PUSH1 0x1 ADD SWAP1 PUSH2 0x7B3 JUMP JUMPDEST JUMPDEST POP SWAP1 POP PUSH2 0x7DC SWAP2 SWAP1 PUSH2 0x7E0 JUMP JUMPDEST POP SWAP1 JUMP JUMPDEST JUMPDEST DUP1 DUP3 GT ISZERO PUSH2 0x7F9 JUMPI PUSH1 0x0 DUP2 PUSH1 0x0 SWAP1 SSTORE POP PUSH1 0x1 ADD PUSH2 0x7E1 JUMP JUMPDEST POP SWAP1 JUMP JUMPDEST PUSH1 0x0 PUSH2 0x810 PUSH2 0x80B DUP5 PUSH2 0xADD JUMP JUMPDEST PUSH2 0xAB8 JUMP JUMPDEST SWAP1 POP DUP3 DUP2 MSTORE PUSH1 0x20 DUP2 ADD DUP5 DUP5 DUP5 ADD GT ISZERO PUSH2 0x82C JUMPI PUSH2 0x82B PUSH2 0xD0A JUMP JUMPDEST JUMPDEST PUSH2 0x837 DUP5 DUP3 DUP6 PUSH2 0xBD3 JUMP JUMPDEST POP SWAP4 SWAP3 POP POP POP JUMP JUMPDEST PUSH1 0x0 DUP3 PUSH1 0x1F DUP4 ADD SLT PUSH2 0x854 JUMPI PUSH2 0x853 PUSH2 0xD05 JUMP JUMPDEST JUMPDEST DUP2 CALLDATALOAD PUSH2 0x864 DUP5 DUP3 PUSH1 0x20 DUP7 ADD PUSH2 0x7FD JUMP JUMPDEST SWAP2 POP POP SWAP3 SWAP2 POP POP JUMP JUMPDEST PUSH1 0x0 DUP2 CALLDATALOAD SWAP1 POP PUSH2 0x87C DUP2 PUSH2 0xD53 JUMP JUMPDEST SWAP3 SWAP2 POP POP JUMP JUMPDEST PUSH1 0x0 PUSH1 0x20 DUP3 DUP5 SUB SLT ISZERO PUSH2 0x898 JUMPI PUSH2 0x897 PUSH2 0xD14 JUMP JUMPDEST JUMPDEST PUSH1 0x0 DUP3 ADD CALLDATALOAD PUSH8 0xFFFFFFFFFFFFFFFF DUP2 GT ISZERO PUSH2 0x8B6 JUMPI PUSH2 0x8B5 PUSH2 0xD0F JUMP JUMPDEST JUMPDEST PUSH2 0x8C2 DUP5 DUP3 DUP6 ADD PUSH2 0x83F JUMP JUMPDEST SWAP2 POP POP SWAP3 SWAP2 POP POP JUMP JUMPDEST PUSH1 0x0 DUP1 PUSH1 0x40 DUP4 DUP6 SUB SLT ISZERO PUSH2 0x8E2 JUMPI PUSH2 0x8E1 PUSH2 0xD14 JUMP JUMPDEST JUMPDEST PUSH1 0x0 DUP4 ADD CALLDATALOAD PUSH8 0xFFFFFFFFFFFFFFFF DUP2 GT ISZERO PUSH2 0x900 JUMPI PUSH2 0x8FF PUSH2 0xD0F JUMP JUMPDEST JUMPDEST PUSH2 0x90C DUP6 DUP3 DUP7 ADD PUSH2 0x83F JUMP JUMPDEST SWAP3 POP POP PUSH1 0x20 PUSH2 0x91D DUP6 DUP3 DUP7 ADD PUSH2 0x86D JUMP JUMPDEST SWAP2 POP POP SWAP3 POP SWAP3 SWAP1 POP JUMP JUMPDEST PUSH1 0x0 PUSH1 0x20 DUP3 DUP5 SUB SLT ISZERO PUSH2 0x93D JUMPI PUSH2 0x93C PUSH2 0xD14 JUMP JUMPDEST JUMPDEST PUSH1 0x0 PUSH2 0x94B DUP5 DUP3 DUP6 ADD PUSH2 0x86D JUMP JUMPDEST SWAP2 POP POP SWAP3 SWAP2 POP POP JUMP JUMPDEST PUSH2 0x95D DUP2 PUSH2 0xB8B JUMP JUMPDEST DUP3 MSTORE POP POP JUMP JUMPDEST PUSH2 0x96C DUP2 PUSH2 0xB9D JUMP JUMPDEST DUP3 MSTORE POP POP JUMP JUMPDEST PUSH1 0x0 PUSH2 0x97D DUP3 PUSH2 0xB0E JUMP JUMPDEST PUSH2 0x987 DUP2 DUP6 PUSH2 0xB19 JUMP JUMPDEST SWAP4 POP PUSH2 0x997 DUP2 DUP6 PUSH1 0x20 DUP7 ADD PUSH2 0xBE2 JUMP JUMPDEST PUSH2 0x9A0 DUP2 PUSH2 0xD19 JUMP JUMPDEST DUP5 ADD SWAP2 POP POP SWAP3 SWAP2 POP POP JUMP JUMPDEST PUSH1 0x0 PUSH2 0x9B6 DUP3 PUSH2 0xB0E JUMP JUMPDEST PUSH2 0x9C0 DUP2 DUP6 PUSH2 0xB2A JUMP JUMPDEST SWAP4 POP PUSH2 0x9D0 DUP2 DUP6 PUSH1 0x20 DUP7 ADD PUSH2 0xBE2 JUMP JUMPDEST DUP1 DUP5 ADD SWAP2 POP POP SWAP3 SWAP2 POP POP JUMP JUMPDEST PUSH1 0x0 PUSH2 0x9E9 PUSH1 0x19 DUP4 PUSH2 0xB19 JUMP JUMPDEST SWAP2 POP PUSH2 0x9F4 DUP3 PUSH2 0xD2A JUMP JUMPDEST PUSH1 0x20 DUP3 ADD SWAP1 POP SWAP2 SWAP1 POP JUMP JUMPDEST PUSH2 0xA08 DUP2 PUSH2 0xBC9 JUMP JUMPDEST DUP3 MSTORE POP POP JUMP JUMPDEST PUSH1 0x0 PUSH2 0xA1A DUP3 DUP5 PUSH2 0x9AB JUMP JUMPDEST SWAP2 POP DUP2 SWAP1 POP SWAP3 SWAP2 POP POP JUMP JUMPDEST PUSH1 0x0 PUSH1 0x20 DUP3 ADD SWAP1 POP PUSH2 0xA3A PUSH1 0x0 DUP4 ADD DUP5 PUSH2 0x954 JUMP JUMPDEST SWAP3 SWAP2 POP POP JUMP JUMPDEST PUSH1 0x0 PUSH1 0x20 DUP3 ADD SWAP1 POP PUSH2 0xA55 PUSH1 0x0 DUP4 ADD DUP5 PUSH2 0x963 JUMP JUMPDEST SWAP3 SWAP2 POP POP JUMP JUMPDEST PUSH1 0x0 PUSH1 0x20 DUP3 ADD SWAP1 POP DUP2 DUP2 SUB PUSH1 0x0 DUP4 ADD MSTORE PUSH2 0xA75 DUP2 DUP5 PUSH2 0x972 JUMP JUMPDEST SWAP1 POP SWAP3 SWAP2 POP POP JUMP JUMPDEST PUSH1 0x0 PUSH1 0x20 DUP3 ADD SWAP1 POP DUP2 DUP2 SUB PUSH1 0x0 DUP4 ADD MSTORE PUSH2 0xA96 DUP2 PUSH2 0x9DC JUMP JUMPDEST SWAP1 POP SWAP2 SWAP1 POP JUMP JUMPDEST PUSH1 0x0 PUSH1 0x20 DUP3 ADD SWAP1 POP PUSH2 0xAB2 PUSH1 0x0 DUP4 ADD DUP5 PUSH2 0x9FF JUMP JUMPDEST SWAP3 SWAP2 POP POP JUMP JUMPDEST PUSH1 0x0 PUSH2 0xAC2 PUSH2 0xAD3 JUMP JUMPDEST SWAP1 POP PUSH2 0xACE DUP3 DUP3 PUSH2 0xC47 JUMP JUMPDEST SWAP2 SWAP1 POP JUMP JUMPDEST PUSH1 0x0 PUSH1 0x40 MLOAD SWAP1 POP SWAP1 JUMP JUMPDEST PUSH1 0x0 PUSH8 0xFFFFFFFFFFFFFFFF DUP3 GT ISZERO PUSH2 0xAF8 JUMPI PUSH2 0xAF7 PUSH2 0xCD6 JUMP JUMPDEST JUMPDEST PUSH2 0xB01 DUP3 PUSH2 0xD19 JUMP JUMPDEST SWAP1 POP PUSH1 0x20 DUP2 ADD SWAP1 POP SWAP2 SWAP1 POP JUMP JUMPDEST PUSH1 0x0 DUP2 MLOAD SWAP1 POP SWAP2 SWAP1 POP JUMP JUMPDEST PUSH1 0x0 DUP3 DUP3 MSTORE PUSH1 0x20 DUP3 ADD SWAP1 POP SWAP3 SWAP2 POP POP JUMP JUMPDEST PUSH1 0x0 DUP2 SWAP1 POP SWAP3 SWAP2 POP POP JUMP JUMPDEST PUSH1 0x0 PUSH2 0xB40 DUP3 PUSH2 0xBC9 JUMP JUMPDEST SWAP2 POP PUSH2 0xB4B DUP4 PUSH2 0xBC9 JUMP JUMPDEST SWAP3 POP DUP3 PUSH32 0xFFFFFFFFFFFFFFFFFFFFFFFFFFFFFFFFFFFFFFFFFFFFFFFFFFFFFFFFFFFFFFFF SUB DUP3 GT ISZERO PUSH2 0xB80 JUMPI PUSH2 0xB7F PUSH2 0xC78 JUMP JUMPDEST JUMPDEST DUP3 DUP3 ADD SWAP1 POP SWAP3 SWAP2 POP POP JUMP JUMPDEST PUSH1 0x0 PUSH2 0xB96 DUP3 PUSH2 0xBA9 JUMP JUMPDEST SWAP1 POP SWAP2 SWAP1 POP JUMP JUMPDEST PUSH1 0x0 DUP2 ISZERO ISZERO SWAP1 POP SWAP2 SWAP1 POP JUMP JUMPDEST PUSH1 0x0 PUSH20 0xFFFFFFFFFFFFFFFFFFFFFFFFFFFFFFFFFFFFFFFF DUP3 AND SWAP1 POP SWAP2 SWAP1 POP JUMP JUMPDEST PUSH1 0x0 DUP2 SWAP1 POP SWAP2 SWAP1 POP JUMP JUMPDEST DUP3 DUP2 DUP4 CALLDATACOPY PUSH1 0x0 DUP4 DUP4 ADD MSTORE POP POP POP JUMP JUMPDEST PUSH1 0x0 JUMPDEST DUP4 DUP2 LT ISZERO PUSH2 0xC00 JUMPI DUP1 DUP3 ADD MLOAD DUP2 DUP5 ADD MSTORE PUSH1 0x20 DUP2 ADD SWAP1 POP PUSH2 0xBE5 JUMP JUMPDEST DUP4 DUP2 GT ISZERO PUSH2 0xC0F JUMPI PUSH1 0x0 DUP5 DUP5 ADD MSTORE JUMPDEST POP POP POP POP JUMP JUMPDEST PUSH1 0x0 PUSH1 0x2 DUP3 DIV SWAP1 POP PUSH1 0x1 DUP3 AND DUP1 PUSH2 0xC2D JUMPI PUSH1 0x7F DUP3 AND SWAP2 POP JUMPDEST PUSH1 0x20 DUP3 LT DUP2 EQ ISZERO PUSH2 0xC41 JUMPI PUSH2 0xC40 PUSH2 0xCA7 JUMP JUMPDEST JUMPDEST POP SWAP2 SWAP1 POP JUMP JUMPDEST PUSH2 0xC50 DUP3 PUSH2 0xD19 JUMP JUMPDEST DUP2 ADD DUP2 DUP2 LT PUSH8 0xFFFFFFFFFFFFFFFF DUP3 GT OR ISZERO PUSH2 0xC6F JUMPI PUSH2 0xC6E PUSH2 0xCD6 JUMP JUMPDEST JUMPDEST DUP1 PUSH1 0x40 MSTORE POP POP POP JUMP JUMPDEST PUSH32 0x4E487B7100000000000000000000000000000000000000000000000000000000 PUSH1 0x0 MSTORE PUSH1 0x11 PUSH1 0x4 MSTORE PUSH1 0x24 PUSH1 0x0 REVERT JUMPDEST PUSH32 0x4E487B7100000000000000000000000000000000000000000000000000000000 PUSH1 0x0 MSTORE PUSH1 0x22 PUSH1 0x4 MSTORE PUSH1 0x24 PUSH1 0x0 REVERT JUMPDEST PUSH32 0x4E487B7100000000000000000000000000000000000000000000000000000000 PUSH1 0x0 MSTORE PUSH1 0x41 PUSH1 0x4 MSTORE PUSH1 0x24 PUSH1 0x0 REVERT JUMPDEST PUSH1 0x0 DUP1 REVERT JUMPDEST PUSH1 0x0 DUP1 REVERT JUMPDEST PUSH1 0x0 DUP1 REVERT JUMPDEST PUSH1 0x0 DUP1 REVERT JUMPDEST PUSH1 0x0 PUSH1 0x1F NOT PUSH1 0x1F DUP4 ADD AND SWAP1 POP SWAP2 SWAP1 POP JUMP JUMPDEST PUSH32 0x546F6E7920616C72656164792068617320746869732063617200000000000000 PUSH1 0x0 DUP3 ADD MSTORE POP JUMP JUMPDEST PUSH2 0xD5C DUP2 PUSH2 0xBC9 JUMP JUMPDEST DUP2 EQ PUSH2 0xD67 JUMPI PUSH1 0x0 DUP1 REVERT JUMPDEST POP JUMP INVALID LOG2 PUSH5 0x6970667358 0x22 SLT KECCAK256 JUMPDEST 0x4A NUMBER 0xDD 0xAF CHAINID AND SWAP12 0xC5 0xBA SWAP4 SMOD PUSH31 0x1C1F571AFCDE9F2E2048F00B40F5F2DE7CC3D864736F6C6343000807003300 "
				},
				"gasEstimates": {
					"creation": {
						"codeDepositCost": "697600",
						"executionCost": "infinite",
						"totalCost": "infinite"
					},
					"external": {
						"addCar(string,uint256)": "infinite",
						"age()": "2497",
						"balance()": "2518",
						"carreer(uint256)": "infinite",
						"getNumber(uint256)": "infinite",
						"getWallet()": "4738",
						"girl(uint256)": "infinite",
						"isCar(string)": "infinite",
						"isMale()": "2538",
						"mileOfCar(string)": "infinite",
						"name()": "infinite",
						"owner()": "2559",
						"plusResult()": "infinite",
						"tinder(string)": "infinite",
						"tranfer()": "188"
					}
				},
				"methodIdentifiers": {
					"addCar(string,uint256)": "965ac0c5",
					"age()": "262a9dff",
					"balance()": "b69ef8a8",
					"carreer(uint256)": "5cd836a3",
					"getNumber(uint256)": "fc563658",
					"getWallet()": "13299604",
					"girl(uint256)": "449549d5",
					"isCar(string)": "fcc9e5c5",
					"isMale()": "654a573c",
					"mileOfCar(string)": "853320e3",
					"name()": "06fdde03",
					"owner()": "8da5cb5b",
					"plusResult()": "87e8599f",
					"tinder(string)": "cfb5843c",
					"tranfer()": "ef483e82"
				}
			},
			"storageLayout": {
				"storage": [
					{
						"astId": 4,
						"contract": "contracts/basic_solidity.sol:BasicSolidity",
						"label": "global",
						"offset": 0,
						"slot": "0",
						"type": "t_uint256"
					},
					{
						"astId": 7,
						"contract": "contracts/basic_solidity.sol:BasicSolidity",
						"label": "name",
						"offset": 0,
						"slot": "1",
						"type": "t_string_storage"
					},
					{
						"astId": 10,
						"contract": "contracts/basic_solidity.sol:BasicSolidity",
						"label": "age",
						"offset": 0,
						"slot": "2",
						"type": "t_uint256"
					},
					{
						"astId": 13,
						"contract": "contracts/basic_solidity.sol:BasicSolidity",
						"label": "isMale",
						"offset": 0,
						"slot": "3",
						"type": "t_bool"
					},
					{
						"astId": 15,
						"contract": "contracts/basic_solidity.sol:BasicSolidity",
						"label": "balance",
						"offset": 0,
						"slot": "4",
						"type": "t_uint256"
					},
					{
						"astId": 22,
						"contract": "contracts/basic_solidity.sol:BasicSolidity",
						"label": "carreer",
						"offset": 0,
						"slot": "5",
						"type": "t_array(t_string_storage)dyn_storage"
					},
					{
						"astId": 24,
						"contract": "contracts/basic_solidity.sol:BasicSolidity",
						"label": "wallet",
						"offset": 0,
						"slot": "6",
						"type": "t_address"
					},
					{
						"astId": 27,
						"contract": "contracts/basic_solidity.sol:BasicSolidity",
						"label": "girl",
						"offset": 0,
						"slot": "7",
						"type": "t_array(t_string_storage)dyn_storage"
					},
					{
						"astId": 29,
						"contract": "contracts/basic_solidity.sol:BasicSolidity",
						"label": "owner",
						"offset": 0,
						"slot": "8",
						"type": "t_address"
					},
					{
						"astId": 33,
						"contract": "contracts/basic_solidity.sol:BasicSolidity",
						"label": "mileOfCar",
						"offset": 0,
						"slot": "9",
						"type": "t_mapping(t_string_memory_ptr,t_uint256)"
					},
					{
						"astId": 37,
						"contract": "contracts/basic_solidity.sol:BasicSolidity",
						"label": "isCar",
						"offset": 0,
						"slot": "10",
						"type": "t_mapping(t_string_memory_ptr,t_bool)"
					}
				],
				"types": {
					"t_address": {
						"encoding": "inplace",
						"label": "address",
						"numberOfBytes": "20"
					},
					"t_array(t_string_storage)dyn_storage": {
						"base": "t_string_storage",
						"encoding": "dynamic_array",
						"label": "string[]",
						"numberOfBytes": "32"
					},
					"t_bool": {
						"encoding": "inplace",
						"label": "bool",
						"numberOfBytes": "1"
					},
					"t_mapping(t_string_memory_ptr,t_bool)": {
						"encoding": "mapping",
						"key": "t_string_memory_ptr",
						"label": "mapping(string => bool)",
						"numberOfBytes": "32",
						"value": "t_bool"
					},
					"t_mapping(t_string_memory_ptr,t_uint256)": {
						"encoding": "mapping",
						"key": "t_string_memory_ptr",
						"label": "mapping(string => uint256)",
						"numberOfBytes": "32",
						"value": "t_uint256"
					},
					"t_string_memory_ptr": {
						"encoding": "bytes",
						"label": "string",
						"numberOfBytes": "32"
					},
					"t_string_storage": {
						"encoding": "bytes",
						"label": "string",
						"numberOfBytes": "32"
					},
					"t_uint256": {
						"encoding": "inplace",
						"label": "uint256",
						"numberOfBytes": "32"
					}
				}
			},
			"userdoc": {
				"kind": "user",
				"methods": {},
				"version": 1
			}
		}
	}
}