{
	"contracts/multisender.sol": {
		"BatchTransfer": {
			"abi": [
				{
					"inputs": [
						{
							"internalType": "contract ERC1155Partial",
							"name": "tokenContract",
							"type": "address"
						},
						{
							"internalType": "address[]",
							"name": "recipient",
							"type": "address[]"
						},
						{
							"internalType": "uint256",
							"name": "id",
							"type": "uint256"
						},
						{
							"internalType": "uint256",
							"name": "amount",
							"type": "uint256"
						}
					],
					"name": "batchTransfer",
					"outputs": [],
					"stateMutability": "nonpayable",
					"type": "function"
				}
			],
			"devdoc": {
				"kind": "dev",
				"methods": {},
				"version": 1
			},
			"evm": {
				"assembly": "    /* \"contracts/multisender.sol\":263:590  contract BatchTransfer {... */\n  mstore(0x40, 0x80)\n  callvalue\n  dup1\n  iszero\n  tag_1\n  jumpi\n  0x00\n  dup1\n  revert\ntag_1:\n  pop\n  dataSize(sub_0)\n  dup1\n  dataOffset(sub_0)\n  0x00\n  codecopy\n  0x00\n  return\nstop\n\nsub_0: assembly {\n        /* \"contracts/multisender.sol\":263:590  contract BatchTransfer {... */\n      mstore(0x40, 0x80)\n      callvalue\n      dup1\n      iszero\n      tag_1\n      jumpi\n      0x00\n      dup1\n      revert\n    tag_1:\n      pop\n      jumpi(tag_2, lt(calldatasize, 0x04))\n      shr(0xe0, calldataload(0x00))\n      dup1\n      0xf9db815e\n      eq\n      tag_3\n      jumpi\n    tag_2:\n      0x00\n      dup1\n      revert\n        /* \"contracts/multisender.sol\":293:587  function batchTransfer(ERC1155Partial tokenContract, address[] memory recipient, uint256 id, uint256 amount) external {... */\n    tag_3:\n      tag_4\n      0x04\n      dup1\n      calldatasize\n      sub\n      dup2\n      add\n      swap1\n      tag_5\n      swap2\n      swap1\n      tag_6\n      jump\t// in\n    tag_5:\n      tag_7\n      jump\t// in\n    tag_4:\n      stop\n    tag_7:\n        /* \"contracts/multisender.sol\":427:440  uint256 index */\n      0x00\n        /* \"contracts/multisender.sol\":422:580  for (uint256 index; index < recipient.length; index++) {... */\n    tag_9:\n        /* \"contracts/multisender.sol\":450:459  recipient */\n      dup4\n        /* \"contracts/multisender.sol\":450:466  recipient.length */\n      mload\n        /* \"contracts/multisender.sol\":442:447  index */\n      dup2\n        /* \"contracts/multisender.sol\":442:466  index < recipient.length */\n      lt\n        /* \"contracts/multisender.sol\":422:580  for (uint256 index; index < recipient.length; index++) {... */\n      iszero\n      tag_10\n      jumpi\n        /* \"contracts/multisender.sol\":492:505  tokenContract */\n      dup5\n        /* \"contracts/multisender.sol\":492:522  tokenContract.safeTransferFrom */\n      0xffffffffffffffffffffffffffffffffffffffff\n      and\n      0xf242432a\n        /* \"contracts/multisender.sol\":523:533  msg.sender */\n      caller\n        /* \"contracts/multisender.sol\":535:544  recipient */\n      dup7\n        /* \"contracts/multisender.sol\":545:550  index */\n      dup5\n        /* \"contracts/multisender.sol\":535:551  recipient[index] */\n      dup2\n      mload\n      dup2\n      lt\n      tag_12\n      jumpi\n      tag_13\n      tag_14\n      jump\t// in\n    tag_13:\n    tag_12:\n      0x20\n      mul\n      0x20\n      add\n      add\n      mload\n        /* \"contracts/multisender.sol\":553:555  id */\n      dup7\n        /* \"contracts/multisender.sol\":557:563  amount */\n      dup7\n        /* \"contracts/multisender.sol\":492:568  tokenContract.safeTransferFrom(msg.sender, recipient[index], id, amount, \"\") */\n      mload(0x40)\n      dup6\n      0xffffffff\n      and\n      0xe0\n      shl\n      dup2\n      mstore\n      0x04\n      add\n      tag_15\n      swap5\n      swap4\n      swap3\n      swap2\n      swap1\n      tag_16\n      jump\t// in\n    tag_15:\n      0x00\n      mload(0x40)\n      dup1\n      dup4\n      sub\n      dup2\n      0x00\n      dup8\n      dup1\n      extcodesize\n      iszero\n      dup1\n      iszero\n      tag_17\n      jumpi\n      0x00\n      dup1\n      revert\n    tag_17:\n      pop\n      gas\n      call\n      iszero\n      dup1\n      iszero\n      tag_19\n      jumpi\n      returndatasize\n      0x00\n      dup1\n      returndatacopy\n      revert(0x00, returndatasize)\n    tag_19:\n      pop\n      pop\n      pop\n      pop\n        /* \"contracts/multisender.sol\":468:475  index++ */\n      dup1\n      dup1\n      tag_20\n      swap1\n      tag_21\n      jump\t// in\n    tag_20:\n      swap2\n      pop\n      pop\n        /* \"contracts/multisender.sol\":422:580  for (uint256 index; index < recipient.length; index++) {... */\n      jump(tag_9)\n    tag_10:\n      pop\n        /* \"contracts/multisender.sol\":293:587  function batchTransfer(ERC1155Partial tokenContract, address[] memory recipient, uint256 id, uint256 amount) external {... */\n      pop\n      pop\n      pop\n      pop\n      jump\t// out\n        /* \"#utility.yul\":7:82   */\n    tag_22:\n        /* \"#utility.yul\":40:46   */\n      0x00\n        /* \"#utility.yul\":73:75   */\n      0x40\n        /* \"#utility.yul\":67:76   */\n      mload\n        /* \"#utility.yul\":57:76   */\n      swap1\n      pop\n        /* \"#utility.yul\":7:82   */\n      swap1\n      jump\t// out\n        /* \"#utility.yul\":88:205   */\n    tag_23:\n        /* \"#utility.yul\":197:198   */\n      0x00\n        /* \"#utility.yul\":194:195   */\n      dup1\n        /* \"#utility.yul\":187:199   */\n      revert\n        /* \"#utility.yul\":211:328   */\n    tag_24:\n        /* \"#utility.yul\":320:321   */\n      0x00\n        /* \"#utility.yul\":317:318   */\n      dup1\n        /* \"#utility.yul\":310:322   */\n      revert\n        /* \"#utility.yul\":334:460   */\n    tag_25:\n        /* \"#utility.yul\":371:378   */\n      0x00\n        /* \"#utility.yul\":411:453   */\n      0xffffffffffffffffffffffffffffffffffffffff\n        /* \"#utility.yul\":404:409   */\n      dup3\n        /* \"#utility.yul\":400:454   */\n      and\n        /* \"#utility.yul\":389:454   */\n      swap1\n      pop\n        /* \"#utility.yul\":334:460   */\n      swap2\n      swap1\n      pop\n      jump\t// out\n        /* \"#utility.yul\":466:562   */\n    tag_26:\n        /* \"#utility.yul\":503:510   */\n      0x00\n        /* \"#utility.yul\":532:556   */\n      tag_56\n        /* \"#utility.yul\":550:555   */\n      dup3\n        /* \"#utility.yul\":532:556   */\n      tag_25\n      jump\t// in\n    tag_56:\n        /* \"#utility.yul\":521:556   */\n      swap1\n      pop\n        /* \"#utility.yul\":466:562   */\n      swap2\n      swap1\n      pop\n      jump\t// out\n        /* \"#utility.yul\":568:685   */\n    tag_27:\n        /* \"#utility.yul\":626:633   */\n      0x00\n        /* \"#utility.yul\":655:679   */\n      tag_58\n        /* \"#utility.yul\":673:678   */\n      dup3\n        /* \"#utility.yul\":655:679   */\n      tag_26\n      jump\t// in\n    tag_58:\n        /* \"#utility.yul\":644:679   */\n      swap1\n      pop\n        /* \"#utility.yul\":568:685   */\n      swap2\n      swap1\n      pop\n      jump\t// out\n        /* \"#utility.yul\":691:855   */\n    tag_28:\n        /* \"#utility.yul\":785:830   */\n      tag_60\n        /* \"#utility.yul\":824:829   */\n      dup2\n        /* \"#utility.yul\":785:830   */\n      tag_27\n      jump\t// in\n    tag_60:\n        /* \"#utility.yul\":778:783   */\n      dup2\n        /* \"#utility.yul\":775:831   */\n      eq\n        /* \"#utility.yul\":765:849   */\n      tag_61\n      jumpi\n        /* \"#utility.yul\":845:846   */\n      0x00\n        /* \"#utility.yul\":842:843   */\n      dup1\n        /* \"#utility.yul\":835:847   */\n      revert\n        /* \"#utility.yul\":765:849   */\n    tag_61:\n        /* \"#utility.yul\":691:855   */\n      pop\n      jump\t// out\n        /* \"#utility.yul\":861:1042   */\n    tag_29:\n        /* \"#utility.yul\":928:933   */\n      0x00\n        /* \"#utility.yul\":966:972   */\n      dup2\n        /* \"#utility.yul\":953:973   */\n      calldataload\n        /* \"#utility.yul\":944:973   */\n      swap1\n      pop\n        /* \"#utility.yul\":982:1036   */\n      tag_63\n        /* \"#utility.yul\":1030:1035   */\n      dup2\n        /* \"#utility.yul\":982:1036   */\n      tag_28\n      jump\t// in\n    tag_63:\n        /* \"#utility.yul\":861:1042   */\n      swap3\n      swap2\n      pop\n      pop\n      jump\t// out\n        /* \"#utility.yul\":1048:1165   */\n    tag_30:\n        /* \"#utility.yul\":1157:1158   */\n      0x00\n        /* \"#utility.yul\":1154:1155   */\n      dup1\n        /* \"#utility.yul\":1147:1159   */\n      revert\n        /* \"#utility.yul\":1171:1273   */\n    tag_31:\n        /* \"#utility.yul\":1212:1218   */\n      0x00\n        /* \"#utility.yul\":1263:1265   */\n      0x1f\n        /* \"#utility.yul\":1259:1266   */\n      not\n        /* \"#utility.yul\":1254:1256   */\n      0x1f\n        /* \"#utility.yul\":1247:1252   */\n      dup4\n        /* \"#utility.yul\":1243:1257   */\n      add\n        /* \"#utility.yul\":1239:1267   */\n      and\n        /* \"#utility.yul\":1229:1267   */\n      swap1\n      pop\n        /* \"#utility.yul\":1171:1273   */\n      swap2\n      swap1\n      pop\n      jump\t// out\n        /* \"#utility.yul\":1279:1459   */\n    tag_32:\n        /* \"#utility.yul\":1327:1404   */\n      0x4e487b7100000000000000000000000000000000000000000000000000000000\n        /* \"#utility.yul\":1324:1325   */\n      0x00\n        /* \"#utility.yul\":1317:1405   */\n      mstore\n        /* \"#utility.yul\":1424:1428   */\n      0x41\n        /* \"#utility.yul\":1421:1422   */\n      0x04\n        /* \"#utility.yul\":1414:1429   */\n      mstore\n        /* \"#utility.yul\":1448:1452   */\n      0x24\n        /* \"#utility.yul\":1445:1446   */\n      0x00\n        /* \"#utility.yul\":1438:1453   */\n      revert\n        /* \"#utility.yul\":1465:1746   */\n    tag_33:\n        /* \"#utility.yul\":1548:1575   */\n      tag_68\n        /* \"#utility.yul\":1570:1574   */\n      dup3\n        /* \"#utility.yul\":1548:1575   */\n      tag_31\n      jump\t// in\n    tag_68:\n        /* \"#utility.yul\":1540:1546   */\n      dup2\n        /* \"#utility.yul\":1536:1576   */\n      add\n        /* \"#utility.yul\":1678:1684   */\n      dup2\n        /* \"#utility.yul\":1666:1676   */\n      dup2\n        /* \"#utility.yul\":1663:1685   */\n      lt\n        /* \"#utility.yul\":1642:1660   */\n      0xffffffffffffffff\n        /* \"#utility.yul\":1630:1640   */\n      dup3\n        /* \"#utility.yul\":1627:1661   */\n      gt\n        /* \"#utility.yul\":1624:1686   */\n      or\n        /* \"#utility.yul\":1621:1709   */\n      iszero\n      tag_69\n      jumpi\n        /* \"#utility.yul\":1689:1707   */\n      tag_70\n      tag_32\n      jump\t// in\n    tag_70:\n        /* \"#utility.yul\":1621:1709   */\n    tag_69:\n        /* \"#utility.yul\":1729:1739   */\n      dup1\n        /* \"#utility.yul\":1725:1727   */\n      0x40\n        /* \"#utility.yul\":1718:1740   */\n      mstore\n        /* \"#utility.yul\":1508:1746   */\n      pop\n        /* \"#utility.yul\":1465:1746   */\n      pop\n      pop\n      jump\t// out\n        /* \"#utility.yul\":1752:1881   */\n    tag_34:\n        /* \"#utility.yul\":1786:1792   */\n      0x00\n        /* \"#utility.yul\":1813:1833   */\n      tag_72\n      tag_22\n      jump\t// in\n    tag_72:\n        /* \"#utility.yul\":1803:1833   */\n      swap1\n      pop\n        /* \"#utility.yul\":1842:1875   */\n      tag_73\n        /* \"#utility.yul\":1870:1874   */\n      dup3\n        /* \"#utility.yul\":1862:1868   */\n      dup3\n        /* \"#utility.yul\":1842:1875   */\n      tag_33\n      jump\t// in\n    tag_73:\n        /* \"#utility.yul\":1752:1881   */\n      swap2\n      swap1\n      pop\n      jump\t// out\n        /* \"#utility.yul\":1887:2198   */\n    tag_35:\n        /* \"#utility.yul\":1964:1968   */\n      0x00\n        /* \"#utility.yul\":2054:2072   */\n      0xffffffffffffffff\n        /* \"#utility.yul\":2046:2052   */\n      dup3\n        /* \"#utility.yul\":2043:2073   */\n      gt\n        /* \"#utility.yul\":2040:2096   */\n      iszero\n      tag_75\n      jumpi\n        /* \"#utility.yul\":2076:2094   */\n      tag_76\n      tag_32\n      jump\t// in\n    tag_76:\n        /* \"#utility.yul\":2040:2096   */\n    tag_75:\n        /* \"#utility.yul\":2126:2130   */\n      0x20\n        /* \"#utility.yul\":2118:2124   */\n      dup3\n        /* \"#utility.yul\":2114:2131   */\n      mul\n        /* \"#utility.yul\":2106:2131   */\n      swap1\n      pop\n        /* \"#utility.yul\":2186:2190   */\n      0x20\n        /* \"#utility.yul\":2180:2184   */\n      dup2\n        /* \"#utility.yul\":2176:2191   */\n      add\n        /* \"#utility.yul\":2168:2191   */\n      swap1\n      pop\n        /* \"#utility.yul\":1887:2198   */\n      swap2\n      swap1\n      pop\n      jump\t// out\n        /* \"#utility.yul\":2204:2321   */\n    tag_36:\n        /* \"#utility.yul\":2313:2314   */\n      0x00\n        /* \"#utility.yul\":2310:2311   */\n      dup1\n        /* \"#utility.yul\":2303:2315   */\n      revert\n        /* \"#utility.yul\":2327:2449   */\n    tag_37:\n        /* \"#utility.yul\":2400:2424   */\n      tag_79\n        /* \"#utility.yul\":2418:2423   */\n      dup2\n        /* \"#utility.yul\":2400:2424   */\n      tag_26\n      jump\t// in\n    tag_79:\n        /* \"#utility.yul\":2393:2398   */\n      dup2\n        /* \"#utility.yul\":2390:2425   */\n      eq\n        /* \"#utility.yul\":2380:2443   */\n      tag_80\n      jumpi\n        /* \"#utility.yul\":2439:2440   */\n      0x00\n        /* \"#utility.yul\":2436:2437   */\n      dup1\n        /* \"#utility.yul\":2429:2441   */\n      revert\n        /* \"#utility.yul\":2380:2443   */\n    tag_80:\n        /* \"#utility.yul\":2327:2449   */\n      pop\n      jump\t// out\n        /* \"#utility.yul\":2455:2594   */\n    tag_38:\n        /* \"#utility.yul\":2501:2506   */\n      0x00\n        /* \"#utility.yul\":2539:2545   */\n      dup2\n        /* \"#utility.yul\":2526:2546   */\n      calldataload\n        /* \"#utility.yul\":2517:2546   */\n      swap1\n      pop\n        /* \"#utility.yul\":2555:2588   */\n      tag_82\n        /* \"#utility.yul\":2582:2587   */\n      dup2\n        /* \"#utility.yul\":2555:2588   */\n      tag_37\n      jump\t// in\n    tag_82:\n        /* \"#utility.yul\":2455:2594   */\n      swap3\n      swap2\n      pop\n      pop\n      jump\t// out\n        /* \"#utility.yul\":2617:3327   */\n    tag_39:\n        /* \"#utility.yul\":2713:2718   */\n      0x00\n        /* \"#utility.yul\":2738:2819   */\n      tag_84\n        /* \"#utility.yul\":2754:2818   */\n      tag_85\n        /* \"#utility.yul\":2811:2817   */\n      dup5\n        /* \"#utility.yul\":2754:2818   */\n      tag_35\n      jump\t// in\n    tag_85:\n        /* \"#utility.yul\":2738:2819   */\n      tag_34\n      jump\t// in\n    tag_84:\n        /* \"#utility.yul\":2729:2819   */\n      swap1\n      pop\n        /* \"#utility.yul\":2839:2844   */\n      dup1\n        /* \"#utility.yul\":2868:2874   */\n      dup4\n        /* \"#utility.yul\":2861:2866   */\n      dup3\n        /* \"#utility.yul\":2854:2875   */\n      mstore\n        /* \"#utility.yul\":2902:2906   */\n      0x20\n        /* \"#utility.yul\":2895:2900   */\n      dup3\n        /* \"#utility.yul\":2891:2907   */\n      add\n        /* \"#utility.yul\":2884:2907   */\n      swap1\n      pop\n        /* \"#utility.yul\":2955:2959   */\n      0x20\n        /* \"#utility.yul\":2947:2953   */\n      dup5\n        /* \"#utility.yul\":2943:2960   */\n      mul\n        /* \"#utility.yul\":2935:2941   */\n      dup4\n        /* \"#utility.yul\":2931:2961   */\n      add\n        /* \"#utility.yul\":2984:2987   */\n      dup6\n        /* \"#utility.yul\":2976:2982   */\n      dup2\n        /* \"#utility.yul\":2973:2988   */\n      gt\n        /* \"#utility.yul\":2970:3092   */\n      iszero\n      tag_86\n      jumpi\n        /* \"#utility.yul\":3003:3082   */\n      tag_87\n      tag_36\n      jump\t// in\n    tag_87:\n        /* \"#utility.yul\":2970:3092   */\n    tag_86:\n        /* \"#utility.yul\":3118:3124   */\n      dup4\n        /* \"#utility.yul\":3101:3321   */\n    tag_88:\n        /* \"#utility.yul\":3135:3141   */\n      dup2\n        /* \"#utility.yul\":3130:3133   */\n      dup2\n        /* \"#utility.yul\":3127:3142   */\n      lt\n        /* \"#utility.yul\":3101:3321   */\n      iszero\n      tag_90\n      jumpi\n        /* \"#utility.yul\":3210:3213   */\n      dup1\n        /* \"#utility.yul\":3239:3276   */\n      tag_91\n        /* \"#utility.yul\":3272:3275   */\n      dup9\n        /* \"#utility.yul\":3260:3270   */\n      dup3\n        /* \"#utility.yul\":3239:3276   */\n      tag_38\n      jump\t// in\n    tag_91:\n        /* \"#utility.yul\":3234:3237   */\n      dup5\n        /* \"#utility.yul\":3227:3277   */\n      mstore\n        /* \"#utility.yul\":3306:3310   */\n      0x20\n        /* \"#utility.yul\":3301:3304   */\n      dup5\n        /* \"#utility.yul\":3297:3311   */\n      add\n        /* \"#utility.yul\":3290:3311   */\n      swap4\n      pop\n        /* \"#utility.yul\":3177:3321   */\n      pop\n        /* \"#utility.yul\":3161:3165   */\n      0x20\n        /* \"#utility.yul\":3156:3159   */\n      dup2\n        /* \"#utility.yul\":3152:3166   */\n      add\n        /* \"#utility.yul\":3145:3166   */\n      swap1\n      pop\n        /* \"#utility.yul\":3101:3321   */\n      jump(tag_88)\n    tag_90:\n        /* \"#utility.yul\":3105:3126   */\n      pop\n        /* \"#utility.yul\":2719:3327   */\n      pop\n      pop\n        /* \"#utility.yul\":2617:3327   */\n      swap4\n      swap3\n      pop\n      pop\n      pop\n      jump\t// out\n        /* \"#utility.yul\":3350:3720   */\n    tag_40:\n        /* \"#utility.yul\":3421:3426   */\n      0x00\n        /* \"#utility.yul\":3470:3473   */\n      dup3\n        /* \"#utility.yul\":3463:3467   */\n      0x1f\n        /* \"#utility.yul\":3455:3461   */\n      dup4\n        /* \"#utility.yul\":3451:3468   */\n      add\n        /* \"#utility.yul\":3447:3474   */\n      slt\n        /* \"#utility.yul\":3437:3559   */\n      tag_93\n      jumpi\n        /* \"#utility.yul\":3478:3557   */\n      tag_94\n      tag_30\n      jump\t// in\n    tag_94:\n        /* \"#utility.yul\":3437:3559   */\n    tag_93:\n        /* \"#utility.yul\":3595:3601   */\n      dup2\n        /* \"#utility.yul\":3582:3602   */\n      calldataload\n        /* \"#utility.yul\":3620:3714   */\n      tag_95\n        /* \"#utility.yul\":3710:3713   */\n      dup5\n        /* \"#utility.yul\":3702:3708   */\n      dup3\n        /* \"#utility.yul\":3695:3699   */\n      0x20\n        /* \"#utility.yul\":3687:3693   */\n      dup7\n        /* \"#utility.yul\":3683:3700   */\n      add\n        /* \"#utility.yul\":3620:3714   */\n      tag_39\n      jump\t// in\n    tag_95:\n        /* \"#utility.yul\":3611:3714   */\n      swap2\n      pop\n        /* \"#utility.yul\":3427:3720   */\n      pop\n        /* \"#utility.yul\":3350:3720   */\n      swap3\n      swap2\n      pop\n      pop\n      jump\t// out\n        /* \"#utility.yul\":3726:3803   */\n    tag_41:\n        /* \"#utility.yul\":3763:3770   */\n      0x00\n        /* \"#utility.yul\":3792:3797   */\n      dup2\n        /* \"#utility.yul\":3781:3797   */\n      swap1\n      pop\n        /* \"#utility.yul\":3726:3803   */\n      swap2\n      swap1\n      pop\n      jump\t// out\n        /* \"#utility.yul\":3809:3931   */\n    tag_42:\n        /* \"#utility.yul\":3882:3906   */\n      tag_98\n        /* \"#utility.yul\":3900:3905   */\n      dup2\n        /* \"#utility.yul\":3882:3906   */\n      tag_41\n      jump\t// in\n    tag_98:\n        /* \"#utility.yul\":3875:3880   */\n      dup2\n        /* \"#utility.yul\":3872:3907   */\n      eq\n        /* \"#utility.yul\":3862:3925   */\n      tag_99\n      jumpi\n        /* \"#utility.yul\":3921:3922   */\n      0x00\n        /* \"#utility.yul\":3918:3919   */\n      dup1\n        /* \"#utility.yul\":3911:3923   */\n      revert\n        /* \"#utility.yul\":3862:3925   */\n    tag_99:\n        /* \"#utility.yul\":3809:3931   */\n      pop\n      jump\t// out\n        /* \"#utility.yul\":3937:4076   */\n    tag_43:\n        /* \"#utility.yul\":3983:3988   */\n      0x00\n        /* \"#utility.yul\":4021:4027   */\n      dup2\n        /* \"#utility.yul\":4008:4028   */\n      calldataload\n        /* \"#utility.yul\":3999:4028   */\n      swap1\n      pop\n        /* \"#utility.yul\":4037:4070   */\n      tag_101\n        /* \"#utility.yul\":4064:4069   */\n      dup2\n        /* \"#utility.yul\":4037:4070   */\n      tag_42\n      jump\t// in\n    tag_101:\n        /* \"#utility.yul\":3937:4076   */\n      swap3\n      swap2\n      pop\n      pop\n      jump\t// out\n        /* \"#utility.yul\":4082:5099   */\n    tag_6:\n        /* \"#utility.yul\":4214:4220   */\n      0x00\n        /* \"#utility.yul\":4222:4228   */\n      dup1\n        /* \"#utility.yul\":4230:4236   */\n      0x00\n        /* \"#utility.yul\":4238:4244   */\n      dup1\n        /* \"#utility.yul\":4287:4290   */\n      0x80\n        /* \"#utility.yul\":4275:4284   */\n      dup6\n        /* \"#utility.yul\":4266:4273   */\n      dup8\n        /* \"#utility.yul\":4262:4285   */\n      sub\n        /* \"#utility.yul\":4258:4291   */\n      slt\n        /* \"#utility.yul\":4255:4375   */\n      iszero\n      tag_103\n      jumpi\n        /* \"#utility.yul\":4294:4373   */\n      tag_104\n      tag_23\n      jump\t// in\n    tag_104:\n        /* \"#utility.yul\":4255:4375   */\n    tag_103:\n        /* \"#utility.yul\":4414:4415   */\n      0x00\n        /* \"#utility.yul\":4439:4513   */\n      tag_105\n        /* \"#utility.yul\":4505:4512   */\n      dup8\n        /* \"#utility.yul\":4496:4502   */\n      dup3\n        /* \"#utility.yul\":4485:4494   */\n      dup9\n        /* \"#utility.yul\":4481:4503   */\n      add\n        /* \"#utility.yul\":4439:4513   */\n      tag_29\n      jump\t// in\n    tag_105:\n        /* \"#utility.yul\":4429:4513   */\n      swap5\n      pop\n        /* \"#utility.yul\":4385:4523   */\n      pop\n        /* \"#utility.yul\":4590:4592   */\n      0x20\n        /* \"#utility.yul\":4579:4588   */\n      dup6\n        /* \"#utility.yul\":4575:4593   */\n      add\n        /* \"#utility.yul\":4562:4594   */\n      calldataload\n        /* \"#utility.yul\":4621:4639   */\n      0xffffffffffffffff\n        /* \"#utility.yul\":4613:4619   */\n      dup2\n        /* \"#utility.yul\":4610:4640   */\n      gt\n        /* \"#utility.yul\":4607:4724   */\n      iszero\n      tag_106\n      jumpi\n        /* \"#utility.yul\":4643:4722   */\n      tag_107\n      tag_24\n      jump\t// in\n    tag_107:\n        /* \"#utility.yul\":4607:4724   */\n    tag_106:\n        /* \"#utility.yul\":4748:4826   */\n      tag_108\n        /* \"#utility.yul\":4818:4825   */\n      dup8\n        /* \"#utility.yul\":4809:4815   */\n      dup3\n        /* \"#utility.yul\":4798:4807   */\n      dup9\n        /* \"#utility.yul\":4794:4816   */\n      add\n        /* \"#utility.yul\":4748:4826   */\n      tag_40\n      jump\t// in\n    tag_108:\n        /* \"#utility.yul\":4738:4826   */\n      swap4\n      pop\n        /* \"#utility.yul\":4533:4836   */\n      pop\n        /* \"#utility.yul\":4875:4877   */\n      0x40\n        /* \"#utility.yul\":4901:4954   */\n      tag_109\n        /* \"#utility.yul\":4946:4953   */\n      dup8\n        /* \"#utility.yul\":4937:4943   */\n      dup3\n        /* \"#utility.yul\":4926:4935   */\n      dup9\n        /* \"#utility.yul\":4922:4944   */\n      add\n        /* \"#utility.yul\":4901:4954   */\n      tag_43\n      jump\t// in\n    tag_109:\n        /* \"#utility.yul\":4891:4954   */\n      swap3\n      pop\n        /* \"#utility.yul\":4846:4964   */\n      pop\n        /* \"#utility.yul\":5003:5005   */\n      0x60\n        /* \"#utility.yul\":5029:5082   */\n      tag_110\n        /* \"#utility.yul\":5074:5081   */\n      dup8\n        /* \"#utility.yul\":5065:5071   */\n      dup3\n        /* \"#utility.yul\":5054:5063   */\n      dup9\n        /* \"#utility.yul\":5050:5072   */\n      add\n        /* \"#utility.yul\":5029:5082   */\n      tag_43\n      jump\t// in\n    tag_110:\n        /* \"#utility.yul\":5019:5082   */\n      swap2\n      pop\n        /* \"#utility.yul\":4974:5092   */\n      pop\n        /* \"#utility.yul\":4082:5099   */\n      swap3\n      swap6\n      swap2\n      swap5\n      pop\n      swap3\n      pop\n      jump\t// out\n        /* \"#utility.yul\":5105:5285   */\n    tag_14:\n        /* \"#utility.yul\":5153:5230   */\n      0x4e487b7100000000000000000000000000000000000000000000000000000000\n        /* \"#utility.yul\":5150:5151   */\n      0x00\n        /* \"#utility.yul\":5143:5231   */\n      mstore\n        /* \"#utility.yul\":5250:5254   */\n      0x32\n        /* \"#utility.yul\":5247:5248   */\n      0x04\n        /* \"#utility.yul\":5240:5255   */\n      mstore\n        /* \"#utility.yul\":5274:5278   */\n      0x24\n        /* \"#utility.yul\":5271:5272   */\n      0x00\n        /* \"#utility.yul\":5264:5279   */\n      revert\n        /* \"#utility.yul\":5291:5409   */\n    tag_44:\n        /* \"#utility.yul\":5378:5402   */\n      tag_113\n        /* \"#utility.yul\":5396:5401   */\n      dup2\n        /* \"#utility.yul\":5378:5402   */\n      tag_26\n      jump\t// in\n    tag_113:\n        /* \"#utility.yul\":5373:5376   */\n      dup3\n        /* \"#utility.yul\":5366:5403   */\n      mstore\n        /* \"#utility.yul\":5291:5409   */\n      pop\n      pop\n      jump\t// out\n        /* \"#utility.yul\":5415:5533   */\n    tag_45:\n        /* \"#utility.yul\":5502:5526   */\n      tag_115\n        /* \"#utility.yul\":5520:5525   */\n      dup2\n        /* \"#utility.yul\":5502:5526   */\n      tag_41\n      jump\t// in\n    tag_115:\n        /* \"#utility.yul\":5497:5500   */\n      dup3\n        /* \"#utility.yul\":5490:5527   */\n      mstore\n        /* \"#utility.yul\":5415:5533   */\n      pop\n      pop\n      jump\t// out\n        /* \"#utility.yul\":5539:5707   */\n    tag_46:\n        /* \"#utility.yul\":5622:5633   */\n      0x00\n        /* \"#utility.yul\":5656:5662   */\n      dup3\n        /* \"#utility.yul\":5651:5654   */\n      dup3\n        /* \"#utility.yul\":5644:5663   */\n      mstore\n        /* \"#utility.yul\":5696:5700   */\n      0x20\n        /* \"#utility.yul\":5691:5694   */\n      dup3\n        /* \"#utility.yul\":5687:5701   */\n      add\n        /* \"#utility.yul\":5672:5701   */\n      swap1\n      pop\n        /* \"#utility.yul\":5539:5707   */\n      swap3\n      swap2\n      pop\n      pop\n      jump\t// out\n        /* \"#utility.yul\":5713:5827   */\n    tag_47:\n      pop\n      jump\t// out\n        /* \"#utility.yul\":5833:6195   */\n    tag_48:\n        /* \"#utility.yul\":5974:5977   */\n      0x00\n        /* \"#utility.yul\":5995:6060   */\n      tag_119\n        /* \"#utility.yul\":6058:6059   */\n      0x00\n        /* \"#utility.yul\":6053:6056   */\n      dup4\n        /* \"#utility.yul\":5995:6060   */\n      tag_46\n      jump\t// in\n    tag_119:\n        /* \"#utility.yul\":5988:6060   */\n      swap2\n      pop\n        /* \"#utility.yul\":6069:6162   */\n      tag_120\n        /* \"#utility.yul\":6158:6161   */\n      dup3\n        /* \"#utility.yul\":6069:6162   */\n      tag_47\n      jump\t// in\n    tag_120:\n        /* \"#utility.yul\":6187:6188   */\n      0x00\n        /* \"#utility.yul\":6182:6185   */\n      dup3\n        /* \"#utility.yul\":6178:6189   */\n      add\n        /* \"#utility.yul\":6171:6189   */\n      swap1\n      pop\n        /* \"#utility.yul\":5833:6195   */\n      swap2\n      swap1\n      pop\n      jump\t// out\n        /* \"#utility.yul\":6201:7060   */\n    tag_16:\n        /* \"#utility.yul\":6478:6482   */\n      0x00\n        /* \"#utility.yul\":6516:6519   */\n      0xa0\n        /* \"#utility.yul\":6505:6514   */\n      dup3\n        /* \"#utility.yul\":6501:6520   */\n      add\n        /* \"#utility.yul\":6493:6520   */\n      swap1\n      pop\n        /* \"#utility.yul\":6530:6601   */\n      tag_122\n        /* \"#utility.yul\":6598:6599   */\n      0x00\n        /* \"#utility.yul\":6587:6596   */\n      dup4\n        /* \"#utility.yul\":6583:6600   */\n      add\n        /* \"#utility.yul\":6574:6580   */\n      dup8\n        /* \"#utility.yul\":6530:6601   */\n      tag_44\n      jump\t// in\n    tag_122:\n        /* \"#utility.yul\":6611:6683   */\n      tag_123\n        /* \"#utility.yul\":6679:6681   */\n      0x20\n        /* \"#utility.yul\":6668:6677   */\n      dup4\n        /* \"#utility.yul\":6664:6682   */\n      add\n        /* \"#utility.yul\":6655:6661   */\n      dup7\n        /* \"#utility.yul\":6611:6683   */\n      tag_44\n      jump\t// in\n    tag_123:\n        /* \"#utility.yul\":6693:6765   */\n      tag_124\n        /* \"#utility.yul\":6761:6763   */\n      0x40\n        /* \"#utility.yul\":6750:6759   */\n      dup4\n        /* \"#utility.yul\":6746:6764   */\n      add\n        /* \"#utility.yul\":6737:6743   */\n      dup6\n        /* \"#utility.yul\":6693:6765   */\n      tag_45\n      jump\t// in\n    tag_124:\n        /* \"#utility.yul\":6775:6847   */\n      tag_125\n        /* \"#utility.yul\":6843:6845   */\n      0x60\n        /* \"#utility.yul\":6832:6841   */\n      dup4\n        /* \"#utility.yul\":6828:6846   */\n      add\n        /* \"#utility.yul\":6819:6825   */\n      dup5\n        /* \"#utility.yul\":6775:6847   */\n      tag_45\n      jump\t// in\n    tag_125:\n        /* \"#utility.yul\":6895:6904   */\n      dup2\n        /* \"#utility.yul\":6889:6893   */\n      dup2\n        /* \"#utility.yul\":6885:6905   */\n      sub\n        /* \"#utility.yul\":6879:6882   */\n      0x80\n        /* \"#utility.yul\":6868:6877   */\n      dup4\n        /* \"#utility.yul\":6864:6883   */\n      add\n        /* \"#utility.yul\":6857:6906   */\n      mstore\n        /* \"#utility.yul\":6923:7053   */\n      tag_126\n        /* \"#utility.yul\":7048:7052   */\n      dup2\n        /* \"#utility.yul\":6923:7053   */\n      tag_48\n      jump\t// in\n    tag_126:\n        /* \"#utility.yul\":6915:7053   */\n      swap1\n      pop\n        /* \"#utility.yul\":6201:7060   */\n      swap6\n      swap5\n      pop\n      pop\n      pop\n      pop\n      pop\n      jump\t// out\n        /* \"#utility.yul\":7066:7246   */\n    tag_49:\n        /* \"#utility.yul\":7114:7191   */\n      0x4e487b7100000000000000000000000000000000000000000000000000000000\n        /* \"#utility.yul\":7111:7112   */\n      0x00\n        /* \"#utility.yul\":7104:7192   */\n      mstore\n        /* \"#utility.yul\":7211:7215   */\n      0x11\n        /* \"#utility.yul\":7208:7209   */\n      0x04\n        /* \"#utility.yul\":7201:7216   */\n      mstore\n        /* \"#utility.yul\":7235:7239   */\n      0x24\n        /* \"#utility.yul\":7232:7233   */\n      0x00\n        /* \"#utility.yul\":7225:7240   */\n      revert\n        /* \"#utility.yul\":7252:7485   */\n    tag_21:\n        /* \"#utility.yul\":7291:7294   */\n      0x00\n        /* \"#utility.yul\":7314:7338   */\n      tag_129\n        /* \"#utility.yul\":7332:7337   */\n      dup3\n        /* \"#utility.yul\":7314:7338   */\n      tag_41\n      jump\t// in\n    tag_129:\n        /* \"#utility.yul\":7305:7338   */\n      swap2\n      pop\n        /* \"#utility.yul\":7360:7426   */\n      0xffffffffffffffffffffffffffffffffffffffffffffffffffffffffffffffff\n        /* \"#utility.yul\":7353:7358   */\n      dup3\n        /* \"#utility.yul\":7350:7427   */\n      eq\n        /* \"#utility.yul\":7347:7450   */\n      iszero\n      tag_130\n      jumpi\n        /* \"#utility.yul\":7430:7448   */\n      tag_131\n      tag_49\n      jump\t// in\n    tag_131:\n        /* \"#utility.yul\":7347:7450   */\n    tag_130:\n        /* \"#utility.yul\":7477:7478   */\n      0x01\n        /* \"#utility.yul\":7470:7475   */\n      dup3\n        /* \"#utility.yul\":7466:7479   */\n      add\n        /* \"#utility.yul\":7459:7479   */\n      swap1\n      pop\n        /* \"#utility.yul\":7252:7485   */\n      swap2\n      swap1\n      pop\n      jump\t// out\n\n    auxdata: 0xa2646970667358221220b148d2ffce45a06b646e3e732eb84a64f6a51b4f48b89f5f42a1f63483dfce5264736f6c634300080a0033\n}\n",
				"bytecode": {
					"linkReferences": {},
					"object": "608060405234801561001057600080fd5b50610549806100206000396000f3fe608060405234801561001057600080fd5b506004361061002b5760003560e01c8063f9db815e14610030575b600080fd5b61004a6004803603810190610045919061033c565b61004c565b005b60005b83518110156100f6578473ffffffffffffffffffffffffffffffffffffffff1663f242432a33868481518110610088576100876103bf565b5b602002602001015186866040518563ffffffff1660e01b81526004016100b19493929190610443565b600060405180830381600087803b1580156100cb57600080fd5b505af11580156100df573d6000803e3d6000fd5b5050505080806100ee906104ca565b91505061004f565b5050505050565b6000604051905090565b600080fd5b600080fd5b600073ffffffffffffffffffffffffffffffffffffffff82169050919050565b600061013c82610111565b9050919050565b600061014e82610131565b9050919050565b61015e81610143565b811461016957600080fd5b50565b60008135905061017b81610155565b92915050565b600080fd5b6000601f19601f8301169050919050565b7f4e487b7100000000000000000000000000000000000000000000000000000000600052604160045260246000fd5b6101cf82610186565b810181811067ffffffffffffffff821117156101ee576101ed610197565b5b80604052505050565b60006102016100fd565b905061020d82826101c6565b919050565b600067ffffffffffffffff82111561022d5761022c610197565b5b602082029050602081019050919050565b600080fd5b61024c81610131565b811461025757600080fd5b50565b60008135905061026981610243565b92915050565b600061028261027d84610212565b6101f7565b905080838252602082019050602084028301858111156102a5576102a461023e565b5b835b818110156102ce57806102ba888261025a565b8452602084019350506020810190506102a7565b5050509392505050565b600082601f8301126102ed576102ec610181565b5b81356102fd84826020860161026f565b91505092915050565b6000819050919050565b61031981610306565b811461032457600080fd5b50565b60008135905061033681610310565b92915050565b6000806000806080858703121561035657610355610107565b5b60006103648782880161016c565b945050602085013567ffffffffffffffff8111156103855761038461010c565b5b610391878288016102d8565b93505060406103a287828801610327565b92505060606103b387828801610327565b91505092959194509250565b7f4e487b7100000000000000000000000000000000000000000000000000000000600052603260045260246000fd5b6103f781610131565b82525050565b61040681610306565b82525050565b600082825260208201905092915050565b50565b600061042d60008361040c565b91506104388261041d565b600082019050919050565b600060a08201905061045860008301876103ee565b61046560208301866103ee565b61047260408301856103fd565b61047f60608301846103fd565b818103608083015261049081610420565b905095945050505050565b7f4e487b7100000000000000000000000000000000000000000000000000000000600052601160045260246000fd5b60006104d582610306565b91507fffffffffffffffffffffffffffffffffffffffffffffffffffffffffffffffff8214156105085761050761049b565b5b60018201905091905056fea2646970667358221220b148d2ffce45a06b646e3e732eb84a64f6a51b4f48b89f5f42a1f63483dfce5264736f6c634300080a0033",
					"opcodes": "PUSH1 0x80 PUSH1 0x40 MSTORE CALLVALUE DUP1 ISZERO PUSH2 0x10 JUMPI PUSH1 0x0 DUP1 REVERT JUMPDEST POP PUSH2 0x549 DUP1 PUSH2 0x20 PUSH1 0x0 CODECOPY PUSH1 0x0 RETURN INVALID PUSH1 0x80 PUSH1 0x40 MSTORE CALLVALUE DUP1 ISZERO PUSH2 0x10 JUMPI PUSH1 0x0 DUP1 REVERT JUMPDEST POP PUSH1 0x4 CALLDATASIZE LT PUSH2 0x2B JUMPI PUSH1 0x0 CALLDATALOAD PUSH1 0xE0 SHR DUP1 PUSH4 0xF9DB815E EQ PUSH2 0x30 JUMPI JUMPDEST PUSH1 0x0 DUP1 REVERT JUMPDEST PUSH2 0x4A PUSH1 0x4 DUP1 CALLDATASIZE SUB DUP2 ADD SWAP1 PUSH2 0x45 SWAP2 SWAP1 PUSH2 0x33C JUMP JUMPDEST PUSH2 0x4C JUMP JUMPDEST STOP JUMPDEST PUSH1 0x0 JUMPDEST DUP4 MLOAD DUP2 LT ISZERO PUSH2 0xF6 JUMPI DUP5 PUSH20 0xFFFFFFFFFFFFFFFFFFFFFFFFFFFFFFFFFFFFFFFF AND PUSH4 0xF242432A CALLER DUP7 DUP5 DUP2 MLOAD DUP2 LT PUSH2 0x88 JUMPI PUSH2 0x87 PUSH2 0x3BF JUMP JUMPDEST JUMPDEST PUSH1 0x20 MUL PUSH1 0x20 ADD ADD MLOAD DUP7 DUP7 PUSH1 0x40 MLOAD DUP6 PUSH4 0xFFFFFFFF AND PUSH1 0xE0 SHL DUP2 MSTORE PUSH1 0x4 ADD PUSH2 0xB1 SWAP5 SWAP4 SWAP3 SWAP2 SWAP1 PUSH2 0x443 JUMP JUMPDEST PUSH1 0x0 PUSH1 0x40 MLOAD DUP1 DUP4 SUB DUP2 PUSH1 0x0 DUP8 DUP1 EXTCODESIZE ISZERO DUP1 ISZERO PUSH2 0xCB JUMPI PUSH1 0x0 DUP1 REVERT JUMPDEST POP GAS CALL ISZERO DUP1 ISZERO PUSH2 0xDF JUMPI RETURNDATASIZE PUSH1 0x0 DUP1 RETURNDATACOPY RETURNDATASIZE PUSH1 0x0 REVERT JUMPDEST POP POP POP POP DUP1 DUP1 PUSH2 0xEE SWAP1 PUSH2 0x4CA JUMP JUMPDEST SWAP2 POP POP PUSH2 0x4F JUMP JUMPDEST POP POP POP POP POP JUMP JUMPDEST PUSH1 0x0 PUSH1 0x40 MLOAD SWAP1 POP SWAP1 JUMP JUMPDEST PUSH1 0x0 DUP1 REVERT JUMPDEST PUSH1 0x0 DUP1 REVERT JUMPDEST PUSH1 0x0 PUSH20 0xFFFFFFFFFFFFFFFFFFFFFFFFFFFFFFFFFFFFFFFF DUP3 AND SWAP1 POP SWAP2 SWAP1 POP JUMP JUMPDEST PUSH1 0x0 PUSH2 0x13C DUP3 PUSH2 0x111 JUMP JUMPDEST SWAP1 POP SWAP2 SWAP1 POP JUMP JUMPDEST PUSH1 0x0 PUSH2 0x14E DUP3 PUSH2 0x131 JUMP JUMPDEST SWAP1 POP SWAP2 SWAP1 POP JUMP JUMPDEST PUSH2 0x15E DUP2 PUSH2 0x143 JUMP JUMPDEST DUP2 EQ PUSH2 0x169 JUMPI PUSH1 0x0 DUP1 REVERT JUMPDEST POP JUMP JUMPDEST PUSH1 0x0 DUP2 CALLDATALOAD SWAP1 POP PUSH2 0x17B DUP2 PUSH2 0x155 JUMP JUMPDEST SWAP3 SWAP2 POP POP JUMP JUMPDEST PUSH1 0x0 DUP1 REVERT JUMPDEST PUSH1 0x0 PUSH1 0x1F NOT PUSH1 0x1F DUP4 ADD AND SWAP1 POP SWAP2 SWAP1 POP JUMP JUMPDEST PUSH32 0x4E487B7100000000000000000000000000000000000000000000000000000000 PUSH1 0x0 MSTORE PUSH1 0x41 PUSH1 0x4 MSTORE PUSH1 0x24 PUSH1 0x0 REVERT JUMPDEST PUSH2 0x1CF DUP3 PUSH2 0x186 JUMP JUMPDEST DUP2 ADD DUP2 DUP2 LT PUSH8 0xFFFFFFFFFFFFFFFF DUP3 GT OR ISZERO PUSH2 0x1EE JUMPI PUSH2 0x1ED PUSH2 0x197 JUMP JUMPDEST JUMPDEST DUP1 PUSH1 0x40 MSTORE POP POP POP JUMP JUMPDEST PUSH1 0x0 PUSH2 0x201 PUSH2 0xFD JUMP JUMPDEST SWAP1 POP PUSH2 0x20D DUP3 DUP3 PUSH2 0x1C6 JUMP JUMPDEST SWAP2 SWAP1 POP JUMP JUMPDEST PUSH1 0x0 PUSH8 0xFFFFFFFFFFFFFFFF DUP3 GT ISZERO PUSH2 0x22D JUMPI PUSH2 0x22C PUSH2 0x197 JUMP JUMPDEST JUMPDEST PUSH1 0x20 DUP3 MUL SWAP1 POP PUSH1 0x20 DUP2 ADD SWAP1 POP SWAP2 SWAP1 POP JUMP JUMPDEST PUSH1 0x0 DUP1 REVERT JUMPDEST PUSH2 0x24C DUP2 PUSH2 0x131 JUMP JUMPDEST DUP2 EQ PUSH2 0x257 JUMPI PUSH1 0x0 DUP1 REVERT JUMPDEST POP JUMP JUMPDEST PUSH1 0x0 DUP2 CALLDATALOAD SWAP1 POP PUSH2 0x269 DUP2 PUSH2 0x243 JUMP JUMPDEST SWAP3 SWAP2 POP POP JUMP JUMPDEST PUSH1 0x0 PUSH2 0x282 PUSH2 0x27D DUP5 PUSH2 0x212 JUMP JUMPDEST PUSH2 0x1F7 JUMP JUMPDEST SWAP1 POP DUP1 DUP4 DUP3 MSTORE PUSH1 0x20 DUP3 ADD SWAP1 POP PUSH1 0x20 DUP5 MUL DUP4 ADD DUP6 DUP2 GT ISZERO PUSH2 0x2A5 JUMPI PUSH2 0x2A4 PUSH2 0x23E JUMP JUMPDEST JUMPDEST DUP4 JUMPDEST DUP2 DUP2 LT ISZERO PUSH2 0x2CE JUMPI DUP1 PUSH2 0x2BA DUP9 DUP3 PUSH2 0x25A JUMP JUMPDEST DUP5 MSTORE PUSH1 0x20 DUP5 ADD SWAP4 POP POP PUSH1 0x20 DUP2 ADD SWAP1 POP PUSH2 0x2A7 JUMP JUMPDEST POP POP POP SWAP4 SWAP3 POP POP POP JUMP JUMPDEST PUSH1 0x0 DUP3 PUSH1 0x1F DUP4 ADD SLT PUSH2 0x2ED JUMPI PUSH2 0x2EC PUSH2 0x181 JUMP JUMPDEST JUMPDEST DUP2 CALLDATALOAD PUSH2 0x2FD DUP5 DUP3 PUSH1 0x20 DUP7 ADD PUSH2 0x26F JUMP JUMPDEST SWAP2 POP POP SWAP3 SWAP2 POP POP JUMP JUMPDEST PUSH1 0x0 DUP2 SWAP1 POP SWAP2 SWAP1 POP JUMP JUMPDEST PUSH2 0x319 DUP2 PUSH2 0x306 JUMP JUMPDEST DUP2 EQ PUSH2 0x324 JUMPI PUSH1 0x0 DUP1 REVERT JUMPDEST POP JUMP JUMPDEST PUSH1 0x0 DUP2 CALLDATALOAD SWAP1 POP PUSH2 0x336 DUP2 PUSH2 0x310 JUMP JUMPDEST SWAP3 SWAP2 POP POP JUMP JUMPDEST PUSH1 0x0 DUP1 PUSH1 0x0 DUP1 PUSH1 0x80 DUP6 DUP8 SUB SLT ISZERO PUSH2 0x356 JUMPI PUSH2 0x355 PUSH2 0x107 JUMP JUMPDEST JUMPDEST PUSH1 0x0 PUSH2 0x364 DUP8 DUP3 DUP9 ADD PUSH2 0x16C JUMP JUMPDEST SWAP5 POP POP PUSH1 0x20 DUP6 ADD CALLDATALOAD PUSH8 0xFFFFFFFFFFFFFFFF DUP2 GT ISZERO PUSH2 0x385 JUMPI PUSH2 0x384 PUSH2 0x10C JUMP JUMPDEST JUMPDEST PUSH2 0x391 DUP8 DUP3 DUP9 ADD PUSH2 0x2D8 JUMP JUMPDEST SWAP4 POP POP PUSH1 0x40 PUSH2 0x3A2 DUP8 DUP3 DUP9 ADD PUSH2 0x327 JUMP JUMPDEST SWAP3 POP POP PUSH1 0x60 PUSH2 0x3B3 DUP8 DUP3 DUP9 ADD PUSH2 0x327 JUMP JUMPDEST SWAP2 POP POP SWAP3 SWAP6 SWAP2 SWAP5 POP SWAP3 POP JUMP JUMPDEST PUSH32 0x4E487B7100000000000000000000000000000000000000000000000000000000 PUSH1 0x0 MSTORE PUSH1 0x32 PUSH1 0x4 MSTORE PUSH1 0x24 PUSH1 0x0 REVERT JUMPDEST PUSH2 0x3F7 DUP2 PUSH2 0x131 JUMP JUMPDEST DUP3 MSTORE POP POP JUMP JUMPDEST PUSH2 0x406 DUP2 PUSH2 0x306 JUMP JUMPDEST DUP3 MSTORE POP POP JUMP JUMPDEST PUSH1 0x0 DUP3 DUP3 MSTORE PUSH1 0x20 DUP3 ADD SWAP1 POP SWAP3 SWAP2 POP POP JUMP JUMPDEST POP JUMP JUMPDEST PUSH1 0x0 PUSH2 0x42D PUSH1 0x0 DUP4 PUSH2 0x40C JUMP JUMPDEST SWAP2 POP PUSH2 0x438 DUP3 PUSH2 0x41D JUMP JUMPDEST PUSH1 0x0 DUP3 ADD SWAP1 POP SWAP2 SWAP1 POP JUMP JUMPDEST PUSH1 0x0 PUSH1 0xA0 DUP3 ADD SWAP1 POP PUSH2 0x458 PUSH1 0x0 DUP4 ADD DUP8 PUSH2 0x3EE JUMP JUMPDEST PUSH2 0x465 PUSH1 0x20 DUP4 ADD DUP7 PUSH2 0x3EE JUMP JUMPDEST PUSH2 0x472 PUSH1 0x40 DUP4 ADD DUP6 PUSH2 0x3FD JUMP JUMPDEST PUSH2 0x47F PUSH1 0x60 DUP4 ADD DUP5 PUSH2 0x3FD JUMP JUMPDEST DUP2 DUP2 SUB PUSH1 0x80 DUP4 ADD MSTORE PUSH2 0x490 DUP2 PUSH2 0x420 JUMP JUMPDEST SWAP1 POP SWAP6 SWAP5 POP POP POP POP POP JUMP JUMPDEST PUSH32 0x4E487B7100000000000000000000000000000000000000000000000000000000 PUSH1 0x0 MSTORE PUSH1 0x11 PUSH1 0x4 MSTORE PUSH1 0x24 PUSH1 0x0 REVERT JUMPDEST PUSH1 0x0 PUSH2 0x4D5 DUP3 PUSH2 0x306 JUMP JUMPDEST SWAP2 POP PUSH32 0xFFFFFFFFFFFFFFFFFFFFFFFFFFFFFFFFFFFFFFFFFFFFFFFFFFFFFFFFFFFFFFFF DUP3 EQ ISZERO PUSH2 0x508 JUMPI PUSH2 0x507 PUSH2 0x49B JUMP JUMPDEST JUMPDEST PUSH1 0x1 DUP3 ADD SWAP1 POP SWAP2 SWAP1 POP JUMP INVALID LOG2 PUSH5 0x6970667358 0x22 SLT KECCAK256 0xB1 BASEFEE 0xD2 SELFDESTRUCT 0xCE GASLIMIT LOG0 PUSH12 0x646E3E732EB84A64F6A51B4F BASEFEE 0xB8 SWAP16 0x5F TIMESTAMP LOG1 0xF6 CALLVALUE DUP4 0xDF 0xCE MSTORE PUSH5 0x736F6C6343 STOP ADDMOD EXP STOP CALLER "
				},
				"gasEstimates": {
					"creation": {
						"codeDepositCost": "270600",
						"executionCost": "312",
						"totalCost": "270912"
					},
					"external": {
						"batchTransfer(address,address[],uint256,uint256)": "infinite"
					}
				},
				"methodIdentifiers": {
					"batchTransfer(address,address[],uint256,uint256)": "f9db815e"
				}
			},
			"storageLayout": {
				"storage": [],
				"types": null
			},
			"userdoc": {
				"kind": "user",
				"methods": {},
				"version": 1
			}
		}
	}
}