{
	"contracts/erc20.sol": {
		"MyToken": {
			"abi": [
				{
					"inputs": [],
					"stateMutability": "nonpayable",
					"type": "constructor"
				},
				{
					"anonymous": false,
					"inputs": [
						{
							"indexed": true,
							"internalType": "address",
							"name": "owner",
							"type": "address"
						},
						{
							"indexed": true,
							"internalType": "address",
							"name": "spender",
							"type": "address"
						},
						{
							"indexed": false,
							"internalType": "uint256",
							"name": "value",
							"type": "uint256"
						}
					],
					"name": "Approval",
					"type": "event"
				},
				{
					"anonymous": false,
					"inputs": [
						{
							"indexed": true,
							"internalType": "address",
							"name": "previousOwner",
							"type": "address"
						},
						{
							"indexed": true,
							"internalType": "address",
							"name": "newOwner",
							"type": "address"
						}
					],
					"name": "OwnershipTransferred",
					"type": "event"
				},
				{
					"anonymous": false,
					"inputs": [
						{
							"indexed": false,
							"internalType": "uint256",
							"name": "id",
							"type": "uint256"
						}
					],
					"name": "Snapshot",
					"type": "event"
				},
				{
					"anonymous": false,
					"inputs": [
						{
							"indexed": true,
							"internalType": "address",
							"name": "from",
							"type": "address"
						},
						{
							"indexed": true,
							"internalType": "address",
							"name": "to",
							"type": "address"
						},
						{
							"indexed": false,
							"internalType": "uint256",
							"name": "value",
							"type": "uint256"
						}
					],
					"name": "Transfer",
					"type": "event"
				},
				{
					"inputs": [
						{
							"internalType": "address",
							"name": "owner",
							"type": "address"
						},
						{
							"internalType": "address",
							"name": "spender",
							"type": "address"
						}
					],
					"name": "allowance",
					"outputs": [
						{
							"internalType": "uint256",
							"name": "",
							"type": "uint256"
						}
					],
					"stateMutability": "view",
					"type": "function"
				},
				{
					"inputs": [
						{
							"internalType": "address",
							"name": "spender",
							"type": "address"
						},
						{
							"internalType": "uint256",
							"name": "amount",
							"type": "uint256"
						}
					],
					"name": "approve",
					"outputs": [
						{
							"internalType": "bool",
							"name": "",
							"type": "bool"
						}
					],
					"stateMutability": "nonpayable",
					"type": "function"
				},
				{
					"inputs": [
						{
							"internalType": "address",
							"name": "account",
							"type": "address"
						}
					],
					"name": "balanceOf",
					"outputs": [
						{
							"internalType": "uint256",
							"name": "",
							"type": "uint256"
						}
					],
					"stateMutability": "view",
					"type": "function"
				},
				{
					"inputs": [
						{
							"internalType": "address",
							"name": "account",
							"type": "address"
						},
						{
							"internalType": "uint256",
							"name": "snapshotId",
							"type": "uint256"
						}
					],
					"name": "balanceOfAt",
					"outputs": [
						{
							"internalType": "uint256",
							"name": "",
							"type": "uint256"
						}
					],
					"stateMutability": "view",
					"type": "function"
				},
				{
					"inputs": [
						{
							"internalType": "uint256",
							"name": "amount",
							"type": "uint256"
						}
					],
					"name": "burn",
					"outputs": [],
					"stateMutability": "nonpayable",
					"type": "function"
				},
				{
					"inputs": [
						{
							"internalType": "address",
							"name": "account",
							"type": "address"
						},
						{
							"internalType": "uint256",
							"name": "amount",
							"type": "uint256"
						}
					],
					"name": "burnFrom",
					"outputs": [],
					"stateMutability": "nonpayable",
					"type": "function"
				},
				{
					"inputs": [],
					"name": "decimals",
					"outputs": [
						{
							"internalType": "uint8",
							"name": "",
							"type": "uint8"
						}
					],
					"stateMutability": "view",
					"type": "function"
				},
				{
					"inputs": [
						{
							"internalType": "address",
							"name": "spender",
							"type": "address"
						},
						{
							"internalType": "uint256",
							"name": "subtractedValue",
							"type": "uint256"
						}
					],
					"name": "decreaseAllowance",
					"outputs": [
						{
							"internalType": "bool",
							"name": "",
							"type": "bool"
						}
					],
					"stateMutability": "nonpayable",
					"type": "function"
				},
				{
					"inputs": [
						{
							"internalType": "address",
							"name": "spender",
							"type": "address"
						},
						{
							"internalType": "uint256",
							"name": "addedValue",
							"type": "uint256"
						}
					],
					"name": "increaseAllowance",
					"outputs": [
						{
							"internalType": "bool",
							"name": "",
							"type": "bool"
						}
					],
					"stateMutability": "nonpayable",
					"type": "function"
				},
				{
					"inputs": [
						{
							"internalType": "address",
							"name": "to",
							"type": "address"
						},
						{
							"internalType": "uint256",
							"name": "amount",
							"type": "uint256"
						}
					],
					"name": "mint",
					"outputs": [],
					"stateMutability": "nonpayable",
					"type": "function"
				},
				{
					"inputs": [],
					"name": "name",
					"outputs": [
						{
							"internalType": "string",
							"name": "",
							"type": "string"
						}
					],
					"stateMutability": "view",
					"type": "function"
				},
				{
					"inputs": [],
					"name": "owner",
					"outputs": [
						{
							"internalType": "address",
							"name": "",
							"type": "address"
						}
					],
					"stateMutability": "view",
					"type": "function"
				},
				{
					"inputs": [],
					"name": "renounceOwnership",
					"outputs": [],
					"stateMutability": "nonpayable",
					"type": "function"
				},
				{
					"inputs": [],
					"name": "snapshot",
					"outputs": [],
					"stateMutability": "nonpayable",
					"type": "function"
				},
				{
					"inputs": [],
					"name": "symbol",
					"outputs": [
						{
							"internalType": "string",
							"name": "",
							"type": "string"
						}
					],
					"stateMutability": "view",
					"type": "function"
				},
				{
					"inputs": [],
					"name": "totalSupply",
					"outputs": [
						{
							"internalType": "uint256",
							"name": "",
							"type": "uint256"
						}
					],
					"stateMutability": "view",
					"type": "function"
				},
				{
					"inputs": [
						{
							"internalType": "uint256",
							"name": "snapshotId",
							"type": "uint256"
						}
					],
					"name": "totalSupplyAt",
					"outputs": [
						{
							"internalType": "uint256",
							"name": "",
							"type": "uint256"
						}
					],
					"stateMutability": "view",
					"type": "function"
				},
				{
					"inputs": [
						{
							"internalType": "address",
							"name": "to",
							"type": "address"
						},
						{
							"internalType": "uint256",
							"name": "amount",
							"type": "uint256"
						}
					],
					"name": "transfer",
					"outputs": [
						{
							"internalType": "bool",
							"name": "",
							"type": "bool"
						}
					],
					"stateMutability": "nonpayable",
					"type": "function"
				},
				{
					"inputs": [
						{
							"internalType": "address",
							"name": "from",
							"type": "address"
						},
						{
							"internalType": "address",
							"name": "to",
							"type": "address"
						},
						{
							"internalType": "uint256",
							"name": "amount",
							"type": "uint256"
						}
					],
					"name": "transferFrom",
					"outputs": [
						{
							"internalType": "bool",
							"name": "",
							"type": "bool"
						}
					],
					"stateMutability": "nonpayable",
					"type": "function"
				},
				{
					"inputs": [
						{
							"internalType": "address",
							"name": "newOwner",
							"type": "address"
						}
					],
					"name": "transferOwnership",
					"outputs": [],
					"stateMutability": "nonpayable",
					"type": "function"
				}
			],
			"devdoc": {
				"custom:security-contact": "skifhies@gmail.com",
				"kind": "dev",
				"methods": {
					"allowance(address,address)": {
						"details": "See {IERC20-allowance}."
					},
					"approve(address,uint256)": {
						"details": "See {IERC20-approve}. NOTE: If `amount` is the maximum `uint256`, the allowance is not updated on `transferFrom`. This is semantically equivalent to an infinite approval. Requirements: - `spender` cannot be the zero address."
					},
					"balanceOf(address)": {
						"details": "See {IERC20-balanceOf}."
					},
					"balanceOfAt(address,uint256)": {
						"details": "Retrieves the balance of `account` at the time `snapshotId` was created."
					},
					"burn(uint256)": {
						"details": "Destroys `amount` tokens from the caller. See {ERC20-_burn}."
					},
					"burnFrom(address,uint256)": {
						"details": "Destroys `amount` tokens from `account`, deducting from the caller's allowance. See {ERC20-_burn} and {ERC20-allowance}. Requirements: - the caller must have allowance for ``accounts``'s tokens of at least `amount`."
					},
					"decimals()": {
						"details": "Returns the number of decimals used to get its user representation. For example, if `decimals` equals `2`, a balance of `505` tokens should be displayed to a user as `5.05` (`505 / 10 ** 2`). Tokens usually opt for a value of 18, imitating the relationship between Ether and Wei. This is the value {ERC20} uses, unless this function is overridden; NOTE: This information is only used for _display_ purposes: it in no way affects any of the arithmetic of the contract, including {IERC20-balanceOf} and {IERC20-transfer}."
					},
					"decreaseAllowance(address,uint256)": {
						"details": "Atomically decreases the allowance granted to `spender` by the caller. This is an alternative to {approve} that can be used as a mitigation for problems described in {IERC20-approve}. Emits an {Approval} event indicating the updated allowance. Requirements: - `spender` cannot be the zero address. - `spender` must have allowance for the caller of at least `subtractedValue`."
					},
					"increaseAllowance(address,uint256)": {
						"details": "Atomically increases the allowance granted to `spender` by the caller. This is an alternative to {approve} that can be used as a mitigation for problems described in {IERC20-approve}. Emits an {Approval} event indicating the updated allowance. Requirements: - `spender` cannot be the zero address."
					},
					"name()": {
						"details": "Returns the name of the token."
					},
					"owner()": {
						"details": "Returns the address of the current owner."
					},
					"renounceOwnership()": {
						"details": "Leaves the contract without owner. It will not be possible to call `onlyOwner` functions anymore. Can only be called by the current owner. NOTE: Renouncing ownership will leave the contract without an owner, thereby removing any functionality that is only available to the owner."
					},
					"symbol()": {
						"details": "Returns the symbol of the token, usually a shorter version of the name."
					},
					"totalSupply()": {
						"details": "See {IERC20-totalSupply}."
					},
					"totalSupplyAt(uint256)": {
						"details": "Retrieves the total supply at the time `snapshotId` was created."
					},
					"transfer(address,uint256)": {
						"details": "See {IERC20-transfer}. Requirements: - `to` cannot be the zero address. - the caller must have a balance of at least `amount`."
					},
					"transferFrom(address,address,uint256)": {
						"details": "See {IERC20-transferFrom}. Emits an {Approval} event indicating the updated allowance. This is not required by the EIP. See the note at the beginning of {ERC20}. NOTE: Does not update the allowance if the current allowance is the maximum `uint256`. Requirements: - `from` and `to` cannot be the zero address. - `from` must have a balance of at least `amount`. - the caller must have allowance for ``from``'s tokens of at least `amount`."
					},
					"transferOwnership(address)": {
						"details": "Transfers ownership of the contract to a new account (`newOwner`). Can only be called by the current owner."
					}
				},
				"version": 1
			},
			"evm": {
				"assembly": "    /* \"contracts/erc20.sol\":374:1008  contract MyToken is ERC20, ERC20Burnable, ERC20Snapshot, Ownable {\r... */\n  mstore(0x40, 0x80)\n    /* \"contracts/erc20.sol\":446:551  constructor() ERC20(\"MyToken\", \"MTK\") {\r... */\n  callvalue\n  dup1\n  iszero\n  tag_1\n  jumpi\n  0x00\n  dup1\n  revert\ntag_1:\n  pop\n    /* \"@openzeppelin/contracts/token/ERC20/ERC20.sol\":1978:2091  constructor(string memory name_, string memory symbol_) {... */\n  mload(0x40)\n  dup1\n  0x40\n  add\n  0x40\n  mstore\n  dup1\n  0x07\n  dup2\n  mstore\n  0x20\n  add\n  0x4d79546f6b656e00000000000000000000000000000000000000000000000000\n  dup2\n  mstore\n  pop\n  mload(0x40)\n  dup1\n  0x40\n  add\n  0x40\n  mstore\n  dup1\n  0x03\n  dup2\n  mstore\n  0x20\n  add\n  0x4d544b0000000000000000000000000000000000000000000000000000000000\n  dup2\n  mstore\n  pop\n    /* \"@openzeppelin/contracts/token/ERC20/ERC20.sol\":2052:2057  name_ */\n  dup2\n    /* \"@openzeppelin/contracts/token/ERC20/ERC20.sol\":2044:2049  _name */\n  0x03\n    /* \"@openzeppelin/contracts/token/ERC20/ERC20.sol\":2044:2057  _name = name_ */\n  swap1\n  dup1\n  mload\n  swap1\n  0x20\n  add\n  swap1\n  tag_6\n  swap3\n  swap2\n  swap1\n  tag_7\n  jump\t// in\ntag_6:\n  pop\n    /* \"@openzeppelin/contracts/token/ERC20/ERC20.sol\":2077:2084  symbol_ */\n  dup1\n    /* \"@openzeppelin/contracts/token/ERC20/ERC20.sol\":2067:2074  _symbol */\n  0x04\n    /* \"@openzeppelin/contracts/token/ERC20/ERC20.sol\":2067:2084  _symbol = symbol_ */\n  swap1\n  dup1\n  mload\n  swap1\n  0x20\n  add\n  swap1\n  tag_8\n  swap3\n  swap2\n  swap1\n  tag_7\n  jump\t// in\ntag_8:\n  pop\n    /* \"@openzeppelin/contracts/token/ERC20/ERC20.sol\":1978:2091  constructor(string memory name_, string memory symbol_) {... */\n  pop\n  pop\n    /* \"@openzeppelin/contracts/access/Ownable.sol\":921:953  _transferOwnership(_msgSender()) */\n  tag_10\n    /* \"@openzeppelin/contracts/access/Ownable.sol\":940:952  _msgSender() */\n  tag_11\n    /* \"@openzeppelin/contracts/access/Ownable.sol\":940:950  _msgSender */\n  shl(0x20, tag_12)\n    /* \"@openzeppelin/contracts/access/Ownable.sol\":940:952  _msgSender() */\n  0x20\n  shr\n  jump\t// in\ntag_11:\n    /* \"@openzeppelin/contracts/access/Ownable.sol\":921:939  _transferOwnership */\n  shl(0x20, tag_13)\n    /* \"@openzeppelin/contracts/access/Ownable.sol\":921:953  _transferOwnership(_msgSender()) */\n  0x20\n  shr\n  jump\t// in\ntag_10:\n    /* \"contracts/erc20.sol\":495:543  _mint(msg.sender, 1000000000 * 10 ** decimals()) */\n  tag_15\n    /* \"contracts/erc20.sol\":501:511  msg.sender */\n  caller\n    /* \"contracts/erc20.sol\":532:542  decimals() */\n  tag_16\n    /* \"contracts/erc20.sol\":532:540  decimals */\n  shl(0x20, tag_17)\n    /* \"contracts/erc20.sol\":532:542  decimals() */\n  0x20\n  shr\n  jump\t// in\ntag_16:\n    /* \"contracts/erc20.sol\":526:528  10 */\n  0x0a\n    /* \"contracts/erc20.sol\":526:542  10 ** decimals() */\n  tag_18\n  swap2\n  swap1\n  tag_19\n  jump\t// in\ntag_18:\n    /* \"contracts/erc20.sol\":513:523  1000000000 */\n  0x3b9aca00\n    /* \"contracts/erc20.sol\":513:542  1000000000 * 10 ** decimals() */\n  tag_20\n  swap2\n  swap1\n  tag_21\n  jump\t// in\ntag_20:\n    /* \"contracts/erc20.sol\":495:500  _mint */\n  shl(0x20, tag_22)\n    /* \"contracts/erc20.sol\":495:543  _mint(msg.sender, 1000000000 * 10 ** decimals()) */\n  0x20\n  shr\n  jump\t// in\ntag_15:\n    /* \"contracts/erc20.sol\":374:1008  contract MyToken is ERC20, ERC20Burnable, ERC20Snapshot, Ownable {\r... */\n  jump(tag_23)\n    /* \"@openzeppelin/contracts/utils/Context.sol\":640:736  function _msgSender() internal view virtual returns (address) {... */\ntag_12:\n    /* \"@openzeppelin/contracts/utils/Context.sol\":693:700  address */\n  0x00\n    /* \"@openzeppelin/contracts/utils/Context.sol\":719:729  msg.sender */\n  caller\n    /* \"@openzeppelin/contracts/utils/Context.sol\":712:729  return msg.sender */\n  swap1\n  pop\n    /* \"@openzeppelin/contracts/utils/Context.sol\":640:736  function _msgSender() internal view virtual returns (address) {... */\n  swap1\n  jump\t// out\n    /* \"@openzeppelin/contracts/access/Ownable.sol\":2270:2457  function _transferOwnership(address newOwner) internal virtual {... */\ntag_13:\n    /* \"@openzeppelin/contracts/access/Ownable.sol\":2343:2359  address oldOwner */\n  0x00\n    /* \"@openzeppelin/contracts/access/Ownable.sol\":2362:2368  _owner */\n  0x09\n  0x00\n  swap1\n  sload\n  swap1\n  0x0100\n  exp\n  swap1\n  div\n  0xffffffffffffffffffffffffffffffffffffffff\n  and\n    /* \"@openzeppelin/contracts/access/Ownable.sol\":2343:2368  address oldOwner = _owner */\n  swap1\n  pop\n    /* \"@openzeppelin/contracts/access/Ownable.sol\":2387:2395  newOwner */\n  dup2\n    /* \"@openzeppelin/contracts/access/Ownable.sol\":2378:2384  _owner */\n  0x09\n  0x00\n    /* \"@openzeppelin/contracts/access/Ownable.sol\":2378:2395  _owner = newOwner */\n  0x0100\n  exp\n  dup2\n  sload\n  dup2\n  0xffffffffffffffffffffffffffffffffffffffff\n  mul\n  not\n  and\n  swap1\n  dup4\n  0xffffffffffffffffffffffffffffffffffffffff\n  and\n  mul\n  or\n  swap1\n  sstore\n  pop\n    /* \"@openzeppelin/contracts/access/Ownable.sol\":2441:2449  newOwner */\n  dup2\n    /* \"@openzeppelin/contracts/access/Ownable.sol\":2410:2450  OwnershipTransferred(oldOwner, newOwner) */\n  0xffffffffffffffffffffffffffffffffffffffff\n  and\n    /* \"@openzeppelin/contracts/access/Ownable.sol\":2431:2439  oldOwner */\n  dup2\n    /* \"@openzeppelin/contracts/access/Ownable.sol\":2410:2450  OwnershipTransferred(oldOwner, newOwner) */\n  0xffffffffffffffffffffffffffffffffffffffff\n  and\n  0x8be0079c531659141344cd1fd0a4f28419497f9722a3daafe3b4186f6b6457e0\n  mload(0x40)\n  mload(0x40)\n  dup1\n  swap2\n  sub\n  swap1\n  log3\n    /* \"@openzeppelin/contracts/access/Ownable.sol\":2333:2457  {... */\n  pop\n    /* \"@openzeppelin/contracts/access/Ownable.sol\":2270:2457  function _transferOwnership(address newOwner) internal virtual {... */\n  pop\n  jump\t// out\n    /* \"@openzeppelin/contracts/token/ERC20/ERC20.sol\":3093:3184  function decimals() public view virtual override returns (uint8) {... */\ntag_17:\n    /* \"@openzeppelin/contracts/token/ERC20/ERC20.sol\":3151:3156  uint8 */\n  0x00\n    /* \"@openzeppelin/contracts/token/ERC20/ERC20.sol\":3175:3177  18 */\n  0x12\n    /* \"@openzeppelin/contracts/token/ERC20/ERC20.sol\":3168:3177  return 18 */\n  swap1\n  pop\n    /* \"@openzeppelin/contracts/token/ERC20/ERC20.sol\":3093:3184  function decimals() public view virtual override returns (uint8) {... */\n  swap1\n  jump\t// out\n    /* \"@openzeppelin/contracts/token/ERC20/ERC20.sol\":8411:8800  function _mint(address account, uint256 amount) internal virtual {... */\ntag_22:\n    /* \"@openzeppelin/contracts/token/ERC20/ERC20.sol\":8513:8514  0 */\n  0x00\n    /* \"@openzeppelin/contracts/token/ERC20/ERC20.sol\":8494:8515  account != address(0) */\n  0xffffffffffffffffffffffffffffffffffffffff\n  and\n    /* \"@openzeppelin/contracts/token/ERC20/ERC20.sol\":8494:8501  account */\n  dup3\n    /* \"@openzeppelin/contracts/token/ERC20/ERC20.sol\":8494:8515  account != address(0) */\n  0xffffffffffffffffffffffffffffffffffffffff\n  and\n  eq\n  iszero\n    /* \"@openzeppelin/contracts/token/ERC20/ERC20.sol\":8486:8551  require(account != address(0), \"ERC20: mint to the zero address\") */\n  tag_28\n  jumpi\n  mload(0x40)\n  0x08c379a000000000000000000000000000000000000000000000000000000000\n  dup2\n  mstore\n  0x04\n  add\n  tag_29\n  swap1\n  tag_30\n  jump\t// in\ntag_29:\n  mload(0x40)\n  dup1\n  swap2\n  sub\n  swap1\n  revert\ntag_28:\n    /* \"@openzeppelin/contracts/token/ERC20/ERC20.sol\":8562:8611  _beforeTokenTransfer(address(0), account, amount) */\n  tag_31\n    /* \"@openzeppelin/contracts/token/ERC20/ERC20.sol\":8591:8592  0 */\n  0x00\n    /* \"@openzeppelin/contracts/token/ERC20/ERC20.sol\":8595:8602  account */\n  dup4\n    /* \"@openzeppelin/contracts/token/ERC20/ERC20.sol\":8604:8610  amount */\n  dup4\n    /* \"@openzeppelin/contracts/token/ERC20/ERC20.sol\":8562:8582  _beforeTokenTransfer */\n  shl(0x20, tag_32)\n    /* \"@openzeppelin/contracts/token/ERC20/ERC20.sol\":8562:8611  _beforeTokenTransfer(address(0), account, amount) */\n  0x20\n  shr\n  jump\t// in\ntag_31:\n    /* \"@openzeppelin/contracts/token/ERC20/ERC20.sol\":8638:8644  amount */\n  dup1\n    /* \"@openzeppelin/contracts/token/ERC20/ERC20.sol\":8622:8634  _totalSupply */\n  0x02\n  0x00\n    /* \"@openzeppelin/contracts/token/ERC20/ERC20.sol\":8622:8644  _totalSupply += amount */\n  dup3\n  dup3\n  sload\n  tag_33\n  swap2\n  swap1\n  tag_34\n  jump\t// in\ntag_33:\n  swap3\n  pop\n  pop\n  dup2\n  swap1\n  sstore\n  pop\n    /* \"@openzeppelin/contracts/token/ERC20/ERC20.sol\":8676:8682  amount */\n  dup1\n    /* \"@openzeppelin/contracts/token/ERC20/ERC20.sol\":8654:8663  _balances */\n  0x00\n    /* \"@openzeppelin/contracts/token/ERC20/ERC20.sol\":8654:8672  _balances[account] */\n  dup1\n    /* \"@openzeppelin/contracts/token/ERC20/ERC20.sol\":8664:8671  account */\n  dup5\n    /* \"@openzeppelin/contracts/token/ERC20/ERC20.sol\":8654:8672  _balances[account] */\n  0xffffffffffffffffffffffffffffffffffffffff\n  and\n  0xffffffffffffffffffffffffffffffffffffffff\n  and\n  dup2\n  mstore\n  0x20\n  add\n  swap1\n  dup2\n  mstore\n  0x20\n  add\n  0x00\n  keccak256\n  0x00\n    /* \"@openzeppelin/contracts/token/ERC20/ERC20.sol\":8654:8682  _balances[account] += amount */\n  dup3\n  dup3\n  sload\n  tag_35\n  swap2\n  swap1\n  tag_34\n  jump\t// in\ntag_35:\n  swap3\n  pop\n  pop\n  dup2\n  swap1\n  sstore\n  pop\n    /* \"@openzeppelin/contracts/token/ERC20/ERC20.sol\":8718:8725  account */\n  dup2\n    /* \"@openzeppelin/contracts/token/ERC20/ERC20.sol\":8697:8734  Transfer(address(0), account, amount) */\n  0xffffffffffffffffffffffffffffffffffffffff\n  and\n    /* \"@openzeppelin/contracts/token/ERC20/ERC20.sol\":8714:8715  0 */\n  0x00\n    /* \"@openzeppelin/contracts/token/ERC20/ERC20.sol\":8697:8734  Transfer(address(0), account, amount) */\n  0xffffffffffffffffffffffffffffffffffffffff\n  and\n  0xddf252ad1be2c89b69c2b068fc378daa952ba7f163c4a11628f55a4df523b3ef\n    /* \"@openzeppelin/contracts/token/ERC20/ERC20.sol\":8727:8733  amount */\n  dup4\n    /* \"@openzeppelin/contracts/token/ERC20/ERC20.sol\":8697:8734  Transfer(address(0), account, amount) */\n  mload(0x40)\n  tag_36\n  swap2\n  swap1\n  tag_37\n  jump\t// in\ntag_36:\n  mload(0x40)\n  dup1\n  swap2\n  sub\n  swap1\n  log3\n    /* \"@openzeppelin/contracts/token/ERC20/ERC20.sol\":8745:8793  _afterTokenTransfer(address(0), account, amount) */\n  tag_38\n    /* \"@openzeppelin/contracts/token/ERC20/ERC20.sol\":8773:8774  0 */\n  0x00\n    /* \"@openzeppelin/contracts/token/ERC20/ERC20.sol\":8777:8784  account */\n  dup4\n    /* \"@openzeppelin/contracts/token/ERC20/ERC20.sol\":8786:8792  amount */\n  dup4\n    /* \"@openzeppelin/contracts/token/ERC20/ERC20.sol\":8745:8764  _afterTokenTransfer */\n  shl(0x20, tag_39)\n    /* \"@openzeppelin/contracts/token/ERC20/ERC20.sol\":8745:8793  _afterTokenTransfer(address(0), account, amount) */\n  0x20\n  shr\n  jump\t// in\ntag_38:\n    /* \"@openzeppelin/contracts/token/ERC20/ERC20.sol\":8411:8800  function _mint(address account, uint256 amount) internal virtual {... */\n  pop\n  pop\n  jump\t// out\n    /* \"contracts/erc20.sol\":807:1005  function _beforeTokenTransfer(address from, address to, uint256 amount)\r... */\ntag_32:\n    /* \"contracts/erc20.sol\":953:997  super._beforeTokenTransfer(from, to, amount) */\n  tag_41\n    /* \"contracts/erc20.sol\":980:984  from */\n  dup4\n    /* \"contracts/erc20.sol\":986:988  to */\n  dup4\n    /* \"contracts/erc20.sol\":990:996  amount */\n  dup4\n    /* \"contracts/erc20.sol\":953:979  super._beforeTokenTransfer */\n  or(tag_0_103, shl(0x20, tag_42))\n    /* \"contracts/erc20.sol\":953:997  super._beforeTokenTransfer(from, to, amount) */\n  0x20\n  shr\n  jump\t// in\ntag_41:\n    /* \"contracts/erc20.sol\":807:1005  function _beforeTokenTransfer(address from, address to, uint256 amount)\r... */\n  pop\n  pop\n  pop\n  jump\t// out\n    /* \"@openzeppelin/contracts/token/ERC20/ERC20.sol\":12504:12624  function _afterTokenTransfer(... */\ntag_39:\n  pop\n  pop\n  pop\n  jump\t// out\n    /* \"@openzeppelin/contracts/token/ERC20/extensions/ERC20Snapshot.sol\":5802:6404  function _beforeTokenTransfer(... */\ntag_42:\n    /* \"@openzeppelin/contracts/token/ERC20/extensions/ERC20Snapshot.sol\":5940:5984  super._beforeTokenTransfer(from, to, amount) */\n  tag_45\n    /* \"@openzeppelin/contracts/token/ERC20/extensions/ERC20Snapshot.sol\":5967:5971  from */\n  dup4\n    /* \"@openzeppelin/contracts/token/ERC20/extensions/ERC20Snapshot.sol\":5973:5975  to */\n  dup4\n    /* \"@openzeppelin/contracts/token/ERC20/extensions/ERC20Snapshot.sol\":5977:5983  amount */\n  dup4\n    /* \"@openzeppelin/contracts/token/ERC20/extensions/ERC20Snapshot.sol\":5940:5966  super._beforeTokenTransfer */\n  or(tag_0_104, shl(0x20, tag_46))\n    /* \"@openzeppelin/contracts/token/ERC20/extensions/ERC20Snapshot.sol\":5940:5984  super._beforeTokenTransfer(from, to, amount) */\n  0x20\n  shr\n  jump\t// in\ntag_45:\n    /* \"@openzeppelin/contracts/token/ERC20/extensions/ERC20Snapshot.sol\":6015:6016  0 */\n  0x00\n    /* \"@openzeppelin/contracts/token/ERC20/extensions/ERC20Snapshot.sol\":5999:6017  from == address(0) */\n  0xffffffffffffffffffffffffffffffffffffffff\n  and\n    /* \"@openzeppelin/contracts/token/ERC20/extensions/ERC20Snapshot.sol\":5999:6003  from */\n  dup4\n    /* \"@openzeppelin/contracts/token/ERC20/extensions/ERC20Snapshot.sol\":5999:6017  from == address(0) */\n  0xffffffffffffffffffffffffffffffffffffffff\n  and\n  eq\n    /* \"@openzeppelin/contracts/token/ERC20/extensions/ERC20Snapshot.sol\":5995:6398  if (from == address(0)) {... */\n  iszero\n  tag_47\n  jumpi\n    /* \"@openzeppelin/contracts/token/ERC20/extensions/ERC20Snapshot.sol\":6053:6079  _updateAccountSnapshot(to) */\n  tag_48\n    /* \"@openzeppelin/contracts/token/ERC20/extensions/ERC20Snapshot.sol\":6076:6078  to */\n  dup3\n    /* \"@openzeppelin/contracts/token/ERC20/extensions/ERC20Snapshot.sol\":6053:6075  _updateAccountSnapshot */\n  shl(0x20, tag_49)\n    /* \"@openzeppelin/contracts/token/ERC20/extensions/ERC20Snapshot.sol\":6053:6079  _updateAccountSnapshot(to) */\n  0x20\n  shr\n  jump\t// in\ntag_48:\n    /* \"@openzeppelin/contracts/token/ERC20/extensions/ERC20Snapshot.sol\":6093:6121  _updateTotalSupplySnapshot() */\n  tag_50\n    /* \"@openzeppelin/contracts/token/ERC20/extensions/ERC20Snapshot.sol\":6093:6119  _updateTotalSupplySnapshot */\n  shl(0x20, tag_51)\n    /* \"@openzeppelin/contracts/token/ERC20/extensions/ERC20Snapshot.sol\":6093:6121  _updateTotalSupplySnapshot() */\n  0x20\n  shr\n  jump\t// in\ntag_50:\n    /* \"@openzeppelin/contracts/token/ERC20/extensions/ERC20Snapshot.sol\":5995:6398  if (from == address(0)) {... */\n  jump(tag_52)\ntag_47:\n    /* \"@openzeppelin/contracts/token/ERC20/extensions/ERC20Snapshot.sol\":6156:6157  0 */\n  0x00\n    /* \"@openzeppelin/contracts/token/ERC20/extensions/ERC20Snapshot.sol\":6142:6158  to == address(0) */\n  0xffffffffffffffffffffffffffffffffffffffff\n  and\n    /* \"@openzeppelin/contracts/token/ERC20/extensions/ERC20Snapshot.sol\":6142:6144  to */\n  dup3\n    /* \"@openzeppelin/contracts/token/ERC20/extensions/ERC20Snapshot.sol\":6142:6158  to == address(0) */\n  0xffffffffffffffffffffffffffffffffffffffff\n  and\n  eq\n    /* \"@openzeppelin/contracts/token/ERC20/extensions/ERC20Snapshot.sol\":6138:6398  if (to == address(0)) {... */\n  iszero\n  tag_53\n  jumpi\n    /* \"@openzeppelin/contracts/token/ERC20/extensions/ERC20Snapshot.sol\":6194:6222  _updateAccountSnapshot(from) */\n  tag_54\n    /* \"@openzeppelin/contracts/token/ERC20/extensions/ERC20Snapshot.sol\":6217:6221  from */\n  dup4\n    /* \"@openzeppelin/contracts/token/ERC20/extensions/ERC20Snapshot.sol\":6194:6216  _updateAccountSnapshot */\n  shl(0x20, tag_49)\n    /* \"@openzeppelin/contracts/token/ERC20/extensions/ERC20Snapshot.sol\":6194:6222  _updateAccountSnapshot(from) */\n  0x20\n  shr\n  jump\t// in\ntag_54:\n    /* \"@openzeppelin/contracts/token/ERC20/extensions/ERC20Snapshot.sol\":6236:6264  _updateTotalSupplySnapshot() */\n  tag_55\n    /* \"@openzeppelin/contracts/token/ERC20/extensions/ERC20Snapshot.sol\":6236:6262  _updateTotalSupplySnapshot */\n  shl(0x20, tag_51)\n    /* \"@openzeppelin/contracts/token/ERC20/extensions/ERC20Snapshot.sol\":6236:6264  _updateTotalSupplySnapshot() */\n  0x20\n  shr\n  jump\t// in\ntag_55:\n    /* \"@openzeppelin/contracts/token/ERC20/extensions/ERC20Snapshot.sol\":6138:6398  if (to == address(0)) {... */\n  jump(tag_56)\ntag_53:\n    /* \"@openzeppelin/contracts/token/ERC20/extensions/ERC20Snapshot.sol\":6319:6347  _updateAccountSnapshot(from) */\n  tag_57\n    /* \"@openzeppelin/contracts/token/ERC20/extensions/ERC20Snapshot.sol\":6342:6346  from */\n  dup4\n    /* \"@openzeppelin/contracts/token/ERC20/extensions/ERC20Snapshot.sol\":6319:6341  _updateAccountSnapshot */\n  shl(0x20, tag_49)\n    /* \"@openzeppelin/contracts/token/ERC20/extensions/ERC20Snapshot.sol\":6319:6347  _updateAccountSnapshot(from) */\n  0x20\n  shr\n  jump\t// in\ntag_57:\n    /* \"@openzeppelin/contracts/token/ERC20/extensions/ERC20Snapshot.sol\":6361:6387  _updateAccountSnapshot(to) */\n  tag_58\n    /* \"@openzeppelin/contracts/token/ERC20/extensions/ERC20Snapshot.sol\":6384:6386  to */\n  dup3\n    /* \"@openzeppelin/contracts/token/ERC20/extensions/ERC20Snapshot.sol\":6361:6383  _updateAccountSnapshot */\n  shl(0x20, tag_49)\n    /* \"@openzeppelin/contracts/token/ERC20/extensions/ERC20Snapshot.sol\":6361:6387  _updateAccountSnapshot(to) */\n  0x20\n  shr\n  jump\t// in\ntag_58:\n    /* \"@openzeppelin/contracts/token/ERC20/extensions/ERC20Snapshot.sol\":6138:6398  if (to == address(0)) {... */\ntag_56:\n    /* \"@openzeppelin/contracts/token/ERC20/extensions/ERC20Snapshot.sol\":5995:6398  if (from == address(0)) {... */\ntag_52:\n    /* \"@openzeppelin/contracts/token/ERC20/extensions/ERC20Snapshot.sol\":5802:6404  function _beforeTokenTransfer(... */\n  pop\n  pop\n  pop\n  jump\t// out\n    /* \"@openzeppelin/contracts/token/ERC20/ERC20.sol\":11795:11916  function _beforeTokenTransfer(... */\ntag_46:\n  pop\n  pop\n  pop\n  jump\t// out\n    /* \"@openzeppelin/contracts/token/ERC20/extensions/ERC20Snapshot.sol\":8010:8154  function _updateAccountSnapshot(address account) private {... */\ntag_49:\n    /* \"@openzeppelin/contracts/token/ERC20/extensions/ERC20Snapshot.sol\":8077:8147  _updateSnapshot(_accountBalanceSnapshots[account], balanceOf(account)) */\n  tag_61\n    /* \"@openzeppelin/contracts/token/ERC20/extensions/ERC20Snapshot.sol\":8093:8117  _accountBalanceSnapshots */\n  0x05\n    /* \"@openzeppelin/contracts/token/ERC20/extensions/ERC20Snapshot.sol\":8093:8126  _accountBalanceSnapshots[account] */\n  0x00\n    /* \"@openzeppelin/contracts/token/ERC20/extensions/ERC20Snapshot.sol\":8118:8125  account */\n  dup4\n    /* \"@openzeppelin/contracts/token/ERC20/extensions/ERC20Snapshot.sol\":8093:8126  _accountBalanceSnapshots[account] */\n  0xffffffffffffffffffffffffffffffffffffffff\n  and\n  0xffffffffffffffffffffffffffffffffffffffff\n  and\n  dup2\n  mstore\n  0x20\n  add\n  swap1\n  dup2\n  mstore\n  0x20\n  add\n  0x00\n  keccak256\n    /* \"@openzeppelin/contracts/token/ERC20/extensions/ERC20Snapshot.sol\":8128:8146  balanceOf(account) */\n  tag_62\n    /* \"@openzeppelin/contracts/token/ERC20/extensions/ERC20Snapshot.sol\":8138:8145  account */\n  dup4\n    /* \"@openzeppelin/contracts/token/ERC20/extensions/ERC20Snapshot.sol\":8128:8137  balanceOf */\n  shl(0x20, tag_63)\n    /* \"@openzeppelin/contracts/token/ERC20/extensions/ERC20Snapshot.sol\":8128:8146  balanceOf(account) */\n  0x20\n  shr\n  jump\t// in\ntag_62:\n    /* \"@openzeppelin/contracts/token/ERC20/extensions/ERC20Snapshot.sol\":8077:8092  _updateSnapshot */\n  shl(0x20, tag_64)\n    /* \"@openzeppelin/contracts/token/ERC20/extensions/ERC20Snapshot.sol\":8077:8147  _updateSnapshot(_accountBalanceSnapshots[account], balanceOf(account)) */\n  0x20\n  shr\n  jump\t// in\ntag_61:\n    /* \"@openzeppelin/contracts/token/ERC20/extensions/ERC20Snapshot.sol\":8010:8154  function _updateAccountSnapshot(address account) private {... */\n  pop\n  jump\t// out\n    /* \"@openzeppelin/contracts/token/ERC20/extensions/ERC20Snapshot.sol\":8160:8276  function _updateTotalSupplySnapshot() private {... */\ntag_51:\n    /* \"@openzeppelin/contracts/token/ERC20/extensions/ERC20Snapshot.sol\":8216:8269  _updateSnapshot(_totalSupplySnapshots, totalSupply()) */\n  tag_66\n    /* \"@openzeppelin/contracts/token/ERC20/extensions/ERC20Snapshot.sol\":8232:8253  _totalSupplySnapshots */\n  0x06\n    /* \"@openzeppelin/contracts/token/ERC20/extensions/ERC20Snapshot.sol\":8255:8268  totalSupply() */\n  tag_67\n    /* \"@openzeppelin/contracts/token/ERC20/extensions/ERC20Snapshot.sol\":8255:8266  totalSupply */\n  shl(0x20, tag_68)\n    /* \"@openzeppelin/contracts/token/ERC20/extensions/ERC20Snapshot.sol\":8255:8268  totalSupply() */\n  0x20\n  shr\n  jump\t// in\ntag_67:\n    /* \"@openzeppelin/contracts/token/ERC20/extensions/ERC20Snapshot.sol\":8216:8231  _updateSnapshot */\n  shl(0x20, tag_64)\n    /* \"@openzeppelin/contracts/token/ERC20/extensions/ERC20Snapshot.sol\":8216:8269  _updateSnapshot(_totalSupplySnapshots, totalSupply()) */\n  0x20\n  shr\n  jump\t// in\ntag_66:\n    /* \"@openzeppelin/contracts/token/ERC20/extensions/ERC20Snapshot.sol\":8160:8276  function _updateTotalSupplySnapshot() private {... */\n  jump\t// out\n    /* \"@openzeppelin/contracts/token/ERC20/ERC20.sol\":3408:3533  function balanceOf(address account) public view virtual override returns (uint256) {... */\ntag_63:\n    /* \"@openzeppelin/contracts/token/ERC20/ERC20.sol\":3482:3489  uint256 */\n  0x00\n    /* \"@openzeppelin/contracts/token/ERC20/ERC20.sol\":3508:3517  _balances */\n  dup1\n    /* \"@openzeppelin/contracts/token/ERC20/ERC20.sol\":3508:3526  _balances[account] */\n  0x00\n    /* \"@openzeppelin/contracts/token/ERC20/ERC20.sol\":3518:3525  account */\n  dup4\n    /* \"@openzeppelin/contracts/token/ERC20/ERC20.sol\":3508:3526  _balances[account] */\n  0xffffffffffffffffffffffffffffffffffffffff\n  and\n  0xffffffffffffffffffffffffffffffffffffffff\n  and\n  dup2\n  mstore\n  0x20\n  add\n  swap1\n  dup2\n  mstore\n  0x20\n  add\n  0x00\n  keccak256\n  sload\n    /* \"@openzeppelin/contracts/token/ERC20/ERC20.sol\":3501:3526  return _balances[account] */\n  swap1\n  pop\n    /* \"@openzeppelin/contracts/token/ERC20/ERC20.sol\":3408:3533  function balanceOf(address account) public view virtual override returns (uint256) {... */\n  swap2\n  swap1\n  pop\n  jump\t// out\n    /* \"@openzeppelin/contracts/token/ERC20/extensions/ERC20Snapshot.sol\":8282:8586  function _updateSnapshot(Snapshots storage snapshots, uint256 currentValue) private {... */\ntag_64:\n    /* \"@openzeppelin/contracts/token/ERC20/extensions/ERC20Snapshot.sol\":8376:8393  uint256 currentId */\n  0x00\n    /* \"@openzeppelin/contracts/token/ERC20/extensions/ERC20Snapshot.sol\":8396:8419  _getCurrentSnapshotId() */\n  tag_71\n    /* \"@openzeppelin/contracts/token/ERC20/extensions/ERC20Snapshot.sol\":8396:8417  _getCurrentSnapshotId */\n  shl(0x20, tag_72)\n    /* \"@openzeppelin/contracts/token/ERC20/extensions/ERC20Snapshot.sol\":8396:8419  _getCurrentSnapshotId() */\n  0x20\n  shr\n  jump\t// in\ntag_71:\n    /* \"@openzeppelin/contracts/token/ERC20/extensions/ERC20Snapshot.sol\":8376:8419  uint256 currentId = _getCurrentSnapshotId() */\n  swap1\n  pop\n    /* \"@openzeppelin/contracts/token/ERC20/extensions/ERC20Snapshot.sol\":8466:8475  currentId */\n  dup1\n    /* \"@openzeppelin/contracts/token/ERC20/extensions/ERC20Snapshot.sol\":8433:8463  _lastSnapshotId(snapshots.ids) */\n  tag_73\n    /* \"@openzeppelin/contracts/token/ERC20/extensions/ERC20Snapshot.sol\":8449:8458  snapshots */\n  dup5\n    /* \"@openzeppelin/contracts/token/ERC20/extensions/ERC20Snapshot.sol\":8449:8462  snapshots.ids */\n  0x00\n  add\n    /* \"@openzeppelin/contracts/token/ERC20/extensions/ERC20Snapshot.sol\":8433:8448  _lastSnapshotId */\n  shl(0x20, tag_74)\n    /* \"@openzeppelin/contracts/token/ERC20/extensions/ERC20Snapshot.sol\":8433:8463  _lastSnapshotId(snapshots.ids) */\n  0x20\n  shr\n  jump\t// in\ntag_73:\n    /* \"@openzeppelin/contracts/token/ERC20/extensions/ERC20Snapshot.sol\":8433:8475  _lastSnapshotId(snapshots.ids) < currentId */\n  lt\n    /* \"@openzeppelin/contracts/token/ERC20/extensions/ERC20Snapshot.sol\":8429:8580  if (_lastSnapshotId(snapshots.ids) < currentId) {... */\n  iszero\n  tag_75\n  jumpi\n    /* \"@openzeppelin/contracts/token/ERC20/extensions/ERC20Snapshot.sol\":8491:8500  snapshots */\n  dup3\n    /* \"@openzeppelin/contracts/token/ERC20/extensions/ERC20Snapshot.sol\":8491:8504  snapshots.ids */\n  0x00\n  add\n    /* \"@openzeppelin/contracts/token/ERC20/extensions/ERC20Snapshot.sol\":8510:8519  currentId */\n  dup2\n    /* \"@openzeppelin/contracts/token/ERC20/extensions/ERC20Snapshot.sol\":8491:8520  snapshots.ids.push(currentId) */\n  swap1\n  dup1\n  0x01\n  dup2\n  sload\n  add\n  dup1\n  dup3\n  sstore\n  dup1\n  swap2\n  pop\n  pop\n  0x01\n  swap1\n  sub\n  swap1\n  0x00\n  mstore\n  keccak256(0x00, 0x20)\n  add\n  0x00\n  swap1\n  swap2\n  swap1\n  swap2\n  swap1\n  swap2\n  pop\n  sstore\n    /* \"@openzeppelin/contracts/token/ERC20/extensions/ERC20Snapshot.sol\":8534:8543  snapshots */\n  dup3\n    /* \"@openzeppelin/contracts/token/ERC20/extensions/ERC20Snapshot.sol\":8534:8550  snapshots.values */\n  0x01\n  add\n    /* \"@openzeppelin/contracts/token/ERC20/extensions/ERC20Snapshot.sol\":8556:8568  currentValue */\n  dup3\n    /* \"@openzeppelin/contracts/token/ERC20/extensions/ERC20Snapshot.sol\":8534:8569  snapshots.values.push(currentValue) */\n  swap1\n  dup1\n  0x01\n  dup2\n  sload\n  add\n  dup1\n  dup3\n  sstore\n  dup1\n  swap2\n  pop\n  pop\n  0x01\n  swap1\n  sub\n  swap1\n  0x00\n  mstore\n  keccak256(0x00, 0x20)\n  add\n  0x00\n  swap1\n  swap2\n  swap1\n  swap2\n  swap1\n  swap2\n  pop\n  sstore\n    /* \"@openzeppelin/contracts/token/ERC20/extensions/ERC20Snapshot.sol\":8429:8580  if (_lastSnapshotId(snapshots.ids) < currentId) {... */\ntag_75:\n    /* \"@openzeppelin/contracts/token/ERC20/extensions/ERC20Snapshot.sol\":8366:8586  {... */\n  pop\n    /* \"@openzeppelin/contracts/token/ERC20/extensions/ERC20Snapshot.sol\":8282:8586  function _updateSnapshot(Snapshots storage snapshots, uint256 currentValue) private {... */\n  pop\n  pop\n  jump\t// out\n    /* \"@openzeppelin/contracts/token/ERC20/ERC20.sol\":3244:3350  function totalSupply() public view virtual override returns (uint256) {... */\ntag_68:\n    /* \"@openzeppelin/contracts/token/ERC20/ERC20.sol\":3305:3312  uint256 */\n  0x00\n    /* \"@openzeppelin/contracts/token/ERC20/ERC20.sol\":3331:3343  _totalSupply */\n  sload(0x02)\n    /* \"@openzeppelin/contracts/token/ERC20/ERC20.sol\":3324:3343  return _totalSupply */\n  swap1\n  pop\n    /* \"@openzeppelin/contracts/token/ERC20/ERC20.sol\":3244:3350  function totalSupply() public view virtual override returns (uint256) {... */\n  swap1\n  jump\t// out\n    /* \"@openzeppelin/contracts/token/ERC20/extensions/ERC20Snapshot.sol\":4766:4891  function _getCurrentSnapshotId() internal view virtual returns (uint256) {... */\ntag_72:\n    /* \"@openzeppelin/contracts/token/ERC20/extensions/ERC20Snapshot.sol\":4830:4837  uint256 */\n  0x00\n    /* \"@openzeppelin/contracts/token/ERC20/extensions/ERC20Snapshot.sol\":4856:4884  _currentSnapshotId.current() */\n  tag_80\n    /* \"@openzeppelin/contracts/token/ERC20/extensions/ERC20Snapshot.sol\":4856:4874  _currentSnapshotId */\n  0x08\n    /* \"@openzeppelin/contracts/token/ERC20/extensions/ERC20Snapshot.sol\":4856:4882  _currentSnapshotId.current */\n  or(tag_0_105, shl(0x20, tag_81))\n    /* \"@openzeppelin/contracts/token/ERC20/extensions/ERC20Snapshot.sol\":4856:4884  _currentSnapshotId.current() */\n  0x20\n  shr\n  jump\t// in\ntag_80:\n    /* \"@openzeppelin/contracts/token/ERC20/extensions/ERC20Snapshot.sol\":4849:4884  return _currentSnapshotId.current() */\n  swap1\n  pop\n    /* \"@openzeppelin/contracts/token/ERC20/extensions/ERC20Snapshot.sol\":4766:4891  function _getCurrentSnapshotId() internal view virtual returns (uint256) {... */\n  swap1\n  jump\t// out\n    /* \"@openzeppelin/contracts/token/ERC20/extensions/ERC20Snapshot.sol\":8592:8798  function _lastSnapshotId(uint256[] storage ids) private view returns (uint256) {... */\ntag_74:\n    /* \"@openzeppelin/contracts/token/ERC20/extensions/ERC20Snapshot.sol\":8662:8669  uint256 */\n  0x00\n    /* \"@openzeppelin/contracts/token/ERC20/extensions/ERC20Snapshot.sol\":8699:8700  0 */\n  dup1\n    /* \"@openzeppelin/contracts/token/ERC20/extensions/ERC20Snapshot.sol\":8685:8688  ids */\n  dup3\n    /* \"@openzeppelin/contracts/token/ERC20/extensions/ERC20Snapshot.sol\":8685:8695  ids.length */\n  dup1\n  sload\n  swap1\n  pop\n    /* \"@openzeppelin/contracts/token/ERC20/extensions/ERC20Snapshot.sol\":8685:8700  ids.length == 0 */\n  eq\n    /* \"@openzeppelin/contracts/token/ERC20/extensions/ERC20Snapshot.sol\":8681:8792  if (ids.length == 0) {... */\n  iszero\n  tag_83\n  jumpi\n    /* \"@openzeppelin/contracts/token/ERC20/extensions/ERC20Snapshot.sol\":8723:8724  0 */\n  0x00\n    /* \"@openzeppelin/contracts/token/ERC20/extensions/ERC20Snapshot.sol\":8716:8724  return 0 */\n  swap1\n  pop\n  jump(tag_82)\n    /* \"@openzeppelin/contracts/token/ERC20/extensions/ERC20Snapshot.sol\":8681:8792  if (ids.length == 0) {... */\ntag_83:\n    /* \"@openzeppelin/contracts/token/ERC20/extensions/ERC20Snapshot.sol\":8762:8765  ids */\n  dup2\n    /* \"@openzeppelin/contracts/token/ERC20/extensions/ERC20Snapshot.sol\":8779:8780  1 */\n  0x01\n    /* \"@openzeppelin/contracts/token/ERC20/extensions/ERC20Snapshot.sol\":8766:8769  ids */\n  dup4\n    /* \"@openzeppelin/contracts/token/ERC20/extensions/ERC20Snapshot.sol\":8766:8776  ids.length */\n  dup1\n  sload\n  swap1\n  pop\n    /* \"@openzeppelin/contracts/token/ERC20/extensions/ERC20Snapshot.sol\":8766:8780  ids.length - 1 */\n  tag_85\n  swap2\n  swap1\n  tag_86\n  jump\t// in\ntag_85:\n    /* \"@openzeppelin/contracts/token/ERC20/extensions/ERC20Snapshot.sol\":8762:8781  ids[ids.length - 1] */\n  dup2\n  sload\n  dup2\n  lt\n  tag_87\n  jumpi\n  tag_88\n  tag_89\n  jump\t// in\ntag_88:\ntag_87:\n  swap1\n  0x00\n  mstore\n  keccak256(0x00, 0x20)\n  add\n  sload\n    /* \"@openzeppelin/contracts/token/ERC20/extensions/ERC20Snapshot.sol\":8755:8781  return ids[ids.length - 1] */\n  swap1\n  pop\n    /* \"@openzeppelin/contracts/token/ERC20/extensions/ERC20Snapshot.sol\":8592:8798  function _lastSnapshotId(uint256[] storage ids) private view returns (uint256) {... */\ntag_82:\n  swap2\n  swap1\n  pop\n  jump\t// out\n    /* \"@openzeppelin/contracts/utils/Counters.sol\":827:939  function current(Counter storage counter) internal view returns (uint256) {... */\ntag_81:\n    /* \"@openzeppelin/contracts/utils/Counters.sol\":892:899  uint256 */\n  0x00\n    /* \"@openzeppelin/contracts/utils/Counters.sol\":918:925  counter */\n  dup2\n    /* \"@openzeppelin/contracts/utils/Counters.sol\":918:932  counter._value */\n  0x00\n  add\n  sload\n    /* \"@openzeppelin/contracts/utils/Counters.sol\":911:932  return counter._value */\n  swap1\n  pop\n    /* \"@openzeppelin/contracts/utils/Counters.sol\":827:939  function current(Counter storage counter) internal view returns (uint256) {... */\n  swap2\n  swap1\n  pop\n  jump\t// out\n    /* \"contracts/erc20.sol\":374:1008  contract MyToken is ERC20, ERC20Burnable, ERC20Snapshot, Ownable {\r... */\ntag_7:\n  dup3\n  dup1\n  sload\n  tag_92\n  swap1\n  tag_93\n  jump\t// in\ntag_92:\n  swap1\n  0x00\n  mstore\n  keccak256(0x00, 0x20)\n  swap1\n  0x1f\n  add\n  0x20\n  swap1\n  div\n  dup2\n  add\n  swap3\n  dup3\n  tag_95\n  jumpi\n  0x00\n  dup6\n  sstore\n  jump(tag_94)\ntag_95:\n  dup3\n  0x1f\n  lt\n  tag_96\n  jumpi\n  dup1\n  mload\n  not(0xff)\n  and\n  dup4\n  dup1\n  add\n  or\n  dup6\n  sstore\n  jump(tag_94)\ntag_96:\n  dup3\n  dup1\n  add\n  0x01\n  add\n  dup6\n  sstore\n  dup3\n  iszero\n  tag_94\n  jumpi\n  swap2\n  dup3\n  add\ntag_97:\n  dup3\n  dup2\n  gt\n  iszero\n  tag_98\n  jumpi\n  dup3\n  mload\n  dup3\n  sstore\n  swap2\n  0x20\n  add\n  swap2\n  swap1\n  0x01\n  add\n  swap1\n  jump(tag_97)\ntag_98:\ntag_94:\n  pop\n  swap1\n  pop\n  tag_99\n  swap2\n  swap1\n  tag_100\n  jump\t// in\ntag_99:\n  pop\n  swap1\n  jump\t// out\ntag_100:\ntag_101:\n  dup1\n  dup3\n  gt\n  iszero\n  tag_102\n  jumpi\n  0x00\n  dup2\n  0x00\n  swap1\n  sstore\n  pop\n  0x01\n  add\n  jump(tag_101)\ntag_102:\n  pop\n  swap1\n  jump\t// out\n    /* \"#utility.yul\":7:373   */\ntag_104:\n    /* \"#utility.yul\":149:152   */\n  0x00\n    /* \"#utility.yul\":170:237   */\n  tag_106\n    /* \"#utility.yul\":234:236   */\n  0x1f\n    /* \"#utility.yul\":229:232   */\n  dup4\n    /* \"#utility.yul\":170:237   */\n  tag_107\n  jump\t// in\ntag_106:\n    /* \"#utility.yul\":163:237   */\n  swap2\n  pop\n    /* \"#utility.yul\":246:339   */\n  tag_108\n    /* \"#utility.yul\":335:338   */\n  dup3\n    /* \"#utility.yul\":246:339   */\n  tag_109\n  jump\t// in\ntag_108:\n    /* \"#utility.yul\":364:366   */\n  0x20\n    /* \"#utility.yul\":359:362   */\n  dup3\n    /* \"#utility.yul\":355:367   */\n  add\n    /* \"#utility.yul\":348:367   */\n  swap1\n  pop\n    /* \"#utility.yul\":7:373   */\n  swap2\n  swap1\n  pop\n  jump\t// out\n    /* \"#utility.yul\":379:497   */\ntag_110:\n    /* \"#utility.yul\":466:490   */\n  tag_112\n    /* \"#utility.yul\":484:489   */\n  dup2\n    /* \"#utility.yul\":466:490   */\n  tag_113\n  jump\t// in\ntag_112:\n    /* \"#utility.yul\":461:464   */\n  dup3\n    /* \"#utility.yul\":454:491   */\n  mstore\n    /* \"#utility.yul\":379:497   */\n  pop\n  pop\n  jump\t// out\n    /* \"#utility.yul\":503:922   */\ntag_30:\n    /* \"#utility.yul\":669:673   */\n  0x00\n    /* \"#utility.yul\":707:709   */\n  0x20\n    /* \"#utility.yul\":696:705   */\n  dup3\n    /* \"#utility.yul\":692:710   */\n  add\n    /* \"#utility.yul\":684:710   */\n  swap1\n  pop\n    /* \"#utility.yul\":756:765   */\n  dup2\n    /* \"#utility.yul\":750:754   */\n  dup2\n    /* \"#utility.yul\":746:766   */\n  sub\n    /* \"#utility.yul\":742:743   */\n  0x00\n    /* \"#utility.yul\":731:740   */\n  dup4\n    /* \"#utility.yul\":727:744   */\n  add\n    /* \"#utility.yul\":720:767   */\n  mstore\n    /* \"#utility.yul\":784:915   */\n  tag_115\n    /* \"#utility.yul\":910:914   */\n  dup2\n    /* \"#utility.yul\":784:915   */\n  tag_104\n  jump\t// in\ntag_115:\n    /* \"#utility.yul\":776:915   */\n  swap1\n  pop\n    /* \"#utility.yul\":503:922   */\n  swap2\n  swap1\n  pop\n  jump\t// out\n    /* \"#utility.yul\":928:1150   */\ntag_37:\n    /* \"#utility.yul\":1021:1025   */\n  0x00\n    /* \"#utility.yul\":1059:1061   */\n  0x20\n    /* \"#utility.yul\":1048:1057   */\n  dup3\n    /* \"#utility.yul\":1044:1062   */\n  add\n    /* \"#utility.yul\":1036:1062   */\n  swap1\n  pop\n    /* \"#utility.yul\":1072:1143   */\n  tag_117\n    /* \"#utility.yul\":1140:1141   */\n  0x00\n    /* \"#utility.yul\":1129:1138   */\n  dup4\n    /* \"#utility.yul\":1125:1142   */\n  add\n    /* \"#utility.yul\":1116:1122   */\n  dup5\n    /* \"#utility.yul\":1072:1143   */\n  tag_110\n  jump\t// in\ntag_117:\n    /* \"#utility.yul\":928:1150   */\n  swap3\n  swap2\n  pop\n  pop\n  jump\t// out\n    /* \"#utility.yul\":1156:1325   */\ntag_107:\n    /* \"#utility.yul\":1240:1251   */\n  0x00\n    /* \"#utility.yul\":1274:1280   */\n  dup3\n    /* \"#utility.yul\":1269:1272   */\n  dup3\n    /* \"#utility.yul\":1262:1281   */\n  mstore\n    /* \"#utility.yul\":1314:1318   */\n  0x20\n    /* \"#utility.yul\":1309:1312   */\n  dup3\n    /* \"#utility.yul\":1305:1319   */\n  add\n    /* \"#utility.yul\":1290:1319   */\n  swap1\n  pop\n    /* \"#utility.yul\":1156:1325   */\n  swap3\n  swap2\n  pop\n  pop\n  jump\t// out\n    /* \"#utility.yul\":1331:1636   */\ntag_34:\n    /* \"#utility.yul\":1371:1374   */\n  0x00\n    /* \"#utility.yul\":1390:1410   */\n  tag_120\n    /* \"#utility.yul\":1408:1409   */\n  dup3\n    /* \"#utility.yul\":1390:1410   */\n  tag_113\n  jump\t// in\ntag_120:\n    /* \"#utility.yul\":1385:1410   */\n  swap2\n  pop\n    /* \"#utility.yul\":1424:1444   */\n  tag_121\n    /* \"#utility.yul\":1442:1443   */\n  dup4\n    /* \"#utility.yul\":1424:1444   */\n  tag_113\n  jump\t// in\ntag_121:\n    /* \"#utility.yul\":1419:1444   */\n  swap3\n  pop\n    /* \"#utility.yul\":1578:1579   */\n  dup3\n    /* \"#utility.yul\":1510:1576   */\n  0xffffffffffffffffffffffffffffffffffffffffffffffffffffffffffffffff\n    /* \"#utility.yul\":1506:1580   */\n  sub\n    /* \"#utility.yul\":1503:1504   */\n  dup3\n    /* \"#utility.yul\":1500:1581   */\n  gt\n    /* \"#utility.yul\":1497:1604   */\n  iszero\n  tag_122\n  jumpi\n    /* \"#utility.yul\":1584:1602   */\n  tag_123\n  tag_124\n  jump\t// in\ntag_123:\n    /* \"#utility.yul\":1497:1604   */\ntag_122:\n    /* \"#utility.yul\":1628:1629   */\n  dup3\n    /* \"#utility.yul\":1625:1626   */\n  dup3\n    /* \"#utility.yul\":1621:1630   */\n  add\n    /* \"#utility.yul\":1614:1630   */\n  swap1\n  pop\n    /* \"#utility.yul\":1331:1636   */\n  swap3\n  swap2\n  pop\n  pop\n  jump\t// out\n    /* \"#utility.yul\":1642:2490   */\ntag_125:\n    /* \"#utility.yul\":1703:1708   */\n  0x00\n    /* \"#utility.yul\":1710:1714   */\n  dup1\n    /* \"#utility.yul\":1734:1740   */\n  dup3\n    /* \"#utility.yul\":1725:1740   */\n  swap2\n  pop\n    /* \"#utility.yul\":1758:1763   */\n  dup4\n    /* \"#utility.yul\":1749:1763   */\n  swap1\n  pop\n    /* \"#utility.yul\":1772:2484   */\ntag_127:\n    /* \"#utility.yul\":1793:1794   */\n  0x01\n    /* \"#utility.yul\":1783:1791   */\n  dup6\n    /* \"#utility.yul\":1780:1795   */\n  gt\n    /* \"#utility.yul\":1772:2484   */\n  iszero\n  tag_129\n  jumpi\n    /* \"#utility.yul\":1888:1892   */\n  dup1\n    /* \"#utility.yul\":1883:1886   */\n  dup7\n    /* \"#utility.yul\":1879:1893   */\n  div\n    /* \"#utility.yul\":1873:1877   */\n  dup2\n    /* \"#utility.yul\":1870:1894   */\n  gt\n    /* \"#utility.yul\":1867:1917   */\n  iszero\n  tag_130\n  jumpi\n    /* \"#utility.yul\":1897:1915   */\n  tag_131\n  tag_124\n  jump\t// in\ntag_131:\n    /* \"#utility.yul\":1867:1917   */\ntag_130:\n    /* \"#utility.yul\":1947:1948   */\n  0x01\n    /* \"#utility.yul\":1937:1945   */\n  dup6\n    /* \"#utility.yul\":1933:1949   */\n  and\n    /* \"#utility.yul\":1930:2381   */\n  iszero\n  tag_132\n  jumpi\n    /* \"#utility.yul\":2362:2366   */\n  dup1\n    /* \"#utility.yul\":2355:2360   */\n  dup3\n    /* \"#utility.yul\":2351:2367   */\n  mul\n    /* \"#utility.yul\":2342:2367   */\n  swap2\n  pop\n    /* \"#utility.yul\":1930:2381   */\ntag_132:\n    /* \"#utility.yul\":2412:2416   */\n  dup1\n    /* \"#utility.yul\":2406:2410   */\n  dup2\n    /* \"#utility.yul\":2402:2417   */\n  mul\n    /* \"#utility.yul\":2394:2417   */\n  swap1\n  pop\n    /* \"#utility.yul\":2442:2474   */\n  tag_133\n    /* \"#utility.yul\":2465:2473   */\n  dup6\n    /* \"#utility.yul\":2442:2474   */\n  tag_134\n  jump\t// in\ntag_133:\n    /* \"#utility.yul\":2430:2474   */\n  swap5\n  pop\n    /* \"#utility.yul\":1772:2484   */\n  jump(tag_127)\ntag_129:\n    /* \"#utility.yul\":1642:2490   */\n  swap5\n  pop\n  swap5\n  swap3\n  pop\n  pop\n  pop\n  jump\t// out\n    /* \"#utility.yul\":2496:2777   */\ntag_19:\n    /* \"#utility.yul\":2554:2559   */\n  0x00\n    /* \"#utility.yul\":2578:2601   */\n  tag_136\n    /* \"#utility.yul\":2596:2600   */\n  dup3\n    /* \"#utility.yul\":2578:2601   */\n  tag_113\n  jump\t// in\ntag_136:\n    /* \"#utility.yul\":2570:2601   */\n  swap2\n  pop\n    /* \"#utility.yul\":2622:2647   */\n  tag_137\n    /* \"#utility.yul\":2638:2646   */\n  dup4\n    /* \"#utility.yul\":2622:2647   */\n  tag_138\n  jump\t// in\ntag_137:\n    /* \"#utility.yul\":2610:2647   */\n  swap3\n  pop\n    /* \"#utility.yul\":2666:2770   */\n  tag_139\n    /* \"#utility.yul\":2703:2769   */\n  0xffffffffffffffffffffffffffffffffffffffffffffffffffffffffffffffff\n    /* \"#utility.yul\":2693:2701   */\n  dup5\n    /* \"#utility.yul\":2687:2691   */\n  dup5\n    /* \"#utility.yul\":2666:2770   */\n  tag_140\n  jump\t// in\ntag_139:\n    /* \"#utility.yul\":2657:2770   */\n  swap1\n  pop\n    /* \"#utility.yul\":2496:2777   */\n  swap3\n  swap2\n  pop\n  pop\n  jump\t// out\n    /* \"#utility.yul\":2783:3856   */\ntag_140:\n    /* \"#utility.yul\":2837:2842   */\n  0x00\n    /* \"#utility.yul\":3028:3036   */\n  dup3\n    /* \"#utility.yul\":3018:3058   */\n  tag_142\n  jumpi\n    /* \"#utility.yul\":3049:3050   */\n  0x01\n    /* \"#utility.yul\":3040:3050   */\n  swap1\n  pop\n    /* \"#utility.yul\":3051:3056   */\n  jump(tag_141)\n    /* \"#utility.yul\":3018:3058   */\ntag_142:\n    /* \"#utility.yul\":3077:3081   */\n  dup2\n    /* \"#utility.yul\":3067:3103   */\n  tag_143\n  jumpi\n    /* \"#utility.yul\":3094:3095   */\n  0x00\n    /* \"#utility.yul\":3085:3095   */\n  swap1\n  pop\n    /* \"#utility.yul\":3096:3101   */\n  jump(tag_141)\n    /* \"#utility.yul\":3067:3103   */\ntag_143:\n    /* \"#utility.yul\":3163:3167   */\n  dup2\n    /* \"#utility.yul\":3211:3212   */\n  0x01\n    /* \"#utility.yul\":3206:3233   */\n  dup2\n  eq\n  tag_145\n  jumpi\n    /* \"#utility.yul\":3247:3248   */\n  0x02\n    /* \"#utility.yul\":3242:3433   */\n  dup2\n  eq\n  tag_146\n  jumpi\n    /* \"#utility.yul\":3156:3433   */\n  jump(tag_144)\n    /* \"#utility.yul\":3206:3233   */\ntag_145:\n    /* \"#utility.yul\":3224:3225   */\n  0x01\n    /* \"#utility.yul\":3215:3225   */\n  swap2\n  pop\n    /* \"#utility.yul\":3226:3231   */\n  pop\n  jump(tag_141)\n    /* \"#utility.yul\":3242:3433   */\ntag_146:\n    /* \"#utility.yul\":3287:3290   */\n  0xff\n    /* \"#utility.yul\":3277:3285   */\n  dup5\n    /* \"#utility.yul\":3274:3291   */\n  gt\n    /* \"#utility.yul\":3271:3314   */\n  iszero\n  tag_147\n  jumpi\n    /* \"#utility.yul\":3294:3312   */\n  tag_148\n  tag_124\n  jump\t// in\ntag_148:\n    /* \"#utility.yul\":3271:3314   */\ntag_147:\n    /* \"#utility.yul\":3343:3351   */\n  dup4\n    /* \"#utility.yul\":3340:3341   */\n  0x02\n    /* \"#utility.yul\":3336:3352   */\n  exp\n    /* \"#utility.yul\":3327:3352   */\n  swap2\n  pop\n    /* \"#utility.yul\":3378:3381   */\n  dup5\n    /* \"#utility.yul\":3371:3376   */\n  dup3\n    /* \"#utility.yul\":3368:3382   */\n  gt\n    /* \"#utility.yul\":3365:3405   */\n  iszero\n  tag_149\n  jumpi\n    /* \"#utility.yul\":3385:3403   */\n  tag_150\n  tag_124\n  jump\t// in\ntag_150:\n    /* \"#utility.yul\":3365:3405   */\ntag_149:\n    /* \"#utility.yul\":3418:3423   */\n  pop\n  jump(tag_141)\n    /* \"#utility.yul\":3156:3433   */\ntag_144:\n  pop\n    /* \"#utility.yul\":3542:3544   */\n  0x20\n    /* \"#utility.yul\":3532:3540   */\n  dup4\n    /* \"#utility.yul\":3529:3545   */\n  lt\n    /* \"#utility.yul\":3523:3526   */\n  0x0133\n    /* \"#utility.yul\":3517:3521   */\n  dup4\n    /* \"#utility.yul\":3514:3527   */\n  lt\n    /* \"#utility.yul\":3510:3546   */\n  and\n    /* \"#utility.yul\":3492:3494   */\n  0x4e\n    /* \"#utility.yul\":3482:3490   */\n  dup5\n    /* \"#utility.yul\":3479:3495   */\n  lt\n    /* \"#utility.yul\":3474:3476   */\n  0x0b\n    /* \"#utility.yul\":3468:3472   */\n  dup5\n    /* \"#utility.yul\":3465:3477   */\n  lt\n    /* \"#utility.yul\":3461:3496   */\n  and\n    /* \"#utility.yul\":3445:3556   */\n  or\n    /* \"#utility.yul\":3442:3688   */\n  iszero\n  tag_151\n  jumpi\n    /* \"#utility.yul\":3598:3606   */\n  dup3\n    /* \"#utility.yul\":3592:3596   */\n  dup3\n    /* \"#utility.yul\":3588:3607   */\n  exp\n    /* \"#utility.yul\":3579:3607   */\n  swap1\n  pop\n    /* \"#utility.yul\":3633:3636   */\n  dup4\n    /* \"#utility.yul\":3626:3631   */\n  dup2\n    /* \"#utility.yul\":3623:3637   */\n  gt\n    /* \"#utility.yul\":3620:3660   */\n  iszero\n  tag_152\n  jumpi\n    /* \"#utility.yul\":3640:3658   */\n  tag_153\n  tag_124\n  jump\t// in\ntag_153:\n    /* \"#utility.yul\":3620:3660   */\ntag_152:\n    /* \"#utility.yul\":3673:3678   */\n  jump(tag_141)\n    /* \"#utility.yul\":3442:3688   */\ntag_151:\n    /* \"#utility.yul\":3713:3755   */\n  tag_154\n    /* \"#utility.yul\":3751:3754   */\n  dup5\n    /* \"#utility.yul\":3741:3749   */\n  dup5\n    /* \"#utility.yul\":3735:3739   */\n  dup5\n    /* \"#utility.yul\":3732:3733   */\n  0x01\n    /* \"#utility.yul\":3713:3755   */\n  tag_125\n  jump\t// in\ntag_154:\n    /* \"#utility.yul\":3698:3755   */\n  swap3\n  pop\n  swap1\n  pop\n    /* \"#utility.yul\":3787:3791   */\n  dup2\n    /* \"#utility.yul\":3782:3785   */\n  dup5\n    /* \"#utility.yul\":3778:3792   */\n  div\n    /* \"#utility.yul\":3771:3776   */\n  dup2\n    /* \"#utility.yul\":3768:3793   */\n  gt\n    /* \"#utility.yul\":3765:3816   */\n  iszero\n  tag_155\n  jumpi\n    /* \"#utility.yul\":3796:3814   */\n  tag_156\n  tag_124\n  jump\t// in\ntag_156:\n    /* \"#utility.yul\":3765:3816   */\ntag_155:\n    /* \"#utility.yul\":3845:3849   */\n  dup2\n    /* \"#utility.yul\":3838:3843   */\n  dup2\n    /* \"#utility.yul\":3834:3850   */\n  mul\n    /* \"#utility.yul\":3825:3850   */\n  swap1\n  pop\n    /* \"#utility.yul\":2783:3856   */\ntag_141:\n  swap4\n  swap3\n  pop\n  pop\n  pop\n  jump\t// out\n    /* \"#utility.yul\":3862:4210   */\ntag_21:\n    /* \"#utility.yul\":3902:3909   */\n  0x00\n    /* \"#utility.yul\":3925:3945   */\n  tag_158\n    /* \"#utility.yul\":3943:3944   */\n  dup3\n    /* \"#utility.yul\":3925:3945   */\n  tag_113\n  jump\t// in\ntag_158:\n    /* \"#utility.yul\":3920:3945   */\n  swap2\n  pop\n    /* \"#utility.yul\":3959:3979   */\n  tag_159\n    /* \"#utility.yul\":3977:3978   */\n  dup4\n    /* \"#utility.yul\":3959:3979   */\n  tag_113\n  jump\t// in\ntag_159:\n    /* \"#utility.yul\":3954:3979   */\n  swap3\n  pop\n    /* \"#utility.yul\":4147:4148   */\n  dup2\n    /* \"#utility.yul\":4079:4145   */\n  0xffffffffffffffffffffffffffffffffffffffffffffffffffffffffffffffff\n    /* \"#utility.yul\":4075:4149   */\n  div\n    /* \"#utility.yul\":4072:4073   */\n  dup4\n    /* \"#utility.yul\":4069:4150   */\n  gt\n    /* \"#utility.yul\":4064:4065   */\n  dup3\n    /* \"#utility.yul\":4057:4066   */\n  iszero\n    /* \"#utility.yul\":4050:4067   */\n  iszero\n    /* \"#utility.yul\":4046:4151   */\n  and\n    /* \"#utility.yul\":4043:4174   */\n  iszero\n  tag_160\n  jumpi\n    /* \"#utility.yul\":4154:4172   */\n  tag_161\n  tag_124\n  jump\t// in\ntag_161:\n    /* \"#utility.yul\":4043:4174   */\ntag_160:\n    /* \"#utility.yul\":4202:4203   */\n  dup3\n    /* \"#utility.yul\":4199:4200   */\n  dup3\n    /* \"#utility.yul\":4195:4204   */\n  mul\n    /* \"#utility.yul\":4184:4204   */\n  swap1\n  pop\n    /* \"#utility.yul\":3862:4210   */\n  swap3\n  swap2\n  pop\n  pop\n  jump\t// out\n    /* \"#utility.yul\":4216:4407   */\ntag_86:\n    /* \"#utility.yul\":4256:4260   */\n  0x00\n    /* \"#utility.yul\":4276:4296   */\n  tag_163\n    /* \"#utility.yul\":4294:4295   */\n  dup3\n    /* \"#utility.yul\":4276:4296   */\n  tag_113\n  jump\t// in\ntag_163:\n    /* \"#utility.yul\":4271:4296   */\n  swap2\n  pop\n    /* \"#utility.yul\":4310:4330   */\n  tag_164\n    /* \"#utility.yul\":4328:4329   */\n  dup4\n    /* \"#utility.yul\":4310:4330   */\n  tag_113\n  jump\t// in\ntag_164:\n    /* \"#utility.yul\":4305:4330   */\n  swap3\n  pop\n    /* \"#utility.yul\":4349:4350   */\n  dup3\n    /* \"#utility.yul\":4346:4347   */\n  dup3\n    /* \"#utility.yul\":4343:4351   */\n  lt\n    /* \"#utility.yul\":4340:4374   */\n  iszero\n  tag_165\n  jumpi\n    /* \"#utility.yul\":4354:4372   */\n  tag_166\n  tag_124\n  jump\t// in\ntag_166:\n    /* \"#utility.yul\":4340:4374   */\ntag_165:\n    /* \"#utility.yul\":4399:4400   */\n  dup3\n    /* \"#utility.yul\":4396:4397   */\n  dup3\n    /* \"#utility.yul\":4392:4401   */\n  sub\n    /* \"#utility.yul\":4384:4401   */\n  swap1\n  pop\n    /* \"#utility.yul\":4216:4407   */\n  swap3\n  swap2\n  pop\n  pop\n  jump\t// out\n    /* \"#utility.yul\":4413:4490   */\ntag_113:\n    /* \"#utility.yul\":4450:4457   */\n  0x00\n    /* \"#utility.yul\":4479:4484   */\n  dup2\n    /* \"#utility.yul\":4468:4484   */\n  swap1\n  pop\n    /* \"#utility.yul\":4413:4490   */\n  swap2\n  swap1\n  pop\n  jump\t// out\n    /* \"#utility.yul\":4496:4582   */\ntag_138:\n    /* \"#utility.yul\":4531:4538   */\n  0x00\n    /* \"#utility.yul\":4571:4575   */\n  0xff\n    /* \"#utility.yul\":4564:4569   */\n  dup3\n    /* \"#utility.yul\":4560:4576   */\n  and\n    /* \"#utility.yul\":4549:4576   */\n  swap1\n  pop\n    /* \"#utility.yul\":4496:4582   */\n  swap2\n  swap1\n  pop\n  jump\t// out\n    /* \"#utility.yul\":4588:4908   */\ntag_93:\n    /* \"#utility.yul\":4632:4638   */\n  0x00\n    /* \"#utility.yul\":4669:4670   */\n  0x02\n    /* \"#utility.yul\":4663:4667   */\n  dup3\n    /* \"#utility.yul\":4659:4671   */\n  div\n    /* \"#utility.yul\":4649:4671   */\n  swap1\n  pop\n    /* \"#utility.yul\":4716:4717   */\n  0x01\n    /* \"#utility.yul\":4710:4714   */\n  dup3\n    /* \"#utility.yul\":4706:4718   */\n  and\n    /* \"#utility.yul\":4737:4755   */\n  dup1\n    /* \"#utility.yul\":4727:4808   */\n  tag_170\n  jumpi\n    /* \"#utility.yul\":4793:4797   */\n  0x7f\n    /* \"#utility.yul\":4785:4791   */\n  dup3\n    /* \"#utility.yul\":4781:4798   */\n  and\n    /* \"#utility.yul\":4771:4798   */\n  swap2\n  pop\n    /* \"#utility.yul\":4727:4808   */\ntag_170:\n    /* \"#utility.yul\":4855:4857   */\n  0x20\n    /* \"#utility.yul\":4847:4853   */\n  dup3\n    /* \"#utility.yul\":4844:4858   */\n  lt\n    /* \"#utility.yul\":4824:4842   */\n  dup2\n    /* \"#utility.yul\":4821:4859   */\n  eq\n    /* \"#utility.yul\":4818:4902   */\n  iszero\n  tag_171\n  jumpi\n    /* \"#utility.yul\":4874:4892   */\n  tag_172\n  tag_173\n  jump\t// in\ntag_172:\n    /* \"#utility.yul\":4818:4902   */\ntag_171:\n    /* \"#utility.yul\":4639:4908   */\n  pop\n    /* \"#utility.yul\":4588:4908   */\n  swap2\n  swap1\n  pop\n  jump\t// out\n    /* \"#utility.yul\":4914:5094   */\ntag_124:\n    /* \"#utility.yul\":4962:5039   */\n  0x4e487b7100000000000000000000000000000000000000000000000000000000\n    /* \"#utility.yul\":4959:4960   */\n  0x00\n    /* \"#utility.yul\":4952:5040   */\n  mstore\n    /* \"#utility.yul\":5059:5063   */\n  0x11\n    /* \"#utility.yul\":5056:5057   */\n  0x04\n    /* \"#utility.yul\":5049:5064   */\n  mstore\n    /* \"#utility.yul\":5083:5087   */\n  0x24\n    /* \"#utility.yul\":5080:5081   */\n  0x00\n    /* \"#utility.yul\":5073:5088   */\n  revert\n    /* \"#utility.yul\":5100:5280   */\ntag_173:\n    /* \"#utility.yul\":5148:5225   */\n  0x4e487b7100000000000000000000000000000000000000000000000000000000\n    /* \"#utility.yul\":5145:5146   */\n  0x00\n    /* \"#utility.yul\":5138:5226   */\n  mstore\n    /* \"#utility.yul\":5245:5249   */\n  0x22\n    /* \"#utility.yul\":5242:5243   */\n  0x04\n    /* \"#utility.yul\":5235:5250   */\n  mstore\n    /* \"#utility.yul\":5269:5273   */\n  0x24\n    /* \"#utility.yul\":5266:5267   */\n  0x00\n    /* \"#utility.yul\":5259:5274   */\n  revert\n    /* \"#utility.yul\":5286:5466   */\ntag_89:\n    /* \"#utility.yul\":5334:5411   */\n  0x4e487b7100000000000000000000000000000000000000000000000000000000\n    /* \"#utility.yul\":5331:5332   */\n  0x00\n    /* \"#utility.yul\":5324:5412   */\n  mstore\n    /* \"#utility.yul\":5431:5435   */\n  0x32\n    /* \"#utility.yul\":5428:5429   */\n  0x04\n    /* \"#utility.yul\":5421:5436   */\n  mstore\n    /* \"#utility.yul\":5455:5459   */\n  0x24\n    /* \"#utility.yul\":5452:5453   */\n  0x00\n    /* \"#utility.yul\":5445:5460   */\n  revert\n    /* \"#utility.yul\":5472:5574   */\ntag_134:\n    /* \"#utility.yul\":5514:5522   */\n  0x00\n    /* \"#utility.yul\":5561:5566   */\n  dup2\n    /* \"#utility.yul\":5558:5559   */\n  0x01\n    /* \"#utility.yul\":5554:5567   */\n  shr\n    /* \"#utility.yul\":5533:5567   */\n  swap1\n  pop\n    /* \"#utility.yul\":5472:5574   */\n  swap2\n  swap1\n  pop\n  jump\t// out\n    /* \"#utility.yul\":5580:5761   */\ntag_109:\n    /* \"#utility.yul\":5720:5753   */\n  0x45524332303a206d696e7420746f20746865207a65726f206164647265737300\n    /* \"#utility.yul\":5716:5717   */\n  0x00\n    /* \"#utility.yul\":5708:5714   */\n  dup3\n    /* \"#utility.yul\":5704:5718   */\n  add\n    /* \"#utility.yul\":5697:5754   */\n  mstore\n    /* \"#utility.yul\":5580:5761   */\n  pop\n  jump\t// out\n    /* \"contracts/erc20.sol\":374:1008  contract MyToken is ERC20, ERC20Burnable, ERC20Snapshot, Ownable {\r... */\ntag_23:\n  dataSize(sub_0)\n  dup1\n  dataOffset(sub_0)\n  0x00\n  codecopy\n  0x00\n  return\nstop\n\nsub_0: assembly {\n        /* \"contracts/erc20.sol\":374:1008  contract MyToken is ERC20, ERC20Burnable, ERC20Snapshot, Ownable {\r... */\n      mstore(0x40, 0x80)\n      callvalue\n      dup1\n      iszero\n      tag_1\n      jumpi\n      0x00\n      dup1\n      revert\n    tag_1:\n      pop\n      jumpi(tag_2, lt(calldatasize, 0x04))\n      shr(0xe0, calldataload(0x00))\n      dup1\n      0x715018a6\n      gt\n      tag_23\n      jumpi\n      dup1\n      0x981b24d0\n      gt\n      tag_24\n      jumpi\n      dup1\n      0x981b24d0\n      eq\n      tag_18\n      jumpi\n      dup1\n      0xa457c2d7\n      eq\n      tag_19\n      jumpi\n      dup1\n      0xa9059cbb\n      eq\n      tag_20\n      jumpi\n      dup1\n      0xdd62ed3e\n      eq\n      tag_21\n      jumpi\n      dup1\n      0xf2fde38b\n      eq\n      tag_22\n      jumpi\n      jump(tag_2)\n    tag_24:\n      dup1\n      0x715018a6\n      eq\n      tag_13\n      jumpi\n      dup1\n      0x79cc6790\n      eq\n      tag_14\n      jumpi\n      dup1\n      0x8da5cb5b\n      eq\n      tag_15\n      jumpi\n      dup1\n      0x95d89b41\n      eq\n      tag_16\n      jumpi\n      dup1\n      0x9711715a\n      eq\n      tag_17\n      jumpi\n      jump(tag_2)\n    tag_23:\n      dup1\n      0x39509351\n      gt\n      tag_25\n      jumpi\n      dup1\n      0x39509351\n      eq\n      tag_8\n      jumpi\n      dup1\n      0x40c10f19\n      eq\n      tag_9\n      jumpi\n      dup1\n      0x42966c68\n      eq\n      tag_10\n      jumpi\n      dup1\n      0x4ee2cd7e\n      eq\n      tag_11\n      jumpi\n      dup1\n      0x70a08231\n      eq\n      tag_12\n      jumpi\n      jump(tag_2)\n    tag_25:\n      dup1\n      0x06fdde03\n      eq\n      tag_3\n      jumpi\n      dup1\n      0x095ea7b3\n      eq\n      tag_4\n      jumpi\n      dup1\n      0x18160ddd\n      eq\n      tag_5\n      jumpi\n      dup1\n      0x23b872dd\n      eq\n      tag_6\n      jumpi\n      dup1\n      0x313ce567\n      eq\n      tag_7\n      jumpi\n    tag_2:\n      0x00\n      dup1\n      revert\n        /* \"@openzeppelin/contracts/token/ERC20/ERC20.sol\":2156:2254  function name() public view virtual override returns (string memory) {... */\n    tag_3:\n      tag_26\n      tag_27\n      jump\t// in\n    tag_26:\n      mload(0x40)\n      tag_28\n      swap2\n      swap1\n      tag_29\n      jump\t// in\n    tag_28:\n      mload(0x40)\n      dup1\n      swap2\n      sub\n      swap1\n      return\n        /* \"@openzeppelin/contracts/token/ERC20/ERC20.sol\":4433:4630  function approve(address spender, uint256 amount) public virtual override returns (bool) {... */\n    tag_4:\n      tag_30\n      0x04\n      dup1\n      calldatasize\n      sub\n      dup2\n      add\n      swap1\n      tag_31\n      swap2\n      swap1\n      tag_32\n      jump\t// in\n    tag_31:\n      tag_33\n      jump\t// in\n    tag_30:\n      mload(0x40)\n      tag_34\n      swap2\n      swap1\n      tag_35\n      jump\t// in\n    tag_34:\n      mload(0x40)\n      dup1\n      swap2\n      sub\n      swap1\n      return\n        /* \"@openzeppelin/contracts/token/ERC20/ERC20.sol\":3244:3350  function totalSupply() public view virtual override returns (uint256) {... */\n    tag_5:\n      tag_36\n      tag_37\n      jump\t// in\n    tag_36:\n      mload(0x40)\n      tag_38\n      swap2\n      swap1\n      tag_39\n      jump\t// in\n    tag_38:\n      mload(0x40)\n      dup1\n      swap2\n      sub\n      swap1\n      return\n        /* \"@openzeppelin/contracts/token/ERC20/ERC20.sol\":5192:5478  function transferFrom(... */\n    tag_6:\n      tag_40\n      0x04\n      dup1\n      calldatasize\n      sub\n      dup2\n      add\n      swap1\n      tag_41\n      swap2\n      swap1\n      tag_42\n      jump\t// in\n    tag_41:\n      tag_43\n      jump\t// in\n    tag_40:\n      mload(0x40)\n      tag_44\n      swap2\n      swap1\n      tag_35\n      jump\t// in\n    tag_44:\n      mload(0x40)\n      dup1\n      swap2\n      sub\n      swap1\n      return\n        /* \"@openzeppelin/contracts/token/ERC20/ERC20.sol\":3093:3184  function decimals() public view virtual override returns (uint8) {... */\n    tag_7:\n      tag_45\n      tag_46\n      jump\t// in\n    tag_45:\n      mload(0x40)\n      tag_47\n      swap2\n      swap1\n      tag_48\n      jump\t// in\n    tag_47:\n      mload(0x40)\n      dup1\n      swap2\n      sub\n      swap1\n      return\n        /* \"@openzeppelin/contracts/token/ERC20/ERC20.sol\":5873:6107  function increaseAllowance(address spender, uint256 addedValue) public virtual returns (bool) {... */\n    tag_8:\n      tag_49\n      0x04\n      dup1\n      calldatasize\n      sub\n      dup2\n      add\n      swap1\n      tag_50\n      swap2\n      swap1\n      tag_32\n      jump\t// in\n    tag_50:\n      tag_51\n      jump\t// in\n    tag_49:\n      mload(0x40)\n      tag_52\n      swap2\n      swap1\n      tag_35\n      jump\t// in\n    tag_52:\n      mload(0x40)\n      dup1\n      swap2\n      sub\n      swap1\n      return\n        /* \"contracts/erc20.sol\":634:729  function mint(address to, uint256 amount) public onlyOwner {\r... */\n    tag_9:\n      tag_53\n      0x04\n      dup1\n      calldatasize\n      sub\n      dup2\n      add\n      swap1\n      tag_54\n      swap2\n      swap1\n      tag_32\n      jump\t// in\n    tag_54:\n      tag_55\n      jump\t// in\n    tag_53:\n      stop\n        /* \"@openzeppelin/contracts/token/ERC20/extensions/ERC20Burnable.sol\":578:667  function burn(uint256 amount) public virtual {... */\n    tag_10:\n      tag_56\n      0x04\n      dup1\n      calldatasize\n      sub\n      dup2\n      add\n      swap1\n      tag_57\n      swap2\n      swap1\n      tag_58\n      jump\t// in\n    tag_57:\n      tag_59\n      jump\t// in\n    tag_56:\n      stop\n        /* \"@openzeppelin/contracts/token/ERC20/extensions/ERC20Snapshot.sol\":4998:5260  function balanceOfAt(address account, uint256 snapshotId) public view virtual returns (uint256) {... */\n    tag_11:\n      tag_60\n      0x04\n      dup1\n      calldatasize\n      sub\n      dup2\n      add\n      swap1\n      tag_61\n      swap2\n      swap1\n      tag_32\n      jump\t// in\n    tag_61:\n      tag_62\n      jump\t// in\n    tag_60:\n      mload(0x40)\n      tag_63\n      swap2\n      swap1\n      tag_39\n      jump\t// in\n    tag_63:\n      mload(0x40)\n      dup1\n      swap2\n      sub\n      swap1\n      return\n        /* \"@openzeppelin/contracts/token/ERC20/ERC20.sol\":3408:3533  function balanceOf(address account) public view virtual override returns (uint256) {... */\n    tag_12:\n      tag_64\n      0x04\n      dup1\n      calldatasize\n      sub\n      dup2\n      add\n      swap1\n      tag_65\n      swap2\n      swap1\n      tag_66\n      jump\t// in\n    tag_65:\n      tag_67\n      jump\t// in\n    tag_64:\n      mload(0x40)\n      tag_68\n      swap2\n      swap1\n      tag_39\n      jump\t// in\n    tag_68:\n      mload(0x40)\n      dup1\n      swap2\n      sub\n      swap1\n      return\n        /* \"@openzeppelin/contracts/access/Ownable.sol\":1668:1769  function renounceOwnership() public virtual onlyOwner {... */\n    tag_13:\n      tag_69\n      tag_70\n      jump\t// in\n    tag_69:\n      stop\n        /* \"@openzeppelin/contracts/token/ERC20/extensions/ERC20Burnable.sol\":973:1134  function burnFrom(address account, uint256 amount) public virtual {... */\n    tag_14:\n      tag_71\n      0x04\n      dup1\n      calldatasize\n      sub\n      dup2\n      add\n      swap1\n      tag_72\n      swap2\n      swap1\n      tag_32\n      jump\t// in\n    tag_72:\n      tag_73\n      jump\t// in\n    tag_71:\n      stop\n        /* \"@openzeppelin/contracts/access/Ownable.sol\":1036:1121  function owner() public view virtual returns (address) {... */\n    tag_15:\n      tag_74\n      tag_75\n      jump\t// in\n    tag_74:\n      mload(0x40)\n      tag_76\n      swap2\n      swap1\n      tag_77\n      jump\t// in\n    tag_76:\n      mload(0x40)\n      dup1\n      swap2\n      sub\n      swap1\n      return\n        /* \"@openzeppelin/contracts/token/ERC20/ERC20.sol\":2367:2469  function symbol() public view virtual override returns (string memory) {... */\n    tag_16:\n      tag_78\n      tag_79\n      jump\t// in\n    tag_78:\n      mload(0x40)\n      tag_80\n      swap2\n      swap1\n      tag_29\n      jump\t// in\n    tag_80:\n      mload(0x40)\n      dup1\n      swap2\n      sub\n      swap1\n      return\n        /* \"contracts/erc20.sol\":559:626  function snapshot() public onlyOwner {\r... */\n    tag_17:\n      tag_81\n      tag_82\n      jump\t// in\n    tag_81:\n      stop\n        /* \"@openzeppelin/contracts/token/ERC20/extensions/ERC20Snapshot.sol\":5359:5589  function totalSupplyAt(uint256 snapshotId) public view virtual returns (uint256) {... */\n    tag_18:\n      tag_83\n      0x04\n      dup1\n      calldatasize\n      sub\n      dup2\n      add\n      swap1\n      tag_84\n      swap2\n      swap1\n      tag_58\n      jump\t// in\n    tag_84:\n      tag_85\n      jump\t// in\n    tag_83:\n      mload(0x40)\n      tag_86\n      swap2\n      swap1\n      tag_39\n      jump\t// in\n    tag_86:\n      mload(0x40)\n      dup1\n      swap2\n      sub\n      swap1\n      return\n        /* \"@openzeppelin/contracts/token/ERC20/ERC20.sol\":6594:7021  function decreaseAllowance(address spender, uint256 subtractedValue) public virtual returns (bool) {... */\n    tag_19:\n      tag_87\n      0x04\n      dup1\n      calldatasize\n      sub\n      dup2\n      add\n      swap1\n      tag_88\n      swap2\n      swap1\n      tag_32\n      jump\t// in\n    tag_88:\n      tag_89\n      jump\t// in\n    tag_87:\n      mload(0x40)\n      tag_90\n      swap2\n      swap1\n      tag_35\n      jump\t// in\n    tag_90:\n      mload(0x40)\n      dup1\n      swap2\n      sub\n      swap1\n      return\n        /* \"@openzeppelin/contracts/token/ERC20/ERC20.sol\":3729:3918  function transfer(address to, uint256 amount) public virtual override returns (bool) {... */\n    tag_20:\n      tag_91\n      0x04\n      dup1\n      calldatasize\n      sub\n      dup2\n      add\n      swap1\n      tag_92\n      swap2\n      swap1\n      tag_32\n      jump\t// in\n    tag_92:\n      tag_93\n      jump\t// in\n    tag_91:\n      mload(0x40)\n      tag_94\n      swap2\n      swap1\n      tag_35\n      jump\t// in\n    tag_94:\n      mload(0x40)\n      dup1\n      swap2\n      sub\n      swap1\n      return\n        /* \"@openzeppelin/contracts/token/ERC20/ERC20.sol\":3976:4125  function allowance(address owner, address spender) public view virtual override returns (uint256) {... */\n    tag_21:\n      tag_95\n      0x04\n      dup1\n      calldatasize\n      sub\n      dup2\n      add\n      swap1\n      tag_96\n      swap2\n      swap1\n      tag_97\n      jump\t// in\n    tag_96:\n      tag_98\n      jump\t// in\n    tag_95:\n      mload(0x40)\n      tag_99\n      swap2\n      swap1\n      tag_39\n      jump\t// in\n    tag_99:\n      mload(0x40)\n      dup1\n      swap2\n      sub\n      swap1\n      return\n        /* \"@openzeppelin/contracts/access/Ownable.sol\":1918:2116  function transferOwnership(address newOwner) public virtual onlyOwner {... */\n    tag_22:\n      tag_100\n      0x04\n      dup1\n      calldatasize\n      sub\n      dup2\n      add\n      swap1\n      tag_101\n      swap2\n      swap1\n      tag_66\n      jump\t// in\n    tag_101:\n      tag_102\n      jump\t// in\n    tag_100:\n      stop\n        /* \"@openzeppelin/contracts/token/ERC20/ERC20.sol\":2156:2254  function name() public view virtual override returns (string memory) {... */\n    tag_27:\n        /* \"@openzeppelin/contracts/token/ERC20/ERC20.sol\":2210:2223  string memory */\n      0x60\n        /* \"@openzeppelin/contracts/token/ERC20/ERC20.sol\":2242:2247  _name */\n      0x03\n        /* \"@openzeppelin/contracts/token/ERC20/ERC20.sol\":2235:2247  return _name */\n      dup1\n      sload\n      tag_107\n      swap1\n      tag_108\n      jump\t// in\n    tag_107:\n      dup1\n      0x1f\n      add\n      0x20\n      dup1\n      swap2\n      div\n      mul\n      0x20\n      add\n      mload(0x40)\n      swap1\n      dup2\n      add\n      0x40\n      mstore\n      dup1\n      swap3\n      swap2\n      swap1\n      dup2\n      dup2\n      mstore\n      0x20\n      add\n      dup3\n      dup1\n      sload\n      tag_109\n      swap1\n      tag_108\n      jump\t// in\n    tag_109:\n      dup1\n      iszero\n      tag_110\n      jumpi\n      dup1\n      0x1f\n      lt\n      tag_111\n      jumpi\n      0x0100\n      dup1\n      dup4\n      sload\n      div\n      mul\n      dup4\n      mstore\n      swap2\n      0x20\n      add\n      swap2\n      jump(tag_110)\n    tag_111:\n      dup3\n      add\n      swap2\n      swap1\n      0x00\n      mstore\n      keccak256(0x00, 0x20)\n      swap1\n    tag_112:\n      dup2\n      sload\n      dup2\n      mstore\n      swap1\n      0x01\n      add\n      swap1\n      0x20\n      add\n      dup1\n      dup4\n      gt\n      tag_112\n      jumpi\n      dup3\n      swap1\n      sub\n      0x1f\n      and\n      dup3\n      add\n      swap2\n    tag_110:\n      pop\n      pop\n      pop\n      pop\n      pop\n      swap1\n      pop\n        /* \"@openzeppelin/contracts/token/ERC20/ERC20.sol\":2156:2254  function name() public view virtual override returns (string memory) {... */\n      swap1\n      jump\t// out\n        /* \"@openzeppelin/contracts/token/ERC20/ERC20.sol\":4433:4630  function approve(address spender, uint256 amount) public virtual override returns (bool) {... */\n    tag_33:\n        /* \"@openzeppelin/contracts/token/ERC20/ERC20.sol\":4516:4520  bool */\n      0x00\n        /* \"@openzeppelin/contracts/token/ERC20/ERC20.sol\":4532:4545  address owner */\n      dup1\n        /* \"@openzeppelin/contracts/token/ERC20/ERC20.sol\":4548:4560  _msgSender() */\n      tag_114\n        /* \"@openzeppelin/contracts/token/ERC20/ERC20.sol\":4548:4558  _msgSender */\n      tag_115\n        /* \"@openzeppelin/contracts/token/ERC20/ERC20.sol\":4548:4560  _msgSender() */\n      jump\t// in\n    tag_114:\n        /* \"@openzeppelin/contracts/token/ERC20/ERC20.sol\":4532:4560  address owner = _msgSender() */\n      swap1\n      pop\n        /* \"@openzeppelin/contracts/token/ERC20/ERC20.sol\":4570:4602  _approve(owner, spender, amount) */\n      tag_116\n        /* \"@openzeppelin/contracts/token/ERC20/ERC20.sol\":4579:4584  owner */\n      dup2\n        /* \"@openzeppelin/contracts/token/ERC20/ERC20.sol\":4586:4593  spender */\n      dup6\n        /* \"@openzeppelin/contracts/token/ERC20/ERC20.sol\":4595:4601  amount */\n      dup6\n        /* \"@openzeppelin/contracts/token/ERC20/ERC20.sol\":4570:4578  _approve */\n      tag_117\n        /* \"@openzeppelin/contracts/token/ERC20/ERC20.sol\":4570:4602  _approve(owner, spender, amount) */\n      jump\t// in\n    tag_116:\n        /* \"@openzeppelin/contracts/token/ERC20/ERC20.sol\":4619:4623  true */\n      0x01\n        /* \"@openzeppelin/contracts/token/ERC20/ERC20.sol\":4612:4623  return true */\n      swap2\n      pop\n      pop\n        /* \"@openzeppelin/contracts/token/ERC20/ERC20.sol\":4433:4630  function approve(address spender, uint256 amount) public virtual override returns (bool) {... */\n      swap3\n      swap2\n      pop\n      pop\n      jump\t// out\n        /* \"@openzeppelin/contracts/token/ERC20/ERC20.sol\":3244:3350  function totalSupply() public view virtual override returns (uint256) {... */\n    tag_37:\n        /* \"@openzeppelin/contracts/token/ERC20/ERC20.sol\":3305:3312  uint256 */\n      0x00\n        /* \"@openzeppelin/contracts/token/ERC20/ERC20.sol\":3331:3343  _totalSupply */\n      sload(0x02)\n        /* \"@openzeppelin/contracts/token/ERC20/ERC20.sol\":3324:3343  return _totalSupply */\n      swap1\n      pop\n        /* \"@openzeppelin/contracts/token/ERC20/ERC20.sol\":3244:3350  function totalSupply() public view virtual override returns (uint256) {... */\n      swap1\n      jump\t// out\n        /* \"@openzeppelin/contracts/token/ERC20/ERC20.sol\":5192:5478  function transferFrom(... */\n    tag_43:\n        /* \"@openzeppelin/contracts/token/ERC20/ERC20.sol\":5319:5323  bool */\n      0x00\n        /* \"@openzeppelin/contracts/token/ERC20/ERC20.sol\":5335:5350  address spender */\n      dup1\n        /* \"@openzeppelin/contracts/token/ERC20/ERC20.sol\":5353:5365  _msgSender() */\n      tag_120\n        /* \"@openzeppelin/contracts/token/ERC20/ERC20.sol\":5353:5363  _msgSender */\n      tag_115\n        /* \"@openzeppelin/contracts/token/ERC20/ERC20.sol\":5353:5365  _msgSender() */\n      jump\t// in\n    tag_120:\n        /* \"@openzeppelin/contracts/token/ERC20/ERC20.sol\":5335:5365  address spender = _msgSender() */\n      swap1\n      pop\n        /* \"@openzeppelin/contracts/token/ERC20/ERC20.sol\":5375:5413  _spendAllowance(from, spender, amount) */\n      tag_121\n        /* \"@openzeppelin/contracts/token/ERC20/ERC20.sol\":5391:5395  from */\n      dup6\n        /* \"@openzeppelin/contracts/token/ERC20/ERC20.sol\":5397:5404  spender */\n      dup3\n        /* \"@openzeppelin/contracts/token/ERC20/ERC20.sol\":5406:5412  amount */\n      dup6\n        /* \"@openzeppelin/contracts/token/ERC20/ERC20.sol\":5375:5390  _spendAllowance */\n      tag_122\n        /* \"@openzeppelin/contracts/token/ERC20/ERC20.sol\":5375:5413  _spendAllowance(from, spender, amount) */\n      jump\t// in\n    tag_121:\n        /* \"@openzeppelin/contracts/token/ERC20/ERC20.sol\":5423:5450  _transfer(from, to, amount) */\n      tag_123\n        /* \"@openzeppelin/contracts/token/ERC20/ERC20.sol\":5433:5437  from */\n      dup6\n        /* \"@openzeppelin/contracts/token/ERC20/ERC20.sol\":5439:5441  to */\n      dup6\n        /* \"@openzeppelin/contracts/token/ERC20/ERC20.sol\":5443:5449  amount */\n      dup6\n        /* \"@openzeppelin/contracts/token/ERC20/ERC20.sol\":5423:5432  _transfer */\n      tag_124\n        /* \"@openzeppelin/contracts/token/ERC20/ERC20.sol\":5423:5450  _transfer(from, to, amount) */\n      jump\t// in\n    tag_123:\n        /* \"@openzeppelin/contracts/token/ERC20/ERC20.sol\":5467:5471  true */\n      0x01\n        /* \"@openzeppelin/contracts/token/ERC20/ERC20.sol\":5460:5471  return true */\n      swap2\n      pop\n      pop\n        /* \"@openzeppelin/contracts/token/ERC20/ERC20.sol\":5192:5478  function transferFrom(... */\n      swap4\n      swap3\n      pop\n      pop\n      pop\n      jump\t// out\n        /* \"@openzeppelin/contracts/token/ERC20/ERC20.sol\":3093:3184  function decimals() public view virtual override returns (uint8) {... */\n    tag_46:\n        /* \"@openzeppelin/contracts/token/ERC20/ERC20.sol\":3151:3156  uint8 */\n      0x00\n        /* \"@openzeppelin/contracts/token/ERC20/ERC20.sol\":3175:3177  18 */\n      0x12\n        /* \"@openzeppelin/contracts/token/ERC20/ERC20.sol\":3168:3177  return 18 */\n      swap1\n      pop\n        /* \"@openzeppelin/contracts/token/ERC20/ERC20.sol\":3093:3184  function decimals() public view virtual override returns (uint8) {... */\n      swap1\n      jump\t// out\n        /* \"@openzeppelin/contracts/token/ERC20/ERC20.sol\":5873:6107  function increaseAllowance(address spender, uint256 addedValue) public virtual returns (bool) {... */\n    tag_51:\n        /* \"@openzeppelin/contracts/token/ERC20/ERC20.sol\":5961:5965  bool */\n      0x00\n        /* \"@openzeppelin/contracts/token/ERC20/ERC20.sol\":5977:5990  address owner */\n      dup1\n        /* \"@openzeppelin/contracts/token/ERC20/ERC20.sol\":5993:6005  _msgSender() */\n      tag_127\n        /* \"@openzeppelin/contracts/token/ERC20/ERC20.sol\":5993:6003  _msgSender */\n      tag_115\n        /* \"@openzeppelin/contracts/token/ERC20/ERC20.sol\":5993:6005  _msgSender() */\n      jump\t// in\n    tag_127:\n        /* \"@openzeppelin/contracts/token/ERC20/ERC20.sol\":5977:6005  address owner = _msgSender() */\n      swap1\n      pop\n        /* \"@openzeppelin/contracts/token/ERC20/ERC20.sol\":6015:6079  _approve(owner, spender, allowance(owner, spender) + addedValue) */\n      tag_128\n        /* \"@openzeppelin/contracts/token/ERC20/ERC20.sol\":6024:6029  owner */\n      dup2\n        /* \"@openzeppelin/contracts/token/ERC20/ERC20.sol\":6031:6038  spender */\n      dup6\n        /* \"@openzeppelin/contracts/token/ERC20/ERC20.sol\":6068:6078  addedValue */\n      dup6\n        /* \"@openzeppelin/contracts/token/ERC20/ERC20.sol\":6040:6065  allowance(owner, spender) */\n      tag_129\n        /* \"@openzeppelin/contracts/token/ERC20/ERC20.sol\":6050:6055  owner */\n      dup6\n        /* \"@openzeppelin/contracts/token/ERC20/ERC20.sol\":6057:6064  spender */\n      dup10\n        /* \"@openzeppelin/contracts/token/ERC20/ERC20.sol\":6040:6049  allowance */\n      tag_98\n        /* \"@openzeppelin/contracts/token/ERC20/ERC20.sol\":6040:6065  allowance(owner, spender) */\n      jump\t// in\n    tag_129:\n        /* \"@openzeppelin/contracts/token/ERC20/ERC20.sol\":6040:6078  allowance(owner, spender) + addedValue */\n      tag_130\n      swap2\n      swap1\n      tag_131\n      jump\t// in\n    tag_130:\n        /* \"@openzeppelin/contracts/token/ERC20/ERC20.sol\":6015:6023  _approve */\n      tag_117\n        /* \"@openzeppelin/contracts/token/ERC20/ERC20.sol\":6015:6079  _approve(owner, spender, allowance(owner, spender) + addedValue) */\n      jump\t// in\n    tag_128:\n        /* \"@openzeppelin/contracts/token/ERC20/ERC20.sol\":6096:6100  true */\n      0x01\n        /* \"@openzeppelin/contracts/token/ERC20/ERC20.sol\":6089:6100  return true */\n      swap2\n      pop\n      pop\n        /* \"@openzeppelin/contracts/token/ERC20/ERC20.sol\":5873:6107  function increaseAllowance(address spender, uint256 addedValue) public virtual returns (bool) {... */\n      swap3\n      swap2\n      pop\n      pop\n      jump\t// out\n        /* \"contracts/erc20.sol\":634:729  function mint(address to, uint256 amount) public onlyOwner {\r... */\n    tag_55:\n        /* \"@openzeppelin/contracts/access/Ownable.sol\":1259:1271  _msgSender() */\n      tag_133\n        /* \"@openzeppelin/contracts/access/Ownable.sol\":1259:1269  _msgSender */\n      tag_115\n        /* \"@openzeppelin/contracts/access/Ownable.sol\":1259:1271  _msgSender() */\n      jump\t// in\n    tag_133:\n        /* \"@openzeppelin/contracts/access/Ownable.sol\":1248:1271  owner() == _msgSender() */\n      0xffffffffffffffffffffffffffffffffffffffff\n      and\n        /* \"@openzeppelin/contracts/access/Ownable.sol\":1248:1255  owner() */\n      tag_134\n        /* \"@openzeppelin/contracts/access/Ownable.sol\":1248:1253  owner */\n      tag_75\n        /* \"@openzeppelin/contracts/access/Ownable.sol\":1248:1255  owner() */\n      jump\t// in\n    tag_134:\n        /* \"@openzeppelin/contracts/access/Ownable.sol\":1248:1271  owner() == _msgSender() */\n      0xffffffffffffffffffffffffffffffffffffffff\n      and\n      eq\n        /* \"@openzeppelin/contracts/access/Ownable.sol\":1240:1308  require(owner() == _msgSender(), \"Ownable: caller is not the owner\") */\n      tag_135\n      jumpi\n      mload(0x40)\n      0x08c379a000000000000000000000000000000000000000000000000000000000\n      dup2\n      mstore\n      0x04\n      add\n      tag_136\n      swap1\n      tag_137\n      jump\t// in\n    tag_136:\n      mload(0x40)\n      dup1\n      swap2\n      sub\n      swap1\n      revert\n    tag_135:\n        /* \"contracts/erc20.sol\":704:721  _mint(to, amount) */\n      tag_139\n        /* \"contracts/erc20.sol\":710:712  to */\n      dup3\n        /* \"contracts/erc20.sol\":714:720  amount */\n      dup3\n        /* \"contracts/erc20.sol\":704:709  _mint */\n      tag_140\n        /* \"contracts/erc20.sol\":704:721  _mint(to, amount) */\n      jump\t// in\n    tag_139:\n        /* \"contracts/erc20.sol\":634:729  function mint(address to, uint256 amount) public onlyOwner {\r... */\n      pop\n      pop\n      jump\t// out\n        /* \"@openzeppelin/contracts/token/ERC20/extensions/ERC20Burnable.sol\":578:667  function burn(uint256 amount) public virtual {... */\n    tag_59:\n        /* \"@openzeppelin/contracts/token/ERC20/extensions/ERC20Burnable.sol\":633:660  _burn(_msgSender(), amount) */\n      tag_142\n        /* \"@openzeppelin/contracts/token/ERC20/extensions/ERC20Burnable.sol\":639:651  _msgSender() */\n      tag_143\n        /* \"@openzeppelin/contracts/token/ERC20/extensions/ERC20Burnable.sol\":639:649  _msgSender */\n      tag_115\n        /* \"@openzeppelin/contracts/token/ERC20/extensions/ERC20Burnable.sol\":639:651  _msgSender() */\n      jump\t// in\n    tag_143:\n        /* \"@openzeppelin/contracts/token/ERC20/extensions/ERC20Burnable.sol\":653:659  amount */\n      dup3\n        /* \"@openzeppelin/contracts/token/ERC20/extensions/ERC20Burnable.sol\":633:638  _burn */\n      tag_144\n        /* \"@openzeppelin/contracts/token/ERC20/extensions/ERC20Burnable.sol\":633:660  _burn(_msgSender(), amount) */\n      jump\t// in\n    tag_142:\n        /* \"@openzeppelin/contracts/token/ERC20/extensions/ERC20Burnable.sol\":578:667  function burn(uint256 amount) public virtual {... */\n      pop\n      jump\t// out\n        /* \"@openzeppelin/contracts/token/ERC20/extensions/ERC20Snapshot.sol\":4998:5260  function balanceOfAt(address account, uint256 snapshotId) public view virtual returns (uint256) {... */\n    tag_62:\n        /* \"@openzeppelin/contracts/token/ERC20/extensions/ERC20Snapshot.sol\":5085:5092  uint256 */\n      0x00\n        /* \"@openzeppelin/contracts/token/ERC20/extensions/ERC20Snapshot.sol\":5105:5121  bool snapshotted */\n      dup1\n        /* \"@openzeppelin/contracts/token/ERC20/extensions/ERC20Snapshot.sol\":5123:5136  uint256 value */\n      0x00\n        /* \"@openzeppelin/contracts/token/ERC20/extensions/ERC20Snapshot.sol\":5140:5195  _valueAt(snapshotId, _accountBalanceSnapshots[account]) */\n      tag_146\n        /* \"@openzeppelin/contracts/token/ERC20/extensions/ERC20Snapshot.sol\":5149:5159  snapshotId */\n      dup5\n        /* \"@openzeppelin/contracts/token/ERC20/extensions/ERC20Snapshot.sol\":5161:5185  _accountBalanceSnapshots */\n      0x05\n        /* \"@openzeppelin/contracts/token/ERC20/extensions/ERC20Snapshot.sol\":5161:5194  _accountBalanceSnapshots[account] */\n      0x00\n        /* \"@openzeppelin/contracts/token/ERC20/extensions/ERC20Snapshot.sol\":5186:5193  account */\n      dup9\n        /* \"@openzeppelin/contracts/token/ERC20/extensions/ERC20Snapshot.sol\":5161:5194  _accountBalanceSnapshots[account] */\n      0xffffffffffffffffffffffffffffffffffffffff\n      and\n      0xffffffffffffffffffffffffffffffffffffffff\n      and\n      dup2\n      mstore\n      0x20\n      add\n      swap1\n      dup2\n      mstore\n      0x20\n      add\n      0x00\n      keccak256\n        /* \"@openzeppelin/contracts/token/ERC20/extensions/ERC20Snapshot.sol\":5140:5148  _valueAt */\n      tag_147\n        /* \"@openzeppelin/contracts/token/ERC20/extensions/ERC20Snapshot.sol\":5140:5195  _valueAt(snapshotId, _accountBalanceSnapshots[account]) */\n      jump\t// in\n    tag_146:\n        /* \"@openzeppelin/contracts/token/ERC20/extensions/ERC20Snapshot.sol\":5104:5195  (bool snapshotted, uint256 value) = _valueAt(snapshotId, _accountBalanceSnapshots[account]) */\n      swap2\n      pop\n      swap2\n      pop\n        /* \"@openzeppelin/contracts/token/ERC20/extensions/ERC20Snapshot.sol\":5213:5224  snapshotted */\n      dup2\n        /* \"@openzeppelin/contracts/token/ERC20/extensions/ERC20Snapshot.sol\":5213:5253  snapshotted ? value : balanceOf(account) */\n      tag_148\n      jumpi\n        /* \"@openzeppelin/contracts/token/ERC20/extensions/ERC20Snapshot.sol\":5235:5253  balanceOf(account) */\n      tag_149\n        /* \"@openzeppelin/contracts/token/ERC20/extensions/ERC20Snapshot.sol\":5245:5252  account */\n      dup6\n        /* \"@openzeppelin/contracts/token/ERC20/extensions/ERC20Snapshot.sol\":5235:5244  balanceOf */\n      tag_67\n        /* \"@openzeppelin/contracts/token/ERC20/extensions/ERC20Snapshot.sol\":5235:5253  balanceOf(account) */\n      jump\t// in\n    tag_149:\n        /* \"@openzeppelin/contracts/token/ERC20/extensions/ERC20Snapshot.sol\":5213:5253  snapshotted ? value : balanceOf(account) */\n      jump(tag_150)\n    tag_148:\n        /* \"@openzeppelin/contracts/token/ERC20/extensions/ERC20Snapshot.sol\":5227:5232  value */\n      dup1\n        /* \"@openzeppelin/contracts/token/ERC20/extensions/ERC20Snapshot.sol\":5213:5253  snapshotted ? value : balanceOf(account) */\n    tag_150:\n        /* \"@openzeppelin/contracts/token/ERC20/extensions/ERC20Snapshot.sol\":5206:5253  return snapshotted ? value : balanceOf(account) */\n      swap3\n      pop\n      pop\n      pop\n        /* \"@openzeppelin/contracts/token/ERC20/extensions/ERC20Snapshot.sol\":4998:5260  function balanceOfAt(address account, uint256 snapshotId) public view virtual returns (uint256) {... */\n      swap3\n      swap2\n      pop\n      pop\n      jump\t// out\n        /* \"@openzeppelin/contracts/token/ERC20/ERC20.sol\":3408:3533  function balanceOf(address account) public view virtual override returns (uint256) {... */\n    tag_67:\n        /* \"@openzeppelin/contracts/token/ERC20/ERC20.sol\":3482:3489  uint256 */\n      0x00\n        /* \"@openzeppelin/contracts/token/ERC20/ERC20.sol\":3508:3517  _balances */\n      dup1\n        /* \"@openzeppelin/contracts/token/ERC20/ERC20.sol\":3508:3526  _balances[account] */\n      0x00\n        /* \"@openzeppelin/contracts/token/ERC20/ERC20.sol\":3518:3525  account */\n      dup4\n        /* \"@openzeppelin/contracts/token/ERC20/ERC20.sol\":3508:3526  _balances[account] */\n      0xffffffffffffffffffffffffffffffffffffffff\n      and\n      0xffffffffffffffffffffffffffffffffffffffff\n      and\n      dup2\n      mstore\n      0x20\n      add\n      swap1\n      dup2\n      mstore\n      0x20\n      add\n      0x00\n      keccak256\n      sload\n        /* \"@openzeppelin/contracts/token/ERC20/ERC20.sol\":3501:3526  return _balances[account] */\n      swap1\n      pop\n        /* \"@openzeppelin/contracts/token/ERC20/ERC20.sol\":3408:3533  function balanceOf(address account) public view virtual override returns (uint256) {... */\n      swap2\n      swap1\n      pop\n      jump\t// out\n        /* \"@openzeppelin/contracts/access/Ownable.sol\":1668:1769  function renounceOwnership() public virtual onlyOwner {... */\n    tag_70:\n        /* \"@openzeppelin/contracts/access/Ownable.sol\":1259:1271  _msgSender() */\n      tag_153\n        /* \"@openzeppelin/contracts/access/Ownable.sol\":1259:1269  _msgSender */\n      tag_115\n        /* \"@openzeppelin/contracts/access/Ownable.sol\":1259:1271  _msgSender() */\n      jump\t// in\n    tag_153:\n        /* \"@openzeppelin/contracts/access/Ownable.sol\":1248:1271  owner() == _msgSender() */\n      0xffffffffffffffffffffffffffffffffffffffff\n      and\n        /* \"@openzeppelin/contracts/access/Ownable.sol\":1248:1255  owner() */\n      tag_154\n        /* \"@openzeppelin/contracts/access/Ownable.sol\":1248:1253  owner */\n      tag_75\n        /* \"@openzeppelin/contracts/access/Ownable.sol\":1248:1255  owner() */\n      jump\t// in\n    tag_154:\n        /* \"@openzeppelin/contracts/access/Ownable.sol\":1248:1271  owner() == _msgSender() */\n      0xffffffffffffffffffffffffffffffffffffffff\n      and\n      eq\n        /* \"@openzeppelin/contracts/access/Ownable.sol\":1240:1308  require(owner() == _msgSender(), \"Ownable: caller is not the owner\") */\n      tag_155\n      jumpi\n      mload(0x40)\n      0x08c379a000000000000000000000000000000000000000000000000000000000\n      dup2\n      mstore\n      0x04\n      add\n      tag_156\n      swap1\n      tag_137\n      jump\t// in\n    tag_156:\n      mload(0x40)\n      dup1\n      swap2\n      sub\n      swap1\n      revert\n    tag_155:\n        /* \"@openzeppelin/contracts/access/Ownable.sol\":1732:1762  _transferOwnership(address(0)) */\n      tag_158\n        /* \"@openzeppelin/contracts/access/Ownable.sol\":1759:1760  0 */\n      0x00\n        /* \"@openzeppelin/contracts/access/Ownable.sol\":1732:1750  _transferOwnership */\n      tag_159\n        /* \"@openzeppelin/contracts/access/Ownable.sol\":1732:1762  _transferOwnership(address(0)) */\n      jump\t// in\n    tag_158:\n        /* \"@openzeppelin/contracts/access/Ownable.sol\":1668:1769  function renounceOwnership() public virtual onlyOwner {... */\n      jump\t// out\n        /* \"@openzeppelin/contracts/token/ERC20/extensions/ERC20Burnable.sol\":973:1134  function burnFrom(address account, uint256 amount) public virtual {... */\n    tag_73:\n        /* \"@openzeppelin/contracts/token/ERC20/extensions/ERC20Burnable.sol\":1049:1095  _spendAllowance(account, _msgSender(), amount) */\n      tag_161\n        /* \"@openzeppelin/contracts/token/ERC20/extensions/ERC20Burnable.sol\":1065:1072  account */\n      dup3\n        /* \"@openzeppelin/contracts/token/ERC20/extensions/ERC20Burnable.sol\":1074:1086  _msgSender() */\n      tag_162\n        /* \"@openzeppelin/contracts/token/ERC20/extensions/ERC20Burnable.sol\":1074:1084  _msgSender */\n      tag_115\n        /* \"@openzeppelin/contracts/token/ERC20/extensions/ERC20Burnable.sol\":1074:1086  _msgSender() */\n      jump\t// in\n    tag_162:\n        /* \"@openzeppelin/contracts/token/ERC20/extensions/ERC20Burnable.sol\":1088:1094  amount */\n      dup4\n        /* \"@openzeppelin/contracts/token/ERC20/extensions/ERC20Burnable.sol\":1049:1064  _spendAllowance */\n      tag_122\n        /* \"@openzeppelin/contracts/token/ERC20/extensions/ERC20Burnable.sol\":1049:1095  _spendAllowance(account, _msgSender(), amount) */\n      jump\t// in\n    tag_161:\n        /* \"@openzeppelin/contracts/token/ERC20/extensions/ERC20Burnable.sol\":1105:1127  _burn(account, amount) */\n      tag_163\n        /* \"@openzeppelin/contracts/token/ERC20/extensions/ERC20Burnable.sol\":1111:1118  account */\n      dup3\n        /* \"@openzeppelin/contracts/token/ERC20/extensions/ERC20Burnable.sol\":1120:1126  amount */\n      dup3\n        /* \"@openzeppelin/contracts/token/ERC20/extensions/ERC20Burnable.sol\":1105:1110  _burn */\n      tag_144\n        /* \"@openzeppelin/contracts/token/ERC20/extensions/ERC20Burnable.sol\":1105:1127  _burn(account, amount) */\n      jump\t// in\n    tag_163:\n        /* \"@openzeppelin/contracts/token/ERC20/extensions/ERC20Burnable.sol\":973:1134  function burnFrom(address account, uint256 amount) public virtual {... */\n      pop\n      pop\n      jump\t// out\n        /* \"@openzeppelin/contracts/access/Ownable.sol\":1036:1121  function owner() public view virtual returns (address) {... */\n    tag_75:\n        /* \"@openzeppelin/contracts/access/Ownable.sol\":1082:1089  address */\n      0x00\n        /* \"@openzeppelin/contracts/access/Ownable.sol\":1108:1114  _owner */\n      0x09\n      0x00\n      swap1\n      sload\n      swap1\n      0x0100\n      exp\n      swap1\n      div\n      0xffffffffffffffffffffffffffffffffffffffff\n      and\n        /* \"@openzeppelin/contracts/access/Ownable.sol\":1101:1114  return _owner */\n      swap1\n      pop\n        /* \"@openzeppelin/contracts/access/Ownable.sol\":1036:1121  function owner() public view virtual returns (address) {... */\n      swap1\n      jump\t// out\n        /* \"@openzeppelin/contracts/token/ERC20/ERC20.sol\":2367:2469  function symbol() public view virtual override returns (string memory) {... */\n    tag_79:\n        /* \"@openzeppelin/contracts/token/ERC20/ERC20.sol\":2423:2436  string memory */\n      0x60\n        /* \"@openzeppelin/contracts/token/ERC20/ERC20.sol\":2455:2462  _symbol */\n      0x04\n        /* \"@openzeppelin/contracts/token/ERC20/ERC20.sol\":2448:2462  return _symbol */\n      dup1\n      sload\n      tag_166\n      swap1\n      tag_108\n      jump\t// in\n    tag_166:\n      dup1\n      0x1f\n      add\n      0x20\n      dup1\n      swap2\n      div\n      mul\n      0x20\n      add\n      mload(0x40)\n      swap1\n      dup2\n      add\n      0x40\n      mstore\n      dup1\n      swap3\n      swap2\n      swap1\n      dup2\n      dup2\n      mstore\n      0x20\n      add\n      dup3\n      dup1\n      sload\n      tag_167\n      swap1\n      tag_108\n      jump\t// in\n    tag_167:\n      dup1\n      iszero\n      tag_168\n      jumpi\n      dup1\n      0x1f\n      lt\n      tag_169\n      jumpi\n      0x0100\n      dup1\n      dup4\n      sload\n      div\n      mul\n      dup4\n      mstore\n      swap2\n      0x20\n      add\n      swap2\n      jump(tag_168)\n    tag_169:\n      dup3\n      add\n      swap2\n      swap1\n      0x00\n      mstore\n      keccak256(0x00, 0x20)\n      swap1\n    tag_170:\n      dup2\n      sload\n      dup2\n      mstore\n      swap1\n      0x01\n      add\n      swap1\n      0x20\n      add\n      dup1\n      dup4\n      gt\n      tag_170\n      jumpi\n      dup3\n      swap1\n      sub\n      0x1f\n      and\n      dup3\n      add\n      swap2\n    tag_168:\n      pop\n      pop\n      pop\n      pop\n      pop\n      swap1\n      pop\n        /* \"@openzeppelin/contracts/token/ERC20/ERC20.sol\":2367:2469  function symbol() public view virtual override returns (string memory) {... */\n      swap1\n      jump\t// out\n        /* \"contracts/erc20.sol\":559:626  function snapshot() public onlyOwner {\r... */\n    tag_82:\n        /* \"@openzeppelin/contracts/access/Ownable.sol\":1259:1271  _msgSender() */\n      tag_172\n        /* \"@openzeppelin/contracts/access/Ownable.sol\":1259:1269  _msgSender */\n      tag_115\n        /* \"@openzeppelin/contracts/access/Ownable.sol\":1259:1271  _msgSender() */\n      jump\t// in\n    tag_172:\n        /* \"@openzeppelin/contracts/access/Ownable.sol\":1248:1271  owner() == _msgSender() */\n      0xffffffffffffffffffffffffffffffffffffffff\n      and\n        /* \"@openzeppelin/contracts/access/Ownable.sol\":1248:1255  owner() */\n      tag_173\n        /* \"@openzeppelin/contracts/access/Ownable.sol\":1248:1253  owner */\n      tag_75\n        /* \"@openzeppelin/contracts/access/Ownable.sol\":1248:1255  owner() */\n      jump\t// in\n    tag_173:\n        /* \"@openzeppelin/contracts/access/Ownable.sol\":1248:1271  owner() == _msgSender() */\n      0xffffffffffffffffffffffffffffffffffffffff\n      and\n      eq\n        /* \"@openzeppelin/contracts/access/Ownable.sol\":1240:1308  require(owner() == _msgSender(), \"Ownable: caller is not the owner\") */\n      tag_174\n      jumpi\n      mload(0x40)\n      0x08c379a000000000000000000000000000000000000000000000000000000000\n      dup2\n      mstore\n      0x04\n      add\n      tag_175\n      swap1\n      tag_137\n      jump\t// in\n    tag_175:\n      mload(0x40)\n      dup1\n      swap2\n      sub\n      swap1\n      revert\n    tag_174:\n        /* \"contracts/erc20.sol\":607:618  _snapshot() */\n      tag_177\n        /* \"contracts/erc20.sol\":607:616  _snapshot */\n      tag_178\n        /* \"contracts/erc20.sol\":607:618  _snapshot() */\n      jump\t// in\n    tag_177:\n      pop\n        /* \"contracts/erc20.sol\":559:626  function snapshot() public onlyOwner {\r... */\n      jump\t// out\n        /* \"@openzeppelin/contracts/token/ERC20/extensions/ERC20Snapshot.sol\":5359:5589  function totalSupplyAt(uint256 snapshotId) public view virtual returns (uint256) {... */\n    tag_85:\n        /* \"@openzeppelin/contracts/token/ERC20/extensions/ERC20Snapshot.sol\":5431:5438  uint256 */\n      0x00\n        /* \"@openzeppelin/contracts/token/ERC20/extensions/ERC20Snapshot.sol\":5451:5467  bool snapshotted */\n      dup1\n        /* \"@openzeppelin/contracts/token/ERC20/extensions/ERC20Snapshot.sol\":5469:5482  uint256 value */\n      0x00\n        /* \"@openzeppelin/contracts/token/ERC20/extensions/ERC20Snapshot.sol\":5486:5529  _valueAt(snapshotId, _totalSupplySnapshots) */\n      tag_180\n        /* \"@openzeppelin/contracts/token/ERC20/extensions/ERC20Snapshot.sol\":5495:5505  snapshotId */\n      dup5\n        /* \"@openzeppelin/contracts/token/ERC20/extensions/ERC20Snapshot.sol\":5507:5528  _totalSupplySnapshots */\n      0x06\n        /* \"@openzeppelin/contracts/token/ERC20/extensions/ERC20Snapshot.sol\":5486:5494  _valueAt */\n      tag_147\n        /* \"@openzeppelin/contracts/token/ERC20/extensions/ERC20Snapshot.sol\":5486:5529  _valueAt(snapshotId, _totalSupplySnapshots) */\n      jump\t// in\n    tag_180:\n        /* \"@openzeppelin/contracts/token/ERC20/extensions/ERC20Snapshot.sol\":5450:5529  (bool snapshotted, uint256 value) = _valueAt(snapshotId, _totalSupplySnapshots) */\n      swap2\n      pop\n      swap2\n      pop\n        /* \"@openzeppelin/contracts/token/ERC20/extensions/ERC20Snapshot.sol\":5547:5558  snapshotted */\n      dup2\n        /* \"@openzeppelin/contracts/token/ERC20/extensions/ERC20Snapshot.sol\":5547:5582  snapshotted ? value : totalSupply() */\n      tag_181\n      jumpi\n        /* \"@openzeppelin/contracts/token/ERC20/extensions/ERC20Snapshot.sol\":5569:5582  totalSupply() */\n      tag_182\n        /* \"@openzeppelin/contracts/token/ERC20/extensions/ERC20Snapshot.sol\":5569:5580  totalSupply */\n      tag_37\n        /* \"@openzeppelin/contracts/token/ERC20/extensions/ERC20Snapshot.sol\":5569:5582  totalSupply() */\n      jump\t// in\n    tag_182:\n        /* \"@openzeppelin/contracts/token/ERC20/extensions/ERC20Snapshot.sol\":5547:5582  snapshotted ? value : totalSupply() */\n      jump(tag_183)\n    tag_181:\n        /* \"@openzeppelin/contracts/token/ERC20/extensions/ERC20Snapshot.sol\":5561:5566  value */\n      dup1\n        /* \"@openzeppelin/contracts/token/ERC20/extensions/ERC20Snapshot.sol\":5547:5582  snapshotted ? value : totalSupply() */\n    tag_183:\n        /* \"@openzeppelin/contracts/token/ERC20/extensions/ERC20Snapshot.sol\":5540:5582  return snapshotted ? value : totalSupply() */\n      swap3\n      pop\n      pop\n      pop\n        /* \"@openzeppelin/contracts/token/ERC20/extensions/ERC20Snapshot.sol\":5359:5589  function totalSupplyAt(uint256 snapshotId) public view virtual returns (uint256) {... */\n      swap2\n      swap1\n      pop\n      jump\t// out\n        /* \"@openzeppelin/contracts/token/ERC20/ERC20.sol\":6594:7021  function decreaseAllowance(address spender, uint256 subtractedValue) public virtual returns (bool) {... */\n    tag_89:\n        /* \"@openzeppelin/contracts/token/ERC20/ERC20.sol\":6687:6691  bool */\n      0x00\n        /* \"@openzeppelin/contracts/token/ERC20/ERC20.sol\":6703:6716  address owner */\n      dup1\n        /* \"@openzeppelin/contracts/token/ERC20/ERC20.sol\":6719:6731  _msgSender() */\n      tag_185\n        /* \"@openzeppelin/contracts/token/ERC20/ERC20.sol\":6719:6729  _msgSender */\n      tag_115\n        /* \"@openzeppelin/contracts/token/ERC20/ERC20.sol\":6719:6731  _msgSender() */\n      jump\t// in\n    tag_185:\n        /* \"@openzeppelin/contracts/token/ERC20/ERC20.sol\":6703:6731  address owner = _msgSender() */\n      swap1\n      pop\n        /* \"@openzeppelin/contracts/token/ERC20/ERC20.sol\":6741:6765  uint256 currentAllowance */\n      0x00\n        /* \"@openzeppelin/contracts/token/ERC20/ERC20.sol\":6768:6793  allowance(owner, spender) */\n      tag_186\n        /* \"@openzeppelin/contracts/token/ERC20/ERC20.sol\":6778:6783  owner */\n      dup3\n        /* \"@openzeppelin/contracts/token/ERC20/ERC20.sol\":6785:6792  spender */\n      dup7\n        /* \"@openzeppelin/contracts/token/ERC20/ERC20.sol\":6768:6777  allowance */\n      tag_98\n        /* \"@openzeppelin/contracts/token/ERC20/ERC20.sol\":6768:6793  allowance(owner, spender) */\n      jump\t// in\n    tag_186:\n        /* \"@openzeppelin/contracts/token/ERC20/ERC20.sol\":6741:6793  uint256 currentAllowance = allowance(owner, spender) */\n      swap1\n      pop\n        /* \"@openzeppelin/contracts/token/ERC20/ERC20.sol\":6831:6846  subtractedValue */\n      dup4\n        /* \"@openzeppelin/contracts/token/ERC20/ERC20.sol\":6811:6827  currentAllowance */\n      dup2\n        /* \"@openzeppelin/contracts/token/ERC20/ERC20.sol\":6811:6846  currentAllowance >= subtractedValue */\n      lt\n      iszero\n        /* \"@openzeppelin/contracts/token/ERC20/ERC20.sol\":6803:6888  require(currentAllowance >= subtractedValue, \"ERC20: decreased allowance below zero\") */\n      tag_187\n      jumpi\n      mload(0x40)\n      0x08c379a000000000000000000000000000000000000000000000000000000000\n      dup2\n      mstore\n      0x04\n      add\n      tag_188\n      swap1\n      tag_189\n      jump\t// in\n    tag_188:\n      mload(0x40)\n      dup1\n      swap2\n      sub\n      swap1\n      revert\n    tag_187:\n        /* \"@openzeppelin/contracts/token/ERC20/ERC20.sol\":6922:6982  _approve(owner, spender, currentAllowance - subtractedValue) */\n      tag_190\n        /* \"@openzeppelin/contracts/token/ERC20/ERC20.sol\":6931:6936  owner */\n      dup3\n        /* \"@openzeppelin/contracts/token/ERC20/ERC20.sol\":6938:6945  spender */\n      dup7\n        /* \"@openzeppelin/contracts/token/ERC20/ERC20.sol\":6966:6981  subtractedValue */\n      dup7\n        /* \"@openzeppelin/contracts/token/ERC20/ERC20.sol\":6947:6963  currentAllowance */\n      dup5\n        /* \"@openzeppelin/contracts/token/ERC20/ERC20.sol\":6947:6981  currentAllowance - subtractedValue */\n      sub\n        /* \"@openzeppelin/contracts/token/ERC20/ERC20.sol\":6922:6930  _approve */\n      tag_117\n        /* \"@openzeppelin/contracts/token/ERC20/ERC20.sol\":6922:6982  _approve(owner, spender, currentAllowance - subtractedValue) */\n      jump\t// in\n    tag_190:\n        /* \"@openzeppelin/contracts/token/ERC20/ERC20.sol\":7010:7014  true */\n      0x01\n        /* \"@openzeppelin/contracts/token/ERC20/ERC20.sol\":7003:7014  return true */\n      swap3\n      pop\n      pop\n      pop\n        /* \"@openzeppelin/contracts/token/ERC20/ERC20.sol\":6594:7021  function decreaseAllowance(address spender, uint256 subtractedValue) public virtual returns (bool) {... */\n      swap3\n      swap2\n      pop\n      pop\n      jump\t// out\n        /* \"@openzeppelin/contracts/token/ERC20/ERC20.sol\":3729:3918  function transfer(address to, uint256 amount) public virtual override returns (bool) {... */\n    tag_93:\n        /* \"@openzeppelin/contracts/token/ERC20/ERC20.sol\":3808:3812  bool */\n      0x00\n        /* \"@openzeppelin/contracts/token/ERC20/ERC20.sol\":3824:3837  address owner */\n      dup1\n        /* \"@openzeppelin/contracts/token/ERC20/ERC20.sol\":3840:3852  _msgSender() */\n      tag_192\n        /* \"@openzeppelin/contracts/token/ERC20/ERC20.sol\":3840:3850  _msgSender */\n      tag_115\n        /* \"@openzeppelin/contracts/token/ERC20/ERC20.sol\":3840:3852  _msgSender() */\n      jump\t// in\n    tag_192:\n        /* \"@openzeppelin/contracts/token/ERC20/ERC20.sol\":3824:3852  address owner = _msgSender() */\n      swap1\n      pop\n        /* \"@openzeppelin/contracts/token/ERC20/ERC20.sol\":3862:3890  _transfer(owner, to, amount) */\n      tag_193\n        /* \"@openzeppelin/contracts/token/ERC20/ERC20.sol\":3872:3877  owner */\n      dup2\n        /* \"@openzeppelin/contracts/token/ERC20/ERC20.sol\":3879:3881  to */\n      dup6\n        /* \"@openzeppelin/contracts/token/ERC20/ERC20.sol\":3883:3889  amount */\n      dup6\n        /* \"@openzeppelin/contracts/token/ERC20/ERC20.sol\":3862:3871  _transfer */\n      tag_124\n        /* \"@openzeppelin/contracts/token/ERC20/ERC20.sol\":3862:3890  _transfer(owner, to, amount) */\n      jump\t// in\n    tag_193:\n        /* \"@openzeppelin/contracts/token/ERC20/ERC20.sol\":3907:3911  true */\n      0x01\n        /* \"@openzeppelin/contracts/token/ERC20/ERC20.sol\":3900:3911  return true */\n      swap2\n      pop\n      pop\n        /* \"@openzeppelin/contracts/token/ERC20/ERC20.sol\":3729:3918  function transfer(address to, uint256 amount) public virtual override returns (bool) {... */\n      swap3\n      swap2\n      pop\n      pop\n      jump\t// out\n        /* \"@openzeppelin/contracts/token/ERC20/ERC20.sol\":3976:4125  function allowance(address owner, address spender) public view virtual override returns (uint256) {... */\n    tag_98:\n        /* \"@openzeppelin/contracts/token/ERC20/ERC20.sol\":4065:4072  uint256 */\n      0x00\n        /* \"@openzeppelin/contracts/token/ERC20/ERC20.sol\":4091:4102  _allowances */\n      0x01\n        /* \"@openzeppelin/contracts/token/ERC20/ERC20.sol\":4091:4109  _allowances[owner] */\n      0x00\n        /* \"@openzeppelin/contracts/token/ERC20/ERC20.sol\":4103:4108  owner */\n      dup5\n        /* \"@openzeppelin/contracts/token/ERC20/ERC20.sol\":4091:4109  _allowances[owner] */\n      0xffffffffffffffffffffffffffffffffffffffff\n      and\n      0xffffffffffffffffffffffffffffffffffffffff\n      and\n      dup2\n      mstore\n      0x20\n      add\n      swap1\n      dup2\n      mstore\n      0x20\n      add\n      0x00\n      keccak256\n        /* \"@openzeppelin/contracts/token/ERC20/ERC20.sol\":4091:4118  _allowances[owner][spender] */\n      0x00\n        /* \"@openzeppelin/contracts/token/ERC20/ERC20.sol\":4110:4117  spender */\n      dup4\n        /* \"@openzeppelin/contracts/token/ERC20/ERC20.sol\":4091:4118  _allowances[owner][spender] */\n      0xffffffffffffffffffffffffffffffffffffffff\n      and\n      0xffffffffffffffffffffffffffffffffffffffff\n      and\n      dup2\n      mstore\n      0x20\n      add\n      swap1\n      dup2\n      mstore\n      0x20\n      add\n      0x00\n      keccak256\n      sload\n        /* \"@openzeppelin/contracts/token/ERC20/ERC20.sol\":4084:4118  return _allowances[owner][spender] */\n      swap1\n      pop\n        /* \"@openzeppelin/contracts/token/ERC20/ERC20.sol\":3976:4125  function allowance(address owner, address spender) public view virtual override returns (uint256) {... */\n      swap3\n      swap2\n      pop\n      pop\n      jump\t// out\n        /* \"@openzeppelin/contracts/access/Ownable.sol\":1918:2116  function transferOwnership(address newOwner) public virtual onlyOwner {... */\n    tag_102:\n        /* \"@openzeppelin/contracts/access/Ownable.sol\":1259:1271  _msgSender() */\n      tag_196\n        /* \"@openzeppelin/contracts/access/Ownable.sol\":1259:1269  _msgSender */\n      tag_115\n        /* \"@openzeppelin/contracts/access/Ownable.sol\":1259:1271  _msgSender() */\n      jump\t// in\n    tag_196:\n        /* \"@openzeppelin/contracts/access/Ownable.sol\":1248:1271  owner() == _msgSender() */\n      0xffffffffffffffffffffffffffffffffffffffff\n      and\n        /* \"@openzeppelin/contracts/access/Ownable.sol\":1248:1255  owner() */\n      tag_197\n        /* \"@openzeppelin/contracts/access/Ownable.sol\":1248:1253  owner */\n      tag_75\n        /* \"@openzeppelin/contracts/access/Ownable.sol\":1248:1255  owner() */\n      jump\t// in\n    tag_197:\n        /* \"@openzeppelin/contracts/access/Ownable.sol\":1248:1271  owner() == _msgSender() */\n      0xffffffffffffffffffffffffffffffffffffffff\n      and\n      eq\n        /* \"@openzeppelin/contracts/access/Ownable.sol\":1240:1308  require(owner() == _msgSender(), \"Ownable: caller is not the owner\") */\n      tag_198\n      jumpi\n      mload(0x40)\n      0x08c379a000000000000000000000000000000000000000000000000000000000\n      dup2\n      mstore\n      0x04\n      add\n      tag_199\n      swap1\n      tag_137\n      jump\t// in\n    tag_199:\n      mload(0x40)\n      dup1\n      swap2\n      sub\n      swap1\n      revert\n    tag_198:\n        /* \"@openzeppelin/contracts/access/Ownable.sol\":2026:2027  0 */\n      0x00\n        /* \"@openzeppelin/contracts/access/Ownable.sol\":2006:2028  newOwner != address(0) */\n      0xffffffffffffffffffffffffffffffffffffffff\n      and\n        /* \"@openzeppelin/contracts/access/Ownable.sol\":2006:2014  newOwner */\n      dup2\n        /* \"@openzeppelin/contracts/access/Ownable.sol\":2006:2028  newOwner != address(0) */\n      0xffffffffffffffffffffffffffffffffffffffff\n      and\n      eq\n      iszero\n        /* \"@openzeppelin/contracts/access/Ownable.sol\":1998:2071  require(newOwner != address(0), \"Ownable: new owner is the zero address\") */\n      tag_201\n      jumpi\n      mload(0x40)\n      0x08c379a000000000000000000000000000000000000000000000000000000000\n      dup2\n      mstore\n      0x04\n      add\n      tag_202\n      swap1\n      tag_203\n      jump\t// in\n    tag_202:\n      mload(0x40)\n      dup1\n      swap2\n      sub\n      swap1\n      revert\n    tag_201:\n        /* \"@openzeppelin/contracts/access/Ownable.sol\":2081:2109  _transferOwnership(newOwner) */\n      tag_204\n        /* \"@openzeppelin/contracts/access/Ownable.sol\":2100:2108  newOwner */\n      dup2\n        /* \"@openzeppelin/contracts/access/Ownable.sol\":2081:2099  _transferOwnership */\n      tag_159\n        /* \"@openzeppelin/contracts/access/Ownable.sol\":2081:2109  _transferOwnership(newOwner) */\n      jump\t// in\n    tag_204:\n        /* \"@openzeppelin/contracts/access/Ownable.sol\":1918:2116  function transferOwnership(address newOwner) public virtual onlyOwner {... */\n      pop\n      jump\t// out\n        /* \"@openzeppelin/contracts/token/ERC20/extensions/ERC20Snapshot.sol\":5802:6404  function _beforeTokenTransfer(... */\n    tag_103:\n        /* \"@openzeppelin/contracts/token/ERC20/extensions/ERC20Snapshot.sol\":5940:5984  super._beforeTokenTransfer(from, to, amount) */\n      tag_206\n        /* \"@openzeppelin/contracts/token/ERC20/extensions/ERC20Snapshot.sol\":5967:5971  from */\n      dup4\n        /* \"@openzeppelin/contracts/token/ERC20/extensions/ERC20Snapshot.sol\":5973:5975  to */\n      dup4\n        /* \"@openzeppelin/contracts/token/ERC20/extensions/ERC20Snapshot.sol\":5977:5983  amount */\n      dup4\n        /* \"@openzeppelin/contracts/token/ERC20/extensions/ERC20Snapshot.sol\":5940:5966  super._beforeTokenTransfer */\n      tag_104\n        /* \"@openzeppelin/contracts/token/ERC20/extensions/ERC20Snapshot.sol\":5940:5984  super._beforeTokenTransfer(from, to, amount) */\n      jump\t// in\n    tag_206:\n        /* \"@openzeppelin/contracts/token/ERC20/extensions/ERC20Snapshot.sol\":6015:6016  0 */\n      0x00\n        /* \"@openzeppelin/contracts/token/ERC20/extensions/ERC20Snapshot.sol\":5999:6017  from == address(0) */\n      0xffffffffffffffffffffffffffffffffffffffff\n      and\n        /* \"@openzeppelin/contracts/token/ERC20/extensions/ERC20Snapshot.sol\":5999:6003  from */\n      dup4\n        /* \"@openzeppelin/contracts/token/ERC20/extensions/ERC20Snapshot.sol\":5999:6017  from == address(0) */\n      0xffffffffffffffffffffffffffffffffffffffff\n      and\n      eq\n        /* \"@openzeppelin/contracts/token/ERC20/extensions/ERC20Snapshot.sol\":5995:6398  if (from == address(0)) {... */\n      iszero\n      tag_207\n      jumpi\n        /* \"@openzeppelin/contracts/token/ERC20/extensions/ERC20Snapshot.sol\":6053:6079  _updateAccountSnapshot(to) */\n      tag_208\n        /* \"@openzeppelin/contracts/token/ERC20/extensions/ERC20Snapshot.sol\":6076:6078  to */\n      dup3\n        /* \"@openzeppelin/contracts/token/ERC20/extensions/ERC20Snapshot.sol\":6053:6075  _updateAccountSnapshot */\n      tag_209\n        /* \"@openzeppelin/contracts/token/ERC20/extensions/ERC20Snapshot.sol\":6053:6079  _updateAccountSnapshot(to) */\n      jump\t// in\n    tag_208:\n        /* \"@openzeppelin/contracts/token/ERC20/extensions/ERC20Snapshot.sol\":6093:6121  _updateTotalSupplySnapshot() */\n      tag_210\n        /* \"@openzeppelin/contracts/token/ERC20/extensions/ERC20Snapshot.sol\":6093:6119  _updateTotalSupplySnapshot */\n      tag_211\n        /* \"@openzeppelin/contracts/token/ERC20/extensions/ERC20Snapshot.sol\":6093:6121  _updateTotalSupplySnapshot() */\n      jump\t// in\n    tag_210:\n        /* \"@openzeppelin/contracts/token/ERC20/extensions/ERC20Snapshot.sol\":5995:6398  if (from == address(0)) {... */\n      jump(tag_212)\n    tag_207:\n        /* \"@openzeppelin/contracts/token/ERC20/extensions/ERC20Snapshot.sol\":6156:6157  0 */\n      0x00\n        /* \"@openzeppelin/contracts/token/ERC20/extensions/ERC20Snapshot.sol\":6142:6158  to == address(0) */\n      0xffffffffffffffffffffffffffffffffffffffff\n      and\n        /* \"@openzeppelin/contracts/token/ERC20/extensions/ERC20Snapshot.sol\":6142:6144  to */\n      dup3\n        /* \"@openzeppelin/contracts/token/ERC20/extensions/ERC20Snapshot.sol\":6142:6158  to == address(0) */\n      0xffffffffffffffffffffffffffffffffffffffff\n      and\n      eq\n        /* \"@openzeppelin/contracts/token/ERC20/extensions/ERC20Snapshot.sol\":6138:6398  if (to == address(0)) {... */\n      iszero\n      tag_213\n      jumpi\n        /* \"@openzeppelin/contracts/token/ERC20/extensions/ERC20Snapshot.sol\":6194:6222  _updateAccountSnapshot(from) */\n      tag_214\n        /* \"@openzeppelin/contracts/token/ERC20/extensions/ERC20Snapshot.sol\":6217:6221  from */\n      dup4\n        /* \"@openzeppelin/contracts/token/ERC20/extensions/ERC20Snapshot.sol\":6194:6216  _updateAccountSnapshot */\n      tag_209\n        /* \"@openzeppelin/contracts/token/ERC20/extensions/ERC20Snapshot.sol\":6194:6222  _updateAccountSnapshot(from) */\n      jump\t// in\n    tag_214:\n        /* \"@openzeppelin/contracts/token/ERC20/extensions/ERC20Snapshot.sol\":6236:6264  _updateTotalSupplySnapshot() */\n      tag_215\n        /* \"@openzeppelin/contracts/token/ERC20/extensions/ERC20Snapshot.sol\":6236:6262  _updateTotalSupplySnapshot */\n      tag_211\n        /* \"@openzeppelin/contracts/token/ERC20/extensions/ERC20Snapshot.sol\":6236:6264  _updateTotalSupplySnapshot() */\n      jump\t// in\n    tag_215:\n        /* \"@openzeppelin/contracts/token/ERC20/extensions/ERC20Snapshot.sol\":6138:6398  if (to == address(0)) {... */\n      jump(tag_216)\n    tag_213:\n        /* \"@openzeppelin/contracts/token/ERC20/extensions/ERC20Snapshot.sol\":6319:6347  _updateAccountSnapshot(from) */\n      tag_217\n        /* \"@openzeppelin/contracts/token/ERC20/extensions/ERC20Snapshot.sol\":6342:6346  from */\n      dup4\n        /* \"@openzeppelin/contracts/token/ERC20/extensions/ERC20Snapshot.sol\":6319:6341  _updateAccountSnapshot */\n      tag_209\n        /* \"@openzeppelin/contracts/token/ERC20/extensions/ERC20Snapshot.sol\":6319:6347  _updateAccountSnapshot(from) */\n      jump\t// in\n    tag_217:\n        /* \"@openzeppelin/contracts/token/ERC20/extensions/ERC20Snapshot.sol\":6361:6387  _updateAccountSnapshot(to) */\n      tag_218\n        /* \"@openzeppelin/contracts/token/ERC20/extensions/ERC20Snapshot.sol\":6384:6386  to */\n      dup3\n        /* \"@openzeppelin/contracts/token/ERC20/extensions/ERC20Snapshot.sol\":6361:6383  _updateAccountSnapshot */\n      tag_209\n        /* \"@openzeppelin/contracts/token/ERC20/extensions/ERC20Snapshot.sol\":6361:6387  _updateAccountSnapshot(to) */\n      jump\t// in\n    tag_218:\n        /* \"@openzeppelin/contracts/token/ERC20/extensions/ERC20Snapshot.sol\":6138:6398  if (to == address(0)) {... */\n    tag_216:\n        /* \"@openzeppelin/contracts/token/ERC20/extensions/ERC20Snapshot.sol\":5995:6398  if (from == address(0)) {... */\n    tag_212:\n        /* \"@openzeppelin/contracts/token/ERC20/extensions/ERC20Snapshot.sol\":5802:6404  function _beforeTokenTransfer(... */\n      pop\n      pop\n      pop\n      jump\t// out\n        /* \"@openzeppelin/contracts/token/ERC20/ERC20.sol\":11795:11916  function _beforeTokenTransfer(... */\n    tag_104:\n      pop\n      pop\n      pop\n      jump\t// out\n        /* \"@openzeppelin/contracts/utils/Counters.sol\":827:939  function current(Counter storage counter) internal view returns (uint256) {... */\n    tag_105:\n        /* \"@openzeppelin/contracts/utils/Counters.sol\":892:899  uint256 */\n      0x00\n        /* \"@openzeppelin/contracts/utils/Counters.sol\":918:925  counter */\n      dup2\n        /* \"@openzeppelin/contracts/utils/Counters.sol\":918:932  counter._value */\n      0x00\n      add\n      sload\n        /* \"@openzeppelin/contracts/utils/Counters.sol\":911:932  return counter._value */\n      swap1\n      pop\n        /* \"@openzeppelin/contracts/utils/Counters.sol\":827:939  function current(Counter storage counter) internal view returns (uint256) {... */\n      swap2\n      swap1\n      pop\n      jump\t// out\n        /* \"@openzeppelin/contracts/utils/Context.sol\":640:736  function _msgSender() internal view virtual returns (address) {... */\n    tag_115:\n        /* \"@openzeppelin/contracts/utils/Context.sol\":693:700  address */\n      0x00\n        /* \"@openzeppelin/contracts/utils/Context.sol\":719:729  msg.sender */\n      caller\n        /* \"@openzeppelin/contracts/utils/Context.sol\":712:729  return msg.sender */\n      swap1\n      pop\n        /* \"@openzeppelin/contracts/utils/Context.sol\":640:736  function _msgSender() internal view virtual returns (address) {... */\n      swap1\n      jump\t// out\n        /* \"@openzeppelin/contracts/token/ERC20/ERC20.sol\":10119:10489  function _approve(... */\n    tag_117:\n        /* \"@openzeppelin/contracts/token/ERC20/ERC20.sol\":10267:10268  0 */\n      0x00\n        /* \"@openzeppelin/contracts/token/ERC20/ERC20.sol\":10250:10269  owner != address(0) */\n      0xffffffffffffffffffffffffffffffffffffffff\n      and\n        /* \"@openzeppelin/contracts/token/ERC20/ERC20.sol\":10250:10255  owner */\n      dup4\n        /* \"@openzeppelin/contracts/token/ERC20/ERC20.sol\":10250:10269  owner != address(0) */\n      0xffffffffffffffffffffffffffffffffffffffff\n      and\n      eq\n      iszero\n        /* \"@openzeppelin/contracts/token/ERC20/ERC20.sol\":10242:10310  require(owner != address(0), \"ERC20: approve from the zero address\") */\n      tag_223\n      jumpi\n      mload(0x40)\n      0x08c379a000000000000000000000000000000000000000000000000000000000\n      dup2\n      mstore\n      0x04\n      add\n      tag_224\n      swap1\n      tag_225\n      jump\t// in\n    tag_224:\n      mload(0x40)\n      dup1\n      swap2\n      sub\n      swap1\n      revert\n    tag_223:\n        /* \"@openzeppelin/contracts/token/ERC20/ERC20.sol\":10347:10348  0 */\n      0x00\n        /* \"@openzeppelin/contracts/token/ERC20/ERC20.sol\":10328:10349  spender != address(0) */\n      0xffffffffffffffffffffffffffffffffffffffff\n      and\n        /* \"@openzeppelin/contracts/token/ERC20/ERC20.sol\":10328:10335  spender */\n      dup3\n        /* \"@openzeppelin/contracts/token/ERC20/ERC20.sol\":10328:10349  spender != address(0) */\n      0xffffffffffffffffffffffffffffffffffffffff\n      and\n      eq\n      iszero\n        /* \"@openzeppelin/contracts/token/ERC20/ERC20.sol\":10320:10388  require(spender != address(0), \"ERC20: approve to the zero address\") */\n      tag_226\n      jumpi\n      mload(0x40)\n      0x08c379a000000000000000000000000000000000000000000000000000000000\n      dup2\n      mstore\n      0x04\n      add\n      tag_227\n      swap1\n      tag_228\n      jump\t// in\n    tag_227:\n      mload(0x40)\n      dup1\n      swap2\n      sub\n      swap1\n      revert\n    tag_226:\n        /* \"@openzeppelin/contracts/token/ERC20/ERC20.sol\":10429:10435  amount */\n      dup1\n        /* \"@openzeppelin/contracts/token/ERC20/ERC20.sol\":10399:10410  _allowances */\n      0x01\n        /* \"@openzeppelin/contracts/token/ERC20/ERC20.sol\":10399:10417  _allowances[owner] */\n      0x00\n        /* \"@openzeppelin/contracts/token/ERC20/ERC20.sol\":10411:10416  owner */\n      dup6\n        /* \"@openzeppelin/contracts/token/ERC20/ERC20.sol\":10399:10417  _allowances[owner] */\n      0xffffffffffffffffffffffffffffffffffffffff\n      and\n      0xffffffffffffffffffffffffffffffffffffffff\n      and\n      dup2\n      mstore\n      0x20\n      add\n      swap1\n      dup2\n      mstore\n      0x20\n      add\n      0x00\n      keccak256\n        /* \"@openzeppelin/contracts/token/ERC20/ERC20.sol\":10399:10426  _allowances[owner][spender] */\n      0x00\n        /* \"@openzeppelin/contracts/token/ERC20/ERC20.sol\":10418:10425  spender */\n      dup5\n        /* \"@openzeppelin/contracts/token/ERC20/ERC20.sol\":10399:10426  _allowances[owner][spender] */\n      0xffffffffffffffffffffffffffffffffffffffff\n      and\n      0xffffffffffffffffffffffffffffffffffffffff\n      and\n      dup2\n      mstore\n      0x20\n      add\n      swap1\n      dup2\n      mstore\n      0x20\n      add\n      0x00\n      keccak256\n        /* \"@openzeppelin/contracts/token/ERC20/ERC20.sol\":10399:10435  _allowances[owner][spender] = amount */\n      dup2\n      swap1\n      sstore\n      pop\n        /* \"@openzeppelin/contracts/token/ERC20/ERC20.sol\":10466:10473  spender */\n      dup2\n        /* \"@openzeppelin/contracts/token/ERC20/ERC20.sol\":10450:10482  Approval(owner, spender, amount) */\n      0xffffffffffffffffffffffffffffffffffffffff\n      and\n        /* \"@openzeppelin/contracts/token/ERC20/ERC20.sol\":10459:10464  owner */\n      dup4\n        /* \"@openzeppelin/contracts/token/ERC20/ERC20.sol\":10450:10482  Approval(owner, spender, amount) */\n      0xffffffffffffffffffffffffffffffffffffffff\n      and\n      0x8c5be1e5ebec7d5bd14f71427d1e84f3dd0314c0f7b2291e5b200ac8c7c3b925\n        /* \"@openzeppelin/contracts/token/ERC20/ERC20.sol\":10475:10481  amount */\n      dup4\n        /* \"@openzeppelin/contracts/token/ERC20/ERC20.sol\":10450:10482  Approval(owner, spender, amount) */\n      mload(0x40)\n      tag_229\n      swap2\n      swap1\n      tag_39\n      jump\t// in\n    tag_229:\n      mload(0x40)\n      dup1\n      swap2\n      sub\n      swap1\n      log3\n        /* \"@openzeppelin/contracts/token/ERC20/ERC20.sol\":10119:10489  function _approve(... */\n      pop\n      pop\n      pop\n      jump\t// out\n        /* \"@openzeppelin/contracts/token/ERC20/ERC20.sol\":10770:11211  function _spendAllowance(... */\n    tag_122:\n        /* \"@openzeppelin/contracts/token/ERC20/ERC20.sol\":10900:10924  uint256 currentAllowance */\n      0x00\n        /* \"@openzeppelin/contracts/token/ERC20/ERC20.sol\":10927:10952  allowance(owner, spender) */\n      tag_231\n        /* \"@openzeppelin/contracts/token/ERC20/ERC20.sol\":10937:10942  owner */\n      dup5\n        /* \"@openzeppelin/contracts/token/ERC20/ERC20.sol\":10944:10951  spender */\n      dup5\n        /* \"@openzeppelin/contracts/token/ERC20/ERC20.sol\":10927:10936  allowance */\n      tag_98\n        /* \"@openzeppelin/contracts/token/ERC20/ERC20.sol\":10927:10952  allowance(owner, spender) */\n      jump\t// in\n    tag_231:\n        /* \"@openzeppelin/contracts/token/ERC20/ERC20.sol\":10900:10952  uint256 currentAllowance = allowance(owner, spender) */\n      swap1\n      pop\n        /* \"@openzeppelin/contracts/token/ERC20/ERC20.sol\":10986:11003  type(uint256).max */\n      0xffffffffffffffffffffffffffffffffffffffffffffffffffffffffffffffff\n        /* \"@openzeppelin/contracts/token/ERC20/ERC20.sol\":10966:10982  currentAllowance */\n      dup2\n        /* \"@openzeppelin/contracts/token/ERC20/ERC20.sol\":10966:11003  currentAllowance != type(uint256).max */\n      eq\n        /* \"@openzeppelin/contracts/token/ERC20/ERC20.sol\":10962:11205  if (currentAllowance != type(uint256).max) {... */\n      tag_232\n      jumpi\n        /* \"@openzeppelin/contracts/token/ERC20/ERC20.sol\":11047:11053  amount */\n      dup2\n        /* \"@openzeppelin/contracts/token/ERC20/ERC20.sol\":11027:11043  currentAllowance */\n      dup2\n        /* \"@openzeppelin/contracts/token/ERC20/ERC20.sol\":11027:11053  currentAllowance >= amount */\n      lt\n      iszero\n        /* \"@openzeppelin/contracts/token/ERC20/ERC20.sol\":11019:11087  require(currentAllowance >= amount, \"ERC20: insufficient allowance\") */\n      tag_233\n      jumpi\n      mload(0x40)\n      0x08c379a000000000000000000000000000000000000000000000000000000000\n      dup2\n      mstore\n      0x04\n      add\n      tag_234\n      swap1\n      tag_235\n      jump\t// in\n    tag_234:\n      mload(0x40)\n      dup1\n      swap2\n      sub\n      swap1\n      revert\n    tag_233:\n        /* \"@openzeppelin/contracts/token/ERC20/ERC20.sol\":11129:11180  _approve(owner, spender, currentAllowance - amount) */\n      tag_236\n        /* \"@openzeppelin/contracts/token/ERC20/ERC20.sol\":11138:11143  owner */\n      dup5\n        /* \"@openzeppelin/contracts/token/ERC20/ERC20.sol\":11145:11152  spender */\n      dup5\n        /* \"@openzeppelin/contracts/token/ERC20/ERC20.sol\":11173:11179  amount */\n      dup5\n        /* \"@openzeppelin/contracts/token/ERC20/ERC20.sol\":11154:11170  currentAllowance */\n      dup5\n        /* \"@openzeppelin/contracts/token/ERC20/ERC20.sol\":11154:11179  currentAllowance - amount */\n      sub\n        /* \"@openzeppelin/contracts/token/ERC20/ERC20.sol\":11129:11137  _approve */\n      tag_117\n        /* \"@openzeppelin/contracts/token/ERC20/ERC20.sol\":11129:11180  _approve(owner, spender, currentAllowance - amount) */\n      jump\t// in\n    tag_236:\n        /* \"@openzeppelin/contracts/token/ERC20/ERC20.sol\":10962:11205  if (currentAllowance != type(uint256).max) {... */\n    tag_232:\n        /* \"@openzeppelin/contracts/token/ERC20/ERC20.sol\":10890:11211  {... */\n      pop\n        /* \"@openzeppelin/contracts/token/ERC20/ERC20.sol\":10770:11211  function _spendAllowance(... */\n      pop\n      pop\n      pop\n      jump\t// out\n        /* \"@openzeppelin/contracts/token/ERC20/ERC20.sol\":7484:8135  function _transfer(... */\n    tag_124:\n        /* \"@openzeppelin/contracts/token/ERC20/ERC20.sol\":7626:7627  0 */\n      0x00\n        /* \"@openzeppelin/contracts/token/ERC20/ERC20.sol\":7610:7628  from != address(0) */\n      0xffffffffffffffffffffffffffffffffffffffff\n      and\n        /* \"@openzeppelin/contracts/token/ERC20/ERC20.sol\":7610:7614  from */\n      dup4\n        /* \"@openzeppelin/contracts/token/ERC20/ERC20.sol\":7610:7628  from != address(0) */\n      0xffffffffffffffffffffffffffffffffffffffff\n      and\n      eq\n      iszero\n        /* \"@openzeppelin/contracts/token/ERC20/ERC20.sol\":7602:7670  require(from != address(0), \"ERC20: transfer from the zero address\") */\n      tag_238\n      jumpi\n      mload(0x40)\n      0x08c379a000000000000000000000000000000000000000000000000000000000\n      dup2\n      mstore\n      0x04\n      add\n      tag_239\n      swap1\n      tag_240\n      jump\t// in\n    tag_239:\n      mload(0x40)\n      dup1\n      swap2\n      sub\n      swap1\n      revert\n    tag_238:\n        /* \"@openzeppelin/contracts/token/ERC20/ERC20.sol\":7702:7703  0 */\n      0x00\n        /* \"@openzeppelin/contracts/token/ERC20/ERC20.sol\":7688:7704  to != address(0) */\n      0xffffffffffffffffffffffffffffffffffffffff\n      and\n        /* \"@openzeppelin/contracts/token/ERC20/ERC20.sol\":7688:7690  to */\n      dup3\n        /* \"@openzeppelin/contracts/token/ERC20/ERC20.sol\":7688:7704  to != address(0) */\n      0xffffffffffffffffffffffffffffffffffffffff\n      and\n      eq\n      iszero\n        /* \"@openzeppelin/contracts/token/ERC20/ERC20.sol\":7680:7744  require(to != address(0), \"ERC20: transfer to the zero address\") */\n      tag_241\n      jumpi\n      mload(0x40)\n      0x08c379a000000000000000000000000000000000000000000000000000000000\n      dup2\n      mstore\n      0x04\n      add\n      tag_242\n      swap1\n      tag_243\n      jump\t// in\n    tag_242:\n      mload(0x40)\n      dup1\n      swap2\n      sub\n      swap1\n      revert\n    tag_241:\n        /* \"@openzeppelin/contracts/token/ERC20/ERC20.sol\":7755:7793  _beforeTokenTransfer(from, to, amount) */\n      tag_244\n        /* \"@openzeppelin/contracts/token/ERC20/ERC20.sol\":7776:7780  from */\n      dup4\n        /* \"@openzeppelin/contracts/token/ERC20/ERC20.sol\":7782:7784  to */\n      dup4\n        /* \"@openzeppelin/contracts/token/ERC20/ERC20.sol\":7786:7792  amount */\n      dup4\n        /* \"@openzeppelin/contracts/token/ERC20/ERC20.sol\":7755:7775  _beforeTokenTransfer */\n      tag_245\n        /* \"@openzeppelin/contracts/token/ERC20/ERC20.sol\":7755:7793  _beforeTokenTransfer(from, to, amount) */\n      jump\t// in\n    tag_244:\n        /* \"@openzeppelin/contracts/token/ERC20/ERC20.sol\":7804:7823  uint256 fromBalance */\n      0x00\n        /* \"@openzeppelin/contracts/token/ERC20/ERC20.sol\":7826:7835  _balances */\n      dup1\n        /* \"@openzeppelin/contracts/token/ERC20/ERC20.sol\":7826:7841  _balances[from] */\n      0x00\n        /* \"@openzeppelin/contracts/token/ERC20/ERC20.sol\":7836:7840  from */\n      dup6\n        /* \"@openzeppelin/contracts/token/ERC20/ERC20.sol\":7826:7841  _balances[from] */\n      0xffffffffffffffffffffffffffffffffffffffff\n      and\n      0xffffffffffffffffffffffffffffffffffffffff\n      and\n      dup2\n      mstore\n      0x20\n      add\n      swap1\n      dup2\n      mstore\n      0x20\n      add\n      0x00\n      keccak256\n      sload\n        /* \"@openzeppelin/contracts/token/ERC20/ERC20.sol\":7804:7841  uint256 fromBalance = _balances[from] */\n      swap1\n      pop\n        /* \"@openzeppelin/contracts/token/ERC20/ERC20.sol\":7874:7880  amount */\n      dup2\n        /* \"@openzeppelin/contracts/token/ERC20/ERC20.sol\":7859:7870  fromBalance */\n      dup2\n        /* \"@openzeppelin/contracts/token/ERC20/ERC20.sol\":7859:7880  fromBalance >= amount */\n      lt\n      iszero\n        /* \"@openzeppelin/contracts/token/ERC20/ERC20.sol\":7851:7923  require(fromBalance >= amount, \"ERC20: transfer amount exceeds balance\") */\n      tag_246\n      jumpi\n      mload(0x40)\n      0x08c379a000000000000000000000000000000000000000000000000000000000\n      dup2\n      mstore\n      0x04\n      add\n      tag_247\n      swap1\n      tag_248\n      jump\t// in\n    tag_247:\n      mload(0x40)\n      dup1\n      swap2\n      sub\n      swap1\n      revert\n    tag_246:\n        /* \"@openzeppelin/contracts/token/ERC20/ERC20.sol\":7989:7995  amount */\n      dup2\n        /* \"@openzeppelin/contracts/token/ERC20/ERC20.sol\":7975:7986  fromBalance */\n      dup2\n        /* \"@openzeppelin/contracts/token/ERC20/ERC20.sol\":7975:7995  fromBalance - amount */\n      sub\n        /* \"@openzeppelin/contracts/token/ERC20/ERC20.sol\":7957:7966  _balances */\n      0x00\n        /* \"@openzeppelin/contracts/token/ERC20/ERC20.sol\":7957:7972  _balances[from] */\n      dup1\n        /* \"@openzeppelin/contracts/token/ERC20/ERC20.sol\":7967:7971  from */\n      dup7\n        /* \"@openzeppelin/contracts/token/ERC20/ERC20.sol\":7957:7972  _balances[from] */\n      0xffffffffffffffffffffffffffffffffffffffff\n      and\n      0xffffffffffffffffffffffffffffffffffffffff\n      and\n      dup2\n      mstore\n      0x20\n      add\n      swap1\n      dup2\n      mstore\n      0x20\n      add\n      0x00\n      keccak256\n        /* \"@openzeppelin/contracts/token/ERC20/ERC20.sol\":7957:7995  _balances[from] = fromBalance - amount */\n      dup2\n      swap1\n      sstore\n      pop\n        /* \"@openzeppelin/contracts/token/ERC20/ERC20.sol\":8032:8038  amount */\n      dup2\n        /* \"@openzeppelin/contracts/token/ERC20/ERC20.sol\":8015:8024  _balances */\n      0x00\n        /* \"@openzeppelin/contracts/token/ERC20/ERC20.sol\":8015:8028  _balances[to] */\n      dup1\n        /* \"@openzeppelin/contracts/token/ERC20/ERC20.sol\":8025:8027  to */\n      dup6\n        /* \"@openzeppelin/contracts/token/ERC20/ERC20.sol\":8015:8028  _balances[to] */\n      0xffffffffffffffffffffffffffffffffffffffff\n      and\n      0xffffffffffffffffffffffffffffffffffffffff\n      and\n      dup2\n      mstore\n      0x20\n      add\n      swap1\n      dup2\n      mstore\n      0x20\n      add\n      0x00\n      keccak256\n      0x00\n        /* \"@openzeppelin/contracts/token/ERC20/ERC20.sol\":8015:8038  _balances[to] += amount */\n      dup3\n      dup3\n      sload\n      tag_249\n      swap2\n      swap1\n      tag_131\n      jump\t// in\n    tag_249:\n      swap3\n      pop\n      pop\n      dup2\n      swap1\n      sstore\n      pop\n        /* \"@openzeppelin/contracts/token/ERC20/ERC20.sol\":8069:8071  to */\n      dup3\n        /* \"@openzeppelin/contracts/token/ERC20/ERC20.sol\":8054:8080  Transfer(from, to, amount) */\n      0xffffffffffffffffffffffffffffffffffffffff\n      and\n        /* \"@openzeppelin/contracts/token/ERC20/ERC20.sol\":8063:8067  from */\n      dup5\n        /* \"@openzeppelin/contracts/token/ERC20/ERC20.sol\":8054:8080  Transfer(from, to, amount) */\n      0xffffffffffffffffffffffffffffffffffffffff\n      and\n      0xddf252ad1be2c89b69c2b068fc378daa952ba7f163c4a11628f55a4df523b3ef\n        /* \"@openzeppelin/contracts/token/ERC20/ERC20.sol\":8073:8079  amount */\n      dup5\n        /* \"@openzeppelin/contracts/token/ERC20/ERC20.sol\":8054:8080  Transfer(from, to, amount) */\n      mload(0x40)\n      tag_250\n      swap2\n      swap1\n      tag_39\n      jump\t// in\n    tag_250:\n      mload(0x40)\n      dup1\n      swap2\n      sub\n      swap1\n      log3\n        /* \"@openzeppelin/contracts/token/ERC20/ERC20.sol\":8091:8128  _afterTokenTransfer(from, to, amount) */\n      tag_251\n        /* \"@openzeppelin/contracts/token/ERC20/ERC20.sol\":8111:8115  from */\n      dup5\n        /* \"@openzeppelin/contracts/token/ERC20/ERC20.sol\":8117:8119  to */\n      dup5\n        /* \"@openzeppelin/contracts/token/ERC20/ERC20.sol\":8121:8127  amount */\n      dup5\n        /* \"@openzeppelin/contracts/token/ERC20/ERC20.sol\":8091:8110  _afterTokenTransfer */\n      tag_252\n        /* \"@openzeppelin/contracts/token/ERC20/ERC20.sol\":8091:8128  _afterTokenTransfer(from, to, amount) */\n      jump\t// in\n    tag_251:\n        /* \"@openzeppelin/contracts/token/ERC20/ERC20.sol\":7592:8135  {... */\n      pop\n        /* \"@openzeppelin/contracts/token/ERC20/ERC20.sol\":7484:8135  function _transfer(... */\n      pop\n      pop\n      pop\n      jump\t// out\n        /* \"@openzeppelin/contracts/token/ERC20/ERC20.sol\":8411:8800  function _mint(address account, uint256 amount) internal virtual {... */\n    tag_140:\n        /* \"@openzeppelin/contracts/token/ERC20/ERC20.sol\":8513:8514  0 */\n      0x00\n        /* \"@openzeppelin/contracts/token/ERC20/ERC20.sol\":8494:8515  account != address(0) */\n      0xffffffffffffffffffffffffffffffffffffffff\n      and\n        /* \"@openzeppelin/contracts/token/ERC20/ERC20.sol\":8494:8501  account */\n      dup3\n        /* \"@openzeppelin/contracts/token/ERC20/ERC20.sol\":8494:8515  account != address(0) */\n      0xffffffffffffffffffffffffffffffffffffffff\n      and\n      eq\n      iszero\n        /* \"@openzeppelin/contracts/token/ERC20/ERC20.sol\":8486:8551  require(account != address(0), \"ERC20: mint to the zero address\") */\n      tag_254\n      jumpi\n      mload(0x40)\n      0x08c379a000000000000000000000000000000000000000000000000000000000\n      dup2\n      mstore\n      0x04\n      add\n      tag_255\n      swap1\n      tag_256\n      jump\t// in\n    tag_255:\n      mload(0x40)\n      dup1\n      swap2\n      sub\n      swap1\n      revert\n    tag_254:\n        /* \"@openzeppelin/contracts/token/ERC20/ERC20.sol\":8562:8611  _beforeTokenTransfer(address(0), account, amount) */\n      tag_257\n        /* \"@openzeppelin/contracts/token/ERC20/ERC20.sol\":8591:8592  0 */\n      0x00\n        /* \"@openzeppelin/contracts/token/ERC20/ERC20.sol\":8595:8602  account */\n      dup4\n        /* \"@openzeppelin/contracts/token/ERC20/ERC20.sol\":8604:8610  amount */\n      dup4\n        /* \"@openzeppelin/contracts/token/ERC20/ERC20.sol\":8562:8582  _beforeTokenTransfer */\n      tag_245\n        /* \"@openzeppelin/contracts/token/ERC20/ERC20.sol\":8562:8611  _beforeTokenTransfer(address(0), account, amount) */\n      jump\t// in\n    tag_257:\n        /* \"@openzeppelin/contracts/token/ERC20/ERC20.sol\":8638:8644  amount */\n      dup1\n        /* \"@openzeppelin/contracts/token/ERC20/ERC20.sol\":8622:8634  _totalSupply */\n      0x02\n      0x00\n        /* \"@openzeppelin/contracts/token/ERC20/ERC20.sol\":8622:8644  _totalSupply += amount */\n      dup3\n      dup3\n      sload\n      tag_258\n      swap2\n      swap1\n      tag_131\n      jump\t// in\n    tag_258:\n      swap3\n      pop\n      pop\n      dup2\n      swap1\n      sstore\n      pop\n        /* \"@openzeppelin/contracts/token/ERC20/ERC20.sol\":8676:8682  amount */\n      dup1\n        /* \"@openzeppelin/contracts/token/ERC20/ERC20.sol\":8654:8663  _balances */\n      0x00\n        /* \"@openzeppelin/contracts/token/ERC20/ERC20.sol\":8654:8672  _balances[account] */\n      dup1\n        /* \"@openzeppelin/contracts/token/ERC20/ERC20.sol\":8664:8671  account */\n      dup5\n        /* \"@openzeppelin/contracts/token/ERC20/ERC20.sol\":8654:8672  _balances[account] */\n      0xffffffffffffffffffffffffffffffffffffffff\n      and\n      0xffffffffffffffffffffffffffffffffffffffff\n      and\n      dup2\n      mstore\n      0x20\n      add\n      swap1\n      dup2\n      mstore\n      0x20\n      add\n      0x00\n      keccak256\n      0x00\n        /* \"@openzeppelin/contracts/token/ERC20/ERC20.sol\":8654:8682  _balances[account] += amount */\n      dup3\n      dup3\n      sload\n      tag_259\n      swap2\n      swap1\n      tag_131\n      jump\t// in\n    tag_259:\n      swap3\n      pop\n      pop\n      dup2\n      swap1\n      sstore\n      pop\n        /* \"@openzeppelin/contracts/token/ERC20/ERC20.sol\":8718:8725  account */\n      dup2\n        /* \"@openzeppelin/contracts/token/ERC20/ERC20.sol\":8697:8734  Transfer(address(0), account, amount) */\n      0xffffffffffffffffffffffffffffffffffffffff\n      and\n        /* \"@openzeppelin/contracts/token/ERC20/ERC20.sol\":8714:8715  0 */\n      0x00\n        /* \"@openzeppelin/contracts/token/ERC20/ERC20.sol\":8697:8734  Transfer(address(0), account, amount) */\n      0xffffffffffffffffffffffffffffffffffffffff\n      and\n      0xddf252ad1be2c89b69c2b068fc378daa952ba7f163c4a11628f55a4df523b3ef\n        /* \"@openzeppelin/contracts/token/ERC20/ERC20.sol\":8727:8733  amount */\n      dup4\n        /* \"@openzeppelin/contracts/token/ERC20/ERC20.sol\":8697:8734  Transfer(address(0), account, amount) */\n      mload(0x40)\n      tag_260\n      swap2\n      swap1\n      tag_39\n      jump\t// in\n    tag_260:\n      mload(0x40)\n      dup1\n      swap2\n      sub\n      swap1\n      log3\n        /* \"@openzeppelin/contracts/token/ERC20/ERC20.sol\":8745:8793  _afterTokenTransfer(address(0), account, amount) */\n      tag_261\n        /* \"@openzeppelin/contracts/token/ERC20/ERC20.sol\":8773:8774  0 */\n      0x00\n        /* \"@openzeppelin/contracts/token/ERC20/ERC20.sol\":8777:8784  account */\n      dup4\n        /* \"@openzeppelin/contracts/token/ERC20/ERC20.sol\":8786:8792  amount */\n      dup4\n        /* \"@openzeppelin/contracts/token/ERC20/ERC20.sol\":8745:8764  _afterTokenTransfer */\n      tag_252\n        /* \"@openzeppelin/contracts/token/ERC20/ERC20.sol\":8745:8793  _afterTokenTransfer(address(0), account, amount) */\n      jump\t// in\n    tag_261:\n        /* \"@openzeppelin/contracts/token/ERC20/ERC20.sol\":8411:8800  function _mint(address account, uint256 amount) internal virtual {... */\n      pop\n      pop\n      jump\t// out\n        /* \"@openzeppelin/contracts/token/ERC20/ERC20.sol\":9120:9696  function _burn(address account, uint256 amount) internal virtual {... */\n    tag_144:\n        /* \"@openzeppelin/contracts/token/ERC20/ERC20.sol\":9222:9223  0 */\n      0x00\n        /* \"@openzeppelin/contracts/token/ERC20/ERC20.sol\":9203:9224  account != address(0) */\n      0xffffffffffffffffffffffffffffffffffffffff\n      and\n        /* \"@openzeppelin/contracts/token/ERC20/ERC20.sol\":9203:9210  account */\n      dup3\n        /* \"@openzeppelin/contracts/token/ERC20/ERC20.sol\":9203:9224  account != address(0) */\n      0xffffffffffffffffffffffffffffffffffffffff\n      and\n      eq\n      iszero\n        /* \"@openzeppelin/contracts/token/ERC20/ERC20.sol\":9195:9262  require(account != address(0), \"ERC20: burn from the zero address\") */\n      tag_263\n      jumpi\n      mload(0x40)\n      0x08c379a000000000000000000000000000000000000000000000000000000000\n      dup2\n      mstore\n      0x04\n      add\n      tag_264\n      swap1\n      tag_265\n      jump\t// in\n    tag_264:\n      mload(0x40)\n      dup1\n      swap2\n      sub\n      swap1\n      revert\n    tag_263:\n        /* \"@openzeppelin/contracts/token/ERC20/ERC20.sol\":9273:9322  _beforeTokenTransfer(account, address(0), amount) */\n      tag_266\n        /* \"@openzeppelin/contracts/token/ERC20/ERC20.sol\":9294:9301  account */\n      dup3\n        /* \"@openzeppelin/contracts/token/ERC20/ERC20.sol\":9311:9312  0 */\n      0x00\n        /* \"@openzeppelin/contracts/token/ERC20/ERC20.sol\":9315:9321  amount */\n      dup4\n        /* \"@openzeppelin/contracts/token/ERC20/ERC20.sol\":9273:9293  _beforeTokenTransfer */\n      tag_245\n        /* \"@openzeppelin/contracts/token/ERC20/ERC20.sol\":9273:9322  _beforeTokenTransfer(account, address(0), amount) */\n      jump\t// in\n    tag_266:\n        /* \"@openzeppelin/contracts/token/ERC20/ERC20.sol\":9333:9355  uint256 accountBalance */\n      0x00\n        /* \"@openzeppelin/contracts/token/ERC20/ERC20.sol\":9358:9367  _balances */\n      dup1\n        /* \"@openzeppelin/contracts/token/ERC20/ERC20.sol\":9358:9376  _balances[account] */\n      0x00\n        /* \"@openzeppelin/contracts/token/ERC20/ERC20.sol\":9368:9375  account */\n      dup5\n        /* \"@openzeppelin/contracts/token/ERC20/ERC20.sol\":9358:9376  _balances[account] */\n      0xffffffffffffffffffffffffffffffffffffffff\n      and\n      0xffffffffffffffffffffffffffffffffffffffff\n      and\n      dup2\n      mstore\n      0x20\n      add\n      swap1\n      dup2\n      mstore\n      0x20\n      add\n      0x00\n      keccak256\n      sload\n        /* \"@openzeppelin/contracts/token/ERC20/ERC20.sol\":9333:9376  uint256 accountBalance = _balances[account] */\n      swap1\n      pop\n        /* \"@openzeppelin/contracts/token/ERC20/ERC20.sol\":9412:9418  amount */\n      dup2\n        /* \"@openzeppelin/contracts/token/ERC20/ERC20.sol\":9394:9408  accountBalance */\n      dup2\n        /* \"@openzeppelin/contracts/token/ERC20/ERC20.sol\":9394:9418  accountBalance >= amount */\n      lt\n      iszero\n        /* \"@openzeppelin/contracts/token/ERC20/ERC20.sol\":9386:9457  require(accountBalance >= amount, \"ERC20: burn amount exceeds balance\") */\n      tag_267\n      jumpi\n      mload(0x40)\n      0x08c379a000000000000000000000000000000000000000000000000000000000\n      dup2\n      mstore\n      0x04\n      add\n      tag_268\n      swap1\n      tag_269\n      jump\t// in\n    tag_268:\n      mload(0x40)\n      dup1\n      swap2\n      sub\n      swap1\n      revert\n    tag_267:\n        /* \"@openzeppelin/contracts/token/ERC20/ERC20.sol\":9529:9535  amount */\n      dup2\n        /* \"@openzeppelin/contracts/token/ERC20/ERC20.sol\":9512:9526  accountBalance */\n      dup2\n        /* \"@openzeppelin/contracts/token/ERC20/ERC20.sol\":9512:9535  accountBalance - amount */\n      sub\n        /* \"@openzeppelin/contracts/token/ERC20/ERC20.sol\":9491:9500  _balances */\n      0x00\n        /* \"@openzeppelin/contracts/token/ERC20/ERC20.sol\":9491:9509  _balances[account] */\n      dup1\n        /* \"@openzeppelin/contracts/token/ERC20/ERC20.sol\":9501:9508  account */\n      dup6\n        /* \"@openzeppelin/contracts/token/ERC20/ERC20.sol\":9491:9509  _balances[account] */\n      0xffffffffffffffffffffffffffffffffffffffff\n      and\n      0xffffffffffffffffffffffffffffffffffffffff\n      and\n      dup2\n      mstore\n      0x20\n      add\n      swap1\n      dup2\n      mstore\n      0x20\n      add\n      0x00\n      keccak256\n        /* \"@openzeppelin/contracts/token/ERC20/ERC20.sol\":9491:9535  _balances[account] = accountBalance - amount */\n      dup2\n      swap1\n      sstore\n      pop\n        /* \"@openzeppelin/contracts/token/ERC20/ERC20.sol\":9571:9577  amount */\n      dup2\n        /* \"@openzeppelin/contracts/token/ERC20/ERC20.sol\":9555:9567  _totalSupply */\n      0x02\n      0x00\n        /* \"@openzeppelin/contracts/token/ERC20/ERC20.sol\":9555:9577  _totalSupply -= amount */\n      dup3\n      dup3\n      sload\n      tag_270\n      swap2\n      swap1\n      tag_271\n      jump\t// in\n    tag_270:\n      swap3\n      pop\n      pop\n      dup2\n      swap1\n      sstore\n      pop\n        /* \"@openzeppelin/contracts/token/ERC20/ERC20.sol\":9619:9620  0 */\n      0x00\n        /* \"@openzeppelin/contracts/token/ERC20/ERC20.sol\":9593:9630  Transfer(account, address(0), amount) */\n      0xffffffffffffffffffffffffffffffffffffffff\n      and\n        /* \"@openzeppelin/contracts/token/ERC20/ERC20.sol\":9602:9609  account */\n      dup4\n        /* \"@openzeppelin/contracts/token/ERC20/ERC20.sol\":9593:9630  Transfer(account, address(0), amount) */\n      0xffffffffffffffffffffffffffffffffffffffff\n      and\n      0xddf252ad1be2c89b69c2b068fc378daa952ba7f163c4a11628f55a4df523b3ef\n        /* \"@openzeppelin/contracts/token/ERC20/ERC20.sol\":9623:9629  amount */\n      dup5\n        /* \"@openzeppelin/contracts/token/ERC20/ERC20.sol\":9593:9630  Transfer(account, address(0), amount) */\n      mload(0x40)\n      tag_272\n      swap2\n      swap1\n      tag_39\n      jump\t// in\n    tag_272:\n      mload(0x40)\n      dup1\n      swap2\n      sub\n      swap1\n      log3\n        /* \"@openzeppelin/contracts/token/ERC20/ERC20.sol\":9641:9689  _afterTokenTransfer(account, address(0), amount) */\n      tag_273\n        /* \"@openzeppelin/contracts/token/ERC20/ERC20.sol\":9661:9668  account */\n      dup4\n        /* \"@openzeppelin/contracts/token/ERC20/ERC20.sol\":9678:9679  0 */\n      0x00\n        /* \"@openzeppelin/contracts/token/ERC20/ERC20.sol\":9682:9688  amount */\n      dup5\n        /* \"@openzeppelin/contracts/token/ERC20/ERC20.sol\":9641:9660  _afterTokenTransfer */\n      tag_252\n        /* \"@openzeppelin/contracts/token/ERC20/ERC20.sol\":9641:9689  _afterTokenTransfer(account, address(0), amount) */\n      jump\t// in\n    tag_273:\n        /* \"@openzeppelin/contracts/token/ERC20/ERC20.sol\":9185:9696  {... */\n      pop\n        /* \"@openzeppelin/contracts/token/ERC20/ERC20.sol\":9120:9696  function _burn(address account, uint256 amount) internal virtual {... */\n      pop\n      pop\n      jump\t// out\n        /* \"@openzeppelin/contracts/token/ERC20/extensions/ERC20Snapshot.sol\":6410:8004  function _valueAt(uint256 snapshotId, Snapshots storage snapshots) private view returns (bool, uint256) {... */\n    tag_147:\n        /* \"@openzeppelin/contracts/token/ERC20/extensions/ERC20Snapshot.sol\":6499:6503  bool */\n      0x00\n        /* \"@openzeppelin/contracts/token/ERC20/extensions/ERC20Snapshot.sol\":6505:6512  uint256 */\n      dup1\n        /* \"@openzeppelin/contracts/token/ERC20/extensions/ERC20Snapshot.sol\":6545:6546  0 */\n      0x00\n        /* \"@openzeppelin/contracts/token/ERC20/extensions/ERC20Snapshot.sol\":6532:6542  snapshotId */\n      dup5\n        /* \"@openzeppelin/contracts/token/ERC20/extensions/ERC20Snapshot.sol\":6532:6546  snapshotId > 0 */\n      gt\n        /* \"@openzeppelin/contracts/token/ERC20/extensions/ERC20Snapshot.sol\":6524:6573  require(snapshotId > 0, \"ERC20Snapshot: id is 0\") */\n      tag_275\n      jumpi\n      mload(0x40)\n      0x08c379a000000000000000000000000000000000000000000000000000000000\n      dup2\n      mstore\n      0x04\n      add\n      tag_276\n      swap1\n      tag_277\n      jump\t// in\n    tag_276:\n      mload(0x40)\n      dup1\n      swap2\n      sub\n      swap1\n      revert\n    tag_275:\n        /* \"@openzeppelin/contracts/token/ERC20/extensions/ERC20Snapshot.sol\":6605:6628  _getCurrentSnapshotId() */\n      tag_278\n        /* \"@openzeppelin/contracts/token/ERC20/extensions/ERC20Snapshot.sol\":6605:6626  _getCurrentSnapshotId */\n      tag_279\n        /* \"@openzeppelin/contracts/token/ERC20/extensions/ERC20Snapshot.sol\":6605:6628  _getCurrentSnapshotId() */\n      jump\t// in\n    tag_278:\n        /* \"@openzeppelin/contracts/token/ERC20/extensions/ERC20Snapshot.sol\":6591:6601  snapshotId */\n      dup5\n        /* \"@openzeppelin/contracts/token/ERC20/extensions/ERC20Snapshot.sol\":6591:6628  snapshotId <= _getCurrentSnapshotId() */\n      gt\n      iszero\n        /* \"@openzeppelin/contracts/token/ERC20/extensions/ERC20Snapshot.sol\":6583:6662  require(snapshotId <= _getCurrentSnapshotId(), \"ERC20Snapshot: nonexistent id\") */\n      tag_280\n      jumpi\n      mload(0x40)\n      0x08c379a000000000000000000000000000000000000000000000000000000000\n      dup2\n      mstore\n      0x04\n      add\n      tag_281\n      swap1\n      tag_282\n      jump\t// in\n    tag_281:\n      mload(0x40)\n      dup1\n      swap2\n      sub\n      swap1\n      revert\n    tag_280:\n        /* \"@openzeppelin/contracts/token/ERC20/extensions/ERC20Snapshot.sol\":7785:7798  uint256 index */\n      0x00\n        /* \"@openzeppelin/contracts/token/ERC20/extensions/ERC20Snapshot.sol\":7801:7841  snapshots.ids.findUpperBound(snapshotId) */\n      tag_283\n        /* \"@openzeppelin/contracts/token/ERC20/extensions/ERC20Snapshot.sol\":7830:7840  snapshotId */\n      dup6\n        /* \"@openzeppelin/contracts/token/ERC20/extensions/ERC20Snapshot.sol\":7801:7810  snapshots */\n      dup6\n        /* \"@openzeppelin/contracts/token/ERC20/extensions/ERC20Snapshot.sol\":7801:7814  snapshots.ids */\n      0x00\n      add\n        /* \"@openzeppelin/contracts/token/ERC20/extensions/ERC20Snapshot.sol\":7801:7829  snapshots.ids.findUpperBound */\n      tag_284\n      swap1\n        /* \"@openzeppelin/contracts/token/ERC20/extensions/ERC20Snapshot.sol\":7801:7841  snapshots.ids.findUpperBound(snapshotId) */\n      swap2\n      swap1\n      0xffffffff\n      and\n      jump\t// in\n    tag_283:\n        /* \"@openzeppelin/contracts/token/ERC20/extensions/ERC20Snapshot.sol\":7785:7841  uint256 index = snapshots.ids.findUpperBound(snapshotId) */\n      swap1\n      pop\n        /* \"@openzeppelin/contracts/token/ERC20/extensions/ERC20Snapshot.sol\":7865:7874  snapshots */\n      dup4\n        /* \"@openzeppelin/contracts/token/ERC20/extensions/ERC20Snapshot.sol\":7865:7878  snapshots.ids */\n      0x00\n      add\n        /* \"@openzeppelin/contracts/token/ERC20/extensions/ERC20Snapshot.sol\":7865:7885  snapshots.ids.length */\n      dup1\n      sload\n      swap1\n      pop\n        /* \"@openzeppelin/contracts/token/ERC20/extensions/ERC20Snapshot.sol\":7856:7861  index */\n      dup2\n        /* \"@openzeppelin/contracts/token/ERC20/extensions/ERC20Snapshot.sol\":7856:7885  index == snapshots.ids.length */\n      eq\n        /* \"@openzeppelin/contracts/token/ERC20/extensions/ERC20Snapshot.sol\":7852:7998  if (index == snapshots.ids.length) {... */\n      iszero\n      tag_285\n      jumpi\n        /* \"@openzeppelin/contracts/token/ERC20/extensions/ERC20Snapshot.sol\":7909:7914  false */\n      0x00\n        /* \"@openzeppelin/contracts/token/ERC20/extensions/ERC20Snapshot.sol\":7916:7917  0 */\n      dup1\n        /* \"@openzeppelin/contracts/token/ERC20/extensions/ERC20Snapshot.sol\":7901:7918  return (false, 0) */\n      swap3\n      pop\n      swap3\n      pop\n      pop\n      jump(tag_274)\n        /* \"@openzeppelin/contracts/token/ERC20/extensions/ERC20Snapshot.sol\":7852:7998  if (index == snapshots.ids.length) {... */\n    tag_285:\n        /* \"@openzeppelin/contracts/token/ERC20/extensions/ERC20Snapshot.sol\":7957:7961  true */\n      0x01\n        /* \"@openzeppelin/contracts/token/ERC20/extensions/ERC20Snapshot.sol\":7963:7972  snapshots */\n      dup5\n        /* \"@openzeppelin/contracts/token/ERC20/extensions/ERC20Snapshot.sol\":7963:7979  snapshots.values */\n      0x01\n      add\n        /* \"@openzeppelin/contracts/token/ERC20/extensions/ERC20Snapshot.sol\":7980:7985  index */\n      dup3\n        /* \"@openzeppelin/contracts/token/ERC20/extensions/ERC20Snapshot.sol\":7963:7986  snapshots.values[index] */\n      dup2\n      sload\n      dup2\n      lt\n      tag_287\n      jumpi\n      tag_288\n      tag_289\n      jump\t// in\n    tag_288:\n    tag_287:\n      swap1\n      0x00\n      mstore\n      keccak256(0x00, 0x20)\n      add\n      sload\n        /* \"@openzeppelin/contracts/token/ERC20/extensions/ERC20Snapshot.sol\":7949:7987  return (true, snapshots.values[index]) */\n      swap3\n      pop\n      swap3\n      pop\n      pop\n        /* \"@openzeppelin/contracts/token/ERC20/extensions/ERC20Snapshot.sol\":6410:8004  function _valueAt(uint256 snapshotId, Snapshots storage snapshots) private view returns (bool, uint256) {... */\n    tag_274:\n      swap3\n      pop\n      swap3\n      swap1\n      pop\n      jump\t// out\n        /* \"@openzeppelin/contracts/access/Ownable.sol\":2270:2457  function _transferOwnership(address newOwner) internal virtual {... */\n    tag_159:\n        /* \"@openzeppelin/contracts/access/Ownable.sol\":2343:2359  address oldOwner */\n      0x00\n        /* \"@openzeppelin/contracts/access/Ownable.sol\":2362:2368  _owner */\n      0x09\n      0x00\n      swap1\n      sload\n      swap1\n      0x0100\n      exp\n      swap1\n      div\n      0xffffffffffffffffffffffffffffffffffffffff\n      and\n        /* \"@openzeppelin/contracts/access/Ownable.sol\":2343:2368  address oldOwner = _owner */\n      swap1\n      pop\n        /* \"@openzeppelin/contracts/access/Ownable.sol\":2387:2395  newOwner */\n      dup2\n        /* \"@openzeppelin/contracts/access/Ownable.sol\":2378:2384  _owner */\n      0x09\n      0x00\n        /* \"@openzeppelin/contracts/access/Ownable.sol\":2378:2395  _owner = newOwner */\n      0x0100\n      exp\n      dup2\n      sload\n      dup2\n      0xffffffffffffffffffffffffffffffffffffffff\n      mul\n      not\n      and\n      swap1\n      dup4\n      0xffffffffffffffffffffffffffffffffffffffff\n      and\n      mul\n      or\n      swap1\n      sstore\n      pop\n        /* \"@openzeppelin/contracts/access/Ownable.sol\":2441:2449  newOwner */\n      dup2\n        /* \"@openzeppelin/contracts/access/Ownable.sol\":2410:2450  OwnershipTransferred(oldOwner, newOwner) */\n      0xffffffffffffffffffffffffffffffffffffffff\n      and\n        /* \"@openzeppelin/contracts/access/Ownable.sol\":2431:2439  oldOwner */\n      dup2\n        /* \"@openzeppelin/contracts/access/Ownable.sol\":2410:2450  OwnershipTransferred(oldOwner, newOwner) */\n      0xffffffffffffffffffffffffffffffffffffffff\n      and\n      0x8be0079c531659141344cd1fd0a4f28419497f9722a3daafe3b4186f6b6457e0\n      mload(0x40)\n      mload(0x40)\n      dup1\n      swap2\n      sub\n      swap1\n      log3\n        /* \"@openzeppelin/contracts/access/Ownable.sol\":2333:2457  {... */\n      pop\n        /* \"@openzeppelin/contracts/access/Ownable.sol\":2270:2457  function _transferOwnership(address newOwner) internal virtual {... */\n      pop\n      jump\t// out\n        /* \"@openzeppelin/contracts/token/ERC20/extensions/ERC20Snapshot.sol\":4488:4705  function _snapshot() internal virtual returns (uint256) {... */\n    tag_178:\n        /* \"@openzeppelin/contracts/token/ERC20/extensions/ERC20Snapshot.sol\":4535:4542  uint256 */\n      0x00\n        /* \"@openzeppelin/contracts/token/ERC20/extensions/ERC20Snapshot.sol\":4554:4584  _currentSnapshotId.increment() */\n      tag_293\n        /* \"@openzeppelin/contracts/token/ERC20/extensions/ERC20Snapshot.sol\":4554:4572  _currentSnapshotId */\n      0x08\n        /* \"@openzeppelin/contracts/token/ERC20/extensions/ERC20Snapshot.sol\":4554:4582  _currentSnapshotId.increment */\n      tag_294\n        /* \"@openzeppelin/contracts/token/ERC20/extensions/ERC20Snapshot.sol\":4554:4584  _currentSnapshotId.increment() */\n      jump\t// in\n    tag_293:\n        /* \"@openzeppelin/contracts/token/ERC20/extensions/ERC20Snapshot.sol\":4595:4612  uint256 currentId */\n      0x00\n        /* \"@openzeppelin/contracts/token/ERC20/extensions/ERC20Snapshot.sol\":4615:4638  _getCurrentSnapshotId() */\n      tag_295\n        /* \"@openzeppelin/contracts/token/ERC20/extensions/ERC20Snapshot.sol\":4615:4636  _getCurrentSnapshotId */\n      tag_279\n        /* \"@openzeppelin/contracts/token/ERC20/extensions/ERC20Snapshot.sol\":4615:4638  _getCurrentSnapshotId() */\n      jump\t// in\n    tag_295:\n        /* \"@openzeppelin/contracts/token/ERC20/extensions/ERC20Snapshot.sol\":4595:4638  uint256 currentId = _getCurrentSnapshotId() */\n      swap1\n      pop\n        /* \"@openzeppelin/contracts/token/ERC20/extensions/ERC20Snapshot.sol\":4653:4672  Snapshot(currentId) */\n      0x8030e83b04d87bef53480e26263266d6ca66863aa8506aca6f2559d18aa1cb67\n        /* \"@openzeppelin/contracts/token/ERC20/extensions/ERC20Snapshot.sol\":4662:4671  currentId */\n      dup2\n        /* \"@openzeppelin/contracts/token/ERC20/extensions/ERC20Snapshot.sol\":4653:4672  Snapshot(currentId) */\n      mload(0x40)\n      tag_296\n      swap2\n      swap1\n      tag_39\n      jump\t// in\n    tag_296:\n      mload(0x40)\n      dup1\n      swap2\n      sub\n      swap1\n      log1\n        /* \"@openzeppelin/contracts/token/ERC20/extensions/ERC20Snapshot.sol\":4689:4698  currentId */\n      dup1\n        /* \"@openzeppelin/contracts/token/ERC20/extensions/ERC20Snapshot.sol\":4682:4698  return currentId */\n      swap2\n      pop\n      pop\n        /* \"@openzeppelin/contracts/token/ERC20/extensions/ERC20Snapshot.sol\":4488:4705  function _snapshot() internal virtual returns (uint256) {... */\n      swap1\n      jump\t// out\n        /* \"@openzeppelin/contracts/token/ERC20/extensions/ERC20Snapshot.sol\":8010:8154  function _updateAccountSnapshot(address account) private {... */\n    tag_209:\n        /* \"@openzeppelin/contracts/token/ERC20/extensions/ERC20Snapshot.sol\":8077:8147  _updateSnapshot(_accountBalanceSnapshots[account], balanceOf(account)) */\n      tag_298\n        /* \"@openzeppelin/contracts/token/ERC20/extensions/ERC20Snapshot.sol\":8093:8117  _accountBalanceSnapshots */\n      0x05\n        /* \"@openzeppelin/contracts/token/ERC20/extensions/ERC20Snapshot.sol\":8093:8126  _accountBalanceSnapshots[account] */\n      0x00\n        /* \"@openzeppelin/contracts/token/ERC20/extensions/ERC20Snapshot.sol\":8118:8125  account */\n      dup4\n        /* \"@openzeppelin/contracts/token/ERC20/extensions/ERC20Snapshot.sol\":8093:8126  _accountBalanceSnapshots[account] */\n      0xffffffffffffffffffffffffffffffffffffffff\n      and\n      0xffffffffffffffffffffffffffffffffffffffff\n      and\n      dup2\n      mstore\n      0x20\n      add\n      swap1\n      dup2\n      mstore\n      0x20\n      add\n      0x00\n      keccak256\n        /* \"@openzeppelin/contracts/token/ERC20/extensions/ERC20Snapshot.sol\":8128:8146  balanceOf(account) */\n      tag_299\n        /* \"@openzeppelin/contracts/token/ERC20/extensions/ERC20Snapshot.sol\":8138:8145  account */\n      dup4\n        /* \"@openzeppelin/contracts/token/ERC20/extensions/ERC20Snapshot.sol\":8128:8137  balanceOf */\n      tag_67\n        /* \"@openzeppelin/contracts/token/ERC20/extensions/ERC20Snapshot.sol\":8128:8146  balanceOf(account) */\n      jump\t// in\n    tag_299:\n        /* \"@openzeppelin/contracts/token/ERC20/extensions/ERC20Snapshot.sol\":8077:8092  _updateSnapshot */\n      tag_300\n        /* \"@openzeppelin/contracts/token/ERC20/extensions/ERC20Snapshot.sol\":8077:8147  _updateSnapshot(_accountBalanceSnapshots[account], balanceOf(account)) */\n      jump\t// in\n    tag_298:\n        /* \"@openzeppelin/contracts/token/ERC20/extensions/ERC20Snapshot.sol\":8010:8154  function _updateAccountSnapshot(address account) private {... */\n      pop\n      jump\t// out\n        /* \"@openzeppelin/contracts/token/ERC20/extensions/ERC20Snapshot.sol\":8160:8276  function _updateTotalSupplySnapshot() private {... */\n    tag_211:\n        /* \"@openzeppelin/contracts/token/ERC20/extensions/ERC20Snapshot.sol\":8216:8269  _updateSnapshot(_totalSupplySnapshots, totalSupply()) */\n      tag_302\n        /* \"@openzeppelin/contracts/token/ERC20/extensions/ERC20Snapshot.sol\":8232:8253  _totalSupplySnapshots */\n      0x06\n        /* \"@openzeppelin/contracts/token/ERC20/extensions/ERC20Snapshot.sol\":8255:8268  totalSupply() */\n      tag_303\n        /* \"@openzeppelin/contracts/token/ERC20/extensions/ERC20Snapshot.sol\":8255:8266  totalSupply */\n      tag_37\n        /* \"@openzeppelin/contracts/token/ERC20/extensions/ERC20Snapshot.sol\":8255:8268  totalSupply() */\n      jump\t// in\n    tag_303:\n        /* \"@openzeppelin/contracts/token/ERC20/extensions/ERC20Snapshot.sol\":8216:8231  _updateSnapshot */\n      tag_300\n        /* \"@openzeppelin/contracts/token/ERC20/extensions/ERC20Snapshot.sol\":8216:8269  _updateSnapshot(_totalSupplySnapshots, totalSupply()) */\n      jump\t// in\n    tag_302:\n        /* \"@openzeppelin/contracts/token/ERC20/extensions/ERC20Snapshot.sol\":8160:8276  function _updateTotalSupplySnapshot() private {... */\n      jump\t// out\n        /* \"contracts/erc20.sol\":807:1005  function _beforeTokenTransfer(address from, address to, uint256 amount)\r... */\n    tag_245:\n        /* \"contracts/erc20.sol\":953:997  super._beforeTokenTransfer(from, to, amount) */\n      tag_305\n        /* \"contracts/erc20.sol\":980:984  from */\n      dup4\n        /* \"contracts/erc20.sol\":986:988  to */\n      dup4\n        /* \"contracts/erc20.sol\":990:996  amount */\n      dup4\n        /* \"contracts/erc20.sol\":953:979  super._beforeTokenTransfer */\n      tag_103\n        /* \"contracts/erc20.sol\":953:997  super._beforeTokenTransfer(from, to, amount) */\n      jump\t// in\n    tag_305:\n        /* \"contracts/erc20.sol\":807:1005  function _beforeTokenTransfer(address from, address to, uint256 amount)\r... */\n      pop\n      pop\n      pop\n      jump\t// out\n        /* \"@openzeppelin/contracts/token/ERC20/ERC20.sol\":12504:12624  function _afterTokenTransfer(... */\n    tag_252:\n      pop\n      pop\n      pop\n      jump\t// out\n        /* \"@openzeppelin/contracts/token/ERC20/extensions/ERC20Snapshot.sol\":4766:4891  function _getCurrentSnapshotId() internal view virtual returns (uint256) {... */\n    tag_279:\n        /* \"@openzeppelin/contracts/token/ERC20/extensions/ERC20Snapshot.sol\":4830:4837  uint256 */\n      0x00\n        /* \"@openzeppelin/contracts/token/ERC20/extensions/ERC20Snapshot.sol\":4856:4884  _currentSnapshotId.current() */\n      tag_308\n        /* \"@openzeppelin/contracts/token/ERC20/extensions/ERC20Snapshot.sol\":4856:4874  _currentSnapshotId */\n      0x08\n        /* \"@openzeppelin/contracts/token/ERC20/extensions/ERC20Snapshot.sol\":4856:4882  _currentSnapshotId.current */\n      tag_105\n        /* \"@openzeppelin/contracts/token/ERC20/extensions/ERC20Snapshot.sol\":4856:4884  _currentSnapshotId.current() */\n      jump\t// in\n    tag_308:\n        /* \"@openzeppelin/contracts/token/ERC20/extensions/ERC20Snapshot.sol\":4849:4884  return _currentSnapshotId.current() */\n      swap1\n      pop\n        /* \"@openzeppelin/contracts/token/ERC20/extensions/ERC20Snapshot.sol\":4766:4891  function _getCurrentSnapshotId() internal view virtual returns (uint256) {... */\n      swap1\n      jump\t// out\n        /* \"@openzeppelin/contracts/utils/Arrays.sol\":634:1526  function findUpperBound(uint256[] storage array, uint256 element) internal view returns (uint256) {... */\n    tag_284:\n        /* \"@openzeppelin/contracts/utils/Arrays.sol\":723:730  uint256 */\n      0x00\n        /* \"@openzeppelin/contracts/utils/Arrays.sol\":762:763  0 */\n      dup1\n        /* \"@openzeppelin/contracts/utils/Arrays.sol\":746:751  array */\n      dup4\n        /* \"@openzeppelin/contracts/utils/Arrays.sol\":746:758  array.length */\n      dup1\n      sload\n      swap1\n      pop\n        /* \"@openzeppelin/contracts/utils/Arrays.sol\":746:763  array.length == 0 */\n      eq\n        /* \"@openzeppelin/contracts/utils/Arrays.sol\":742:798  if (array.length == 0) {... */\n      iszero\n      tag_310\n      jumpi\n        /* \"@openzeppelin/contracts/utils/Arrays.sol\":786:787  0 */\n      0x00\n        /* \"@openzeppelin/contracts/utils/Arrays.sol\":779:787  return 0 */\n      swap1\n      pop\n      jump(tag_309)\n        /* \"@openzeppelin/contracts/utils/Arrays.sol\":742:798  if (array.length == 0) {... */\n    tag_310:\n        /* \"@openzeppelin/contracts/utils/Arrays.sol\":808:819  uint256 low */\n      0x00\n        /* \"@openzeppelin/contracts/utils/Arrays.sol\":833:845  uint256 high */\n      dup1\n        /* \"@openzeppelin/contracts/utils/Arrays.sol\":848:853  array */\n      dup5\n        /* \"@openzeppelin/contracts/utils/Arrays.sol\":848:860  array.length */\n      dup1\n      sload\n      swap1\n      pop\n        /* \"@openzeppelin/contracts/utils/Arrays.sol\":833:860  uint256 high = array.length */\n      swap1\n      pop\n        /* \"@openzeppelin/contracts/utils/Arrays.sol\":871:1285  while (low < high) {... */\n    tag_311:\n        /* \"@openzeppelin/contracts/utils/Arrays.sol\":884:888  high */\n      dup1\n        /* \"@openzeppelin/contracts/utils/Arrays.sol\":878:881  low */\n      dup3\n        /* \"@openzeppelin/contracts/utils/Arrays.sol\":878:888  low < high */\n      lt\n        /* \"@openzeppelin/contracts/utils/Arrays.sol\":871:1285  while (low < high) {... */\n      iszero\n      tag_312\n      jumpi\n        /* \"@openzeppelin/contracts/utils/Arrays.sol\":904:915  uint256 mid */\n      0x00\n        /* \"@openzeppelin/contracts/utils/Arrays.sol\":918:941  Math.average(low, high) */\n      tag_313\n        /* \"@openzeppelin/contracts/utils/Arrays.sol\":931:934  low */\n      dup4\n        /* \"@openzeppelin/contracts/utils/Arrays.sol\":936:940  high */\n      dup4\n        /* \"@openzeppelin/contracts/utils/Arrays.sol\":918:930  Math.average */\n      tag_314\n        /* \"@openzeppelin/contracts/utils/Arrays.sol\":918:941  Math.average(low, high) */\n      jump\t// in\n    tag_313:\n        /* \"@openzeppelin/contracts/utils/Arrays.sol\":904:941  uint256 mid = Math.average(low, high) */\n      swap1\n      pop\n        /* \"@openzeppelin/contracts/utils/Arrays.sol\":1171:1178  element */\n      dup5\n        /* \"@openzeppelin/contracts/utils/Arrays.sol\":1158:1163  array */\n      dup7\n        /* \"@openzeppelin/contracts/utils/Arrays.sol\":1164:1167  mid */\n      dup3\n        /* \"@openzeppelin/contracts/utils/Arrays.sol\":1158:1168  array[mid] */\n      dup2\n      sload\n      dup2\n      lt\n      tag_315\n      jumpi\n      tag_316\n      tag_289\n      jump\t// in\n    tag_316:\n    tag_315:\n      swap1\n      0x00\n      mstore\n      keccak256(0x00, 0x20)\n      add\n      sload\n        /* \"@openzeppelin/contracts/utils/Arrays.sol\":1158:1178  array[mid] > element */\n      gt\n        /* \"@openzeppelin/contracts/utils/Arrays.sol\":1154:1275  if (array[mid] > element) {... */\n      iszero\n      tag_318\n      jumpi\n        /* \"@openzeppelin/contracts/utils/Arrays.sol\":1205:1208  mid */\n      dup1\n        /* \"@openzeppelin/contracts/utils/Arrays.sol\":1198:1208  high = mid */\n      swap2\n      pop\n        /* \"@openzeppelin/contracts/utils/Arrays.sol\":1154:1275  if (array[mid] > element) {... */\n      jump(tag_319)\n    tag_318:\n        /* \"@openzeppelin/contracts/utils/Arrays.sol\":1259:1260  1 */\n      0x01\n        /* \"@openzeppelin/contracts/utils/Arrays.sol\":1253:1256  mid */\n      dup2\n        /* \"@openzeppelin/contracts/utils/Arrays.sol\":1253:1260  mid + 1 */\n      tag_320\n      swap2\n      swap1\n      tag_131\n      jump\t// in\n    tag_320:\n        /* \"@openzeppelin/contracts/utils/Arrays.sol\":1247:1260  low = mid + 1 */\n      swap3\n      pop\n        /* \"@openzeppelin/contracts/utils/Arrays.sol\":1154:1275  if (array[mid] > element) {... */\n    tag_319:\n        /* \"@openzeppelin/contracts/utils/Arrays.sol\":890:1285  {... */\n      pop\n        /* \"@openzeppelin/contracts/utils/Arrays.sol\":871:1285  while (low < high) {... */\n      jump(tag_311)\n    tag_312:\n        /* \"@openzeppelin/contracts/utils/Arrays.sol\":1408:1409  0 */\n      0x00\n        /* \"@openzeppelin/contracts/utils/Arrays.sol\":1402:1405  low */\n      dup3\n        /* \"@openzeppelin/contracts/utils/Arrays.sol\":1402:1409  low > 0 */\n      gt\n        /* \"@openzeppelin/contracts/utils/Arrays.sol\":1402:1438  low > 0 && array[low - 1] == element */\n      dup1\n      iszero\n      tag_321\n      jumpi\n      pop\n        /* \"@openzeppelin/contracts/utils/Arrays.sol\":1431:1438  element */\n      dup4\n        /* \"@openzeppelin/contracts/utils/Arrays.sol\":1413:1418  array */\n      dup6\n        /* \"@openzeppelin/contracts/utils/Arrays.sol\":1425:1426  1 */\n      0x01\n        /* \"@openzeppelin/contracts/utils/Arrays.sol\":1419:1422  low */\n      dup5\n        /* \"@openzeppelin/contracts/utils/Arrays.sol\":1419:1426  low - 1 */\n      tag_322\n      swap2\n      swap1\n      tag_271\n      jump\t// in\n    tag_322:\n        /* \"@openzeppelin/contracts/utils/Arrays.sol\":1413:1427  array[low - 1] */\n      dup2\n      sload\n      dup2\n      lt\n      tag_323\n      jumpi\n      tag_324\n      tag_289\n      jump\t// in\n    tag_324:\n    tag_323:\n      swap1\n      0x00\n      mstore\n      keccak256(0x00, 0x20)\n      add\n      sload\n        /* \"@openzeppelin/contracts/utils/Arrays.sol\":1413:1438  array[low - 1] == element */\n      eq\n        /* \"@openzeppelin/contracts/utils/Arrays.sol\":1402:1438  low > 0 && array[low - 1] == element */\n    tag_321:\n        /* \"@openzeppelin/contracts/utils/Arrays.sol\":1398:1520  if (low > 0 && array[low - 1] == element) {... */\n      iszero\n      tag_326\n      jumpi\n        /* \"@openzeppelin/contracts/utils/Arrays.sol\":1467:1468  1 */\n      0x01\n        /* \"@openzeppelin/contracts/utils/Arrays.sol\":1461:1464  low */\n      dup3\n        /* \"@openzeppelin/contracts/utils/Arrays.sol\":1461:1468  low - 1 */\n      tag_327\n      swap2\n      swap1\n      tag_271\n      jump\t// in\n    tag_327:\n        /* \"@openzeppelin/contracts/utils/Arrays.sol\":1454:1468  return low - 1 */\n      swap3\n      pop\n      pop\n      pop\n      jump(tag_309)\n        /* \"@openzeppelin/contracts/utils/Arrays.sol\":1398:1520  if (low > 0 && array[low - 1] == element) {... */\n    tag_326:\n        /* \"@openzeppelin/contracts/utils/Arrays.sol\":1506:1509  low */\n      dup2\n        /* \"@openzeppelin/contracts/utils/Arrays.sol\":1499:1509  return low */\n      swap3\n      pop\n      pop\n      pop\n        /* \"@openzeppelin/contracts/utils/Arrays.sol\":634:1526  function findUpperBound(uint256[] storage array, uint256 element) internal view returns (uint256) {... */\n    tag_309:\n      swap3\n      swap2\n      pop\n      pop\n      jump\t// out\n        /* \"@openzeppelin/contracts/utils/Counters.sol\":945:1068  function increment(Counter storage counter) internal {... */\n    tag_294:\n        /* \"@openzeppelin/contracts/utils/Counters.sol\":1050:1051  1 */\n      0x01\n        /* \"@openzeppelin/contracts/utils/Counters.sol\":1032:1039  counter */\n      dup2\n        /* \"@openzeppelin/contracts/utils/Counters.sol\":1032:1046  counter._value */\n      0x00\n      add\n      0x00\n        /* \"@openzeppelin/contracts/utils/Counters.sol\":1032:1051  counter._value += 1 */\n      dup3\n      dup3\n      sload\n      add\n      swap3\n      pop\n      pop\n      dup2\n      swap1\n      sstore\n      pop\n        /* \"@openzeppelin/contracts/utils/Counters.sol\":945:1068  function increment(Counter storage counter) internal {... */\n      pop\n      jump\t// out\n        /* \"@openzeppelin/contracts/token/ERC20/extensions/ERC20Snapshot.sol\":8282:8586  function _updateSnapshot(Snapshots storage snapshots, uint256 currentValue) private {... */\n    tag_300:\n        /* \"@openzeppelin/contracts/token/ERC20/extensions/ERC20Snapshot.sol\":8376:8393  uint256 currentId */\n      0x00\n        /* \"@openzeppelin/contracts/token/ERC20/extensions/ERC20Snapshot.sol\":8396:8419  _getCurrentSnapshotId() */\n      tag_331\n        /* \"@openzeppelin/contracts/token/ERC20/extensions/ERC20Snapshot.sol\":8396:8417  _getCurrentSnapshotId */\n      tag_279\n        /* \"@openzeppelin/contracts/token/ERC20/extensions/ERC20Snapshot.sol\":8396:8419  _getCurrentSnapshotId() */\n      jump\t// in\n    tag_331:\n        /* \"@openzeppelin/contracts/token/ERC20/extensions/ERC20Snapshot.sol\":8376:8419  uint256 currentId = _getCurrentSnapshotId() */\n      swap1\n      pop\n        /* \"@openzeppelin/contracts/token/ERC20/extensions/ERC20Snapshot.sol\":8466:8475  currentId */\n      dup1\n        /* \"@openzeppelin/contracts/token/ERC20/extensions/ERC20Snapshot.sol\":8433:8463  _lastSnapshotId(snapshots.ids) */\n      tag_332\n        /* \"@openzeppelin/contracts/token/ERC20/extensions/ERC20Snapshot.sol\":8449:8458  snapshots */\n      dup5\n        /* \"@openzeppelin/contracts/token/ERC20/extensions/ERC20Snapshot.sol\":8449:8462  snapshots.ids */\n      0x00\n      add\n        /* \"@openzeppelin/contracts/token/ERC20/extensions/ERC20Snapshot.sol\":8433:8448  _lastSnapshotId */\n      tag_333\n        /* \"@openzeppelin/contracts/token/ERC20/extensions/ERC20Snapshot.sol\":8433:8463  _lastSnapshotId(snapshots.ids) */\n      jump\t// in\n    tag_332:\n        /* \"@openzeppelin/contracts/token/ERC20/extensions/ERC20Snapshot.sol\":8433:8475  _lastSnapshotId(snapshots.ids) < currentId */\n      lt\n        /* \"@openzeppelin/contracts/token/ERC20/extensions/ERC20Snapshot.sol\":8429:8580  if (_lastSnapshotId(snapshots.ids) < currentId) {... */\n      iszero\n      tag_334\n      jumpi\n        /* \"@openzeppelin/contracts/token/ERC20/extensions/ERC20Snapshot.sol\":8491:8500  snapshots */\n      dup3\n        /* \"@openzeppelin/contracts/token/ERC20/extensions/ERC20Snapshot.sol\":8491:8504  snapshots.ids */\n      0x00\n      add\n        /* \"@openzeppelin/contracts/token/ERC20/extensions/ERC20Snapshot.sol\":8510:8519  currentId */\n      dup2\n        /* \"@openzeppelin/contracts/token/ERC20/extensions/ERC20Snapshot.sol\":8491:8520  snapshots.ids.push(currentId) */\n      swap1\n      dup1\n      0x01\n      dup2\n      sload\n      add\n      dup1\n      dup3\n      sstore\n      dup1\n      swap2\n      pop\n      pop\n      0x01\n      swap1\n      sub\n      swap1\n      0x00\n      mstore\n      keccak256(0x00, 0x20)\n      add\n      0x00\n      swap1\n      swap2\n      swap1\n      swap2\n      swap1\n      swap2\n      pop\n      sstore\n        /* \"@openzeppelin/contracts/token/ERC20/extensions/ERC20Snapshot.sol\":8534:8543  snapshots */\n      dup3\n        /* \"@openzeppelin/contracts/token/ERC20/extensions/ERC20Snapshot.sol\":8534:8550  snapshots.values */\n      0x01\n      add\n        /* \"@openzeppelin/contracts/token/ERC20/extensions/ERC20Snapshot.sol\":8556:8568  currentValue */\n      dup3\n        /* \"@openzeppelin/contracts/token/ERC20/extensions/ERC20Snapshot.sol\":8534:8569  snapshots.values.push(currentValue) */\n      swap1\n      dup1\n      0x01\n      dup2\n      sload\n      add\n      dup1\n      dup3\n      sstore\n      dup1\n      swap2\n      pop\n      pop\n      0x01\n      swap1\n      sub\n      swap1\n      0x00\n      mstore\n      keccak256(0x00, 0x20)\n      add\n      0x00\n      swap1\n      swap2\n      swap1\n      swap2\n      swap1\n      swap2\n      pop\n      sstore\n        /* \"@openzeppelin/contracts/token/ERC20/extensions/ERC20Snapshot.sol\":8429:8580  if (_lastSnapshotId(snapshots.ids) < currentId) {... */\n    tag_334:\n        /* \"@openzeppelin/contracts/token/ERC20/extensions/ERC20Snapshot.sol\":8366:8586  {... */\n      pop\n        /* \"@openzeppelin/contracts/token/ERC20/extensions/ERC20Snapshot.sol\":8282:8586  function _updateSnapshot(Snapshots storage snapshots, uint256 currentValue) private {... */\n      pop\n      pop\n      jump\t// out\n        /* \"@openzeppelin/contracts/utils/math/Math.sol\":678:831  function average(uint256 a, uint256 b) internal pure returns (uint256) {... */\n    tag_314:\n        /* \"@openzeppelin/contracts/utils/math/Math.sol\":740:747  uint256 */\n      0x00\n        /* \"@openzeppelin/contracts/utils/math/Math.sol\":823:824  2 */\n      0x02\n        /* \"@openzeppelin/contracts/utils/math/Math.sol\":818:819  b */\n      dup3\n        /* \"@openzeppelin/contracts/utils/math/Math.sol\":814:815  a */\n      dup5\n        /* \"@openzeppelin/contracts/utils/math/Math.sol\":814:819  a ^ b */\n      xor\n        /* \"@openzeppelin/contracts/utils/math/Math.sol\":813:824  (a ^ b) / 2 */\n      tag_338\n      swap2\n      swap1\n      tag_339\n      jump\t// in\n    tag_338:\n        /* \"@openzeppelin/contracts/utils/math/Math.sol\":808:809  b */\n      dup3\n        /* \"@openzeppelin/contracts/utils/math/Math.sol\":804:805  a */\n      dup5\n        /* \"@openzeppelin/contracts/utils/math/Math.sol\":804:809  a & b */\n      and\n        /* \"@openzeppelin/contracts/utils/math/Math.sol\":803:824  (a & b) + (a ^ b) / 2 */\n      tag_340\n      swap2\n      swap1\n      tag_131\n      jump\t// in\n    tag_340:\n        /* \"@openzeppelin/contracts/utils/math/Math.sol\":796:824  return (a & b) + (a ^ b) / 2 */\n      swap1\n      pop\n        /* \"@openzeppelin/contracts/utils/math/Math.sol\":678:831  function average(uint256 a, uint256 b) internal pure returns (uint256) {... */\n      swap3\n      swap2\n      pop\n      pop\n      jump\t// out\n        /* \"@openzeppelin/contracts/token/ERC20/extensions/ERC20Snapshot.sol\":8592:8798  function _lastSnapshotId(uint256[] storage ids) private view returns (uint256) {... */\n    tag_333:\n        /* \"@openzeppelin/contracts/token/ERC20/extensions/ERC20Snapshot.sol\":8662:8669  uint256 */\n      0x00\n        /* \"@openzeppelin/contracts/token/ERC20/extensions/ERC20Snapshot.sol\":8699:8700  0 */\n      dup1\n        /* \"@openzeppelin/contracts/token/ERC20/extensions/ERC20Snapshot.sol\":8685:8688  ids */\n      dup3\n        /* \"@openzeppelin/contracts/token/ERC20/extensions/ERC20Snapshot.sol\":8685:8695  ids.length */\n      dup1\n      sload\n      swap1\n      pop\n        /* \"@openzeppelin/contracts/token/ERC20/extensions/ERC20Snapshot.sol\":8685:8700  ids.length == 0 */\n      eq\n        /* \"@openzeppelin/contracts/token/ERC20/extensions/ERC20Snapshot.sol\":8681:8792  if (ids.length == 0) {... */\n      iszero\n      tag_342\n      jumpi\n        /* \"@openzeppelin/contracts/token/ERC20/extensions/ERC20Snapshot.sol\":8723:8724  0 */\n      0x00\n        /* \"@openzeppelin/contracts/token/ERC20/extensions/ERC20Snapshot.sol\":8716:8724  return 0 */\n      swap1\n      pop\n      jump(tag_341)\n        /* \"@openzeppelin/contracts/token/ERC20/extensions/ERC20Snapshot.sol\":8681:8792  if (ids.length == 0) {... */\n    tag_342:\n        /* \"@openzeppelin/contracts/token/ERC20/extensions/ERC20Snapshot.sol\":8762:8765  ids */\n      dup2\n        /* \"@openzeppelin/contracts/token/ERC20/extensions/ERC20Snapshot.sol\":8779:8780  1 */\n      0x01\n        /* \"@openzeppelin/contracts/token/ERC20/extensions/ERC20Snapshot.sol\":8766:8769  ids */\n      dup4\n        /* \"@openzeppelin/contracts/token/ERC20/extensions/ERC20Snapshot.sol\":8766:8776  ids.length */\n      dup1\n      sload\n      swap1\n      pop\n        /* \"@openzeppelin/contracts/token/ERC20/extensions/ERC20Snapshot.sol\":8766:8780  ids.length - 1 */\n      tag_344\n      swap2\n      swap1\n      tag_271\n      jump\t// in\n    tag_344:\n        /* \"@openzeppelin/contracts/token/ERC20/extensions/ERC20Snapshot.sol\":8762:8781  ids[ids.length - 1] */\n      dup2\n      sload\n      dup2\n      lt\n      tag_345\n      jumpi\n      tag_346\n      tag_289\n      jump\t// in\n    tag_346:\n    tag_345:\n      swap1\n      0x00\n      mstore\n      keccak256(0x00, 0x20)\n      add\n      sload\n        /* \"@openzeppelin/contracts/token/ERC20/extensions/ERC20Snapshot.sol\":8755:8781  return ids[ids.length - 1] */\n      swap1\n      pop\n        /* \"@openzeppelin/contracts/token/ERC20/extensions/ERC20Snapshot.sol\":8592:8798  function _lastSnapshotId(uint256[] storage ids) private view returns (uint256) {... */\n    tag_341:\n      swap2\n      swap1\n      pop\n      jump\t// out\n        /* \"#utility.yul\":7:146   */\n    tag_349:\n        /* \"#utility.yul\":53:58   */\n      0x00\n        /* \"#utility.yul\":91:97   */\n      dup2\n        /* \"#utility.yul\":78:98   */\n      calldataload\n        /* \"#utility.yul\":69:98   */\n      swap1\n      pop\n        /* \"#utility.yul\":107:140   */\n      tag_351\n        /* \"#utility.yul\":134:139   */\n      dup2\n        /* \"#utility.yul\":107:140   */\n      tag_352\n      jump\t// in\n    tag_351:\n        /* \"#utility.yul\":7:146   */\n      swap3\n      swap2\n      pop\n      pop\n      jump\t// out\n        /* \"#utility.yul\":152:291   */\n    tag_353:\n        /* \"#utility.yul\":198:203   */\n      0x00\n        /* \"#utility.yul\":236:242   */\n      dup2\n        /* \"#utility.yul\":223:243   */\n      calldataload\n        /* \"#utility.yul\":214:243   */\n      swap1\n      pop\n        /* \"#utility.yul\":252:285   */\n      tag_355\n        /* \"#utility.yul\":279:284   */\n      dup2\n        /* \"#utility.yul\":252:285   */\n      tag_356\n      jump\t// in\n    tag_355:\n        /* \"#utility.yul\":152:291   */\n      swap3\n      swap2\n      pop\n      pop\n      jump\t// out\n        /* \"#utility.yul\":297:626   */\n    tag_66:\n        /* \"#utility.yul\":356:362   */\n      0x00\n        /* \"#utility.yul\":405:407   */\n      0x20\n        /* \"#utility.yul\":393:402   */\n      dup3\n        /* \"#utility.yul\":384:391   */\n      dup5\n        /* \"#utility.yul\":380:403   */\n      sub\n        /* \"#utility.yul\":376:408   */\n      slt\n        /* \"#utility.yul\":373:492   */\n      iszero\n      tag_358\n      jumpi\n        /* \"#utility.yul\":411:490   */\n      tag_359\n      tag_360\n      jump\t// in\n    tag_359:\n        /* \"#utility.yul\":373:492   */\n    tag_358:\n        /* \"#utility.yul\":531:532   */\n      0x00\n        /* \"#utility.yul\":556:609   */\n      tag_361\n        /* \"#utility.yul\":601:608   */\n      dup5\n        /* \"#utility.yul\":592:598   */\n      dup3\n        /* \"#utility.yul\":581:590   */\n      dup6\n        /* \"#utility.yul\":577:599   */\n      add\n        /* \"#utility.yul\":556:609   */\n      tag_349\n      jump\t// in\n    tag_361:\n        /* \"#utility.yul\":546:609   */\n      swap2\n      pop\n        /* \"#utility.yul\":502:619   */\n      pop\n        /* \"#utility.yul\":297:626   */\n      swap3\n      swap2\n      pop\n      pop\n      jump\t// out\n        /* \"#utility.yul\":632:1106   */\n    tag_97:\n        /* \"#utility.yul\":700:706   */\n      0x00\n        /* \"#utility.yul\":708:714   */\n      dup1\n        /* \"#utility.yul\":757:759   */\n      0x40\n        /* \"#utility.yul\":745:754   */\n      dup4\n        /* \"#utility.yul\":736:743   */\n      dup6\n        /* \"#utility.yul\":732:755   */\n      sub\n        /* \"#utility.yul\":728:760   */\n      slt\n        /* \"#utility.yul\":725:844   */\n      iszero\n      tag_363\n      jumpi\n        /* \"#utility.yul\":763:842   */\n      tag_364\n      tag_360\n      jump\t// in\n    tag_364:\n        /* \"#utility.yul\":725:844   */\n    tag_363:\n        /* \"#utility.yul\":883:884   */\n      0x00\n        /* \"#utility.yul\":908:961   */\n      tag_365\n        /* \"#utility.yul\":953:960   */\n      dup6\n        /* \"#utility.yul\":944:950   */\n      dup3\n        /* \"#utility.yul\":933:942   */\n      dup7\n        /* \"#utility.yul\":929:951   */\n      add\n        /* \"#utility.yul\":908:961   */\n      tag_349\n      jump\t// in\n    tag_365:\n        /* \"#utility.yul\":898:961   */\n      swap3\n      pop\n        /* \"#utility.yul\":854:971   */\n      pop\n        /* \"#utility.yul\":1010:1012   */\n      0x20\n        /* \"#utility.yul\":1036:1089   */\n      tag_366\n        /* \"#utility.yul\":1081:1088   */\n      dup6\n        /* \"#utility.yul\":1072:1078   */\n      dup3\n        /* \"#utility.yul\":1061:1070   */\n      dup7\n        /* \"#utility.yul\":1057:1079   */\n      add\n        /* \"#utility.yul\":1036:1089   */\n      tag_349\n      jump\t// in\n    tag_366:\n        /* \"#utility.yul\":1026:1089   */\n      swap2\n      pop\n        /* \"#utility.yul\":981:1099   */\n      pop\n        /* \"#utility.yul\":632:1106   */\n      swap3\n      pop\n      swap3\n      swap1\n      pop\n      jump\t// out\n        /* \"#utility.yul\":1112:1731   */\n    tag_42:\n        /* \"#utility.yul\":1189:1195   */\n      0x00\n        /* \"#utility.yul\":1197:1203   */\n      dup1\n        /* \"#utility.yul\":1205:1211   */\n      0x00\n        /* \"#utility.yul\":1254:1256   */\n      0x60\n        /* \"#utility.yul\":1242:1251   */\n      dup5\n        /* \"#utility.yul\":1233:1240   */\n      dup7\n        /* \"#utility.yul\":1229:1252   */\n      sub\n        /* \"#utility.yul\":1225:1257   */\n      slt\n        /* \"#utility.yul\":1222:1341   */\n      iszero\n      tag_368\n      jumpi\n        /* \"#utility.yul\":1260:1339   */\n      tag_369\n      tag_360\n      jump\t// in\n    tag_369:\n        /* \"#utility.yul\":1222:1341   */\n    tag_368:\n        /* \"#utility.yul\":1380:1381   */\n      0x00\n        /* \"#utility.yul\":1405:1458   */\n      tag_370\n        /* \"#utility.yul\":1450:1457   */\n      dup7\n        /* \"#utility.yul\":1441:1447   */\n      dup3\n        /* \"#utility.yul\":1430:1439   */\n      dup8\n        /* \"#utility.yul\":1426:1448   */\n      add\n        /* \"#utility.yul\":1405:1458   */\n      tag_349\n      jump\t// in\n    tag_370:\n        /* \"#utility.yul\":1395:1458   */\n      swap4\n      pop\n        /* \"#utility.yul\":1351:1468   */\n      pop\n        /* \"#utility.yul\":1507:1509   */\n      0x20\n        /* \"#utility.yul\":1533:1586   */\n      tag_371\n        /* \"#utility.yul\":1578:1585   */\n      dup7\n        /* \"#utility.yul\":1569:1575   */\n      dup3\n        /* \"#utility.yul\":1558:1567   */\n      dup8\n        /* \"#utility.yul\":1554:1576   */\n      add\n        /* \"#utility.yul\":1533:1586   */\n      tag_349\n      jump\t// in\n    tag_371:\n        /* \"#utility.yul\":1523:1586   */\n      swap3\n      pop\n        /* \"#utility.yul\":1478:1596   */\n      pop\n        /* \"#utility.yul\":1635:1637   */\n      0x40\n        /* \"#utility.yul\":1661:1714   */\n      tag_372\n        /* \"#utility.yul\":1706:1713   */\n      dup7\n        /* \"#utility.yul\":1697:1703   */\n      dup3\n        /* \"#utility.yul\":1686:1695   */\n      dup8\n        /* \"#utility.yul\":1682:1704   */\n      add\n        /* \"#utility.yul\":1661:1714   */\n      tag_353\n      jump\t// in\n    tag_372:\n        /* \"#utility.yul\":1651:1714   */\n      swap2\n      pop\n        /* \"#utility.yul\":1606:1724   */\n      pop\n        /* \"#utility.yul\":1112:1731   */\n      swap3\n      pop\n      swap3\n      pop\n      swap3\n      jump\t// out\n        /* \"#utility.yul\":1737:2211   */\n    tag_32:\n        /* \"#utility.yul\":1805:1811   */\n      0x00\n        /* \"#utility.yul\":1813:1819   */\n      dup1\n        /* \"#utility.yul\":1862:1864   */\n      0x40\n        /* \"#utility.yul\":1850:1859   */\n      dup4\n        /* \"#utility.yul\":1841:1848   */\n      dup6\n        /* \"#utility.yul\":1837:1860   */\n      sub\n        /* \"#utility.yul\":1833:1865   */\n      slt\n        /* \"#utility.yul\":1830:1949   */\n      iszero\n      tag_374\n      jumpi\n        /* \"#utility.yul\":1868:1947   */\n      tag_375\n      tag_360\n      jump\t// in\n    tag_375:\n        /* \"#utility.yul\":1830:1949   */\n    tag_374:\n        /* \"#utility.yul\":1988:1989   */\n      0x00\n        /* \"#utility.yul\":2013:2066   */\n      tag_376\n        /* \"#utility.yul\":2058:2065   */\n      dup6\n        /* \"#utility.yul\":2049:2055   */\n      dup3\n        /* \"#utility.yul\":2038:2047   */\n      dup7\n        /* \"#utility.yul\":2034:2056   */\n      add\n        /* \"#utility.yul\":2013:2066   */\n      tag_349\n      jump\t// in\n    tag_376:\n        /* \"#utility.yul\":2003:2066   */\n      swap3\n      pop\n        /* \"#utility.yul\":1959:2076   */\n      pop\n        /* \"#utility.yul\":2115:2117   */\n      0x20\n        /* \"#utility.yul\":2141:2194   */\n      tag_377\n        /* \"#utility.yul\":2186:2193   */\n      dup6\n        /* \"#utility.yul\":2177:2183   */\n      dup3\n        /* \"#utility.yul\":2166:2175   */\n      dup7\n        /* \"#utility.yul\":2162:2184   */\n      add\n        /* \"#utility.yul\":2141:2194   */\n      tag_353\n      jump\t// in\n    tag_377:\n        /* \"#utility.yul\":2131:2194   */\n      swap2\n      pop\n        /* \"#utility.yul\":2086:2204   */\n      pop\n        /* \"#utility.yul\":1737:2211   */\n      swap3\n      pop\n      swap3\n      swap1\n      pop\n      jump\t// out\n        /* \"#utility.yul\":2217:2546   */\n    tag_58:\n        /* \"#utility.yul\":2276:2282   */\n      0x00\n        /* \"#utility.yul\":2325:2327   */\n      0x20\n        /* \"#utility.yul\":2313:2322   */\n      dup3\n        /* \"#utility.yul\":2304:2311   */\n      dup5\n        /* \"#utility.yul\":2300:2323   */\n      sub\n        /* \"#utility.yul\":2296:2328   */\n      slt\n        /* \"#utility.yul\":2293:2412   */\n      iszero\n      tag_379\n      jumpi\n        /* \"#utility.yul\":2331:2410   */\n      tag_380\n      tag_360\n      jump\t// in\n    tag_380:\n        /* \"#utility.yul\":2293:2412   */\n    tag_379:\n        /* \"#utility.yul\":2451:2452   */\n      0x00\n        /* \"#utility.yul\":2476:2529   */\n      tag_381\n        /* \"#utility.yul\":2521:2528   */\n      dup5\n        /* \"#utility.yul\":2512:2518   */\n      dup3\n        /* \"#utility.yul\":2501:2510   */\n      dup6\n        /* \"#utility.yul\":2497:2519   */\n      add\n        /* \"#utility.yul\":2476:2529   */\n      tag_353\n      jump\t// in\n    tag_381:\n        /* \"#utility.yul\":2466:2529   */\n      swap2\n      pop\n        /* \"#utility.yul\":2422:2539   */\n      pop\n        /* \"#utility.yul\":2217:2546   */\n      swap3\n      swap2\n      pop\n      pop\n      jump\t// out\n        /* \"#utility.yul\":2552:2670   */\n    tag_382:\n        /* \"#utility.yul\":2639:2663   */\n      tag_384\n        /* \"#utility.yul\":2657:2662   */\n      dup2\n        /* \"#utility.yul\":2639:2663   */\n      tag_385\n      jump\t// in\n    tag_384:\n        /* \"#utility.yul\":2634:2637   */\n      dup3\n        /* \"#utility.yul\":2627:2664   */\n      mstore\n        /* \"#utility.yul\":2552:2670   */\n      pop\n      pop\n      jump\t// out\n        /* \"#utility.yul\":2676:2785   */\n    tag_386:\n        /* \"#utility.yul\":2757:2778   */\n      tag_388\n        /* \"#utility.yul\":2772:2777   */\n      dup2\n        /* \"#utility.yul\":2757:2778   */\n      tag_389\n      jump\t// in\n    tag_388:\n        /* \"#utility.yul\":2752:2755   */\n      dup3\n        /* \"#utility.yul\":2745:2779   */\n      mstore\n        /* \"#utility.yul\":2676:2785   */\n      pop\n      pop\n      jump\t// out\n        /* \"#utility.yul\":2791:3155   */\n    tag_390:\n        /* \"#utility.yul\":2879:2882   */\n      0x00\n        /* \"#utility.yul\":2907:2946   */\n      tag_392\n        /* \"#utility.yul\":2940:2945   */\n      dup3\n        /* \"#utility.yul\":2907:2946   */\n      tag_393\n      jump\t// in\n    tag_392:\n        /* \"#utility.yul\":2962:3033   */\n      tag_394\n        /* \"#utility.yul\":3026:3032   */\n      dup2\n        /* \"#utility.yul\":3021:3024   */\n      dup6\n        /* \"#utility.yul\":2962:3033   */\n      tag_395\n      jump\t// in\n    tag_394:\n        /* \"#utility.yul\":2955:3033   */\n      swap4\n      pop\n        /* \"#utility.yul\":3042:3094   */\n      tag_396\n        /* \"#utility.yul\":3087:3093   */\n      dup2\n        /* \"#utility.yul\":3082:3085   */\n      dup6\n        /* \"#utility.yul\":3075:3079   */\n      0x20\n        /* \"#utility.yul\":3068:3073   */\n      dup7\n        /* \"#utility.yul\":3064:3080   */\n      add\n        /* \"#utility.yul\":3042:3094   */\n      tag_397\n      jump\t// in\n    tag_396:\n        /* \"#utility.yul\":3119:3148   */\n      tag_398\n        /* \"#utility.yul\":3141:3147   */\n      dup2\n        /* \"#utility.yul\":3119:3148   */\n      tag_399\n      jump\t// in\n    tag_398:\n        /* \"#utility.yul\":3114:3117   */\n      dup5\n        /* \"#utility.yul\":3110:3149   */\n      add\n        /* \"#utility.yul\":3103:3149   */\n      swap2\n      pop\n        /* \"#utility.yul\":2883:3155   */\n      pop\n        /* \"#utility.yul\":2791:3155   */\n      swap3\n      swap2\n      pop\n      pop\n      jump\t// out\n        /* \"#utility.yul\":3161:3527   */\n    tag_400:\n        /* \"#utility.yul\":3303:3306   */\n      0x00\n        /* \"#utility.yul\":3324:3391   */\n      tag_402\n        /* \"#utility.yul\":3388:3390   */\n      0x1d\n        /* \"#utility.yul\":3383:3386   */\n      dup4\n        /* \"#utility.yul\":3324:3391   */\n      tag_395\n      jump\t// in\n    tag_402:\n        /* \"#utility.yul\":3317:3391   */\n      swap2\n      pop\n        /* \"#utility.yul\":3400:3493   */\n      tag_403\n        /* \"#utility.yul\":3489:3492   */\n      dup3\n        /* \"#utility.yul\":3400:3493   */\n      tag_404\n      jump\t// in\n    tag_403:\n        /* \"#utility.yul\":3518:3520   */\n      0x20\n        /* \"#utility.yul\":3513:3516   */\n      dup3\n        /* \"#utility.yul\":3509:3521   */\n      add\n        /* \"#utility.yul\":3502:3521   */\n      swap1\n      pop\n        /* \"#utility.yul\":3161:3527   */\n      swap2\n      swap1\n      pop\n      jump\t// out\n        /* \"#utility.yul\":3533:3899   */\n    tag_405:\n        /* \"#utility.yul\":3675:3678   */\n      0x00\n        /* \"#utility.yul\":3696:3763   */\n      tag_407\n        /* \"#utility.yul\":3760:3762   */\n      0x23\n        /* \"#utility.yul\":3755:3758   */\n      dup4\n        /* \"#utility.yul\":3696:3763   */\n      tag_395\n      jump\t// in\n    tag_407:\n        /* \"#utility.yul\":3689:3763   */\n      swap2\n      pop\n        /* \"#utility.yul\":3772:3865   */\n      tag_408\n        /* \"#utility.yul\":3861:3864   */\n      dup3\n        /* \"#utility.yul\":3772:3865   */\n      tag_409\n      jump\t// in\n    tag_408:\n        /* \"#utility.yul\":3890:3892   */\n      0x40\n        /* \"#utility.yul\":3885:3888   */\n      dup3\n        /* \"#utility.yul\":3881:3893   */\n      add\n        /* \"#utility.yul\":3874:3893   */\n      swap1\n      pop\n        /* \"#utility.yul\":3533:3899   */\n      swap2\n      swap1\n      pop\n      jump\t// out\n        /* \"#utility.yul\":3905:4271   */\n    tag_410:\n        /* \"#utility.yul\":4047:4050   */\n      0x00\n        /* \"#utility.yul\":4068:4135   */\n      tag_412\n        /* \"#utility.yul\":4132:4134   */\n      0x22\n        /* \"#utility.yul\":4127:4130   */\n      dup4\n        /* \"#utility.yul\":4068:4135   */\n      tag_395\n      jump\t// in\n    tag_412:\n        /* \"#utility.yul\":4061:4135   */\n      swap2\n      pop\n        /* \"#utility.yul\":4144:4237   */\n      tag_413\n        /* \"#utility.yul\":4233:4236   */\n      dup3\n        /* \"#utility.yul\":4144:4237   */\n      tag_414\n      jump\t// in\n    tag_413:\n        /* \"#utility.yul\":4262:4264   */\n      0x40\n        /* \"#utility.yul\":4257:4260   */\n      dup3\n        /* \"#utility.yul\":4253:4265   */\n      add\n        /* \"#utility.yul\":4246:4265   */\n      swap1\n      pop\n        /* \"#utility.yul\":3905:4271   */\n      swap2\n      swap1\n      pop\n      jump\t// out\n        /* \"#utility.yul\":4277:4643   */\n    tag_415:\n        /* \"#utility.yul\":4419:4422   */\n      0x00\n        /* \"#utility.yul\":4440:4507   */\n      tag_417\n        /* \"#utility.yul\":4504:4506   */\n      0x26\n        /* \"#utility.yul\":4499:4502   */\n      dup4\n        /* \"#utility.yul\":4440:4507   */\n      tag_395\n      jump\t// in\n    tag_417:\n        /* \"#utility.yul\":4433:4507   */\n      swap2\n      pop\n        /* \"#utility.yul\":4516:4609   */\n      tag_418\n        /* \"#utility.yul\":4605:4608   */\n      dup3\n        /* \"#utility.yul\":4516:4609   */\n      tag_419\n      jump\t// in\n    tag_418:\n        /* \"#utility.yul\":4634:4636   */\n      0x40\n        /* \"#utility.yul\":4629:4632   */\n      dup3\n        /* \"#utility.yul\":4625:4637   */\n      add\n        /* \"#utility.yul\":4618:4637   */\n      swap1\n      pop\n        /* \"#utility.yul\":4277:4643   */\n      swap2\n      swap1\n      pop\n      jump\t// out\n        /* \"#utility.yul\":4649:5015   */\n    tag_420:\n        /* \"#utility.yul\":4791:4794   */\n      0x00\n        /* \"#utility.yul\":4812:4879   */\n      tag_422\n        /* \"#utility.yul\":4876:4878   */\n      0x22\n        /* \"#utility.yul\":4871:4874   */\n      dup4\n        /* \"#utility.yul\":4812:4879   */\n      tag_395\n      jump\t// in\n    tag_422:\n        /* \"#utility.yul\":4805:4879   */\n      swap2\n      pop\n        /* \"#utility.yul\":4888:4981   */\n      tag_423\n        /* \"#utility.yul\":4977:4980   */\n      dup3\n        /* \"#utility.yul\":4888:4981   */\n      tag_424\n      jump\t// in\n    tag_423:\n        /* \"#utility.yul\":5006:5008   */\n      0x40\n        /* \"#utility.yul\":5001:5004   */\n      dup3\n        /* \"#utility.yul\":4997:5009   */\n      add\n        /* \"#utility.yul\":4990:5009   */\n      swap1\n      pop\n        /* \"#utility.yul\":4649:5015   */\n      swap2\n      swap1\n      pop\n      jump\t// out\n        /* \"#utility.yul\":5021:5387   */\n    tag_425:\n        /* \"#utility.yul\":5163:5166   */\n      0x00\n        /* \"#utility.yul\":5184:5251   */\n      tag_427\n        /* \"#utility.yul\":5248:5250   */\n      0x1d\n        /* \"#utility.yul\":5243:5246   */\n      dup4\n        /* \"#utility.yul\":5184:5251   */\n      tag_395\n      jump\t// in\n    tag_427:\n        /* \"#utility.yul\":5177:5251   */\n      swap2\n      pop\n        /* \"#utility.yul\":5260:5353   */\n      tag_428\n        /* \"#utility.yul\":5349:5352   */\n      dup3\n        /* \"#utility.yul\":5260:5353   */\n      tag_429\n      jump\t// in\n    tag_428:\n        /* \"#utility.yul\":5378:5380   */\n      0x20\n        /* \"#utility.yul\":5373:5376   */\n      dup3\n        /* \"#utility.yul\":5369:5381   */\n      add\n        /* \"#utility.yul\":5362:5381   */\n      swap1\n      pop\n        /* \"#utility.yul\":5021:5387   */\n      swap2\n      swap1\n      pop\n      jump\t// out\n        /* \"#utility.yul\":5393:5759   */\n    tag_430:\n        /* \"#utility.yul\":5535:5538   */\n      0x00\n        /* \"#utility.yul\":5556:5623   */\n      tag_432\n        /* \"#utility.yul\":5620:5622   */\n      0x26\n        /* \"#utility.yul\":5615:5618   */\n      dup4\n        /* \"#utility.yul\":5556:5623   */\n      tag_395\n      jump\t// in\n    tag_432:\n        /* \"#utility.yul\":5549:5623   */\n      swap2\n      pop\n        /* \"#utility.yul\":5632:5725   */\n      tag_433\n        /* \"#utility.yul\":5721:5724   */\n      dup3\n        /* \"#utility.yul\":5632:5725   */\n      tag_434\n      jump\t// in\n    tag_433:\n        /* \"#utility.yul\":5750:5752   */\n      0x40\n        /* \"#utility.yul\":5745:5748   */\n      dup3\n        /* \"#utility.yul\":5741:5753   */\n      add\n        /* \"#utility.yul\":5734:5753   */\n      swap1\n      pop\n        /* \"#utility.yul\":5393:5759   */\n      swap2\n      swap1\n      pop\n      jump\t// out\n        /* \"#utility.yul\":5765:6131   */\n    tag_435:\n        /* \"#utility.yul\":5907:5910   */\n      0x00\n        /* \"#utility.yul\":5928:5995   */\n      tag_437\n        /* \"#utility.yul\":5992:5994   */\n      0x20\n        /* \"#utility.yul\":5987:5990   */\n      dup4\n        /* \"#utility.yul\":5928:5995   */\n      tag_395\n      jump\t// in\n    tag_437:\n        /* \"#utility.yul\":5921:5995   */\n      swap2\n      pop\n        /* \"#utility.yul\":6004:6097   */\n      tag_438\n        /* \"#utility.yul\":6093:6096   */\n      dup3\n        /* \"#utility.yul\":6004:6097   */\n      tag_439\n      jump\t// in\n    tag_438:\n        /* \"#utility.yul\":6122:6124   */\n      0x20\n        /* \"#utility.yul\":6117:6120   */\n      dup3\n        /* \"#utility.yul\":6113:6125   */\n      add\n        /* \"#utility.yul\":6106:6125   */\n      swap1\n      pop\n        /* \"#utility.yul\":5765:6131   */\n      swap2\n      swap1\n      pop\n      jump\t// out\n        /* \"#utility.yul\":6137:6503   */\n    tag_440:\n        /* \"#utility.yul\":6279:6282   */\n      0x00\n        /* \"#utility.yul\":6300:6367   */\n      tag_442\n        /* \"#utility.yul\":6364:6366   */\n      0x21\n        /* \"#utility.yul\":6359:6362   */\n      dup4\n        /* \"#utility.yul\":6300:6367   */\n      tag_395\n      jump\t// in\n    tag_442:\n        /* \"#utility.yul\":6293:6367   */\n      swap2\n      pop\n        /* \"#utility.yul\":6376:6469   */\n      tag_443\n        /* \"#utility.yul\":6465:6468   */\n      dup3\n        /* \"#utility.yul\":6376:6469   */\n      tag_444\n      jump\t// in\n    tag_443:\n        /* \"#utility.yul\":6494:6496   */\n      0x40\n        /* \"#utility.yul\":6489:6492   */\n      dup3\n        /* \"#utility.yul\":6485:6497   */\n      add\n        /* \"#utility.yul\":6478:6497   */\n      swap1\n      pop\n        /* \"#utility.yul\":6137:6503   */\n      swap2\n      swap1\n      pop\n      jump\t// out\n        /* \"#utility.yul\":6509:6875   */\n    tag_445:\n        /* \"#utility.yul\":6651:6654   */\n      0x00\n        /* \"#utility.yul\":6672:6739   */\n      tag_447\n        /* \"#utility.yul\":6736:6738   */\n      0x25\n        /* \"#utility.yul\":6731:6734   */\n      dup4\n        /* \"#utility.yul\":6672:6739   */\n      tag_395\n      jump\t// in\n    tag_447:\n        /* \"#utility.yul\":6665:6739   */\n      swap2\n      pop\n        /* \"#utility.yul\":6748:6841   */\n      tag_448\n        /* \"#utility.yul\":6837:6840   */\n      dup3\n        /* \"#utility.yul\":6748:6841   */\n      tag_449\n      jump\t// in\n    tag_448:\n        /* \"#utility.yul\":6866:6868   */\n      0x40\n        /* \"#utility.yul\":6861:6864   */\n      dup3\n        /* \"#utility.yul\":6857:6869   */\n      add\n        /* \"#utility.yul\":6850:6869   */\n      swap1\n      pop\n        /* \"#utility.yul\":6509:6875   */\n      swap2\n      swap1\n      pop\n      jump\t// out\n        /* \"#utility.yul\":6881:7247   */\n    tag_450:\n        /* \"#utility.yul\":7023:7026   */\n      0x00\n        /* \"#utility.yul\":7044:7111   */\n      tag_452\n        /* \"#utility.yul\":7108:7110   */\n      0x24\n        /* \"#utility.yul\":7103:7106   */\n      dup4\n        /* \"#utility.yul\":7044:7111   */\n      tag_395\n      jump\t// in\n    tag_452:\n        /* \"#utility.yul\":7037:7111   */\n      swap2\n      pop\n        /* \"#utility.yul\":7120:7213   */\n      tag_453\n        /* \"#utility.yul\":7209:7212   */\n      dup3\n        /* \"#utility.yul\":7120:7213   */\n      tag_454\n      jump\t// in\n    tag_453:\n        /* \"#utility.yul\":7238:7240   */\n      0x40\n        /* \"#utility.yul\":7233:7236   */\n      dup3\n        /* \"#utility.yul\":7229:7241   */\n      add\n        /* \"#utility.yul\":7222:7241   */\n      swap1\n      pop\n        /* \"#utility.yul\":6881:7247   */\n      swap2\n      swap1\n      pop\n      jump\t// out\n        /* \"#utility.yul\":7253:7619   */\n    tag_455:\n        /* \"#utility.yul\":7395:7398   */\n      0x00\n        /* \"#utility.yul\":7416:7483   */\n      tag_457\n        /* \"#utility.yul\":7480:7482   */\n      0x16\n        /* \"#utility.yul\":7475:7478   */\n      dup4\n        /* \"#utility.yul\":7416:7483   */\n      tag_395\n      jump\t// in\n    tag_457:\n        /* \"#utility.yul\":7409:7483   */\n      swap2\n      pop\n        /* \"#utility.yul\":7492:7585   */\n      tag_458\n        /* \"#utility.yul\":7581:7584   */\n      dup3\n        /* \"#utility.yul\":7492:7585   */\n      tag_459\n      jump\t// in\n    tag_458:\n        /* \"#utility.yul\":7610:7612   */\n      0x20\n        /* \"#utility.yul\":7605:7608   */\n      dup3\n        /* \"#utility.yul\":7601:7613   */\n      add\n        /* \"#utility.yul\":7594:7613   */\n      swap1\n      pop\n        /* \"#utility.yul\":7253:7619   */\n      swap2\n      swap1\n      pop\n      jump\t// out\n        /* \"#utility.yul\":7625:7991   */\n    tag_460:\n        /* \"#utility.yul\":7767:7770   */\n      0x00\n        /* \"#utility.yul\":7788:7855   */\n      tag_462\n        /* \"#utility.yul\":7852:7854   */\n      0x25\n        /* \"#utility.yul\":7847:7850   */\n      dup4\n        /* \"#utility.yul\":7788:7855   */\n      tag_395\n      jump\t// in\n    tag_462:\n        /* \"#utility.yul\":7781:7855   */\n      swap2\n      pop\n        /* \"#utility.yul\":7864:7957   */\n      tag_463\n        /* \"#utility.yul\":7953:7956   */\n      dup3\n        /* \"#utility.yul\":7864:7957   */\n      tag_464\n      jump\t// in\n    tag_463:\n        /* \"#utility.yul\":7982:7984   */\n      0x40\n        /* \"#utility.yul\":7977:7980   */\n      dup3\n        /* \"#utility.yul\":7973:7985   */\n      add\n        /* \"#utility.yul\":7966:7985   */\n      swap1\n      pop\n        /* \"#utility.yul\":7625:7991   */\n      swap2\n      swap1\n      pop\n      jump\t// out\n        /* \"#utility.yul\":7997:8363   */\n    tag_465:\n        /* \"#utility.yul\":8139:8142   */\n      0x00\n        /* \"#utility.yul\":8160:8227   */\n      tag_467\n        /* \"#utility.yul\":8224:8226   */\n      0x1f\n        /* \"#utility.yul\":8219:8222   */\n      dup4\n        /* \"#utility.yul\":8160:8227   */\n      tag_395\n      jump\t// in\n    tag_467:\n        /* \"#utility.yul\":8153:8227   */\n      swap2\n      pop\n        /* \"#utility.yul\":8236:8329   */\n      tag_468\n        /* \"#utility.yul\":8325:8328   */\n      dup3\n        /* \"#utility.yul\":8236:8329   */\n      tag_469\n      jump\t// in\n    tag_468:\n        /* \"#utility.yul\":8354:8356   */\n      0x20\n        /* \"#utility.yul\":8349:8352   */\n      dup3\n        /* \"#utility.yul\":8345:8357   */\n      add\n        /* \"#utility.yul\":8338:8357   */\n      swap1\n      pop\n        /* \"#utility.yul\":7997:8363   */\n      swap2\n      swap1\n      pop\n      jump\t// out\n        /* \"#utility.yul\":8369:8487   */\n    tag_470:\n        /* \"#utility.yul\":8456:8480   */\n      tag_472\n        /* \"#utility.yul\":8474:8479   */\n      dup2\n        /* \"#utility.yul\":8456:8480   */\n      tag_473\n      jump\t// in\n    tag_472:\n        /* \"#utility.yul\":8451:8454   */\n      dup3\n        /* \"#utility.yul\":8444:8481   */\n      mstore\n        /* \"#utility.yul\":8369:8487   */\n      pop\n      pop\n      jump\t// out\n        /* \"#utility.yul\":8493:8605   */\n    tag_474:\n        /* \"#utility.yul\":8576:8598   */\n      tag_476\n        /* \"#utility.yul\":8592:8597   */\n      dup2\n        /* \"#utility.yul\":8576:8598   */\n      tag_477\n      jump\t// in\n    tag_476:\n        /* \"#utility.yul\":8571:8574   */\n      dup3\n        /* \"#utility.yul\":8564:8599   */\n      mstore\n        /* \"#utility.yul\":8493:8605   */\n      pop\n      pop\n      jump\t// out\n        /* \"#utility.yul\":8611:8833   */\n    tag_77:\n        /* \"#utility.yul\":8704:8708   */\n      0x00\n        /* \"#utility.yul\":8742:8744   */\n      0x20\n        /* \"#utility.yul\":8731:8740   */\n      dup3\n        /* \"#utility.yul\":8727:8745   */\n      add\n        /* \"#utility.yul\":8719:8745   */\n      swap1\n      pop\n        /* \"#utility.yul\":8755:8826   */\n      tag_479\n        /* \"#utility.yul\":8823:8824   */\n      0x00\n        /* \"#utility.yul\":8812:8821   */\n      dup4\n        /* \"#utility.yul\":8808:8825   */\n      add\n        /* \"#utility.yul\":8799:8805   */\n      dup5\n        /* \"#utility.yul\":8755:8826   */\n      tag_382\n      jump\t// in\n    tag_479:\n        /* \"#utility.yul\":8611:8833   */\n      swap3\n      swap2\n      pop\n      pop\n      jump\t// out\n        /* \"#utility.yul\":8839:9049   */\n    tag_35:\n        /* \"#utility.yul\":8926:8930   */\n      0x00\n        /* \"#utility.yul\":8964:8966   */\n      0x20\n        /* \"#utility.yul\":8953:8962   */\n      dup3\n        /* \"#utility.yul\":8949:8967   */\n      add\n        /* \"#utility.yul\":8941:8967   */\n      swap1\n      pop\n        /* \"#utility.yul\":8977:9042   */\n      tag_481\n        /* \"#utility.yul\":9039:9040   */\n      0x00\n        /* \"#utility.yul\":9028:9037   */\n      dup4\n        /* \"#utility.yul\":9024:9041   */\n      add\n        /* \"#utility.yul\":9015:9021   */\n      dup5\n        /* \"#utility.yul\":8977:9042   */\n      tag_386\n      jump\t// in\n    tag_481:\n        /* \"#utility.yul\":8839:9049   */\n      swap3\n      swap2\n      pop\n      pop\n      jump\t// out\n        /* \"#utility.yul\":9055:9368   */\n    tag_29:\n        /* \"#utility.yul\":9168:9172   */\n      0x00\n        /* \"#utility.yul\":9206:9208   */\n      0x20\n        /* \"#utility.yul\":9195:9204   */\n      dup3\n        /* \"#utility.yul\":9191:9209   */\n      add\n        /* \"#utility.yul\":9183:9209   */\n      swap1\n      pop\n        /* \"#utility.yul\":9255:9264   */\n      dup2\n        /* \"#utility.yul\":9249:9253   */\n      dup2\n        /* \"#utility.yul\":9245:9265   */\n      sub\n        /* \"#utility.yul\":9241:9242   */\n      0x00\n        /* \"#utility.yul\":9230:9239   */\n      dup4\n        /* \"#utility.yul\":9226:9243   */\n      add\n        /* \"#utility.yul\":9219:9266   */\n      mstore\n        /* \"#utility.yul\":9283:9361   */\n      tag_483\n        /* \"#utility.yul\":9356:9360   */\n      dup2\n        /* \"#utility.yul\":9347:9353   */\n      dup5\n        /* \"#utility.yul\":9283:9361   */\n      tag_390\n      jump\t// in\n    tag_483:\n        /* \"#utility.yul\":9275:9361   */\n      swap1\n      pop\n        /* \"#utility.yul\":9055:9368   */\n      swap3\n      swap2\n      pop\n      pop\n      jump\t// out\n        /* \"#utility.yul\":9374:9793   */\n    tag_282:\n        /* \"#utility.yul\":9540:9544   */\n      0x00\n        /* \"#utility.yul\":9578:9580   */\n      0x20\n        /* \"#utility.yul\":9567:9576   */\n      dup3\n        /* \"#utility.yul\":9563:9581   */\n      add\n        /* \"#utility.yul\":9555:9581   */\n      swap1\n      pop\n        /* \"#utility.yul\":9627:9636   */\n      dup2\n        /* \"#utility.yul\":9621:9625   */\n      dup2\n        /* \"#utility.yul\":9617:9637   */\n      sub\n        /* \"#utility.yul\":9613:9614   */\n      0x00\n        /* \"#utility.yul\":9602:9611   */\n      dup4\n        /* \"#utility.yul\":9598:9615   */\n      add\n        /* \"#utility.yul\":9591:9638   */\n      mstore\n        /* \"#utility.yul\":9655:9786   */\n      tag_485\n        /* \"#utility.yul\":9781:9785   */\n      dup2\n        /* \"#utility.yul\":9655:9786   */\n      tag_400\n      jump\t// in\n    tag_485:\n        /* \"#utility.yul\":9647:9786   */\n      swap1\n      pop\n        /* \"#utility.yul\":9374:9793   */\n      swap2\n      swap1\n      pop\n      jump\t// out\n        /* \"#utility.yul\":9799:10218   */\n    tag_243:\n        /* \"#utility.yul\":9965:9969   */\n      0x00\n        /* \"#utility.yul\":10003:10005   */\n      0x20\n        /* \"#utility.yul\":9992:10001   */\n      dup3\n        /* \"#utility.yul\":9988:10006   */\n      add\n        /* \"#utility.yul\":9980:10006   */\n      swap1\n      pop\n        /* \"#utility.yul\":10052:10061   */\n      dup2\n        /* \"#utility.yul\":10046:10050   */\n      dup2\n        /* \"#utility.yul\":10042:10062   */\n      sub\n        /* \"#utility.yul\":10038:10039   */\n      0x00\n        /* \"#utility.yul\":10027:10036   */\n      dup4\n        /* \"#utility.yul\":10023:10040   */\n      add\n        /* \"#utility.yul\":10016:10063   */\n      mstore\n        /* \"#utility.yul\":10080:10211   */\n      tag_487\n        /* \"#utility.yul\":10206:10210   */\n      dup2\n        /* \"#utility.yul\":10080:10211   */\n      tag_405\n      jump\t// in\n    tag_487:\n        /* \"#utility.yul\":10072:10211   */\n      swap1\n      pop\n        /* \"#utility.yul\":9799:10218   */\n      swap2\n      swap1\n      pop\n      jump\t// out\n        /* \"#utility.yul\":10224:10643   */\n    tag_269:\n        /* \"#utility.yul\":10390:10394   */\n      0x00\n        /* \"#utility.yul\":10428:10430   */\n      0x20\n        /* \"#utility.yul\":10417:10426   */\n      dup3\n        /* \"#utility.yul\":10413:10431   */\n      add\n        /* \"#utility.yul\":10405:10431   */\n      swap1\n      pop\n        /* \"#utility.yul\":10477:10486   */\n      dup2\n        /* \"#utility.yul\":10471:10475   */\n      dup2\n        /* \"#utility.yul\":10467:10487   */\n      sub\n        /* \"#utility.yul\":10463:10464   */\n      0x00\n        /* \"#utility.yul\":10452:10461   */\n      dup4\n        /* \"#utility.yul\":10448:10465   */\n      add\n        /* \"#utility.yul\":10441:10488   */\n      mstore\n        /* \"#utility.yul\":10505:10636   */\n      tag_489\n        /* \"#utility.yul\":10631:10635   */\n      dup2\n        /* \"#utility.yul\":10505:10636   */\n      tag_410\n      jump\t// in\n    tag_489:\n        /* \"#utility.yul\":10497:10636   */\n      swap1\n      pop\n        /* \"#utility.yul\":10224:10643   */\n      swap2\n      swap1\n      pop\n      jump\t// out\n        /* \"#utility.yul\":10649:11068   */\n    tag_203:\n        /* \"#utility.yul\":10815:10819   */\n      0x00\n        /* \"#utility.yul\":10853:10855   */\n      0x20\n        /* \"#utility.yul\":10842:10851   */\n      dup3\n        /* \"#utility.yul\":10838:10856   */\n      add\n        /* \"#utility.yul\":10830:10856   */\n      swap1\n      pop\n        /* \"#utility.yul\":10902:10911   */\n      dup2\n        /* \"#utility.yul\":10896:10900   */\n      dup2\n        /* \"#utility.yul\":10892:10912   */\n      sub\n        /* \"#utility.yul\":10888:10889   */\n      0x00\n        /* \"#utility.yul\":10877:10886   */\n      dup4\n        /* \"#utility.yul\":10873:10890   */\n      add\n        /* \"#utility.yul\":10866:10913   */\n      mstore\n        /* \"#utility.yul\":10930:11061   */\n      tag_491\n        /* \"#utility.yul\":11056:11060   */\n      dup2\n        /* \"#utility.yul\":10930:11061   */\n      tag_415\n      jump\t// in\n    tag_491:\n        /* \"#utility.yul\":10922:11061   */\n      swap1\n      pop\n        /* \"#utility.yul\":10649:11068   */\n      swap2\n      swap1\n      pop\n      jump\t// out\n        /* \"#utility.yul\":11074:11493   */\n    tag_228:\n        /* \"#utility.yul\":11240:11244   */\n      0x00\n        /* \"#utility.yul\":11278:11280   */\n      0x20\n        /* \"#utility.yul\":11267:11276   */\n      dup3\n        /* \"#utility.yul\":11263:11281   */\n      add\n        /* \"#utility.yul\":11255:11281   */\n      swap1\n      pop\n        /* \"#utility.yul\":11327:11336   */\n      dup2\n        /* \"#utility.yul\":11321:11325   */\n      dup2\n        /* \"#utility.yul\":11317:11337   */\n      sub\n        /* \"#utility.yul\":11313:11314   */\n      0x00\n        /* \"#utility.yul\":11302:11311   */\n      dup4\n        /* \"#utility.yul\":11298:11315   */\n      add\n        /* \"#utility.yul\":11291:11338   */\n      mstore\n        /* \"#utility.yul\":11355:11486   */\n      tag_493\n        /* \"#utility.yul\":11481:11485   */\n      dup2\n        /* \"#utility.yul\":11355:11486   */\n      tag_420\n      jump\t// in\n    tag_493:\n        /* \"#utility.yul\":11347:11486   */\n      swap1\n      pop\n        /* \"#utility.yul\":11074:11493   */\n      swap2\n      swap1\n      pop\n      jump\t// out\n        /* \"#utility.yul\":11499:11918   */\n    tag_235:\n        /* \"#utility.yul\":11665:11669   */\n      0x00\n        /* \"#utility.yul\":11703:11705   */\n      0x20\n        /* \"#utility.yul\":11692:11701   */\n      dup3\n        /* \"#utility.yul\":11688:11706   */\n      add\n        /* \"#utility.yul\":11680:11706   */\n      swap1\n      pop\n        /* \"#utility.yul\":11752:11761   */\n      dup2\n        /* \"#utility.yul\":11746:11750   */\n      dup2\n        /* \"#utility.yul\":11742:11762   */\n      sub\n        /* \"#utility.yul\":11738:11739   */\n      0x00\n        /* \"#utility.yul\":11727:11736   */\n      dup4\n        /* \"#utility.yul\":11723:11740   */\n      add\n        /* \"#utility.yul\":11716:11763   */\n      mstore\n        /* \"#utility.yul\":11780:11911   */\n      tag_495\n        /* \"#utility.yul\":11906:11910   */\n      dup2\n        /* \"#utility.yul\":11780:11911   */\n      tag_425\n      jump\t// in\n    tag_495:\n        /* \"#utility.yul\":11772:11911   */\n      swap1\n      pop\n        /* \"#utility.yul\":11499:11918   */\n      swap2\n      swap1\n      pop\n      jump\t// out\n        /* \"#utility.yul\":11924:12343   */\n    tag_248:\n        /* \"#utility.yul\":12090:12094   */\n      0x00\n        /* \"#utility.yul\":12128:12130   */\n      0x20\n        /* \"#utility.yul\":12117:12126   */\n      dup3\n        /* \"#utility.yul\":12113:12131   */\n      add\n        /* \"#utility.yul\":12105:12131   */\n      swap1\n      pop\n        /* \"#utility.yul\":12177:12186   */\n      dup2\n        /* \"#utility.yul\":12171:12175   */\n      dup2\n        /* \"#utility.yul\":12167:12187   */\n      sub\n        /* \"#utility.yul\":12163:12164   */\n      0x00\n        /* \"#utility.yul\":12152:12161   */\n      dup4\n        /* \"#utility.yul\":12148:12165   */\n      add\n        /* \"#utility.yul\":12141:12188   */\n      mstore\n        /* \"#utility.yul\":12205:12336   */\n      tag_497\n        /* \"#utility.yul\":12331:12335   */\n      dup2\n        /* \"#utility.yul\":12205:12336   */\n      tag_430\n      jump\t// in\n    tag_497:\n        /* \"#utility.yul\":12197:12336   */\n      swap1\n      pop\n        /* \"#utility.yul\":11924:12343   */\n      swap2\n      swap1\n      pop\n      jump\t// out\n        /* \"#utility.yul\":12349:12768   */\n    tag_137:\n        /* \"#utility.yul\":12515:12519   */\n      0x00\n        /* \"#utility.yul\":12553:12555   */\n      0x20\n        /* \"#utility.yul\":12542:12551   */\n      dup3\n        /* \"#utility.yul\":12538:12556   */\n      add\n        /* \"#utility.yul\":12530:12556   */\n      swap1\n      pop\n        /* \"#utility.yul\":12602:12611   */\n      dup2\n        /* \"#utility.yul\":12596:12600   */\n      dup2\n        /* \"#utility.yul\":12592:12612   */\n      sub\n        /* \"#utility.yul\":12588:12589   */\n      0x00\n        /* \"#utility.yul\":12577:12586   */\n      dup4\n        /* \"#utility.yul\":12573:12590   */\n      add\n        /* \"#utility.yul\":12566:12613   */\n      mstore\n        /* \"#utility.yul\":12630:12761   */\n      tag_499\n        /* \"#utility.yul\":12756:12760   */\n      dup2\n        /* \"#utility.yul\":12630:12761   */\n      tag_435\n      jump\t// in\n    tag_499:\n        /* \"#utility.yul\":12622:12761   */\n      swap1\n      pop\n        /* \"#utility.yul\":12349:12768   */\n      swap2\n      swap1\n      pop\n      jump\t// out\n        /* \"#utility.yul\":12774:13193   */\n    tag_265:\n        /* \"#utility.yul\":12940:12944   */\n      0x00\n        /* \"#utility.yul\":12978:12980   */\n      0x20\n        /* \"#utility.yul\":12967:12976   */\n      dup3\n        /* \"#utility.yul\":12963:12981   */\n      add\n        /* \"#utility.yul\":12955:12981   */\n      swap1\n      pop\n        /* \"#utility.yul\":13027:13036   */\n      dup2\n        /* \"#utility.yul\":13021:13025   */\n      dup2\n        /* \"#utility.yul\":13017:13037   */\n      sub\n        /* \"#utility.yul\":13013:13014   */\n      0x00\n        /* \"#utility.yul\":13002:13011   */\n      dup4\n        /* \"#utility.yul\":12998:13015   */\n      add\n        /* \"#utility.yul\":12991:13038   */\n      mstore\n        /* \"#utility.yul\":13055:13186   */\n      tag_501\n        /* \"#utility.yul\":13181:13185   */\n      dup2\n        /* \"#utility.yul\":13055:13186   */\n      tag_440\n      jump\t// in\n    tag_501:\n        /* \"#utility.yul\":13047:13186   */\n      swap1\n      pop\n        /* \"#utility.yul\":12774:13193   */\n      swap2\n      swap1\n      pop\n      jump\t// out\n        /* \"#utility.yul\":13199:13618   */\n    tag_240:\n        /* \"#utility.yul\":13365:13369   */\n      0x00\n        /* \"#utility.yul\":13403:13405   */\n      0x20\n        /* \"#utility.yul\":13392:13401   */\n      dup3\n        /* \"#utility.yul\":13388:13406   */\n      add\n        /* \"#utility.yul\":13380:13406   */\n      swap1\n      pop\n        /* \"#utility.yul\":13452:13461   */\n      dup2\n        /* \"#utility.yul\":13446:13450   */\n      dup2\n        /* \"#utility.yul\":13442:13462   */\n      sub\n        /* \"#utility.yul\":13438:13439   */\n      0x00\n        /* \"#utility.yul\":13427:13436   */\n      dup4\n        /* \"#utility.yul\":13423:13440   */\n      add\n        /* \"#utility.yul\":13416:13463   */\n      mstore\n        /* \"#utility.yul\":13480:13611   */\n      tag_503\n        /* \"#utility.yul\":13606:13610   */\n      dup2\n        /* \"#utility.yul\":13480:13611   */\n      tag_445\n      jump\t// in\n    tag_503:\n        /* \"#utility.yul\":13472:13611   */\n      swap1\n      pop\n        /* \"#utility.yul\":13199:13618   */\n      swap2\n      swap1\n      pop\n      jump\t// out\n        /* \"#utility.yul\":13624:14043   */\n    tag_225:\n        /* \"#utility.yul\":13790:13794   */\n      0x00\n        /* \"#utility.yul\":13828:13830   */\n      0x20\n        /* \"#utility.yul\":13817:13826   */\n      dup3\n        /* \"#utility.yul\":13813:13831   */\n      add\n        /* \"#utility.yul\":13805:13831   */\n      swap1\n      pop\n        /* \"#utility.yul\":13877:13886   */\n      dup2\n        /* \"#utility.yul\":13871:13875   */\n      dup2\n        /* \"#utility.yul\":13867:13887   */\n      sub\n        /* \"#utility.yul\":13863:13864   */\n      0x00\n        /* \"#utility.yul\":13852:13861   */\n      dup4\n        /* \"#utility.yul\":13848:13865   */\n      add\n        /* \"#utility.yul\":13841:13888   */\n      mstore\n        /* \"#utility.yul\":13905:14036   */\n      tag_505\n        /* \"#utility.yul\":14031:14035   */\n      dup2\n        /* \"#utility.yul\":13905:14036   */\n      tag_450\n      jump\t// in\n    tag_505:\n        /* \"#utility.yul\":13897:14036   */\n      swap1\n      pop\n        /* \"#utility.yul\":13624:14043   */\n      swap2\n      swap1\n      pop\n      jump\t// out\n        /* \"#utility.yul\":14049:14468   */\n    tag_277:\n        /* \"#utility.yul\":14215:14219   */\n      0x00\n        /* \"#utility.yul\":14253:14255   */\n      0x20\n        /* \"#utility.yul\":14242:14251   */\n      dup3\n        /* \"#utility.yul\":14238:14256   */\n      add\n        /* \"#utility.yul\":14230:14256   */\n      swap1\n      pop\n        /* \"#utility.yul\":14302:14311   */\n      dup2\n        /* \"#utility.yul\":14296:14300   */\n      dup2\n        /* \"#utility.yul\":14292:14312   */\n      sub\n        /* \"#utility.yul\":14288:14289   */\n      0x00\n        /* \"#utility.yul\":14277:14286   */\n      dup4\n        /* \"#utility.yul\":14273:14290   */\n      add\n        /* \"#utility.yul\":14266:14313   */\n      mstore\n        /* \"#utility.yul\":14330:14461   */\n      tag_507\n        /* \"#utility.yul\":14456:14460   */\n      dup2\n        /* \"#utility.yul\":14330:14461   */\n      tag_455\n      jump\t// in\n    tag_507:\n        /* \"#utility.yul\":14322:14461   */\n      swap1\n      pop\n        /* \"#utility.yul\":14049:14468   */\n      swap2\n      swap1\n      pop\n      jump\t// out\n        /* \"#utility.yul\":14474:14893   */\n    tag_189:\n        /* \"#utility.yul\":14640:14644   */\n      0x00\n        /* \"#utility.yul\":14678:14680   */\n      0x20\n        /* \"#utility.yul\":14667:14676   */\n      dup3\n        /* \"#utility.yul\":14663:14681   */\n      add\n        /* \"#utility.yul\":14655:14681   */\n      swap1\n      pop\n        /* \"#utility.yul\":14727:14736   */\n      dup2\n        /* \"#utility.yul\":14721:14725   */\n      dup2\n        /* \"#utility.yul\":14717:14737   */\n      sub\n        /* \"#utility.yul\":14713:14714   */\n      0x00\n        /* \"#utility.yul\":14702:14711   */\n      dup4\n        /* \"#utility.yul\":14698:14715   */\n      add\n        /* \"#utility.yul\":14691:14738   */\n      mstore\n        /* \"#utility.yul\":14755:14886   */\n      tag_509\n        /* \"#utility.yul\":14881:14885   */\n      dup2\n        /* \"#utility.yul\":14755:14886   */\n      tag_460\n      jump\t// in\n    tag_509:\n        /* \"#utility.yul\":14747:14886   */\n      swap1\n      pop\n        /* \"#utility.yul\":14474:14893   */\n      swap2\n      swap1\n      pop\n      jump\t// out\n        /* \"#utility.yul\":14899:15318   */\n    tag_256:\n        /* \"#utility.yul\":15065:15069   */\n      0x00\n        /* \"#utility.yul\":15103:15105   */\n      0x20\n        /* \"#utility.yul\":15092:15101   */\n      dup3\n        /* \"#utility.yul\":15088:15106   */\n      add\n        /* \"#utility.yul\":15080:15106   */\n      swap1\n      pop\n        /* \"#utility.yul\":15152:15161   */\n      dup2\n        /* \"#utility.yul\":15146:15150   */\n      dup2\n        /* \"#utility.yul\":15142:15162   */\n      sub\n        /* \"#utility.yul\":15138:15139   */\n      0x00\n        /* \"#utility.yul\":15127:15136   */\n      dup4\n        /* \"#utility.yul\":15123:15140   */\n      add\n        /* \"#utility.yul\":15116:15163   */\n      mstore\n        /* \"#utility.yul\":15180:15311   */\n      tag_511\n        /* \"#utility.yul\":15306:15310   */\n      dup2\n        /* \"#utility.yul\":15180:15311   */\n      tag_465\n      jump\t// in\n    tag_511:\n        /* \"#utility.yul\":15172:15311   */\n      swap1\n      pop\n        /* \"#utility.yul\":14899:15318   */\n      swap2\n      swap1\n      pop\n      jump\t// out\n        /* \"#utility.yul\":15324:15546   */\n    tag_39:\n        /* \"#utility.yul\":15417:15421   */\n      0x00\n        /* \"#utility.yul\":15455:15457   */\n      0x20\n        /* \"#utility.yul\":15444:15453   */\n      dup3\n        /* \"#utility.yul\":15440:15458   */\n      add\n        /* \"#utility.yul\":15432:15458   */\n      swap1\n      pop\n        /* \"#utility.yul\":15468:15539   */\n      tag_513\n        /* \"#utility.yul\":15536:15537   */\n      0x00\n        /* \"#utility.yul\":15525:15534   */\n      dup4\n        /* \"#utility.yul\":15521:15538   */\n      add\n        /* \"#utility.yul\":15512:15518   */\n      dup5\n        /* \"#utility.yul\":15468:15539   */\n      tag_470\n      jump\t// in\n    tag_513:\n        /* \"#utility.yul\":15324:15546   */\n      swap3\n      swap2\n      pop\n      pop\n      jump\t// out\n        /* \"#utility.yul\":15552:15766   */\n    tag_48:\n        /* \"#utility.yul\":15641:15645   */\n      0x00\n        /* \"#utility.yul\":15679:15681   */\n      0x20\n        /* \"#utility.yul\":15668:15677   */\n      dup3\n        /* \"#utility.yul\":15664:15682   */\n      add\n        /* \"#utility.yul\":15656:15682   */\n      swap1\n      pop\n        /* \"#utility.yul\":15692:15759   */\n      tag_515\n        /* \"#utility.yul\":15756:15757   */\n      0x00\n        /* \"#utility.yul\":15745:15754   */\n      dup4\n        /* \"#utility.yul\":15741:15758   */\n      add\n        /* \"#utility.yul\":15732:15738   */\n      dup5\n        /* \"#utility.yul\":15692:15759   */\n      tag_474\n      jump\t// in\n    tag_515:\n        /* \"#utility.yul\":15552:15766   */\n      swap3\n      swap2\n      pop\n      pop\n      jump\t// out\n        /* \"#utility.yul\":15853:15952   */\n    tag_393:\n        /* \"#utility.yul\":15905:15911   */\n      0x00\n        /* \"#utility.yul\":15939:15944   */\n      dup2\n        /* \"#utility.yul\":15933:15945   */\n      mload\n        /* \"#utility.yul\":15923:15945   */\n      swap1\n      pop\n        /* \"#utility.yul\":15853:15952   */\n      swap2\n      swap1\n      pop\n      jump\t// out\n        /* \"#utility.yul\":15958:16127   */\n    tag_395:\n        /* \"#utility.yul\":16042:16053   */\n      0x00\n        /* \"#utility.yul\":16076:16082   */\n      dup3\n        /* \"#utility.yul\":16071:16074   */\n      dup3\n        /* \"#utility.yul\":16064:16083   */\n      mstore\n        /* \"#utility.yul\":16116:16120   */\n      0x20\n        /* \"#utility.yul\":16111:16114   */\n      dup3\n        /* \"#utility.yul\":16107:16121   */\n      add\n        /* \"#utility.yul\":16092:16121   */\n      swap1\n      pop\n        /* \"#utility.yul\":15958:16127   */\n      swap3\n      swap2\n      pop\n      pop\n      jump\t// out\n        /* \"#utility.yul\":16133:16438   */\n    tag_131:\n        /* \"#utility.yul\":16173:16176   */\n      0x00\n        /* \"#utility.yul\":16192:16212   */\n      tag_521\n        /* \"#utility.yul\":16210:16211   */\n      dup3\n        /* \"#utility.yul\":16192:16212   */\n      tag_473\n      jump\t// in\n    tag_521:\n        /* \"#utility.yul\":16187:16212   */\n      swap2\n      pop\n        /* \"#utility.yul\":16226:16246   */\n      tag_522\n        /* \"#utility.yul\":16244:16245   */\n      dup4\n        /* \"#utility.yul\":16226:16246   */\n      tag_473\n      jump\t// in\n    tag_522:\n        /* \"#utility.yul\":16221:16246   */\n      swap3\n      pop\n        /* \"#utility.yul\":16380:16381   */\n      dup3\n        /* \"#utility.yul\":16312:16378   */\n      0xffffffffffffffffffffffffffffffffffffffffffffffffffffffffffffffff\n        /* \"#utility.yul\":16308:16382   */\n      sub\n        /* \"#utility.yul\":16305:16306   */\n      dup3\n        /* \"#utility.yul\":16302:16383   */\n      gt\n        /* \"#utility.yul\":16299:16406   */\n      iszero\n      tag_523\n      jumpi\n        /* \"#utility.yul\":16386:16404   */\n      tag_524\n      tag_525\n      jump\t// in\n    tag_524:\n        /* \"#utility.yul\":16299:16406   */\n    tag_523:\n        /* \"#utility.yul\":16430:16431   */\n      dup3\n        /* \"#utility.yul\":16427:16428   */\n      dup3\n        /* \"#utility.yul\":16423:16432   */\n      add\n        /* \"#utility.yul\":16416:16432   */\n      swap1\n      pop\n        /* \"#utility.yul\":16133:16438   */\n      swap3\n      swap2\n      pop\n      pop\n      jump\t// out\n        /* \"#utility.yul\":16444:16629   */\n    tag_339:\n        /* \"#utility.yul\":16484:16485   */\n      0x00\n        /* \"#utility.yul\":16501:16521   */\n      tag_527\n        /* \"#utility.yul\":16519:16520   */\n      dup3\n        /* \"#utility.yul\":16501:16521   */\n      tag_473\n      jump\t// in\n    tag_527:\n        /* \"#utility.yul\":16496:16521   */\n      swap2\n      pop\n        /* \"#utility.yul\":16535:16555   */\n      tag_528\n        /* \"#utility.yul\":16553:16554   */\n      dup4\n        /* \"#utility.yul\":16535:16555   */\n      tag_473\n      jump\t// in\n    tag_528:\n        /* \"#utility.yul\":16530:16555   */\n      swap3\n      pop\n        /* \"#utility.yul\":16574:16575   */\n      dup3\n        /* \"#utility.yul\":16564:16599   */\n      tag_529\n      jumpi\n        /* \"#utility.yul\":16579:16597   */\n      tag_530\n      tag_531\n      jump\t// in\n    tag_530:\n        /* \"#utility.yul\":16564:16599   */\n    tag_529:\n        /* \"#utility.yul\":16621:16622   */\n      dup3\n        /* \"#utility.yul\":16618:16619   */\n      dup3\n        /* \"#utility.yul\":16614:16623   */\n      div\n        /* \"#utility.yul\":16609:16623   */\n      swap1\n      pop\n        /* \"#utility.yul\":16444:16629   */\n      swap3\n      swap2\n      pop\n      pop\n      jump\t// out\n        /* \"#utility.yul\":16635:16826   */\n    tag_271:\n        /* \"#utility.yul\":16675:16679   */\n      0x00\n        /* \"#utility.yul\":16695:16715   */\n      tag_533\n        /* \"#utility.yul\":16713:16714   */\n      dup3\n        /* \"#utility.yul\":16695:16715   */\n      tag_473\n      jump\t// in\n    tag_533:\n        /* \"#utility.yul\":16690:16715   */\n      swap2\n      pop\n        /* \"#utility.yul\":16729:16749   */\n      tag_534\n        /* \"#utility.yul\":16747:16748   */\n      dup4\n        /* \"#utility.yul\":16729:16749   */\n      tag_473\n      jump\t// in\n    tag_534:\n        /* \"#utility.yul\":16724:16749   */\n      swap3\n      pop\n        /* \"#utility.yul\":16768:16769   */\n      dup3\n        /* \"#utility.yul\":16765:16766   */\n      dup3\n        /* \"#utility.yul\":16762:16770   */\n      lt\n        /* \"#utility.yul\":16759:16793   */\n      iszero\n      tag_535\n      jumpi\n        /* \"#utility.yul\":16773:16791   */\n      tag_536\n      tag_525\n      jump\t// in\n    tag_536:\n        /* \"#utility.yul\":16759:16793   */\n    tag_535:\n        /* \"#utility.yul\":16818:16819   */\n      dup3\n        /* \"#utility.yul\":16815:16816   */\n      dup3\n        /* \"#utility.yul\":16811:16820   */\n      sub\n        /* \"#utility.yul\":16803:16820   */\n      swap1\n      pop\n        /* \"#utility.yul\":16635:16826   */\n      swap3\n      swap2\n      pop\n      pop\n      jump\t// out\n        /* \"#utility.yul\":16832:16928   */\n    tag_385:\n        /* \"#utility.yul\":16869:16876   */\n      0x00\n        /* \"#utility.yul\":16898:16922   */\n      tag_538\n        /* \"#utility.yul\":16916:16921   */\n      dup3\n        /* \"#utility.yul\":16898:16922   */\n      tag_539\n      jump\t// in\n    tag_538:\n        /* \"#utility.yul\":16887:16922   */\n      swap1\n      pop\n        /* \"#utility.yul\":16832:16928   */\n      swap2\n      swap1\n      pop\n      jump\t// out\n        /* \"#utility.yul\":16934:17024   */\n    tag_389:\n        /* \"#utility.yul\":16968:16975   */\n      0x00\n        /* \"#utility.yul\":17011:17016   */\n      dup2\n        /* \"#utility.yul\":17004:17017   */\n      iszero\n        /* \"#utility.yul\":16997:17018   */\n      iszero\n        /* \"#utility.yul\":16986:17018   */\n      swap1\n      pop\n        /* \"#utility.yul\":16934:17024   */\n      swap2\n      swap1\n      pop\n      jump\t// out\n        /* \"#utility.yul\":17030:17156   */\n    tag_539:\n        /* \"#utility.yul\":17067:17074   */\n      0x00\n        /* \"#utility.yul\":17107:17149   */\n      0xffffffffffffffffffffffffffffffffffffffff\n        /* \"#utility.yul\":17100:17105   */\n      dup3\n        /* \"#utility.yul\":17096:17150   */\n      and\n        /* \"#utility.yul\":17085:17150   */\n      swap1\n      pop\n        /* \"#utility.yul\":17030:17156   */\n      swap2\n      swap1\n      pop\n      jump\t// out\n        /* \"#utility.yul\":17162:17239   */\n    tag_473:\n        /* \"#utility.yul\":17199:17206   */\n      0x00\n        /* \"#utility.yul\":17228:17233   */\n      dup2\n        /* \"#utility.yul\":17217:17233   */\n      swap1\n      pop\n        /* \"#utility.yul\":17162:17239   */\n      swap2\n      swap1\n      pop\n      jump\t// out\n        /* \"#utility.yul\":17245:17331   */\n    tag_477:\n        /* \"#utility.yul\":17280:17287   */\n      0x00\n        /* \"#utility.yul\":17320:17324   */\n      0xff\n        /* \"#utility.yul\":17313:17318   */\n      dup3\n        /* \"#utility.yul\":17309:17325   */\n      and\n        /* \"#utility.yul\":17298:17325   */\n      swap1\n      pop\n        /* \"#utility.yul\":17245:17331   */\n      swap2\n      swap1\n      pop\n      jump\t// out\n        /* \"#utility.yul\":17337:17644   */\n    tag_397:\n        /* \"#utility.yul\":17405:17406   */\n      0x00\n        /* \"#utility.yul\":17415:17528   */\n    tag_545:\n        /* \"#utility.yul\":17429:17435   */\n      dup4\n        /* \"#utility.yul\":17426:17427   */\n      dup2\n        /* \"#utility.yul\":17423:17436   */\n      lt\n        /* \"#utility.yul\":17415:17528   */\n      iszero\n      tag_547\n      jumpi\n        /* \"#utility.yul\":17514:17515   */\n      dup1\n        /* \"#utility.yul\":17509:17512   */\n      dup3\n        /* \"#utility.yul\":17505:17516   */\n      add\n        /* \"#utility.yul\":17499:17517   */\n      mload\n        /* \"#utility.yul\":17495:17496   */\n      dup2\n        /* \"#utility.yul\":17490:17493   */\n      dup5\n        /* \"#utility.yul\":17486:17497   */\n      add\n        /* \"#utility.yul\":17479:17518   */\n      mstore\n        /* \"#utility.yul\":17451:17453   */\n      0x20\n        /* \"#utility.yul\":17448:17449   */\n      dup2\n        /* \"#utility.yul\":17444:17454   */\n      add\n        /* \"#utility.yul\":17439:17454   */\n      swap1\n      pop\n        /* \"#utility.yul\":17415:17528   */\n      jump(tag_545)\n    tag_547:\n        /* \"#utility.yul\":17546:17552   */\n      dup4\n        /* \"#utility.yul\":17543:17544   */\n      dup2\n        /* \"#utility.yul\":17540:17553   */\n      gt\n        /* \"#utility.yul\":17537:17638   */\n      iszero\n      tag_548\n      jumpi\n        /* \"#utility.yul\":17626:17627   */\n      0x00\n        /* \"#utility.yul\":17617:17623   */\n      dup5\n        /* \"#utility.yul\":17612:17615   */\n      dup5\n        /* \"#utility.yul\":17608:17624   */\n      add\n        /* \"#utility.yul\":17601:17628   */\n      mstore\n        /* \"#utility.yul\":17537:17638   */\n    tag_548:\n        /* \"#utility.yul\":17386:17644   */\n      pop\n        /* \"#utility.yul\":17337:17644   */\n      pop\n      pop\n      pop\n      jump\t// out\n        /* \"#utility.yul\":17650:17970   */\n    tag_108:\n        /* \"#utility.yul\":17694:17700   */\n      0x00\n        /* \"#utility.yul\":17731:17732   */\n      0x02\n        /* \"#utility.yul\":17725:17729   */\n      dup3\n        /* \"#utility.yul\":17721:17733   */\n      div\n        /* \"#utility.yul\":17711:17733   */\n      swap1\n      pop\n        /* \"#utility.yul\":17778:17779   */\n      0x01\n        /* \"#utility.yul\":17772:17776   */\n      dup3\n        /* \"#utility.yul\":17768:17780   */\n      and\n        /* \"#utility.yul\":17799:17817   */\n      dup1\n        /* \"#utility.yul\":17789:17870   */\n      tag_550\n      jumpi\n        /* \"#utility.yul\":17855:17859   */\n      0x7f\n        /* \"#utility.yul\":17847:17853   */\n      dup3\n        /* \"#utility.yul\":17843:17860   */\n      and\n        /* \"#utility.yul\":17833:17860   */\n      swap2\n      pop\n        /* \"#utility.yul\":17789:17870   */\n    tag_550:\n        /* \"#utility.yul\":17917:17919   */\n      0x20\n        /* \"#utility.yul\":17909:17915   */\n      dup3\n        /* \"#utility.yul\":17906:17920   */\n      lt\n        /* \"#utility.yul\":17886:17904   */\n      dup2\n        /* \"#utility.yul\":17883:17921   */\n      eq\n        /* \"#utility.yul\":17880:17964   */\n      iszero\n      tag_551\n      jumpi\n        /* \"#utility.yul\":17936:17954   */\n      tag_552\n      tag_553\n      jump\t// in\n    tag_552:\n        /* \"#utility.yul\":17880:17964   */\n    tag_551:\n        /* \"#utility.yul\":17701:17970   */\n      pop\n        /* \"#utility.yul\":17650:17970   */\n      swap2\n      swap1\n      pop\n      jump\t// out\n        /* \"#utility.yul\":17976:18156   */\n    tag_525:\n        /* \"#utility.yul\":18024:18101   */\n      0x4e487b7100000000000000000000000000000000000000000000000000000000\n        /* \"#utility.yul\":18021:18022   */\n      0x00\n        /* \"#utility.yul\":18014:18102   */\n      mstore\n        /* \"#utility.yul\":18121:18125   */\n      0x11\n        /* \"#utility.yul\":18118:18119   */\n      0x04\n        /* \"#utility.yul\":18111:18126   */\n      mstore\n        /* \"#utility.yul\":18145:18149   */\n      0x24\n        /* \"#utility.yul\":18142:18143   */\n      0x00\n        /* \"#utility.yul\":18135:18150   */\n      revert\n        /* \"#utility.yul\":18162:18342   */\n    tag_531:\n        /* \"#utility.yul\":18210:18287   */\n      0x4e487b7100000000000000000000000000000000000000000000000000000000\n        /* \"#utility.yul\":18207:18208   */\n      0x00\n        /* \"#utility.yul\":18200:18288   */\n      mstore\n        /* \"#utility.yul\":18307:18311   */\n      0x12\n        /* \"#utility.yul\":18304:18305   */\n      0x04\n        /* \"#utility.yul\":18297:18312   */\n      mstore\n        /* \"#utility.yul\":18331:18335   */\n      0x24\n        /* \"#utility.yul\":18328:18329   */\n      0x00\n        /* \"#utility.yul\":18321:18336   */\n      revert\n        /* \"#utility.yul\":18348:18528   */\n    tag_553:\n        /* \"#utility.yul\":18396:18473   */\n      0x4e487b7100000000000000000000000000000000000000000000000000000000\n        /* \"#utility.yul\":18393:18394   */\n      0x00\n        /* \"#utility.yul\":18386:18474   */\n      mstore\n        /* \"#utility.yul\":18493:18497   */\n      0x22\n        /* \"#utility.yul\":18490:18491   */\n      0x04\n        /* \"#utility.yul\":18483:18498   */\n      mstore\n        /* \"#utility.yul\":18517:18521   */\n      0x24\n        /* \"#utility.yul\":18514:18515   */\n      0x00\n        /* \"#utility.yul\":18507:18522   */\n      revert\n        /* \"#utility.yul\":18534:18714   */\n    tag_289:\n        /* \"#utility.yul\":18582:18659   */\n      0x4e487b7100000000000000000000000000000000000000000000000000000000\n        /* \"#utility.yul\":18579:18580   */\n      0x00\n        /* \"#utility.yul\":18572:18660   */\n      mstore\n        /* \"#utility.yul\":18679:18683   */\n      0x32\n        /* \"#utility.yul\":18676:18677   */\n      0x04\n        /* \"#utility.yul\":18669:18684   */\n      mstore\n        /* \"#utility.yul\":18703:18707   */\n      0x24\n        /* \"#utility.yul\":18700:18701   */\n      0x00\n        /* \"#utility.yul\":18693:18708   */\n      revert\n        /* \"#utility.yul\":18843:18960   */\n    tag_360:\n        /* \"#utility.yul\":18952:18953   */\n      0x00\n        /* \"#utility.yul\":18949:18950   */\n      dup1\n        /* \"#utility.yul\":18942:18954   */\n      revert\n        /* \"#utility.yul\":18966:19068   */\n    tag_399:\n        /* \"#utility.yul\":19007:19013   */\n      0x00\n        /* \"#utility.yul\":19058:19060   */\n      0x1f\n        /* \"#utility.yul\":19054:19061   */\n      not\n        /* \"#utility.yul\":19049:19051   */\n      0x1f\n        /* \"#utility.yul\":19042:19047   */\n      dup4\n        /* \"#utility.yul\":19038:19052   */\n      add\n        /* \"#utility.yul\":19034:19062   */\n      and\n        /* \"#utility.yul\":19024:19062   */\n      swap1\n      pop\n        /* \"#utility.yul\":18966:19068   */\n      swap2\n      swap1\n      pop\n      jump\t// out\n        /* \"#utility.yul\":19074:19253   */\n    tag_404:\n        /* \"#utility.yul\":19214:19245   */\n      0x4552433230536e617073686f743a206e6f6e6578697374656e74206964000000\n        /* \"#utility.yul\":19210:19211   */\n      0x00\n        /* \"#utility.yul\":19202:19208   */\n      dup3\n        /* \"#utility.yul\":19198:19212   */\n      add\n        /* \"#utility.yul\":19191:19246   */\n      mstore\n        /* \"#utility.yul\":19074:19253   */\n      pop\n      jump\t// out\n        /* \"#utility.yul\":19259:19481   */\n    tag_409:\n        /* \"#utility.yul\":19399:19433   */\n      0x45524332303a207472616e7366657220746f20746865207a65726f2061646472\n        /* \"#utility.yul\":19395:19396   */\n      0x00\n        /* \"#utility.yul\":19387:19393   */\n      dup3\n        /* \"#utility.yul\":19383:19397   */\n      add\n        /* \"#utility.yul\":19376:19434   */\n      mstore\n        /* \"#utility.yul\":19468:19473   */\n      0x6573730000000000000000000000000000000000000000000000000000000000\n        /* \"#utility.yul\":19463:19465   */\n      0x20\n        /* \"#utility.yul\":19455:19461   */\n      dup3\n        /* \"#utility.yul\":19451:19466   */\n      add\n        /* \"#utility.yul\":19444:19474   */\n      mstore\n        /* \"#utility.yul\":19259:19481   */\n      pop\n      jump\t// out\n        /* \"#utility.yul\":19487:19708   */\n    tag_414:\n        /* \"#utility.yul\":19627:19661   */\n      0x45524332303a206275726e20616d6f756e7420657863656564732062616c616e\n        /* \"#utility.yul\":19623:19624   */\n      0x00\n        /* \"#utility.yul\":19615:19621   */\n      dup3\n        /* \"#utility.yul\":19611:19625   */\n      add\n        /* \"#utility.yul\":19604:19662   */\n      mstore\n        /* \"#utility.yul\":19696:19700   */\n      0x6365000000000000000000000000000000000000000000000000000000000000\n        /* \"#utility.yul\":19691:19693   */\n      0x20\n        /* \"#utility.yul\":19683:19689   */\n      dup3\n        /* \"#utility.yul\":19679:19694   */\n      add\n        /* \"#utility.yul\":19672:19701   */\n      mstore\n        /* \"#utility.yul\":19487:19708   */\n      pop\n      jump\t// out\n        /* \"#utility.yul\":19714:19939   */\n    tag_419:\n        /* \"#utility.yul\":19854:19888   */\n      0x4f776e61626c653a206e6577206f776e657220697320746865207a65726f2061\n        /* \"#utility.yul\":19850:19851   */\n      0x00\n        /* \"#utility.yul\":19842:19848   */\n      dup3\n        /* \"#utility.yul\":19838:19852   */\n      add\n        /* \"#utility.yul\":19831:19889   */\n      mstore\n        /* \"#utility.yul\":19923:19931   */\n      0x6464726573730000000000000000000000000000000000000000000000000000\n        /* \"#utility.yul\":19918:19920   */\n      0x20\n        /* \"#utility.yul\":19910:19916   */\n      dup3\n        /* \"#utility.yul\":19906:19921   */\n      add\n        /* \"#utility.yul\":19899:19932   */\n      mstore\n        /* \"#utility.yul\":19714:19939   */\n      pop\n      jump\t// out\n        /* \"#utility.yul\":19945:20166   */\n    tag_424:\n        /* \"#utility.yul\":20085:20119   */\n      0x45524332303a20617070726f766520746f20746865207a65726f206164647265\n        /* \"#utility.yul\":20081:20082   */\n      0x00\n        /* \"#utility.yul\":20073:20079   */\n      dup3\n        /* \"#utility.yul\":20069:20083   */\n      add\n        /* \"#utility.yul\":20062:20120   */\n      mstore\n        /* \"#utility.yul\":20154:20158   */\n      0x7373000000000000000000000000000000000000000000000000000000000000\n        /* \"#utility.yul\":20149:20151   */\n      0x20\n        /* \"#utility.yul\":20141:20147   */\n      dup3\n        /* \"#utility.yul\":20137:20152   */\n      add\n        /* \"#utility.yul\":20130:20159   */\n      mstore\n        /* \"#utility.yul\":19945:20166   */\n      pop\n      jump\t// out\n        /* \"#utility.yul\":20172:20351   */\n    tag_429:\n        /* \"#utility.yul\":20312:20343   */\n      0x45524332303a20696e73756666696369656e7420616c6c6f77616e6365000000\n        /* \"#utility.yul\":20308:20309   */\n      0x00\n        /* \"#utility.yul\":20300:20306   */\n      dup3\n        /* \"#utility.yul\":20296:20310   */\n      add\n        /* \"#utility.yul\":20289:20344   */\n      mstore\n        /* \"#utility.yul\":20172:20351   */\n      pop\n      jump\t// out\n        /* \"#utility.yul\":20357:20582   */\n    tag_434:\n        /* \"#utility.yul\":20497:20531   */\n      0x45524332303a207472616e7366657220616d6f756e7420657863656564732062\n        /* \"#utility.yul\":20493:20494   */\n      0x00\n        /* \"#utility.yul\":20485:20491   */\n      dup3\n        /* \"#utility.yul\":20481:20495   */\n      add\n        /* \"#utility.yul\":20474:20532   */\n      mstore\n        /* \"#utility.yul\":20566:20574   */\n      0x616c616e63650000000000000000000000000000000000000000000000000000\n        /* \"#utility.yul\":20561:20563   */\n      0x20\n        /* \"#utility.yul\":20553:20559   */\n      dup3\n        /* \"#utility.yul\":20549:20564   */\n      add\n        /* \"#utility.yul\":20542:20575   */\n      mstore\n        /* \"#utility.yul\":20357:20582   */\n      pop\n      jump\t// out\n        /* \"#utility.yul\":20588:20770   */\n    tag_439:\n        /* \"#utility.yul\":20728:20762   */\n      0x4f776e61626c653a2063616c6c6572206973206e6f7420746865206f776e6572\n        /* \"#utility.yul\":20724:20725   */\n      0x00\n        /* \"#utility.yul\":20716:20722   */\n      dup3\n        /* \"#utility.yul\":20712:20726   */\n      add\n        /* \"#utility.yul\":20705:20763   */\n      mstore\n        /* \"#utility.yul\":20588:20770   */\n      pop\n      jump\t// out\n        /* \"#utility.yul\":20776:20996   */\n    tag_444:\n        /* \"#utility.yul\":20916:20950   */\n      0x45524332303a206275726e2066726f6d20746865207a65726f20616464726573\n        /* \"#utility.yul\":20912:20913   */\n      0x00\n        /* \"#utility.yul\":20904:20910   */\n      dup3\n        /* \"#utility.yul\":20900:20914   */\n      add\n        /* \"#utility.yul\":20893:20951   */\n      mstore\n        /* \"#utility.yul\":20985:20988   */\n      0x7300000000000000000000000000000000000000000000000000000000000000\n        /* \"#utility.yul\":20980:20982   */\n      0x20\n        /* \"#utility.yul\":20972:20978   */\n      dup3\n        /* \"#utility.yul\":20968:20983   */\n      add\n        /* \"#utility.yul\":20961:20989   */\n      mstore\n        /* \"#utility.yul\":20776:20996   */\n      pop\n      jump\t// out\n        /* \"#utility.yul\":21002:21226   */\n    tag_449:\n        /* \"#utility.yul\":21142:21176   */\n      0x45524332303a207472616e736665722066726f6d20746865207a65726f206164\n        /* \"#utility.yul\":21138:21139   */\n      0x00\n        /* \"#utility.yul\":21130:21136   */\n      dup3\n        /* \"#utility.yul\":21126:21140   */\n      add\n        /* \"#utility.yul\":21119:21177   */\n      mstore\n        /* \"#utility.yul\":21211:21218   */\n      0x6472657373000000000000000000000000000000000000000000000000000000\n        /* \"#utility.yul\":21206:21208   */\n      0x20\n        /* \"#utility.yul\":21198:21204   */\n      dup3\n        /* \"#utility.yul\":21194:21209   */\n      add\n        /* \"#utility.yul\":21187:21219   */\n      mstore\n        /* \"#utility.yul\":21002:21226   */\n      pop\n      jump\t// out\n        /* \"#utility.yul\":21232:21455   */\n    tag_454:\n        /* \"#utility.yul\":21372:21406   */\n      0x45524332303a20617070726f76652066726f6d20746865207a65726f20616464\n        /* \"#utility.yul\":21368:21369   */\n      0x00\n        /* \"#utility.yul\":21360:21366   */\n      dup3\n        /* \"#utility.yul\":21356:21370   */\n      add\n        /* \"#utility.yul\":21349:21407   */\n      mstore\n        /* \"#utility.yul\":21441:21447   */\n      0x7265737300000000000000000000000000000000000000000000000000000000\n        /* \"#utility.yul\":21436:21438   */\n      0x20\n        /* \"#utility.yul\":21428:21434   */\n      dup3\n        /* \"#utility.yul\":21424:21439   */\n      add\n        /* \"#utility.yul\":21417:21448   */\n      mstore\n        /* \"#utility.yul\":21232:21455   */\n      pop\n      jump\t// out\n        /* \"#utility.yul\":21461:21633   */\n    tag_459:\n        /* \"#utility.yul\":21601:21625   */\n      0x4552433230536e617073686f743a206964206973203000000000000000000000\n        /* \"#utility.yul\":21597:21598   */\n      0x00\n        /* \"#utility.yul\":21589:21595   */\n      dup3\n        /* \"#utility.yul\":21585:21599   */\n      add\n        /* \"#utility.yul\":21578:21626   */\n      mstore\n        /* \"#utility.yul\":21461:21633   */\n      pop\n      jump\t// out\n        /* \"#utility.yul\":21639:21863   */\n    tag_464:\n        /* \"#utility.yul\":21779:21813   */\n      0x45524332303a2064656372656173656420616c6c6f77616e63652062656c6f77\n        /* \"#utility.yul\":21775:21776   */\n      0x00\n        /* \"#utility.yul\":21767:21773   */\n      dup3\n        /* \"#utility.yul\":21763:21777   */\n      add\n        /* \"#utility.yul\":21756:21814   */\n      mstore\n        /* \"#utility.yul\":21848:21855   */\n      0x207a65726f000000000000000000000000000000000000000000000000000000\n        /* \"#utility.yul\":21843:21845   */\n      0x20\n        /* \"#utility.yul\":21835:21841   */\n      dup3\n        /* \"#utility.yul\":21831:21846   */\n      add\n        /* \"#utility.yul\":21824:21856   */\n      mstore\n        /* \"#utility.yul\":21639:21863   */\n      pop\n      jump\t// out\n        /* \"#utility.yul\":21869:22050   */\n    tag_469:\n        /* \"#utility.yul\":22009:22042   */\n      0x45524332303a206d696e7420746f20746865207a65726f206164647265737300\n        /* \"#utility.yul\":22005:22006   */\n      0x00\n        /* \"#utility.yul\":21997:22003   */\n      dup3\n        /* \"#utility.yul\":21993:22007   */\n      add\n        /* \"#utility.yul\":21986:22043   */\n      mstore\n        /* \"#utility.yul\":21869:22050   */\n      pop\n      jump\t// out\n        /* \"#utility.yul\":22056:22178   */\n    tag_352:\n        /* \"#utility.yul\":22129:22153   */\n      tag_577\n        /* \"#utility.yul\":22147:22152   */\n      dup2\n        /* \"#utility.yul\":22129:22153   */\n      tag_385\n      jump\t// in\n    tag_577:\n        /* \"#utility.yul\":22122:22127   */\n      dup2\n        /* \"#utility.yul\":22119:22154   */\n      eq\n        /* \"#utility.yul\":22109:22172   */\n      tag_578\n      jumpi\n        /* \"#utility.yul\":22168:22169   */\n      0x00\n        /* \"#utility.yul\":22165:22166   */\n      dup1\n        /* \"#utility.yul\":22158:22170   */\n      revert\n        /* \"#utility.yul\":22109:22172   */\n    tag_578:\n        /* \"#utility.yul\":22056:22178   */\n      pop\n      jump\t// out\n        /* \"#utility.yul\":22184:22306   */\n    tag_356:\n        /* \"#utility.yul\":22257:22281   */\n      tag_580\n        /* \"#utility.yul\":22275:22280   */\n      dup2\n        /* \"#utility.yul\":22257:22281   */\n      tag_473\n      jump\t// in\n    tag_580:\n        /* \"#utility.yul\":22250:22255   */\n      dup2\n        /* \"#utility.yul\":22247:22282   */\n      eq\n        /* \"#utility.yul\":22237:22300   */\n      tag_581\n      jumpi\n        /* \"#utility.yul\":22296:22297   */\n      0x00\n        /* \"#utility.yul\":22293:22294   */\n      dup1\n        /* \"#utility.yul\":22286:22298   */\n      revert\n        /* \"#utility.yul\":22237:22300   */\n    tag_581:\n        /* \"#utility.yul\":22184:22306   */\n      pop\n      jump\t// out\n\n    auxdata: 0xa2646970667358221220ce01fcaaf12c824d16c2946270719a2eb336b784246aabec30f3cf122ffa7c0d64736f6c63430008070033\n}\n",
				"bytecode": {
					"linkReferences": {},
					"object": "60806040523480156200001157600080fd5b506040518060400160405280600781526020017f4d79546f6b656e000000000000000000000000000000000000000000000000008152506040518060400160405280600381526020017f4d544b00000000000000000000000000000000000000000000000000000000008152508160039080519060200190620000969291906200066f565b508060049080519060200190620000af9291906200066f565b505050620000d2620000c66200011860201b60201c565b6200012060201b60201c565b6200011233620000e7620001e660201b60201c565b600a620000f591906200085f565b633b9aca006200010691906200099c565b620001ef60201b60201c565b62000b48565b600033905090565b6000600960009054906101000a900473ffffffffffffffffffffffffffffffffffffffff16905081600960006101000a81548173ffffffffffffffffffffffffffffffffffffffff021916908373ffffffffffffffffffffffffffffffffffffffff1602179055508173ffffffffffffffffffffffffffffffffffffffff168173ffffffffffffffffffffffffffffffffffffffff167f8be0079c531659141344cd1fd0a4f28419497f9722a3daafe3b4186f6b6457e060405160405180910390a35050565b60006012905090565b600073ffffffffffffffffffffffffffffffffffffffff168273ffffffffffffffffffffffffffffffffffffffff16141562000262576040517f08c379a0000000000000000000000000000000000000000000000000000000008152600401620002599062000757565b60405180910390fd5b62000276600083836200036860201b60201c565b80600260008282546200028a9190620007a7565b92505081905550806000808473ffffffffffffffffffffffffffffffffffffffff1673ffffffffffffffffffffffffffffffffffffffff1681526020019081526020016000206000828254620002e19190620007a7565b925050819055508173ffffffffffffffffffffffffffffffffffffffff16600073ffffffffffffffffffffffffffffffffffffffff167fddf252ad1be2c89b69c2b068fc378daa952ba7f163c4a11628f55a4df523b3ef8360405162000348919062000779565b60405180910390a362000364600083836200038560201b60201c565b5050565b620003808383836200038a60201b62000ab41760201c565b505050565b505050565b620003a28383836200048560201b62000b6e1760201c565b600073ffffffffffffffffffffffffffffffffffffffff168373ffffffffffffffffffffffffffffffffffffffff161415620003ff57620003e9826200048a60201b60201c565b620003f9620004ed60201b60201c565b62000480565b600073ffffffffffffffffffffffffffffffffffffffff168273ffffffffffffffffffffffffffffffffffffffff1614156200045c5762000446836200048a60201b60201c565b62000456620004ed60201b60201c565b6200047f565b6200046d836200048a60201b60201c565b6200047e826200048a60201b60201c565b5b5b505050565b505050565b620004ea600560008373ffffffffffffffffffffffffffffffffffffffff1673ffffffffffffffffffffffffffffffffffffffff168152602001908152602001600020620004de836200051160201b60201c565b6200055960201b60201c565b50565b6200050f600662000503620005e560201b60201c565b6200055960201b60201c565b565b60008060008373ffffffffffffffffffffffffffffffffffffffff1673ffffffffffffffffffffffffffffffffffffffff168152602001908152602001600020549050919050565b60006200056b620005ef60201b60201c565b90508062000582846000016200060d60201b60201c565b1015620005e05782600001819080600181540180825580915050600190039060005260206000200160009091909190915055826001018290806001815401808255809150506001900390600052602060002001600090919091909150555b505050565b6000600254905090565b60006200060860086200066160201b62000b731760201c565b905090565b600080828054905014156200062657600090506200065c565b81600183805490506200063a9190620009fd565b815481106200064e576200064d62000ae3565b5b906000526020600020015490505b919050565b600081600001549050919050565b8280546200067d9062000a4f565b90600052602060002090601f016020900481019282620006a15760008555620006ed565b82601f10620006bc57805160ff1916838001178555620006ed565b82800160010185558215620006ed579182015b82811115620006ec578251825591602001919060010190620006cf565b5b509050620006fc919062000700565b5090565b5b808211156200071b57600081600090555060010162000701565b5090565b60006200072e601f8362000796565b91506200073b8262000b1f565b602082019050919050565b620007518162000a38565b82525050565b6000602082019050818103600083015262000772816200071f565b9050919050565b600060208201905062000790600083018462000746565b92915050565b600082825260208201905092915050565b6000620007b48262000a38565b9150620007c18362000a38565b9250827fffffffffffffffffffffffffffffffffffffffffffffffffffffffffffffffff03821115620007f957620007f862000a85565b5b828201905092915050565b6000808291508390505b600185111562000856578086048111156200082e576200082d62000a85565b5b60018516156200083e5780820291505b80810290506200084e8562000b12565b94506200080e565b94509492505050565b60006200086c8262000a38565b9150620008798362000a42565b9250620008a87fffffffffffffffffffffffffffffffffffffffffffffffffffffffffffffffff8484620008b0565b905092915050565b600082620008c2576001905062000995565b81620008d2576000905062000995565b8160018114620008eb5760028114620008f6576200092c565b600191505062000995565b60ff8411156200090b576200090a62000a85565b5b8360020a91508482111562000925576200092462000a85565b5b5062000995565b5060208310610133831016604e8410600b8410161715620009665782820a90508381111562000960576200095f62000a85565b5b62000995565b62000975848484600162000804565b925090508184048111156200098f576200098e62000a85565b5b81810290505b9392505050565b6000620009a98262000a38565b9150620009b68362000a38565b9250817fffffffffffffffffffffffffffffffffffffffffffffffffffffffffffffffff0483118215151615620009f257620009f162000a85565b5b828202905092915050565b600062000a0a8262000a38565b915062000a178362000a38565b92508282101562000a2d5762000a2c62000a85565b5b828203905092915050565b6000819050919050565b600060ff82169050919050565b6000600282049050600182168062000a6857607f821691505b6020821081141562000a7f5762000a7e62000ab4565b5b50919050565b7f4e487b7100000000000000000000000000000000000000000000000000000000600052601160045260246000fd5b7f4e487b7100000000000000000000000000000000000000000000000000000000600052602260045260246000fd5b7f4e487b7100000000000000000000000000000000000000000000000000000000600052603260045260246000fd5b60008160011c9050919050565b7f45524332303a206d696e7420746f20746865207a65726f206164647265737300600082015250565b6124748062000b586000396000f3fe608060405234801561001057600080fd5b506004361061012c5760003560e01c8063715018a6116100ad578063981b24d011610071578063981b24d01461031f578063a457c2d71461034f578063a9059cbb1461037f578063dd62ed3e146103af578063f2fde38b146103df5761012c565b8063715018a6146102b357806379cc6790146102bd5780638da5cb5b146102d957806395d89b41146102f75780639711715a146103155761012c565b806339509351116100f457806339509351146101eb57806340c10f191461021b57806342966c68146102375780634ee2cd7e1461025357806370a08231146102835761012c565b806306fdde0314610131578063095ea7b31461014f57806318160ddd1461017f57806323b872dd1461019d578063313ce567146101cd575b600080fd5b6101396103fb565b6040516101469190611c01565b60405180910390f35b610169600480360381019061016491906118ff565b61048d565b6040516101769190611be6565b60405180910390f35b6101876104b0565b6040516101949190611de3565b60405180910390f35b6101b760048036038101906101b291906118ac565b6104ba565b6040516101c49190611be6565b60405180910390f35b6101d56104e9565b6040516101e29190611dfe565b60405180910390f35b610205600480360381019061020091906118ff565b6104f2565b6040516102129190611be6565b60405180910390f35b610235600480360381019061023091906118ff565b610529565b005b610251600480360381019061024c919061193f565b6105b3565b005b61026d600480360381019061026891906118ff565b6105c7565b60405161027a9190611de3565b60405180910390f35b61029d6004803603810190610298919061183f565b610637565b6040516102aa9190611de3565b60405180910390f35b6102bb61067f565b005b6102d760048036038101906102d291906118ff565b610707565b005b6102e1610727565b6040516102ee9190611bcb565b60405180910390f35b6102ff610751565b60405161030c9190611c01565b60405180910390f35b61031d6107e3565b005b6103396004803603810190610334919061193f565b61086a565b6040516103469190611de3565b60405180910390f35b610369600480360381019061036491906118ff565b61089b565b6040516103769190611be6565b60405180910390f35b610399600480360381019061039491906118ff565b610912565b6040516103a69190611be6565b60405180910390f35b6103c960048036038101906103c4919061186c565b610935565b6040516103d69190611de3565b60405180910390f35b6103f960048036038101906103f4919061183f565b6109bc565b005b60606003805461040a90611f78565b80601f016020809104026020016040519081016040528092919081815260200182805461043690611f78565b80156104835780601f1061045857610100808354040283529160200191610483565b820191906000526020600020905b81548152906001019060200180831161046657829003601f168201915b5050505050905090565b600080610498610b81565b90506104a5818585610b89565b600191505092915050565b6000600254905090565b6000806104c5610b81565b90506104d2858285610d54565b6104dd858585610de0565b60019150509392505050565b60006012905090565b6000806104fd610b81565b905061051e81858561050f8589610935565b6105199190611e35565b610b89565b600191505092915050565b610531610b81565b73ffffffffffffffffffffffffffffffffffffffff1661054f610727565b73ffffffffffffffffffffffffffffffffffffffff16146105a5576040517f08c379a000000000000000000000000000000000000000000000000000000000815260040161059c90611d03565b60405180910390fd5b6105af8282611061565b5050565b6105c46105be610b81565b826111c1565b50565b600080600061061484600560008873ffffffffffffffffffffffffffffffffffffffff1673ffffffffffffffffffffffffffffffffffffffff168152602001908152602001600020611398565b915091508161062b5761062685610637565b61062d565b805b9250505092915050565b60008060008373ffffffffffffffffffffffffffffffffffffffff1673ffffffffffffffffffffffffffffffffffffffff168152602001908152602001600020549050919050565b610687610b81565b73ffffffffffffffffffffffffffffffffffffffff166106a5610727565b73ffffffffffffffffffffffffffffffffffffffff16146106fb576040517f08c379a00000000000000000000000000000000000000000000000000000000081526004016106f290611d03565b60405180910390fd5b610705600061148e565b565b61071982610713610b81565b83610d54565b61072382826111c1565b5050565b6000600960009054906101000a900473ffffffffffffffffffffffffffffffffffffffff16905090565b60606004805461076090611f78565b80601f016020809104026020016040519081016040528092919081815260200182805461078c90611f78565b80156107d95780601f106107ae576101008083540402835291602001916107d9565b820191906000526020600020905b8154815290600101906020018083116107bc57829003601f168201915b5050505050905090565b6107eb610b81565b73ffffffffffffffffffffffffffffffffffffffff16610809610727565b73ffffffffffffffffffffffffffffffffffffffff161461085f576040517f08c379a000000000000000000000000000000000000000000000000000000000815260040161085690611d03565b60405180910390fd5b610867611554565b50565b600080600061087a846006611398565b91509150816108905761088b6104b0565b610892565b805b92505050919050565b6000806108a6610b81565b905060006108b48286610935565b9050838110156108f9576040517f08c379a00000000000000000000000000000000000000000000000000000000081526004016108f090611da3565b60405180910390fd5b6109068286868403610b89565b60019250505092915050565b60008061091d610b81565b905061092a818585610de0565b600191505092915050565b6000600160008473ffffffffffffffffffffffffffffffffffffffff1673ffffffffffffffffffffffffffffffffffffffff16815260200190815260200160002060008373ffffffffffffffffffffffffffffffffffffffff1673ffffffffffffffffffffffffffffffffffffffff16815260200190815260200160002054905092915050565b6109c4610b81565b73ffffffffffffffffffffffffffffffffffffffff166109e2610727565b73ffffffffffffffffffffffffffffffffffffffff1614610a38576040517f08c379a0000000000000000000000000000000000000000000000000000000008152600401610a2f90611d03565b60405180910390fd5b600073ffffffffffffffffffffffffffffffffffffffff168173ffffffffffffffffffffffffffffffffffffffff161415610aa8576040517f08c379a0000000000000000000000000000000000000000000000000000000008152600401610a9f90611c83565b60405180910390fd5b610ab18161148e565b50565b610abf838383610b6e565b600073ffffffffffffffffffffffffffffffffffffffff168373ffffffffffffffffffffffffffffffffffffffff161415610b0a57610afd826115aa565b610b056115fd565b610b69565b600073ffffffffffffffffffffffffffffffffffffffff168273ffffffffffffffffffffffffffffffffffffffff161415610b5557610b48836115aa565b610b506115fd565b610b68565b610b5e836115aa565b610b67826115aa565b5b5b505050565b505050565b600081600001549050919050565b600033905090565b600073ffffffffffffffffffffffffffffffffffffffff168373ffffffffffffffffffffffffffffffffffffffff161415610bf9576040517f08c379a0000000000000000000000000000000000000000000000000000000008152600401610bf090611d63565b60405180910390fd5b600073ffffffffffffffffffffffffffffffffffffffff168273ffffffffffffffffffffffffffffffffffffffff161415610c69576040517f08c379a0000000000000000000000000000000000000000000000000000000008152600401610c6090611ca3565b60405180910390fd5b80600160008573ffffffffffffffffffffffffffffffffffffffff1673ffffffffffffffffffffffffffffffffffffffff16815260200190815260200160002060008473ffffffffffffffffffffffffffffffffffffffff1673ffffffffffffffffffffffffffffffffffffffff168152602001908152602001600020819055508173ffffffffffffffffffffffffffffffffffffffff168373ffffffffffffffffffffffffffffffffffffffff167f8c5be1e5ebec7d5bd14f71427d1e84f3dd0314c0f7b2291e5b200ac8c7c3b92583604051610d479190611de3565b60405180910390a3505050565b6000610d608484610935565b90507fffffffffffffffffffffffffffffffffffffffffffffffffffffffffffffffff8114610dda5781811015610dcc576040517f08c379a0000000000000000000000000000000000000000000000000000000008152600401610dc390611cc3565b60405180910390fd5b610dd98484848403610b89565b5b50505050565b600073ffffffffffffffffffffffffffffffffffffffff168373ffffffffffffffffffffffffffffffffffffffff161415610e50576040517f08c379a0000000000000000000000000000000000000000000000000000000008152600401610e4790611d43565b60405180910390fd5b600073ffffffffffffffffffffffffffffffffffffffff168273ffffffffffffffffffffffffffffffffffffffff161415610ec0576040517f08c379a0000000000000000000000000000000000000000000000000000000008152600401610eb790611c43565b60405180910390fd5b610ecb838383611611565b60008060008573ffffffffffffffffffffffffffffffffffffffff1673ffffffffffffffffffffffffffffffffffffffff16815260200190815260200160002054905081811015610f51576040517f08c379a0000000000000000000000000000000000000000000000000000000008152600401610f4890611ce3565b60405180910390fd5b8181036000808673ffffffffffffffffffffffffffffffffffffffff1673ffffffffffffffffffffffffffffffffffffffff16815260200190815260200160002081905550816000808573ffffffffffffffffffffffffffffffffffffffff1673ffffffffffffffffffffffffffffffffffffffff1681526020019081526020016000206000828254610fe49190611e35565b925050819055508273ffffffffffffffffffffffffffffffffffffffff168473ffffffffffffffffffffffffffffffffffffffff167fddf252ad1be2c89b69c2b068fc378daa952ba7f163c4a11628f55a4df523b3ef846040516110489190611de3565b60405180910390a361105b848484611621565b50505050565b600073ffffffffffffffffffffffffffffffffffffffff168273ffffffffffffffffffffffffffffffffffffffff1614156110d1576040517f08c379a00000000000000000000000000000000000000000000000000000000081526004016110c890611dc3565b60405180910390fd5b6110dd60008383611611565b80600260008282546110ef9190611e35565b92505081905550806000808473ffffffffffffffffffffffffffffffffffffffff1673ffffffffffffffffffffffffffffffffffffffff16815260200190815260200160002060008282546111449190611e35565b925050819055508173ffffffffffffffffffffffffffffffffffffffff16600073ffffffffffffffffffffffffffffffffffffffff167fddf252ad1be2c89b69c2b068fc378daa952ba7f163c4a11628f55a4df523b3ef836040516111a99190611de3565b60405180910390a36111bd60008383611621565b5050565b600073ffffffffffffffffffffffffffffffffffffffff168273ffffffffffffffffffffffffffffffffffffffff161415611231576040517f08c379a000000000000000000000000000000000000000000000000000000000815260040161122890611d23565b60405180910390fd5b61123d82600083611611565b60008060008473ffffffffffffffffffffffffffffffffffffffff1673ffffffffffffffffffffffffffffffffffffffff168152602001908152602001600020549050818110156112c3576040517f08c379a00000000000000000000000000000000000000000000000000000000081526004016112ba90611c63565b60405180910390fd5b8181036000808573ffffffffffffffffffffffffffffffffffffffff1673ffffffffffffffffffffffffffffffffffffffff16815260200190815260200160002081905550816002600082825461131a9190611ebc565b92505081905550600073ffffffffffffffffffffffffffffffffffffffff168373ffffffffffffffffffffffffffffffffffffffff167fddf252ad1be2c89b69c2b068fc378daa952ba7f163c4a11628f55a4df523b3ef8460405161137f9190611de3565b60405180910390a361139383600084611621565b505050565b600080600084116113de576040517f08c379a00000000000000000000000000000000000000000000000000000000081526004016113d590611d83565b60405180910390fd5b6113e6611626565b841115611428576040517f08c379a000000000000000000000000000000000000000000000000000000000815260040161141f90611c23565b60405180910390fd5b6000611440858560000161163790919063ffffffff16565b9050836000018054905081141561145e576000809250925050611487565b600184600101828154811061147657611475612037565b5b906000526020600020015492509250505b9250929050565b6000600960009054906101000a900473ffffffffffffffffffffffffffffffffffffffff16905081600960006101000a81548173ffffffffffffffffffffffffffffffffffffffff021916908373ffffffffffffffffffffffffffffffffffffffff1602179055508173ffffffffffffffffffffffffffffffffffffffff168173ffffffffffffffffffffffffffffffffffffffff167f8be0079c531659141344cd1fd0a4f28419497f9722a3daafe3b4186f6b6457e060405160405180910390a35050565b60006115606008611711565b600061156a611626565b90507f8030e83b04d87bef53480e26263266d6ca66863aa8506aca6f2559d18aa1cb678160405161159b9190611de3565b60405180910390a18091505090565b6115fa600560008373ffffffffffffffffffffffffffffffffffffffff1673ffffffffffffffffffffffffffffffffffffffff1681526020019081526020016000206115f583610637565b611727565b50565b61160f600661160a6104b0565b611727565b565b61161c838383610ab4565b505050565b505050565b60006116326008610b73565b905090565b6000808380549050141561164e576000905061170b565b600080848054905090505b808210156116b257600061166d83836117a2565b90508486828154811061168357611682612037565b5b9060005260206000200154111561169c578091506116ac565b6001816116a99190611e35565b92505b50611659565b6000821180156116ea575083856001846116cc9190611ebc565b815481106116dd576116dc612037565b5b9060005260206000200154145b15611705576001826116fc9190611ebc565b9250505061170b565b81925050505b92915050565b6001816000016000828254019250508190555050565b6000611731611626565b905080611740846000016117c8565b101561179d5782600001819080600181540180825580915050600190039060005260206000200160009091909190915055826001018290806001815401808255809150506001900390600052602060002001600090919091909150555b505050565b600060028284186117b39190611e8b565b8284166117c09190611e35565b905092915050565b600080828054905014156117df5760009050611810565b81600183805490506117f19190611ebc565b8154811061180257611801612037565b5b906000526020600020015490505b919050565b60008135905061182481612410565b92915050565b60008135905061183981612427565b92915050565b60006020828403121561185557611854612066565b5b600061186384828501611815565b91505092915050565b6000806040838503121561188357611882612066565b5b600061189185828601611815565b92505060206118a285828601611815565b9150509250929050565b6000806000606084860312156118c5576118c4612066565b5b60006118d386828701611815565b93505060206118e486828701611815565b92505060406118f58682870161182a565b9150509250925092565b6000806040838503121561191657611915612066565b5b600061192485828601611815565b92505060206119358582860161182a565b9150509250929050565b60006020828403121561195557611954612066565b5b60006119638482850161182a565b91505092915050565b61197581611ef0565b82525050565b61198481611f02565b82525050565b600061199582611e19565b61199f8185611e24565b93506119af818560208601611f45565b6119b88161206b565b840191505092915050565b60006119d0601d83611e24565b91506119db8261207c565b602082019050919050565b60006119f3602383611e24565b91506119fe826120a5565b604082019050919050565b6000611a16602283611e24565b9150611a21826120f4565b604082019050919050565b6000611a39602683611e24565b9150611a4482612143565b604082019050919050565b6000611a5c602283611e24565b9150611a6782612192565b604082019050919050565b6000611a7f601d83611e24565b9150611a8a826121e1565b602082019050919050565b6000611aa2602683611e24565b9150611aad8261220a565b604082019050919050565b6000611ac5602083611e24565b9150611ad082612259565b602082019050919050565b6000611ae8602183611e24565b9150611af382612282565b604082019050919050565b6000611b0b602583611e24565b9150611b16826122d1565b604082019050919050565b6000611b2e602483611e24565b9150611b3982612320565b604082019050919050565b6000611b51601683611e24565b9150611b5c8261236f565b602082019050919050565b6000611b74602583611e24565b9150611b7f82612398565b604082019050919050565b6000611b97601f83611e24565b9150611ba2826123e7565b602082019050919050565b611bb681611f2e565b82525050565b611bc581611f38565b82525050565b6000602082019050611be0600083018461196c565b92915050565b6000602082019050611bfb600083018461197b565b92915050565b60006020820190508181036000830152611c1b818461198a565b905092915050565b60006020820190508181036000830152611c3c816119c3565b9050919050565b60006020820190508181036000830152611c5c816119e6565b9050919050565b60006020820190508181036000830152611c7c81611a09565b9050919050565b60006020820190508181036000830152611c9c81611a2c565b9050919050565b60006020820190508181036000830152611cbc81611a4f565b9050919050565b60006020820190508181036000830152611cdc81611a72565b9050919050565b60006020820190508181036000830152611cfc81611a95565b9050919050565b60006020820190508181036000830152611d1c81611ab8565b9050919050565b60006020820190508181036000830152611d3c81611adb565b9050919050565b60006020820190508181036000830152611d5c81611afe565b9050919050565b60006020820190508181036000830152611d7c81611b21565b9050919050565b60006020820190508181036000830152611d9c81611b44565b9050919050565b60006020820190508181036000830152611dbc81611b67565b9050919050565b60006020820190508181036000830152611ddc81611b8a565b9050919050565b6000602082019050611df86000830184611bad565b92915050565b6000602082019050611e136000830184611bbc565b92915050565b600081519050919050565b600082825260208201905092915050565b6000611e4082611f2e565b9150611e4b83611f2e565b9250827fffffffffffffffffffffffffffffffffffffffffffffffffffffffffffffffff03821115611e8057611e7f611faa565b5b828201905092915050565b6000611e9682611f2e565b9150611ea183611f2e565b925082611eb157611eb0611fd9565b5b828204905092915050565b6000611ec782611f2e565b9150611ed283611f2e565b925082821015611ee557611ee4611faa565b5b828203905092915050565b6000611efb82611f0e565b9050919050565b60008115159050919050565b600073ffffffffffffffffffffffffffffffffffffffff82169050919050565b6000819050919050565b600060ff82169050919050565b60005b83811015611f63578082015181840152602081019050611f48565b83811115611f72576000848401525b50505050565b60006002820490506001821680611f9057607f821691505b60208210811415611fa457611fa3612008565b5b50919050565b7f4e487b7100000000000000000000000000000000000000000000000000000000600052601160045260246000fd5b7f4e487b7100000000000000000000000000000000000000000000000000000000600052601260045260246000fd5b7f4e487b7100000000000000000000000000000000000000000000000000000000600052602260045260246000fd5b7f4e487b7100000000000000000000000000000000000000000000000000000000600052603260045260246000fd5b600080fd5b6000601f19601f8301169050919050565b7f4552433230536e617073686f743a206e6f6e6578697374656e74206964000000600082015250565b7f45524332303a207472616e7366657220746f20746865207a65726f206164647260008201527f6573730000000000000000000000000000000000000000000000000000000000602082015250565b7f45524332303a206275726e20616d6f756e7420657863656564732062616c616e60008201527f6365000000000000000000000000000000000000000000000000000000000000602082015250565b7f4f776e61626c653a206e6577206f776e657220697320746865207a65726f206160008201527f6464726573730000000000000000000000000000000000000000000000000000602082015250565b7f45524332303a20617070726f766520746f20746865207a65726f20616464726560008201527f7373000000000000000000000000000000000000000000000000000000000000602082015250565b7f45524332303a20696e73756666696369656e7420616c6c6f77616e6365000000600082015250565b7f45524332303a207472616e7366657220616d6f756e742065786365656473206260008201527f616c616e63650000000000000000000000000000000000000000000000000000602082015250565b7f4f776e61626c653a2063616c6c6572206973206e6f7420746865206f776e6572600082015250565b7f45524332303a206275726e2066726f6d20746865207a65726f2061646472657360008201527f7300000000000000000000000000000000000000000000000000000000000000602082015250565b7f45524332303a207472616e736665722066726f6d20746865207a65726f20616460008201527f6472657373000000000000000000000000000000000000000000000000000000602082015250565b7f45524332303a20617070726f76652066726f6d20746865207a65726f2061646460008201527f7265737300000000000000000000000000000000000000000000000000000000602082015250565b7f4552433230536e617073686f743a206964206973203000000000000000000000600082015250565b7f45524332303a2064656372656173656420616c6c6f77616e63652062656c6f7760008201527f207a65726f000000000000000000000000000000000000000000000000000000602082015250565b7f45524332303a206d696e7420746f20746865207a65726f206164647265737300600082015250565b61241981611ef0565b811461242457600080fd5b50565b61243081611f2e565b811461243b57600080fd5b5056fea2646970667358221220ce01fcaaf12c824d16c2946270719a2eb336b784246aabec30f3cf122ffa7c0d64736f6c63430008070033",
					"opcodes": "PUSH1 0x80 PUSH1 0x40 MSTORE CALLVALUE DUP1 ISZERO PUSH3 0x11 JUMPI PUSH1 0x0 DUP1 REVERT JUMPDEST POP PUSH1 0x40 MLOAD DUP1 PUSH1 0x40 ADD PUSH1 0x40 MSTORE DUP1 PUSH1 0x7 DUP2 MSTORE PUSH1 0x20 ADD PUSH32 0x4D79546F6B656E00000000000000000000000000000000000000000000000000 DUP2 MSTORE POP PUSH1 0x40 MLOAD DUP1 PUSH1 0x40 ADD PUSH1 0x40 MSTORE DUP1 PUSH1 0x3 DUP2 MSTORE PUSH1 0x20 ADD PUSH32 0x4D544B0000000000000000000000000000000000000000000000000000000000 DUP2 MSTORE POP DUP2 PUSH1 0x3 SWAP1 DUP1 MLOAD SWAP1 PUSH1 0x20 ADD SWAP1 PUSH3 0x96 SWAP3 SWAP2 SWAP1 PUSH3 0x66F JUMP JUMPDEST POP DUP1 PUSH1 0x4 SWAP1 DUP1 MLOAD SWAP1 PUSH1 0x20 ADD SWAP1 PUSH3 0xAF SWAP3 SWAP2 SWAP1 PUSH3 0x66F JUMP JUMPDEST POP POP POP PUSH3 0xD2 PUSH3 0xC6 PUSH3 0x118 PUSH1 0x20 SHL PUSH1 0x20 SHR JUMP JUMPDEST PUSH3 0x120 PUSH1 0x20 SHL PUSH1 0x20 SHR JUMP JUMPDEST PUSH3 0x112 CALLER PUSH3 0xE7 PUSH3 0x1E6 PUSH1 0x20 SHL PUSH1 0x20 SHR JUMP JUMPDEST PUSH1 0xA PUSH3 0xF5 SWAP2 SWAP1 PUSH3 0x85F JUMP JUMPDEST PUSH4 0x3B9ACA00 PUSH3 0x106 SWAP2 SWAP1 PUSH3 0x99C JUMP JUMPDEST PUSH3 0x1EF PUSH1 0x20 SHL PUSH1 0x20 SHR JUMP JUMPDEST PUSH3 0xB48 JUMP JUMPDEST PUSH1 0x0 CALLER SWAP1 POP SWAP1 JUMP JUMPDEST PUSH1 0x0 PUSH1 0x9 PUSH1 0x0 SWAP1 SLOAD SWAP1 PUSH2 0x100 EXP SWAP1 DIV PUSH20 0xFFFFFFFFFFFFFFFFFFFFFFFFFFFFFFFFFFFFFFFF AND SWAP1 POP DUP2 PUSH1 0x9 PUSH1 0x0 PUSH2 0x100 EXP DUP2 SLOAD DUP2 PUSH20 0xFFFFFFFFFFFFFFFFFFFFFFFFFFFFFFFFFFFFFFFF MUL NOT AND SWAP1 DUP4 PUSH20 0xFFFFFFFFFFFFFFFFFFFFFFFFFFFFFFFFFFFFFFFF AND MUL OR SWAP1 SSTORE POP DUP2 PUSH20 0xFFFFFFFFFFFFFFFFFFFFFFFFFFFFFFFFFFFFFFFF AND DUP2 PUSH20 0xFFFFFFFFFFFFFFFFFFFFFFFFFFFFFFFFFFFFFFFF AND PUSH32 0x8BE0079C531659141344CD1FD0A4F28419497F9722A3DAAFE3B4186F6B6457E0 PUSH1 0x40 MLOAD PUSH1 0x40 MLOAD DUP1 SWAP2 SUB SWAP1 LOG3 POP POP JUMP JUMPDEST PUSH1 0x0 PUSH1 0x12 SWAP1 POP SWAP1 JUMP JUMPDEST PUSH1 0x0 PUSH20 0xFFFFFFFFFFFFFFFFFFFFFFFFFFFFFFFFFFFFFFFF AND DUP3 PUSH20 0xFFFFFFFFFFFFFFFFFFFFFFFFFFFFFFFFFFFFFFFF AND EQ ISZERO PUSH3 0x262 JUMPI PUSH1 0x40 MLOAD PUSH32 0x8C379A000000000000000000000000000000000000000000000000000000000 DUP2 MSTORE PUSH1 0x4 ADD PUSH3 0x259 SWAP1 PUSH3 0x757 JUMP JUMPDEST PUSH1 0x40 MLOAD DUP1 SWAP2 SUB SWAP1 REVERT JUMPDEST PUSH3 0x276 PUSH1 0x0 DUP4 DUP4 PUSH3 0x368 PUSH1 0x20 SHL PUSH1 0x20 SHR JUMP JUMPDEST DUP1 PUSH1 0x2 PUSH1 0x0 DUP3 DUP3 SLOAD PUSH3 0x28A SWAP2 SWAP1 PUSH3 0x7A7 JUMP JUMPDEST SWAP3 POP POP DUP2 SWAP1 SSTORE POP DUP1 PUSH1 0x0 DUP1 DUP5 PUSH20 0xFFFFFFFFFFFFFFFFFFFFFFFFFFFFFFFFFFFFFFFF AND PUSH20 0xFFFFFFFFFFFFFFFFFFFFFFFFFFFFFFFFFFFFFFFF AND DUP2 MSTORE PUSH1 0x20 ADD SWAP1 DUP2 MSTORE PUSH1 0x20 ADD PUSH1 0x0 KECCAK256 PUSH1 0x0 DUP3 DUP3 SLOAD PUSH3 0x2E1 SWAP2 SWAP1 PUSH3 0x7A7 JUMP JUMPDEST SWAP3 POP POP DUP2 SWAP1 SSTORE POP DUP2 PUSH20 0xFFFFFFFFFFFFFFFFFFFFFFFFFFFFFFFFFFFFFFFF AND PUSH1 0x0 PUSH20 0xFFFFFFFFFFFFFFFFFFFFFFFFFFFFFFFFFFFFFFFF AND PUSH32 0xDDF252AD1BE2C89B69C2B068FC378DAA952BA7F163C4A11628F55A4DF523B3EF DUP4 PUSH1 0x40 MLOAD PUSH3 0x348 SWAP2 SWAP1 PUSH3 0x779 JUMP JUMPDEST PUSH1 0x40 MLOAD DUP1 SWAP2 SUB SWAP1 LOG3 PUSH3 0x364 PUSH1 0x0 DUP4 DUP4 PUSH3 0x385 PUSH1 0x20 SHL PUSH1 0x20 SHR JUMP JUMPDEST POP POP JUMP JUMPDEST PUSH3 0x380 DUP4 DUP4 DUP4 PUSH3 0x38A PUSH1 0x20 SHL PUSH3 0xAB4 OR PUSH1 0x20 SHR JUMP JUMPDEST POP POP POP JUMP JUMPDEST POP POP POP JUMP JUMPDEST PUSH3 0x3A2 DUP4 DUP4 DUP4 PUSH3 0x485 PUSH1 0x20 SHL PUSH3 0xB6E OR PUSH1 0x20 SHR JUMP JUMPDEST PUSH1 0x0 PUSH20 0xFFFFFFFFFFFFFFFFFFFFFFFFFFFFFFFFFFFFFFFF AND DUP4 PUSH20 0xFFFFFFFFFFFFFFFFFFFFFFFFFFFFFFFFFFFFFFFF AND EQ ISZERO PUSH3 0x3FF JUMPI PUSH3 0x3E9 DUP3 PUSH3 0x48A PUSH1 0x20 SHL PUSH1 0x20 SHR JUMP JUMPDEST PUSH3 0x3F9 PUSH3 0x4ED PUSH1 0x20 SHL PUSH1 0x20 SHR JUMP JUMPDEST PUSH3 0x480 JUMP JUMPDEST PUSH1 0x0 PUSH20 0xFFFFFFFFFFFFFFFFFFFFFFFFFFFFFFFFFFFFFFFF AND DUP3 PUSH20 0xFFFFFFFFFFFFFFFFFFFFFFFFFFFFFFFFFFFFFFFF AND EQ ISZERO PUSH3 0x45C JUMPI PUSH3 0x446 DUP4 PUSH3 0x48A PUSH1 0x20 SHL PUSH1 0x20 SHR JUMP JUMPDEST PUSH3 0x456 PUSH3 0x4ED PUSH1 0x20 SHL PUSH1 0x20 SHR JUMP JUMPDEST PUSH3 0x47F JUMP JUMPDEST PUSH3 0x46D DUP4 PUSH3 0x48A PUSH1 0x20 SHL PUSH1 0x20 SHR JUMP JUMPDEST PUSH3 0x47E DUP3 PUSH3 0x48A PUSH1 0x20 SHL PUSH1 0x20 SHR JUMP JUMPDEST JUMPDEST JUMPDEST POP POP POP JUMP JUMPDEST POP POP POP JUMP JUMPDEST PUSH3 0x4EA PUSH1 0x5 PUSH1 0x0 DUP4 PUSH20 0xFFFFFFFFFFFFFFFFFFFFFFFFFFFFFFFFFFFFFFFF AND PUSH20 0xFFFFFFFFFFFFFFFFFFFFFFFFFFFFFFFFFFFFFFFF AND DUP2 MSTORE PUSH1 0x20 ADD SWAP1 DUP2 MSTORE PUSH1 0x20 ADD PUSH1 0x0 KECCAK256 PUSH3 0x4DE DUP4 PUSH3 0x511 PUSH1 0x20 SHL PUSH1 0x20 SHR JUMP JUMPDEST PUSH3 0x559 PUSH1 0x20 SHL PUSH1 0x20 SHR JUMP JUMPDEST POP JUMP JUMPDEST PUSH3 0x50F PUSH1 0x6 PUSH3 0x503 PUSH3 0x5E5 PUSH1 0x20 SHL PUSH1 0x20 SHR JUMP JUMPDEST PUSH3 0x559 PUSH1 0x20 SHL PUSH1 0x20 SHR JUMP JUMPDEST JUMP JUMPDEST PUSH1 0x0 DUP1 PUSH1 0x0 DUP4 PUSH20 0xFFFFFFFFFFFFFFFFFFFFFFFFFFFFFFFFFFFFFFFF AND PUSH20 0xFFFFFFFFFFFFFFFFFFFFFFFFFFFFFFFFFFFFFFFF AND DUP2 MSTORE PUSH1 0x20 ADD SWAP1 DUP2 MSTORE PUSH1 0x20 ADD PUSH1 0x0 KECCAK256 SLOAD SWAP1 POP SWAP2 SWAP1 POP JUMP JUMPDEST PUSH1 0x0 PUSH3 0x56B PUSH3 0x5EF PUSH1 0x20 SHL PUSH1 0x20 SHR JUMP JUMPDEST SWAP1 POP DUP1 PUSH3 0x582 DUP5 PUSH1 0x0 ADD PUSH3 0x60D PUSH1 0x20 SHL PUSH1 0x20 SHR JUMP JUMPDEST LT ISZERO PUSH3 0x5E0 JUMPI DUP3 PUSH1 0x0 ADD DUP2 SWAP1 DUP1 PUSH1 0x1 DUP2 SLOAD ADD DUP1 DUP3 SSTORE DUP1 SWAP2 POP POP PUSH1 0x1 SWAP1 SUB SWAP1 PUSH1 0x0 MSTORE PUSH1 0x20 PUSH1 0x0 KECCAK256 ADD PUSH1 0x0 SWAP1 SWAP2 SWAP1 SWAP2 SWAP1 SWAP2 POP SSTORE DUP3 PUSH1 0x1 ADD DUP3 SWAP1 DUP1 PUSH1 0x1 DUP2 SLOAD ADD DUP1 DUP3 SSTORE DUP1 SWAP2 POP POP PUSH1 0x1 SWAP1 SUB SWAP1 PUSH1 0x0 MSTORE PUSH1 0x20 PUSH1 0x0 KECCAK256 ADD PUSH1 0x0 SWAP1 SWAP2 SWAP1 SWAP2 SWAP1 SWAP2 POP SSTORE JUMPDEST POP POP POP JUMP JUMPDEST PUSH1 0x0 PUSH1 0x2 SLOAD SWAP1 POP SWAP1 JUMP JUMPDEST PUSH1 0x0 PUSH3 0x608 PUSH1 0x8 PUSH3 0x661 PUSH1 0x20 SHL PUSH3 0xB73 OR PUSH1 0x20 SHR JUMP JUMPDEST SWAP1 POP SWAP1 JUMP JUMPDEST PUSH1 0x0 DUP1 DUP3 DUP1 SLOAD SWAP1 POP EQ ISZERO PUSH3 0x626 JUMPI PUSH1 0x0 SWAP1 POP PUSH3 0x65C JUMP JUMPDEST DUP2 PUSH1 0x1 DUP4 DUP1 SLOAD SWAP1 POP PUSH3 0x63A SWAP2 SWAP1 PUSH3 0x9FD JUMP JUMPDEST DUP2 SLOAD DUP2 LT PUSH3 0x64E JUMPI PUSH3 0x64D PUSH3 0xAE3 JUMP JUMPDEST JUMPDEST SWAP1 PUSH1 0x0 MSTORE PUSH1 0x20 PUSH1 0x0 KECCAK256 ADD SLOAD SWAP1 POP JUMPDEST SWAP2 SWAP1 POP JUMP JUMPDEST PUSH1 0x0 DUP2 PUSH1 0x0 ADD SLOAD SWAP1 POP SWAP2 SWAP1 POP JUMP JUMPDEST DUP3 DUP1 SLOAD PUSH3 0x67D SWAP1 PUSH3 0xA4F JUMP JUMPDEST SWAP1 PUSH1 0x0 MSTORE PUSH1 0x20 PUSH1 0x0 KECCAK256 SWAP1 PUSH1 0x1F ADD PUSH1 0x20 SWAP1 DIV DUP2 ADD SWAP3 DUP3 PUSH3 0x6A1 JUMPI PUSH1 0x0 DUP6 SSTORE PUSH3 0x6ED JUMP JUMPDEST DUP3 PUSH1 0x1F LT PUSH3 0x6BC JUMPI DUP1 MLOAD PUSH1 0xFF NOT AND DUP4 DUP1 ADD OR DUP6 SSTORE PUSH3 0x6ED JUMP JUMPDEST DUP3 DUP1 ADD PUSH1 0x1 ADD DUP6 SSTORE DUP3 ISZERO PUSH3 0x6ED JUMPI SWAP2 DUP3 ADD JUMPDEST DUP3 DUP2 GT ISZERO PUSH3 0x6EC JUMPI DUP3 MLOAD DUP3 SSTORE SWAP2 PUSH1 0x20 ADD SWAP2 SWAP1 PUSH1 0x1 ADD SWAP1 PUSH3 0x6CF JUMP JUMPDEST JUMPDEST POP SWAP1 POP PUSH3 0x6FC SWAP2 SWAP1 PUSH3 0x700 JUMP JUMPDEST POP SWAP1 JUMP JUMPDEST JUMPDEST DUP1 DUP3 GT ISZERO PUSH3 0x71B JUMPI PUSH1 0x0 DUP2 PUSH1 0x0 SWAP1 SSTORE POP PUSH1 0x1 ADD PUSH3 0x701 JUMP JUMPDEST POP SWAP1 JUMP JUMPDEST PUSH1 0x0 PUSH3 0x72E PUSH1 0x1F DUP4 PUSH3 0x796 JUMP JUMPDEST SWAP2 POP PUSH3 0x73B DUP3 PUSH3 0xB1F JUMP JUMPDEST PUSH1 0x20 DUP3 ADD SWAP1 POP SWAP2 SWAP1 POP JUMP JUMPDEST PUSH3 0x751 DUP2 PUSH3 0xA38 JUMP JUMPDEST DUP3 MSTORE POP POP JUMP JUMPDEST PUSH1 0x0 PUSH1 0x20 DUP3 ADD SWAP1 POP DUP2 DUP2 SUB PUSH1 0x0 DUP4 ADD MSTORE PUSH3 0x772 DUP2 PUSH3 0x71F JUMP JUMPDEST SWAP1 POP SWAP2 SWAP1 POP JUMP JUMPDEST PUSH1 0x0 PUSH1 0x20 DUP3 ADD SWAP1 POP PUSH3 0x790 PUSH1 0x0 DUP4 ADD DUP5 PUSH3 0x746 JUMP JUMPDEST SWAP3 SWAP2 POP POP JUMP JUMPDEST PUSH1 0x0 DUP3 DUP3 MSTORE PUSH1 0x20 DUP3 ADD SWAP1 POP SWAP3 SWAP2 POP POP JUMP JUMPDEST PUSH1 0x0 PUSH3 0x7B4 DUP3 PUSH3 0xA38 JUMP JUMPDEST SWAP2 POP PUSH3 0x7C1 DUP4 PUSH3 0xA38 JUMP JUMPDEST SWAP3 POP DUP3 PUSH32 0xFFFFFFFFFFFFFFFFFFFFFFFFFFFFFFFFFFFFFFFFFFFFFFFFFFFFFFFFFFFFFFFF SUB DUP3 GT ISZERO PUSH3 0x7F9 JUMPI PUSH3 0x7F8 PUSH3 0xA85 JUMP JUMPDEST JUMPDEST DUP3 DUP3 ADD SWAP1 POP SWAP3 SWAP2 POP POP JUMP JUMPDEST PUSH1 0x0 DUP1 DUP3 SWAP2 POP DUP4 SWAP1 POP JUMPDEST PUSH1 0x1 DUP6 GT ISZERO PUSH3 0x856 JUMPI DUP1 DUP7 DIV DUP2 GT ISZERO PUSH3 0x82E JUMPI PUSH3 0x82D PUSH3 0xA85 JUMP JUMPDEST JUMPDEST PUSH1 0x1 DUP6 AND ISZERO PUSH3 0x83E JUMPI DUP1 DUP3 MUL SWAP2 POP JUMPDEST DUP1 DUP2 MUL SWAP1 POP PUSH3 0x84E DUP6 PUSH3 0xB12 JUMP JUMPDEST SWAP5 POP PUSH3 0x80E JUMP JUMPDEST SWAP5 POP SWAP5 SWAP3 POP POP POP JUMP JUMPDEST PUSH1 0x0 PUSH3 0x86C DUP3 PUSH3 0xA38 JUMP JUMPDEST SWAP2 POP PUSH3 0x879 DUP4 PUSH3 0xA42 JUMP JUMPDEST SWAP3 POP PUSH3 0x8A8 PUSH32 0xFFFFFFFFFFFFFFFFFFFFFFFFFFFFFFFFFFFFFFFFFFFFFFFFFFFFFFFFFFFFFFFF DUP5 DUP5 PUSH3 0x8B0 JUMP JUMPDEST SWAP1 POP SWAP3 SWAP2 POP POP JUMP JUMPDEST PUSH1 0x0 DUP3 PUSH3 0x8C2 JUMPI PUSH1 0x1 SWAP1 POP PUSH3 0x995 JUMP JUMPDEST DUP2 PUSH3 0x8D2 JUMPI PUSH1 0x0 SWAP1 POP PUSH3 0x995 JUMP JUMPDEST DUP2 PUSH1 0x1 DUP2 EQ PUSH3 0x8EB JUMPI PUSH1 0x2 DUP2 EQ PUSH3 0x8F6 JUMPI PUSH3 0x92C JUMP JUMPDEST PUSH1 0x1 SWAP2 POP POP PUSH3 0x995 JUMP JUMPDEST PUSH1 0xFF DUP5 GT ISZERO PUSH3 0x90B JUMPI PUSH3 0x90A PUSH3 0xA85 JUMP JUMPDEST JUMPDEST DUP4 PUSH1 0x2 EXP SWAP2 POP DUP5 DUP3 GT ISZERO PUSH3 0x925 JUMPI PUSH3 0x924 PUSH3 0xA85 JUMP JUMPDEST JUMPDEST POP PUSH3 0x995 JUMP JUMPDEST POP PUSH1 0x20 DUP4 LT PUSH2 0x133 DUP4 LT AND PUSH1 0x4E DUP5 LT PUSH1 0xB DUP5 LT AND OR ISZERO PUSH3 0x966 JUMPI DUP3 DUP3 EXP SWAP1 POP DUP4 DUP2 GT ISZERO PUSH3 0x960 JUMPI PUSH3 0x95F PUSH3 0xA85 JUMP JUMPDEST JUMPDEST PUSH3 0x995 JUMP JUMPDEST PUSH3 0x975 DUP5 DUP5 DUP5 PUSH1 0x1 PUSH3 0x804 JUMP JUMPDEST SWAP3 POP SWAP1 POP DUP2 DUP5 DIV DUP2 GT ISZERO PUSH3 0x98F JUMPI PUSH3 0x98E PUSH3 0xA85 JUMP JUMPDEST JUMPDEST DUP2 DUP2 MUL SWAP1 POP JUMPDEST SWAP4 SWAP3 POP POP POP JUMP JUMPDEST PUSH1 0x0 PUSH3 0x9A9 DUP3 PUSH3 0xA38 JUMP JUMPDEST SWAP2 POP PUSH3 0x9B6 DUP4 PUSH3 0xA38 JUMP JUMPDEST SWAP3 POP DUP2 PUSH32 0xFFFFFFFFFFFFFFFFFFFFFFFFFFFFFFFFFFFFFFFFFFFFFFFFFFFFFFFFFFFFFFFF DIV DUP4 GT DUP3 ISZERO ISZERO AND ISZERO PUSH3 0x9F2 JUMPI PUSH3 0x9F1 PUSH3 0xA85 JUMP JUMPDEST JUMPDEST DUP3 DUP3 MUL SWAP1 POP SWAP3 SWAP2 POP POP JUMP JUMPDEST PUSH1 0x0 PUSH3 0xA0A DUP3 PUSH3 0xA38 JUMP JUMPDEST SWAP2 POP PUSH3 0xA17 DUP4 PUSH3 0xA38 JUMP JUMPDEST SWAP3 POP DUP3 DUP3 LT ISZERO PUSH3 0xA2D JUMPI PUSH3 0xA2C PUSH3 0xA85 JUMP JUMPDEST JUMPDEST DUP3 DUP3 SUB SWAP1 POP SWAP3 SWAP2 POP POP JUMP JUMPDEST PUSH1 0x0 DUP2 SWAP1 POP SWAP2 SWAP1 POP JUMP JUMPDEST PUSH1 0x0 PUSH1 0xFF DUP3 AND SWAP1 POP SWAP2 SWAP1 POP JUMP JUMPDEST PUSH1 0x0 PUSH1 0x2 DUP3 DIV SWAP1 POP PUSH1 0x1 DUP3 AND DUP1 PUSH3 0xA68 JUMPI PUSH1 0x7F DUP3 AND SWAP2 POP JUMPDEST PUSH1 0x20 DUP3 LT DUP2 EQ ISZERO PUSH3 0xA7F JUMPI PUSH3 0xA7E PUSH3 0xAB4 JUMP JUMPDEST JUMPDEST POP SWAP2 SWAP1 POP JUMP JUMPDEST PUSH32 0x4E487B7100000000000000000000000000000000000000000000000000000000 PUSH1 0x0 MSTORE PUSH1 0x11 PUSH1 0x4 MSTORE PUSH1 0x24 PUSH1 0x0 REVERT JUMPDEST PUSH32 0x4E487B7100000000000000000000000000000000000000000000000000000000 PUSH1 0x0 MSTORE PUSH1 0x22 PUSH1 0x4 MSTORE PUSH1 0x24 PUSH1 0x0 REVERT JUMPDEST PUSH32 0x4E487B7100000000000000000000000000000000000000000000000000000000 PUSH1 0x0 MSTORE PUSH1 0x32 PUSH1 0x4 MSTORE PUSH1 0x24 PUSH1 0x0 REVERT JUMPDEST PUSH1 0x0 DUP2 PUSH1 0x1 SHR SWAP1 POP SWAP2 SWAP1 POP JUMP JUMPDEST PUSH32 0x45524332303A206D696E7420746F20746865207A65726F206164647265737300 PUSH1 0x0 DUP3 ADD MSTORE POP JUMP JUMPDEST PUSH2 0x2474 DUP1 PUSH3 0xB58 PUSH1 0x0 CODECOPY PUSH1 0x0 RETURN INVALID PUSH1 0x80 PUSH1 0x40 MSTORE CALLVALUE DUP1 ISZERO PUSH2 0x10 JUMPI PUSH1 0x0 DUP1 REVERT JUMPDEST POP PUSH1 0x4 CALLDATASIZE LT PUSH2 0x12C JUMPI PUSH1 0x0 CALLDATALOAD PUSH1 0xE0 SHR DUP1 PUSH4 0x715018A6 GT PUSH2 0xAD JUMPI DUP1 PUSH4 0x981B24D0 GT PUSH2 0x71 JUMPI DUP1 PUSH4 0x981B24D0 EQ PUSH2 0x31F JUMPI DUP1 PUSH4 0xA457C2D7 EQ PUSH2 0x34F JUMPI DUP1 PUSH4 0xA9059CBB EQ PUSH2 0x37F JUMPI DUP1 PUSH4 0xDD62ED3E EQ PUSH2 0x3AF JUMPI DUP1 PUSH4 0xF2FDE38B EQ PUSH2 0x3DF JUMPI PUSH2 0x12C JUMP JUMPDEST DUP1 PUSH4 0x715018A6 EQ PUSH2 0x2B3 JUMPI DUP1 PUSH4 0x79CC6790 EQ PUSH2 0x2BD JUMPI DUP1 PUSH4 0x8DA5CB5B EQ PUSH2 0x2D9 JUMPI DUP1 PUSH4 0x95D89B41 EQ PUSH2 0x2F7 JUMPI DUP1 PUSH4 0x9711715A EQ PUSH2 0x315 JUMPI PUSH2 0x12C JUMP JUMPDEST DUP1 PUSH4 0x39509351 GT PUSH2 0xF4 JUMPI DUP1 PUSH4 0x39509351 EQ PUSH2 0x1EB JUMPI DUP1 PUSH4 0x40C10F19 EQ PUSH2 0x21B JUMPI DUP1 PUSH4 0x42966C68 EQ PUSH2 0x237 JUMPI DUP1 PUSH4 0x4EE2CD7E EQ PUSH2 0x253 JUMPI DUP1 PUSH4 0x70A08231 EQ PUSH2 0x283 JUMPI PUSH2 0x12C JUMP JUMPDEST DUP1 PUSH4 0x6FDDE03 EQ PUSH2 0x131 JUMPI DUP1 PUSH4 0x95EA7B3 EQ PUSH2 0x14F JUMPI DUP1 PUSH4 0x18160DDD EQ PUSH2 0x17F JUMPI DUP1 PUSH4 0x23B872DD EQ PUSH2 0x19D JUMPI DUP1 PUSH4 0x313CE567 EQ PUSH2 0x1CD JUMPI JUMPDEST PUSH1 0x0 DUP1 REVERT JUMPDEST PUSH2 0x139 PUSH2 0x3FB JUMP JUMPDEST PUSH1 0x40 MLOAD PUSH2 0x146 SWAP2 SWAP1 PUSH2 0x1C01 JUMP JUMPDEST PUSH1 0x40 MLOAD DUP1 SWAP2 SUB SWAP1 RETURN JUMPDEST PUSH2 0x169 PUSH1 0x4 DUP1 CALLDATASIZE SUB DUP2 ADD SWAP1 PUSH2 0x164 SWAP2 SWAP1 PUSH2 0x18FF JUMP JUMPDEST PUSH2 0x48D JUMP JUMPDEST PUSH1 0x40 MLOAD PUSH2 0x176 SWAP2 SWAP1 PUSH2 0x1BE6 JUMP JUMPDEST PUSH1 0x40 MLOAD DUP1 SWAP2 SUB SWAP1 RETURN JUMPDEST PUSH2 0x187 PUSH2 0x4B0 JUMP JUMPDEST PUSH1 0x40 MLOAD PUSH2 0x194 SWAP2 SWAP1 PUSH2 0x1DE3 JUMP JUMPDEST PUSH1 0x40 MLOAD DUP1 SWAP2 SUB SWAP1 RETURN JUMPDEST PUSH2 0x1B7 PUSH1 0x4 DUP1 CALLDATASIZE SUB DUP2 ADD SWAP1 PUSH2 0x1B2 SWAP2 SWAP1 PUSH2 0x18AC JUMP JUMPDEST PUSH2 0x4BA JUMP JUMPDEST PUSH1 0x40 MLOAD PUSH2 0x1C4 SWAP2 SWAP1 PUSH2 0x1BE6 JUMP JUMPDEST PUSH1 0x40 MLOAD DUP1 SWAP2 SUB SWAP1 RETURN JUMPDEST PUSH2 0x1D5 PUSH2 0x4E9 JUMP JUMPDEST PUSH1 0x40 MLOAD PUSH2 0x1E2 SWAP2 SWAP1 PUSH2 0x1DFE JUMP JUMPDEST PUSH1 0x40 MLOAD DUP1 SWAP2 SUB SWAP1 RETURN JUMPDEST PUSH2 0x205 PUSH1 0x4 DUP1 CALLDATASIZE SUB DUP2 ADD SWAP1 PUSH2 0x200 SWAP2 SWAP1 PUSH2 0x18FF JUMP JUMPDEST PUSH2 0x4F2 JUMP JUMPDEST PUSH1 0x40 MLOAD PUSH2 0x212 SWAP2 SWAP1 PUSH2 0x1BE6 JUMP JUMPDEST PUSH1 0x40 MLOAD DUP1 SWAP2 SUB SWAP1 RETURN JUMPDEST PUSH2 0x235 PUSH1 0x4 DUP1 CALLDATASIZE SUB DUP2 ADD SWAP1 PUSH2 0x230 SWAP2 SWAP1 PUSH2 0x18FF JUMP JUMPDEST PUSH2 0x529 JUMP JUMPDEST STOP JUMPDEST PUSH2 0x251 PUSH1 0x4 DUP1 CALLDATASIZE SUB DUP2 ADD SWAP1 PUSH2 0x24C SWAP2 SWAP1 PUSH2 0x193F JUMP JUMPDEST PUSH2 0x5B3 JUMP JUMPDEST STOP JUMPDEST PUSH2 0x26D PUSH1 0x4 DUP1 CALLDATASIZE SUB DUP2 ADD SWAP1 PUSH2 0x268 SWAP2 SWAP1 PUSH2 0x18FF JUMP JUMPDEST PUSH2 0x5C7 JUMP JUMPDEST PUSH1 0x40 MLOAD PUSH2 0x27A SWAP2 SWAP1 PUSH2 0x1DE3 JUMP JUMPDEST PUSH1 0x40 MLOAD DUP1 SWAP2 SUB SWAP1 RETURN JUMPDEST PUSH2 0x29D PUSH1 0x4 DUP1 CALLDATASIZE SUB DUP2 ADD SWAP1 PUSH2 0x298 SWAP2 SWAP1 PUSH2 0x183F JUMP JUMPDEST PUSH2 0x637 JUMP JUMPDEST PUSH1 0x40 MLOAD PUSH2 0x2AA SWAP2 SWAP1 PUSH2 0x1DE3 JUMP JUMPDEST PUSH1 0x40 MLOAD DUP1 SWAP2 SUB SWAP1 RETURN JUMPDEST PUSH2 0x2BB PUSH2 0x67F JUMP JUMPDEST STOP JUMPDEST PUSH2 0x2D7 PUSH1 0x4 DUP1 CALLDATASIZE SUB DUP2 ADD SWAP1 PUSH2 0x2D2 SWAP2 SWAP1 PUSH2 0x18FF JUMP JUMPDEST PUSH2 0x707 JUMP JUMPDEST STOP JUMPDEST PUSH2 0x2E1 PUSH2 0x727 JUMP JUMPDEST PUSH1 0x40 MLOAD PUSH2 0x2EE SWAP2 SWAP1 PUSH2 0x1BCB JUMP JUMPDEST PUSH1 0x40 MLOAD DUP1 SWAP2 SUB SWAP1 RETURN JUMPDEST PUSH2 0x2FF PUSH2 0x751 JUMP JUMPDEST PUSH1 0x40 MLOAD PUSH2 0x30C SWAP2 SWAP1 PUSH2 0x1C01 JUMP JUMPDEST PUSH1 0x40 MLOAD DUP1 SWAP2 SUB SWAP1 RETURN JUMPDEST PUSH2 0x31D PUSH2 0x7E3 JUMP JUMPDEST STOP JUMPDEST PUSH2 0x339 PUSH1 0x4 DUP1 CALLDATASIZE SUB DUP2 ADD SWAP1 PUSH2 0x334 SWAP2 SWAP1 PUSH2 0x193F JUMP JUMPDEST PUSH2 0x86A JUMP JUMPDEST PUSH1 0x40 MLOAD PUSH2 0x346 SWAP2 SWAP1 PUSH2 0x1DE3 JUMP JUMPDEST PUSH1 0x40 MLOAD DUP1 SWAP2 SUB SWAP1 RETURN JUMPDEST PUSH2 0x369 PUSH1 0x4 DUP1 CALLDATASIZE SUB DUP2 ADD SWAP1 PUSH2 0x364 SWAP2 SWAP1 PUSH2 0x18FF JUMP JUMPDEST PUSH2 0x89B JUMP JUMPDEST PUSH1 0x40 MLOAD PUSH2 0x376 SWAP2 SWAP1 PUSH2 0x1BE6 JUMP JUMPDEST PUSH1 0x40 MLOAD DUP1 SWAP2 SUB SWAP1 RETURN JUMPDEST PUSH2 0x399 PUSH1 0x4 DUP1 CALLDATASIZE SUB DUP2 ADD SWAP1 PUSH2 0x394 SWAP2 SWAP1 PUSH2 0x18FF JUMP JUMPDEST PUSH2 0x912 JUMP JUMPDEST PUSH1 0x40 MLOAD PUSH2 0x3A6 SWAP2 SWAP1 PUSH2 0x1BE6 JUMP JUMPDEST PUSH1 0x40 MLOAD DUP1 SWAP2 SUB SWAP1 RETURN JUMPDEST PUSH2 0x3C9 PUSH1 0x4 DUP1 CALLDATASIZE SUB DUP2 ADD SWAP1 PUSH2 0x3C4 SWAP2 SWAP1 PUSH2 0x186C JUMP JUMPDEST PUSH2 0x935 JUMP JUMPDEST PUSH1 0x40 MLOAD PUSH2 0x3D6 SWAP2 SWAP1 PUSH2 0x1DE3 JUMP JUMPDEST PUSH1 0x40 MLOAD DUP1 SWAP2 SUB SWAP1 RETURN JUMPDEST PUSH2 0x3F9 PUSH1 0x4 DUP1 CALLDATASIZE SUB DUP2 ADD SWAP1 PUSH2 0x3F4 SWAP2 SWAP1 PUSH2 0x183F JUMP JUMPDEST PUSH2 0x9BC JUMP JUMPDEST STOP JUMPDEST PUSH1 0x60 PUSH1 0x3 DUP1 SLOAD PUSH2 0x40A SWAP1 PUSH2 0x1F78 JUMP JUMPDEST DUP1 PUSH1 0x1F ADD PUSH1 0x20 DUP1 SWAP2 DIV MUL PUSH1 0x20 ADD PUSH1 0x40 MLOAD SWAP1 DUP2 ADD PUSH1 0x40 MSTORE DUP1 SWAP3 SWAP2 SWAP1 DUP2 DUP2 MSTORE PUSH1 0x20 ADD DUP3 DUP1 SLOAD PUSH2 0x436 SWAP1 PUSH2 0x1F78 JUMP JUMPDEST DUP1 ISZERO PUSH2 0x483 JUMPI DUP1 PUSH1 0x1F LT PUSH2 0x458 JUMPI PUSH2 0x100 DUP1 DUP4 SLOAD DIV MUL DUP4 MSTORE SWAP2 PUSH1 0x20 ADD SWAP2 PUSH2 0x483 JUMP JUMPDEST DUP3 ADD SWAP2 SWAP1 PUSH1 0x0 MSTORE PUSH1 0x20 PUSH1 0x0 KECCAK256 SWAP1 JUMPDEST DUP2 SLOAD DUP2 MSTORE SWAP1 PUSH1 0x1 ADD SWAP1 PUSH1 0x20 ADD DUP1 DUP4 GT PUSH2 0x466 JUMPI DUP3 SWAP1 SUB PUSH1 0x1F AND DUP3 ADD SWAP2 JUMPDEST POP POP POP POP POP SWAP1 POP SWAP1 JUMP JUMPDEST PUSH1 0x0 DUP1 PUSH2 0x498 PUSH2 0xB81 JUMP JUMPDEST SWAP1 POP PUSH2 0x4A5 DUP2 DUP6 DUP6 PUSH2 0xB89 JUMP JUMPDEST PUSH1 0x1 SWAP2 POP POP SWAP3 SWAP2 POP POP JUMP JUMPDEST PUSH1 0x0 PUSH1 0x2 SLOAD SWAP1 POP SWAP1 JUMP JUMPDEST PUSH1 0x0 DUP1 PUSH2 0x4C5 PUSH2 0xB81 JUMP JUMPDEST SWAP1 POP PUSH2 0x4D2 DUP6 DUP3 DUP6 PUSH2 0xD54 JUMP JUMPDEST PUSH2 0x4DD DUP6 DUP6 DUP6 PUSH2 0xDE0 JUMP JUMPDEST PUSH1 0x1 SWAP2 POP POP SWAP4 SWAP3 POP POP POP JUMP JUMPDEST PUSH1 0x0 PUSH1 0x12 SWAP1 POP SWAP1 JUMP JUMPDEST PUSH1 0x0 DUP1 PUSH2 0x4FD PUSH2 0xB81 JUMP JUMPDEST SWAP1 POP PUSH2 0x51E DUP2 DUP6 DUP6 PUSH2 0x50F DUP6 DUP10 PUSH2 0x935 JUMP JUMPDEST PUSH2 0x519 SWAP2 SWAP1 PUSH2 0x1E35 JUMP JUMPDEST PUSH2 0xB89 JUMP JUMPDEST PUSH1 0x1 SWAP2 POP POP SWAP3 SWAP2 POP POP JUMP JUMPDEST PUSH2 0x531 PUSH2 0xB81 JUMP JUMPDEST PUSH20 0xFFFFFFFFFFFFFFFFFFFFFFFFFFFFFFFFFFFFFFFF AND PUSH2 0x54F PUSH2 0x727 JUMP JUMPDEST PUSH20 0xFFFFFFFFFFFFFFFFFFFFFFFFFFFFFFFFFFFFFFFF AND EQ PUSH2 0x5A5 JUMPI PUSH1 0x40 MLOAD PUSH32 0x8C379A000000000000000000000000000000000000000000000000000000000 DUP2 MSTORE PUSH1 0x4 ADD PUSH2 0x59C SWAP1 PUSH2 0x1D03 JUMP JUMPDEST PUSH1 0x40 MLOAD DUP1 SWAP2 SUB SWAP1 REVERT JUMPDEST PUSH2 0x5AF DUP3 DUP3 PUSH2 0x1061 JUMP JUMPDEST POP POP JUMP JUMPDEST PUSH2 0x5C4 PUSH2 0x5BE PUSH2 0xB81 JUMP JUMPDEST DUP3 PUSH2 0x11C1 JUMP JUMPDEST POP JUMP JUMPDEST PUSH1 0x0 DUP1 PUSH1 0x0 PUSH2 0x614 DUP5 PUSH1 0x5 PUSH1 0x0 DUP9 PUSH20 0xFFFFFFFFFFFFFFFFFFFFFFFFFFFFFFFFFFFFFFFF AND PUSH20 0xFFFFFFFFFFFFFFFFFFFFFFFFFFFFFFFFFFFFFFFF AND DUP2 MSTORE PUSH1 0x20 ADD SWAP1 DUP2 MSTORE PUSH1 0x20 ADD PUSH1 0x0 KECCAK256 PUSH2 0x1398 JUMP JUMPDEST SWAP2 POP SWAP2 POP DUP2 PUSH2 0x62B JUMPI PUSH2 0x626 DUP6 PUSH2 0x637 JUMP JUMPDEST PUSH2 0x62D JUMP JUMPDEST DUP1 JUMPDEST SWAP3 POP POP POP SWAP3 SWAP2 POP POP JUMP JUMPDEST PUSH1 0x0 DUP1 PUSH1 0x0 DUP4 PUSH20 0xFFFFFFFFFFFFFFFFFFFFFFFFFFFFFFFFFFFFFFFF AND PUSH20 0xFFFFFFFFFFFFFFFFFFFFFFFFFFFFFFFFFFFFFFFF AND DUP2 MSTORE PUSH1 0x20 ADD SWAP1 DUP2 MSTORE PUSH1 0x20 ADD PUSH1 0x0 KECCAK256 SLOAD SWAP1 POP SWAP2 SWAP1 POP JUMP JUMPDEST PUSH2 0x687 PUSH2 0xB81 JUMP JUMPDEST PUSH20 0xFFFFFFFFFFFFFFFFFFFFFFFFFFFFFFFFFFFFFFFF AND PUSH2 0x6A5 PUSH2 0x727 JUMP JUMPDEST PUSH20 0xFFFFFFFFFFFFFFFFFFFFFFFFFFFFFFFFFFFFFFFF AND EQ PUSH2 0x6FB JUMPI PUSH1 0x40 MLOAD PUSH32 0x8C379A000000000000000000000000000000000000000000000000000000000 DUP2 MSTORE PUSH1 0x4 ADD PUSH2 0x6F2 SWAP1 PUSH2 0x1D03 JUMP JUMPDEST PUSH1 0x40 MLOAD DUP1 SWAP2 SUB SWAP1 REVERT JUMPDEST PUSH2 0x705 PUSH1 0x0 PUSH2 0x148E JUMP JUMPDEST JUMP JUMPDEST PUSH2 0x719 DUP3 PUSH2 0x713 PUSH2 0xB81 JUMP JUMPDEST DUP4 PUSH2 0xD54 JUMP JUMPDEST PUSH2 0x723 DUP3 DUP3 PUSH2 0x11C1 JUMP JUMPDEST POP POP JUMP JUMPDEST PUSH1 0x0 PUSH1 0x9 PUSH1 0x0 SWAP1 SLOAD SWAP1 PUSH2 0x100 EXP SWAP1 DIV PUSH20 0xFFFFFFFFFFFFFFFFFFFFFFFFFFFFFFFFFFFFFFFF AND SWAP1 POP SWAP1 JUMP JUMPDEST PUSH1 0x60 PUSH1 0x4 DUP1 SLOAD PUSH2 0x760 SWAP1 PUSH2 0x1F78 JUMP JUMPDEST DUP1 PUSH1 0x1F ADD PUSH1 0x20 DUP1 SWAP2 DIV MUL PUSH1 0x20 ADD PUSH1 0x40 MLOAD SWAP1 DUP2 ADD PUSH1 0x40 MSTORE DUP1 SWAP3 SWAP2 SWAP1 DUP2 DUP2 MSTORE PUSH1 0x20 ADD DUP3 DUP1 SLOAD PUSH2 0x78C SWAP1 PUSH2 0x1F78 JUMP JUMPDEST DUP1 ISZERO PUSH2 0x7D9 JUMPI DUP1 PUSH1 0x1F LT PUSH2 0x7AE JUMPI PUSH2 0x100 DUP1 DUP4 SLOAD DIV MUL DUP4 MSTORE SWAP2 PUSH1 0x20 ADD SWAP2 PUSH2 0x7D9 JUMP JUMPDEST DUP3 ADD SWAP2 SWAP1 PUSH1 0x0 MSTORE PUSH1 0x20 PUSH1 0x0 KECCAK256 SWAP1 JUMPDEST DUP2 SLOAD DUP2 MSTORE SWAP1 PUSH1 0x1 ADD SWAP1 PUSH1 0x20 ADD DUP1 DUP4 GT PUSH2 0x7BC JUMPI DUP3 SWAP1 SUB PUSH1 0x1F AND DUP3 ADD SWAP2 JUMPDEST POP POP POP POP POP SWAP1 POP SWAP1 JUMP JUMPDEST PUSH2 0x7EB PUSH2 0xB81 JUMP JUMPDEST PUSH20 0xFFFFFFFFFFFFFFFFFFFFFFFFFFFFFFFFFFFFFFFF AND PUSH2 0x809 PUSH2 0x727 JUMP JUMPDEST PUSH20 0xFFFFFFFFFFFFFFFFFFFFFFFFFFFFFFFFFFFFFFFF AND EQ PUSH2 0x85F JUMPI PUSH1 0x40 MLOAD PUSH32 0x8C379A000000000000000000000000000000000000000000000000000000000 DUP2 MSTORE PUSH1 0x4 ADD PUSH2 0x856 SWAP1 PUSH2 0x1D03 JUMP JUMPDEST PUSH1 0x40 MLOAD DUP1 SWAP2 SUB SWAP1 REVERT JUMPDEST PUSH2 0x867 PUSH2 0x1554 JUMP JUMPDEST POP JUMP JUMPDEST PUSH1 0x0 DUP1 PUSH1 0x0 PUSH2 0x87A DUP5 PUSH1 0x6 PUSH2 0x1398 JUMP JUMPDEST SWAP2 POP SWAP2 POP DUP2 PUSH2 0x890 JUMPI PUSH2 0x88B PUSH2 0x4B0 JUMP JUMPDEST PUSH2 0x892 JUMP JUMPDEST DUP1 JUMPDEST SWAP3 POP POP POP SWAP2 SWAP1 POP JUMP JUMPDEST PUSH1 0x0 DUP1 PUSH2 0x8A6 PUSH2 0xB81 JUMP JUMPDEST SWAP1 POP PUSH1 0x0 PUSH2 0x8B4 DUP3 DUP7 PUSH2 0x935 JUMP JUMPDEST SWAP1 POP DUP4 DUP2 LT ISZERO PUSH2 0x8F9 JUMPI PUSH1 0x40 MLOAD PUSH32 0x8C379A000000000000000000000000000000000000000000000000000000000 DUP2 MSTORE PUSH1 0x4 ADD PUSH2 0x8F0 SWAP1 PUSH2 0x1DA3 JUMP JUMPDEST PUSH1 0x40 MLOAD DUP1 SWAP2 SUB SWAP1 REVERT JUMPDEST PUSH2 0x906 DUP3 DUP7 DUP7 DUP5 SUB PUSH2 0xB89 JUMP JUMPDEST PUSH1 0x1 SWAP3 POP POP POP SWAP3 SWAP2 POP POP JUMP JUMPDEST PUSH1 0x0 DUP1 PUSH2 0x91D PUSH2 0xB81 JUMP JUMPDEST SWAP1 POP PUSH2 0x92A DUP2 DUP6 DUP6 PUSH2 0xDE0 JUMP JUMPDEST PUSH1 0x1 SWAP2 POP POP SWAP3 SWAP2 POP POP JUMP JUMPDEST PUSH1 0x0 PUSH1 0x1 PUSH1 0x0 DUP5 PUSH20 0xFFFFFFFFFFFFFFFFFFFFFFFFFFFFFFFFFFFFFFFF AND PUSH20 0xFFFFFFFFFFFFFFFFFFFFFFFFFFFFFFFFFFFFFFFF AND DUP2 MSTORE PUSH1 0x20 ADD SWAP1 DUP2 MSTORE PUSH1 0x20 ADD PUSH1 0x0 KECCAK256 PUSH1 0x0 DUP4 PUSH20 0xFFFFFFFFFFFFFFFFFFFFFFFFFFFFFFFFFFFFFFFF AND PUSH20 0xFFFFFFFFFFFFFFFFFFFFFFFFFFFFFFFFFFFFFFFF AND DUP2 MSTORE PUSH1 0x20 ADD SWAP1 DUP2 MSTORE PUSH1 0x20 ADD PUSH1 0x0 KECCAK256 SLOAD SWAP1 POP SWAP3 SWAP2 POP POP JUMP JUMPDEST PUSH2 0x9C4 PUSH2 0xB81 JUMP JUMPDEST PUSH20 0xFFFFFFFFFFFFFFFFFFFFFFFFFFFFFFFFFFFFFFFF AND PUSH2 0x9E2 PUSH2 0x727 JUMP JUMPDEST PUSH20 0xFFFFFFFFFFFFFFFFFFFFFFFFFFFFFFFFFFFFFFFF AND EQ PUSH2 0xA38 JUMPI PUSH1 0x40 MLOAD PUSH32 0x8C379A000000000000000000000000000000000000000000000000000000000 DUP2 MSTORE PUSH1 0x4 ADD PUSH2 0xA2F SWAP1 PUSH2 0x1D03 JUMP JUMPDEST PUSH1 0x40 MLOAD DUP1 SWAP2 SUB SWAP1 REVERT JUMPDEST PUSH1 0x0 PUSH20 0xFFFFFFFFFFFFFFFFFFFFFFFFFFFFFFFFFFFFFFFF AND DUP2 PUSH20 0xFFFFFFFFFFFFFFFFFFFFFFFFFFFFFFFFFFFFFFFF AND EQ ISZERO PUSH2 0xAA8 JUMPI PUSH1 0x40 MLOAD PUSH32 0x8C379A000000000000000000000000000000000000000000000000000000000 DUP2 MSTORE PUSH1 0x4 ADD PUSH2 0xA9F SWAP1 PUSH2 0x1C83 JUMP JUMPDEST PUSH1 0x40 MLOAD DUP1 SWAP2 SUB SWAP1 REVERT JUMPDEST PUSH2 0xAB1 DUP2 PUSH2 0x148E JUMP JUMPDEST POP JUMP JUMPDEST PUSH2 0xABF DUP4 DUP4 DUP4 PUSH2 0xB6E JUMP JUMPDEST PUSH1 0x0 PUSH20 0xFFFFFFFFFFFFFFFFFFFFFFFFFFFFFFFFFFFFFFFF AND DUP4 PUSH20 0xFFFFFFFFFFFFFFFFFFFFFFFFFFFFFFFFFFFFFFFF AND EQ ISZERO PUSH2 0xB0A JUMPI PUSH2 0xAFD DUP3 PUSH2 0x15AA JUMP JUMPDEST PUSH2 0xB05 PUSH2 0x15FD JUMP JUMPDEST PUSH2 0xB69 JUMP JUMPDEST PUSH1 0x0 PUSH20 0xFFFFFFFFFFFFFFFFFFFFFFFFFFFFFFFFFFFFFFFF AND DUP3 PUSH20 0xFFFFFFFFFFFFFFFFFFFFFFFFFFFFFFFFFFFFFFFF AND EQ ISZERO PUSH2 0xB55 JUMPI PUSH2 0xB48 DUP4 PUSH2 0x15AA JUMP JUMPDEST PUSH2 0xB50 PUSH2 0x15FD JUMP JUMPDEST PUSH2 0xB68 JUMP JUMPDEST PUSH2 0xB5E DUP4 PUSH2 0x15AA JUMP JUMPDEST PUSH2 0xB67 DUP3 PUSH2 0x15AA JUMP JUMPDEST JUMPDEST JUMPDEST POP POP POP JUMP JUMPDEST POP POP POP JUMP JUMPDEST PUSH1 0x0 DUP2 PUSH1 0x0 ADD SLOAD SWAP1 POP SWAP2 SWAP1 POP JUMP JUMPDEST PUSH1 0x0 CALLER SWAP1 POP SWAP1 JUMP JUMPDEST PUSH1 0x0 PUSH20 0xFFFFFFFFFFFFFFFFFFFFFFFFFFFFFFFFFFFFFFFF AND DUP4 PUSH20 0xFFFFFFFFFFFFFFFFFFFFFFFFFFFFFFFFFFFFFFFF AND EQ ISZERO PUSH2 0xBF9 JUMPI PUSH1 0x40 MLOAD PUSH32 0x8C379A000000000000000000000000000000000000000000000000000000000 DUP2 MSTORE PUSH1 0x4 ADD PUSH2 0xBF0 SWAP1 PUSH2 0x1D63 JUMP JUMPDEST PUSH1 0x40 MLOAD DUP1 SWAP2 SUB SWAP1 REVERT JUMPDEST PUSH1 0x0 PUSH20 0xFFFFFFFFFFFFFFFFFFFFFFFFFFFFFFFFFFFFFFFF AND DUP3 PUSH20 0xFFFFFFFFFFFFFFFFFFFFFFFFFFFFFFFFFFFFFFFF AND EQ ISZERO PUSH2 0xC69 JUMPI PUSH1 0x40 MLOAD PUSH32 0x8C379A000000000000000000000000000000000000000000000000000000000 DUP2 MSTORE PUSH1 0x4 ADD PUSH2 0xC60 SWAP1 PUSH2 0x1CA3 JUMP JUMPDEST PUSH1 0x40 MLOAD DUP1 SWAP2 SUB SWAP1 REVERT JUMPDEST DUP1 PUSH1 0x1 PUSH1 0x0 DUP6 PUSH20 0xFFFFFFFFFFFFFFFFFFFFFFFFFFFFFFFFFFFFFFFF AND PUSH20 0xFFFFFFFFFFFFFFFFFFFFFFFFFFFFFFFFFFFFFFFF AND DUP2 MSTORE PUSH1 0x20 ADD SWAP1 DUP2 MSTORE PUSH1 0x20 ADD PUSH1 0x0 KECCAK256 PUSH1 0x0 DUP5 PUSH20 0xFFFFFFFFFFFFFFFFFFFFFFFFFFFFFFFFFFFFFFFF AND PUSH20 0xFFFFFFFFFFFFFFFFFFFFFFFFFFFFFFFFFFFFFFFF AND DUP2 MSTORE PUSH1 0x20 ADD SWAP1 DUP2 MSTORE PUSH1 0x20 ADD PUSH1 0x0 KECCAK256 DUP2 SWAP1 SSTORE POP DUP2 PUSH20 0xFFFFFFFFFFFFFFFFFFFFFFFFFFFFFFFFFFFFFFFF AND DUP4 PUSH20 0xFFFFFFFFFFFFFFFFFFFFFFFFFFFFFFFFFFFFFFFF AND PUSH32 0x8C5BE1E5EBEC7D5BD14F71427D1E84F3DD0314C0F7B2291E5B200AC8C7C3B925 DUP4 PUSH1 0x40 MLOAD PUSH2 0xD47 SWAP2 SWAP1 PUSH2 0x1DE3 JUMP JUMPDEST PUSH1 0x40 MLOAD DUP1 SWAP2 SUB SWAP1 LOG3 POP POP POP JUMP JUMPDEST PUSH1 0x0 PUSH2 0xD60 DUP5 DUP5 PUSH2 0x935 JUMP JUMPDEST SWAP1 POP PUSH32 0xFFFFFFFFFFFFFFFFFFFFFFFFFFFFFFFFFFFFFFFFFFFFFFFFFFFFFFFFFFFFFFFF DUP2 EQ PUSH2 0xDDA JUMPI DUP2 DUP2 LT ISZERO PUSH2 0xDCC JUMPI PUSH1 0x40 MLOAD PUSH32 0x8C379A000000000000000000000000000000000000000000000000000000000 DUP2 MSTORE PUSH1 0x4 ADD PUSH2 0xDC3 SWAP1 PUSH2 0x1CC3 JUMP JUMPDEST PUSH1 0x40 MLOAD DUP1 SWAP2 SUB SWAP1 REVERT JUMPDEST PUSH2 0xDD9 DUP5 DUP5 DUP5 DUP5 SUB PUSH2 0xB89 JUMP JUMPDEST JUMPDEST POP POP POP POP JUMP JUMPDEST PUSH1 0x0 PUSH20 0xFFFFFFFFFFFFFFFFFFFFFFFFFFFFFFFFFFFFFFFF AND DUP4 PUSH20 0xFFFFFFFFFFFFFFFFFFFFFFFFFFFFFFFFFFFFFFFF AND EQ ISZERO PUSH2 0xE50 JUMPI PUSH1 0x40 MLOAD PUSH32 0x8C379A000000000000000000000000000000000000000000000000000000000 DUP2 MSTORE PUSH1 0x4 ADD PUSH2 0xE47 SWAP1 PUSH2 0x1D43 JUMP JUMPDEST PUSH1 0x40 MLOAD DUP1 SWAP2 SUB SWAP1 REVERT JUMPDEST PUSH1 0x0 PUSH20 0xFFFFFFFFFFFFFFFFFFFFFFFFFFFFFFFFFFFFFFFF AND DUP3 PUSH20 0xFFFFFFFFFFFFFFFFFFFFFFFFFFFFFFFFFFFFFFFF AND EQ ISZERO PUSH2 0xEC0 JUMPI PUSH1 0x40 MLOAD PUSH32 0x8C379A000000000000000000000000000000000000000000000000000000000 DUP2 MSTORE PUSH1 0x4 ADD PUSH2 0xEB7 SWAP1 PUSH2 0x1C43 JUMP JUMPDEST PUSH1 0x40 MLOAD DUP1 SWAP2 SUB SWAP1 REVERT JUMPDEST PUSH2 0xECB DUP4 DUP4 DUP4 PUSH2 0x1611 JUMP JUMPDEST PUSH1 0x0 DUP1 PUSH1 0x0 DUP6 PUSH20 0xFFFFFFFFFFFFFFFFFFFFFFFFFFFFFFFFFFFFFFFF AND PUSH20 0xFFFFFFFFFFFFFFFFFFFFFFFFFFFFFFFFFFFFFFFF AND DUP2 MSTORE PUSH1 0x20 ADD SWAP1 DUP2 MSTORE PUSH1 0x20 ADD PUSH1 0x0 KECCAK256 SLOAD SWAP1 POP DUP2 DUP2 LT ISZERO PUSH2 0xF51 JUMPI PUSH1 0x40 MLOAD PUSH32 0x8C379A000000000000000000000000000000000000000000000000000000000 DUP2 MSTORE PUSH1 0x4 ADD PUSH2 0xF48 SWAP1 PUSH2 0x1CE3 JUMP JUMPDEST PUSH1 0x40 MLOAD DUP1 SWAP2 SUB SWAP1 REVERT JUMPDEST DUP2 DUP2 SUB PUSH1 0x0 DUP1 DUP7 PUSH20 0xFFFFFFFFFFFFFFFFFFFFFFFFFFFFFFFFFFFFFFFF AND PUSH20 0xFFFFFFFFFFFFFFFFFFFFFFFFFFFFFFFFFFFFFFFF AND DUP2 MSTORE PUSH1 0x20 ADD SWAP1 DUP2 MSTORE PUSH1 0x20 ADD PUSH1 0x0 KECCAK256 DUP2 SWAP1 SSTORE POP DUP2 PUSH1 0x0 DUP1 DUP6 PUSH20 0xFFFFFFFFFFFFFFFFFFFFFFFFFFFFFFFFFFFFFFFF AND PUSH20 0xFFFFFFFFFFFFFFFFFFFFFFFFFFFFFFFFFFFFFFFF AND DUP2 MSTORE PUSH1 0x20 ADD SWAP1 DUP2 MSTORE PUSH1 0x20 ADD PUSH1 0x0 KECCAK256 PUSH1 0x0 DUP3 DUP3 SLOAD PUSH2 0xFE4 SWAP2 SWAP1 PUSH2 0x1E35 JUMP JUMPDEST SWAP3 POP POP DUP2 SWAP1 SSTORE POP DUP3 PUSH20 0xFFFFFFFFFFFFFFFFFFFFFFFFFFFFFFFFFFFFFFFF AND DUP5 PUSH20 0xFFFFFFFFFFFFFFFFFFFFFFFFFFFFFFFFFFFFFFFF AND PUSH32 0xDDF252AD1BE2C89B69C2B068FC378DAA952BA7F163C4A11628F55A4DF523B3EF DUP5 PUSH1 0x40 MLOAD PUSH2 0x1048 SWAP2 SWAP1 PUSH2 0x1DE3 JUMP JUMPDEST PUSH1 0x40 MLOAD DUP1 SWAP2 SUB SWAP1 LOG3 PUSH2 0x105B DUP5 DUP5 DUP5 PUSH2 0x1621 JUMP JUMPDEST POP POP POP POP JUMP JUMPDEST PUSH1 0x0 PUSH20 0xFFFFFFFFFFFFFFFFFFFFFFFFFFFFFFFFFFFFFFFF AND DUP3 PUSH20 0xFFFFFFFFFFFFFFFFFFFFFFFFFFFFFFFFFFFFFFFF AND EQ ISZERO PUSH2 0x10D1 JUMPI PUSH1 0x40 MLOAD PUSH32 0x8C379A000000000000000000000000000000000000000000000000000000000 DUP2 MSTORE PUSH1 0x4 ADD PUSH2 0x10C8 SWAP1 PUSH2 0x1DC3 JUMP JUMPDEST PUSH1 0x40 MLOAD DUP1 SWAP2 SUB SWAP1 REVERT JUMPDEST PUSH2 0x10DD PUSH1 0x0 DUP4 DUP4 PUSH2 0x1611 JUMP JUMPDEST DUP1 PUSH1 0x2 PUSH1 0x0 DUP3 DUP3 SLOAD PUSH2 0x10EF SWAP2 SWAP1 PUSH2 0x1E35 JUMP JUMPDEST SWAP3 POP POP DUP2 SWAP1 SSTORE POP DUP1 PUSH1 0x0 DUP1 DUP5 PUSH20 0xFFFFFFFFFFFFFFFFFFFFFFFFFFFFFFFFFFFFFFFF AND PUSH20 0xFFFFFFFFFFFFFFFFFFFFFFFFFFFFFFFFFFFFFFFF AND DUP2 MSTORE PUSH1 0x20 ADD SWAP1 DUP2 MSTORE PUSH1 0x20 ADD PUSH1 0x0 KECCAK256 PUSH1 0x0 DUP3 DUP3 SLOAD PUSH2 0x1144 SWAP2 SWAP1 PUSH2 0x1E35 JUMP JUMPDEST SWAP3 POP POP DUP2 SWAP1 SSTORE POP DUP2 PUSH20 0xFFFFFFFFFFFFFFFFFFFFFFFFFFFFFFFFFFFFFFFF AND PUSH1 0x0 PUSH20 0xFFFFFFFFFFFFFFFFFFFFFFFFFFFFFFFFFFFFFFFF AND PUSH32 0xDDF252AD1BE2C89B69C2B068FC378DAA952BA7F163C4A11628F55A4DF523B3EF DUP4 PUSH1 0x40 MLOAD PUSH2 0x11A9 SWAP2 SWAP1 PUSH2 0x1DE3 JUMP JUMPDEST PUSH1 0x40 MLOAD DUP1 SWAP2 SUB SWAP1 LOG3 PUSH2 0x11BD PUSH1 0x0 DUP4 DUP4 PUSH2 0x1621 JUMP JUMPDEST POP POP JUMP JUMPDEST PUSH1 0x0 PUSH20 0xFFFFFFFFFFFFFFFFFFFFFFFFFFFFFFFFFFFFFFFF AND DUP3 PUSH20 0xFFFFFFFFFFFFFFFFFFFFFFFFFFFFFFFFFFFFFFFF AND EQ ISZERO PUSH2 0x1231 JUMPI PUSH1 0x40 MLOAD PUSH32 0x8C379A000000000000000000000000000000000000000000000000000000000 DUP2 MSTORE PUSH1 0x4 ADD PUSH2 0x1228 SWAP1 PUSH2 0x1D23 JUMP JUMPDEST PUSH1 0x40 MLOAD DUP1 SWAP2 SUB SWAP1 REVERT JUMPDEST PUSH2 0x123D DUP3 PUSH1 0x0 DUP4 PUSH2 0x1611 JUMP JUMPDEST PUSH1 0x0 DUP1 PUSH1 0x0 DUP5 PUSH20 0xFFFFFFFFFFFFFFFFFFFFFFFFFFFFFFFFFFFFFFFF AND PUSH20 0xFFFFFFFFFFFFFFFFFFFFFFFFFFFFFFFFFFFFFFFF AND DUP2 MSTORE PUSH1 0x20 ADD SWAP1 DUP2 MSTORE PUSH1 0x20 ADD PUSH1 0x0 KECCAK256 SLOAD SWAP1 POP DUP2 DUP2 LT ISZERO PUSH2 0x12C3 JUMPI PUSH1 0x40 MLOAD PUSH32 0x8C379A000000000000000000000000000000000000000000000000000000000 DUP2 MSTORE PUSH1 0x4 ADD PUSH2 0x12BA SWAP1 PUSH2 0x1C63 JUMP JUMPDEST PUSH1 0x40 MLOAD DUP1 SWAP2 SUB SWAP1 REVERT JUMPDEST DUP2 DUP2 SUB PUSH1 0x0 DUP1 DUP6 PUSH20 0xFFFFFFFFFFFFFFFFFFFFFFFFFFFFFFFFFFFFFFFF AND PUSH20 0xFFFFFFFFFFFFFFFFFFFFFFFFFFFFFFFFFFFFFFFF AND DUP2 MSTORE PUSH1 0x20 ADD SWAP1 DUP2 MSTORE PUSH1 0x20 ADD PUSH1 0x0 KECCAK256 DUP2 SWAP1 SSTORE POP DUP2 PUSH1 0x2 PUSH1 0x0 DUP3 DUP3 SLOAD PUSH2 0x131A SWAP2 SWAP1 PUSH2 0x1EBC JUMP JUMPDEST SWAP3 POP POP DUP2 SWAP1 SSTORE POP PUSH1 0x0 PUSH20 0xFFFFFFFFFFFFFFFFFFFFFFFFFFFFFFFFFFFFFFFF AND DUP4 PUSH20 0xFFFFFFFFFFFFFFFFFFFFFFFFFFFFFFFFFFFFFFFF AND PUSH32 0xDDF252AD1BE2C89B69C2B068FC378DAA952BA7F163C4A11628F55A4DF523B3EF DUP5 PUSH1 0x40 MLOAD PUSH2 0x137F SWAP2 SWAP1 PUSH2 0x1DE3 JUMP JUMPDEST PUSH1 0x40 MLOAD DUP1 SWAP2 SUB SWAP1 LOG3 PUSH2 0x1393 DUP4 PUSH1 0x0 DUP5 PUSH2 0x1621 JUMP JUMPDEST POP POP POP JUMP JUMPDEST PUSH1 0x0 DUP1 PUSH1 0x0 DUP5 GT PUSH2 0x13DE JUMPI PUSH1 0x40 MLOAD PUSH32 0x8C379A000000000000000000000000000000000000000000000000000000000 DUP2 MSTORE PUSH1 0x4 ADD PUSH2 0x13D5 SWAP1 PUSH2 0x1D83 JUMP JUMPDEST PUSH1 0x40 MLOAD DUP1 SWAP2 SUB SWAP1 REVERT JUMPDEST PUSH2 0x13E6 PUSH2 0x1626 JUMP JUMPDEST DUP5 GT ISZERO PUSH2 0x1428 JUMPI PUSH1 0x40 MLOAD PUSH32 0x8C379A000000000000000000000000000000000000000000000000000000000 DUP2 MSTORE PUSH1 0x4 ADD PUSH2 0x141F SWAP1 PUSH2 0x1C23 JUMP JUMPDEST PUSH1 0x40 MLOAD DUP1 SWAP2 SUB SWAP1 REVERT JUMPDEST PUSH1 0x0 PUSH2 0x1440 DUP6 DUP6 PUSH1 0x0 ADD PUSH2 0x1637 SWAP1 SWAP2 SWAP1 PUSH4 0xFFFFFFFF AND JUMP JUMPDEST SWAP1 POP DUP4 PUSH1 0x0 ADD DUP1 SLOAD SWAP1 POP DUP2 EQ ISZERO PUSH2 0x145E JUMPI PUSH1 0x0 DUP1 SWAP3 POP SWAP3 POP POP PUSH2 0x1487 JUMP JUMPDEST PUSH1 0x1 DUP5 PUSH1 0x1 ADD DUP3 DUP2 SLOAD DUP2 LT PUSH2 0x1476 JUMPI PUSH2 0x1475 PUSH2 0x2037 JUMP JUMPDEST JUMPDEST SWAP1 PUSH1 0x0 MSTORE PUSH1 0x20 PUSH1 0x0 KECCAK256 ADD SLOAD SWAP3 POP SWAP3 POP POP JUMPDEST SWAP3 POP SWAP3 SWAP1 POP JUMP JUMPDEST PUSH1 0x0 PUSH1 0x9 PUSH1 0x0 SWAP1 SLOAD SWAP1 PUSH2 0x100 EXP SWAP1 DIV PUSH20 0xFFFFFFFFFFFFFFFFFFFFFFFFFFFFFFFFFFFFFFFF AND SWAP1 POP DUP2 PUSH1 0x9 PUSH1 0x0 PUSH2 0x100 EXP DUP2 SLOAD DUP2 PUSH20 0xFFFFFFFFFFFFFFFFFFFFFFFFFFFFFFFFFFFFFFFF MUL NOT AND SWAP1 DUP4 PUSH20 0xFFFFFFFFFFFFFFFFFFFFFFFFFFFFFFFFFFFFFFFF AND MUL OR SWAP1 SSTORE POP DUP2 PUSH20 0xFFFFFFFFFFFFFFFFFFFFFFFFFFFFFFFFFFFFFFFF AND DUP2 PUSH20 0xFFFFFFFFFFFFFFFFFFFFFFFFFFFFFFFFFFFFFFFF AND PUSH32 0x8BE0079C531659141344CD1FD0A4F28419497F9722A3DAAFE3B4186F6B6457E0 PUSH1 0x40 MLOAD PUSH1 0x40 MLOAD DUP1 SWAP2 SUB SWAP1 LOG3 POP POP JUMP JUMPDEST PUSH1 0x0 PUSH2 0x1560 PUSH1 0x8 PUSH2 0x1711 JUMP JUMPDEST PUSH1 0x0 PUSH2 0x156A PUSH2 0x1626 JUMP JUMPDEST SWAP1 POP PUSH32 0x8030E83B04D87BEF53480E26263266D6CA66863AA8506ACA6F2559D18AA1CB67 DUP2 PUSH1 0x40 MLOAD PUSH2 0x159B SWAP2 SWAP1 PUSH2 0x1DE3 JUMP JUMPDEST PUSH1 0x40 MLOAD DUP1 SWAP2 SUB SWAP1 LOG1 DUP1 SWAP2 POP POP SWAP1 JUMP JUMPDEST PUSH2 0x15FA PUSH1 0x5 PUSH1 0x0 DUP4 PUSH20 0xFFFFFFFFFFFFFFFFFFFFFFFFFFFFFFFFFFFFFFFF AND PUSH20 0xFFFFFFFFFFFFFFFFFFFFFFFFFFFFFFFFFFFFFFFF AND DUP2 MSTORE PUSH1 0x20 ADD SWAP1 DUP2 MSTORE PUSH1 0x20 ADD PUSH1 0x0 KECCAK256 PUSH2 0x15F5 DUP4 PUSH2 0x637 JUMP JUMPDEST PUSH2 0x1727 JUMP JUMPDEST POP JUMP JUMPDEST PUSH2 0x160F PUSH1 0x6 PUSH2 0x160A PUSH2 0x4B0 JUMP JUMPDEST PUSH2 0x1727 JUMP JUMPDEST JUMP JUMPDEST PUSH2 0x161C DUP4 DUP4 DUP4 PUSH2 0xAB4 JUMP JUMPDEST POP POP POP JUMP JUMPDEST POP POP POP JUMP JUMPDEST PUSH1 0x0 PUSH2 0x1632 PUSH1 0x8 PUSH2 0xB73 JUMP JUMPDEST SWAP1 POP SWAP1 JUMP JUMPDEST PUSH1 0x0 DUP1 DUP4 DUP1 SLOAD SWAP1 POP EQ ISZERO PUSH2 0x164E JUMPI PUSH1 0x0 SWAP1 POP PUSH2 0x170B JUMP JUMPDEST PUSH1 0x0 DUP1 DUP5 DUP1 SLOAD SWAP1 POP SWAP1 POP JUMPDEST DUP1 DUP3 LT ISZERO PUSH2 0x16B2 JUMPI PUSH1 0x0 PUSH2 0x166D DUP4 DUP4 PUSH2 0x17A2 JUMP JUMPDEST SWAP1 POP DUP5 DUP7 DUP3 DUP2 SLOAD DUP2 LT PUSH2 0x1683 JUMPI PUSH2 0x1682 PUSH2 0x2037 JUMP JUMPDEST JUMPDEST SWAP1 PUSH1 0x0 MSTORE PUSH1 0x20 PUSH1 0x0 KECCAK256 ADD SLOAD GT ISZERO PUSH2 0x169C JUMPI DUP1 SWAP2 POP PUSH2 0x16AC JUMP JUMPDEST PUSH1 0x1 DUP2 PUSH2 0x16A9 SWAP2 SWAP1 PUSH2 0x1E35 JUMP JUMPDEST SWAP3 POP JUMPDEST POP PUSH2 0x1659 JUMP JUMPDEST PUSH1 0x0 DUP3 GT DUP1 ISZERO PUSH2 0x16EA JUMPI POP DUP4 DUP6 PUSH1 0x1 DUP5 PUSH2 0x16CC SWAP2 SWAP1 PUSH2 0x1EBC JUMP JUMPDEST DUP2 SLOAD DUP2 LT PUSH2 0x16DD JUMPI PUSH2 0x16DC PUSH2 0x2037 JUMP JUMPDEST JUMPDEST SWAP1 PUSH1 0x0 MSTORE PUSH1 0x20 PUSH1 0x0 KECCAK256 ADD SLOAD EQ JUMPDEST ISZERO PUSH2 0x1705 JUMPI PUSH1 0x1 DUP3 PUSH2 0x16FC SWAP2 SWAP1 PUSH2 0x1EBC JUMP JUMPDEST SWAP3 POP POP POP PUSH2 0x170B JUMP JUMPDEST DUP2 SWAP3 POP POP POP JUMPDEST SWAP3 SWAP2 POP POP JUMP JUMPDEST PUSH1 0x1 DUP2 PUSH1 0x0 ADD PUSH1 0x0 DUP3 DUP3 SLOAD ADD SWAP3 POP POP DUP2 SWAP1 SSTORE POP POP JUMP JUMPDEST PUSH1 0x0 PUSH2 0x1731 PUSH2 0x1626 JUMP JUMPDEST SWAP1 POP DUP1 PUSH2 0x1740 DUP5 PUSH1 0x0 ADD PUSH2 0x17C8 JUMP JUMPDEST LT ISZERO PUSH2 0x179D JUMPI DUP3 PUSH1 0x0 ADD DUP2 SWAP1 DUP1 PUSH1 0x1 DUP2 SLOAD ADD DUP1 DUP3 SSTORE DUP1 SWAP2 POP POP PUSH1 0x1 SWAP1 SUB SWAP1 PUSH1 0x0 MSTORE PUSH1 0x20 PUSH1 0x0 KECCAK256 ADD PUSH1 0x0 SWAP1 SWAP2 SWAP1 SWAP2 SWAP1 SWAP2 POP SSTORE DUP3 PUSH1 0x1 ADD DUP3 SWAP1 DUP1 PUSH1 0x1 DUP2 SLOAD ADD DUP1 DUP3 SSTORE DUP1 SWAP2 POP POP PUSH1 0x1 SWAP1 SUB SWAP1 PUSH1 0x0 MSTORE PUSH1 0x20 PUSH1 0x0 KECCAK256 ADD PUSH1 0x0 SWAP1 SWAP2 SWAP1 SWAP2 SWAP1 SWAP2 POP SSTORE JUMPDEST POP POP POP JUMP JUMPDEST PUSH1 0x0 PUSH1 0x2 DUP3 DUP5 XOR PUSH2 0x17B3 SWAP2 SWAP1 PUSH2 0x1E8B JUMP JUMPDEST DUP3 DUP5 AND PUSH2 0x17C0 SWAP2 SWAP1 PUSH2 0x1E35 JUMP JUMPDEST SWAP1 POP SWAP3 SWAP2 POP POP JUMP JUMPDEST PUSH1 0x0 DUP1 DUP3 DUP1 SLOAD SWAP1 POP EQ ISZERO PUSH2 0x17DF JUMPI PUSH1 0x0 SWAP1 POP PUSH2 0x1810 JUMP JUMPDEST DUP2 PUSH1 0x1 DUP4 DUP1 SLOAD SWAP1 POP PUSH2 0x17F1 SWAP2 SWAP1 PUSH2 0x1EBC JUMP JUMPDEST DUP2 SLOAD DUP2 LT PUSH2 0x1802 JUMPI PUSH2 0x1801 PUSH2 0x2037 JUMP JUMPDEST JUMPDEST SWAP1 PUSH1 0x0 MSTORE PUSH1 0x20 PUSH1 0x0 KECCAK256 ADD SLOAD SWAP1 POP JUMPDEST SWAP2 SWAP1 POP JUMP JUMPDEST PUSH1 0x0 DUP2 CALLDATALOAD SWAP1 POP PUSH2 0x1824 DUP2 PUSH2 0x2410 JUMP JUMPDEST SWAP3 SWAP2 POP POP JUMP JUMPDEST PUSH1 0x0 DUP2 CALLDATALOAD SWAP1 POP PUSH2 0x1839 DUP2 PUSH2 0x2427 JUMP JUMPDEST SWAP3 SWAP2 POP POP JUMP JUMPDEST PUSH1 0x0 PUSH1 0x20 DUP3 DUP5 SUB SLT ISZERO PUSH2 0x1855 JUMPI PUSH2 0x1854 PUSH2 0x2066 JUMP JUMPDEST JUMPDEST PUSH1 0x0 PUSH2 0x1863 DUP5 DUP3 DUP6 ADD PUSH2 0x1815 JUMP JUMPDEST SWAP2 POP POP SWAP3 SWAP2 POP POP JUMP JUMPDEST PUSH1 0x0 DUP1 PUSH1 0x40 DUP4 DUP6 SUB SLT ISZERO PUSH2 0x1883 JUMPI PUSH2 0x1882 PUSH2 0x2066 JUMP JUMPDEST JUMPDEST PUSH1 0x0 PUSH2 0x1891 DUP6 DUP3 DUP7 ADD PUSH2 0x1815 JUMP JUMPDEST SWAP3 POP POP PUSH1 0x20 PUSH2 0x18A2 DUP6 DUP3 DUP7 ADD PUSH2 0x1815 JUMP JUMPDEST SWAP2 POP POP SWAP3 POP SWAP3 SWAP1 POP JUMP JUMPDEST PUSH1 0x0 DUP1 PUSH1 0x0 PUSH1 0x60 DUP5 DUP7 SUB SLT ISZERO PUSH2 0x18C5 JUMPI PUSH2 0x18C4 PUSH2 0x2066 JUMP JUMPDEST JUMPDEST PUSH1 0x0 PUSH2 0x18D3 DUP7 DUP3 DUP8 ADD PUSH2 0x1815 JUMP JUMPDEST SWAP4 POP POP PUSH1 0x20 PUSH2 0x18E4 DUP7 DUP3 DUP8 ADD PUSH2 0x1815 JUMP JUMPDEST SWAP3 POP POP PUSH1 0x40 PUSH2 0x18F5 DUP7 DUP3 DUP8 ADD PUSH2 0x182A JUMP JUMPDEST SWAP2 POP POP SWAP3 POP SWAP3 POP SWAP3 JUMP JUMPDEST PUSH1 0x0 DUP1 PUSH1 0x40 DUP4 DUP6 SUB SLT ISZERO PUSH2 0x1916 JUMPI PUSH2 0x1915 PUSH2 0x2066 JUMP JUMPDEST JUMPDEST PUSH1 0x0 PUSH2 0x1924 DUP6 DUP3 DUP7 ADD PUSH2 0x1815 JUMP JUMPDEST SWAP3 POP POP PUSH1 0x20 PUSH2 0x1935 DUP6 DUP3 DUP7 ADD PUSH2 0x182A JUMP JUMPDEST SWAP2 POP POP SWAP3 POP SWAP3 SWAP1 POP JUMP JUMPDEST PUSH1 0x0 PUSH1 0x20 DUP3 DUP5 SUB SLT ISZERO PUSH2 0x1955 JUMPI PUSH2 0x1954 PUSH2 0x2066 JUMP JUMPDEST JUMPDEST PUSH1 0x0 PUSH2 0x1963 DUP5 DUP3 DUP6 ADD PUSH2 0x182A JUMP JUMPDEST SWAP2 POP POP SWAP3 SWAP2 POP POP JUMP JUMPDEST PUSH2 0x1975 DUP2 PUSH2 0x1EF0 JUMP JUMPDEST DUP3 MSTORE POP POP JUMP JUMPDEST PUSH2 0x1984 DUP2 PUSH2 0x1F02 JUMP JUMPDEST DUP3 MSTORE POP POP JUMP JUMPDEST PUSH1 0x0 PUSH2 0x1995 DUP3 PUSH2 0x1E19 JUMP JUMPDEST PUSH2 0x199F DUP2 DUP6 PUSH2 0x1E24 JUMP JUMPDEST SWAP4 POP PUSH2 0x19AF DUP2 DUP6 PUSH1 0x20 DUP7 ADD PUSH2 0x1F45 JUMP JUMPDEST PUSH2 0x19B8 DUP2 PUSH2 0x206B JUMP JUMPDEST DUP5 ADD SWAP2 POP POP SWAP3 SWAP2 POP POP JUMP JUMPDEST PUSH1 0x0 PUSH2 0x19D0 PUSH1 0x1D DUP4 PUSH2 0x1E24 JUMP JUMPDEST SWAP2 POP PUSH2 0x19DB DUP3 PUSH2 0x207C JUMP JUMPDEST PUSH1 0x20 DUP3 ADD SWAP1 POP SWAP2 SWAP1 POP JUMP JUMPDEST PUSH1 0x0 PUSH2 0x19F3 PUSH1 0x23 DUP4 PUSH2 0x1E24 JUMP JUMPDEST SWAP2 POP PUSH2 0x19FE DUP3 PUSH2 0x20A5 JUMP JUMPDEST PUSH1 0x40 DUP3 ADD SWAP1 POP SWAP2 SWAP1 POP JUMP JUMPDEST PUSH1 0x0 PUSH2 0x1A16 PUSH1 0x22 DUP4 PUSH2 0x1E24 JUMP JUMPDEST SWAP2 POP PUSH2 0x1A21 DUP3 PUSH2 0x20F4 JUMP JUMPDEST PUSH1 0x40 DUP3 ADD SWAP1 POP SWAP2 SWAP1 POP JUMP JUMPDEST PUSH1 0x0 PUSH2 0x1A39 PUSH1 0x26 DUP4 PUSH2 0x1E24 JUMP JUMPDEST SWAP2 POP PUSH2 0x1A44 DUP3 PUSH2 0x2143 JUMP JUMPDEST PUSH1 0x40 DUP3 ADD SWAP1 POP SWAP2 SWAP1 POP JUMP JUMPDEST PUSH1 0x0 PUSH2 0x1A5C PUSH1 0x22 DUP4 PUSH2 0x1E24 JUMP JUMPDEST SWAP2 POP PUSH2 0x1A67 DUP3 PUSH2 0x2192 JUMP JUMPDEST PUSH1 0x40 DUP3 ADD SWAP1 POP SWAP2 SWAP1 POP JUMP JUMPDEST PUSH1 0x0 PUSH2 0x1A7F PUSH1 0x1D DUP4 PUSH2 0x1E24 JUMP JUMPDEST SWAP2 POP PUSH2 0x1A8A DUP3 PUSH2 0x21E1 JUMP JUMPDEST PUSH1 0x20 DUP3 ADD SWAP1 POP SWAP2 SWAP1 POP JUMP JUMPDEST PUSH1 0x0 PUSH2 0x1AA2 PUSH1 0x26 DUP4 PUSH2 0x1E24 JUMP JUMPDEST SWAP2 POP PUSH2 0x1AAD DUP3 PUSH2 0x220A JUMP JUMPDEST PUSH1 0x40 DUP3 ADD SWAP1 POP SWAP2 SWAP1 POP JUMP JUMPDEST PUSH1 0x0 PUSH2 0x1AC5 PUSH1 0x20 DUP4 PUSH2 0x1E24 JUMP JUMPDEST SWAP2 POP PUSH2 0x1AD0 DUP3 PUSH2 0x2259 JUMP JUMPDEST PUSH1 0x20 DUP3 ADD SWAP1 POP SWAP2 SWAP1 POP JUMP JUMPDEST PUSH1 0x0 PUSH2 0x1AE8 PUSH1 0x21 DUP4 PUSH2 0x1E24 JUMP JUMPDEST SWAP2 POP PUSH2 0x1AF3 DUP3 PUSH2 0x2282 JUMP JUMPDEST PUSH1 0x40 DUP3 ADD SWAP1 POP SWAP2 SWAP1 POP JUMP JUMPDEST PUSH1 0x0 PUSH2 0x1B0B PUSH1 0x25 DUP4 PUSH2 0x1E24 JUMP JUMPDEST SWAP2 POP PUSH2 0x1B16 DUP3 PUSH2 0x22D1 JUMP JUMPDEST PUSH1 0x40 DUP3 ADD SWAP1 POP SWAP2 SWAP1 POP JUMP JUMPDEST PUSH1 0x0 PUSH2 0x1B2E PUSH1 0x24 DUP4 PUSH2 0x1E24 JUMP JUMPDEST SWAP2 POP PUSH2 0x1B39 DUP3 PUSH2 0x2320 JUMP JUMPDEST PUSH1 0x40 DUP3 ADD SWAP1 POP SWAP2 SWAP1 POP JUMP JUMPDEST PUSH1 0x0 PUSH2 0x1B51 PUSH1 0x16 DUP4 PUSH2 0x1E24 JUMP JUMPDEST SWAP2 POP PUSH2 0x1B5C DUP3 PUSH2 0x236F JUMP JUMPDEST PUSH1 0x20 DUP3 ADD SWAP1 POP SWAP2 SWAP1 POP JUMP JUMPDEST PUSH1 0x0 PUSH2 0x1B74 PUSH1 0x25 DUP4 PUSH2 0x1E24 JUMP JUMPDEST SWAP2 POP PUSH2 0x1B7F DUP3 PUSH2 0x2398 JUMP JUMPDEST PUSH1 0x40 DUP3 ADD SWAP1 POP SWAP2 SWAP1 POP JUMP JUMPDEST PUSH1 0x0 PUSH2 0x1B97 PUSH1 0x1F DUP4 PUSH2 0x1E24 JUMP JUMPDEST SWAP2 POP PUSH2 0x1BA2 DUP3 PUSH2 0x23E7 JUMP JUMPDEST PUSH1 0x20 DUP3 ADD SWAP1 POP SWAP2 SWAP1 POP JUMP JUMPDEST PUSH2 0x1BB6 DUP2 PUSH2 0x1F2E JUMP JUMPDEST DUP3 MSTORE POP POP JUMP JUMPDEST PUSH2 0x1BC5 DUP2 PUSH2 0x1F38 JUMP JUMPDEST DUP3 MSTORE POP POP JUMP JUMPDEST PUSH1 0x0 PUSH1 0x20 DUP3 ADD SWAP1 POP PUSH2 0x1BE0 PUSH1 0x0 DUP4 ADD DUP5 PUSH2 0x196C JUMP JUMPDEST SWAP3 SWAP2 POP POP JUMP JUMPDEST PUSH1 0x0 PUSH1 0x20 DUP3 ADD SWAP1 POP PUSH2 0x1BFB PUSH1 0x0 DUP4 ADD DUP5 PUSH2 0x197B JUMP JUMPDEST SWAP3 SWAP2 POP POP JUMP JUMPDEST PUSH1 0x0 PUSH1 0x20 DUP3 ADD SWAP1 POP DUP2 DUP2 SUB PUSH1 0x0 DUP4 ADD MSTORE PUSH2 0x1C1B DUP2 DUP5 PUSH2 0x198A JUMP JUMPDEST SWAP1 POP SWAP3 SWAP2 POP POP JUMP JUMPDEST PUSH1 0x0 PUSH1 0x20 DUP3 ADD SWAP1 POP DUP2 DUP2 SUB PUSH1 0x0 DUP4 ADD MSTORE PUSH2 0x1C3C DUP2 PUSH2 0x19C3 JUMP JUMPDEST SWAP1 POP SWAP2 SWAP1 POP JUMP JUMPDEST PUSH1 0x0 PUSH1 0x20 DUP3 ADD SWAP1 POP DUP2 DUP2 SUB PUSH1 0x0 DUP4 ADD MSTORE PUSH2 0x1C5C DUP2 PUSH2 0x19E6 JUMP JUMPDEST SWAP1 POP SWAP2 SWAP1 POP JUMP JUMPDEST PUSH1 0x0 PUSH1 0x20 DUP3 ADD SWAP1 POP DUP2 DUP2 SUB PUSH1 0x0 DUP4 ADD MSTORE PUSH2 0x1C7C DUP2 PUSH2 0x1A09 JUMP JUMPDEST SWAP1 POP SWAP2 SWAP1 POP JUMP JUMPDEST PUSH1 0x0 PUSH1 0x20 DUP3 ADD SWAP1 POP DUP2 DUP2 SUB PUSH1 0x0 DUP4 ADD MSTORE PUSH2 0x1C9C DUP2 PUSH2 0x1A2C JUMP JUMPDEST SWAP1 POP SWAP2 SWAP1 POP JUMP JUMPDEST PUSH1 0x0 PUSH1 0x20 DUP3 ADD SWAP1 POP DUP2 DUP2 SUB PUSH1 0x0 DUP4 ADD MSTORE PUSH2 0x1CBC DUP2 PUSH2 0x1A4F JUMP JUMPDEST SWAP1 POP SWAP2 SWAP1 POP JUMP JUMPDEST PUSH1 0x0 PUSH1 0x20 DUP3 ADD SWAP1 POP DUP2 DUP2 SUB PUSH1 0x0 DUP4 ADD MSTORE PUSH2 0x1CDC DUP2 PUSH2 0x1A72 JUMP JUMPDEST SWAP1 POP SWAP2 SWAP1 POP JUMP JUMPDEST PUSH1 0x0 PUSH1 0x20 DUP3 ADD SWAP1 POP DUP2 DUP2 SUB PUSH1 0x0 DUP4 ADD MSTORE PUSH2 0x1CFC DUP2 PUSH2 0x1A95 JUMP JUMPDEST SWAP1 POP SWAP2 SWAP1 POP JUMP JUMPDEST PUSH1 0x0 PUSH1 0x20 DUP3 ADD SWAP1 POP DUP2 DUP2 SUB PUSH1 0x0 DUP4 ADD MSTORE PUSH2 0x1D1C DUP2 PUSH2 0x1AB8 JUMP JUMPDEST SWAP1 POP SWAP2 SWAP1 POP JUMP JUMPDEST PUSH1 0x0 PUSH1 0x20 DUP3 ADD SWAP1 POP DUP2 DUP2 SUB PUSH1 0x0 DUP4 ADD MSTORE PUSH2 0x1D3C DUP2 PUSH2 0x1ADB JUMP JUMPDEST SWAP1 POP SWAP2 SWAP1 POP JUMP JUMPDEST PUSH1 0x0 PUSH1 0x20 DUP3 ADD SWAP1 POP DUP2 DUP2 SUB PUSH1 0x0 DUP4 ADD MSTORE PUSH2 0x1D5C DUP2 PUSH2 0x1AFE JUMP JUMPDEST SWAP1 POP SWAP2 SWAP1 POP JUMP JUMPDEST PUSH1 0x0 PUSH1 0x20 DUP3 ADD SWAP1 POP DUP2 DUP2 SUB PUSH1 0x0 DUP4 ADD MSTORE PUSH2 0x1D7C DUP2 PUSH2 0x1B21 JUMP JUMPDEST SWAP1 POP SWAP2 SWAP1 POP JUMP JUMPDEST PUSH1 0x0 PUSH1 0x20 DUP3 ADD SWAP1 POP DUP2 DUP2 SUB PUSH1 0x0 DUP4 ADD MSTORE PUSH2 0x1D9C DUP2 PUSH2 0x1B44 JUMP JUMPDEST SWAP1 POP SWAP2 SWAP1 POP JUMP JUMPDEST PUSH1 0x0 PUSH1 0x20 DUP3 ADD SWAP1 POP DUP2 DUP2 SUB PUSH1 0x0 DUP4 ADD MSTORE PUSH2 0x1DBC DUP2 PUSH2 0x1B67 JUMP JUMPDEST SWAP1 POP SWAP2 SWAP1 POP JUMP JUMPDEST PUSH1 0x0 PUSH1 0x20 DUP3 ADD SWAP1 POP DUP2 DUP2 SUB PUSH1 0x0 DUP4 ADD MSTORE PUSH2 0x1DDC DUP2 PUSH2 0x1B8A JUMP JUMPDEST SWAP1 POP SWAP2 SWAP1 POP JUMP JUMPDEST PUSH1 0x0 PUSH1 0x20 DUP3 ADD SWAP1 POP PUSH2 0x1DF8 PUSH1 0x0 DUP4 ADD DUP5 PUSH2 0x1BAD JUMP JUMPDEST SWAP3 SWAP2 POP POP JUMP JUMPDEST PUSH1 0x0 PUSH1 0x20 DUP3 ADD SWAP1 POP PUSH2 0x1E13 PUSH1 0x0 DUP4 ADD DUP5 PUSH2 0x1BBC JUMP JUMPDEST SWAP3 SWAP2 POP POP JUMP JUMPDEST PUSH1 0x0 DUP2 MLOAD SWAP1 POP SWAP2 SWAP1 POP JUMP JUMPDEST PUSH1 0x0 DUP3 DUP3 MSTORE PUSH1 0x20 DUP3 ADD SWAP1 POP SWAP3 SWAP2 POP POP JUMP JUMPDEST PUSH1 0x0 PUSH2 0x1E40 DUP3 PUSH2 0x1F2E JUMP JUMPDEST SWAP2 POP PUSH2 0x1E4B DUP4 PUSH2 0x1F2E JUMP JUMPDEST SWAP3 POP DUP3 PUSH32 0xFFFFFFFFFFFFFFFFFFFFFFFFFFFFFFFFFFFFFFFFFFFFFFFFFFFFFFFFFFFFFFFF SUB DUP3 GT ISZERO PUSH2 0x1E80 JUMPI PUSH2 0x1E7F PUSH2 0x1FAA JUMP JUMPDEST JUMPDEST DUP3 DUP3 ADD SWAP1 POP SWAP3 SWAP2 POP POP JUMP JUMPDEST PUSH1 0x0 PUSH2 0x1E96 DUP3 PUSH2 0x1F2E JUMP JUMPDEST SWAP2 POP PUSH2 0x1EA1 DUP4 PUSH2 0x1F2E JUMP JUMPDEST SWAP3 POP DUP3 PUSH2 0x1EB1 JUMPI PUSH2 0x1EB0 PUSH2 0x1FD9 JUMP JUMPDEST JUMPDEST DUP3 DUP3 DIV SWAP1 POP SWAP3 SWAP2 POP POP JUMP JUMPDEST PUSH1 0x0 PUSH2 0x1EC7 DUP3 PUSH2 0x1F2E JUMP JUMPDEST SWAP2 POP PUSH2 0x1ED2 DUP4 PUSH2 0x1F2E JUMP JUMPDEST SWAP3 POP DUP3 DUP3 LT ISZERO PUSH2 0x1EE5 JUMPI PUSH2 0x1EE4 PUSH2 0x1FAA JUMP JUMPDEST JUMPDEST DUP3 DUP3 SUB SWAP1 POP SWAP3 SWAP2 POP POP JUMP JUMPDEST PUSH1 0x0 PUSH2 0x1EFB DUP3 PUSH2 0x1F0E JUMP JUMPDEST SWAP1 POP SWAP2 SWAP1 POP JUMP JUMPDEST PUSH1 0x0 DUP2 ISZERO ISZERO SWAP1 POP SWAP2 SWAP1 POP JUMP JUMPDEST PUSH1 0x0 PUSH20 0xFFFFFFFFFFFFFFFFFFFFFFFFFFFFFFFFFFFFFFFF DUP3 AND SWAP1 POP SWAP2 SWAP1 POP JUMP JUMPDEST PUSH1 0x0 DUP2 SWAP1 POP SWAP2 SWAP1 POP JUMP JUMPDEST PUSH1 0x0 PUSH1 0xFF DUP3 AND SWAP1 POP SWAP2 SWAP1 POP JUMP JUMPDEST PUSH1 0x0 JUMPDEST DUP4 DUP2 LT ISZERO PUSH2 0x1F63 JUMPI DUP1 DUP3 ADD MLOAD DUP2 DUP5 ADD MSTORE PUSH1 0x20 DUP2 ADD SWAP1 POP PUSH2 0x1F48 JUMP JUMPDEST DUP4 DUP2 GT ISZERO PUSH2 0x1F72 JUMPI PUSH1 0x0 DUP5 DUP5 ADD MSTORE JUMPDEST POP POP POP POP JUMP JUMPDEST PUSH1 0x0 PUSH1 0x2 DUP3 DIV SWAP1 POP PUSH1 0x1 DUP3 AND DUP1 PUSH2 0x1F90 JUMPI PUSH1 0x7F DUP3 AND SWAP2 POP JUMPDEST PUSH1 0x20 DUP3 LT DUP2 EQ ISZERO PUSH2 0x1FA4 JUMPI PUSH2 0x1FA3 PUSH2 0x2008 JUMP JUMPDEST JUMPDEST POP SWAP2 SWAP1 POP JUMP JUMPDEST PUSH32 0x4E487B7100000000000000000000000000000000000000000000000000000000 PUSH1 0x0 MSTORE PUSH1 0x11 PUSH1 0x4 MSTORE PUSH1 0x24 PUSH1 0x0 REVERT JUMPDEST PUSH32 0x4E487B7100000000000000000000000000000000000000000000000000000000 PUSH1 0x0 MSTORE PUSH1 0x12 PUSH1 0x4 MSTORE PUSH1 0x24 PUSH1 0x0 REVERT JUMPDEST PUSH32 0x4E487B7100000000000000000000000000000000000000000000000000000000 PUSH1 0x0 MSTORE PUSH1 0x22 PUSH1 0x4 MSTORE PUSH1 0x24 PUSH1 0x0 REVERT JUMPDEST PUSH32 0x4E487B7100000000000000000000000000000000000000000000000000000000 PUSH1 0x0 MSTORE PUSH1 0x32 PUSH1 0x4 MSTORE PUSH1 0x24 PUSH1 0x0 REVERT JUMPDEST PUSH1 0x0 DUP1 REVERT JUMPDEST PUSH1 0x0 PUSH1 0x1F NOT PUSH1 0x1F DUP4 ADD AND SWAP1 POP SWAP2 SWAP1 POP JUMP JUMPDEST PUSH32 0x4552433230536E617073686F743A206E6F6E6578697374656E74206964000000 PUSH1 0x0 DUP3 ADD MSTORE POP JUMP JUMPDEST PUSH32 0x45524332303A207472616E7366657220746F20746865207A65726F2061646472 PUSH1 0x0 DUP3 ADD MSTORE PUSH32 0x6573730000000000000000000000000000000000000000000000000000000000 PUSH1 0x20 DUP3 ADD MSTORE POP JUMP JUMPDEST PUSH32 0x45524332303A206275726E20616D6F756E7420657863656564732062616C616E PUSH1 0x0 DUP3 ADD MSTORE PUSH32 0x6365000000000000000000000000000000000000000000000000000000000000 PUSH1 0x20 DUP3 ADD MSTORE POP JUMP JUMPDEST PUSH32 0x4F776E61626C653A206E6577206F776E657220697320746865207A65726F2061 PUSH1 0x0 DUP3 ADD MSTORE PUSH32 0x6464726573730000000000000000000000000000000000000000000000000000 PUSH1 0x20 DUP3 ADD MSTORE POP JUMP JUMPDEST PUSH32 0x45524332303A20617070726F766520746F20746865207A65726F206164647265 PUSH1 0x0 DUP3 ADD MSTORE PUSH32 0x7373000000000000000000000000000000000000000000000000000000000000 PUSH1 0x20 DUP3 ADD MSTORE POP JUMP JUMPDEST PUSH32 0x45524332303A20696E73756666696369656E7420616C6C6F77616E6365000000 PUSH1 0x0 DUP3 ADD MSTORE POP JUMP JUMPDEST PUSH32 0x45524332303A207472616E7366657220616D6F756E7420657863656564732062 PUSH1 0x0 DUP3 ADD MSTORE PUSH32 0x616C616E63650000000000000000000000000000000000000000000000000000 PUSH1 0x20 DUP3 ADD MSTORE POP JUMP JUMPDEST PUSH32 0x4F776E61626C653A2063616C6C6572206973206E6F7420746865206F776E6572 PUSH1 0x0 DUP3 ADD MSTORE POP JUMP JUMPDEST PUSH32 0x45524332303A206275726E2066726F6D20746865207A65726F20616464726573 PUSH1 0x0 DUP3 ADD MSTORE PUSH32 0x7300000000000000000000000000000000000000000000000000000000000000 PUSH1 0x20 DUP3 ADD MSTORE POP JUMP JUMPDEST PUSH32 0x45524332303A207472616E736665722066726F6D20746865207A65726F206164 PUSH1 0x0 DUP3 ADD MSTORE PUSH32 0x6472657373000000000000000000000000000000000000000000000000000000 PUSH1 0x20 DUP3 ADD MSTORE POP JUMP JUMPDEST PUSH32 0x45524332303A20617070726F76652066726F6D20746865207A65726F20616464 PUSH1 0x0 DUP3 ADD MSTORE PUSH32 0x7265737300000000000000000000000000000000000000000000000000000000 PUSH1 0x20 DUP3 ADD MSTORE POP JUMP JUMPDEST PUSH32 0x4552433230536E617073686F743A206964206973203000000000000000000000 PUSH1 0x0 DUP3 ADD MSTORE POP JUMP JUMPDEST PUSH32 0x45524332303A2064656372656173656420616C6C6F77616E63652062656C6F77 PUSH1 0x0 DUP3 ADD MSTORE PUSH32 0x207A65726F000000000000000000000000000000000000000000000000000000 PUSH1 0x20 DUP3 ADD MSTORE POP JUMP JUMPDEST PUSH32 0x45524332303A206D696E7420746F20746865207A65726F206164647265737300 PUSH1 0x0 DUP3 ADD MSTORE POP JUMP JUMPDEST PUSH2 0x2419 DUP2 PUSH2 0x1EF0 JUMP JUMPDEST DUP2 EQ PUSH2 0x2424 JUMPI PUSH1 0x0 DUP1 REVERT JUMPDEST POP JUMP JUMPDEST PUSH2 0x2430 DUP2 PUSH2 0x1F2E JUMP JUMPDEST DUP2 EQ PUSH2 0x243B JUMPI PUSH1 0x0 DUP1 REVERT JUMPDEST POP JUMP INVALID LOG2 PUSH5 0x6970667358 0x22 SLT KECCAK256 0xCE ADD 0xFC 0xAA CALL 0x2C DUP3 0x4D AND 0xC2 SWAP5 PUSH3 0x70719A 0x2E 0xB3 CALLDATASIZE 0xB7 DUP5 0x24 PUSH11 0xABEC30F3CF122FFA7C0D64 PUSH20 0x6F6C634300080700330000000000000000000000 "
				},
				"gasEstimates": {
					"creation": {
						"codeDepositCost": "1866400",
						"executionCost": "infinite",
						"totalCost": "infinite"
					},
					"external": {
						"allowance(address,address)": "infinite",
						"approve(address,uint256)": "infinite",
						"balanceOf(address)": "2952",
						"balanceOfAt(address,uint256)": "infinite",
						"burn(uint256)": "infinite",
						"burnFrom(address,uint256)": "infinite",
						"decimals()": "455",
						"decreaseAllowance(address,uint256)": "infinite",
						"increaseAllowance(address,uint256)": "infinite",
						"mint(address,uint256)": "infinite",
						"name()": "infinite",
						"owner()": "2589",
						"renounceOwnership()": "30397",
						"snapshot()": "30191",
						"symbol()": "infinite",
						"totalSupply()": "2505",
						"totalSupplyAt(uint256)": "infinite",
						"transfer(address,uint256)": "infinite",
						"transferFrom(address,address,uint256)": "infinite",
						"transferOwnership(address)": "30833"
					},
					"internal": {
						"_beforeTokenTransfer(address,address,uint256)": "infinite"
					}
				},
				"methodIdentifiers": {
					"allowance(address,address)": "dd62ed3e",
					"approve(address,uint256)": "095ea7b3",
					"balanceOf(address)": "70a08231",
					"balanceOfAt(address,uint256)": "4ee2cd7e",
					"burn(uint256)": "42966c68",
					"burnFrom(address,uint256)": "79cc6790",
					"decimals()": "313ce567",
					"decreaseAllowance(address,uint256)": "a457c2d7",
					"increaseAllowance(address,uint256)": "39509351",
					"mint(address,uint256)": "40c10f19",
					"name()": "06fdde03",
					"owner()": "8da5cb5b",
					"renounceOwnership()": "715018a6",
					"snapshot()": "9711715a",
					"symbol()": "95d89b41",
					"totalSupply()": "18160ddd",
					"totalSupplyAt(uint256)": "981b24d0",
					"transfer(address,uint256)": "a9059cbb",
					"transferFrom(address,address,uint256)": "23b872dd",
					"transferOwnership(address)": "f2fde38b"
				}
			},
			"storageLayout": {
				"storage": [
					{
						"astId": 120,
						"contract": "contracts/erc20.sol:MyToken",
						"label": "_balances",
						"offset": 0,
						"slot": "0",
						"type": "t_mapping(t_address,t_uint256)"
					},
					{
						"astId": 126,
						"contract": "contracts/erc20.sol:MyToken",
						"label": "_allowances",
						"offset": 0,
						"slot": "1",
						"type": "t_mapping(t_address,t_mapping(t_address,t_uint256))"
					},
					{
						"astId": 128,
						"contract": "contracts/erc20.sol:MyToken",
						"label": "_totalSupply",
						"offset": 0,
						"slot": "2",
						"type": "t_uint256"
					},
					{
						"astId": 130,
						"contract": "contracts/erc20.sol:MyToken",
						"label": "_name",
						"offset": 0,
						"slot": "3",
						"type": "t_string_storage"
					},
					{
						"astId": 132,
						"contract": "contracts/erc20.sol:MyToken",
						"label": "_symbol",
						"offset": 0,
						"slot": "4",
						"type": "t_string_storage"
					},
					{
						"astId": 840,
						"contract": "contracts/erc20.sol:MyToken",
						"label": "_accountBalanceSnapshots",
						"offset": 0,
						"slot": "5",
						"type": "t_mapping(t_address,t_struct(Snapshots)835_storage)"
					},
					{
						"astId": 843,
						"contract": "contracts/erc20.sol:MyToken",
						"label": "_totalSupplySnapshots",
						"offset": 0,
						"slot": "6",
						"type": "t_struct(Snapshots)835_storage"
					},
					{
						"astId": 846,
						"contract": "contracts/erc20.sol:MyToken",
						"label": "_currentSnapshotId",
						"offset": 0,
						"slot": "8",
						"type": "t_struct(Counter)1278_storage"
					},
					{
						"astId": 7,
						"contract": "contracts/erc20.sol:MyToken",
						"label": "_owner",
						"offset": 0,
						"slot": "9",
						"type": "t_address"
					}
				],
				"types": {
					"t_address": {
						"encoding": "inplace",
						"label": "address",
						"numberOfBytes": "20"
					},
					"t_array(t_uint256)dyn_storage": {
						"base": "t_uint256",
						"encoding": "dynamic_array",
						"label": "uint256[]",
						"numberOfBytes": "32"
					},
					"t_mapping(t_address,t_mapping(t_address,t_uint256))": {
						"encoding": "mapping",
						"key": "t_address",
						"label": "mapping(address => mapping(address => uint256))",
						"numberOfBytes": "32",
						"value": "t_mapping(t_address,t_uint256)"
					},
					"t_mapping(t_address,t_struct(Snapshots)835_storage)": {
						"encoding": "mapping",
						"key": "t_address",
						"label": "mapping(address => struct ERC20Snapshot.Snapshots)",
						"numberOfBytes": "32",
						"value": "t_struct(Snapshots)835_storage"
					},
					"t_mapping(t_address,t_uint256)": {
						"encoding": "mapping",
						"key": "t_address",
						"label": "mapping(address => uint256)",
						"numberOfBytes": "32",
						"value": "t_uint256"
					},
					"t_string_storage": {
						"encoding": "bytes",
						"label": "string",
						"numberOfBytes": "32"
					},
					"t_struct(Counter)1278_storage": {
						"encoding": "inplace",
						"label": "struct Counters.Counter",
						"members": [
							{
								"astId": 1277,
								"contract": "contracts/erc20.sol:MyToken",
								"label": "_value",
								"offset": 0,
								"slot": "0",
								"type": "t_uint256"
							}
						],
						"numberOfBytes": "32"
					},
					"t_struct(Snapshots)835_storage": {
						"encoding": "inplace",
						"label": "struct ERC20Snapshot.Snapshots",
						"members": [
							{
								"astId": 831,
								"contract": "contracts/erc20.sol:MyToken",
								"label": "ids",
								"offset": 0,
								"slot": "0",
								"type": "t_array(t_uint256)dyn_storage"
							},
							{
								"astId": 834,
								"contract": "contracts/erc20.sol:MyToken",
								"label": "values",
								"offset": 0,
								"slot": "1",
								"type": "t_array(t_uint256)dyn_storage"
							}
						],
						"numberOfBytes": "64"
					},
					"t_uint256": {
						"encoding": "inplace",
						"label": "uint256",
						"numberOfBytes": "32"
					}
				}
			},
			"userdoc": {
				"kind": "user",
				"methods": {},
				"version": 1
			}
		}
	}
}