{
	"contracts/basic_solidity.sol": {
		"BasicSolidity": {
			"abi": [
				{
					"inputs": [
						{
							"internalType": "uint256",
							"name": "_balance",
							"type": "uint256"
						},
						{
							"internalType": "address",
							"name": "_wallet",
							"type": "address"
						}
					],
					"stateMutability": "nonpayable",
					"type": "constructor"
				},
				{
					"inputs": [
						{
							"internalType": "string",
							"name": "_car",
							"type": "string"
						},
						{
							"internalType": "uint256",
							"name": "miles",
							"type": "uint256"
						},
						{
							"internalType": "uint256",
							"name": "speed",
							"type": "uint256"
						}
					],
					"name": "addCar",
					"outputs": [],
					"stateMutability": "nonpayable",
					"type": "function"
				},
				{
					"inputs": [],
					"name": "age",
					"outputs": [
						{
							"internalType": "uint256",
							"name": "",
							"type": "uint256"
						}
					],
					"stateMutability": "view",
					"type": "function"
				},
				{
					"inputs": [],
					"name": "balance",
					"outputs": [
						{
							"internalType": "uint256",
							"name": "",
							"type": "uint256"
						}
					],
					"stateMutability": "view",
					"type": "function"
				},
				{
					"inputs": [
						{
							"internalType": "string",
							"name": "",
							"type": "string"
						}
					],
					"name": "carSpeed",
					"outputs": [
						{
							"internalType": "uint256",
							"name": "",
							"type": "uint256"
						}
					],
					"stateMutability": "view",
					"type": "function"
				},
				{
					"inputs": [
						{
							"internalType": "uint256",
							"name": "",
							"type": "uint256"
						}
					],
					"name": "carreer",
					"outputs": [
						{
							"internalType": "string",
							"name": "",
							"type": "string"
						}
					],
					"stateMutability": "view",
					"type": "function"
				},
				{
					"inputs": [
						{
							"internalType": "string",
							"name": "_car1",
							"type": "string"
						},
						{
							"internalType": "string",
							"name": "_car2",
							"type": "string"
						}
					],
					"name": "fasterCar",
					"outputs": [
						{
							"internalType": "string",
							"name": "",
							"type": "string"
						}
					],
					"stateMutability": "view",
					"type": "function"
				},
				{
					"inputs": [
						{
							"internalType": "uint256",
							"name": "_i",
							"type": "uint256"
						}
					],
					"name": "getNumber",
					"outputs": [
						{
							"internalType": "uint256",
							"name": "",
							"type": "uint256"
						}
					],
					"stateMutability": "view",
					"type": "function"
				},
				{
					"inputs": [],
					"name": "getWallet",
					"outputs": [
						{
							"internalType": "address",
							"name": "",
							"type": "address"
						}
					],
					"stateMutability": "view",
					"type": "function"
				},
				{
					"inputs": [
						{
							"internalType": "uint256",
							"name": "",
							"type": "uint256"
						}
					],
					"name": "girl",
					"outputs": [
						{
							"internalType": "string",
							"name": "",
							"type": "string"
						}
					],
					"stateMutability": "view",
					"type": "function"
				},
				{
					"inputs": [
						{
							"internalType": "string",
							"name": "",
							"type": "string"
						}
					],
					"name": "isCar",
					"outputs": [
						{
							"internalType": "bool",
							"name": "",
							"type": "bool"
						}
					],
					"stateMutability": "view",
					"type": "function"
				},
				{
					"inputs": [],
					"name": "isMale",
					"outputs": [
						{
							"internalType": "bool",
							"name": "",
							"type": "bool"
						}
					],
					"stateMutability": "view",
					"type": "function"
				},
				{
					"inputs": [],
					"name": "isVIPSender",
					"outputs": [
						{
							"internalType": "bool",
							"name": "",
							"type": "bool"
						}
					],
					"stateMutability": "view",
					"type": "function"
				},
				{
					"inputs": [
						{
							"internalType": "string",
							"name": "",
							"type": "string"
						}
					],
					"name": "mileOfCar",
					"outputs": [
						{
							"internalType": "uint256",
							"name": "",
							"type": "uint256"
						}
					],
					"stateMutability": "view",
					"type": "function"
				},
				{
					"inputs": [],
					"name": "name",
					"outputs": [
						{
							"internalType": "string",
							"name": "",
							"type": "string"
						}
					],
					"stateMutability": "view",
					"type": "function"
				},
				{
					"inputs": [],
					"name": "owner",
					"outputs": [
						{
							"internalType": "address",
							"name": "",
							"type": "address"
						}
					],
					"stateMutability": "view",
					"type": "function"
				},
				{
					"inputs": [],
					"name": "plusResult",
					"outputs": [
						{
							"internalType": "uint256",
							"name": "",
							"type": "uint256"
						}
					],
					"stateMutability": "view",
					"type": "function"
				},
				{
					"inputs": [
						{
							"internalType": "string",
							"name": "_girl",
							"type": "string"
						}
					],
					"name": "tinder",
					"outputs": [],
					"stateMutability": "nonpayable",
					"type": "function"
				},
				{
					"inputs": [
						{
							"internalType": "uint256",
							"name": "_withdrow",
							"type": "uint256"
						},
						{
							"internalType": "address",
							"name": "_otheraddress",
							"type": "address"
						}
					],
					"name": "tranfer",
					"outputs": [
						{
							"internalType": "uint256",
							"name": "",
							"type": "uint256"
						}
					],
					"stateMutability": "nonpayable",
					"type": "function"
				},
				{
					"inputs": [
						{
							"internalType": "address",
							"name": "",
							"type": "address"
						}
					],
					"name": "txWithdrow",
					"outputs": [
						{
							"internalType": "uint256",
							"name": "",
							"type": "uint256"
						}
					],
					"stateMutability": "view",
					"type": "function"
				}
			],
			"devdoc": {
				"kind": "dev",
				"methods": {},
				"version": 1
			},
			"evm": {
				"assembly": "    /* \"contracts/basic_solidity.sol\":60:3190  contract BasicSolidity {\r... */\n  mstore(0x40, 0x80)\n    /* \"contracts/basic_solidity.sol\":132:133  0 */\n  0x00\n    /* \"contracts/basic_solidity.sol\":115:133  uint256 global = 0 */\n  dup1\n  sstore\n    /* \"contracts/basic_solidity.sol\":182:217  string public name  = \"Tony Strark\" */\n  mload(0x40)\n  dup1\n  0x40\n  add\n  0x40\n  mstore\n  dup1\n  0x0b\n  dup2\n  mstore\n  0x20\n  add\n  0x546f6e792053747261726b000000000000000000000000000000000000000000\n  dup2\n  mstore\n  pop\n  0x01\n  swap1\n  dup1\n  mload\n  swap1\n  0x20\n  add\n  swap1\n  tag_1\n  swap3\n  swap2\n  swap1\n  tag_2\n  jump\t// in\ntag_1:\n  pop\n    /* \"contracts/basic_solidity.sol\":250:252  48 */\n  0x30\n    /* \"contracts/basic_solidity.sol\":226:252  uint256 public age   =  48 */\n  0x02\n  sstore\n    /* \"contracts/basic_solidity.sol\":285:289  true */\n  0x01\n    /* \"contracts/basic_solidity.sol\":259:289  bool   public  isMale  =  true */\n  0x03\n  exp(0x0100, 0x00)\n  dup2\n  sload\n  dup2\n  0xff\n  mul\n  not\n  and\n  swap1\n  dup4\n  iszero\n  iszero\n  mul\n  or\n  swap1\n  sstore\n  pop\n    /* \"contracts/basic_solidity.sol\":327:384  string[]  public carreer  = [\"playboy\",\"engineer\",\"hero\"] */\n  mload(0x40)\n  dup1\n  0x60\n  add\n  0x40\n  mstore\n  dup1\n  mload(0x40)\n  dup1\n  0x40\n  add\n  0x40\n  mstore\n  dup1\n  0x07\n  dup2\n  mstore\n  0x20\n  add\n  0x706c6179626f7900000000000000000000000000000000000000000000000000\n  dup2\n  mstore\n  pop\n  dup2\n  mstore\n  0x20\n  add\n  mload(0x40)\n  dup1\n  0x40\n  add\n  0x40\n  mstore\n  dup1\n  0x08\n  dup2\n  mstore\n  0x20\n  add\n  0x656e67696e656572000000000000000000000000000000000000000000000000\n  dup2\n  mstore\n  pop\n  dup2\n  mstore\n  0x20\n  add\n  mload(0x40)\n  dup1\n  0x40\n  add\n  0x40\n  mstore\n  dup1\n  0x04\n  dup2\n  mstore\n  0x20\n  add\n  0x6865726f00000000000000000000000000000000000000000000000000000000\n  dup2\n  mstore\n  pop\n  dup2\n  mstore\n  pop\n  0x05\n  swap1\n  0x03\n  tag_3\n  swap3\n  swap2\n  swap1\n  tag_4\n  jump\t// in\ntag_3:\n  pop\n    /* \"contracts/basic_solidity.sol\":761:902  constructor( uint256 _balance, address _wallet){\r... */\n  callvalue\n  dup1\n  iszero\n  tag_5\n  jumpi\n  0x00\n  dup1\n  revert\ntag_5:\n  pop\n  mload(0x40)\n  sub(codesize, bytecodeSize)\n  dup1\n  bytecodeSize\n  dup4\n  codecopy\n  dup2\n  dup2\n  add\n  0x40\n  mstore\n  dup2\n  add\n  swap1\n  tag_6\n  swap2\n  swap1\n  tag_7\n  jump\t// in\ntag_6:\n    /* \"contracts/basic_solidity.sol\":827:837  msg.sender */\n  caller\n    /* \"contracts/basic_solidity.sol\":819:824  owner */\n  0x08\n  0x00\n    /* \"contracts/basic_solidity.sol\":819:837  owner = msg.sender */\n  0x0100\n  exp\n  dup2\n  sload\n  dup2\n  0xffffffffffffffffffffffffffffffffffffffff\n  mul\n  not\n  and\n  swap1\n  dup4\n  0xffffffffffffffffffffffffffffffffffffffff\n  and\n  mul\n  or\n  swap1\n  sstore\n  pop\n    /* \"contracts/basic_solidity.sol\":858:866  _balance */\n  dup2\n    /* \"contracts/basic_solidity.sol\":848:855  balance */\n  0x04\n    /* \"contracts/basic_solidity.sol\":848:866  balance = _balance */\n  dup2\n  swap1\n  sstore\n  pop\n    /* \"contracts/basic_solidity.sol\":887:894  _wallet */\n  dup1\n    /* \"contracts/basic_solidity.sol\":877:883  wallet */\n  0x06\n  0x00\n    /* \"contracts/basic_solidity.sol\":877:894  wallet  = _wallet */\n  0x0100\n  exp\n  dup2\n  sload\n  dup2\n  0xffffffffffffffffffffffffffffffffffffffff\n  mul\n  not\n  and\n  swap1\n  dup4\n  0xffffffffffffffffffffffffffffffffffffffff\n  and\n  mul\n  or\n  swap1\n  sstore\n  pop\n    /* \"contracts/basic_solidity.sol\":761:902  constructor( uint256 _balance, address _wallet){\r... */\n  pop\n  pop\n    /* \"contracts/basic_solidity.sol\":60:3190  contract BasicSolidity {\r... */\n  jump(tag_10)\ntag_2:\n  dup3\n  dup1\n  sload\n  tag_11\n  swap1\n  tag_12\n  jump\t// in\ntag_11:\n  swap1\n  0x00\n  mstore\n  keccak256(0x00, 0x20)\n  swap1\n  0x1f\n  add\n  0x20\n  swap1\n  div\n  dup2\n  add\n  swap3\n  dup3\n  tag_14\n  jumpi\n  0x00\n  dup6\n  sstore\n  jump(tag_13)\ntag_14:\n  dup3\n  0x1f\n  lt\n  tag_15\n  jumpi\n  dup1\n  mload\n  not(0xff)\n  and\n  dup4\n  dup1\n  add\n  or\n  dup6\n  sstore\n  jump(tag_13)\ntag_15:\n  dup3\n  dup1\n  add\n  0x01\n  add\n  dup6\n  sstore\n  dup3\n  iszero\n  tag_13\n  jumpi\n  swap2\n  dup3\n  add\ntag_16:\n  dup3\n  dup2\n  gt\n  iszero\n  tag_17\n  jumpi\n  dup3\n  mload\n  dup3\n  sstore\n  swap2\n  0x20\n  add\n  swap2\n  swap1\n  0x01\n  add\n  swap1\n  jump(tag_16)\ntag_17:\ntag_13:\n  pop\n  swap1\n  pop\n  tag_18\n  swap2\n  swap1\n  tag_19\n  jump\t// in\ntag_18:\n  pop\n  swap1\n  jump\t// out\ntag_4:\n  dup3\n  dup1\n  sload\n  dup3\n  dup3\n  sstore\n  swap1\n  0x00\n  mstore\n  keccak256(0x00, 0x20)\n  swap1\n  dup2\n  add\n  swap3\n  dup3\n  iszero\n  tag_20\n  jumpi\n  swap2\n  0x20\n  mul\n  dup3\n  add\ntag_21:\n  dup3\n  dup2\n  gt\n  iszero\n  tag_22\n  jumpi\n  dup3\n  mload\n  dup3\n  swap1\n  dup1\n  mload\n  swap1\n  0x20\n  add\n  swap1\n  tag_23\n  swap3\n  swap2\n  swap1\n  tag_2\n  jump\t// in\ntag_23:\n  pop\n  swap2\n  0x20\n  add\n  swap2\n  swap1\n  0x01\n  add\n  swap1\n  jump(tag_21)\ntag_22:\ntag_20:\n  pop\n  swap1\n  pop\n  tag_24\n  swap2\n  swap1\n  tag_25\n  jump\t// in\ntag_24:\n  pop\n  swap1\n  jump\t// out\ntag_19:\ntag_26:\n  dup1\n  dup3\n  gt\n  iszero\n  tag_27\n  jumpi\n  0x00\n  dup2\n  0x00\n  swap1\n  sstore\n  pop\n  0x01\n  add\n  jump(tag_26)\ntag_27:\n  pop\n  swap1\n  jump\t// out\ntag_25:\ntag_28:\n  dup1\n  dup3\n  gt\n  iszero\n  tag_29\n  jumpi\n  0x00\n  dup2\n  dup2\n  tag_30\n  swap2\n  swap1\n  tag_31\n  jump\t// in\ntag_30:\n  pop\n  0x01\n  add\n  jump(tag_28)\ntag_29:\n  pop\n  swap1\n  jump\t// out\ntag_31:\n  pop\n  dup1\n  sload\n  tag_32\n  swap1\n  tag_12\n  jump\t// in\ntag_32:\n  0x00\n  dup3\n  sstore\n  dup1\n  0x1f\n  lt\n  tag_34\n  jumpi\n  pop\n  jump(tag_33)\ntag_34:\n  0x1f\n  add\n  0x20\n  swap1\n  div\n  swap1\n  0x00\n  mstore\n  keccak256(0x00, 0x20)\n  swap1\n  dup2\n  add\n  swap1\n  tag_35\n  swap2\n  swap1\n  tag_19\n  jump\t// in\ntag_35:\ntag_33:\n  pop\n  jump\t// out\n    /* \"#utility.yul\":7:150   */\ntag_37:\n    /* \"#utility.yul\":64:69   */\n  0x00\n    /* \"#utility.yul\":95:101   */\n  dup2\n    /* \"#utility.yul\":89:102   */\n  mload\n    /* \"#utility.yul\":80:102   */\n  swap1\n  pop\n    /* \"#utility.yul\":111:144   */\n  tag_39\n    /* \"#utility.yul\":138:143   */\n  dup2\n    /* \"#utility.yul\":111:144   */\n  tag_40\n  jump\t// in\ntag_39:\n    /* \"#utility.yul\":7:150   */\n  swap3\n  swap2\n  pop\n  pop\n  jump\t// out\n    /* \"#utility.yul\":156:299   */\ntag_41:\n    /* \"#utility.yul\":213:218   */\n  0x00\n    /* \"#utility.yul\":244:250   */\n  dup2\n    /* \"#utility.yul\":238:251   */\n  mload\n    /* \"#utility.yul\":229:251   */\n  swap1\n  pop\n    /* \"#utility.yul\":260:293   */\n  tag_43\n    /* \"#utility.yul\":287:292   */\n  dup2\n    /* \"#utility.yul\":260:293   */\n  tag_44\n  jump\t// in\ntag_43:\n    /* \"#utility.yul\":156:299   */\n  swap3\n  swap2\n  pop\n  pop\n  jump\t// out\n    /* \"#utility.yul\":305:812   */\ntag_7:\n    /* \"#utility.yul\":384:390   */\n  0x00\n    /* \"#utility.yul\":392:398   */\n  dup1\n    /* \"#utility.yul\":441:443   */\n  0x40\n    /* \"#utility.yul\":429:438   */\n  dup4\n    /* \"#utility.yul\":420:427   */\n  dup6\n    /* \"#utility.yul\":416:439   */\n  sub\n    /* \"#utility.yul\":412:444   */\n  slt\n    /* \"#utility.yul\":409:528   */\n  iszero\n  tag_46\n  jumpi\n    /* \"#utility.yul\":447:526   */\n  tag_47\n  tag_48\n  jump\t// in\ntag_47:\n    /* \"#utility.yul\":409:528   */\ntag_46:\n    /* \"#utility.yul\":567:568   */\n  0x00\n    /* \"#utility.yul\":592:656   */\n  tag_49\n    /* \"#utility.yul\":648:655   */\n  dup6\n    /* \"#utility.yul\":639:645   */\n  dup3\n    /* \"#utility.yul\":628:637   */\n  dup7\n    /* \"#utility.yul\":624:646   */\n  add\n    /* \"#utility.yul\":592:656   */\n  tag_41\n  jump\t// in\ntag_49:\n    /* \"#utility.yul\":582:656   */\n  swap3\n  pop\n    /* \"#utility.yul\":538:666   */\n  pop\n    /* \"#utility.yul\":705:707   */\n  0x20\n    /* \"#utility.yul\":731:795   */\n  tag_50\n    /* \"#utility.yul\":787:794   */\n  dup6\n    /* \"#utility.yul\":778:784   */\n  dup3\n    /* \"#utility.yul\":767:776   */\n  dup7\n    /* \"#utility.yul\":763:785   */\n  add\n    /* \"#utility.yul\":731:795   */\n  tag_37\n  jump\t// in\ntag_50:\n    /* \"#utility.yul\":721:795   */\n  swap2\n  pop\n    /* \"#utility.yul\":676:805   */\n  pop\n    /* \"#utility.yul\":305:812   */\n  swap3\n  pop\n  swap3\n  swap1\n  pop\n  jump\t// out\n    /* \"#utility.yul\":899:995   */\ntag_53:\n    /* \"#utility.yul\":936:943   */\n  0x00\n    /* \"#utility.yul\":965:989   */\n  tag_55\n    /* \"#utility.yul\":983:988   */\n  dup3\n    /* \"#utility.yul\":965:989   */\n  tag_56\n  jump\t// in\ntag_55:\n    /* \"#utility.yul\":954:989   */\n  swap1\n  pop\n    /* \"#utility.yul\":899:995   */\n  swap2\n  swap1\n  pop\n  jump\t// out\n    /* \"#utility.yul\":1001:1127   */\ntag_56:\n    /* \"#utility.yul\":1038:1045   */\n  0x00\n    /* \"#utility.yul\":1078:1120   */\n  0xffffffffffffffffffffffffffffffffffffffff\n    /* \"#utility.yul\":1071:1076   */\n  dup3\n    /* \"#utility.yul\":1067:1121   */\n  and\n    /* \"#utility.yul\":1056:1121   */\n  swap1\n  pop\n    /* \"#utility.yul\":1001:1127   */\n  swap2\n  swap1\n  pop\n  jump\t// out\n    /* \"#utility.yul\":1133:1210   */\ntag_58:\n    /* \"#utility.yul\":1170:1177   */\n  0x00\n    /* \"#utility.yul\":1199:1204   */\n  dup2\n    /* \"#utility.yul\":1188:1204   */\n  swap1\n  pop\n    /* \"#utility.yul\":1133:1210   */\n  swap2\n  swap1\n  pop\n  jump\t// out\n    /* \"#utility.yul\":1216:1536   */\ntag_12:\n    /* \"#utility.yul\":1260:1266   */\n  0x00\n    /* \"#utility.yul\":1297:1298   */\n  0x02\n    /* \"#utility.yul\":1291:1295   */\n  dup3\n    /* \"#utility.yul\":1287:1299   */\n  div\n    /* \"#utility.yul\":1277:1299   */\n  swap1\n  pop\n    /* \"#utility.yul\":1344:1345   */\n  0x01\n    /* \"#utility.yul\":1338:1342   */\n  dup3\n    /* \"#utility.yul\":1334:1346   */\n  and\n    /* \"#utility.yul\":1365:1383   */\n  dup1\n    /* \"#utility.yul\":1355:1436   */\n  tag_61\n  jumpi\n    /* \"#utility.yul\":1421:1425   */\n  0x7f\n    /* \"#utility.yul\":1413:1419   */\n  dup3\n    /* \"#utility.yul\":1409:1426   */\n  and\n    /* \"#utility.yul\":1399:1426   */\n  swap2\n  pop\n    /* \"#utility.yul\":1355:1436   */\ntag_61:\n    /* \"#utility.yul\":1483:1485   */\n  0x20\n    /* \"#utility.yul\":1475:1481   */\n  dup3\n    /* \"#utility.yul\":1472:1486   */\n  lt\n    /* \"#utility.yul\":1452:1470   */\n  dup2\n    /* \"#utility.yul\":1449:1487   */\n  eq\n    /* \"#utility.yul\":1446:1530   */\n  iszero\n  tag_62\n  jumpi\n    /* \"#utility.yul\":1502:1520   */\n  tag_63\n  tag_64\n  jump\t// in\ntag_63:\n    /* \"#utility.yul\":1446:1530   */\ntag_62:\n    /* \"#utility.yul\":1267:1536   */\n  pop\n    /* \"#utility.yul\":1216:1536   */\n  swap2\n  swap1\n  pop\n  jump\t// out\n    /* \"#utility.yul\":1542:1722   */\ntag_64:\n    /* \"#utility.yul\":1590:1667   */\n  0x4e487b7100000000000000000000000000000000000000000000000000000000\n    /* \"#utility.yul\":1587:1588   */\n  0x00\n    /* \"#utility.yul\":1580:1668   */\n  mstore\n    /* \"#utility.yul\":1687:1691   */\n  0x22\n    /* \"#utility.yul\":1684:1685   */\n  0x04\n    /* \"#utility.yul\":1677:1692   */\n  mstore\n    /* \"#utility.yul\":1711:1715   */\n  0x24\n    /* \"#utility.yul\":1708:1709   */\n  0x00\n    /* \"#utility.yul\":1701:1716   */\n  revert\n    /* \"#utility.yul\":1851:1968   */\ntag_48:\n    /* \"#utility.yul\":1960:1961   */\n  0x00\n    /* \"#utility.yul\":1957:1958   */\n  dup1\n    /* \"#utility.yul\":1950:1962   */\n  revert\n    /* \"#utility.yul\":1974:2096   */\ntag_40:\n    /* \"#utility.yul\":2047:2071   */\n  tag_70\n    /* \"#utility.yul\":2065:2070   */\n  dup2\n    /* \"#utility.yul\":2047:2071   */\n  tag_53\n  jump\t// in\ntag_70:\n    /* \"#utility.yul\":2040:2045   */\n  dup2\n    /* \"#utility.yul\":2037:2072   */\n  eq\n    /* \"#utility.yul\":2027:2090   */\n  tag_71\n  jumpi\n    /* \"#utility.yul\":2086:2087   */\n  0x00\n    /* \"#utility.yul\":2083:2084   */\n  dup1\n    /* \"#utility.yul\":2076:2088   */\n  revert\n    /* \"#utility.yul\":2027:2090   */\ntag_71:\n    /* \"#utility.yul\":1974:2096   */\n  pop\n  jump\t// out\n    /* \"#utility.yul\":2102:2224   */\ntag_44:\n    /* \"#utility.yul\":2175:2199   */\n  tag_73\n    /* \"#utility.yul\":2193:2198   */\n  dup2\n    /* \"#utility.yul\":2175:2199   */\n  tag_58\n  jump\t// in\ntag_73:\n    /* \"#utility.yul\":2168:2173   */\n  dup2\n    /* \"#utility.yul\":2165:2200   */\n  eq\n    /* \"#utility.yul\":2155:2218   */\n  tag_74\n  jumpi\n    /* \"#utility.yul\":2214:2215   */\n  0x00\n    /* \"#utility.yul\":2211:2212   */\n  dup1\n    /* \"#utility.yul\":2204:2216   */\n  revert\n    /* \"#utility.yul\":2155:2218   */\ntag_74:\n    /* \"#utility.yul\":2102:2224   */\n  pop\n  jump\t// out\n    /* \"contracts/basic_solidity.sol\":60:3190  contract BasicSolidity {\r... */\ntag_10:\n  dataSize(sub_0)\n  dup1\n  dataOffset(sub_0)\n  0x00\n  codecopy\n  0x00\n  return\nstop\n\nsub_0: assembly {\n        /* \"contracts/basic_solidity.sol\":60:3190  contract BasicSolidity {\r... */\n      mstore(0x40, 0x80)\n      callvalue\n      dup1\n      iszero\n      tag_1\n      jumpi\n      0x00\n      dup1\n      revert\n    tag_1:\n      pop\n      jumpi(tag_2, lt(calldatasize, 0x04))\n      shr(0xe0, calldataload(0x00))\n      dup1\n      0x8b8930d3\n      gt\n      tag_22\n      jumpi\n      dup1\n      0xcfb5843c\n      gt\n      tag_23\n      jumpi\n      dup1\n      0xcfb5843c\n      eq\n      tag_17\n      jumpi\n      dup1\n      0xf72a183d\n      eq\n      tag_18\n      jumpi\n      dup1\n      0xf9052ce2\n      eq\n      tag_19\n      jumpi\n      dup1\n      0xfc563658\n      eq\n      tag_20\n      jumpi\n      dup1\n      0xfcc9e5c5\n      eq\n      tag_21\n      jumpi\n      jump(tag_2)\n    tag_23:\n      dup1\n      0x8b8930d3\n      eq\n      tag_12\n      jumpi\n      dup1\n      0x8da5cb5b\n      eq\n      tag_13\n      jumpi\n      dup1\n      0xaed43682\n      eq\n      tag_14\n      jumpi\n      dup1\n      0xb69ef8a8\n      eq\n      tag_15\n      jumpi\n      dup1\n      0xc8351be0\n      eq\n      tag_16\n      jumpi\n      jump(tag_2)\n    tag_22:\n      dup1\n      0x449549d5\n      gt\n      tag_24\n      jumpi\n      dup1\n      0x449549d5\n      eq\n      tag_7\n      jumpi\n      dup1\n      0x5cd836a3\n      eq\n      tag_8\n      jumpi\n      dup1\n      0x654a573c\n      eq\n      tag_9\n      jumpi\n      dup1\n      0x853320e3\n      eq\n      tag_10\n      jumpi\n      dup1\n      0x87e8599f\n      eq\n      tag_11\n      jumpi\n      jump(tag_2)\n    tag_24:\n      dup1\n      0x06fdde03\n      eq\n      tag_3\n      jumpi\n      dup1\n      0x13299604\n      eq\n      tag_4\n      jumpi\n      dup1\n      0x262a9dff\n      eq\n      tag_5\n      jumpi\n      dup1\n      0x2d47689c\n      eq\n      tag_6\n      jumpi\n    tag_2:\n      0x00\n      dup1\n      revert\n        /* \"contracts/basic_solidity.sol\":182:217  string public name  = \"Tony Strark\" */\n    tag_3:\n      tag_25\n      tag_26\n      jump\t// in\n    tag_25:\n      mload(0x40)\n      tag_27\n      swap2\n      swap1\n      tag_28\n      jump\t// in\n    tag_27:\n      mload(0x40)\n      dup1\n      swap2\n      sub\n      swap1\n      return\n        /* \"contracts/basic_solidity.sol\":1014:1113  function getWallet() public view OnlyOwner returns(address){\r... */\n    tag_4:\n      tag_29\n      tag_30\n      jump\t// in\n    tag_29:\n      mload(0x40)\n      tag_31\n      swap2\n      swap1\n      tag_32\n      jump\t// in\n    tag_31:\n      mload(0x40)\n      dup1\n      swap2\n      sub\n      swap1\n      return\n        /* \"contracts/basic_solidity.sol\":226:252  uint256 public age   =  48 */\n    tag_5:\n      tag_33\n      tag_34\n      jump\t// in\n    tag_33:\n      mload(0x40)\n      tag_35\n      swap2\n      swap1\n      tag_36\n      jump\t// in\n    tag_35:\n      mload(0x40)\n      dup1\n      swap2\n      sub\n      swap1\n      return\n        /* \"contracts/basic_solidity.sol\":704:750  mapping(address => uint256 ) public txWithdrow */\n    tag_6:\n      tag_37\n      0x04\n      dup1\n      calldatasize\n      sub\n      dup2\n      add\n      swap1\n      tag_38\n      swap2\n      swap1\n      tag_39\n      jump\t// in\n    tag_38:\n      tag_40\n      jump\t// in\n    tag_37:\n      mload(0x40)\n      tag_41\n      swap2\n      swap1\n      tag_36\n      jump\t// in\n    tag_41:\n      mload(0x40)\n      dup1\n      swap2\n      sub\n      swap1\n      return\n        /* \"contracts/basic_solidity.sol\":426:447  string[]  public girl */\n    tag_7:\n      tag_42\n      0x04\n      dup1\n      calldatasize\n      sub\n      dup2\n      add\n      swap1\n      tag_43\n      swap2\n      swap1\n      tag_44\n      jump\t// in\n    tag_43:\n      tag_45\n      jump\t// in\n    tag_42:\n      mload(0x40)\n      tag_46\n      swap2\n      swap1\n      tag_28\n      jump\t// in\n    tag_46:\n      mload(0x40)\n      dup1\n      swap2\n      sub\n      swap1\n      return\n        /* \"contracts/basic_solidity.sol\":327:384  string[]  public carreer  = [\"playboy\",\"engineer\",\"hero\"] */\n    tag_8:\n      tag_47\n      0x04\n      dup1\n      calldatasize\n      sub\n      dup2\n      add\n      swap1\n      tag_48\n      swap2\n      swap1\n      tag_44\n      jump\t// in\n    tag_48:\n      tag_49\n      jump\t// in\n    tag_47:\n      mload(0x40)\n      tag_50\n      swap2\n      swap1\n      tag_28\n      jump\t// in\n    tag_50:\n      mload(0x40)\n      dup1\n      swap2\n      sub\n      swap1\n      return\n        /* \"contracts/basic_solidity.sol\":259:289  bool   public  isMale  =  true */\n    tag_9:\n      tag_51\n      tag_52\n      jump\t// in\n    tag_51:\n      mload(0x40)\n      tag_53\n      swap2\n      swap1\n      tag_54\n      jump\t// in\n    tag_53:\n      mload(0x40)\n      dup1\n      swap2\n      sub\n      swap1\n      return\n        /* \"contracts/basic_solidity.sol\":485:528  mapping(string => uint256) public mileOfCar */\n    tag_10:\n      tag_55\n      0x04\n      dup1\n      calldatasize\n      sub\n      dup2\n      add\n      swap1\n      tag_56\n      swap2\n      swap1\n      tag_57\n      jump\t// in\n    tag_56:\n      tag_58\n      jump\t// in\n    tag_55:\n      mload(0x40)\n      tag_59\n      swap2\n      swap1\n      tag_36\n      jump\t// in\n    tag_59:\n      mload(0x40)\n      dup1\n      swap2\n      sub\n      swap1\n      return\n        /* \"contracts/basic_solidity.sol\":1548:1633  function plusResult() public view returns(uint256){\r... */\n    tag_11:\n      tag_60\n      tag_61\n      jump\t// in\n    tag_60:\n      mload(0x40)\n      tag_62\n      swap2\n      swap1\n      tag_36\n      jump\t// in\n    tag_62:\n      mload(0x40)\n      dup1\n      swap2\n      sub\n      swap1\n      return\n        /* \"contracts/basic_solidity.sol\":1641:2182  function tranfer(uint256 _withdrow ,address _otheraddress) public  returns(uint256) {\r... */\n    tag_12:\n      tag_63\n      0x04\n      dup1\n      calldatasize\n      sub\n      dup2\n      add\n      swap1\n      tag_64\n      swap2\n      swap1\n      tag_65\n      jump\t// in\n    tag_64:\n      tag_66\n      jump\t// in\n    tag_63:\n      mload(0x40)\n      tag_67\n      swap2\n      swap1\n      tag_36\n      jump\t// in\n    tag_67:\n      mload(0x40)\n      dup1\n      swap2\n      sub\n      swap1\n      return\n        /* \"contracts/basic_solidity.sol\":456:476  address public owner */\n    tag_13:\n      tag_68\n      tag_69\n      jump\t// in\n    tag_68:\n      mload(0x40)\n      tag_70\n      swap2\n      swap1\n      tag_32\n      jump\t// in\n    tag_70:\n      mload(0x40)\n      dup1\n      swap2\n      sub\n      swap1\n      return\n        /* \"contracts/basic_solidity.sol\":578:620  mapping(string => uint256) public carSpeed */\n    tag_14:\n      tag_71\n      0x04\n      dup1\n      calldatasize\n      sub\n      dup2\n      add\n      swap1\n      tag_72\n      swap2\n      swap1\n      tag_57\n      jump\t// in\n    tag_72:\n      tag_73\n      jump\t// in\n    tag_71:\n      mload(0x40)\n      tag_74\n      swap2\n      swap1\n      tag_36\n      jump\t// in\n    tag_74:\n      mload(0x40)\n      dup1\n      swap2\n      sub\n      swap1\n      return\n        /* \"contracts/basic_solidity.sol\":298:320  uint256 public balance */\n    tag_15:\n      tag_75\n      tag_76\n      jump\t// in\n    tag_75:\n      mload(0x40)\n      tag_77\n      swap2\n      swap1\n      tag_36\n      jump\t// in\n    tag_77:\n      mload(0x40)\n      dup1\n      swap2\n      sub\n      swap1\n      return\n        /* \"contracts/basic_solidity.sol\":1121:1367  function addCar(string memory _car , uint256 miles ,uint256 speed) public {\r... */\n    tag_16:\n      tag_78\n      0x04\n      dup1\n      calldatasize\n      sub\n      dup2\n      add\n      swap1\n      tag_79\n      swap2\n      swap1\n      tag_80\n      jump\t// in\n    tag_79:\n      tag_81\n      jump\t// in\n    tag_78:\n      stop\n        /* \"contracts/basic_solidity.sol\":910:989  function tinder(string memory _girl) public {\r... */\n    tag_17:\n      tag_82\n      0x04\n      dup1\n      calldatasize\n      sub\n      dup2\n      add\n      swap1\n      tag_83\n      swap2\n      swap1\n      tag_57\n      jump\t// in\n    tag_83:\n      tag_84\n      jump\t// in\n    tag_82:\n      stop\n        /* \"contracts/basic_solidity.sol\":2675:2756  function isVIPSender() public view returns (bool){\r... */\n    tag_18:\n      tag_85\n      tag_86\n      jump\t// in\n    tag_85:\n      mload(0x40)\n      tag_87\n      swap2\n      swap1\n      tag_54\n      jump\t// in\n    tag_87:\n      mload(0x40)\n      dup1\n      swap2\n      sub\n      swap1\n      return\n        /* \"contracts/basic_solidity.sol\":2190:2663  function fasterCar(string memory _car1 , string memory _car2) public view returns(string memory){\r... */\n    tag_19:\n      tag_88\n      0x04\n      dup1\n      calldatasize\n      sub\n      dup2\n      add\n      swap1\n      tag_89\n      swap2\n      swap1\n      tag_90\n      jump\t// in\n    tag_89:\n      tag_91\n      jump\t// in\n    tag_88:\n      mload(0x40)\n      tag_92\n      swap2\n      swap1\n      tag_28\n      jump\t// in\n    tag_92:\n      mload(0x40)\n      dup1\n      swap2\n      sub\n      swap1\n      return\n        /* \"contracts/basic_solidity.sol\":1375:1540  function getNumber(uint256 _i) public view returns(uint256){\r... */\n    tag_20:\n      tag_93\n      0x04\n      dup1\n      calldatasize\n      sub\n      dup2\n      add\n      swap1\n      tag_94\n      swap2\n      swap1\n      tag_44\n      jump\t// in\n    tag_94:\n      tag_95\n      jump\t// in\n    tag_93:\n      mload(0x40)\n      tag_96\n      swap2\n      swap1\n      tag_36\n      jump\t// in\n    tag_96:\n      mload(0x40)\n      dup1\n      swap2\n      sub\n      swap1\n      return\n        /* \"contracts/basic_solidity.sol\":535:571  mapping(string => bool) public isCar */\n    tag_21:\n      tag_97\n      0x04\n      dup1\n      calldatasize\n      sub\n      dup2\n      add\n      swap1\n      tag_98\n      swap2\n      swap1\n      tag_57\n      jump\t// in\n    tag_98:\n      tag_99\n      jump\t// in\n    tag_97:\n      mload(0x40)\n      tag_100\n      swap2\n      swap1\n      tag_54\n      jump\t// in\n    tag_100:\n      mload(0x40)\n      dup1\n      swap2\n      sub\n      swap1\n      return\n        /* \"contracts/basic_solidity.sol\":182:217  string public name  = \"Tony Strark\" */\n    tag_26:\n      0x01\n      dup1\n      sload\n      tag_101\n      swap1\n      tag_102\n      jump\t// in\n    tag_101:\n      dup1\n      0x1f\n      add\n      0x20\n      dup1\n      swap2\n      div\n      mul\n      0x20\n      add\n      mload(0x40)\n      swap1\n      dup2\n      add\n      0x40\n      mstore\n      dup1\n      swap3\n      swap2\n      swap1\n      dup2\n      dup2\n      mstore\n      0x20\n      add\n      dup3\n      dup1\n      sload\n      tag_103\n      swap1\n      tag_102\n      jump\t// in\n    tag_103:\n      dup1\n      iszero\n      tag_104\n      jumpi\n      dup1\n      0x1f\n      lt\n      tag_105\n      jumpi\n      0x0100\n      dup1\n      dup4\n      sload\n      div\n      mul\n      dup4\n      mstore\n      swap2\n      0x20\n      add\n      swap2\n      jump(tag_104)\n    tag_105:\n      dup3\n      add\n      swap2\n      swap1\n      0x00\n      mstore\n      keccak256(0x00, 0x20)\n      swap1\n    tag_106:\n      dup2\n      sload\n      dup2\n      mstore\n      swap1\n      0x01\n      add\n      swap1\n      0x20\n      add\n      dup1\n      dup4\n      gt\n      tag_106\n      jumpi\n      dup3\n      swap1\n      sub\n      0x1f\n      and\n      dup3\n      add\n      swap2\n    tag_104:\n      pop\n      pop\n      pop\n      pop\n      pop\n      dup2\n      jump\t// out\n        /* \"contracts/basic_solidity.sol\":1014:1113  function getWallet() public view OnlyOwner returns(address){\r... */\n    tag_30:\n        /* \"contracts/basic_solidity.sol\":1065:1072  address */\n      0x00\n        /* \"contracts/basic_solidity.sol\":680:685  owner */\n      0x08\n      0x00\n      swap1\n      sload\n      swap1\n      0x0100\n      exp\n      swap1\n      div\n      0xffffffffffffffffffffffffffffffffffffffff\n      and\n        /* \"contracts/basic_solidity.sol\":666:685  msg.sender == owner */\n      0xffffffffffffffffffffffffffffffffffffffff\n      and\n        /* \"contracts/basic_solidity.sol\":666:676  msg.sender */\n      caller\n        /* \"contracts/basic_solidity.sol\":666:685  msg.sender == owner */\n      0xffffffffffffffffffffffffffffffffffffffff\n      and\n      eq\n        /* \"contracts/basic_solidity.sol\":658:686  require(msg.sender == owner) */\n      tag_108\n      jumpi\n      0x00\n      dup1\n      revert\n    tag_108:\n        /* \"contracts/basic_solidity.sol\":1099:1105  wallet */\n      0x06\n      0x00\n      swap1\n      sload\n      swap1\n      0x0100\n      exp\n      swap1\n      div\n      0xffffffffffffffffffffffffffffffffffffffff\n      and\n        /* \"contracts/basic_solidity.sol\":1092:1105  return wallet */\n      swap1\n      pop\n        /* \"contracts/basic_solidity.sol\":1014:1113  function getWallet() public view OnlyOwner returns(address){\r... */\n      swap1\n      jump\t// out\n        /* \"contracts/basic_solidity.sol\":226:252  uint256 public age   =  48 */\n    tag_34:\n      sload(0x02)\n      dup2\n      jump\t// out\n        /* \"contracts/basic_solidity.sol\":704:750  mapping(address => uint256 ) public txWithdrow */\n    tag_40:\n      mstore(0x20, 0x0c)\n      dup1\n      0x00\n      mstore\n      keccak256(0x00, 0x40)\n      0x00\n      swap2\n      pop\n      swap1\n      pop\n      sload\n      dup2\n      jump\t// out\n        /* \"contracts/basic_solidity.sol\":426:447  string[]  public girl */\n    tag_45:\n      0x07\n      dup2\n      dup2\n      sload\n      dup2\n      lt\n      tag_110\n      jumpi\n      0x00\n      dup1\n      revert\n    tag_110:\n      swap1\n      0x00\n      mstore\n      keccak256(0x00, 0x20)\n      add\n      0x00\n      swap2\n      pop\n      swap1\n      pop\n      dup1\n      sload\n      tag_112\n      swap1\n      tag_102\n      jump\t// in\n    tag_112:\n      dup1\n      0x1f\n      add\n      0x20\n      dup1\n      swap2\n      div\n      mul\n      0x20\n      add\n      mload(0x40)\n      swap1\n      dup2\n      add\n      0x40\n      mstore\n      dup1\n      swap3\n      swap2\n      swap1\n      dup2\n      dup2\n      mstore\n      0x20\n      add\n      dup3\n      dup1\n      sload\n      tag_113\n      swap1\n      tag_102\n      jump\t// in\n    tag_113:\n      dup1\n      iszero\n      tag_114\n      jumpi\n      dup1\n      0x1f\n      lt\n      tag_115\n      jumpi\n      0x0100\n      dup1\n      dup4\n      sload\n      div\n      mul\n      dup4\n      mstore\n      swap2\n      0x20\n      add\n      swap2\n      jump(tag_114)\n    tag_115:\n      dup3\n      add\n      swap2\n      swap1\n      0x00\n      mstore\n      keccak256(0x00, 0x20)\n      swap1\n    tag_116:\n      dup2\n      sload\n      dup2\n      mstore\n      swap1\n      0x01\n      add\n      swap1\n      0x20\n      add\n      dup1\n      dup4\n      gt\n      tag_116\n      jumpi\n      dup3\n      swap1\n      sub\n      0x1f\n      and\n      dup3\n      add\n      swap2\n    tag_114:\n      pop\n      pop\n      pop\n      pop\n      pop\n      dup2\n      jump\t// out\n        /* \"contracts/basic_solidity.sol\":327:384  string[]  public carreer  = [\"playboy\",\"engineer\",\"hero\"] */\n    tag_49:\n      0x05\n      dup2\n      dup2\n      sload\n      dup2\n      lt\n      tag_117\n      jumpi\n      0x00\n      dup1\n      revert\n    tag_117:\n      swap1\n      0x00\n      mstore\n      keccak256(0x00, 0x20)\n      add\n      0x00\n      swap2\n      pop\n      swap1\n      pop\n      dup1\n      sload\n      tag_119\n      swap1\n      tag_102\n      jump\t// in\n    tag_119:\n      dup1\n      0x1f\n      add\n      0x20\n      dup1\n      swap2\n      div\n      mul\n      0x20\n      add\n      mload(0x40)\n      swap1\n      dup2\n      add\n      0x40\n      mstore\n      dup1\n      swap3\n      swap2\n      swap1\n      dup2\n      dup2\n      mstore\n      0x20\n      add\n      dup3\n      dup1\n      sload\n      tag_120\n      swap1\n      tag_102\n      jump\t// in\n    tag_120:\n      dup1\n      iszero\n      tag_121\n      jumpi\n      dup1\n      0x1f\n      lt\n      tag_122\n      jumpi\n      0x0100\n      dup1\n      dup4\n      sload\n      div\n      mul\n      dup4\n      mstore\n      swap2\n      0x20\n      add\n      swap2\n      jump(tag_121)\n    tag_122:\n      dup3\n      add\n      swap2\n      swap1\n      0x00\n      mstore\n      keccak256(0x00, 0x20)\n      swap1\n    tag_123:\n      dup2\n      sload\n      dup2\n      mstore\n      swap1\n      0x01\n      add\n      swap1\n      0x20\n      add\n      dup1\n      dup4\n      gt\n      tag_123\n      jumpi\n      dup3\n      swap1\n      sub\n      0x1f\n      and\n      dup3\n      add\n      swap2\n    tag_121:\n      pop\n      pop\n      pop\n      pop\n      pop\n      dup2\n      jump\t// out\n        /* \"contracts/basic_solidity.sol\":259:289  bool   public  isMale  =  true */\n    tag_52:\n      0x03\n      0x00\n      swap1\n      sload\n      swap1\n      0x0100\n      exp\n      swap1\n      div\n      0xff\n      and\n      dup2\n      jump\t// out\n        /* \"contracts/basic_solidity.sol\":485:528  mapping(string => uint256) public mileOfCar */\n    tag_58:\n      0x09\n      dup2\n      dup1\n      mload\n      0x20\n      dup2\n      add\n      dup3\n      add\n      dup1\n      mload\n      dup5\n      dup3\n      mstore\n      0x20\n      dup4\n      add\n      0x20\n      dup6\n      add\n      keccak256\n      dup2\n      dup4\n      mstore\n      dup1\n      swap6\n      pop\n      pop\n      pop\n      pop\n      pop\n      pop\n      0x00\n      swap2\n      pop\n      swap1\n      pop\n      sload\n      dup2\n      jump\t// out\n        /* \"contracts/basic_solidity.sol\":1548:1633  function plusResult() public view returns(uint256){\r... */\n    tag_61:\n        /* \"contracts/basic_solidity.sol\":1590:1597  uint256 */\n      0x00\n        /* \"contracts/basic_solidity.sol\":1624:1625  1 */\n      0x01\n        /* \"contracts/basic_solidity.sol\":1616:1622  global */\n      sload(0x00)\n        /* \"contracts/basic_solidity.sol\":1616:1625  global +1 */\n      tag_125\n      swap2\n      swap1\n      tag_126\n      jump\t// in\n    tag_125:\n        /* \"contracts/basic_solidity.sol\":1609:1625  return global +1 */\n      swap1\n      pop\n        /* \"contracts/basic_solidity.sol\":1548:1633  function plusResult() public view returns(uint256){\r... */\n      swap1\n      jump\t// out\n        /* \"contracts/basic_solidity.sol\":1641:2182  function tranfer(uint256 _withdrow ,address _otheraddress) public  returns(uint256) {\r... */\n    tag_66:\n        /* \"contracts/basic_solidity.sol\":1716:1723  uint256 */\n      0x00\n        /* \"contracts/basic_solidity.sol\":2021:2030  _withdrow */\n      dup3\n        /* \"contracts/basic_solidity.sol\":2011:2018  balance */\n      sload(0x04)\n        /* \"contracts/basic_solidity.sol\":2011:2030  balance > _withdrow */\n      gt\n        /* \"contracts/basic_solidity.sol\":2002:2053  require (balance > _withdrow , \"not enough monney\") */\n      tag_128\n      jumpi\n      mload(0x40)\n      0x08c379a000000000000000000000000000000000000000000000000000000000\n      dup2\n      mstore\n      0x04\n      add\n      tag_129\n      swap1\n      tag_130\n      jump\t// in\n    tag_129:\n      mload(0x40)\n      dup1\n      swap2\n      sub\n      swap1\n      revert\n    tag_128:\n        /* \"contracts/basic_solidity.sol\":2077:2086  _withdrow */\n      dup3\n        /* \"contracts/basic_solidity.sol\":2064:2071  balance */\n      0x04\n      0x00\n        /* \"contracts/basic_solidity.sol\":2064:2086  balance  -=  _withdrow */\n      dup3\n      dup3\n      sload\n      tag_131\n      swap2\n      swap1\n      tag_132\n      jump\t// in\n    tag_131:\n      swap3\n      pop\n      pop\n      dup2\n      swap1\n      sstore\n      pop\n        /* \"contracts/basic_solidity.sol\":2126:2135  _withdrow */\n      dup3\n        /* \"contracts/basic_solidity.sol\":2097:2107  txWithdrow */\n      0x0c\n        /* \"contracts/basic_solidity.sol\":2097:2122  txWithdrow[_otheraddress] */\n      0x00\n        /* \"contracts/basic_solidity.sol\":2108:2121  _otheraddress */\n      dup5\n        /* \"contracts/basic_solidity.sol\":2097:2122  txWithdrow[_otheraddress] */\n      0xffffffffffffffffffffffffffffffffffffffff\n      and\n      0xffffffffffffffffffffffffffffffffffffffff\n      and\n      dup2\n      mstore\n      0x20\n      add\n      swap1\n      dup2\n      mstore\n      0x20\n      add\n      0x00\n      keccak256\n        /* \"contracts/basic_solidity.sol\":2097:2135  txWithdrow[_otheraddress]  = _withdrow */\n      dup2\n      swap1\n      sstore\n      pop\n        /* \"contracts/basic_solidity.sol\":2165:2172  balance */\n      sload(0x04)\n        /* \"contracts/basic_solidity.sol\":2158:2172  return balance */\n      swap1\n      pop\n        /* \"contracts/basic_solidity.sol\":1641:2182  function tranfer(uint256 _withdrow ,address _otheraddress) public  returns(uint256) {\r... */\n      swap3\n      swap2\n      pop\n      pop\n      jump\t// out\n        /* \"contracts/basic_solidity.sol\":456:476  address public owner */\n    tag_69:\n      0x08\n      0x00\n      swap1\n      sload\n      swap1\n      0x0100\n      exp\n      swap1\n      div\n      0xffffffffffffffffffffffffffffffffffffffff\n      and\n      dup2\n      jump\t// out\n        /* \"contracts/basic_solidity.sol\":578:620  mapping(string => uint256) public carSpeed */\n    tag_73:\n      0x0b\n      dup2\n      dup1\n      mload\n      0x20\n      dup2\n      add\n      dup3\n      add\n      dup1\n      mload\n      dup5\n      dup3\n      mstore\n      0x20\n      dup4\n      add\n      0x20\n      dup6\n      add\n      keccak256\n      dup2\n      dup4\n      mstore\n      dup1\n      swap6\n      pop\n      pop\n      pop\n      pop\n      pop\n      pop\n      0x00\n      swap2\n      pop\n      swap1\n      pop\n      sload\n      dup2\n      jump\t// out\n        /* \"contracts/basic_solidity.sol\":298:320  uint256 public balance */\n    tag_76:\n      sload(0x04)\n      dup2\n      jump\t// out\n        /* \"contracts/basic_solidity.sol\":1121:1367  function addCar(string memory _car , uint256 miles ,uint256 speed) public {\r... */\n    tag_81:\n        /* \"contracts/basic_solidity.sol\":1229:1234  false */\n      0x00\n        /* \"contracts/basic_solidity.sol\":1214:1234  isCar[_car] == false */\n      iszero\n      iszero\n        /* \"contracts/basic_solidity.sol\":1214:1219  isCar */\n      0x0a\n        /* \"contracts/basic_solidity.sol\":1220:1224  _car */\n      dup5\n        /* \"contracts/basic_solidity.sol\":1214:1225  isCar[_car] */\n      mload(0x40)\n      tag_134\n      swap2\n      swap1\n      tag_135\n      jump\t// in\n    tag_134:\n      swap1\n      dup2\n      mstore\n      0x20\n      add\n      mload(0x40)\n      dup1\n      swap2\n      sub\n      swap1\n      keccak256\n      0x00\n      swap1\n      sload\n      swap1\n      0x0100\n      exp\n      swap1\n      div\n      0xff\n      and\n        /* \"contracts/basic_solidity.sol\":1214:1234  isCar[_car] == false */\n      iszero\n      iszero\n      eq\n        /* \"contracts/basic_solidity.sol\":1206:1263  require(isCar[_car] == false,\"Tony already has this car\") */\n      tag_136\n      jumpi\n      mload(0x40)\n      0x08c379a000000000000000000000000000000000000000000000000000000000\n      dup2\n      mstore\n      0x04\n      add\n      tag_137\n      swap1\n      tag_138\n      jump\t// in\n    tag_137:\n      mload(0x40)\n      dup1\n      swap2\n      sub\n      swap1\n      revert\n    tag_136:\n        /* \"contracts/basic_solidity.sol\":1292:1297  miles */\n      dup2\n        /* \"contracts/basic_solidity.sol\":1274:1283  mileOfCar */\n      0x09\n        /* \"contracts/basic_solidity.sol\":1284:1288  _car */\n      dup5\n        /* \"contracts/basic_solidity.sol\":1274:1289  mileOfCar[_car] */\n      mload(0x40)\n      tag_139\n      swap2\n      swap1\n      tag_135\n      jump\t// in\n    tag_139:\n      swap1\n      dup2\n      mstore\n      0x20\n      add\n      mload(0x40)\n      dup1\n      swap2\n      sub\n      swap1\n      keccak256\n        /* \"contracts/basic_solidity.sol\":1274:1297  mileOfCar[_car] = miles */\n      dup2\n      swap1\n      sstore\n      pop\n        /* \"contracts/basic_solidity.sol\":1325:1330  speed */\n      dup1\n        /* \"contracts/basic_solidity.sol\":1308:1316  carSpeed */\n      0x0b\n        /* \"contracts/basic_solidity.sol\":1317:1321  _car */\n      dup5\n        /* \"contracts/basic_solidity.sol\":1308:1322  carSpeed[_car] */\n      mload(0x40)\n      tag_140\n      swap2\n      swap1\n      tag_135\n      jump\t// in\n    tag_140:\n      swap1\n      dup2\n      mstore\n      0x20\n      add\n      mload(0x40)\n      dup1\n      swap2\n      sub\n      swap1\n      keccak256\n        /* \"contracts/basic_solidity.sol\":1308:1330  carSpeed[_car]  =speed */\n      dup2\n      swap1\n      sstore\n      pop\n        /* \"contracts/basic_solidity.sol\":1355:1359  true */\n      0x01\n        /* \"contracts/basic_solidity.sol\":1341:1346  isCar */\n      0x0a\n        /* \"contracts/basic_solidity.sol\":1347:1351  _car */\n      dup5\n        /* \"contracts/basic_solidity.sol\":1341:1352  isCar[_car] */\n      mload(0x40)\n      tag_141\n      swap2\n      swap1\n      tag_135\n      jump\t// in\n    tag_141:\n      swap1\n      dup2\n      mstore\n      0x20\n      add\n      mload(0x40)\n      dup1\n      swap2\n      sub\n      swap1\n      keccak256\n      0x00\n        /* \"contracts/basic_solidity.sol\":1341:1359  isCar[_car] = true */\n      0x0100\n      exp\n      dup2\n      sload\n      dup2\n      0xff\n      mul\n      not\n      and\n      swap1\n      dup4\n      iszero\n      iszero\n      mul\n      or\n      swap1\n      sstore\n      pop\n        /* \"contracts/basic_solidity.sol\":1121:1367  function addCar(string memory _car , uint256 miles ,uint256 speed) public {\r... */\n      pop\n      pop\n      pop\n      jump\t// out\n        /* \"contracts/basic_solidity.sol\":910:989  function tinder(string memory _girl) public {\r... */\n    tag_84:\n        /* \"contracts/basic_solidity.sol\":965:969  girl */\n      0x07\n        /* \"contracts/basic_solidity.sol\":975:980  _girl */\n      dup2\n        /* \"contracts/basic_solidity.sol\":965:981  girl.push(_girl) */\n      swap1\n      dup1\n      0x01\n      dup2\n      sload\n      add\n      dup1\n      dup3\n      sstore\n      dup1\n      swap2\n      pop\n      pop\n      0x01\n      swap1\n      sub\n      swap1\n      0x00\n      mstore\n      keccak256(0x00, 0x20)\n      add\n      0x00\n      swap1\n      swap2\n      swap1\n      swap2\n      swap1\n      swap2\n      pop\n      swap1\n      dup1\n      mload\n      swap1\n      0x20\n      add\n      swap1\n      tag_144\n      swap3\n      swap2\n      swap1\n      tag_145\n      jump\t// in\n    tag_144:\n      pop\n        /* \"contracts/basic_solidity.sol\":910:989  function tinder(string memory _girl) public {\r... */\n      pop\n      jump\t// out\n        /* \"contracts/basic_solidity.sol\":2675:2756  function isVIPSender() public view returns (bool){\r... */\n    tag_86:\n        /* \"contracts/basic_solidity.sol\":2719:2723  bool */\n      0x00\n        /* \"contracts/basic_solidity.sol\":2742:2748  isMale */\n      0x03\n      0x00\n      swap1\n      sload\n      swap1\n      0x0100\n      exp\n      swap1\n      div\n      0xff\n      and\n        /* \"contracts/basic_solidity.sol\":2735:2748  return isMale */\n      swap1\n      pop\n        /* \"contracts/basic_solidity.sol\":2675:2756  function isVIPSender() public view returns (bool){\r... */\n      swap1\n      jump\t// out\n        /* \"contracts/basic_solidity.sol\":2190:2663  function fasterCar(string memory _car1 , string memory _car2) public view returns(string memory){\r... */\n    tag_91:\n        /* \"contracts/basic_solidity.sol\":2272:2285  string memory */\n      0x60\n        /* \"contracts/basic_solidity.sol\":2472:2480  carSpeed */\n      0x0b\n        /* \"contracts/basic_solidity.sol\":2481:2486  _car2 */\n      dup3\n        /* \"contracts/basic_solidity.sol\":2472:2487  carSpeed[_car2] */\n      mload(0x40)\n      tag_148\n      swap2\n      swap1\n      tag_135\n      jump\t// in\n    tag_148:\n      swap1\n      dup2\n      mstore\n      0x20\n      add\n      mload(0x40)\n      dup1\n      swap2\n      sub\n      swap1\n      keccak256\n      sload\n        /* \"contracts/basic_solidity.sol\":2454:2462  carSpeed */\n      0x0b\n        /* \"contracts/basic_solidity.sol\":2463:2468  _car1 */\n      dup5\n        /* \"contracts/basic_solidity.sol\":2454:2469  carSpeed[_car1] */\n      mload(0x40)\n      tag_149\n      swap2\n      swap1\n      tag_135\n      jump\t// in\n    tag_149:\n      swap1\n      dup2\n      mstore\n      0x20\n      add\n      mload(0x40)\n      dup1\n      swap2\n      sub\n      swap1\n      keccak256\n      sload\n        /* \"contracts/basic_solidity.sol\":2454:2487  carSpeed[_car1] < carSpeed[_car2] */\n      lt\n        /* \"contracts/basic_solidity.sol\":2451:2652  if(carSpeed[_car1] < carSpeed[_car2]){\r... */\n      iszero\n      tag_150\n      jumpi\n        /* \"contracts/basic_solidity.sol\":2510:2515  _car2 */\n      dup2\n        /* \"contracts/basic_solidity.sol\":2503:2515  return _car2 */\n      swap1\n      pop\n      jump(tag_147)\n        /* \"contracts/basic_solidity.sol\":2451:2652  if(carSpeed[_car1] < carSpeed[_car2]){\r... */\n    tag_150:\n        /* \"contracts/basic_solidity.sol\":2554:2562  carSpeed */\n      0x0b\n        /* \"contracts/basic_solidity.sol\":2563:2568  _car2 */\n      dup3\n        /* \"contracts/basic_solidity.sol\":2554:2569  carSpeed[_car2] */\n      mload(0x40)\n      tag_152\n      swap2\n      swap1\n      tag_135\n      jump\t// in\n    tag_152:\n      swap1\n      dup2\n      mstore\n      0x20\n      add\n      mload(0x40)\n      dup1\n      swap2\n      sub\n      swap1\n      keccak256\n      sload\n        /* \"contracts/basic_solidity.sol\":2536:2544  carSpeed */\n      0x0b\n        /* \"contracts/basic_solidity.sol\":2545:2550  _car1 */\n      dup5\n        /* \"contracts/basic_solidity.sol\":2536:2551  carSpeed[_car1] */\n      mload(0x40)\n      tag_153\n      swap2\n      swap1\n      tag_135\n      jump\t// in\n    tag_153:\n      swap1\n      dup2\n      mstore\n      0x20\n      add\n      mload(0x40)\n      dup1\n      swap2\n      sub\n      swap1\n      keccak256\n      sload\n        /* \"contracts/basic_solidity.sol\":2536:2569  carSpeed[_car1] > carSpeed[_car2] */\n      gt\n        /* \"contracts/basic_solidity.sol\":2532:2652  if (carSpeed[_car1] > carSpeed[_car2]){\r... */\n      iszero\n      tag_154\n      jumpi\n        /* \"contracts/basic_solidity.sol\":2592:2597  _car1 */\n      dup3\n        /* \"contracts/basic_solidity.sol\":2585:2597  return _car1 */\n      swap1\n      pop\n      jump(tag_147)\n        /* \"contracts/basic_solidity.sol\":2532:2652  if (carSpeed[_car1] > carSpeed[_car2]){\r... */\n    tag_154:\n        /* \"contracts/basic_solidity.sol\":2628:2639  return \"no\" */\n      mload(0x40)\n      dup1\n      0x40\n      add\n      0x40\n      mstore\n      dup1\n      0x02\n      dup2\n      mstore\n      0x20\n      add\n      0x6e6f000000000000000000000000000000000000000000000000000000000000\n      dup2\n      mstore\n      pop\n      swap1\n      pop\n        /* \"contracts/basic_solidity.sol\":2190:2663  function fasterCar(string memory _car1 , string memory _car2) public view returns(string memory){\r... */\n    tag_147:\n      swap3\n      swap2\n      pop\n      pop\n      jump\t// out\n        /* \"contracts/basic_solidity.sol\":1375:1540  function getNumber(uint256 _i) public view returns(uint256){\r... */\n    tag_95:\n        /* \"contracts/basic_solidity.sol\":1426:1433  uint256 */\n      0x00\n        /* \"contracts/basic_solidity.sol\":1445:1458  uint256 local */\n      dup1\n        /* \"contracts/basic_solidity.sol\":1462:1464  _i */\n      dup3\n        /* \"contracts/basic_solidity.sol\":1445:1464  uint256 local  = _i */\n      swap1\n      pop\n        /* \"contracts/basic_solidity.sol\":1475:1489  uint256 result */\n      0x00\n        /* \"contracts/basic_solidity.sol\":1501:1506  local */\n      dup2\n        /* \"contracts/basic_solidity.sol\":1492:1498  global */\n      sload(0x00)\n        /* \"contracts/basic_solidity.sol\":1492:1506  global + local */\n      tag_157\n      swap2\n      swap1\n      tag_126\n      jump\t// in\n    tag_157:\n        /* \"contracts/basic_solidity.sol\":1475:1506  uint256 result = global + local */\n      swap1\n      pop\n        /* \"contracts/basic_solidity.sol\":1524:1530  result */\n      dup1\n        /* \"contracts/basic_solidity.sol\":1517:1530  return result */\n      swap3\n      pop\n      pop\n      pop\n        /* \"contracts/basic_solidity.sol\":1375:1540  function getNumber(uint256 _i) public view returns(uint256){\r... */\n      swap2\n      swap1\n      pop\n      jump\t// out\n        /* \"contracts/basic_solidity.sol\":535:571  mapping(string => bool) public isCar */\n    tag_99:\n      0x0a\n      dup2\n      dup1\n      mload\n      0x20\n      dup2\n      add\n      dup3\n      add\n      dup1\n      mload\n      dup5\n      dup3\n      mstore\n      0x20\n      dup4\n      add\n      0x20\n      dup6\n      add\n      keccak256\n      dup2\n      dup4\n      mstore\n      dup1\n      swap6\n      pop\n      pop\n      pop\n      pop\n      pop\n      pop\n      0x00\n      swap2\n      pop\n      sload\n      swap1\n      0x0100\n      exp\n      swap1\n      div\n      0xff\n      and\n      dup2\n      jump\t// out\n    tag_145:\n      dup3\n      dup1\n      sload\n      tag_158\n      swap1\n      tag_102\n      jump\t// in\n    tag_158:\n      swap1\n      0x00\n      mstore\n      keccak256(0x00, 0x20)\n      swap1\n      0x1f\n      add\n      0x20\n      swap1\n      div\n      dup2\n      add\n      swap3\n      dup3\n      tag_160\n      jumpi\n      0x00\n      dup6\n      sstore\n      jump(tag_159)\n    tag_160:\n      dup3\n      0x1f\n      lt\n      tag_161\n      jumpi\n      dup1\n      mload\n      not(0xff)\n      and\n      dup4\n      dup1\n      add\n      or\n      dup6\n      sstore\n      jump(tag_159)\n    tag_161:\n      dup3\n      dup1\n      add\n      0x01\n      add\n      dup6\n      sstore\n      dup3\n      iszero\n      tag_159\n      jumpi\n      swap2\n      dup3\n      add\n    tag_162:\n      dup3\n      dup2\n      gt\n      iszero\n      tag_163\n      jumpi\n      dup3\n      mload\n      dup3\n      sstore\n      swap2\n      0x20\n      add\n      swap2\n      swap1\n      0x01\n      add\n      swap1\n      jump(tag_162)\n    tag_163:\n    tag_159:\n      pop\n      swap1\n      pop\n      tag_164\n      swap2\n      swap1\n      tag_165\n      jump\t// in\n    tag_164:\n      pop\n      swap1\n      jump\t// out\n    tag_165:\n    tag_166:\n      dup1\n      dup3\n      gt\n      iszero\n      tag_167\n      jumpi\n      0x00\n      dup2\n      0x00\n      swap1\n      sstore\n      pop\n      0x01\n      add\n      jump(tag_166)\n    tag_167:\n      pop\n      swap1\n      jump\t// out\n        /* \"#utility.yul\":7:419   */\n    tag_169:\n        /* \"#utility.yul\":85:90   */\n      0x00\n        /* \"#utility.yul\":110:176   */\n      tag_171\n        /* \"#utility.yul\":126:175   */\n      tag_172\n        /* \"#utility.yul\":168:174   */\n      dup5\n        /* \"#utility.yul\":126:175   */\n      tag_173\n      jump\t// in\n    tag_172:\n        /* \"#utility.yul\":110:176   */\n      tag_174\n      jump\t// in\n    tag_171:\n        /* \"#utility.yul\":101:176   */\n      swap1\n      pop\n        /* \"#utility.yul\":199:205   */\n      dup3\n        /* \"#utility.yul\":192:197   */\n      dup2\n        /* \"#utility.yul\":185:206   */\n      mstore\n        /* \"#utility.yul\":237:241   */\n      0x20\n        /* \"#utility.yul\":230:235   */\n      dup2\n        /* \"#utility.yul\":226:242   */\n      add\n        /* \"#utility.yul\":275:278   */\n      dup5\n        /* \"#utility.yul\":266:272   */\n      dup5\n        /* \"#utility.yul\":261:264   */\n      dup5\n        /* \"#utility.yul\":257:273   */\n      add\n        /* \"#utility.yul\":254:279   */\n      gt\n        /* \"#utility.yul\":251:363   */\n      iszero\n      tag_175\n      jumpi\n        /* \"#utility.yul\":282:361   */\n      tag_176\n      tag_177\n      jump\t// in\n    tag_176:\n        /* \"#utility.yul\":251:363   */\n    tag_175:\n        /* \"#utility.yul\":372:413   */\n      tag_178\n        /* \"#utility.yul\":406:412   */\n      dup5\n        /* \"#utility.yul\":401:404   */\n      dup3\n        /* \"#utility.yul\":396:399   */\n      dup6\n        /* \"#utility.yul\":372:413   */\n      tag_179\n      jump\t// in\n    tag_178:\n        /* \"#utility.yul\":91:419   */\n      pop\n        /* \"#utility.yul\":7:419   */\n      swap4\n      swap3\n      pop\n      pop\n      pop\n      jump\t// out\n        /* \"#utility.yul\":425:564   */\n    tag_180:\n        /* \"#utility.yul\":471:476   */\n      0x00\n        /* \"#utility.yul\":509:515   */\n      dup2\n        /* \"#utility.yul\":496:516   */\n      calldataload\n        /* \"#utility.yul\":487:516   */\n      swap1\n      pop\n        /* \"#utility.yul\":525:558   */\n      tag_182\n        /* \"#utility.yul\":552:557   */\n      dup2\n        /* \"#utility.yul\":525:558   */\n      tag_183\n      jump\t// in\n    tag_182:\n        /* \"#utility.yul\":425:564   */\n      swap3\n      swap2\n      pop\n      pop\n      jump\t// out\n        /* \"#utility.yul\":584:924   */\n    tag_184:\n        /* \"#utility.yul\":640:645   */\n      0x00\n        /* \"#utility.yul\":689:692   */\n      dup3\n        /* \"#utility.yul\":682:686   */\n      0x1f\n        /* \"#utility.yul\":674:680   */\n      dup4\n        /* \"#utility.yul\":670:687   */\n      add\n        /* \"#utility.yul\":666:693   */\n      slt\n        /* \"#utility.yul\":656:778   */\n      tag_186\n      jumpi\n        /* \"#utility.yul\":697:776   */\n      tag_187\n      tag_188\n      jump\t// in\n    tag_187:\n        /* \"#utility.yul\":656:778   */\n    tag_186:\n        /* \"#utility.yul\":814:820   */\n      dup2\n        /* \"#utility.yul\":801:821   */\n      calldataload\n        /* \"#utility.yul\":839:918   */\n      tag_189\n        /* \"#utility.yul\":914:917   */\n      dup5\n        /* \"#utility.yul\":906:912   */\n      dup3\n        /* \"#utility.yul\":899:903   */\n      0x20\n        /* \"#utility.yul\":891:897   */\n      dup7\n        /* \"#utility.yul\":887:904   */\n      add\n        /* \"#utility.yul\":839:918   */\n      tag_169\n      jump\t// in\n    tag_189:\n        /* \"#utility.yul\":830:918   */\n      swap2\n      pop\n        /* \"#utility.yul\":646:924   */\n      pop\n        /* \"#utility.yul\":584:924   */\n      swap3\n      swap2\n      pop\n      pop\n      jump\t// out\n        /* \"#utility.yul\":930:1069   */\n    tag_190:\n        /* \"#utility.yul\":976:981   */\n      0x00\n        /* \"#utility.yul\":1014:1020   */\n      dup2\n        /* \"#utility.yul\":1001:1021   */\n      calldataload\n        /* \"#utility.yul\":992:1021   */\n      swap1\n      pop\n        /* \"#utility.yul\":1030:1063   */\n      tag_192\n        /* \"#utility.yul\":1057:1062   */\n      dup2\n        /* \"#utility.yul\":1030:1063   */\n      tag_193\n      jump\t// in\n    tag_192:\n        /* \"#utility.yul\":930:1069   */\n      swap3\n      swap2\n      pop\n      pop\n      jump\t// out\n        /* \"#utility.yul\":1075:1404   */\n    tag_39:\n        /* \"#utility.yul\":1134:1140   */\n      0x00\n        /* \"#utility.yul\":1183:1185   */\n      0x20\n        /* \"#utility.yul\":1171:1180   */\n      dup3\n        /* \"#utility.yul\":1162:1169   */\n      dup5\n        /* \"#utility.yul\":1158:1181   */\n      sub\n        /* \"#utility.yul\":1154:1186   */\n      slt\n        /* \"#utility.yul\":1151:1270   */\n      iszero\n      tag_195\n      jumpi\n        /* \"#utility.yul\":1189:1268   */\n      tag_196\n      tag_197\n      jump\t// in\n    tag_196:\n        /* \"#utility.yul\":1151:1270   */\n    tag_195:\n        /* \"#utility.yul\":1309:1310   */\n      0x00\n        /* \"#utility.yul\":1334:1387   */\n      tag_198\n        /* \"#utility.yul\":1379:1386   */\n      dup5\n        /* \"#utility.yul\":1370:1376   */\n      dup3\n        /* \"#utility.yul\":1359:1368   */\n      dup6\n        /* \"#utility.yul\":1355:1377   */\n      add\n        /* \"#utility.yul\":1334:1387   */\n      tag_180\n      jump\t// in\n    tag_198:\n        /* \"#utility.yul\":1324:1387   */\n      swap2\n      pop\n        /* \"#utility.yul\":1280:1397   */\n      pop\n        /* \"#utility.yul\":1075:1404   */\n      swap3\n      swap2\n      pop\n      pop\n      jump\t// out\n        /* \"#utility.yul\":1410:1919   */\n    tag_57:\n        /* \"#utility.yul\":1479:1485   */\n      0x00\n        /* \"#utility.yul\":1528:1530   */\n      0x20\n        /* \"#utility.yul\":1516:1525   */\n      dup3\n        /* \"#utility.yul\":1507:1514   */\n      dup5\n        /* \"#utility.yul\":1503:1526   */\n      sub\n        /* \"#utility.yul\":1499:1531   */\n      slt\n        /* \"#utility.yul\":1496:1615   */\n      iszero\n      tag_200\n      jumpi\n        /* \"#utility.yul\":1534:1613   */\n      tag_201\n      tag_197\n      jump\t// in\n    tag_201:\n        /* \"#utility.yul\":1496:1615   */\n    tag_200:\n        /* \"#utility.yul\":1682:1683   */\n      0x00\n        /* \"#utility.yul\":1671:1680   */\n      dup3\n        /* \"#utility.yul\":1667:1684   */\n      add\n        /* \"#utility.yul\":1654:1685   */\n      calldataload\n        /* \"#utility.yul\":1712:1730   */\n      0xffffffffffffffff\n        /* \"#utility.yul\":1704:1710   */\n      dup2\n        /* \"#utility.yul\":1701:1731   */\n      gt\n        /* \"#utility.yul\":1698:1815   */\n      iszero\n      tag_202\n      jumpi\n        /* \"#utility.yul\":1734:1813   */\n      tag_203\n      tag_204\n      jump\t// in\n    tag_203:\n        /* \"#utility.yul\":1698:1815   */\n    tag_202:\n        /* \"#utility.yul\":1839:1902   */\n      tag_205\n        /* \"#utility.yul\":1894:1901   */\n      dup5\n        /* \"#utility.yul\":1885:1891   */\n      dup3\n        /* \"#utility.yul\":1874:1883   */\n      dup6\n        /* \"#utility.yul\":1870:1892   */\n      add\n        /* \"#utility.yul\":1839:1902   */\n      tag_184\n      jump\t// in\n    tag_205:\n        /* \"#utility.yul\":1829:1902   */\n      swap2\n      pop\n        /* \"#utility.yul\":1625:1912   */\n      pop\n        /* \"#utility.yul\":1410:1919   */\n      swap3\n      swap2\n      pop\n      pop\n      jump\t// out\n        /* \"#utility.yul\":1925:2759   */\n    tag_90:\n        /* \"#utility.yul\":2013:2019   */\n      0x00\n        /* \"#utility.yul\":2021:2027   */\n      dup1\n        /* \"#utility.yul\":2070:2072   */\n      0x40\n        /* \"#utility.yul\":2058:2067   */\n      dup4\n        /* \"#utility.yul\":2049:2056   */\n      dup6\n        /* \"#utility.yul\":2045:2068   */\n      sub\n        /* \"#utility.yul\":2041:2073   */\n      slt\n        /* \"#utility.yul\":2038:2157   */\n      iszero\n      tag_207\n      jumpi\n        /* \"#utility.yul\":2076:2155   */\n      tag_208\n      tag_197\n      jump\t// in\n    tag_208:\n        /* \"#utility.yul\":2038:2157   */\n    tag_207:\n        /* \"#utility.yul\":2224:2225   */\n      0x00\n        /* \"#utility.yul\":2213:2222   */\n      dup4\n        /* \"#utility.yul\":2209:2226   */\n      add\n        /* \"#utility.yul\":2196:2227   */\n      calldataload\n        /* \"#utility.yul\":2254:2272   */\n      0xffffffffffffffff\n        /* \"#utility.yul\":2246:2252   */\n      dup2\n        /* \"#utility.yul\":2243:2273   */\n      gt\n        /* \"#utility.yul\":2240:2357   */\n      iszero\n      tag_209\n      jumpi\n        /* \"#utility.yul\":2276:2355   */\n      tag_210\n      tag_204\n      jump\t// in\n    tag_210:\n        /* \"#utility.yul\":2240:2357   */\n    tag_209:\n        /* \"#utility.yul\":2381:2444   */\n      tag_211\n        /* \"#utility.yul\":2436:2443   */\n      dup6\n        /* \"#utility.yul\":2427:2433   */\n      dup3\n        /* \"#utility.yul\":2416:2425   */\n      dup7\n        /* \"#utility.yul\":2412:2434   */\n      add\n        /* \"#utility.yul\":2381:2444   */\n      tag_184\n      jump\t// in\n    tag_211:\n        /* \"#utility.yul\":2371:2444   */\n      swap3\n      pop\n        /* \"#utility.yul\":2167:2454   */\n      pop\n        /* \"#utility.yul\":2521:2523   */\n      0x20\n        /* \"#utility.yul\":2510:2519   */\n      dup4\n        /* \"#utility.yul\":2506:2524   */\n      add\n        /* \"#utility.yul\":2493:2525   */\n      calldataload\n        /* \"#utility.yul\":2552:2570   */\n      0xffffffffffffffff\n        /* \"#utility.yul\":2544:2550   */\n      dup2\n        /* \"#utility.yul\":2541:2571   */\n      gt\n        /* \"#utility.yul\":2538:2655   */\n      iszero\n      tag_212\n      jumpi\n        /* \"#utility.yul\":2574:2653   */\n      tag_213\n      tag_204\n      jump\t// in\n    tag_213:\n        /* \"#utility.yul\":2538:2655   */\n    tag_212:\n        /* \"#utility.yul\":2679:2742   */\n      tag_214\n        /* \"#utility.yul\":2734:2741   */\n      dup6\n        /* \"#utility.yul\":2725:2731   */\n      dup3\n        /* \"#utility.yul\":2714:2723   */\n      dup7\n        /* \"#utility.yul\":2710:2732   */\n      add\n        /* \"#utility.yul\":2679:2742   */\n      tag_184\n      jump\t// in\n    tag_214:\n        /* \"#utility.yul\":2669:2742   */\n      swap2\n      pop\n        /* \"#utility.yul\":2464:2752   */\n      pop\n        /* \"#utility.yul\":1925:2759   */\n      swap3\n      pop\n      swap3\n      swap1\n      pop\n      jump\t// out\n        /* \"#utility.yul\":2765:3564   */\n    tag_80:\n        /* \"#utility.yul\":2852:2858   */\n      0x00\n        /* \"#utility.yul\":2860:2866   */\n      dup1\n        /* \"#utility.yul\":2868:2874   */\n      0x00\n        /* \"#utility.yul\":2917:2919   */\n      0x60\n        /* \"#utility.yul\":2905:2914   */\n      dup5\n        /* \"#utility.yul\":2896:2903   */\n      dup7\n        /* \"#utility.yul\":2892:2915   */\n      sub\n        /* \"#utility.yul\":2888:2920   */\n      slt\n        /* \"#utility.yul\":2885:3004   */\n      iszero\n      tag_216\n      jumpi\n        /* \"#utility.yul\":2923:3002   */\n      tag_217\n      tag_197\n      jump\t// in\n    tag_217:\n        /* \"#utility.yul\":2885:3004   */\n    tag_216:\n        /* \"#utility.yul\":3071:3072   */\n      0x00\n        /* \"#utility.yul\":3060:3069   */\n      dup5\n        /* \"#utility.yul\":3056:3073   */\n      add\n        /* \"#utility.yul\":3043:3074   */\n      calldataload\n        /* \"#utility.yul\":3101:3119   */\n      0xffffffffffffffff\n        /* \"#utility.yul\":3093:3099   */\n      dup2\n        /* \"#utility.yul\":3090:3120   */\n      gt\n        /* \"#utility.yul\":3087:3204   */\n      iszero\n      tag_218\n      jumpi\n        /* \"#utility.yul\":3123:3202   */\n      tag_219\n      tag_204\n      jump\t// in\n    tag_219:\n        /* \"#utility.yul\":3087:3204   */\n    tag_218:\n        /* \"#utility.yul\":3228:3291   */\n      tag_220\n        /* \"#utility.yul\":3283:3290   */\n      dup7\n        /* \"#utility.yul\":3274:3280   */\n      dup3\n        /* \"#utility.yul\":3263:3272   */\n      dup8\n        /* \"#utility.yul\":3259:3281   */\n      add\n        /* \"#utility.yul\":3228:3291   */\n      tag_184\n      jump\t// in\n    tag_220:\n        /* \"#utility.yul\":3218:3291   */\n      swap4\n      pop\n        /* \"#utility.yul\":3014:3301   */\n      pop\n        /* \"#utility.yul\":3340:3342   */\n      0x20\n        /* \"#utility.yul\":3366:3419   */\n      tag_221\n        /* \"#utility.yul\":3411:3418   */\n      dup7\n        /* \"#utility.yul\":3402:3408   */\n      dup3\n        /* \"#utility.yul\":3391:3400   */\n      dup8\n        /* \"#utility.yul\":3387:3409   */\n      add\n        /* \"#utility.yul\":3366:3419   */\n      tag_190\n      jump\t// in\n    tag_221:\n        /* \"#utility.yul\":3356:3419   */\n      swap3\n      pop\n        /* \"#utility.yul\":3311:3429   */\n      pop\n        /* \"#utility.yul\":3468:3470   */\n      0x40\n        /* \"#utility.yul\":3494:3547   */\n      tag_222\n        /* \"#utility.yul\":3539:3546   */\n      dup7\n        /* \"#utility.yul\":3530:3536   */\n      dup3\n        /* \"#utility.yul\":3519:3528   */\n      dup8\n        /* \"#utility.yul\":3515:3537   */\n      add\n        /* \"#utility.yul\":3494:3547   */\n      tag_190\n      jump\t// in\n    tag_222:\n        /* \"#utility.yul\":3484:3547   */\n      swap2\n      pop\n        /* \"#utility.yul\":3439:3557   */\n      pop\n        /* \"#utility.yul\":2765:3564   */\n      swap3\n      pop\n      swap3\n      pop\n      swap3\n      jump\t// out\n        /* \"#utility.yul\":3570:3899   */\n    tag_44:\n        /* \"#utility.yul\":3629:3635   */\n      0x00\n        /* \"#utility.yul\":3678:3680   */\n      0x20\n        /* \"#utility.yul\":3666:3675   */\n      dup3\n        /* \"#utility.yul\":3657:3664   */\n      dup5\n        /* \"#utility.yul\":3653:3676   */\n      sub\n        /* \"#utility.yul\":3649:3681   */\n      slt\n        /* \"#utility.yul\":3646:3765   */\n      iszero\n      tag_224\n      jumpi\n        /* \"#utility.yul\":3684:3763   */\n      tag_225\n      tag_197\n      jump\t// in\n    tag_225:\n        /* \"#utility.yul\":3646:3765   */\n    tag_224:\n        /* \"#utility.yul\":3804:3805   */\n      0x00\n        /* \"#utility.yul\":3829:3882   */\n      tag_226\n        /* \"#utility.yul\":3874:3881   */\n      dup5\n        /* \"#utility.yul\":3865:3871   */\n      dup3\n        /* \"#utility.yul\":3854:3863   */\n      dup6\n        /* \"#utility.yul\":3850:3872   */\n      add\n        /* \"#utility.yul\":3829:3882   */\n      tag_190\n      jump\t// in\n    tag_226:\n        /* \"#utility.yul\":3819:3882   */\n      swap2\n      pop\n        /* \"#utility.yul\":3775:3892   */\n      pop\n        /* \"#utility.yul\":3570:3899   */\n      swap3\n      swap2\n      pop\n      pop\n      jump\t// out\n        /* \"#utility.yul\":3905:4379   */\n    tag_65:\n        /* \"#utility.yul\":3973:3979   */\n      0x00\n        /* \"#utility.yul\":3981:3987   */\n      dup1\n        /* \"#utility.yul\":4030:4032   */\n      0x40\n        /* \"#utility.yul\":4018:4027   */\n      dup4\n        /* \"#utility.yul\":4009:4016   */\n      dup6\n        /* \"#utility.yul\":4005:4028   */\n      sub\n        /* \"#utility.yul\":4001:4033   */\n      slt\n        /* \"#utility.yul\":3998:4117   */\n      iszero\n      tag_228\n      jumpi\n        /* \"#utility.yul\":4036:4115   */\n      tag_229\n      tag_197\n      jump\t// in\n    tag_229:\n        /* \"#utility.yul\":3998:4117   */\n    tag_228:\n        /* \"#utility.yul\":4156:4157   */\n      0x00\n        /* \"#utility.yul\":4181:4234   */\n      tag_230\n        /* \"#utility.yul\":4226:4233   */\n      dup6\n        /* \"#utility.yul\":4217:4223   */\n      dup3\n        /* \"#utility.yul\":4206:4215   */\n      dup7\n        /* \"#utility.yul\":4202:4224   */\n      add\n        /* \"#utility.yul\":4181:4234   */\n      tag_190\n      jump\t// in\n    tag_230:\n        /* \"#utility.yul\":4171:4234   */\n      swap3\n      pop\n        /* \"#utility.yul\":4127:4244   */\n      pop\n        /* \"#utility.yul\":4283:4285   */\n      0x20\n        /* \"#utility.yul\":4309:4362   */\n      tag_231\n        /* \"#utility.yul\":4354:4361   */\n      dup6\n        /* \"#utility.yul\":4345:4351   */\n      dup3\n        /* \"#utility.yul\":4334:4343   */\n      dup7\n        /* \"#utility.yul\":4330:4352   */\n      add\n        /* \"#utility.yul\":4309:4362   */\n      tag_180\n      jump\t// in\n    tag_231:\n        /* \"#utility.yul\":4299:4362   */\n      swap2\n      pop\n        /* \"#utility.yul\":4254:4372   */\n      pop\n        /* \"#utility.yul\":3905:4379   */\n      swap3\n      pop\n      swap3\n      swap1\n      pop\n      jump\t// out\n        /* \"#utility.yul\":4385:4503   */\n    tag_232:\n        /* \"#utility.yul\":4472:4496   */\n      tag_234\n        /* \"#utility.yul\":4490:4495   */\n      dup2\n        /* \"#utility.yul\":4472:4496   */\n      tag_235\n      jump\t// in\n    tag_234:\n        /* \"#utility.yul\":4467:4470   */\n      dup3\n        /* \"#utility.yul\":4460:4497   */\n      mstore\n        /* \"#utility.yul\":4385:4503   */\n      pop\n      pop\n      jump\t// out\n        /* \"#utility.yul\":4509:4618   */\n    tag_236:\n        /* \"#utility.yul\":4590:4611   */\n      tag_238\n        /* \"#utility.yul\":4605:4610   */\n      dup2\n        /* \"#utility.yul\":4590:4611   */\n      tag_239\n      jump\t// in\n    tag_238:\n        /* \"#utility.yul\":4585:4588   */\n      dup3\n        /* \"#utility.yul\":4578:4612   */\n      mstore\n        /* \"#utility.yul\":4509:4618   */\n      pop\n      pop\n      jump\t// out\n        /* \"#utility.yul\":4624:4988   */\n    tag_240:\n        /* \"#utility.yul\":4712:4715   */\n      0x00\n        /* \"#utility.yul\":4740:4779   */\n      tag_242\n        /* \"#utility.yul\":4773:4778   */\n      dup3\n        /* \"#utility.yul\":4740:4779   */\n      tag_243\n      jump\t// in\n    tag_242:\n        /* \"#utility.yul\":4795:4866   */\n      tag_244\n        /* \"#utility.yul\":4859:4865   */\n      dup2\n        /* \"#utility.yul\":4854:4857   */\n      dup6\n        /* \"#utility.yul\":4795:4866   */\n      tag_245\n      jump\t// in\n    tag_244:\n        /* \"#utility.yul\":4788:4866   */\n      swap4\n      pop\n        /* \"#utility.yul\":4875:4927   */\n      tag_246\n        /* \"#utility.yul\":4920:4926   */\n      dup2\n        /* \"#utility.yul\":4915:4918   */\n      dup6\n        /* \"#utility.yul\":4908:4912   */\n      0x20\n        /* \"#utility.yul\":4901:4906   */\n      dup7\n        /* \"#utility.yul\":4897:4913   */\n      add\n        /* \"#utility.yul\":4875:4927   */\n      tag_247\n      jump\t// in\n    tag_246:\n        /* \"#utility.yul\":4952:4981   */\n      tag_248\n        /* \"#utility.yul\":4974:4980   */\n      dup2\n        /* \"#utility.yul\":4952:4981   */\n      tag_249\n      jump\t// in\n    tag_248:\n        /* \"#utility.yul\":4947:4950   */\n      dup5\n        /* \"#utility.yul\":4943:4982   */\n      add\n        /* \"#utility.yul\":4936:4982   */\n      swap2\n      pop\n        /* \"#utility.yul\":4716:4988   */\n      pop\n        /* \"#utility.yul\":4624:4988   */\n      swap3\n      swap2\n      pop\n      pop\n      jump\t// out\n        /* \"#utility.yul\":4994:5371   */\n    tag_250:\n        /* \"#utility.yul\":5100:5103   */\n      0x00\n        /* \"#utility.yul\":5128:5167   */\n      tag_252\n        /* \"#utility.yul\":5161:5166   */\n      dup3\n        /* \"#utility.yul\":5128:5167   */\n      tag_243\n      jump\t// in\n    tag_252:\n        /* \"#utility.yul\":5183:5272   */\n      tag_253\n        /* \"#utility.yul\":5265:5271   */\n      dup2\n        /* \"#utility.yul\":5260:5263   */\n      dup6\n        /* \"#utility.yul\":5183:5272   */\n      tag_254\n      jump\t// in\n    tag_253:\n        /* \"#utility.yul\":5176:5272   */\n      swap4\n      pop\n        /* \"#utility.yul\":5281:5333   */\n      tag_255\n        /* \"#utility.yul\":5326:5332   */\n      dup2\n        /* \"#utility.yul\":5321:5324   */\n      dup6\n        /* \"#utility.yul\":5314:5318   */\n      0x20\n        /* \"#utility.yul\":5307:5312   */\n      dup7\n        /* \"#utility.yul\":5303:5319   */\n      add\n        /* \"#utility.yul\":5281:5333   */\n      tag_247\n      jump\t// in\n    tag_255:\n        /* \"#utility.yul\":5358:5364   */\n      dup1\n        /* \"#utility.yul\":5353:5356   */\n      dup5\n        /* \"#utility.yul\":5349:5365   */\n      add\n        /* \"#utility.yul\":5342:5365   */\n      swap2\n      pop\n        /* \"#utility.yul\":5104:5371   */\n      pop\n        /* \"#utility.yul\":4994:5371   */\n      swap3\n      swap2\n      pop\n      pop\n      jump\t// out\n        /* \"#utility.yul\":5377:5743   */\n    tag_256:\n        /* \"#utility.yul\":5519:5522   */\n      0x00\n        /* \"#utility.yul\":5540:5607   */\n      tag_258\n        /* \"#utility.yul\":5604:5606   */\n      0x19\n        /* \"#utility.yul\":5599:5602   */\n      dup4\n        /* \"#utility.yul\":5540:5607   */\n      tag_245\n      jump\t// in\n    tag_258:\n        /* \"#utility.yul\":5533:5607   */\n      swap2\n      pop\n        /* \"#utility.yul\":5616:5709   */\n      tag_259\n        /* \"#utility.yul\":5705:5708   */\n      dup3\n        /* \"#utility.yul\":5616:5709   */\n      tag_260\n      jump\t// in\n    tag_259:\n        /* \"#utility.yul\":5734:5736   */\n      0x20\n        /* \"#utility.yul\":5729:5732   */\n      dup3\n        /* \"#utility.yul\":5725:5737   */\n      add\n        /* \"#utility.yul\":5718:5737   */\n      swap1\n      pop\n        /* \"#utility.yul\":5377:5743   */\n      swap2\n      swap1\n      pop\n      jump\t// out\n        /* \"#utility.yul\":5749:6115   */\n    tag_261:\n        /* \"#utility.yul\":5891:5894   */\n      0x00\n        /* \"#utility.yul\":5912:5979   */\n      tag_263\n        /* \"#utility.yul\":5976:5978   */\n      0x11\n        /* \"#utility.yul\":5971:5974   */\n      dup4\n        /* \"#utility.yul\":5912:5979   */\n      tag_245\n      jump\t// in\n    tag_263:\n        /* \"#utility.yul\":5905:5979   */\n      swap2\n      pop\n        /* \"#utility.yul\":5988:6081   */\n      tag_264\n        /* \"#utility.yul\":6077:6080   */\n      dup3\n        /* \"#utility.yul\":5988:6081   */\n      tag_265\n      jump\t// in\n    tag_264:\n        /* \"#utility.yul\":6106:6108   */\n      0x20\n        /* \"#utility.yul\":6101:6104   */\n      dup3\n        /* \"#utility.yul\":6097:6109   */\n      add\n        /* \"#utility.yul\":6090:6109   */\n      swap1\n      pop\n        /* \"#utility.yul\":5749:6115   */\n      swap2\n      swap1\n      pop\n      jump\t// out\n        /* \"#utility.yul\":6121:6239   */\n    tag_266:\n        /* \"#utility.yul\":6208:6232   */\n      tag_268\n        /* \"#utility.yul\":6226:6231   */\n      dup2\n        /* \"#utility.yul\":6208:6232   */\n      tag_269\n      jump\t// in\n    tag_268:\n        /* \"#utility.yul\":6203:6206   */\n      dup3\n        /* \"#utility.yul\":6196:6233   */\n      mstore\n        /* \"#utility.yul\":6121:6239   */\n      pop\n      pop\n      jump\t// out\n        /* \"#utility.yul\":6245:6520   */\n    tag_135:\n        /* \"#utility.yul\":6377:6380   */\n      0x00\n        /* \"#utility.yul\":6399:6494   */\n      tag_271\n        /* \"#utility.yul\":6490:6493   */\n      dup3\n        /* \"#utility.yul\":6481:6487   */\n      dup5\n        /* \"#utility.yul\":6399:6494   */\n      tag_250\n      jump\t// in\n    tag_271:\n        /* \"#utility.yul\":6392:6494   */\n      swap2\n      pop\n        /* \"#utility.yul\":6511:6514   */\n      dup2\n        /* \"#utility.yul\":6504:6514   */\n      swap1\n      pop\n        /* \"#utility.yul\":6245:6520   */\n      swap3\n      swap2\n      pop\n      pop\n      jump\t// out\n        /* \"#utility.yul\":6526:6748   */\n    tag_32:\n        /* \"#utility.yul\":6619:6623   */\n      0x00\n        /* \"#utility.yul\":6657:6659   */\n      0x20\n        /* \"#utility.yul\":6646:6655   */\n      dup3\n        /* \"#utility.yul\":6642:6660   */\n      add\n        /* \"#utility.yul\":6634:6660   */\n      swap1\n      pop\n        /* \"#utility.yul\":6670:6741   */\n      tag_273\n        /* \"#utility.yul\":6738:6739   */\n      0x00\n        /* \"#utility.yul\":6727:6736   */\n      dup4\n        /* \"#utility.yul\":6723:6740   */\n      add\n        /* \"#utility.yul\":6714:6720   */\n      dup5\n        /* \"#utility.yul\":6670:6741   */\n      tag_232\n      jump\t// in\n    tag_273:\n        /* \"#utility.yul\":6526:6748   */\n      swap3\n      swap2\n      pop\n      pop\n      jump\t// out\n        /* \"#utility.yul\":6754:6964   */\n    tag_54:\n        /* \"#utility.yul\":6841:6845   */\n      0x00\n        /* \"#utility.yul\":6879:6881   */\n      0x20\n        /* \"#utility.yul\":6868:6877   */\n      dup3\n        /* \"#utility.yul\":6864:6882   */\n      add\n        /* \"#utility.yul\":6856:6882   */\n      swap1\n      pop\n        /* \"#utility.yul\":6892:6957   */\n      tag_275\n        /* \"#utility.yul\":6954:6955   */\n      0x00\n        /* \"#utility.yul\":6943:6952   */\n      dup4\n        /* \"#utility.yul\":6939:6956   */\n      add\n        /* \"#utility.yul\":6930:6936   */\n      dup5\n        /* \"#utility.yul\":6892:6957   */\n      tag_236\n      jump\t// in\n    tag_275:\n        /* \"#utility.yul\":6754:6964   */\n      swap3\n      swap2\n      pop\n      pop\n      jump\t// out\n        /* \"#utility.yul\":6970:7283   */\n    tag_28:\n        /* \"#utility.yul\":7083:7087   */\n      0x00\n        /* \"#utility.yul\":7121:7123   */\n      0x20\n        /* \"#utility.yul\":7110:7119   */\n      dup3\n        /* \"#utility.yul\":7106:7124   */\n      add\n        /* \"#utility.yul\":7098:7124   */\n      swap1\n      pop\n        /* \"#utility.yul\":7170:7179   */\n      dup2\n        /* \"#utility.yul\":7164:7168   */\n      dup2\n        /* \"#utility.yul\":7160:7180   */\n      sub\n        /* \"#utility.yul\":7156:7157   */\n      0x00\n        /* \"#utility.yul\":7145:7154   */\n      dup4\n        /* \"#utility.yul\":7141:7158   */\n      add\n        /* \"#utility.yul\":7134:7181   */\n      mstore\n        /* \"#utility.yul\":7198:7276   */\n      tag_277\n        /* \"#utility.yul\":7271:7275   */\n      dup2\n        /* \"#utility.yul\":7262:7268   */\n      dup5\n        /* \"#utility.yul\":7198:7276   */\n      tag_240\n      jump\t// in\n    tag_277:\n        /* \"#utility.yul\":7190:7276   */\n      swap1\n      pop\n        /* \"#utility.yul\":6970:7283   */\n      swap3\n      swap2\n      pop\n      pop\n      jump\t// out\n        /* \"#utility.yul\":7289:7708   */\n    tag_138:\n        /* \"#utility.yul\":7455:7459   */\n      0x00\n        /* \"#utility.yul\":7493:7495   */\n      0x20\n        /* \"#utility.yul\":7482:7491   */\n      dup3\n        /* \"#utility.yul\":7478:7496   */\n      add\n        /* \"#utility.yul\":7470:7496   */\n      swap1\n      pop\n        /* \"#utility.yul\":7542:7551   */\n      dup2\n        /* \"#utility.yul\":7536:7540   */\n      dup2\n        /* \"#utility.yul\":7532:7552   */\n      sub\n        /* \"#utility.yul\":7528:7529   */\n      0x00\n        /* \"#utility.yul\":7517:7526   */\n      dup4\n        /* \"#utility.yul\":7513:7530   */\n      add\n        /* \"#utility.yul\":7506:7553   */\n      mstore\n        /* \"#utility.yul\":7570:7701   */\n      tag_279\n        /* \"#utility.yul\":7696:7700   */\n      dup2\n        /* \"#utility.yul\":7570:7701   */\n      tag_256\n      jump\t// in\n    tag_279:\n        /* \"#utility.yul\":7562:7701   */\n      swap1\n      pop\n        /* \"#utility.yul\":7289:7708   */\n      swap2\n      swap1\n      pop\n      jump\t// out\n        /* \"#utility.yul\":7714:8133   */\n    tag_130:\n        /* \"#utility.yul\":7880:7884   */\n      0x00\n        /* \"#utility.yul\":7918:7920   */\n      0x20\n        /* \"#utility.yul\":7907:7916   */\n      dup3\n        /* \"#utility.yul\":7903:7921   */\n      add\n        /* \"#utility.yul\":7895:7921   */\n      swap1\n      pop\n        /* \"#utility.yul\":7967:7976   */\n      dup2\n        /* \"#utility.yul\":7961:7965   */\n      dup2\n        /* \"#utility.yul\":7957:7977   */\n      sub\n        /* \"#utility.yul\":7953:7954   */\n      0x00\n        /* \"#utility.yul\":7942:7951   */\n      dup4\n        /* \"#utility.yul\":7938:7955   */\n      add\n        /* \"#utility.yul\":7931:7978   */\n      mstore\n        /* \"#utility.yul\":7995:8126   */\n      tag_281\n        /* \"#utility.yul\":8121:8125   */\n      dup2\n        /* \"#utility.yul\":7995:8126   */\n      tag_261\n      jump\t// in\n    tag_281:\n        /* \"#utility.yul\":7987:8126   */\n      swap1\n      pop\n        /* \"#utility.yul\":7714:8133   */\n      swap2\n      swap1\n      pop\n      jump\t// out\n        /* \"#utility.yul\":8139:8361   */\n    tag_36:\n        /* \"#utility.yul\":8232:8236   */\n      0x00\n        /* \"#utility.yul\":8270:8272   */\n      0x20\n        /* \"#utility.yul\":8259:8268   */\n      dup3\n        /* \"#utility.yul\":8255:8273   */\n      add\n        /* \"#utility.yul\":8247:8273   */\n      swap1\n      pop\n        /* \"#utility.yul\":8283:8354   */\n      tag_283\n        /* \"#utility.yul\":8351:8352   */\n      0x00\n        /* \"#utility.yul\":8340:8349   */\n      dup4\n        /* \"#utility.yul\":8336:8353   */\n      add\n        /* \"#utility.yul\":8327:8333   */\n      dup5\n        /* \"#utility.yul\":8283:8354   */\n      tag_266\n      jump\t// in\n    tag_283:\n        /* \"#utility.yul\":8139:8361   */\n      swap3\n      swap2\n      pop\n      pop\n      jump\t// out\n        /* \"#utility.yul\":8367:8496   */\n    tag_174:\n        /* \"#utility.yul\":8401:8407   */\n      0x00\n        /* \"#utility.yul\":8428:8448   */\n      tag_285\n      tag_286\n      jump\t// in\n    tag_285:\n        /* \"#utility.yul\":8418:8448   */\n      swap1\n      pop\n        /* \"#utility.yul\":8457:8490   */\n      tag_287\n        /* \"#utility.yul\":8485:8489   */\n      dup3\n        /* \"#utility.yul\":8477:8483   */\n      dup3\n        /* \"#utility.yul\":8457:8490   */\n      tag_288\n      jump\t// in\n    tag_287:\n        /* \"#utility.yul\":8367:8496   */\n      swap2\n      swap1\n      pop\n      jump\t// out\n        /* \"#utility.yul\":8502:8577   */\n    tag_286:\n        /* \"#utility.yul\":8535:8541   */\n      0x00\n        /* \"#utility.yul\":8568:8570   */\n      0x40\n        /* \"#utility.yul\":8562:8571   */\n      mload\n        /* \"#utility.yul\":8552:8571   */\n      swap1\n      pop\n        /* \"#utility.yul\":8502:8577   */\n      swap1\n      jump\t// out\n        /* \"#utility.yul\":8583:8891   */\n    tag_173:\n        /* \"#utility.yul\":8645:8649   */\n      0x00\n        /* \"#utility.yul\":8735:8753   */\n      0xffffffffffffffff\n        /* \"#utility.yul\":8727:8733   */\n      dup3\n        /* \"#utility.yul\":8724:8754   */\n      gt\n        /* \"#utility.yul\":8721:8777   */\n      iszero\n      tag_291\n      jumpi\n        /* \"#utility.yul\":8757:8775   */\n      tag_292\n      tag_293\n      jump\t// in\n    tag_292:\n        /* \"#utility.yul\":8721:8777   */\n    tag_291:\n        /* \"#utility.yul\":8795:8824   */\n      tag_294\n        /* \"#utility.yul\":8817:8823   */\n      dup3\n        /* \"#utility.yul\":8795:8824   */\n      tag_249\n      jump\t// in\n    tag_294:\n        /* \"#utility.yul\":8787:8824   */\n      swap1\n      pop\n        /* \"#utility.yul\":8879:8883   */\n      0x20\n        /* \"#utility.yul\":8873:8877   */\n      dup2\n        /* \"#utility.yul\":8869:8884   */\n      add\n        /* \"#utility.yul\":8861:8884   */\n      swap1\n      pop\n        /* \"#utility.yul\":8583:8891   */\n      swap2\n      swap1\n      pop\n      jump\t// out\n        /* \"#utility.yul\":8897:8996   */\n    tag_243:\n        /* \"#utility.yul\":8949:8955   */\n      0x00\n        /* \"#utility.yul\":8983:8988   */\n      dup2\n        /* \"#utility.yul\":8977:8989   */\n      mload\n        /* \"#utility.yul\":8967:8989   */\n      swap1\n      pop\n        /* \"#utility.yul\":8897:8996   */\n      swap2\n      swap1\n      pop\n      jump\t// out\n        /* \"#utility.yul\":9002:9171   */\n    tag_245:\n        /* \"#utility.yul\":9086:9097   */\n      0x00\n        /* \"#utility.yul\":9120:9126   */\n      dup3\n        /* \"#utility.yul\":9115:9118   */\n      dup3\n        /* \"#utility.yul\":9108:9127   */\n      mstore\n        /* \"#utility.yul\":9160:9164   */\n      0x20\n        /* \"#utility.yul\":9155:9158   */\n      dup3\n        /* \"#utility.yul\":9151:9165   */\n      add\n        /* \"#utility.yul\":9136:9165   */\n      swap1\n      pop\n        /* \"#utility.yul\":9002:9171   */\n      swap3\n      swap2\n      pop\n      pop\n      jump\t// out\n        /* \"#utility.yul\":9177:9325   */\n    tag_254:\n        /* \"#utility.yul\":9279:9290   */\n      0x00\n        /* \"#utility.yul\":9316:9319   */\n      dup2\n        /* \"#utility.yul\":9301:9319   */\n      swap1\n      pop\n        /* \"#utility.yul\":9177:9325   */\n      swap3\n      swap2\n      pop\n      pop\n      jump\t// out\n        /* \"#utility.yul\":9331:9636   */\n    tag_126:\n        /* \"#utility.yul\":9371:9374   */\n      0x00\n        /* \"#utility.yul\":9390:9410   */\n      tag_299\n        /* \"#utility.yul\":9408:9409   */\n      dup3\n        /* \"#utility.yul\":9390:9410   */\n      tag_269\n      jump\t// in\n    tag_299:\n        /* \"#utility.yul\":9385:9410   */\n      swap2\n      pop\n        /* \"#utility.yul\":9424:9444   */\n      tag_300\n        /* \"#utility.yul\":9442:9443   */\n      dup4\n        /* \"#utility.yul\":9424:9444   */\n      tag_269\n      jump\t// in\n    tag_300:\n        /* \"#utility.yul\":9419:9444   */\n      swap3\n      pop\n        /* \"#utility.yul\":9578:9579   */\n      dup3\n        /* \"#utility.yul\":9510:9576   */\n      0xffffffffffffffffffffffffffffffffffffffffffffffffffffffffffffffff\n        /* \"#utility.yul\":9506:9580   */\n      sub\n        /* \"#utility.yul\":9503:9504   */\n      dup3\n        /* \"#utility.yul\":9500:9581   */\n      gt\n        /* \"#utility.yul\":9497:9604   */\n      iszero\n      tag_301\n      jumpi\n        /* \"#utility.yul\":9584:9602   */\n      tag_302\n      tag_303\n      jump\t// in\n    tag_302:\n        /* \"#utility.yul\":9497:9604   */\n    tag_301:\n        /* \"#utility.yul\":9628:9629   */\n      dup3\n        /* \"#utility.yul\":9625:9626   */\n      dup3\n        /* \"#utility.yul\":9621:9630   */\n      add\n        /* \"#utility.yul\":9614:9630   */\n      swap1\n      pop\n        /* \"#utility.yul\":9331:9636   */\n      swap3\n      swap2\n      pop\n      pop\n      jump\t// out\n        /* \"#utility.yul\":9642:9833   */\n    tag_132:\n        /* \"#utility.yul\":9682:9686   */\n      0x00\n        /* \"#utility.yul\":9702:9722   */\n      tag_305\n        /* \"#utility.yul\":9720:9721   */\n      dup3\n        /* \"#utility.yul\":9702:9722   */\n      tag_269\n      jump\t// in\n    tag_305:\n        /* \"#utility.yul\":9697:9722   */\n      swap2\n      pop\n        /* \"#utility.yul\":9736:9756   */\n      tag_306\n        /* \"#utility.yul\":9754:9755   */\n      dup4\n        /* \"#utility.yul\":9736:9756   */\n      tag_269\n      jump\t// in\n    tag_306:\n        /* \"#utility.yul\":9731:9756   */\n      swap3\n      pop\n        /* \"#utility.yul\":9775:9776   */\n      dup3\n        /* \"#utility.yul\":9772:9773   */\n      dup3\n        /* \"#utility.yul\":9769:9777   */\n      lt\n        /* \"#utility.yul\":9766:9800   */\n      iszero\n      tag_307\n      jumpi\n        /* \"#utility.yul\":9780:9798   */\n      tag_308\n      tag_303\n      jump\t// in\n    tag_308:\n        /* \"#utility.yul\":9766:9800   */\n    tag_307:\n        /* \"#utility.yul\":9825:9826   */\n      dup3\n        /* \"#utility.yul\":9822:9823   */\n      dup3\n        /* \"#utility.yul\":9818:9827   */\n      sub\n        /* \"#utility.yul\":9810:9827   */\n      swap1\n      pop\n        /* \"#utility.yul\":9642:9833   */\n      swap3\n      swap2\n      pop\n      pop\n      jump\t// out\n        /* \"#utility.yul\":9839:9935   */\n    tag_235:\n        /* \"#utility.yul\":9876:9883   */\n      0x00\n        /* \"#utility.yul\":9905:9929   */\n      tag_310\n        /* \"#utility.yul\":9923:9928   */\n      dup3\n        /* \"#utility.yul\":9905:9929   */\n      tag_311\n      jump\t// in\n    tag_310:\n        /* \"#utility.yul\":9894:9929   */\n      swap1\n      pop\n        /* \"#utility.yul\":9839:9935   */\n      swap2\n      swap1\n      pop\n      jump\t// out\n        /* \"#utility.yul\":9941:10031   */\n    tag_239:\n        /* \"#utility.yul\":9975:9982   */\n      0x00\n        /* \"#utility.yul\":10018:10023   */\n      dup2\n        /* \"#utility.yul\":10011:10024   */\n      iszero\n        /* \"#utility.yul\":10004:10025   */\n      iszero\n        /* \"#utility.yul\":9993:10025   */\n      swap1\n      pop\n        /* \"#utility.yul\":9941:10031   */\n      swap2\n      swap1\n      pop\n      jump\t// out\n        /* \"#utility.yul\":10037:10163   */\n    tag_311:\n        /* \"#utility.yul\":10074:10081   */\n      0x00\n        /* \"#utility.yul\":10114:10156   */\n      0xffffffffffffffffffffffffffffffffffffffff\n        /* \"#utility.yul\":10107:10112   */\n      dup3\n        /* \"#utility.yul\":10103:10157   */\n      and\n        /* \"#utility.yul\":10092:10157   */\n      swap1\n      pop\n        /* \"#utility.yul\":10037:10163   */\n      swap2\n      swap1\n      pop\n      jump\t// out\n        /* \"#utility.yul\":10169:10246   */\n    tag_269:\n        /* \"#utility.yul\":10206:10213   */\n      0x00\n        /* \"#utility.yul\":10235:10240   */\n      dup2\n        /* \"#utility.yul\":10224:10240   */\n      swap1\n      pop\n        /* \"#utility.yul\":10169:10246   */\n      swap2\n      swap1\n      pop\n      jump\t// out\n        /* \"#utility.yul\":10252:10406   */\n    tag_179:\n        /* \"#utility.yul\":10336:10342   */\n      dup3\n        /* \"#utility.yul\":10331:10334   */\n      dup2\n        /* \"#utility.yul\":10326:10329   */\n      dup4\n        /* \"#utility.yul\":10313:10343   */\n      calldatacopy\n        /* \"#utility.yul\":10398:10399   */\n      0x00\n        /* \"#utility.yul\":10389:10395   */\n      dup4\n        /* \"#utility.yul\":10384:10387   */\n      dup4\n        /* \"#utility.yul\":10380:10396   */\n      add\n        /* \"#utility.yul\":10373:10400   */\n      mstore\n        /* \"#utility.yul\":10252:10406   */\n      pop\n      pop\n      pop\n      jump\t// out\n        /* \"#utility.yul\":10412:10719   */\n    tag_247:\n        /* \"#utility.yul\":10480:10481   */\n      0x00\n        /* \"#utility.yul\":10490:10603   */\n    tag_317:\n        /* \"#utility.yul\":10504:10510   */\n      dup4\n        /* \"#utility.yul\":10501:10502   */\n      dup2\n        /* \"#utility.yul\":10498:10511   */\n      lt\n        /* \"#utility.yul\":10490:10603   */\n      iszero\n      tag_319\n      jumpi\n        /* \"#utility.yul\":10589:10590   */\n      dup1\n        /* \"#utility.yul\":10584:10587   */\n      dup3\n        /* \"#utility.yul\":10580:10591   */\n      add\n        /* \"#utility.yul\":10574:10592   */\n      mload\n        /* \"#utility.yul\":10570:10571   */\n      dup2\n        /* \"#utility.yul\":10565:10568   */\n      dup5\n        /* \"#utility.yul\":10561:10572   */\n      add\n        /* \"#utility.yul\":10554:10593   */\n      mstore\n        /* \"#utility.yul\":10526:10528   */\n      0x20\n        /* \"#utility.yul\":10523:10524   */\n      dup2\n        /* \"#utility.yul\":10519:10529   */\n      add\n        /* \"#utility.yul\":10514:10529   */\n      swap1\n      pop\n        /* \"#utility.yul\":10490:10603   */\n      jump(tag_317)\n    tag_319:\n        /* \"#utility.yul\":10621:10627   */\n      dup4\n        /* \"#utility.yul\":10618:10619   */\n      dup2\n        /* \"#utility.yul\":10615:10628   */\n      gt\n        /* \"#utility.yul\":10612:10713   */\n      iszero\n      tag_320\n      jumpi\n        /* \"#utility.yul\":10701:10702   */\n      0x00\n        /* \"#utility.yul\":10692:10698   */\n      dup5\n        /* \"#utility.yul\":10687:10690   */\n      dup5\n        /* \"#utility.yul\":10683:10699   */\n      add\n        /* \"#utility.yul\":10676:10703   */\n      mstore\n        /* \"#utility.yul\":10612:10713   */\n    tag_320:\n        /* \"#utility.yul\":10461:10719   */\n      pop\n        /* \"#utility.yul\":10412:10719   */\n      pop\n      pop\n      pop\n      jump\t// out\n        /* \"#utility.yul\":10725:11045   */\n    tag_102:\n        /* \"#utility.yul\":10769:10775   */\n      0x00\n        /* \"#utility.yul\":10806:10807   */\n      0x02\n        /* \"#utility.yul\":10800:10804   */\n      dup3\n        /* \"#utility.yul\":10796:10808   */\n      div\n        /* \"#utility.yul\":10786:10808   */\n      swap1\n      pop\n        /* \"#utility.yul\":10853:10854   */\n      0x01\n        /* \"#utility.yul\":10847:10851   */\n      dup3\n        /* \"#utility.yul\":10843:10855   */\n      and\n        /* \"#utility.yul\":10874:10892   */\n      dup1\n        /* \"#utility.yul\":10864:10945   */\n      tag_322\n      jumpi\n        /* \"#utility.yul\":10930:10934   */\n      0x7f\n        /* \"#utility.yul\":10922:10928   */\n      dup3\n        /* \"#utility.yul\":10918:10935   */\n      and\n        /* \"#utility.yul\":10908:10935   */\n      swap2\n      pop\n        /* \"#utility.yul\":10864:10945   */\n    tag_322:\n        /* \"#utility.yul\":10992:10994   */\n      0x20\n        /* \"#utility.yul\":10984:10990   */\n      dup3\n        /* \"#utility.yul\":10981:10995   */\n      lt\n        /* \"#utility.yul\":10961:10979   */\n      dup2\n        /* \"#utility.yul\":10958:10996   */\n      eq\n        /* \"#utility.yul\":10955:11039   */\n      iszero\n      tag_323\n      jumpi\n        /* \"#utility.yul\":11011:11029   */\n      tag_324\n      tag_325\n      jump\t// in\n    tag_324:\n        /* \"#utility.yul\":10955:11039   */\n    tag_323:\n        /* \"#utility.yul\":10776:11045   */\n      pop\n        /* \"#utility.yul\":10725:11045   */\n      swap2\n      swap1\n      pop\n      jump\t// out\n        /* \"#utility.yul\":11051:11332   */\n    tag_288:\n        /* \"#utility.yul\":11134:11161   */\n      tag_327\n        /* \"#utility.yul\":11156:11160   */\n      dup3\n        /* \"#utility.yul\":11134:11161   */\n      tag_249\n      jump\t// in\n    tag_327:\n        /* \"#utility.yul\":11126:11132   */\n      dup2\n        /* \"#utility.yul\":11122:11162   */\n      add\n        /* \"#utility.yul\":11264:11270   */\n      dup2\n        /* \"#utility.yul\":11252:11262   */\n      dup2\n        /* \"#utility.yul\":11249:11271   */\n      lt\n        /* \"#utility.yul\":11228:11246   */\n      0xffffffffffffffff\n        /* \"#utility.yul\":11216:11226   */\n      dup3\n        /* \"#utility.yul\":11213:11247   */\n      gt\n        /* \"#utility.yul\":11210:11272   */\n      or\n        /* \"#utility.yul\":11207:11295   */\n      iszero\n      tag_328\n      jumpi\n        /* \"#utility.yul\":11275:11293   */\n      tag_329\n      tag_293\n      jump\t// in\n    tag_329:\n        /* \"#utility.yul\":11207:11295   */\n    tag_328:\n        /* \"#utility.yul\":11315:11325   */\n      dup1\n        /* \"#utility.yul\":11311:11313   */\n      0x40\n        /* \"#utility.yul\":11304:11326   */\n      mstore\n        /* \"#utility.yul\":11094:11332   */\n      pop\n        /* \"#utility.yul\":11051:11332   */\n      pop\n      pop\n      jump\t// out\n        /* \"#utility.yul\":11338:11518   */\n    tag_303:\n        /* \"#utility.yul\":11386:11463   */\n      0x4e487b7100000000000000000000000000000000000000000000000000000000\n        /* \"#utility.yul\":11383:11384   */\n      0x00\n        /* \"#utility.yul\":11376:11464   */\n      mstore\n        /* \"#utility.yul\":11483:11487   */\n      0x11\n        /* \"#utility.yul\":11480:11481   */\n      0x04\n        /* \"#utility.yul\":11473:11488   */\n      mstore\n        /* \"#utility.yul\":11507:11511   */\n      0x24\n        /* \"#utility.yul\":11504:11505   */\n      0x00\n        /* \"#utility.yul\":11497:11512   */\n      revert\n        /* \"#utility.yul\":11524:11704   */\n    tag_325:\n        /* \"#utility.yul\":11572:11649   */\n      0x4e487b7100000000000000000000000000000000000000000000000000000000\n        /* \"#utility.yul\":11569:11570   */\n      0x00\n        /* \"#utility.yul\":11562:11650   */\n      mstore\n        /* \"#utility.yul\":11669:11673   */\n      0x22\n        /* \"#utility.yul\":11666:11667   */\n      0x04\n        /* \"#utility.yul\":11659:11674   */\n      mstore\n        /* \"#utility.yul\":11693:11697   */\n      0x24\n        /* \"#utility.yul\":11690:11691   */\n      0x00\n        /* \"#utility.yul\":11683:11698   */\n      revert\n        /* \"#utility.yul\":11710:11890   */\n    tag_293:\n        /* \"#utility.yul\":11758:11835   */\n      0x4e487b7100000000000000000000000000000000000000000000000000000000\n        /* \"#utility.yul\":11755:11756   */\n      0x00\n        /* \"#utility.yul\":11748:11836   */\n      mstore\n        /* \"#utility.yul\":11855:11859   */\n      0x41\n        /* \"#utility.yul\":11852:11853   */\n      0x04\n        /* \"#utility.yul\":11845:11860   */\n      mstore\n        /* \"#utility.yul\":11879:11883   */\n      0x24\n        /* \"#utility.yul\":11876:11877   */\n      0x00\n        /* \"#utility.yul\":11869:11884   */\n      revert\n        /* \"#utility.yul\":11896:12013   */\n    tag_188:\n        /* \"#utility.yul\":12005:12006   */\n      0x00\n        /* \"#utility.yul\":12002:12003   */\n      dup1\n        /* \"#utility.yul\":11995:12007   */\n      revert\n        /* \"#utility.yul\":12019:12136   */\n    tag_177:\n        /* \"#utility.yul\":12128:12129   */\n      0x00\n        /* \"#utility.yul\":12125:12126   */\n      dup1\n        /* \"#utility.yul\":12118:12130   */\n      revert\n        /* \"#utility.yul\":12142:12259   */\n    tag_204:\n        /* \"#utility.yul\":12251:12252   */\n      0x00\n        /* \"#utility.yul\":12248:12249   */\n      dup1\n        /* \"#utility.yul\":12241:12253   */\n      revert\n        /* \"#utility.yul\":12265:12382   */\n    tag_197:\n        /* \"#utility.yul\":12374:12375   */\n      0x00\n        /* \"#utility.yul\":12371:12372   */\n      dup1\n        /* \"#utility.yul\":12364:12376   */\n      revert\n        /* \"#utility.yul\":12388:12490   */\n    tag_249:\n        /* \"#utility.yul\":12429:12435   */\n      0x00\n        /* \"#utility.yul\":12480:12482   */\n      0x1f\n        /* \"#utility.yul\":12476:12483   */\n      not\n        /* \"#utility.yul\":12471:12473   */\n      0x1f\n        /* \"#utility.yul\":12464:12469   */\n      dup4\n        /* \"#utility.yul\":12460:12474   */\n      add\n        /* \"#utility.yul\":12456:12484   */\n      and\n        /* \"#utility.yul\":12446:12484   */\n      swap1\n      pop\n        /* \"#utility.yul\":12388:12490   */\n      swap2\n      swap1\n      pop\n      jump\t// out\n        /* \"#utility.yul\":12496:12671   */\n    tag_260:\n        /* \"#utility.yul\":12636:12663   */\n      0x546f6e7920616c72656164792068617320746869732063617200000000000000\n        /* \"#utility.yul\":12632:12633   */\n      0x00\n        /* \"#utility.yul\":12624:12630   */\n      dup3\n        /* \"#utility.yul\":12620:12634   */\n      add\n        /* \"#utility.yul\":12613:12664   */\n      mstore\n        /* \"#utility.yul\":12496:12671   */\n      pop\n      jump\t// out\n        /* \"#utility.yul\":12677:12844   */\n    tag_265:\n        /* \"#utility.yul\":12817:12836   */\n      0x6e6f7420656e6f756768206d6f6e6e6579000000000000000000000000000000\n        /* \"#utility.yul\":12813:12814   */\n      0x00\n        /* \"#utility.yul\":12805:12811   */\n      dup3\n        /* \"#utility.yul\":12801:12815   */\n      add\n        /* \"#utility.yul\":12794:12837   */\n      mstore\n        /* \"#utility.yul\":12677:12844   */\n      pop\n      jump\t// out\n        /* \"#utility.yul\":12850:12972   */\n    tag_183:\n        /* \"#utility.yul\":12923:12947   */\n      tag_341\n        /* \"#utility.yul\":12941:12946   */\n      dup2\n        /* \"#utility.yul\":12923:12947   */\n      tag_235\n      jump\t// in\n    tag_341:\n        /* \"#utility.yul\":12916:12921   */\n      dup2\n        /* \"#utility.yul\":12913:12948   */\n      eq\n        /* \"#utility.yul\":12903:12966   */\n      tag_342\n      jumpi\n        /* \"#utility.yul\":12962:12963   */\n      0x00\n        /* \"#utility.yul\":12959:12960   */\n      dup1\n        /* \"#utility.yul\":12952:12964   */\n      revert\n        /* \"#utility.yul\":12903:12966   */\n    tag_342:\n        /* \"#utility.yul\":12850:12972   */\n      pop\n      jump\t// out\n        /* \"#utility.yul\":12978:13100   */\n    tag_193:\n        /* \"#utility.yul\":13051:13075   */\n      tag_344\n        /* \"#utility.yul\":13069:13074   */\n      dup2\n        /* \"#utility.yul\":13051:13075   */\n      tag_269\n      jump\t// in\n    tag_344:\n        /* \"#utility.yul\":13044:13049   */\n      dup2\n        /* \"#utility.yul\":13041:13076   */\n      eq\n        /* \"#utility.yul\":13031:13094   */\n      tag_345\n      jumpi\n        /* \"#utility.yul\":13090:13091   */\n      0x00\n        /* \"#utility.yul\":13087:13088   */\n      dup1\n        /* \"#utility.yul\":13080:13092   */\n      revert\n        /* \"#utility.yul\":13031:13094   */\n    tag_345:\n        /* \"#utility.yul\":12978:13100   */\n      pop\n      jump\t// out\n\n    auxdata: 0xa2646970667358221220bc1d1bd67feb5e4acf858a052a32483a9718848788bc1c85c77579cdb33edd5864736f6c63430008070033\n}\n",
				"bytecode": {
					"linkReferences": {},
					"object": "6080604052600080556040518060400160405280600b81526020017f546f6e792053747261726b000000000000000000000000000000000000000000815250600190805190602001906200005592919062000207565b5060306002556001600360006101000a81548160ff02191690831515021790555060405180606001604052806040518060400160405280600781526020017f706c6179626f790000000000000000000000000000000000000000000000000081525081526020016040518060400160405280600881526020017f656e67696e65657200000000000000000000000000000000000000000000000081525081526020016040518060400160405280600481526020017f6865726f0000000000000000000000000000000000000000000000000000000081525081525060059060036200014292919062000298565b503480156200015057600080fd5b5060405162001757380380620017578339818101604052810190620001769190620003ba565b33600860006101000a81548173ffffffffffffffffffffffffffffffffffffffff021916908373ffffffffffffffffffffffffffffffffffffffff1602179055508160048190555080600660006101000a81548173ffffffffffffffffffffffffffffffffffffffff021916908373ffffffffffffffffffffffffffffffffffffffff1602179055505050620004dd565b82805462000215906200043f565b90600052602060002090601f01602090048101928262000239576000855562000285565b82601f106200025457805160ff191683800117855562000285565b8280016001018555821562000285579182015b828111156200028457825182559160200191906001019062000267565b5b509050620002949190620002ff565b5090565b828054828255906000526020600020908101928215620002ec579160200282015b82811115620002eb578251829080519060200190620002da92919062000207565b5091602001919060010190620002b9565b5b509050620002fb91906200031e565b5090565b5b808211156200031a57600081600090555060010162000300565b5090565b5b8082111562000342576000818162000338919062000346565b506001016200031f565b5090565b50805462000354906200043f565b6000825580601f1062000368575062000389565b601f016020900490600052602060002090810190620003889190620002ff565b5b50565b6000815190506200039d81620004a9565b92915050565b600081519050620003b481620004c3565b92915050565b60008060408385031215620003d457620003d3620004a4565b5b6000620003e485828601620003a3565b9250506020620003f7858286016200038c565b9150509250929050565b60006200040e8262000415565b9050919050565b600073ffffffffffffffffffffffffffffffffffffffff82169050919050565b6000819050919050565b600060028204905060018216806200045857607f821691505b602082108114156200046f576200046e62000475565b5b50919050565b7f4e487b7100000000000000000000000000000000000000000000000000000000600052602260045260246000fd5b600080fd5b620004b48162000401565b8114620004c057600080fd5b50565b620004ce8162000435565b8114620004da57600080fd5b50565b61126a80620004ed6000396000f3fe608060405234801561001057600080fd5b50600436106101215760003560e01c80638b8930d3116100ad578063cfb5843c11610071578063cfb5843c14610334578063f72a183d14610350578063f9052ce21461036e578063fc5636581461039e578063fcc9e5c5146103ce57610121565b80638b8930d31461027c5780638da5cb5b146102ac578063aed43682146102ca578063b69ef8a8146102fa578063c8351be01461031857610121565b8063449549d5116100f4578063449549d5146101b05780635cd836a3146101e0578063654a573c14610210578063853320e31461022e57806387e8599f1461025e57610121565b806306fdde03146101265780631329960414610144578063262a9dff146101625780632d47689c14610180575b600080fd5b61012e6103fe565b60405161013b9190610e91565b60405180910390f35b61014c61048c565b6040516101599190610e5b565b60405180910390f35b61016a610510565b6040516101779190610ef3565b60405180910390f35b61019a60048036038101906101959190610b9d565b610516565b6040516101a79190610ef3565b60405180910390f35b6101ca60048036038101906101c59190610cfa565b61052e565b6040516101d79190610e91565b60405180910390f35b6101fa60048036038101906101f59190610cfa565b6105da565b6040516102079190610e91565b60405180910390f35b610218610686565b6040516102259190610e76565b60405180910390f35b61024860048036038101906102439190610bca565b610699565b6040516102559190610ef3565b60405180910390f35b6102666106c7565b6040516102739190610ef3565b60405180910390f35b61029660048036038101906102919190610d27565b6106dd565b6040516102a39190610ef3565b60405180910390f35b6102b461078b565b6040516102c19190610e5b565b60405180910390f35b6102e460048036038101906102df9190610bca565b6107b1565b6040516102f19190610ef3565b60405180910390f35b6103026107df565b60405161030f9190610ef3565b60405180910390f35b610332600480360381019061032d9190610c8b565b6107e5565b005b61034e60048036038101906103499190610bca565b6108d9565b005b610358610918565b6040516103659190610e76565b60405180910390f35b61038860048036038101906103839190610c13565b61092f565b6040516103959190610e91565b60405180910390f35b6103b860048036038101906103b39190610cfa565b610a08565b6040516103c59190610ef3565b60405180910390f35b6103e860048036038101906103e39190610bca565b610a2a565b6040516103f59190610e76565b60405180910390f35b6001805461040b9061109f565b80601f01602080910402602001604051908101604052809291908181526020018280546104379061109f565b80156104845780601f1061045957610100808354040283529160200191610484565b820191906000526020600020905b81548152906001019060200180831161046757829003601f168201915b505050505081565b6000600860009054906101000a900473ffffffffffffffffffffffffffffffffffffffff1673ffffffffffffffffffffffffffffffffffffffff163373ffffffffffffffffffffffffffffffffffffffff16146104e857600080fd5b600660009054906101000a900473ffffffffffffffffffffffffffffffffffffffff16905090565b60025481565b600c6020528060005260406000206000915090505481565b6007818154811061053e57600080fd5b9060005260206000200160009150905080546105599061109f565b80601f01602080910402602001604051908101604052809291908181526020018280546105859061109f565b80156105d25780601f106105a7576101008083540402835291602001916105d2565b820191906000526020600020905b8154815290600101906020018083116105b557829003601f168201915b505050505081565b600581815481106105ea57600080fd5b9060005260206000200160009150905080546106059061109f565b80601f01602080910402602001604051908101604052809291908181526020018280546106319061109f565b801561067e5780601f106106535761010080835404028352916020019161067e565b820191906000526020600020905b81548152906001019060200180831161066157829003601f168201915b505050505081565b600360009054906101000a900460ff1681565b6009818051602081018201805184825260208301602085012081835280955050505050506000915090505481565b600060016000546106d89190610f8b565b905090565b60008260045411610723576040517f08c379a000000000000000000000000000000000000000000000000000000000815260040161071a90610ed3565b60405180910390fd5b82600460008282546107359190610fe1565b9250508190555082600c60008473ffffffffffffffffffffffffffffffffffffffff1673ffffffffffffffffffffffffffffffffffffffff16815260200190815260200160002081905550600454905092915050565b600860009054906101000a900473ffffffffffffffffffffffffffffffffffffffff1681565b600b818051602081018201805184825260208301602085012081835280955050505050506000915090505481565b60045481565b60001515600a846040516107f99190610e44565b908152602001604051809103902060009054906101000a900460ff16151514610857576040517f08c379a000000000000000000000000000000000000000000000000000000000815260040161084e90610eb3565b60405180910390fd5b816009846040516108689190610e44565b90815260200160405180910390208190555080600b8460405161088b9190610e44565b9081526020016040518091039020819055506001600a846040516108af9190610e44565b908152602001604051809103902060006101000a81548160ff021916908315150217905550505050565b600781908060018154018082558091505060019003906000526020600020016000909190919091509080519060200190610914929190610a60565b5050565b6000600360009054906101000a900460ff16905090565b6060600b826040516109419190610e44565b908152602001604051809103902054600b846040516109609190610e44565b908152602001604051809103902054101561097d57819050610a02565b600b8260405161098d9190610e44565b908152602001604051809103902054600b846040516109ac9190610e44565b90815260200160405180910390205411156109c957829050610a02565b6040518060400160405280600281526020017f6e6f00000000000000000000000000000000000000000000000000000000000081525090505b92915050565b600080829050600081600054610a1e9190610f8b565b90508092505050919050565b600a818051602081018201805184825260208301602085012081835280955050505050506000915054906101000a900460ff1681565b828054610a6c9061109f565b90600052602060002090601f016020900481019282610a8e5760008555610ad5565b82601f10610aa757805160ff1916838001178555610ad5565b82800160010185558215610ad5579182015b82811115610ad4578251825591602001919060010190610ab9565b5b509050610ae29190610ae6565b5090565b5b80821115610aff576000816000905550600101610ae7565b5090565b6000610b16610b1184610f33565b610f0e565b905082815260208101848484011115610b3257610b31611194565b5b610b3d84828561105d565b509392505050565b600081359050610b5481611206565b92915050565b600082601f830112610b6f57610b6e61118f565b5b8135610b7f848260208601610b03565b91505092915050565b600081359050610b978161121d565b92915050565b600060208284031215610bb357610bb261119e565b5b6000610bc184828501610b45565b91505092915050565b600060208284031215610be057610bdf61119e565b5b600082013567ffffffffffffffff811115610bfe57610bfd611199565b5b610c0a84828501610b5a565b91505092915050565b60008060408385031215610c2a57610c2961119e565b5b600083013567ffffffffffffffff811115610c4857610c47611199565b5b610c5485828601610b5a565b925050602083013567ffffffffffffffff811115610c7557610c74611199565b5b610c8185828601610b5a565b9150509250929050565b600080600060608486031215610ca457610ca361119e565b5b600084013567ffffffffffffffff811115610cc257610cc1611199565b5b610cce86828701610b5a565b9350506020610cdf86828701610b88565b9250506040610cf086828701610b88565b9150509250925092565b600060208284031215610d1057610d0f61119e565b5b6000610d1e84828501610b88565b91505092915050565b60008060408385031215610d3e57610d3d61119e565b5b6000610d4c85828601610b88565b9250506020610d5d85828601610b45565b9150509250929050565b610d7081611015565b82525050565b610d7f81611027565b82525050565b6000610d9082610f64565b610d9a8185610f6f565b9350610daa81856020860161106c565b610db3816111a3565b840191505092915050565b6000610dc982610f64565b610dd38185610f80565b9350610de381856020860161106c565b80840191505092915050565b6000610dfc601983610f6f565b9150610e07826111b4565b602082019050919050565b6000610e1f601183610f6f565b9150610e2a826111dd565b602082019050919050565b610e3e81611053565b82525050565b6000610e508284610dbe565b915081905092915050565b6000602082019050610e706000830184610d67565b92915050565b6000602082019050610e8b6000830184610d76565b92915050565b60006020820190508181036000830152610eab8184610d85565b905092915050565b60006020820190508181036000830152610ecc81610def565b9050919050565b60006020820190508181036000830152610eec81610e12565b9050919050565b6000602082019050610f086000830184610e35565b92915050565b6000610f18610f29565b9050610f2482826110d1565b919050565b6000604051905090565b600067ffffffffffffffff821115610f4e57610f4d611160565b5b610f57826111a3565b9050602081019050919050565b600081519050919050565b600082825260208201905092915050565b600081905092915050565b6000610f9682611053565b9150610fa183611053565b9250827fffffffffffffffffffffffffffffffffffffffffffffffffffffffffffffffff03821115610fd657610fd5611102565b5b828201905092915050565b6000610fec82611053565b9150610ff783611053565b92508282101561100a57611009611102565b5b828203905092915050565b600061102082611033565b9050919050565b60008115159050919050565b600073ffffffffffffffffffffffffffffffffffffffff82169050919050565b6000819050919050565b82818337600083830152505050565b60005b8381101561108a57808201518184015260208101905061106f565b83811115611099576000848401525b50505050565b600060028204905060018216806110b757607f821691505b602082108114156110cb576110ca611131565b5b50919050565b6110da826111a3565b810181811067ffffffffffffffff821117156110f9576110f8611160565b5b80604052505050565b7f4e487b7100000000000000000000000000000000000000000000000000000000600052601160045260246000fd5b7f4e487b7100000000000000000000000000000000000000000000000000000000600052602260045260246000fd5b7f4e487b7100000000000000000000000000000000000000000000000000000000600052604160045260246000fd5b600080fd5b600080fd5b600080fd5b600080fd5b6000601f19601f8301169050919050565b7f546f6e7920616c72656164792068617320746869732063617200000000000000600082015250565b7f6e6f7420656e6f756768206d6f6e6e6579000000000000000000000000000000600082015250565b61120f81611015565b811461121a57600080fd5b50565b61122681611053565b811461123157600080fd5b5056fea2646970667358221220bc1d1bd67feb5e4acf858a052a32483a9718848788bc1c85c77579cdb33edd5864736f6c63430008070033",
					"opcodes": "PUSH1 0x80 PUSH1 0x40 MSTORE PUSH1 0x0 DUP1 SSTORE PUSH1 0x40 MLOAD DUP1 PUSH1 0x40 ADD PUSH1 0x40 MSTORE DUP1 PUSH1 0xB DUP2 MSTORE PUSH1 0x20 ADD PUSH32 0x546F6E792053747261726B000000000000000000000000000000000000000000 DUP2 MSTORE POP PUSH1 0x1 SWAP1 DUP1 MLOAD SWAP1 PUSH1 0x20 ADD SWAP1 PUSH3 0x55 SWAP3 SWAP2 SWAP1 PUSH3 0x207 JUMP JUMPDEST POP PUSH1 0x30 PUSH1 0x2 SSTORE PUSH1 0x1 PUSH1 0x3 PUSH1 0x0 PUSH2 0x100 EXP DUP2 SLOAD DUP2 PUSH1 0xFF MUL NOT AND SWAP1 DUP4 ISZERO ISZERO MUL OR SWAP1 SSTORE POP PUSH1 0x40 MLOAD DUP1 PUSH1 0x60 ADD PUSH1 0x40 MSTORE DUP1 PUSH1 0x40 MLOAD DUP1 PUSH1 0x40 ADD PUSH1 0x40 MSTORE DUP1 PUSH1 0x7 DUP2 MSTORE PUSH1 0x20 ADD PUSH32 0x706C6179626F7900000000000000000000000000000000000000000000000000 DUP2 MSTORE POP DUP2 MSTORE PUSH1 0x20 ADD PUSH1 0x40 MLOAD DUP1 PUSH1 0x40 ADD PUSH1 0x40 MSTORE DUP1 PUSH1 0x8 DUP2 MSTORE PUSH1 0x20 ADD PUSH32 0x656E67696E656572000000000000000000000000000000000000000000000000 DUP2 MSTORE POP DUP2 MSTORE PUSH1 0x20 ADD PUSH1 0x40 MLOAD DUP1 PUSH1 0x40 ADD PUSH1 0x40 MSTORE DUP1 PUSH1 0x4 DUP2 MSTORE PUSH1 0x20 ADD PUSH32 0x6865726F00000000000000000000000000000000000000000000000000000000 DUP2 MSTORE POP DUP2 MSTORE POP PUSH1 0x5 SWAP1 PUSH1 0x3 PUSH3 0x142 SWAP3 SWAP2 SWAP1 PUSH3 0x298 JUMP JUMPDEST POP CALLVALUE DUP1 ISZERO PUSH3 0x150 JUMPI PUSH1 0x0 DUP1 REVERT JUMPDEST POP PUSH1 0x40 MLOAD PUSH3 0x1757 CODESIZE SUB DUP1 PUSH3 0x1757 DUP4 CODECOPY DUP2 DUP2 ADD PUSH1 0x40 MSTORE DUP2 ADD SWAP1 PUSH3 0x176 SWAP2 SWAP1 PUSH3 0x3BA JUMP JUMPDEST CALLER PUSH1 0x8 PUSH1 0x0 PUSH2 0x100 EXP DUP2 SLOAD DUP2 PUSH20 0xFFFFFFFFFFFFFFFFFFFFFFFFFFFFFFFFFFFFFFFF MUL NOT AND SWAP1 DUP4 PUSH20 0xFFFFFFFFFFFFFFFFFFFFFFFFFFFFFFFFFFFFFFFF AND MUL OR SWAP1 SSTORE POP DUP2 PUSH1 0x4 DUP2 SWAP1 SSTORE POP DUP1 PUSH1 0x6 PUSH1 0x0 PUSH2 0x100 EXP DUP2 SLOAD DUP2 PUSH20 0xFFFFFFFFFFFFFFFFFFFFFFFFFFFFFFFFFFFFFFFF MUL NOT AND SWAP1 DUP4 PUSH20 0xFFFFFFFFFFFFFFFFFFFFFFFFFFFFFFFFFFFFFFFF AND MUL OR SWAP1 SSTORE POP POP POP PUSH3 0x4DD JUMP JUMPDEST DUP3 DUP1 SLOAD PUSH3 0x215 SWAP1 PUSH3 0x43F JUMP JUMPDEST SWAP1 PUSH1 0x0 MSTORE PUSH1 0x20 PUSH1 0x0 KECCAK256 SWAP1 PUSH1 0x1F ADD PUSH1 0x20 SWAP1 DIV DUP2 ADD SWAP3 DUP3 PUSH3 0x239 JUMPI PUSH1 0x0 DUP6 SSTORE PUSH3 0x285 JUMP JUMPDEST DUP3 PUSH1 0x1F LT PUSH3 0x254 JUMPI DUP1 MLOAD PUSH1 0xFF NOT AND DUP4 DUP1 ADD OR DUP6 SSTORE PUSH3 0x285 JUMP JUMPDEST DUP3 DUP1 ADD PUSH1 0x1 ADD DUP6 SSTORE DUP3 ISZERO PUSH3 0x285 JUMPI SWAP2 DUP3 ADD JUMPDEST DUP3 DUP2 GT ISZERO PUSH3 0x284 JUMPI DUP3 MLOAD DUP3 SSTORE SWAP2 PUSH1 0x20 ADD SWAP2 SWAP1 PUSH1 0x1 ADD SWAP1 PUSH3 0x267 JUMP JUMPDEST JUMPDEST POP SWAP1 POP PUSH3 0x294 SWAP2 SWAP1 PUSH3 0x2FF JUMP JUMPDEST POP SWAP1 JUMP JUMPDEST DUP3 DUP1 SLOAD DUP3 DUP3 SSTORE SWAP1 PUSH1 0x0 MSTORE PUSH1 0x20 PUSH1 0x0 KECCAK256 SWAP1 DUP2 ADD SWAP3 DUP3 ISZERO PUSH3 0x2EC JUMPI SWAP2 PUSH1 0x20 MUL DUP3 ADD JUMPDEST DUP3 DUP2 GT ISZERO PUSH3 0x2EB JUMPI DUP3 MLOAD DUP3 SWAP1 DUP1 MLOAD SWAP1 PUSH1 0x20 ADD SWAP1 PUSH3 0x2DA SWAP3 SWAP2 SWAP1 PUSH3 0x207 JUMP JUMPDEST POP SWAP2 PUSH1 0x20 ADD SWAP2 SWAP1 PUSH1 0x1 ADD SWAP1 PUSH3 0x2B9 JUMP JUMPDEST JUMPDEST POP SWAP1 POP PUSH3 0x2FB SWAP2 SWAP1 PUSH3 0x31E JUMP JUMPDEST POP SWAP1 JUMP JUMPDEST JUMPDEST DUP1 DUP3 GT ISZERO PUSH3 0x31A JUMPI PUSH1 0x0 DUP2 PUSH1 0x0 SWAP1 SSTORE POP PUSH1 0x1 ADD PUSH3 0x300 JUMP JUMPDEST POP SWAP1 JUMP JUMPDEST JUMPDEST DUP1 DUP3 GT ISZERO PUSH3 0x342 JUMPI PUSH1 0x0 DUP2 DUP2 PUSH3 0x338 SWAP2 SWAP1 PUSH3 0x346 JUMP JUMPDEST POP PUSH1 0x1 ADD PUSH3 0x31F JUMP JUMPDEST POP SWAP1 JUMP JUMPDEST POP DUP1 SLOAD PUSH3 0x354 SWAP1 PUSH3 0x43F JUMP JUMPDEST PUSH1 0x0 DUP3 SSTORE DUP1 PUSH1 0x1F LT PUSH3 0x368 JUMPI POP PUSH3 0x389 JUMP JUMPDEST PUSH1 0x1F ADD PUSH1 0x20 SWAP1 DIV SWAP1 PUSH1 0x0 MSTORE PUSH1 0x20 PUSH1 0x0 KECCAK256 SWAP1 DUP2 ADD SWAP1 PUSH3 0x388 SWAP2 SWAP1 PUSH3 0x2FF JUMP JUMPDEST JUMPDEST POP JUMP JUMPDEST PUSH1 0x0 DUP2 MLOAD SWAP1 POP PUSH3 0x39D DUP2 PUSH3 0x4A9 JUMP JUMPDEST SWAP3 SWAP2 POP POP JUMP JUMPDEST PUSH1 0x0 DUP2 MLOAD SWAP1 POP PUSH3 0x3B4 DUP2 PUSH3 0x4C3 JUMP JUMPDEST SWAP3 SWAP2 POP POP JUMP JUMPDEST PUSH1 0x0 DUP1 PUSH1 0x40 DUP4 DUP6 SUB SLT ISZERO PUSH3 0x3D4 JUMPI PUSH3 0x3D3 PUSH3 0x4A4 JUMP JUMPDEST JUMPDEST PUSH1 0x0 PUSH3 0x3E4 DUP6 DUP3 DUP7 ADD PUSH3 0x3A3 JUMP JUMPDEST SWAP3 POP POP PUSH1 0x20 PUSH3 0x3F7 DUP6 DUP3 DUP7 ADD PUSH3 0x38C JUMP JUMPDEST SWAP2 POP POP SWAP3 POP SWAP3 SWAP1 POP JUMP JUMPDEST PUSH1 0x0 PUSH3 0x40E DUP3 PUSH3 0x415 JUMP JUMPDEST SWAP1 POP SWAP2 SWAP1 POP JUMP JUMPDEST PUSH1 0x0 PUSH20 0xFFFFFFFFFFFFFFFFFFFFFFFFFFFFFFFFFFFFFFFF DUP3 AND SWAP1 POP SWAP2 SWAP1 POP JUMP JUMPDEST PUSH1 0x0 DUP2 SWAP1 POP SWAP2 SWAP1 POP JUMP JUMPDEST PUSH1 0x0 PUSH1 0x2 DUP3 DIV SWAP1 POP PUSH1 0x1 DUP3 AND DUP1 PUSH3 0x458 JUMPI PUSH1 0x7F DUP3 AND SWAP2 POP JUMPDEST PUSH1 0x20 DUP3 LT DUP2 EQ ISZERO PUSH3 0x46F JUMPI PUSH3 0x46E PUSH3 0x475 JUMP JUMPDEST JUMPDEST POP SWAP2 SWAP1 POP JUMP JUMPDEST PUSH32 0x4E487B7100000000000000000000000000000000000000000000000000000000 PUSH1 0x0 MSTORE PUSH1 0x22 PUSH1 0x4 MSTORE PUSH1 0x24 PUSH1 0x0 REVERT JUMPDEST PUSH1 0x0 DUP1 REVERT JUMPDEST PUSH3 0x4B4 DUP2 PUSH3 0x401 JUMP JUMPDEST DUP2 EQ PUSH3 0x4C0 JUMPI PUSH1 0x0 DUP1 REVERT JUMPDEST POP JUMP JUMPDEST PUSH3 0x4CE DUP2 PUSH3 0x435 JUMP JUMPDEST DUP2 EQ PUSH3 0x4DA JUMPI PUSH1 0x0 DUP1 REVERT JUMPDEST POP JUMP JUMPDEST PUSH2 0x126A DUP1 PUSH3 0x4ED PUSH1 0x0 CODECOPY PUSH1 0x0 RETURN INVALID PUSH1 0x80 PUSH1 0x40 MSTORE CALLVALUE DUP1 ISZERO PUSH2 0x10 JUMPI PUSH1 0x0 DUP1 REVERT JUMPDEST POP PUSH1 0x4 CALLDATASIZE LT PUSH2 0x121 JUMPI PUSH1 0x0 CALLDATALOAD PUSH1 0xE0 SHR DUP1 PUSH4 0x8B8930D3 GT PUSH2 0xAD JUMPI DUP1 PUSH4 0xCFB5843C GT PUSH2 0x71 JUMPI DUP1 PUSH4 0xCFB5843C EQ PUSH2 0x334 JUMPI DUP1 PUSH4 0xF72A183D EQ PUSH2 0x350 JUMPI DUP1 PUSH4 0xF9052CE2 EQ PUSH2 0x36E JUMPI DUP1 PUSH4 0xFC563658 EQ PUSH2 0x39E JUMPI DUP1 PUSH4 0xFCC9E5C5 EQ PUSH2 0x3CE JUMPI PUSH2 0x121 JUMP JUMPDEST DUP1 PUSH4 0x8B8930D3 EQ PUSH2 0x27C JUMPI DUP1 PUSH4 0x8DA5CB5B EQ PUSH2 0x2AC JUMPI DUP1 PUSH4 0xAED43682 EQ PUSH2 0x2CA JUMPI DUP1 PUSH4 0xB69EF8A8 EQ PUSH2 0x2FA JUMPI DUP1 PUSH4 0xC8351BE0 EQ PUSH2 0x318 JUMPI PUSH2 0x121 JUMP JUMPDEST DUP1 PUSH4 0x449549D5 GT PUSH2 0xF4 JUMPI DUP1 PUSH4 0x449549D5 EQ PUSH2 0x1B0 JUMPI DUP1 PUSH4 0x5CD836A3 EQ PUSH2 0x1E0 JUMPI DUP1 PUSH4 0x654A573C EQ PUSH2 0x210 JUMPI DUP1 PUSH4 0x853320E3 EQ PUSH2 0x22E JUMPI DUP1 PUSH4 0x87E8599F EQ PUSH2 0x25E JUMPI PUSH2 0x121 JUMP JUMPDEST DUP1 PUSH4 0x6FDDE03 EQ PUSH2 0x126 JUMPI DUP1 PUSH4 0x13299604 EQ PUSH2 0x144 JUMPI DUP1 PUSH4 0x262A9DFF EQ PUSH2 0x162 JUMPI DUP1 PUSH4 0x2D47689C EQ PUSH2 0x180 JUMPI JUMPDEST PUSH1 0x0 DUP1 REVERT JUMPDEST PUSH2 0x12E PUSH2 0x3FE JUMP JUMPDEST PUSH1 0x40 MLOAD PUSH2 0x13B SWAP2 SWAP1 PUSH2 0xE91 JUMP JUMPDEST PUSH1 0x40 MLOAD DUP1 SWAP2 SUB SWAP1 RETURN JUMPDEST PUSH2 0x14C PUSH2 0x48C JUMP JUMPDEST PUSH1 0x40 MLOAD PUSH2 0x159 SWAP2 SWAP1 PUSH2 0xE5B JUMP JUMPDEST PUSH1 0x40 MLOAD DUP1 SWAP2 SUB SWAP1 RETURN JUMPDEST PUSH2 0x16A PUSH2 0x510 JUMP JUMPDEST PUSH1 0x40 MLOAD PUSH2 0x177 SWAP2 SWAP1 PUSH2 0xEF3 JUMP JUMPDEST PUSH1 0x40 MLOAD DUP1 SWAP2 SUB SWAP1 RETURN JUMPDEST PUSH2 0x19A PUSH1 0x4 DUP1 CALLDATASIZE SUB DUP2 ADD SWAP1 PUSH2 0x195 SWAP2 SWAP1 PUSH2 0xB9D JUMP JUMPDEST PUSH2 0x516 JUMP JUMPDEST PUSH1 0x40 MLOAD PUSH2 0x1A7 SWAP2 SWAP1 PUSH2 0xEF3 JUMP JUMPDEST PUSH1 0x40 MLOAD DUP1 SWAP2 SUB SWAP1 RETURN JUMPDEST PUSH2 0x1CA PUSH1 0x4 DUP1 CALLDATASIZE SUB DUP2 ADD SWAP1 PUSH2 0x1C5 SWAP2 SWAP1 PUSH2 0xCFA JUMP JUMPDEST PUSH2 0x52E JUMP JUMPDEST PUSH1 0x40 MLOAD PUSH2 0x1D7 SWAP2 SWAP1 PUSH2 0xE91 JUMP JUMPDEST PUSH1 0x40 MLOAD DUP1 SWAP2 SUB SWAP1 RETURN JUMPDEST PUSH2 0x1FA PUSH1 0x4 DUP1 CALLDATASIZE SUB DUP2 ADD SWAP1 PUSH2 0x1F5 SWAP2 SWAP1 PUSH2 0xCFA JUMP JUMPDEST PUSH2 0x5DA JUMP JUMPDEST PUSH1 0x40 MLOAD PUSH2 0x207 SWAP2 SWAP1 PUSH2 0xE91 JUMP JUMPDEST PUSH1 0x40 MLOAD DUP1 SWAP2 SUB SWAP1 RETURN JUMPDEST PUSH2 0x218 PUSH2 0x686 JUMP JUMPDEST PUSH1 0x40 MLOAD PUSH2 0x225 SWAP2 SWAP1 PUSH2 0xE76 JUMP JUMPDEST PUSH1 0x40 MLOAD DUP1 SWAP2 SUB SWAP1 RETURN JUMPDEST PUSH2 0x248 PUSH1 0x4 DUP1 CALLDATASIZE SUB DUP2 ADD SWAP1 PUSH2 0x243 SWAP2 SWAP1 PUSH2 0xBCA JUMP JUMPDEST PUSH2 0x699 JUMP JUMPDEST PUSH1 0x40 MLOAD PUSH2 0x255 SWAP2 SWAP1 PUSH2 0xEF3 JUMP JUMPDEST PUSH1 0x40 MLOAD DUP1 SWAP2 SUB SWAP1 RETURN JUMPDEST PUSH2 0x266 PUSH2 0x6C7 JUMP JUMPDEST PUSH1 0x40 MLOAD PUSH2 0x273 SWAP2 SWAP1 PUSH2 0xEF3 JUMP JUMPDEST PUSH1 0x40 MLOAD DUP1 SWAP2 SUB SWAP1 RETURN JUMPDEST PUSH2 0x296 PUSH1 0x4 DUP1 CALLDATASIZE SUB DUP2 ADD SWAP1 PUSH2 0x291 SWAP2 SWAP1 PUSH2 0xD27 JUMP JUMPDEST PUSH2 0x6DD JUMP JUMPDEST PUSH1 0x40 MLOAD PUSH2 0x2A3 SWAP2 SWAP1 PUSH2 0xEF3 JUMP JUMPDEST PUSH1 0x40 MLOAD DUP1 SWAP2 SUB SWAP1 RETURN JUMPDEST PUSH2 0x2B4 PUSH2 0x78B JUMP JUMPDEST PUSH1 0x40 MLOAD PUSH2 0x2C1 SWAP2 SWAP1 PUSH2 0xE5B JUMP JUMPDEST PUSH1 0x40 MLOAD DUP1 SWAP2 SUB SWAP1 RETURN JUMPDEST PUSH2 0x2E4 PUSH1 0x4 DUP1 CALLDATASIZE SUB DUP2 ADD SWAP1 PUSH2 0x2DF SWAP2 SWAP1 PUSH2 0xBCA JUMP JUMPDEST PUSH2 0x7B1 JUMP JUMPDEST PUSH1 0x40 MLOAD PUSH2 0x2F1 SWAP2 SWAP1 PUSH2 0xEF3 JUMP JUMPDEST PUSH1 0x40 MLOAD DUP1 SWAP2 SUB SWAP1 RETURN JUMPDEST PUSH2 0x302 PUSH2 0x7DF JUMP JUMPDEST PUSH1 0x40 MLOAD PUSH2 0x30F SWAP2 SWAP1 PUSH2 0xEF3 JUMP JUMPDEST PUSH1 0x40 MLOAD DUP1 SWAP2 SUB SWAP1 RETURN JUMPDEST PUSH2 0x332 PUSH1 0x4 DUP1 CALLDATASIZE SUB DUP2 ADD SWAP1 PUSH2 0x32D SWAP2 SWAP1 PUSH2 0xC8B JUMP JUMPDEST PUSH2 0x7E5 JUMP JUMPDEST STOP JUMPDEST PUSH2 0x34E PUSH1 0x4 DUP1 CALLDATASIZE SUB DUP2 ADD SWAP1 PUSH2 0x349 SWAP2 SWAP1 PUSH2 0xBCA JUMP JUMPDEST PUSH2 0x8D9 JUMP JUMPDEST STOP JUMPDEST PUSH2 0x358 PUSH2 0x918 JUMP JUMPDEST PUSH1 0x40 MLOAD PUSH2 0x365 SWAP2 SWAP1 PUSH2 0xE76 JUMP JUMPDEST PUSH1 0x40 MLOAD DUP1 SWAP2 SUB SWAP1 RETURN JUMPDEST PUSH2 0x388 PUSH1 0x4 DUP1 CALLDATASIZE SUB DUP2 ADD SWAP1 PUSH2 0x383 SWAP2 SWAP1 PUSH2 0xC13 JUMP JUMPDEST PUSH2 0x92F JUMP JUMPDEST PUSH1 0x40 MLOAD PUSH2 0x395 SWAP2 SWAP1 PUSH2 0xE91 JUMP JUMPDEST PUSH1 0x40 MLOAD DUP1 SWAP2 SUB SWAP1 RETURN JUMPDEST PUSH2 0x3B8 PUSH1 0x4 DUP1 CALLDATASIZE SUB DUP2 ADD SWAP1 PUSH2 0x3B3 SWAP2 SWAP1 PUSH2 0xCFA JUMP JUMPDEST PUSH2 0xA08 JUMP JUMPDEST PUSH1 0x40 MLOAD PUSH2 0x3C5 SWAP2 SWAP1 PUSH2 0xEF3 JUMP JUMPDEST PUSH1 0x40 MLOAD DUP1 SWAP2 SUB SWAP1 RETURN JUMPDEST PUSH2 0x3E8 PUSH1 0x4 DUP1 CALLDATASIZE SUB DUP2 ADD SWAP1 PUSH2 0x3E3 SWAP2 SWAP1 PUSH2 0xBCA JUMP JUMPDEST PUSH2 0xA2A JUMP JUMPDEST PUSH1 0x40 MLOAD PUSH2 0x3F5 SWAP2 SWAP1 PUSH2 0xE76 JUMP JUMPDEST PUSH1 0x40 MLOAD DUP1 SWAP2 SUB SWAP1 RETURN JUMPDEST PUSH1 0x1 DUP1 SLOAD PUSH2 0x40B SWAP1 PUSH2 0x109F JUMP JUMPDEST DUP1 PUSH1 0x1F ADD PUSH1 0x20 DUP1 SWAP2 DIV MUL PUSH1 0x20 ADD PUSH1 0x40 MLOAD SWAP1 DUP2 ADD PUSH1 0x40 MSTORE DUP1 SWAP3 SWAP2 SWAP1 DUP2 DUP2 MSTORE PUSH1 0x20 ADD DUP3 DUP1 SLOAD PUSH2 0x437 SWAP1 PUSH2 0x109F JUMP JUMPDEST DUP1 ISZERO PUSH2 0x484 JUMPI DUP1 PUSH1 0x1F LT PUSH2 0x459 JUMPI PUSH2 0x100 DUP1 DUP4 SLOAD DIV MUL DUP4 MSTORE SWAP2 PUSH1 0x20 ADD SWAP2 PUSH2 0x484 JUMP JUMPDEST DUP3 ADD SWAP2 SWAP1 PUSH1 0x0 MSTORE PUSH1 0x20 PUSH1 0x0 KECCAK256 SWAP1 JUMPDEST DUP2 SLOAD DUP2 MSTORE SWAP1 PUSH1 0x1 ADD SWAP1 PUSH1 0x20 ADD DUP1 DUP4 GT PUSH2 0x467 JUMPI DUP3 SWAP1 SUB PUSH1 0x1F AND DUP3 ADD SWAP2 JUMPDEST POP POP POP POP POP DUP2 JUMP JUMPDEST PUSH1 0x0 PUSH1 0x8 PUSH1 0x0 SWAP1 SLOAD SWAP1 PUSH2 0x100 EXP SWAP1 DIV PUSH20 0xFFFFFFFFFFFFFFFFFFFFFFFFFFFFFFFFFFFFFFFF AND PUSH20 0xFFFFFFFFFFFFFFFFFFFFFFFFFFFFFFFFFFFFFFFF AND CALLER PUSH20 0xFFFFFFFFFFFFFFFFFFFFFFFFFFFFFFFFFFFFFFFF AND EQ PUSH2 0x4E8 JUMPI PUSH1 0x0 DUP1 REVERT JUMPDEST PUSH1 0x6 PUSH1 0x0 SWAP1 SLOAD SWAP1 PUSH2 0x100 EXP SWAP1 DIV PUSH20 0xFFFFFFFFFFFFFFFFFFFFFFFFFFFFFFFFFFFFFFFF AND SWAP1 POP SWAP1 JUMP JUMPDEST PUSH1 0x2 SLOAD DUP2 JUMP JUMPDEST PUSH1 0xC PUSH1 0x20 MSTORE DUP1 PUSH1 0x0 MSTORE PUSH1 0x40 PUSH1 0x0 KECCAK256 PUSH1 0x0 SWAP2 POP SWAP1 POP SLOAD DUP2 JUMP JUMPDEST PUSH1 0x7 DUP2 DUP2 SLOAD DUP2 LT PUSH2 0x53E JUMPI PUSH1 0x0 DUP1 REVERT JUMPDEST SWAP1 PUSH1 0x0 MSTORE PUSH1 0x20 PUSH1 0x0 KECCAK256 ADD PUSH1 0x0 SWAP2 POP SWAP1 POP DUP1 SLOAD PUSH2 0x559 SWAP1 PUSH2 0x109F JUMP JUMPDEST DUP1 PUSH1 0x1F ADD PUSH1 0x20 DUP1 SWAP2 DIV MUL PUSH1 0x20 ADD PUSH1 0x40 MLOAD SWAP1 DUP2 ADD PUSH1 0x40 MSTORE DUP1 SWAP3 SWAP2 SWAP1 DUP2 DUP2 MSTORE PUSH1 0x20 ADD DUP3 DUP1 SLOAD PUSH2 0x585 SWAP1 PUSH2 0x109F JUMP JUMPDEST DUP1 ISZERO PUSH2 0x5D2 JUMPI DUP1 PUSH1 0x1F LT PUSH2 0x5A7 JUMPI PUSH2 0x100 DUP1 DUP4 SLOAD DIV MUL DUP4 MSTORE SWAP2 PUSH1 0x20 ADD SWAP2 PUSH2 0x5D2 JUMP JUMPDEST DUP3 ADD SWAP2 SWAP1 PUSH1 0x0 MSTORE PUSH1 0x20 PUSH1 0x0 KECCAK256 SWAP1 JUMPDEST DUP2 SLOAD DUP2 MSTORE SWAP1 PUSH1 0x1 ADD SWAP1 PUSH1 0x20 ADD DUP1 DUP4 GT PUSH2 0x5B5 JUMPI DUP3 SWAP1 SUB PUSH1 0x1F AND DUP3 ADD SWAP2 JUMPDEST POP POP POP POP POP DUP2 JUMP JUMPDEST PUSH1 0x5 DUP2 DUP2 SLOAD DUP2 LT PUSH2 0x5EA JUMPI PUSH1 0x0 DUP1 REVERT JUMPDEST SWAP1 PUSH1 0x0 MSTORE PUSH1 0x20 PUSH1 0x0 KECCAK256 ADD PUSH1 0x0 SWAP2 POP SWAP1 POP DUP1 SLOAD PUSH2 0x605 SWAP1 PUSH2 0x109F JUMP JUMPDEST DUP1 PUSH1 0x1F ADD PUSH1 0x20 DUP1 SWAP2 DIV MUL PUSH1 0x20 ADD PUSH1 0x40 MLOAD SWAP1 DUP2 ADD PUSH1 0x40 MSTORE DUP1 SWAP3 SWAP2 SWAP1 DUP2 DUP2 MSTORE PUSH1 0x20 ADD DUP3 DUP1 SLOAD PUSH2 0x631 SWAP1 PUSH2 0x109F JUMP JUMPDEST DUP1 ISZERO PUSH2 0x67E JUMPI DUP1 PUSH1 0x1F LT PUSH2 0x653 JUMPI PUSH2 0x100 DUP1 DUP4 SLOAD DIV MUL DUP4 MSTORE SWAP2 PUSH1 0x20 ADD SWAP2 PUSH2 0x67E JUMP JUMPDEST DUP3 ADD SWAP2 SWAP1 PUSH1 0x0 MSTORE PUSH1 0x20 PUSH1 0x0 KECCAK256 SWAP1 JUMPDEST DUP2 SLOAD DUP2 MSTORE SWAP1 PUSH1 0x1 ADD SWAP1 PUSH1 0x20 ADD DUP1 DUP4 GT PUSH2 0x661 JUMPI DUP3 SWAP1 SUB PUSH1 0x1F AND DUP3 ADD SWAP2 JUMPDEST POP POP POP POP POP DUP2 JUMP JUMPDEST PUSH1 0x3 PUSH1 0x0 SWAP1 SLOAD SWAP1 PUSH2 0x100 EXP SWAP1 DIV PUSH1 0xFF AND DUP2 JUMP JUMPDEST PUSH1 0x9 DUP2 DUP1 MLOAD PUSH1 0x20 DUP2 ADD DUP3 ADD DUP1 MLOAD DUP5 DUP3 MSTORE PUSH1 0x20 DUP4 ADD PUSH1 0x20 DUP6 ADD KECCAK256 DUP2 DUP4 MSTORE DUP1 SWAP6 POP POP POP POP POP POP PUSH1 0x0 SWAP2 POP SWAP1 POP SLOAD DUP2 JUMP JUMPDEST PUSH1 0x0 PUSH1 0x1 PUSH1 0x0 SLOAD PUSH2 0x6D8 SWAP2 SWAP1 PUSH2 0xF8B JUMP JUMPDEST SWAP1 POP SWAP1 JUMP JUMPDEST PUSH1 0x0 DUP3 PUSH1 0x4 SLOAD GT PUSH2 0x723 JUMPI PUSH1 0x40 MLOAD PUSH32 0x8C379A000000000000000000000000000000000000000000000000000000000 DUP2 MSTORE PUSH1 0x4 ADD PUSH2 0x71A SWAP1 PUSH2 0xED3 JUMP JUMPDEST PUSH1 0x40 MLOAD DUP1 SWAP2 SUB SWAP1 REVERT JUMPDEST DUP3 PUSH1 0x4 PUSH1 0x0 DUP3 DUP3 SLOAD PUSH2 0x735 SWAP2 SWAP1 PUSH2 0xFE1 JUMP JUMPDEST SWAP3 POP POP DUP2 SWAP1 SSTORE POP DUP3 PUSH1 0xC PUSH1 0x0 DUP5 PUSH20 0xFFFFFFFFFFFFFFFFFFFFFFFFFFFFFFFFFFFFFFFF AND PUSH20 0xFFFFFFFFFFFFFFFFFFFFFFFFFFFFFFFFFFFFFFFF AND DUP2 MSTORE PUSH1 0x20 ADD SWAP1 DUP2 MSTORE PUSH1 0x20 ADD PUSH1 0x0 KECCAK256 DUP2 SWAP1 SSTORE POP PUSH1 0x4 SLOAD SWAP1 POP SWAP3 SWAP2 POP POP JUMP JUMPDEST PUSH1 0x8 PUSH1 0x0 SWAP1 SLOAD SWAP1 PUSH2 0x100 EXP SWAP1 DIV PUSH20 0xFFFFFFFFFFFFFFFFFFFFFFFFFFFFFFFFFFFFFFFF AND DUP2 JUMP JUMPDEST PUSH1 0xB DUP2 DUP1 MLOAD PUSH1 0x20 DUP2 ADD DUP3 ADD DUP1 MLOAD DUP5 DUP3 MSTORE PUSH1 0x20 DUP4 ADD PUSH1 0x20 DUP6 ADD KECCAK256 DUP2 DUP4 MSTORE DUP1 SWAP6 POP POP POP POP POP POP PUSH1 0x0 SWAP2 POP SWAP1 POP SLOAD DUP2 JUMP JUMPDEST PUSH1 0x4 SLOAD DUP2 JUMP JUMPDEST PUSH1 0x0 ISZERO ISZERO PUSH1 0xA DUP5 PUSH1 0x40 MLOAD PUSH2 0x7F9 SWAP2 SWAP1 PUSH2 0xE44 JUMP JUMPDEST SWAP1 DUP2 MSTORE PUSH1 0x20 ADD PUSH1 0x40 MLOAD DUP1 SWAP2 SUB SWAP1 KECCAK256 PUSH1 0x0 SWAP1 SLOAD SWAP1 PUSH2 0x100 EXP SWAP1 DIV PUSH1 0xFF AND ISZERO ISZERO EQ PUSH2 0x857 JUMPI PUSH1 0x40 MLOAD PUSH32 0x8C379A000000000000000000000000000000000000000000000000000000000 DUP2 MSTORE PUSH1 0x4 ADD PUSH2 0x84E SWAP1 PUSH2 0xEB3 JUMP JUMPDEST PUSH1 0x40 MLOAD DUP1 SWAP2 SUB SWAP1 REVERT JUMPDEST DUP2 PUSH1 0x9 DUP5 PUSH1 0x40 MLOAD PUSH2 0x868 SWAP2 SWAP1 PUSH2 0xE44 JUMP JUMPDEST SWAP1 DUP2 MSTORE PUSH1 0x20 ADD PUSH1 0x40 MLOAD DUP1 SWAP2 SUB SWAP1 KECCAK256 DUP2 SWAP1 SSTORE POP DUP1 PUSH1 0xB DUP5 PUSH1 0x40 MLOAD PUSH2 0x88B SWAP2 SWAP1 PUSH2 0xE44 JUMP JUMPDEST SWAP1 DUP2 MSTORE PUSH1 0x20 ADD PUSH1 0x40 MLOAD DUP1 SWAP2 SUB SWAP1 KECCAK256 DUP2 SWAP1 SSTORE POP PUSH1 0x1 PUSH1 0xA DUP5 PUSH1 0x40 MLOAD PUSH2 0x8AF SWAP2 SWAP1 PUSH2 0xE44 JUMP JUMPDEST SWAP1 DUP2 MSTORE PUSH1 0x20 ADD PUSH1 0x40 MLOAD DUP1 SWAP2 SUB SWAP1 KECCAK256 PUSH1 0x0 PUSH2 0x100 EXP DUP2 SLOAD DUP2 PUSH1 0xFF MUL NOT AND SWAP1 DUP4 ISZERO ISZERO MUL OR SWAP1 SSTORE POP POP POP POP JUMP JUMPDEST PUSH1 0x7 DUP2 SWAP1 DUP1 PUSH1 0x1 DUP2 SLOAD ADD DUP1 DUP3 SSTORE DUP1 SWAP2 POP POP PUSH1 0x1 SWAP1 SUB SWAP1 PUSH1 0x0 MSTORE PUSH1 0x20 PUSH1 0x0 KECCAK256 ADD PUSH1 0x0 SWAP1 SWAP2 SWAP1 SWAP2 SWAP1 SWAP2 POP SWAP1 DUP1 MLOAD SWAP1 PUSH1 0x20 ADD SWAP1 PUSH2 0x914 SWAP3 SWAP2 SWAP1 PUSH2 0xA60 JUMP JUMPDEST POP POP JUMP JUMPDEST PUSH1 0x0 PUSH1 0x3 PUSH1 0x0 SWAP1 SLOAD SWAP1 PUSH2 0x100 EXP SWAP1 DIV PUSH1 0xFF AND SWAP1 POP SWAP1 JUMP JUMPDEST PUSH1 0x60 PUSH1 0xB DUP3 PUSH1 0x40 MLOAD PUSH2 0x941 SWAP2 SWAP1 PUSH2 0xE44 JUMP JUMPDEST SWAP1 DUP2 MSTORE PUSH1 0x20 ADD PUSH1 0x40 MLOAD DUP1 SWAP2 SUB SWAP1 KECCAK256 SLOAD PUSH1 0xB DUP5 PUSH1 0x40 MLOAD PUSH2 0x960 SWAP2 SWAP1 PUSH2 0xE44 JUMP JUMPDEST SWAP1 DUP2 MSTORE PUSH1 0x20 ADD PUSH1 0x40 MLOAD DUP1 SWAP2 SUB SWAP1 KECCAK256 SLOAD LT ISZERO PUSH2 0x97D JUMPI DUP2 SWAP1 POP PUSH2 0xA02 JUMP JUMPDEST PUSH1 0xB DUP3 PUSH1 0x40 MLOAD PUSH2 0x98D SWAP2 SWAP1 PUSH2 0xE44 JUMP JUMPDEST SWAP1 DUP2 MSTORE PUSH1 0x20 ADD PUSH1 0x40 MLOAD DUP1 SWAP2 SUB SWAP1 KECCAK256 SLOAD PUSH1 0xB DUP5 PUSH1 0x40 MLOAD PUSH2 0x9AC SWAP2 SWAP1 PUSH2 0xE44 JUMP JUMPDEST SWAP1 DUP2 MSTORE PUSH1 0x20 ADD PUSH1 0x40 MLOAD DUP1 SWAP2 SUB SWAP1 KECCAK256 SLOAD GT ISZERO PUSH2 0x9C9 JUMPI DUP3 SWAP1 POP PUSH2 0xA02 JUMP JUMPDEST PUSH1 0x40 MLOAD DUP1 PUSH1 0x40 ADD PUSH1 0x40 MSTORE DUP1 PUSH1 0x2 DUP2 MSTORE PUSH1 0x20 ADD PUSH32 0x6E6F000000000000000000000000000000000000000000000000000000000000 DUP2 MSTORE POP SWAP1 POP JUMPDEST SWAP3 SWAP2 POP POP JUMP JUMPDEST PUSH1 0x0 DUP1 DUP3 SWAP1 POP PUSH1 0x0 DUP2 PUSH1 0x0 SLOAD PUSH2 0xA1E SWAP2 SWAP1 PUSH2 0xF8B JUMP JUMPDEST SWAP1 POP DUP1 SWAP3 POP POP POP SWAP2 SWAP1 POP JUMP JUMPDEST PUSH1 0xA DUP2 DUP1 MLOAD PUSH1 0x20 DUP2 ADD DUP3 ADD DUP1 MLOAD DUP5 DUP3 MSTORE PUSH1 0x20 DUP4 ADD PUSH1 0x20 DUP6 ADD KECCAK256 DUP2 DUP4 MSTORE DUP1 SWAP6 POP POP POP POP POP POP PUSH1 0x0 SWAP2 POP SLOAD SWAP1 PUSH2 0x100 EXP SWAP1 DIV PUSH1 0xFF AND DUP2 JUMP JUMPDEST DUP3 DUP1 SLOAD PUSH2 0xA6C SWAP1 PUSH2 0x109F JUMP JUMPDEST SWAP1 PUSH1 0x0 MSTORE PUSH1 0x20 PUSH1 0x0 KECCAK256 SWAP1 PUSH1 0x1F ADD PUSH1 0x20 SWAP1 DIV DUP2 ADD SWAP3 DUP3 PUSH2 0xA8E JUMPI PUSH1 0x0 DUP6 SSTORE PUSH2 0xAD5 JUMP JUMPDEST DUP3 PUSH1 0x1F LT PUSH2 0xAA7 JUMPI DUP1 MLOAD PUSH1 0xFF NOT AND DUP4 DUP1 ADD OR DUP6 SSTORE PUSH2 0xAD5 JUMP JUMPDEST DUP3 DUP1 ADD PUSH1 0x1 ADD DUP6 SSTORE DUP3 ISZERO PUSH2 0xAD5 JUMPI SWAP2 DUP3 ADD JUMPDEST DUP3 DUP2 GT ISZERO PUSH2 0xAD4 JUMPI DUP3 MLOAD DUP3 SSTORE SWAP2 PUSH1 0x20 ADD SWAP2 SWAP1 PUSH1 0x1 ADD SWAP1 PUSH2 0xAB9 JUMP JUMPDEST JUMPDEST POP SWAP1 POP PUSH2 0xAE2 SWAP2 SWAP1 PUSH2 0xAE6 JUMP JUMPDEST POP SWAP1 JUMP JUMPDEST JUMPDEST DUP1 DUP3 GT ISZERO PUSH2 0xAFF JUMPI PUSH1 0x0 DUP2 PUSH1 0x0 SWAP1 SSTORE POP PUSH1 0x1 ADD PUSH2 0xAE7 JUMP JUMPDEST POP SWAP1 JUMP JUMPDEST PUSH1 0x0 PUSH2 0xB16 PUSH2 0xB11 DUP5 PUSH2 0xF33 JUMP JUMPDEST PUSH2 0xF0E JUMP JUMPDEST SWAP1 POP DUP3 DUP2 MSTORE PUSH1 0x20 DUP2 ADD DUP5 DUP5 DUP5 ADD GT ISZERO PUSH2 0xB32 JUMPI PUSH2 0xB31 PUSH2 0x1194 JUMP JUMPDEST JUMPDEST PUSH2 0xB3D DUP5 DUP3 DUP6 PUSH2 0x105D JUMP JUMPDEST POP SWAP4 SWAP3 POP POP POP JUMP JUMPDEST PUSH1 0x0 DUP2 CALLDATALOAD SWAP1 POP PUSH2 0xB54 DUP2 PUSH2 0x1206 JUMP JUMPDEST SWAP3 SWAP2 POP POP JUMP JUMPDEST PUSH1 0x0 DUP3 PUSH1 0x1F DUP4 ADD SLT PUSH2 0xB6F JUMPI PUSH2 0xB6E PUSH2 0x118F JUMP JUMPDEST JUMPDEST DUP2 CALLDATALOAD PUSH2 0xB7F DUP5 DUP3 PUSH1 0x20 DUP7 ADD PUSH2 0xB03 JUMP JUMPDEST SWAP2 POP POP SWAP3 SWAP2 POP POP JUMP JUMPDEST PUSH1 0x0 DUP2 CALLDATALOAD SWAP1 POP PUSH2 0xB97 DUP2 PUSH2 0x121D JUMP JUMPDEST SWAP3 SWAP2 POP POP JUMP JUMPDEST PUSH1 0x0 PUSH1 0x20 DUP3 DUP5 SUB SLT ISZERO PUSH2 0xBB3 JUMPI PUSH2 0xBB2 PUSH2 0x119E JUMP JUMPDEST JUMPDEST PUSH1 0x0 PUSH2 0xBC1 DUP5 DUP3 DUP6 ADD PUSH2 0xB45 JUMP JUMPDEST SWAP2 POP POP SWAP3 SWAP2 POP POP JUMP JUMPDEST PUSH1 0x0 PUSH1 0x20 DUP3 DUP5 SUB SLT ISZERO PUSH2 0xBE0 JUMPI PUSH2 0xBDF PUSH2 0x119E JUMP JUMPDEST JUMPDEST PUSH1 0x0 DUP3 ADD CALLDATALOAD PUSH8 0xFFFFFFFFFFFFFFFF DUP2 GT ISZERO PUSH2 0xBFE JUMPI PUSH2 0xBFD PUSH2 0x1199 JUMP JUMPDEST JUMPDEST PUSH2 0xC0A DUP5 DUP3 DUP6 ADD PUSH2 0xB5A JUMP JUMPDEST SWAP2 POP POP SWAP3 SWAP2 POP POP JUMP JUMPDEST PUSH1 0x0 DUP1 PUSH1 0x40 DUP4 DUP6 SUB SLT ISZERO PUSH2 0xC2A JUMPI PUSH2 0xC29 PUSH2 0x119E JUMP JUMPDEST JUMPDEST PUSH1 0x0 DUP4 ADD CALLDATALOAD PUSH8 0xFFFFFFFFFFFFFFFF DUP2 GT ISZERO PUSH2 0xC48 JUMPI PUSH2 0xC47 PUSH2 0x1199 JUMP JUMPDEST JUMPDEST PUSH2 0xC54 DUP6 DUP3 DUP7 ADD PUSH2 0xB5A JUMP JUMPDEST SWAP3 POP POP PUSH1 0x20 DUP4 ADD CALLDATALOAD PUSH8 0xFFFFFFFFFFFFFFFF DUP2 GT ISZERO PUSH2 0xC75 JUMPI PUSH2 0xC74 PUSH2 0x1199 JUMP JUMPDEST JUMPDEST PUSH2 0xC81 DUP6 DUP3 DUP7 ADD PUSH2 0xB5A JUMP JUMPDEST SWAP2 POP POP SWAP3 POP SWAP3 SWAP1 POP JUMP JUMPDEST PUSH1 0x0 DUP1 PUSH1 0x0 PUSH1 0x60 DUP5 DUP7 SUB SLT ISZERO PUSH2 0xCA4 JUMPI PUSH2 0xCA3 PUSH2 0x119E JUMP JUMPDEST JUMPDEST PUSH1 0x0 DUP5 ADD CALLDATALOAD PUSH8 0xFFFFFFFFFFFFFFFF DUP2 GT ISZERO PUSH2 0xCC2 JUMPI PUSH2 0xCC1 PUSH2 0x1199 JUMP JUMPDEST JUMPDEST PUSH2 0xCCE DUP7 DUP3 DUP8 ADD PUSH2 0xB5A JUMP JUMPDEST SWAP4 POP POP PUSH1 0x20 PUSH2 0xCDF DUP7 DUP3 DUP8 ADD PUSH2 0xB88 JUMP JUMPDEST SWAP3 POP POP PUSH1 0x40 PUSH2 0xCF0 DUP7 DUP3 DUP8 ADD PUSH2 0xB88 JUMP JUMPDEST SWAP2 POP POP SWAP3 POP SWAP3 POP SWAP3 JUMP JUMPDEST PUSH1 0x0 PUSH1 0x20 DUP3 DUP5 SUB SLT ISZERO PUSH2 0xD10 JUMPI PUSH2 0xD0F PUSH2 0x119E JUMP JUMPDEST JUMPDEST PUSH1 0x0 PUSH2 0xD1E DUP5 DUP3 DUP6 ADD PUSH2 0xB88 JUMP JUMPDEST SWAP2 POP POP SWAP3 SWAP2 POP POP JUMP JUMPDEST PUSH1 0x0 DUP1 PUSH1 0x40 DUP4 DUP6 SUB SLT ISZERO PUSH2 0xD3E JUMPI PUSH2 0xD3D PUSH2 0x119E JUMP JUMPDEST JUMPDEST PUSH1 0x0 PUSH2 0xD4C DUP6 DUP3 DUP7 ADD PUSH2 0xB88 JUMP JUMPDEST SWAP3 POP POP PUSH1 0x20 PUSH2 0xD5D DUP6 DUP3 DUP7 ADD PUSH2 0xB45 JUMP JUMPDEST SWAP2 POP POP SWAP3 POP SWAP3 SWAP1 POP JUMP JUMPDEST PUSH2 0xD70 DUP2 PUSH2 0x1015 JUMP JUMPDEST DUP3 MSTORE POP POP JUMP JUMPDEST PUSH2 0xD7F DUP2 PUSH2 0x1027 JUMP JUMPDEST DUP3 MSTORE POP POP JUMP JUMPDEST PUSH1 0x0 PUSH2 0xD90 DUP3 PUSH2 0xF64 JUMP JUMPDEST PUSH2 0xD9A DUP2 DUP6 PUSH2 0xF6F JUMP JUMPDEST SWAP4 POP PUSH2 0xDAA DUP2 DUP6 PUSH1 0x20 DUP7 ADD PUSH2 0x106C JUMP JUMPDEST PUSH2 0xDB3 DUP2 PUSH2 0x11A3 JUMP JUMPDEST DUP5 ADD SWAP2 POP POP SWAP3 SWAP2 POP POP JUMP JUMPDEST PUSH1 0x0 PUSH2 0xDC9 DUP3 PUSH2 0xF64 JUMP JUMPDEST PUSH2 0xDD3 DUP2 DUP6 PUSH2 0xF80 JUMP JUMPDEST SWAP4 POP PUSH2 0xDE3 DUP2 DUP6 PUSH1 0x20 DUP7 ADD PUSH2 0x106C JUMP JUMPDEST DUP1 DUP5 ADD SWAP2 POP POP SWAP3 SWAP2 POP POP JUMP JUMPDEST PUSH1 0x0 PUSH2 0xDFC PUSH1 0x19 DUP4 PUSH2 0xF6F JUMP JUMPDEST SWAP2 POP PUSH2 0xE07 DUP3 PUSH2 0x11B4 JUMP JUMPDEST PUSH1 0x20 DUP3 ADD SWAP1 POP SWAP2 SWAP1 POP JUMP JUMPDEST PUSH1 0x0 PUSH2 0xE1F PUSH1 0x11 DUP4 PUSH2 0xF6F JUMP JUMPDEST SWAP2 POP PUSH2 0xE2A DUP3 PUSH2 0x11DD JUMP JUMPDEST PUSH1 0x20 DUP3 ADD SWAP1 POP SWAP2 SWAP1 POP JUMP JUMPDEST PUSH2 0xE3E DUP2 PUSH2 0x1053 JUMP JUMPDEST DUP3 MSTORE POP POP JUMP JUMPDEST PUSH1 0x0 PUSH2 0xE50 DUP3 DUP5 PUSH2 0xDBE JUMP JUMPDEST SWAP2 POP DUP2 SWAP1 POP SWAP3 SWAP2 POP POP JUMP JUMPDEST PUSH1 0x0 PUSH1 0x20 DUP3 ADD SWAP1 POP PUSH2 0xE70 PUSH1 0x0 DUP4 ADD DUP5 PUSH2 0xD67 JUMP JUMPDEST SWAP3 SWAP2 POP POP JUMP JUMPDEST PUSH1 0x0 PUSH1 0x20 DUP3 ADD SWAP1 POP PUSH2 0xE8B PUSH1 0x0 DUP4 ADD DUP5 PUSH2 0xD76 JUMP JUMPDEST SWAP3 SWAP2 POP POP JUMP JUMPDEST PUSH1 0x0 PUSH1 0x20 DUP3 ADD SWAP1 POP DUP2 DUP2 SUB PUSH1 0x0 DUP4 ADD MSTORE PUSH2 0xEAB DUP2 DUP5 PUSH2 0xD85 JUMP JUMPDEST SWAP1 POP SWAP3 SWAP2 POP POP JUMP JUMPDEST PUSH1 0x0 PUSH1 0x20 DUP3 ADD SWAP1 POP DUP2 DUP2 SUB PUSH1 0x0 DUP4 ADD MSTORE PUSH2 0xECC DUP2 PUSH2 0xDEF JUMP JUMPDEST SWAP1 POP SWAP2 SWAP1 POP JUMP JUMPDEST PUSH1 0x0 PUSH1 0x20 DUP3 ADD SWAP1 POP DUP2 DUP2 SUB PUSH1 0x0 DUP4 ADD MSTORE PUSH2 0xEEC DUP2 PUSH2 0xE12 JUMP JUMPDEST SWAP1 POP SWAP2 SWAP1 POP JUMP JUMPDEST PUSH1 0x0 PUSH1 0x20 DUP3 ADD SWAP1 POP PUSH2 0xF08 PUSH1 0x0 DUP4 ADD DUP5 PUSH2 0xE35 JUMP JUMPDEST SWAP3 SWAP2 POP POP JUMP JUMPDEST PUSH1 0x0 PUSH2 0xF18 PUSH2 0xF29 JUMP JUMPDEST SWAP1 POP PUSH2 0xF24 DUP3 DUP3 PUSH2 0x10D1 JUMP JUMPDEST SWAP2 SWAP1 POP JUMP JUMPDEST PUSH1 0x0 PUSH1 0x40 MLOAD SWAP1 POP SWAP1 JUMP JUMPDEST PUSH1 0x0 PUSH8 0xFFFFFFFFFFFFFFFF DUP3 GT ISZERO PUSH2 0xF4E JUMPI PUSH2 0xF4D PUSH2 0x1160 JUMP JUMPDEST JUMPDEST PUSH2 0xF57 DUP3 PUSH2 0x11A3 JUMP JUMPDEST SWAP1 POP PUSH1 0x20 DUP2 ADD SWAP1 POP SWAP2 SWAP1 POP JUMP JUMPDEST PUSH1 0x0 DUP2 MLOAD SWAP1 POP SWAP2 SWAP1 POP JUMP JUMPDEST PUSH1 0x0 DUP3 DUP3 MSTORE PUSH1 0x20 DUP3 ADD SWAP1 POP SWAP3 SWAP2 POP POP JUMP JUMPDEST PUSH1 0x0 DUP2 SWAP1 POP SWAP3 SWAP2 POP POP JUMP JUMPDEST PUSH1 0x0 PUSH2 0xF96 DUP3 PUSH2 0x1053 JUMP JUMPDEST SWAP2 POP PUSH2 0xFA1 DUP4 PUSH2 0x1053 JUMP JUMPDEST SWAP3 POP DUP3 PUSH32 0xFFFFFFFFFFFFFFFFFFFFFFFFFFFFFFFFFFFFFFFFFFFFFFFFFFFFFFFFFFFFFFFF SUB DUP3 GT ISZERO PUSH2 0xFD6 JUMPI PUSH2 0xFD5 PUSH2 0x1102 JUMP JUMPDEST JUMPDEST DUP3 DUP3 ADD SWAP1 POP SWAP3 SWAP2 POP POP JUMP JUMPDEST PUSH1 0x0 PUSH2 0xFEC DUP3 PUSH2 0x1053 JUMP JUMPDEST SWAP2 POP PUSH2 0xFF7 DUP4 PUSH2 0x1053 JUMP JUMPDEST SWAP3 POP DUP3 DUP3 LT ISZERO PUSH2 0x100A JUMPI PUSH2 0x1009 PUSH2 0x1102 JUMP JUMPDEST JUMPDEST DUP3 DUP3 SUB SWAP1 POP SWAP3 SWAP2 POP POP JUMP JUMPDEST PUSH1 0x0 PUSH2 0x1020 DUP3 PUSH2 0x1033 JUMP JUMPDEST SWAP1 POP SWAP2 SWAP1 POP JUMP JUMPDEST PUSH1 0x0 DUP2 ISZERO ISZERO SWAP1 POP SWAP2 SWAP1 POP JUMP JUMPDEST PUSH1 0x0 PUSH20 0xFFFFFFFFFFFFFFFFFFFFFFFFFFFFFFFFFFFFFFFF DUP3 AND SWAP1 POP SWAP2 SWAP1 POP JUMP JUMPDEST PUSH1 0x0 DUP2 SWAP1 POP SWAP2 SWAP1 POP JUMP JUMPDEST DUP3 DUP2 DUP4 CALLDATACOPY PUSH1 0x0 DUP4 DUP4 ADD MSTORE POP POP POP JUMP JUMPDEST PUSH1 0x0 JUMPDEST DUP4 DUP2 LT ISZERO PUSH2 0x108A JUMPI DUP1 DUP3 ADD MLOAD DUP2 DUP5 ADD MSTORE PUSH1 0x20 DUP2 ADD SWAP1 POP PUSH2 0x106F JUMP JUMPDEST DUP4 DUP2 GT ISZERO PUSH2 0x1099 JUMPI PUSH1 0x0 DUP5 DUP5 ADD MSTORE JUMPDEST POP POP POP POP JUMP JUMPDEST PUSH1 0x0 PUSH1 0x2 DUP3 DIV SWAP1 POP PUSH1 0x1 DUP3 AND DUP1 PUSH2 0x10B7 JUMPI PUSH1 0x7F DUP3 AND SWAP2 POP JUMPDEST PUSH1 0x20 DUP3 LT DUP2 EQ ISZERO PUSH2 0x10CB JUMPI PUSH2 0x10CA PUSH2 0x1131 JUMP JUMPDEST JUMPDEST POP SWAP2 SWAP1 POP JUMP JUMPDEST PUSH2 0x10DA DUP3 PUSH2 0x11A3 JUMP JUMPDEST DUP2 ADD DUP2 DUP2 LT PUSH8 0xFFFFFFFFFFFFFFFF DUP3 GT OR ISZERO PUSH2 0x10F9 JUMPI PUSH2 0x10F8 PUSH2 0x1160 JUMP JUMPDEST JUMPDEST DUP1 PUSH1 0x40 MSTORE POP POP POP JUMP JUMPDEST PUSH32 0x4E487B7100000000000000000000000000000000000000000000000000000000 PUSH1 0x0 MSTORE PUSH1 0x11 PUSH1 0x4 MSTORE PUSH1 0x24 PUSH1 0x0 REVERT JUMPDEST PUSH32 0x4E487B7100000000000000000000000000000000000000000000000000000000 PUSH1 0x0 MSTORE PUSH1 0x22 PUSH1 0x4 MSTORE PUSH1 0x24 PUSH1 0x0 REVERT JUMPDEST PUSH32 0x4E487B7100000000000000000000000000000000000000000000000000000000 PUSH1 0x0 MSTORE PUSH1 0x41 PUSH1 0x4 MSTORE PUSH1 0x24 PUSH1 0x0 REVERT JUMPDEST PUSH1 0x0 DUP1 REVERT JUMPDEST PUSH1 0x0 DUP1 REVERT JUMPDEST PUSH1 0x0 DUP1 REVERT JUMPDEST PUSH1 0x0 DUP1 REVERT JUMPDEST PUSH1 0x0 PUSH1 0x1F NOT PUSH1 0x1F DUP4 ADD AND SWAP1 POP SWAP2 SWAP1 POP JUMP JUMPDEST PUSH32 0x546F6E7920616C72656164792068617320746869732063617200000000000000 PUSH1 0x0 DUP3 ADD MSTORE POP JUMP JUMPDEST PUSH32 0x6E6F7420656E6F756768206D6F6E6E6579000000000000000000000000000000 PUSH1 0x0 DUP3 ADD MSTORE POP JUMP JUMPDEST PUSH2 0x120F DUP2 PUSH2 0x1015 JUMP JUMPDEST DUP2 EQ PUSH2 0x121A JUMPI PUSH1 0x0 DUP1 REVERT JUMPDEST POP JUMP JUMPDEST PUSH2 0x1226 DUP2 PUSH2 0x1053 JUMP JUMPDEST DUP2 EQ PUSH2 0x1231 JUMPI PUSH1 0x0 DUP1 REVERT JUMPDEST POP JUMP INVALID LOG2 PUSH5 0x6970667358 0x22 SLT KECCAK256 0xBC SAR SHL 0xD6 PUSH32 0xEB5E4ACF858A052A32483A9718848788BC1C85C77579CDB33EDD5864736F6C63 NUMBER STOP ADDMOD SMOD STOP CALLER "
				},
				"gasEstimates": {
					"creation": {
						"codeDepositCost": "942800",
						"executionCost": "infinite",
						"totalCost": "infinite"
					},
					"external": {
						"addCar(string,uint256,uint256)": "infinite",
						"age()": "2497",
						"balance()": "2518",
						"carSpeed(string)": "infinite",
						"carreer(uint256)": "infinite",
						"fasterCar(string,string)": "infinite",
						"getNumber(uint256)": "infinite",
						"getWallet()": "4738",
						"girl(uint256)": "infinite",
						"isCar(string)": "infinite",
						"isMale()": "2538",
						"isVIPSender()": "2523",
						"mileOfCar(string)": "infinite",
						"name()": "infinite",
						"owner()": "2559",
						"plusResult()": "infinite",
						"tinder(string)": "infinite",
						"tranfer(uint256,address)": "infinite",
						"txWithdrow(address)": "2904"
					}
				},
				"methodIdentifiers": {
					"addCar(string,uint256,uint256)": "c8351be0",
					"age()": "262a9dff",
					"balance()": "b69ef8a8",
					"carSpeed(string)": "aed43682",
					"carreer(uint256)": "5cd836a3",
					"fasterCar(string,string)": "f9052ce2",
					"getNumber(uint256)": "fc563658",
					"getWallet()": "13299604",
					"girl(uint256)": "449549d5",
					"isCar(string)": "fcc9e5c5",
					"isMale()": "654a573c",
					"isVIPSender()": "f72a183d",
					"mileOfCar(string)": "853320e3",
					"name()": "06fdde03",
					"owner()": "8da5cb5b",
					"plusResult()": "87e8599f",
					"tinder(string)": "cfb5843c",
					"tranfer(uint256,address)": "8b8930d3",
					"txWithdrow(address)": "2d47689c"
				}
			},
			"storageLayout": {
				"storage": [
					{
						"astId": 4,
						"contract": "contracts/basic_solidity.sol:BasicSolidity",
						"label": "global",
						"offset": 0,
						"slot": "0",
						"type": "t_uint256"
					},
					{
						"astId": 7,
						"contract": "contracts/basic_solidity.sol:BasicSolidity",
						"label": "name",
						"offset": 0,
						"slot": "1",
						"type": "t_string_storage"
					},
					{
						"astId": 10,
						"contract": "contracts/basic_solidity.sol:BasicSolidity",
						"label": "age",
						"offset": 0,
						"slot": "2",
						"type": "t_uint256"
					},
					{
						"astId": 13,
						"contract": "contracts/basic_solidity.sol:BasicSolidity",
						"label": "isMale",
						"offset": 0,
						"slot": "3",
						"type": "t_bool"
					},
					{
						"astId": 15,
						"contract": "contracts/basic_solidity.sol:BasicSolidity",
						"label": "balance",
						"offset": 0,
						"slot": "4",
						"type": "t_uint256"
					},
					{
						"astId": 22,
						"contract": "contracts/basic_solidity.sol:BasicSolidity",
						"label": "carreer",
						"offset": 0,
						"slot": "5",
						"type": "t_array(t_string_storage)dyn_storage"
					},
					{
						"astId": 24,
						"contract": "contracts/basic_solidity.sol:BasicSolidity",
						"label": "wallet",
						"offset": 0,
						"slot": "6",
						"type": "t_address"
					},
					{
						"astId": 27,
						"contract": "contracts/basic_solidity.sol:BasicSolidity",
						"label": "girl",
						"offset": 0,
						"slot": "7",
						"type": "t_array(t_string_storage)dyn_storage"
					},
					{
						"astId": 29,
						"contract": "contracts/basic_solidity.sol:BasicSolidity",
						"label": "owner",
						"offset": 0,
						"slot": "8",
						"type": "t_address"
					},
					{
						"astId": 33,
						"contract": "contracts/basic_solidity.sol:BasicSolidity",
						"label": "mileOfCar",
						"offset": 0,
						"slot": "9",
						"type": "t_mapping(t_string_memory_ptr,t_uint256)"
					},
					{
						"astId": 37,
						"contract": "contracts/basic_solidity.sol:BasicSolidity",
						"label": "isCar",
						"offset": 0,
						"slot": "10",
						"type": "t_mapping(t_string_memory_ptr,t_bool)"
					},
					{
						"astId": 41,
						"contract": "contracts/basic_solidity.sol:BasicSolidity",
						"label": "carSpeed",
						"offset": 0,
						"slot": "11",
						"type": "t_mapping(t_string_memory_ptr,t_uint256)"
					},
					{
						"astId": 56,
						"contract": "contracts/basic_solidity.sol:BasicSolidity",
						"label": "txWithdrow",
						"offset": 0,
						"slot": "12",
						"type": "t_mapping(t_address,t_uint256)"
					}
				],
				"types": {
					"t_address": {
						"encoding": "inplace",
						"label": "address",
						"numberOfBytes": "20"
					},
					"t_array(t_string_storage)dyn_storage": {
						"base": "t_string_storage",
						"encoding": "dynamic_array",
						"label": "string[]",
						"numberOfBytes": "32"
					},
					"t_bool": {
						"encoding": "inplace",
						"label": "bool",
						"numberOfBytes": "1"
					},
					"t_mapping(t_address,t_uint256)": {
						"encoding": "mapping",
						"key": "t_address",
						"label": "mapping(address => uint256)",
						"numberOfBytes": "32",
						"value": "t_uint256"
					},
					"t_mapping(t_string_memory_ptr,t_bool)": {
						"encoding": "mapping",
						"key": "t_string_memory_ptr",
						"label": "mapping(string => bool)",
						"numberOfBytes": "32",
						"value": "t_bool"
					},
					"t_mapping(t_string_memory_ptr,t_uint256)": {
						"encoding": "mapping",
						"key": "t_string_memory_ptr",
						"label": "mapping(string => uint256)",
						"numberOfBytes": "32",
						"value": "t_uint256"
					},
					"t_string_memory_ptr": {
						"encoding": "bytes",
						"label": "string",
						"numberOfBytes": "32"
					},
					"t_string_storage": {
						"encoding": "bytes",
						"label": "string",
						"numberOfBytes": "32"
					},
					"t_uint256": {
						"encoding": "inplace",
						"label": "uint256",
						"numberOfBytes": "32"
					}
				}
			},
			"userdoc": {
				"kind": "user",
				"methods": {},
				"version": 1
			}
		}
	}
}