{
	"contracts/basic_solidity.sol": {
		"BasicSolidity": {
			"abi": [
				{
					"inputs": [
						{
							"internalType": "uint256",
							"name": "_balance",
							"type": "uint256"
						},
						{
							"internalType": "address",
							"name": "_wallet",
							"type": "address"
						}
					],
					"stateMutability": "nonpayable",
					"type": "constructor"
				},
				{
					"inputs": [
						{
							"internalType": "string",
							"name": "_car",
							"type": "string"
						},
						{
							"internalType": "uint256",
							"name": "miles",
							"type": "uint256"
						}
					],
					"name": "addCar",
					"outputs": [],
					"stateMutability": "nonpayable",
					"type": "function"
				},
				{
					"inputs": [],
					"name": "age",
					"outputs": [
						{
							"internalType": "uint256",
							"name": "",
							"type": "uint256"
						}
					],
					"stateMutability": "view",
					"type": "function"
				},
				{
					"inputs": [],
					"name": "balance",
					"outputs": [
						{
							"internalType": "uint256",
							"name": "",
							"type": "uint256"
						}
					],
					"stateMutability": "view",
					"type": "function"
				},
				{
					"inputs": [
						{
							"internalType": "uint256",
							"name": "",
							"type": "uint256"
						}
					],
					"name": "carreer",
					"outputs": [
						{
							"internalType": "string",
							"name": "",
							"type": "string"
						}
					],
					"stateMutability": "view",
					"type": "function"
				},
				{
					"inputs": [],
					"name": "getWallet",
					"outputs": [
						{
							"internalType": "address",
							"name": "",
							"type": "address"
						}
					],
					"stateMutability": "view",
					"type": "function"
				},
				{
					"inputs": [
						{
							"internalType": "uint256",
							"name": "",
							"type": "uint256"
						}
					],
					"name": "girl",
					"outputs": [
						{
							"internalType": "string",
							"name": "",
							"type": "string"
						}
					],
					"stateMutability": "view",
					"type": "function"
				},
				{
					"inputs": [
						{
							"internalType": "string",
							"name": "",
							"type": "string"
						}
					],
					"name": "isCar",
					"outputs": [
						{
							"internalType": "bool",
							"name": "",
							"type": "bool"
						}
					],
					"stateMutability": "view",
					"type": "function"
				},
				{
					"inputs": [],
					"name": "isMale",
					"outputs": [
						{
							"internalType": "bool",
							"name": "",
							"type": "bool"
						}
					],
					"stateMutability": "view",
					"type": "function"
				},
				{
					"inputs": [
						{
							"internalType": "string",
							"name": "",
							"type": "string"
						}
					],
					"name": "mileOfCar",
					"outputs": [
						{
							"internalType": "uint256",
							"name": "",
							"type": "uint256"
						}
					],
					"stateMutability": "view",
					"type": "function"
				},
				{
					"inputs": [],
					"name": "name",
					"outputs": [
						{
							"internalType": "string",
							"name": "",
							"type": "string"
						}
					],
					"stateMutability": "view",
					"type": "function"
				},
				{
					"inputs": [
						{
							"internalType": "string",
							"name": "_girl",
							"type": "string"
						}
					],
					"name": "tinder",
					"outputs": [],
					"stateMutability": "nonpayable",
					"type": "function"
				}
			],
			"devdoc": {
				"kind": "dev",
				"methods": {},
				"version": 1
			},
			"evm": {
				"assembly": "    /* \"contracts/basic_solidity.sol\":60:1008  contract BasicSolidity {\r... */\n  mstore(0x40, 0x80)\n    /* \"contracts/basic_solidity.sol\":114:149  string public name  = \"Tony Strark\" */\n  mload(0x40)\n  dup1\n  0x40\n  add\n  0x40\n  mstore\n  dup1\n  0x0b\n  dup2\n  mstore\n  0x20\n  add\n  0x546f6e792053747261726b000000000000000000000000000000000000000000\n  dup2\n  mstore\n  pop\n  0x00\n  swap1\n  dup1\n  mload\n  swap1\n  0x20\n  add\n  swap1\n  tag_1\n  swap3\n  swap2\n  swap1\n  tag_2\n  jump\t// in\ntag_1:\n  pop\n    /* \"contracts/basic_solidity.sol\":182:184  48 */\n  0x30\n    /* \"contracts/basic_solidity.sol\":158:184  uint256 public age   =  48 */\n  0x01\n  sstore\n    /* \"contracts/basic_solidity.sol\":217:221  true */\n  0x01\n    /* \"contracts/basic_solidity.sol\":191:221  bool   public  isMale  =  true */\n  0x02\n  exp(0x0100, 0x00)\n  dup2\n  sload\n  dup2\n  0xff\n  mul\n  not\n  and\n  swap1\n  dup4\n  iszero\n  iszero\n  mul\n  or\n  swap1\n  sstore\n  pop\n    /* \"contracts/basic_solidity.sol\":259:316  string[]  public carreer  = [\"playboy\",\"engineer\",\"hero\"] */\n  mload(0x40)\n  dup1\n  0x60\n  add\n  0x40\n  mstore\n  dup1\n  mload(0x40)\n  dup1\n  0x40\n  add\n  0x40\n  mstore\n  dup1\n  0x07\n  dup2\n  mstore\n  0x20\n  add\n  0x706c6179626f7900000000000000000000000000000000000000000000000000\n  dup2\n  mstore\n  pop\n  dup2\n  mstore\n  0x20\n  add\n  mload(0x40)\n  dup1\n  0x40\n  add\n  0x40\n  mstore\n  dup1\n  0x08\n  dup2\n  mstore\n  0x20\n  add\n  0x656e67696e656572000000000000000000000000000000000000000000000000\n  dup2\n  mstore\n  pop\n  dup2\n  mstore\n  0x20\n  add\n  mload(0x40)\n  dup1\n  0x40\n  add\n  0x40\n  mstore\n  dup1\n  0x04\n  dup2\n  mstore\n  0x20\n  add\n  0x6865726f00000000000000000000000000000000000000000000000000000000\n  dup2\n  mstore\n  pop\n  dup2\n  mstore\n  pop\n  0x04\n  swap1\n  0x03\n  tag_3\n  swap3\n  swap2\n  swap1\n  tag_4\n  jump\t// in\ntag_3:\n  pop\n    /* \"contracts/basic_solidity.sol\":483:594  constructor(uint256 _balance, address _wallet){\r... */\n  callvalue\n  dup1\n  iszero\n  tag_5\n  jumpi\n  0x00\n  dup1\n  revert\ntag_5:\n  pop\n  mload(0x40)\n  sub(codesize, bytecodeSize)\n  dup1\n  bytecodeSize\n  dup4\n  codecopy\n  dup2\n  dup2\n  add\n  0x40\n  mstore\n  dup2\n  add\n  swap1\n  tag_6\n  swap2\n  swap1\n  tag_7\n  jump\t// in\ntag_6:\n    /* \"contracts/basic_solidity.sol\":550:558  _balance */\n  dup2\n    /* \"contracts/basic_solidity.sol\":540:547  balance */\n  0x03\n    /* \"contracts/basic_solidity.sol\":540:558  balance = _balance */\n  dup2\n  swap1\n  sstore\n  pop\n    /* \"contracts/basic_solidity.sol\":579:586  _wallet */\n  dup1\n    /* \"contracts/basic_solidity.sol\":569:575  wallet */\n  0x05\n  0x00\n    /* \"contracts/basic_solidity.sol\":569:586  wallet  = _wallet */\n  0x0100\n  exp\n  dup2\n  sload\n  dup2\n  0xffffffffffffffffffffffffffffffffffffffff\n  mul\n  not\n  and\n  swap1\n  dup4\n  0xffffffffffffffffffffffffffffffffffffffff\n  and\n  mul\n  or\n  swap1\n  sstore\n  pop\n    /* \"contracts/basic_solidity.sol\":483:594  constructor(uint256 _balance, address _wallet){\r... */\n  pop\n  pop\n    /* \"contracts/basic_solidity.sol\":60:1008  contract BasicSolidity {\r... */\n  jump(tag_10)\ntag_2:\n  dup3\n  dup1\n  sload\n  tag_11\n  swap1\n  tag_12\n  jump\t// in\ntag_11:\n  swap1\n  0x00\n  mstore\n  keccak256(0x00, 0x20)\n  swap1\n  0x1f\n  add\n  0x20\n  swap1\n  div\n  dup2\n  add\n  swap3\n  dup3\n  tag_14\n  jumpi\n  0x00\n  dup6\n  sstore\n  jump(tag_13)\ntag_14:\n  dup3\n  0x1f\n  lt\n  tag_15\n  jumpi\n  dup1\n  mload\n  not(0xff)\n  and\n  dup4\n  dup1\n  add\n  or\n  dup6\n  sstore\n  jump(tag_13)\ntag_15:\n  dup3\n  dup1\n  add\n  0x01\n  add\n  dup6\n  sstore\n  dup3\n  iszero\n  tag_13\n  jumpi\n  swap2\n  dup3\n  add\ntag_16:\n  dup3\n  dup2\n  gt\n  iszero\n  tag_17\n  jumpi\n  dup3\n  mload\n  dup3\n  sstore\n  swap2\n  0x20\n  add\n  swap2\n  swap1\n  0x01\n  add\n  swap1\n  jump(tag_16)\ntag_17:\ntag_13:\n  pop\n  swap1\n  pop\n  tag_18\n  swap2\n  swap1\n  tag_19\n  jump\t// in\ntag_18:\n  pop\n  swap1\n  jump\t// out\ntag_4:\n  dup3\n  dup1\n  sload\n  dup3\n  dup3\n  sstore\n  swap1\n  0x00\n  mstore\n  keccak256(0x00, 0x20)\n  swap1\n  dup2\n  add\n  swap3\n  dup3\n  iszero\n  tag_20\n  jumpi\n  swap2\n  0x20\n  mul\n  dup3\n  add\ntag_21:\n  dup3\n  dup2\n  gt\n  iszero\n  tag_22\n  jumpi\n  dup3\n  mload\n  dup3\n  swap1\n  dup1\n  mload\n  swap1\n  0x20\n  add\n  swap1\n  tag_23\n  swap3\n  swap2\n  swap1\n  tag_2\n  jump\t// in\ntag_23:\n  pop\n  swap2\n  0x20\n  add\n  swap2\n  swap1\n  0x01\n  add\n  swap1\n  jump(tag_21)\ntag_22:\ntag_20:\n  pop\n  swap1\n  pop\n  tag_24\n  swap2\n  swap1\n  tag_25\n  jump\t// in\ntag_24:\n  pop\n  swap1\n  jump\t// out\ntag_19:\ntag_26:\n  dup1\n  dup3\n  gt\n  iszero\n  tag_27\n  jumpi\n  0x00\n  dup2\n  0x00\n  swap1\n  sstore\n  pop\n  0x01\n  add\n  jump(tag_26)\ntag_27:\n  pop\n  swap1\n  jump\t// out\ntag_25:\ntag_28:\n  dup1\n  dup3\n  gt\n  iszero\n  tag_29\n  jumpi\n  0x00\n  dup2\n  dup2\n  tag_30\n  swap2\n  swap1\n  tag_31\n  jump\t// in\ntag_30:\n  pop\n  0x01\n  add\n  jump(tag_28)\ntag_29:\n  pop\n  swap1\n  jump\t// out\ntag_31:\n  pop\n  dup1\n  sload\n  tag_32\n  swap1\n  tag_12\n  jump\t// in\ntag_32:\n  0x00\n  dup3\n  sstore\n  dup1\n  0x1f\n  lt\n  tag_34\n  jumpi\n  pop\n  jump(tag_33)\ntag_34:\n  0x1f\n  add\n  0x20\n  swap1\n  div\n  swap1\n  0x00\n  mstore\n  keccak256(0x00, 0x20)\n  swap1\n  dup2\n  add\n  swap1\n  tag_35\n  swap2\n  swap1\n  tag_19\n  jump\t// in\ntag_35:\ntag_33:\n  pop\n  jump\t// out\n    /* \"#utility.yul\":7:150   */\ntag_37:\n    /* \"#utility.yul\":64:69   */\n  0x00\n    /* \"#utility.yul\":95:101   */\n  dup2\n    /* \"#utility.yul\":89:102   */\n  mload\n    /* \"#utility.yul\":80:102   */\n  swap1\n  pop\n    /* \"#utility.yul\":111:144   */\n  tag_39\n    /* \"#utility.yul\":138:143   */\n  dup2\n    /* \"#utility.yul\":111:144   */\n  tag_40\n  jump\t// in\ntag_39:\n    /* \"#utility.yul\":7:150   */\n  swap3\n  swap2\n  pop\n  pop\n  jump\t// out\n    /* \"#utility.yul\":156:299   */\ntag_41:\n    /* \"#utility.yul\":213:218   */\n  0x00\n    /* \"#utility.yul\":244:250   */\n  dup2\n    /* \"#utility.yul\":238:251   */\n  mload\n    /* \"#utility.yul\":229:251   */\n  swap1\n  pop\n    /* \"#utility.yul\":260:293   */\n  tag_43\n    /* \"#utility.yul\":287:292   */\n  dup2\n    /* \"#utility.yul\":260:293   */\n  tag_44\n  jump\t// in\ntag_43:\n    /* \"#utility.yul\":156:299   */\n  swap3\n  swap2\n  pop\n  pop\n  jump\t// out\n    /* \"#utility.yul\":305:812   */\ntag_7:\n    /* \"#utility.yul\":384:390   */\n  0x00\n    /* \"#utility.yul\":392:398   */\n  dup1\n    /* \"#utility.yul\":441:443   */\n  0x40\n    /* \"#utility.yul\":429:438   */\n  dup4\n    /* \"#utility.yul\":420:427   */\n  dup6\n    /* \"#utility.yul\":416:439   */\n  sub\n    /* \"#utility.yul\":412:444   */\n  slt\n    /* \"#utility.yul\":409:528   */\n  iszero\n  tag_46\n  jumpi\n    /* \"#utility.yul\":447:526   */\n  tag_47\n  tag_48\n  jump\t// in\ntag_47:\n    /* \"#utility.yul\":409:528   */\ntag_46:\n    /* \"#utility.yul\":567:568   */\n  0x00\n    /* \"#utility.yul\":592:656   */\n  tag_49\n    /* \"#utility.yul\":648:655   */\n  dup6\n    /* \"#utility.yul\":639:645   */\n  dup3\n    /* \"#utility.yul\":628:637   */\n  dup7\n    /* \"#utility.yul\":624:646   */\n  add\n    /* \"#utility.yul\":592:656   */\n  tag_41\n  jump\t// in\ntag_49:\n    /* \"#utility.yul\":582:656   */\n  swap3\n  pop\n    /* \"#utility.yul\":538:666   */\n  pop\n    /* \"#utility.yul\":705:707   */\n  0x20\n    /* \"#utility.yul\":731:795   */\n  tag_50\n    /* \"#utility.yul\":787:794   */\n  dup6\n    /* \"#utility.yul\":778:784   */\n  dup3\n    /* \"#utility.yul\":767:776   */\n  dup7\n    /* \"#utility.yul\":763:785   */\n  add\n    /* \"#utility.yul\":731:795   */\n  tag_37\n  jump\t// in\ntag_50:\n    /* \"#utility.yul\":721:795   */\n  swap2\n  pop\n    /* \"#utility.yul\":676:805   */\n  pop\n    /* \"#utility.yul\":305:812   */\n  swap3\n  pop\n  swap3\n  swap1\n  pop\n  jump\t// out\n    /* \"#utility.yul\":899:995   */\ntag_53:\n    /* \"#utility.yul\":936:943   */\n  0x00\n    /* \"#utility.yul\":965:989   */\n  tag_55\n    /* \"#utility.yul\":983:988   */\n  dup3\n    /* \"#utility.yul\":965:989   */\n  tag_56\n  jump\t// in\ntag_55:\n    /* \"#utility.yul\":954:989   */\n  swap1\n  pop\n    /* \"#utility.yul\":899:995   */\n  swap2\n  swap1\n  pop\n  jump\t// out\n    /* \"#utility.yul\":1001:1127   */\ntag_56:\n    /* \"#utility.yul\":1038:1045   */\n  0x00\n    /* \"#utility.yul\":1078:1120   */\n  0xffffffffffffffffffffffffffffffffffffffff\n    /* \"#utility.yul\":1071:1076   */\n  dup3\n    /* \"#utility.yul\":1067:1121   */\n  and\n    /* \"#utility.yul\":1056:1121   */\n  swap1\n  pop\n    /* \"#utility.yul\":1001:1127   */\n  swap2\n  swap1\n  pop\n  jump\t// out\n    /* \"#utility.yul\":1133:1210   */\ntag_58:\n    /* \"#utility.yul\":1170:1177   */\n  0x00\n    /* \"#utility.yul\":1199:1204   */\n  dup2\n    /* \"#utility.yul\":1188:1204   */\n  swap1\n  pop\n    /* \"#utility.yul\":1133:1210   */\n  swap2\n  swap1\n  pop\n  jump\t// out\n    /* \"#utility.yul\":1216:1536   */\ntag_12:\n    /* \"#utility.yul\":1260:1266   */\n  0x00\n    /* \"#utility.yul\":1297:1298   */\n  0x02\n    /* \"#utility.yul\":1291:1295   */\n  dup3\n    /* \"#utility.yul\":1287:1299   */\n  div\n    /* \"#utility.yul\":1277:1299   */\n  swap1\n  pop\n    /* \"#utility.yul\":1344:1345   */\n  0x01\n    /* \"#utility.yul\":1338:1342   */\n  dup3\n    /* \"#utility.yul\":1334:1346   */\n  and\n    /* \"#utility.yul\":1365:1383   */\n  dup1\n    /* \"#utility.yul\":1355:1436   */\n  tag_61\n  jumpi\n    /* \"#utility.yul\":1421:1425   */\n  0x7f\n    /* \"#utility.yul\":1413:1419   */\n  dup3\n    /* \"#utility.yul\":1409:1426   */\n  and\n    /* \"#utility.yul\":1399:1426   */\n  swap2\n  pop\n    /* \"#utility.yul\":1355:1436   */\ntag_61:\n    /* \"#utility.yul\":1483:1485   */\n  0x20\n    /* \"#utility.yul\":1475:1481   */\n  dup3\n    /* \"#utility.yul\":1472:1486   */\n  lt\n    /* \"#utility.yul\":1452:1470   */\n  dup2\n    /* \"#utility.yul\":1449:1487   */\n  eq\n    /* \"#utility.yul\":1446:1530   */\n  iszero\n  tag_62\n  jumpi\n    /* \"#utility.yul\":1502:1520   */\n  tag_63\n  tag_64\n  jump\t// in\ntag_63:\n    /* \"#utility.yul\":1446:1530   */\ntag_62:\n    /* \"#utility.yul\":1267:1536   */\n  pop\n    /* \"#utility.yul\":1216:1536   */\n  swap2\n  swap1\n  pop\n  jump\t// out\n    /* \"#utility.yul\":1542:1722   */\ntag_64:\n    /* \"#utility.yul\":1590:1667   */\n  0x4e487b7100000000000000000000000000000000000000000000000000000000\n    /* \"#utility.yul\":1587:1588   */\n  0x00\n    /* \"#utility.yul\":1580:1668   */\n  mstore\n    /* \"#utility.yul\":1687:1691   */\n  0x22\n    /* \"#utility.yul\":1684:1685   */\n  0x04\n    /* \"#utility.yul\":1677:1692   */\n  mstore\n    /* \"#utility.yul\":1711:1715   */\n  0x24\n    /* \"#utility.yul\":1708:1709   */\n  0x00\n    /* \"#utility.yul\":1701:1716   */\n  revert\n    /* \"#utility.yul\":1851:1968   */\ntag_48:\n    /* \"#utility.yul\":1960:1961   */\n  0x00\n    /* \"#utility.yul\":1957:1958   */\n  dup1\n    /* \"#utility.yul\":1950:1962   */\n  revert\n    /* \"#utility.yul\":1974:2096   */\ntag_40:\n    /* \"#utility.yul\":2047:2071   */\n  tag_70\n    /* \"#utility.yul\":2065:2070   */\n  dup2\n    /* \"#utility.yul\":2047:2071   */\n  tag_53\n  jump\t// in\ntag_70:\n    /* \"#utility.yul\":2040:2045   */\n  dup2\n    /* \"#utility.yul\":2037:2072   */\n  eq\n    /* \"#utility.yul\":2027:2090   */\n  tag_71\n  jumpi\n    /* \"#utility.yul\":2086:2087   */\n  0x00\n    /* \"#utility.yul\":2083:2084   */\n  dup1\n    /* \"#utility.yul\":2076:2088   */\n  revert\n    /* \"#utility.yul\":2027:2090   */\ntag_71:\n    /* \"#utility.yul\":1974:2096   */\n  pop\n  jump\t// out\n    /* \"#utility.yul\":2102:2224   */\ntag_44:\n    /* \"#utility.yul\":2175:2199   */\n  tag_73\n    /* \"#utility.yul\":2193:2198   */\n  dup2\n    /* \"#utility.yul\":2175:2199   */\n  tag_58\n  jump\t// in\ntag_73:\n    /* \"#utility.yul\":2168:2173   */\n  dup2\n    /* \"#utility.yul\":2165:2200   */\n  eq\n    /* \"#utility.yul\":2155:2218   */\n  tag_74\n  jumpi\n    /* \"#utility.yul\":2214:2215   */\n  0x00\n    /* \"#utility.yul\":2211:2212   */\n  dup1\n    /* \"#utility.yul\":2204:2216   */\n  revert\n    /* \"#utility.yul\":2155:2218   */\ntag_74:\n    /* \"#utility.yul\":2102:2224   */\n  pop\n  jump\t// out\n    /* \"contracts/basic_solidity.sol\":60:1008  contract BasicSolidity {\r... */\ntag_10:\n  dataSize(sub_0)\n  dup1\n  dataOffset(sub_0)\n  0x00\n  codecopy\n  0x00\n  return\nstop\n\nsub_0: assembly {\n        /* \"contracts/basic_solidity.sol\":60:1008  contract BasicSolidity {\r... */\n      mstore(0x40, 0x80)\n      callvalue\n      dup1\n      iszero\n      tag_1\n      jumpi\n      0x00\n      dup1\n      revert\n    tag_1:\n      pop\n      jumpi(tag_2, lt(calldatasize, 0x04))\n      shr(0xe0, calldataload(0x00))\n      dup1\n      0x654a573c\n      gt\n      tag_14\n      jumpi\n      dup1\n      0x654a573c\n      eq\n      tag_8\n      jumpi\n      dup1\n      0x853320e3\n      eq\n      tag_9\n      jumpi\n      dup1\n      0x965ac0c5\n      eq\n      tag_10\n      jumpi\n      dup1\n      0xb69ef8a8\n      eq\n      tag_11\n      jumpi\n      dup1\n      0xcfb5843c\n      eq\n      tag_12\n      jumpi\n      dup1\n      0xfcc9e5c5\n      eq\n      tag_13\n      jumpi\n      jump(tag_2)\n    tag_14:\n      dup1\n      0x06fdde03\n      eq\n      tag_3\n      jumpi\n      dup1\n      0x13299604\n      eq\n      tag_4\n      jumpi\n      dup1\n      0x262a9dff\n      eq\n      tag_5\n      jumpi\n      dup1\n      0x449549d5\n      eq\n      tag_6\n      jumpi\n      dup1\n      0x5cd836a3\n      eq\n      tag_7\n      jumpi\n    tag_2:\n      0x00\n      dup1\n      revert\n        /* \"contracts/basic_solidity.sol\":114:149  string public name  = \"Tony Strark\" */\n    tag_3:\n      tag_15\n      tag_16\n      jump\t// in\n    tag_15:\n      mload(0x40)\n      tag_17\n      swap2\n      swap1\n      tag_18\n      jump\t// in\n    tag_17:\n      mload(0x40)\n      dup1\n      swap2\n      sub\n      swap1\n      return\n        /* \"contracts/basic_solidity.sol\":706:795  function getWallet() public view returns(address){\r... */\n    tag_4:\n      tag_19\n      tag_20\n      jump\t// in\n    tag_19:\n      mload(0x40)\n      tag_21\n      swap2\n      swap1\n      tag_22\n      jump\t// in\n    tag_21:\n      mload(0x40)\n      dup1\n      swap2\n      sub\n      swap1\n      return\n        /* \"contracts/basic_solidity.sol\":158:184  uint256 public age   =  48 */\n    tag_5:\n      tag_23\n      tag_24\n      jump\t// in\n    tag_23:\n      mload(0x40)\n      tag_25\n      swap2\n      swap1\n      tag_26\n      jump\t// in\n    tag_25:\n      mload(0x40)\n      dup1\n      swap2\n      sub\n      swap1\n      return\n        /* \"contracts/basic_solidity.sol\":358:379  string[]  public girl */\n    tag_6:\n      tag_27\n      0x04\n      dup1\n      calldatasize\n      sub\n      dup2\n      add\n      swap1\n      tag_28\n      swap2\n      swap1\n      tag_29\n      jump\t// in\n    tag_28:\n      tag_30\n      jump\t// in\n    tag_27:\n      mload(0x40)\n      tag_31\n      swap2\n      swap1\n      tag_18\n      jump\t// in\n    tag_31:\n      mload(0x40)\n      dup1\n      swap2\n      sub\n      swap1\n      return\n        /* \"contracts/basic_solidity.sol\":259:316  string[]  public carreer  = [\"playboy\",\"engineer\",\"hero\"] */\n    tag_7:\n      tag_32\n      0x04\n      dup1\n      calldatasize\n      sub\n      dup2\n      add\n      swap1\n      tag_33\n      swap2\n      swap1\n      tag_29\n      jump\t// in\n    tag_33:\n      tag_34\n      jump\t// in\n    tag_32:\n      mload(0x40)\n      tag_35\n      swap2\n      swap1\n      tag_18\n      jump\t// in\n    tag_35:\n      mload(0x40)\n      dup1\n      swap2\n      sub\n      swap1\n      return\n        /* \"contracts/basic_solidity.sol\":191:221  bool   public  isMale  =  true */\n    tag_8:\n      tag_36\n      tag_37\n      jump\t// in\n    tag_36:\n      mload(0x40)\n      tag_38\n      swap2\n      swap1\n      tag_39\n      jump\t// in\n    tag_38:\n      mload(0x40)\n      dup1\n      swap2\n      sub\n      swap1\n      return\n        /* \"contracts/basic_solidity.sol\":388:431  mapping(string => uint256) public mileOfCar */\n    tag_9:\n      tag_40\n      0x04\n      dup1\n      calldatasize\n      sub\n      dup2\n      add\n      swap1\n      tag_41\n      swap2\n      swap1\n      tag_42\n      jump\t// in\n    tag_41:\n      tag_43\n      jump\t// in\n    tag_40:\n      mload(0x40)\n      tag_44\n      swap2\n      swap1\n      tag_26\n      jump\t// in\n    tag_44:\n      mload(0x40)\n      dup1\n      swap2\n      sub\n      swap1\n      return\n        /* \"contracts/basic_solidity.sol\":803:1001  function addCar(string memory _car , uint256 miles) public {\r... */\n    tag_10:\n      tag_45\n      0x04\n      dup1\n      calldatasize\n      sub\n      dup2\n      add\n      swap1\n      tag_46\n      swap2\n      swap1\n      tag_47\n      jump\t// in\n    tag_46:\n      tag_48\n      jump\t// in\n    tag_45:\n      stop\n        /* \"contracts/basic_solidity.sol\":230:252  uint256 public balance */\n    tag_11:\n      tag_49\n      tag_50\n      jump\t// in\n    tag_49:\n      mload(0x40)\n      tag_51\n      swap2\n      swap1\n      tag_26\n      jump\t// in\n    tag_51:\n      mload(0x40)\n      dup1\n      swap2\n      sub\n      swap1\n      return\n        /* \"contracts/basic_solidity.sol\":602:681  function tinder(string memory _girl) public {\r... */\n    tag_12:\n      tag_52\n      0x04\n      dup1\n      calldatasize\n      sub\n      dup2\n      add\n      swap1\n      tag_53\n      swap2\n      swap1\n      tag_42\n      jump\t// in\n    tag_53:\n      tag_54\n      jump\t// in\n    tag_52:\n      stop\n        /* \"contracts/basic_solidity.sol\":438:474  mapping(string => bool) public isCar */\n    tag_13:\n      tag_55\n      0x04\n      dup1\n      calldatasize\n      sub\n      dup2\n      add\n      swap1\n      tag_56\n      swap2\n      swap1\n      tag_42\n      jump\t// in\n    tag_56:\n      tag_57\n      jump\t// in\n    tag_55:\n      mload(0x40)\n      tag_58\n      swap2\n      swap1\n      tag_39\n      jump\t// in\n    tag_58:\n      mload(0x40)\n      dup1\n      swap2\n      sub\n      swap1\n      return\n        /* \"contracts/basic_solidity.sol\":114:149  string public name  = \"Tony Strark\" */\n    tag_16:\n      0x00\n      dup1\n      sload\n      tag_59\n      swap1\n      tag_60\n      jump\t// in\n    tag_59:\n      dup1\n      0x1f\n      add\n      0x20\n      dup1\n      swap2\n      div\n      mul\n      0x20\n      add\n      mload(0x40)\n      swap1\n      dup2\n      add\n      0x40\n      mstore\n      dup1\n      swap3\n      swap2\n      swap1\n      dup2\n      dup2\n      mstore\n      0x20\n      add\n      dup3\n      dup1\n      sload\n      tag_61\n      swap1\n      tag_60\n      jump\t// in\n    tag_61:\n      dup1\n      iszero\n      tag_62\n      jumpi\n      dup1\n      0x1f\n      lt\n      tag_63\n      jumpi\n      0x0100\n      dup1\n      dup4\n      sload\n      div\n      mul\n      dup4\n      mstore\n      swap2\n      0x20\n      add\n      swap2\n      jump(tag_62)\n    tag_63:\n      dup3\n      add\n      swap2\n      swap1\n      0x00\n      mstore\n      keccak256(0x00, 0x20)\n      swap1\n    tag_64:\n      dup2\n      sload\n      dup2\n      mstore\n      swap1\n      0x01\n      add\n      swap1\n      0x20\n      add\n      dup1\n      dup4\n      gt\n      tag_64\n      jumpi\n      dup3\n      swap1\n      sub\n      0x1f\n      and\n      dup3\n      add\n      swap2\n    tag_62:\n      pop\n      pop\n      pop\n      pop\n      pop\n      dup2\n      jump\t// out\n        /* \"contracts/basic_solidity.sol\":706:795  function getWallet() public view returns(address){\r... */\n    tag_20:\n        /* \"contracts/basic_solidity.sol\":747:754  address */\n      0x00\n        /* \"contracts/basic_solidity.sol\":781:787  wallet */\n      0x05\n      0x00\n      swap1\n      sload\n      swap1\n      0x0100\n      exp\n      swap1\n      div\n      0xffffffffffffffffffffffffffffffffffffffff\n      and\n        /* \"contracts/basic_solidity.sol\":774:787  return wallet */\n      swap1\n      pop\n        /* \"contracts/basic_solidity.sol\":706:795  function getWallet() public view returns(address){\r... */\n      swap1\n      jump\t// out\n        /* \"contracts/basic_solidity.sol\":158:184  uint256 public age   =  48 */\n    tag_24:\n      sload(0x01)\n      dup2\n      jump\t// out\n        /* \"contracts/basic_solidity.sol\":358:379  string[]  public girl */\n    tag_30:\n      0x06\n      dup2\n      dup2\n      sload\n      dup2\n      lt\n      tag_66\n      jumpi\n      0x00\n      dup1\n      revert\n    tag_66:\n      swap1\n      0x00\n      mstore\n      keccak256(0x00, 0x20)\n      add\n      0x00\n      swap2\n      pop\n      swap1\n      pop\n      dup1\n      sload\n      tag_68\n      swap1\n      tag_60\n      jump\t// in\n    tag_68:\n      dup1\n      0x1f\n      add\n      0x20\n      dup1\n      swap2\n      div\n      mul\n      0x20\n      add\n      mload(0x40)\n      swap1\n      dup2\n      add\n      0x40\n      mstore\n      dup1\n      swap3\n      swap2\n      swap1\n      dup2\n      dup2\n      mstore\n      0x20\n      add\n      dup3\n      dup1\n      sload\n      tag_69\n      swap1\n      tag_60\n      jump\t// in\n    tag_69:\n      dup1\n      iszero\n      tag_70\n      jumpi\n      dup1\n      0x1f\n      lt\n      tag_71\n      jumpi\n      0x0100\n      dup1\n      dup4\n      sload\n      div\n      mul\n      dup4\n      mstore\n      swap2\n      0x20\n      add\n      swap2\n      jump(tag_70)\n    tag_71:\n      dup3\n      add\n      swap2\n      swap1\n      0x00\n      mstore\n      keccak256(0x00, 0x20)\n      swap1\n    tag_72:\n      dup2\n      sload\n      dup2\n      mstore\n      swap1\n      0x01\n      add\n      swap1\n      0x20\n      add\n      dup1\n      dup4\n      gt\n      tag_72\n      jumpi\n      dup3\n      swap1\n      sub\n      0x1f\n      and\n      dup3\n      add\n      swap2\n    tag_70:\n      pop\n      pop\n      pop\n      pop\n      pop\n      dup2\n      jump\t// out\n        /* \"contracts/basic_solidity.sol\":259:316  string[]  public carreer  = [\"playboy\",\"engineer\",\"hero\"] */\n    tag_34:\n      0x04\n      dup2\n      dup2\n      sload\n      dup2\n      lt\n      tag_73\n      jumpi\n      0x00\n      dup1\n      revert\n    tag_73:\n      swap1\n      0x00\n      mstore\n      keccak256(0x00, 0x20)\n      add\n      0x00\n      swap2\n      pop\n      swap1\n      pop\n      dup1\n      sload\n      tag_75\n      swap1\n      tag_60\n      jump\t// in\n    tag_75:\n      dup1\n      0x1f\n      add\n      0x20\n      dup1\n      swap2\n      div\n      mul\n      0x20\n      add\n      mload(0x40)\n      swap1\n      dup2\n      add\n      0x40\n      mstore\n      dup1\n      swap3\n      swap2\n      swap1\n      dup2\n      dup2\n      mstore\n      0x20\n      add\n      dup3\n      dup1\n      sload\n      tag_76\n      swap1\n      tag_60\n      jump\t// in\n    tag_76:\n      dup1\n      iszero\n      tag_77\n      jumpi\n      dup1\n      0x1f\n      lt\n      tag_78\n      jumpi\n      0x0100\n      dup1\n      dup4\n      sload\n      div\n      mul\n      dup4\n      mstore\n      swap2\n      0x20\n      add\n      swap2\n      jump(tag_77)\n    tag_78:\n      dup3\n      add\n      swap2\n      swap1\n      0x00\n      mstore\n      keccak256(0x00, 0x20)\n      swap1\n    tag_79:\n      dup2\n      sload\n      dup2\n      mstore\n      swap1\n      0x01\n      add\n      swap1\n      0x20\n      add\n      dup1\n      dup4\n      gt\n      tag_79\n      jumpi\n      dup3\n      swap1\n      sub\n      0x1f\n      and\n      dup3\n      add\n      swap2\n    tag_77:\n      pop\n      pop\n      pop\n      pop\n      pop\n      dup2\n      jump\t// out\n        /* \"contracts/basic_solidity.sol\":191:221  bool   public  isMale  =  true */\n    tag_37:\n      0x02\n      0x00\n      swap1\n      sload\n      swap1\n      0x0100\n      exp\n      swap1\n      div\n      0xff\n      and\n      dup2\n      jump\t// out\n        /* \"contracts/basic_solidity.sol\":388:431  mapping(string => uint256) public mileOfCar */\n    tag_43:\n      0x07\n      dup2\n      dup1\n      mload\n      0x20\n      dup2\n      add\n      dup3\n      add\n      dup1\n      mload\n      dup5\n      dup3\n      mstore\n      0x20\n      dup4\n      add\n      0x20\n      dup6\n      add\n      keccak256\n      dup2\n      dup4\n      mstore\n      dup1\n      swap6\n      pop\n      pop\n      pop\n      pop\n      pop\n      pop\n      0x00\n      swap2\n      pop\n      swap1\n      pop\n      sload\n      dup2\n      jump\t// out\n        /* \"contracts/basic_solidity.sol\":803:1001  function addCar(string memory _car , uint256 miles) public {\r... */\n    tag_48:\n        /* \"contracts/basic_solidity.sol\":896:901  false */\n      0x00\n        /* \"contracts/basic_solidity.sol\":881:901  isCar[_car] == false */\n      iszero\n      iszero\n        /* \"contracts/basic_solidity.sol\":881:886  isCar */\n      0x08\n        /* \"contracts/basic_solidity.sol\":887:891  _car */\n      dup4\n        /* \"contracts/basic_solidity.sol\":881:892  isCar[_car] */\n      mload(0x40)\n      tag_81\n      swap2\n      swap1\n      tag_82\n      jump\t// in\n    tag_81:\n      swap1\n      dup2\n      mstore\n      0x20\n      add\n      mload(0x40)\n      dup1\n      swap2\n      sub\n      swap1\n      keccak256\n      0x00\n      swap1\n      sload\n      swap1\n      0x0100\n      exp\n      swap1\n      div\n      0xff\n      and\n        /* \"contracts/basic_solidity.sol\":881:901  isCar[_car] == false */\n      iszero\n      iszero\n      eq\n        /* \"contracts/basic_solidity.sol\":873:930  require(isCar[_car] == false,\"Tony already has this car\") */\n      tag_83\n      jumpi\n      mload(0x40)\n      0x08c379a000000000000000000000000000000000000000000000000000000000\n      dup2\n      mstore\n      0x04\n      add\n      tag_84\n      swap1\n      tag_85\n      jump\t// in\n    tag_84:\n      mload(0x40)\n      dup1\n      swap2\n      sub\n      swap1\n      revert\n    tag_83:\n        /* \"contracts/basic_solidity.sol\":959:964  miles */\n      dup1\n        /* \"contracts/basic_solidity.sol\":941:950  mileOfCar */\n      0x07\n        /* \"contracts/basic_solidity.sol\":951:955  _car */\n      dup4\n        /* \"contracts/basic_solidity.sol\":941:956  mileOfCar[_car] */\n      mload(0x40)\n      tag_86\n      swap2\n      swap1\n      tag_82\n      jump\t// in\n    tag_86:\n      swap1\n      dup2\n      mstore\n      0x20\n      add\n      mload(0x40)\n      dup1\n      swap2\n      sub\n      swap1\n      keccak256\n        /* \"contracts/basic_solidity.sol\":941:964  mileOfCar[_car] = miles */\n      dup2\n      swap1\n      sstore\n      pop\n        /* \"contracts/basic_solidity.sol\":989:993  true */\n      0x01\n        /* \"contracts/basic_solidity.sol\":975:980  isCar */\n      0x08\n        /* \"contracts/basic_solidity.sol\":981:985  _car */\n      dup4\n        /* \"contracts/basic_solidity.sol\":975:986  isCar[_car] */\n      mload(0x40)\n      tag_87\n      swap2\n      swap1\n      tag_82\n      jump\t// in\n    tag_87:\n      swap1\n      dup2\n      mstore\n      0x20\n      add\n      mload(0x40)\n      dup1\n      swap2\n      sub\n      swap1\n      keccak256\n      0x00\n        /* \"contracts/basic_solidity.sol\":975:993  isCar[_car] = true */\n      0x0100\n      exp\n      dup2\n      sload\n      dup2\n      0xff\n      mul\n      not\n      and\n      swap1\n      dup4\n      iszero\n      iszero\n      mul\n      or\n      swap1\n      sstore\n      pop\n        /* \"contracts/basic_solidity.sol\":803:1001  function addCar(string memory _car , uint256 miles) public {\r... */\n      pop\n      pop\n      jump\t// out\n        /* \"contracts/basic_solidity.sol\":230:252  uint256 public balance */\n    tag_50:\n      sload(0x03)\n      dup2\n      jump\t// out\n        /* \"contracts/basic_solidity.sol\":602:681  function tinder(string memory _girl) public {\r... */\n    tag_54:\n        /* \"contracts/basic_solidity.sol\":657:661  girl */\n      0x06\n        /* \"contracts/basic_solidity.sol\":667:672  _girl */\n      dup2\n        /* \"contracts/basic_solidity.sol\":657:673  girl.push(_girl) */\n      swap1\n      dup1\n      0x01\n      dup2\n      sload\n      add\n      dup1\n      dup3\n      sstore\n      dup1\n      swap2\n      pop\n      pop\n      0x01\n      swap1\n      sub\n      swap1\n      0x00\n      mstore\n      keccak256(0x00, 0x20)\n      add\n      0x00\n      swap1\n      swap2\n      swap1\n      swap2\n      swap1\n      swap2\n      pop\n      swap1\n      dup1\n      mload\n      swap1\n      0x20\n      add\n      swap1\n      tag_90\n      swap3\n      swap2\n      swap1\n      tag_91\n      jump\t// in\n    tag_90:\n      pop\n        /* \"contracts/basic_solidity.sol\":602:681  function tinder(string memory _girl) public {\r... */\n      pop\n      jump\t// out\n        /* \"contracts/basic_solidity.sol\":438:474  mapping(string => bool) public isCar */\n    tag_57:\n      0x08\n      dup2\n      dup1\n      mload\n      0x20\n      dup2\n      add\n      dup3\n      add\n      dup1\n      mload\n      dup5\n      dup3\n      mstore\n      0x20\n      dup4\n      add\n      0x20\n      dup6\n      add\n      keccak256\n      dup2\n      dup4\n      mstore\n      dup1\n      swap6\n      pop\n      pop\n      pop\n      pop\n      pop\n      pop\n      0x00\n      swap2\n      pop\n      sload\n      swap1\n      0x0100\n      exp\n      swap1\n      div\n      0xff\n      and\n      dup2\n      jump\t// out\n    tag_91:\n      dup3\n      dup1\n      sload\n      tag_92\n      swap1\n      tag_60\n      jump\t// in\n    tag_92:\n      swap1\n      0x00\n      mstore\n      keccak256(0x00, 0x20)\n      swap1\n      0x1f\n      add\n      0x20\n      swap1\n      div\n      dup2\n      add\n      swap3\n      dup3\n      tag_94\n      jumpi\n      0x00\n      dup6\n      sstore\n      jump(tag_93)\n    tag_94:\n      dup3\n      0x1f\n      lt\n      tag_95\n      jumpi\n      dup1\n      mload\n      not(0xff)\n      and\n      dup4\n      dup1\n      add\n      or\n      dup6\n      sstore\n      jump(tag_93)\n    tag_95:\n      dup3\n      dup1\n      add\n      0x01\n      add\n      dup6\n      sstore\n      dup3\n      iszero\n      tag_93\n      jumpi\n      swap2\n      dup3\n      add\n    tag_96:\n      dup3\n      dup2\n      gt\n      iszero\n      tag_97\n      jumpi\n      dup3\n      mload\n      dup3\n      sstore\n      swap2\n      0x20\n      add\n      swap2\n      swap1\n      0x01\n      add\n      swap1\n      jump(tag_96)\n    tag_97:\n    tag_93:\n      pop\n      swap1\n      pop\n      tag_98\n      swap2\n      swap1\n      tag_99\n      jump\t// in\n    tag_98:\n      pop\n      swap1\n      jump\t// out\n    tag_99:\n    tag_100:\n      dup1\n      dup3\n      gt\n      iszero\n      tag_101\n      jumpi\n      0x00\n      dup2\n      0x00\n      swap1\n      sstore\n      pop\n      0x01\n      add\n      jump(tag_100)\n    tag_101:\n      pop\n      swap1\n      jump\t// out\n        /* \"#utility.yul\":7:419   */\n    tag_103:\n        /* \"#utility.yul\":85:90   */\n      0x00\n        /* \"#utility.yul\":110:176   */\n      tag_105\n        /* \"#utility.yul\":126:175   */\n      tag_106\n        /* \"#utility.yul\":168:174   */\n      dup5\n        /* \"#utility.yul\":126:175   */\n      tag_107\n      jump\t// in\n    tag_106:\n        /* \"#utility.yul\":110:176   */\n      tag_108\n      jump\t// in\n    tag_105:\n        /* \"#utility.yul\":101:176   */\n      swap1\n      pop\n        /* \"#utility.yul\":199:205   */\n      dup3\n        /* \"#utility.yul\":192:197   */\n      dup2\n        /* \"#utility.yul\":185:206   */\n      mstore\n        /* \"#utility.yul\":237:241   */\n      0x20\n        /* \"#utility.yul\":230:235   */\n      dup2\n        /* \"#utility.yul\":226:242   */\n      add\n        /* \"#utility.yul\":275:278   */\n      dup5\n        /* \"#utility.yul\":266:272   */\n      dup5\n        /* \"#utility.yul\":261:264   */\n      dup5\n        /* \"#utility.yul\":257:273   */\n      add\n        /* \"#utility.yul\":254:279   */\n      gt\n        /* \"#utility.yul\":251:363   */\n      iszero\n      tag_109\n      jumpi\n        /* \"#utility.yul\":282:361   */\n      tag_110\n      tag_111\n      jump\t// in\n    tag_110:\n        /* \"#utility.yul\":251:363   */\n    tag_109:\n        /* \"#utility.yul\":372:413   */\n      tag_112\n        /* \"#utility.yul\":406:412   */\n      dup5\n        /* \"#utility.yul\":401:404   */\n      dup3\n        /* \"#utility.yul\":396:399   */\n      dup6\n        /* \"#utility.yul\":372:413   */\n      tag_113\n      jump\t// in\n    tag_112:\n        /* \"#utility.yul\":91:419   */\n      pop\n        /* \"#utility.yul\":7:419   */\n      swap4\n      swap3\n      pop\n      pop\n      pop\n      jump\t// out\n        /* \"#utility.yul\":439:779   */\n    tag_114:\n        /* \"#utility.yul\":495:500   */\n      0x00\n        /* \"#utility.yul\":544:547   */\n      dup3\n        /* \"#utility.yul\":537:541   */\n      0x1f\n        /* \"#utility.yul\":529:535   */\n      dup4\n        /* \"#utility.yul\":525:542   */\n      add\n        /* \"#utility.yul\":521:548   */\n      slt\n        /* \"#utility.yul\":511:633   */\n      tag_116\n      jumpi\n        /* \"#utility.yul\":552:631   */\n      tag_117\n      tag_118\n      jump\t// in\n    tag_117:\n        /* \"#utility.yul\":511:633   */\n    tag_116:\n        /* \"#utility.yul\":669:675   */\n      dup2\n        /* \"#utility.yul\":656:676   */\n      calldataload\n        /* \"#utility.yul\":694:773   */\n      tag_119\n        /* \"#utility.yul\":769:772   */\n      dup5\n        /* \"#utility.yul\":761:767   */\n      dup3\n        /* \"#utility.yul\":754:758   */\n      0x20\n        /* \"#utility.yul\":746:752   */\n      dup7\n        /* \"#utility.yul\":742:759   */\n      add\n        /* \"#utility.yul\":694:773   */\n      tag_103\n      jump\t// in\n    tag_119:\n        /* \"#utility.yul\":685:773   */\n      swap2\n      pop\n        /* \"#utility.yul\":501:779   */\n      pop\n        /* \"#utility.yul\":439:779   */\n      swap3\n      swap2\n      pop\n      pop\n      jump\t// out\n        /* \"#utility.yul\":785:924   */\n    tag_120:\n        /* \"#utility.yul\":831:836   */\n      0x00\n        /* \"#utility.yul\":869:875   */\n      dup2\n        /* \"#utility.yul\":856:876   */\n      calldataload\n        /* \"#utility.yul\":847:876   */\n      swap1\n      pop\n        /* \"#utility.yul\":885:918   */\n      tag_122\n        /* \"#utility.yul\":912:917   */\n      dup2\n        /* \"#utility.yul\":885:918   */\n      tag_123\n      jump\t// in\n    tag_122:\n        /* \"#utility.yul\":785:924   */\n      swap3\n      swap2\n      pop\n      pop\n      jump\t// out\n        /* \"#utility.yul\":930:1439   */\n    tag_42:\n        /* \"#utility.yul\":999:1005   */\n      0x00\n        /* \"#utility.yul\":1048:1050   */\n      0x20\n        /* \"#utility.yul\":1036:1045   */\n      dup3\n        /* \"#utility.yul\":1027:1034   */\n      dup5\n        /* \"#utility.yul\":1023:1046   */\n      sub\n        /* \"#utility.yul\":1019:1051   */\n      slt\n        /* \"#utility.yul\":1016:1135   */\n      iszero\n      tag_125\n      jumpi\n        /* \"#utility.yul\":1054:1133   */\n      tag_126\n      tag_127\n      jump\t// in\n    tag_126:\n        /* \"#utility.yul\":1016:1135   */\n    tag_125:\n        /* \"#utility.yul\":1202:1203   */\n      0x00\n        /* \"#utility.yul\":1191:1200   */\n      dup3\n        /* \"#utility.yul\":1187:1204   */\n      add\n        /* \"#utility.yul\":1174:1205   */\n      calldataload\n        /* \"#utility.yul\":1232:1250   */\n      0xffffffffffffffff\n        /* \"#utility.yul\":1224:1230   */\n      dup2\n        /* \"#utility.yul\":1221:1251   */\n      gt\n        /* \"#utility.yul\":1218:1335   */\n      iszero\n      tag_128\n      jumpi\n        /* \"#utility.yul\":1254:1333   */\n      tag_129\n      tag_130\n      jump\t// in\n    tag_129:\n        /* \"#utility.yul\":1218:1335   */\n    tag_128:\n        /* \"#utility.yul\":1359:1422   */\n      tag_131\n        /* \"#utility.yul\":1414:1421   */\n      dup5\n        /* \"#utility.yul\":1405:1411   */\n      dup3\n        /* \"#utility.yul\":1394:1403   */\n      dup6\n        /* \"#utility.yul\":1390:1412   */\n      add\n        /* \"#utility.yul\":1359:1422   */\n      tag_114\n      jump\t// in\n    tag_131:\n        /* \"#utility.yul\":1349:1422   */\n      swap2\n      pop\n        /* \"#utility.yul\":1145:1432   */\n      pop\n        /* \"#utility.yul\":930:1439   */\n      swap3\n      swap2\n      pop\n      pop\n      jump\t// out\n        /* \"#utility.yul\":1445:2099   */\n    tag_47:\n        /* \"#utility.yul\":1523:1529   */\n      0x00\n        /* \"#utility.yul\":1531:1537   */\n      dup1\n        /* \"#utility.yul\":1580:1582   */\n      0x40\n        /* \"#utility.yul\":1568:1577   */\n      dup4\n        /* \"#utility.yul\":1559:1566   */\n      dup6\n        /* \"#utility.yul\":1555:1578   */\n      sub\n        /* \"#utility.yul\":1551:1583   */\n      slt\n        /* \"#utility.yul\":1548:1667   */\n      iszero\n      tag_133\n      jumpi\n        /* \"#utility.yul\":1586:1665   */\n      tag_134\n      tag_127\n      jump\t// in\n    tag_134:\n        /* \"#utility.yul\":1548:1667   */\n    tag_133:\n        /* \"#utility.yul\":1734:1735   */\n      0x00\n        /* \"#utility.yul\":1723:1732   */\n      dup4\n        /* \"#utility.yul\":1719:1736   */\n      add\n        /* \"#utility.yul\":1706:1737   */\n      calldataload\n        /* \"#utility.yul\":1764:1782   */\n      0xffffffffffffffff\n        /* \"#utility.yul\":1756:1762   */\n      dup2\n        /* \"#utility.yul\":1753:1783   */\n      gt\n        /* \"#utility.yul\":1750:1867   */\n      iszero\n      tag_135\n      jumpi\n        /* \"#utility.yul\":1786:1865   */\n      tag_136\n      tag_130\n      jump\t// in\n    tag_136:\n        /* \"#utility.yul\":1750:1867   */\n    tag_135:\n        /* \"#utility.yul\":1891:1954   */\n      tag_137\n        /* \"#utility.yul\":1946:1953   */\n      dup6\n        /* \"#utility.yul\":1937:1943   */\n      dup3\n        /* \"#utility.yul\":1926:1935   */\n      dup7\n        /* \"#utility.yul\":1922:1944   */\n      add\n        /* \"#utility.yul\":1891:1954   */\n      tag_114\n      jump\t// in\n    tag_137:\n        /* \"#utility.yul\":1881:1954   */\n      swap3\n      pop\n        /* \"#utility.yul\":1677:1964   */\n      pop\n        /* \"#utility.yul\":2003:2005   */\n      0x20\n        /* \"#utility.yul\":2029:2082   */\n      tag_138\n        /* \"#utility.yul\":2074:2081   */\n      dup6\n        /* \"#utility.yul\":2065:2071   */\n      dup3\n        /* \"#utility.yul\":2054:2063   */\n      dup7\n        /* \"#utility.yul\":2050:2072   */\n      add\n        /* \"#utility.yul\":2029:2082   */\n      tag_120\n      jump\t// in\n    tag_138:\n        /* \"#utility.yul\":2019:2082   */\n      swap2\n      pop\n        /* \"#utility.yul\":1974:2092   */\n      pop\n        /* \"#utility.yul\":1445:2099   */\n      swap3\n      pop\n      swap3\n      swap1\n      pop\n      jump\t// out\n        /* \"#utility.yul\":2105:2434   */\n    tag_29:\n        /* \"#utility.yul\":2164:2170   */\n      0x00\n        /* \"#utility.yul\":2213:2215   */\n      0x20\n        /* \"#utility.yul\":2201:2210   */\n      dup3\n        /* \"#utility.yul\":2192:2199   */\n      dup5\n        /* \"#utility.yul\":2188:2211   */\n      sub\n        /* \"#utility.yul\":2184:2216   */\n      slt\n        /* \"#utility.yul\":2181:2300   */\n      iszero\n      tag_140\n      jumpi\n        /* \"#utility.yul\":2219:2298   */\n      tag_141\n      tag_127\n      jump\t// in\n    tag_141:\n        /* \"#utility.yul\":2181:2300   */\n    tag_140:\n        /* \"#utility.yul\":2339:2340   */\n      0x00\n        /* \"#utility.yul\":2364:2417   */\n      tag_142\n        /* \"#utility.yul\":2409:2416   */\n      dup5\n        /* \"#utility.yul\":2400:2406   */\n      dup3\n        /* \"#utility.yul\":2389:2398   */\n      dup6\n        /* \"#utility.yul\":2385:2407   */\n      add\n        /* \"#utility.yul\":2364:2417   */\n      tag_120\n      jump\t// in\n    tag_142:\n        /* \"#utility.yul\":2354:2417   */\n      swap2\n      pop\n        /* \"#utility.yul\":2310:2427   */\n      pop\n        /* \"#utility.yul\":2105:2434   */\n      swap3\n      swap2\n      pop\n      pop\n      jump\t// out\n        /* \"#utility.yul\":2440:2558   */\n    tag_143:\n        /* \"#utility.yul\":2527:2551   */\n      tag_145\n        /* \"#utility.yul\":2545:2550   */\n      dup2\n        /* \"#utility.yul\":2527:2551   */\n      tag_146\n      jump\t// in\n    tag_145:\n        /* \"#utility.yul\":2522:2525   */\n      dup3\n        /* \"#utility.yul\":2515:2552   */\n      mstore\n        /* \"#utility.yul\":2440:2558   */\n      pop\n      pop\n      jump\t// out\n        /* \"#utility.yul\":2564:2673   */\n    tag_147:\n        /* \"#utility.yul\":2645:2666   */\n      tag_149\n        /* \"#utility.yul\":2660:2665   */\n      dup2\n        /* \"#utility.yul\":2645:2666   */\n      tag_150\n      jump\t// in\n    tag_149:\n        /* \"#utility.yul\":2640:2643   */\n      dup3\n        /* \"#utility.yul\":2633:2667   */\n      mstore\n        /* \"#utility.yul\":2564:2673   */\n      pop\n      pop\n      jump\t// out\n        /* \"#utility.yul\":2679:3043   */\n    tag_151:\n        /* \"#utility.yul\":2767:2770   */\n      0x00\n        /* \"#utility.yul\":2795:2834   */\n      tag_153\n        /* \"#utility.yul\":2828:2833   */\n      dup3\n        /* \"#utility.yul\":2795:2834   */\n      tag_154\n      jump\t// in\n    tag_153:\n        /* \"#utility.yul\":2850:2921   */\n      tag_155\n        /* \"#utility.yul\":2914:2920   */\n      dup2\n        /* \"#utility.yul\":2909:2912   */\n      dup6\n        /* \"#utility.yul\":2850:2921   */\n      tag_156\n      jump\t// in\n    tag_155:\n        /* \"#utility.yul\":2843:2921   */\n      swap4\n      pop\n        /* \"#utility.yul\":2930:2982   */\n      tag_157\n        /* \"#utility.yul\":2975:2981   */\n      dup2\n        /* \"#utility.yul\":2970:2973   */\n      dup6\n        /* \"#utility.yul\":2963:2967   */\n      0x20\n        /* \"#utility.yul\":2956:2961   */\n      dup7\n        /* \"#utility.yul\":2952:2968   */\n      add\n        /* \"#utility.yul\":2930:2982   */\n      tag_158\n      jump\t// in\n    tag_157:\n        /* \"#utility.yul\":3007:3036   */\n      tag_159\n        /* \"#utility.yul\":3029:3035   */\n      dup2\n        /* \"#utility.yul\":3007:3036   */\n      tag_160\n      jump\t// in\n    tag_159:\n        /* \"#utility.yul\":3002:3005   */\n      dup5\n        /* \"#utility.yul\":2998:3037   */\n      add\n        /* \"#utility.yul\":2991:3037   */\n      swap2\n      pop\n        /* \"#utility.yul\":2771:3043   */\n      pop\n        /* \"#utility.yul\":2679:3043   */\n      swap3\n      swap2\n      pop\n      pop\n      jump\t// out\n        /* \"#utility.yul\":3049:3426   */\n    tag_161:\n        /* \"#utility.yul\":3155:3158   */\n      0x00\n        /* \"#utility.yul\":3183:3222   */\n      tag_163\n        /* \"#utility.yul\":3216:3221   */\n      dup3\n        /* \"#utility.yul\":3183:3222   */\n      tag_154\n      jump\t// in\n    tag_163:\n        /* \"#utility.yul\":3238:3327   */\n      tag_164\n        /* \"#utility.yul\":3320:3326   */\n      dup2\n        /* \"#utility.yul\":3315:3318   */\n      dup6\n        /* \"#utility.yul\":3238:3327   */\n      tag_165\n      jump\t// in\n    tag_164:\n        /* \"#utility.yul\":3231:3327   */\n      swap4\n      pop\n        /* \"#utility.yul\":3336:3388   */\n      tag_166\n        /* \"#utility.yul\":3381:3387   */\n      dup2\n        /* \"#utility.yul\":3376:3379   */\n      dup6\n        /* \"#utility.yul\":3369:3373   */\n      0x20\n        /* \"#utility.yul\":3362:3367   */\n      dup7\n        /* \"#utility.yul\":3358:3374   */\n      add\n        /* \"#utility.yul\":3336:3388   */\n      tag_158\n      jump\t// in\n    tag_166:\n        /* \"#utility.yul\":3413:3419   */\n      dup1\n        /* \"#utility.yul\":3408:3411   */\n      dup5\n        /* \"#utility.yul\":3404:3420   */\n      add\n        /* \"#utility.yul\":3397:3420   */\n      swap2\n      pop\n        /* \"#utility.yul\":3159:3426   */\n      pop\n        /* \"#utility.yul\":3049:3426   */\n      swap3\n      swap2\n      pop\n      pop\n      jump\t// out\n        /* \"#utility.yul\":3432:3798   */\n    tag_167:\n        /* \"#utility.yul\":3574:3577   */\n      0x00\n        /* \"#utility.yul\":3595:3662   */\n      tag_169\n        /* \"#utility.yul\":3659:3661   */\n      0x19\n        /* \"#utility.yul\":3654:3657   */\n      dup4\n        /* \"#utility.yul\":3595:3662   */\n      tag_156\n      jump\t// in\n    tag_169:\n        /* \"#utility.yul\":3588:3662   */\n      swap2\n      pop\n        /* \"#utility.yul\":3671:3764   */\n      tag_170\n        /* \"#utility.yul\":3760:3763   */\n      dup3\n        /* \"#utility.yul\":3671:3764   */\n      tag_171\n      jump\t// in\n    tag_170:\n        /* \"#utility.yul\":3789:3791   */\n      0x20\n        /* \"#utility.yul\":3784:3787   */\n      dup3\n        /* \"#utility.yul\":3780:3792   */\n      add\n        /* \"#utility.yul\":3773:3792   */\n      swap1\n      pop\n        /* \"#utility.yul\":3432:3798   */\n      swap2\n      swap1\n      pop\n      jump\t// out\n        /* \"#utility.yul\":3804:3922   */\n    tag_172:\n        /* \"#utility.yul\":3891:3915   */\n      tag_174\n        /* \"#utility.yul\":3909:3914   */\n      dup2\n        /* \"#utility.yul\":3891:3915   */\n      tag_175\n      jump\t// in\n    tag_174:\n        /* \"#utility.yul\":3886:3889   */\n      dup3\n        /* \"#utility.yul\":3879:3916   */\n      mstore\n        /* \"#utility.yul\":3804:3922   */\n      pop\n      pop\n      jump\t// out\n        /* \"#utility.yul\":3928:4203   */\n    tag_82:\n        /* \"#utility.yul\":4060:4063   */\n      0x00\n        /* \"#utility.yul\":4082:4177   */\n      tag_177\n        /* \"#utility.yul\":4173:4176   */\n      dup3\n        /* \"#utility.yul\":4164:4170   */\n      dup5\n        /* \"#utility.yul\":4082:4177   */\n      tag_161\n      jump\t// in\n    tag_177:\n        /* \"#utility.yul\":4075:4177   */\n      swap2\n      pop\n        /* \"#utility.yul\":4194:4197   */\n      dup2\n        /* \"#utility.yul\":4187:4197   */\n      swap1\n      pop\n        /* \"#utility.yul\":3928:4203   */\n      swap3\n      swap2\n      pop\n      pop\n      jump\t// out\n        /* \"#utility.yul\":4209:4431   */\n    tag_22:\n        /* \"#utility.yul\":4302:4306   */\n      0x00\n        /* \"#utility.yul\":4340:4342   */\n      0x20\n        /* \"#utility.yul\":4329:4338   */\n      dup3\n        /* \"#utility.yul\":4325:4343   */\n      add\n        /* \"#utility.yul\":4317:4343   */\n      swap1\n      pop\n        /* \"#utility.yul\":4353:4424   */\n      tag_179\n        /* \"#utility.yul\":4421:4422   */\n      0x00\n        /* \"#utility.yul\":4410:4419   */\n      dup4\n        /* \"#utility.yul\":4406:4423   */\n      add\n        /* \"#utility.yul\":4397:4403   */\n      dup5\n        /* \"#utility.yul\":4353:4424   */\n      tag_143\n      jump\t// in\n    tag_179:\n        /* \"#utility.yul\":4209:4431   */\n      swap3\n      swap2\n      pop\n      pop\n      jump\t// out\n        /* \"#utility.yul\":4437:4647   */\n    tag_39:\n        /* \"#utility.yul\":4524:4528   */\n      0x00\n        /* \"#utility.yul\":4562:4564   */\n      0x20\n        /* \"#utility.yul\":4551:4560   */\n      dup3\n        /* \"#utility.yul\":4547:4565   */\n      add\n        /* \"#utility.yul\":4539:4565   */\n      swap1\n      pop\n        /* \"#utility.yul\":4575:4640   */\n      tag_181\n        /* \"#utility.yul\":4637:4638   */\n      0x00\n        /* \"#utility.yul\":4626:4635   */\n      dup4\n        /* \"#utility.yul\":4622:4639   */\n      add\n        /* \"#utility.yul\":4613:4619   */\n      dup5\n        /* \"#utility.yul\":4575:4640   */\n      tag_147\n      jump\t// in\n    tag_181:\n        /* \"#utility.yul\":4437:4647   */\n      swap3\n      swap2\n      pop\n      pop\n      jump\t// out\n        /* \"#utility.yul\":4653:4966   */\n    tag_18:\n        /* \"#utility.yul\":4766:4770   */\n      0x00\n        /* \"#utility.yul\":4804:4806   */\n      0x20\n        /* \"#utility.yul\":4793:4802   */\n      dup3\n        /* \"#utility.yul\":4789:4807   */\n      add\n        /* \"#utility.yul\":4781:4807   */\n      swap1\n      pop\n        /* \"#utility.yul\":4853:4862   */\n      dup2\n        /* \"#utility.yul\":4847:4851   */\n      dup2\n        /* \"#utility.yul\":4843:4863   */\n      sub\n        /* \"#utility.yul\":4839:4840   */\n      0x00\n        /* \"#utility.yul\":4828:4837   */\n      dup4\n        /* \"#utility.yul\":4824:4841   */\n      add\n        /* \"#utility.yul\":4817:4864   */\n      mstore\n        /* \"#utility.yul\":4881:4959   */\n      tag_183\n        /* \"#utility.yul\":4954:4958   */\n      dup2\n        /* \"#utility.yul\":4945:4951   */\n      dup5\n        /* \"#utility.yul\":4881:4959   */\n      tag_151\n      jump\t// in\n    tag_183:\n        /* \"#utility.yul\":4873:4959   */\n      swap1\n      pop\n        /* \"#utility.yul\":4653:4966   */\n      swap3\n      swap2\n      pop\n      pop\n      jump\t// out\n        /* \"#utility.yul\":4972:5391   */\n    tag_85:\n        /* \"#utility.yul\":5138:5142   */\n      0x00\n        /* \"#utility.yul\":5176:5178   */\n      0x20\n        /* \"#utility.yul\":5165:5174   */\n      dup3\n        /* \"#utility.yul\":5161:5179   */\n      add\n        /* \"#utility.yul\":5153:5179   */\n      swap1\n      pop\n        /* \"#utility.yul\":5225:5234   */\n      dup2\n        /* \"#utility.yul\":5219:5223   */\n      dup2\n        /* \"#utility.yul\":5215:5235   */\n      sub\n        /* \"#utility.yul\":5211:5212   */\n      0x00\n        /* \"#utility.yul\":5200:5209   */\n      dup4\n        /* \"#utility.yul\":5196:5213   */\n      add\n        /* \"#utility.yul\":5189:5236   */\n      mstore\n        /* \"#utility.yul\":5253:5384   */\n      tag_185\n        /* \"#utility.yul\":5379:5383   */\n      dup2\n        /* \"#utility.yul\":5253:5384   */\n      tag_167\n      jump\t// in\n    tag_185:\n        /* \"#utility.yul\":5245:5384   */\n      swap1\n      pop\n        /* \"#utility.yul\":4972:5391   */\n      swap2\n      swap1\n      pop\n      jump\t// out\n        /* \"#utility.yul\":5397:5619   */\n    tag_26:\n        /* \"#utility.yul\":5490:5494   */\n      0x00\n        /* \"#utility.yul\":5528:5530   */\n      0x20\n        /* \"#utility.yul\":5517:5526   */\n      dup3\n        /* \"#utility.yul\":5513:5531   */\n      add\n        /* \"#utility.yul\":5505:5531   */\n      swap1\n      pop\n        /* \"#utility.yul\":5541:5612   */\n      tag_187\n        /* \"#utility.yul\":5609:5610   */\n      0x00\n        /* \"#utility.yul\":5598:5607   */\n      dup4\n        /* \"#utility.yul\":5594:5611   */\n      add\n        /* \"#utility.yul\":5585:5591   */\n      dup5\n        /* \"#utility.yul\":5541:5612   */\n      tag_172\n      jump\t// in\n    tag_187:\n        /* \"#utility.yul\":5397:5619   */\n      swap3\n      swap2\n      pop\n      pop\n      jump\t// out\n        /* \"#utility.yul\":5625:5754   */\n    tag_108:\n        /* \"#utility.yul\":5659:5665   */\n      0x00\n        /* \"#utility.yul\":5686:5706   */\n      tag_189\n      tag_190\n      jump\t// in\n    tag_189:\n        /* \"#utility.yul\":5676:5706   */\n      swap1\n      pop\n        /* \"#utility.yul\":5715:5748   */\n      tag_191\n        /* \"#utility.yul\":5743:5747   */\n      dup3\n        /* \"#utility.yul\":5735:5741   */\n      dup3\n        /* \"#utility.yul\":5715:5748   */\n      tag_192\n      jump\t// in\n    tag_191:\n        /* \"#utility.yul\":5625:5754   */\n      swap2\n      swap1\n      pop\n      jump\t// out\n        /* \"#utility.yul\":5760:5835   */\n    tag_190:\n        /* \"#utility.yul\":5793:5799   */\n      0x00\n        /* \"#utility.yul\":5826:5828   */\n      0x40\n        /* \"#utility.yul\":5820:5829   */\n      mload\n        /* \"#utility.yul\":5810:5829   */\n      swap1\n      pop\n        /* \"#utility.yul\":5760:5835   */\n      swap1\n      jump\t// out\n        /* \"#utility.yul\":5841:6149   */\n    tag_107:\n        /* \"#utility.yul\":5903:5907   */\n      0x00\n        /* \"#utility.yul\":5993:6011   */\n      0xffffffffffffffff\n        /* \"#utility.yul\":5985:5991   */\n      dup3\n        /* \"#utility.yul\":5982:6012   */\n      gt\n        /* \"#utility.yul\":5979:6035   */\n      iszero\n      tag_195\n      jumpi\n        /* \"#utility.yul\":6015:6033   */\n      tag_196\n      tag_197\n      jump\t// in\n    tag_196:\n        /* \"#utility.yul\":5979:6035   */\n    tag_195:\n        /* \"#utility.yul\":6053:6082   */\n      tag_198\n        /* \"#utility.yul\":6075:6081   */\n      dup3\n        /* \"#utility.yul\":6053:6082   */\n      tag_160\n      jump\t// in\n    tag_198:\n        /* \"#utility.yul\":6045:6082   */\n      swap1\n      pop\n        /* \"#utility.yul\":6137:6141   */\n      0x20\n        /* \"#utility.yul\":6131:6135   */\n      dup2\n        /* \"#utility.yul\":6127:6142   */\n      add\n        /* \"#utility.yul\":6119:6142   */\n      swap1\n      pop\n        /* \"#utility.yul\":5841:6149   */\n      swap2\n      swap1\n      pop\n      jump\t// out\n        /* \"#utility.yul\":6155:6254   */\n    tag_154:\n        /* \"#utility.yul\":6207:6213   */\n      0x00\n        /* \"#utility.yul\":6241:6246   */\n      dup2\n        /* \"#utility.yul\":6235:6247   */\n      mload\n        /* \"#utility.yul\":6225:6247   */\n      swap1\n      pop\n        /* \"#utility.yul\":6155:6254   */\n      swap2\n      swap1\n      pop\n      jump\t// out\n        /* \"#utility.yul\":6260:6429   */\n    tag_156:\n        /* \"#utility.yul\":6344:6355   */\n      0x00\n        /* \"#utility.yul\":6378:6384   */\n      dup3\n        /* \"#utility.yul\":6373:6376   */\n      dup3\n        /* \"#utility.yul\":6366:6385   */\n      mstore\n        /* \"#utility.yul\":6418:6422   */\n      0x20\n        /* \"#utility.yul\":6413:6416   */\n      dup3\n        /* \"#utility.yul\":6409:6423   */\n      add\n        /* \"#utility.yul\":6394:6423   */\n      swap1\n      pop\n        /* \"#utility.yul\":6260:6429   */\n      swap3\n      swap2\n      pop\n      pop\n      jump\t// out\n        /* \"#utility.yul\":6435:6583   */\n    tag_165:\n        /* \"#utility.yul\":6537:6548   */\n      0x00\n        /* \"#utility.yul\":6574:6577   */\n      dup2\n        /* \"#utility.yul\":6559:6577   */\n      swap1\n      pop\n        /* \"#utility.yul\":6435:6583   */\n      swap3\n      swap2\n      pop\n      pop\n      jump\t// out\n        /* \"#utility.yul\":6589:6685   */\n    tag_146:\n        /* \"#utility.yul\":6626:6633   */\n      0x00\n        /* \"#utility.yul\":6655:6679   */\n      tag_203\n        /* \"#utility.yul\":6673:6678   */\n      dup3\n        /* \"#utility.yul\":6655:6679   */\n      tag_204\n      jump\t// in\n    tag_203:\n        /* \"#utility.yul\":6644:6679   */\n      swap1\n      pop\n        /* \"#utility.yul\":6589:6685   */\n      swap2\n      swap1\n      pop\n      jump\t// out\n        /* \"#utility.yul\":6691:6781   */\n    tag_150:\n        /* \"#utility.yul\":6725:6732   */\n      0x00\n        /* \"#utility.yul\":6768:6773   */\n      dup2\n        /* \"#utility.yul\":6761:6774   */\n      iszero\n        /* \"#utility.yul\":6754:6775   */\n      iszero\n        /* \"#utility.yul\":6743:6775   */\n      swap1\n      pop\n        /* \"#utility.yul\":6691:6781   */\n      swap2\n      swap1\n      pop\n      jump\t// out\n        /* \"#utility.yul\":6787:6913   */\n    tag_204:\n        /* \"#utility.yul\":6824:6831   */\n      0x00\n        /* \"#utility.yul\":6864:6906   */\n      0xffffffffffffffffffffffffffffffffffffffff\n        /* \"#utility.yul\":6857:6862   */\n      dup3\n        /* \"#utility.yul\":6853:6907   */\n      and\n        /* \"#utility.yul\":6842:6907   */\n      swap1\n      pop\n        /* \"#utility.yul\":6787:6913   */\n      swap2\n      swap1\n      pop\n      jump\t// out\n        /* \"#utility.yul\":6919:6996   */\n    tag_175:\n        /* \"#utility.yul\":6956:6963   */\n      0x00\n        /* \"#utility.yul\":6985:6990   */\n      dup2\n        /* \"#utility.yul\":6974:6990   */\n      swap1\n      pop\n        /* \"#utility.yul\":6919:6996   */\n      swap2\n      swap1\n      pop\n      jump\t// out\n        /* \"#utility.yul\":7002:7156   */\n    tag_113:\n        /* \"#utility.yul\":7086:7092   */\n      dup3\n        /* \"#utility.yul\":7081:7084   */\n      dup2\n        /* \"#utility.yul\":7076:7079   */\n      dup4\n        /* \"#utility.yul\":7063:7093   */\n      calldatacopy\n        /* \"#utility.yul\":7148:7149   */\n      0x00\n        /* \"#utility.yul\":7139:7145   */\n      dup4\n        /* \"#utility.yul\":7134:7137   */\n      dup4\n        /* \"#utility.yul\":7130:7146   */\n      add\n        /* \"#utility.yul\":7123:7150   */\n      mstore\n        /* \"#utility.yul\":7002:7156   */\n      pop\n      pop\n      pop\n      jump\t// out\n        /* \"#utility.yul\":7162:7469   */\n    tag_158:\n        /* \"#utility.yul\":7230:7231   */\n      0x00\n        /* \"#utility.yul\":7240:7353   */\n    tag_210:\n        /* \"#utility.yul\":7254:7260   */\n      dup4\n        /* \"#utility.yul\":7251:7252   */\n      dup2\n        /* \"#utility.yul\":7248:7261   */\n      lt\n        /* \"#utility.yul\":7240:7353   */\n      iszero\n      tag_212\n      jumpi\n        /* \"#utility.yul\":7339:7340   */\n      dup1\n        /* \"#utility.yul\":7334:7337   */\n      dup3\n        /* \"#utility.yul\":7330:7341   */\n      add\n        /* \"#utility.yul\":7324:7342   */\n      mload\n        /* \"#utility.yul\":7320:7321   */\n      dup2\n        /* \"#utility.yul\":7315:7318   */\n      dup5\n        /* \"#utility.yul\":7311:7322   */\n      add\n        /* \"#utility.yul\":7304:7343   */\n      mstore\n        /* \"#utility.yul\":7276:7278   */\n      0x20\n        /* \"#utility.yul\":7273:7274   */\n      dup2\n        /* \"#utility.yul\":7269:7279   */\n      add\n        /* \"#utility.yul\":7264:7279   */\n      swap1\n      pop\n        /* \"#utility.yul\":7240:7353   */\n      jump(tag_210)\n    tag_212:\n        /* \"#utility.yul\":7371:7377   */\n      dup4\n        /* \"#utility.yul\":7368:7369   */\n      dup2\n        /* \"#utility.yul\":7365:7378   */\n      gt\n        /* \"#utility.yul\":7362:7463   */\n      iszero\n      tag_213\n      jumpi\n        /* \"#utility.yul\":7451:7452   */\n      0x00\n        /* \"#utility.yul\":7442:7448   */\n      dup5\n        /* \"#utility.yul\":7437:7440   */\n      dup5\n        /* \"#utility.yul\":7433:7449   */\n      add\n        /* \"#utility.yul\":7426:7453   */\n      mstore\n        /* \"#utility.yul\":7362:7463   */\n    tag_213:\n        /* \"#utility.yul\":7211:7469   */\n      pop\n        /* \"#utility.yul\":7162:7469   */\n      pop\n      pop\n      pop\n      jump\t// out\n        /* \"#utility.yul\":7475:7795   */\n    tag_60:\n        /* \"#utility.yul\":7519:7525   */\n      0x00\n        /* \"#utility.yul\":7556:7557   */\n      0x02\n        /* \"#utility.yul\":7550:7554   */\n      dup3\n        /* \"#utility.yul\":7546:7558   */\n      div\n        /* \"#utility.yul\":7536:7558   */\n      swap1\n      pop\n        /* \"#utility.yul\":7603:7604   */\n      0x01\n        /* \"#utility.yul\":7597:7601   */\n      dup3\n        /* \"#utility.yul\":7593:7605   */\n      and\n        /* \"#utility.yul\":7624:7642   */\n      dup1\n        /* \"#utility.yul\":7614:7695   */\n      tag_215\n      jumpi\n        /* \"#utility.yul\":7680:7684   */\n      0x7f\n        /* \"#utility.yul\":7672:7678   */\n      dup3\n        /* \"#utility.yul\":7668:7685   */\n      and\n        /* \"#utility.yul\":7658:7685   */\n      swap2\n      pop\n        /* \"#utility.yul\":7614:7695   */\n    tag_215:\n        /* \"#utility.yul\":7742:7744   */\n      0x20\n        /* \"#utility.yul\":7734:7740   */\n      dup3\n        /* \"#utility.yul\":7731:7745   */\n      lt\n        /* \"#utility.yul\":7711:7729   */\n      dup2\n        /* \"#utility.yul\":7708:7746   */\n      eq\n        /* \"#utility.yul\":7705:7789   */\n      iszero\n      tag_216\n      jumpi\n        /* \"#utility.yul\":7761:7779   */\n      tag_217\n      tag_218\n      jump\t// in\n    tag_217:\n        /* \"#utility.yul\":7705:7789   */\n    tag_216:\n        /* \"#utility.yul\":7526:7795   */\n      pop\n        /* \"#utility.yul\":7475:7795   */\n      swap2\n      swap1\n      pop\n      jump\t// out\n        /* \"#utility.yul\":7801:8082   */\n    tag_192:\n        /* \"#utility.yul\":7884:7911   */\n      tag_220\n        /* \"#utility.yul\":7906:7910   */\n      dup3\n        /* \"#utility.yul\":7884:7911   */\n      tag_160\n      jump\t// in\n    tag_220:\n        /* \"#utility.yul\":7876:7882   */\n      dup2\n        /* \"#utility.yul\":7872:7912   */\n      add\n        /* \"#utility.yul\":8014:8020   */\n      dup2\n        /* \"#utility.yul\":8002:8012   */\n      dup2\n        /* \"#utility.yul\":7999:8021   */\n      lt\n        /* \"#utility.yul\":7978:7996   */\n      0xffffffffffffffff\n        /* \"#utility.yul\":7966:7976   */\n      dup3\n        /* \"#utility.yul\":7963:7997   */\n      gt\n        /* \"#utility.yul\":7960:8022   */\n      or\n        /* \"#utility.yul\":7957:8045   */\n      iszero\n      tag_221\n      jumpi\n        /* \"#utility.yul\":8025:8043   */\n      tag_222\n      tag_197\n      jump\t// in\n    tag_222:\n        /* \"#utility.yul\":7957:8045   */\n    tag_221:\n        /* \"#utility.yul\":8065:8075   */\n      dup1\n        /* \"#utility.yul\":8061:8063   */\n      0x40\n        /* \"#utility.yul\":8054:8076   */\n      mstore\n        /* \"#utility.yul\":7844:8082   */\n      pop\n        /* \"#utility.yul\":7801:8082   */\n      pop\n      pop\n      jump\t// out\n        /* \"#utility.yul\":8088:8268   */\n    tag_218:\n        /* \"#utility.yul\":8136:8213   */\n      0x4e487b7100000000000000000000000000000000000000000000000000000000\n        /* \"#utility.yul\":8133:8134   */\n      0x00\n        /* \"#utility.yul\":8126:8214   */\n      mstore\n        /* \"#utility.yul\":8233:8237   */\n      0x22\n        /* \"#utility.yul\":8230:8231   */\n      0x04\n        /* \"#utility.yul\":8223:8238   */\n      mstore\n        /* \"#utility.yul\":8257:8261   */\n      0x24\n        /* \"#utility.yul\":8254:8255   */\n      0x00\n        /* \"#utility.yul\":8247:8262   */\n      revert\n        /* \"#utility.yul\":8274:8454   */\n    tag_197:\n        /* \"#utility.yul\":8322:8399   */\n      0x4e487b7100000000000000000000000000000000000000000000000000000000\n        /* \"#utility.yul\":8319:8320   */\n      0x00\n        /* \"#utility.yul\":8312:8400   */\n      mstore\n        /* \"#utility.yul\":8419:8423   */\n      0x41\n        /* \"#utility.yul\":8416:8417   */\n      0x04\n        /* \"#utility.yul\":8409:8424   */\n      mstore\n        /* \"#utility.yul\":8443:8447   */\n      0x24\n        /* \"#utility.yul\":8440:8441   */\n      0x00\n        /* \"#utility.yul\":8433:8448   */\n      revert\n        /* \"#utility.yul\":8460:8577   */\n    tag_118:\n        /* \"#utility.yul\":8569:8570   */\n      0x00\n        /* \"#utility.yul\":8566:8567   */\n      dup1\n        /* \"#utility.yul\":8559:8571   */\n      revert\n        /* \"#utility.yul\":8583:8700   */\n    tag_111:\n        /* \"#utility.yul\":8692:8693   */\n      0x00\n        /* \"#utility.yul\":8689:8690   */\n      dup1\n        /* \"#utility.yul\":8682:8694   */\n      revert\n        /* \"#utility.yul\":8706:8823   */\n    tag_130:\n        /* \"#utility.yul\":8815:8816   */\n      0x00\n        /* \"#utility.yul\":8812:8813   */\n      dup1\n        /* \"#utility.yul\":8805:8817   */\n      revert\n        /* \"#utility.yul\":8829:8946   */\n    tag_127:\n        /* \"#utility.yul\":8938:8939   */\n      0x00\n        /* \"#utility.yul\":8935:8936   */\n      dup1\n        /* \"#utility.yul\":8928:8940   */\n      revert\n        /* \"#utility.yul\":8952:9054   */\n    tag_160:\n        /* \"#utility.yul\":8993:8999   */\n      0x00\n        /* \"#utility.yul\":9044:9046   */\n      0x1f\n        /* \"#utility.yul\":9040:9047   */\n      not\n        /* \"#utility.yul\":9035:9037   */\n      0x1f\n        /* \"#utility.yul\":9028:9033   */\n      dup4\n        /* \"#utility.yul\":9024:9038   */\n      add\n        /* \"#utility.yul\":9020:9048   */\n      and\n        /* \"#utility.yul\":9010:9048   */\n      swap1\n      pop\n        /* \"#utility.yul\":8952:9054   */\n      swap2\n      swap1\n      pop\n      jump\t// out\n        /* \"#utility.yul\":9060:9235   */\n    tag_171:\n        /* \"#utility.yul\":9200:9227   */\n      0x546f6e7920616c72656164792068617320746869732063617200000000000000\n        /* \"#utility.yul\":9196:9197   */\n      0x00\n        /* \"#utility.yul\":9188:9194   */\n      dup3\n        /* \"#utility.yul\":9184:9198   */\n      add\n        /* \"#utility.yul\":9177:9228   */\n      mstore\n        /* \"#utility.yul\":9060:9235   */\n      pop\n      jump\t// out\n        /* \"#utility.yul\":9241:9363   */\n    tag_123:\n        /* \"#utility.yul\":9314:9338   */\n      tag_232\n        /* \"#utility.yul\":9332:9337   */\n      dup2\n        /* \"#utility.yul\":9314:9338   */\n      tag_175\n      jump\t// in\n    tag_232:\n        /* \"#utility.yul\":9307:9312   */\n      dup2\n        /* \"#utility.yul\":9304:9339   */\n      eq\n        /* \"#utility.yul\":9294:9357   */\n      tag_233\n      jumpi\n        /* \"#utility.yul\":9353:9354   */\n      0x00\n        /* \"#utility.yul\":9350:9351   */\n      dup1\n        /* \"#utility.yul\":9343:9355   */\n      revert\n        /* \"#utility.yul\":9294:9357   */\n    tag_233:\n        /* \"#utility.yul\":9241:9363   */\n      pop\n      jump\t// out\n\n    auxdata: 0xa2646970667358221220f8865838e7416e617273007809e764015c7bd51b7ee8c8920a8cf6afd22a2b5c64736f6c63430008070033\n}\n",
				"bytecode": {
					"linkReferences": {},
					"object": "60806040526040518060400160405280600b81526020017f546f6e792053747261726b0000000000000000000000000000000000000000008152506000908051906020019062000051929190620001c2565b5060306001556001600260006101000a81548160ff02191690831515021790555060405180606001604052806040518060400160405280600781526020017f706c6179626f790000000000000000000000000000000000000000000000000081525081526020016040518060400160405280600881526020017f656e67696e65657200000000000000000000000000000000000000000000000081525081526020016040518060400160405280600481526020017f6865726f0000000000000000000000000000000000000000000000000000000081525081525060049060036200013e92919062000253565b503480156200014c57600080fd5b506040516200104738038062001047833981810160405281019062000172919062000375565b8160038190555080600560006101000a81548173ffffffffffffffffffffffffffffffffffffffff021916908373ffffffffffffffffffffffffffffffffffffffff160217905550505062000498565b828054620001d090620003fa565b90600052602060002090601f016020900481019282620001f4576000855562000240565b82601f106200020f57805160ff191683800117855562000240565b8280016001018555821562000240579182015b828111156200023f57825182559160200191906001019062000222565b5b5090506200024f9190620002ba565b5090565b828054828255906000526020600020908101928215620002a7579160200282015b82811115620002a657825182908051906020019062000295929190620001c2565b509160200191906001019062000274565b5b509050620002b69190620002d9565b5090565b5b80821115620002d5576000816000905550600101620002bb565b5090565b5b80821115620002fd5760008181620002f3919062000301565b50600101620002da565b5090565b5080546200030f90620003fa565b6000825580601f1062000323575062000344565b601f016020900490600052602060002090810190620003439190620002ba565b5b50565b600081519050620003588162000464565b92915050565b6000815190506200036f816200047e565b92915050565b600080604083850312156200038f576200038e6200045f565b5b60006200039f858286016200035e565b9250506020620003b28582860162000347565b9150509250929050565b6000620003c982620003d0565b9050919050565b600073ffffffffffffffffffffffffffffffffffffffff82169050919050565b6000819050919050565b600060028204905060018216806200041357607f821691505b602082108114156200042a576200042962000430565b5b50919050565b7f4e487b7100000000000000000000000000000000000000000000000000000000600052602260045260246000fd5b600080fd5b6200046f81620003bc565b81146200047b57600080fd5b50565b6200048981620003f0565b81146200049557600080fd5b50565b610b9f80620004a86000396000f3fe608060405234801561001057600080fd5b50600436106100a95760003560e01c8063654a573c11610071578063654a573c14610168578063853320e314610186578063965ac0c5146101b6578063b69ef8a8146101d2578063cfb5843c146101f0578063fcc9e5c51461020c576100a9565b806306fdde03146100ae57806313299604146100cc578063262a9dff146100ea578063449549d5146101085780635cd836a314610138575b600080fd5b6100b661023c565b6040516100c391906108df565b60405180910390f35b6100d46102ca565b6040516100e191906108a9565b60405180910390f35b6100f26102f4565b6040516100ff9190610921565b60405180910390f35b610122600480360381019061011d91906107ab565b6102fa565b60405161012f91906108df565b60405180910390f35b610152600480360381019061014d91906107ab565b6103a6565b60405161015f91906108df565b60405180910390f35b610170610452565b60405161017d91906108c4565b60405180910390f35b6101a0600480360381019061019b9190610706565b610465565b6040516101ad9190610921565b60405180910390f35b6101d060048036038101906101cb919061074f565b610493565b005b6101da610563565b6040516101e79190610921565b60405180910390f35b61020a60048036038101906102059190610706565b610569565b005b61022660048036038101906102219190610706565b6105a8565b60405161023391906108c4565b60405180910390f35b6000805461024990610a43565b80601f016020809104026020016040519081016040528092919081815260200182805461027590610a43565b80156102c25780601f10610297576101008083540402835291602001916102c2565b820191906000526020600020905b8154815290600101906020018083116102a557829003601f168201915b505050505081565b6000600560009054906101000a900473ffffffffffffffffffffffffffffffffffffffff16905090565b60015481565b6006818154811061030a57600080fd5b90600052602060002001600091509050805461032590610a43565b80601f016020809104026020016040519081016040528092919081815260200182805461035190610a43565b801561039e5780601f106103735761010080835404028352916020019161039e565b820191906000526020600020905b81548152906001019060200180831161038157829003601f168201915b505050505081565b600481815481106103b657600080fd5b9060005260206000200160009150905080546103d190610a43565b80601f01602080910402602001604051908101604052809291908181526020018280546103fd90610a43565b801561044a5780601f1061041f5761010080835404028352916020019161044a565b820191906000526020600020905b81548152906001019060200180831161042d57829003601f168201915b505050505081565b600260009054906101000a900460ff1681565b6007818051602081018201805184825260208301602085012081835280955050505050506000915090505481565b600015156008836040516104a79190610892565b908152602001604051809103902060009054906101000a900460ff16151514610505576040517f08c379a00000000000000000000000000000000000000000000000000000000081526004016104fc90610901565b60405180910390fd5b806007836040516105169190610892565b908152602001604051809103902081905550600160088360405161053a9190610892565b908152602001604051809103902060006101000a81548160ff0219169083151502179055505050565b60035481565b6006819080600181540180825580915050600190039060005260206000200160009091909190915090805190602001906105a49291906105de565b5050565b6008818051602081018201805184825260208301602085012081835280955050505050506000915054906101000a900460ff1681565b8280546105ea90610a43565b90600052602060002090601f01602090048101928261060c5760008555610653565b82601f1061062557805160ff1916838001178555610653565b82800160010185558215610653579182015b82811115610652578251825591602001919060010190610637565b5b5090506106609190610664565b5090565b5b8082111561067d576000816000905550600101610665565b5090565b600061069461068f84610961565b61093c565b9050828152602081018484840111156106b0576106af610b09565b5b6106bb848285610a01565b509392505050565b600082601f8301126106d8576106d7610b04565b5b81356106e8848260208601610681565b91505092915050565b60008135905061070081610b52565b92915050565b60006020828403121561071c5761071b610b13565b5b600082013567ffffffffffffffff81111561073a57610739610b0e565b5b610746848285016106c3565b91505092915050565b6000806040838503121561076657610765610b13565b5b600083013567ffffffffffffffff81111561078457610783610b0e565b5b610790858286016106c3565b92505060206107a1858286016106f1565b9150509250929050565b6000602082840312156107c1576107c0610b13565b5b60006107cf848285016106f1565b91505092915050565b6107e1816109b9565b82525050565b6107f0816109cb565b82525050565b600061080182610992565b61080b818561099d565b935061081b818560208601610a10565b61082481610b18565b840191505092915050565b600061083a82610992565b61084481856109ae565b9350610854818560208601610a10565b80840191505092915050565b600061086d60198361099d565b915061087882610b29565b602082019050919050565b61088c816109f7565b82525050565b600061089e828461082f565b915081905092915050565b60006020820190506108be60008301846107d8565b92915050565b60006020820190506108d960008301846107e7565b92915050565b600060208201905081810360008301526108f981846107f6565b905092915050565b6000602082019050818103600083015261091a81610860565b9050919050565b60006020820190506109366000830184610883565b92915050565b6000610946610957565b90506109528282610a75565b919050565b6000604051905090565b600067ffffffffffffffff82111561097c5761097b610ad5565b5b61098582610b18565b9050602081019050919050565b600081519050919050565b600082825260208201905092915050565b600081905092915050565b60006109c4826109d7565b9050919050565b60008115159050919050565b600073ffffffffffffffffffffffffffffffffffffffff82169050919050565b6000819050919050565b82818337600083830152505050565b60005b83811015610a2e578082015181840152602081019050610a13565b83811115610a3d576000848401525b50505050565b60006002820490506001821680610a5b57607f821691505b60208210811415610a6f57610a6e610aa6565b5b50919050565b610a7e82610b18565b810181811067ffffffffffffffff82111715610a9d57610a9c610ad5565b5b80604052505050565b7f4e487b7100000000000000000000000000000000000000000000000000000000600052602260045260246000fd5b7f4e487b7100000000000000000000000000000000000000000000000000000000600052604160045260246000fd5b600080fd5b600080fd5b600080fd5b600080fd5b6000601f19601f8301169050919050565b7f546f6e7920616c72656164792068617320746869732063617200000000000000600082015250565b610b5b816109f7565b8114610b6657600080fd5b5056fea2646970667358221220f8865838e7416e617273007809e764015c7bd51b7ee8c8920a8cf6afd22a2b5c64736f6c63430008070033",
					"opcodes": "PUSH1 0x80 PUSH1 0x40 MSTORE PUSH1 0x40 MLOAD DUP1 PUSH1 0x40 ADD PUSH1 0x40 MSTORE DUP1 PUSH1 0xB DUP2 MSTORE PUSH1 0x20 ADD PUSH32 0x546F6E792053747261726B000000000000000000000000000000000000000000 DUP2 MSTORE POP PUSH1 0x0 SWAP1 DUP1 MLOAD SWAP1 PUSH1 0x20 ADD SWAP1 PUSH3 0x51 SWAP3 SWAP2 SWAP1 PUSH3 0x1C2 JUMP JUMPDEST POP PUSH1 0x30 PUSH1 0x1 SSTORE PUSH1 0x1 PUSH1 0x2 PUSH1 0x0 PUSH2 0x100 EXP DUP2 SLOAD DUP2 PUSH1 0xFF MUL NOT AND SWAP1 DUP4 ISZERO ISZERO MUL OR SWAP1 SSTORE POP PUSH1 0x40 MLOAD DUP1 PUSH1 0x60 ADD PUSH1 0x40 MSTORE DUP1 PUSH1 0x40 MLOAD DUP1 PUSH1 0x40 ADD PUSH1 0x40 MSTORE DUP1 PUSH1 0x7 DUP2 MSTORE PUSH1 0x20 ADD PUSH32 0x706C6179626F7900000000000000000000000000000000000000000000000000 DUP2 MSTORE POP DUP2 MSTORE PUSH1 0x20 ADD PUSH1 0x40 MLOAD DUP1 PUSH1 0x40 ADD PUSH1 0x40 MSTORE DUP1 PUSH1 0x8 DUP2 MSTORE PUSH1 0x20 ADD PUSH32 0x656E67696E656572000000000000000000000000000000000000000000000000 DUP2 MSTORE POP DUP2 MSTORE PUSH1 0x20 ADD PUSH1 0x40 MLOAD DUP1 PUSH1 0x40 ADD PUSH1 0x40 MSTORE DUP1 PUSH1 0x4 DUP2 MSTORE PUSH1 0x20 ADD PUSH32 0x6865726F00000000000000000000000000000000000000000000000000000000 DUP2 MSTORE POP DUP2 MSTORE POP PUSH1 0x4 SWAP1 PUSH1 0x3 PUSH3 0x13E SWAP3 SWAP2 SWAP1 PUSH3 0x253 JUMP JUMPDEST POP CALLVALUE DUP1 ISZERO PUSH3 0x14C JUMPI PUSH1 0x0 DUP1 REVERT JUMPDEST POP PUSH1 0x40 MLOAD PUSH3 0x1047 CODESIZE SUB DUP1 PUSH3 0x1047 DUP4 CODECOPY DUP2 DUP2 ADD PUSH1 0x40 MSTORE DUP2 ADD SWAP1 PUSH3 0x172 SWAP2 SWAP1 PUSH3 0x375 JUMP JUMPDEST DUP2 PUSH1 0x3 DUP2 SWAP1 SSTORE POP DUP1 PUSH1 0x5 PUSH1 0x0 PUSH2 0x100 EXP DUP2 SLOAD DUP2 PUSH20 0xFFFFFFFFFFFFFFFFFFFFFFFFFFFFFFFFFFFFFFFF MUL NOT AND SWAP1 DUP4 PUSH20 0xFFFFFFFFFFFFFFFFFFFFFFFFFFFFFFFFFFFFFFFF AND MUL OR SWAP1 SSTORE POP POP POP PUSH3 0x498 JUMP JUMPDEST DUP3 DUP1 SLOAD PUSH3 0x1D0 SWAP1 PUSH3 0x3FA JUMP JUMPDEST SWAP1 PUSH1 0x0 MSTORE PUSH1 0x20 PUSH1 0x0 KECCAK256 SWAP1 PUSH1 0x1F ADD PUSH1 0x20 SWAP1 DIV DUP2 ADD SWAP3 DUP3 PUSH3 0x1F4 JUMPI PUSH1 0x0 DUP6 SSTORE PUSH3 0x240 JUMP JUMPDEST DUP3 PUSH1 0x1F LT PUSH3 0x20F JUMPI DUP1 MLOAD PUSH1 0xFF NOT AND DUP4 DUP1 ADD OR DUP6 SSTORE PUSH3 0x240 JUMP JUMPDEST DUP3 DUP1 ADD PUSH1 0x1 ADD DUP6 SSTORE DUP3 ISZERO PUSH3 0x240 JUMPI SWAP2 DUP3 ADD JUMPDEST DUP3 DUP2 GT ISZERO PUSH3 0x23F JUMPI DUP3 MLOAD DUP3 SSTORE SWAP2 PUSH1 0x20 ADD SWAP2 SWAP1 PUSH1 0x1 ADD SWAP1 PUSH3 0x222 JUMP JUMPDEST JUMPDEST POP SWAP1 POP PUSH3 0x24F SWAP2 SWAP1 PUSH3 0x2BA JUMP JUMPDEST POP SWAP1 JUMP JUMPDEST DUP3 DUP1 SLOAD DUP3 DUP3 SSTORE SWAP1 PUSH1 0x0 MSTORE PUSH1 0x20 PUSH1 0x0 KECCAK256 SWAP1 DUP2 ADD SWAP3 DUP3 ISZERO PUSH3 0x2A7 JUMPI SWAP2 PUSH1 0x20 MUL DUP3 ADD JUMPDEST DUP3 DUP2 GT ISZERO PUSH3 0x2A6 JUMPI DUP3 MLOAD DUP3 SWAP1 DUP1 MLOAD SWAP1 PUSH1 0x20 ADD SWAP1 PUSH3 0x295 SWAP3 SWAP2 SWAP1 PUSH3 0x1C2 JUMP JUMPDEST POP SWAP2 PUSH1 0x20 ADD SWAP2 SWAP1 PUSH1 0x1 ADD SWAP1 PUSH3 0x274 JUMP JUMPDEST JUMPDEST POP SWAP1 POP PUSH3 0x2B6 SWAP2 SWAP1 PUSH3 0x2D9 JUMP JUMPDEST POP SWAP1 JUMP JUMPDEST JUMPDEST DUP1 DUP3 GT ISZERO PUSH3 0x2D5 JUMPI PUSH1 0x0 DUP2 PUSH1 0x0 SWAP1 SSTORE POP PUSH1 0x1 ADD PUSH3 0x2BB JUMP JUMPDEST POP SWAP1 JUMP JUMPDEST JUMPDEST DUP1 DUP3 GT ISZERO PUSH3 0x2FD JUMPI PUSH1 0x0 DUP2 DUP2 PUSH3 0x2F3 SWAP2 SWAP1 PUSH3 0x301 JUMP JUMPDEST POP PUSH1 0x1 ADD PUSH3 0x2DA JUMP JUMPDEST POP SWAP1 JUMP JUMPDEST POP DUP1 SLOAD PUSH3 0x30F SWAP1 PUSH3 0x3FA JUMP JUMPDEST PUSH1 0x0 DUP3 SSTORE DUP1 PUSH1 0x1F LT PUSH3 0x323 JUMPI POP PUSH3 0x344 JUMP JUMPDEST PUSH1 0x1F ADD PUSH1 0x20 SWAP1 DIV SWAP1 PUSH1 0x0 MSTORE PUSH1 0x20 PUSH1 0x0 KECCAK256 SWAP1 DUP2 ADD SWAP1 PUSH3 0x343 SWAP2 SWAP1 PUSH3 0x2BA JUMP JUMPDEST JUMPDEST POP JUMP JUMPDEST PUSH1 0x0 DUP2 MLOAD SWAP1 POP PUSH3 0x358 DUP2 PUSH3 0x464 JUMP JUMPDEST SWAP3 SWAP2 POP POP JUMP JUMPDEST PUSH1 0x0 DUP2 MLOAD SWAP1 POP PUSH3 0x36F DUP2 PUSH3 0x47E JUMP JUMPDEST SWAP3 SWAP2 POP POP JUMP JUMPDEST PUSH1 0x0 DUP1 PUSH1 0x40 DUP4 DUP6 SUB SLT ISZERO PUSH3 0x38F JUMPI PUSH3 0x38E PUSH3 0x45F JUMP JUMPDEST JUMPDEST PUSH1 0x0 PUSH3 0x39F DUP6 DUP3 DUP7 ADD PUSH3 0x35E JUMP JUMPDEST SWAP3 POP POP PUSH1 0x20 PUSH3 0x3B2 DUP6 DUP3 DUP7 ADD PUSH3 0x347 JUMP JUMPDEST SWAP2 POP POP SWAP3 POP SWAP3 SWAP1 POP JUMP JUMPDEST PUSH1 0x0 PUSH3 0x3C9 DUP3 PUSH3 0x3D0 JUMP JUMPDEST SWAP1 POP SWAP2 SWAP1 POP JUMP JUMPDEST PUSH1 0x0 PUSH20 0xFFFFFFFFFFFFFFFFFFFFFFFFFFFFFFFFFFFFFFFF DUP3 AND SWAP1 POP SWAP2 SWAP1 POP JUMP JUMPDEST PUSH1 0x0 DUP2 SWAP1 POP SWAP2 SWAP1 POP JUMP JUMPDEST PUSH1 0x0 PUSH1 0x2 DUP3 DIV SWAP1 POP PUSH1 0x1 DUP3 AND DUP1 PUSH3 0x413 JUMPI PUSH1 0x7F DUP3 AND SWAP2 POP JUMPDEST PUSH1 0x20 DUP3 LT DUP2 EQ ISZERO PUSH3 0x42A JUMPI PUSH3 0x429 PUSH3 0x430 JUMP JUMPDEST JUMPDEST POP SWAP2 SWAP1 POP JUMP JUMPDEST PUSH32 0x4E487B7100000000000000000000000000000000000000000000000000000000 PUSH1 0x0 MSTORE PUSH1 0x22 PUSH1 0x4 MSTORE PUSH1 0x24 PUSH1 0x0 REVERT JUMPDEST PUSH1 0x0 DUP1 REVERT JUMPDEST PUSH3 0x46F DUP2 PUSH3 0x3BC JUMP JUMPDEST DUP2 EQ PUSH3 0x47B JUMPI PUSH1 0x0 DUP1 REVERT JUMPDEST POP JUMP JUMPDEST PUSH3 0x489 DUP2 PUSH3 0x3F0 JUMP JUMPDEST DUP2 EQ PUSH3 0x495 JUMPI PUSH1 0x0 DUP1 REVERT JUMPDEST POP JUMP JUMPDEST PUSH2 0xB9F DUP1 PUSH3 0x4A8 PUSH1 0x0 CODECOPY PUSH1 0x0 RETURN INVALID PUSH1 0x80 PUSH1 0x40 MSTORE CALLVALUE DUP1 ISZERO PUSH2 0x10 JUMPI PUSH1 0x0 DUP1 REVERT JUMPDEST POP PUSH1 0x4 CALLDATASIZE LT PUSH2 0xA9 JUMPI PUSH1 0x0 CALLDATALOAD PUSH1 0xE0 SHR DUP1 PUSH4 0x654A573C GT PUSH2 0x71 JUMPI DUP1 PUSH4 0x654A573C EQ PUSH2 0x168 JUMPI DUP1 PUSH4 0x853320E3 EQ PUSH2 0x186 JUMPI DUP1 PUSH4 0x965AC0C5 EQ PUSH2 0x1B6 JUMPI DUP1 PUSH4 0xB69EF8A8 EQ PUSH2 0x1D2 JUMPI DUP1 PUSH4 0xCFB5843C EQ PUSH2 0x1F0 JUMPI DUP1 PUSH4 0xFCC9E5C5 EQ PUSH2 0x20C JUMPI PUSH2 0xA9 JUMP JUMPDEST DUP1 PUSH4 0x6FDDE03 EQ PUSH2 0xAE JUMPI DUP1 PUSH4 0x13299604 EQ PUSH2 0xCC JUMPI DUP1 PUSH4 0x262A9DFF EQ PUSH2 0xEA JUMPI DUP1 PUSH4 0x449549D5 EQ PUSH2 0x108 JUMPI DUP1 PUSH4 0x5CD836A3 EQ PUSH2 0x138 JUMPI JUMPDEST PUSH1 0x0 DUP1 REVERT JUMPDEST PUSH2 0xB6 PUSH2 0x23C JUMP JUMPDEST PUSH1 0x40 MLOAD PUSH2 0xC3 SWAP2 SWAP1 PUSH2 0x8DF JUMP JUMPDEST PUSH1 0x40 MLOAD DUP1 SWAP2 SUB SWAP1 RETURN JUMPDEST PUSH2 0xD4 PUSH2 0x2CA JUMP JUMPDEST PUSH1 0x40 MLOAD PUSH2 0xE1 SWAP2 SWAP1 PUSH2 0x8A9 JUMP JUMPDEST PUSH1 0x40 MLOAD DUP1 SWAP2 SUB SWAP1 RETURN JUMPDEST PUSH2 0xF2 PUSH2 0x2F4 JUMP JUMPDEST PUSH1 0x40 MLOAD PUSH2 0xFF SWAP2 SWAP1 PUSH2 0x921 JUMP JUMPDEST PUSH1 0x40 MLOAD DUP1 SWAP2 SUB SWAP1 RETURN JUMPDEST PUSH2 0x122 PUSH1 0x4 DUP1 CALLDATASIZE SUB DUP2 ADD SWAP1 PUSH2 0x11D SWAP2 SWAP1 PUSH2 0x7AB JUMP JUMPDEST PUSH2 0x2FA JUMP JUMPDEST PUSH1 0x40 MLOAD PUSH2 0x12F SWAP2 SWAP1 PUSH2 0x8DF JUMP JUMPDEST PUSH1 0x40 MLOAD DUP1 SWAP2 SUB SWAP1 RETURN JUMPDEST PUSH2 0x152 PUSH1 0x4 DUP1 CALLDATASIZE SUB DUP2 ADD SWAP1 PUSH2 0x14D SWAP2 SWAP1 PUSH2 0x7AB JUMP JUMPDEST PUSH2 0x3A6 JUMP JUMPDEST PUSH1 0x40 MLOAD PUSH2 0x15F SWAP2 SWAP1 PUSH2 0x8DF JUMP JUMPDEST PUSH1 0x40 MLOAD DUP1 SWAP2 SUB SWAP1 RETURN JUMPDEST PUSH2 0x170 PUSH2 0x452 JUMP JUMPDEST PUSH1 0x40 MLOAD PUSH2 0x17D SWAP2 SWAP1 PUSH2 0x8C4 JUMP JUMPDEST PUSH1 0x40 MLOAD DUP1 SWAP2 SUB SWAP1 RETURN JUMPDEST PUSH2 0x1A0 PUSH1 0x4 DUP1 CALLDATASIZE SUB DUP2 ADD SWAP1 PUSH2 0x19B SWAP2 SWAP1 PUSH2 0x706 JUMP JUMPDEST PUSH2 0x465 JUMP JUMPDEST PUSH1 0x40 MLOAD PUSH2 0x1AD SWAP2 SWAP1 PUSH2 0x921 JUMP JUMPDEST PUSH1 0x40 MLOAD DUP1 SWAP2 SUB SWAP1 RETURN JUMPDEST PUSH2 0x1D0 PUSH1 0x4 DUP1 CALLDATASIZE SUB DUP2 ADD SWAP1 PUSH2 0x1CB SWAP2 SWAP1 PUSH2 0x74F JUMP JUMPDEST PUSH2 0x493 JUMP JUMPDEST STOP JUMPDEST PUSH2 0x1DA PUSH2 0x563 JUMP JUMPDEST PUSH1 0x40 MLOAD PUSH2 0x1E7 SWAP2 SWAP1 PUSH2 0x921 JUMP JUMPDEST PUSH1 0x40 MLOAD DUP1 SWAP2 SUB SWAP1 RETURN JUMPDEST PUSH2 0x20A PUSH1 0x4 DUP1 CALLDATASIZE SUB DUP2 ADD SWAP1 PUSH2 0x205 SWAP2 SWAP1 PUSH2 0x706 JUMP JUMPDEST PUSH2 0x569 JUMP JUMPDEST STOP JUMPDEST PUSH2 0x226 PUSH1 0x4 DUP1 CALLDATASIZE SUB DUP2 ADD SWAP1 PUSH2 0x221 SWAP2 SWAP1 PUSH2 0x706 JUMP JUMPDEST PUSH2 0x5A8 JUMP JUMPDEST PUSH1 0x40 MLOAD PUSH2 0x233 SWAP2 SWAP1 PUSH2 0x8C4 JUMP JUMPDEST PUSH1 0x40 MLOAD DUP1 SWAP2 SUB SWAP1 RETURN JUMPDEST PUSH1 0x0 DUP1 SLOAD PUSH2 0x249 SWAP1 PUSH2 0xA43 JUMP JUMPDEST DUP1 PUSH1 0x1F ADD PUSH1 0x20 DUP1 SWAP2 DIV MUL PUSH1 0x20 ADD PUSH1 0x40 MLOAD SWAP1 DUP2 ADD PUSH1 0x40 MSTORE DUP1 SWAP3 SWAP2 SWAP1 DUP2 DUP2 MSTORE PUSH1 0x20 ADD DUP3 DUP1 SLOAD PUSH2 0x275 SWAP1 PUSH2 0xA43 JUMP JUMPDEST DUP1 ISZERO PUSH2 0x2C2 JUMPI DUP1 PUSH1 0x1F LT PUSH2 0x297 JUMPI PUSH2 0x100 DUP1 DUP4 SLOAD DIV MUL DUP4 MSTORE SWAP2 PUSH1 0x20 ADD SWAP2 PUSH2 0x2C2 JUMP JUMPDEST DUP3 ADD SWAP2 SWAP1 PUSH1 0x0 MSTORE PUSH1 0x20 PUSH1 0x0 KECCAK256 SWAP1 JUMPDEST DUP2 SLOAD DUP2 MSTORE SWAP1 PUSH1 0x1 ADD SWAP1 PUSH1 0x20 ADD DUP1 DUP4 GT PUSH2 0x2A5 JUMPI DUP3 SWAP1 SUB PUSH1 0x1F AND DUP3 ADD SWAP2 JUMPDEST POP POP POP POP POP DUP2 JUMP JUMPDEST PUSH1 0x0 PUSH1 0x5 PUSH1 0x0 SWAP1 SLOAD SWAP1 PUSH2 0x100 EXP SWAP1 DIV PUSH20 0xFFFFFFFFFFFFFFFFFFFFFFFFFFFFFFFFFFFFFFFF AND SWAP1 POP SWAP1 JUMP JUMPDEST PUSH1 0x1 SLOAD DUP2 JUMP JUMPDEST PUSH1 0x6 DUP2 DUP2 SLOAD DUP2 LT PUSH2 0x30A JUMPI PUSH1 0x0 DUP1 REVERT JUMPDEST SWAP1 PUSH1 0x0 MSTORE PUSH1 0x20 PUSH1 0x0 KECCAK256 ADD PUSH1 0x0 SWAP2 POP SWAP1 POP DUP1 SLOAD PUSH2 0x325 SWAP1 PUSH2 0xA43 JUMP JUMPDEST DUP1 PUSH1 0x1F ADD PUSH1 0x20 DUP1 SWAP2 DIV MUL PUSH1 0x20 ADD PUSH1 0x40 MLOAD SWAP1 DUP2 ADD PUSH1 0x40 MSTORE DUP1 SWAP3 SWAP2 SWAP1 DUP2 DUP2 MSTORE PUSH1 0x20 ADD DUP3 DUP1 SLOAD PUSH2 0x351 SWAP1 PUSH2 0xA43 JUMP JUMPDEST DUP1 ISZERO PUSH2 0x39E JUMPI DUP1 PUSH1 0x1F LT PUSH2 0x373 JUMPI PUSH2 0x100 DUP1 DUP4 SLOAD DIV MUL DUP4 MSTORE SWAP2 PUSH1 0x20 ADD SWAP2 PUSH2 0x39E JUMP JUMPDEST DUP3 ADD SWAP2 SWAP1 PUSH1 0x0 MSTORE PUSH1 0x20 PUSH1 0x0 KECCAK256 SWAP1 JUMPDEST DUP2 SLOAD DUP2 MSTORE SWAP1 PUSH1 0x1 ADD SWAP1 PUSH1 0x20 ADD DUP1 DUP4 GT PUSH2 0x381 JUMPI DUP3 SWAP1 SUB PUSH1 0x1F AND DUP3 ADD SWAP2 JUMPDEST POP POP POP POP POP DUP2 JUMP JUMPDEST PUSH1 0x4 DUP2 DUP2 SLOAD DUP2 LT PUSH2 0x3B6 JUMPI PUSH1 0x0 DUP1 REVERT JUMPDEST SWAP1 PUSH1 0x0 MSTORE PUSH1 0x20 PUSH1 0x0 KECCAK256 ADD PUSH1 0x0 SWAP2 POP SWAP1 POP DUP1 SLOAD PUSH2 0x3D1 SWAP1 PUSH2 0xA43 JUMP JUMPDEST DUP1 PUSH1 0x1F ADD PUSH1 0x20 DUP1 SWAP2 DIV MUL PUSH1 0x20 ADD PUSH1 0x40 MLOAD SWAP1 DUP2 ADD PUSH1 0x40 MSTORE DUP1 SWAP3 SWAP2 SWAP1 DUP2 DUP2 MSTORE PUSH1 0x20 ADD DUP3 DUP1 SLOAD PUSH2 0x3FD SWAP1 PUSH2 0xA43 JUMP JUMPDEST DUP1 ISZERO PUSH2 0x44A JUMPI DUP1 PUSH1 0x1F LT PUSH2 0x41F JUMPI PUSH2 0x100 DUP1 DUP4 SLOAD DIV MUL DUP4 MSTORE SWAP2 PUSH1 0x20 ADD SWAP2 PUSH2 0x44A JUMP JUMPDEST DUP3 ADD SWAP2 SWAP1 PUSH1 0x0 MSTORE PUSH1 0x20 PUSH1 0x0 KECCAK256 SWAP1 JUMPDEST DUP2 SLOAD DUP2 MSTORE SWAP1 PUSH1 0x1 ADD SWAP1 PUSH1 0x20 ADD DUP1 DUP4 GT PUSH2 0x42D JUMPI DUP3 SWAP1 SUB PUSH1 0x1F AND DUP3 ADD SWAP2 JUMPDEST POP POP POP POP POP DUP2 JUMP JUMPDEST PUSH1 0x2 PUSH1 0x0 SWAP1 SLOAD SWAP1 PUSH2 0x100 EXP SWAP1 DIV PUSH1 0xFF AND DUP2 JUMP JUMPDEST PUSH1 0x7 DUP2 DUP1 MLOAD PUSH1 0x20 DUP2 ADD DUP3 ADD DUP1 MLOAD DUP5 DUP3 MSTORE PUSH1 0x20 DUP4 ADD PUSH1 0x20 DUP6 ADD KECCAK256 DUP2 DUP4 MSTORE DUP1 SWAP6 POP POP POP POP POP POP PUSH1 0x0 SWAP2 POP SWAP1 POP SLOAD DUP2 JUMP JUMPDEST PUSH1 0x0 ISZERO ISZERO PUSH1 0x8 DUP4 PUSH1 0x40 MLOAD PUSH2 0x4A7 SWAP2 SWAP1 PUSH2 0x892 JUMP JUMPDEST SWAP1 DUP2 MSTORE PUSH1 0x20 ADD PUSH1 0x40 MLOAD DUP1 SWAP2 SUB SWAP1 KECCAK256 PUSH1 0x0 SWAP1 SLOAD SWAP1 PUSH2 0x100 EXP SWAP1 DIV PUSH1 0xFF AND ISZERO ISZERO EQ PUSH2 0x505 JUMPI PUSH1 0x40 MLOAD PUSH32 0x8C379A000000000000000000000000000000000000000000000000000000000 DUP2 MSTORE PUSH1 0x4 ADD PUSH2 0x4FC SWAP1 PUSH2 0x901 JUMP JUMPDEST PUSH1 0x40 MLOAD DUP1 SWAP2 SUB SWAP1 REVERT JUMPDEST DUP1 PUSH1 0x7 DUP4 PUSH1 0x40 MLOAD PUSH2 0x516 SWAP2 SWAP1 PUSH2 0x892 JUMP JUMPDEST SWAP1 DUP2 MSTORE PUSH1 0x20 ADD PUSH1 0x40 MLOAD DUP1 SWAP2 SUB SWAP1 KECCAK256 DUP2 SWAP1 SSTORE POP PUSH1 0x1 PUSH1 0x8 DUP4 PUSH1 0x40 MLOAD PUSH2 0x53A SWAP2 SWAP1 PUSH2 0x892 JUMP JUMPDEST SWAP1 DUP2 MSTORE PUSH1 0x20 ADD PUSH1 0x40 MLOAD DUP1 SWAP2 SUB SWAP1 KECCAK256 PUSH1 0x0 PUSH2 0x100 EXP DUP2 SLOAD DUP2 PUSH1 0xFF MUL NOT AND SWAP1 DUP4 ISZERO ISZERO MUL OR SWAP1 SSTORE POP POP POP JUMP JUMPDEST PUSH1 0x3 SLOAD DUP2 JUMP JUMPDEST PUSH1 0x6 DUP2 SWAP1 DUP1 PUSH1 0x1 DUP2 SLOAD ADD DUP1 DUP3 SSTORE DUP1 SWAP2 POP POP PUSH1 0x1 SWAP1 SUB SWAP1 PUSH1 0x0 MSTORE PUSH1 0x20 PUSH1 0x0 KECCAK256 ADD PUSH1 0x0 SWAP1 SWAP2 SWAP1 SWAP2 SWAP1 SWAP2 POP SWAP1 DUP1 MLOAD SWAP1 PUSH1 0x20 ADD SWAP1 PUSH2 0x5A4 SWAP3 SWAP2 SWAP1 PUSH2 0x5DE JUMP JUMPDEST POP POP JUMP JUMPDEST PUSH1 0x8 DUP2 DUP1 MLOAD PUSH1 0x20 DUP2 ADD DUP3 ADD DUP1 MLOAD DUP5 DUP3 MSTORE PUSH1 0x20 DUP4 ADD PUSH1 0x20 DUP6 ADD KECCAK256 DUP2 DUP4 MSTORE DUP1 SWAP6 POP POP POP POP POP POP PUSH1 0x0 SWAP2 POP SLOAD SWAP1 PUSH2 0x100 EXP SWAP1 DIV PUSH1 0xFF AND DUP2 JUMP JUMPDEST DUP3 DUP1 SLOAD PUSH2 0x5EA SWAP1 PUSH2 0xA43 JUMP JUMPDEST SWAP1 PUSH1 0x0 MSTORE PUSH1 0x20 PUSH1 0x0 KECCAK256 SWAP1 PUSH1 0x1F ADD PUSH1 0x20 SWAP1 DIV DUP2 ADD SWAP3 DUP3 PUSH2 0x60C JUMPI PUSH1 0x0 DUP6 SSTORE PUSH2 0x653 JUMP JUMPDEST DUP3 PUSH1 0x1F LT PUSH2 0x625 JUMPI DUP1 MLOAD PUSH1 0xFF NOT AND DUP4 DUP1 ADD OR DUP6 SSTORE PUSH2 0x653 JUMP JUMPDEST DUP3 DUP1 ADD PUSH1 0x1 ADD DUP6 SSTORE DUP3 ISZERO PUSH2 0x653 JUMPI SWAP2 DUP3 ADD JUMPDEST DUP3 DUP2 GT ISZERO PUSH2 0x652 JUMPI DUP3 MLOAD DUP3 SSTORE SWAP2 PUSH1 0x20 ADD SWAP2 SWAP1 PUSH1 0x1 ADD SWAP1 PUSH2 0x637 JUMP JUMPDEST JUMPDEST POP SWAP1 POP PUSH2 0x660 SWAP2 SWAP1 PUSH2 0x664 JUMP JUMPDEST POP SWAP1 JUMP JUMPDEST JUMPDEST DUP1 DUP3 GT ISZERO PUSH2 0x67D JUMPI PUSH1 0x0 DUP2 PUSH1 0x0 SWAP1 SSTORE POP PUSH1 0x1 ADD PUSH2 0x665 JUMP JUMPDEST POP SWAP1 JUMP JUMPDEST PUSH1 0x0 PUSH2 0x694 PUSH2 0x68F DUP5 PUSH2 0x961 JUMP JUMPDEST PUSH2 0x93C JUMP JUMPDEST SWAP1 POP DUP3 DUP2 MSTORE PUSH1 0x20 DUP2 ADD DUP5 DUP5 DUP5 ADD GT ISZERO PUSH2 0x6B0 JUMPI PUSH2 0x6AF PUSH2 0xB09 JUMP JUMPDEST JUMPDEST PUSH2 0x6BB DUP5 DUP3 DUP6 PUSH2 0xA01 JUMP JUMPDEST POP SWAP4 SWAP3 POP POP POP JUMP JUMPDEST PUSH1 0x0 DUP3 PUSH1 0x1F DUP4 ADD SLT PUSH2 0x6D8 JUMPI PUSH2 0x6D7 PUSH2 0xB04 JUMP JUMPDEST JUMPDEST DUP2 CALLDATALOAD PUSH2 0x6E8 DUP5 DUP3 PUSH1 0x20 DUP7 ADD PUSH2 0x681 JUMP JUMPDEST SWAP2 POP POP SWAP3 SWAP2 POP POP JUMP JUMPDEST PUSH1 0x0 DUP2 CALLDATALOAD SWAP1 POP PUSH2 0x700 DUP2 PUSH2 0xB52 JUMP JUMPDEST SWAP3 SWAP2 POP POP JUMP JUMPDEST PUSH1 0x0 PUSH1 0x20 DUP3 DUP5 SUB SLT ISZERO PUSH2 0x71C JUMPI PUSH2 0x71B PUSH2 0xB13 JUMP JUMPDEST JUMPDEST PUSH1 0x0 DUP3 ADD CALLDATALOAD PUSH8 0xFFFFFFFFFFFFFFFF DUP2 GT ISZERO PUSH2 0x73A JUMPI PUSH2 0x739 PUSH2 0xB0E JUMP JUMPDEST JUMPDEST PUSH2 0x746 DUP5 DUP3 DUP6 ADD PUSH2 0x6C3 JUMP JUMPDEST SWAP2 POP POP SWAP3 SWAP2 POP POP JUMP JUMPDEST PUSH1 0x0 DUP1 PUSH1 0x40 DUP4 DUP6 SUB SLT ISZERO PUSH2 0x766 JUMPI PUSH2 0x765 PUSH2 0xB13 JUMP JUMPDEST JUMPDEST PUSH1 0x0 DUP4 ADD CALLDATALOAD PUSH8 0xFFFFFFFFFFFFFFFF DUP2 GT ISZERO PUSH2 0x784 JUMPI PUSH2 0x783 PUSH2 0xB0E JUMP JUMPDEST JUMPDEST PUSH2 0x790 DUP6 DUP3 DUP7 ADD PUSH2 0x6C3 JUMP JUMPDEST SWAP3 POP POP PUSH1 0x20 PUSH2 0x7A1 DUP6 DUP3 DUP7 ADD PUSH2 0x6F1 JUMP JUMPDEST SWAP2 POP POP SWAP3 POP SWAP3 SWAP1 POP JUMP JUMPDEST PUSH1 0x0 PUSH1 0x20 DUP3 DUP5 SUB SLT ISZERO PUSH2 0x7C1 JUMPI PUSH2 0x7C0 PUSH2 0xB13 JUMP JUMPDEST JUMPDEST PUSH1 0x0 PUSH2 0x7CF DUP5 DUP3 DUP6 ADD PUSH2 0x6F1 JUMP JUMPDEST SWAP2 POP POP SWAP3 SWAP2 POP POP JUMP JUMPDEST PUSH2 0x7E1 DUP2 PUSH2 0x9B9 JUMP JUMPDEST DUP3 MSTORE POP POP JUMP JUMPDEST PUSH2 0x7F0 DUP2 PUSH2 0x9CB JUMP JUMPDEST DUP3 MSTORE POP POP JUMP JUMPDEST PUSH1 0x0 PUSH2 0x801 DUP3 PUSH2 0x992 JUMP JUMPDEST PUSH2 0x80B DUP2 DUP6 PUSH2 0x99D JUMP JUMPDEST SWAP4 POP PUSH2 0x81B DUP2 DUP6 PUSH1 0x20 DUP7 ADD PUSH2 0xA10 JUMP JUMPDEST PUSH2 0x824 DUP2 PUSH2 0xB18 JUMP JUMPDEST DUP5 ADD SWAP2 POP POP SWAP3 SWAP2 POP POP JUMP JUMPDEST PUSH1 0x0 PUSH2 0x83A DUP3 PUSH2 0x992 JUMP JUMPDEST PUSH2 0x844 DUP2 DUP6 PUSH2 0x9AE JUMP JUMPDEST SWAP4 POP PUSH2 0x854 DUP2 DUP6 PUSH1 0x20 DUP7 ADD PUSH2 0xA10 JUMP JUMPDEST DUP1 DUP5 ADD SWAP2 POP POP SWAP3 SWAP2 POP POP JUMP JUMPDEST PUSH1 0x0 PUSH2 0x86D PUSH1 0x19 DUP4 PUSH2 0x99D JUMP JUMPDEST SWAP2 POP PUSH2 0x878 DUP3 PUSH2 0xB29 JUMP JUMPDEST PUSH1 0x20 DUP3 ADD SWAP1 POP SWAP2 SWAP1 POP JUMP JUMPDEST PUSH2 0x88C DUP2 PUSH2 0x9F7 JUMP JUMPDEST DUP3 MSTORE POP POP JUMP JUMPDEST PUSH1 0x0 PUSH2 0x89E DUP3 DUP5 PUSH2 0x82F JUMP JUMPDEST SWAP2 POP DUP2 SWAP1 POP SWAP3 SWAP2 POP POP JUMP JUMPDEST PUSH1 0x0 PUSH1 0x20 DUP3 ADD SWAP1 POP PUSH2 0x8BE PUSH1 0x0 DUP4 ADD DUP5 PUSH2 0x7D8 JUMP JUMPDEST SWAP3 SWAP2 POP POP JUMP JUMPDEST PUSH1 0x0 PUSH1 0x20 DUP3 ADD SWAP1 POP PUSH2 0x8D9 PUSH1 0x0 DUP4 ADD DUP5 PUSH2 0x7E7 JUMP JUMPDEST SWAP3 SWAP2 POP POP JUMP JUMPDEST PUSH1 0x0 PUSH1 0x20 DUP3 ADD SWAP1 POP DUP2 DUP2 SUB PUSH1 0x0 DUP4 ADD MSTORE PUSH2 0x8F9 DUP2 DUP5 PUSH2 0x7F6 JUMP JUMPDEST SWAP1 POP SWAP3 SWAP2 POP POP JUMP JUMPDEST PUSH1 0x0 PUSH1 0x20 DUP3 ADD SWAP1 POP DUP2 DUP2 SUB PUSH1 0x0 DUP4 ADD MSTORE PUSH2 0x91A DUP2 PUSH2 0x860 JUMP JUMPDEST SWAP1 POP SWAP2 SWAP1 POP JUMP JUMPDEST PUSH1 0x0 PUSH1 0x20 DUP3 ADD SWAP1 POP PUSH2 0x936 PUSH1 0x0 DUP4 ADD DUP5 PUSH2 0x883 JUMP JUMPDEST SWAP3 SWAP2 POP POP JUMP JUMPDEST PUSH1 0x0 PUSH2 0x946 PUSH2 0x957 JUMP JUMPDEST SWAP1 POP PUSH2 0x952 DUP3 DUP3 PUSH2 0xA75 JUMP JUMPDEST SWAP2 SWAP1 POP JUMP JUMPDEST PUSH1 0x0 PUSH1 0x40 MLOAD SWAP1 POP SWAP1 JUMP JUMPDEST PUSH1 0x0 PUSH8 0xFFFFFFFFFFFFFFFF DUP3 GT ISZERO PUSH2 0x97C JUMPI PUSH2 0x97B PUSH2 0xAD5 JUMP JUMPDEST JUMPDEST PUSH2 0x985 DUP3 PUSH2 0xB18 JUMP JUMPDEST SWAP1 POP PUSH1 0x20 DUP2 ADD SWAP1 POP SWAP2 SWAP1 POP JUMP JUMPDEST PUSH1 0x0 DUP2 MLOAD SWAP1 POP SWAP2 SWAP1 POP JUMP JUMPDEST PUSH1 0x0 DUP3 DUP3 MSTORE PUSH1 0x20 DUP3 ADD SWAP1 POP SWAP3 SWAP2 POP POP JUMP JUMPDEST PUSH1 0x0 DUP2 SWAP1 POP SWAP3 SWAP2 POP POP JUMP JUMPDEST PUSH1 0x0 PUSH2 0x9C4 DUP3 PUSH2 0x9D7 JUMP JUMPDEST SWAP1 POP SWAP2 SWAP1 POP JUMP JUMPDEST PUSH1 0x0 DUP2 ISZERO ISZERO SWAP1 POP SWAP2 SWAP1 POP JUMP JUMPDEST PUSH1 0x0 PUSH20 0xFFFFFFFFFFFFFFFFFFFFFFFFFFFFFFFFFFFFFFFF DUP3 AND SWAP1 POP SWAP2 SWAP1 POP JUMP JUMPDEST PUSH1 0x0 DUP2 SWAP1 POP SWAP2 SWAP1 POP JUMP JUMPDEST DUP3 DUP2 DUP4 CALLDATACOPY PUSH1 0x0 DUP4 DUP4 ADD MSTORE POP POP POP JUMP JUMPDEST PUSH1 0x0 JUMPDEST DUP4 DUP2 LT ISZERO PUSH2 0xA2E JUMPI DUP1 DUP3 ADD MLOAD DUP2 DUP5 ADD MSTORE PUSH1 0x20 DUP2 ADD SWAP1 POP PUSH2 0xA13 JUMP JUMPDEST DUP4 DUP2 GT ISZERO PUSH2 0xA3D JUMPI PUSH1 0x0 DUP5 DUP5 ADD MSTORE JUMPDEST POP POP POP POP JUMP JUMPDEST PUSH1 0x0 PUSH1 0x2 DUP3 DIV SWAP1 POP PUSH1 0x1 DUP3 AND DUP1 PUSH2 0xA5B JUMPI PUSH1 0x7F DUP3 AND SWAP2 POP JUMPDEST PUSH1 0x20 DUP3 LT DUP2 EQ ISZERO PUSH2 0xA6F JUMPI PUSH2 0xA6E PUSH2 0xAA6 JUMP JUMPDEST JUMPDEST POP SWAP2 SWAP1 POP JUMP JUMPDEST PUSH2 0xA7E DUP3 PUSH2 0xB18 JUMP JUMPDEST DUP2 ADD DUP2 DUP2 LT PUSH8 0xFFFFFFFFFFFFFFFF DUP3 GT OR ISZERO PUSH2 0xA9D JUMPI PUSH2 0xA9C PUSH2 0xAD5 JUMP JUMPDEST JUMPDEST DUP1 PUSH1 0x40 MSTORE POP POP POP JUMP JUMPDEST PUSH32 0x4E487B7100000000000000000000000000000000000000000000000000000000 PUSH1 0x0 MSTORE PUSH1 0x22 PUSH1 0x4 MSTORE PUSH1 0x24 PUSH1 0x0 REVERT JUMPDEST PUSH32 0x4E487B7100000000000000000000000000000000000000000000000000000000 PUSH1 0x0 MSTORE PUSH1 0x41 PUSH1 0x4 MSTORE PUSH1 0x24 PUSH1 0x0 REVERT JUMPDEST PUSH1 0x0 DUP1 REVERT JUMPDEST PUSH1 0x0 DUP1 REVERT JUMPDEST PUSH1 0x0 DUP1 REVERT JUMPDEST PUSH1 0x0 DUP1 REVERT JUMPDEST PUSH1 0x0 PUSH1 0x1F NOT PUSH1 0x1F DUP4 ADD AND SWAP1 POP SWAP2 SWAP1 POP JUMP JUMPDEST PUSH32 0x546F6E7920616C72656164792068617320746869732063617200000000000000 PUSH1 0x0 DUP3 ADD MSTORE POP JUMP JUMPDEST PUSH2 0xB5B DUP2 PUSH2 0x9F7 JUMP JUMPDEST DUP2 EQ PUSH2 0xB66 JUMPI PUSH1 0x0 DUP1 REVERT JUMPDEST POP JUMP INVALID LOG2 PUSH5 0x6970667358 0x22 SLT KECCAK256 0xF8 DUP7 PC CODESIZE 0xE7 COINBASE PUSH15 0x617273007809E764015C7BD51B7EE8 0xC8 SWAP3 EXP DUP13 0xF6 0xAF 0xD2 0x2A 0x2B 0x5C PUSH5 0x736F6C6343 STOP ADDMOD SMOD STOP CALLER "
				},
				"gasEstimates": {
					"creation": {
						"codeDepositCost": "595000",
						"executionCost": "infinite",
						"totalCost": "infinite"
					},
					"external": {
						"addCar(string,uint256)": "infinite",
						"age()": "2474",
						"balance()": "2495",
						"carreer(uint256)": "infinite",
						"getWallet()": "2545",
						"girl(uint256)": "infinite",
						"isCar(string)": "infinite",
						"isMale()": "2471",
						"mileOfCar(string)": "infinite",
						"name()": "infinite",
						"tinder(string)": "infinite"
					}
				},
				"methodIdentifiers": {
					"addCar(string,uint256)": "965ac0c5",
					"age()": "262a9dff",
					"balance()": "b69ef8a8",
					"carreer(uint256)": "5cd836a3",
					"getWallet()": "13299604",
					"girl(uint256)": "449549d5",
					"isCar(string)": "fcc9e5c5",
					"isMale()": "654a573c",
					"mileOfCar(string)": "853320e3",
					"name()": "06fdde03",
					"tinder(string)": "cfb5843c"
				}
			},
			"storageLayout": {
				"storage": [
					{
						"astId": 4,
						"contract": "contracts/basic_solidity.sol:BasicSolidity",
						"label": "name",
						"offset": 0,
						"slot": "0",
						"type": "t_string_storage"
					},
					{
						"astId": 7,
						"contract": "contracts/basic_solidity.sol:BasicSolidity",
						"label": "age",
						"offset": 0,
						"slot": "1",
						"type": "t_uint256"
					},
					{
						"astId": 10,
						"contract": "contracts/basic_solidity.sol:BasicSolidity",
						"label": "isMale",
						"offset": 0,
						"slot": "2",
						"type": "t_bool"
					},
					{
						"astId": 12,
						"contract": "contracts/basic_solidity.sol:BasicSolidity",
						"label": "balance",
						"offset": 0,
						"slot": "3",
						"type": "t_uint256"
					},
					{
						"astId": 19,
						"contract": "contracts/basic_solidity.sol:BasicSolidity",
						"label": "carreer",
						"offset": 0,
						"slot": "4",
						"type": "t_array(t_string_storage)dyn_storage"
					},
					{
						"astId": 21,
						"contract": "contracts/basic_solidity.sol:BasicSolidity",
						"label": "wallet",
						"offset": 0,
						"slot": "5",
						"type": "t_address"
					},
					{
						"astId": 24,
						"contract": "contracts/basic_solidity.sol:BasicSolidity",
						"label": "girl",
						"offset": 0,
						"slot": "6",
						"type": "t_array(t_string_storage)dyn_storage"
					},
					{
						"astId": 28,
						"contract": "contracts/basic_solidity.sol:BasicSolidity",
						"label": "mileOfCar",
						"offset": 0,
						"slot": "7",
						"type": "t_mapping(t_string_memory_ptr,t_uint256)"
					},
					{
						"astId": 32,
						"contract": "contracts/basic_solidity.sol:BasicSolidity",
						"label": "isCar",
						"offset": 0,
						"slot": "8",
						"type": "t_mapping(t_string_memory_ptr,t_bool)"
					}
				],
				"types": {
					"t_address": {
						"encoding": "inplace",
						"label": "address",
						"numberOfBytes": "20"
					},
					"t_array(t_string_storage)dyn_storage": {
						"base": "t_string_storage",
						"encoding": "dynamic_array",
						"label": "string[]",
						"numberOfBytes": "32"
					},
					"t_bool": {
						"encoding": "inplace",
						"label": "bool",
						"numberOfBytes": "1"
					},
					"t_mapping(t_string_memory_ptr,t_bool)": {
						"encoding": "mapping",
						"key": "t_string_memory_ptr",
						"label": "mapping(string => bool)",
						"numberOfBytes": "32",
						"value": "t_bool"
					},
					"t_mapping(t_string_memory_ptr,t_uint256)": {
						"encoding": "mapping",
						"key": "t_string_memory_ptr",
						"label": "mapping(string => uint256)",
						"numberOfBytes": "32",
						"value": "t_uint256"
					},
					"t_string_memory_ptr": {
						"encoding": "bytes",
						"label": "string",
						"numberOfBytes": "32"
					},
					"t_string_storage": {
						"encoding": "bytes",
						"label": "string",
						"numberOfBytes": "32"
					},
					"t_uint256": {
						"encoding": "inplace",
						"label": "uint256",
						"numberOfBytes": "32"
					}
				}
			},
			"userdoc": {
				"kind": "user",
				"methods": {},
				"version": 1
			}
		}
	}
}