{
	"contracts/bomToken.sol": {
		"BomToken": {
			"abi": [
				{
					"inputs": [],
					"stateMutability": "nonpayable",
					"type": "constructor"
				},
				{
					"inputs": [
						{
							"internalType": "address",
							"name": "_trusty",
							"type": "address"
						}
					],
					"name": "approve",
					"outputs": [],
					"stateMutability": "nonpayable",
					"type": "function"
				},
				{
					"inputs": [
						{
							"internalType": "uint256",
							"name": "_amount",
							"type": "uint256"
						}
					],
					"name": "burn",
					"outputs": [],
					"stateMutability": "nonpayable",
					"type": "function"
				},
				{
					"inputs": [
						{
							"internalType": "address",
							"name": "targetwallet",
							"type": "address"
						}
					],
					"name": "getBalance",
					"outputs": [
						{
							"internalType": "uint256",
							"name": "",
							"type": "uint256"
						}
					],
					"stateMutability": "view",
					"type": "function"
				},
				{
					"inputs": [
						{
							"internalType": "uint256",
							"name": "amount",
							"type": "uint256"
						},
						{
							"internalType": "address",
							"name": "targetAdress",
							"type": "address"
						}
					],
					"name": "mint",
					"outputs": [],
					"stateMutability": "nonpayable",
					"type": "function"
				},
				{
					"inputs": [
						{
							"internalType": "address",
							"name": "",
							"type": "address"
						}
					],
					"name": "transaction",
					"outputs": [
						{
							"internalType": "address",
							"name": "",
							"type": "address"
						}
					],
					"stateMutability": "view",
					"type": "function"
				},
				{
					"inputs": [
						{
							"internalType": "address",
							"name": "",
							"type": "address"
						}
					],
					"name": "trust",
					"outputs": [
						{
							"internalType": "address",
							"name": "",
							"type": "address"
						}
					],
					"stateMutability": "view",
					"type": "function"
				}
			],
			"devdoc": {
				"kind": "dev",
				"methods": {},
				"version": 1
			},
			"evm": {
				"assembly": "    /* \"contracts/bomToken.sol\":62:1396  contract BomToken {\r... */\n  mstore(0x40, 0x80)\n    /* \"contracts/bomToken.sol\":86:117  string name       = \"BombToken\" */\n  mload(0x40)\n  dup1\n  0x40\n  add\n  0x40\n  mstore\n  dup1\n  0x09\n  dup2\n  mstore\n  0x20\n  add\n  0x426f6d62546f6b656e0000000000000000000000000000000000000000000000\n  dup2\n  mstore\n  pop\n  0x00\n  swap1\n  dup1\n  mload\n  swap1\n  0x20\n  add\n  swap1\n  tag_1\n  swap3\n  swap2\n  swap1\n  tag_2\n  jump\t// in\ntag_1:\n  pop\n    /* \"contracts/bomToken.sol\":124:148  string symbole    = \"BT\" */\n  mload(0x40)\n  dup1\n  0x40\n  add\n  0x40\n  mstore\n  dup1\n  0x02\n  dup2\n  mstore\n  0x20\n  add\n  0x4254000000000000000000000000000000000000000000000000000000000000\n  dup2\n  mstore\n  pop\n  0x01\n  swap1\n  dup1\n  mload\n  swap1\n  0x20\n  add\n  swap1\n  tag_3\n  swap3\n  swap2\n  swap1\n  tag_2\n  jump\t// in\ntag_3:\n  pop\n    /* \"contracts/bomToken.sol\":177:184  9000000 */\n  0x895440\n    /* \"contracts/bomToken.sol\":154:184  uint256 csupply    =   9000000 */\n  0x02\n  sstore\n    /* \"contracts/bomToken.sol\":212:221  100000000 */\n  0x05f5e100\n    /* \"contracts/bomToken.sol\":190:221  uint256 maxSupply   = 100000000 */\n  0x03\n  sstore\n    /* \"contracts/bomToken.sol\":246:248  10 */\n  0x0a\n    /* \"contracts/bomToken.sol\":227:248  uint256 decimal  = 10 */\n  0x04\n  sstore\n    /* \"contracts/bomToken.sol\":426:481  constructor() {\r... */\n  callvalue\n  dup1\n  iszero\n  tag_4\n  jumpi\n  0x00\n  dup1\n  revert\ntag_4:\n  pop\n    /* \"contracts/bomToken.sol\":462:472  msg.sender */\n  caller\n    /* \"contracts/bomToken.sol\":452:457  owner */\n  0x05\n  0x00\n    /* \"contracts/bomToken.sol\":452:472  owner   = msg.sender */\n  0x0100\n  exp\n  dup2\n  sload\n  dup2\n  0xffffffffffffffffffffffffffffffffffffffff\n  mul\n  not\n  and\n  swap1\n  dup4\n  0xffffffffffffffffffffffffffffffffffffffff\n  and\n  mul\n  or\n  swap1\n  sstore\n  pop\n    /* \"contracts/bomToken.sol\":62:1396  contract BomToken {\r... */\n  jump(tag_7)\ntag_2:\n  dup3\n  dup1\n  sload\n  tag_8\n  swap1\n  tag_9\n  jump\t// in\ntag_8:\n  swap1\n  0x00\n  mstore\n  keccak256(0x00, 0x20)\n  swap1\n  0x1f\n  add\n  0x20\n  swap1\n  div\n  dup2\n  add\n  swap3\n  dup3\n  tag_11\n  jumpi\n  0x00\n  dup6\n  sstore\n  jump(tag_10)\ntag_11:\n  dup3\n  0x1f\n  lt\n  tag_12\n  jumpi\n  dup1\n  mload\n  not(0xff)\n  and\n  dup4\n  dup1\n  add\n  or\n  dup6\n  sstore\n  jump(tag_10)\ntag_12:\n  dup3\n  dup1\n  add\n  0x01\n  add\n  dup6\n  sstore\n  dup3\n  iszero\n  tag_10\n  jumpi\n  swap2\n  dup3\n  add\ntag_13:\n  dup3\n  dup2\n  gt\n  iszero\n  tag_14\n  jumpi\n  dup3\n  mload\n  dup3\n  sstore\n  swap2\n  0x20\n  add\n  swap2\n  swap1\n  0x01\n  add\n  swap1\n  jump(tag_13)\ntag_14:\ntag_10:\n  pop\n  swap1\n  pop\n  tag_15\n  swap2\n  swap1\n  tag_16\n  jump\t// in\ntag_15:\n  pop\n  swap1\n  jump\t// out\ntag_16:\ntag_17:\n  dup1\n  dup3\n  gt\n  iszero\n  tag_18\n  jumpi\n  0x00\n  dup2\n  0x00\n  swap1\n  sstore\n  pop\n  0x01\n  add\n  jump(tag_17)\ntag_18:\n  pop\n  swap1\n  jump\t// out\n    /* \"#utility.yul\":7:327   */\ntag_9:\n    /* \"#utility.yul\":51:57   */\n  0x00\n    /* \"#utility.yul\":88:89   */\n  0x02\n    /* \"#utility.yul\":82:86   */\n  dup3\n    /* \"#utility.yul\":78:90   */\n  div\n    /* \"#utility.yul\":68:90   */\n  swap1\n  pop\n    /* \"#utility.yul\":135:136   */\n  0x01\n    /* \"#utility.yul\":129:133   */\n  dup3\n    /* \"#utility.yul\":125:137   */\n  and\n    /* \"#utility.yul\":156:174   */\n  dup1\n    /* \"#utility.yul\":146:227   */\n  tag_21\n  jumpi\n    /* \"#utility.yul\":212:216   */\n  0x7f\n    /* \"#utility.yul\":204:210   */\n  dup3\n    /* \"#utility.yul\":200:217   */\n  and\n    /* \"#utility.yul\":190:217   */\n  swap2\n  pop\n    /* \"#utility.yul\":146:227   */\ntag_21:\n    /* \"#utility.yul\":274:276   */\n  0x20\n    /* \"#utility.yul\":266:272   */\n  dup3\n    /* \"#utility.yul\":263:277   */\n  lt\n    /* \"#utility.yul\":243:261   */\n  dup2\n    /* \"#utility.yul\":240:278   */\n  eq\n    /* \"#utility.yul\":237:321   */\n  iszero\n  tag_22\n  jumpi\n    /* \"#utility.yul\":293:311   */\n  tag_23\n  tag_24\n  jump\t// in\ntag_23:\n    /* \"#utility.yul\":237:321   */\ntag_22:\n    /* \"#utility.yul\":58:327   */\n  pop\n    /* \"#utility.yul\":7:327   */\n  swap2\n  swap1\n  pop\n  jump\t// out\n    /* \"#utility.yul\":333:513   */\ntag_24:\n    /* \"#utility.yul\":381:458   */\n  0x4e487b7100000000000000000000000000000000000000000000000000000000\n    /* \"#utility.yul\":378:379   */\n  0x00\n    /* \"#utility.yul\":371:459   */\n  mstore\n    /* \"#utility.yul\":478:482   */\n  0x22\n    /* \"#utility.yul\":475:476   */\n  0x04\n    /* \"#utility.yul\":468:483   */\n  mstore\n    /* \"#utility.yul\":502:506   */\n  0x24\n    /* \"#utility.yul\":499:500   */\n  0x00\n    /* \"#utility.yul\":492:507   */\n  revert\n    /* \"contracts/bomToken.sol\":62:1396  contract BomToken {\r... */\ntag_7:\n  dataSize(sub_0)\n  dup1\n  dataOffset(sub_0)\n  0x00\n  codecopy\n  0x00\n  return\nstop\n\nsub_0: assembly {\n        /* \"contracts/bomToken.sol\":62:1396  contract BomToken {\r... */\n      mstore(0x40, 0x80)\n      callvalue\n      dup1\n      iszero\n      tag_1\n      jumpi\n      0x00\n      dup1\n      revert\n    tag_1:\n      pop\n      jumpi(tag_2, lt(calldatasize, 0x04))\n      shr(0xe0, calldataload(0x00))\n      dup1\n      0x42966c68\n      eq\n      tag_3\n      jumpi\n      dup1\n      0x4637d827\n      eq\n      tag_4\n      jumpi\n      dup1\n      0x566690ec\n      eq\n      tag_5\n      jumpi\n      dup1\n      0x94bf804d\n      eq\n      tag_6\n      jumpi\n      dup1\n      0xdaea85c5\n      eq\n      tag_7\n      jumpi\n      dup1\n      0xf8b2cb4f\n      eq\n      tag_8\n      jumpi\n    tag_2:\n      0x00\n      dup1\n      revert\n        /* \"contracts/bomToken.sol\":943:1063  function burn(uint256 _amount) public {\r... */\n    tag_3:\n      tag_9\n      0x04\n      dup1\n      calldatasize\n      sub\n      dup2\n      add\n      swap1\n      tag_10\n      swap2\n      swap1\n      tag_11\n      jump\t// in\n    tag_10:\n      tag_12\n      jump\t// in\n    tag_9:\n      stop\n        /* \"contracts/bomToken.sol\":377:418  mapping(address => address ) public trust */\n    tag_4:\n      tag_13\n      0x04\n      dup1\n      calldatasize\n      sub\n      dup2\n      add\n      swap1\n      tag_14\n      swap2\n      swap1\n      tag_15\n      jump\t// in\n    tag_14:\n      tag_16\n      jump\t// in\n    tag_13:\n      mload(0x40)\n      tag_17\n      swap2\n      swap1\n      tag_18\n      jump\t// in\n    tag_17:\n      mload(0x40)\n      dup1\n      swap2\n      sub\n      swap1\n      return\n        /* \"contracts/bomToken.sol\":279:326  mapping(address => address ) public transaction */\n    tag_5:\n      tag_19\n      0x04\n      dup1\n      calldatasize\n      sub\n      dup2\n      add\n      swap1\n      tag_20\n      swap2\n      swap1\n      tag_15\n      jump\t// in\n    tag_20:\n      tag_21\n      jump\t// in\n    tag_19:\n      mload(0x40)\n      tag_22\n      swap2\n      swap1\n      tag_18\n      jump\t// in\n    tag_22:\n      mload(0x40)\n      dup1\n      swap2\n      sub\n      swap1\n      return\n        /* \"contracts/bomToken.sol\":708:935  function mint(uint256 amount ,address targetAdress) public {\r... */\n    tag_6:\n      tag_23\n      0x04\n      dup1\n      calldatasize\n      sub\n      dup2\n      add\n      swap1\n      tag_24\n      swap2\n      swap1\n      tag_25\n      jump\t// in\n    tag_24:\n      tag_26\n      jump\t// in\n    tag_23:\n      stop\n        /* \"contracts/bomToken.sol\":1071:1159  function approve (address _trusty) public {\r... */\n    tag_7:\n      tag_27\n      0x04\n      dup1\n      calldatasize\n      sub\n      dup2\n      add\n      swap1\n      tag_28\n      swap2\n      swap1\n      tag_15\n      jump\t// in\n    tag_28:\n      tag_29\n      jump\t// in\n    tag_27:\n      stop\n        /* \"contracts/bomToken.sol\":574:698  function getBalance(address targetwallet) public view returns(uint256)\r... */\n    tag_8:\n      tag_30\n      0x04\n      dup1\n      calldatasize\n      sub\n      dup2\n      add\n      swap1\n      tag_31\n      swap2\n      swap1\n      tag_15\n      jump\t// in\n    tag_31:\n      tag_32\n      jump\t// in\n    tag_30:\n      mload(0x40)\n      tag_33\n      swap2\n      swap1\n      tag_34\n      jump\t// in\n    tag_33:\n      mload(0x40)\n      dup1\n      swap2\n      sub\n      swap1\n      return\n        /* \"contracts/bomToken.sol\":943:1063  function burn(uint256 _amount) public {\r... */\n    tag_12:\n        /* \"contracts/bomToken.sol\":1014:1021  _amount */\n      dup1\n        /* \"contracts/bomToken.sol\":992:998  ledger */\n      0x07\n        /* \"contracts/bomToken.sol\":992:1010  ledger[msg.sender] */\n      0x00\n        /* \"contracts/bomToken.sol\":999:1009  msg.sender */\n      caller\n        /* \"contracts/bomToken.sol\":992:1010  ledger[msg.sender] */\n      0xffffffffffffffffffffffffffffffffffffffff\n      and\n      0xffffffffffffffffffffffffffffffffffffffff\n      and\n      dup2\n      mstore\n      0x20\n      add\n      swap1\n      dup2\n      mstore\n      0x20\n      add\n      0x00\n      keccak256\n      0x00\n        /* \"contracts/bomToken.sol\":992:1021  ledger[msg.sender] -= _amount */\n      dup3\n      dup3\n      sload\n      tag_36\n      swap2\n      swap1\n      tag_37\n      jump\t// in\n    tag_36:\n      swap3\n      pop\n      pop\n      dup2\n      swap1\n      sstore\n      pop\n        /* \"contracts/bomToken.sol\":1048:1055  _amount */\n      dup1\n        /* \"contracts/bomToken.sol\":1037:1044  csupply */\n      0x02\n      0x00\n        /* \"contracts/bomToken.sol\":1037:1055  csupply -= _amount */\n      dup3\n      dup3\n      sload\n      tag_38\n      swap2\n      swap1\n      tag_37\n      jump\t// in\n    tag_38:\n      swap3\n      pop\n      pop\n      dup2\n      swap1\n      sstore\n      pop\n        /* \"contracts/bomToken.sol\":943:1063  function burn(uint256 _amount) public {\r... */\n      pop\n      jump\t// out\n        /* \"contracts/bomToken.sol\":377:418  mapping(address => address ) public trust */\n    tag_16:\n      mstore(0x20, 0x08)\n      dup1\n      0x00\n      mstore\n      keccak256(0x00, 0x40)\n      0x00\n      swap2\n      pop\n      sload\n      swap1\n      0x0100\n      exp\n      swap1\n      div\n      0xffffffffffffffffffffffffffffffffffffffff\n      and\n      dup2\n      jump\t// out\n        /* \"contracts/bomToken.sol\":279:326  mapping(address => address ) public transaction */\n    tag_21:\n      mstore(0x20, 0x06)\n      dup1\n      0x00\n      mstore\n      keccak256(0x00, 0x40)\n      0x00\n      swap2\n      pop\n      sload\n      swap1\n      0x0100\n      exp\n      swap1\n      div\n      0xffffffffffffffffffffffffffffffffffffffff\n      and\n      dup2\n      jump\t// out\n        /* \"contracts/bomToken.sol\":708:935  function mint(uint256 amount ,address targetAdress) public {\r... */\n    tag_26:\n        /* \"contracts/bomToken.sol\":810:819  maxSupply */\n      sload(0x03)\n        /* \"contracts/bomToken.sol\":799:806  csupply */\n      sload(0x02)\n        /* \"contracts/bomToken.sol\":792:798  amount */\n      dup4\n        /* \"contracts/bomToken.sol\":792:806  amount+csupply */\n      tag_40\n      swap2\n      swap1\n      tag_41\n      jump\t// in\n    tag_40:\n        /* \"contracts/bomToken.sol\":792:819  amount+csupply <= maxSupply */\n      gt\n      iszero\n        /* \"contracts/bomToken.sol\":783:848  require( amount+csupply <= maxSupply , \"error not enough supply\") */\n      tag_42\n      jumpi\n      mload(0x40)\n      0x08c379a000000000000000000000000000000000000000000000000000000000\n      dup2\n      mstore\n      0x04\n      add\n      tag_43\n      swap1\n      tag_44\n      jump\t// in\n    tag_43:\n      mload(0x40)\n      dup1\n      swap2\n      sub\n      swap1\n      revert\n    tag_42:\n        /* \"contracts/bomToken.sol\":888:894  amount */\n      dup2\n        /* \"contracts/bomToken.sol\":864:870  ledger */\n      0x07\n        /* \"contracts/bomToken.sol\":864:884  ledger[targetAdress] */\n      0x00\n        /* \"contracts/bomToken.sol\":871:883  targetAdress */\n      dup4\n        /* \"contracts/bomToken.sol\":864:884  ledger[targetAdress] */\n      0xffffffffffffffffffffffffffffffffffffffff\n      and\n      0xffffffffffffffffffffffffffffffffffffffff\n      and\n      dup2\n      mstore\n      0x20\n      add\n      swap1\n      dup2\n      mstore\n      0x20\n      add\n      0x00\n      keccak256\n      0x00\n        /* \"contracts/bomToken.sol\":864:894  ledger[targetAdress] += amount */\n      dup3\n      dup3\n      sload\n      tag_45\n      swap2\n      swap1\n      tag_41\n      jump\t// in\n    tag_45:\n      swap3\n      pop\n      pop\n      dup2\n      swap1\n      sstore\n      pop\n        /* \"contracts/bomToken.sol\":921:927  amount */\n      dup2\n        /* \"contracts/bomToken.sol\":910:917  csupply */\n      0x02\n      0x00\n        /* \"contracts/bomToken.sol\":910:927  csupply += amount */\n      dup3\n      dup3\n      sload\n      tag_46\n      swap2\n      swap1\n      tag_41\n      jump\t// in\n    tag_46:\n      swap3\n      pop\n      pop\n      dup2\n      swap1\n      sstore\n      pop\n        /* \"contracts/bomToken.sol\":708:935  function mint(uint256 amount ,address targetAdress) public {\r... */\n      pop\n      pop\n      jump\t// out\n        /* \"contracts/bomToken.sol\":1071:1159  function approve (address _trusty) public {\r... */\n    tag_29:\n        /* \"contracts/bomToken.sol\":1144:1151  _trusty */\n      dup1\n        /* \"contracts/bomToken.sol\":1124:1129  trust */\n      0x08\n        /* \"contracts/bomToken.sol\":1124:1141  trust[msg.sender] */\n      0x00\n        /* \"contracts/bomToken.sol\":1130:1140  msg.sender */\n      caller\n        /* \"contracts/bomToken.sol\":1124:1141  trust[msg.sender] */\n      0xffffffffffffffffffffffffffffffffffffffff\n      and\n      0xffffffffffffffffffffffffffffffffffffffff\n      and\n      dup2\n      mstore\n      0x20\n      add\n      swap1\n      dup2\n      mstore\n      0x20\n      add\n      0x00\n      keccak256\n      0x00\n        /* \"contracts/bomToken.sol\":1124:1151  trust[msg.sender] = _trusty */\n      0x0100\n      exp\n      dup2\n      sload\n      dup2\n      0xffffffffffffffffffffffffffffffffffffffff\n      mul\n      not\n      and\n      swap1\n      dup4\n      0xffffffffffffffffffffffffffffffffffffffff\n      and\n      mul\n      or\n      swap1\n      sstore\n      pop\n        /* \"contracts/bomToken.sol\":1071:1159  function approve (address _trusty) public {\r... */\n      pop\n      jump\t// out\n        /* \"contracts/bomToken.sol\":574:698  function getBalance(address targetwallet) public view returns(uint256)\r... */\n    tag_32:\n        /* \"contracts/bomToken.sol\":636:643  uint256 */\n      0x00\n        /* \"contracts/bomToken.sol\":668:674  ledger */\n      0x07\n        /* \"contracts/bomToken.sol\":668:688  ledger[targetwallet] */\n      0x00\n        /* \"contracts/bomToken.sol\":675:687  targetwallet */\n      dup4\n        /* \"contracts/bomToken.sol\":668:688  ledger[targetwallet] */\n      0xffffffffffffffffffffffffffffffffffffffff\n      and\n      0xffffffffffffffffffffffffffffffffffffffff\n      and\n      dup2\n      mstore\n      0x20\n      add\n      swap1\n      dup2\n      mstore\n      0x20\n      add\n      0x00\n      keccak256\n      sload\n        /* \"contracts/bomToken.sol\":661:688  return ledger[targetwallet] */\n      swap1\n      pop\n        /* \"contracts/bomToken.sol\":574:698  function getBalance(address targetwallet) public view returns(uint256)\r... */\n      swap2\n      swap1\n      pop\n      jump\t// out\n        /* \"#utility.yul\":7:146   */\n    tag_50:\n        /* \"#utility.yul\":53:58   */\n      0x00\n        /* \"#utility.yul\":91:97   */\n      dup2\n        /* \"#utility.yul\":78:98   */\n      calldataload\n        /* \"#utility.yul\":69:98   */\n      swap1\n      pop\n        /* \"#utility.yul\":107:140   */\n      tag_52\n        /* \"#utility.yul\":134:139   */\n      dup2\n        /* \"#utility.yul\":107:140   */\n      tag_53\n      jump\t// in\n    tag_52:\n        /* \"#utility.yul\":7:146   */\n      swap3\n      swap2\n      pop\n      pop\n      jump\t// out\n        /* \"#utility.yul\":152:291   */\n    tag_54:\n        /* \"#utility.yul\":198:203   */\n      0x00\n        /* \"#utility.yul\":236:242   */\n      dup2\n        /* \"#utility.yul\":223:243   */\n      calldataload\n        /* \"#utility.yul\":214:243   */\n      swap1\n      pop\n        /* \"#utility.yul\":252:285   */\n      tag_56\n        /* \"#utility.yul\":279:284   */\n      dup2\n        /* \"#utility.yul\":252:285   */\n      tag_57\n      jump\t// in\n    tag_56:\n        /* \"#utility.yul\":152:291   */\n      swap3\n      swap2\n      pop\n      pop\n      jump\t// out\n        /* \"#utility.yul\":297:626   */\n    tag_15:\n        /* \"#utility.yul\":356:362   */\n      0x00\n        /* \"#utility.yul\":405:407   */\n      0x20\n        /* \"#utility.yul\":393:402   */\n      dup3\n        /* \"#utility.yul\":384:391   */\n      dup5\n        /* \"#utility.yul\":380:403   */\n      sub\n        /* \"#utility.yul\":376:408   */\n      slt\n        /* \"#utility.yul\":373:492   */\n      iszero\n      tag_59\n      jumpi\n        /* \"#utility.yul\":411:490   */\n      tag_60\n      tag_61\n      jump\t// in\n    tag_60:\n        /* \"#utility.yul\":373:492   */\n    tag_59:\n        /* \"#utility.yul\":531:532   */\n      0x00\n        /* \"#utility.yul\":556:609   */\n      tag_62\n        /* \"#utility.yul\":601:608   */\n      dup5\n        /* \"#utility.yul\":592:598   */\n      dup3\n        /* \"#utility.yul\":581:590   */\n      dup6\n        /* \"#utility.yul\":577:599   */\n      add\n        /* \"#utility.yul\":556:609   */\n      tag_50\n      jump\t// in\n    tag_62:\n        /* \"#utility.yul\":546:609   */\n      swap2\n      pop\n        /* \"#utility.yul\":502:619   */\n      pop\n        /* \"#utility.yul\":297:626   */\n      swap3\n      swap2\n      pop\n      pop\n      jump\t// out\n        /* \"#utility.yul\":632:961   */\n    tag_11:\n        /* \"#utility.yul\":691:697   */\n      0x00\n        /* \"#utility.yul\":740:742   */\n      0x20\n        /* \"#utility.yul\":728:737   */\n      dup3\n        /* \"#utility.yul\":719:726   */\n      dup5\n        /* \"#utility.yul\":715:738   */\n      sub\n        /* \"#utility.yul\":711:743   */\n      slt\n        /* \"#utility.yul\":708:827   */\n      iszero\n      tag_64\n      jumpi\n        /* \"#utility.yul\":746:825   */\n      tag_65\n      tag_61\n      jump\t// in\n    tag_65:\n        /* \"#utility.yul\":708:827   */\n    tag_64:\n        /* \"#utility.yul\":866:867   */\n      0x00\n        /* \"#utility.yul\":891:944   */\n      tag_66\n        /* \"#utility.yul\":936:943   */\n      dup5\n        /* \"#utility.yul\":927:933   */\n      dup3\n        /* \"#utility.yul\":916:925   */\n      dup6\n        /* \"#utility.yul\":912:934   */\n      add\n        /* \"#utility.yul\":891:944   */\n      tag_54\n      jump\t// in\n    tag_66:\n        /* \"#utility.yul\":881:944   */\n      swap2\n      pop\n        /* \"#utility.yul\":837:954   */\n      pop\n        /* \"#utility.yul\":632:961   */\n      swap3\n      swap2\n      pop\n      pop\n      jump\t// out\n        /* \"#utility.yul\":967:1441   */\n    tag_25:\n        /* \"#utility.yul\":1035:1041   */\n      0x00\n        /* \"#utility.yul\":1043:1049   */\n      dup1\n        /* \"#utility.yul\":1092:1094   */\n      0x40\n        /* \"#utility.yul\":1080:1089   */\n      dup4\n        /* \"#utility.yul\":1071:1078   */\n      dup6\n        /* \"#utility.yul\":1067:1090   */\n      sub\n        /* \"#utility.yul\":1063:1095   */\n      slt\n        /* \"#utility.yul\":1060:1179   */\n      iszero\n      tag_68\n      jumpi\n        /* \"#utility.yul\":1098:1177   */\n      tag_69\n      tag_61\n      jump\t// in\n    tag_69:\n        /* \"#utility.yul\":1060:1179   */\n    tag_68:\n        /* \"#utility.yul\":1218:1219   */\n      0x00\n        /* \"#utility.yul\":1243:1296   */\n      tag_70\n        /* \"#utility.yul\":1288:1295   */\n      dup6\n        /* \"#utility.yul\":1279:1285   */\n      dup3\n        /* \"#utility.yul\":1268:1277   */\n      dup7\n        /* \"#utility.yul\":1264:1286   */\n      add\n        /* \"#utility.yul\":1243:1296   */\n      tag_54\n      jump\t// in\n    tag_70:\n        /* \"#utility.yul\":1233:1296   */\n      swap3\n      pop\n        /* \"#utility.yul\":1189:1306   */\n      pop\n        /* \"#utility.yul\":1345:1347   */\n      0x20\n        /* \"#utility.yul\":1371:1424   */\n      tag_71\n        /* \"#utility.yul\":1416:1423   */\n      dup6\n        /* \"#utility.yul\":1407:1413   */\n      dup3\n        /* \"#utility.yul\":1396:1405   */\n      dup7\n        /* \"#utility.yul\":1392:1414   */\n      add\n        /* \"#utility.yul\":1371:1424   */\n      tag_50\n      jump\t// in\n    tag_71:\n        /* \"#utility.yul\":1361:1424   */\n      swap2\n      pop\n        /* \"#utility.yul\":1316:1434   */\n      pop\n        /* \"#utility.yul\":967:1441   */\n      swap3\n      pop\n      swap3\n      swap1\n      pop\n      jump\t// out\n        /* \"#utility.yul\":1447:1565   */\n    tag_72:\n        /* \"#utility.yul\":1534:1558   */\n      tag_74\n        /* \"#utility.yul\":1552:1557   */\n      dup2\n        /* \"#utility.yul\":1534:1558   */\n      tag_75\n      jump\t// in\n    tag_74:\n        /* \"#utility.yul\":1529:1532   */\n      dup3\n        /* \"#utility.yul\":1522:1559   */\n      mstore\n        /* \"#utility.yul\":1447:1565   */\n      pop\n      pop\n      jump\t// out\n        /* \"#utility.yul\":1571:1937   */\n    tag_76:\n        /* \"#utility.yul\":1713:1716   */\n      0x00\n        /* \"#utility.yul\":1734:1801   */\n      tag_78\n        /* \"#utility.yul\":1798:1800   */\n      0x17\n        /* \"#utility.yul\":1793:1796   */\n      dup4\n        /* \"#utility.yul\":1734:1801   */\n      tag_79\n      jump\t// in\n    tag_78:\n        /* \"#utility.yul\":1727:1801   */\n      swap2\n      pop\n        /* \"#utility.yul\":1810:1903   */\n      tag_80\n        /* \"#utility.yul\":1899:1902   */\n      dup3\n        /* \"#utility.yul\":1810:1903   */\n      tag_81\n      jump\t// in\n    tag_80:\n        /* \"#utility.yul\":1928:1930   */\n      0x20\n        /* \"#utility.yul\":1923:1926   */\n      dup3\n        /* \"#utility.yul\":1919:1931   */\n      add\n        /* \"#utility.yul\":1912:1931   */\n      swap1\n      pop\n        /* \"#utility.yul\":1571:1937   */\n      swap2\n      swap1\n      pop\n      jump\t// out\n        /* \"#utility.yul\":1943:2061   */\n    tag_82:\n        /* \"#utility.yul\":2030:2054   */\n      tag_84\n        /* \"#utility.yul\":2048:2053   */\n      dup2\n        /* \"#utility.yul\":2030:2054   */\n      tag_85\n      jump\t// in\n    tag_84:\n        /* \"#utility.yul\":2025:2028   */\n      dup3\n        /* \"#utility.yul\":2018:2055   */\n      mstore\n        /* \"#utility.yul\":1943:2061   */\n      pop\n      pop\n      jump\t// out\n        /* \"#utility.yul\":2067:2289   */\n    tag_18:\n        /* \"#utility.yul\":2160:2164   */\n      0x00\n        /* \"#utility.yul\":2198:2200   */\n      0x20\n        /* \"#utility.yul\":2187:2196   */\n      dup3\n        /* \"#utility.yul\":2183:2201   */\n      add\n        /* \"#utility.yul\":2175:2201   */\n      swap1\n      pop\n        /* \"#utility.yul\":2211:2282   */\n      tag_87\n        /* \"#utility.yul\":2279:2280   */\n      0x00\n        /* \"#utility.yul\":2268:2277   */\n      dup4\n        /* \"#utility.yul\":2264:2281   */\n      add\n        /* \"#utility.yul\":2255:2261   */\n      dup5\n        /* \"#utility.yul\":2211:2282   */\n      tag_72\n      jump\t// in\n    tag_87:\n        /* \"#utility.yul\":2067:2289   */\n      swap3\n      swap2\n      pop\n      pop\n      jump\t// out\n        /* \"#utility.yul\":2295:2714   */\n    tag_44:\n        /* \"#utility.yul\":2461:2465   */\n      0x00\n        /* \"#utility.yul\":2499:2501   */\n      0x20\n        /* \"#utility.yul\":2488:2497   */\n      dup3\n        /* \"#utility.yul\":2484:2502   */\n      add\n        /* \"#utility.yul\":2476:2502   */\n      swap1\n      pop\n        /* \"#utility.yul\":2548:2557   */\n      dup2\n        /* \"#utility.yul\":2542:2546   */\n      dup2\n        /* \"#utility.yul\":2538:2558   */\n      sub\n        /* \"#utility.yul\":2534:2535   */\n      0x00\n        /* \"#utility.yul\":2523:2532   */\n      dup4\n        /* \"#utility.yul\":2519:2536   */\n      add\n        /* \"#utility.yul\":2512:2559   */\n      mstore\n        /* \"#utility.yul\":2576:2707   */\n      tag_89\n        /* \"#utility.yul\":2702:2706   */\n      dup2\n        /* \"#utility.yul\":2576:2707   */\n      tag_76\n      jump\t// in\n    tag_89:\n        /* \"#utility.yul\":2568:2707   */\n      swap1\n      pop\n        /* \"#utility.yul\":2295:2714   */\n      swap2\n      swap1\n      pop\n      jump\t// out\n        /* \"#utility.yul\":2720:2942   */\n    tag_34:\n        /* \"#utility.yul\":2813:2817   */\n      0x00\n        /* \"#utility.yul\":2851:2853   */\n      0x20\n        /* \"#utility.yul\":2840:2849   */\n      dup3\n        /* \"#utility.yul\":2836:2854   */\n      add\n        /* \"#utility.yul\":2828:2854   */\n      swap1\n      pop\n        /* \"#utility.yul\":2864:2935   */\n      tag_91\n        /* \"#utility.yul\":2932:2933   */\n      0x00\n        /* \"#utility.yul\":2921:2930   */\n      dup4\n        /* \"#utility.yul\":2917:2934   */\n      add\n        /* \"#utility.yul\":2908:2914   */\n      dup5\n        /* \"#utility.yul\":2864:2935   */\n      tag_82\n      jump\t// in\n    tag_91:\n        /* \"#utility.yul\":2720:2942   */\n      swap3\n      swap2\n      pop\n      pop\n      jump\t// out\n        /* \"#utility.yul\":3029:3198   */\n    tag_79:\n        /* \"#utility.yul\":3113:3124   */\n      0x00\n        /* \"#utility.yul\":3147:3153   */\n      dup3\n        /* \"#utility.yul\":3142:3145   */\n      dup3\n        /* \"#utility.yul\":3135:3154   */\n      mstore\n        /* \"#utility.yul\":3187:3191   */\n      0x20\n        /* \"#utility.yul\":3182:3185   */\n      dup3\n        /* \"#utility.yul\":3178:3192   */\n      add\n        /* \"#utility.yul\":3163:3192   */\n      swap1\n      pop\n        /* \"#utility.yul\":3029:3198   */\n      swap3\n      swap2\n      pop\n      pop\n      jump\t// out\n        /* \"#utility.yul\":3204:3509   */\n    tag_41:\n        /* \"#utility.yul\":3244:3247   */\n      0x00\n        /* \"#utility.yul\":3263:3283   */\n      tag_96\n        /* \"#utility.yul\":3281:3282   */\n      dup3\n        /* \"#utility.yul\":3263:3283   */\n      tag_85\n      jump\t// in\n    tag_96:\n        /* \"#utility.yul\":3258:3283   */\n      swap2\n      pop\n        /* \"#utility.yul\":3297:3317   */\n      tag_97\n        /* \"#utility.yul\":3315:3316   */\n      dup4\n        /* \"#utility.yul\":3297:3317   */\n      tag_85\n      jump\t// in\n    tag_97:\n        /* \"#utility.yul\":3292:3317   */\n      swap3\n      pop\n        /* \"#utility.yul\":3451:3452   */\n      dup3\n        /* \"#utility.yul\":3383:3449   */\n      0xffffffffffffffffffffffffffffffffffffffffffffffffffffffffffffffff\n        /* \"#utility.yul\":3379:3453   */\n      sub\n        /* \"#utility.yul\":3376:3377   */\n      dup3\n        /* \"#utility.yul\":3373:3454   */\n      gt\n        /* \"#utility.yul\":3370:3477   */\n      iszero\n      tag_98\n      jumpi\n        /* \"#utility.yul\":3457:3475   */\n      tag_99\n      tag_100\n      jump\t// in\n    tag_99:\n        /* \"#utility.yul\":3370:3477   */\n    tag_98:\n        /* \"#utility.yul\":3501:3502   */\n      dup3\n        /* \"#utility.yul\":3498:3499   */\n      dup3\n        /* \"#utility.yul\":3494:3503   */\n      add\n        /* \"#utility.yul\":3487:3503   */\n      swap1\n      pop\n        /* \"#utility.yul\":3204:3509   */\n      swap3\n      swap2\n      pop\n      pop\n      jump\t// out\n        /* \"#utility.yul\":3515:3706   */\n    tag_37:\n        /* \"#utility.yul\":3555:3559   */\n      0x00\n        /* \"#utility.yul\":3575:3595   */\n      tag_102\n        /* \"#utility.yul\":3593:3594   */\n      dup3\n        /* \"#utility.yul\":3575:3595   */\n      tag_85\n      jump\t// in\n    tag_102:\n        /* \"#utility.yul\":3570:3595   */\n      swap2\n      pop\n        /* \"#utility.yul\":3609:3629   */\n      tag_103\n        /* \"#utility.yul\":3627:3628   */\n      dup4\n        /* \"#utility.yul\":3609:3629   */\n      tag_85\n      jump\t// in\n    tag_103:\n        /* \"#utility.yul\":3604:3629   */\n      swap3\n      pop\n        /* \"#utility.yul\":3648:3649   */\n      dup3\n        /* \"#utility.yul\":3645:3646   */\n      dup3\n        /* \"#utility.yul\":3642:3650   */\n      lt\n        /* \"#utility.yul\":3639:3673   */\n      iszero\n      tag_104\n      jumpi\n        /* \"#utility.yul\":3653:3671   */\n      tag_105\n      tag_100\n      jump\t// in\n    tag_105:\n        /* \"#utility.yul\":3639:3673   */\n    tag_104:\n        /* \"#utility.yul\":3698:3699   */\n      dup3\n        /* \"#utility.yul\":3695:3696   */\n      dup3\n        /* \"#utility.yul\":3691:3700   */\n      sub\n        /* \"#utility.yul\":3683:3700   */\n      swap1\n      pop\n        /* \"#utility.yul\":3515:3706   */\n      swap3\n      swap2\n      pop\n      pop\n      jump\t// out\n        /* \"#utility.yul\":3712:3808   */\n    tag_75:\n        /* \"#utility.yul\":3749:3756   */\n      0x00\n        /* \"#utility.yul\":3778:3802   */\n      tag_107\n        /* \"#utility.yul\":3796:3801   */\n      dup3\n        /* \"#utility.yul\":3778:3802   */\n      tag_108\n      jump\t// in\n    tag_107:\n        /* \"#utility.yul\":3767:3802   */\n      swap1\n      pop\n        /* \"#utility.yul\":3712:3808   */\n      swap2\n      swap1\n      pop\n      jump\t// out\n        /* \"#utility.yul\":3814:3940   */\n    tag_108:\n        /* \"#utility.yul\":3851:3858   */\n      0x00\n        /* \"#utility.yul\":3891:3933   */\n      0xffffffffffffffffffffffffffffffffffffffff\n        /* \"#utility.yul\":3884:3889   */\n      dup3\n        /* \"#utility.yul\":3880:3934   */\n      and\n        /* \"#utility.yul\":3869:3934   */\n      swap1\n      pop\n        /* \"#utility.yul\":3814:3940   */\n      swap2\n      swap1\n      pop\n      jump\t// out\n        /* \"#utility.yul\":3946:4023   */\n    tag_85:\n        /* \"#utility.yul\":3983:3990   */\n      0x00\n        /* \"#utility.yul\":4012:4017   */\n      dup2\n        /* \"#utility.yul\":4001:4017   */\n      swap1\n      pop\n        /* \"#utility.yul\":3946:4023   */\n      swap2\n      swap1\n      pop\n      jump\t// out\n        /* \"#utility.yul\":4029:4209   */\n    tag_100:\n        /* \"#utility.yul\":4077:4154   */\n      0x4e487b7100000000000000000000000000000000000000000000000000000000\n        /* \"#utility.yul\":4074:4075   */\n      0x00\n        /* \"#utility.yul\":4067:4155   */\n      mstore\n        /* \"#utility.yul\":4174:4178   */\n      0x11\n        /* \"#utility.yul\":4171:4172   */\n      0x04\n        /* \"#utility.yul\":4164:4179   */\n      mstore\n        /* \"#utility.yul\":4198:4202   */\n      0x24\n        /* \"#utility.yul\":4195:4196   */\n      0x00\n        /* \"#utility.yul\":4188:4203   */\n      revert\n        /* \"#utility.yul\":4338:4455   */\n    tag_61:\n        /* \"#utility.yul\":4447:4448   */\n      0x00\n        /* \"#utility.yul\":4444:4445   */\n      dup1\n        /* \"#utility.yul\":4437:4449   */\n      revert\n        /* \"#utility.yul\":4461:4634   */\n    tag_81:\n        /* \"#utility.yul\":4601:4626   */\n      0x6572726f72206e6f7420656e6f75676820737570706c79000000000000000000\n        /* \"#utility.yul\":4597:4598   */\n      0x00\n        /* \"#utility.yul\":4589:4595   */\n      dup3\n        /* \"#utility.yul\":4585:4599   */\n      add\n        /* \"#utility.yul\":4578:4627   */\n      mstore\n        /* \"#utility.yul\":4461:4634   */\n      pop\n      jump\t// out\n        /* \"#utility.yul\":4640:4762   */\n    tag_53:\n        /* \"#utility.yul\":4713:4737   */\n      tag_117\n        /* \"#utility.yul\":4731:4736   */\n      dup2\n        /* \"#utility.yul\":4713:4737   */\n      tag_75\n      jump\t// in\n    tag_117:\n        /* \"#utility.yul\":4706:4711   */\n      dup2\n        /* \"#utility.yul\":4703:4738   */\n      eq\n        /* \"#utility.yul\":4693:4756   */\n      tag_118\n      jumpi\n        /* \"#utility.yul\":4752:4753   */\n      0x00\n        /* \"#utility.yul\":4749:4750   */\n      dup1\n        /* \"#utility.yul\":4742:4754   */\n      revert\n        /* \"#utility.yul\":4693:4756   */\n    tag_118:\n        /* \"#utility.yul\":4640:4762   */\n      pop\n      jump\t// out\n        /* \"#utility.yul\":4768:4890   */\n    tag_57:\n        /* \"#utility.yul\":4841:4865   */\n      tag_120\n        /* \"#utility.yul\":4859:4864   */\n      dup2\n        /* \"#utility.yul\":4841:4865   */\n      tag_85\n      jump\t// in\n    tag_120:\n        /* \"#utility.yul\":4834:4839   */\n      dup2\n        /* \"#utility.yul\":4831:4866   */\n      eq\n        /* \"#utility.yul\":4821:4884   */\n      tag_121\n      jumpi\n        /* \"#utility.yul\":4880:4881   */\n      0x00\n        /* \"#utility.yul\":4877:4878   */\n      dup1\n        /* \"#utility.yul\":4870:4882   */\n      revert\n        /* \"#utility.yul\":4821:4884   */\n    tag_121:\n        /* \"#utility.yul\":4768:4890   */\n      pop\n      jump\t// out\n\n    auxdata: 0xa2646970667358221220aaab10d7aa5ee9b8983e442b66652ab1ddbe3190188b08e50f7494920330d90464736f6c63430008070033\n}\n",
				"bytecode": {
					"linkReferences": {},
					"object": "60806040526040518060400160405280600981526020017f426f6d62546f6b656e00000000000000000000000000000000000000000000008152506000908051906020019061004f929190610103565b506040518060400160405280600281526020017f42540000000000000000000000000000000000000000000000000000000000008152506001908051906020019061009b929190610103565b50628954406002556305f5e100600355600a6004553480156100bc57600080fd5b5033600560006101000a81548173ffffffffffffffffffffffffffffffffffffffff021916908373ffffffffffffffffffffffffffffffffffffffff160217905550610207565b82805461010f906101a6565b90600052602060002090601f0160209004810192826101315760008555610178565b82601f1061014a57805160ff1916838001178555610178565b82800160010185558215610178579182015b8281111561017757825182559160200191906001019061015c565b5b5090506101859190610189565b5090565b5b808211156101a257600081600090555060010161018a565b5090565b600060028204905060018216806101be57607f821691505b602082108114156101d2576101d16101d8565b5b50919050565b7f4e487b7100000000000000000000000000000000000000000000000000000000600052602260045260246000fd5b6106a5806102166000396000f3fe608060405234801561001057600080fd5b50600436106100625760003560e01c806342966c68146100675780634637d82714610083578063566690ec146100b357806394bf804d146100e3578063daea85c5146100ff578063f8b2cb4f1461011b575b600080fd5b610081600480360381019061007c9190610409565b61014b565b005b61009d600480360381019061009891906103dc565b6101bd565b6040516100aa91906104b7565b60405180910390f35b6100cd60048036038101906100c891906103dc565b6101f0565b6040516100da91906104b7565b60405180910390f35b6100fd60048036038101906100f89190610436565b610223565b005b610119600480360381019061011491906103dc565b6102e8565b005b610135600480360381019061013091906103dc565b610369565b60405161014291906104f2565b60405180910390f35b80600760003373ffffffffffffffffffffffffffffffffffffffff1673ffffffffffffffffffffffffffffffffffffffff168152602001908152602001600020600082825461019a9190610574565b9250508190555080600260008282546101b39190610574565b9250508190555050565b60086020528060005260406000206000915054906101000a900473ffffffffffffffffffffffffffffffffffffffff1681565b60066020528060005260406000206000915054906101000a900473ffffffffffffffffffffffffffffffffffffffff1681565b60035460025483610234919061051e565b1115610275576040517f08c379a000000000000000000000000000000000000000000000000000000000815260040161026c906104d2565b60405180910390fd5b81600760008373ffffffffffffffffffffffffffffffffffffffff1673ffffffffffffffffffffffffffffffffffffffff16815260200190815260200160002060008282546102c4919061051e565b9250508190555081600260008282546102dd919061051e565b925050819055505050565b80600860003373ffffffffffffffffffffffffffffffffffffffff1673ffffffffffffffffffffffffffffffffffffffff16815260200190815260200160002060006101000a81548173ffffffffffffffffffffffffffffffffffffffff021916908373ffffffffffffffffffffffffffffffffffffffff16021790555050565b6000600760008373ffffffffffffffffffffffffffffffffffffffff1673ffffffffffffffffffffffffffffffffffffffff168152602001908152602001600020549050919050565b6000813590506103c181610641565b92915050565b6000813590506103d681610658565b92915050565b6000602082840312156103f2576103f1610613565b5b6000610400848285016103b2565b91505092915050565b60006020828403121561041f5761041e610613565b5b600061042d848285016103c7565b91505092915050565b6000806040838503121561044d5761044c610613565b5b600061045b858286016103c7565b925050602061046c858286016103b2565b9150509250929050565b61047f816105a8565b82525050565b600061049260178361050d565b915061049d82610618565b602082019050919050565b6104b1816105da565b82525050565b60006020820190506104cc6000830184610476565b92915050565b600060208201905081810360008301526104eb81610485565b9050919050565b600060208201905061050760008301846104a8565b92915050565b600082825260208201905092915050565b6000610529826105da565b9150610534836105da565b9250827fffffffffffffffffffffffffffffffffffffffffffffffffffffffffffffffff03821115610569576105686105e4565b5b828201905092915050565b600061057f826105da565b915061058a836105da565b92508282101561059d5761059c6105e4565b5b828203905092915050565b60006105b3826105ba565b9050919050565b600073ffffffffffffffffffffffffffffffffffffffff82169050919050565b6000819050919050565b7f4e487b7100000000000000000000000000000000000000000000000000000000600052601160045260246000fd5b600080fd5b7f6572726f72206e6f7420656e6f75676820737570706c79000000000000000000600082015250565b61064a816105a8565b811461065557600080fd5b50565b610661816105da565b811461066c57600080fd5b5056fea2646970667358221220aaab10d7aa5ee9b8983e442b66652ab1ddbe3190188b08e50f7494920330d90464736f6c63430008070033",
					"opcodes": "PUSH1 0x80 PUSH1 0x40 MSTORE PUSH1 0x40 MLOAD DUP1 PUSH1 0x40 ADD PUSH1 0x40 MSTORE DUP1 PUSH1 0x9 DUP2 MSTORE PUSH1 0x20 ADD PUSH32 0x426F6D62546F6B656E0000000000000000000000000000000000000000000000 DUP2 MSTORE POP PUSH1 0x0 SWAP1 DUP1 MLOAD SWAP1 PUSH1 0x20 ADD SWAP1 PUSH2 0x4F SWAP3 SWAP2 SWAP1 PUSH2 0x103 JUMP JUMPDEST POP PUSH1 0x40 MLOAD DUP1 PUSH1 0x40 ADD PUSH1 0x40 MSTORE DUP1 PUSH1 0x2 DUP2 MSTORE PUSH1 0x20 ADD PUSH32 0x4254000000000000000000000000000000000000000000000000000000000000 DUP2 MSTORE POP PUSH1 0x1 SWAP1 DUP1 MLOAD SWAP1 PUSH1 0x20 ADD SWAP1 PUSH2 0x9B SWAP3 SWAP2 SWAP1 PUSH2 0x103 JUMP JUMPDEST POP PUSH3 0x895440 PUSH1 0x2 SSTORE PUSH4 0x5F5E100 PUSH1 0x3 SSTORE PUSH1 0xA PUSH1 0x4 SSTORE CALLVALUE DUP1 ISZERO PUSH2 0xBC JUMPI PUSH1 0x0 DUP1 REVERT JUMPDEST POP CALLER PUSH1 0x5 PUSH1 0x0 PUSH2 0x100 EXP DUP2 SLOAD DUP2 PUSH20 0xFFFFFFFFFFFFFFFFFFFFFFFFFFFFFFFFFFFFFFFF MUL NOT AND SWAP1 DUP4 PUSH20 0xFFFFFFFFFFFFFFFFFFFFFFFFFFFFFFFFFFFFFFFF AND MUL OR SWAP1 SSTORE POP PUSH2 0x207 JUMP JUMPDEST DUP3 DUP1 SLOAD PUSH2 0x10F SWAP1 PUSH2 0x1A6 JUMP JUMPDEST SWAP1 PUSH1 0x0 MSTORE PUSH1 0x20 PUSH1 0x0 KECCAK256 SWAP1 PUSH1 0x1F ADD PUSH1 0x20 SWAP1 DIV DUP2 ADD SWAP3 DUP3 PUSH2 0x131 JUMPI PUSH1 0x0 DUP6 SSTORE PUSH2 0x178 JUMP JUMPDEST DUP3 PUSH1 0x1F LT PUSH2 0x14A JUMPI DUP1 MLOAD PUSH1 0xFF NOT AND DUP4 DUP1 ADD OR DUP6 SSTORE PUSH2 0x178 JUMP JUMPDEST DUP3 DUP1 ADD PUSH1 0x1 ADD DUP6 SSTORE DUP3 ISZERO PUSH2 0x178 JUMPI SWAP2 DUP3 ADD JUMPDEST DUP3 DUP2 GT ISZERO PUSH2 0x177 JUMPI DUP3 MLOAD DUP3 SSTORE SWAP2 PUSH1 0x20 ADD SWAP2 SWAP1 PUSH1 0x1 ADD SWAP1 PUSH2 0x15C JUMP JUMPDEST JUMPDEST POP SWAP1 POP PUSH2 0x185 SWAP2 SWAP1 PUSH2 0x189 JUMP JUMPDEST POP SWAP1 JUMP JUMPDEST JUMPDEST DUP1 DUP3 GT ISZERO PUSH2 0x1A2 JUMPI PUSH1 0x0 DUP2 PUSH1 0x0 SWAP1 SSTORE POP PUSH1 0x1 ADD PUSH2 0x18A JUMP JUMPDEST POP SWAP1 JUMP JUMPDEST PUSH1 0x0 PUSH1 0x2 DUP3 DIV SWAP1 POP PUSH1 0x1 DUP3 AND DUP1 PUSH2 0x1BE JUMPI PUSH1 0x7F DUP3 AND SWAP2 POP JUMPDEST PUSH1 0x20 DUP3 LT DUP2 EQ ISZERO PUSH2 0x1D2 JUMPI PUSH2 0x1D1 PUSH2 0x1D8 JUMP JUMPDEST JUMPDEST POP SWAP2 SWAP1 POP JUMP JUMPDEST PUSH32 0x4E487B7100000000000000000000000000000000000000000000000000000000 PUSH1 0x0 MSTORE PUSH1 0x22 PUSH1 0x4 MSTORE PUSH1 0x24 PUSH1 0x0 REVERT JUMPDEST PUSH2 0x6A5 DUP1 PUSH2 0x216 PUSH1 0x0 CODECOPY PUSH1 0x0 RETURN INVALID PUSH1 0x80 PUSH1 0x40 MSTORE CALLVALUE DUP1 ISZERO PUSH2 0x10 JUMPI PUSH1 0x0 DUP1 REVERT JUMPDEST POP PUSH1 0x4 CALLDATASIZE LT PUSH2 0x62 JUMPI PUSH1 0x0 CALLDATALOAD PUSH1 0xE0 SHR DUP1 PUSH4 0x42966C68 EQ PUSH2 0x67 JUMPI DUP1 PUSH4 0x4637D827 EQ PUSH2 0x83 JUMPI DUP1 PUSH4 0x566690EC EQ PUSH2 0xB3 JUMPI DUP1 PUSH4 0x94BF804D EQ PUSH2 0xE3 JUMPI DUP1 PUSH4 0xDAEA85C5 EQ PUSH2 0xFF JUMPI DUP1 PUSH4 0xF8B2CB4F EQ PUSH2 0x11B JUMPI JUMPDEST PUSH1 0x0 DUP1 REVERT JUMPDEST PUSH2 0x81 PUSH1 0x4 DUP1 CALLDATASIZE SUB DUP2 ADD SWAP1 PUSH2 0x7C SWAP2 SWAP1 PUSH2 0x409 JUMP JUMPDEST PUSH2 0x14B JUMP JUMPDEST STOP JUMPDEST PUSH2 0x9D PUSH1 0x4 DUP1 CALLDATASIZE SUB DUP2 ADD SWAP1 PUSH2 0x98 SWAP2 SWAP1 PUSH2 0x3DC JUMP JUMPDEST PUSH2 0x1BD JUMP JUMPDEST PUSH1 0x40 MLOAD PUSH2 0xAA SWAP2 SWAP1 PUSH2 0x4B7 JUMP JUMPDEST PUSH1 0x40 MLOAD DUP1 SWAP2 SUB SWAP1 RETURN JUMPDEST PUSH2 0xCD PUSH1 0x4 DUP1 CALLDATASIZE SUB DUP2 ADD SWAP1 PUSH2 0xC8 SWAP2 SWAP1 PUSH2 0x3DC JUMP JUMPDEST PUSH2 0x1F0 JUMP JUMPDEST PUSH1 0x40 MLOAD PUSH2 0xDA SWAP2 SWAP1 PUSH2 0x4B7 JUMP JUMPDEST PUSH1 0x40 MLOAD DUP1 SWAP2 SUB SWAP1 RETURN JUMPDEST PUSH2 0xFD PUSH1 0x4 DUP1 CALLDATASIZE SUB DUP2 ADD SWAP1 PUSH2 0xF8 SWAP2 SWAP1 PUSH2 0x436 JUMP JUMPDEST PUSH2 0x223 JUMP JUMPDEST STOP JUMPDEST PUSH2 0x119 PUSH1 0x4 DUP1 CALLDATASIZE SUB DUP2 ADD SWAP1 PUSH2 0x114 SWAP2 SWAP1 PUSH2 0x3DC JUMP JUMPDEST PUSH2 0x2E8 JUMP JUMPDEST STOP JUMPDEST PUSH2 0x135 PUSH1 0x4 DUP1 CALLDATASIZE SUB DUP2 ADD SWAP1 PUSH2 0x130 SWAP2 SWAP1 PUSH2 0x3DC JUMP JUMPDEST PUSH2 0x369 JUMP JUMPDEST PUSH1 0x40 MLOAD PUSH2 0x142 SWAP2 SWAP1 PUSH2 0x4F2 JUMP JUMPDEST PUSH1 0x40 MLOAD DUP1 SWAP2 SUB SWAP1 RETURN JUMPDEST DUP1 PUSH1 0x7 PUSH1 0x0 CALLER PUSH20 0xFFFFFFFFFFFFFFFFFFFFFFFFFFFFFFFFFFFFFFFF AND PUSH20 0xFFFFFFFFFFFFFFFFFFFFFFFFFFFFFFFFFFFFFFFF AND DUP2 MSTORE PUSH1 0x20 ADD SWAP1 DUP2 MSTORE PUSH1 0x20 ADD PUSH1 0x0 KECCAK256 PUSH1 0x0 DUP3 DUP3 SLOAD PUSH2 0x19A SWAP2 SWAP1 PUSH2 0x574 JUMP JUMPDEST SWAP3 POP POP DUP2 SWAP1 SSTORE POP DUP1 PUSH1 0x2 PUSH1 0x0 DUP3 DUP3 SLOAD PUSH2 0x1B3 SWAP2 SWAP1 PUSH2 0x574 JUMP JUMPDEST SWAP3 POP POP DUP2 SWAP1 SSTORE POP POP JUMP JUMPDEST PUSH1 0x8 PUSH1 0x20 MSTORE DUP1 PUSH1 0x0 MSTORE PUSH1 0x40 PUSH1 0x0 KECCAK256 PUSH1 0x0 SWAP2 POP SLOAD SWAP1 PUSH2 0x100 EXP SWAP1 DIV PUSH20 0xFFFFFFFFFFFFFFFFFFFFFFFFFFFFFFFFFFFFFFFF AND DUP2 JUMP JUMPDEST PUSH1 0x6 PUSH1 0x20 MSTORE DUP1 PUSH1 0x0 MSTORE PUSH1 0x40 PUSH1 0x0 KECCAK256 PUSH1 0x0 SWAP2 POP SLOAD SWAP1 PUSH2 0x100 EXP SWAP1 DIV PUSH20 0xFFFFFFFFFFFFFFFFFFFFFFFFFFFFFFFFFFFFFFFF AND DUP2 JUMP JUMPDEST PUSH1 0x3 SLOAD PUSH1 0x2 SLOAD DUP4 PUSH2 0x234 SWAP2 SWAP1 PUSH2 0x51E JUMP JUMPDEST GT ISZERO PUSH2 0x275 JUMPI PUSH1 0x40 MLOAD PUSH32 0x8C379A000000000000000000000000000000000000000000000000000000000 DUP2 MSTORE PUSH1 0x4 ADD PUSH2 0x26C SWAP1 PUSH2 0x4D2 JUMP JUMPDEST PUSH1 0x40 MLOAD DUP1 SWAP2 SUB SWAP1 REVERT JUMPDEST DUP2 PUSH1 0x7 PUSH1 0x0 DUP4 PUSH20 0xFFFFFFFFFFFFFFFFFFFFFFFFFFFFFFFFFFFFFFFF AND PUSH20 0xFFFFFFFFFFFFFFFFFFFFFFFFFFFFFFFFFFFFFFFF AND DUP2 MSTORE PUSH1 0x20 ADD SWAP1 DUP2 MSTORE PUSH1 0x20 ADD PUSH1 0x0 KECCAK256 PUSH1 0x0 DUP3 DUP3 SLOAD PUSH2 0x2C4 SWAP2 SWAP1 PUSH2 0x51E JUMP JUMPDEST SWAP3 POP POP DUP2 SWAP1 SSTORE POP DUP2 PUSH1 0x2 PUSH1 0x0 DUP3 DUP3 SLOAD PUSH2 0x2DD SWAP2 SWAP1 PUSH2 0x51E JUMP JUMPDEST SWAP3 POP POP DUP2 SWAP1 SSTORE POP POP POP JUMP JUMPDEST DUP1 PUSH1 0x8 PUSH1 0x0 CALLER PUSH20 0xFFFFFFFFFFFFFFFFFFFFFFFFFFFFFFFFFFFFFFFF AND PUSH20 0xFFFFFFFFFFFFFFFFFFFFFFFFFFFFFFFFFFFFFFFF AND DUP2 MSTORE PUSH1 0x20 ADD SWAP1 DUP2 MSTORE PUSH1 0x20 ADD PUSH1 0x0 KECCAK256 PUSH1 0x0 PUSH2 0x100 EXP DUP2 SLOAD DUP2 PUSH20 0xFFFFFFFFFFFFFFFFFFFFFFFFFFFFFFFFFFFFFFFF MUL NOT AND SWAP1 DUP4 PUSH20 0xFFFFFFFFFFFFFFFFFFFFFFFFFFFFFFFFFFFFFFFF AND MUL OR SWAP1 SSTORE POP POP JUMP JUMPDEST PUSH1 0x0 PUSH1 0x7 PUSH1 0x0 DUP4 PUSH20 0xFFFFFFFFFFFFFFFFFFFFFFFFFFFFFFFFFFFFFFFF AND PUSH20 0xFFFFFFFFFFFFFFFFFFFFFFFFFFFFFFFFFFFFFFFF AND DUP2 MSTORE PUSH1 0x20 ADD SWAP1 DUP2 MSTORE PUSH1 0x20 ADD PUSH1 0x0 KECCAK256 SLOAD SWAP1 POP SWAP2 SWAP1 POP JUMP JUMPDEST PUSH1 0x0 DUP2 CALLDATALOAD SWAP1 POP PUSH2 0x3C1 DUP2 PUSH2 0x641 JUMP JUMPDEST SWAP3 SWAP2 POP POP JUMP JUMPDEST PUSH1 0x0 DUP2 CALLDATALOAD SWAP1 POP PUSH2 0x3D6 DUP2 PUSH2 0x658 JUMP JUMPDEST SWAP3 SWAP2 POP POP JUMP JUMPDEST PUSH1 0x0 PUSH1 0x20 DUP3 DUP5 SUB SLT ISZERO PUSH2 0x3F2 JUMPI PUSH2 0x3F1 PUSH2 0x613 JUMP JUMPDEST JUMPDEST PUSH1 0x0 PUSH2 0x400 DUP5 DUP3 DUP6 ADD PUSH2 0x3B2 JUMP JUMPDEST SWAP2 POP POP SWAP3 SWAP2 POP POP JUMP JUMPDEST PUSH1 0x0 PUSH1 0x20 DUP3 DUP5 SUB SLT ISZERO PUSH2 0x41F JUMPI PUSH2 0x41E PUSH2 0x613 JUMP JUMPDEST JUMPDEST PUSH1 0x0 PUSH2 0x42D DUP5 DUP3 DUP6 ADD PUSH2 0x3C7 JUMP JUMPDEST SWAP2 POP POP SWAP3 SWAP2 POP POP JUMP JUMPDEST PUSH1 0x0 DUP1 PUSH1 0x40 DUP4 DUP6 SUB SLT ISZERO PUSH2 0x44D JUMPI PUSH2 0x44C PUSH2 0x613 JUMP JUMPDEST JUMPDEST PUSH1 0x0 PUSH2 0x45B DUP6 DUP3 DUP7 ADD PUSH2 0x3C7 JUMP JUMPDEST SWAP3 POP POP PUSH1 0x20 PUSH2 0x46C DUP6 DUP3 DUP7 ADD PUSH2 0x3B2 JUMP JUMPDEST SWAP2 POP POP SWAP3 POP SWAP3 SWAP1 POP JUMP JUMPDEST PUSH2 0x47F DUP2 PUSH2 0x5A8 JUMP JUMPDEST DUP3 MSTORE POP POP JUMP JUMPDEST PUSH1 0x0 PUSH2 0x492 PUSH1 0x17 DUP4 PUSH2 0x50D JUMP JUMPDEST SWAP2 POP PUSH2 0x49D DUP3 PUSH2 0x618 JUMP JUMPDEST PUSH1 0x20 DUP3 ADD SWAP1 POP SWAP2 SWAP1 POP JUMP JUMPDEST PUSH2 0x4B1 DUP2 PUSH2 0x5DA JUMP JUMPDEST DUP3 MSTORE POP POP JUMP JUMPDEST PUSH1 0x0 PUSH1 0x20 DUP3 ADD SWAP1 POP PUSH2 0x4CC PUSH1 0x0 DUP4 ADD DUP5 PUSH2 0x476 JUMP JUMPDEST SWAP3 SWAP2 POP POP JUMP JUMPDEST PUSH1 0x0 PUSH1 0x20 DUP3 ADD SWAP1 POP DUP2 DUP2 SUB PUSH1 0x0 DUP4 ADD MSTORE PUSH2 0x4EB DUP2 PUSH2 0x485 JUMP JUMPDEST SWAP1 POP SWAP2 SWAP1 POP JUMP JUMPDEST PUSH1 0x0 PUSH1 0x20 DUP3 ADD SWAP1 POP PUSH2 0x507 PUSH1 0x0 DUP4 ADD DUP5 PUSH2 0x4A8 JUMP JUMPDEST SWAP3 SWAP2 POP POP JUMP JUMPDEST PUSH1 0x0 DUP3 DUP3 MSTORE PUSH1 0x20 DUP3 ADD SWAP1 POP SWAP3 SWAP2 POP POP JUMP JUMPDEST PUSH1 0x0 PUSH2 0x529 DUP3 PUSH2 0x5DA JUMP JUMPDEST SWAP2 POP PUSH2 0x534 DUP4 PUSH2 0x5DA JUMP JUMPDEST SWAP3 POP DUP3 PUSH32 0xFFFFFFFFFFFFFFFFFFFFFFFFFFFFFFFFFFFFFFFFFFFFFFFFFFFFFFFFFFFFFFFF SUB DUP3 GT ISZERO PUSH2 0x569 JUMPI PUSH2 0x568 PUSH2 0x5E4 JUMP JUMPDEST JUMPDEST DUP3 DUP3 ADD SWAP1 POP SWAP3 SWAP2 POP POP JUMP JUMPDEST PUSH1 0x0 PUSH2 0x57F DUP3 PUSH2 0x5DA JUMP JUMPDEST SWAP2 POP PUSH2 0x58A DUP4 PUSH2 0x5DA JUMP JUMPDEST SWAP3 POP DUP3 DUP3 LT ISZERO PUSH2 0x59D JUMPI PUSH2 0x59C PUSH2 0x5E4 JUMP JUMPDEST JUMPDEST DUP3 DUP3 SUB SWAP1 POP SWAP3 SWAP2 POP POP JUMP JUMPDEST PUSH1 0x0 PUSH2 0x5B3 DUP3 PUSH2 0x5BA JUMP JUMPDEST SWAP1 POP SWAP2 SWAP1 POP JUMP JUMPDEST PUSH1 0x0 PUSH20 0xFFFFFFFFFFFFFFFFFFFFFFFFFFFFFFFFFFFFFFFF DUP3 AND SWAP1 POP SWAP2 SWAP1 POP JUMP JUMPDEST PUSH1 0x0 DUP2 SWAP1 POP SWAP2 SWAP1 POP JUMP JUMPDEST PUSH32 0x4E487B7100000000000000000000000000000000000000000000000000000000 PUSH1 0x0 MSTORE PUSH1 0x11 PUSH1 0x4 MSTORE PUSH1 0x24 PUSH1 0x0 REVERT JUMPDEST PUSH1 0x0 DUP1 REVERT JUMPDEST PUSH32 0x6572726F72206E6F7420656E6F75676820737570706C79000000000000000000 PUSH1 0x0 DUP3 ADD MSTORE POP JUMP JUMPDEST PUSH2 0x64A DUP2 PUSH2 0x5A8 JUMP JUMPDEST DUP2 EQ PUSH2 0x655 JUMPI PUSH1 0x0 DUP1 REVERT JUMPDEST POP JUMP JUMPDEST PUSH2 0x661 DUP2 PUSH2 0x5DA JUMP JUMPDEST DUP2 EQ PUSH2 0x66C JUMPI PUSH1 0x0 DUP1 REVERT JUMPDEST POP JUMP INVALID LOG2 PUSH5 0x6970667358 0x22 SLT KECCAK256 0xAA 0xAB LT 0xD7 0xAA 0x5E 0xE9 0xB8 SWAP9 RETURNDATACOPY DIFFICULTY 0x2B PUSH7 0x652AB1DDBE3190 XOR DUP12 ADDMOD 0xE5 0xF PUSH21 0x94920330D90464736F6C6343000807003300000000 "
				},
				"gasEstimates": {
					"creation": {
						"codeDepositCost": "340200",
						"executionCost": "infinite",
						"totalCost": "infinite"
					},
					"external": {
						"approve(address)": "24877",
						"burn(uint256)": "infinite",
						"getBalance(address)": "2929",
						"mint(uint256,address)": "infinite",
						"transaction(address)": "infinite",
						"trust(address)": "infinite"
					}
				},
				"methodIdentifiers": {
					"approve(address)": "daea85c5",
					"burn(uint256)": "42966c68",
					"getBalance(address)": "f8b2cb4f",
					"mint(uint256,address)": "94bf804d",
					"transaction(address)": "566690ec",
					"trust(address)": "4637d827"
				}
			},
			"storageLayout": {
				"storage": [
					{
						"astId": 4,
						"contract": "contracts/bomToken.sol:BomToken",
						"label": "name",
						"offset": 0,
						"slot": "0",
						"type": "t_string_storage"
					},
					{
						"astId": 7,
						"contract": "contracts/bomToken.sol:BomToken",
						"label": "symbole",
						"offset": 0,
						"slot": "1",
						"type": "t_string_storage"
					},
					{
						"astId": 10,
						"contract": "contracts/bomToken.sol:BomToken",
						"label": "csupply",
						"offset": 0,
						"slot": "2",
						"type": "t_uint256"
					},
					{
						"astId": 13,
						"contract": "contracts/bomToken.sol:BomToken",
						"label": "maxSupply",
						"offset": 0,
						"slot": "3",
						"type": "t_uint256"
					},
					{
						"astId": 16,
						"contract": "contracts/bomToken.sol:BomToken",
						"label": "decimal",
						"offset": 0,
						"slot": "4",
						"type": "t_uint256"
					},
					{
						"astId": 18,
						"contract": "contracts/bomToken.sol:BomToken",
						"label": "owner",
						"offset": 0,
						"slot": "5",
						"type": "t_address"
					},
					{
						"astId": 22,
						"contract": "contracts/bomToken.sol:BomToken",
						"label": "transaction",
						"offset": 0,
						"slot": "6",
						"type": "t_mapping(t_address,t_address)"
					},
					{
						"astId": 26,
						"contract": "contracts/bomToken.sol:BomToken",
						"label": "ledger",
						"offset": 0,
						"slot": "7",
						"type": "t_mapping(t_address,t_uint256)"
					},
					{
						"astId": 30,
						"contract": "contracts/bomToken.sol:BomToken",
						"label": "trust",
						"offset": 0,
						"slot": "8",
						"type": "t_mapping(t_address,t_address)"
					}
				],
				"types": {
					"t_address": {
						"encoding": "inplace",
						"label": "address",
						"numberOfBytes": "20"
					},
					"t_mapping(t_address,t_address)": {
						"encoding": "mapping",
						"key": "t_address",
						"label": "mapping(address => address)",
						"numberOfBytes": "32",
						"value": "t_address"
					},
					"t_mapping(t_address,t_uint256)": {
						"encoding": "mapping",
						"key": "t_address",
						"label": "mapping(address => uint256)",
						"numberOfBytes": "32",
						"value": "t_uint256"
					},
					"t_string_storage": {
						"encoding": "bytes",
						"label": "string",
						"numberOfBytes": "32"
					},
					"t_uint256": {
						"encoding": "inplace",
						"label": "uint256",
						"numberOfBytes": "32"
					}
				}
			},
			"userdoc": {
				"kind": "user",
				"methods": {},
				"version": 1
			}
		}
	}
}