{
	"contracts/basic_solidity.sol": {
		"BasicSolidity": {
			"abi": [
				{
					"inputs": [],
					"name": "age",
					"outputs": [
						{
							"internalType": "uint256",
							"name": "",
							"type": "uint256"
						}
					],
					"stateMutability": "view",
					"type": "function"
				},
				{
					"inputs": [],
					"name": "balance",
					"outputs": [
						{
							"internalType": "uint256",
							"name": "",
							"type": "uint256"
						}
					],
					"stateMutability": "view",
					"type": "function"
				},
				{
					"inputs": [
						{
							"internalType": "uint256",
							"name": "",
							"type": "uint256"
						}
					],
					"name": "carreer",
					"outputs": [
						{
							"internalType": "string",
							"name": "",
							"type": "string"
						}
					],
					"stateMutability": "view",
					"type": "function"
				},
				{
					"inputs": [],
					"name": "isMale",
					"outputs": [
						{
							"internalType": "bool",
							"name": "",
							"type": "bool"
						}
					],
					"stateMutability": "view",
					"type": "function"
				},
				{
					"inputs": [],
					"name": "name",
					"outputs": [
						{
							"internalType": "string",
							"name": "",
							"type": "string"
						}
					],
					"stateMutability": "view",
					"type": "function"
				}
			],
			"devdoc": {
				"kind": "dev",
				"methods": {},
				"version": 1
			},
			"evm": {
				"assembly": "    /* \"contracts/basic_solidity.sol\":60:370  contract BasicSolidity {\r... */\n  mstore(0x40, 0x80)\n    /* \"contracts/basic_solidity.sol\":114:149  string public name  = \"Tony Strark\" */\n  mload(0x40)\n  dup1\n  0x40\n  add\n  0x40\n  mstore\n  dup1\n  0x0b\n  dup2\n  mstore\n  0x20\n  add\n  0x546f6e792053747261726b000000000000000000000000000000000000000000\n  dup2\n  mstore\n  pop\n  0x00\n  swap1\n  dup1\n  mload\n  swap1\n  0x20\n  add\n  swap1\n  tag_1\n  swap3\n  swap2\n  swap1\n  tag_2\n  jump\t// in\ntag_1:\n  pop\n    /* \"contracts/basic_solidity.sol\":182:184  48 */\n  0x30\n    /* \"contracts/basic_solidity.sol\":158:184  uint256 public age   =  48 */\n  0x01\n  sstore\n    /* \"contracts/basic_solidity.sol\":217:221  true */\n  0x01\n    /* \"contracts/basic_solidity.sol\":191:221  bool   public  isMale  =  true */\n  0x02\n  exp(0x0100, 0x00)\n  dup2\n  sload\n  dup2\n  0xff\n  mul\n  not\n  and\n  swap1\n  dup4\n  iszero\n  iszero\n  mul\n  or\n  swap1\n  sstore\n  pop\n    /* \"contracts/basic_solidity.sol\":259:316  string[]  public carreer  = [\"playboy\",\"engineer\",\"hero\"] */\n  mload(0x40)\n  dup1\n  0x60\n  add\n  0x40\n  mstore\n  dup1\n  mload(0x40)\n  dup1\n  0x40\n  add\n  0x40\n  mstore\n  dup1\n  0x07\n  dup2\n  mstore\n  0x20\n  add\n  0x706c6179626f7900000000000000000000000000000000000000000000000000\n  dup2\n  mstore\n  pop\n  dup2\n  mstore\n  0x20\n  add\n  mload(0x40)\n  dup1\n  0x40\n  add\n  0x40\n  mstore\n  dup1\n  0x08\n  dup2\n  mstore\n  0x20\n  add\n  0x656e67696e656572000000000000000000000000000000000000000000000000\n  dup2\n  mstore\n  pop\n  dup2\n  mstore\n  0x20\n  add\n  mload(0x40)\n  dup1\n  0x40\n  add\n  0x40\n  mstore\n  dup1\n  0x04\n  dup2\n  mstore\n  0x20\n  add\n  0x6865726f00000000000000000000000000000000000000000000000000000000\n  dup2\n  mstore\n  pop\n  dup2\n  mstore\n  pop\n  0x04\n  swap1\n  0x03\n  tag_3\n  swap3\n  swap2\n  swap1\n  tag_4\n  jump\t// in\ntag_3:\n  pop\n    /* \"contracts/basic_solidity.sol\":60:370  contract BasicSolidity {\r... */\n  callvalue\n  dup1\n  iszero\n  tag_5\n  jumpi\n  0x00\n  dup1\n  revert\ntag_5:\n  pop\n  jump(tag_6)\ntag_2:\n  dup3\n  dup1\n  sload\n  tag_7\n  swap1\n  tag_8\n  jump\t// in\ntag_7:\n  swap1\n  0x00\n  mstore\n  keccak256(0x00, 0x20)\n  swap1\n  0x1f\n  add\n  0x20\n  swap1\n  div\n  dup2\n  add\n  swap3\n  dup3\n  tag_10\n  jumpi\n  0x00\n  dup6\n  sstore\n  jump(tag_9)\ntag_10:\n  dup3\n  0x1f\n  lt\n  tag_11\n  jumpi\n  dup1\n  mload\n  not(0xff)\n  and\n  dup4\n  dup1\n  add\n  or\n  dup6\n  sstore\n  jump(tag_9)\ntag_11:\n  dup3\n  dup1\n  add\n  0x01\n  add\n  dup6\n  sstore\n  dup3\n  iszero\n  tag_9\n  jumpi\n  swap2\n  dup3\n  add\ntag_12:\n  dup3\n  dup2\n  gt\n  iszero\n  tag_13\n  jumpi\n  dup3\n  mload\n  dup3\n  sstore\n  swap2\n  0x20\n  add\n  swap2\n  swap1\n  0x01\n  add\n  swap1\n  jump(tag_12)\ntag_13:\ntag_9:\n  pop\n  swap1\n  pop\n  tag_14\n  swap2\n  swap1\n  tag_15\n  jump\t// in\ntag_14:\n  pop\n  swap1\n  jump\t// out\ntag_4:\n  dup3\n  dup1\n  sload\n  dup3\n  dup3\n  sstore\n  swap1\n  0x00\n  mstore\n  keccak256(0x00, 0x20)\n  swap1\n  dup2\n  add\n  swap3\n  dup3\n  iszero\n  tag_16\n  jumpi\n  swap2\n  0x20\n  mul\n  dup3\n  add\ntag_17:\n  dup3\n  dup2\n  gt\n  iszero\n  tag_18\n  jumpi\n  dup3\n  mload\n  dup3\n  swap1\n  dup1\n  mload\n  swap1\n  0x20\n  add\n  swap1\n  tag_19\n  swap3\n  swap2\n  swap1\n  tag_2\n  jump\t// in\ntag_19:\n  pop\n  swap2\n  0x20\n  add\n  swap2\n  swap1\n  0x01\n  add\n  swap1\n  jump(tag_17)\ntag_18:\ntag_16:\n  pop\n  swap1\n  pop\n  tag_20\n  swap2\n  swap1\n  tag_21\n  jump\t// in\ntag_20:\n  pop\n  swap1\n  jump\t// out\ntag_15:\ntag_22:\n  dup1\n  dup3\n  gt\n  iszero\n  tag_23\n  jumpi\n  0x00\n  dup2\n  0x00\n  swap1\n  sstore\n  pop\n  0x01\n  add\n  jump(tag_22)\ntag_23:\n  pop\n  swap1\n  jump\t// out\ntag_21:\ntag_24:\n  dup1\n  dup3\n  gt\n  iszero\n  tag_25\n  jumpi\n  0x00\n  dup2\n  dup2\n  tag_26\n  swap2\n  swap1\n  tag_27\n  jump\t// in\ntag_26:\n  pop\n  0x01\n  add\n  jump(tag_24)\ntag_25:\n  pop\n  swap1\n  jump\t// out\ntag_27:\n  pop\n  dup1\n  sload\n  tag_28\n  swap1\n  tag_8\n  jump\t// in\ntag_28:\n  0x00\n  dup3\n  sstore\n  dup1\n  0x1f\n  lt\n  tag_30\n  jumpi\n  pop\n  jump(tag_29)\ntag_30:\n  0x1f\n  add\n  0x20\n  swap1\n  div\n  swap1\n  0x00\n  mstore\n  keccak256(0x00, 0x20)\n  swap1\n  dup2\n  add\n  swap1\n  tag_31\n  swap2\n  swap1\n  tag_15\n  jump\t// in\ntag_31:\ntag_29:\n  pop\n  jump\t// out\n    /* \"#utility.yul\":7:327   */\ntag_8:\n    /* \"#utility.yul\":51:57   */\n  0x00\n    /* \"#utility.yul\":88:89   */\n  0x02\n    /* \"#utility.yul\":82:86   */\n  dup3\n    /* \"#utility.yul\":78:90   */\n  div\n    /* \"#utility.yul\":68:90   */\n  swap1\n  pop\n    /* \"#utility.yul\":135:136   */\n  0x01\n    /* \"#utility.yul\":129:133   */\n  dup3\n    /* \"#utility.yul\":125:137   */\n  and\n    /* \"#utility.yul\":156:174   */\n  dup1\n    /* \"#utility.yul\":146:227   */\n  tag_34\n  jumpi\n    /* \"#utility.yul\":212:216   */\n  0x7f\n    /* \"#utility.yul\":204:210   */\n  dup3\n    /* \"#utility.yul\":200:217   */\n  and\n    /* \"#utility.yul\":190:217   */\n  swap2\n  pop\n    /* \"#utility.yul\":146:227   */\ntag_34:\n    /* \"#utility.yul\":274:276   */\n  0x20\n    /* \"#utility.yul\":266:272   */\n  dup3\n    /* \"#utility.yul\":263:277   */\n  lt\n    /* \"#utility.yul\":243:261   */\n  dup2\n    /* \"#utility.yul\":240:278   */\n  eq\n    /* \"#utility.yul\":237:321   */\n  iszero\n  tag_35\n  jumpi\n    /* \"#utility.yul\":293:311   */\n  tag_36\n  tag_37\n  jump\t// in\ntag_36:\n    /* \"#utility.yul\":237:321   */\ntag_35:\n    /* \"#utility.yul\":58:327   */\n  pop\n    /* \"#utility.yul\":7:327   */\n  swap2\n  swap1\n  pop\n  jump\t// out\n    /* \"#utility.yul\":333:513   */\ntag_37:\n    /* \"#utility.yul\":381:458   */\n  0x4e487b7100000000000000000000000000000000000000000000000000000000\n    /* \"#utility.yul\":378:379   */\n  0x00\n    /* \"#utility.yul\":371:459   */\n  mstore\n    /* \"#utility.yul\":478:482   */\n  0x22\n    /* \"#utility.yul\":475:476   */\n  0x04\n    /* \"#utility.yul\":468:483   */\n  mstore\n    /* \"#utility.yul\":502:506   */\n  0x24\n    /* \"#utility.yul\":499:500   */\n  0x00\n    /* \"#utility.yul\":492:507   */\n  revert\n    /* \"contracts/basic_solidity.sol\":60:370  contract BasicSolidity {\r... */\ntag_6:\n  dataSize(sub_0)\n  dup1\n  dataOffset(sub_0)\n  0x00\n  codecopy\n  0x00\n  return\nstop\n\nsub_0: assembly {\n        /* \"contracts/basic_solidity.sol\":60:370  contract BasicSolidity {\r... */\n      mstore(0x40, 0x80)\n      callvalue\n      dup1\n      iszero\n      tag_1\n      jumpi\n      0x00\n      dup1\n      revert\n    tag_1:\n      pop\n      jumpi(tag_2, lt(calldatasize, 0x04))\n      shr(0xe0, calldataload(0x00))\n      dup1\n      0x06fdde03\n      eq\n      tag_3\n      jumpi\n      dup1\n      0x262a9dff\n      eq\n      tag_4\n      jumpi\n      dup1\n      0x5cd836a3\n      eq\n      tag_5\n      jumpi\n      dup1\n      0x654a573c\n      eq\n      tag_6\n      jumpi\n      dup1\n      0xb69ef8a8\n      eq\n      tag_7\n      jumpi\n    tag_2:\n      0x00\n      dup1\n      revert\n        /* \"contracts/basic_solidity.sol\":114:149  string public name  = \"Tony Strark\" */\n    tag_3:\n      tag_8\n      tag_9\n      jump\t// in\n    tag_8:\n      mload(0x40)\n      tag_10\n      swap2\n      swap1\n      tag_11\n      jump\t// in\n    tag_10:\n      mload(0x40)\n      dup1\n      swap2\n      sub\n      swap1\n      return\n        /* \"contracts/basic_solidity.sol\":158:184  uint256 public age   =  48 */\n    tag_4:\n      tag_12\n      tag_13\n      jump\t// in\n    tag_12:\n      mload(0x40)\n      tag_14\n      swap2\n      swap1\n      tag_15\n      jump\t// in\n    tag_14:\n      mload(0x40)\n      dup1\n      swap2\n      sub\n      swap1\n      return\n        /* \"contracts/basic_solidity.sol\":259:316  string[]  public carreer  = [\"playboy\",\"engineer\",\"hero\"] */\n    tag_5:\n      tag_16\n      0x04\n      dup1\n      calldatasize\n      sub\n      dup2\n      add\n      swap1\n      tag_17\n      swap2\n      swap1\n      tag_18\n      jump\t// in\n    tag_17:\n      tag_19\n      jump\t// in\n    tag_16:\n      mload(0x40)\n      tag_20\n      swap2\n      swap1\n      tag_11\n      jump\t// in\n    tag_20:\n      mload(0x40)\n      dup1\n      swap2\n      sub\n      swap1\n      return\n        /* \"contracts/basic_solidity.sol\":191:221  bool   public  isMale  =  true */\n    tag_6:\n      tag_21\n      tag_22\n      jump\t// in\n    tag_21:\n      mload(0x40)\n      tag_23\n      swap2\n      swap1\n      tag_24\n      jump\t// in\n    tag_23:\n      mload(0x40)\n      dup1\n      swap2\n      sub\n      swap1\n      return\n        /* \"contracts/basic_solidity.sol\":230:252  uint256 public balance */\n    tag_7:\n      tag_25\n      tag_26\n      jump\t// in\n    tag_25:\n      mload(0x40)\n      tag_27\n      swap2\n      swap1\n      tag_15\n      jump\t// in\n    tag_27:\n      mload(0x40)\n      dup1\n      swap2\n      sub\n      swap1\n      return\n        /* \"contracts/basic_solidity.sol\":114:149  string public name  = \"Tony Strark\" */\n    tag_9:\n      0x00\n      dup1\n      sload\n      tag_28\n      swap1\n      tag_29\n      jump\t// in\n    tag_28:\n      dup1\n      0x1f\n      add\n      0x20\n      dup1\n      swap2\n      div\n      mul\n      0x20\n      add\n      mload(0x40)\n      swap1\n      dup2\n      add\n      0x40\n      mstore\n      dup1\n      swap3\n      swap2\n      swap1\n      dup2\n      dup2\n      mstore\n      0x20\n      add\n      dup3\n      dup1\n      sload\n      tag_30\n      swap1\n      tag_29\n      jump\t// in\n    tag_30:\n      dup1\n      iszero\n      tag_31\n      jumpi\n      dup1\n      0x1f\n      lt\n      tag_32\n      jumpi\n      0x0100\n      dup1\n      dup4\n      sload\n      div\n      mul\n      dup4\n      mstore\n      swap2\n      0x20\n      add\n      swap2\n      jump(tag_31)\n    tag_32:\n      dup3\n      add\n      swap2\n      swap1\n      0x00\n      mstore\n      keccak256(0x00, 0x20)\n      swap1\n    tag_33:\n      dup2\n      sload\n      dup2\n      mstore\n      swap1\n      0x01\n      add\n      swap1\n      0x20\n      add\n      dup1\n      dup4\n      gt\n      tag_33\n      jumpi\n      dup3\n      swap1\n      sub\n      0x1f\n      and\n      dup3\n      add\n      swap2\n    tag_31:\n      pop\n      pop\n      pop\n      pop\n      pop\n      dup2\n      jump\t// out\n        /* \"contracts/basic_solidity.sol\":158:184  uint256 public age   =  48 */\n    tag_13:\n      sload(0x01)\n      dup2\n      jump\t// out\n        /* \"contracts/basic_solidity.sol\":259:316  string[]  public carreer  = [\"playboy\",\"engineer\",\"hero\"] */\n    tag_19:\n      0x04\n      dup2\n      dup2\n      sload\n      dup2\n      lt\n      tag_34\n      jumpi\n      0x00\n      dup1\n      revert\n    tag_34:\n      swap1\n      0x00\n      mstore\n      keccak256(0x00, 0x20)\n      add\n      0x00\n      swap2\n      pop\n      swap1\n      pop\n      dup1\n      sload\n      tag_36\n      swap1\n      tag_29\n      jump\t// in\n    tag_36:\n      dup1\n      0x1f\n      add\n      0x20\n      dup1\n      swap2\n      div\n      mul\n      0x20\n      add\n      mload(0x40)\n      swap1\n      dup2\n      add\n      0x40\n      mstore\n      dup1\n      swap3\n      swap2\n      swap1\n      dup2\n      dup2\n      mstore\n      0x20\n      add\n      dup3\n      dup1\n      sload\n      tag_37\n      swap1\n      tag_29\n      jump\t// in\n    tag_37:\n      dup1\n      iszero\n      tag_38\n      jumpi\n      dup1\n      0x1f\n      lt\n      tag_39\n      jumpi\n      0x0100\n      dup1\n      dup4\n      sload\n      div\n      mul\n      dup4\n      mstore\n      swap2\n      0x20\n      add\n      swap2\n      jump(tag_38)\n    tag_39:\n      dup3\n      add\n      swap2\n      swap1\n      0x00\n      mstore\n      keccak256(0x00, 0x20)\n      swap1\n    tag_40:\n      dup2\n      sload\n      dup2\n      mstore\n      swap1\n      0x01\n      add\n      swap1\n      0x20\n      add\n      dup1\n      dup4\n      gt\n      tag_40\n      jumpi\n      dup3\n      swap1\n      sub\n      0x1f\n      and\n      dup3\n      add\n      swap2\n    tag_38:\n      pop\n      pop\n      pop\n      pop\n      pop\n      dup2\n      jump\t// out\n        /* \"contracts/basic_solidity.sol\":191:221  bool   public  isMale  =  true */\n    tag_22:\n      0x02\n      0x00\n      swap1\n      sload\n      swap1\n      0x0100\n      exp\n      swap1\n      div\n      0xff\n      and\n      dup2\n      jump\t// out\n        /* \"contracts/basic_solidity.sol\":230:252  uint256 public balance */\n    tag_26:\n      sload(0x03)\n      dup2\n      jump\t// out\n        /* \"#utility.yul\":7:146   */\n    tag_42:\n        /* \"#utility.yul\":53:58   */\n      0x00\n        /* \"#utility.yul\":91:97   */\n      dup2\n        /* \"#utility.yul\":78:98   */\n      calldataload\n        /* \"#utility.yul\":69:98   */\n      swap1\n      pop\n        /* \"#utility.yul\":107:140   */\n      tag_44\n        /* \"#utility.yul\":134:139   */\n      dup2\n        /* \"#utility.yul\":107:140   */\n      tag_45\n      jump\t// in\n    tag_44:\n        /* \"#utility.yul\":7:146   */\n      swap3\n      swap2\n      pop\n      pop\n      jump\t// out\n        /* \"#utility.yul\":152:481   */\n    tag_18:\n        /* \"#utility.yul\":211:217   */\n      0x00\n        /* \"#utility.yul\":260:262   */\n      0x20\n        /* \"#utility.yul\":248:257   */\n      dup3\n        /* \"#utility.yul\":239:246   */\n      dup5\n        /* \"#utility.yul\":235:258   */\n      sub\n        /* \"#utility.yul\":231:263   */\n      slt\n        /* \"#utility.yul\":228:347   */\n      iszero\n      tag_47\n      jumpi\n        /* \"#utility.yul\":266:345   */\n      tag_48\n      tag_49\n      jump\t// in\n    tag_48:\n        /* \"#utility.yul\":228:347   */\n    tag_47:\n        /* \"#utility.yul\":386:387   */\n      0x00\n        /* \"#utility.yul\":411:464   */\n      tag_50\n        /* \"#utility.yul\":456:463   */\n      dup5\n        /* \"#utility.yul\":447:453   */\n      dup3\n        /* \"#utility.yul\":436:445   */\n      dup6\n        /* \"#utility.yul\":432:454   */\n      add\n        /* \"#utility.yul\":411:464   */\n      tag_42\n      jump\t// in\n    tag_50:\n        /* \"#utility.yul\":401:464   */\n      swap2\n      pop\n        /* \"#utility.yul\":357:474   */\n      pop\n        /* \"#utility.yul\":152:481   */\n      swap3\n      swap2\n      pop\n      pop\n      jump\t// out\n        /* \"#utility.yul\":487:596   */\n    tag_51:\n        /* \"#utility.yul\":568:589   */\n      tag_53\n        /* \"#utility.yul\":583:588   */\n      dup2\n        /* \"#utility.yul\":568:589   */\n      tag_54\n      jump\t// in\n    tag_53:\n        /* \"#utility.yul\":563:566   */\n      dup3\n        /* \"#utility.yul\":556:590   */\n      mstore\n        /* \"#utility.yul\":487:596   */\n      pop\n      pop\n      jump\t// out\n        /* \"#utility.yul\":602:966   */\n    tag_55:\n        /* \"#utility.yul\":690:693   */\n      0x00\n        /* \"#utility.yul\":718:757   */\n      tag_57\n        /* \"#utility.yul\":751:756   */\n      dup3\n        /* \"#utility.yul\":718:757   */\n      tag_58\n      jump\t// in\n    tag_57:\n        /* \"#utility.yul\":773:844   */\n      tag_59\n        /* \"#utility.yul\":837:843   */\n      dup2\n        /* \"#utility.yul\":832:835   */\n      dup6\n        /* \"#utility.yul\":773:844   */\n      tag_60\n      jump\t// in\n    tag_59:\n        /* \"#utility.yul\":766:844   */\n      swap4\n      pop\n        /* \"#utility.yul\":853:905   */\n      tag_61\n        /* \"#utility.yul\":898:904   */\n      dup2\n        /* \"#utility.yul\":893:896   */\n      dup6\n        /* \"#utility.yul\":886:890   */\n      0x20\n        /* \"#utility.yul\":879:884   */\n      dup7\n        /* \"#utility.yul\":875:891   */\n      add\n        /* \"#utility.yul\":853:905   */\n      tag_62\n      jump\t// in\n    tag_61:\n        /* \"#utility.yul\":930:959   */\n      tag_63\n        /* \"#utility.yul\":952:958   */\n      dup2\n        /* \"#utility.yul\":930:959   */\n      tag_64\n      jump\t// in\n    tag_63:\n        /* \"#utility.yul\":925:928   */\n      dup5\n        /* \"#utility.yul\":921:960   */\n      add\n        /* \"#utility.yul\":914:960   */\n      swap2\n      pop\n        /* \"#utility.yul\":694:966   */\n      pop\n        /* \"#utility.yul\":602:966   */\n      swap3\n      swap2\n      pop\n      pop\n      jump\t// out\n        /* \"#utility.yul\":972:1090   */\n    tag_65:\n        /* \"#utility.yul\":1059:1083   */\n      tag_67\n        /* \"#utility.yul\":1077:1082   */\n      dup2\n        /* \"#utility.yul\":1059:1083   */\n      tag_68\n      jump\t// in\n    tag_67:\n        /* \"#utility.yul\":1054:1057   */\n      dup3\n        /* \"#utility.yul\":1047:1084   */\n      mstore\n        /* \"#utility.yul\":972:1090   */\n      pop\n      pop\n      jump\t// out\n        /* \"#utility.yul\":1096:1306   */\n    tag_24:\n        /* \"#utility.yul\":1183:1187   */\n      0x00\n        /* \"#utility.yul\":1221:1223   */\n      0x20\n        /* \"#utility.yul\":1210:1219   */\n      dup3\n        /* \"#utility.yul\":1206:1224   */\n      add\n        /* \"#utility.yul\":1198:1224   */\n      swap1\n      pop\n        /* \"#utility.yul\":1234:1299   */\n      tag_70\n        /* \"#utility.yul\":1296:1297   */\n      0x00\n        /* \"#utility.yul\":1285:1294   */\n      dup4\n        /* \"#utility.yul\":1281:1298   */\n      add\n        /* \"#utility.yul\":1272:1278   */\n      dup5\n        /* \"#utility.yul\":1234:1299   */\n      tag_51\n      jump\t// in\n    tag_70:\n        /* \"#utility.yul\":1096:1306   */\n      swap3\n      swap2\n      pop\n      pop\n      jump\t// out\n        /* \"#utility.yul\":1312:1625   */\n    tag_11:\n        /* \"#utility.yul\":1425:1429   */\n      0x00\n        /* \"#utility.yul\":1463:1465   */\n      0x20\n        /* \"#utility.yul\":1452:1461   */\n      dup3\n        /* \"#utility.yul\":1448:1466   */\n      add\n        /* \"#utility.yul\":1440:1466   */\n      swap1\n      pop\n        /* \"#utility.yul\":1512:1521   */\n      dup2\n        /* \"#utility.yul\":1506:1510   */\n      dup2\n        /* \"#utility.yul\":1502:1522   */\n      sub\n        /* \"#utility.yul\":1498:1499   */\n      0x00\n        /* \"#utility.yul\":1487:1496   */\n      dup4\n        /* \"#utility.yul\":1483:1500   */\n      add\n        /* \"#utility.yul\":1476:1523   */\n      mstore\n        /* \"#utility.yul\":1540:1618   */\n      tag_72\n        /* \"#utility.yul\":1613:1617   */\n      dup2\n        /* \"#utility.yul\":1604:1610   */\n      dup5\n        /* \"#utility.yul\":1540:1618   */\n      tag_55\n      jump\t// in\n    tag_72:\n        /* \"#utility.yul\":1532:1618   */\n      swap1\n      pop\n        /* \"#utility.yul\":1312:1625   */\n      swap3\n      swap2\n      pop\n      pop\n      jump\t// out\n        /* \"#utility.yul\":1631:1853   */\n    tag_15:\n        /* \"#utility.yul\":1724:1728   */\n      0x00\n        /* \"#utility.yul\":1762:1764   */\n      0x20\n        /* \"#utility.yul\":1751:1760   */\n      dup3\n        /* \"#utility.yul\":1747:1765   */\n      add\n        /* \"#utility.yul\":1739:1765   */\n      swap1\n      pop\n        /* \"#utility.yul\":1775:1846   */\n      tag_74\n        /* \"#utility.yul\":1843:1844   */\n      0x00\n        /* \"#utility.yul\":1832:1841   */\n      dup4\n        /* \"#utility.yul\":1828:1845   */\n      add\n        /* \"#utility.yul\":1819:1825   */\n      dup5\n        /* \"#utility.yul\":1775:1846   */\n      tag_65\n      jump\t// in\n    tag_74:\n        /* \"#utility.yul\":1631:1853   */\n      swap3\n      swap2\n      pop\n      pop\n      jump\t// out\n        /* \"#utility.yul\":1940:2039   */\n    tag_58:\n        /* \"#utility.yul\":1992:1998   */\n      0x00\n        /* \"#utility.yul\":2026:2031   */\n      dup2\n        /* \"#utility.yul\":2020:2032   */\n      mload\n        /* \"#utility.yul\":2010:2032   */\n      swap1\n      pop\n        /* \"#utility.yul\":1940:2039   */\n      swap2\n      swap1\n      pop\n      jump\t// out\n        /* \"#utility.yul\":2045:2214   */\n    tag_60:\n        /* \"#utility.yul\":2129:2140   */\n      0x00\n        /* \"#utility.yul\":2163:2169   */\n      dup3\n        /* \"#utility.yul\":2158:2161   */\n      dup3\n        /* \"#utility.yul\":2151:2170   */\n      mstore\n        /* \"#utility.yul\":2203:2207   */\n      0x20\n        /* \"#utility.yul\":2198:2201   */\n      dup3\n        /* \"#utility.yul\":2194:2208   */\n      add\n        /* \"#utility.yul\":2179:2208   */\n      swap1\n      pop\n        /* \"#utility.yul\":2045:2214   */\n      swap3\n      swap2\n      pop\n      pop\n      jump\t// out\n        /* \"#utility.yul\":2220:2310   */\n    tag_54:\n        /* \"#utility.yul\":2254:2261   */\n      0x00\n        /* \"#utility.yul\":2297:2302   */\n      dup2\n        /* \"#utility.yul\":2290:2303   */\n      iszero\n        /* \"#utility.yul\":2283:2304   */\n      iszero\n        /* \"#utility.yul\":2272:2304   */\n      swap1\n      pop\n        /* \"#utility.yul\":2220:2310   */\n      swap2\n      swap1\n      pop\n      jump\t// out\n        /* \"#utility.yul\":2316:2393   */\n    tag_68:\n        /* \"#utility.yul\":2353:2360   */\n      0x00\n        /* \"#utility.yul\":2382:2387   */\n      dup2\n        /* \"#utility.yul\":2371:2387   */\n      swap1\n      pop\n        /* \"#utility.yul\":2316:2393   */\n      swap2\n      swap1\n      pop\n      jump\t// out\n        /* \"#utility.yul\":2399:2706   */\n    tag_62:\n        /* \"#utility.yul\":2467:2468   */\n      0x00\n        /* \"#utility.yul\":2477:2590   */\n    tag_82:\n        /* \"#utility.yul\":2491:2497   */\n      dup4\n        /* \"#utility.yul\":2488:2489   */\n      dup2\n        /* \"#utility.yul\":2485:2498   */\n      lt\n        /* \"#utility.yul\":2477:2590   */\n      iszero\n      tag_84\n      jumpi\n        /* \"#utility.yul\":2576:2577   */\n      dup1\n        /* \"#utility.yul\":2571:2574   */\n      dup3\n        /* \"#utility.yul\":2567:2578   */\n      add\n        /* \"#utility.yul\":2561:2579   */\n      mload\n        /* \"#utility.yul\":2557:2558   */\n      dup2\n        /* \"#utility.yul\":2552:2555   */\n      dup5\n        /* \"#utility.yul\":2548:2559   */\n      add\n        /* \"#utility.yul\":2541:2580   */\n      mstore\n        /* \"#utility.yul\":2513:2515   */\n      0x20\n        /* \"#utility.yul\":2510:2511   */\n      dup2\n        /* \"#utility.yul\":2506:2516   */\n      add\n        /* \"#utility.yul\":2501:2516   */\n      swap1\n      pop\n        /* \"#utility.yul\":2477:2590   */\n      jump(tag_82)\n    tag_84:\n        /* \"#utility.yul\":2608:2614   */\n      dup4\n        /* \"#utility.yul\":2605:2606   */\n      dup2\n        /* \"#utility.yul\":2602:2615   */\n      gt\n        /* \"#utility.yul\":2599:2700   */\n      iszero\n      tag_85\n      jumpi\n        /* \"#utility.yul\":2688:2689   */\n      0x00\n        /* \"#utility.yul\":2679:2685   */\n      dup5\n        /* \"#utility.yul\":2674:2677   */\n      dup5\n        /* \"#utility.yul\":2670:2686   */\n      add\n        /* \"#utility.yul\":2663:2690   */\n      mstore\n        /* \"#utility.yul\":2599:2700   */\n    tag_85:\n        /* \"#utility.yul\":2448:2706   */\n      pop\n        /* \"#utility.yul\":2399:2706   */\n      pop\n      pop\n      pop\n      jump\t// out\n        /* \"#utility.yul\":2712:3032   */\n    tag_29:\n        /* \"#utility.yul\":2756:2762   */\n      0x00\n        /* \"#utility.yul\":2793:2794   */\n      0x02\n        /* \"#utility.yul\":2787:2791   */\n      dup3\n        /* \"#utility.yul\":2783:2795   */\n      div\n        /* \"#utility.yul\":2773:2795   */\n      swap1\n      pop\n        /* \"#utility.yul\":2840:2841   */\n      0x01\n        /* \"#utility.yul\":2834:2838   */\n      dup3\n        /* \"#utility.yul\":2830:2842   */\n      and\n        /* \"#utility.yul\":2861:2879   */\n      dup1\n        /* \"#utility.yul\":2851:2932   */\n      tag_87\n      jumpi\n        /* \"#utility.yul\":2917:2921   */\n      0x7f\n        /* \"#utility.yul\":2909:2915   */\n      dup3\n        /* \"#utility.yul\":2905:2922   */\n      and\n        /* \"#utility.yul\":2895:2922   */\n      swap2\n      pop\n        /* \"#utility.yul\":2851:2932   */\n    tag_87:\n        /* \"#utility.yul\":2979:2981   */\n      0x20\n        /* \"#utility.yul\":2971:2977   */\n      dup3\n        /* \"#utility.yul\":2968:2982   */\n      lt\n        /* \"#utility.yul\":2948:2966   */\n      dup2\n        /* \"#utility.yul\":2945:2983   */\n      eq\n        /* \"#utility.yul\":2942:3026   */\n      iszero\n      tag_88\n      jumpi\n        /* \"#utility.yul\":2998:3016   */\n      tag_89\n      tag_90\n      jump\t// in\n    tag_89:\n        /* \"#utility.yul\":2942:3026   */\n    tag_88:\n        /* \"#utility.yul\":2763:3032   */\n      pop\n        /* \"#utility.yul\":2712:3032   */\n      swap2\n      swap1\n      pop\n      jump\t// out\n        /* \"#utility.yul\":3038:3218   */\n    tag_90:\n        /* \"#utility.yul\":3086:3163   */\n      0x4e487b7100000000000000000000000000000000000000000000000000000000\n        /* \"#utility.yul\":3083:3084   */\n      0x00\n        /* \"#utility.yul\":3076:3164   */\n      mstore\n        /* \"#utility.yul\":3183:3187   */\n      0x22\n        /* \"#utility.yul\":3180:3181   */\n      0x04\n        /* \"#utility.yul\":3173:3188   */\n      mstore\n        /* \"#utility.yul\":3207:3211   */\n      0x24\n        /* \"#utility.yul\":3204:3205   */\n      0x00\n        /* \"#utility.yul\":3197:3212   */\n      revert\n        /* \"#utility.yul\":3347:3464   */\n    tag_49:\n        /* \"#utility.yul\":3456:3457   */\n      0x00\n        /* \"#utility.yul\":3453:3454   */\n      dup1\n        /* \"#utility.yul\":3446:3458   */\n      revert\n        /* \"#utility.yul\":3470:3572   */\n    tag_64:\n        /* \"#utility.yul\":3511:3517   */\n      0x00\n        /* \"#utility.yul\":3562:3564   */\n      0x1f\n        /* \"#utility.yul\":3558:3565   */\n      not\n        /* \"#utility.yul\":3553:3555   */\n      0x1f\n        /* \"#utility.yul\":3546:3551   */\n      dup4\n        /* \"#utility.yul\":3542:3556   */\n      add\n        /* \"#utility.yul\":3538:3566   */\n      and\n        /* \"#utility.yul\":3528:3566   */\n      swap1\n      pop\n        /* \"#utility.yul\":3470:3572   */\n      swap2\n      swap1\n      pop\n      jump\t// out\n        /* \"#utility.yul\":3578:3700   */\n    tag_45:\n        /* \"#utility.yul\":3651:3675   */\n      tag_97\n        /* \"#utility.yul\":3669:3674   */\n      dup2\n        /* \"#utility.yul\":3651:3675   */\n      tag_68\n      jump\t// in\n    tag_97:\n        /* \"#utility.yul\":3644:3649   */\n      dup2\n        /* \"#utility.yul\":3641:3676   */\n      eq\n        /* \"#utility.yul\":3631:3694   */\n      tag_98\n      jumpi\n        /* \"#utility.yul\":3690:3691   */\n      0x00\n        /* \"#utility.yul\":3687:3688   */\n      dup1\n        /* \"#utility.yul\":3680:3692   */\n      revert\n        /* \"#utility.yul\":3631:3694   */\n    tag_98:\n        /* \"#utility.yul\":3578:3700   */\n      pop\n      jump\t// out\n\n    auxdata: 0xa26469706673582212207f53028c981d7c8768431a35eb0c9d6fc3dd714aedd796d2426fcc942cdef87e64736f6c63430008070033\n}\n",
				"bytecode": {
					"linkReferences": {},
					"object": "60806040526040518060400160405280600b81526020017f546f6e792053747261726b0000000000000000000000000000000000000000008152506000908051906020019061004f92919061014d565b5060306001556001600260006101000a81548160ff02191690831515021790555060405180606001604052806040518060400160405280600781526020017f706c6179626f790000000000000000000000000000000000000000000000000081525081526020016040518060400160405280600881526020017f656e67696e65657200000000000000000000000000000000000000000000000081525081526020016040518060400160405280600481526020017f6865726f00000000000000000000000000000000000000000000000000000000815250815250600490600361013a9291906101d3565b5034801561014757600080fd5b50610315565b828054610159906102b4565b90600052602060002090601f01602090048101928261017b57600085556101c2565b82601f1061019457805160ff19168380011785556101c2565b828001600101855582156101c2579182015b828111156101c15782518255916020019190600101906101a6565b5b5090506101cf9190610233565b5090565b828054828255906000526020600020908101928215610222579160200282015b8281111561022157825182908051906020019061021192919061014d565b50916020019190600101906101f3565b5b50905061022f9190610250565b5090565b5b8082111561024c576000816000905550600101610234565b5090565b5b8082111561027057600081816102679190610274565b50600101610251565b5090565b508054610280906102b4565b6000825580601f1061029257506102b1565b601f0160209004906000526020600020908101906102b09190610233565b5b50565b600060028204905060018216806102cc57607f821691505b602082108114156102e0576102df6102e6565b5b50919050565b7f4e487b7100000000000000000000000000000000000000000000000000000000600052602260045260246000fd5b610477806103246000396000f3fe608060405234801561001057600080fd5b50600436106100575760003560e01c806306fdde031461005c578063262a9dff1461007a5780635cd836a314610098578063654a573c146100c8578063b69ef8a8146100e6575b600080fd5b610064610104565b6040516100719190610311565b60405180910390f35b610082610192565b60405161008f9190610333565b60405180910390f35b6100b260048036038101906100ad9190610272565b610198565b6040516100bf9190610311565b60405180910390f35b6100d0610244565b6040516100dd91906102f6565b60405180910390f35b6100ee610257565b6040516100fb9190610333565b60405180910390f35b60008054610111906103b3565b80601f016020809104026020016040519081016040528092919081815260200182805461013d906103b3565b801561018a5780601f1061015f5761010080835404028352916020019161018a565b820191906000526020600020905b81548152906001019060200180831161016d57829003601f168201915b505050505081565b60015481565b600481815481106101a857600080fd5b9060005260206000200160009150905080546101c3906103b3565b80601f01602080910402602001604051908101604052809291908181526020018280546101ef906103b3565b801561023c5780601f106102115761010080835404028352916020019161023c565b820191906000526020600020905b81548152906001019060200180831161021f57829003601f168201915b505050505081565b600260009054906101000a900460ff1681565b60035481565b60008135905061026c8161042a565b92915050565b60006020828403121561028857610287610414565b5b60006102968482850161025d565b91505092915050565b6102a88161036a565b82525050565b60006102b98261034e565b6102c38185610359565b93506102d3818560208601610380565b6102dc81610419565b840191505092915050565b6102f081610376565b82525050565b600060208201905061030b600083018461029f565b92915050565b6000602082019050818103600083015261032b81846102ae565b905092915050565b600060208201905061034860008301846102e7565b92915050565b600081519050919050565b600082825260208201905092915050565b60008115159050919050565b6000819050919050565b60005b8381101561039e578082015181840152602081019050610383565b838111156103ad576000848401525b50505050565b600060028204905060018216806103cb57607f821691505b602082108114156103df576103de6103e5565b5b50919050565b7f4e487b7100000000000000000000000000000000000000000000000000000000600052602260045260246000fd5b600080fd5b6000601f19601f8301169050919050565b61043381610376565b811461043e57600080fd5b5056fea26469706673582212207f53028c981d7c8768431a35eb0c9d6fc3dd714aedd796d2426fcc942cdef87e64736f6c63430008070033",
					"opcodes": "PUSH1 0x80 PUSH1 0x40 MSTORE PUSH1 0x40 MLOAD DUP1 PUSH1 0x40 ADD PUSH1 0x40 MSTORE DUP1 PUSH1 0xB DUP2 MSTORE PUSH1 0x20 ADD PUSH32 0x546F6E792053747261726B000000000000000000000000000000000000000000 DUP2 MSTORE POP PUSH1 0x0 SWAP1 DUP1 MLOAD SWAP1 PUSH1 0x20 ADD SWAP1 PUSH2 0x4F SWAP3 SWAP2 SWAP1 PUSH2 0x14D JUMP JUMPDEST POP PUSH1 0x30 PUSH1 0x1 SSTORE PUSH1 0x1 PUSH1 0x2 PUSH1 0x0 PUSH2 0x100 EXP DUP2 SLOAD DUP2 PUSH1 0xFF MUL NOT AND SWAP1 DUP4 ISZERO ISZERO MUL OR SWAP1 SSTORE POP PUSH1 0x40 MLOAD DUP1 PUSH1 0x60 ADD PUSH1 0x40 MSTORE DUP1 PUSH1 0x40 MLOAD DUP1 PUSH1 0x40 ADD PUSH1 0x40 MSTORE DUP1 PUSH1 0x7 DUP2 MSTORE PUSH1 0x20 ADD PUSH32 0x706C6179626F7900000000000000000000000000000000000000000000000000 DUP2 MSTORE POP DUP2 MSTORE PUSH1 0x20 ADD PUSH1 0x40 MLOAD DUP1 PUSH1 0x40 ADD PUSH1 0x40 MSTORE DUP1 PUSH1 0x8 DUP2 MSTORE PUSH1 0x20 ADD PUSH32 0x656E67696E656572000000000000000000000000000000000000000000000000 DUP2 MSTORE POP DUP2 MSTORE PUSH1 0x20 ADD PUSH1 0x40 MLOAD DUP1 PUSH1 0x40 ADD PUSH1 0x40 MSTORE DUP1 PUSH1 0x4 DUP2 MSTORE PUSH1 0x20 ADD PUSH32 0x6865726F00000000000000000000000000000000000000000000000000000000 DUP2 MSTORE POP DUP2 MSTORE POP PUSH1 0x4 SWAP1 PUSH1 0x3 PUSH2 0x13A SWAP3 SWAP2 SWAP1 PUSH2 0x1D3 JUMP JUMPDEST POP CALLVALUE DUP1 ISZERO PUSH2 0x147 JUMPI PUSH1 0x0 DUP1 REVERT JUMPDEST POP PUSH2 0x315 JUMP JUMPDEST DUP3 DUP1 SLOAD PUSH2 0x159 SWAP1 PUSH2 0x2B4 JUMP JUMPDEST SWAP1 PUSH1 0x0 MSTORE PUSH1 0x20 PUSH1 0x0 KECCAK256 SWAP1 PUSH1 0x1F ADD PUSH1 0x20 SWAP1 DIV DUP2 ADD SWAP3 DUP3 PUSH2 0x17B JUMPI PUSH1 0x0 DUP6 SSTORE PUSH2 0x1C2 JUMP JUMPDEST DUP3 PUSH1 0x1F LT PUSH2 0x194 JUMPI DUP1 MLOAD PUSH1 0xFF NOT AND DUP4 DUP1 ADD OR DUP6 SSTORE PUSH2 0x1C2 JUMP JUMPDEST DUP3 DUP1 ADD PUSH1 0x1 ADD DUP6 SSTORE DUP3 ISZERO PUSH2 0x1C2 JUMPI SWAP2 DUP3 ADD JUMPDEST DUP3 DUP2 GT ISZERO PUSH2 0x1C1 JUMPI DUP3 MLOAD DUP3 SSTORE SWAP2 PUSH1 0x20 ADD SWAP2 SWAP1 PUSH1 0x1 ADD SWAP1 PUSH2 0x1A6 JUMP JUMPDEST JUMPDEST POP SWAP1 POP PUSH2 0x1CF SWAP2 SWAP1 PUSH2 0x233 JUMP JUMPDEST POP SWAP1 JUMP JUMPDEST DUP3 DUP1 SLOAD DUP3 DUP3 SSTORE SWAP1 PUSH1 0x0 MSTORE PUSH1 0x20 PUSH1 0x0 KECCAK256 SWAP1 DUP2 ADD SWAP3 DUP3 ISZERO PUSH2 0x222 JUMPI SWAP2 PUSH1 0x20 MUL DUP3 ADD JUMPDEST DUP3 DUP2 GT ISZERO PUSH2 0x221 JUMPI DUP3 MLOAD DUP3 SWAP1 DUP1 MLOAD SWAP1 PUSH1 0x20 ADD SWAP1 PUSH2 0x211 SWAP3 SWAP2 SWAP1 PUSH2 0x14D JUMP JUMPDEST POP SWAP2 PUSH1 0x20 ADD SWAP2 SWAP1 PUSH1 0x1 ADD SWAP1 PUSH2 0x1F3 JUMP JUMPDEST JUMPDEST POP SWAP1 POP PUSH2 0x22F SWAP2 SWAP1 PUSH2 0x250 JUMP JUMPDEST POP SWAP1 JUMP JUMPDEST JUMPDEST DUP1 DUP3 GT ISZERO PUSH2 0x24C JUMPI PUSH1 0x0 DUP2 PUSH1 0x0 SWAP1 SSTORE POP PUSH1 0x1 ADD PUSH2 0x234 JUMP JUMPDEST POP SWAP1 JUMP JUMPDEST JUMPDEST DUP1 DUP3 GT ISZERO PUSH2 0x270 JUMPI PUSH1 0x0 DUP2 DUP2 PUSH2 0x267 SWAP2 SWAP1 PUSH2 0x274 JUMP JUMPDEST POP PUSH1 0x1 ADD PUSH2 0x251 JUMP JUMPDEST POP SWAP1 JUMP JUMPDEST POP DUP1 SLOAD PUSH2 0x280 SWAP1 PUSH2 0x2B4 JUMP JUMPDEST PUSH1 0x0 DUP3 SSTORE DUP1 PUSH1 0x1F LT PUSH2 0x292 JUMPI POP PUSH2 0x2B1 JUMP JUMPDEST PUSH1 0x1F ADD PUSH1 0x20 SWAP1 DIV SWAP1 PUSH1 0x0 MSTORE PUSH1 0x20 PUSH1 0x0 KECCAK256 SWAP1 DUP2 ADD SWAP1 PUSH2 0x2B0 SWAP2 SWAP1 PUSH2 0x233 JUMP JUMPDEST JUMPDEST POP JUMP JUMPDEST PUSH1 0x0 PUSH1 0x2 DUP3 DIV SWAP1 POP PUSH1 0x1 DUP3 AND DUP1 PUSH2 0x2CC JUMPI PUSH1 0x7F DUP3 AND SWAP2 POP JUMPDEST PUSH1 0x20 DUP3 LT DUP2 EQ ISZERO PUSH2 0x2E0 JUMPI PUSH2 0x2DF PUSH2 0x2E6 JUMP JUMPDEST JUMPDEST POP SWAP2 SWAP1 POP JUMP JUMPDEST PUSH32 0x4E487B7100000000000000000000000000000000000000000000000000000000 PUSH1 0x0 MSTORE PUSH1 0x22 PUSH1 0x4 MSTORE PUSH1 0x24 PUSH1 0x0 REVERT JUMPDEST PUSH2 0x477 DUP1 PUSH2 0x324 PUSH1 0x0 CODECOPY PUSH1 0x0 RETURN INVALID PUSH1 0x80 PUSH1 0x40 MSTORE CALLVALUE DUP1 ISZERO PUSH2 0x10 JUMPI PUSH1 0x0 DUP1 REVERT JUMPDEST POP PUSH1 0x4 CALLDATASIZE LT PUSH2 0x57 JUMPI PUSH1 0x0 CALLDATALOAD PUSH1 0xE0 SHR DUP1 PUSH4 0x6FDDE03 EQ PUSH2 0x5C JUMPI DUP1 PUSH4 0x262A9DFF EQ PUSH2 0x7A JUMPI DUP1 PUSH4 0x5CD836A3 EQ PUSH2 0x98 JUMPI DUP1 PUSH4 0x654A573C EQ PUSH2 0xC8 JUMPI DUP1 PUSH4 0xB69EF8A8 EQ PUSH2 0xE6 JUMPI JUMPDEST PUSH1 0x0 DUP1 REVERT JUMPDEST PUSH2 0x64 PUSH2 0x104 JUMP JUMPDEST PUSH1 0x40 MLOAD PUSH2 0x71 SWAP2 SWAP1 PUSH2 0x311 JUMP JUMPDEST PUSH1 0x40 MLOAD DUP1 SWAP2 SUB SWAP1 RETURN JUMPDEST PUSH2 0x82 PUSH2 0x192 JUMP JUMPDEST PUSH1 0x40 MLOAD PUSH2 0x8F SWAP2 SWAP1 PUSH2 0x333 JUMP JUMPDEST PUSH1 0x40 MLOAD DUP1 SWAP2 SUB SWAP1 RETURN JUMPDEST PUSH2 0xB2 PUSH1 0x4 DUP1 CALLDATASIZE SUB DUP2 ADD SWAP1 PUSH2 0xAD SWAP2 SWAP1 PUSH2 0x272 JUMP JUMPDEST PUSH2 0x198 JUMP JUMPDEST PUSH1 0x40 MLOAD PUSH2 0xBF SWAP2 SWAP1 PUSH2 0x311 JUMP JUMPDEST PUSH1 0x40 MLOAD DUP1 SWAP2 SUB SWAP1 RETURN JUMPDEST PUSH2 0xD0 PUSH2 0x244 JUMP JUMPDEST PUSH1 0x40 MLOAD PUSH2 0xDD SWAP2 SWAP1 PUSH2 0x2F6 JUMP JUMPDEST PUSH1 0x40 MLOAD DUP1 SWAP2 SUB SWAP1 RETURN JUMPDEST PUSH2 0xEE PUSH2 0x257 JUMP JUMPDEST PUSH1 0x40 MLOAD PUSH2 0xFB SWAP2 SWAP1 PUSH2 0x333 JUMP JUMPDEST PUSH1 0x40 MLOAD DUP1 SWAP2 SUB SWAP1 RETURN JUMPDEST PUSH1 0x0 DUP1 SLOAD PUSH2 0x111 SWAP1 PUSH2 0x3B3 JUMP JUMPDEST DUP1 PUSH1 0x1F ADD PUSH1 0x20 DUP1 SWAP2 DIV MUL PUSH1 0x20 ADD PUSH1 0x40 MLOAD SWAP1 DUP2 ADD PUSH1 0x40 MSTORE DUP1 SWAP3 SWAP2 SWAP1 DUP2 DUP2 MSTORE PUSH1 0x20 ADD DUP3 DUP1 SLOAD PUSH2 0x13D SWAP1 PUSH2 0x3B3 JUMP JUMPDEST DUP1 ISZERO PUSH2 0x18A JUMPI DUP1 PUSH1 0x1F LT PUSH2 0x15F JUMPI PUSH2 0x100 DUP1 DUP4 SLOAD DIV MUL DUP4 MSTORE SWAP2 PUSH1 0x20 ADD SWAP2 PUSH2 0x18A JUMP JUMPDEST DUP3 ADD SWAP2 SWAP1 PUSH1 0x0 MSTORE PUSH1 0x20 PUSH1 0x0 KECCAK256 SWAP1 JUMPDEST DUP2 SLOAD DUP2 MSTORE SWAP1 PUSH1 0x1 ADD SWAP1 PUSH1 0x20 ADD DUP1 DUP4 GT PUSH2 0x16D JUMPI DUP3 SWAP1 SUB PUSH1 0x1F AND DUP3 ADD SWAP2 JUMPDEST POP POP POP POP POP DUP2 JUMP JUMPDEST PUSH1 0x1 SLOAD DUP2 JUMP JUMPDEST PUSH1 0x4 DUP2 DUP2 SLOAD DUP2 LT PUSH2 0x1A8 JUMPI PUSH1 0x0 DUP1 REVERT JUMPDEST SWAP1 PUSH1 0x0 MSTORE PUSH1 0x20 PUSH1 0x0 KECCAK256 ADD PUSH1 0x0 SWAP2 POP SWAP1 POP DUP1 SLOAD PUSH2 0x1C3 SWAP1 PUSH2 0x3B3 JUMP JUMPDEST DUP1 PUSH1 0x1F ADD PUSH1 0x20 DUP1 SWAP2 DIV MUL PUSH1 0x20 ADD PUSH1 0x40 MLOAD SWAP1 DUP2 ADD PUSH1 0x40 MSTORE DUP1 SWAP3 SWAP2 SWAP1 DUP2 DUP2 MSTORE PUSH1 0x20 ADD DUP3 DUP1 SLOAD PUSH2 0x1EF SWAP1 PUSH2 0x3B3 JUMP JUMPDEST DUP1 ISZERO PUSH2 0x23C JUMPI DUP1 PUSH1 0x1F LT PUSH2 0x211 JUMPI PUSH2 0x100 DUP1 DUP4 SLOAD DIV MUL DUP4 MSTORE SWAP2 PUSH1 0x20 ADD SWAP2 PUSH2 0x23C JUMP JUMPDEST DUP3 ADD SWAP2 SWAP1 PUSH1 0x0 MSTORE PUSH1 0x20 PUSH1 0x0 KECCAK256 SWAP1 JUMPDEST DUP2 SLOAD DUP2 MSTORE SWAP1 PUSH1 0x1 ADD SWAP1 PUSH1 0x20 ADD DUP1 DUP4 GT PUSH2 0x21F JUMPI DUP3 SWAP1 SUB PUSH1 0x1F AND DUP3 ADD SWAP2 JUMPDEST POP POP POP POP POP DUP2 JUMP JUMPDEST PUSH1 0x2 PUSH1 0x0 SWAP1 SLOAD SWAP1 PUSH2 0x100 EXP SWAP1 DIV PUSH1 0xFF AND DUP2 JUMP JUMPDEST PUSH1 0x3 SLOAD DUP2 JUMP JUMPDEST PUSH1 0x0 DUP2 CALLDATALOAD SWAP1 POP PUSH2 0x26C DUP2 PUSH2 0x42A JUMP JUMPDEST SWAP3 SWAP2 POP POP JUMP JUMPDEST PUSH1 0x0 PUSH1 0x20 DUP3 DUP5 SUB SLT ISZERO PUSH2 0x288 JUMPI PUSH2 0x287 PUSH2 0x414 JUMP JUMPDEST JUMPDEST PUSH1 0x0 PUSH2 0x296 DUP5 DUP3 DUP6 ADD PUSH2 0x25D JUMP JUMPDEST SWAP2 POP POP SWAP3 SWAP2 POP POP JUMP JUMPDEST PUSH2 0x2A8 DUP2 PUSH2 0x36A JUMP JUMPDEST DUP3 MSTORE POP POP JUMP JUMPDEST PUSH1 0x0 PUSH2 0x2B9 DUP3 PUSH2 0x34E JUMP JUMPDEST PUSH2 0x2C3 DUP2 DUP6 PUSH2 0x359 JUMP JUMPDEST SWAP4 POP PUSH2 0x2D3 DUP2 DUP6 PUSH1 0x20 DUP7 ADD PUSH2 0x380 JUMP JUMPDEST PUSH2 0x2DC DUP2 PUSH2 0x419 JUMP JUMPDEST DUP5 ADD SWAP2 POP POP SWAP3 SWAP2 POP POP JUMP JUMPDEST PUSH2 0x2F0 DUP2 PUSH2 0x376 JUMP JUMPDEST DUP3 MSTORE POP POP JUMP JUMPDEST PUSH1 0x0 PUSH1 0x20 DUP3 ADD SWAP1 POP PUSH2 0x30B PUSH1 0x0 DUP4 ADD DUP5 PUSH2 0x29F JUMP JUMPDEST SWAP3 SWAP2 POP POP JUMP JUMPDEST PUSH1 0x0 PUSH1 0x20 DUP3 ADD SWAP1 POP DUP2 DUP2 SUB PUSH1 0x0 DUP4 ADD MSTORE PUSH2 0x32B DUP2 DUP5 PUSH2 0x2AE JUMP JUMPDEST SWAP1 POP SWAP3 SWAP2 POP POP JUMP JUMPDEST PUSH1 0x0 PUSH1 0x20 DUP3 ADD SWAP1 POP PUSH2 0x348 PUSH1 0x0 DUP4 ADD DUP5 PUSH2 0x2E7 JUMP JUMPDEST SWAP3 SWAP2 POP POP JUMP JUMPDEST PUSH1 0x0 DUP2 MLOAD SWAP1 POP SWAP2 SWAP1 POP JUMP JUMPDEST PUSH1 0x0 DUP3 DUP3 MSTORE PUSH1 0x20 DUP3 ADD SWAP1 POP SWAP3 SWAP2 POP POP JUMP JUMPDEST PUSH1 0x0 DUP2 ISZERO ISZERO SWAP1 POP SWAP2 SWAP1 POP JUMP JUMPDEST PUSH1 0x0 DUP2 SWAP1 POP SWAP2 SWAP1 POP JUMP JUMPDEST PUSH1 0x0 JUMPDEST DUP4 DUP2 LT ISZERO PUSH2 0x39E JUMPI DUP1 DUP3 ADD MLOAD DUP2 DUP5 ADD MSTORE PUSH1 0x20 DUP2 ADD SWAP1 POP PUSH2 0x383 JUMP JUMPDEST DUP4 DUP2 GT ISZERO PUSH2 0x3AD JUMPI PUSH1 0x0 DUP5 DUP5 ADD MSTORE JUMPDEST POP POP POP POP JUMP JUMPDEST PUSH1 0x0 PUSH1 0x2 DUP3 DIV SWAP1 POP PUSH1 0x1 DUP3 AND DUP1 PUSH2 0x3CB JUMPI PUSH1 0x7F DUP3 AND SWAP2 POP JUMPDEST PUSH1 0x20 DUP3 LT DUP2 EQ ISZERO PUSH2 0x3DF JUMPI PUSH2 0x3DE PUSH2 0x3E5 JUMP JUMPDEST JUMPDEST POP SWAP2 SWAP1 POP JUMP JUMPDEST PUSH32 0x4E487B7100000000000000000000000000000000000000000000000000000000 PUSH1 0x0 MSTORE PUSH1 0x22 PUSH1 0x4 MSTORE PUSH1 0x24 PUSH1 0x0 REVERT JUMPDEST PUSH1 0x0 DUP1 REVERT JUMPDEST PUSH1 0x0 PUSH1 0x1F NOT PUSH1 0x1F DUP4 ADD AND SWAP1 POP SWAP2 SWAP1 POP JUMP JUMPDEST PUSH2 0x433 DUP2 PUSH2 0x376 JUMP JUMPDEST DUP2 EQ PUSH2 0x43E JUMPI PUSH1 0x0 DUP1 REVERT JUMPDEST POP JUMP INVALID LOG2 PUSH5 0x6970667358 0x22 SLT KECCAK256 PUSH32 0x53028C981D7C8768431A35EB0C9D6FC3DD714AEDD796D2426FCC942CDEF87E64 PUSH20 0x6F6C634300080700330000000000000000000000 "
				},
				"gasEstimates": {
					"creation": {
						"codeDepositCost": "228600",
						"executionCost": "infinite",
						"totalCost": "infinite"
					},
					"external": {
						"age()": "2429",
						"balance()": "2495",
						"carreer(uint256)": "infinite",
						"isMale()": "2515",
						"name()": "infinite"
					}
				},
				"methodIdentifiers": {
					"age()": "262a9dff",
					"balance()": "b69ef8a8",
					"carreer(uint256)": "5cd836a3",
					"isMale()": "654a573c",
					"name()": "06fdde03"
				}
			},
			"storageLayout": {
				"storage": [
					{
						"astId": 4,
						"contract": "contracts/basic_solidity.sol:BasicSolidity",
						"label": "name",
						"offset": 0,
						"slot": "0",
						"type": "t_string_storage"
					},
					{
						"astId": 7,
						"contract": "contracts/basic_solidity.sol:BasicSolidity",
						"label": "age",
						"offset": 0,
						"slot": "1",
						"type": "t_uint256"
					},
					{
						"astId": 10,
						"contract": "contracts/basic_solidity.sol:BasicSolidity",
						"label": "isMale",
						"offset": 0,
						"slot": "2",
						"type": "t_bool"
					},
					{
						"astId": 12,
						"contract": "contracts/basic_solidity.sol:BasicSolidity",
						"label": "balance",
						"offset": 0,
						"slot": "3",
						"type": "t_uint256"
					},
					{
						"astId": 19,
						"contract": "contracts/basic_solidity.sol:BasicSolidity",
						"label": "carreer",
						"offset": 0,
						"slot": "4",
						"type": "t_array(t_string_storage)dyn_storage"
					},
					{
						"astId": 21,
						"contract": "contracts/basic_solidity.sol:BasicSolidity",
						"label": "puwallet",
						"offset": 0,
						"slot": "5",
						"type": "t_address"
					},
					{
						"astId": 23,
						"contract": "contracts/basic_solidity.sol:BasicSolidity",
						"label": "car",
						"offset": 0,
						"slot": "6",
						"type": "t_string_storage"
					}
				],
				"types": {
					"t_address": {
						"encoding": "inplace",
						"label": "address",
						"numberOfBytes": "20"
					},
					"t_array(t_string_storage)dyn_storage": {
						"base": "t_string_storage",
						"encoding": "dynamic_array",
						"label": "string[]",
						"numberOfBytes": "32"
					},
					"t_bool": {
						"encoding": "inplace",
						"label": "bool",
						"numberOfBytes": "1"
					},
					"t_string_storage": {
						"encoding": "bytes",
						"label": "string",
						"numberOfBytes": "32"
					},
					"t_uint256": {
						"encoding": "inplace",
						"label": "uint256",
						"numberOfBytes": "32"
					}
				}
			},
			"userdoc": {
				"kind": "user",
				"methods": {},
				"version": 1
			}
		}
	}
}